{
  "contracts/Distribution/AtlantisDistribution.sol": {
    "AtlantisDistribution": {
      "abi": [
        {
          "inputs": [
            {
              "internalType": "string",
              "name": "name",
              "type": "string"
            },
            {
              "internalType": "string",
              "name": "symbol",
              "type": "string"
            },
            {
              "internalType": "address payable",
              "name": "_fund_wallet",
              "type": "address"
            }
          ],
          "stateMutability": "nonpayable",
          "type": "constructor"
        },
        {
          "anonymous": false,
          "inputs": [
            {
              "indexed": true,
              "internalType": "address",
              "name": "owner",
              "type": "address"
            },
            {
              "indexed": true,
              "internalType": "address",
              "name": "spender",
              "type": "address"
            },
            {
              "indexed": false,
              "internalType": "uint256",
              "name": "value",
              "type": "uint256"
            }
          ],
          "name": "Approval",
          "type": "event"
        },
        {
          "anonymous": false,
          "inputs": [
            {
              "indexed": true,
              "internalType": "address",
              "name": "previousOwner",
              "type": "address"
            },
            {
              "indexed": true,
              "internalType": "address",
              "name": "newOwner",
              "type": "address"
            }
          ],
          "name": "OwnershipTransferred",
          "type": "event"
        },
        {
          "anonymous": false,
          "inputs": [
            {
              "indexed": true,
              "internalType": "address",
              "name": "from",
              "type": "address"
            },
            {
              "indexed": true,
              "internalType": "address",
              "name": "to",
              "type": "address"
            },
            {
              "indexed": false,
              "internalType": "uint256",
              "name": "value",
              "type": "uint256"
            }
          ],
          "name": "Transfer",
          "type": "event"
        },
        {
          "inputs": [
            {
              "internalType": "address",
              "name": "owner",
              "type": "address"
            },
            {
              "internalType": "address",
              "name": "spender",
              "type": "address"
            }
          ],
          "name": "allowance",
          "outputs": [
            {
              "internalType": "uint256",
              "name": "",
              "type": "uint256"
            }
          ],
          "stateMutability": "view",
          "type": "function"
        },
        {
          "inputs": [
            {
              "internalType": "address",
              "name": "spender",
              "type": "address"
            },
            {
              "internalType": "uint256",
              "name": "amount",
              "type": "uint256"
            }
          ],
          "name": "approve",
          "outputs": [
            {
              "internalType": "bool",
              "name": "",
              "type": "bool"
            }
          ],
          "stateMutability": "nonpayable",
          "type": "function"
        },
        {
          "inputs": [
            {
              "internalType": "address",
              "name": "account",
              "type": "address"
            }
          ],
          "name": "balanceOf",
          "outputs": [
            {
              "internalType": "uint256",
              "name": "",
              "type": "uint256"
            }
          ],
          "stateMutability": "view",
          "type": "function"
        },
        {
          "inputs": [
            {
              "internalType": "address",
              "name": "account",
              "type": "address"
            },
            {
              "internalType": "uint8",
              "name": "newLvl",
              "type": "uint8"
            }
          ],
          "name": "changeLvl",
          "outputs": [],
          "stateMutability": "nonpayable",
          "type": "function"
        },
        {
          "inputs": [
            {
              "internalType": "uint256",
              "name": "",
              "type": "uint256"
            }
          ],
          "name": "cury",
          "outputs": [
            {
              "internalType": "uint256",
              "name": "",
              "type": "uint256"
            }
          ],
          "stateMutability": "view",
          "type": "function"
        },
        {
          "inputs": [],
          "name": "decimals",
          "outputs": [
            {
              "internalType": "uint8",
              "name": "",
              "type": "uint8"
            }
          ],
          "stateMutability": "view",
          "type": "function"
        },
        {
          "inputs": [
            {
              "internalType": "address",
              "name": "spender",
              "type": "address"
            },
            {
              "internalType": "uint256",
              "name": "subtractedValue",
              "type": "uint256"
            }
          ],
          "name": "decreaseAllowance",
          "outputs": [
            {
              "internalType": "bool",
              "name": "",
              "type": "bool"
            }
          ],
          "stateMutability": "nonpayable",
          "type": "function"
        },
        {
          "inputs": [
            {
              "internalType": "address",
              "name": "spender",
              "type": "address"
            },
            {
              "internalType": "uint256",
              "name": "addedValue",
              "type": "uint256"
            }
          ],
          "name": "increaseAllowance",
          "outputs": [
            {
              "internalType": "bool",
              "name": "",
              "type": "bool"
            }
          ],
          "stateMutability": "nonpayable",
          "type": "function"
        },
        {
          "inputs": [
            {
              "internalType": "address",
              "name": "",
              "type": "address"
            }
          ],
          "name": "lvl",
          "outputs": [
            {
              "internalType": "uint8",
              "name": "",
              "type": "uint8"
            }
          ],
          "stateMutability": "view",
          "type": "function"
        },
        {
          "inputs": [
            {
              "internalType": "uint256",
              "name": "amount",
              "type": "uint256"
            }
          ],
          "name": "mint",
          "outputs": [],
          "stateMutability": "nonpayable",
          "type": "function"
        },
        {
          "inputs": [
            {
              "internalType": "address",
              "name": "account",
              "type": "address"
            },
            {
              "internalType": "uint256",
              "name": "amount",
              "type": "uint256"
            }
          ],
          "name": "mintToNRS",
          "outputs": [],
          "stateMutability": "nonpayable",
          "type": "function"
        },
        {
          "inputs": [
            {
              "internalType": "address",
              "name": "account",
              "type": "address"
            },
            {
              "internalType": "uint256",
              "name": "amount",
              "type": "uint256"
            }
          ],
          "name": "mintToRS",
          "outputs": [],
          "stateMutability": "nonpayable",
          "type": "function"
        },
        {
          "inputs": [],
          "name": "name",
          "outputs": [
            {
              "internalType": "string",
              "name": "",
              "type": "string"
            }
          ],
          "stateMutability": "view",
          "type": "function"
        },
        {
          "inputs": [],
          "name": "owner",
          "outputs": [
            {
              "internalType": "address",
              "name": "",
              "type": "address"
            }
          ],
          "stateMutability": "view",
          "type": "function"
        },
        {
          "inputs": [
            {
              "internalType": "address",
              "name": "account",
              "type": "address"
            }
          ],
          "name": "relaxBalance",
          "outputs": [],
          "stateMutability": "nonpayable",
          "type": "function"
        },
        {
          "inputs": [],
          "name": "renounceOwnership",
          "outputs": [],
          "stateMutability": "nonpayable",
          "type": "function"
        },
        {
          "inputs": [],
          "name": "symbol",
          "outputs": [
            {
              "internalType": "string",
              "name": "",
              "type": "string"
            }
          ],
          "stateMutability": "view",
          "type": "function"
        },
        {
          "inputs": [],
          "name": "totalSupply",
          "outputs": [
            {
              "internalType": "uint256",
              "name": "",
              "type": "uint256"
            }
          ],
          "stateMutability": "view",
          "type": "function"
        },
        {
          "inputs": [
            {
              "internalType": "address",
              "name": "recipient",
              "type": "address"
            },
            {
              "internalType": "uint256",
              "name": "amount",
              "type": "uint256"
            }
          ],
          "name": "transfer",
          "outputs": [
            {
              "internalType": "bool",
              "name": "",
              "type": "bool"
            }
          ],
          "stateMutability": "nonpayable",
          "type": "function"
        },
        {
          "inputs": [
            {
              "internalType": "address",
              "name": "sender",
              "type": "address"
            },
            {
              "internalType": "address",
              "name": "recipient",
              "type": "address"
            },
            {
              "internalType": "uint256",
              "name": "amount",
              "type": "uint256"
            }
          ],
          "name": "transferFrom",
          "outputs": [
            {
              "internalType": "bool",
              "name": "",
              "type": "bool"
            }
          ],
          "stateMutability": "nonpayable",
          "type": "function"
        },
        {
          "inputs": [
            {
              "internalType": "address",
              "name": "newOwner",
              "type": "address"
            }
          ],
          "name": "transferOwnership",
          "outputs": [],
          "stateMutability": "nonpayable",
          "type": "function"
        }
      ],
      "devdoc": {
        "kind": "dev",
        "methods": {
          "allowance(address,address)": {
            "details": "See {IERC20-allowance}."
          },
          "approve(address,uint256)": {
            "details": "See {IERC20-approve}. Requirements: - `spender` cannot be the zero address."
          },
          "balanceOf(address)": {
            "details": "See {IERC20-balanceOf}."
          },
          "decimals()": {
            "details": "Returns the number of decimals used to get its user representation. For example, if `decimals` equals `2`, a balance of `505` tokens should be displayed to a user as `5,05` (`505 / 10 ** 2`). Tokens usually opt for a value of 18, imitating the relationship between Ether and Wei. This is the value {ERC20} uses, unless this function is overloaded; NOTE: This information is only used for _display_ purposes: it in no way affects any of the arithmetic of the contract, including {IERC20-balanceOf} and {IERC20-transfer}."
          },
          "decreaseAllowance(address,uint256)": {
            "details": "Atomically decreases the allowance granted to `spender` by the caller. This is an alternative to {approve} that can be used as a mitigation for problems described in {IERC20-approve}. Emits an {Approval} event indicating the updated allowance. Requirements: - `spender` cannot be the zero address. - `spender` must have allowance for the caller of at least `subtractedValue`."
          },
          "increaseAllowance(address,uint256)": {
            "details": "Atomically increases the allowance granted to `spender` by the caller. This is an alternative to {approve} that can be used as a mitigation for problems described in {IERC20-approve}. Emits an {Approval} event indicating the updated allowance. Requirements: - `spender` cannot be the zero address."
          },
          "name()": {
            "details": "Returns the name of the token."
          },
          "owner()": {
            "details": "Returns the address of the current owner."
          },
          "renounceOwnership()": {
            "details": "Leaves the contract without owner. It will not be possible to call `onlyOwner` functions anymore. Can only be called by the current owner. NOTE: Renouncing ownership will leave the contract without an owner, thereby removing any functionality that is only available to the owner."
          },
          "symbol()": {
            "details": "Returns the symbol of the token, usually a shorter version of the name."
          },
          "totalSupply()": {
            "details": "See {IERC20-totalSupply}."
          },
          "transfer(address,uint256)": {
            "details": "See {IERC20-transfer}. Requirements: - `recipient` cannot be the zero address. - the caller must have a balance of at least `amount`."
          },
          "transferFrom(address,address,uint256)": {
            "details": "See {IERC20-transferFrom}. Emits an {Approval} event indicating the updated allowance. This is not required by the EIP. See the note at the beginning of {ERC20}. Requirements: - `sender` and `recipient` cannot be the zero address. - `sender` must have a balance of at least `amount`. - the caller must have allowance for ``sender``'s tokens of at least `amount`."
          },
          "transferOwnership(address)": {
            "details": "Transfers ownership of the contract to a new account (`newOwner`). Can only be called by the current owner."
          }
        },
        "version": 1
      },
      "evm": {
        "bytecode": {
          "linkReferences": {},
          "object": "6003600881905560808181526101006040529060a06060803683375050815162000031926009925060200190620003df565b506008546001600160401b038111156200005b57634e487b7160e01b600052604160045260246000fd5b60405190808252806020026020018201604052801562000085578160200160208202803683370190505b5080516200009c91600a91602090910190620003df565b50348015620000aa57600080fd5b50604051620021d0380380620021d0833981016040819052620000cd916200056d565b825183908390620000e69060039060208501906200042f565b508051620000fc9060049060208401906200042f565b5050506200011962000113620002ab60201b60201c565b620002af565b6200014e336200012862000301565b620001389060ff16600a6200069e565b62000148906311e1a30062000793565b62000306565b6200015862000301565b620001689060ff16600a6200069e565b60096000815481106200018b57634e487b7160e01b600052603260045260246000fd5b600091825260209091200155620001a162000301565b620001b19060ff16600a6200069e565b6009600181548110620001d457634e487b7160e01b600052603260045260246000fd5b600091825260209091200155620001ea62000301565b620001fa9060ff16600a6200069e565b60096002815481106200021d57634e487b7160e01b600052603260045260246000fd5b6000918252602090912001556200023362000301565b620002439060ff16600a6200069e565b62000253906311e1a30062000793565b600a6000815481106200027657634e487b7160e01b600052603260045260246000fd5b600091825260209091200155600b80546001600160a01b0319166001600160a01b0392909216919091179055506200081e9050565b3390565b600580546001600160a01b038381166001600160a01b0319831681179093556040519116919082907f8be0079c531659141344cd1fd0a4f28419497f9722a3daafe3b4186f6b6457e090600090a35050565b601290565b6001600160a01b038216620003385760405162461bcd60e51b81526004016200032f90620005f6565b60405180910390fd5b6200034660008383620003da565b80600260008282546200035a919062000636565b90915550506001600160a01b038216600090815260208190526040812080548392906200038990849062000636565b90915550506040516001600160a01b038316906000907fddf252ad1be2c89b69c2b068fc378daa952ba7f163c4a11628f55a4df523b3ef90620003ce9085906200062d565b60405180910390a35050565b505050565b8280548282559060005260206000209081019282156200041d579160200282015b828111156200041d57825182559160200191906001019062000400565b506200042b929150620004ab565b5090565b8280546200043d90620007b5565b90600052602060002090601f0160209004810192826200046157600085556200041d565b82601f106200047c57805160ff19168380011785556200041d565b828001600101855582156200041d57918201828111156200041d57825182559160200191906001019062000400565b5b808211156200042b5760008155600101620004ac565b600082601f830112620004d3578081fd5b81516001600160401b0380821115620004f057620004f062000808565b6040516020601f8401601f191682018101838111838210171562000518576200051862000808565b60405283825285840181018710156200052f578485fd5b8492505b8383101562000552578583018101518284018201529182019162000533565b838311156200056357848185840101525b5095945050505050565b60008060006060848603121562000582578283fd5b83516001600160401b038082111562000599578485fd5b620005a787838801620004c2565b94506020860151915080821115620005bd578384fd5b50620005cc86828701620004c2565b604086015190935090506001600160a01b0381168114620005eb578182fd5b809150509250925092565b6020808252601f908201527f45524332303a206d696e7420746f20746865207a65726f206164647265737300604082015260600190565b90815260200190565b600082198211156200064c576200064c620007f2565b500190565b80825b600180861162000665575062000695565b8187048211156200067a576200067a620007f2565b808616156200068857918102915b9490941c93800262000654565b94509492505050565b6000620006af6000198484620006b6565b9392505050565b600082620006c757506001620006af565b81620006d657506000620006af565b8160018114620006ef5760028114620006fa576200072e565b6001915050620006af565b60ff8411156200070e576200070e620007f2565b6001841b915084821115620007275762000727620007f2565b50620006af565b5060208310610133831016604e8410600b841016171562000766575081810a83811115620007605762000760620007f2565b620006af565b62000775848484600162000651565b8086048211156200078a576200078a620007f2565b02949350505050565b6000816000190483118215151615620007b057620007b0620007f2565b500290565b600281046001821680620007ca57607f821691505b60208210811415620007ec57634e487b7160e01b600052602260045260246000fd5b50919050565b634e487b7160e01b600052601160045260246000fd5b634e487b7160e01b600052604160045260246000fd5b6119a2806200082e6000396000f3fe608060405234801561001057600080fd5b50600436106101375760003560e01c806370a08231116100b8578063a0712d681161007c578063a0712d6814610263578063a33e7d7e14610276578063a457c2d714610289578063a9059cbb1461029c578063dd62ed3e146102af578063f2fde38b146102c257610137565b806370a0823114610218578063715018a61461022b5780637a0d944c146102335780638da5cb5b1461024657806395d89b411461025b57610137565b806318160ddd116100ff57806318160ddd146101b557806323b872dd146101ca578063313ce567146101dd57806339509351146101f2578063693136781461020557610137565b806306fdde031461013c578063095ea7b31461015a5780630a61877e1461017a57806313b954a31461018f5780631506f480146101a2575b600080fd5b6101446102d5565b6040516101519190611573565b60405180910390f35b61016d6101683660046114d8565b610367565b6040516101519190611568565b61018d61018836600461144a565b610384565b005b61018d61019d3660046114d8565b61048b565b61018d6101b03660046114d8565b6106bd565b6101bd610960565b6040516101519190611853565b61016d6101d836600461149d565b610966565b6101e561096f565b604051610151919061185c565b61016d6102003660046114d8565b610974565b6101bd61021336600461153c565b6109c8565b6101bd61022636600461144a565b6109e9565b61018d610aa0565b6101e561024136600461144a565b610aeb565b61024e610b00565b6040516101519190611554565b610144610b0f565b61018d61027136600461153c565b610b1e565b61018d610284366004611501565b610e95565b61016d6102973660046114d8565b611003565b61016d6102aa3660046114d8565b61107e565b6101bd6102bd36600461146b565b611163565b61018d6102d036600461144a565b61118e565b6060600380546102e4906118fb565b80601f0160208091040260200160405190810160405280929190818152602001828054610310906118fb565b801561035d5780601f106103325761010080835404028352916020019161035d565b820191906000526020600020905b81548152906001019060200180831161034057829003601f168201915b5050505050905090565b600061037b6103746111fc565b8484611200565b50600192915050565b6001600160a01b03811660009081526007602052604090205460ff166103a957610488565b6001600160a01b03811660009081526006602090815260408083205483835281842054600790935292205460098054909160ff169081106103fa57634e487b7160e01b600052603260045260246000fd5b906000526020600020015461040f91906118a2565b6104199190611882565b6001600160a01b0382166000908152602081815260408083209390935560079052205460098054909160ff1690811061046257634e487b7160e01b600052603260045260246000fd5b60009182526020808320909101546001600160a01b038416835260069091526040909120555b50565b6104936111fc565b6001600160a01b03166104a4610b00565b6001600160a01b0316146104d35760405162461bcd60e51b81526004016104ca906116d7565b60405180910390fd5b6001600160a01b03821660009081526007602052604090205460ff161561050c5760405162461bcd60e51b81526004016104ca906117ca565b6001600160a01b0382166000908152602081905260408120805483929061053490849061186a565b90915550600190505b60028160ff16116106a157610553600283611882565b600a8260ff168154811061057757634e487b7160e01b600052603260045260246000fd5b906000526020600020015461058c919061186a565b60098260ff16815481106105b057634e487b7160e01b600052603260045260246000fd5b9060005260206000200160008282546105c991906118a2565b9091555050600a805460ff83169081106105f357634e487b7160e01b600052603260045260246000fd5b906000526020600020015460098260ff168154811061062257634e487b7160e01b600052603260045260246000fd5b90600052602060002001600082825461063b9190611882565b9091555061064c9050600283611882565b600a8260ff168154811061067057634e487b7160e01b600052603260045260246000fd5b906000526020600020016000828254610689919061186a565b9091555081905061069981611936565b91505061053d565b5080600260008282546106b4919061186a565b90915550505050565b6106c56111fc565b6001600160a01b03166106d6610b00565b6001600160a01b0316146106fc5760405162461bcd60e51b81526004016104ca906116d7565b6001600160a01b03821660009081526007602052604090205460ff166107345760405162461bcd60e51b81526004016104ca9061170c565b61073d82610384565b6001600160a01b0382166000908152602081905260408120805483929061076590849061186a565b9091555061077690508160026118a2565b600b546001600160a01b0316600090815260208190526040812080549091906107a090849061186a565b90915550506001600160a01b0382166000908152600760205260408120546107cc9060ff1660016118d8565b905081600a8260ff16815481106107f357634e487b7160e01b600052603260045260246000fd5b9060005260206000200154610808919061186a565b60098260ff168154811061082c57634e487b7160e01b600052603260045260246000fd5b90600052602060002001600082825461084591906118a2565b9091555050600a805460ff831690811061086f57634e487b7160e01b600052603260045260246000fd5b906000526020600020015460098260ff168154811061089e57634e487b7160e01b600052603260045260246000fd5b9060005260206000200160008282546108b79190611882565b9250508190555081600a6001815481106108e157634e487b7160e01b600052603260045260246000fd5b9060005260206000200160008282546108fa919061186a565b9250508190555081600a60028154811061092457634e487b7160e01b600052603260045260246000fd5b90600052602060002001600082825461093d919061186a565b925050819055508160026000828254610956919061186a565b9091555050505050565b60025490565b60019392505050565b601290565b600061037b6109816111fc565b84846001600061098f6111fc565b6001600160a01b03908116825260208083019390935260409182016000908120918b16815292529020546109c3919061186a565b611200565b600981815481106109d857600080fd5b600091825260209091200154905081565b6001600160a01b03811660009081526007602052604081205460ff16610a2857506001600160a01b038116600090815260208190526040902054610a9b565b6001600160a01b03821660009081526006602090815260408083205483835281842054600790935292205460098054909160ff16908110610a7957634e487b7160e01b600052603260045260246000fd5b9060005260206000200154610a8e91906118a2565b610a989190611882565b90505b919050565b610aa86111fc565b6001600160a01b0316610ab9610b00565b6001600160a01b031614610adf5760405162461bcd60e51b81526004016104ca906116d7565b610ae960006112b4565b565b60076020526000908152604090205460ff1681565b6005546001600160a01b031690565b6060600480546102e4906118fb565b610b266111fc565b6001600160a01b0316610b37610b00565b6001600160a01b031614610b5d5760405162461bcd60e51b81526004016104ca906116d7565b600a600281548110610b7f57634e487b7160e01b600052603260045260246000fd5b9060005260206000200154600014610c8257610b9c600482611882565b600a600281548110610bbe57634e487b7160e01b600052603260045260246000fd5b9060005260206000200154610bd3919061186a565b6009600281548110610bf557634e487b7160e01b600052603260045260246000fd5b906000526020600020016000828254610c0e91906118a2565b9091555050600a80546002908110610c3657634e487b7160e01b600052603260045260246000fd5b90600052602060002001546009600281548110610c6357634e487b7160e01b600052603260045260246000fd5b906000526020600020016000828254610c7c9190611882565b90915550505b600a600181548110610ca457634e487b7160e01b600052603260045260246000fd5b9060005260206000200154600014610da757610cc1600482611882565b600a600181548110610ce357634e487b7160e01b600052603260045260246000fd5b9060005260206000200154610cf8919061186a565b6009600181548110610d1a57634e487b7160e01b600052603260045260246000fd5b906000526020600020016000828254610d3391906118a2565b9091555050600a80546001908110610d5b57634e487b7160e01b600052603260045260246000fd5b90600052602060002001546009600181548110610d8857634e487b7160e01b600052603260045260246000fd5b906000526020600020016000828254610da19190611882565b90915550505b610db2600282611882565b600b546001600160a01b031660009081526020819052604081208054909190610ddc90849061186a565b90915550610ded9050600482611882565b600a600181548110610e0f57634e487b7160e01b600052603260045260246000fd5b906000526020600020016000828254610e28919061186a565b90915550610e399050600482611882565b600a600281548110610e5b57634e487b7160e01b600052603260045260246000fd5b906000526020600020016000828254610e74919061186a565b925050819055508060026000828254610e8d919061186a565b909155505050565b610e9d6111fc565b6001600160a01b0316610eae610b00565b6001600160a01b031614610ed45760405162461bcd60e51b81526004016104ca906116d7565b610edd82610384565b6001600160a01b0382166000908152600760209081526040808320805460ff86811660ff1983161790925592849052922054600a8054939092169290919083908110610f3957634e487b7160e01b600052603260045260246000fd5b906000526020600020016000828254610f5291906118c1565b90915550506001600160a01b038316600090815260208190526040902054600a805460ff8516908110610f9557634e487b7160e01b600052603260045260246000fd5b906000526020600020016000828254610fae919061186a565b90915550506009805460ff8416908110610fd857634e487b7160e01b600052603260045260246000fd5b60009182526020808320909101546001600160a01b0390951682526006905260409020929092555050565b600080600160006110126111fc565b6001600160a01b039081168252602080830193909352604091820160009081209188168152925290205490508281101561105e5760405162461bcd60e51b81526004016104ca9061180e565b6110746110696111fc565b856109c386856118c1565b5060019392505050565b6000806110896111fc565b905061109481610384565b61109d84610384565b6001600160a01b038116600090815260076020526040902054600a8054859260ff169081106110dc57634e487b7160e01b600052603260045260246000fd5b9060005260206000200160008282546110f591906118c1565b90915550506001600160a01b038416600090815260076020526040902054600a8054859260ff1690811061113957634e487b7160e01b600052603260045260246000fd5b906000526020600020016000828254611152919061186a565b909155506110749050818585611306565b6001600160a01b03918216600090815260016020908152604080832093909416825291909152205490565b6111966111fc565b6001600160a01b03166111a7610b00565b6001600160a01b0316146111cd5760405162461bcd60e51b81526004016104ca906116d7565b6001600160a01b0381166111f35760405162461bcd60e51b81526004016104ca90611609565b610488816112b4565b3390565b6001600160a01b0383166112265760405162461bcd60e51b81526004016104ca90611786565b6001600160a01b03821661124c5760405162461bcd60e51b81526004016104ca9061164f565b6001600160a01b0380841660008181526001602090815260408083209487168084529490915290819020849055517f8c5be1e5ebec7d5bd14f71427d1e84f3dd0314c0f7b2291e5b200ac8c7c3b925906112a7908590611853565b60405180910390a3505050565b600580546001600160a01b038381166001600160a01b0319831681179093556040519116919082907f8be0079c531659141344cd1fd0a4f28419497f9722a3daafe3b4186f6b6457e090600090a35050565b6001600160a01b03831661132c5760405162461bcd60e51b81526004016104ca90611741565b6001600160a01b0382166113525760405162461bcd60e51b81526004016104ca906115c6565b61135d83838361142e565b6001600160a01b038316600090815260208190526040902054818110156113965760405162461bcd60e51b81526004016104ca90611691565b6113a082826118c1565b6001600160a01b0380861660009081526020819052604080822093909355908516815290812080548492906113d690849061186a565b92505081905550826001600160a01b0316846001600160a01b03167fddf252ad1be2c89b69c2b068fc378daa952ba7f163c4a11628f55a4df523b3ef846040516114209190611853565b60405180910390a350505050565b505050565b80356001600160a01b0381168114610a9b57600080fd5b60006020828403121561145b578081fd5b61146482611433565b9392505050565b6000806040838503121561147d578081fd5b61148683611433565b915061149460208401611433565b90509250929050565b6000806000606084860312156114b1578081fd5b6114ba84611433565b92506114c860208501611433565b9150604084013590509250925092565b600080604083850312156114ea578182fd5b6114f383611433565b946020939093013593505050565b60008060408385031215611513578182fd5b61151c83611433565b9150602083013560ff81168114611531578182fd5b809150509250929050565b60006020828403121561154d578081fd5b5035919050565b6001600160a01b0391909116815260200190565b901515815260200190565b6000602080835283518082850152825b8181101561159f57858101830151858201604001528201611583565b818111156115b05783604083870101525b50601f01601f1916929092016040019392505050565b60208082526023908201527f45524332303a207472616e7366657220746f20746865207a65726f206164647260408201526265737360e81b606082015260800190565b60208082526026908201527f4f776e61626c653a206e6577206f776e657220697320746865207a65726f206160408201526564647265737360d01b606082015260800190565b60208082526022908201527f45524332303a20617070726f766520746f20746865207a65726f206164647265604082015261737360f01b606082015260800190565b60208082526026908201527f45524332303a207472616e7366657220616d6f756e7420657863656564732062604082015265616c616e636560d01b606082015260800190565b6020808252818101527f4f776e61626c653a2063616c6c6572206973206e6f7420746865206f776e6572604082015260600190565b6020808252818101527f6163636f756e74206973206120726567756c6172207368617265686f6c646572604082015260600190565b60208082526025908201527f45524332303a207472616e736665722066726f6d20746865207a65726f206164604082015264647265737360d81b606082015260800190565b60208082526024908201527f45524332303a20617070726f76652066726f6d20746865207a65726f206164646040820152637265737360e01b606082015260800190565b60208082526024908201527f6163636f756e74206973206e6f74206120726567756c6172207368617265686f604082015263363232b960e11b606082015260800190565b60208082526025908201527f45524332303a2064656372656173656420616c6c6f77616e63652062656c6f77604082015264207a65726f60d81b606082015260800190565b90815260200190565b60ff91909116815260200190565b6000821982111561187d5761187d611956565b500190565b60008261189d57634e487b7160e01b81526012600452602481fd5b500490565b60008160001904831182151516156118bc576118bc611956565b500290565b6000828210156118d3576118d3611956565b500390565b600060ff821660ff8416808210156118f2576118f2611956565b90039392505050565b60028104600182168061190f57607f821691505b6020821081141561193057634e487b7160e01b600052602260045260246000fd5b50919050565b600060ff821660ff81141561194d5761194d611956565b60010192915050565b634e487b7160e01b600052601160045260246000fdfea2646970667358221220ca98759dd701b771f5b3368a5111cfeacce213473baef4ac2e5582385d6e6ba164736f6c63430008000033",
          "opcodes": "PUSH1 0x3 PUSH1 0x8 DUP2 SWAP1 SSTORE PUSH1 0x80 DUP2 DUP2 MSTORE PUSH2 0x100 PUSH1 0x40 MSTORE SWAP1 PUSH1 0xA0 PUSH1 0x60 DUP1 CALLDATASIZE DUP4 CALLDATACOPY POP POP DUP2 MLOAD PUSH3 0x31 SWAP3 PUSH1 0x9 SWAP3 POP PUSH1 0x20 ADD SWAP1 PUSH3 0x3DF JUMP JUMPDEST POP PUSH1 0x8 SLOAD PUSH1 0x1 PUSH1 0x1 PUSH1 0x40 SHL SUB DUP2 GT ISZERO PUSH3 0x5B JUMPI PUSH4 0x4E487B71 PUSH1 0xE0 SHL PUSH1 0x0 MSTORE PUSH1 0x41 PUSH1 0x4 MSTORE PUSH1 0x24 PUSH1 0x0 REVERT JUMPDEST PUSH1 0x40 MLOAD SWAP1 DUP1 DUP3 MSTORE DUP1 PUSH1 0x20 MUL PUSH1 0x20 ADD DUP3 ADD PUSH1 0x40 MSTORE DUP1 ISZERO PUSH3 0x85 JUMPI DUP2 PUSH1 0x20 ADD PUSH1 0x20 DUP3 MUL DUP1 CALLDATASIZE DUP4 CALLDATACOPY ADD SWAP1 POP JUMPDEST POP DUP1 MLOAD PUSH3 0x9C SWAP2 PUSH1 0xA SWAP2 PUSH1 0x20 SWAP1 SWAP2 ADD SWAP1 PUSH3 0x3DF JUMP JUMPDEST POP CALLVALUE DUP1 ISZERO PUSH3 0xAA JUMPI PUSH1 0x0 DUP1 REVERT JUMPDEST POP PUSH1 0x40 MLOAD PUSH3 0x21D0 CODESIZE SUB DUP1 PUSH3 0x21D0 DUP4 CODECOPY DUP2 ADD PUSH1 0x40 DUP2 SWAP1 MSTORE PUSH3 0xCD SWAP2 PUSH3 0x56D JUMP JUMPDEST DUP3 MLOAD DUP4 SWAP1 DUP4 SWAP1 PUSH3 0xE6 SWAP1 PUSH1 0x3 SWAP1 PUSH1 0x20 DUP6 ADD SWAP1 PUSH3 0x42F JUMP JUMPDEST POP DUP1 MLOAD PUSH3 0xFC SWAP1 PUSH1 0x4 SWAP1 PUSH1 0x20 DUP5 ADD SWAP1 PUSH3 0x42F JUMP JUMPDEST POP POP POP PUSH3 0x119 PUSH3 0x113 PUSH3 0x2AB PUSH1 0x20 SHL PUSH1 0x20 SHR JUMP JUMPDEST PUSH3 0x2AF JUMP JUMPDEST PUSH3 0x14E CALLER PUSH3 0x128 PUSH3 0x301 JUMP JUMPDEST PUSH3 0x138 SWAP1 PUSH1 0xFF AND PUSH1 0xA PUSH3 0x69E JUMP JUMPDEST PUSH3 0x148 SWAP1 PUSH4 0x11E1A300 PUSH3 0x793 JUMP JUMPDEST PUSH3 0x306 JUMP JUMPDEST PUSH3 0x158 PUSH3 0x301 JUMP JUMPDEST PUSH3 0x168 SWAP1 PUSH1 0xFF AND PUSH1 0xA PUSH3 0x69E JUMP JUMPDEST PUSH1 0x9 PUSH1 0x0 DUP2 SLOAD DUP2 LT PUSH3 0x18B JUMPI PUSH4 0x4E487B71 PUSH1 0xE0 SHL PUSH1 0x0 MSTORE PUSH1 0x32 PUSH1 0x4 MSTORE PUSH1 0x24 PUSH1 0x0 REVERT JUMPDEST PUSH1 0x0 SWAP2 DUP3 MSTORE PUSH1 0x20 SWAP1 SWAP2 KECCAK256 ADD SSTORE PUSH3 0x1A1 PUSH3 0x301 JUMP JUMPDEST PUSH3 0x1B1 SWAP1 PUSH1 0xFF AND PUSH1 0xA PUSH3 0x69E JUMP JUMPDEST PUSH1 0x9 PUSH1 0x1 DUP2 SLOAD DUP2 LT PUSH3 0x1D4 JUMPI PUSH4 0x4E487B71 PUSH1 0xE0 SHL PUSH1 0x0 MSTORE PUSH1 0x32 PUSH1 0x4 MSTORE PUSH1 0x24 PUSH1 0x0 REVERT JUMPDEST PUSH1 0x0 SWAP2 DUP3 MSTORE PUSH1 0x20 SWAP1 SWAP2 KECCAK256 ADD SSTORE PUSH3 0x1EA PUSH3 0x301 JUMP JUMPDEST PUSH3 0x1FA SWAP1 PUSH1 0xFF AND PUSH1 0xA PUSH3 0x69E JUMP JUMPDEST PUSH1 0x9 PUSH1 0x2 DUP2 SLOAD DUP2 LT PUSH3 0x21D JUMPI PUSH4 0x4E487B71 PUSH1 0xE0 SHL PUSH1 0x0 MSTORE PUSH1 0x32 PUSH1 0x4 MSTORE PUSH1 0x24 PUSH1 0x0 REVERT JUMPDEST PUSH1 0x0 SWAP2 DUP3 MSTORE PUSH1 0x20 SWAP1 SWAP2 KECCAK256 ADD SSTORE PUSH3 0x233 PUSH3 0x301 JUMP JUMPDEST PUSH3 0x243 SWAP1 PUSH1 0xFF AND PUSH1 0xA PUSH3 0x69E JUMP JUMPDEST PUSH3 0x253 SWAP1 PUSH4 0x11E1A300 PUSH3 0x793 JUMP JUMPDEST PUSH1 0xA PUSH1 0x0 DUP2 SLOAD DUP2 LT PUSH3 0x276 JUMPI PUSH4 0x4E487B71 PUSH1 0xE0 SHL PUSH1 0x0 MSTORE PUSH1 0x32 PUSH1 0x4 MSTORE PUSH1 0x24 PUSH1 0x0 REVERT JUMPDEST PUSH1 0x0 SWAP2 DUP3 MSTORE PUSH1 0x20 SWAP1 SWAP2 KECCAK256 ADD SSTORE PUSH1 0xB DUP1 SLOAD PUSH1 0x1 PUSH1 0x1 PUSH1 0xA0 SHL SUB NOT AND PUSH1 0x1 PUSH1 0x1 PUSH1 0xA0 SHL SUB SWAP3 SWAP1 SWAP3 AND SWAP2 SWAP1 SWAP2 OR SWAP1 SSTORE POP PUSH3 0x81E SWAP1 POP JUMP JUMPDEST CALLER SWAP1 JUMP JUMPDEST PUSH1 0x5 DUP1 SLOAD PUSH1 0x1 PUSH1 0x1 PUSH1 0xA0 SHL SUB DUP4 DUP2 AND PUSH1 0x1 PUSH1 0x1 PUSH1 0xA0 SHL SUB NOT DUP4 AND DUP2 OR SWAP1 SWAP4 SSTORE PUSH1 0x40 MLOAD SWAP2 AND SWAP2 SWAP1 DUP3 SWAP1 PUSH32 0x8BE0079C531659141344CD1FD0A4F28419497F9722A3DAAFE3B4186F6B6457E0 SWAP1 PUSH1 0x0 SWAP1 LOG3 POP POP JUMP JUMPDEST PUSH1 0x12 SWAP1 JUMP JUMPDEST PUSH1 0x1 PUSH1 0x1 PUSH1 0xA0 SHL SUB DUP3 AND PUSH3 0x338 JUMPI PUSH1 0x40 MLOAD PUSH3 0x461BCD PUSH1 0xE5 SHL DUP2 MSTORE PUSH1 0x4 ADD PUSH3 0x32F SWAP1 PUSH3 0x5F6 JUMP JUMPDEST PUSH1 0x40 MLOAD DUP1 SWAP2 SUB SWAP1 REVERT JUMPDEST PUSH3 0x346 PUSH1 0x0 DUP4 DUP4 PUSH3 0x3DA JUMP JUMPDEST DUP1 PUSH1 0x2 PUSH1 0x0 DUP3 DUP3 SLOAD PUSH3 0x35A SWAP2 SWAP1 PUSH3 0x636 JUMP JUMPDEST SWAP1 SWAP2 SSTORE POP POP PUSH1 0x1 PUSH1 0x1 PUSH1 0xA0 SHL SUB DUP3 AND PUSH1 0x0 SWAP1 DUP2 MSTORE PUSH1 0x20 DUP2 SWAP1 MSTORE PUSH1 0x40 DUP2 KECCAK256 DUP1 SLOAD DUP4 SWAP3 SWAP1 PUSH3 0x389 SWAP1 DUP5 SWAP1 PUSH3 0x636 JUMP JUMPDEST SWAP1 SWAP2 SSTORE POP POP PUSH1 0x40 MLOAD PUSH1 0x1 PUSH1 0x1 PUSH1 0xA0 SHL SUB DUP4 AND SWAP1 PUSH1 0x0 SWAP1 PUSH32 0xDDF252AD1BE2C89B69C2B068FC378DAA952BA7F163C4A11628F55A4DF523B3EF SWAP1 PUSH3 0x3CE SWAP1 DUP6 SWAP1 PUSH3 0x62D JUMP JUMPDEST PUSH1 0x40 MLOAD DUP1 SWAP2 SUB SWAP1 LOG3 POP POP JUMP JUMPDEST POP POP POP JUMP JUMPDEST DUP3 DUP1 SLOAD DUP3 DUP3 SSTORE SWAP1 PUSH1 0x0 MSTORE PUSH1 0x20 PUSH1 0x0 KECCAK256 SWAP1 DUP2 ADD SWAP3 DUP3 ISZERO PUSH3 0x41D JUMPI SWAP2 PUSH1 0x20 MUL DUP3 ADD JUMPDEST DUP3 DUP2 GT ISZERO PUSH3 0x41D JUMPI DUP3 MLOAD DUP3 SSTORE SWAP2 PUSH1 0x20 ADD SWAP2 SWAP1 PUSH1 0x1 ADD SWAP1 PUSH3 0x400 JUMP JUMPDEST POP PUSH3 0x42B SWAP3 SWAP2 POP PUSH3 0x4AB JUMP JUMPDEST POP SWAP1 JUMP JUMPDEST DUP3 DUP1 SLOAD PUSH3 0x43D SWAP1 PUSH3 0x7B5 JUMP JUMPDEST SWAP1 PUSH1 0x0 MSTORE PUSH1 0x20 PUSH1 0x0 KECCAK256 SWAP1 PUSH1 0x1F ADD PUSH1 0x20 SWAP1 DIV DUP2 ADD SWAP3 DUP3 PUSH3 0x461 JUMPI PUSH1 0x0 DUP6 SSTORE PUSH3 0x41D JUMP JUMPDEST DUP3 PUSH1 0x1F LT PUSH3 0x47C JUMPI DUP1 MLOAD PUSH1 0xFF NOT AND DUP4 DUP1 ADD OR DUP6 SSTORE PUSH3 0x41D JUMP JUMPDEST DUP3 DUP1 ADD PUSH1 0x1 ADD DUP6 SSTORE DUP3 ISZERO PUSH3 0x41D JUMPI SWAP2 DUP3 ADD DUP3 DUP2 GT ISZERO PUSH3 0x41D JUMPI DUP3 MLOAD DUP3 SSTORE SWAP2 PUSH1 0x20 ADD SWAP2 SWAP1 PUSH1 0x1 ADD SWAP1 PUSH3 0x400 JUMP JUMPDEST JUMPDEST DUP1 DUP3 GT ISZERO PUSH3 0x42B JUMPI PUSH1 0x0 DUP2 SSTORE PUSH1 0x1 ADD PUSH3 0x4AC JUMP JUMPDEST PUSH1 0x0 DUP3 PUSH1 0x1F DUP4 ADD SLT PUSH3 0x4D3 JUMPI DUP1 DUP2 REVERT JUMPDEST DUP2 MLOAD PUSH1 0x1 PUSH1 0x1 PUSH1 0x40 SHL SUB DUP1 DUP3 GT ISZERO PUSH3 0x4F0 JUMPI PUSH3 0x4F0 PUSH3 0x808 JUMP JUMPDEST PUSH1 0x40 MLOAD PUSH1 0x20 PUSH1 0x1F DUP5 ADD PUSH1 0x1F NOT AND DUP3 ADD DUP2 ADD DUP4 DUP2 GT DUP4 DUP3 LT OR ISZERO PUSH3 0x518 JUMPI PUSH3 0x518 PUSH3 0x808 JUMP JUMPDEST PUSH1 0x40 MSTORE DUP4 DUP3 MSTORE DUP6 DUP5 ADD DUP2 ADD DUP8 LT ISZERO PUSH3 0x52F JUMPI DUP5 DUP6 REVERT JUMPDEST DUP5 SWAP3 POP JUMPDEST DUP4 DUP4 LT ISZERO PUSH3 0x552 JUMPI DUP6 DUP4 ADD DUP2 ADD MLOAD DUP3 DUP5 ADD DUP3 ADD MSTORE SWAP2 DUP3 ADD SWAP2 PUSH3 0x533 JUMP JUMPDEST DUP4 DUP4 GT ISZERO PUSH3 0x563 JUMPI DUP5 DUP2 DUP6 DUP5 ADD ADD MSTORE JUMPDEST POP SWAP6 SWAP5 POP POP POP POP POP JUMP JUMPDEST PUSH1 0x0 DUP1 PUSH1 0x0 PUSH1 0x60 DUP5 DUP7 SUB SLT ISZERO PUSH3 0x582 JUMPI DUP3 DUP4 REVERT JUMPDEST DUP4 MLOAD PUSH1 0x1 PUSH1 0x1 PUSH1 0x40 SHL SUB DUP1 DUP3 GT ISZERO PUSH3 0x599 JUMPI DUP5 DUP6 REVERT JUMPDEST PUSH3 0x5A7 DUP8 DUP4 DUP9 ADD PUSH3 0x4C2 JUMP JUMPDEST SWAP5 POP PUSH1 0x20 DUP7 ADD MLOAD SWAP2 POP DUP1 DUP3 GT ISZERO PUSH3 0x5BD JUMPI DUP4 DUP5 REVERT JUMPDEST POP PUSH3 0x5CC DUP7 DUP3 DUP8 ADD PUSH3 0x4C2 JUMP JUMPDEST PUSH1 0x40 DUP7 ADD MLOAD SWAP1 SWAP4 POP SWAP1 POP PUSH1 0x1 PUSH1 0x1 PUSH1 0xA0 SHL SUB DUP2 AND DUP2 EQ PUSH3 0x5EB JUMPI DUP2 DUP3 REVERT JUMPDEST DUP1 SWAP2 POP POP SWAP3 POP SWAP3 POP SWAP3 JUMP JUMPDEST PUSH1 0x20 DUP1 DUP3 MSTORE PUSH1 0x1F SWAP1 DUP3 ADD MSTORE PUSH32 0x45524332303A206D696E7420746F20746865207A65726F206164647265737300 PUSH1 0x40 DUP3 ADD MSTORE PUSH1 0x60 ADD SWAP1 JUMP JUMPDEST SWAP1 DUP2 MSTORE PUSH1 0x20 ADD SWAP1 JUMP JUMPDEST PUSH1 0x0 DUP3 NOT DUP3 GT ISZERO PUSH3 0x64C JUMPI PUSH3 0x64C PUSH3 0x7F2 JUMP JUMPDEST POP ADD SWAP1 JUMP JUMPDEST DUP1 DUP3 JUMPDEST PUSH1 0x1 DUP1 DUP7 GT PUSH3 0x665 JUMPI POP PUSH3 0x695 JUMP JUMPDEST DUP2 DUP8 DIV DUP3 GT ISZERO PUSH3 0x67A JUMPI PUSH3 0x67A PUSH3 0x7F2 JUMP JUMPDEST DUP1 DUP7 AND ISZERO PUSH3 0x688 JUMPI SWAP2 DUP2 MUL SWAP2 JUMPDEST SWAP5 SWAP1 SWAP5 SHR SWAP4 DUP1 MUL PUSH3 0x654 JUMP JUMPDEST SWAP5 POP SWAP5 SWAP3 POP POP POP JUMP JUMPDEST PUSH1 0x0 PUSH3 0x6AF PUSH1 0x0 NOT DUP5 DUP5 PUSH3 0x6B6 JUMP JUMPDEST SWAP4 SWAP3 POP POP POP JUMP JUMPDEST PUSH1 0x0 DUP3 PUSH3 0x6C7 JUMPI POP PUSH1 0x1 PUSH3 0x6AF JUMP JUMPDEST DUP2 PUSH3 0x6D6 JUMPI POP PUSH1 0x0 PUSH3 0x6AF JUMP JUMPDEST DUP2 PUSH1 0x1 DUP2 EQ PUSH3 0x6EF JUMPI PUSH1 0x2 DUP2 EQ PUSH3 0x6FA JUMPI PUSH3 0x72E JUMP JUMPDEST PUSH1 0x1 SWAP2 POP POP PUSH3 0x6AF JUMP JUMPDEST PUSH1 0xFF DUP5 GT ISZERO PUSH3 0x70E JUMPI PUSH3 0x70E PUSH3 0x7F2 JUMP JUMPDEST PUSH1 0x1 DUP5 SHL SWAP2 POP DUP5 DUP3 GT ISZERO PUSH3 0x727 JUMPI PUSH3 0x727 PUSH3 0x7F2 JUMP JUMPDEST POP PUSH3 0x6AF JUMP JUMPDEST POP PUSH1 0x20 DUP4 LT PUSH2 0x133 DUP4 LT AND PUSH1 0x4E DUP5 LT PUSH1 0xB DUP5 LT AND OR ISZERO PUSH3 0x766 JUMPI POP DUP2 DUP2 EXP DUP4 DUP2 GT ISZERO PUSH3 0x760 JUMPI PUSH3 0x760 PUSH3 0x7F2 JUMP JUMPDEST PUSH3 0x6AF JUMP JUMPDEST PUSH3 0x775 DUP5 DUP5 DUP5 PUSH1 0x1 PUSH3 0x651 JUMP JUMPDEST DUP1 DUP7 DIV DUP3 GT ISZERO PUSH3 0x78A JUMPI PUSH3 0x78A PUSH3 0x7F2 JUMP JUMPDEST MUL SWAP5 SWAP4 POP POP POP POP JUMP JUMPDEST PUSH1 0x0 DUP2 PUSH1 0x0 NOT DIV DUP4 GT DUP3 ISZERO ISZERO AND ISZERO PUSH3 0x7B0 JUMPI PUSH3 0x7B0 PUSH3 0x7F2 JUMP JUMPDEST POP MUL SWAP1 JUMP JUMPDEST PUSH1 0x2 DUP2 DIV PUSH1 0x1 DUP3 AND DUP1 PUSH3 0x7CA JUMPI PUSH1 0x7F DUP3 AND SWAP2 POP JUMPDEST PUSH1 0x20 DUP3 LT DUP2 EQ ISZERO PUSH3 0x7EC JUMPI PUSH4 0x4E487B71 PUSH1 0xE0 SHL PUSH1 0x0 MSTORE PUSH1 0x22 PUSH1 0x4 MSTORE PUSH1 0x24 PUSH1 0x0 REVERT JUMPDEST POP SWAP2 SWAP1 POP JUMP JUMPDEST PUSH4 0x4E487B71 PUSH1 0xE0 SHL PUSH1 0x0 MSTORE PUSH1 0x11 PUSH1 0x4 MSTORE PUSH1 0x24 PUSH1 0x0 REVERT JUMPDEST PUSH4 0x4E487B71 PUSH1 0xE0 SHL PUSH1 0x0 MSTORE PUSH1 0x41 PUSH1 0x4 MSTORE PUSH1 0x24 PUSH1 0x0 REVERT JUMPDEST PUSH2 0x19A2 DUP1 PUSH3 0x82E PUSH1 0x0 CODECOPY PUSH1 0x0 RETURN INVALID PUSH1 0x80 PUSH1 0x40 MSTORE CALLVALUE DUP1 ISZERO PUSH2 0x10 JUMPI PUSH1 0x0 DUP1 REVERT JUMPDEST POP PUSH1 0x4 CALLDATASIZE LT PUSH2 0x137 JUMPI PUSH1 0x0 CALLDATALOAD PUSH1 0xE0 SHR DUP1 PUSH4 0x70A08231 GT PUSH2 0xB8 JUMPI DUP1 PUSH4 0xA0712D68 GT PUSH2 0x7C JUMPI DUP1 PUSH4 0xA0712D68 EQ PUSH2 0x263 JUMPI DUP1 PUSH4 0xA33E7D7E EQ PUSH2 0x276 JUMPI DUP1 PUSH4 0xA457C2D7 EQ PUSH2 0x289 JUMPI DUP1 PUSH4 0xA9059CBB EQ PUSH2 0x29C JUMPI DUP1 PUSH4 0xDD62ED3E EQ PUSH2 0x2AF JUMPI DUP1 PUSH4 0xF2FDE38B EQ PUSH2 0x2C2 JUMPI PUSH2 0x137 JUMP JUMPDEST DUP1 PUSH4 0x70A08231 EQ PUSH2 0x218 JUMPI DUP1 PUSH4 0x715018A6 EQ PUSH2 0x22B JUMPI DUP1 PUSH4 0x7A0D944C EQ PUSH2 0x233 JUMPI DUP1 PUSH4 0x8DA5CB5B EQ PUSH2 0x246 JUMPI DUP1 PUSH4 0x95D89B41 EQ PUSH2 0x25B JUMPI PUSH2 0x137 JUMP JUMPDEST DUP1 PUSH4 0x18160DDD GT PUSH2 0xFF JUMPI DUP1 PUSH4 0x18160DDD EQ PUSH2 0x1B5 JUMPI DUP1 PUSH4 0x23B872DD EQ PUSH2 0x1CA JUMPI DUP1 PUSH4 0x313CE567 EQ PUSH2 0x1DD JUMPI DUP1 PUSH4 0x39509351 EQ PUSH2 0x1F2 JUMPI DUP1 PUSH4 0x69313678 EQ PUSH2 0x205 JUMPI PUSH2 0x137 JUMP JUMPDEST DUP1 PUSH4 0x6FDDE03 EQ PUSH2 0x13C JUMPI DUP1 PUSH4 0x95EA7B3 EQ PUSH2 0x15A JUMPI DUP1 PUSH4 0xA61877E EQ PUSH2 0x17A JUMPI DUP1 PUSH4 0x13B954A3 EQ PUSH2 0x18F JUMPI DUP1 PUSH4 0x1506F480 EQ PUSH2 0x1A2 JUMPI JUMPDEST PUSH1 0x0 DUP1 REVERT JUMPDEST PUSH2 0x144 PUSH2 0x2D5 JUMP JUMPDEST PUSH1 0x40 MLOAD PUSH2 0x151 SWAP2 SWAP1 PUSH2 0x1573 JUMP JUMPDEST PUSH1 0x40 MLOAD DUP1 SWAP2 SUB SWAP1 RETURN JUMPDEST PUSH2 0x16D PUSH2 0x168 CALLDATASIZE PUSH1 0x4 PUSH2 0x14D8 JUMP JUMPDEST PUSH2 0x367 JUMP JUMPDEST PUSH1 0x40 MLOAD PUSH2 0x151 SWAP2 SWAP1 PUSH2 0x1568 JUMP JUMPDEST PUSH2 0x18D PUSH2 0x188 CALLDATASIZE PUSH1 0x4 PUSH2 0x144A JUMP JUMPDEST PUSH2 0x384 JUMP JUMPDEST STOP JUMPDEST PUSH2 0x18D PUSH2 0x19D CALLDATASIZE PUSH1 0x4 PUSH2 0x14D8 JUMP JUMPDEST PUSH2 0x48B JUMP JUMPDEST PUSH2 0x18D PUSH2 0x1B0 CALLDATASIZE PUSH1 0x4 PUSH2 0x14D8 JUMP JUMPDEST PUSH2 0x6BD JUMP JUMPDEST PUSH2 0x1BD PUSH2 0x960 JUMP JUMPDEST PUSH1 0x40 MLOAD PUSH2 0x151 SWAP2 SWAP1 PUSH2 0x1853 JUMP JUMPDEST PUSH2 0x16D PUSH2 0x1D8 CALLDATASIZE PUSH1 0x4 PUSH2 0x149D JUMP JUMPDEST PUSH2 0x966 JUMP JUMPDEST PUSH2 0x1E5 PUSH2 0x96F JUMP JUMPDEST PUSH1 0x40 MLOAD PUSH2 0x151 SWAP2 SWAP1 PUSH2 0x185C JUMP JUMPDEST PUSH2 0x16D PUSH2 0x200 CALLDATASIZE PUSH1 0x4 PUSH2 0x14D8 JUMP JUMPDEST PUSH2 0x974 JUMP JUMPDEST PUSH2 0x1BD PUSH2 0x213 CALLDATASIZE PUSH1 0x4 PUSH2 0x153C JUMP JUMPDEST PUSH2 0x9C8 JUMP JUMPDEST PUSH2 0x1BD PUSH2 0x226 CALLDATASIZE PUSH1 0x4 PUSH2 0x144A JUMP JUMPDEST PUSH2 0x9E9 JUMP JUMPDEST PUSH2 0x18D PUSH2 0xAA0 JUMP JUMPDEST PUSH2 0x1E5 PUSH2 0x241 CALLDATASIZE PUSH1 0x4 PUSH2 0x144A JUMP JUMPDEST PUSH2 0xAEB JUMP JUMPDEST PUSH2 0x24E PUSH2 0xB00 JUMP JUMPDEST PUSH1 0x40 MLOAD PUSH2 0x151 SWAP2 SWAP1 PUSH2 0x1554 JUMP JUMPDEST PUSH2 0x144 PUSH2 0xB0F JUMP JUMPDEST PUSH2 0x18D PUSH2 0x271 CALLDATASIZE PUSH1 0x4 PUSH2 0x153C JUMP JUMPDEST PUSH2 0xB1E JUMP JUMPDEST PUSH2 0x18D PUSH2 0x284 CALLDATASIZE PUSH1 0x4 PUSH2 0x1501 JUMP JUMPDEST PUSH2 0xE95 JUMP JUMPDEST PUSH2 0x16D PUSH2 0x297 CALLDATASIZE PUSH1 0x4 PUSH2 0x14D8 JUMP JUMPDEST PUSH2 0x1003 JUMP JUMPDEST PUSH2 0x16D PUSH2 0x2AA CALLDATASIZE PUSH1 0x4 PUSH2 0x14D8 JUMP JUMPDEST PUSH2 0x107E JUMP JUMPDEST PUSH2 0x1BD PUSH2 0x2BD CALLDATASIZE PUSH1 0x4 PUSH2 0x146B JUMP JUMPDEST PUSH2 0x1163 JUMP JUMPDEST PUSH2 0x18D PUSH2 0x2D0 CALLDATASIZE PUSH1 0x4 PUSH2 0x144A JUMP JUMPDEST PUSH2 0x118E JUMP JUMPDEST PUSH1 0x60 PUSH1 0x3 DUP1 SLOAD PUSH2 0x2E4 SWAP1 PUSH2 0x18FB JUMP JUMPDEST DUP1 PUSH1 0x1F ADD PUSH1 0x20 DUP1 SWAP2 DIV MUL PUSH1 0x20 ADD PUSH1 0x40 MLOAD SWAP1 DUP2 ADD PUSH1 0x40 MSTORE DUP1 SWAP3 SWAP2 SWAP1 DUP2 DUP2 MSTORE PUSH1 0x20 ADD DUP3 DUP1 SLOAD PUSH2 0x310 SWAP1 PUSH2 0x18FB JUMP JUMPDEST DUP1 ISZERO PUSH2 0x35D JUMPI DUP1 PUSH1 0x1F LT PUSH2 0x332 JUMPI PUSH2 0x100 DUP1 DUP4 SLOAD DIV MUL DUP4 MSTORE SWAP2 PUSH1 0x20 ADD SWAP2 PUSH2 0x35D JUMP JUMPDEST DUP3 ADD SWAP2 SWAP1 PUSH1 0x0 MSTORE PUSH1 0x20 PUSH1 0x0 KECCAK256 SWAP1 JUMPDEST DUP2 SLOAD DUP2 MSTORE SWAP1 PUSH1 0x1 ADD SWAP1 PUSH1 0x20 ADD DUP1 DUP4 GT PUSH2 0x340 JUMPI DUP3 SWAP1 SUB PUSH1 0x1F AND DUP3 ADD SWAP2 JUMPDEST POP POP POP POP POP SWAP1 POP SWAP1 JUMP JUMPDEST PUSH1 0x0 PUSH2 0x37B PUSH2 0x374 PUSH2 0x11FC JUMP JUMPDEST DUP5 DUP5 PUSH2 0x1200 JUMP JUMPDEST POP PUSH1 0x1 SWAP3 SWAP2 POP POP JUMP JUMPDEST PUSH1 0x1 PUSH1 0x1 PUSH1 0xA0 SHL SUB DUP2 AND PUSH1 0x0 SWAP1 DUP2 MSTORE PUSH1 0x7 PUSH1 0x20 MSTORE PUSH1 0x40 SWAP1 KECCAK256 SLOAD PUSH1 0xFF AND PUSH2 0x3A9 JUMPI PUSH2 0x488 JUMP JUMPDEST PUSH1 0x1 PUSH1 0x1 PUSH1 0xA0 SHL SUB DUP2 AND PUSH1 0x0 SWAP1 DUP2 MSTORE PUSH1 0x6 PUSH1 0x20 SWAP1 DUP2 MSTORE PUSH1 0x40 DUP1 DUP4 KECCAK256 SLOAD DUP4 DUP4 MSTORE DUP2 DUP5 KECCAK256 SLOAD PUSH1 0x7 SWAP1 SWAP4 MSTORE SWAP3 KECCAK256 SLOAD PUSH1 0x9 DUP1 SLOAD SWAP1 SWAP2 PUSH1 0xFF AND SWAP1 DUP2 LT PUSH2 0x3FA JUMPI PUSH4 0x4E487B71 PUSH1 0xE0 SHL PUSH1 0x0 MSTORE PUSH1 0x32 PUSH1 0x4 MSTORE PUSH1 0x24 PUSH1 0x0 REVERT JUMPDEST SWAP1 PUSH1 0x0 MSTORE PUSH1 0x20 PUSH1 0x0 KECCAK256 ADD SLOAD PUSH2 0x40F SWAP2 SWAP1 PUSH2 0x18A2 JUMP JUMPDEST PUSH2 0x419 SWAP2 SWAP1 PUSH2 0x1882 JUMP JUMPDEST PUSH1 0x1 PUSH1 0x1 PUSH1 0xA0 SHL SUB DUP3 AND PUSH1 0x0 SWAP1 DUP2 MSTORE PUSH1 0x20 DUP2 DUP2 MSTORE PUSH1 0x40 DUP1 DUP4 KECCAK256 SWAP4 SWAP1 SWAP4 SSTORE PUSH1 0x7 SWAP1 MSTORE KECCAK256 SLOAD PUSH1 0x9 DUP1 SLOAD SWAP1 SWAP2 PUSH1 0xFF AND SWAP1 DUP2 LT PUSH2 0x462 JUMPI PUSH4 0x4E487B71 PUSH1 0xE0 SHL PUSH1 0x0 MSTORE PUSH1 0x32 PUSH1 0x4 MSTORE PUSH1 0x24 PUSH1 0x0 REVERT JUMPDEST PUSH1 0x0 SWAP2 DUP3 MSTORE PUSH1 0x20 DUP1 DUP4 KECCAK256 SWAP1 SWAP2 ADD SLOAD PUSH1 0x1 PUSH1 0x1 PUSH1 0xA0 SHL SUB DUP5 AND DUP4 MSTORE PUSH1 0x6 SWAP1 SWAP2 MSTORE PUSH1 0x40 SWAP1 SWAP2 KECCAK256 SSTORE JUMPDEST POP JUMP JUMPDEST PUSH2 0x493 PUSH2 0x11FC JUMP JUMPDEST PUSH1 0x1 PUSH1 0x1 PUSH1 0xA0 SHL SUB AND PUSH2 0x4A4 PUSH2 0xB00 JUMP JUMPDEST PUSH1 0x1 PUSH1 0x1 PUSH1 0xA0 SHL SUB AND EQ PUSH2 0x4D3 JUMPI PUSH1 0x40 MLOAD PUSH3 0x461BCD PUSH1 0xE5 SHL DUP2 MSTORE PUSH1 0x4 ADD PUSH2 0x4CA SWAP1 PUSH2 0x16D7 JUMP JUMPDEST PUSH1 0x40 MLOAD DUP1 SWAP2 SUB SWAP1 REVERT JUMPDEST PUSH1 0x1 PUSH1 0x1 PUSH1 0xA0 SHL SUB DUP3 AND PUSH1 0x0 SWAP1 DUP2 MSTORE PUSH1 0x7 PUSH1 0x20 MSTORE PUSH1 0x40 SWAP1 KECCAK256 SLOAD PUSH1 0xFF AND ISZERO PUSH2 0x50C JUMPI PUSH1 0x40 MLOAD PUSH3 0x461BCD PUSH1 0xE5 SHL DUP2 MSTORE PUSH1 0x4 ADD PUSH2 0x4CA SWAP1 PUSH2 0x17CA JUMP JUMPDEST PUSH1 0x1 PUSH1 0x1 PUSH1 0xA0 SHL SUB DUP3 AND PUSH1 0x0 SWAP1 DUP2 MSTORE PUSH1 0x20 DUP2 SWAP1 MSTORE PUSH1 0x40 DUP2 KECCAK256 DUP1 SLOAD DUP4 SWAP3 SWAP1 PUSH2 0x534 SWAP1 DUP5 SWAP1 PUSH2 0x186A JUMP JUMPDEST SWAP1 SWAP2 SSTORE POP PUSH1 0x1 SWAP1 POP JUMPDEST PUSH1 0x2 DUP2 PUSH1 0xFF AND GT PUSH2 0x6A1 JUMPI PUSH2 0x553 PUSH1 0x2 DUP4 PUSH2 0x1882 JUMP JUMPDEST PUSH1 0xA DUP3 PUSH1 0xFF AND DUP2 SLOAD DUP2 LT PUSH2 0x577 JUMPI PUSH4 0x4E487B71 PUSH1 0xE0 SHL PUSH1 0x0 MSTORE PUSH1 0x32 PUSH1 0x4 MSTORE PUSH1 0x24 PUSH1 0x0 REVERT JUMPDEST SWAP1 PUSH1 0x0 MSTORE PUSH1 0x20 PUSH1 0x0 KECCAK256 ADD SLOAD PUSH2 0x58C SWAP2 SWAP1 PUSH2 0x186A JUMP JUMPDEST PUSH1 0x9 DUP3 PUSH1 0xFF AND DUP2 SLOAD DUP2 LT PUSH2 0x5B0 JUMPI PUSH4 0x4E487B71 PUSH1 0xE0 SHL PUSH1 0x0 MSTORE PUSH1 0x32 PUSH1 0x4 MSTORE PUSH1 0x24 PUSH1 0x0 REVERT JUMPDEST SWAP1 PUSH1 0x0 MSTORE PUSH1 0x20 PUSH1 0x0 KECCAK256 ADD PUSH1 0x0 DUP3 DUP3 SLOAD PUSH2 0x5C9 SWAP2 SWAP1 PUSH2 0x18A2 JUMP JUMPDEST SWAP1 SWAP2 SSTORE POP POP PUSH1 0xA DUP1 SLOAD PUSH1 0xFF DUP4 AND SWAP1 DUP2 LT PUSH2 0x5F3 JUMPI PUSH4 0x4E487B71 PUSH1 0xE0 SHL PUSH1 0x0 MSTORE PUSH1 0x32 PUSH1 0x4 MSTORE PUSH1 0x24 PUSH1 0x0 REVERT JUMPDEST SWAP1 PUSH1 0x0 MSTORE PUSH1 0x20 PUSH1 0x0 KECCAK256 ADD SLOAD PUSH1 0x9 DUP3 PUSH1 0xFF AND DUP2 SLOAD DUP2 LT PUSH2 0x622 JUMPI PUSH4 0x4E487B71 PUSH1 0xE0 SHL PUSH1 0x0 MSTORE PUSH1 0x32 PUSH1 0x4 MSTORE PUSH1 0x24 PUSH1 0x0 REVERT JUMPDEST SWAP1 PUSH1 0x0 MSTORE PUSH1 0x20 PUSH1 0x0 KECCAK256 ADD PUSH1 0x0 DUP3 DUP3 SLOAD PUSH2 0x63B SWAP2 SWAP1 PUSH2 0x1882 JUMP JUMPDEST SWAP1 SWAP2 SSTORE POP PUSH2 0x64C SWAP1 POP PUSH1 0x2 DUP4 PUSH2 0x1882 JUMP JUMPDEST PUSH1 0xA DUP3 PUSH1 0xFF AND DUP2 SLOAD DUP2 LT PUSH2 0x670 JUMPI PUSH4 0x4E487B71 PUSH1 0xE0 SHL PUSH1 0x0 MSTORE PUSH1 0x32 PUSH1 0x4 MSTORE PUSH1 0x24 PUSH1 0x0 REVERT JUMPDEST SWAP1 PUSH1 0x0 MSTORE PUSH1 0x20 PUSH1 0x0 KECCAK256 ADD PUSH1 0x0 DUP3 DUP3 SLOAD PUSH2 0x689 SWAP2 SWAP1 PUSH2 0x186A JUMP JUMPDEST SWAP1 SWAP2 SSTORE POP DUP2 SWAP1 POP PUSH2 0x699 DUP2 PUSH2 0x1936 JUMP JUMPDEST SWAP2 POP POP PUSH2 0x53D JUMP JUMPDEST POP DUP1 PUSH1 0x2 PUSH1 0x0 DUP3 DUP3 SLOAD PUSH2 0x6B4 SWAP2 SWAP1 PUSH2 0x186A JUMP JUMPDEST SWAP1 SWAP2 SSTORE POP POP POP POP JUMP JUMPDEST PUSH2 0x6C5 PUSH2 0x11FC JUMP JUMPDEST PUSH1 0x1 PUSH1 0x1 PUSH1 0xA0 SHL SUB AND PUSH2 0x6D6 PUSH2 0xB00 JUMP JUMPDEST PUSH1 0x1 PUSH1 0x1 PUSH1 0xA0 SHL SUB AND EQ PUSH2 0x6FC JUMPI PUSH1 0x40 MLOAD PUSH3 0x461BCD PUSH1 0xE5 SHL DUP2 MSTORE PUSH1 0x4 ADD PUSH2 0x4CA SWAP1 PUSH2 0x16D7 JUMP JUMPDEST PUSH1 0x1 PUSH1 0x1 PUSH1 0xA0 SHL SUB DUP3 AND PUSH1 0x0 SWAP1 DUP2 MSTORE PUSH1 0x7 PUSH1 0x20 MSTORE PUSH1 0x40 SWAP1 KECCAK256 SLOAD PUSH1 0xFF AND PUSH2 0x734 JUMPI PUSH1 0x40 MLOAD PUSH3 0x461BCD PUSH1 0xE5 SHL DUP2 MSTORE PUSH1 0x4 ADD PUSH2 0x4CA SWAP1 PUSH2 0x170C JUMP JUMPDEST PUSH2 0x73D DUP3 PUSH2 0x384 JUMP JUMPDEST PUSH1 0x1 PUSH1 0x1 PUSH1 0xA0 SHL SUB DUP3 AND PUSH1 0x0 SWAP1 DUP2 MSTORE PUSH1 0x20 DUP2 SWAP1 MSTORE PUSH1 0x40 DUP2 KECCAK256 DUP1 SLOAD DUP4 SWAP3 SWAP1 PUSH2 0x765 SWAP1 DUP5 SWAP1 PUSH2 0x186A JUMP JUMPDEST SWAP1 SWAP2 SSTORE POP PUSH2 0x776 SWAP1 POP DUP2 PUSH1 0x2 PUSH2 0x18A2 JUMP JUMPDEST PUSH1 0xB SLOAD PUSH1 0x1 PUSH1 0x1 PUSH1 0xA0 SHL SUB AND PUSH1 0x0 SWAP1 DUP2 MSTORE PUSH1 0x20 DUP2 SWAP1 MSTORE PUSH1 0x40 DUP2 KECCAK256 DUP1 SLOAD SWAP1 SWAP2 SWAP1 PUSH2 0x7A0 SWAP1 DUP5 SWAP1 PUSH2 0x186A JUMP JUMPDEST SWAP1 SWAP2 SSTORE POP POP PUSH1 0x1 PUSH1 0x1 PUSH1 0xA0 SHL SUB DUP3 AND PUSH1 0x0 SWAP1 DUP2 MSTORE PUSH1 0x7 PUSH1 0x20 MSTORE PUSH1 0x40 DUP2 KECCAK256 SLOAD PUSH2 0x7CC SWAP1 PUSH1 0xFF AND PUSH1 0x1 PUSH2 0x18D8 JUMP JUMPDEST SWAP1 POP DUP2 PUSH1 0xA DUP3 PUSH1 0xFF AND DUP2 SLOAD DUP2 LT PUSH2 0x7F3 JUMPI PUSH4 0x4E487B71 PUSH1 0xE0 SHL PUSH1 0x0 MSTORE PUSH1 0x32 PUSH1 0x4 MSTORE PUSH1 0x24 PUSH1 0x0 REVERT JUMPDEST SWAP1 PUSH1 0x0 MSTORE PUSH1 0x20 PUSH1 0x0 KECCAK256 ADD SLOAD PUSH2 0x808 SWAP2 SWAP1 PUSH2 0x186A JUMP JUMPDEST PUSH1 0x9 DUP3 PUSH1 0xFF AND DUP2 SLOAD DUP2 LT PUSH2 0x82C JUMPI PUSH4 0x4E487B71 PUSH1 0xE0 SHL PUSH1 0x0 MSTORE PUSH1 0x32 PUSH1 0x4 MSTORE PUSH1 0x24 PUSH1 0x0 REVERT JUMPDEST SWAP1 PUSH1 0x0 MSTORE PUSH1 0x20 PUSH1 0x0 KECCAK256 ADD PUSH1 0x0 DUP3 DUP3 SLOAD PUSH2 0x845 SWAP2 SWAP1 PUSH2 0x18A2 JUMP JUMPDEST SWAP1 SWAP2 SSTORE POP POP PUSH1 0xA DUP1 SLOAD PUSH1 0xFF DUP4 AND SWAP1 DUP2 LT PUSH2 0x86F JUMPI PUSH4 0x4E487B71 PUSH1 0xE0 SHL PUSH1 0x0 MSTORE PUSH1 0x32 PUSH1 0x4 MSTORE PUSH1 0x24 PUSH1 0x0 REVERT JUMPDEST SWAP1 PUSH1 0x0 MSTORE PUSH1 0x20 PUSH1 0x0 KECCAK256 ADD SLOAD PUSH1 0x9 DUP3 PUSH1 0xFF AND DUP2 SLOAD DUP2 LT PUSH2 0x89E JUMPI PUSH4 0x4E487B71 PUSH1 0xE0 SHL PUSH1 0x0 MSTORE PUSH1 0x32 PUSH1 0x4 MSTORE PUSH1 0x24 PUSH1 0x0 REVERT JUMPDEST SWAP1 PUSH1 0x0 MSTORE PUSH1 0x20 PUSH1 0x0 KECCAK256 ADD PUSH1 0x0 DUP3 DUP3 SLOAD PUSH2 0x8B7 SWAP2 SWAP1 PUSH2 0x1882 JUMP JUMPDEST SWAP3 POP POP DUP2 SWAP1 SSTORE POP DUP2 PUSH1 0xA PUSH1 0x1 DUP2 SLOAD DUP2 LT PUSH2 0x8E1 JUMPI PUSH4 0x4E487B71 PUSH1 0xE0 SHL PUSH1 0x0 MSTORE PUSH1 0x32 PUSH1 0x4 MSTORE PUSH1 0x24 PUSH1 0x0 REVERT JUMPDEST SWAP1 PUSH1 0x0 MSTORE PUSH1 0x20 PUSH1 0x0 KECCAK256 ADD PUSH1 0x0 DUP3 DUP3 SLOAD PUSH2 0x8FA SWAP2 SWAP1 PUSH2 0x186A JUMP JUMPDEST SWAP3 POP POP DUP2 SWAP1 SSTORE POP DUP2 PUSH1 0xA PUSH1 0x2 DUP2 SLOAD DUP2 LT PUSH2 0x924 JUMPI PUSH4 0x4E487B71 PUSH1 0xE0 SHL PUSH1 0x0 MSTORE PUSH1 0x32 PUSH1 0x4 MSTORE PUSH1 0x24 PUSH1 0x0 REVERT JUMPDEST SWAP1 PUSH1 0x0 MSTORE PUSH1 0x20 PUSH1 0x0 KECCAK256 ADD PUSH1 0x0 DUP3 DUP3 SLOAD PUSH2 0x93D SWAP2 SWAP1 PUSH2 0x186A JUMP JUMPDEST SWAP3 POP POP DUP2 SWAP1 SSTORE POP DUP2 PUSH1 0x2 PUSH1 0x0 DUP3 DUP3 SLOAD PUSH2 0x956 SWAP2 SWAP1 PUSH2 0x186A JUMP JUMPDEST SWAP1 SWAP2 SSTORE POP POP POP POP POP JUMP JUMPDEST PUSH1 0x2 SLOAD SWAP1 JUMP JUMPDEST PUSH1 0x1 SWAP4 SWAP3 POP POP POP JUMP JUMPDEST PUSH1 0x12 SWAP1 JUMP JUMPDEST PUSH1 0x0 PUSH2 0x37B PUSH2 0x981 PUSH2 0x11FC JUMP JUMPDEST DUP5 DUP5 PUSH1 0x1 PUSH1 0x0 PUSH2 0x98F PUSH2 0x11FC JUMP JUMPDEST PUSH1 0x1 PUSH1 0x1 PUSH1 0xA0 SHL SUB SWAP1 DUP2 AND DUP3 MSTORE PUSH1 0x20 DUP1 DUP4 ADD SWAP4 SWAP1 SWAP4 MSTORE PUSH1 0x40 SWAP2 DUP3 ADD PUSH1 0x0 SWAP1 DUP2 KECCAK256 SWAP2 DUP12 AND DUP2 MSTORE SWAP3 MSTORE SWAP1 KECCAK256 SLOAD PUSH2 0x9C3 SWAP2 SWAP1 PUSH2 0x186A JUMP JUMPDEST PUSH2 0x1200 JUMP JUMPDEST PUSH1 0x9 DUP2 DUP2 SLOAD DUP2 LT PUSH2 0x9D8 JUMPI PUSH1 0x0 DUP1 REVERT JUMPDEST PUSH1 0x0 SWAP2 DUP3 MSTORE PUSH1 0x20 SWAP1 SWAP2 KECCAK256 ADD SLOAD SWAP1 POP DUP2 JUMP JUMPDEST PUSH1 0x1 PUSH1 0x1 PUSH1 0xA0 SHL SUB DUP2 AND PUSH1 0x0 SWAP1 DUP2 MSTORE PUSH1 0x7 PUSH1 0x20 MSTORE PUSH1 0x40 DUP2 KECCAK256 SLOAD PUSH1 0xFF AND PUSH2 0xA28 JUMPI POP PUSH1 0x1 PUSH1 0x1 PUSH1 0xA0 SHL SUB DUP2 AND PUSH1 0x0 SWAP1 DUP2 MSTORE PUSH1 0x20 DUP2 SWAP1 MSTORE PUSH1 0x40 SWAP1 KECCAK256 SLOAD PUSH2 0xA9B JUMP JUMPDEST PUSH1 0x1 PUSH1 0x1 PUSH1 0xA0 SHL SUB DUP3 AND PUSH1 0x0 SWAP1 DUP2 MSTORE PUSH1 0x6 PUSH1 0x20 SWAP1 DUP2 MSTORE PUSH1 0x40 DUP1 DUP4 KECCAK256 SLOAD DUP4 DUP4 MSTORE DUP2 DUP5 KECCAK256 SLOAD PUSH1 0x7 SWAP1 SWAP4 MSTORE SWAP3 KECCAK256 SLOAD PUSH1 0x9 DUP1 SLOAD SWAP1 SWAP2 PUSH1 0xFF AND SWAP1 DUP2 LT PUSH2 0xA79 JUMPI PUSH4 0x4E487B71 PUSH1 0xE0 SHL PUSH1 0x0 MSTORE PUSH1 0x32 PUSH1 0x4 MSTORE PUSH1 0x24 PUSH1 0x0 REVERT JUMPDEST SWAP1 PUSH1 0x0 MSTORE PUSH1 0x20 PUSH1 0x0 KECCAK256 ADD SLOAD PUSH2 0xA8E SWAP2 SWAP1 PUSH2 0x18A2 JUMP JUMPDEST PUSH2 0xA98 SWAP2 SWAP1 PUSH2 0x1882 JUMP JUMPDEST SWAP1 POP JUMPDEST SWAP2 SWAP1 POP JUMP JUMPDEST PUSH2 0xAA8 PUSH2 0x11FC JUMP JUMPDEST PUSH1 0x1 PUSH1 0x1 PUSH1 0xA0 SHL SUB AND PUSH2 0xAB9 PUSH2 0xB00 JUMP JUMPDEST PUSH1 0x1 PUSH1 0x1 PUSH1 0xA0 SHL SUB AND EQ PUSH2 0xADF JUMPI PUSH1 0x40 MLOAD PUSH3 0x461BCD PUSH1 0xE5 SHL DUP2 MSTORE PUSH1 0x4 ADD PUSH2 0x4CA SWAP1 PUSH2 0x16D7 JUMP JUMPDEST PUSH2 0xAE9 PUSH1 0x0 PUSH2 0x12B4 JUMP JUMPDEST JUMP JUMPDEST PUSH1 0x7 PUSH1 0x20 MSTORE PUSH1 0x0 SWAP1 DUP2 MSTORE PUSH1 0x40 SWAP1 KECCAK256 SLOAD PUSH1 0xFF AND DUP2 JUMP JUMPDEST PUSH1 0x5 SLOAD PUSH1 0x1 PUSH1 0x1 PUSH1 0xA0 SHL SUB AND SWAP1 JUMP JUMPDEST PUSH1 0x60 PUSH1 0x4 DUP1 SLOAD PUSH2 0x2E4 SWAP1 PUSH2 0x18FB JUMP JUMPDEST PUSH2 0xB26 PUSH2 0x11FC JUMP JUMPDEST PUSH1 0x1 PUSH1 0x1 PUSH1 0xA0 SHL SUB AND PUSH2 0xB37 PUSH2 0xB00 JUMP JUMPDEST PUSH1 0x1 PUSH1 0x1 PUSH1 0xA0 SHL SUB AND EQ PUSH2 0xB5D JUMPI PUSH1 0x40 MLOAD PUSH3 0x461BCD PUSH1 0xE5 SHL DUP2 MSTORE PUSH1 0x4 ADD PUSH2 0x4CA SWAP1 PUSH2 0x16D7 JUMP JUMPDEST PUSH1 0xA PUSH1 0x2 DUP2 SLOAD DUP2 LT PUSH2 0xB7F JUMPI PUSH4 0x4E487B71 PUSH1 0xE0 SHL PUSH1 0x0 MSTORE PUSH1 0x32 PUSH1 0x4 MSTORE PUSH1 0x24 PUSH1 0x0 REVERT JUMPDEST SWAP1 PUSH1 0x0 MSTORE PUSH1 0x20 PUSH1 0x0 KECCAK256 ADD SLOAD PUSH1 0x0 EQ PUSH2 0xC82 JUMPI PUSH2 0xB9C PUSH1 0x4 DUP3 PUSH2 0x1882 JUMP JUMPDEST PUSH1 0xA PUSH1 0x2 DUP2 SLOAD DUP2 LT PUSH2 0xBBE JUMPI PUSH4 0x4E487B71 PUSH1 0xE0 SHL PUSH1 0x0 MSTORE PUSH1 0x32 PUSH1 0x4 MSTORE PUSH1 0x24 PUSH1 0x0 REVERT JUMPDEST SWAP1 PUSH1 0x0 MSTORE PUSH1 0x20 PUSH1 0x0 KECCAK256 ADD SLOAD PUSH2 0xBD3 SWAP2 SWAP1 PUSH2 0x186A JUMP JUMPDEST PUSH1 0x9 PUSH1 0x2 DUP2 SLOAD DUP2 LT PUSH2 0xBF5 JUMPI PUSH4 0x4E487B71 PUSH1 0xE0 SHL PUSH1 0x0 MSTORE PUSH1 0x32 PUSH1 0x4 MSTORE PUSH1 0x24 PUSH1 0x0 REVERT JUMPDEST SWAP1 PUSH1 0x0 MSTORE PUSH1 0x20 PUSH1 0x0 KECCAK256 ADD PUSH1 0x0 DUP3 DUP3 SLOAD PUSH2 0xC0E SWAP2 SWAP1 PUSH2 0x18A2 JUMP JUMPDEST SWAP1 SWAP2 SSTORE POP POP PUSH1 0xA DUP1 SLOAD PUSH1 0x2 SWAP1 DUP2 LT PUSH2 0xC36 JUMPI PUSH4 0x4E487B71 PUSH1 0xE0 SHL PUSH1 0x0 MSTORE PUSH1 0x32 PUSH1 0x4 MSTORE PUSH1 0x24 PUSH1 0x0 REVERT JUMPDEST SWAP1 PUSH1 0x0 MSTORE PUSH1 0x20 PUSH1 0x0 KECCAK256 ADD SLOAD PUSH1 0x9 PUSH1 0x2 DUP2 SLOAD DUP2 LT PUSH2 0xC63 JUMPI PUSH4 0x4E487B71 PUSH1 0xE0 SHL PUSH1 0x0 MSTORE PUSH1 0x32 PUSH1 0x4 MSTORE PUSH1 0x24 PUSH1 0x0 REVERT JUMPDEST SWAP1 PUSH1 0x0 MSTORE PUSH1 0x20 PUSH1 0x0 KECCAK256 ADD PUSH1 0x0 DUP3 DUP3 SLOAD PUSH2 0xC7C SWAP2 SWAP1 PUSH2 0x1882 JUMP JUMPDEST SWAP1 SWAP2 SSTORE POP POP JUMPDEST PUSH1 0xA PUSH1 0x1 DUP2 SLOAD DUP2 LT PUSH2 0xCA4 JUMPI PUSH4 0x4E487B71 PUSH1 0xE0 SHL PUSH1 0x0 MSTORE PUSH1 0x32 PUSH1 0x4 MSTORE PUSH1 0x24 PUSH1 0x0 REVERT JUMPDEST SWAP1 PUSH1 0x0 MSTORE PUSH1 0x20 PUSH1 0x0 KECCAK256 ADD SLOAD PUSH1 0x0 EQ PUSH2 0xDA7 JUMPI PUSH2 0xCC1 PUSH1 0x4 DUP3 PUSH2 0x1882 JUMP JUMPDEST PUSH1 0xA PUSH1 0x1 DUP2 SLOAD DUP2 LT PUSH2 0xCE3 JUMPI PUSH4 0x4E487B71 PUSH1 0xE0 SHL PUSH1 0x0 MSTORE PUSH1 0x32 PUSH1 0x4 MSTORE PUSH1 0x24 PUSH1 0x0 REVERT JUMPDEST SWAP1 PUSH1 0x0 MSTORE PUSH1 0x20 PUSH1 0x0 KECCAK256 ADD SLOAD PUSH2 0xCF8 SWAP2 SWAP1 PUSH2 0x186A JUMP JUMPDEST PUSH1 0x9 PUSH1 0x1 DUP2 SLOAD DUP2 LT PUSH2 0xD1A JUMPI PUSH4 0x4E487B71 PUSH1 0xE0 SHL PUSH1 0x0 MSTORE PUSH1 0x32 PUSH1 0x4 MSTORE PUSH1 0x24 PUSH1 0x0 REVERT JUMPDEST SWAP1 PUSH1 0x0 MSTORE PUSH1 0x20 PUSH1 0x0 KECCAK256 ADD PUSH1 0x0 DUP3 DUP3 SLOAD PUSH2 0xD33 SWAP2 SWAP1 PUSH2 0x18A2 JUMP JUMPDEST SWAP1 SWAP2 SSTORE POP POP PUSH1 0xA DUP1 SLOAD PUSH1 0x1 SWAP1 DUP2 LT PUSH2 0xD5B JUMPI PUSH4 0x4E487B71 PUSH1 0xE0 SHL PUSH1 0x0 MSTORE PUSH1 0x32 PUSH1 0x4 MSTORE PUSH1 0x24 PUSH1 0x0 REVERT JUMPDEST SWAP1 PUSH1 0x0 MSTORE PUSH1 0x20 PUSH1 0x0 KECCAK256 ADD SLOAD PUSH1 0x9 PUSH1 0x1 DUP2 SLOAD DUP2 LT PUSH2 0xD88 JUMPI PUSH4 0x4E487B71 PUSH1 0xE0 SHL PUSH1 0x0 MSTORE PUSH1 0x32 PUSH1 0x4 MSTORE PUSH1 0x24 PUSH1 0x0 REVERT JUMPDEST SWAP1 PUSH1 0x0 MSTORE PUSH1 0x20 PUSH1 0x0 KECCAK256 ADD PUSH1 0x0 DUP3 DUP3 SLOAD PUSH2 0xDA1 SWAP2 SWAP1 PUSH2 0x1882 JUMP JUMPDEST SWAP1 SWAP2 SSTORE POP POP JUMPDEST PUSH2 0xDB2 PUSH1 0x2 DUP3 PUSH2 0x1882 JUMP JUMPDEST PUSH1 0xB SLOAD PUSH1 0x1 PUSH1 0x1 PUSH1 0xA0 SHL SUB AND PUSH1 0x0 SWAP1 DUP2 MSTORE PUSH1 0x20 DUP2 SWAP1 MSTORE PUSH1 0x40 DUP2 KECCAK256 DUP1 SLOAD SWAP1 SWAP2 SWAP1 PUSH2 0xDDC SWAP1 DUP5 SWAP1 PUSH2 0x186A JUMP JUMPDEST SWAP1 SWAP2 SSTORE POP PUSH2 0xDED SWAP1 POP PUSH1 0x4 DUP3 PUSH2 0x1882 JUMP JUMPDEST PUSH1 0xA PUSH1 0x1 DUP2 SLOAD DUP2 LT PUSH2 0xE0F JUMPI PUSH4 0x4E487B71 PUSH1 0xE0 SHL PUSH1 0x0 MSTORE PUSH1 0x32 PUSH1 0x4 MSTORE PUSH1 0x24 PUSH1 0x0 REVERT JUMPDEST SWAP1 PUSH1 0x0 MSTORE PUSH1 0x20 PUSH1 0x0 KECCAK256 ADD PUSH1 0x0 DUP3 DUP3 SLOAD PUSH2 0xE28 SWAP2 SWAP1 PUSH2 0x186A JUMP JUMPDEST SWAP1 SWAP2 SSTORE POP PUSH2 0xE39 SWAP1 POP PUSH1 0x4 DUP3 PUSH2 0x1882 JUMP JUMPDEST PUSH1 0xA PUSH1 0x2 DUP2 SLOAD DUP2 LT PUSH2 0xE5B JUMPI PUSH4 0x4E487B71 PUSH1 0xE0 SHL PUSH1 0x0 MSTORE PUSH1 0x32 PUSH1 0x4 MSTORE PUSH1 0x24 PUSH1 0x0 REVERT JUMPDEST SWAP1 PUSH1 0x0 MSTORE PUSH1 0x20 PUSH1 0x0 KECCAK256 ADD PUSH1 0x0 DUP3 DUP3 SLOAD PUSH2 0xE74 SWAP2 SWAP1 PUSH2 0x186A JUMP JUMPDEST SWAP3 POP POP DUP2 SWAP1 SSTORE POP DUP1 PUSH1 0x2 PUSH1 0x0 DUP3 DUP3 SLOAD PUSH2 0xE8D SWAP2 SWAP1 PUSH2 0x186A JUMP JUMPDEST SWAP1 SWAP2 SSTORE POP POP POP JUMP JUMPDEST PUSH2 0xE9D PUSH2 0x11FC JUMP JUMPDEST PUSH1 0x1 PUSH1 0x1 PUSH1 0xA0 SHL SUB AND PUSH2 0xEAE PUSH2 0xB00 JUMP JUMPDEST PUSH1 0x1 PUSH1 0x1 PUSH1 0xA0 SHL SUB AND EQ PUSH2 0xED4 JUMPI PUSH1 0x40 MLOAD PUSH3 0x461BCD PUSH1 0xE5 SHL DUP2 MSTORE PUSH1 0x4 ADD PUSH2 0x4CA SWAP1 PUSH2 0x16D7 JUMP JUMPDEST PUSH2 0xEDD DUP3 PUSH2 0x384 JUMP JUMPDEST PUSH1 0x1 PUSH1 0x1 PUSH1 0xA0 SHL SUB DUP3 AND PUSH1 0x0 SWAP1 DUP2 MSTORE PUSH1 0x7 PUSH1 0x20 SWAP1 DUP2 MSTORE PUSH1 0x40 DUP1 DUP4 KECCAK256 DUP1 SLOAD PUSH1 0xFF DUP7 DUP2 AND PUSH1 0xFF NOT DUP4 AND OR SWAP1 SWAP3 SSTORE SWAP3 DUP5 SWAP1 MSTORE SWAP3 KECCAK256 SLOAD PUSH1 0xA DUP1 SLOAD SWAP4 SWAP1 SWAP3 AND SWAP3 SWAP1 SWAP2 SWAP1 DUP4 SWAP1 DUP2 LT PUSH2 0xF39 JUMPI PUSH4 0x4E487B71 PUSH1 0xE0 SHL PUSH1 0x0 MSTORE PUSH1 0x32 PUSH1 0x4 MSTORE PUSH1 0x24 PUSH1 0x0 REVERT JUMPDEST SWAP1 PUSH1 0x0 MSTORE PUSH1 0x20 PUSH1 0x0 KECCAK256 ADD PUSH1 0x0 DUP3 DUP3 SLOAD PUSH2 0xF52 SWAP2 SWAP1 PUSH2 0x18C1 JUMP JUMPDEST SWAP1 SWAP2 SSTORE POP POP PUSH1 0x1 PUSH1 0x1 PUSH1 0xA0 SHL SUB DUP4 AND PUSH1 0x0 SWAP1 DUP2 MSTORE PUSH1 0x20 DUP2 SWAP1 MSTORE PUSH1 0x40 SWAP1 KECCAK256 SLOAD PUSH1 0xA DUP1 SLOAD PUSH1 0xFF DUP6 AND SWAP1 DUP2 LT PUSH2 0xF95 JUMPI PUSH4 0x4E487B71 PUSH1 0xE0 SHL PUSH1 0x0 MSTORE PUSH1 0x32 PUSH1 0x4 MSTORE PUSH1 0x24 PUSH1 0x0 REVERT JUMPDEST SWAP1 PUSH1 0x0 MSTORE PUSH1 0x20 PUSH1 0x0 KECCAK256 ADD PUSH1 0x0 DUP3 DUP3 SLOAD PUSH2 0xFAE SWAP2 SWAP1 PUSH2 0x186A JUMP JUMPDEST SWAP1 SWAP2 SSTORE POP POP PUSH1 0x9 DUP1 SLOAD PUSH1 0xFF DUP5 AND SWAP1 DUP2 LT PUSH2 0xFD8 JUMPI PUSH4 0x4E487B71 PUSH1 0xE0 SHL PUSH1 0x0 MSTORE PUSH1 0x32 PUSH1 0x4 MSTORE PUSH1 0x24 PUSH1 0x0 REVERT JUMPDEST PUSH1 0x0 SWAP2 DUP3 MSTORE PUSH1 0x20 DUP1 DUP4 KECCAK256 SWAP1 SWAP2 ADD SLOAD PUSH1 0x1 PUSH1 0x1 PUSH1 0xA0 SHL SUB SWAP1 SWAP6 AND DUP3 MSTORE PUSH1 0x6 SWAP1 MSTORE PUSH1 0x40 SWAP1 KECCAK256 SWAP3 SWAP1 SWAP3 SSTORE POP POP JUMP JUMPDEST PUSH1 0x0 DUP1 PUSH1 0x1 PUSH1 0x0 PUSH2 0x1012 PUSH2 0x11FC JUMP JUMPDEST PUSH1 0x1 PUSH1 0x1 PUSH1 0xA0 SHL SUB SWAP1 DUP2 AND DUP3 MSTORE PUSH1 0x20 DUP1 DUP4 ADD SWAP4 SWAP1 SWAP4 MSTORE PUSH1 0x40 SWAP2 DUP3 ADD PUSH1 0x0 SWAP1 DUP2 KECCAK256 SWAP2 DUP9 AND DUP2 MSTORE SWAP3 MSTORE SWAP1 KECCAK256 SLOAD SWAP1 POP DUP3 DUP2 LT ISZERO PUSH2 0x105E JUMPI PUSH1 0x40 MLOAD PUSH3 0x461BCD PUSH1 0xE5 SHL DUP2 MSTORE PUSH1 0x4 ADD PUSH2 0x4CA SWAP1 PUSH2 0x180E JUMP JUMPDEST PUSH2 0x1074 PUSH2 0x1069 PUSH2 0x11FC JUMP JUMPDEST DUP6 PUSH2 0x9C3 DUP7 DUP6 PUSH2 0x18C1 JUMP JUMPDEST POP PUSH1 0x1 SWAP4 SWAP3 POP POP POP JUMP JUMPDEST PUSH1 0x0 DUP1 PUSH2 0x1089 PUSH2 0x11FC JUMP JUMPDEST SWAP1 POP PUSH2 0x1094 DUP2 PUSH2 0x384 JUMP JUMPDEST PUSH2 0x109D DUP5 PUSH2 0x384 JUMP JUMPDEST PUSH1 0x1 PUSH1 0x1 PUSH1 0xA0 SHL SUB DUP2 AND PUSH1 0x0 SWAP1 DUP2 MSTORE PUSH1 0x7 PUSH1 0x20 MSTORE PUSH1 0x40 SWAP1 KECCAK256 SLOAD PUSH1 0xA DUP1 SLOAD DUP6 SWAP3 PUSH1 0xFF AND SWAP1 DUP2 LT PUSH2 0x10DC JUMPI PUSH4 0x4E487B71 PUSH1 0xE0 SHL PUSH1 0x0 MSTORE PUSH1 0x32 PUSH1 0x4 MSTORE PUSH1 0x24 PUSH1 0x0 REVERT JUMPDEST SWAP1 PUSH1 0x0 MSTORE PUSH1 0x20 PUSH1 0x0 KECCAK256 ADD PUSH1 0x0 DUP3 DUP3 SLOAD PUSH2 0x10F5 SWAP2 SWAP1 PUSH2 0x18C1 JUMP JUMPDEST SWAP1 SWAP2 SSTORE POP POP PUSH1 0x1 PUSH1 0x1 PUSH1 0xA0 SHL SUB DUP5 AND PUSH1 0x0 SWAP1 DUP2 MSTORE PUSH1 0x7 PUSH1 0x20 MSTORE PUSH1 0x40 SWAP1 KECCAK256 SLOAD PUSH1 0xA DUP1 SLOAD DUP6 SWAP3 PUSH1 0xFF AND SWAP1 DUP2 LT PUSH2 0x1139 JUMPI PUSH4 0x4E487B71 PUSH1 0xE0 SHL PUSH1 0x0 MSTORE PUSH1 0x32 PUSH1 0x4 MSTORE PUSH1 0x24 PUSH1 0x0 REVERT JUMPDEST SWAP1 PUSH1 0x0 MSTORE PUSH1 0x20 PUSH1 0x0 KECCAK256 ADD PUSH1 0x0 DUP3 DUP3 SLOAD PUSH2 0x1152 SWAP2 SWAP1 PUSH2 0x186A JUMP JUMPDEST SWAP1 SWAP2 SSTORE POP PUSH2 0x1074 SWAP1 POP DUP2 DUP6 DUP6 PUSH2 0x1306 JUMP JUMPDEST PUSH1 0x1 PUSH1 0x1 PUSH1 0xA0 SHL SUB SWAP2 DUP3 AND PUSH1 0x0 SWAP1 DUP2 MSTORE PUSH1 0x1 PUSH1 0x20 SWAP1 DUP2 MSTORE PUSH1 0x40 DUP1 DUP4 KECCAK256 SWAP4 SWAP1 SWAP5 AND DUP3 MSTORE SWAP2 SWAP1 SWAP2 MSTORE KECCAK256 SLOAD SWAP1 JUMP JUMPDEST PUSH2 0x1196 PUSH2 0x11FC JUMP JUMPDEST PUSH1 0x1 PUSH1 0x1 PUSH1 0xA0 SHL SUB AND PUSH2 0x11A7 PUSH2 0xB00 JUMP JUMPDEST PUSH1 0x1 PUSH1 0x1 PUSH1 0xA0 SHL SUB AND EQ PUSH2 0x11CD JUMPI PUSH1 0x40 MLOAD PUSH3 0x461BCD PUSH1 0xE5 SHL DUP2 MSTORE PUSH1 0x4 ADD PUSH2 0x4CA SWAP1 PUSH2 0x16D7 JUMP JUMPDEST PUSH1 0x1 PUSH1 0x1 PUSH1 0xA0 SHL SUB DUP2 AND PUSH2 0x11F3 JUMPI PUSH1 0x40 MLOAD PUSH3 0x461BCD PUSH1 0xE5 SHL DUP2 MSTORE PUSH1 0x4 ADD PUSH2 0x4CA SWAP1 PUSH2 0x1609 JUMP JUMPDEST PUSH2 0x488 DUP2 PUSH2 0x12B4 JUMP JUMPDEST CALLER SWAP1 JUMP JUMPDEST PUSH1 0x1 PUSH1 0x1 PUSH1 0xA0 SHL SUB DUP4 AND PUSH2 0x1226 JUMPI PUSH1 0x40 MLOAD PUSH3 0x461BCD PUSH1 0xE5 SHL DUP2 MSTORE PUSH1 0x4 ADD PUSH2 0x4CA SWAP1 PUSH2 0x1786 JUMP JUMPDEST PUSH1 0x1 PUSH1 0x1 PUSH1 0xA0 SHL SUB DUP3 AND PUSH2 0x124C JUMPI PUSH1 0x40 MLOAD PUSH3 0x461BCD PUSH1 0xE5 SHL DUP2 MSTORE PUSH1 0x4 ADD PUSH2 0x4CA SWAP1 PUSH2 0x164F JUMP JUMPDEST PUSH1 0x1 PUSH1 0x1 PUSH1 0xA0 SHL SUB DUP1 DUP5 AND PUSH1 0x0 DUP2 DUP2 MSTORE PUSH1 0x1 PUSH1 0x20 SWAP1 DUP2 MSTORE PUSH1 0x40 DUP1 DUP4 KECCAK256 SWAP5 DUP8 AND DUP1 DUP5 MSTORE SWAP5 SWAP1 SWAP2 MSTORE SWAP1 DUP2 SWAP1 KECCAK256 DUP5 SWAP1 SSTORE MLOAD PUSH32 0x8C5BE1E5EBEC7D5BD14F71427D1E84F3DD0314C0F7B2291E5B200AC8C7C3B925 SWAP1 PUSH2 0x12A7 SWAP1 DUP6 SWAP1 PUSH2 0x1853 JUMP JUMPDEST PUSH1 0x40 MLOAD DUP1 SWAP2 SUB SWAP1 LOG3 POP POP POP JUMP JUMPDEST PUSH1 0x5 DUP1 SLOAD PUSH1 0x1 PUSH1 0x1 PUSH1 0xA0 SHL SUB DUP4 DUP2 AND PUSH1 0x1 PUSH1 0x1 PUSH1 0xA0 SHL SUB NOT DUP4 AND DUP2 OR SWAP1 SWAP4 SSTORE PUSH1 0x40 MLOAD SWAP2 AND SWAP2 SWAP1 DUP3 SWAP1 PUSH32 0x8BE0079C531659141344CD1FD0A4F28419497F9722A3DAAFE3B4186F6B6457E0 SWAP1 PUSH1 0x0 SWAP1 LOG3 POP POP JUMP JUMPDEST PUSH1 0x1 PUSH1 0x1 PUSH1 0xA0 SHL SUB DUP4 AND PUSH2 0x132C JUMPI PUSH1 0x40 MLOAD PUSH3 0x461BCD PUSH1 0xE5 SHL DUP2 MSTORE PUSH1 0x4 ADD PUSH2 0x4CA SWAP1 PUSH2 0x1741 JUMP JUMPDEST PUSH1 0x1 PUSH1 0x1 PUSH1 0xA0 SHL SUB DUP3 AND PUSH2 0x1352 JUMPI PUSH1 0x40 MLOAD PUSH3 0x461BCD PUSH1 0xE5 SHL DUP2 MSTORE PUSH1 0x4 ADD PUSH2 0x4CA SWAP1 PUSH2 0x15C6 JUMP JUMPDEST PUSH2 0x135D DUP4 DUP4 DUP4 PUSH2 0x142E JUMP JUMPDEST PUSH1 0x1 PUSH1 0x1 PUSH1 0xA0 SHL SUB DUP4 AND PUSH1 0x0 SWAP1 DUP2 MSTORE PUSH1 0x20 DUP2 SWAP1 MSTORE PUSH1 0x40 SWAP1 KECCAK256 SLOAD DUP2 DUP2 LT ISZERO PUSH2 0x1396 JUMPI PUSH1 0x40 MLOAD PUSH3 0x461BCD PUSH1 0xE5 SHL DUP2 MSTORE PUSH1 0x4 ADD PUSH2 0x4CA SWAP1 PUSH2 0x1691 JUMP JUMPDEST PUSH2 0x13A0 DUP3 DUP3 PUSH2 0x18C1 JUMP JUMPDEST PUSH1 0x1 PUSH1 0x1 PUSH1 0xA0 SHL SUB DUP1 DUP7 AND PUSH1 0x0 SWAP1 DUP2 MSTORE PUSH1 0x20 DUP2 SWAP1 MSTORE PUSH1 0x40 DUP1 DUP3 KECCAK256 SWAP4 SWAP1 SWAP4 SSTORE SWAP1 DUP6 AND DUP2 MSTORE SWAP1 DUP2 KECCAK256 DUP1 SLOAD DUP5 SWAP3 SWAP1 PUSH2 0x13D6 SWAP1 DUP5 SWAP1 PUSH2 0x186A JUMP JUMPDEST SWAP3 POP POP DUP2 SWAP1 SSTORE POP DUP3 PUSH1 0x1 PUSH1 0x1 PUSH1 0xA0 SHL SUB AND DUP5 PUSH1 0x1 PUSH1 0x1 PUSH1 0xA0 SHL SUB AND PUSH32 0xDDF252AD1BE2C89B69C2B068FC378DAA952BA7F163C4A11628F55A4DF523B3EF DUP5 PUSH1 0x40 MLOAD PUSH2 0x1420 SWAP2 SWAP1 PUSH2 0x1853 JUMP JUMPDEST PUSH1 0x40 MLOAD DUP1 SWAP2 SUB SWAP1 LOG3 POP POP POP POP JUMP JUMPDEST POP POP POP JUMP JUMPDEST DUP1 CALLDATALOAD PUSH1 0x1 PUSH1 0x1 PUSH1 0xA0 SHL SUB DUP2 AND DUP2 EQ PUSH2 0xA9B JUMPI PUSH1 0x0 DUP1 REVERT JUMPDEST PUSH1 0x0 PUSH1 0x20 DUP3 DUP5 SUB SLT ISZERO PUSH2 0x145B JUMPI DUP1 DUP2 REVERT JUMPDEST PUSH2 0x1464 DUP3 PUSH2 0x1433 JUMP JUMPDEST SWAP4 SWAP3 POP POP POP JUMP JUMPDEST PUSH1 0x0 DUP1 PUSH1 0x40 DUP4 DUP6 SUB SLT ISZERO PUSH2 0x147D JUMPI DUP1 DUP2 REVERT JUMPDEST PUSH2 0x1486 DUP4 PUSH2 0x1433 JUMP JUMPDEST SWAP2 POP PUSH2 0x1494 PUSH1 0x20 DUP5 ADD PUSH2 0x1433 JUMP JUMPDEST SWAP1 POP SWAP3 POP SWAP3 SWAP1 POP JUMP JUMPDEST PUSH1 0x0 DUP1 PUSH1 0x0 PUSH1 0x60 DUP5 DUP7 SUB SLT ISZERO PUSH2 0x14B1 JUMPI DUP1 DUP2 REVERT JUMPDEST PUSH2 0x14BA DUP5 PUSH2 0x1433 JUMP JUMPDEST SWAP3 POP PUSH2 0x14C8 PUSH1 0x20 DUP6 ADD PUSH2 0x1433 JUMP JUMPDEST SWAP2 POP PUSH1 0x40 DUP5 ADD CALLDATALOAD SWAP1 POP SWAP3 POP SWAP3 POP SWAP3 JUMP JUMPDEST PUSH1 0x0 DUP1 PUSH1 0x40 DUP4 DUP6 SUB SLT ISZERO PUSH2 0x14EA JUMPI DUP2 DUP3 REVERT JUMPDEST PUSH2 0x14F3 DUP4 PUSH2 0x1433 JUMP JUMPDEST SWAP5 PUSH1 0x20 SWAP4 SWAP1 SWAP4 ADD CALLDATALOAD SWAP4 POP POP POP JUMP JUMPDEST PUSH1 0x0 DUP1 PUSH1 0x40 DUP4 DUP6 SUB SLT ISZERO PUSH2 0x1513 JUMPI DUP2 DUP3 REVERT JUMPDEST PUSH2 0x151C DUP4 PUSH2 0x1433 JUMP JUMPDEST SWAP2 POP PUSH1 0x20 DUP4 ADD CALLDATALOAD PUSH1 0xFF DUP2 AND DUP2 EQ PUSH2 0x1531 JUMPI DUP2 DUP3 REVERT JUMPDEST DUP1 SWAP2 POP POP SWAP3 POP SWAP3 SWAP1 POP JUMP JUMPDEST PUSH1 0x0 PUSH1 0x20 DUP3 DUP5 SUB SLT ISZERO PUSH2 0x154D JUMPI DUP1 DUP2 REVERT JUMPDEST POP CALLDATALOAD SWAP2 SWAP1 POP JUMP JUMPDEST PUSH1 0x1 PUSH1 0x1 PUSH1 0xA0 SHL SUB SWAP2 SWAP1 SWAP2 AND DUP2 MSTORE PUSH1 0x20 ADD SWAP1 JUMP JUMPDEST SWAP1 ISZERO ISZERO DUP2 MSTORE PUSH1 0x20 ADD SWAP1 JUMP JUMPDEST PUSH1 0x0 PUSH1 0x20 DUP1 DUP4 MSTORE DUP4 MLOAD DUP1 DUP3 DUP6 ADD MSTORE DUP3 JUMPDEST DUP2 DUP2 LT ISZERO PUSH2 0x159F JUMPI DUP6 DUP2 ADD DUP4 ADD MLOAD DUP6 DUP3 ADD PUSH1 0x40 ADD MSTORE DUP3 ADD PUSH2 0x1583 JUMP JUMPDEST DUP2 DUP2 GT ISZERO PUSH2 0x15B0 JUMPI DUP4 PUSH1 0x40 DUP4 DUP8 ADD ADD MSTORE JUMPDEST POP PUSH1 0x1F ADD PUSH1 0x1F NOT AND SWAP3 SWAP1 SWAP3 ADD PUSH1 0x40 ADD SWAP4 SWAP3 POP POP POP JUMP JUMPDEST PUSH1 0x20 DUP1 DUP3 MSTORE PUSH1 0x23 SWAP1 DUP3 ADD MSTORE PUSH32 0x45524332303A207472616E7366657220746F20746865207A65726F2061646472 PUSH1 0x40 DUP3 ADD MSTORE PUSH3 0x657373 PUSH1 0xE8 SHL PUSH1 0x60 DUP3 ADD MSTORE PUSH1 0x80 ADD SWAP1 JUMP JUMPDEST PUSH1 0x20 DUP1 DUP3 MSTORE PUSH1 0x26 SWAP1 DUP3 ADD MSTORE PUSH32 0x4F776E61626C653A206E6577206F776E657220697320746865207A65726F2061 PUSH1 0x40 DUP3 ADD MSTORE PUSH6 0x646472657373 PUSH1 0xD0 SHL PUSH1 0x60 DUP3 ADD MSTORE PUSH1 0x80 ADD SWAP1 JUMP JUMPDEST PUSH1 0x20 DUP1 DUP3 MSTORE PUSH1 0x22 SWAP1 DUP3 ADD MSTORE PUSH32 0x45524332303A20617070726F766520746F20746865207A65726F206164647265 PUSH1 0x40 DUP3 ADD MSTORE PUSH2 0x7373 PUSH1 0xF0 SHL PUSH1 0x60 DUP3 ADD MSTORE PUSH1 0x80 ADD SWAP1 JUMP JUMPDEST PUSH1 0x20 DUP1 DUP3 MSTORE PUSH1 0x26 SWAP1 DUP3 ADD MSTORE PUSH32 0x45524332303A207472616E7366657220616D6F756E7420657863656564732062 PUSH1 0x40 DUP3 ADD MSTORE PUSH6 0x616C616E6365 PUSH1 0xD0 SHL PUSH1 0x60 DUP3 ADD MSTORE PUSH1 0x80 ADD SWAP1 JUMP JUMPDEST PUSH1 0x20 DUP1 DUP3 MSTORE DUP2 DUP2 ADD MSTORE PUSH32 0x4F776E61626C653A2063616C6C6572206973206E6F7420746865206F776E6572 PUSH1 0x40 DUP3 ADD MSTORE PUSH1 0x60 ADD SWAP1 JUMP JUMPDEST PUSH1 0x20 DUP1 DUP3 MSTORE DUP2 DUP2 ADD MSTORE PUSH32 0x6163636F756E74206973206120726567756C6172207368617265686F6C646572 PUSH1 0x40 DUP3 ADD MSTORE PUSH1 0x60 ADD SWAP1 JUMP JUMPDEST PUSH1 0x20 DUP1 DUP3 MSTORE PUSH1 0x25 SWAP1 DUP3 ADD MSTORE PUSH32 0x45524332303A207472616E736665722066726F6D20746865207A65726F206164 PUSH1 0x40 DUP3 ADD MSTORE PUSH5 0x6472657373 PUSH1 0xD8 SHL PUSH1 0x60 DUP3 ADD MSTORE PUSH1 0x80 ADD SWAP1 JUMP JUMPDEST PUSH1 0x20 DUP1 DUP3 MSTORE PUSH1 0x24 SWAP1 DUP3 ADD MSTORE PUSH32 0x45524332303A20617070726F76652066726F6D20746865207A65726F20616464 PUSH1 0x40 DUP3 ADD MSTORE PUSH4 0x72657373 PUSH1 0xE0 SHL PUSH1 0x60 DUP3 ADD MSTORE PUSH1 0x80 ADD SWAP1 JUMP JUMPDEST PUSH1 0x20 DUP1 DUP3 MSTORE PUSH1 0x24 SWAP1 DUP3 ADD MSTORE PUSH32 0x6163636F756E74206973206E6F74206120726567756C6172207368617265686F PUSH1 0x40 DUP3 ADD MSTORE PUSH4 0x363232B9 PUSH1 0xE1 SHL PUSH1 0x60 DUP3 ADD MSTORE PUSH1 0x80 ADD SWAP1 JUMP JUMPDEST PUSH1 0x20 DUP1 DUP3 MSTORE PUSH1 0x25 SWAP1 DUP3 ADD MSTORE PUSH32 0x45524332303A2064656372656173656420616C6C6F77616E63652062656C6F77 PUSH1 0x40 DUP3 ADD MSTORE PUSH5 0x207A65726F PUSH1 0xD8 SHL PUSH1 0x60 DUP3 ADD MSTORE PUSH1 0x80 ADD SWAP1 JUMP JUMPDEST SWAP1 DUP2 MSTORE PUSH1 0x20 ADD SWAP1 JUMP JUMPDEST PUSH1 0xFF SWAP2 SWAP1 SWAP2 AND DUP2 MSTORE PUSH1 0x20 ADD SWAP1 JUMP JUMPDEST PUSH1 0x0 DUP3 NOT DUP3 GT ISZERO PUSH2 0x187D JUMPI PUSH2 0x187D PUSH2 0x1956 JUMP JUMPDEST POP ADD SWAP1 JUMP JUMPDEST PUSH1 0x0 DUP3 PUSH2 0x189D JUMPI PUSH4 0x4E487B71 PUSH1 0xE0 SHL DUP2 MSTORE PUSH1 0x12 PUSH1 0x4 MSTORE PUSH1 0x24 DUP2 REVERT JUMPDEST POP DIV SWAP1 JUMP JUMPDEST PUSH1 0x0 DUP2 PUSH1 0x0 NOT DIV DUP4 GT DUP3 ISZERO ISZERO AND ISZERO PUSH2 0x18BC JUMPI PUSH2 0x18BC PUSH2 0x1956 JUMP JUMPDEST POP MUL SWAP1 JUMP JUMPDEST PUSH1 0x0 DUP3 DUP3 LT ISZERO PUSH2 0x18D3 JUMPI PUSH2 0x18D3 PUSH2 0x1956 JUMP JUMPDEST POP SUB SWAP1 JUMP JUMPDEST PUSH1 0x0 PUSH1 0xFF DUP3 AND PUSH1 0xFF DUP5 AND DUP1 DUP3 LT ISZERO PUSH2 0x18F2 JUMPI PUSH2 0x18F2 PUSH2 0x1956 JUMP JUMPDEST SWAP1 SUB SWAP4 SWAP3 POP POP POP JUMP JUMPDEST PUSH1 0x2 DUP2 DIV PUSH1 0x1 DUP3 AND DUP1 PUSH2 0x190F JUMPI PUSH1 0x7F DUP3 AND SWAP2 POP JUMPDEST PUSH1 0x20 DUP3 LT DUP2 EQ ISZERO PUSH2 0x1930 JUMPI PUSH4 0x4E487B71 PUSH1 0xE0 SHL PUSH1 0x0 MSTORE PUSH1 0x22 PUSH1 0x4 MSTORE PUSH1 0x24 PUSH1 0x0 REVERT JUMPDEST POP SWAP2 SWAP1 POP JUMP JUMPDEST PUSH1 0x0 PUSH1 0xFF DUP3 AND PUSH1 0xFF DUP2 EQ ISZERO PUSH2 0x194D JUMPI PUSH2 0x194D PUSH2 0x1956 JUMP JUMPDEST PUSH1 0x1 ADD SWAP3 SWAP2 POP POP JUMP JUMPDEST PUSH4 0x4E487B71 PUSH1 0xE0 SHL PUSH1 0x0 MSTORE PUSH1 0x11 PUSH1 0x4 MSTORE PUSH1 0x24 PUSH1 0x0 REVERT INVALID LOG2 PUSH5 0x6970667358 0x22 SLT KECCAK256 0xCA SWAP9 PUSH22 0x9DD701B771F5B3368A5111CFEACCE213473BAEF4AC2E SSTORE DUP3 CODESIZE 0x5D PUSH15 0x6BA164736F6C634300080000330000 "
        },
        "gasEstimates": {
          "creation": {
            "codeDepositCost": "1312400",
            "executionCost": "infinite",
            "totalCost": "infinite"
          },
          "external": {
            "allowance(address,address)": "infinite",
            "approve(address,uint256)": "22629",
            "balanceOf(address)": "infinite",
            "changeLvl(address,uint8)": "137555",
            "cury(uint256)": "2107",
            "decimals()": "307",
            "decreaseAllowance(address,uint256)": "infinite",
            "increaseAllowance(address,uint256)": "infinite",
            "lvl(address)": "1337",
            "mint(uint256)": "infinite",
            "mintToNRS(address,uint256)": "infinite",
            "mintToRS(address,uint256)": "infinite",
            "name()": "infinite",
            "owner()": "1159",
            "relaxBalance(address)": "48496",
            "renounceOwnership()": "23552",
            "symbol()": "infinite",
            "totalSupply()": "1051",
            "transfer(address,uint256)": "infinite",
            "transferFrom(address,address,uint256)": "infinite",
            "transferOwnership(address)": "23834"
          }
        },
        "methodIdentifiers": {
          "allowance(address,address)": "dd62ed3e",
          "approve(address,uint256)": "095ea7b3",
          "balanceOf(address)": "70a08231",
          "changeLvl(address,uint8)": "a33e7d7e",
          "cury(uint256)": "69313678",
          "decimals()": "313ce567",
          "decreaseAllowance(address,uint256)": "a457c2d7",
          "increaseAllowance(address,uint256)": "39509351",
          "lvl(address)": "7a0d944c",
          "mint(uint256)": "a0712d68",
          "mintToNRS(address,uint256)": "1506f480",
          "mintToRS(address,uint256)": "13b954a3",
          "name()": "06fdde03",
          "owner()": "8da5cb5b",
          "relaxBalance(address)": "0a61877e",
          "renounceOwnership()": "715018a6",
          "symbol()": "95d89b41",
          "totalSupply()": "18160ddd",
          "transfer(address,uint256)": "a9059cbb",
          "transferFrom(address,address,uint256)": "23b872dd",
          "transferOwnership(address)": "f2fde38b"
        }
      },
      "storageLayout": {
        "storage": [
          {
            "astId": 1695,
            "contract": "contracts/Distribution/AtlantisDistribution.sol:AtlantisDistribution",
            "label": "_balances",
            "offset": 0,
            "slot": "0",
            "type": "t_mapping(t_address,t_uint256)"
          },
          {
            "astId": 1701,
            "contract": "contracts/Distribution/AtlantisDistribution.sol:AtlantisDistribution",
            "label": "_allowances",
            "offset": 0,
            "slot": "1",
            "type": "t_mapping(t_address,t_mapping(t_address,t_uint256))"
          },
          {
            "astId": 1703,
            "contract": "contracts/Distribution/AtlantisDistribution.sol:AtlantisDistribution",
            "label": "_totalSupply",
            "offset": 0,
            "slot": "2",
            "type": "t_uint256"
          },
          {
            "astId": 1705,
            "contract": "contracts/Distribution/AtlantisDistribution.sol:AtlantisDistribution",
            "label": "_name",
            "offset": 0,
            "slot": "3",
            "type": "t_string_storage"
          },
          {
            "astId": 1707,
            "contract": "contracts/Distribution/AtlantisDistribution.sol:AtlantisDistribution",
            "label": "_symbol",
            "offset": 0,
            "slot": "4",
            "type": "t_string_storage"
          },
          {
            "astId": 7,
            "contract": "contracts/Distribution/AtlantisDistribution.sol:AtlantisDistribution",
            "label": "_owner",
            "offset": 0,
            "slot": "5",
            "type": "t_address"
          },
          {
            "astId": 1145,
            "contract": "contracts/Distribution/AtlantisDistribution.sol:AtlantisDistribution",
            "label": "y",
            "offset": 0,
            "slot": "6",
            "type": "t_mapping(t_address,t_uint256)"
          },
          {
            "astId": 1149,
            "contract": "contracts/Distribution/AtlantisDistribution.sol:AtlantisDistribution",
            "label": "lvl",
            "offset": 0,
            "slot": "7",
            "type": "t_mapping(t_address,t_uint8)"
          },
          {
            "astId": 1152,
            "contract": "contracts/Distribution/AtlantisDistribution.sol:AtlantisDistribution",
            "label": "size",
            "offset": 0,
            "slot": "8",
            "type": "t_uint256"
          },
          {
            "astId": 1160,
            "contract": "contracts/Distribution/AtlantisDistribution.sol:AtlantisDistribution",
            "label": "cury",
            "offset": 0,
            "slot": "9",
            "type": "t_array(t_uint256)dyn_storage"
          },
          {
            "astId": 1168,
            "contract": "contracts/Distribution/AtlantisDistribution.sol:AtlantisDistribution",
            "label": "total",
            "offset": 0,
            "slot": "10",
            "type": "t_array(t_uint256)dyn_storage"
          },
          {
            "astId": 1170,
            "contract": "contracts/Distribution/AtlantisDistribution.sol:AtlantisDistribution",
            "label": "fund_wallet",
            "offset": 0,
            "slot": "11",
            "type": "t_address_payable"
          }
        ],
        "types": {
          "t_address": {
            "encoding": "inplace",
            "label": "address",
            "numberOfBytes": "20"
          },
          "t_address_payable": {
            "encoding": "inplace",
            "label": "address payable",
            "numberOfBytes": "20"
          },
          "t_array(t_uint256)dyn_storage": {
            "base": "t_uint256",
            "encoding": "dynamic_array",
            "label": "uint256[]",
            "numberOfBytes": "32"
          },
          "t_mapping(t_address,t_mapping(t_address,t_uint256))": {
            "encoding": "mapping",
            "key": "t_address",
            "label": "mapping(address => mapping(address => uint256))",
            "numberOfBytes": "32",
            "value": "t_mapping(t_address,t_uint256)"
          },
          "t_mapping(t_address,t_uint256)": {
            "encoding": "mapping",
            "key": "t_address",
            "label": "mapping(address => uint256)",
            "numberOfBytes": "32",
            "value": "t_uint256"
          },
          "t_mapping(t_address,t_uint8)": {
            "encoding": "mapping",
            "key": "t_address",
            "label": "mapping(address => uint8)",
            "numberOfBytes": "32",
            "value": "t_uint8"
          },
          "t_string_storage": {
            "encoding": "bytes",
            "label": "string",
            "numberOfBytes": "32"
          },
          "t_uint256": {
            "encoding": "inplace",
            "label": "uint256",
            "numberOfBytes": "32"
          },
          "t_uint8": {
            "encoding": "inplace",
            "label": "uint8",
            "numberOfBytes": "1"
          }
        }
      },
      "userdoc": {
        "kind": "user",
        "methods": {},
        "version": 1
      }
    }
  }
}