{
  "_format": "hh-sol-artifact-1",
  "contractName": "Rewarder",
  "sourceName": "contracts/Role/Rewarder.sol",
  "abi": [
    {
      "inputs": [],
      "stateMutability": "nonpayable",
      "type": "constructor"
    },
    {
      "anonymous": false,
      "inputs": [
        {
          "indexed": true,
          "internalType": "address",
          "name": "account",
          "type": "address"
        }
      ],
      "name": "RewarderAdded",
      "type": "event"
    },
    {
      "anonymous": false,
      "inputs": [
        {
          "indexed": true,
          "internalType": "address",
          "name": "account",
          "type": "address"
        }
      ],
      "name": "RewarderRemoved",
      "type": "event"
    },
    {
      "inputs": [
        {
          "internalType": "address",
          "name": "account",
          "type": "address"
        }
      ],
      "name": "addRewarder",
      "outputs": [],
      "stateMutability": "nonpayable",
      "type": "function"
    },
    {
      "inputs": [
        {
          "internalType": "address",
          "name": "account",
          "type": "address"
        }
      ],
      "name": "isRewarder",
      "outputs": [
        {
          "internalType": "bool",
          "name": "",
          "type": "bool"
        }
      ],
      "stateMutability": "view",
      "type": "function"
    },
    {
      "inputs": [],
      "name": "renounceRewarder",
      "outputs": [],
      "stateMutability": "nonpayable",
      "type": "function"
    }
  ],
  "bytecode": "0x608060405234801561001057600080fd5b5061002161001c61003a565b61003e565b6100355761003561003061003a565b61005e565b6101c3565b3390565b60006100588260006100ad60201b6100ec1790919060201c565b92915050565b6100768160006100fe60201b6101341790919060201c565b6040516001600160a01b038216907f9dfd431959d2d3358e3eb909555ad574123ea5881ff0e05a80f66d4984710c1b90600090a250565b60006001600160a01b0382166100de5760405162461bcd60e51b81526004016100d590610181565b60405180910390fd5b506001600160a01b03166000908152602091909152604090205460ff1690565b61010882826100ad565b156101255760405162461bcd60e51b81526004016100d59061014a565b6001600160a01b0316600090815260209190915260409020805460ff19166001179055565b6020808252601f908201527f526f6c65733a206163636f756e7420616c72656164792068617320726f6c6500604082015260600190565b60208082526022908201527f526f6c65733a206163636f756e7420697320746865207a65726f206164647265604082015261737360f01b606082015260800190565b6103cd806101d26000396000f3fe608060405234801561001057600080fd5b50600436106100415760003560e01c806340cc85181461004657806356d3590b146100505780638e478cab14610063575b600080fd5b61004e61008c565b005b61004e61005e366004610250565b61009e565b610076610071366004610250565b6100da565b604051610083919061027e565b60405180910390f35b61009c610097610180565b610184565b565b6100a9610071610180565b6100ce5760405162461bcd60e51b81526004016100c590610343565b60405180910390fd5b6100d7816101c6565b50565b60006100e681836100ec565b92915050565b60006001600160a01b0382166101145760405162461bcd60e51b81526004016100c590610301565b506001600160a01b03166000908152602091909152604090205460ff1690565b61013e82826100ec565b1561015b5760405162461bcd60e51b81526004016100c590610289565b6001600160a01b0316600090815260209190915260409020805460ff19166001179055565b3390565b61018f600082610208565b6040516001600160a01b038216907fce699c579f0b70ea4ccd6a4b38be26726a2c248b89c7102ccbc5d0f3060ef6d090600090a250565b6101d1600082610134565b6040516001600160a01b038216907f9dfd431959d2d3358e3eb909555ad574123ea5881ff0e05a80f66d4984710c1b90600090a250565b61021282826100ec565b61022e5760405162461bcd60e51b81526004016100c5906102c0565b6001600160a01b0316600090815260209190915260409020805460ff19169055565b600060208284031215610261578081fd5b81356001600160a01b0381168114610277578182fd5b9392505050565b901515815260200190565b6020808252601f908201527f526f6c65733a206163636f756e7420616c72656164792068617320726f6c6500604082015260600190565b60208082526021908201527f526f6c65733a206163636f756e7420646f6573206e6f74206861766520726f6c6040820152606560f81b606082015260800190565b60208082526022908201527f526f6c65733a206163636f756e7420697320746865207a65726f206164647265604082015261737360f01b606082015260800190565b60208082526034908201527f5265776172646572526f6c653a2063616c6c657220646f6573206e6f7420686160408201527376652074686520526577617264657220726f6c6560601b60608201526080019056fea2646970667358221220046d0a9e51ee264b0facd598fbb173d1622ece33b1afe9f4db15a3b61020403f64736f6c63430008000033",
  "linkReferences": {},
  "deployedLinkReferences": {}
}