{
	"contracts/Distribution/AtlantisDistribution.sol": {
		"AtlantisDistribution": {
			"abi": [
				{
					"inputs": [
						{
							"internalType": "string",
							"name": "name",
							"type": "string"
						},
						{
							"internalType": "string",
							"name": "symbol",
							"type": "string"
						},
						{
							"internalType": "address payable",
							"name": "_fund_wallet",
							"type": "address"
						}
					],
					"stateMutability": "nonpayable",
					"type": "constructor"
				},
				{
					"anonymous": false,
					"inputs": [
						{
							"indexed": true,
							"internalType": "address",
							"name": "owner",
							"type": "address"
						},
						{
							"indexed": true,
							"internalType": "address",
							"name": "spender",
							"type": "address"
						},
						{
							"indexed": false,
							"internalType": "uint256",
							"name": "value",
							"type": "uint256"
						}
					],
					"name": "Approval",
					"type": "event"
				},
				{
					"anonymous": false,
					"inputs": [
						{
							"indexed": true,
							"internalType": "address",
							"name": "previousOwner",
							"type": "address"
						},
						{
							"indexed": true,
							"internalType": "address",
							"name": "newOwner",
							"type": "address"
						}
					],
					"name": "OwnershipTransferred",
					"type": "event"
				},
				{
					"anonymous": false,
					"inputs": [
						{
							"indexed": true,
							"internalType": "address",
							"name": "from",
							"type": "address"
						},
						{
							"indexed": true,
							"internalType": "address",
							"name": "to",
							"type": "address"
						},
						{
							"indexed": false,
							"internalType": "uint256",
							"name": "value",
							"type": "uint256"
						}
					],
					"name": "Transfer",
					"type": "event"
				},
				{
					"inputs": [
						{
							"internalType": "address",
							"name": "owner",
							"type": "address"
						},
						{
							"internalType": "address",
							"name": "spender",
							"type": "address"
						}
					],
					"name": "allowance",
					"outputs": [
						{
							"internalType": "uint256",
							"name": "",
							"type": "uint256"
						}
					],
					"stateMutability": "view",
					"type": "function"
				},
				{
					"inputs": [
						{
							"internalType": "address",
							"name": "spender",
							"type": "address"
						},
						{
							"internalType": "uint256",
							"name": "amount",
							"type": "uint256"
						}
					],
					"name": "approve",
					"outputs": [
						{
							"internalType": "bool",
							"name": "",
							"type": "bool"
						}
					],
					"stateMutability": "nonpayable",
					"type": "function"
				},
				{
					"inputs": [
						{
							"internalType": "address",
							"name": "account",
							"type": "address"
						}
					],
					"name": "balanceOf",
					"outputs": [
						{
							"internalType": "uint256",
							"name": "",
							"type": "uint256"
						}
					],
					"stateMutability": "view",
					"type": "function"
				},
				{
					"inputs": [
						{
							"internalType": "address",
							"name": "account",
							"type": "address"
						},
						{
							"internalType": "uint8",
							"name": "newLvl",
							"type": "uint8"
						}
					],
					"name": "changeLvl",
					"outputs": [],
					"stateMutability": "nonpayable",
					"type": "function"
				},
				{
					"inputs": [
						{
							"internalType": "uint256",
							"name": "",
							"type": "uint256"
						}
					],
					"name": "cury",
					"outputs": [
						{
							"internalType": "uint256",
							"name": "",
							"type": "uint256"
						}
					],
					"stateMutability": "view",
					"type": "function"
				},
				{
					"inputs": [],
					"name": "decimals",
					"outputs": [
						{
							"internalType": "uint8",
							"name": "",
							"type": "uint8"
						}
					],
					"stateMutability": "view",
					"type": "function"
				},
				{
					"inputs": [
						{
							"internalType": "address",
							"name": "spender",
							"type": "address"
						},
						{
							"internalType": "uint256",
							"name": "subtractedValue",
							"type": "uint256"
						}
					],
					"name": "decreaseAllowance",
					"outputs": [
						{
							"internalType": "bool",
							"name": "",
							"type": "bool"
						}
					],
					"stateMutability": "nonpayable",
					"type": "function"
				},
				{
					"inputs": [
						{
							"internalType": "address",
							"name": "spender",
							"type": "address"
						},
						{
							"internalType": "uint256",
							"name": "addedValue",
							"type": "uint256"
						}
					],
					"name": "increaseAllowance",
					"outputs": [
						{
							"internalType": "bool",
							"name": "",
							"type": "bool"
						}
					],
					"stateMutability": "nonpayable",
					"type": "function"
				},
				{
					"inputs": [
						{
							"internalType": "address",
							"name": "",
							"type": "address"
						}
					],
					"name": "lvl",
					"outputs": [
						{
							"internalType": "uint8",
							"name": "",
							"type": "uint8"
						}
					],
					"stateMutability": "view",
					"type": "function"
				},
				{
					"inputs": [
						{
							"internalType": "uint256",
							"name": "amount",
							"type": "uint256"
						}
					],
					"name": "mint",
					"outputs": [],
					"stateMutability": "nonpayable",
					"type": "function"
				},
				{
					"inputs": [
						{
							"internalType": "address",
							"name": "account",
							"type": "address"
						},
						{
							"internalType": "uint256",
							"name": "amount",
							"type": "uint256"
						}
					],
					"name": "mintToNRS",
					"outputs": [],
					"stateMutability": "nonpayable",
					"type": "function"
				},
				{
					"inputs": [
						{
							"internalType": "address",
							"name": "account",
							"type": "address"
						},
						{
							"internalType": "uint256",
							"name": "amount",
							"type": "uint256"
						}
					],
					"name": "mintToRS",
					"outputs": [],
					"stateMutability": "nonpayable",
					"type": "function"
				},
				{
					"inputs": [],
					"name": "name",
					"outputs": [
						{
							"internalType": "string",
							"name": "",
							"type": "string"
						}
					],
					"stateMutability": "view",
					"type": "function"
				},
				{
					"inputs": [],
					"name": "owner",
					"outputs": [
						{
							"internalType": "address",
							"name": "",
							"type": "address"
						}
					],
					"stateMutability": "view",
					"type": "function"
				},
				{
					"inputs": [
						{
							"internalType": "address",
							"name": "account",
							"type": "address"
						}
					],
					"name": "relaxBalance",
					"outputs": [],
					"stateMutability": "nonpayable",
					"type": "function"
				},
				{
					"inputs": [],
					"name": "renounceOwnership",
					"outputs": [],
					"stateMutability": "nonpayable",
					"type": "function"
				},
				{
					"inputs": [],
					"name": "symbol",
					"outputs": [
						{
							"internalType": "string",
							"name": "",
							"type": "string"
						}
					],
					"stateMutability": "view",
					"type": "function"
				},
				{
					"inputs": [],
					"name": "totalSupply",
					"outputs": [
						{
							"internalType": "uint256",
							"name": "",
							"type": "uint256"
						}
					],
					"stateMutability": "view",
					"type": "function"
				},
				{
					"inputs": [
						{
							"internalType": "address",
							"name": "recipient",
							"type": "address"
						},
						{
							"internalType": "uint256",
							"name": "amount",
							"type": "uint256"
						}
					],
					"name": "transfer",
					"outputs": [
						{
							"internalType": "bool",
							"name": "",
							"type": "bool"
						}
					],
					"stateMutability": "nonpayable",
					"type": "function"
				},
				{
					"inputs": [
						{
							"internalType": "address",
							"name": "sender",
							"type": "address"
						},
						{
							"internalType": "address",
							"name": "recipient",
							"type": "address"
						},
						{
							"internalType": "uint256",
							"name": "amount",
							"type": "uint256"
						}
					],
					"name": "transferFrom",
					"outputs": [
						{
							"internalType": "bool",
							"name": "",
							"type": "bool"
						}
					],
					"stateMutability": "nonpayable",
					"type": "function"
				},
				{
					"inputs": [
						{
							"internalType": "address",
							"name": "newOwner",
							"type": "address"
						}
					],
					"name": "transferOwnership",
					"outputs": [],
					"stateMutability": "nonpayable",
					"type": "function"
				}
			],
			"devdoc": {
				"kind": "dev",
				"methods": {
					"allowance(address,address)": {
						"details": "See {IERC20-allowance}."
					},
					"approve(address,uint256)": {
						"details": "See {IERC20-approve}. Requirements: - `spender` cannot be the zero address."
					},
					"balanceOf(address)": {
						"details": "See {IERC20-balanceOf}."
					},
					"decimals()": {
						"details": "Returns the number of decimals used to get its user representation. For example, if `decimals` equals `2`, a balance of `505` tokens should be displayed to a user as `5,05` (`505 / 10 ** 2`). Tokens usually opt for a value of 18, imitating the relationship between Ether and Wei. This is the value {ERC20} uses, unless this function is overloaded; NOTE: This information is only used for _display_ purposes: it in no way affects any of the arithmetic of the contract, including {IERC20-balanceOf} and {IERC20-transfer}."
					},
					"decreaseAllowance(address,uint256)": {
						"details": "Atomically decreases the allowance granted to `spender` by the caller. This is an alternative to {approve} that can be used as a mitigation for problems described in {IERC20-approve}. Emits an {Approval} event indicating the updated allowance. Requirements: - `spender` cannot be the zero address. - `spender` must have allowance for the caller of at least `subtractedValue`."
					},
					"increaseAllowance(address,uint256)": {
						"details": "Atomically increases the allowance granted to `spender` by the caller. This is an alternative to {approve} that can be used as a mitigation for problems described in {IERC20-approve}. Emits an {Approval} event indicating the updated allowance. Requirements: - `spender` cannot be the zero address."
					},
					"name()": {
						"details": "Returns the name of the token."
					},
					"owner()": {
						"details": "Returns the address of the current owner."
					},
					"renounceOwnership()": {
						"details": "Leaves the contract without owner. It will not be possible to call `onlyOwner` functions anymore. Can only be called by the current owner. NOTE: Renouncing ownership will leave the contract without an owner, thereby removing any functionality that is only available to the owner."
					},
					"symbol()": {
						"details": "Returns the symbol of the token, usually a shorter version of the name."
					},
					"totalSupply()": {
						"details": "See {IERC20-totalSupply}."
					},
					"transfer(address,uint256)": {
						"details": "See {IERC20-transfer}. Requirements: - `recipient` cannot be the zero address. - the caller must have a balance of at least `amount`."
					},
					"transferFrom(address,address,uint256)": {
						"details": "See {IERC20-transferFrom}. Emits an {Approval} event indicating the updated allowance. This is not required by the EIP. See the note at the beginning of {ERC20}. Requirements: - `sender` and `recipient` cannot be the zero address. - `sender` must have a balance of at least `amount`. - the caller must have allowance for ``sender``'s tokens of at least `amount`."
					},
					"transferOwnership(address)": {
						"details": "Transfers ownership of the contract to a new account (`newOwner`). Can only be called by the current owner."
					}
				},
				"version": 1
			},
			"evm": {
				"assembly": "    /* \"contracts/Distribution/AtlantisDistribution.sol\":206:3509  contract AtlantisDistribution is ERC20, Ownable {... */\n  mstore(0x40, 0x80)\n    /* \"contracts/Distribution/AtlantisDistribution.sol\":399:400  3 */\n  0x03\n    /* \"contracts/Distribution/AtlantisDistribution.sol\":387:400  uint size = 3 */\n  0x08\n  sstore\n    /* \"contracts/Distribution/AtlantisDistribution.sol\":444:448  size */\n  sload(0x08)\n    /* \"contracts/Distribution/AtlantisDistribution.sol\":430:449  new uint256[](size) */\n  0xffffffffffffffff\n  dup2\n  gt\n  iszero\n  tag_1\n  jumpi\n  tag_2\n  tag_3\n  jump\t// in\ntag_2:\ntag_1:\n  mload(0x40)\n  swap1\n  dup1\n  dup3\n  mstore\n  dup1\n  0x20\n  mul\n  0x20\n  add\n  dup3\n  add\n  0x40\n  mstore\n  dup1\n  iszero\n  tag_4\n  jumpi\n  dup2\n  0x20\n  add\n  0x20\n  dup3\n  mul\n  dup1\n  calldatasize\n  dup4\n  calldatacopy\n  dup1\n  dup3\n  add\n  swap2\n  pop\n  pop\n  swap1\n  pop\ntag_4:\n  pop\n    /* \"contracts/Distribution/AtlantisDistribution.sol\":406:449  uint256[] public cury = new uint256[](size) */\n  0x09\n  swap1\n  dup1\n  mload\n  swap1\n  0x20\n  add\n  swap1\n  tag_5\n  swap3\n  swap2\n  swap1\n  tag_6\n  jump\t// in\ntag_5:\n  pop\n    /* \"contracts/Distribution/AtlantisDistribution.sol\":487:491  size */\n  sload(0x08)\n    /* \"contracts/Distribution/AtlantisDistribution.sol\":473:492  new uint256[](size) */\n  0xffffffffffffffff\n  dup2\n  gt\n  iszero\n  tag_7\n  jumpi\n  tag_8\n  tag_3\n  jump\t// in\ntag_8:\ntag_7:\n  mload(0x40)\n  swap1\n  dup1\n  dup3\n  mstore\n  dup1\n  0x20\n  mul\n  0x20\n  add\n  dup3\n  add\n  0x40\n  mstore\n  dup1\n  iszero\n  tag_9\n  jumpi\n  dup2\n  0x20\n  add\n  0x20\n  dup3\n  mul\n  dup1\n  calldatasize\n  dup4\n  calldatacopy\n  dup1\n  dup3\n  add\n  swap2\n  pop\n  pop\n  swap1\n  pop\ntag_9:\n  pop\n    /* \"contracts/Distribution/AtlantisDistribution.sol\":455:492  uint256[] total = new uint256[](size) */\n  0x0a\n  swap1\n  dup1\n  mload\n  swap1\n  0x20\n  add\n  swap1\n  tag_10\n  swap3\n  swap2\n  swap1\n  tag_6\n  jump\t// in\ntag_10:\n  pop\n    /* \"contracts/Distribution/AtlantisDistribution.sol\":532:913  constructor(string memory name, string memory symbol, address payable _fund_wallet) ERC20(name, symbol) {... */\n  callvalue\n  dup1\n  iszero\n  tag_11\n  jumpi\n  0x00\n  dup1\n  revert\ntag_11:\n  pop\n  mload(0x40)\n  sub(codesize, bytecodeSize)\n  dup1\n  bytecodeSize\n  dup4\n  codecopy\n  dup2\n  dup2\n  add\n  0x40\n  mstore\n  dup2\n  add\n  swap1\n  tag_12\n  swap2\n  swap1\n  tag_13\n  jump\t// in\ntag_12:\n    /* \"contracts/Distribution/AtlantisDistribution.sol\":622:626  name */\n  dup3\n    /* \"contracts/Distribution/AtlantisDistribution.sol\":628:634  symbol */\n  dup3\n    /* \"contracts/Distribution/WrappedERC20Token.sol\":1953:1958  name_ */\n  dup2\n    /* \"contracts/Distribution/WrappedERC20Token.sol\":1945:1950  _name */\n  0x03\n    /* \"contracts/Distribution/WrappedERC20Token.sol\":1945:1958  _name = name_ */\n  swap1\n  dup1\n  mload\n  swap1\n  0x20\n  add\n  swap1\n  tag_18\n  swap3\n  swap2\n  swap1\n  tag_19\n  jump\t// in\ntag_18:\n  pop\n    /* \"contracts/Distribution/WrappedERC20Token.sol\":1978:1985  symbol_ */\n  dup1\n    /* \"contracts/Distribution/WrappedERC20Token.sol\":1968:1975  _symbol */\n  0x04\n    /* \"contracts/Distribution/WrappedERC20Token.sol\":1968:1985  _symbol = symbol_ */\n  swap1\n  dup1\n  mload\n  swap1\n  0x20\n  add\n  swap1\n  tag_20\n  swap3\n  swap2\n  swap1\n  tag_19\n  jump\t// in\ntag_20:\n  pop\n    /* \"contracts/Distribution/WrappedERC20Token.sol\":1878:1992  constructor (string memory name_, string memory symbol_) {... */\n  pop\n  pop\n    /* \"@openzeppelin/contracts/access/Ownable.sol\":867:890  _setOwner(_msgSender()) */\n  tag_22\n    /* \"@openzeppelin/contracts/access/Ownable.sol\":877:889  _msgSender() */\n  tag_23\n    /* \"@openzeppelin/contracts/access/Ownable.sol\":877:887  _msgSender */\n  shl(0x20, tag_24)\n    /* \"@openzeppelin/contracts/access/Ownable.sol\":877:889  _msgSender() */\n  0x20\n  shr\n  jump\t// in\ntag_23:\n    /* \"@openzeppelin/contracts/access/Ownable.sol\":867:876  _setOwner */\n  shl(0x20, tag_25)\n    /* \"@openzeppelin/contracts/access/Ownable.sol\":867:890  _setOwner(_msgSender()) */\n  0x20\n  shr\n  jump\t// in\ntag_22:\n    /* \"contracts/Distribution/AtlantisDistribution.sol\":646:697  _mint(msg.sender, 300000000 * 10**uint(decimals())) */\n  tag_27\n    /* \"contracts/Distribution/AtlantisDistribution.sol\":652:662  msg.sender */\n  caller\n    /* \"contracts/Distribution/AtlantisDistribution.sol\":685:695  decimals() */\n  tag_28\n    /* \"contracts/Distribution/AtlantisDistribution.sol\":685:693  decimals */\n  shl(0x20, tag_29)\n    /* \"contracts/Distribution/AtlantisDistribution.sol\":685:695  decimals() */\n  0x20\n  shr\n  jump\t// in\ntag_28:\n    /* \"contracts/Distribution/AtlantisDistribution.sol\":680:696  uint(decimals()) */\n  0xff\n  and\n    /* \"contracts/Distribution/AtlantisDistribution.sol\":676:678  10 */\n  0x0a\n    /* \"contracts/Distribution/AtlantisDistribution.sol\":676:696  10**uint(decimals()) */\n  tag_30\n  swap2\n  swap1\n  tag_31\n  jump\t// in\ntag_30:\n    /* \"contracts/Distribution/AtlantisDistribution.sol\":664:673  300000000 */\n  0x11e1a300\n    /* \"contracts/Distribution/AtlantisDistribution.sol\":664:696  300000000 * 10**uint(decimals()) */\n  tag_32\n  swap2\n  swap1\n  tag_33\n  jump\t// in\ntag_32:\n    /* \"contracts/Distribution/AtlantisDistribution.sol\":646:651  _mint */\n  shl(0x20, tag_34)\n    /* \"contracts/Distribution/AtlantisDistribution.sol\":646:697  _mint(msg.sender, 300000000 * 10**uint(decimals())) */\n  0x20\n  shr\n  jump\t// in\ntag_27:\n    /* \"contracts/Distribution/AtlantisDistribution.sol\":726:736  decimals() */\n  tag_35\n    /* \"contracts/Distribution/AtlantisDistribution.sol\":726:734  decimals */\n  shl(0x20, tag_29)\n    /* \"contracts/Distribution/AtlantisDistribution.sol\":726:736  decimals() */\n  0x20\n  shr\n  jump\t// in\ntag_35:\n    /* \"contracts/Distribution/AtlantisDistribution.sol\":721:737  uint(decimals()) */\n  0xff\n  and\n    /* \"contracts/Distribution/AtlantisDistribution.sol\":717:719  10 */\n  0x0a\n    /* \"contracts/Distribution/AtlantisDistribution.sol\":717:737  10**uint(decimals()) */\n  tag_36\n  swap2\n  swap1\n  tag_31\n  jump\t// in\ntag_36:\n    /* \"contracts/Distribution/AtlantisDistribution.sol\":707:711  cury */\n  0x09\n    /* \"contracts/Distribution/AtlantisDistribution.sol\":712:713  0 */\n  0x00\n    /* \"contracts/Distribution/AtlantisDistribution.sol\":707:714  cury[0] */\n  dup2\n  sload\n  dup2\n  lt\n  tag_37\n  jumpi\n  tag_38\n  tag_39\n  jump\t// in\ntag_38:\ntag_37:\n  swap1\n  0x00\n  mstore\n  keccak256(0x00, 0x20)\n  add\n    /* \"contracts/Distribution/AtlantisDistribution.sol\":707:737  cury[0] = 10**uint(decimals()) */\n  dup2\n  swap1\n  sstore\n  pop\n    /* \"contracts/Distribution/AtlantisDistribution.sol\":766:776  decimals() */\n  tag_41\n    /* \"contracts/Distribution/AtlantisDistribution.sol\":766:774  decimals */\n  shl(0x20, tag_29)\n    /* \"contracts/Distribution/AtlantisDistribution.sol\":766:776  decimals() */\n  0x20\n  shr\n  jump\t// in\ntag_41:\n    /* \"contracts/Distribution/AtlantisDistribution.sol\":761:777  uint(decimals()) */\n  0xff\n  and\n    /* \"contracts/Distribution/AtlantisDistribution.sol\":757:759  10 */\n  0x0a\n    /* \"contracts/Distribution/AtlantisDistribution.sol\":757:777  10**uint(decimals()) */\n  tag_42\n  swap2\n  swap1\n  tag_31\n  jump\t// in\ntag_42:\n    /* \"contracts/Distribution/AtlantisDistribution.sol\":747:751  cury */\n  0x09\n    /* \"contracts/Distribution/AtlantisDistribution.sol\":752:753  1 */\n  0x01\n    /* \"contracts/Distribution/AtlantisDistribution.sol\":747:754  cury[1] */\n  dup2\n  sload\n  dup2\n  lt\n  tag_43\n  jumpi\n  tag_44\n  tag_39\n  jump\t// in\ntag_44:\ntag_43:\n  swap1\n  0x00\n  mstore\n  keccak256(0x00, 0x20)\n  add\n    /* \"contracts/Distribution/AtlantisDistribution.sol\":747:777  cury[1] = 10**uint(decimals()) */\n  dup2\n  swap1\n  sstore\n  pop\n    /* \"contracts/Distribution/AtlantisDistribution.sol\":806:816  decimals() */\n  tag_46\n    /* \"contracts/Distribution/AtlantisDistribution.sol\":806:814  decimals */\n  shl(0x20, tag_29)\n    /* \"contracts/Distribution/AtlantisDistribution.sol\":806:816  decimals() */\n  0x20\n  shr\n  jump\t// in\ntag_46:\n    /* \"contracts/Distribution/AtlantisDistribution.sol\":801:817  uint(decimals()) */\n  0xff\n  and\n    /* \"contracts/Distribution/AtlantisDistribution.sol\":797:799  10 */\n  0x0a\n    /* \"contracts/Distribution/AtlantisDistribution.sol\":797:817  10**uint(decimals()) */\n  tag_47\n  swap2\n  swap1\n  tag_31\n  jump\t// in\ntag_47:\n    /* \"contracts/Distribution/AtlantisDistribution.sol\":787:791  cury */\n  0x09\n    /* \"contracts/Distribution/AtlantisDistribution.sol\":792:793  2 */\n  0x02\n    /* \"contracts/Distribution/AtlantisDistribution.sol\":787:794  cury[2] */\n  dup2\n  sload\n  dup2\n  lt\n  tag_48\n  jumpi\n  tag_49\n  tag_39\n  jump\t// in\ntag_49:\ntag_48:\n  swap1\n  0x00\n  mstore\n  keccak256(0x00, 0x20)\n  add\n    /* \"contracts/Distribution/AtlantisDistribution.sol\":787:817  cury[2] = 10**uint(decimals()) */\n  dup2\n  swap1\n  sstore\n  pop\n    /* \"contracts/Distribution/AtlantisDistribution.sol\":859:869  decimals() */\n  tag_51\n    /* \"contracts/Distribution/AtlantisDistribution.sol\":859:867  decimals */\n  shl(0x20, tag_29)\n    /* \"contracts/Distribution/AtlantisDistribution.sol\":859:869  decimals() */\n  0x20\n  shr\n  jump\t// in\ntag_51:\n    /* \"contracts/Distribution/AtlantisDistribution.sol\":854:870  uint(decimals()) */\n  0xff\n  and\n    /* \"contracts/Distribution/AtlantisDistribution.sol\":850:852  10 */\n  0x0a\n    /* \"contracts/Distribution/AtlantisDistribution.sol\":850:870  10**uint(decimals()) */\n  tag_52\n  swap2\n  swap1\n  tag_31\n  jump\t// in\ntag_52:\n    /* \"contracts/Distribution/AtlantisDistribution.sol\":838:847  300000000 */\n  0x11e1a300\n    /* \"contracts/Distribution/AtlantisDistribution.sol\":838:870  300000000 * 10**uint(decimals()) */\n  tag_53\n  swap2\n  swap1\n  tag_33\n  jump\t// in\ntag_53:\n    /* \"contracts/Distribution/AtlantisDistribution.sol\":827:832  total */\n  0x0a\n    /* \"contracts/Distribution/AtlantisDistribution.sol\":833:834  0 */\n  0x00\n    /* \"contracts/Distribution/AtlantisDistribution.sol\":827:835  total[0] */\n  dup2\n  sload\n  dup2\n  lt\n  tag_54\n  jumpi\n  tag_55\n  tag_39\n  jump\t// in\ntag_55:\ntag_54:\n  swap1\n  0x00\n  mstore\n  keccak256(0x00, 0x20)\n  add\n    /* \"contracts/Distribution/AtlantisDistribution.sol\":827:870  total[0] = 300000000 * 10**uint(decimals()) */\n  dup2\n  swap1\n  sstore\n  pop\n    /* \"contracts/Distribution/AtlantisDistribution.sol\":894:906  _fund_wallet */\n  dup1\n    /* \"contracts/Distribution/AtlantisDistribution.sol\":880:891  fund_wallet */\n  0x0b\n  0x00\n    /* \"contracts/Distribution/AtlantisDistribution.sol\":880:906  fund_wallet = _fund_wallet */\n  0x0100\n  exp\n  dup2\n  sload\n  dup2\n  0xffffffffffffffffffffffffffffffffffffffff\n  mul\n  not\n  and\n  swap1\n  dup4\n  0xffffffffffffffffffffffffffffffffffffffff\n  and\n  mul\n  or\n  swap1\n  sstore\n  pop\n    /* \"contracts/Distribution/AtlantisDistribution.sol\":532:913  constructor(string memory name, string memory symbol, address payable _fund_wallet) ERC20(name, symbol) {... */\n  pop\n  pop\n  pop\n    /* \"contracts/Distribution/AtlantisDistribution.sol\":206:3509  contract AtlantisDistribution is ERC20, Ownable {... */\n  jump(tag_57)\n    /* \"@openzeppelin/contracts/utils/Context.sol\":587:683  function _msgSender() internal view virtual returns (address) {... */\ntag_24:\n    /* \"@openzeppelin/contracts/utils/Context.sol\":640:647  address */\n  0x00\n    /* \"@openzeppelin/contracts/utils/Context.sol\":666:676  msg.sender */\n  caller\n    /* \"@openzeppelin/contracts/utils/Context.sol\":659:676  return msg.sender */\n  swap1\n  pop\n    /* \"@openzeppelin/contracts/utils/Context.sol\":587:683  function _msgSender() internal view virtual returns (address) {... */\n  swap1\n  jump\t// out\n    /* \"@openzeppelin/contracts/access/Ownable.sol\":2041:2210  function _setOwner(address newOwner) private {... */\ntag_25:\n    /* \"@openzeppelin/contracts/access/Ownable.sol\":2096:2112  address oldOwner */\n  0x00\n    /* \"@openzeppelin/contracts/access/Ownable.sol\":2115:2121  _owner */\n  0x05\n  0x00\n  swap1\n  sload\n  swap1\n  0x0100\n  exp\n  swap1\n  div\n  0xffffffffffffffffffffffffffffffffffffffff\n  and\n    /* \"@openzeppelin/contracts/access/Ownable.sol\":2096:2121  address oldOwner = _owner */\n  swap1\n  pop\n    /* \"@openzeppelin/contracts/access/Ownable.sol\":2140:2148  newOwner */\n  dup2\n    /* \"@openzeppelin/contracts/access/Ownable.sol\":2131:2137  _owner */\n  0x05\n  0x00\n    /* \"@openzeppelin/contracts/access/Ownable.sol\":2131:2148  _owner = newOwner */\n  0x0100\n  exp\n  dup2\n  sload\n  dup2\n  0xffffffffffffffffffffffffffffffffffffffff\n  mul\n  not\n  and\n  swap1\n  dup4\n  0xffffffffffffffffffffffffffffffffffffffff\n  and\n  mul\n  or\n  swap1\n  sstore\n  pop\n    /* \"@openzeppelin/contracts/access/Ownable.sol\":2194:2202  newOwner */\n  dup2\n    /* \"@openzeppelin/contracts/access/Ownable.sol\":2163:2203  OwnershipTransferred(oldOwner, newOwner) */\n  0xffffffffffffffffffffffffffffffffffffffff\n  and\n    /* \"@openzeppelin/contracts/access/Ownable.sol\":2184:2192  oldOwner */\n  dup2\n    /* \"@openzeppelin/contracts/access/Ownable.sol\":2163:2203  OwnershipTransferred(oldOwner, newOwner) */\n  0xffffffffffffffffffffffffffffffffffffffff\n  and\n  0x8be0079c531659141344cd1fd0a4f28419497f9722a3daafe3b4186f6b6457e0\n  mload(0x40)\n  mload(0x40)\n  dup1\n  swap2\n  sub\n  swap1\n  log3\n    /* \"@openzeppelin/contracts/access/Ownable.sol\":2086:2210  {... */\n  pop\n    /* \"@openzeppelin/contracts/access/Ownable.sol\":2041:2210  function _setOwner(address newOwner) private {... */\n  pop\n  jump\t// out\n    /* \"contracts/Distribution/WrappedERC20Token.sol\":2976:3058  function decimals() public view virtual returns (uint8) {... */\ntag_29:\n    /* \"contracts/Distribution/WrappedERC20Token.sol\":3025:3030  uint8 */\n  0x00\n    /* \"contracts/Distribution/WrappedERC20Token.sol\":3049:3051  18 */\n  0x12\n    /* \"contracts/Distribution/WrappedERC20Token.sol\":3042:3051  return 18 */\n  swap1\n  pop\n    /* \"contracts/Distribution/WrappedERC20Token.sol\":2976:3058  function decimals() public view virtual returns (uint8) {... */\n  swap1\n  jump\t// out\n    /* \"contracts/Distribution/WrappedERC20Token.sol\":7976:8306  function _mint(address account, uint256 amount) internal virtual {... */\ntag_34:\n    /* \"contracts/Distribution/WrappedERC20Token.sol\":8078:8079  0 */\n  0x00\n    /* \"contracts/Distribution/WrappedERC20Token.sol\":8059:8080  account != address(0) */\n  0xffffffffffffffffffffffffffffffffffffffff\n  and\n    /* \"contracts/Distribution/WrappedERC20Token.sol\":8059:8066  account */\n  dup3\n    /* \"contracts/Distribution/WrappedERC20Token.sol\":8059:8080  account != address(0) */\n  0xffffffffffffffffffffffffffffffffffffffff\n  and\n  eq\n  iszero\n    /* \"contracts/Distribution/WrappedERC20Token.sol\":8051:8116  require(account != address(0), \"ERC20: mint to the zero address\") */\n  tag_62\n  jumpi\n  mload(0x40)\n  0x08c379a000000000000000000000000000000000000000000000000000000000\n  dup2\n  mstore\n  0x04\n  add\n  tag_63\n  swap1\n  tag_64\n  jump\t// in\ntag_63:\n  mload(0x40)\n  dup1\n  swap2\n  sub\n  swap1\n  revert\ntag_62:\n    /* \"contracts/Distribution/WrappedERC20Token.sol\":8127:8176  _beforeTokenTransfer(address(0), account, amount) */\n  tag_65\n    /* \"contracts/Distribution/WrappedERC20Token.sol\":8156:8157  0 */\n  0x00\n    /* \"contracts/Distribution/WrappedERC20Token.sol\":8160:8167  account */\n  dup4\n    /* \"contracts/Distribution/WrappedERC20Token.sol\":8169:8175  amount */\n  dup4\n    /* \"contracts/Distribution/WrappedERC20Token.sol\":8127:8147  _beforeTokenTransfer */\n  shl(0x20, tag_66)\n    /* \"contracts/Distribution/WrappedERC20Token.sol\":8127:8176  _beforeTokenTransfer(address(0), account, amount) */\n  0x20\n  shr\n  jump\t// in\ntag_65:\n    /* \"contracts/Distribution/WrappedERC20Token.sol\":8203:8209  amount */\n  dup1\n    /* \"contracts/Distribution/WrappedERC20Token.sol\":8187:8199  _totalSupply */\n  0x02\n  0x00\n    /* \"contracts/Distribution/WrappedERC20Token.sol\":8187:8209  _totalSupply += amount */\n  dup3\n  dup3\n  sload\n  tag_67\n  swap2\n  swap1\n  tag_68\n  jump\t// in\ntag_67:\n  swap3\n  pop\n  pop\n  dup2\n  swap1\n  sstore\n  pop\n    /* \"contracts/Distribution/WrappedERC20Token.sol\":8241:8247  amount */\n  dup1\n    /* \"contracts/Distribution/WrappedERC20Token.sol\":8219:8228  _balances */\n  0x00\n    /* \"contracts/Distribution/WrappedERC20Token.sol\":8219:8237  _balances[account] */\n  dup1\n    /* \"contracts/Distribution/WrappedERC20Token.sol\":8229:8236  account */\n  dup5\n    /* \"contracts/Distribution/WrappedERC20Token.sol\":8219:8237  _balances[account] */\n  0xffffffffffffffffffffffffffffffffffffffff\n  and\n  0xffffffffffffffffffffffffffffffffffffffff\n  and\n  dup2\n  mstore\n  0x20\n  add\n  swap1\n  dup2\n  mstore\n  0x20\n  add\n  0x00\n  keccak256\n  0x00\n    /* \"contracts/Distribution/WrappedERC20Token.sol\":8219:8247  _balances[account] += amount */\n  dup3\n  dup3\n  sload\n  tag_69\n  swap2\n  swap1\n  tag_68\n  jump\t// in\ntag_69:\n  swap3\n  pop\n  pop\n  dup2\n  swap1\n  sstore\n  pop\n    /* \"contracts/Distribution/WrappedERC20Token.sol\":8283:8290  account */\n  dup2\n    /* \"contracts/Distribution/WrappedERC20Token.sol\":8262:8299  Transfer(address(0), account, amount) */\n  0xffffffffffffffffffffffffffffffffffffffff\n  and\n    /* \"contracts/Distribution/WrappedERC20Token.sol\":8279:8280  0 */\n  0x00\n    /* \"contracts/Distribution/WrappedERC20Token.sol\":8262:8299  Transfer(address(0), account, amount) */\n  0xffffffffffffffffffffffffffffffffffffffff\n  and\n  0xddf252ad1be2c89b69c2b068fc378daa952ba7f163c4a11628f55a4df523b3ef\n    /* \"contracts/Distribution/WrappedERC20Token.sol\":8292:8298  amount */\n  dup4\n    /* \"contracts/Distribution/WrappedERC20Token.sol\":8262:8299  Transfer(address(0), account, amount) */\n  mload(0x40)\n  tag_70\n  swap2\n  swap1\n  tag_71\n  jump\t// in\ntag_70:\n  mload(0x40)\n  dup1\n  swap2\n  sub\n  swap1\n  log3\n    /* \"contracts/Distribution/WrappedERC20Token.sol\":7976:8306  function _mint(address account, uint256 amount) internal virtual {... */\n  pop\n  pop\n  jump\t// out\n    /* \"contracts/Distribution/WrappedERC20Token.sol\":10459:10551  function _beforeTokenTransfer(address from, address to, uint256 amount) internal virtual { } */\ntag_66:\n  pop\n  pop\n  pop\n  jump\t// out\n    /* \"contracts/Distribution/AtlantisDistribution.sol\":206:3509  contract AtlantisDistribution is ERC20, Ownable {... */\ntag_6:\n  dup3\n  dup1\n  sload\n  dup3\n  dup3\n  sstore\n  swap1\n  0x00\n  mstore\n  keccak256(0x00, 0x20)\n  swap1\n  dup2\n  add\n  swap3\n  dup3\n  iszero\n  tag_73\n  jumpi\n  swap2\n  0x20\n  mul\n  dup3\n  add\ntag_74:\n  dup3\n  dup2\n  gt\n  iszero\n  tag_75\n  jumpi\n  dup3\n  mload\n  dup3\n  sstore\n  swap2\n  0x20\n  add\n  swap2\n  swap1\n  0x01\n  add\n  swap1\n  jump(tag_74)\ntag_75:\ntag_73:\n  pop\n  swap1\n  pop\n  tag_76\n  swap2\n  swap1\n  tag_77\n  jump\t// in\ntag_76:\n  pop\n  swap1\n  jump\t// out\ntag_19:\n  dup3\n  dup1\n  sload\n  tag_78\n  swap1\n  tag_79\n  jump\t// in\ntag_78:\n  swap1\n  0x00\n  mstore\n  keccak256(0x00, 0x20)\n  swap1\n  0x1f\n  add\n  0x20\n  swap1\n  div\n  dup2\n  add\n  swap3\n  dup3\n  tag_81\n  jumpi\n  0x00\n  dup6\n  sstore\n  jump(tag_80)\ntag_81:\n  dup3\n  0x1f\n  lt\n  tag_82\n  jumpi\n  dup1\n  mload\n  not(0xff)\n  and\n  dup4\n  dup1\n  add\n  or\n  dup6\n  sstore\n  jump(tag_80)\ntag_82:\n  dup3\n  dup1\n  add\n  0x01\n  add\n  dup6\n  sstore\n  dup3\n  iszero\n  tag_80\n  jumpi\n  swap2\n  dup3\n  add\ntag_83:\n  dup3\n  dup2\n  gt\n  iszero\n  tag_84\n  jumpi\n  dup3\n  mload\n  dup3\n  sstore\n  swap2\n  0x20\n  add\n  swap2\n  swap1\n  0x01\n  add\n  swap1\n  jump(tag_83)\ntag_84:\ntag_80:\n  pop\n  swap1\n  pop\n  tag_85\n  swap2\n  swap1\n  tag_77\n  jump\t// in\ntag_85:\n  pop\n  swap1\n  jump\t// out\ntag_77:\ntag_86:\n  dup1\n  dup3\n  gt\n  iszero\n  tag_87\n  jumpi\n  0x00\n  dup2\n  0x00\n  swap1\n  sstore\n  pop\n  0x01\n  add\n  jump(tag_86)\ntag_87:\n  pop\n  swap1\n  jump\t// out\n    /* \"#utility.yul\":7:428   */\ntag_89:\n    /* \"#utility.yul\":96:101   */\n  0x00\n    /* \"#utility.yul\":121:187   */\n  tag_91\n    /* \"#utility.yul\":137:186   */\n  tag_92\n    /* \"#utility.yul\":179:185   */\n  dup5\n    /* \"#utility.yul\":137:186   */\n  tag_93\n  jump\t// in\ntag_92:\n    /* \"#utility.yul\":121:187   */\n  tag_94\n  jump\t// in\ntag_91:\n    /* \"#utility.yul\":112:187   */\n  swap1\n  pop\n    /* \"#utility.yul\":210:216   */\n  dup3\n    /* \"#utility.yul\":203:208   */\n  dup2\n    /* \"#utility.yul\":196:217   */\n  mstore\n    /* \"#utility.yul\":248:252   */\n  0x20\n    /* \"#utility.yul\":241:246   */\n  dup2\n    /* \"#utility.yul\":237:253   */\n  add\n    /* \"#utility.yul\":286:289   */\n  dup5\n    /* \"#utility.yul\":277:283   */\n  dup5\n    /* \"#utility.yul\":272:275   */\n  dup5\n    /* \"#utility.yul\":268:284   */\n  add\n    /* \"#utility.yul\":265:290   */\n  gt\n    /* \"#utility.yul\":262:264   */\n  iszero\n  tag_95\n  jumpi\n    /* \"#utility.yul\":293:372   */\n  tag_96\n  tag_97\n  jump\t// in\ntag_96:\n    /* \"#utility.yul\":262:264   */\ntag_95:\n    /* \"#utility.yul\":383:422   */\n  tag_98\n    /* \"#utility.yul\":415:421   */\n  dup5\n    /* \"#utility.yul\":410:413   */\n  dup3\n    /* \"#utility.yul\":405:408   */\n  dup6\n    /* \"#utility.yul\":383:422   */\n  tag_99\n  jump\t// in\ntag_98:\n    /* \"#utility.yul\":102:428   */\n  pop\n  swap4\n  swap3\n  pop\n  pop\n  pop\n  jump\t// out\n    /* \"#utility.yul\":434:593   */\ntag_100:\n    /* \"#utility.yul\":499:504   */\n  0x00\n    /* \"#utility.yul\":530:536   */\n  dup2\n    /* \"#utility.yul\":524:537   */\n  mload\n    /* \"#utility.yul\":515:537   */\n  swap1\n  pop\n    /* \"#utility.yul\":546:587   */\n  tag_102\n    /* \"#utility.yul\":581:586   */\n  dup2\n    /* \"#utility.yul\":546:587   */\n  tag_103\n  jump\t// in\ntag_102:\n    /* \"#utility.yul\":505:593   */\n  swap3\n  swap2\n  pop\n  pop\n  jump\t// out\n    /* \"#utility.yul\":613:968   */\ntag_104:\n    /* \"#utility.yul\":680:685   */\n  0x00\n    /* \"#utility.yul\":729:732   */\n  dup3\n    /* \"#utility.yul\":722:726   */\n  0x1f\n    /* \"#utility.yul\":714:720   */\n  dup4\n    /* \"#utility.yul\":710:727   */\n  add\n    /* \"#utility.yul\":706:733   */\n  slt\n    /* \"#utility.yul\":696:698   */\n  tag_106\n  jumpi\n    /* \"#utility.yul\":737:816   */\n  tag_107\n  tag_108\n  jump\t// in\ntag_107:\n    /* \"#utility.yul\":696:698   */\ntag_106:\n    /* \"#utility.yul\":847:853   */\n  dup2\n    /* \"#utility.yul\":841:854   */\n  mload\n    /* \"#utility.yul\":872:962   */\n  tag_109\n    /* \"#utility.yul\":958:961   */\n  dup5\n    /* \"#utility.yul\":950:956   */\n  dup3\n    /* \"#utility.yul\":943:947   */\n  0x20\n    /* \"#utility.yul\":935:941   */\n  dup7\n    /* \"#utility.yul\":931:948   */\n  add\n    /* \"#utility.yul\":872:962   */\n  tag_89\n  jump\t// in\ntag_109:\n    /* \"#utility.yul\":863:962   */\n  swap2\n  pop\n    /* \"#utility.yul\":686:968   */\n  pop\n  swap3\n  swap2\n  pop\n  pop\n  jump\t// out\n    /* \"#utility.yul\":974:1999   */\ntag_13:\n    /* \"#utility.yul\":1090:1096   */\n  0x00\n    /* \"#utility.yul\":1098:1104   */\n  dup1\n    /* \"#utility.yul\":1106:1112   */\n  0x00\n    /* \"#utility.yul\":1155:1157   */\n  0x60\n    /* \"#utility.yul\":1143:1152   */\n  dup5\n    /* \"#utility.yul\":1134:1141   */\n  dup7\n    /* \"#utility.yul\":1130:1153   */\n  sub\n    /* \"#utility.yul\":1126:1158   */\n  slt\n    /* \"#utility.yul\":1123:1125   */\n  iszero\n  tag_111\n  jumpi\n    /* \"#utility.yul\":1161:1240   */\n  tag_112\n  tag_113\n  jump\t// in\ntag_112:\n    /* \"#utility.yul\":1123:1125   */\ntag_111:\n    /* \"#utility.yul\":1302:1303   */\n  0x00\n    /* \"#utility.yul\":1291:1300   */\n  dup5\n    /* \"#utility.yul\":1287:1304   */\n  add\n    /* \"#utility.yul\":1281:1305   */\n  mload\n    /* \"#utility.yul\":1332:1350   */\n  0xffffffffffffffff\n    /* \"#utility.yul\":1324:1330   */\n  dup2\n    /* \"#utility.yul\":1321:1351   */\n  gt\n    /* \"#utility.yul\":1318:1320   */\n  iszero\n  tag_114\n  jumpi\n    /* \"#utility.yul\":1354:1433   */\n  tag_115\n  tag_116\n  jump\t// in\ntag_115:\n    /* \"#utility.yul\":1318:1320   */\ntag_114:\n    /* \"#utility.yul\":1459:1533   */\n  tag_117\n    /* \"#utility.yul\":1525:1532   */\n  dup7\n    /* \"#utility.yul\":1516:1522   */\n  dup3\n    /* \"#utility.yul\":1505:1514   */\n  dup8\n    /* \"#utility.yul\":1501:1523   */\n  add\n    /* \"#utility.yul\":1459:1533   */\n  tag_104\n  jump\t// in\ntag_117:\n    /* \"#utility.yul\":1449:1533   */\n  swap4\n  pop\n    /* \"#utility.yul\":1252:1543   */\n  pop\n    /* \"#utility.yul\":1603:1605   */\n  0x20\n    /* \"#utility.yul\":1592:1601   */\n  dup5\n    /* \"#utility.yul\":1588:1606   */\n  add\n    /* \"#utility.yul\":1582:1607   */\n  mload\n    /* \"#utility.yul\":1634:1652   */\n  0xffffffffffffffff\n    /* \"#utility.yul\":1626:1632   */\n  dup2\n    /* \"#utility.yul\":1623:1653   */\n  gt\n    /* \"#utility.yul\":1620:1622   */\n  iszero\n  tag_118\n  jumpi\n    /* \"#utility.yul\":1656:1735   */\n  tag_119\n  tag_116\n  jump\t// in\ntag_119:\n    /* \"#utility.yul\":1620:1622   */\ntag_118:\n    /* \"#utility.yul\":1761:1835   */\n  tag_120\n    /* \"#utility.yul\":1827:1834   */\n  dup7\n    /* \"#utility.yul\":1818:1824   */\n  dup3\n    /* \"#utility.yul\":1807:1816   */\n  dup8\n    /* \"#utility.yul\":1803:1825   */\n  add\n    /* \"#utility.yul\":1761:1835   */\n  tag_104\n  jump\t// in\ntag_120:\n    /* \"#utility.yul\":1751:1835   */\n  swap3\n  pop\n    /* \"#utility.yul\":1553:1845   */\n  pop\n    /* \"#utility.yul\":1884:1886   */\n  0x40\n    /* \"#utility.yul\":1910:1982   */\n  tag_121\n    /* \"#utility.yul\":1974:1981   */\n  dup7\n    /* \"#utility.yul\":1965:1971   */\n  dup3\n    /* \"#utility.yul\":1954:1963   */\n  dup8\n    /* \"#utility.yul\":1950:1972   */\n  add\n    /* \"#utility.yul\":1910:1982   */\n  tag_100\n  jump\t// in\ntag_121:\n    /* \"#utility.yul\":1900:1982   */\n  swap2\n  pop\n    /* \"#utility.yul\":1855:1992   */\n  pop\n    /* \"#utility.yul\":1113:1999   */\n  swap3\n  pop\n  swap3\n  pop\n  swap3\n  jump\t// out\n    /* \"#utility.yul\":2005:2371   */\ntag_122:\n    /* \"#utility.yul\":2147:2150   */\n  0x00\n    /* \"#utility.yul\":2168:2235   */\n  tag_124\n    /* \"#utility.yul\":2232:2234   */\n  0x1f\n    /* \"#utility.yul\":2227:2230   */\n  dup4\n    /* \"#utility.yul\":2168:2235   */\n  tag_125\n  jump\t// in\ntag_124:\n    /* \"#utility.yul\":2161:2235   */\n  swap2\n  pop\n    /* \"#utility.yul\":2244:2337   */\n  tag_126\n    /* \"#utility.yul\":2333:2336   */\n  dup3\n    /* \"#utility.yul\":2244:2337   */\n  tag_127\n  jump\t// in\ntag_126:\n    /* \"#utility.yul\":2362:2364   */\n  0x20\n    /* \"#utility.yul\":2357:2360   */\n  dup3\n    /* \"#utility.yul\":2353:2365   */\n  add\n    /* \"#utility.yul\":2346:2365   */\n  swap1\n  pop\n    /* \"#utility.yul\":2151:2371   */\n  swap2\n  swap1\n  pop\n  jump\t// out\n    /* \"#utility.yul\":2377:2495   */\ntag_128:\n    /* \"#utility.yul\":2464:2488   */\n  tag_130\n    /* \"#utility.yul\":2482:2487   */\n  dup2\n    /* \"#utility.yul\":2464:2488   */\n  tag_131\n  jump\t// in\ntag_130:\n    /* \"#utility.yul\":2459:2462   */\n  dup3\n    /* \"#utility.yul\":2452:2489   */\n  mstore\n    /* \"#utility.yul\":2442:2495   */\n  pop\n  pop\n  jump\t// out\n    /* \"#utility.yul\":2501:2920   */\ntag_64:\n    /* \"#utility.yul\":2667:2671   */\n  0x00\n    /* \"#utility.yul\":2705:2707   */\n  0x20\n    /* \"#utility.yul\":2694:2703   */\n  dup3\n    /* \"#utility.yul\":2690:2708   */\n  add\n    /* \"#utility.yul\":2682:2708   */\n  swap1\n  pop\n    /* \"#utility.yul\":2754:2763   */\n  dup2\n    /* \"#utility.yul\":2748:2752   */\n  dup2\n    /* \"#utility.yul\":2744:2764   */\n  sub\n    /* \"#utility.yul\":2740:2741   */\n  0x00\n    /* \"#utility.yul\":2729:2738   */\n  dup4\n    /* \"#utility.yul\":2725:2742   */\n  add\n    /* \"#utility.yul\":2718:2765   */\n  mstore\n    /* \"#utility.yul\":2782:2913   */\n  tag_133\n    /* \"#utility.yul\":2908:2912   */\n  dup2\n    /* \"#utility.yul\":2782:2913   */\n  tag_122\n  jump\t// in\ntag_133:\n    /* \"#utility.yul\":2774:2913   */\n  swap1\n  pop\n    /* \"#utility.yul\":2672:2920   */\n  swap2\n  swap1\n  pop\n  jump\t// out\n    /* \"#utility.yul\":2926:3148   */\ntag_71:\n    /* \"#utility.yul\":3019:3023   */\n  0x00\n    /* \"#utility.yul\":3057:3059   */\n  0x20\n    /* \"#utility.yul\":3046:3055   */\n  dup3\n    /* \"#utility.yul\":3042:3060   */\n  add\n    /* \"#utility.yul\":3034:3060   */\n  swap1\n  pop\n    /* \"#utility.yul\":3070:3141   */\n  tag_135\n    /* \"#utility.yul\":3138:3139   */\n  0x00\n    /* \"#utility.yul\":3127:3136   */\n  dup4\n    /* \"#utility.yul\":3123:3140   */\n  add\n    /* \"#utility.yul\":3114:3120   */\n  dup5\n    /* \"#utility.yul\":3070:3141   */\n  tag_128\n  jump\t// in\ntag_135:\n    /* \"#utility.yul\":3024:3148   */\n  swap3\n  swap2\n  pop\n  pop\n  jump\t// out\n    /* \"#utility.yul\":3154:3283   */\ntag_94:\n    /* \"#utility.yul\":3188:3194   */\n  0x00\n    /* \"#utility.yul\":3215:3235   */\n  tag_137\n  tag_138\n  jump\t// in\ntag_137:\n    /* \"#utility.yul\":3205:3235   */\n  swap1\n  pop\n    /* \"#utility.yul\":3244:3277   */\n  tag_139\n    /* \"#utility.yul\":3272:3276   */\n  dup3\n    /* \"#utility.yul\":3264:3270   */\n  dup3\n    /* \"#utility.yul\":3244:3277   */\n  tag_140\n  jump\t// in\ntag_139:\n    /* \"#utility.yul\":3195:3283   */\n  swap2\n  swap1\n  pop\n  jump\t// out\n    /* \"#utility.yul\":3289:3364   */\ntag_138:\n    /* \"#utility.yul\":3322:3328   */\n  0x00\n    /* \"#utility.yul\":3355:3357   */\n  0x40\n    /* \"#utility.yul\":3349:3358   */\n  mload\n    /* \"#utility.yul\":3339:3358   */\n  swap1\n  pop\n    /* \"#utility.yul\":3329:3364   */\n  swap1\n  jump\t// out\n    /* \"#utility.yul\":3370:3678   */\ntag_93:\n    /* \"#utility.yul\":3432:3436   */\n  0x00\n    /* \"#utility.yul\":3522:3540   */\n  0xffffffffffffffff\n    /* \"#utility.yul\":3514:3520   */\n  dup3\n    /* \"#utility.yul\":3511:3541   */\n  gt\n    /* \"#utility.yul\":3508:3510   */\n  iszero\n  tag_143\n  jumpi\n    /* \"#utility.yul\":3544:3562   */\n  tag_144\n  tag_3\n  jump\t// in\ntag_144:\n    /* \"#utility.yul\":3508:3510   */\ntag_143:\n    /* \"#utility.yul\":3582:3611   */\n  tag_145\n    /* \"#utility.yul\":3604:3610   */\n  dup3\n    /* \"#utility.yul\":3582:3611   */\n  tag_146\n  jump\t// in\ntag_145:\n    /* \"#utility.yul\":3574:3611   */\n  swap1\n  pop\n    /* \"#utility.yul\":3666:3670   */\n  0x20\n    /* \"#utility.yul\":3660:3664   */\n  dup2\n    /* \"#utility.yul\":3656:3671   */\n  add\n    /* \"#utility.yul\":3648:3671   */\n  swap1\n  pop\n    /* \"#utility.yul\":3437:3678   */\n  swap2\n  swap1\n  pop\n  jump\t// out\n    /* \"#utility.yul\":3684:3853   */\ntag_125:\n    /* \"#utility.yul\":3768:3779   */\n  0x00\n    /* \"#utility.yul\":3802:3808   */\n  dup3\n    /* \"#utility.yul\":3797:3800   */\n  dup3\n    /* \"#utility.yul\":3790:3809   */\n  mstore\n    /* \"#utility.yul\":3842:3846   */\n  0x20\n    /* \"#utility.yul\":3837:3840   */\n  dup3\n    /* \"#utility.yul\":3833:3847   */\n  add\n    /* \"#utility.yul\":3818:3847   */\n  swap1\n  pop\n    /* \"#utility.yul\":3780:3853   */\n  swap3\n  swap2\n  pop\n  pop\n  jump\t// out\n    /* \"#utility.yul\":3859:4164   */\ntag_68:\n    /* \"#utility.yul\":3899:3902   */\n  0x00\n    /* \"#utility.yul\":3918:3938   */\n  tag_149\n    /* \"#utility.yul\":3936:3937   */\n  dup3\n    /* \"#utility.yul\":3918:3938   */\n  tag_131\n  jump\t// in\ntag_149:\n    /* \"#utility.yul\":3913:3938   */\n  swap2\n  pop\n    /* \"#utility.yul\":3952:3972   */\n  tag_150\n    /* \"#utility.yul\":3970:3971   */\n  dup4\n    /* \"#utility.yul\":3952:3972   */\n  tag_131\n  jump\t// in\ntag_150:\n    /* \"#utility.yul\":3947:3972   */\n  swap3\n  pop\n    /* \"#utility.yul\":4106:4107   */\n  dup3\n    /* \"#utility.yul\":4038:4104   */\n  0xffffffffffffffffffffffffffffffffffffffffffffffffffffffffffffffff\n    /* \"#utility.yul\":4034:4108   */\n  sub\n    /* \"#utility.yul\":4031:4032   */\n  dup3\n    /* \"#utility.yul\":4028:4109   */\n  gt\n    /* \"#utility.yul\":4025:4027   */\n  iszero\n  tag_151\n  jumpi\n    /* \"#utility.yul\":4112:4130   */\n  tag_152\n  tag_153\n  jump\t// in\ntag_152:\n    /* \"#utility.yul\":4025:4027   */\ntag_151:\n    /* \"#utility.yul\":4156:4157   */\n  dup3\n    /* \"#utility.yul\":4153:4154   */\n  dup3\n    /* \"#utility.yul\":4149:4158   */\n  add\n    /* \"#utility.yul\":4142:4158   */\n  swap1\n  pop\n    /* \"#utility.yul\":3903:4164   */\n  swap3\n  swap2\n  pop\n  pop\n  jump\t// out\n    /* \"#utility.yul\":4170:5018   */\ntag_154:\n    /* \"#utility.yul\":4231:4236   */\n  0x00\n    /* \"#utility.yul\":4238:4242   */\n  dup1\n    /* \"#utility.yul\":4262:4268   */\n  dup3\n    /* \"#utility.yul\":4253:4268   */\n  swap2\n  pop\n    /* \"#utility.yul\":4286:4291   */\n  dup4\n    /* \"#utility.yul\":4277:4291   */\n  swap1\n  pop\n    /* \"#utility.yul\":4300:5012   */\ntag_156:\n    /* \"#utility.yul\":4321:4322   */\n  0x01\n    /* \"#utility.yul\":4311:4319   */\n  dup6\n    /* \"#utility.yul\":4308:4323   */\n  gt\n    /* \"#utility.yul\":4300:5012   */\n  iszero\n  tag_158\n  jumpi\n    /* \"#utility.yul\":4416:4420   */\n  dup1\n    /* \"#utility.yul\":4411:4414   */\n  dup7\n    /* \"#utility.yul\":4407:4421   */\n  div\n    /* \"#utility.yul\":4401:4405   */\n  dup2\n    /* \"#utility.yul\":4398:4422   */\n  gt\n    /* \"#utility.yul\":4395:4397   */\n  iszero\n  tag_159\n  jumpi\n    /* \"#utility.yul\":4425:4443   */\n  tag_160\n  tag_153\n  jump\t// in\ntag_160:\n    /* \"#utility.yul\":4395:4397   */\ntag_159:\n    /* \"#utility.yul\":4475:4476   */\n  0x01\n    /* \"#utility.yul\":4465:4473   */\n  dup6\n    /* \"#utility.yul\":4461:4477   */\n  and\n    /* \"#utility.yul\":4458:4460   */\n  iszero\n  tag_161\n  jumpi\n    /* \"#utility.yul\":4890:4894   */\n  dup1\n    /* \"#utility.yul\":4883:4888   */\n  dup3\n    /* \"#utility.yul\":4879:4895   */\n  mul\n    /* \"#utility.yul\":4870:4895   */\n  swap2\n  pop\n    /* \"#utility.yul\":4458:4460   */\ntag_161:\n    /* \"#utility.yul\":4940:4944   */\n  dup1\n    /* \"#utility.yul\":4934:4938   */\n  dup2\n    /* \"#utility.yul\":4930:4945   */\n  mul\n    /* \"#utility.yul\":4922:4945   */\n  swap1\n  pop\n    /* \"#utility.yul\":4970:5002   */\n  tag_162\n    /* \"#utility.yul\":4993:5001   */\n  dup6\n    /* \"#utility.yul\":4970:5002   */\n  tag_163\n  jump\t// in\ntag_162:\n    /* \"#utility.yul\":4958:5002   */\n  swap5\n  pop\n    /* \"#utility.yul\":4300:5012   */\n  jump(tag_156)\ntag_158:\n    /* \"#utility.yul\":4243:5018   */\n  swap5\n  pop\n  swap5\n  swap3\n  pop\n  pop\n  pop\n  jump\t// out\n    /* \"#utility.yul\":5024:5309   */\ntag_31:\n    /* \"#utility.yul\":5084:5089   */\n  0x00\n    /* \"#utility.yul\":5108:5131   */\n  tag_165\n    /* \"#utility.yul\":5126:5130   */\n  dup3\n    /* \"#utility.yul\":5108:5131   */\n  tag_131\n  jump\t// in\ntag_165:\n    /* \"#utility.yul\":5100:5131   */\n  swap2\n  pop\n    /* \"#utility.yul\":5152:5179   */\n  tag_166\n    /* \"#utility.yul\":5170:5178   */\n  dup4\n    /* \"#utility.yul\":5152:5179   */\n  tag_131\n  jump\t// in\ntag_166:\n    /* \"#utility.yul\":5140:5179   */\n  swap3\n  pop\n    /* \"#utility.yul\":5198:5302   */\n  tag_167\n    /* \"#utility.yul\":5235:5301   */\n  0xffffffffffffffffffffffffffffffffffffffffffffffffffffffffffffffff\n    /* \"#utility.yul\":5225:5233   */\n  dup5\n    /* \"#utility.yul\":5219:5223   */\n  dup5\n    /* \"#utility.yul\":5198:5302   */\n  tag_168\n  jump\t// in\ntag_167:\n    /* \"#utility.yul\":5189:5302   */\n  swap1\n  pop\n    /* \"#utility.yul\":5090:5309   */\n  swap3\n  swap2\n  pop\n  pop\n  jump\t// out\n    /* \"#utility.yul\":5315:6388   */\ntag_168:\n    /* \"#utility.yul\":5369:5374   */\n  0x00\n    /* \"#utility.yul\":5560:5568   */\n  dup3\n    /* \"#utility.yul\":5550:5552   */\n  tag_170\n  jumpi\n    /* \"#utility.yul\":5581:5582   */\n  0x01\n    /* \"#utility.yul\":5572:5582   */\n  swap1\n  pop\n    /* \"#utility.yul\":5583:5588   */\n  jump(tag_169)\n    /* \"#utility.yul\":5550:5552   */\ntag_170:\n    /* \"#utility.yul\":5609:5613   */\n  dup2\n    /* \"#utility.yul\":5599:5601   */\n  tag_171\n  jumpi\n    /* \"#utility.yul\":5626:5627   */\n  0x00\n    /* \"#utility.yul\":5617:5627   */\n  swap1\n  pop\n    /* \"#utility.yul\":5628:5633   */\n  jump(tag_169)\n    /* \"#utility.yul\":5599:5601   */\ntag_171:\n    /* \"#utility.yul\":5695:5699   */\n  dup2\n    /* \"#utility.yul\":5743:5744   */\n  0x01\n    /* \"#utility.yul\":5738:5765   */\n  dup2\n  eq\n  tag_173\n  jumpi\n    /* \"#utility.yul\":5779:5780   */\n  0x02\n    /* \"#utility.yul\":5774:5965   */\n  dup2\n  eq\n  tag_174\n  jumpi\n    /* \"#utility.yul\":5688:5965   */\n  jump(tag_172)\n    /* \"#utility.yul\":5738:5765   */\ntag_173:\n    /* \"#utility.yul\":5756:5757   */\n  0x01\n    /* \"#utility.yul\":5747:5757   */\n  swap2\n  pop\n    /* \"#utility.yul\":5758:5763   */\n  pop\n  jump(tag_169)\n    /* \"#utility.yul\":5774:5965   */\ntag_174:\n    /* \"#utility.yul\":5819:5822   */\n  0xff\n    /* \"#utility.yul\":5809:5817   */\n  dup5\n    /* \"#utility.yul\":5806:5823   */\n  gt\n    /* \"#utility.yul\":5803:5805   */\n  iszero\n  tag_175\n  jumpi\n    /* \"#utility.yul\":5826:5844   */\n  tag_176\n  tag_153\n  jump\t// in\ntag_176:\n    /* \"#utility.yul\":5803:5805   */\ntag_175:\n    /* \"#utility.yul\":5875:5883   */\n  dup4\n    /* \"#utility.yul\":5872:5873   */\n  0x02\n    /* \"#utility.yul\":5868:5884   */\n  exp\n    /* \"#utility.yul\":5859:5884   */\n  swap2\n  pop\n    /* \"#utility.yul\":5910:5913   */\n  dup5\n    /* \"#utility.yul\":5903:5908   */\n  dup3\n    /* \"#utility.yul\":5900:5914   */\n  gt\n    /* \"#utility.yul\":5897:5899   */\n  iszero\n  tag_177\n  jumpi\n    /* \"#utility.yul\":5917:5935   */\n  tag_178\n  tag_153\n  jump\t// in\ntag_178:\n    /* \"#utility.yul\":5897:5899   */\ntag_177:\n    /* \"#utility.yul\":5950:5955   */\n  pop\n  jump(tag_169)\n    /* \"#utility.yul\":5688:5965   */\ntag_172:\n  pop\n    /* \"#utility.yul\":6074:6076   */\n  0x20\n    /* \"#utility.yul\":6064:6072   */\n  dup4\n    /* \"#utility.yul\":6061:6077   */\n  lt\n    /* \"#utility.yul\":6055:6058   */\n  0x0133\n    /* \"#utility.yul\":6049:6053   */\n  dup4\n    /* \"#utility.yul\":6046:6059   */\n  lt\n    /* \"#utility.yul\":6042:6078   */\n  and\n    /* \"#utility.yul\":6024:6026   */\n  0x4e\n    /* \"#utility.yul\":6014:6022   */\n  dup5\n    /* \"#utility.yul\":6011:6027   */\n  lt\n    /* \"#utility.yul\":6006:6008   */\n  0x0b\n    /* \"#utility.yul\":6000:6004   */\n  dup5\n    /* \"#utility.yul\":5997:6009   */\n  lt\n    /* \"#utility.yul\":5993:6028   */\n  and\n    /* \"#utility.yul\":5977:6088   */\n  or\n    /* \"#utility.yul\":5974:5976   */\n  iszero\n  tag_179\n  jumpi\n    /* \"#utility.yul\":6130:6138   */\n  dup3\n    /* \"#utility.yul\":6124:6128   */\n  dup3\n    /* \"#utility.yul\":6120:6139   */\n  exp\n    /* \"#utility.yul\":6111:6139   */\n  swap1\n  pop\n    /* \"#utility.yul\":6165:6168   */\n  dup4\n    /* \"#utility.yul\":6158:6163   */\n  dup2\n    /* \"#utility.yul\":6155:6169   */\n  gt\n    /* \"#utility.yul\":6152:6154   */\n  iszero\n  tag_180\n  jumpi\n    /* \"#utility.yul\":6172:6190   */\n  tag_181\n  tag_153\n  jump\t// in\ntag_181:\n    /* \"#utility.yul\":6152:6154   */\ntag_180:\n    /* \"#utility.yul\":6205:6210   */\n  jump(tag_169)\n    /* \"#utility.yul\":5974:5976   */\ntag_179:\n    /* \"#utility.yul\":6245:6287   */\n  tag_182\n    /* \"#utility.yul\":6283:6286   */\n  dup5\n    /* \"#utility.yul\":6273:6281   */\n  dup5\n    /* \"#utility.yul\":6267:6271   */\n  dup5\n    /* \"#utility.yul\":6264:6265   */\n  0x01\n    /* \"#utility.yul\":6245:6287   */\n  tag_154\n  jump\t// in\ntag_182:\n    /* \"#utility.yul\":6230:6287   */\n  swap3\n  pop\n  swap1\n  pop\n    /* \"#utility.yul\":6319:6323   */\n  dup2\n    /* \"#utility.yul\":6314:6317   */\n  dup5\n    /* \"#utility.yul\":6310:6324   */\n  div\n    /* \"#utility.yul\":6303:6308   */\n  dup2\n    /* \"#utility.yul\":6300:6325   */\n  gt\n    /* \"#utility.yul\":6297:6299   */\n  iszero\n  tag_183\n  jumpi\n    /* \"#utility.yul\":6328:6346   */\n  tag_184\n  tag_153\n  jump\t// in\ntag_184:\n    /* \"#utility.yul\":6297:6299   */\ntag_183:\n    /* \"#utility.yul\":6377:6381   */\n  dup2\n    /* \"#utility.yul\":6370:6375   */\n  dup2\n    /* \"#utility.yul\":6366:6382   */\n  mul\n    /* \"#utility.yul\":6357:6382   */\n  swap1\n  pop\n    /* \"#utility.yul\":5375:6388   */\ntag_169:\n  swap4\n  swap3\n  pop\n  pop\n  pop\n  jump\t// out\n    /* \"#utility.yul\":6394:6742   */\ntag_33:\n    /* \"#utility.yul\":6434:6441   */\n  0x00\n    /* \"#utility.yul\":6457:6477   */\n  tag_186\n    /* \"#utility.yul\":6475:6476   */\n  dup3\n    /* \"#utility.yul\":6457:6477   */\n  tag_131\n  jump\t// in\ntag_186:\n    /* \"#utility.yul\":6452:6477   */\n  swap2\n  pop\n    /* \"#utility.yul\":6491:6511   */\n  tag_187\n    /* \"#utility.yul\":6509:6510   */\n  dup4\n    /* \"#utility.yul\":6491:6511   */\n  tag_131\n  jump\t// in\ntag_187:\n    /* \"#utility.yul\":6486:6511   */\n  swap3\n  pop\n    /* \"#utility.yul\":6679:6680   */\n  dup2\n    /* \"#utility.yul\":6611:6677   */\n  0xffffffffffffffffffffffffffffffffffffffffffffffffffffffffffffffff\n    /* \"#utility.yul\":6607:6681   */\n  div\n    /* \"#utility.yul\":6604:6605   */\n  dup4\n    /* \"#utility.yul\":6601:6682   */\n  gt\n    /* \"#utility.yul\":6596:6597   */\n  dup3\n    /* \"#utility.yul\":6589:6598   */\n  iszero\n    /* \"#utility.yul\":6582:6599   */\n  iszero\n    /* \"#utility.yul\":6578:6683   */\n  and\n    /* \"#utility.yul\":6575:6577   */\n  iszero\n  tag_188\n  jumpi\n    /* \"#utility.yul\":6686:6704   */\n  tag_189\n  tag_153\n  jump\t// in\ntag_189:\n    /* \"#utility.yul\":6575:6577   */\ntag_188:\n    /* \"#utility.yul\":6734:6735   */\n  dup3\n    /* \"#utility.yul\":6731:6732   */\n  dup3\n    /* \"#utility.yul\":6727:6736   */\n  mul\n    /* \"#utility.yul\":6716:6736   */\n  swap1\n  pop\n    /* \"#utility.yul\":6442:6742   */\n  swap3\n  swap2\n  pop\n  pop\n  jump\t// out\n    /* \"#utility.yul\":6748:6852   */\ntag_190:\n    /* \"#utility.yul\":6793:6800   */\n  0x00\n    /* \"#utility.yul\":6822:6846   */\n  tag_192\n    /* \"#utility.yul\":6840:6845   */\n  dup3\n    /* \"#utility.yul\":6822:6846   */\n  tag_193\n  jump\t// in\ntag_192:\n    /* \"#utility.yul\":6811:6846   */\n  swap1\n  pop\n    /* \"#utility.yul\":6801:6852   */\n  swap2\n  swap1\n  pop\n  jump\t// out\n    /* \"#utility.yul\":6858:6984   */\ntag_193:\n    /* \"#utility.yul\":6895:6902   */\n  0x00\n    /* \"#utility.yul\":6935:6977   */\n  0xffffffffffffffffffffffffffffffffffffffff\n    /* \"#utility.yul\":6928:6933   */\n  dup3\n    /* \"#utility.yul\":6924:6978   */\n  and\n    /* \"#utility.yul\":6913:6978   */\n  swap1\n  pop\n    /* \"#utility.yul\":6903:6984   */\n  swap2\n  swap1\n  pop\n  jump\t// out\n    /* \"#utility.yul\":6990:7067   */\ntag_131:\n    /* \"#utility.yul\":7027:7034   */\n  0x00\n    /* \"#utility.yul\":7056:7061   */\n  dup2\n    /* \"#utility.yul\":7045:7061   */\n  swap1\n  pop\n    /* \"#utility.yul\":7035:7067   */\n  swap2\n  swap1\n  pop\n  jump\t// out\n    /* \"#utility.yul\":7073:7380   */\ntag_99:\n    /* \"#utility.yul\":7141:7142   */\n  0x00\n    /* \"#utility.yul\":7151:7264   */\ntag_197:\n    /* \"#utility.yul\":7165:7171   */\n  dup4\n    /* \"#utility.yul\":7162:7163   */\n  dup2\n    /* \"#utility.yul\":7159:7172   */\n  lt\n    /* \"#utility.yul\":7151:7264   */\n  iszero\n  tag_199\n  jumpi\n    /* \"#utility.yul\":7250:7251   */\n  dup1\n    /* \"#utility.yul\":7245:7248   */\n  dup3\n    /* \"#utility.yul\":7241:7252   */\n  add\n    /* \"#utility.yul\":7235:7253   */\n  mload\n    /* \"#utility.yul\":7231:7232   */\n  dup2\n    /* \"#utility.yul\":7226:7229   */\n  dup5\n    /* \"#utility.yul\":7222:7233   */\n  add\n    /* \"#utility.yul\":7215:7254   */\n  mstore\n    /* \"#utility.yul\":7187:7189   */\n  0x20\n    /* \"#utility.yul\":7184:7185   */\n  dup2\n    /* \"#utility.yul\":7180:7190   */\n  add\n    /* \"#utility.yul\":7175:7190   */\n  swap1\n  pop\n    /* \"#utility.yul\":7151:7264   */\n  jump(tag_197)\ntag_199:\n    /* \"#utility.yul\":7282:7288   */\n  dup4\n    /* \"#utility.yul\":7279:7280   */\n  dup2\n    /* \"#utility.yul\":7276:7289   */\n  gt\n    /* \"#utility.yul\":7273:7275   */\n  iszero\n  tag_200\n  jumpi\n    /* \"#utility.yul\":7362:7363   */\n  0x00\n    /* \"#utility.yul\":7353:7359   */\n  dup5\n    /* \"#utility.yul\":7348:7351   */\n  dup5\n    /* \"#utility.yul\":7344:7360   */\n  add\n    /* \"#utility.yul\":7337:7364   */\n  mstore\n    /* \"#utility.yul\":7273:7275   */\ntag_200:\n    /* \"#utility.yul\":7122:7380   */\n  pop\n  pop\n  pop\n  pop\n  jump\t// out\n    /* \"#utility.yul\":7386:7706   */\ntag_79:\n    /* \"#utility.yul\":7430:7436   */\n  0x00\n    /* \"#utility.yul\":7467:7468   */\n  0x02\n    /* \"#utility.yul\":7461:7465   */\n  dup3\n    /* \"#utility.yul\":7457:7469   */\n  div\n    /* \"#utility.yul\":7447:7469   */\n  swap1\n  pop\n    /* \"#utility.yul\":7514:7515   */\n  0x01\n    /* \"#utility.yul\":7508:7512   */\n  dup3\n    /* \"#utility.yul\":7504:7516   */\n  and\n    /* \"#utility.yul\":7535:7553   */\n  dup1\n    /* \"#utility.yul\":7525:7527   */\n  tag_202\n  jumpi\n    /* \"#utility.yul\":7591:7595   */\n  0x7f\n    /* \"#utility.yul\":7583:7589   */\n  dup3\n    /* \"#utility.yul\":7579:7596   */\n  and\n    /* \"#utility.yul\":7569:7596   */\n  swap2\n  pop\n    /* \"#utility.yul\":7525:7527   */\ntag_202:\n    /* \"#utility.yul\":7653:7655   */\n  0x20\n    /* \"#utility.yul\":7645:7651   */\n  dup3\n    /* \"#utility.yul\":7642:7656   */\n  lt\n    /* \"#utility.yul\":7622:7640   */\n  dup2\n    /* \"#utility.yul\":7619:7657   */\n  eq\n    /* \"#utility.yul\":7616:7618   */\n  iszero\n  tag_203\n  jumpi\n    /* \"#utility.yul\":7672:7690   */\n  tag_204\n  tag_205\n  jump\t// in\ntag_204:\n    /* \"#utility.yul\":7616:7618   */\ntag_203:\n    /* \"#utility.yul\":7437:7706   */\n  pop\n  swap2\n  swap1\n  pop\n  jump\t// out\n    /* \"#utility.yul\":7712:7993   */\ntag_140:\n    /* \"#utility.yul\":7795:7822   */\n  tag_207\n    /* \"#utility.yul\":7817:7821   */\n  dup3\n    /* \"#utility.yul\":7795:7822   */\n  tag_146\n  jump\t// in\ntag_207:\n    /* \"#utility.yul\":7787:7793   */\n  dup2\n    /* \"#utility.yul\":7783:7823   */\n  add\n    /* \"#utility.yul\":7925:7931   */\n  dup2\n    /* \"#utility.yul\":7913:7923   */\n  dup2\n    /* \"#utility.yul\":7910:7932   */\n  lt\n    /* \"#utility.yul\":7889:7907   */\n  0xffffffffffffffff\n    /* \"#utility.yul\":7877:7887   */\n  dup3\n    /* \"#utility.yul\":7874:7908   */\n  gt\n    /* \"#utility.yul\":7871:7933   */\n  or\n    /* \"#utility.yul\":7868:7870   */\n  iszero\n  tag_208\n  jumpi\n    /* \"#utility.yul\":7936:7954   */\n  tag_209\n  tag_3\n  jump\t// in\ntag_209:\n    /* \"#utility.yul\":7868:7870   */\ntag_208:\n    /* \"#utility.yul\":7976:7986   */\n  dup1\n    /* \"#utility.yul\":7972:7974   */\n  0x40\n    /* \"#utility.yul\":7965:7987   */\n  mstore\n    /* \"#utility.yul\":7755:7993   */\n  pop\n  pop\n  pop\n  jump\t// out\n    /* \"#utility.yul\":7999:8179   */\ntag_153:\n    /* \"#utility.yul\":8047:8124   */\n  0x4e487b7100000000000000000000000000000000000000000000000000000000\n    /* \"#utility.yul\":8044:8045   */\n  0x00\n    /* \"#utility.yul\":8037:8125   */\n  mstore\n    /* \"#utility.yul\":8144:8148   */\n  0x11\n    /* \"#utility.yul\":8141:8142   */\n  0x04\n    /* \"#utility.yul\":8134:8149   */\n  mstore\n    /* \"#utility.yul\":8168:8172   */\n  0x24\n    /* \"#utility.yul\":8165:8166   */\n  0x00\n    /* \"#utility.yul\":8158:8173   */\n  revert\n    /* \"#utility.yul\":8185:8365   */\ntag_205:\n    /* \"#utility.yul\":8233:8310   */\n  0x4e487b7100000000000000000000000000000000000000000000000000000000\n    /* \"#utility.yul\":8230:8231   */\n  0x00\n    /* \"#utility.yul\":8223:8311   */\n  mstore\n    /* \"#utility.yul\":8330:8334   */\n  0x22\n    /* \"#utility.yul\":8327:8328   */\n  0x04\n    /* \"#utility.yul\":8320:8335   */\n  mstore\n    /* \"#utility.yul\":8354:8358   */\n  0x24\n    /* \"#utility.yul\":8351:8352   */\n  0x00\n    /* \"#utility.yul\":8344:8359   */\n  revert\n    /* \"#utility.yul\":8371:8551   */\ntag_39:\n    /* \"#utility.yul\":8419:8496   */\n  0x4e487b7100000000000000000000000000000000000000000000000000000000\n    /* \"#utility.yul\":8416:8417   */\n  0x00\n    /* \"#utility.yul\":8409:8497   */\n  mstore\n    /* \"#utility.yul\":8516:8520   */\n  0x32\n    /* \"#utility.yul\":8513:8514   */\n  0x04\n    /* \"#utility.yul\":8506:8521   */\n  mstore\n    /* \"#utility.yul\":8540:8544   */\n  0x24\n    /* \"#utility.yul\":8537:8538   */\n  0x00\n    /* \"#utility.yul\":8530:8545   */\n  revert\n    /* \"#utility.yul\":8557:8737   */\ntag_3:\n    /* \"#utility.yul\":8605:8682   */\n  0x4e487b7100000000000000000000000000000000000000000000000000000000\n    /* \"#utility.yul\":8602:8603   */\n  0x00\n    /* \"#utility.yul\":8595:8683   */\n  mstore\n    /* \"#utility.yul\":8702:8706   */\n  0x41\n    /* \"#utility.yul\":8699:8700   */\n  0x04\n    /* \"#utility.yul\":8692:8707   */\n  mstore\n    /* \"#utility.yul\":8726:8730   */\n  0x24\n    /* \"#utility.yul\":8723:8724   */\n  0x00\n    /* \"#utility.yul\":8716:8731   */\n  revert\n    /* \"#utility.yul\":8743:8860   */\ntag_108:\n    /* \"#utility.yul\":8852:8853   */\n  0x00\n    /* \"#utility.yul\":8849:8850   */\n  dup1\n    /* \"#utility.yul\":8842:8854   */\n  revert\n    /* \"#utility.yul\":8866:8983   */\ntag_97:\n    /* \"#utility.yul\":8975:8976   */\n  0x00\n    /* \"#utility.yul\":8972:8973   */\n  dup1\n    /* \"#utility.yul\":8965:8977   */\n  revert\n    /* \"#utility.yul\":8989:9106   */\ntag_116:\n    /* \"#utility.yul\":9098:9099   */\n  0x00\n    /* \"#utility.yul\":9095:9096   */\n  dup1\n    /* \"#utility.yul\":9088:9100   */\n  revert\n    /* \"#utility.yul\":9112:9229   */\ntag_113:\n    /* \"#utility.yul\":9221:9222   */\n  0x00\n    /* \"#utility.yul\":9218:9219   */\n  dup1\n    /* \"#utility.yul\":9211:9223   */\n  revert\n    /* \"#utility.yul\":9235:9337   */\ntag_146:\n    /* \"#utility.yul\":9276:9282   */\n  0x00\n    /* \"#utility.yul\":9327:9329   */\n  0x1f\n    /* \"#utility.yul\":9323:9330   */\n  not\n    /* \"#utility.yul\":9318:9320   */\n  0x1f\n    /* \"#utility.yul\":9311:9316   */\n  dup4\n    /* \"#utility.yul\":9307:9321   */\n  add\n    /* \"#utility.yul\":9303:9331   */\n  and\n    /* \"#utility.yul\":9293:9331   */\n  swap1\n  pop\n    /* \"#utility.yul\":9283:9337   */\n  swap2\n  swap1\n  pop\n  jump\t// out\n    /* \"#utility.yul\":9343:9445   */\ntag_163:\n    /* \"#utility.yul\":9385:9393   */\n  0x00\n    /* \"#utility.yul\":9432:9437   */\n  dup2\n    /* \"#utility.yul\":9429:9430   */\n  0x01\n    /* \"#utility.yul\":9425:9438   */\n  shr\n    /* \"#utility.yul\":9404:9438   */\n  swap1\n  pop\n    /* \"#utility.yul\":9394:9445   */\n  swap2\n  swap1\n  pop\n  jump\t// out\n    /* \"#utility.yul\":9451:9632   */\ntag_127:\n    /* \"#utility.yul\":9591:9624   */\n  0x45524332303a206d696e7420746f20746865207a65726f206164647265737300\n    /* \"#utility.yul\":9587:9588   */\n  0x00\n    /* \"#utility.yul\":9579:9585   */\n  dup3\n    /* \"#utility.yul\":9575:9589   */\n  add\n    /* \"#utility.yul\":9568:9625   */\n  mstore\n    /* \"#utility.yul\":9557:9632   */\n  pop\n  jump\t// out\n    /* \"#utility.yul\":9638:9776   */\ntag_103:\n    /* \"#utility.yul\":9719:9751   */\n  tag_222\n    /* \"#utility.yul\":9745:9750   */\n  dup2\n    /* \"#utility.yul\":9719:9751   */\n  tag_190\n  jump\t// in\ntag_222:\n    /* \"#utility.yul\":9712:9717   */\n  dup2\n    /* \"#utility.yul\":9709:9752   */\n  eq\n    /* \"#utility.yul\":9699:9701   */\n  tag_223\n  jumpi\n    /* \"#utility.yul\":9766:9767   */\n  0x00\n    /* \"#utility.yul\":9763:9764   */\n  dup1\n    /* \"#utility.yul\":9756:9768   */\n  revert\n    /* \"#utility.yul\":9699:9701   */\ntag_223:\n    /* \"#utility.yul\":9689:9776   */\n  pop\n  jump\t// out\n    /* \"contracts/Distribution/AtlantisDistribution.sol\":206:3509  contract AtlantisDistribution is ERC20, Ownable {... */\ntag_57:\n  dataSize(sub_0)\n  dup1\n  dataOffset(sub_0)\n  0x00\n  codecopy\n  0x00\n  return\nstop\n\nsub_0: assembly {\n        /* \"contracts/Distribution/AtlantisDistribution.sol\":206:3509  contract AtlantisDistribution is ERC20, Ownable {... */\n      mstore(0x40, 0x80)\n      callvalue\n      dup1\n      iszero\n      tag_1\n      jumpi\n      0x00\n      dup1\n      revert\n    tag_1:\n      pop\n      jumpi(tag_2, lt(calldatasize, 0x04))\n      shr(0xe0, calldataload(0x00))\n      dup1\n      0x70a08231\n      gt\n      tag_24\n      jumpi\n      dup1\n      0xa0712d68\n      gt\n      tag_25\n      jumpi\n      dup1\n      0xa0712d68\n      eq\n      tag_18\n      jumpi\n      dup1\n      0xa33e7d7e\n      eq\n      tag_19\n      jumpi\n      dup1\n      0xa457c2d7\n      eq\n      tag_20\n      jumpi\n      dup1\n      0xa9059cbb\n      eq\n      tag_21\n      jumpi\n      dup1\n      0xdd62ed3e\n      eq\n      tag_22\n      jumpi\n      dup1\n      0xf2fde38b\n      eq\n      tag_23\n      jumpi\n      jump(tag_2)\n    tag_25:\n      dup1\n      0x70a08231\n      eq\n      tag_13\n      jumpi\n      dup1\n      0x715018a6\n      eq\n      tag_14\n      jumpi\n      dup1\n      0x7a0d944c\n      eq\n      tag_15\n      jumpi\n      dup1\n      0x8da5cb5b\n      eq\n      tag_16\n      jumpi\n      dup1\n      0x95d89b41\n      eq\n      tag_17\n      jumpi\n      jump(tag_2)\n    tag_24:\n      dup1\n      0x18160ddd\n      gt\n      tag_26\n      jumpi\n      dup1\n      0x18160ddd\n      eq\n      tag_8\n      jumpi\n      dup1\n      0x23b872dd\n      eq\n      tag_9\n      jumpi\n      dup1\n      0x313ce567\n      eq\n      tag_10\n      jumpi\n      dup1\n      0x39509351\n      eq\n      tag_11\n      jumpi\n      dup1\n      0x69313678\n      eq\n      tag_12\n      jumpi\n      jump(tag_2)\n    tag_26:\n      dup1\n      0x06fdde03\n      eq\n      tag_3\n      jumpi\n      dup1\n      0x095ea7b3\n      eq\n      tag_4\n      jumpi\n      dup1\n      0x0a61877e\n      eq\n      tag_5\n      jumpi\n      dup1\n      0x13b954a3\n      eq\n      tag_6\n      jumpi\n      dup1\n      0x1506f480\n      eq\n      tag_7\n      jumpi\n    tag_2:\n      0x00\n      dup1\n      revert\n        /* \"contracts/Distribution/WrappedERC20Token.sol\":2057:2146  function name() public view virtual returns (string memory) {... */\n    tag_3:\n      tag_27\n      tag_28\n      jump\t// in\n    tag_27:\n      mload(0x40)\n      tag_29\n      swap2\n      swap1\n      tag_30\n      jump\t// in\n    tag_29:\n      mload(0x40)\n      dup1\n      swap2\n      sub\n      swap1\n      return\n        /* \"contracts/Distribution/WrappedERC20Token.sol\":4127:4293  function approve(address spender, uint256 amount) public virtual override returns (bool) {... */\n    tag_4:\n      tag_31\n      0x04\n      dup1\n      calldatasize\n      sub\n      dup2\n      add\n      swap1\n      tag_32\n      swap2\n      swap1\n      tag_33\n      jump\t// in\n    tag_32:\n      tag_34\n      jump\t// in\n    tag_31:\n      mload(0x40)\n      tag_35\n      swap2\n      swap1\n      tag_36\n      jump\t// in\n    tag_35:\n      mload(0x40)\n      dup1\n      swap2\n      sub\n      swap1\n      return\n        /* \"contracts/Distribution/AtlantisDistribution.sol\":1146:1374  function relaxBalance(address account) public {... */\n    tag_5:\n      tag_37\n      0x04\n      dup1\n      calldatasize\n      sub\n      dup2\n      add\n      swap1\n      tag_38\n      swap2\n      swap1\n      tag_39\n      jump\t// in\n    tag_38:\n      tag_40\n      jump\t// in\n    tag_37:\n      stop\n        /* \"contracts/Distribution/AtlantisDistribution.sol\":2963:3354  function mintToRS(address account, uint256 amount) external onlyOwner {... */\n    tag_6:\n      tag_41\n      0x04\n      dup1\n      calldatasize\n      sub\n      dup2\n      add\n      swap1\n      tag_42\n      swap2\n      swap1\n      tag_33\n      jump\t// in\n    tag_42:\n      tag_43\n      jump\t// in\n    tag_41:\n      stop\n        /* \"contracts/Distribution/AtlantisDistribution.sol\":2477:2957  function mintToNRS(address account, uint256 amount) external onlyOwner {... */\n    tag_7:\n      tag_44\n      0x04\n      dup1\n      calldatasize\n      sub\n      dup2\n      add\n      swap1\n      tag_45\n      swap2\n      swap1\n      tag_33\n      jump\t// in\n    tag_45:\n      tag_46\n      jump\t// in\n    tag_44:\n      stop\n        /* \"contracts/Distribution/WrappedERC20Token.sol\":3118:3224  function totalSupply() public view virtual override returns (uint256) {... */\n    tag_8:\n      tag_47\n      tag_48\n      jump\t// in\n    tag_47:\n      mload(0x40)\n      tag_49\n      swap2\n      swap1\n      tag_50\n      jump\t// in\n    tag_49:\n      mload(0x40)\n      dup1\n      swap2\n      sub\n      swap1\n      return\n        /* \"contracts/Distribution/AtlantisDistribution.sol\":3360:3507  function transferFrom(address sender, address recipient, uint256 amount) public override returns (bool) {... */\n    tag_9:\n      tag_51\n      0x04\n      dup1\n      calldatasize\n      sub\n      dup2\n      add\n      swap1\n      tag_52\n      swap2\n      swap1\n      tag_53\n      jump\t// in\n    tag_52:\n      tag_54\n      jump\t// in\n    tag_51:\n      mload(0x40)\n      tag_55\n      swap2\n      swap1\n      tag_36\n      jump\t// in\n    tag_55:\n      mload(0x40)\n      dup1\n      swap2\n      sub\n      swap1\n      return\n        /* \"contracts/Distribution/WrappedERC20Token.sol\":2976:3058  function decimals() public view virtual returns (uint8) {... */\n    tag_10:\n      tag_56\n      tag_57\n      jump\t// in\n    tag_56:\n      mload(0x40)\n      tag_58\n      swap2\n      swap1\n      tag_59\n      jump\t// in\n    tag_58:\n      mload(0x40)\n      dup1\n      swap2\n      sub\n      swap1\n      return\n        /* \"contracts/Distribution/WrappedERC20Token.sol\":5569:5781  function increaseAllowance(address spender, uint256 addedValue) public virtual returns (bool) {... */\n    tag_11:\n      tag_60\n      0x04\n      dup1\n      calldatasize\n      sub\n      dup2\n      add\n      swap1\n      tag_61\n      swap2\n      swap1\n      tag_33\n      jump\t// in\n    tag_61:\n      tag_62\n      jump\t// in\n    tag_60:\n      mload(0x40)\n      tag_63\n      swap2\n      swap1\n      tag_36\n      jump\t// in\n    tag_63:\n      mload(0x40)\n      dup1\n      swap2\n      sub\n      swap1\n      return\n        /* \"contracts/Distribution/AtlantisDistribution.sol\":406:449  uint256[] public cury = new uint256[](size) */\n    tag_12:\n      tag_64\n      0x04\n      dup1\n      calldatasize\n      sub\n      dup2\n      add\n      swap1\n      tag_65\n      swap2\n      swap1\n      tag_66\n      jump\t// in\n    tag_65:\n      tag_67\n      jump\t// in\n    tag_64:\n      mload(0x40)\n      tag_68\n      swap2\n      swap1\n      tag_50\n      jump\t// in\n    tag_68:\n      mload(0x40)\n      dup1\n      swap2\n      sub\n      swap1\n      return\n        /* \"contracts/Distribution/AtlantisDistribution.sol\":919:1140  function balanceOf(address account) public view override returns (uint256) {... */\n    tag_13:\n      tag_69\n      0x04\n      dup1\n      calldatasize\n      sub\n      dup2\n      add\n      swap1\n      tag_70\n      swap2\n      swap1\n      tag_39\n      jump\t// in\n    tag_70:\n      tag_71\n      jump\t// in\n    tag_69:\n      mload(0x40)\n      tag_72\n      swap2\n      swap1\n      tag_50\n      jump\t// in\n    tag_72:\n      mload(0x40)\n      dup1\n      swap2\n      sub\n      swap1\n      return\n        /* \"@openzeppelin/contracts/access/Ownable.sol\":1605:1697  function renounceOwnership() public virtual onlyOwner {... */\n    tag_14:\n      tag_73\n      tag_74\n      jump\t// in\n    tag_73:\n      stop\n        /* \"contracts/Distribution/AtlantisDistribution.sol\":344:381  mapping (address => uint8) public lvl */\n    tag_15:\n      tag_75\n      0x04\n      dup1\n      calldatasize\n      sub\n      dup2\n      add\n      swap1\n      tag_76\n      swap2\n      swap1\n      tag_39\n      jump\t// in\n    tag_76:\n      tag_77\n      jump\t// in\n    tag_75:\n      mload(0x40)\n      tag_78\n      swap2\n      swap1\n      tag_59\n      jump\t// in\n    tag_78:\n      mload(0x40)\n      dup1\n      swap2\n      sub\n      swap1\n      return\n        /* \"@openzeppelin/contracts/access/Ownable.sol\":973:1058  function owner() public view virtual returns (address) {... */\n    tag_16:\n      tag_79\n      tag_80\n      jump\t// in\n    tag_79:\n      mload(0x40)\n      tag_81\n      swap2\n      swap1\n      tag_82\n      jump\t// in\n    tag_81:\n      mload(0x40)\n      dup1\n      swap2\n      sub\n      swap1\n      return\n        /* \"contracts/Distribution/WrappedERC20Token.sol\":2259:2352  function symbol() public view virtual returns (string memory) {... */\n    tag_17:\n      tag_83\n      tag_84\n      jump\t// in\n    tag_83:\n      mload(0x40)\n      tag_85\n      swap2\n      swap1\n      tag_30\n      jump\t// in\n    tag_85:\n      mload(0x40)\n      dup1\n      swap2\n      sub\n      swap1\n      return\n        /* \"contracts/Distribution/AtlantisDistribution.sol\":1380:1820  function mint(uint256 amount) external onlyOwner {... */\n    tag_18:\n      tag_86\n      0x04\n      dup1\n      calldatasize\n      sub\n      dup2\n      add\n      swap1\n      tag_87\n      swap2\n      swap1\n      tag_66\n      jump\t// in\n    tag_87:\n      tag_88\n      jump\t// in\n    tag_86:\n      stop\n        /* \"contracts/Distribution/AtlantisDistribution.sol\":2171:2471  function changeLvl(address account, uint8 newLvl) external onlyOwner {... */\n    tag_19:\n      tag_89\n      0x04\n      dup1\n      calldatasize\n      sub\n      dup2\n      add\n      swap1\n      tag_90\n      swap2\n      swap1\n      tag_91\n      jump\t// in\n    tag_90:\n      tag_92\n      jump\t// in\n    tag_89:\n      stop\n        /* \"contracts/Distribution/WrappedERC20Token.sol\":6268:6639  function decreaseAllowance(address spender, uint256 subtractedValue) public virtual returns (bool) {... */\n    tag_20:\n      tag_93\n      0x04\n      dup1\n      calldatasize\n      sub\n      dup2\n      add\n      swap1\n      tag_94\n      swap2\n      swap1\n      tag_33\n      jump\t// in\n    tag_94:\n      tag_95\n      jump\t// in\n    tag_93:\n      mload(0x40)\n      tag_96\n      swap2\n      swap1\n      tag_36\n      jump\t// in\n    tag_96:\n      mload(0x40)\n      dup1\n      swap2\n      sub\n      swap1\n      return\n        /* \"contracts/Distribution/AtlantisDistribution.sol\":1826:2165  function transfer(address recipient, uint256 amount) public override returns (bool) {... */\n    tag_21:\n      tag_97\n      0x04\n      dup1\n      calldatasize\n      sub\n      dup2\n      add\n      swap1\n      tag_98\n      swap2\n      swap1\n      tag_33\n      jump\t// in\n    tag_98:\n      tag_99\n      jump\t// in\n    tag_97:\n      mload(0x40)\n      tag_100\n      swap2\n      swap1\n      tag_36\n      jump\t// in\n    tag_100:\n      mload(0x40)\n      dup1\n      swap2\n      sub\n      swap1\n      return\n        /* \"contracts/Distribution/WrappedERC20Token.sol\":3840:3989  function allowance(address owner, address spender) public view virtual override returns (uint256) {... */\n    tag_22:\n      tag_101\n      0x04\n      dup1\n      calldatasize\n      sub\n      dup2\n      add\n      swap1\n      tag_102\n      swap2\n      swap1\n      tag_103\n      jump\t// in\n    tag_102:\n      tag_104\n      jump\t// in\n    tag_101:\n      mload(0x40)\n      tag_105\n      swap2\n      swap1\n      tag_50\n      jump\t// in\n    tag_105:\n      mload(0x40)\n      dup1\n      swap2\n      sub\n      swap1\n      return\n        /* \"@openzeppelin/contracts/access/Ownable.sol\":1846:2035  function transferOwnership(address newOwner) public virtual onlyOwner {... */\n    tag_23:\n      tag_106\n      0x04\n      dup1\n      calldatasize\n      sub\n      dup2\n      add\n      swap1\n      tag_107\n      swap2\n      swap1\n      tag_39\n      jump\t// in\n    tag_107:\n      tag_108\n      jump\t// in\n    tag_106:\n      stop\n        /* \"contracts/Distribution/WrappedERC20Token.sol\":2057:2146  function name() public view virtual returns (string memory) {... */\n    tag_28:\n        /* \"contracts/Distribution/WrappedERC20Token.sol\":2102:2115  string memory */\n      0x60\n        /* \"contracts/Distribution/WrappedERC20Token.sol\":2134:2139  _name */\n      0x03\n        /* \"contracts/Distribution/WrappedERC20Token.sol\":2127:2139  return _name */\n      dup1\n      sload\n      tag_110\n      swap1\n      tag_111\n      jump\t// in\n    tag_110:\n      dup1\n      0x1f\n      add\n      0x20\n      dup1\n      swap2\n      div\n      mul\n      0x20\n      add\n      mload(0x40)\n      swap1\n      dup2\n      add\n      0x40\n      mstore\n      dup1\n      swap3\n      swap2\n      swap1\n      dup2\n      dup2\n      mstore\n      0x20\n      add\n      dup3\n      dup1\n      sload\n      tag_112\n      swap1\n      tag_111\n      jump\t// in\n    tag_112:\n      dup1\n      iszero\n      tag_113\n      jumpi\n      dup1\n      0x1f\n      lt\n      tag_114\n      jumpi\n      0x0100\n      dup1\n      dup4\n      sload\n      div\n      mul\n      dup4\n      mstore\n      swap2\n      0x20\n      add\n      swap2\n      jump(tag_113)\n    tag_114:\n      dup3\n      add\n      swap2\n      swap1\n      0x00\n      mstore\n      keccak256(0x00, 0x20)\n      swap1\n    tag_115:\n      dup2\n      sload\n      dup2\n      mstore\n      swap1\n      0x01\n      add\n      swap1\n      0x20\n      add\n      dup1\n      dup4\n      gt\n      tag_115\n      jumpi\n      dup3\n      swap1\n      sub\n      0x1f\n      and\n      dup3\n      add\n      swap2\n    tag_113:\n      pop\n      pop\n      pop\n      pop\n      pop\n      swap1\n      pop\n        /* \"contracts/Distribution/WrappedERC20Token.sol\":2057:2146  function name() public view virtual returns (string memory) {... */\n      swap1\n      jump\t// out\n        /* \"contracts/Distribution/WrappedERC20Token.sol\":4127:4293  function approve(address spender, uint256 amount) public virtual override returns (bool) {... */\n    tag_34:\n        /* \"contracts/Distribution/WrappedERC20Token.sol\":4210:4214  bool */\n      0x00\n        /* \"contracts/Distribution/WrappedERC20Token.sol\":4226:4265  _approve(_msgSender(), spender, amount) */\n      tag_117\n        /* \"contracts/Distribution/WrappedERC20Token.sol\":4235:4247  _msgSender() */\n      tag_118\n        /* \"contracts/Distribution/WrappedERC20Token.sol\":4235:4245  _msgSender */\n      tag_119\n        /* \"contracts/Distribution/WrappedERC20Token.sol\":4235:4247  _msgSender() */\n      jump\t// in\n    tag_118:\n        /* \"contracts/Distribution/WrappedERC20Token.sol\":4249:4256  spender */\n      dup5\n        /* \"contracts/Distribution/WrappedERC20Token.sol\":4258:4264  amount */\n      dup5\n        /* \"contracts/Distribution/WrappedERC20Token.sol\":4226:4234  _approve */\n      tag_120\n        /* \"contracts/Distribution/WrappedERC20Token.sol\":4226:4265  _approve(_msgSender(), spender, amount) */\n      jump\t// in\n    tag_117:\n        /* \"contracts/Distribution/WrappedERC20Token.sol\":4282:4286  true */\n      0x01\n        /* \"contracts/Distribution/WrappedERC20Token.sol\":4275:4286  return true */\n      swap1\n      pop\n        /* \"contracts/Distribution/WrappedERC20Token.sol\":4127:4293  function approve(address spender, uint256 amount) public virtual override returns (bool) {... */\n      swap3\n      swap2\n      pop\n      pop\n      jump\t// out\n        /* \"contracts/Distribution/AtlantisDistribution.sol\":1146:1374  function relaxBalance(address account) public {... */\n    tag_40:\n        /* \"contracts/Distribution/AtlantisDistribution.sol\":1222:1223  0 */\n      0x00\n        /* \"contracts/Distribution/AtlantisDistribution.sol\":1206:1209  lvl */\n      0x07\n        /* \"contracts/Distribution/AtlantisDistribution.sol\":1206:1218  lvl[account] */\n      0x00\n        /* \"contracts/Distribution/AtlantisDistribution.sol\":1210:1217  account */\n      dup4\n        /* \"contracts/Distribution/AtlantisDistribution.sol\":1206:1218  lvl[account] */\n      0xffffffffffffffffffffffffffffffffffffffff\n      and\n      0xffffffffffffffffffffffffffffffffffffffff\n      and\n      dup2\n      mstore\n      0x20\n      add\n      swap1\n      dup2\n      mstore\n      0x20\n      add\n      0x00\n      keccak256\n      0x00\n      swap1\n      sload\n      swap1\n      0x0100\n      exp\n      swap1\n      div\n      0xff\n      and\n        /* \"contracts/Distribution/AtlantisDistribution.sol\":1206:1223  lvl[account] == 0 */\n      0xff\n      and\n      eq\n        /* \"contracts/Distribution/AtlantisDistribution.sol\":1202:1244  if (lvl[account] == 0)... */\n      iszero\n      tag_122\n      jumpi\n        /* \"contracts/Distribution/AtlantisDistribution.sol\":1237:1244  return; */\n      jump(tag_121)\n        /* \"contracts/Distribution/AtlantisDistribution.sol\":1202:1244  if (lvl[account] == 0)... */\n    tag_122:\n        /* \"contracts/Distribution/AtlantisDistribution.sol\":1316:1317  y */\n      0x06\n        /* \"contracts/Distribution/AtlantisDistribution.sol\":1316:1326  y[account] */\n      0x00\n        /* \"contracts/Distribution/AtlantisDistribution.sol\":1318:1325  account */\n      dup3\n        /* \"contracts/Distribution/AtlantisDistribution.sol\":1316:1326  y[account] */\n      0xffffffffffffffffffffffffffffffffffffffff\n      and\n      0xffffffffffffffffffffffffffffffffffffffff\n      and\n      dup2\n      mstore\n      0x20\n      add\n      swap1\n      dup2\n      mstore\n      0x20\n      add\n      0x00\n      keccak256\n      sload\n        /* \"contracts/Distribution/AtlantisDistribution.sol\":1295:1304  _balances */\n      0x00\n        /* \"contracts/Distribution/AtlantisDistribution.sol\":1295:1313  _balances[account] */\n      dup1\n        /* \"contracts/Distribution/AtlantisDistribution.sol\":1305:1312  account */\n      dup4\n        /* \"contracts/Distribution/AtlantisDistribution.sol\":1295:1313  _balances[account] */\n      0xffffffffffffffffffffffffffffffffffffffff\n      and\n      0xffffffffffffffffffffffffffffffffffffffff\n      and\n      dup2\n      mstore\n      0x20\n      add\n      swap1\n      dup2\n      mstore\n      0x20\n      add\n      0x00\n      keccak256\n      sload\n        /* \"contracts/Distribution/AtlantisDistribution.sol\":1274:1278  cury */\n      0x09\n        /* \"contracts/Distribution/AtlantisDistribution.sol\":1279:1282  lvl */\n      0x07\n        /* \"contracts/Distribution/AtlantisDistribution.sol\":1279:1291  lvl[account] */\n      0x00\n        /* \"contracts/Distribution/AtlantisDistribution.sol\":1283:1290  account */\n      dup6\n        /* \"contracts/Distribution/AtlantisDistribution.sol\":1279:1291  lvl[account] */\n      0xffffffffffffffffffffffffffffffffffffffff\n      and\n      0xffffffffffffffffffffffffffffffffffffffff\n      and\n      dup2\n      mstore\n      0x20\n      add\n      swap1\n      dup2\n      mstore\n      0x20\n      add\n      0x00\n      keccak256\n      0x00\n      swap1\n      sload\n      swap1\n      0x0100\n      exp\n      swap1\n      div\n      0xff\n      and\n        /* \"contracts/Distribution/AtlantisDistribution.sol\":1274:1292  cury[lvl[account]] */\n      0xff\n      and\n      dup2\n      sload\n      dup2\n      lt\n      tag_123\n      jumpi\n      tag_124\n      tag_125\n      jump\t// in\n    tag_124:\n    tag_123:\n      swap1\n      0x00\n      mstore\n      keccak256(0x00, 0x20)\n      add\n      sload\n        /* \"contracts/Distribution/AtlantisDistribution.sol\":1274:1313  cury[lvl[account]] * _balances[account] */\n      tag_127\n      swap2\n      swap1\n      tag_128\n      jump\t// in\n    tag_127:\n        /* \"contracts/Distribution/AtlantisDistribution.sol\":1274:1326  cury[lvl[account]] * _balances[account] / y[account] */\n      tag_129\n      swap2\n      swap1\n      tag_130\n      jump\t// in\n    tag_129:\n        /* \"contracts/Distribution/AtlantisDistribution.sol\":1253:1262  _balances */\n      0x00\n        /* \"contracts/Distribution/AtlantisDistribution.sol\":1253:1271  _balances[account] */\n      dup1\n        /* \"contracts/Distribution/AtlantisDistribution.sol\":1263:1270  account */\n      dup4\n        /* \"contracts/Distribution/AtlantisDistribution.sol\":1253:1271  _balances[account] */\n      0xffffffffffffffffffffffffffffffffffffffff\n      and\n      0xffffffffffffffffffffffffffffffffffffffff\n      and\n      dup2\n      mstore\n      0x20\n      add\n      swap1\n      dup2\n      mstore\n      0x20\n      add\n      0x00\n      keccak256\n        /* \"contracts/Distribution/AtlantisDistribution.sol\":1253:1326  _balances[account] = cury[lvl[account]] * _balances[account] / y[account] */\n      dup2\n      swap1\n      sstore\n      pop\n        /* \"contracts/Distribution/AtlantisDistribution.sol\":1349:1353  cury */\n      0x09\n        /* \"contracts/Distribution/AtlantisDistribution.sol\":1354:1357  lvl */\n      0x07\n        /* \"contracts/Distribution/AtlantisDistribution.sol\":1354:1366  lvl[account] */\n      0x00\n        /* \"contracts/Distribution/AtlantisDistribution.sol\":1358:1365  account */\n      dup4\n        /* \"contracts/Distribution/AtlantisDistribution.sol\":1354:1366  lvl[account] */\n      0xffffffffffffffffffffffffffffffffffffffff\n      and\n      0xffffffffffffffffffffffffffffffffffffffff\n      and\n      dup2\n      mstore\n      0x20\n      add\n      swap1\n      dup2\n      mstore\n      0x20\n      add\n      0x00\n      keccak256\n      0x00\n      swap1\n      sload\n      swap1\n      0x0100\n      exp\n      swap1\n      div\n      0xff\n      and\n        /* \"contracts/Distribution/AtlantisDistribution.sol\":1349:1367  cury[lvl[account]] */\n      0xff\n      and\n      dup2\n      sload\n      dup2\n      lt\n      tag_131\n      jumpi\n      tag_132\n      tag_125\n      jump\t// in\n    tag_132:\n    tag_131:\n      swap1\n      0x00\n      mstore\n      keccak256(0x00, 0x20)\n      add\n      sload\n        /* \"contracts/Distribution/AtlantisDistribution.sol\":1336:1337  y */\n      0x06\n        /* \"contracts/Distribution/AtlantisDistribution.sol\":1336:1346  y[account] */\n      0x00\n        /* \"contracts/Distribution/AtlantisDistribution.sol\":1338:1345  account */\n      dup4\n        /* \"contracts/Distribution/AtlantisDistribution.sol\":1336:1346  y[account] */\n      0xffffffffffffffffffffffffffffffffffffffff\n      and\n      0xffffffffffffffffffffffffffffffffffffffff\n      and\n      dup2\n      mstore\n      0x20\n      add\n      swap1\n      dup2\n      mstore\n      0x20\n      add\n      0x00\n      keccak256\n        /* \"contracts/Distribution/AtlantisDistribution.sol\":1336:1367  y[account] = cury[lvl[account]] */\n      dup2\n      swap1\n      sstore\n      pop\n        /* \"contracts/Distribution/AtlantisDistribution.sol\":1146:1374  function relaxBalance(address account) public {... */\n    tag_121:\n      pop\n      jump\t// out\n        /* \"contracts/Distribution/AtlantisDistribution.sol\":2963:3354  function mintToRS(address account, uint256 amount) external onlyOwner {... */\n    tag_43:\n        /* \"@openzeppelin/contracts/access/Ownable.sol\":1196:1208  _msgSender() */\n      tag_135\n        /* \"@openzeppelin/contracts/access/Ownable.sol\":1196:1206  _msgSender */\n      tag_119\n        /* \"@openzeppelin/contracts/access/Ownable.sol\":1196:1208  _msgSender() */\n      jump\t// in\n    tag_135:\n        /* \"@openzeppelin/contracts/access/Ownable.sol\":1185:1208  owner() == _msgSender() */\n      0xffffffffffffffffffffffffffffffffffffffff\n      and\n        /* \"@openzeppelin/contracts/access/Ownable.sol\":1185:1192  owner() */\n      tag_136\n        /* \"@openzeppelin/contracts/access/Ownable.sol\":1185:1190  owner */\n      tag_80\n        /* \"@openzeppelin/contracts/access/Ownable.sol\":1185:1192  owner() */\n      jump\t// in\n    tag_136:\n        /* \"@openzeppelin/contracts/access/Ownable.sol\":1185:1208  owner() == _msgSender() */\n      0xffffffffffffffffffffffffffffffffffffffff\n      and\n      eq\n        /* \"@openzeppelin/contracts/access/Ownable.sol\":1177:1245  require(owner() == _msgSender(), \"Ownable: caller is not the owner\") */\n      tag_137\n      jumpi\n      mload(0x40)\n      0x08c379a000000000000000000000000000000000000000000000000000000000\n      dup2\n      mstore\n      0x04\n      add\n      tag_138\n      swap1\n      tag_139\n      jump\t// in\n    tag_138:\n      mload(0x40)\n      dup1\n      swap2\n      sub\n      swap1\n      revert\n    tag_137:\n        /* \"contracts/Distribution/AtlantisDistribution.sol\":3067:3068  0 */\n      0x00\n        /* \"contracts/Distribution/AtlantisDistribution.sol\":3051:3054  lvl */\n      0x07\n        /* \"contracts/Distribution/AtlantisDistribution.sol\":3051:3063  lvl[account] */\n      0x00\n        /* \"contracts/Distribution/AtlantisDistribution.sol\":3055:3062  account */\n      dup5\n        /* \"contracts/Distribution/AtlantisDistribution.sol\":3051:3063  lvl[account] */\n      0xffffffffffffffffffffffffffffffffffffffff\n      and\n      0xffffffffffffffffffffffffffffffffffffffff\n      and\n      dup2\n      mstore\n      0x20\n      add\n      swap1\n      dup2\n      mstore\n      0x20\n      add\n      0x00\n      keccak256\n      0x00\n      swap1\n      sload\n      swap1\n      0x0100\n      exp\n      swap1\n      div\n      0xff\n      and\n        /* \"contracts/Distribution/AtlantisDistribution.sol\":3051:3068  lvl[account] == 0 */\n      0xff\n      and\n      eq\n        /* \"contracts/Distribution/AtlantisDistribution.sol\":3043:3109  require(lvl[account] == 0, \"account is not a regular shareholder\") */\n      tag_141\n      jumpi\n      mload(0x40)\n      0x08c379a000000000000000000000000000000000000000000000000000000000\n      dup2\n      mstore\n      0x04\n      add\n      tag_142\n      swap1\n      tag_143\n      jump\t// in\n    tag_142:\n      mload(0x40)\n      dup1\n      swap2\n      sub\n      swap1\n      revert\n    tag_141:\n        /* \"contracts/Distribution/AtlantisDistribution.sol\":3141:3147  amount */\n      dup1\n        /* \"contracts/Distribution/AtlantisDistribution.sol\":3119:3128  _balances */\n      0x00\n        /* \"contracts/Distribution/AtlantisDistribution.sol\":3119:3137  _balances[account] */\n      dup1\n        /* \"contracts/Distribution/AtlantisDistribution.sol\":3129:3136  account */\n      dup5\n        /* \"contracts/Distribution/AtlantisDistribution.sol\":3119:3137  _balances[account] */\n      0xffffffffffffffffffffffffffffffffffffffff\n      and\n      0xffffffffffffffffffffffffffffffffffffffff\n      and\n      dup2\n      mstore\n      0x20\n      add\n      swap1\n      dup2\n      mstore\n      0x20\n      add\n      0x00\n      keccak256\n      0x00\n        /* \"contracts/Distribution/AtlantisDistribution.sol\":3119:3147  _balances[account] += amount */\n      dup3\n      dup3\n      sload\n      tag_144\n      swap2\n      swap1\n      tag_145\n      jump\t// in\n    tag_144:\n      swap3\n      pop\n      pop\n      dup2\n      swap1\n      sstore\n      pop\n        /* \"contracts/Distribution/AtlantisDistribution.sol\":3162:3169  uint8 i */\n      0x00\n        /* \"contracts/Distribution/AtlantisDistribution.sol\":3172:3173  1 */\n      0x01\n        /* \"contracts/Distribution/AtlantisDistribution.sol\":3162:3173  uint8 i = 1 */\n      swap1\n      pop\n        /* \"contracts/Distribution/AtlantisDistribution.sol\":3157:3316  for (uint8 i = 1; i <= 2; i++) {... */\n    tag_146:\n        /* \"contracts/Distribution/AtlantisDistribution.sol\":3180:3181  2 */\n      0x02\n        /* \"contracts/Distribution/AtlantisDistribution.sol\":3175:3176  i */\n      dup2\n        /* \"contracts/Distribution/AtlantisDistribution.sol\":3175:3181  i <= 2 */\n      0xff\n      and\n      gt\n        /* \"contracts/Distribution/AtlantisDistribution.sol\":3157:3316  for (uint8 i = 1; i <= 2; i++) {... */\n      tag_147\n      jumpi\n        /* \"contracts/Distribution/AtlantisDistribution.sol\":3234:3235  2 */\n      0x02\n        /* \"contracts/Distribution/AtlantisDistribution.sol\":3225:3231  amount */\n      dup3\n        /* \"contracts/Distribution/AtlantisDistribution.sol\":3225:3235  amount / 2 */\n      tag_149\n      swap2\n      swap1\n      tag_130\n      jump\t// in\n    tag_149:\n        /* \"contracts/Distribution/AtlantisDistribution.sol\":3214:3219  total */\n      0x0a\n        /* \"contracts/Distribution/AtlantisDistribution.sol\":3220:3221  i */\n      dup3\n        /* \"contracts/Distribution/AtlantisDistribution.sol\":3214:3222  total[i] */\n      0xff\n      and\n      dup2\n      sload\n      dup2\n      lt\n      tag_150\n      jumpi\n      tag_151\n      tag_125\n      jump\t// in\n    tag_151:\n    tag_150:\n      swap1\n      0x00\n      mstore\n      keccak256(0x00, 0x20)\n      add\n      sload\n        /* \"contracts/Distribution/AtlantisDistribution.sol\":3214:3235  total[i] + amount / 2 */\n      tag_153\n      swap2\n      swap1\n      tag_145\n      jump\t// in\n    tag_153:\n        /* \"contracts/Distribution/AtlantisDistribution.sol\":3202:3206  cury */\n      0x09\n        /* \"contracts/Distribution/AtlantisDistribution.sol\":3207:3208  i */\n      dup3\n        /* \"contracts/Distribution/AtlantisDistribution.sol\":3202:3209  cury[i] */\n      0xff\n      and\n      dup2\n      sload\n      dup2\n      lt\n      tag_154\n      jumpi\n      tag_155\n      tag_125\n      jump\t// in\n    tag_155:\n    tag_154:\n      swap1\n      0x00\n      mstore\n      keccak256(0x00, 0x20)\n      add\n      0x00\n        /* \"contracts/Distribution/AtlantisDistribution.sol\":3202:3236  cury[i] *= (total[i] + amount / 2) */\n      dup3\n      dup3\n      sload\n      tag_157\n      swap2\n      swap1\n      tag_128\n      jump\t// in\n    tag_157:\n      swap3\n      pop\n      pop\n      dup2\n      swap1\n      sstore\n      pop\n        /* \"contracts/Distribution/AtlantisDistribution.sol\":3261:3266  total */\n      0x0a\n        /* \"contracts/Distribution/AtlantisDistribution.sol\":3267:3268  i */\n      dup2\n        /* \"contracts/Distribution/AtlantisDistribution.sol\":3261:3269  total[i] */\n      0xff\n      and\n      dup2\n      sload\n      dup2\n      lt\n      tag_158\n      jumpi\n      tag_159\n      tag_125\n      jump\t// in\n    tag_159:\n    tag_158:\n      swap1\n      0x00\n      mstore\n      keccak256(0x00, 0x20)\n      add\n      sload\n        /* \"contracts/Distribution/AtlantisDistribution.sol\":3250:3254  cury */\n      0x09\n        /* \"contracts/Distribution/AtlantisDistribution.sol\":3255:3256  i */\n      dup3\n        /* \"contracts/Distribution/AtlantisDistribution.sol\":3250:3257  cury[i] */\n      0xff\n      and\n      dup2\n      sload\n      dup2\n      lt\n      tag_161\n      jumpi\n      tag_162\n      tag_125\n      jump\t// in\n    tag_162:\n    tag_161:\n      swap1\n      0x00\n      mstore\n      keccak256(0x00, 0x20)\n      add\n      0x00\n        /* \"contracts/Distribution/AtlantisDistribution.sol\":3250:3269  cury[i] /= total[i] */\n      dup3\n      dup3\n      sload\n      tag_164\n      swap2\n      swap1\n      tag_130\n      jump\t// in\n    tag_164:\n      swap3\n      pop\n      pop\n      dup2\n      swap1\n      sstore\n      pop\n        /* \"contracts/Distribution/AtlantisDistribution.sol\":3304:3305  2 */\n      0x02\n        /* \"contracts/Distribution/AtlantisDistribution.sol\":3295:3301  amount */\n      dup3\n        /* \"contracts/Distribution/AtlantisDistribution.sol\":3295:3305  amount / 2 */\n      tag_165\n      swap2\n      swap1\n      tag_130\n      jump\t// in\n    tag_165:\n        /* \"contracts/Distribution/AtlantisDistribution.sol\":3283:3288  total */\n      0x0a\n        /* \"contracts/Distribution/AtlantisDistribution.sol\":3289:3290  i */\n      dup3\n        /* \"contracts/Distribution/AtlantisDistribution.sol\":3283:3291  total[i] */\n      0xff\n      and\n      dup2\n      sload\n      dup2\n      lt\n      tag_166\n      jumpi\n      tag_167\n      tag_125\n      jump\t// in\n    tag_167:\n    tag_166:\n      swap1\n      0x00\n      mstore\n      keccak256(0x00, 0x20)\n      add\n      0x00\n        /* \"contracts/Distribution/AtlantisDistribution.sol\":3283:3305  total[i] += amount / 2 */\n      dup3\n      dup3\n      sload\n      tag_169\n      swap2\n      swap1\n      tag_145\n      jump\t// in\n    tag_169:\n      swap3\n      pop\n      pop\n      dup2\n      swap1\n      sstore\n      pop\n        /* \"contracts/Distribution/AtlantisDistribution.sol\":3183:3186  i++ */\n      dup1\n      dup1\n      tag_170\n      swap1\n      tag_171\n      jump\t// in\n    tag_170:\n      swap2\n      pop\n      pop\n        /* \"contracts/Distribution/AtlantisDistribution.sol\":3157:3316  for (uint8 i = 1; i <= 2; i++) {... */\n      jump(tag_146)\n    tag_147:\n      pop\n        /* \"contracts/Distribution/AtlantisDistribution.sol\":3341:3347  amount */\n      dup1\n        /* \"contracts/Distribution/AtlantisDistribution.sol\":3325:3337  _totalSupply */\n      0x02\n      0x00\n        /* \"contracts/Distribution/AtlantisDistribution.sol\":3325:3347  _totalSupply += amount */\n      dup3\n      dup3\n      sload\n      tag_172\n      swap2\n      swap1\n      tag_145\n      jump\t// in\n    tag_172:\n      swap3\n      pop\n      pop\n      dup2\n      swap1\n      sstore\n      pop\n        /* \"contracts/Distribution/AtlantisDistribution.sol\":2963:3354  function mintToRS(address account, uint256 amount) external onlyOwner {... */\n      pop\n      pop\n      jump\t// out\n        /* \"contracts/Distribution/AtlantisDistribution.sol\":2477:2957  function mintToNRS(address account, uint256 amount) external onlyOwner {... */\n    tag_46:\n        /* \"@openzeppelin/contracts/access/Ownable.sol\":1196:1208  _msgSender() */\n      tag_174\n        /* \"@openzeppelin/contracts/access/Ownable.sol\":1196:1206  _msgSender */\n      tag_119\n        /* \"@openzeppelin/contracts/access/Ownable.sol\":1196:1208  _msgSender() */\n      jump\t// in\n    tag_174:\n        /* \"@openzeppelin/contracts/access/Ownable.sol\":1185:1208  owner() == _msgSender() */\n      0xffffffffffffffffffffffffffffffffffffffff\n      and\n        /* \"@openzeppelin/contracts/access/Ownable.sol\":1185:1192  owner() */\n      tag_175\n        /* \"@openzeppelin/contracts/access/Ownable.sol\":1185:1190  owner */\n      tag_80\n        /* \"@openzeppelin/contracts/access/Ownable.sol\":1185:1192  owner() */\n      jump\t// in\n    tag_175:\n        /* \"@openzeppelin/contracts/access/Ownable.sol\":1185:1208  owner() == _msgSender() */\n      0xffffffffffffffffffffffffffffffffffffffff\n      and\n      eq\n        /* \"@openzeppelin/contracts/access/Ownable.sol\":1177:1245  require(owner() == _msgSender(), \"Ownable: caller is not the owner\") */\n      tag_176\n      jumpi\n      mload(0x40)\n      0x08c379a000000000000000000000000000000000000000000000000000000000\n      dup2\n      mstore\n      0x04\n      add\n      tag_177\n      swap1\n      tag_139\n      jump\t// in\n    tag_177:\n      mload(0x40)\n      dup1\n      swap2\n      sub\n      swap1\n      revert\n    tag_176:\n        /* \"contracts/Distribution/AtlantisDistribution.sol\":2582:2583  0 */\n      0x00\n        /* \"contracts/Distribution/AtlantisDistribution.sol\":2566:2569  lvl */\n      0x07\n        /* \"contracts/Distribution/AtlantisDistribution.sol\":2566:2578  lvl[account] */\n      0x00\n        /* \"contracts/Distribution/AtlantisDistribution.sol\":2570:2577  account */\n      dup5\n        /* \"contracts/Distribution/AtlantisDistribution.sol\":2566:2578  lvl[account] */\n      0xffffffffffffffffffffffffffffffffffffffff\n      and\n      0xffffffffffffffffffffffffffffffffffffffff\n      and\n      dup2\n      mstore\n      0x20\n      add\n      swap1\n      dup2\n      mstore\n      0x20\n      add\n      0x00\n      keccak256\n      0x00\n      swap1\n      sload\n      swap1\n      0x0100\n      exp\n      swap1\n      div\n      0xff\n      and\n        /* \"contracts/Distribution/AtlantisDistribution.sol\":2566:2583  lvl[account] != 0 */\n      0xff\n      and\n      eq\n      iszero\n        /* \"contracts/Distribution/AtlantisDistribution.sol\":2558:2620  require(lvl[account] != 0, \"account is a regular shareholder\") */\n      tag_179\n      jumpi\n      mload(0x40)\n      0x08c379a000000000000000000000000000000000000000000000000000000000\n      dup2\n      mstore\n      0x04\n      add\n      tag_180\n      swap1\n      tag_181\n      jump\t// in\n    tag_180:\n      mload(0x40)\n      dup1\n      swap2\n      sub\n      swap1\n      revert\n    tag_179:\n        /* \"contracts/Distribution/AtlantisDistribution.sol\":2630:2651  relaxBalance(account) */\n      tag_182\n        /* \"contracts/Distribution/AtlantisDistribution.sol\":2643:2650  account */\n      dup3\n        /* \"contracts/Distribution/AtlantisDistribution.sol\":2630:2642  relaxBalance */\n      tag_40\n        /* \"contracts/Distribution/AtlantisDistribution.sol\":2630:2651  relaxBalance(account) */\n      jump\t// in\n    tag_182:\n        /* \"contracts/Distribution/AtlantisDistribution.sol\":2683:2689  amount */\n      dup1\n        /* \"contracts/Distribution/AtlantisDistribution.sol\":2661:2670  _balances */\n      0x00\n        /* \"contracts/Distribution/AtlantisDistribution.sol\":2661:2679  _balances[account] */\n      dup1\n        /* \"contracts/Distribution/AtlantisDistribution.sol\":2671:2678  account */\n      dup5\n        /* \"contracts/Distribution/AtlantisDistribution.sol\":2661:2679  _balances[account] */\n      0xffffffffffffffffffffffffffffffffffffffff\n      and\n      0xffffffffffffffffffffffffffffffffffffffff\n      and\n      dup2\n      mstore\n      0x20\n      add\n      swap1\n      dup2\n      mstore\n      0x20\n      add\n      0x00\n      keccak256\n      0x00\n        /* \"contracts/Distribution/AtlantisDistribution.sol\":2661:2689  _balances[account] += amount */\n      dup3\n      dup3\n      sload\n      tag_183\n      swap2\n      swap1\n      tag_145\n      jump\t// in\n    tag_183:\n      swap3\n      pop\n      pop\n      dup2\n      swap1\n      sstore\n      pop\n        /* \"contracts/Distribution/AtlantisDistribution.sol\":2729:2735  amount */\n      dup1\n        /* \"contracts/Distribution/AtlantisDistribution.sol\":2725:2726  2 */\n      0x02\n        /* \"contracts/Distribution/AtlantisDistribution.sol\":2725:2735  2 * amount */\n      tag_184\n      swap2\n      swap1\n      tag_128\n      jump\t// in\n    tag_184:\n        /* \"contracts/Distribution/AtlantisDistribution.sol\":2699:2708  _balances */\n      0x00\n        /* \"contracts/Distribution/AtlantisDistribution.sol\":2699:2721  _balances[fund_wallet] */\n      dup1\n        /* \"contracts/Distribution/AtlantisDistribution.sol\":2709:2720  fund_wallet */\n      0x0b\n      0x00\n      swap1\n      sload\n      swap1\n      0x0100\n      exp\n      swap1\n      div\n      0xffffffffffffffffffffffffffffffffffffffff\n      and\n        /* \"contracts/Distribution/AtlantisDistribution.sol\":2699:2721  _balances[fund_wallet] */\n      0xffffffffffffffffffffffffffffffffffffffff\n      and\n      0xffffffffffffffffffffffffffffffffffffffff\n      and\n      dup2\n      mstore\n      0x20\n      add\n      swap1\n      dup2\n      mstore\n      0x20\n      add\n      0x00\n      keccak256\n      0x00\n        /* \"contracts/Distribution/AtlantisDistribution.sol\":2699:2735  _balances[fund_wallet] += 2 * amount */\n      dup3\n      dup3\n      sload\n      tag_185\n      swap2\n      swap1\n      tag_145\n      jump\t// in\n    tag_185:\n      swap3\n      pop\n      pop\n      dup2\n      swap1\n      sstore\n      pop\n        /* \"contracts/Distribution/AtlantisDistribution.sol\":2746:2757  uint8 other */\n      0x00\n        /* \"contracts/Distribution/AtlantisDistribution.sol\":2764:2767  lvl */\n      0x07\n        /* \"contracts/Distribution/AtlantisDistribution.sol\":2764:2776  lvl[account] */\n      0x00\n        /* \"contracts/Distribution/AtlantisDistribution.sol\":2768:2775  account */\n      dup5\n        /* \"contracts/Distribution/AtlantisDistribution.sol\":2764:2776  lvl[account] */\n      0xffffffffffffffffffffffffffffffffffffffff\n      and\n      0xffffffffffffffffffffffffffffffffffffffff\n      and\n      dup2\n      mstore\n      0x20\n      add\n      swap1\n      dup2\n      mstore\n      0x20\n      add\n      0x00\n      keccak256\n      0x00\n      swap1\n      sload\n      swap1\n      0x0100\n      exp\n      swap1\n      div\n      0xff\n      and\n        /* \"contracts/Distribution/AtlantisDistribution.sol\":2760:2761  1 */\n      0x01\n        /* \"contracts/Distribution/AtlantisDistribution.sol\":2760:2776  1 - lvl[account] */\n      tag_186\n      swap2\n      swap1\n      tag_187\n      jump\t// in\n    tag_186:\n        /* \"contracts/Distribution/AtlantisDistribution.sol\":2746:2776  uint8 other = 1 - lvl[account] */\n      swap1\n      pop\n        /* \"contracts/Distribution/AtlantisDistribution.sol\":2817:2823  amount */\n      dup2\n        /* \"contracts/Distribution/AtlantisDistribution.sol\":2802:2807  total */\n      0x0a\n        /* \"contracts/Distribution/AtlantisDistribution.sol\":2808:2813  other */\n      dup3\n        /* \"contracts/Distribution/AtlantisDistribution.sol\":2802:2814  total[other] */\n      0xff\n      and\n      dup2\n      sload\n      dup2\n      lt\n      tag_188\n      jumpi\n      tag_189\n      tag_125\n      jump\t// in\n    tag_189:\n    tag_188:\n      swap1\n      0x00\n      mstore\n      keccak256(0x00, 0x20)\n      add\n      sload\n        /* \"contracts/Distribution/AtlantisDistribution.sol\":2802:2823  total[other] + amount */\n      tag_191\n      swap2\n      swap1\n      tag_145\n      jump\t// in\n    tag_191:\n        /* \"contracts/Distribution/AtlantisDistribution.sol\":2786:2790  cury */\n      0x09\n        /* \"contracts/Distribution/AtlantisDistribution.sol\":2791:2796  other */\n      dup3\n        /* \"contracts/Distribution/AtlantisDistribution.sol\":2786:2797  cury[other] */\n      0xff\n      and\n      dup2\n      sload\n      dup2\n      lt\n      tag_192\n      jumpi\n      tag_193\n      tag_125\n      jump\t// in\n    tag_193:\n    tag_192:\n      swap1\n      0x00\n      mstore\n      keccak256(0x00, 0x20)\n      add\n      0x00\n        /* \"contracts/Distribution/AtlantisDistribution.sol\":2786:2824  cury[other] *= (total[other] + amount) */\n      dup3\n      dup3\n      sload\n      tag_195\n      swap2\n      swap1\n      tag_128\n      jump\t// in\n    tag_195:\n      swap3\n      pop\n      pop\n      dup2\n      swap1\n      sstore\n      pop\n        /* \"contracts/Distribution/AtlantisDistribution.sol\":2849:2854  total */\n      0x0a\n        /* \"contracts/Distribution/AtlantisDistribution.sol\":2855:2860  other */\n      dup2\n        /* \"contracts/Distribution/AtlantisDistribution.sol\":2849:2861  total[other] */\n      0xff\n      and\n      dup2\n      sload\n      dup2\n      lt\n      tag_196\n      jumpi\n      tag_197\n      tag_125\n      jump\t// in\n    tag_197:\n    tag_196:\n      swap1\n      0x00\n      mstore\n      keccak256(0x00, 0x20)\n      add\n      sload\n        /* \"contracts/Distribution/AtlantisDistribution.sol\":2834:2838  cury */\n      0x09\n        /* \"contracts/Distribution/AtlantisDistribution.sol\":2839:2844  other */\n      dup3\n        /* \"contracts/Distribution/AtlantisDistribution.sol\":2834:2845  cury[other] */\n      0xff\n      and\n      dup2\n      sload\n      dup2\n      lt\n      tag_199\n      jumpi\n      tag_200\n      tag_125\n      jump\t// in\n    tag_200:\n    tag_199:\n      swap1\n      0x00\n      mstore\n      keccak256(0x00, 0x20)\n      add\n      0x00\n        /* \"contracts/Distribution/AtlantisDistribution.sol\":2834:2861  cury[other] /= total[other] */\n      dup3\n      dup3\n      sload\n      tag_202\n      swap2\n      swap1\n      tag_130\n      jump\t// in\n    tag_202:\n      swap3\n      pop\n      pop\n      dup2\n      swap1\n      sstore\n      pop\n        /* \"contracts/Distribution/AtlantisDistribution.sol\":2883:2889  amount */\n      dup2\n        /* \"contracts/Distribution/AtlantisDistribution.sol\":2871:2876  total */\n      0x0a\n        /* \"contracts/Distribution/AtlantisDistribution.sol\":2877:2878  1 */\n      0x01\n        /* \"contracts/Distribution/AtlantisDistribution.sol\":2871:2879  total[1] */\n      dup2\n      sload\n      dup2\n      lt\n      tag_203\n      jumpi\n      tag_204\n      tag_125\n      jump\t// in\n    tag_204:\n    tag_203:\n      swap1\n      0x00\n      mstore\n      keccak256(0x00, 0x20)\n      add\n      0x00\n        /* \"contracts/Distribution/AtlantisDistribution.sol\":2871:2889  total[1] += amount */\n      dup3\n      dup3\n      sload\n      tag_206\n      swap2\n      swap1\n      tag_145\n      jump\t// in\n    tag_206:\n      swap3\n      pop\n      pop\n      dup2\n      swap1\n      sstore\n      pop\n        /* \"contracts/Distribution/AtlantisDistribution.sol\":2911:2917  amount */\n      dup2\n        /* \"contracts/Distribution/AtlantisDistribution.sol\":2899:2904  total */\n      0x0a\n        /* \"contracts/Distribution/AtlantisDistribution.sol\":2905:2906  2 */\n      0x02\n        /* \"contracts/Distribution/AtlantisDistribution.sol\":2899:2907  total[2] */\n      dup2\n      sload\n      dup2\n      lt\n      tag_207\n      jumpi\n      tag_208\n      tag_125\n      jump\t// in\n    tag_208:\n    tag_207:\n      swap1\n      0x00\n      mstore\n      keccak256(0x00, 0x20)\n      add\n      0x00\n        /* \"contracts/Distribution/AtlantisDistribution.sol\":2899:2917  total[2] += amount */\n      dup3\n      dup3\n      sload\n      tag_210\n      swap2\n      swap1\n      tag_145\n      jump\t// in\n    tag_210:\n      swap3\n      pop\n      pop\n      dup2\n      swap1\n      sstore\n      pop\n        /* \"contracts/Distribution/AtlantisDistribution.sol\":2944:2950  amount */\n      dup2\n        /* \"contracts/Distribution/AtlantisDistribution.sol\":2928:2940  _totalSupply */\n      0x02\n      0x00\n        /* \"contracts/Distribution/AtlantisDistribution.sol\":2928:2950  _totalSupply += amount */\n      dup3\n      dup3\n      sload\n      tag_211\n      swap2\n      swap1\n      tag_145\n      jump\t// in\n    tag_211:\n      swap3\n      pop\n      pop\n      dup2\n      swap1\n      sstore\n      pop\n        /* \"contracts/Distribution/AtlantisDistribution.sol\":2548:2957  {... */\n      pop\n        /* \"contracts/Distribution/AtlantisDistribution.sol\":2477:2957  function mintToNRS(address account, uint256 amount) external onlyOwner {... */\n      pop\n      pop\n      jump\t// out\n        /* \"contracts/Distribution/WrappedERC20Token.sol\":3118:3224  function totalSupply() public view virtual override returns (uint256) {... */\n    tag_48:\n        /* \"contracts/Distribution/WrappedERC20Token.sol\":3179:3186  uint256 */\n      0x00\n        /* \"contracts/Distribution/WrappedERC20Token.sol\":3205:3217  _totalSupply */\n      sload(0x02)\n        /* \"contracts/Distribution/WrappedERC20Token.sol\":3198:3217  return _totalSupply */\n      swap1\n      pop\n        /* \"contracts/Distribution/WrappedERC20Token.sol\":3118:3224  function totalSupply() public view virtual override returns (uint256) {... */\n      swap1\n      jump\t// out\n        /* \"contracts/Distribution/AtlantisDistribution.sol\":3360:3507  function transferFrom(address sender, address recipient, uint256 amount) public override returns (bool) {... */\n    tag_54:\n        /* \"contracts/Distribution/AtlantisDistribution.sol\":3458:3462  bool */\n      0x00\n        /* \"contracts/Distribution/AtlantisDistribution.sol\":3496:3500  true */\n      0x01\n        /* \"contracts/Distribution/AtlantisDistribution.sol\":3489:3500  return true */\n      swap1\n      pop\n        /* \"contracts/Distribution/AtlantisDistribution.sol\":3360:3507  function transferFrom(address sender, address recipient, uint256 amount) public override returns (bool) {... */\n      swap4\n      swap3\n      pop\n      pop\n      pop\n      jump\t// out\n        /* \"contracts/Distribution/WrappedERC20Token.sol\":2976:3058  function decimals() public view virtual returns (uint8) {... */\n    tag_57:\n        /* \"contracts/Distribution/WrappedERC20Token.sol\":3025:3030  uint8 */\n      0x00\n        /* \"contracts/Distribution/WrappedERC20Token.sol\":3049:3051  18 */\n      0x12\n        /* \"contracts/Distribution/WrappedERC20Token.sol\":3042:3051  return 18 */\n      swap1\n      pop\n        /* \"contracts/Distribution/WrappedERC20Token.sol\":2976:3058  function decimals() public view virtual returns (uint8) {... */\n      swap1\n      jump\t// out\n        /* \"contracts/Distribution/WrappedERC20Token.sol\":5569:5781  function increaseAllowance(address spender, uint256 addedValue) public virtual returns (bool) {... */\n    tag_62:\n        /* \"contracts/Distribution/WrappedERC20Token.sol\":5657:5661  bool */\n      0x00\n        /* \"contracts/Distribution/WrappedERC20Token.sol\":5673:5753  _approve(_msgSender(), spender, _allowances[_msgSender()][spender] + addedValue) */\n      tag_216\n        /* \"contracts/Distribution/WrappedERC20Token.sol\":5682:5694  _msgSender() */\n      tag_217\n        /* \"contracts/Distribution/WrappedERC20Token.sol\":5682:5692  _msgSender */\n      tag_119\n        /* \"contracts/Distribution/WrappedERC20Token.sol\":5682:5694  _msgSender() */\n      jump\t// in\n    tag_217:\n        /* \"contracts/Distribution/WrappedERC20Token.sol\":5696:5703  spender */\n      dup5\n        /* \"contracts/Distribution/WrappedERC20Token.sol\":5742:5752  addedValue */\n      dup5\n        /* \"contracts/Distribution/WrappedERC20Token.sol\":5705:5716  _allowances */\n      0x01\n        /* \"contracts/Distribution/WrappedERC20Token.sol\":5705:5730  _allowances[_msgSender()] */\n      0x00\n        /* \"contracts/Distribution/WrappedERC20Token.sol\":5717:5729  _msgSender() */\n      tag_218\n        /* \"contracts/Distribution/WrappedERC20Token.sol\":5717:5727  _msgSender */\n      tag_119\n        /* \"contracts/Distribution/WrappedERC20Token.sol\":5717:5729  _msgSender() */\n      jump\t// in\n    tag_218:\n        /* \"contracts/Distribution/WrappedERC20Token.sol\":5705:5730  _allowances[_msgSender()] */\n      0xffffffffffffffffffffffffffffffffffffffff\n      and\n      0xffffffffffffffffffffffffffffffffffffffff\n      and\n      dup2\n      mstore\n      0x20\n      add\n      swap1\n      dup2\n      mstore\n      0x20\n      add\n      0x00\n      keccak256\n        /* \"contracts/Distribution/WrappedERC20Token.sol\":5705:5739  _allowances[_msgSender()][spender] */\n      0x00\n        /* \"contracts/Distribution/WrappedERC20Token.sol\":5731:5738  spender */\n      dup9\n        /* \"contracts/Distribution/WrappedERC20Token.sol\":5705:5739  _allowances[_msgSender()][spender] */\n      0xffffffffffffffffffffffffffffffffffffffff\n      and\n      0xffffffffffffffffffffffffffffffffffffffff\n      and\n      dup2\n      mstore\n      0x20\n      add\n      swap1\n      dup2\n      mstore\n      0x20\n      add\n      0x00\n      keccak256\n      sload\n        /* \"contracts/Distribution/WrappedERC20Token.sol\":5705:5752  _allowances[_msgSender()][spender] + addedValue */\n      tag_219\n      swap2\n      swap1\n      tag_145\n      jump\t// in\n    tag_219:\n        /* \"contracts/Distribution/WrappedERC20Token.sol\":5673:5681  _approve */\n      tag_120\n        /* \"contracts/Distribution/WrappedERC20Token.sol\":5673:5753  _approve(_msgSender(), spender, _allowances[_msgSender()][spender] + addedValue) */\n      jump\t// in\n    tag_216:\n        /* \"contracts/Distribution/WrappedERC20Token.sol\":5770:5774  true */\n      0x01\n        /* \"contracts/Distribution/WrappedERC20Token.sol\":5763:5774  return true */\n      swap1\n      pop\n        /* \"contracts/Distribution/WrappedERC20Token.sol\":5569:5781  function increaseAllowance(address spender, uint256 addedValue) public virtual returns (bool) {... */\n      swap3\n      swap2\n      pop\n      pop\n      jump\t// out\n        /* \"contracts/Distribution/AtlantisDistribution.sol\":406:449  uint256[] public cury = new uint256[](size) */\n    tag_67:\n      0x09\n      dup2\n      dup2\n      sload\n      dup2\n      lt\n      tag_220\n      jumpi\n      0x00\n      dup1\n      revert\n    tag_220:\n      swap1\n      0x00\n      mstore\n      keccak256(0x00, 0x20)\n      add\n      0x00\n      swap2\n      pop\n      swap1\n      pop\n      sload\n      dup2\n      jump\t// out\n        /* \"contracts/Distribution/AtlantisDistribution.sol\":919:1140  function balanceOf(address account) public view override returns (uint256) {... */\n    tag_71:\n        /* \"contracts/Distribution/AtlantisDistribution.sol\":985:992  uint256 */\n      0x00\n        /* \"contracts/Distribution/AtlantisDistribution.sol\":1024:1025  0 */\n      dup1\n        /* \"contracts/Distribution/AtlantisDistribution.sol\":1008:1011  lvl */\n      0x07\n        /* \"contracts/Distribution/AtlantisDistribution.sol\":1008:1020  lvl[account] */\n      0x00\n        /* \"contracts/Distribution/AtlantisDistribution.sol\":1012:1019  account */\n      dup5\n        /* \"contracts/Distribution/AtlantisDistribution.sol\":1008:1020  lvl[account] */\n      0xffffffffffffffffffffffffffffffffffffffff\n      and\n      0xffffffffffffffffffffffffffffffffffffffff\n      and\n      dup2\n      mstore\n      0x20\n      add\n      swap1\n      dup2\n      mstore\n      0x20\n      add\n      0x00\n      keccak256\n      0x00\n      swap1\n      sload\n      swap1\n      0x0100\n      exp\n      swap1\n      div\n      0xff\n      and\n        /* \"contracts/Distribution/AtlantisDistribution.sol\":1008:1025  lvl[account] == 0 */\n      0xff\n      and\n      eq\n        /* \"contracts/Distribution/AtlantisDistribution.sol\":1004:1064  if (lvl[account] == 0)... */\n      iszero\n      tag_223\n      jumpi\n        /* \"contracts/Distribution/AtlantisDistribution.sol\":1046:1055  _balances */\n      0x00\n        /* \"contracts/Distribution/AtlantisDistribution.sol\":1046:1064  _balances[account] */\n      dup1\n        /* \"contracts/Distribution/AtlantisDistribution.sol\":1056:1063  account */\n      dup4\n        /* \"contracts/Distribution/AtlantisDistribution.sol\":1046:1064  _balances[account] */\n      0xffffffffffffffffffffffffffffffffffffffff\n      and\n      0xffffffffffffffffffffffffffffffffffffffff\n      and\n      dup2\n      mstore\n      0x20\n      add\n      swap1\n      dup2\n      mstore\n      0x20\n      add\n      0x00\n      keccak256\n      sload\n        /* \"contracts/Distribution/AtlantisDistribution.sol\":1039:1064  return _balances[account] */\n      swap1\n      pop\n      jump(tag_222)\n        /* \"contracts/Distribution/AtlantisDistribution.sol\":1004:1064  if (lvl[account] == 0)... */\n    tag_223:\n        /* \"contracts/Distribution/AtlantisDistribution.sol\":1123:1124  y */\n      0x06\n        /* \"contracts/Distribution/AtlantisDistribution.sol\":1123:1133  y[account] */\n      0x00\n        /* \"contracts/Distribution/AtlantisDistribution.sol\":1125:1132  account */\n      dup4\n        /* \"contracts/Distribution/AtlantisDistribution.sol\":1123:1133  y[account] */\n      0xffffffffffffffffffffffffffffffffffffffff\n      and\n      0xffffffffffffffffffffffffffffffffffffffff\n      and\n      dup2\n      mstore\n      0x20\n      add\n      swap1\n      dup2\n      mstore\n      0x20\n      add\n      0x00\n      keccak256\n      sload\n        /* \"contracts/Distribution/AtlantisDistribution.sol\":1102:1111  _balances */\n      0x00\n        /* \"contracts/Distribution/AtlantisDistribution.sol\":1102:1120  _balances[account] */\n      dup1\n        /* \"contracts/Distribution/AtlantisDistribution.sol\":1112:1119  account */\n      dup5\n        /* \"contracts/Distribution/AtlantisDistribution.sol\":1102:1120  _balances[account] */\n      0xffffffffffffffffffffffffffffffffffffffff\n      and\n      0xffffffffffffffffffffffffffffffffffffffff\n      and\n      dup2\n      mstore\n      0x20\n      add\n      swap1\n      dup2\n      mstore\n      0x20\n      add\n      0x00\n      keccak256\n      sload\n        /* \"contracts/Distribution/AtlantisDistribution.sol\":1081:1085  cury */\n      0x09\n        /* \"contracts/Distribution/AtlantisDistribution.sol\":1086:1089  lvl */\n      0x07\n        /* \"contracts/Distribution/AtlantisDistribution.sol\":1086:1098  lvl[account] */\n      0x00\n        /* \"contracts/Distribution/AtlantisDistribution.sol\":1090:1097  account */\n      dup7\n        /* \"contracts/Distribution/AtlantisDistribution.sol\":1086:1098  lvl[account] */\n      0xffffffffffffffffffffffffffffffffffffffff\n      and\n      0xffffffffffffffffffffffffffffffffffffffff\n      and\n      dup2\n      mstore\n      0x20\n      add\n      swap1\n      dup2\n      mstore\n      0x20\n      add\n      0x00\n      keccak256\n      0x00\n      swap1\n      sload\n      swap1\n      0x0100\n      exp\n      swap1\n      div\n      0xff\n      and\n        /* \"contracts/Distribution/AtlantisDistribution.sol\":1081:1099  cury[lvl[account]] */\n      0xff\n      and\n      dup2\n      sload\n      dup2\n      lt\n      tag_224\n      jumpi\n      tag_225\n      tag_125\n      jump\t// in\n    tag_225:\n    tag_224:\n      swap1\n      0x00\n      mstore\n      keccak256(0x00, 0x20)\n      add\n      sload\n        /* \"contracts/Distribution/AtlantisDistribution.sol\":1081:1120  cury[lvl[account]] * _balances[account] */\n      tag_227\n      swap2\n      swap1\n      tag_128\n      jump\t// in\n    tag_227:\n        /* \"contracts/Distribution/AtlantisDistribution.sol\":1081:1133  cury[lvl[account]] * _balances[account] / y[account] */\n      tag_228\n      swap2\n      swap1\n      tag_130\n      jump\t// in\n    tag_228:\n        /* \"contracts/Distribution/AtlantisDistribution.sol\":1074:1133  return cury[lvl[account]] * _balances[account] / y[account] */\n      swap1\n      pop\n        /* \"contracts/Distribution/AtlantisDistribution.sol\":919:1140  function balanceOf(address account) public view override returns (uint256) {... */\n    tag_222:\n      swap2\n      swap1\n      pop\n      jump\t// out\n        /* \"@openzeppelin/contracts/access/Ownable.sol\":1605:1697  function renounceOwnership() public virtual onlyOwner {... */\n    tag_74:\n        /* \"@openzeppelin/contracts/access/Ownable.sol\":1196:1208  _msgSender() */\n      tag_230\n        /* \"@openzeppelin/contracts/access/Ownable.sol\":1196:1206  _msgSender */\n      tag_119\n        /* \"@openzeppelin/contracts/access/Ownable.sol\":1196:1208  _msgSender() */\n      jump\t// in\n    tag_230:\n        /* \"@openzeppelin/contracts/access/Ownable.sol\":1185:1208  owner() == _msgSender() */\n      0xffffffffffffffffffffffffffffffffffffffff\n      and\n        /* \"@openzeppelin/contracts/access/Ownable.sol\":1185:1192  owner() */\n      tag_231\n        /* \"@openzeppelin/contracts/access/Ownable.sol\":1185:1190  owner */\n      tag_80\n        /* \"@openzeppelin/contracts/access/Ownable.sol\":1185:1192  owner() */\n      jump\t// in\n    tag_231:\n        /* \"@openzeppelin/contracts/access/Ownable.sol\":1185:1208  owner() == _msgSender() */\n      0xffffffffffffffffffffffffffffffffffffffff\n      and\n      eq\n        /* \"@openzeppelin/contracts/access/Ownable.sol\":1177:1245  require(owner() == _msgSender(), \"Ownable: caller is not the owner\") */\n      tag_232\n      jumpi\n      mload(0x40)\n      0x08c379a000000000000000000000000000000000000000000000000000000000\n      dup2\n      mstore\n      0x04\n      add\n      tag_233\n      swap1\n      tag_139\n      jump\t// in\n    tag_233:\n      mload(0x40)\n      dup1\n      swap2\n      sub\n      swap1\n      revert\n    tag_232:\n        /* \"@openzeppelin/contracts/access/Ownable.sol\":1669:1690  _setOwner(address(0)) */\n      tag_235\n        /* \"@openzeppelin/contracts/access/Ownable.sol\":1687:1688  0 */\n      0x00\n        /* \"@openzeppelin/contracts/access/Ownable.sol\":1669:1678  _setOwner */\n      tag_236\n        /* \"@openzeppelin/contracts/access/Ownable.sol\":1669:1690  _setOwner(address(0)) */\n      jump\t// in\n    tag_235:\n        /* \"@openzeppelin/contracts/access/Ownable.sol\":1605:1697  function renounceOwnership() public virtual onlyOwner {... */\n      jump\t// out\n        /* \"contracts/Distribution/AtlantisDistribution.sol\":344:381  mapping (address => uint8) public lvl */\n    tag_77:\n      mstore(0x20, 0x07)\n      dup1\n      0x00\n      mstore\n      keccak256(0x00, 0x40)\n      0x00\n      swap2\n      pop\n      sload\n      swap1\n      0x0100\n      exp\n      swap1\n      div\n      0xff\n      and\n      dup2\n      jump\t// out\n        /* \"@openzeppelin/contracts/access/Ownable.sol\":973:1058  function owner() public view virtual returns (address) {... */\n    tag_80:\n        /* \"@openzeppelin/contracts/access/Ownable.sol\":1019:1026  address */\n      0x00\n        /* \"@openzeppelin/contracts/access/Ownable.sol\":1045:1051  _owner */\n      0x05\n      0x00\n      swap1\n      sload\n      swap1\n      0x0100\n      exp\n      swap1\n      div\n      0xffffffffffffffffffffffffffffffffffffffff\n      and\n        /* \"@openzeppelin/contracts/access/Ownable.sol\":1038:1051  return _owner */\n      swap1\n      pop\n        /* \"@openzeppelin/contracts/access/Ownable.sol\":973:1058  function owner() public view virtual returns (address) {... */\n      swap1\n      jump\t// out\n        /* \"contracts/Distribution/WrappedERC20Token.sol\":2259:2352  function symbol() public view virtual returns (string memory) {... */\n    tag_84:\n        /* \"contracts/Distribution/WrappedERC20Token.sol\":2306:2319  string memory */\n      0x60\n        /* \"contracts/Distribution/WrappedERC20Token.sol\":2338:2345  _symbol */\n      0x04\n        /* \"contracts/Distribution/WrappedERC20Token.sol\":2331:2345  return _symbol */\n      dup1\n      sload\n      tag_239\n      swap1\n      tag_111\n      jump\t// in\n    tag_239:\n      dup1\n      0x1f\n      add\n      0x20\n      dup1\n      swap2\n      div\n      mul\n      0x20\n      add\n      mload(0x40)\n      swap1\n      dup2\n      add\n      0x40\n      mstore\n      dup1\n      swap3\n      swap2\n      swap1\n      dup2\n      dup2\n      mstore\n      0x20\n      add\n      dup3\n      dup1\n      sload\n      tag_240\n      swap1\n      tag_111\n      jump\t// in\n    tag_240:\n      dup1\n      iszero\n      tag_241\n      jumpi\n      dup1\n      0x1f\n      lt\n      tag_242\n      jumpi\n      0x0100\n      dup1\n      dup4\n      sload\n      div\n      mul\n      dup4\n      mstore\n      swap2\n      0x20\n      add\n      swap2\n      jump(tag_241)\n    tag_242:\n      dup3\n      add\n      swap2\n      swap1\n      0x00\n      mstore\n      keccak256(0x00, 0x20)\n      swap1\n    tag_243:\n      dup2\n      sload\n      dup2\n      mstore\n      swap1\n      0x01\n      add\n      swap1\n      0x20\n      add\n      dup1\n      dup4\n      gt\n      tag_243\n      jumpi\n      dup3\n      swap1\n      sub\n      0x1f\n      and\n      dup3\n      add\n      swap2\n    tag_241:\n      pop\n      pop\n      pop\n      pop\n      pop\n      swap1\n      pop\n        /* \"contracts/Distribution/WrappedERC20Token.sol\":2259:2352  function symbol() public view virtual returns (string memory) {... */\n      swap1\n      jump\t// out\n        /* \"contracts/Distribution/AtlantisDistribution.sol\":1380:1820  function mint(uint256 amount) external onlyOwner {... */\n    tag_88:\n        /* \"@openzeppelin/contracts/access/Ownable.sol\":1196:1208  _msgSender() */\n      tag_245\n        /* \"@openzeppelin/contracts/access/Ownable.sol\":1196:1206  _msgSender */\n      tag_119\n        /* \"@openzeppelin/contracts/access/Ownable.sol\":1196:1208  _msgSender() */\n      jump\t// in\n    tag_245:\n        /* \"@openzeppelin/contracts/access/Ownable.sol\":1185:1208  owner() == _msgSender() */\n      0xffffffffffffffffffffffffffffffffffffffff\n      and\n        /* \"@openzeppelin/contracts/access/Ownable.sol\":1185:1192  owner() */\n      tag_246\n        /* \"@openzeppelin/contracts/access/Ownable.sol\":1185:1190  owner */\n      tag_80\n        /* \"@openzeppelin/contracts/access/Ownable.sol\":1185:1192  owner() */\n      jump\t// in\n    tag_246:\n        /* \"@openzeppelin/contracts/access/Ownable.sol\":1185:1208  owner() == _msgSender() */\n      0xffffffffffffffffffffffffffffffffffffffff\n      and\n      eq\n        /* \"@openzeppelin/contracts/access/Ownable.sol\":1177:1245  require(owner() == _msgSender(), \"Ownable: caller is not the owner\") */\n      tag_247\n      jumpi\n      mload(0x40)\n      0x08c379a000000000000000000000000000000000000000000000000000000000\n      dup2\n      mstore\n      0x04\n      add\n      tag_248\n      swap1\n      tag_139\n      jump\t// in\n    tag_248:\n      mload(0x40)\n      dup1\n      swap2\n      sub\n      swap1\n      revert\n    tag_247:\n        /* \"contracts/Distribution/AtlantisDistribution.sol\":1455:1456  0 */\n      0x00\n        /* \"contracts/Distribution/AtlantisDistribution.sol\":1443:1448  total */\n      0x0a\n        /* \"contracts/Distribution/AtlantisDistribution.sol\":1449:1450  2 */\n      0x02\n        /* \"contracts/Distribution/AtlantisDistribution.sol\":1443:1451  total[2] */\n      dup2\n      sload\n      dup2\n      lt\n      tag_250\n      jumpi\n      tag_251\n      tag_125\n      jump\t// in\n    tag_251:\n    tag_250:\n      swap1\n      0x00\n      mstore\n      keccak256(0x00, 0x20)\n      add\n      sload\n        /* \"contracts/Distribution/AtlantisDistribution.sol\":1443:1456  total[2] != 0 */\n      eq\n        /* \"contracts/Distribution/AtlantisDistribution.sol\":1439:1551  if (total[2] != 0) {... */\n      tag_253\n      jumpi\n        /* \"contracts/Distribution/AtlantisDistribution.sol\":1504:1505  4 */\n      0x04\n        /* \"contracts/Distribution/AtlantisDistribution.sol\":1495:1501  amount */\n      dup2\n        /* \"contracts/Distribution/AtlantisDistribution.sol\":1495:1505  amount / 4 */\n      tag_254\n      swap2\n      swap1\n      tag_130\n      jump\t// in\n    tag_254:\n        /* \"contracts/Distribution/AtlantisDistribution.sol\":1484:1489  total */\n      0x0a\n        /* \"contracts/Distribution/AtlantisDistribution.sol\":1490:1491  2 */\n      0x02\n        /* \"contracts/Distribution/AtlantisDistribution.sol\":1484:1492  total[2] */\n      dup2\n      sload\n      dup2\n      lt\n      tag_255\n      jumpi\n      tag_256\n      tag_125\n      jump\t// in\n    tag_256:\n    tag_255:\n      swap1\n      0x00\n      mstore\n      keccak256(0x00, 0x20)\n      add\n      sload\n        /* \"contracts/Distribution/AtlantisDistribution.sol\":1484:1505  total[2] + amount / 4 */\n      tag_258\n      swap2\n      swap1\n      tag_145\n      jump\t// in\n    tag_258:\n        /* \"contracts/Distribution/AtlantisDistribution.sol\":1472:1476  cury */\n      0x09\n        /* \"contracts/Distribution/AtlantisDistribution.sol\":1477:1478  2 */\n      0x02\n        /* \"contracts/Distribution/AtlantisDistribution.sol\":1472:1479  cury[2] */\n      dup2\n      sload\n      dup2\n      lt\n      tag_259\n      jumpi\n      tag_260\n      tag_125\n      jump\t// in\n    tag_260:\n    tag_259:\n      swap1\n      0x00\n      mstore\n      keccak256(0x00, 0x20)\n      add\n      0x00\n        /* \"contracts/Distribution/AtlantisDistribution.sol\":1472:1506  cury[2] *= (total[2] + amount / 4) */\n      dup3\n      dup3\n      sload\n      tag_262\n      swap2\n      swap1\n      tag_128\n      jump\t// in\n    tag_262:\n      swap3\n      pop\n      pop\n      dup2\n      swap1\n      sstore\n      pop\n        /* \"contracts/Distribution/AtlantisDistribution.sol\":1532:1537  total */\n      0x0a\n        /* \"contracts/Distribution/AtlantisDistribution.sol\":1538:1539  2 */\n      0x02\n        /* \"contracts/Distribution/AtlantisDistribution.sol\":1532:1540  total[2] */\n      dup2\n      sload\n      dup2\n      lt\n      tag_263\n      jumpi\n      tag_264\n      tag_125\n      jump\t// in\n    tag_264:\n    tag_263:\n      swap1\n      0x00\n      mstore\n      keccak256(0x00, 0x20)\n      add\n      sload\n        /* \"contracts/Distribution/AtlantisDistribution.sol\":1520:1524  cury */\n      0x09\n        /* \"contracts/Distribution/AtlantisDistribution.sol\":1525:1526  2 */\n      0x02\n        /* \"contracts/Distribution/AtlantisDistribution.sol\":1520:1527  cury[2] */\n      dup2\n      sload\n      dup2\n      lt\n      tag_266\n      jumpi\n      tag_267\n      tag_125\n      jump\t// in\n    tag_267:\n    tag_266:\n      swap1\n      0x00\n      mstore\n      keccak256(0x00, 0x20)\n      add\n      0x00\n        /* \"contracts/Distribution/AtlantisDistribution.sol\":1520:1540  cury[2] /=  total[2] */\n      dup3\n      dup3\n      sload\n      tag_269\n      swap2\n      swap1\n      tag_130\n      jump\t// in\n    tag_269:\n      swap3\n      pop\n      pop\n      dup2\n      swap1\n      sstore\n      pop\n        /* \"contracts/Distribution/AtlantisDistribution.sol\":1439:1551  if (total[2] != 0) {... */\n    tag_253:\n        /* \"contracts/Distribution/AtlantisDistribution.sol\":1576:1577  0 */\n      0x00\n        /* \"contracts/Distribution/AtlantisDistribution.sol\":1564:1569  total */\n      0x0a\n        /* \"contracts/Distribution/AtlantisDistribution.sol\":1570:1571  1 */\n      0x01\n        /* \"contracts/Distribution/AtlantisDistribution.sol\":1564:1572  total[1] */\n      dup2\n      sload\n      dup2\n      lt\n      tag_270\n      jumpi\n      tag_271\n      tag_125\n      jump\t// in\n    tag_271:\n    tag_270:\n      swap1\n      0x00\n      mstore\n      keccak256(0x00, 0x20)\n      add\n      sload\n        /* \"contracts/Distribution/AtlantisDistribution.sol\":1564:1577  total[1] != 0 */\n      eq\n        /* \"contracts/Distribution/AtlantisDistribution.sol\":1560:1671  if (total[1] != 0) {... */\n      tag_273\n      jumpi\n        /* \"contracts/Distribution/AtlantisDistribution.sol\":1625:1626  4 */\n      0x04\n        /* \"contracts/Distribution/AtlantisDistribution.sol\":1616:1622  amount */\n      dup2\n        /* \"contracts/Distribution/AtlantisDistribution.sol\":1616:1626  amount / 4 */\n      tag_274\n      swap2\n      swap1\n      tag_130\n      jump\t// in\n    tag_274:\n        /* \"contracts/Distribution/AtlantisDistribution.sol\":1605:1610  total */\n      0x0a\n        /* \"contracts/Distribution/AtlantisDistribution.sol\":1611:1612  1 */\n      0x01\n        /* \"contracts/Distribution/AtlantisDistribution.sol\":1605:1613  total[1] */\n      dup2\n      sload\n      dup2\n      lt\n      tag_275\n      jumpi\n      tag_276\n      tag_125\n      jump\t// in\n    tag_276:\n    tag_275:\n      swap1\n      0x00\n      mstore\n      keccak256(0x00, 0x20)\n      add\n      sload\n        /* \"contracts/Distribution/AtlantisDistribution.sol\":1605:1626  total[1] + amount / 4 */\n      tag_278\n      swap2\n      swap1\n      tag_145\n      jump\t// in\n    tag_278:\n        /* \"contracts/Distribution/AtlantisDistribution.sol\":1593:1597  cury */\n      0x09\n        /* \"contracts/Distribution/AtlantisDistribution.sol\":1598:1599  1 */\n      0x01\n        /* \"contracts/Distribution/AtlantisDistribution.sol\":1593:1600  cury[1] */\n      dup2\n      sload\n      dup2\n      lt\n      tag_279\n      jumpi\n      tag_280\n      tag_125\n      jump\t// in\n    tag_280:\n    tag_279:\n      swap1\n      0x00\n      mstore\n      keccak256(0x00, 0x20)\n      add\n      0x00\n        /* \"contracts/Distribution/AtlantisDistribution.sol\":1593:1627  cury[1] *= (total[1] + amount / 4) */\n      dup3\n      dup3\n      sload\n      tag_282\n      swap2\n      swap1\n      tag_128\n      jump\t// in\n    tag_282:\n      swap3\n      pop\n      pop\n      dup2\n      swap1\n      sstore\n      pop\n        /* \"contracts/Distribution/AtlantisDistribution.sol\":1652:1657  total */\n      0x0a\n        /* \"contracts/Distribution/AtlantisDistribution.sol\":1658:1659  1 */\n      0x01\n        /* \"contracts/Distribution/AtlantisDistribution.sol\":1652:1660  total[1] */\n      dup2\n      sload\n      dup2\n      lt\n      tag_283\n      jumpi\n      tag_284\n      tag_125\n      jump\t// in\n    tag_284:\n    tag_283:\n      swap1\n      0x00\n      mstore\n      keccak256(0x00, 0x20)\n      add\n      sload\n        /* \"contracts/Distribution/AtlantisDistribution.sol\":1641:1645  cury */\n      0x09\n        /* \"contracts/Distribution/AtlantisDistribution.sol\":1646:1647  1 */\n      0x01\n        /* \"contracts/Distribution/AtlantisDistribution.sol\":1641:1648  cury[1] */\n      dup2\n      sload\n      dup2\n      lt\n      tag_286\n      jumpi\n      tag_287\n      tag_125\n      jump\t// in\n    tag_287:\n    tag_286:\n      swap1\n      0x00\n      mstore\n      keccak256(0x00, 0x20)\n      add\n      0x00\n        /* \"contracts/Distribution/AtlantisDistribution.sol\":1641:1660  cury[1] /= total[1] */\n      dup3\n      dup3\n      sload\n      tag_289\n      swap2\n      swap1\n      tag_130\n      jump\t// in\n    tag_289:\n      swap3\n      pop\n      pop\n      dup2\n      swap1\n      sstore\n      pop\n        /* \"contracts/Distribution/AtlantisDistribution.sol\":1560:1671  if (total[1] != 0) {... */\n    tag_273:\n        /* \"contracts/Distribution/AtlantisDistribution.sol\":1715:1716  2 */\n      0x02\n        /* \"contracts/Distribution/AtlantisDistribution.sol\":1706:1712  amount */\n      dup2\n        /* \"contracts/Distribution/AtlantisDistribution.sol\":1706:1716  amount / 2 */\n      tag_290\n      swap2\n      swap1\n      tag_130\n      jump\t// in\n    tag_290:\n        /* \"contracts/Distribution/AtlantisDistribution.sol\":1680:1689  _balances */\n      0x00\n        /* \"contracts/Distribution/AtlantisDistribution.sol\":1680:1702  _balances[fund_wallet] */\n      dup1\n        /* \"contracts/Distribution/AtlantisDistribution.sol\":1690:1701  fund_wallet */\n      0x0b\n      0x00\n      swap1\n      sload\n      swap1\n      0x0100\n      exp\n      swap1\n      div\n      0xffffffffffffffffffffffffffffffffffffffff\n      and\n        /* \"contracts/Distribution/AtlantisDistribution.sol\":1680:1702  _balances[fund_wallet] */\n      0xffffffffffffffffffffffffffffffffffffffff\n      and\n      0xffffffffffffffffffffffffffffffffffffffff\n      and\n      dup2\n      mstore\n      0x20\n      add\n      swap1\n      dup2\n      mstore\n      0x20\n      add\n      0x00\n      keccak256\n      0x00\n        /* \"contracts/Distribution/AtlantisDistribution.sol\":1680:1716  _balances[fund_wallet] += amount / 2 */\n      dup3\n      dup3\n      sload\n      tag_291\n      swap2\n      swap1\n      tag_145\n      jump\t// in\n    tag_291:\n      swap3\n      pop\n      pop\n      dup2\n      swap1\n      sstore\n      pop\n        /* \"contracts/Distribution/AtlantisDistribution.sol\":1747:1748  4 */\n      0x04\n        /* \"contracts/Distribution/AtlantisDistribution.sol\":1738:1744  amount */\n      dup2\n        /* \"contracts/Distribution/AtlantisDistribution.sol\":1738:1748  amount / 4 */\n      tag_292\n      swap2\n      swap1\n      tag_130\n      jump\t// in\n    tag_292:\n        /* \"contracts/Distribution/AtlantisDistribution.sol\":1726:1731  total */\n      0x0a\n        /* \"contracts/Distribution/AtlantisDistribution.sol\":1732:1733  1 */\n      0x01\n        /* \"contracts/Distribution/AtlantisDistribution.sol\":1726:1734  total[1] */\n      dup2\n      sload\n      dup2\n      lt\n      tag_293\n      jumpi\n      tag_294\n      tag_125\n      jump\t// in\n    tag_294:\n    tag_293:\n      swap1\n      0x00\n      mstore\n      keccak256(0x00, 0x20)\n      add\n      0x00\n        /* \"contracts/Distribution/AtlantisDistribution.sol\":1726:1748  total[1] += amount / 4 */\n      dup3\n      dup3\n      sload\n      tag_296\n      swap2\n      swap1\n      tag_145\n      jump\t// in\n    tag_296:\n      swap3\n      pop\n      pop\n      dup2\n      swap1\n      sstore\n      pop\n        /* \"contracts/Distribution/AtlantisDistribution.sol\":1779:1780  4 */\n      0x04\n        /* \"contracts/Distribution/AtlantisDistribution.sol\":1770:1776  amount */\n      dup2\n        /* \"contracts/Distribution/AtlantisDistribution.sol\":1770:1780  amount / 4 */\n      tag_297\n      swap2\n      swap1\n      tag_130\n      jump\t// in\n    tag_297:\n        /* \"contracts/Distribution/AtlantisDistribution.sol\":1758:1763  total */\n      0x0a\n        /* \"contracts/Distribution/AtlantisDistribution.sol\":1764:1765  2 */\n      0x02\n        /* \"contracts/Distribution/AtlantisDistribution.sol\":1758:1766  total[2] */\n      dup2\n      sload\n      dup2\n      lt\n      tag_298\n      jumpi\n      tag_299\n      tag_125\n      jump\t// in\n    tag_299:\n    tag_298:\n      swap1\n      0x00\n      mstore\n      keccak256(0x00, 0x20)\n      add\n      0x00\n        /* \"contracts/Distribution/AtlantisDistribution.sol\":1758:1780  total[2] += amount / 4 */\n      dup3\n      dup3\n      sload\n      tag_301\n      swap2\n      swap1\n      tag_145\n      jump\t// in\n    tag_301:\n      swap3\n      pop\n      pop\n      dup2\n      swap1\n      sstore\n      pop\n        /* \"contracts/Distribution/AtlantisDistribution.sol\":1807:1813  amount */\n      dup1\n        /* \"contracts/Distribution/AtlantisDistribution.sol\":1791:1803  _totalSupply */\n      0x02\n      0x00\n        /* \"contracts/Distribution/AtlantisDistribution.sol\":1791:1813  _totalSupply += amount */\n      dup3\n      dup3\n      sload\n      tag_302\n      swap2\n      swap1\n      tag_145\n      jump\t// in\n    tag_302:\n      swap3\n      pop\n      pop\n      dup2\n      swap1\n      sstore\n      pop\n        /* \"contracts/Distribution/AtlantisDistribution.sol\":1380:1820  function mint(uint256 amount) external onlyOwner {... */\n      pop\n      jump\t// out\n        /* \"contracts/Distribution/AtlantisDistribution.sol\":2171:2471  function changeLvl(address account, uint8 newLvl) external onlyOwner {... */\n    tag_92:\n        /* \"@openzeppelin/contracts/access/Ownable.sol\":1196:1208  _msgSender() */\n      tag_304\n        /* \"@openzeppelin/contracts/access/Ownable.sol\":1196:1206  _msgSender */\n      tag_119\n        /* \"@openzeppelin/contracts/access/Ownable.sol\":1196:1208  _msgSender() */\n      jump\t// in\n    tag_304:\n        /* \"@openzeppelin/contracts/access/Ownable.sol\":1185:1208  owner() == _msgSender() */\n      0xffffffffffffffffffffffffffffffffffffffff\n      and\n        /* \"@openzeppelin/contracts/access/Ownable.sol\":1185:1192  owner() */\n      tag_305\n        /* \"@openzeppelin/contracts/access/Ownable.sol\":1185:1190  owner */\n      tag_80\n        /* \"@openzeppelin/contracts/access/Ownable.sol\":1185:1192  owner() */\n      jump\t// in\n    tag_305:\n        /* \"@openzeppelin/contracts/access/Ownable.sol\":1185:1208  owner() == _msgSender() */\n      0xffffffffffffffffffffffffffffffffffffffff\n      and\n      eq\n        /* \"@openzeppelin/contracts/access/Ownable.sol\":1177:1245  require(owner() == _msgSender(), \"Ownable: caller is not the owner\") */\n      tag_306\n      jumpi\n      mload(0x40)\n      0x08c379a000000000000000000000000000000000000000000000000000000000\n      dup2\n      mstore\n      0x04\n      add\n      tag_307\n      swap1\n      tag_139\n      jump\t// in\n    tag_307:\n      mload(0x40)\n      dup1\n      swap2\n      sub\n      swap1\n      revert\n    tag_306:\n        /* \"contracts/Distribution/AtlantisDistribution.sol\":2250:2271  relaxBalance(account) */\n      tag_309\n        /* \"contracts/Distribution/AtlantisDistribution.sol\":2263:2270  account */\n      dup3\n        /* \"contracts/Distribution/AtlantisDistribution.sol\":2250:2262  relaxBalance */\n      tag_40\n        /* \"contracts/Distribution/AtlantisDistribution.sol\":2250:2271  relaxBalance(account) */\n      jump\t// in\n    tag_309:\n        /* \"contracts/Distribution/AtlantisDistribution.sol\":2281:2293  uint8 oldLvl */\n      0x00\n        /* \"contracts/Distribution/AtlantisDistribution.sol\":2296:2299  lvl */\n      0x07\n        /* \"contracts/Distribution/AtlantisDistribution.sol\":2296:2308  lvl[account] */\n      0x00\n        /* \"contracts/Distribution/AtlantisDistribution.sol\":2300:2307  account */\n      dup5\n        /* \"contracts/Distribution/AtlantisDistribution.sol\":2296:2308  lvl[account] */\n      0xffffffffffffffffffffffffffffffffffffffff\n      and\n      0xffffffffffffffffffffffffffffffffffffffff\n      and\n      dup2\n      mstore\n      0x20\n      add\n      swap1\n      dup2\n      mstore\n      0x20\n      add\n      0x00\n      keccak256\n      0x00\n      swap1\n      sload\n      swap1\n      0x0100\n      exp\n      swap1\n      div\n      0xff\n      and\n        /* \"contracts/Distribution/AtlantisDistribution.sol\":2281:2308  uint8 oldLvl = lvl[account] */\n      swap1\n      pop\n        /* \"contracts/Distribution/AtlantisDistribution.sol\":2333:2339  newLvl */\n      dup2\n        /* \"contracts/Distribution/AtlantisDistribution.sol\":2318:2321  lvl */\n      0x07\n        /* \"contracts/Distribution/AtlantisDistribution.sol\":2318:2330  lvl[account] */\n      0x00\n        /* \"contracts/Distribution/AtlantisDistribution.sol\":2322:2329  account */\n      dup6\n        /* \"contracts/Distribution/AtlantisDistribution.sol\":2318:2330  lvl[account] */\n      0xffffffffffffffffffffffffffffffffffffffff\n      and\n      0xffffffffffffffffffffffffffffffffffffffff\n      and\n      dup2\n      mstore\n      0x20\n      add\n      swap1\n      dup2\n      mstore\n      0x20\n      add\n      0x00\n      keccak256\n      0x00\n        /* \"contracts/Distribution/AtlantisDistribution.sol\":2318:2339  lvl[account] = newLvl */\n      0x0100\n      exp\n      dup2\n      sload\n      dup2\n      0xff\n      mul\n      not\n      and\n      swap1\n      dup4\n      0xff\n      and\n      mul\n      or\n      swap1\n      sstore\n      pop\n        /* \"contracts/Distribution/AtlantisDistribution.sol\":2366:2375  _balances */\n      0x00\n        /* \"contracts/Distribution/AtlantisDistribution.sol\":2366:2384  _balances[account] */\n      dup1\n        /* \"contracts/Distribution/AtlantisDistribution.sol\":2376:2383  account */\n      dup5\n        /* \"contracts/Distribution/AtlantisDistribution.sol\":2366:2384  _balances[account] */\n      0xffffffffffffffffffffffffffffffffffffffff\n      and\n      0xffffffffffffffffffffffffffffffffffffffff\n      and\n      dup2\n      mstore\n      0x20\n      add\n      swap1\n      dup2\n      mstore\n      0x20\n      add\n      0x00\n      keccak256\n      sload\n        /* \"contracts/Distribution/AtlantisDistribution.sol\":2349:2354  total */\n      0x0a\n        /* \"contracts/Distribution/AtlantisDistribution.sol\":2355:2361  oldLvl */\n      dup3\n        /* \"contracts/Distribution/AtlantisDistribution.sol\":2349:2362  total[oldLvl] */\n      0xff\n      and\n      dup2\n      sload\n      dup2\n      lt\n      tag_310\n      jumpi\n      tag_311\n      tag_125\n      jump\t// in\n    tag_311:\n    tag_310:\n      swap1\n      0x00\n      mstore\n      keccak256(0x00, 0x20)\n      add\n      0x00\n        /* \"contracts/Distribution/AtlantisDistribution.sol\":2349:2384  total[oldLvl] -= _balances[account] */\n      dup3\n      dup3\n      sload\n      tag_313\n      swap2\n      swap1\n      tag_314\n      jump\t// in\n    tag_313:\n      swap3\n      pop\n      pop\n      dup2\n      swap1\n      sstore\n      pop\n        /* \"contracts/Distribution/AtlantisDistribution.sol\":2411:2420  _balances */\n      0x00\n        /* \"contracts/Distribution/AtlantisDistribution.sol\":2411:2429  _balances[account] */\n      dup1\n        /* \"contracts/Distribution/AtlantisDistribution.sol\":2421:2428  account */\n      dup5\n        /* \"contracts/Distribution/AtlantisDistribution.sol\":2411:2429  _balances[account] */\n      0xffffffffffffffffffffffffffffffffffffffff\n      and\n      0xffffffffffffffffffffffffffffffffffffffff\n      and\n      dup2\n      mstore\n      0x20\n      add\n      swap1\n      dup2\n      mstore\n      0x20\n      add\n      0x00\n      keccak256\n      sload\n        /* \"contracts/Distribution/AtlantisDistribution.sol\":2394:2399  total */\n      0x0a\n        /* \"contracts/Distribution/AtlantisDistribution.sol\":2400:2406  newLvl */\n      dup4\n        /* \"contracts/Distribution/AtlantisDistribution.sol\":2394:2407  total[newLvl] */\n      0xff\n      and\n      dup2\n      sload\n      dup2\n      lt\n      tag_315\n      jumpi\n      tag_316\n      tag_125\n      jump\t// in\n    tag_316:\n    tag_315:\n      swap1\n      0x00\n      mstore\n      keccak256(0x00, 0x20)\n      add\n      0x00\n        /* \"contracts/Distribution/AtlantisDistribution.sol\":2394:2429  total[newLvl] += _balances[account] */\n      dup3\n      dup3\n      sload\n      tag_318\n      swap2\n      swap1\n      tag_145\n      jump\t// in\n    tag_318:\n      swap3\n      pop\n      pop\n      dup2\n      swap1\n      sstore\n      pop\n        /* \"contracts/Distribution/AtlantisDistribution.sol\":2452:2456  cury */\n      0x09\n        /* \"contracts/Distribution/AtlantisDistribution.sol\":2457:2463  newLvl */\n      dup3\n        /* \"contracts/Distribution/AtlantisDistribution.sol\":2452:2464  cury[newLvl] */\n      0xff\n      and\n      dup2\n      sload\n      dup2\n      lt\n      tag_319\n      jumpi\n      tag_320\n      tag_125\n      jump\t// in\n    tag_320:\n    tag_319:\n      swap1\n      0x00\n      mstore\n      keccak256(0x00, 0x20)\n      add\n      sload\n        /* \"contracts/Distribution/AtlantisDistribution.sol\":2439:2440  y */\n      0x06\n        /* \"contracts/Distribution/AtlantisDistribution.sol\":2439:2449  y[account] */\n      0x00\n        /* \"contracts/Distribution/AtlantisDistribution.sol\":2441:2448  account */\n      dup6\n        /* \"contracts/Distribution/AtlantisDistribution.sol\":2439:2449  y[account] */\n      0xffffffffffffffffffffffffffffffffffffffff\n      and\n      0xffffffffffffffffffffffffffffffffffffffff\n      and\n      dup2\n      mstore\n      0x20\n      add\n      swap1\n      dup2\n      mstore\n      0x20\n      add\n      0x00\n      keccak256\n        /* \"contracts/Distribution/AtlantisDistribution.sol\":2439:2464  y[account] = cury[newLvl] */\n      dup2\n      swap1\n      sstore\n      pop\n        /* \"contracts/Distribution/AtlantisDistribution.sol\":2240:2471  {... */\n      pop\n        /* \"contracts/Distribution/AtlantisDistribution.sol\":2171:2471  function changeLvl(address account, uint8 newLvl) external onlyOwner {... */\n      pop\n      pop\n      jump\t// out\n        /* \"contracts/Distribution/WrappedERC20Token.sol\":6268:6639  function decreaseAllowance(address spender, uint256 subtractedValue) public virtual returns (bool) {... */\n    tag_95:\n        /* \"contracts/Distribution/WrappedERC20Token.sol\":6361:6365  bool */\n      0x00\n        /* \"contracts/Distribution/WrappedERC20Token.sol\":6377:6401  uint256 currentAllowance */\n      dup1\n        /* \"contracts/Distribution/WrappedERC20Token.sol\":6404:6415  _allowances */\n      0x01\n        /* \"contracts/Distribution/WrappedERC20Token.sol\":6404:6429  _allowances[_msgSender()] */\n      0x00\n        /* \"contracts/Distribution/WrappedERC20Token.sol\":6416:6428  _msgSender() */\n      tag_323\n        /* \"contracts/Distribution/WrappedERC20Token.sol\":6416:6426  _msgSender */\n      tag_119\n        /* \"contracts/Distribution/WrappedERC20Token.sol\":6416:6428  _msgSender() */\n      jump\t// in\n    tag_323:\n        /* \"contracts/Distribution/WrappedERC20Token.sol\":6404:6429  _allowances[_msgSender()] */\n      0xffffffffffffffffffffffffffffffffffffffff\n      and\n      0xffffffffffffffffffffffffffffffffffffffff\n      and\n      dup2\n      mstore\n      0x20\n      add\n      swap1\n      dup2\n      mstore\n      0x20\n      add\n      0x00\n      keccak256\n        /* \"contracts/Distribution/WrappedERC20Token.sol\":6404:6438  _allowances[_msgSender()][spender] */\n      0x00\n        /* \"contracts/Distribution/WrappedERC20Token.sol\":6430:6437  spender */\n      dup6\n        /* \"contracts/Distribution/WrappedERC20Token.sol\":6404:6438  _allowances[_msgSender()][spender] */\n      0xffffffffffffffffffffffffffffffffffffffff\n      and\n      0xffffffffffffffffffffffffffffffffffffffff\n      and\n      dup2\n      mstore\n      0x20\n      add\n      swap1\n      dup2\n      mstore\n      0x20\n      add\n      0x00\n      keccak256\n      sload\n        /* \"contracts/Distribution/WrappedERC20Token.sol\":6377:6438  uint256 currentAllowance = _allowances[_msgSender()][spender] */\n      swap1\n      pop\n        /* \"contracts/Distribution/WrappedERC20Token.sol\":6476:6491  subtractedValue */\n      dup3\n        /* \"contracts/Distribution/WrappedERC20Token.sol\":6456:6472  currentAllowance */\n      dup2\n        /* \"contracts/Distribution/WrappedERC20Token.sol\":6456:6491  currentAllowance >= subtractedValue */\n      lt\n      iszero\n        /* \"contracts/Distribution/WrappedERC20Token.sol\":6448:6533  require(currentAllowance >= subtractedValue, \"ERC20: decreased allowance below zero\") */\n      tag_324\n      jumpi\n      mload(0x40)\n      0x08c379a000000000000000000000000000000000000000000000000000000000\n      dup2\n      mstore\n      0x04\n      add\n      tag_325\n      swap1\n      tag_326\n      jump\t// in\n    tag_325:\n      mload(0x40)\n      dup1\n      swap2\n      sub\n      swap1\n      revert\n    tag_324:\n        /* \"contracts/Distribution/WrappedERC20Token.sol\":6543:6610  _approve(_msgSender(), spender, currentAllowance - subtractedValue) */\n      tag_327\n        /* \"contracts/Distribution/WrappedERC20Token.sol\":6552:6564  _msgSender() */\n      tag_328\n        /* \"contracts/Distribution/WrappedERC20Token.sol\":6552:6562  _msgSender */\n      tag_119\n        /* \"contracts/Distribution/WrappedERC20Token.sol\":6552:6564  _msgSender() */\n      jump\t// in\n    tag_328:\n        /* \"contracts/Distribution/WrappedERC20Token.sol\":6566:6573  spender */\n      dup6\n        /* \"contracts/Distribution/WrappedERC20Token.sol\":6594:6609  subtractedValue */\n      dup6\n        /* \"contracts/Distribution/WrappedERC20Token.sol\":6575:6591  currentAllowance */\n      dup5\n        /* \"contracts/Distribution/WrappedERC20Token.sol\":6575:6609  currentAllowance - subtractedValue */\n      tag_329\n      swap2\n      swap1\n      tag_314\n      jump\t// in\n    tag_329:\n        /* \"contracts/Distribution/WrappedERC20Token.sol\":6543:6551  _approve */\n      tag_120\n        /* \"contracts/Distribution/WrappedERC20Token.sol\":6543:6610  _approve(_msgSender(), spender, currentAllowance - subtractedValue) */\n      jump\t// in\n    tag_327:\n        /* \"contracts/Distribution/WrappedERC20Token.sol\":6628:6632  true */\n      0x01\n        /* \"contracts/Distribution/WrappedERC20Token.sol\":6621:6632  return true */\n      swap2\n      pop\n      pop\n        /* \"contracts/Distribution/WrappedERC20Token.sol\":6268:6639  function decreaseAllowance(address spender, uint256 subtractedValue) public virtual returns (bool) {... */\n      swap3\n      swap2\n      pop\n      pop\n      jump\t// out\n        /* \"contracts/Distribution/AtlantisDistribution.sol\":1826:2165  function transfer(address recipient, uint256 amount) public override returns (bool) {... */\n    tag_99:\n        /* \"contracts/Distribution/AtlantisDistribution.sol\":1904:1908  bool */\n      0x00\n        /* \"contracts/Distribution/AtlantisDistribution.sol\":1920:1934  address sender */\n      dup1\n        /* \"contracts/Distribution/AtlantisDistribution.sol\":1937:1949  _msgSender() */\n      tag_331\n        /* \"contracts/Distribution/AtlantisDistribution.sol\":1937:1947  _msgSender */\n      tag_119\n        /* \"contracts/Distribution/AtlantisDistribution.sol\":1937:1949  _msgSender() */\n      jump\t// in\n    tag_331:\n        /* \"contracts/Distribution/AtlantisDistribution.sol\":1920:1949  address sender = _msgSender() */\n      swap1\n      pop\n        /* \"contracts/Distribution/AtlantisDistribution.sol\":1959:1979  relaxBalance(sender) */\n      tag_332\n        /* \"contracts/Distribution/AtlantisDistribution.sol\":1972:1978  sender */\n      dup2\n        /* \"contracts/Distribution/AtlantisDistribution.sol\":1959:1971  relaxBalance */\n      tag_40\n        /* \"contracts/Distribution/AtlantisDistribution.sol\":1959:1979  relaxBalance(sender) */\n      jump\t// in\n    tag_332:\n        /* \"contracts/Distribution/AtlantisDistribution.sol\":1989:2012  relaxBalance(recipient) */\n      tag_333\n        /* \"contracts/Distribution/AtlantisDistribution.sol\":2002:2011  recipient */\n      dup5\n        /* \"contracts/Distribution/AtlantisDistribution.sol\":1989:2001  relaxBalance */\n      tag_40\n        /* \"contracts/Distribution/AtlantisDistribution.sol\":1989:2012  relaxBalance(recipient) */\n      jump\t// in\n    tag_333:\n        /* \"contracts/Distribution/AtlantisDistribution.sol\":2044:2050  amount */\n      dup3\n        /* \"contracts/Distribution/AtlantisDistribution.sol\":2022:2027  total */\n      0x0a\n        /* \"contracts/Distribution/AtlantisDistribution.sol\":2028:2031  lvl */\n      0x07\n        /* \"contracts/Distribution/AtlantisDistribution.sol\":2028:2039  lvl[sender] */\n      0x00\n        /* \"contracts/Distribution/AtlantisDistribution.sol\":2032:2038  sender */\n      dup5\n        /* \"contracts/Distribution/AtlantisDistribution.sol\":2028:2039  lvl[sender] */\n      0xffffffffffffffffffffffffffffffffffffffff\n      and\n      0xffffffffffffffffffffffffffffffffffffffff\n      and\n      dup2\n      mstore\n      0x20\n      add\n      swap1\n      dup2\n      mstore\n      0x20\n      add\n      0x00\n      keccak256\n      0x00\n      swap1\n      sload\n      swap1\n      0x0100\n      exp\n      swap1\n      div\n      0xff\n      and\n        /* \"contracts/Distribution/AtlantisDistribution.sol\":2022:2040  total[lvl[sender]] */\n      0xff\n      and\n      dup2\n      sload\n      dup2\n      lt\n      tag_334\n      jumpi\n      tag_335\n      tag_125\n      jump\t// in\n    tag_335:\n    tag_334:\n      swap1\n      0x00\n      mstore\n      keccak256(0x00, 0x20)\n      add\n      0x00\n        /* \"contracts/Distribution/AtlantisDistribution.sol\":2022:2050  total[lvl[sender]] -= amount */\n      dup3\n      dup3\n      sload\n      tag_337\n      swap2\n      swap1\n      tag_314\n      jump\t// in\n    tag_337:\n      swap3\n      pop\n      pop\n      dup2\n      swap1\n      sstore\n      pop\n        /* \"contracts/Distribution/AtlantisDistribution.sol\":2085:2091  amount */\n      dup3\n        /* \"contracts/Distribution/AtlantisDistribution.sol\":2060:2065  total */\n      0x0a\n        /* \"contracts/Distribution/AtlantisDistribution.sol\":2066:2069  lvl */\n      0x07\n        /* \"contracts/Distribution/AtlantisDistribution.sol\":2066:2080  lvl[recipient] */\n      0x00\n        /* \"contracts/Distribution/AtlantisDistribution.sol\":2070:2079  recipient */\n      dup8\n        /* \"contracts/Distribution/AtlantisDistribution.sol\":2066:2080  lvl[recipient] */\n      0xffffffffffffffffffffffffffffffffffffffff\n      and\n      0xffffffffffffffffffffffffffffffffffffffff\n      and\n      dup2\n      mstore\n      0x20\n      add\n      swap1\n      dup2\n      mstore\n      0x20\n      add\n      0x00\n      keccak256\n      0x00\n      swap1\n      sload\n      swap1\n      0x0100\n      exp\n      swap1\n      div\n      0xff\n      and\n        /* \"contracts/Distribution/AtlantisDistribution.sol\":2060:2081  total[lvl[recipient]] */\n      0xff\n      and\n      dup2\n      sload\n      dup2\n      lt\n      tag_338\n      jumpi\n      tag_339\n      tag_125\n      jump\t// in\n    tag_339:\n    tag_338:\n      swap1\n      0x00\n      mstore\n      keccak256(0x00, 0x20)\n      add\n      0x00\n        /* \"contracts/Distribution/AtlantisDistribution.sol\":2060:2091  total[lvl[recipient]] += amount */\n      dup3\n      dup3\n      sload\n      tag_341\n      swap2\n      swap1\n      tag_145\n      jump\t// in\n    tag_341:\n      swap3\n      pop\n      pop\n      dup2\n      swap1\n      sstore\n      pop\n        /* \"contracts/Distribution/AtlantisDistribution.sol\":2101:2137  _transfer(sender, recipient, amount) */\n      tag_342\n        /* \"contracts/Distribution/AtlantisDistribution.sol\":2111:2117  sender */\n      dup2\n        /* \"contracts/Distribution/AtlantisDistribution.sol\":2119:2128  recipient */\n      dup6\n        /* \"contracts/Distribution/AtlantisDistribution.sol\":2130:2136  amount */\n      dup6\n        /* \"contracts/Distribution/AtlantisDistribution.sol\":2101:2110  _transfer */\n      tag_343\n        /* \"contracts/Distribution/AtlantisDistribution.sol\":2101:2137  _transfer(sender, recipient, amount) */\n      jump\t// in\n    tag_342:\n        /* \"contracts/Distribution/AtlantisDistribution.sol\":2154:2158  true */\n      0x01\n        /* \"contracts/Distribution/AtlantisDistribution.sol\":2147:2158  return true */\n      swap2\n      pop\n      pop\n        /* \"contracts/Distribution/AtlantisDistribution.sol\":1826:2165  function transfer(address recipient, uint256 amount) public override returns (bool) {... */\n      swap3\n      swap2\n      pop\n      pop\n      jump\t// out\n        /* \"contracts/Distribution/WrappedERC20Token.sol\":3840:3989  function allowance(address owner, address spender) public view virtual override returns (uint256) {... */\n    tag_104:\n        /* \"contracts/Distribution/WrappedERC20Token.sol\":3929:3936  uint256 */\n      0x00\n        /* \"contracts/Distribution/WrappedERC20Token.sol\":3955:3966  _allowances */\n      0x01\n        /* \"contracts/Distribution/WrappedERC20Token.sol\":3955:3973  _allowances[owner] */\n      0x00\n        /* \"contracts/Distribution/WrappedERC20Token.sol\":3967:3972  owner */\n      dup5\n        /* \"contracts/Distribution/WrappedERC20Token.sol\":3955:3973  _allowances[owner] */\n      0xffffffffffffffffffffffffffffffffffffffff\n      and\n      0xffffffffffffffffffffffffffffffffffffffff\n      and\n      dup2\n      mstore\n      0x20\n      add\n      swap1\n      dup2\n      mstore\n      0x20\n      add\n      0x00\n      keccak256\n        /* \"contracts/Distribution/WrappedERC20Token.sol\":3955:3982  _allowances[owner][spender] */\n      0x00\n        /* \"contracts/Distribution/WrappedERC20Token.sol\":3974:3981  spender */\n      dup4\n        /* \"contracts/Distribution/WrappedERC20Token.sol\":3955:3982  _allowances[owner][spender] */\n      0xffffffffffffffffffffffffffffffffffffffff\n      and\n      0xffffffffffffffffffffffffffffffffffffffff\n      and\n      dup2\n      mstore\n      0x20\n      add\n      swap1\n      dup2\n      mstore\n      0x20\n      add\n      0x00\n      keccak256\n      sload\n        /* \"contracts/Distribution/WrappedERC20Token.sol\":3948:3982  return _allowances[owner][spender] */\n      swap1\n      pop\n        /* \"contracts/Distribution/WrappedERC20Token.sol\":3840:3989  function allowance(address owner, address spender) public view virtual override returns (uint256) {... */\n      swap3\n      swap2\n      pop\n      pop\n      jump\t// out\n        /* \"@openzeppelin/contracts/access/Ownable.sol\":1846:2035  function transferOwnership(address newOwner) public virtual onlyOwner {... */\n    tag_108:\n        /* \"@openzeppelin/contracts/access/Ownable.sol\":1196:1208  _msgSender() */\n      tag_346\n        /* \"@openzeppelin/contracts/access/Ownable.sol\":1196:1206  _msgSender */\n      tag_119\n        /* \"@openzeppelin/contracts/access/Ownable.sol\":1196:1208  _msgSender() */\n      jump\t// in\n    tag_346:\n        /* \"@openzeppelin/contracts/access/Ownable.sol\":1185:1208  owner() == _msgSender() */\n      0xffffffffffffffffffffffffffffffffffffffff\n      and\n        /* \"@openzeppelin/contracts/access/Ownable.sol\":1185:1192  owner() */\n      tag_347\n        /* \"@openzeppelin/contracts/access/Ownable.sol\":1185:1190  owner */\n      tag_80\n        /* \"@openzeppelin/contracts/access/Ownable.sol\":1185:1192  owner() */\n      jump\t// in\n    tag_347:\n        /* \"@openzeppelin/contracts/access/Ownable.sol\":1185:1208  owner() == _msgSender() */\n      0xffffffffffffffffffffffffffffffffffffffff\n      and\n      eq\n        /* \"@openzeppelin/contracts/access/Ownable.sol\":1177:1245  require(owner() == _msgSender(), \"Ownable: caller is not the owner\") */\n      tag_348\n      jumpi\n      mload(0x40)\n      0x08c379a000000000000000000000000000000000000000000000000000000000\n      dup2\n      mstore\n      0x04\n      add\n      tag_349\n      swap1\n      tag_139\n      jump\t// in\n    tag_349:\n      mload(0x40)\n      dup1\n      swap2\n      sub\n      swap1\n      revert\n    tag_348:\n        /* \"@openzeppelin/contracts/access/Ownable.sol\":1954:1955  0 */\n      0x00\n        /* \"@openzeppelin/contracts/access/Ownable.sol\":1934:1956  newOwner != address(0) */\n      0xffffffffffffffffffffffffffffffffffffffff\n      and\n        /* \"@openzeppelin/contracts/access/Ownable.sol\":1934:1942  newOwner */\n      dup2\n        /* \"@openzeppelin/contracts/access/Ownable.sol\":1934:1956  newOwner != address(0) */\n      0xffffffffffffffffffffffffffffffffffffffff\n      and\n      eq\n      iszero\n        /* \"@openzeppelin/contracts/access/Ownable.sol\":1926:1999  require(newOwner != address(0), \"Ownable: new owner is the zero address\") */\n      tag_351\n      jumpi\n      mload(0x40)\n      0x08c379a000000000000000000000000000000000000000000000000000000000\n      dup2\n      mstore\n      0x04\n      add\n      tag_352\n      swap1\n      tag_353\n      jump\t// in\n    tag_352:\n      mload(0x40)\n      dup1\n      swap2\n      sub\n      swap1\n      revert\n    tag_351:\n        /* \"@openzeppelin/contracts/access/Ownable.sol\":2009:2028  _setOwner(newOwner) */\n      tag_354\n        /* \"@openzeppelin/contracts/access/Ownable.sol\":2019:2027  newOwner */\n      dup2\n        /* \"@openzeppelin/contracts/access/Ownable.sol\":2009:2018  _setOwner */\n      tag_236\n        /* \"@openzeppelin/contracts/access/Ownable.sol\":2009:2028  _setOwner(newOwner) */\n      jump\t// in\n    tag_354:\n        /* \"@openzeppelin/contracts/access/Ownable.sol\":1846:2035  function transferOwnership(address newOwner) public virtual onlyOwner {... */\n      pop\n      jump\t// out\n        /* \"@openzeppelin/contracts/utils/Context.sol\":587:683  function _msgSender() internal view virtual returns (address) {... */\n    tag_119:\n        /* \"@openzeppelin/contracts/utils/Context.sol\":640:647  address */\n      0x00\n        /* \"@openzeppelin/contracts/utils/Context.sol\":666:676  msg.sender */\n      caller\n        /* \"@openzeppelin/contracts/utils/Context.sol\":659:676  return msg.sender */\n      swap1\n      pop\n        /* \"@openzeppelin/contracts/utils/Context.sol\":587:683  function _msgSender() internal view virtual returns (address) {... */\n      swap1\n      jump\t// out\n        /* \"contracts/Distribution/WrappedERC20Token.sol\":9532:9872  function _approve(address owner, address spender, uint256 amount) internal virtual {... */\n    tag_120:\n        /* \"contracts/Distribution/WrappedERC20Token.sol\":9650:9651  0 */\n      0x00\n        /* \"contracts/Distribution/WrappedERC20Token.sol\":9633:9652  owner != address(0) */\n      0xffffffffffffffffffffffffffffffffffffffff\n      and\n        /* \"contracts/Distribution/WrappedERC20Token.sol\":9633:9638  owner */\n      dup4\n        /* \"contracts/Distribution/WrappedERC20Token.sol\":9633:9652  owner != address(0) */\n      0xffffffffffffffffffffffffffffffffffffffff\n      and\n      eq\n      iszero\n        /* \"contracts/Distribution/WrappedERC20Token.sol\":9625:9693  require(owner != address(0), \"ERC20: approve from the zero address\") */\n      tag_357\n      jumpi\n      mload(0x40)\n      0x08c379a000000000000000000000000000000000000000000000000000000000\n      dup2\n      mstore\n      0x04\n      add\n      tag_358\n      swap1\n      tag_359\n      jump\t// in\n    tag_358:\n      mload(0x40)\n      dup1\n      swap2\n      sub\n      swap1\n      revert\n    tag_357:\n        /* \"contracts/Distribution/WrappedERC20Token.sol\":9730:9731  0 */\n      0x00\n        /* \"contracts/Distribution/WrappedERC20Token.sol\":9711:9732  spender != address(0) */\n      0xffffffffffffffffffffffffffffffffffffffff\n      and\n        /* \"contracts/Distribution/WrappedERC20Token.sol\":9711:9718  spender */\n      dup3\n        /* \"contracts/Distribution/WrappedERC20Token.sol\":9711:9732  spender != address(0) */\n      0xffffffffffffffffffffffffffffffffffffffff\n      and\n      eq\n      iszero\n        /* \"contracts/Distribution/WrappedERC20Token.sol\":9703:9771  require(spender != address(0), \"ERC20: approve to the zero address\") */\n      tag_360\n      jumpi\n      mload(0x40)\n      0x08c379a000000000000000000000000000000000000000000000000000000000\n      dup2\n      mstore\n      0x04\n      add\n      tag_361\n      swap1\n      tag_362\n      jump\t// in\n    tag_361:\n      mload(0x40)\n      dup1\n      swap2\n      sub\n      swap1\n      revert\n    tag_360:\n        /* \"contracts/Distribution/WrappedERC20Token.sol\":9812:9818  amount */\n      dup1\n        /* \"contracts/Distribution/WrappedERC20Token.sol\":9782:9793  _allowances */\n      0x01\n        /* \"contracts/Distribution/WrappedERC20Token.sol\":9782:9800  _allowances[owner] */\n      0x00\n        /* \"contracts/Distribution/WrappedERC20Token.sol\":9794:9799  owner */\n      dup6\n        /* \"contracts/Distribution/WrappedERC20Token.sol\":9782:9800  _allowances[owner] */\n      0xffffffffffffffffffffffffffffffffffffffff\n      and\n      0xffffffffffffffffffffffffffffffffffffffff\n      and\n      dup2\n      mstore\n      0x20\n      add\n      swap1\n      dup2\n      mstore\n      0x20\n      add\n      0x00\n      keccak256\n        /* \"contracts/Distribution/WrappedERC20Token.sol\":9782:9809  _allowances[owner][spender] */\n      0x00\n        /* \"contracts/Distribution/WrappedERC20Token.sol\":9801:9808  spender */\n      dup5\n        /* \"contracts/Distribution/WrappedERC20Token.sol\":9782:9809  _allowances[owner][spender] */\n      0xffffffffffffffffffffffffffffffffffffffff\n      and\n      0xffffffffffffffffffffffffffffffffffffffff\n      and\n      dup2\n      mstore\n      0x20\n      add\n      swap1\n      dup2\n      mstore\n      0x20\n      add\n      0x00\n      keccak256\n        /* \"contracts/Distribution/WrappedERC20Token.sol\":9782:9818  _allowances[owner][spender] = amount */\n      dup2\n      swap1\n      sstore\n      pop\n        /* \"contracts/Distribution/WrappedERC20Token.sol\":9849:9856  spender */\n      dup2\n        /* \"contracts/Distribution/WrappedERC20Token.sol\":9833:9865  Approval(owner, spender, amount) */\n      0xffffffffffffffffffffffffffffffffffffffff\n      and\n        /* \"contracts/Distribution/WrappedERC20Token.sol\":9842:9847  owner */\n      dup4\n        /* \"contracts/Distribution/WrappedERC20Token.sol\":9833:9865  Approval(owner, spender, amount) */\n      0xffffffffffffffffffffffffffffffffffffffff\n      and\n      0x8c5be1e5ebec7d5bd14f71427d1e84f3dd0314c0f7b2291e5b200ac8c7c3b925\n        /* \"contracts/Distribution/WrappedERC20Token.sol\":9858:9864  amount */\n      dup4\n        /* \"contracts/Distribution/WrappedERC20Token.sol\":9833:9865  Approval(owner, spender, amount) */\n      mload(0x40)\n      tag_363\n      swap2\n      swap1\n      tag_50\n      jump\t// in\n    tag_363:\n      mload(0x40)\n      dup1\n      swap2\n      sub\n      swap1\n      log3\n        /* \"contracts/Distribution/WrappedERC20Token.sol\":9532:9872  function _approve(address owner, address spender, uint256 amount) internal virtual {... */\n      pop\n      pop\n      pop\n      jump\t// out\n        /* \"@openzeppelin/contracts/access/Ownable.sol\":2041:2210  function _setOwner(address newOwner) private {... */\n    tag_236:\n        /* \"@openzeppelin/contracts/access/Ownable.sol\":2096:2112  address oldOwner */\n      0x00\n        /* \"@openzeppelin/contracts/access/Ownable.sol\":2115:2121  _owner */\n      0x05\n      0x00\n      swap1\n      sload\n      swap1\n      0x0100\n      exp\n      swap1\n      div\n      0xffffffffffffffffffffffffffffffffffffffff\n      and\n        /* \"@openzeppelin/contracts/access/Ownable.sol\":2096:2121  address oldOwner = _owner */\n      swap1\n      pop\n        /* \"@openzeppelin/contracts/access/Ownable.sol\":2140:2148  newOwner */\n      dup2\n        /* \"@openzeppelin/contracts/access/Ownable.sol\":2131:2137  _owner */\n      0x05\n      0x00\n        /* \"@openzeppelin/contracts/access/Ownable.sol\":2131:2148  _owner = newOwner */\n      0x0100\n      exp\n      dup2\n      sload\n      dup2\n      0xffffffffffffffffffffffffffffffffffffffff\n      mul\n      not\n      and\n      swap1\n      dup4\n      0xffffffffffffffffffffffffffffffffffffffff\n      and\n      mul\n      or\n      swap1\n      sstore\n      pop\n        /* \"@openzeppelin/contracts/access/Ownable.sol\":2194:2202  newOwner */\n      dup2\n        /* \"@openzeppelin/contracts/access/Ownable.sol\":2163:2203  OwnershipTransferred(oldOwner, newOwner) */\n      0xffffffffffffffffffffffffffffffffffffffff\n      and\n        /* \"@openzeppelin/contracts/access/Ownable.sol\":2184:2192  oldOwner */\n      dup2\n        /* \"@openzeppelin/contracts/access/Ownable.sol\":2163:2203  OwnershipTransferred(oldOwner, newOwner) */\n      0xffffffffffffffffffffffffffffffffffffffff\n      and\n      0x8be0079c531659141344cd1fd0a4f28419497f9722a3daafe3b4186f6b6457e0\n      mload(0x40)\n      mload(0x40)\n      dup1\n      swap2\n      sub\n      swap1\n      log3\n        /* \"@openzeppelin/contracts/access/Ownable.sol\":2086:2210  {... */\n      pop\n        /* \"@openzeppelin/contracts/access/Ownable.sol\":2041:2210  function _setOwner(address newOwner) private {... */\n      pop\n      jump\t// out\n        /* \"contracts/Distribution/WrappedERC20Token.sol\":7113:7705  function _transfer(address sender, address recipient, uint256 amount) internal virtual {... */\n    tag_343:\n        /* \"contracts/Distribution/WrappedERC20Token.sol\":7236:7237  0 */\n      0x00\n        /* \"contracts/Distribution/WrappedERC20Token.sol\":7218:7238  sender != address(0) */\n      0xffffffffffffffffffffffffffffffffffffffff\n      and\n        /* \"contracts/Distribution/WrappedERC20Token.sol\":7218:7224  sender */\n      dup4\n        /* \"contracts/Distribution/WrappedERC20Token.sol\":7218:7238  sender != address(0) */\n      0xffffffffffffffffffffffffffffffffffffffff\n      and\n      eq\n      iszero\n        /* \"contracts/Distribution/WrappedERC20Token.sol\":7210:7280  require(sender != address(0), \"ERC20: transfer from the zero address\") */\n      tag_366\n      jumpi\n      mload(0x40)\n      0x08c379a000000000000000000000000000000000000000000000000000000000\n      dup2\n      mstore\n      0x04\n      add\n      tag_367\n      swap1\n      tag_368\n      jump\t// in\n    tag_367:\n      mload(0x40)\n      dup1\n      swap2\n      sub\n      swap1\n      revert\n    tag_366:\n        /* \"contracts/Distribution/WrappedERC20Token.sol\":7319:7320  0 */\n      0x00\n        /* \"contracts/Distribution/WrappedERC20Token.sol\":7298:7321  recipient != address(0) */\n      0xffffffffffffffffffffffffffffffffffffffff\n      and\n        /* \"contracts/Distribution/WrappedERC20Token.sol\":7298:7307  recipient */\n      dup3\n        /* \"contracts/Distribution/WrappedERC20Token.sol\":7298:7321  recipient != address(0) */\n      0xffffffffffffffffffffffffffffffffffffffff\n      and\n      eq\n      iszero\n        /* \"contracts/Distribution/WrappedERC20Token.sol\":7290:7361  require(recipient != address(0), \"ERC20: transfer to the zero address\") */\n      tag_369\n      jumpi\n      mload(0x40)\n      0x08c379a000000000000000000000000000000000000000000000000000000000\n      dup2\n      mstore\n      0x04\n      add\n      tag_370\n      swap1\n      tag_371\n      jump\t// in\n    tag_370:\n      mload(0x40)\n      dup1\n      swap2\n      sub\n      swap1\n      revert\n    tag_369:\n        /* \"contracts/Distribution/WrappedERC20Token.sol\":7372:7419  _beforeTokenTransfer(sender, recipient, amount) */\n      tag_372\n        /* \"contracts/Distribution/WrappedERC20Token.sol\":7393:7399  sender */\n      dup4\n        /* \"contracts/Distribution/WrappedERC20Token.sol\":7401:7410  recipient */\n      dup4\n        /* \"contracts/Distribution/WrappedERC20Token.sol\":7412:7418  amount */\n      dup4\n        /* \"contracts/Distribution/WrappedERC20Token.sol\":7372:7392  _beforeTokenTransfer */\n      tag_373\n        /* \"contracts/Distribution/WrappedERC20Token.sol\":7372:7419  _beforeTokenTransfer(sender, recipient, amount) */\n      jump\t// in\n    tag_372:\n        /* \"contracts/Distribution/WrappedERC20Token.sol\":7430:7451  uint256 senderBalance */\n      0x00\n        /* \"contracts/Distribution/WrappedERC20Token.sol\":7454:7463  _balances */\n      dup1\n        /* \"contracts/Distribution/WrappedERC20Token.sol\":7454:7471  _balances[sender] */\n      0x00\n        /* \"contracts/Distribution/WrappedERC20Token.sol\":7464:7470  sender */\n      dup6\n        /* \"contracts/Distribution/WrappedERC20Token.sol\":7454:7471  _balances[sender] */\n      0xffffffffffffffffffffffffffffffffffffffff\n      and\n      0xffffffffffffffffffffffffffffffffffffffff\n      and\n      dup2\n      mstore\n      0x20\n      add\n      swap1\n      dup2\n      mstore\n      0x20\n      add\n      0x00\n      keccak256\n      sload\n        /* \"contracts/Distribution/WrappedERC20Token.sol\":7430:7471  uint256 senderBalance = _balances[sender] */\n      swap1\n      pop\n        /* \"contracts/Distribution/WrappedERC20Token.sol\":7506:7512  amount */\n      dup2\n        /* \"contracts/Distribution/WrappedERC20Token.sol\":7489:7502  senderBalance */\n      dup2\n        /* \"contracts/Distribution/WrappedERC20Token.sol\":7489:7512  senderBalance >= amount */\n      lt\n      iszero\n        /* \"contracts/Distribution/WrappedERC20Token.sol\":7481:7555  require(senderBalance >= amount, \"ERC20: transfer amount exceeds balance\") */\n      tag_374\n      jumpi\n      mload(0x40)\n      0x08c379a000000000000000000000000000000000000000000000000000000000\n      dup2\n      mstore\n      0x04\n      add\n      tag_375\n      swap1\n      tag_376\n      jump\t// in\n    tag_375:\n      mload(0x40)\n      dup1\n      swap2\n      sub\n      swap1\n      revert\n    tag_374:\n        /* \"contracts/Distribution/WrappedERC20Token.sol\":7601:7607  amount */\n      dup2\n        /* \"contracts/Distribution/WrappedERC20Token.sol\":7585:7598  senderBalance */\n      dup2\n        /* \"contracts/Distribution/WrappedERC20Token.sol\":7585:7607  senderBalance - amount */\n      tag_377\n      swap2\n      swap1\n      tag_314\n      jump\t// in\n    tag_377:\n        /* \"contracts/Distribution/WrappedERC20Token.sol\":7565:7574  _balances */\n      0x00\n        /* \"contracts/Distribution/WrappedERC20Token.sol\":7565:7582  _balances[sender] */\n      dup1\n        /* \"contracts/Distribution/WrappedERC20Token.sol\":7575:7581  sender */\n      dup7\n        /* \"contracts/Distribution/WrappedERC20Token.sol\":7565:7582  _balances[sender] */\n      0xffffffffffffffffffffffffffffffffffffffff\n      and\n      0xffffffffffffffffffffffffffffffffffffffff\n      and\n      dup2\n      mstore\n      0x20\n      add\n      swap1\n      dup2\n      mstore\n      0x20\n      add\n      0x00\n      keccak256\n        /* \"contracts/Distribution/WrappedERC20Token.sol\":7565:7607  _balances[sender] = senderBalance - amount */\n      dup2\n      swap1\n      sstore\n      pop\n        /* \"contracts/Distribution/WrappedERC20Token.sol\":7641:7647  amount */\n      dup2\n        /* \"contracts/Distribution/WrappedERC20Token.sol\":7617:7626  _balances */\n      0x00\n        /* \"contracts/Distribution/WrappedERC20Token.sol\":7617:7637  _balances[recipient] */\n      dup1\n        /* \"contracts/Distribution/WrappedERC20Token.sol\":7627:7636  recipient */\n      dup6\n        /* \"contracts/Distribution/WrappedERC20Token.sol\":7617:7637  _balances[recipient] */\n      0xffffffffffffffffffffffffffffffffffffffff\n      and\n      0xffffffffffffffffffffffffffffffffffffffff\n      and\n      dup2\n      mstore\n      0x20\n      add\n      swap1\n      dup2\n      mstore\n      0x20\n      add\n      0x00\n      keccak256\n      0x00\n        /* \"contracts/Distribution/WrappedERC20Token.sol\":7617:7647  _balances[recipient] += amount */\n      dup3\n      dup3\n      sload\n      tag_378\n      swap2\n      swap1\n      tag_145\n      jump\t// in\n    tag_378:\n      swap3\n      pop\n      pop\n      dup2\n      swap1\n      sstore\n      pop\n        /* \"contracts/Distribution/WrappedERC20Token.sol\":7680:7689  recipient */\n      dup3\n        /* \"contracts/Distribution/WrappedERC20Token.sol\":7663:7698  Transfer(sender, recipient, amount) */\n      0xffffffffffffffffffffffffffffffffffffffff\n      and\n        /* \"contracts/Distribution/WrappedERC20Token.sol\":7672:7678  sender */\n      dup5\n        /* \"contracts/Distribution/WrappedERC20Token.sol\":7663:7698  Transfer(sender, recipient, amount) */\n      0xffffffffffffffffffffffffffffffffffffffff\n      and\n      0xddf252ad1be2c89b69c2b068fc378daa952ba7f163c4a11628f55a4df523b3ef\n        /* \"contracts/Distribution/WrappedERC20Token.sol\":7691:7697  amount */\n      dup5\n        /* \"contracts/Distribution/WrappedERC20Token.sol\":7663:7698  Transfer(sender, recipient, amount) */\n      mload(0x40)\n      tag_379\n      swap2\n      swap1\n      tag_50\n      jump\t// in\n    tag_379:\n      mload(0x40)\n      dup1\n      swap2\n      sub\n      swap1\n      log3\n        /* \"contracts/Distribution/WrappedERC20Token.sol\":7200:7705  {... */\n      pop\n        /* \"contracts/Distribution/WrappedERC20Token.sol\":7113:7705  function _transfer(address sender, address recipient, uint256 amount) internal virtual {... */\n      pop\n      pop\n      pop\n      jump\t// out\n        /* \"contracts/Distribution/WrappedERC20Token.sol\":10459:10551  function _beforeTokenTransfer(address from, address to, uint256 amount) internal virtual { } */\n    tag_373:\n      pop\n      pop\n      pop\n      jump\t// out\n        /* \"#utility.yul\":7:146   */\n    tag_382:\n        /* \"#utility.yul\":53:58   */\n      0x00\n        /* \"#utility.yul\":91:97   */\n      dup2\n        /* \"#utility.yul\":78:98   */\n      calldataload\n        /* \"#utility.yul\":69:98   */\n      swap1\n      pop\n        /* \"#utility.yul\":107:140   */\n      tag_384\n        /* \"#utility.yul\":134:139   */\n      dup2\n        /* \"#utility.yul\":107:140   */\n      tag_385\n      jump\t// in\n    tag_384:\n        /* \"#utility.yul\":59:146   */\n      swap3\n      swap2\n      pop\n      pop\n      jump\t// out\n        /* \"#utility.yul\":152:291   */\n    tag_386:\n        /* \"#utility.yul\":198:203   */\n      0x00\n        /* \"#utility.yul\":236:242   */\n      dup2\n        /* \"#utility.yul\":223:243   */\n      calldataload\n        /* \"#utility.yul\":214:243   */\n      swap1\n      pop\n        /* \"#utility.yul\":252:285   */\n      tag_388\n        /* \"#utility.yul\":279:284   */\n      dup2\n        /* \"#utility.yul\":252:285   */\n      tag_389\n      jump\t// in\n    tag_388:\n        /* \"#utility.yul\":204:291   */\n      swap3\n      swap2\n      pop\n      pop\n      jump\t// out\n        /* \"#utility.yul\":297:432   */\n    tag_390:\n        /* \"#utility.yul\":341:346   */\n      0x00\n        /* \"#utility.yul\":379:385   */\n      dup2\n        /* \"#utility.yul\":366:386   */\n      calldataload\n        /* \"#utility.yul\":357:386   */\n      swap1\n      pop\n        /* \"#utility.yul\":395:426   */\n      tag_392\n        /* \"#utility.yul\":420:425   */\n      dup2\n        /* \"#utility.yul\":395:426   */\n      tag_393\n      jump\t// in\n    tag_392:\n        /* \"#utility.yul\":347:432   */\n      swap3\n      swap2\n      pop\n      pop\n      jump\t// out\n        /* \"#utility.yul\":438:767   */\n    tag_39:\n        /* \"#utility.yul\":497:503   */\n      0x00\n        /* \"#utility.yul\":546:548   */\n      0x20\n        /* \"#utility.yul\":534:543   */\n      dup3\n        /* \"#utility.yul\":525:532   */\n      dup5\n        /* \"#utility.yul\":521:544   */\n      sub\n        /* \"#utility.yul\":517:549   */\n      slt\n        /* \"#utility.yul\":514:516   */\n      iszero\n      tag_395\n      jumpi\n        /* \"#utility.yul\":552:631   */\n      tag_396\n      tag_397\n      jump\t// in\n    tag_396:\n        /* \"#utility.yul\":514:516   */\n    tag_395:\n        /* \"#utility.yul\":672:673   */\n      0x00\n        /* \"#utility.yul\":697:750   */\n      tag_398\n        /* \"#utility.yul\":742:749   */\n      dup5\n        /* \"#utility.yul\":733:739   */\n      dup3\n        /* \"#utility.yul\":722:731   */\n      dup6\n        /* \"#utility.yul\":718:740   */\n      add\n        /* \"#utility.yul\":697:750   */\n      tag_382\n      jump\t// in\n    tag_398:\n        /* \"#utility.yul\":687:750   */\n      swap2\n      pop\n        /* \"#utility.yul\":643:760   */\n      pop\n        /* \"#utility.yul\":504:767   */\n      swap3\n      swap2\n      pop\n      pop\n      jump\t// out\n        /* \"#utility.yul\":773:1247   */\n    tag_103:\n        /* \"#utility.yul\":841:847   */\n      0x00\n        /* \"#utility.yul\":849:855   */\n      dup1\n        /* \"#utility.yul\":898:900   */\n      0x40\n        /* \"#utility.yul\":886:895   */\n      dup4\n        /* \"#utility.yul\":877:884   */\n      dup6\n        /* \"#utility.yul\":873:896   */\n      sub\n        /* \"#utility.yul\":869:901   */\n      slt\n        /* \"#utility.yul\":866:868   */\n      iszero\n      tag_400\n      jumpi\n        /* \"#utility.yul\":904:983   */\n      tag_401\n      tag_397\n      jump\t// in\n    tag_401:\n        /* \"#utility.yul\":866:868   */\n    tag_400:\n        /* \"#utility.yul\":1024:1025   */\n      0x00\n        /* \"#utility.yul\":1049:1102   */\n      tag_402\n        /* \"#utility.yul\":1094:1101   */\n      dup6\n        /* \"#utility.yul\":1085:1091   */\n      dup3\n        /* \"#utility.yul\":1074:1083   */\n      dup7\n        /* \"#utility.yul\":1070:1092   */\n      add\n        /* \"#utility.yul\":1049:1102   */\n      tag_382\n      jump\t// in\n    tag_402:\n        /* \"#utility.yul\":1039:1102   */\n      swap3\n      pop\n        /* \"#utility.yul\":995:1112   */\n      pop\n        /* \"#utility.yul\":1151:1153   */\n      0x20\n        /* \"#utility.yul\":1177:1230   */\n      tag_403\n        /* \"#utility.yul\":1222:1229   */\n      dup6\n        /* \"#utility.yul\":1213:1219   */\n      dup3\n        /* \"#utility.yul\":1202:1211   */\n      dup7\n        /* \"#utility.yul\":1198:1220   */\n      add\n        /* \"#utility.yul\":1177:1230   */\n      tag_382\n      jump\t// in\n    tag_403:\n        /* \"#utility.yul\":1167:1230   */\n      swap2\n      pop\n        /* \"#utility.yul\":1122:1240   */\n      pop\n        /* \"#utility.yul\":856:1247   */\n      swap3\n      pop\n      swap3\n      swap1\n      pop\n      jump\t// out\n        /* \"#utility.yul\":1253:1872   */\n    tag_53:\n        /* \"#utility.yul\":1330:1336   */\n      0x00\n        /* \"#utility.yul\":1338:1344   */\n      dup1\n        /* \"#utility.yul\":1346:1352   */\n      0x00\n        /* \"#utility.yul\":1395:1397   */\n      0x60\n        /* \"#utility.yul\":1383:1392   */\n      dup5\n        /* \"#utility.yul\":1374:1381   */\n      dup7\n        /* \"#utility.yul\":1370:1393   */\n      sub\n        /* \"#utility.yul\":1366:1398   */\n      slt\n        /* \"#utility.yul\":1363:1365   */\n      iszero\n      tag_405\n      jumpi\n        /* \"#utility.yul\":1401:1480   */\n      tag_406\n      tag_397\n      jump\t// in\n    tag_406:\n        /* \"#utility.yul\":1363:1365   */\n    tag_405:\n        /* \"#utility.yul\":1521:1522   */\n      0x00\n        /* \"#utility.yul\":1546:1599   */\n      tag_407\n        /* \"#utility.yul\":1591:1598   */\n      dup7\n        /* \"#utility.yul\":1582:1588   */\n      dup3\n        /* \"#utility.yul\":1571:1580   */\n      dup8\n        /* \"#utility.yul\":1567:1589   */\n      add\n        /* \"#utility.yul\":1546:1599   */\n      tag_382\n      jump\t// in\n    tag_407:\n        /* \"#utility.yul\":1536:1599   */\n      swap4\n      pop\n        /* \"#utility.yul\":1492:1609   */\n      pop\n        /* \"#utility.yul\":1648:1650   */\n      0x20\n        /* \"#utility.yul\":1674:1727   */\n      tag_408\n        /* \"#utility.yul\":1719:1726   */\n      dup7\n        /* \"#utility.yul\":1710:1716   */\n      dup3\n        /* \"#utility.yul\":1699:1708   */\n      dup8\n        /* \"#utility.yul\":1695:1717   */\n      add\n        /* \"#utility.yul\":1674:1727   */\n      tag_382\n      jump\t// in\n    tag_408:\n        /* \"#utility.yul\":1664:1727   */\n      swap3\n      pop\n        /* \"#utility.yul\":1619:1737   */\n      pop\n        /* \"#utility.yul\":1776:1778   */\n      0x40\n        /* \"#utility.yul\":1802:1855   */\n      tag_409\n        /* \"#utility.yul\":1847:1854   */\n      dup7\n        /* \"#utility.yul\":1838:1844   */\n      dup3\n        /* \"#utility.yul\":1827:1836   */\n      dup8\n        /* \"#utility.yul\":1823:1845   */\n      add\n        /* \"#utility.yul\":1802:1855   */\n      tag_386\n      jump\t// in\n    tag_409:\n        /* \"#utility.yul\":1792:1855   */\n      swap2\n      pop\n        /* \"#utility.yul\":1747:1865   */\n      pop\n        /* \"#utility.yul\":1353:1872   */\n      swap3\n      pop\n      swap3\n      pop\n      swap3\n      jump\t// out\n        /* \"#utility.yul\":1878:2352   */\n    tag_33:\n        /* \"#utility.yul\":1946:1952   */\n      0x00\n        /* \"#utility.yul\":1954:1960   */\n      dup1\n        /* \"#utility.yul\":2003:2005   */\n      0x40\n        /* \"#utility.yul\":1991:2000   */\n      dup4\n        /* \"#utility.yul\":1982:1989   */\n      dup6\n        /* \"#utility.yul\":1978:2001   */\n      sub\n        /* \"#utility.yul\":1974:2006   */\n      slt\n        /* \"#utility.yul\":1971:1973   */\n      iszero\n      tag_411\n      jumpi\n        /* \"#utility.yul\":2009:2088   */\n      tag_412\n      tag_397\n      jump\t// in\n    tag_412:\n        /* \"#utility.yul\":1971:1973   */\n    tag_411:\n        /* \"#utility.yul\":2129:2130   */\n      0x00\n        /* \"#utility.yul\":2154:2207   */\n      tag_413\n        /* \"#utility.yul\":2199:2206   */\n      dup6\n        /* \"#utility.yul\":2190:2196   */\n      dup3\n        /* \"#utility.yul\":2179:2188   */\n      dup7\n        /* \"#utility.yul\":2175:2197   */\n      add\n        /* \"#utility.yul\":2154:2207   */\n      tag_382\n      jump\t// in\n    tag_413:\n        /* \"#utility.yul\":2144:2207   */\n      swap3\n      pop\n        /* \"#utility.yul\":2100:2217   */\n      pop\n        /* \"#utility.yul\":2256:2258   */\n      0x20\n        /* \"#utility.yul\":2282:2335   */\n      tag_414\n        /* \"#utility.yul\":2327:2334   */\n      dup6\n        /* \"#utility.yul\":2318:2324   */\n      dup3\n        /* \"#utility.yul\":2307:2316   */\n      dup7\n        /* \"#utility.yul\":2303:2325   */\n      add\n        /* \"#utility.yul\":2282:2335   */\n      tag_386\n      jump\t// in\n    tag_414:\n        /* \"#utility.yul\":2272:2335   */\n      swap2\n      pop\n        /* \"#utility.yul\":2227:2345   */\n      pop\n        /* \"#utility.yul\":1961:2352   */\n      swap3\n      pop\n      swap3\n      swap1\n      pop\n      jump\t// out\n        /* \"#utility.yul\":2358:2828   */\n    tag_91:\n        /* \"#utility.yul\":2424:2430   */\n      0x00\n        /* \"#utility.yul\":2432:2438   */\n      dup1\n        /* \"#utility.yul\":2481:2483   */\n      0x40\n        /* \"#utility.yul\":2469:2478   */\n      dup4\n        /* \"#utility.yul\":2460:2467   */\n      dup6\n        /* \"#utility.yul\":2456:2479   */\n      sub\n        /* \"#utility.yul\":2452:2484   */\n      slt\n        /* \"#utility.yul\":2449:2451   */\n      iszero\n      tag_416\n      jumpi\n        /* \"#utility.yul\":2487:2566   */\n      tag_417\n      tag_397\n      jump\t// in\n    tag_417:\n        /* \"#utility.yul\":2449:2451   */\n    tag_416:\n        /* \"#utility.yul\":2607:2608   */\n      0x00\n        /* \"#utility.yul\":2632:2685   */\n      tag_418\n        /* \"#utility.yul\":2677:2684   */\n      dup6\n        /* \"#utility.yul\":2668:2674   */\n      dup3\n        /* \"#utility.yul\":2657:2666   */\n      dup7\n        /* \"#utility.yul\":2653:2675   */\n      add\n        /* \"#utility.yul\":2632:2685   */\n      tag_382\n      jump\t// in\n    tag_418:\n        /* \"#utility.yul\":2622:2685   */\n      swap3\n      pop\n        /* \"#utility.yul\":2578:2695   */\n      pop\n        /* \"#utility.yul\":2734:2736   */\n      0x20\n        /* \"#utility.yul\":2760:2811   */\n      tag_419\n        /* \"#utility.yul\":2803:2810   */\n      dup6\n        /* \"#utility.yul\":2794:2800   */\n      dup3\n        /* \"#utility.yul\":2783:2792   */\n      dup7\n        /* \"#utility.yul\":2779:2801   */\n      add\n        /* \"#utility.yul\":2760:2811   */\n      tag_390\n      jump\t// in\n    tag_419:\n        /* \"#utility.yul\":2750:2811   */\n      swap2\n      pop\n        /* \"#utility.yul\":2705:2821   */\n      pop\n        /* \"#utility.yul\":2439:2828   */\n      swap3\n      pop\n      swap3\n      swap1\n      pop\n      jump\t// out\n        /* \"#utility.yul\":2834:3163   */\n    tag_66:\n        /* \"#utility.yul\":2893:2899   */\n      0x00\n        /* \"#utility.yul\":2942:2944   */\n      0x20\n        /* \"#utility.yul\":2930:2939   */\n      dup3\n        /* \"#utility.yul\":2921:2928   */\n      dup5\n        /* \"#utility.yul\":2917:2940   */\n      sub\n        /* \"#utility.yul\":2913:2945   */\n      slt\n        /* \"#utility.yul\":2910:2912   */\n      iszero\n      tag_421\n      jumpi\n        /* \"#utility.yul\":2948:3027   */\n      tag_422\n      tag_397\n      jump\t// in\n    tag_422:\n        /* \"#utility.yul\":2910:2912   */\n    tag_421:\n        /* \"#utility.yul\":3068:3069   */\n      0x00\n        /* \"#utility.yul\":3093:3146   */\n      tag_423\n        /* \"#utility.yul\":3138:3145   */\n      dup5\n        /* \"#utility.yul\":3129:3135   */\n      dup3\n        /* \"#utility.yul\":3118:3127   */\n      dup6\n        /* \"#utility.yul\":3114:3136   */\n      add\n        /* \"#utility.yul\":3093:3146   */\n      tag_386\n      jump\t// in\n    tag_423:\n        /* \"#utility.yul\":3083:3146   */\n      swap2\n      pop\n        /* \"#utility.yul\":3039:3156   */\n      pop\n        /* \"#utility.yul\":2900:3163   */\n      swap3\n      swap2\n      pop\n      pop\n      jump\t// out\n        /* \"#utility.yul\":3169:3287   */\n    tag_424:\n        /* \"#utility.yul\":3256:3280   */\n      tag_426\n        /* \"#utility.yul\":3274:3279   */\n      dup2\n        /* \"#utility.yul\":3256:3280   */\n      tag_427\n      jump\t// in\n    tag_426:\n        /* \"#utility.yul\":3251:3254   */\n      dup3\n        /* \"#utility.yul\":3244:3281   */\n      mstore\n        /* \"#utility.yul\":3234:3287   */\n      pop\n      pop\n      jump\t// out\n        /* \"#utility.yul\":3293:3402   */\n    tag_428:\n        /* \"#utility.yul\":3374:3395   */\n      tag_430\n        /* \"#utility.yul\":3389:3394   */\n      dup2\n        /* \"#utility.yul\":3374:3395   */\n      tag_431\n      jump\t// in\n    tag_430:\n        /* \"#utility.yul\":3369:3372   */\n      dup3\n        /* \"#utility.yul\":3362:3396   */\n      mstore\n        /* \"#utility.yul\":3352:3402   */\n      pop\n      pop\n      jump\t// out\n        /* \"#utility.yul\":3408:3772   */\n    tag_432:\n        /* \"#utility.yul\":3496:3499   */\n      0x00\n        /* \"#utility.yul\":3524:3563   */\n      tag_434\n        /* \"#utility.yul\":3557:3562   */\n      dup3\n        /* \"#utility.yul\":3524:3563   */\n      tag_435\n      jump\t// in\n    tag_434:\n        /* \"#utility.yul\":3579:3650   */\n      tag_436\n        /* \"#utility.yul\":3643:3649   */\n      dup2\n        /* \"#utility.yul\":3638:3641   */\n      dup6\n        /* \"#utility.yul\":3579:3650   */\n      tag_437\n      jump\t// in\n    tag_436:\n        /* \"#utility.yul\":3572:3650   */\n      swap4\n      pop\n        /* \"#utility.yul\":3659:3711   */\n      tag_438\n        /* \"#utility.yul\":3704:3710   */\n      dup2\n        /* \"#utility.yul\":3699:3702   */\n      dup6\n        /* \"#utility.yul\":3692:3696   */\n      0x20\n        /* \"#utility.yul\":3685:3690   */\n      dup7\n        /* \"#utility.yul\":3681:3697   */\n      add\n        /* \"#utility.yul\":3659:3711   */\n      tag_439\n      jump\t// in\n    tag_438:\n        /* \"#utility.yul\":3736:3765   */\n      tag_440\n        /* \"#utility.yul\":3758:3764   */\n      dup2\n        /* \"#utility.yul\":3736:3765   */\n      tag_441\n      jump\t// in\n    tag_440:\n        /* \"#utility.yul\":3731:3734   */\n      dup5\n        /* \"#utility.yul\":3727:3766   */\n      add\n        /* \"#utility.yul\":3720:3766   */\n      swap2\n      pop\n        /* \"#utility.yul\":3500:3772   */\n      pop\n      swap3\n      swap2\n      pop\n      pop\n      jump\t// out\n        /* \"#utility.yul\":3778:4144   */\n    tag_442:\n        /* \"#utility.yul\":3920:3923   */\n      0x00\n        /* \"#utility.yul\":3941:4008   */\n      tag_444\n        /* \"#utility.yul\":4005:4007   */\n      0x23\n        /* \"#utility.yul\":4000:4003   */\n      dup4\n        /* \"#utility.yul\":3941:4008   */\n      tag_437\n      jump\t// in\n    tag_444:\n        /* \"#utility.yul\":3934:4008   */\n      swap2\n      pop\n        /* \"#utility.yul\":4017:4110   */\n      tag_445\n        /* \"#utility.yul\":4106:4109   */\n      dup3\n        /* \"#utility.yul\":4017:4110   */\n      tag_446\n      jump\t// in\n    tag_445:\n        /* \"#utility.yul\":4135:4137   */\n      0x40\n        /* \"#utility.yul\":4130:4133   */\n      dup3\n        /* \"#utility.yul\":4126:4138   */\n      add\n        /* \"#utility.yul\":4119:4138   */\n      swap1\n      pop\n        /* \"#utility.yul\":3924:4144   */\n      swap2\n      swap1\n      pop\n      jump\t// out\n        /* \"#utility.yul\":4150:4516   */\n    tag_447:\n        /* \"#utility.yul\":4292:4295   */\n      0x00\n        /* \"#utility.yul\":4313:4380   */\n      tag_449\n        /* \"#utility.yul\":4377:4379   */\n      0x26\n        /* \"#utility.yul\":4372:4375   */\n      dup4\n        /* \"#utility.yul\":4313:4380   */\n      tag_437\n      jump\t// in\n    tag_449:\n        /* \"#utility.yul\":4306:4380   */\n      swap2\n      pop\n        /* \"#utility.yul\":4389:4482   */\n      tag_450\n        /* \"#utility.yul\":4478:4481   */\n      dup3\n        /* \"#utility.yul\":4389:4482   */\n      tag_451\n      jump\t// in\n    tag_450:\n        /* \"#utility.yul\":4507:4509   */\n      0x40\n        /* \"#utility.yul\":4502:4505   */\n      dup3\n        /* \"#utility.yul\":4498:4510   */\n      add\n        /* \"#utility.yul\":4491:4510   */\n      swap1\n      pop\n        /* \"#utility.yul\":4296:4516   */\n      swap2\n      swap1\n      pop\n      jump\t// out\n        /* \"#utility.yul\":4522:4888   */\n    tag_452:\n        /* \"#utility.yul\":4664:4667   */\n      0x00\n        /* \"#utility.yul\":4685:4752   */\n      tag_454\n        /* \"#utility.yul\":4749:4751   */\n      0x22\n        /* \"#utility.yul\":4744:4747   */\n      dup4\n        /* \"#utility.yul\":4685:4752   */\n      tag_437\n      jump\t// in\n    tag_454:\n        /* \"#utility.yul\":4678:4752   */\n      swap2\n      pop\n        /* \"#utility.yul\":4761:4854   */\n      tag_455\n        /* \"#utility.yul\":4850:4853   */\n      dup3\n        /* \"#utility.yul\":4761:4854   */\n      tag_456\n      jump\t// in\n    tag_455:\n        /* \"#utility.yul\":4879:4881   */\n      0x40\n        /* \"#utility.yul\":4874:4877   */\n      dup3\n        /* \"#utility.yul\":4870:4882   */\n      add\n        /* \"#utility.yul\":4863:4882   */\n      swap1\n      pop\n        /* \"#utility.yul\":4668:4888   */\n      swap2\n      swap1\n      pop\n      jump\t// out\n        /* \"#utility.yul\":4894:5260   */\n    tag_457:\n        /* \"#utility.yul\":5036:5039   */\n      0x00\n        /* \"#utility.yul\":5057:5124   */\n      tag_459\n        /* \"#utility.yul\":5121:5123   */\n      0x26\n        /* \"#utility.yul\":5116:5119   */\n      dup4\n        /* \"#utility.yul\":5057:5124   */\n      tag_437\n      jump\t// in\n    tag_459:\n        /* \"#utility.yul\":5050:5124   */\n      swap2\n      pop\n        /* \"#utility.yul\":5133:5226   */\n      tag_460\n        /* \"#utility.yul\":5222:5225   */\n      dup3\n        /* \"#utility.yul\":5133:5226   */\n      tag_461\n      jump\t// in\n    tag_460:\n        /* \"#utility.yul\":5251:5253   */\n      0x40\n        /* \"#utility.yul\":5246:5249   */\n      dup3\n        /* \"#utility.yul\":5242:5254   */\n      add\n        /* \"#utility.yul\":5235:5254   */\n      swap1\n      pop\n        /* \"#utility.yul\":5040:5260   */\n      swap2\n      swap1\n      pop\n      jump\t// out\n        /* \"#utility.yul\":5266:5632   */\n    tag_462:\n        /* \"#utility.yul\":5408:5411   */\n      0x00\n        /* \"#utility.yul\":5429:5496   */\n      tag_464\n        /* \"#utility.yul\":5493:5495   */\n      0x20\n        /* \"#utility.yul\":5488:5491   */\n      dup4\n        /* \"#utility.yul\":5429:5496   */\n      tag_437\n      jump\t// in\n    tag_464:\n        /* \"#utility.yul\":5422:5496   */\n      swap2\n      pop\n        /* \"#utility.yul\":5505:5598   */\n      tag_465\n        /* \"#utility.yul\":5594:5597   */\n      dup3\n        /* \"#utility.yul\":5505:5598   */\n      tag_466\n      jump\t// in\n    tag_465:\n        /* \"#utility.yul\":5623:5625   */\n      0x20\n        /* \"#utility.yul\":5618:5621   */\n      dup3\n        /* \"#utility.yul\":5614:5626   */\n      add\n        /* \"#utility.yul\":5607:5626   */\n      swap1\n      pop\n        /* \"#utility.yul\":5412:5632   */\n      swap2\n      swap1\n      pop\n      jump\t// out\n        /* \"#utility.yul\":5638:6004   */\n    tag_467:\n        /* \"#utility.yul\":5780:5783   */\n      0x00\n        /* \"#utility.yul\":5801:5868   */\n      tag_469\n        /* \"#utility.yul\":5865:5867   */\n      0x20\n        /* \"#utility.yul\":5860:5863   */\n      dup4\n        /* \"#utility.yul\":5801:5868   */\n      tag_437\n      jump\t// in\n    tag_469:\n        /* \"#utility.yul\":5794:5868   */\n      swap2\n      pop\n        /* \"#utility.yul\":5877:5970   */\n      tag_470\n        /* \"#utility.yul\":5966:5969   */\n      dup3\n        /* \"#utility.yul\":5877:5970   */\n      tag_471\n      jump\t// in\n    tag_470:\n        /* \"#utility.yul\":5995:5997   */\n      0x20\n        /* \"#utility.yul\":5990:5993   */\n      dup3\n        /* \"#utility.yul\":5986:5998   */\n      add\n        /* \"#utility.yul\":5979:5998   */\n      swap1\n      pop\n        /* \"#utility.yul\":5784:6004   */\n      swap2\n      swap1\n      pop\n      jump\t// out\n        /* \"#utility.yul\":6010:6376   */\n    tag_472:\n        /* \"#utility.yul\":6152:6155   */\n      0x00\n        /* \"#utility.yul\":6173:6240   */\n      tag_474\n        /* \"#utility.yul\":6237:6239   */\n      0x25\n        /* \"#utility.yul\":6232:6235   */\n      dup4\n        /* \"#utility.yul\":6173:6240   */\n      tag_437\n      jump\t// in\n    tag_474:\n        /* \"#utility.yul\":6166:6240   */\n      swap2\n      pop\n        /* \"#utility.yul\":6249:6342   */\n      tag_475\n        /* \"#utility.yul\":6338:6341   */\n      dup3\n        /* \"#utility.yul\":6249:6342   */\n      tag_476\n      jump\t// in\n    tag_475:\n        /* \"#utility.yul\":6367:6369   */\n      0x40\n        /* \"#utility.yul\":6362:6365   */\n      dup3\n        /* \"#utility.yul\":6358:6370   */\n      add\n        /* \"#utility.yul\":6351:6370   */\n      swap1\n      pop\n        /* \"#utility.yul\":6156:6376   */\n      swap2\n      swap1\n      pop\n      jump\t// out\n        /* \"#utility.yul\":6382:6748   */\n    tag_477:\n        /* \"#utility.yul\":6524:6527   */\n      0x00\n        /* \"#utility.yul\":6545:6612   */\n      tag_479\n        /* \"#utility.yul\":6609:6611   */\n      0x24\n        /* \"#utility.yul\":6604:6607   */\n      dup4\n        /* \"#utility.yul\":6545:6612   */\n      tag_437\n      jump\t// in\n    tag_479:\n        /* \"#utility.yul\":6538:6612   */\n      swap2\n      pop\n        /* \"#utility.yul\":6621:6714   */\n      tag_480\n        /* \"#utility.yul\":6710:6713   */\n      dup3\n        /* \"#utility.yul\":6621:6714   */\n      tag_481\n      jump\t// in\n    tag_480:\n        /* \"#utility.yul\":6739:6741   */\n      0x40\n        /* \"#utility.yul\":6734:6737   */\n      dup3\n        /* \"#utility.yul\":6730:6742   */\n      add\n        /* \"#utility.yul\":6723:6742   */\n      swap1\n      pop\n        /* \"#utility.yul\":6528:6748   */\n      swap2\n      swap1\n      pop\n      jump\t// out\n        /* \"#utility.yul\":6754:7120   */\n    tag_482:\n        /* \"#utility.yul\":6896:6899   */\n      0x00\n        /* \"#utility.yul\":6917:6984   */\n      tag_484\n        /* \"#utility.yul\":6981:6983   */\n      0x24\n        /* \"#utility.yul\":6976:6979   */\n      dup4\n        /* \"#utility.yul\":6917:6984   */\n      tag_437\n      jump\t// in\n    tag_484:\n        /* \"#utility.yul\":6910:6984   */\n      swap2\n      pop\n        /* \"#utility.yul\":6993:7086   */\n      tag_485\n        /* \"#utility.yul\":7082:7085   */\n      dup3\n        /* \"#utility.yul\":6993:7086   */\n      tag_486\n      jump\t// in\n    tag_485:\n        /* \"#utility.yul\":7111:7113   */\n      0x40\n        /* \"#utility.yul\":7106:7109   */\n      dup3\n        /* \"#utility.yul\":7102:7114   */\n      add\n        /* \"#utility.yul\":7095:7114   */\n      swap1\n      pop\n        /* \"#utility.yul\":6900:7120   */\n      swap2\n      swap1\n      pop\n      jump\t// out\n        /* \"#utility.yul\":7126:7492   */\n    tag_487:\n        /* \"#utility.yul\":7268:7271   */\n      0x00\n        /* \"#utility.yul\":7289:7356   */\n      tag_489\n        /* \"#utility.yul\":7353:7355   */\n      0x25\n        /* \"#utility.yul\":7348:7351   */\n      dup4\n        /* \"#utility.yul\":7289:7356   */\n      tag_437\n      jump\t// in\n    tag_489:\n        /* \"#utility.yul\":7282:7356   */\n      swap2\n      pop\n        /* \"#utility.yul\":7365:7458   */\n      tag_490\n        /* \"#utility.yul\":7454:7457   */\n      dup3\n        /* \"#utility.yul\":7365:7458   */\n      tag_491\n      jump\t// in\n    tag_490:\n        /* \"#utility.yul\":7483:7485   */\n      0x40\n        /* \"#utility.yul\":7478:7481   */\n      dup3\n        /* \"#utility.yul\":7474:7486   */\n      add\n        /* \"#utility.yul\":7467:7486   */\n      swap1\n      pop\n        /* \"#utility.yul\":7272:7492   */\n      swap2\n      swap1\n      pop\n      jump\t// out\n        /* \"#utility.yul\":7498:7616   */\n    tag_492:\n        /* \"#utility.yul\":7585:7609   */\n      tag_494\n        /* \"#utility.yul\":7603:7608   */\n      dup2\n        /* \"#utility.yul\":7585:7609   */\n      tag_495\n      jump\t// in\n    tag_494:\n        /* \"#utility.yul\":7580:7583   */\n      dup3\n        /* \"#utility.yul\":7573:7610   */\n      mstore\n        /* \"#utility.yul\":7563:7616   */\n      pop\n      pop\n      jump\t// out\n        /* \"#utility.yul\":7622:7734   */\n    tag_496:\n        /* \"#utility.yul\":7705:7727   */\n      tag_498\n        /* \"#utility.yul\":7721:7726   */\n      dup2\n        /* \"#utility.yul\":7705:7727   */\n      tag_499\n      jump\t// in\n    tag_498:\n        /* \"#utility.yul\":7700:7703   */\n      dup3\n        /* \"#utility.yul\":7693:7728   */\n      mstore\n        /* \"#utility.yul\":7683:7734   */\n      pop\n      pop\n      jump\t// out\n        /* \"#utility.yul\":7740:7962   */\n    tag_82:\n        /* \"#utility.yul\":7833:7837   */\n      0x00\n        /* \"#utility.yul\":7871:7873   */\n      0x20\n        /* \"#utility.yul\":7860:7869   */\n      dup3\n        /* \"#utility.yul\":7856:7874   */\n      add\n        /* \"#utility.yul\":7848:7874   */\n      swap1\n      pop\n        /* \"#utility.yul\":7884:7955   */\n      tag_501\n        /* \"#utility.yul\":7952:7953   */\n      0x00\n        /* \"#utility.yul\":7941:7950   */\n      dup4\n        /* \"#utility.yul\":7937:7954   */\n      add\n        /* \"#utility.yul\":7928:7934   */\n      dup5\n        /* \"#utility.yul\":7884:7955   */\n      tag_424\n      jump\t// in\n    tag_501:\n        /* \"#utility.yul\":7838:7962   */\n      swap3\n      swap2\n      pop\n      pop\n      jump\t// out\n        /* \"#utility.yul\":7968:8178   */\n    tag_36:\n        /* \"#utility.yul\":8055:8059   */\n      0x00\n        /* \"#utility.yul\":8093:8095   */\n      0x20\n        /* \"#utility.yul\":8082:8091   */\n      dup3\n        /* \"#utility.yul\":8078:8096   */\n      add\n        /* \"#utility.yul\":8070:8096   */\n      swap1\n      pop\n        /* \"#utility.yul\":8106:8171   */\n      tag_503\n        /* \"#utility.yul\":8168:8169   */\n      0x00\n        /* \"#utility.yul\":8157:8166   */\n      dup4\n        /* \"#utility.yul\":8153:8170   */\n      add\n        /* \"#utility.yul\":8144:8150   */\n      dup5\n        /* \"#utility.yul\":8106:8171   */\n      tag_428\n      jump\t// in\n    tag_503:\n        /* \"#utility.yul\":8060:8178   */\n      swap3\n      swap2\n      pop\n      pop\n      jump\t// out\n        /* \"#utility.yul\":8184:8497   */\n    tag_30:\n        /* \"#utility.yul\":8297:8301   */\n      0x00\n        /* \"#utility.yul\":8335:8337   */\n      0x20\n        /* \"#utility.yul\":8324:8333   */\n      dup3\n        /* \"#utility.yul\":8320:8338   */\n      add\n        /* \"#utility.yul\":8312:8338   */\n      swap1\n      pop\n        /* \"#utility.yul\":8384:8393   */\n      dup2\n        /* \"#utility.yul\":8378:8382   */\n      dup2\n        /* \"#utility.yul\":8374:8394   */\n      sub\n        /* \"#utility.yul\":8370:8371   */\n      0x00\n        /* \"#utility.yul\":8359:8368   */\n      dup4\n        /* \"#utility.yul\":8355:8372   */\n      add\n        /* \"#utility.yul\":8348:8395   */\n      mstore\n        /* \"#utility.yul\":8412:8490   */\n      tag_505\n        /* \"#utility.yul\":8485:8489   */\n      dup2\n        /* \"#utility.yul\":8476:8482   */\n      dup5\n        /* \"#utility.yul\":8412:8490   */\n      tag_432\n      jump\t// in\n    tag_505:\n        /* \"#utility.yul\":8404:8490   */\n      swap1\n      pop\n        /* \"#utility.yul\":8302:8497   */\n      swap3\n      swap2\n      pop\n      pop\n      jump\t// out\n        /* \"#utility.yul\":8503:8922   */\n    tag_371:\n        /* \"#utility.yul\":8669:8673   */\n      0x00\n        /* \"#utility.yul\":8707:8709   */\n      0x20\n        /* \"#utility.yul\":8696:8705   */\n      dup3\n        /* \"#utility.yul\":8692:8710   */\n      add\n        /* \"#utility.yul\":8684:8710   */\n      swap1\n      pop\n        /* \"#utility.yul\":8756:8765   */\n      dup2\n        /* \"#utility.yul\":8750:8754   */\n      dup2\n        /* \"#utility.yul\":8746:8766   */\n      sub\n        /* \"#utility.yul\":8742:8743   */\n      0x00\n        /* \"#utility.yul\":8731:8740   */\n      dup4\n        /* \"#utility.yul\":8727:8744   */\n      add\n        /* \"#utility.yul\":8720:8767   */\n      mstore\n        /* \"#utility.yul\":8784:8915   */\n      tag_507\n        /* \"#utility.yul\":8910:8914   */\n      dup2\n        /* \"#utility.yul\":8784:8915   */\n      tag_442\n      jump\t// in\n    tag_507:\n        /* \"#utility.yul\":8776:8915   */\n      swap1\n      pop\n        /* \"#utility.yul\":8674:8922   */\n      swap2\n      swap1\n      pop\n      jump\t// out\n        /* \"#utility.yul\":8928:9347   */\n    tag_353:\n        /* \"#utility.yul\":9094:9098   */\n      0x00\n        /* \"#utility.yul\":9132:9134   */\n      0x20\n        /* \"#utility.yul\":9121:9130   */\n      dup3\n        /* \"#utility.yul\":9117:9135   */\n      add\n        /* \"#utility.yul\":9109:9135   */\n      swap1\n      pop\n        /* \"#utility.yul\":9181:9190   */\n      dup2\n        /* \"#utility.yul\":9175:9179   */\n      dup2\n        /* \"#utility.yul\":9171:9191   */\n      sub\n        /* \"#utility.yul\":9167:9168   */\n      0x00\n        /* \"#utility.yul\":9156:9165   */\n      dup4\n        /* \"#utility.yul\":9152:9169   */\n      add\n        /* \"#utility.yul\":9145:9192   */\n      mstore\n        /* \"#utility.yul\":9209:9340   */\n      tag_509\n        /* \"#utility.yul\":9335:9339   */\n      dup2\n        /* \"#utility.yul\":9209:9340   */\n      tag_447\n      jump\t// in\n    tag_509:\n        /* \"#utility.yul\":9201:9340   */\n      swap1\n      pop\n        /* \"#utility.yul\":9099:9347   */\n      swap2\n      swap1\n      pop\n      jump\t// out\n        /* \"#utility.yul\":9353:9772   */\n    tag_362:\n        /* \"#utility.yul\":9519:9523   */\n      0x00\n        /* \"#utility.yul\":9557:9559   */\n      0x20\n        /* \"#utility.yul\":9546:9555   */\n      dup3\n        /* \"#utility.yul\":9542:9560   */\n      add\n        /* \"#utility.yul\":9534:9560   */\n      swap1\n      pop\n        /* \"#utility.yul\":9606:9615   */\n      dup2\n        /* \"#utility.yul\":9600:9604   */\n      dup2\n        /* \"#utility.yul\":9596:9616   */\n      sub\n        /* \"#utility.yul\":9592:9593   */\n      0x00\n        /* \"#utility.yul\":9581:9590   */\n      dup4\n        /* \"#utility.yul\":9577:9594   */\n      add\n        /* \"#utility.yul\":9570:9617   */\n      mstore\n        /* \"#utility.yul\":9634:9765   */\n      tag_511\n        /* \"#utility.yul\":9760:9764   */\n      dup2\n        /* \"#utility.yul\":9634:9765   */\n      tag_452\n      jump\t// in\n    tag_511:\n        /* \"#utility.yul\":9626:9765   */\n      swap1\n      pop\n        /* \"#utility.yul\":9524:9772   */\n      swap2\n      swap1\n      pop\n      jump\t// out\n        /* \"#utility.yul\":9778:10197   */\n    tag_376:\n        /* \"#utility.yul\":9944:9948   */\n      0x00\n        /* \"#utility.yul\":9982:9984   */\n      0x20\n        /* \"#utility.yul\":9971:9980   */\n      dup3\n        /* \"#utility.yul\":9967:9985   */\n      add\n        /* \"#utility.yul\":9959:9985   */\n      swap1\n      pop\n        /* \"#utility.yul\":10031:10040   */\n      dup2\n        /* \"#utility.yul\":10025:10029   */\n      dup2\n        /* \"#utility.yul\":10021:10041   */\n      sub\n        /* \"#utility.yul\":10017:10018   */\n      0x00\n        /* \"#utility.yul\":10006:10015   */\n      dup4\n        /* \"#utility.yul\":10002:10019   */\n      add\n        /* \"#utility.yul\":9995:10042   */\n      mstore\n        /* \"#utility.yul\":10059:10190   */\n      tag_513\n        /* \"#utility.yul\":10185:10189   */\n      dup2\n        /* \"#utility.yul\":10059:10190   */\n      tag_457\n      jump\t// in\n    tag_513:\n        /* \"#utility.yul\":10051:10190   */\n      swap1\n      pop\n        /* \"#utility.yul\":9949:10197   */\n      swap2\n      swap1\n      pop\n      jump\t// out\n        /* \"#utility.yul\":10203:10622   */\n    tag_139:\n        /* \"#utility.yul\":10369:10373   */\n      0x00\n        /* \"#utility.yul\":10407:10409   */\n      0x20\n        /* \"#utility.yul\":10396:10405   */\n      dup3\n        /* \"#utility.yul\":10392:10410   */\n      add\n        /* \"#utility.yul\":10384:10410   */\n      swap1\n      pop\n        /* \"#utility.yul\":10456:10465   */\n      dup2\n        /* \"#utility.yul\":10450:10454   */\n      dup2\n        /* \"#utility.yul\":10446:10466   */\n      sub\n        /* \"#utility.yul\":10442:10443   */\n      0x00\n        /* \"#utility.yul\":10431:10440   */\n      dup4\n        /* \"#utility.yul\":10427:10444   */\n      add\n        /* \"#utility.yul\":10420:10467   */\n      mstore\n        /* \"#utility.yul\":10484:10615   */\n      tag_515\n        /* \"#utility.yul\":10610:10614   */\n      dup2\n        /* \"#utility.yul\":10484:10615   */\n      tag_462\n      jump\t// in\n    tag_515:\n        /* \"#utility.yul\":10476:10615   */\n      swap1\n      pop\n        /* \"#utility.yul\":10374:10622   */\n      swap2\n      swap1\n      pop\n      jump\t// out\n        /* \"#utility.yul\":10628:11047   */\n    tag_181:\n        /* \"#utility.yul\":10794:10798   */\n      0x00\n        /* \"#utility.yul\":10832:10834   */\n      0x20\n        /* \"#utility.yul\":10821:10830   */\n      dup3\n        /* \"#utility.yul\":10817:10835   */\n      add\n        /* \"#utility.yul\":10809:10835   */\n      swap1\n      pop\n        /* \"#utility.yul\":10881:10890   */\n      dup2\n        /* \"#utility.yul\":10875:10879   */\n      dup2\n        /* \"#utility.yul\":10871:10891   */\n      sub\n        /* \"#utility.yul\":10867:10868   */\n      0x00\n        /* \"#utility.yul\":10856:10865   */\n      dup4\n        /* \"#utility.yul\":10852:10869   */\n      add\n        /* \"#utility.yul\":10845:10892   */\n      mstore\n        /* \"#utility.yul\":10909:11040   */\n      tag_517\n        /* \"#utility.yul\":11035:11039   */\n      dup2\n        /* \"#utility.yul\":10909:11040   */\n      tag_467\n      jump\t// in\n    tag_517:\n        /* \"#utility.yul\":10901:11040   */\n      swap1\n      pop\n        /* \"#utility.yul\":10799:11047   */\n      swap2\n      swap1\n      pop\n      jump\t// out\n        /* \"#utility.yul\":11053:11472   */\n    tag_368:\n        /* \"#utility.yul\":11219:11223   */\n      0x00\n        /* \"#utility.yul\":11257:11259   */\n      0x20\n        /* \"#utility.yul\":11246:11255   */\n      dup3\n        /* \"#utility.yul\":11242:11260   */\n      add\n        /* \"#utility.yul\":11234:11260   */\n      swap1\n      pop\n        /* \"#utility.yul\":11306:11315   */\n      dup2\n        /* \"#utility.yul\":11300:11304   */\n      dup2\n        /* \"#utility.yul\":11296:11316   */\n      sub\n        /* \"#utility.yul\":11292:11293   */\n      0x00\n        /* \"#utility.yul\":11281:11290   */\n      dup4\n        /* \"#utility.yul\":11277:11294   */\n      add\n        /* \"#utility.yul\":11270:11317   */\n      mstore\n        /* \"#utility.yul\":11334:11465   */\n      tag_519\n        /* \"#utility.yul\":11460:11464   */\n      dup2\n        /* \"#utility.yul\":11334:11465   */\n      tag_472\n      jump\t// in\n    tag_519:\n        /* \"#utility.yul\":11326:11465   */\n      swap1\n      pop\n        /* \"#utility.yul\":11224:11472   */\n      swap2\n      swap1\n      pop\n      jump\t// out\n        /* \"#utility.yul\":11478:11897   */\n    tag_359:\n        /* \"#utility.yul\":11644:11648   */\n      0x00\n        /* \"#utility.yul\":11682:11684   */\n      0x20\n        /* \"#utility.yul\":11671:11680   */\n      dup3\n        /* \"#utility.yul\":11667:11685   */\n      add\n        /* \"#utility.yul\":11659:11685   */\n      swap1\n      pop\n        /* \"#utility.yul\":11731:11740   */\n      dup2\n        /* \"#utility.yul\":11725:11729   */\n      dup2\n        /* \"#utility.yul\":11721:11741   */\n      sub\n        /* \"#utility.yul\":11717:11718   */\n      0x00\n        /* \"#utility.yul\":11706:11715   */\n      dup4\n        /* \"#utility.yul\":11702:11719   */\n      add\n        /* \"#utility.yul\":11695:11742   */\n      mstore\n        /* \"#utility.yul\":11759:11890   */\n      tag_521\n        /* \"#utility.yul\":11885:11889   */\n      dup2\n        /* \"#utility.yul\":11759:11890   */\n      tag_477\n      jump\t// in\n    tag_521:\n        /* \"#utility.yul\":11751:11890   */\n      swap1\n      pop\n        /* \"#utility.yul\":11649:11897   */\n      swap2\n      swap1\n      pop\n      jump\t// out\n        /* \"#utility.yul\":11903:12322   */\n    tag_143:\n        /* \"#utility.yul\":12069:12073   */\n      0x00\n        /* \"#utility.yul\":12107:12109   */\n      0x20\n        /* \"#utility.yul\":12096:12105   */\n      dup3\n        /* \"#utility.yul\":12092:12110   */\n      add\n        /* \"#utility.yul\":12084:12110   */\n      swap1\n      pop\n        /* \"#utility.yul\":12156:12165   */\n      dup2\n        /* \"#utility.yul\":12150:12154   */\n      dup2\n        /* \"#utility.yul\":12146:12166   */\n      sub\n        /* \"#utility.yul\":12142:12143   */\n      0x00\n        /* \"#utility.yul\":12131:12140   */\n      dup4\n        /* \"#utility.yul\":12127:12144   */\n      add\n        /* \"#utility.yul\":12120:12167   */\n      mstore\n        /* \"#utility.yul\":12184:12315   */\n      tag_523\n        /* \"#utility.yul\":12310:12314   */\n      dup2\n        /* \"#utility.yul\":12184:12315   */\n      tag_482\n      jump\t// in\n    tag_523:\n        /* \"#utility.yul\":12176:12315   */\n      swap1\n      pop\n        /* \"#utility.yul\":12074:12322   */\n      swap2\n      swap1\n      pop\n      jump\t// out\n        /* \"#utility.yul\":12328:12747   */\n    tag_326:\n        /* \"#utility.yul\":12494:12498   */\n      0x00\n        /* \"#utility.yul\":12532:12534   */\n      0x20\n        /* \"#utility.yul\":12521:12530   */\n      dup3\n        /* \"#utility.yul\":12517:12535   */\n      add\n        /* \"#utility.yul\":12509:12535   */\n      swap1\n      pop\n        /* \"#utility.yul\":12581:12590   */\n      dup2\n        /* \"#utility.yul\":12575:12579   */\n      dup2\n        /* \"#utility.yul\":12571:12591   */\n      sub\n        /* \"#utility.yul\":12567:12568   */\n      0x00\n        /* \"#utility.yul\":12556:12565   */\n      dup4\n        /* \"#utility.yul\":12552:12569   */\n      add\n        /* \"#utility.yul\":12545:12592   */\n      mstore\n        /* \"#utility.yul\":12609:12740   */\n      tag_525\n        /* \"#utility.yul\":12735:12739   */\n      dup2\n        /* \"#utility.yul\":12609:12740   */\n      tag_487\n      jump\t// in\n    tag_525:\n        /* \"#utility.yul\":12601:12740   */\n      swap1\n      pop\n        /* \"#utility.yul\":12499:12747   */\n      swap2\n      swap1\n      pop\n      jump\t// out\n        /* \"#utility.yul\":12753:12975   */\n    tag_50:\n        /* \"#utility.yul\":12846:12850   */\n      0x00\n        /* \"#utility.yul\":12884:12886   */\n      0x20\n        /* \"#utility.yul\":12873:12882   */\n      dup3\n        /* \"#utility.yul\":12869:12887   */\n      add\n        /* \"#utility.yul\":12861:12887   */\n      swap1\n      pop\n        /* \"#utility.yul\":12897:12968   */\n      tag_527\n        /* \"#utility.yul\":12965:12966   */\n      0x00\n        /* \"#utility.yul\":12954:12963   */\n      dup4\n        /* \"#utility.yul\":12950:12967   */\n      add\n        /* \"#utility.yul\":12941:12947   */\n      dup5\n        /* \"#utility.yul\":12897:12968   */\n      tag_492\n      jump\t// in\n    tag_527:\n        /* \"#utility.yul\":12851:12975   */\n      swap3\n      swap2\n      pop\n      pop\n      jump\t// out\n        /* \"#utility.yul\":12981:13195   */\n    tag_59:\n        /* \"#utility.yul\":13070:13074   */\n      0x00\n        /* \"#utility.yul\":13108:13110   */\n      0x20\n        /* \"#utility.yul\":13097:13106   */\n      dup3\n        /* \"#utility.yul\":13093:13111   */\n      add\n        /* \"#utility.yul\":13085:13111   */\n      swap1\n      pop\n        /* \"#utility.yul\":13121:13188   */\n      tag_529\n        /* \"#utility.yul\":13185:13186   */\n      0x00\n        /* \"#utility.yul\":13174:13183   */\n      dup4\n        /* \"#utility.yul\":13170:13187   */\n      add\n        /* \"#utility.yul\":13161:13167   */\n      dup5\n        /* \"#utility.yul\":13121:13188   */\n      tag_496\n      jump\t// in\n    tag_529:\n        /* \"#utility.yul\":13075:13195   */\n      swap3\n      swap2\n      pop\n      pop\n      jump\t// out\n        /* \"#utility.yul\":13282:13381   */\n    tag_435:\n        /* \"#utility.yul\":13334:13340   */\n      0x00\n        /* \"#utility.yul\":13368:13373   */\n      dup2\n        /* \"#utility.yul\":13362:13374   */\n      mload\n        /* \"#utility.yul\":13352:13374   */\n      swap1\n      pop\n        /* \"#utility.yul\":13341:13381   */\n      swap2\n      swap1\n      pop\n      jump\t// out\n        /* \"#utility.yul\":13387:13556   */\n    tag_437:\n        /* \"#utility.yul\":13471:13482   */\n      0x00\n        /* \"#utility.yul\":13505:13511   */\n      dup3\n        /* \"#utility.yul\":13500:13503   */\n      dup3\n        /* \"#utility.yul\":13493:13512   */\n      mstore\n        /* \"#utility.yul\":13545:13549   */\n      0x20\n        /* \"#utility.yul\":13540:13543   */\n      dup3\n        /* \"#utility.yul\":13536:13550   */\n      add\n        /* \"#utility.yul\":13521:13550   */\n      swap1\n      pop\n        /* \"#utility.yul\":13483:13556   */\n      swap3\n      swap2\n      pop\n      pop\n      jump\t// out\n        /* \"#utility.yul\":13562:13867   */\n    tag_145:\n        /* \"#utility.yul\":13602:13605   */\n      0x00\n        /* \"#utility.yul\":13621:13641   */\n      tag_535\n        /* \"#utility.yul\":13639:13640   */\n      dup3\n        /* \"#utility.yul\":13621:13641   */\n      tag_495\n      jump\t// in\n    tag_535:\n        /* \"#utility.yul\":13616:13641   */\n      swap2\n      pop\n        /* \"#utility.yul\":13655:13675   */\n      tag_536\n        /* \"#utility.yul\":13673:13674   */\n      dup4\n        /* \"#utility.yul\":13655:13675   */\n      tag_495\n      jump\t// in\n    tag_536:\n        /* \"#utility.yul\":13650:13675   */\n      swap3\n      pop\n        /* \"#utility.yul\":13809:13810   */\n      dup3\n        /* \"#utility.yul\":13741:13807   */\n      0xffffffffffffffffffffffffffffffffffffffffffffffffffffffffffffffff\n        /* \"#utility.yul\":13737:13811   */\n      sub\n        /* \"#utility.yul\":13734:13735   */\n      dup3\n        /* \"#utility.yul\":13731:13812   */\n      gt\n        /* \"#utility.yul\":13728:13730   */\n      iszero\n      tag_537\n      jumpi\n        /* \"#utility.yul\":13815:13833   */\n      tag_538\n      tag_539\n      jump\t// in\n    tag_538:\n        /* \"#utility.yul\":13728:13730   */\n    tag_537:\n        /* \"#utility.yul\":13859:13860   */\n      dup3\n        /* \"#utility.yul\":13856:13857   */\n      dup3\n        /* \"#utility.yul\":13852:13861   */\n      add\n        /* \"#utility.yul\":13845:13861   */\n      swap1\n      pop\n        /* \"#utility.yul\":13606:13867   */\n      swap3\n      swap2\n      pop\n      pop\n      jump\t// out\n        /* \"#utility.yul\":13873:14058   */\n    tag_130:\n        /* \"#utility.yul\":13913:13914   */\n      0x00\n        /* \"#utility.yul\":13930:13950   */\n      tag_541\n        /* \"#utility.yul\":13948:13949   */\n      dup3\n        /* \"#utility.yul\":13930:13950   */\n      tag_495\n      jump\t// in\n    tag_541:\n        /* \"#utility.yul\":13925:13950   */\n      swap2\n      pop\n        /* \"#utility.yul\":13964:13984   */\n      tag_542\n        /* \"#utility.yul\":13982:13983   */\n      dup4\n        /* \"#utility.yul\":13964:13984   */\n      tag_495\n      jump\t// in\n    tag_542:\n        /* \"#utility.yul\":13959:13984   */\n      swap3\n      pop\n        /* \"#utility.yul\":14003:14004   */\n      dup3\n        /* \"#utility.yul\":13993:13995   */\n      tag_543\n      jumpi\n        /* \"#utility.yul\":14008:14026   */\n      tag_544\n      tag_545\n      jump\t// in\n    tag_544:\n        /* \"#utility.yul\":13993:13995   */\n    tag_543:\n        /* \"#utility.yul\":14050:14051   */\n      dup3\n        /* \"#utility.yul\":14047:14048   */\n      dup3\n        /* \"#utility.yul\":14043:14052   */\n      div\n        /* \"#utility.yul\":14038:14052   */\n      swap1\n      pop\n        /* \"#utility.yul\":13915:14058   */\n      swap3\n      swap2\n      pop\n      pop\n      jump\t// out\n        /* \"#utility.yul\":14064:14412   */\n    tag_128:\n        /* \"#utility.yul\":14104:14111   */\n      0x00\n        /* \"#utility.yul\":14127:14147   */\n      tag_547\n        /* \"#utility.yul\":14145:14146   */\n      dup3\n        /* \"#utility.yul\":14127:14147   */\n      tag_495\n      jump\t// in\n    tag_547:\n        /* \"#utility.yul\":14122:14147   */\n      swap2\n      pop\n        /* \"#utility.yul\":14161:14181   */\n      tag_548\n        /* \"#utility.yul\":14179:14180   */\n      dup4\n        /* \"#utility.yul\":14161:14181   */\n      tag_495\n      jump\t// in\n    tag_548:\n        /* \"#utility.yul\":14156:14181   */\n      swap3\n      pop\n        /* \"#utility.yul\":14349:14350   */\n      dup2\n        /* \"#utility.yul\":14281:14347   */\n      0xffffffffffffffffffffffffffffffffffffffffffffffffffffffffffffffff\n        /* \"#utility.yul\":14277:14351   */\n      div\n        /* \"#utility.yul\":14274:14275   */\n      dup4\n        /* \"#utility.yul\":14271:14352   */\n      gt\n        /* \"#utility.yul\":14266:14267   */\n      dup3\n        /* \"#utility.yul\":14259:14268   */\n      iszero\n        /* \"#utility.yul\":14252:14269   */\n      iszero\n        /* \"#utility.yul\":14248:14353   */\n      and\n        /* \"#utility.yul\":14245:14247   */\n      iszero\n      tag_549\n      jumpi\n        /* \"#utility.yul\":14356:14374   */\n      tag_550\n      tag_539\n      jump\t// in\n    tag_550:\n        /* \"#utility.yul\":14245:14247   */\n    tag_549:\n        /* \"#utility.yul\":14404:14405   */\n      dup3\n        /* \"#utility.yul\":14401:14402   */\n      dup3\n        /* \"#utility.yul\":14397:14406   */\n      mul\n        /* \"#utility.yul\":14386:14406   */\n      swap1\n      pop\n        /* \"#utility.yul\":14112:14412   */\n      swap3\n      swap2\n      pop\n      pop\n      jump\t// out\n        /* \"#utility.yul\":14418:14609   */\n    tag_314:\n        /* \"#utility.yul\":14458:14462   */\n      0x00\n        /* \"#utility.yul\":14478:14498   */\n      tag_552\n        /* \"#utility.yul\":14496:14497   */\n      dup3\n        /* \"#utility.yul\":14478:14498   */\n      tag_495\n      jump\t// in\n    tag_552:\n        /* \"#utility.yul\":14473:14498   */\n      swap2\n      pop\n        /* \"#utility.yul\":14512:14532   */\n      tag_553\n        /* \"#utility.yul\":14530:14531   */\n      dup4\n        /* \"#utility.yul\":14512:14532   */\n      tag_495\n      jump\t// in\n    tag_553:\n        /* \"#utility.yul\":14507:14532   */\n      swap3\n      pop\n        /* \"#utility.yul\":14551:14552   */\n      dup3\n        /* \"#utility.yul\":14548:14549   */\n      dup3\n        /* \"#utility.yul\":14545:14553   */\n      lt\n        /* \"#utility.yul\":14542:14544   */\n      iszero\n      tag_554\n      jumpi\n        /* \"#utility.yul\":14556:14574   */\n      tag_555\n      tag_539\n      jump\t// in\n    tag_555:\n        /* \"#utility.yul\":14542:14544   */\n    tag_554:\n        /* \"#utility.yul\":14601:14602   */\n      dup3\n        /* \"#utility.yul\":14598:14599   */\n      dup3\n        /* \"#utility.yul\":14594:14603   */\n      sub\n        /* \"#utility.yul\":14586:14603   */\n      swap1\n      pop\n        /* \"#utility.yul\":14463:14609   */\n      swap3\n      swap2\n      pop\n      pop\n      jump\t// out\n        /* \"#utility.yul\":14615:14800   */\n    tag_187:\n        /* \"#utility.yul\":14653:14657   */\n      0x00\n        /* \"#utility.yul\":14673:14691   */\n      tag_557\n        /* \"#utility.yul\":14689:14690   */\n      dup3\n        /* \"#utility.yul\":14673:14691   */\n      tag_499\n      jump\t// in\n    tag_557:\n        /* \"#utility.yul\":14668:14691   */\n      swap2\n      pop\n        /* \"#utility.yul\":14705:14723   */\n      tag_558\n        /* \"#utility.yul\":14721:14722   */\n      dup4\n        /* \"#utility.yul\":14705:14723   */\n      tag_499\n      jump\t// in\n    tag_558:\n        /* \"#utility.yul\":14700:14723   */\n      swap3\n      pop\n        /* \"#utility.yul\":14742:14743   */\n      dup3\n        /* \"#utility.yul\":14739:14740   */\n      dup3\n        /* \"#utility.yul\":14736:14744   */\n      lt\n        /* \"#utility.yul\":14733:14735   */\n      iszero\n      tag_559\n      jumpi\n        /* \"#utility.yul\":14747:14765   */\n      tag_560\n      tag_539\n      jump\t// in\n    tag_560:\n        /* \"#utility.yul\":14733:14735   */\n    tag_559:\n        /* \"#utility.yul\":14792:14793   */\n      dup3\n        /* \"#utility.yul\":14789:14790   */\n      dup3\n        /* \"#utility.yul\":14785:14794   */\n      sub\n        /* \"#utility.yul\":14777:14794   */\n      swap1\n      pop\n        /* \"#utility.yul\":14658:14800   */\n      swap3\n      swap2\n      pop\n      pop\n      jump\t// out\n        /* \"#utility.yul\":14806:14902   */\n    tag_427:\n        /* \"#utility.yul\":14843:14850   */\n      0x00\n        /* \"#utility.yul\":14872:14896   */\n      tag_562\n        /* \"#utility.yul\":14890:14895   */\n      dup3\n        /* \"#utility.yul\":14872:14896   */\n      tag_563\n      jump\t// in\n    tag_562:\n        /* \"#utility.yul\":14861:14896   */\n      swap1\n      pop\n        /* \"#utility.yul\":14851:14902   */\n      swap2\n      swap1\n      pop\n      jump\t// out\n        /* \"#utility.yul\":14908:14998   */\n    tag_431:\n        /* \"#utility.yul\":14942:14949   */\n      0x00\n        /* \"#utility.yul\":14985:14990   */\n      dup2\n        /* \"#utility.yul\":14978:14991   */\n      iszero\n        /* \"#utility.yul\":14971:14992   */\n      iszero\n        /* \"#utility.yul\":14960:14992   */\n      swap1\n      pop\n        /* \"#utility.yul\":14950:14998   */\n      swap2\n      swap1\n      pop\n      jump\t// out\n        /* \"#utility.yul\":15004:15130   */\n    tag_563:\n        /* \"#utility.yul\":15041:15048   */\n      0x00\n        /* \"#utility.yul\":15081:15123   */\n      0xffffffffffffffffffffffffffffffffffffffff\n        /* \"#utility.yul\":15074:15079   */\n      dup3\n        /* \"#utility.yul\":15070:15124   */\n      and\n        /* \"#utility.yul\":15059:15124   */\n      swap1\n      pop\n        /* \"#utility.yul\":15049:15130   */\n      swap2\n      swap1\n      pop\n      jump\t// out\n        /* \"#utility.yul\":15136:15213   */\n    tag_495:\n        /* \"#utility.yul\":15173:15180   */\n      0x00\n        /* \"#utility.yul\":15202:15207   */\n      dup2\n        /* \"#utility.yul\":15191:15207   */\n      swap1\n      pop\n        /* \"#utility.yul\":15181:15213   */\n      swap2\n      swap1\n      pop\n      jump\t// out\n        /* \"#utility.yul\":15219:15305   */\n    tag_499:\n        /* \"#utility.yul\":15254:15261   */\n      0x00\n        /* \"#utility.yul\":15294:15298   */\n      0xff\n        /* \"#utility.yul\":15287:15292   */\n      dup3\n        /* \"#utility.yul\":15283:15299   */\n      and\n        /* \"#utility.yul\":15272:15299   */\n      swap1\n      pop\n        /* \"#utility.yul\":15262:15305   */\n      swap2\n      swap1\n      pop\n      jump\t// out\n        /* \"#utility.yul\":15311:15618   */\n    tag_439:\n        /* \"#utility.yul\":15379:15380   */\n      0x00\n        /* \"#utility.yul\":15389:15502   */\n    tag_569:\n        /* \"#utility.yul\":15403:15409   */\n      dup4\n        /* \"#utility.yul\":15400:15401   */\n      dup2\n        /* \"#utility.yul\":15397:15410   */\n      lt\n        /* \"#utility.yul\":15389:15502   */\n      iszero\n      tag_571\n      jumpi\n        /* \"#utility.yul\":15488:15489   */\n      dup1\n        /* \"#utility.yul\":15483:15486   */\n      dup3\n        /* \"#utility.yul\":15479:15490   */\n      add\n        /* \"#utility.yul\":15473:15491   */\n      mload\n        /* \"#utility.yul\":15469:15470   */\n      dup2\n        /* \"#utility.yul\":15464:15467   */\n      dup5\n        /* \"#utility.yul\":15460:15471   */\n      add\n        /* \"#utility.yul\":15453:15492   */\n      mstore\n        /* \"#utility.yul\":15425:15427   */\n      0x20\n        /* \"#utility.yul\":15422:15423   */\n      dup2\n        /* \"#utility.yul\":15418:15428   */\n      add\n        /* \"#utility.yul\":15413:15428   */\n      swap1\n      pop\n        /* \"#utility.yul\":15389:15502   */\n      jump(tag_569)\n    tag_571:\n        /* \"#utility.yul\":15520:15526   */\n      dup4\n        /* \"#utility.yul\":15517:15518   */\n      dup2\n        /* \"#utility.yul\":15514:15527   */\n      gt\n        /* \"#utility.yul\":15511:15513   */\n      iszero\n      tag_572\n      jumpi\n        /* \"#utility.yul\":15600:15601   */\n      0x00\n        /* \"#utility.yul\":15591:15597   */\n      dup5\n        /* \"#utility.yul\":15586:15589   */\n      dup5\n        /* \"#utility.yul\":15582:15598   */\n      add\n        /* \"#utility.yul\":15575:15602   */\n      mstore\n        /* \"#utility.yul\":15511:15513   */\n    tag_572:\n        /* \"#utility.yul\":15360:15618   */\n      pop\n      pop\n      pop\n      pop\n      jump\t// out\n        /* \"#utility.yul\":15624:15944   */\n    tag_111:\n        /* \"#utility.yul\":15668:15674   */\n      0x00\n        /* \"#utility.yul\":15705:15706   */\n      0x02\n        /* \"#utility.yul\":15699:15703   */\n      dup3\n        /* \"#utility.yul\":15695:15707   */\n      div\n        /* \"#utility.yul\":15685:15707   */\n      swap1\n      pop\n        /* \"#utility.yul\":15752:15753   */\n      0x01\n        /* \"#utility.yul\":15746:15750   */\n      dup3\n        /* \"#utility.yul\":15742:15754   */\n      and\n        /* \"#utility.yul\":15773:15791   */\n      dup1\n        /* \"#utility.yul\":15763:15765   */\n      tag_574\n      jumpi\n        /* \"#utility.yul\":15829:15833   */\n      0x7f\n        /* \"#utility.yul\":15821:15827   */\n      dup3\n        /* \"#utility.yul\":15817:15834   */\n      and\n        /* \"#utility.yul\":15807:15834   */\n      swap2\n      pop\n        /* \"#utility.yul\":15763:15765   */\n    tag_574:\n        /* \"#utility.yul\":15891:15893   */\n      0x20\n        /* \"#utility.yul\":15883:15889   */\n      dup3\n        /* \"#utility.yul\":15880:15894   */\n      lt\n        /* \"#utility.yul\":15860:15878   */\n      dup2\n        /* \"#utility.yul\":15857:15895   */\n      eq\n        /* \"#utility.yul\":15854:15856   */\n      iszero\n      tag_575\n      jumpi\n        /* \"#utility.yul\":15910:15928   */\n      tag_576\n      tag_577\n      jump\t// in\n    tag_576:\n        /* \"#utility.yul\":15854:15856   */\n    tag_575:\n        /* \"#utility.yul\":15675:15944   */\n      pop\n      swap2\n      swap1\n      pop\n      jump\t// out\n        /* \"#utility.yul\":15950:16117   */\n    tag_171:\n        /* \"#utility.yul\":15987:15990   */\n      0x00\n        /* \"#utility.yul\":16010:16032   */\n      tag_579\n        /* \"#utility.yul\":16026:16031   */\n      dup3\n        /* \"#utility.yul\":16010:16032   */\n      tag_499\n      jump\t// in\n    tag_579:\n        /* \"#utility.yul\":16001:16032   */\n      swap2\n      pop\n        /* \"#utility.yul\":16054:16058   */\n      0xff\n        /* \"#utility.yul\":16047:16052   */\n      dup3\n        /* \"#utility.yul\":16044:16059   */\n      eq\n        /* \"#utility.yul\":16041:16043   */\n      iszero\n      tag_580\n      jumpi\n        /* \"#utility.yul\":16062:16080   */\n      tag_581\n      tag_539\n      jump\t// in\n    tag_581:\n        /* \"#utility.yul\":16041:16043   */\n    tag_580:\n        /* \"#utility.yul\":16109:16110   */\n      0x01\n        /* \"#utility.yul\":16102:16107   */\n      dup3\n        /* \"#utility.yul\":16098:16111   */\n      add\n        /* \"#utility.yul\":16091:16111   */\n      swap1\n      pop\n        /* \"#utility.yul\":15991:16117   */\n      swap2\n      swap1\n      pop\n      jump\t// out\n        /* \"#utility.yul\":16123:16303   */\n    tag_539:\n        /* \"#utility.yul\":16171:16248   */\n      0x4e487b7100000000000000000000000000000000000000000000000000000000\n        /* \"#utility.yul\":16168:16169   */\n      0x00\n        /* \"#utility.yul\":16161:16249   */\n      mstore\n        /* \"#utility.yul\":16268:16272   */\n      0x11\n        /* \"#utility.yul\":16265:16266   */\n      0x04\n        /* \"#utility.yul\":16258:16273   */\n      mstore\n        /* \"#utility.yul\":16292:16296   */\n      0x24\n        /* \"#utility.yul\":16289:16290   */\n      0x00\n        /* \"#utility.yul\":16282:16297   */\n      revert\n        /* \"#utility.yul\":16309:16489   */\n    tag_545:\n        /* \"#utility.yul\":16357:16434   */\n      0x4e487b7100000000000000000000000000000000000000000000000000000000\n        /* \"#utility.yul\":16354:16355   */\n      0x00\n        /* \"#utility.yul\":16347:16435   */\n      mstore\n        /* \"#utility.yul\":16454:16458   */\n      0x12\n        /* \"#utility.yul\":16451:16452   */\n      0x04\n        /* \"#utility.yul\":16444:16459   */\n      mstore\n        /* \"#utility.yul\":16478:16482   */\n      0x24\n        /* \"#utility.yul\":16475:16476   */\n      0x00\n        /* \"#utility.yul\":16468:16483   */\n      revert\n        /* \"#utility.yul\":16495:16675   */\n    tag_577:\n        /* \"#utility.yul\":16543:16620   */\n      0x4e487b7100000000000000000000000000000000000000000000000000000000\n        /* \"#utility.yul\":16540:16541   */\n      0x00\n        /* \"#utility.yul\":16533:16621   */\n      mstore\n        /* \"#utility.yul\":16640:16644   */\n      0x22\n        /* \"#utility.yul\":16637:16638   */\n      0x04\n        /* \"#utility.yul\":16630:16645   */\n      mstore\n        /* \"#utility.yul\":16664:16668   */\n      0x24\n        /* \"#utility.yul\":16661:16662   */\n      0x00\n        /* \"#utility.yul\":16654:16669   */\n      revert\n        /* \"#utility.yul\":16681:16861   */\n    tag_125:\n        /* \"#utility.yul\":16729:16806   */\n      0x4e487b7100000000000000000000000000000000000000000000000000000000\n        /* \"#utility.yul\":16726:16727   */\n      0x00\n        /* \"#utility.yul\":16719:16807   */\n      mstore\n        /* \"#utility.yul\":16826:16830   */\n      0x32\n        /* \"#utility.yul\":16823:16824   */\n      0x04\n        /* \"#utility.yul\":16816:16831   */\n      mstore\n        /* \"#utility.yul\":16850:16854   */\n      0x24\n        /* \"#utility.yul\":16847:16848   */\n      0x00\n        /* \"#utility.yul\":16840:16855   */\n      revert\n        /* \"#utility.yul\":16990:17107   */\n    tag_397:\n        /* \"#utility.yul\":17099:17100   */\n      0x00\n        /* \"#utility.yul\":17096:17097   */\n      dup1\n        /* \"#utility.yul\":17089:17101   */\n      revert\n        /* \"#utility.yul\":17113:17215   */\n    tag_441:\n        /* \"#utility.yul\":17154:17160   */\n      0x00\n        /* \"#utility.yul\":17205:17207   */\n      0x1f\n        /* \"#utility.yul\":17201:17208   */\n      not\n        /* \"#utility.yul\":17196:17198   */\n      0x1f\n        /* \"#utility.yul\":17189:17194   */\n      dup4\n        /* \"#utility.yul\":17185:17199   */\n      add\n        /* \"#utility.yul\":17181:17209   */\n      and\n        /* \"#utility.yul\":17171:17209   */\n      swap1\n      pop\n        /* \"#utility.yul\":17161:17215   */\n      swap2\n      swap1\n      pop\n      jump\t// out\n        /* \"#utility.yul\":17221:17443   */\n    tag_446:\n        /* \"#utility.yul\":17361:17395   */\n      0x45524332303a207472616e7366657220746f20746865207a65726f2061646472\n        /* \"#utility.yul\":17357:17358   */\n      0x00\n        /* \"#utility.yul\":17349:17355   */\n      dup3\n        /* \"#utility.yul\":17345:17359   */\n      add\n        /* \"#utility.yul\":17338:17396   */\n      mstore\n        /* \"#utility.yul\":17430:17435   */\n      0x6573730000000000000000000000000000000000000000000000000000000000\n        /* \"#utility.yul\":17425:17427   */\n      0x20\n        /* \"#utility.yul\":17417:17423   */\n      dup3\n        /* \"#utility.yul\":17413:17428   */\n      add\n        /* \"#utility.yul\":17406:17436   */\n      mstore\n        /* \"#utility.yul\":17327:17443   */\n      pop\n      jump\t// out\n        /* \"#utility.yul\":17449:17674   */\n    tag_451:\n        /* \"#utility.yul\":17589:17623   */\n      0x4f776e61626c653a206e6577206f776e657220697320746865207a65726f2061\n        /* \"#utility.yul\":17585:17586   */\n      0x00\n        /* \"#utility.yul\":17577:17583   */\n      dup3\n        /* \"#utility.yul\":17573:17587   */\n      add\n        /* \"#utility.yul\":17566:17624   */\n      mstore\n        /* \"#utility.yul\":17658:17666   */\n      0x6464726573730000000000000000000000000000000000000000000000000000\n        /* \"#utility.yul\":17653:17655   */\n      0x20\n        /* \"#utility.yul\":17645:17651   */\n      dup3\n        /* \"#utility.yul\":17641:17656   */\n      add\n        /* \"#utility.yul\":17634:17667   */\n      mstore\n        /* \"#utility.yul\":17555:17674   */\n      pop\n      jump\t// out\n        /* \"#utility.yul\":17680:17901   */\n    tag_456:\n        /* \"#utility.yul\":17820:17854   */\n      0x45524332303a20617070726f766520746f20746865207a65726f206164647265\n        /* \"#utility.yul\":17816:17817   */\n      0x00\n        /* \"#utility.yul\":17808:17814   */\n      dup3\n        /* \"#utility.yul\":17804:17818   */\n      add\n        /* \"#utility.yul\":17797:17855   */\n      mstore\n        /* \"#utility.yul\":17889:17893   */\n      0x7373000000000000000000000000000000000000000000000000000000000000\n        /* \"#utility.yul\":17884:17886   */\n      0x20\n        /* \"#utility.yul\":17876:17882   */\n      dup3\n        /* \"#utility.yul\":17872:17887   */\n      add\n        /* \"#utility.yul\":17865:17894   */\n      mstore\n        /* \"#utility.yul\":17786:17901   */\n      pop\n      jump\t// out\n        /* \"#utility.yul\":17907:18132   */\n    tag_461:\n        /* \"#utility.yul\":18047:18081   */\n      0x45524332303a207472616e7366657220616d6f756e7420657863656564732062\n        /* \"#utility.yul\":18043:18044   */\n      0x00\n        /* \"#utility.yul\":18035:18041   */\n      dup3\n        /* \"#utility.yul\":18031:18045   */\n      add\n        /* \"#utility.yul\":18024:18082   */\n      mstore\n        /* \"#utility.yul\":18116:18124   */\n      0x616c616e63650000000000000000000000000000000000000000000000000000\n        /* \"#utility.yul\":18111:18113   */\n      0x20\n        /* \"#utility.yul\":18103:18109   */\n      dup3\n        /* \"#utility.yul\":18099:18114   */\n      add\n        /* \"#utility.yul\":18092:18125   */\n      mstore\n        /* \"#utility.yul\":18013:18132   */\n      pop\n      jump\t// out\n        /* \"#utility.yul\":18138:18320   */\n    tag_466:\n        /* \"#utility.yul\":18278:18312   */\n      0x4f776e61626c653a2063616c6c6572206973206e6f7420746865206f776e6572\n        /* \"#utility.yul\":18274:18275   */\n      0x00\n        /* \"#utility.yul\":18266:18272   */\n      dup3\n        /* \"#utility.yul\":18262:18276   */\n      add\n        /* \"#utility.yul\":18255:18313   */\n      mstore\n        /* \"#utility.yul\":18244:18320   */\n      pop\n      jump\t// out\n        /* \"#utility.yul\":18326:18508   */\n    tag_471:\n        /* \"#utility.yul\":18466:18500   */\n      0x6163636f756e74206973206120726567756c6172207368617265686f6c646572\n        /* \"#utility.yul\":18462:18463   */\n      0x00\n        /* \"#utility.yul\":18454:18460   */\n      dup3\n        /* \"#utility.yul\":18450:18464   */\n      add\n        /* \"#utility.yul\":18443:18501   */\n      mstore\n        /* \"#utility.yul\":18432:18508   */\n      pop\n      jump\t// out\n        /* \"#utility.yul\":18514:18738   */\n    tag_476:\n        /* \"#utility.yul\":18654:18688   */\n      0x45524332303a207472616e736665722066726f6d20746865207a65726f206164\n        /* \"#utility.yul\":18650:18651   */\n      0x00\n        /* \"#utility.yul\":18642:18648   */\n      dup3\n        /* \"#utility.yul\":18638:18652   */\n      add\n        /* \"#utility.yul\":18631:18689   */\n      mstore\n        /* \"#utility.yul\":18723:18730   */\n      0x6472657373000000000000000000000000000000000000000000000000000000\n        /* \"#utility.yul\":18718:18720   */\n      0x20\n        /* \"#utility.yul\":18710:18716   */\n      dup3\n        /* \"#utility.yul\":18706:18721   */\n      add\n        /* \"#utility.yul\":18699:18731   */\n      mstore\n        /* \"#utility.yul\":18620:18738   */\n      pop\n      jump\t// out\n        /* \"#utility.yul\":18744:18967   */\n    tag_481:\n        /* \"#utility.yul\":18884:18918   */\n      0x45524332303a20617070726f76652066726f6d20746865207a65726f20616464\n        /* \"#utility.yul\":18880:18881   */\n      0x00\n        /* \"#utility.yul\":18872:18878   */\n      dup3\n        /* \"#utility.yul\":18868:18882   */\n      add\n        /* \"#utility.yul\":18861:18919   */\n      mstore\n        /* \"#utility.yul\":18953:18959   */\n      0x7265737300000000000000000000000000000000000000000000000000000000\n        /* \"#utility.yul\":18948:18950   */\n      0x20\n        /* \"#utility.yul\":18940:18946   */\n      dup3\n        /* \"#utility.yul\":18936:18951   */\n      add\n        /* \"#utility.yul\":18929:18960   */\n      mstore\n        /* \"#utility.yul\":18850:18967   */\n      pop\n      jump\t// out\n        /* \"#utility.yul\":18973:19196   */\n    tag_486:\n        /* \"#utility.yul\":19113:19147   */\n      0x6163636f756e74206973206e6f74206120726567756c6172207368617265686f\n        /* \"#utility.yul\":19109:19110   */\n      0x00\n        /* \"#utility.yul\":19101:19107   */\n      dup3\n        /* \"#utility.yul\":19097:19111   */\n      add\n        /* \"#utility.yul\":19090:19148   */\n      mstore\n        /* \"#utility.yul\":19182:19188   */\n      0x6c64657200000000000000000000000000000000000000000000000000000000\n        /* \"#utility.yul\":19177:19179   */\n      0x20\n        /* \"#utility.yul\":19169:19175   */\n      dup3\n        /* \"#utility.yul\":19165:19180   */\n      add\n        /* \"#utility.yul\":19158:19189   */\n      mstore\n        /* \"#utility.yul\":19079:19196   */\n      pop\n      jump\t// out\n        /* \"#utility.yul\":19202:19426   */\n    tag_491:\n        /* \"#utility.yul\":19342:19376   */\n      0x45524332303a2064656372656173656420616c6c6f77616e63652062656c6f77\n        /* \"#utility.yul\":19338:19339   */\n      0x00\n        /* \"#utility.yul\":19330:19336   */\n      dup3\n        /* \"#utility.yul\":19326:19340   */\n      add\n        /* \"#utility.yul\":19319:19377   */\n      mstore\n        /* \"#utility.yul\":19411:19418   */\n      0x207a65726f000000000000000000000000000000000000000000000000000000\n        /* \"#utility.yul\":19406:19408   */\n      0x20\n        /* \"#utility.yul\":19398:19404   */\n      dup3\n        /* \"#utility.yul\":19394:19409   */\n      add\n        /* \"#utility.yul\":19387:19419   */\n      mstore\n        /* \"#utility.yul\":19308:19426   */\n      pop\n      jump\t// out\n        /* \"#utility.yul\":19432:19554   */\n    tag_385:\n        /* \"#utility.yul\":19505:19529   */\n      tag_601\n        /* \"#utility.yul\":19523:19528   */\n      dup2\n        /* \"#utility.yul\":19505:19529   */\n      tag_427\n      jump\t// in\n    tag_601:\n        /* \"#utility.yul\":19498:19503   */\n      dup2\n        /* \"#utility.yul\":19495:19530   */\n      eq\n        /* \"#utility.yul\":19485:19487   */\n      tag_602\n      jumpi\n        /* \"#utility.yul\":19544:19545   */\n      0x00\n        /* \"#utility.yul\":19541:19542   */\n      dup1\n        /* \"#utility.yul\":19534:19546   */\n      revert\n        /* \"#utility.yul\":19485:19487   */\n    tag_602:\n        /* \"#utility.yul\":19475:19554   */\n      pop\n      jump\t// out\n        /* \"#utility.yul\":19560:19682   */\n    tag_389:\n        /* \"#utility.yul\":19633:19657   */\n      tag_604\n        /* \"#utility.yul\":19651:19656   */\n      dup2\n        /* \"#utility.yul\":19633:19657   */\n      tag_495\n      jump\t// in\n    tag_604:\n        /* \"#utility.yul\":19626:19631   */\n      dup2\n        /* \"#utility.yul\":19623:19658   */\n      eq\n        /* \"#utility.yul\":19613:19615   */\n      tag_605\n      jumpi\n        /* \"#utility.yul\":19672:19673   */\n      0x00\n        /* \"#utility.yul\":19669:19670   */\n      dup1\n        /* \"#utility.yul\":19662:19674   */\n      revert\n        /* \"#utility.yul\":19613:19615   */\n    tag_605:\n        /* \"#utility.yul\":19603:19682   */\n      pop\n      jump\t// out\n        /* \"#utility.yul\":19688:19806   */\n    tag_393:\n        /* \"#utility.yul\":19759:19781   */\n      tag_607\n        /* \"#utility.yul\":19775:19780   */\n      dup2\n        /* \"#utility.yul\":19759:19781   */\n      tag_499\n      jump\t// in\n    tag_607:\n        /* \"#utility.yul\":19752:19757   */\n      dup2\n        /* \"#utility.yul\":19749:19782   */\n      eq\n        /* \"#utility.yul\":19739:19741   */\n      tag_608\n      jumpi\n        /* \"#utility.yul\":19796:19797   */\n      0x00\n        /* \"#utility.yul\":19793:19794   */\n      dup1\n        /* \"#utility.yul\":19786:19798   */\n      revert\n        /* \"#utility.yul\":19739:19741   */\n    tag_608:\n        /* \"#utility.yul\":19729:19806   */\n      pop\n      jump\t// out\n\n    auxdata: 0xa26469706673582212206d44f80efb3522c11a4c8cb10f384b76221f2b01cf68d2fee97ee1e68aa8f36264736f6c63430008060033\n}\n",
				"bytecode": {
					"linkReferences": {},
					"object": "6080604052600360085560085467ffffffffffffffff81111562000028576200002762000c36565b5b604051908082528060200260200182016040528015620000575781602001602082028036833780820191505090505b50600990805190602001906200006f9291906200055b565b5060085467ffffffffffffffff8111156200008f576200008e62000c36565b5b604051908082528060200260200182016040528015620000be5781602001602082028036833780820191505090505b50600a9080519060200190620000d69291906200055b565b50348015620000e457600080fd5b50604051620038d5380380620038d583398181016040528101906200010a9190620006f2565b8282816003908051906020019062000124929190620005ad565b5080600490805190602001906200013d929190620005ad565b50505062000160620001546200031a60201b60201c565b6200032260201b60201c565b620001a33362000175620003e860201b60201c565b60ff16600a6200018691906200092b565b6311e1a30062000197919062000a68565b620003f160201b60201c565b620001b3620003e860201b60201c565b60ff16600a620001c491906200092b565b6009600081548110620001dc57620001db62000c07565b5b9060005260206000200181905550620001fa620003e860201b60201c565b60ff16600a6200020b91906200092b565b600960018154811062000223576200022262000c07565b5b906000526020600020018190555062000241620003e860201b60201c565b60ff16600a6200025291906200092b565b60096002815481106200026a576200026962000c07565b5b906000526020600020018190555062000288620003e860201b60201c565b60ff16600a6200029991906200092b565b6311e1a300620002aa919062000a68565b600a600081548110620002c257620002c162000c07565b5b906000526020600020018190555080600b60006101000a81548173ffffffffffffffffffffffffffffffffffffffff021916908373ffffffffffffffffffffffffffffffffffffffff16021790555050505062000cda565b600033905090565b6000600560009054906101000a900473ffffffffffffffffffffffffffffffffffffffff16905081600560006101000a81548173ffffffffffffffffffffffffffffffffffffffff021916908373ffffffffffffffffffffffffffffffffffffffff1602179055508173ffffffffffffffffffffffffffffffffffffffff168173ffffffffffffffffffffffffffffffffffffffff167f8be0079c531659141344cd1fd0a4f28419497f9722a3daafe3b4186f6b6457e060405160405180910390a35050565b60006012905090565b600073ffffffffffffffffffffffffffffffffffffffff168273ffffffffffffffffffffffffffffffffffffffff16141562000464576040517f08c379a00000000000000000000000000000000000000000000000000000000081526004016200045b90620007c4565b60405180910390fd5b62000478600083836200055660201b60201c565b80600260008282546200048c919062000873565b92505081905550806000808473ffffffffffffffffffffffffffffffffffffffff1673ffffffffffffffffffffffffffffffffffffffff1681526020019081526020016000206000828254620004e3919062000873565b925050819055508173ffffffffffffffffffffffffffffffffffffffff16600073ffffffffffffffffffffffffffffffffffffffff167fddf252ad1be2c89b69c2b068fc378daa952ba7f163c4a11628f55a4df523b3ef836040516200054a9190620007e6565b60405180910390a35050565b505050565b8280548282559060005260206000209081019282156200059a579160200282015b82811115620005995782518255916020019190600101906200057c565b5b509050620005a991906200063e565b5090565b828054620005bb9062000b3d565b90600052602060002090601f016020900481019282620005df57600085556200062b565b82601f10620005fa57805160ff19168380011785556200062b565b828001600101855582156200062b579182015b828111156200062a5782518255916020019190600101906200060d565b5b5090506200063a91906200063e565b5090565b5b80821115620006595760008160009055506001016200063f565b5090565b6000620006746200066e846200082c565b62000803565b90508281526020810184848401111562000693576200069262000c6a565b5b620006a084828562000b07565b509392505050565b600081519050620006b98162000cc0565b92915050565b600082601f830112620006d757620006d662000c65565b5b8151620006e98482602086016200065d565b91505092915050565b6000806000606084860312156200070e576200070d62000c74565b5b600084015167ffffffffffffffff8111156200072f576200072e62000c6f565b5b6200073d86828701620006bf565b935050602084015167ffffffffffffffff81111562000761576200076062000c6f565b5b6200076f86828701620006bf565b92505060406200078286828701620006a8565b9150509250925092565b60006200079b601f8362000862565b9150620007a88262000c97565b602082019050919050565b620007be8162000afd565b82525050565b60006020820190508181036000830152620007df816200078c565b9050919050565b6000602082019050620007fd6000830184620007b3565b92915050565b60006200080f62000822565b90506200081d828262000b73565b919050565b6000604051905090565b600067ffffffffffffffff8211156200084a576200084962000c36565b5b620008558262000c79565b9050602081019050919050565b600082825260208201905092915050565b6000620008808262000afd565b91506200088d8362000afd565b9250827fffffffffffffffffffffffffffffffffffffffffffffffffffffffffffffffff03821115620008c557620008c462000ba9565b5b828201905092915050565b6000808291508390505b60018511156200092257808604811115620008fa57620008f962000ba9565b5b60018516156200090a5780820291505b80810290506200091a8562000c8a565b9450620008da565b94509492505050565b6000620009388262000afd565b9150620009458362000afd565b9250620009747fffffffffffffffffffffffffffffffffffffffffffffffffffffffffffffffff84846200097c565b905092915050565b6000826200098e576001905062000a61565b816200099e576000905062000a61565b8160018114620009b75760028114620009c257620009f8565b600191505062000a61565b60ff841115620009d757620009d662000ba9565b5b8360020a915084821115620009f157620009f062000ba9565b5b5062000a61565b5060208310610133831016604e8410600b841016171562000a325782820a90508381111562000a2c5762000a2b62000ba9565b5b62000a61565b62000a418484846001620008d0565b9250905081840481111562000a5b5762000a5a62000ba9565b5b81810290505b9392505050565b600062000a758262000afd565b915062000a828362000afd565b9250817fffffffffffffffffffffffffffffffffffffffffffffffffffffffffffffffff048311821515161562000abe5762000abd62000ba9565b5b828202905092915050565b600062000ad68262000add565b9050919050565b600073ffffffffffffffffffffffffffffffffffffffff82169050919050565b6000819050919050565b60005b8381101562000b2757808201518184015260208101905062000b0a565b8381111562000b37576000848401525b50505050565b6000600282049050600182168062000b5657607f821691505b6020821081141562000b6d5762000b6c62000bd8565b5b50919050565b62000b7e8262000c79565b810181811067ffffffffffffffff8211171562000ba05762000b9f62000c36565b5b80604052505050565b7f4e487b7100000000000000000000000000000000000000000000000000000000600052601160045260246000fd5b7f4e487b7100000000000000000000000000000000000000000000000000000000600052602260045260246000fd5b7f4e487b7100000000000000000000000000000000000000000000000000000000600052603260045260246000fd5b7f4e487b7100000000000000000000000000000000000000000000000000000000600052604160045260246000fd5b600080fd5b600080fd5b600080fd5b600080fd5b6000601f19601f8301169050919050565b60008160011c9050919050565b7f45524332303a206d696e7420746f20746865207a65726f206164647265737300600082015250565b62000ccb8162000ac9565b811462000cd757600080fd5b50565b612beb8062000cea6000396000f3fe608060405234801561001057600080fd5b50600436106101375760003560e01c806370a08231116100b8578063a0712d681161007c578063a0712d6814610350578063a33e7d7e1461036c578063a457c2d714610388578063a9059cbb146103b8578063dd62ed3e146103e8578063f2fde38b1461041857610137565b806370a08231146102aa578063715018a6146102da5780637a0d944c146102e45780638da5cb5b1461031457806395d89b411461033257610137565b806318160ddd116100ff57806318160ddd146101de57806323b872dd146101fc578063313ce5671461022c578063395093511461024a578063693136781461027a57610137565b806306fdde031461013c578063095ea7b31461015a5780630a61877e1461018a57806313b954a3146101a65780631506f480146101c2575b600080fd5b610144610434565b60405161015191906123f3565b60405180910390f35b610174600480360381019061016f919061213d565b6104c6565b60405161018191906123d8565b60405180910390f35b6101a4600480360381019061019f919061207d565b6104e4565b005b6101c060048036038101906101bb919061213d565b610739565b005b6101dc60048036038101906101d7919061213d565b6109ec565b005b6101e6610d80565b6040516101f39190612555565b60405180910390f35b610216600480360381019061021191906120ea565b610d8a565b60405161022391906123d8565b60405180910390f35b610234610d97565b6040516102419190612570565b60405180910390f35b610264600480360381019061025f919061213d565b610da0565b60405161027191906123d8565b60405180910390f35b610294600480360381019061028f91906121bd565b610e4c565b6040516102a19190612555565b60405180910390f35b6102c460048036038101906102bf919061207d565b610e70565b6040516102d19190612555565b60405180910390f35b6102e2611018565b005b6102fe60048036038101906102f9919061207d565b6110a0565b60405161030b9190612570565b60405180910390f35b61031c6110c0565b60405161032991906123bd565b60405180910390f35b61033a6110ea565b60405161034791906123f3565b60405180910390f35b61036a600480360381019061036591906121bd565b61117c565b005b6103866004803603810190610381919061217d565b6114ed565b005b6103a2600480360381019061039d919061213d565b611771565b6040516103af91906123d8565b60405180910390f35b6103d260048036038101906103cd919061213d565b611865565b6040516103df91906123d8565b60405180910390f35b61040260048036038101906103fd91906120aa565b6119a2565b60405161040f9190612555565b60405180910390f35b610432600480360381019061042d919061207d565b611a29565b005b60606003805461044390612778565b80601f016020809104026020016040519081016040528092919081815260200182805461046f90612778565b80156104bc5780601f10610491576101008083540402835291602001916104bc565b820191906000526020600020905b81548152906001019060200180831161049f57829003601f168201915b5050505050905090565b60006104da6104d3611b21565b8484611b29565b6001905092915050565b6000600760008373ffffffffffffffffffffffffffffffffffffffff1673ffffffffffffffffffffffffffffffffffffffff16815260200190815260200160002060009054906101000a900460ff1660ff16141561054157610736565b600660008273ffffffffffffffffffffffffffffffffffffffff1673ffffffffffffffffffffffffffffffffffffffff168152602001908152602001600020546000808373ffffffffffffffffffffffffffffffffffffffff1673ffffffffffffffffffffffffffffffffffffffff168152602001908152602001600020546009600760008573ffffffffffffffffffffffffffffffffffffffff1673ffffffffffffffffffffffffffffffffffffffff16815260200190815260200160002060009054906101000a900460ff1660ff168154811061062357610622612861565b5b9060005260206000200154610638919061262e565b61064291906125fd565b6000808373ffffffffffffffffffffffffffffffffffffffff1673ffffffffffffffffffffffffffffffffffffffff168152602001908152602001600020819055506009600760008373ffffffffffffffffffffffffffffffffffffffff1673ffffffffffffffffffffffffffffffffffffffff16815260200190815260200160002060009054906101000a900460ff1660ff16815481106106e7576106e6612861565b5b9060005260206000200154600660008373ffffffffffffffffffffffffffffffffffffffff1673ffffffffffffffffffffffffffffffffffffffff168152602001908152602001600020819055505b50565b610741611b21565b73ffffffffffffffffffffffffffffffffffffffff1661075f6110c0565b73ffffffffffffffffffffffffffffffffffffffff16146107b5576040517f08c379a00000000000000000000000000000000000000000000000000000000081526004016107ac90612495565b60405180910390fd5b6000600760008473ffffffffffffffffffffffffffffffffffffffff1673ffffffffffffffffffffffffffffffffffffffff16815260200190815260200160002060009054906101000a900460ff1660ff1614610847576040517f08c379a000000000000000000000000000000000000000000000000000000000815260040161083e90612515565b60405180910390fd5b806000808473ffffffffffffffffffffffffffffffffffffffff1673ffffffffffffffffffffffffffffffffffffffff168152602001908152602001600020600082825461089591906125a7565b925050819055506000600190505b60028160ff16116109ce576002826108bb91906125fd565b600a8260ff16815481106108d2576108d1612861565b5b90600052602060002001546108e791906125a7565b60098260ff16815481106108fe576108fd612861565b5b906000526020600020016000828254610917919061262e565b92505081905550600a8160ff168154811061093557610934612861565b5b906000526020600020015460098260ff168154811061095757610956612861565b5b90600052602060002001600082825461097091906125fd565b9250508190555060028261098491906125fd565b600a8260ff168154811061099b5761099a612861565b5b9060005260206000200160008282546109b491906125a7565b9250508190555080806109c6906127aa565b9150506108a3565b5080600260008282546109e191906125a7565b925050819055505050565b6109f4611b21565b73ffffffffffffffffffffffffffffffffffffffff16610a126110c0565b73ffffffffffffffffffffffffffffffffffffffff1614610a68576040517f08c379a0000000000000000000000000000000000000000000000000000000008152600401610a5f90612495565b60405180910390fd5b6000600760008473ffffffffffffffffffffffffffffffffffffffff1673ffffffffffffffffffffffffffffffffffffffff16815260200190815260200160002060009054906101000a900460ff1660ff161415610afb576040517f08c379a0000000000000000000000000000000000000000000000000000000008152600401610af2906124b5565b60405180910390fd5b610b04826104e4565b806000808473ffffffffffffffffffffffffffffffffffffffff1673ffffffffffffffffffffffffffffffffffffffff1681526020019081526020016000206000828254610b5291906125a7565b92505081905550806002610b66919061262e565b600080600b60009054906101000a900473ffffffffffffffffffffffffffffffffffffffff1673ffffffffffffffffffffffffffffffffffffffff1673ffffffffffffffffffffffffffffffffffffffff1681526020019081526020016000206000828254610bd591906125a7565b925050819055506000600760008473ffffffffffffffffffffffffffffffffffffffff1673ffffffffffffffffffffffffffffffffffffffff16815260200190815260200160002060009054906101000a900460ff166001610c3791906126bc565b905081600a8260ff1681548110610c5157610c50612861565b5b9060005260206000200154610c6691906125a7565b60098260ff1681548110610c7d57610c7c612861565b5b906000526020600020016000828254610c96919061262e565b92505081905550600a8160ff1681548110610cb457610cb3612861565b5b906000526020600020015460098260ff1681548110610cd657610cd5612861565b5b906000526020600020016000828254610cef91906125fd565b9250508190555081600a600181548110610d0c57610d0b612861565b5b906000526020600020016000828254610d2591906125a7565b9250508190555081600a600281548110610d4257610d41612861565b5b906000526020600020016000828254610d5b91906125a7565b925050819055508160026000828254610d7491906125a7565b92505081905550505050565b6000600254905090565b6000600190509392505050565b60006012905090565b6000610e42610dad611b21565b848460016000610dbb611b21565b73ffffffffffffffffffffffffffffffffffffffff1673ffffffffffffffffffffffffffffffffffffffff16815260200190815260200160002060008873ffffffffffffffffffffffffffffffffffffffff1673ffffffffffffffffffffffffffffffffffffffff16815260200190815260200160002054610e3d91906125a7565b611b29565b6001905092915050565b60098181548110610e5c57600080fd5b906000526020600020016000915090505481565b600080600760008473ffffffffffffffffffffffffffffffffffffffff1673ffffffffffffffffffffffffffffffffffffffff16815260200190815260200160002060009054906101000a900460ff1660ff161415610f0f576000808373ffffffffffffffffffffffffffffffffffffffff1673ffffffffffffffffffffffffffffffffffffffff168152602001908152602001600020549050611013565b600660008373ffffffffffffffffffffffffffffffffffffffff1673ffffffffffffffffffffffffffffffffffffffff168152602001908152602001600020546000808473ffffffffffffffffffffffffffffffffffffffff1673ffffffffffffffffffffffffffffffffffffffff168152602001908152602001600020546009600760008673ffffffffffffffffffffffffffffffffffffffff1673ffffffffffffffffffffffffffffffffffffffff16815260200190815260200160002060009054906101000a900460ff1660ff1681548110610ff157610ff0612861565b5b9060005260206000200154611006919061262e565b61101091906125fd565b90505b919050565b611020611b21565b73ffffffffffffffffffffffffffffffffffffffff1661103e6110c0565b73ffffffffffffffffffffffffffffffffffffffff1614611094576040517f08c379a000000000000000000000000000000000000000000000000000000000815260040161108b90612495565b60405180910390fd5b61109e6000611cf4565b565b60076020528060005260406000206000915054906101000a900460ff1681565b6000600560009054906101000a900473ffffffffffffffffffffffffffffffffffffffff16905090565b6060600480546110f990612778565b80601f016020809104026020016040519081016040528092919081815260200182805461112590612778565b80156111725780601f1061114757610100808354040283529160200191611172565b820191906000526020600020905b81548152906001019060200180831161115557829003601f168201915b5050505050905090565b611184611b21565b73ffffffffffffffffffffffffffffffffffffffff166111a26110c0565b73ffffffffffffffffffffffffffffffffffffffff16146111f8576040517f08c379a00000000000000000000000000000000000000000000000000000000081526004016111ef90612495565b60405180910390fd5b6000600a60028154811061120f5761120e612861565b5b9060005260206000200154146112e15760048161122c91906125fd565b600a60028154811061124157611240612861565b5b906000526020600020015461125691906125a7565b600960028154811061126b5761126a612861565b5b906000526020600020016000828254611284919061262e565b92505081905550600a6002815481106112a05761129f612861565b5b906000526020600020015460096002815481106112c0576112bf612861565b5b9060005260206000200160008282546112d991906125fd565b925050819055505b6000600a6001815481106112f8576112f7612861565b5b9060005260206000200154146113ca5760048161131591906125fd565b600a60018154811061132a57611329612861565b5b906000526020600020015461133f91906125a7565b600960018154811061135457611353612861565b5b90600052602060002001600082825461136d919061262e565b92505081905550600a60018154811061138957611388612861565b5b906000526020600020015460096001815481106113a9576113a8612861565b5b9060005260206000200160008282546113c291906125fd565b925050819055505b6002816113d791906125fd565b600080600b60009054906101000a900473ffffffffffffffffffffffffffffffffffffffff1673ffffffffffffffffffffffffffffffffffffffff1673ffffffffffffffffffffffffffffffffffffffff168152602001908152602001600020600082825461144691906125a7565b9250508190555060048161145a91906125fd565b600a60018154811061146f5761146e612861565b5b90600052602060002001600082825461148891906125a7565b9250508190555060048161149c91906125fd565b600a6002815481106114b1576114b0612861565b5b9060005260206000200160008282546114ca91906125a7565b9250508190555080600260008282546114e391906125a7565b9250508190555050565b6114f5611b21565b73ffffffffffffffffffffffffffffffffffffffff166115136110c0565b73ffffffffffffffffffffffffffffffffffffffff1614611569576040517f08c379a000000000000000000000000000000000000000000000000000000000815260040161156090612495565b60405180910390fd5b611572826104e4565b6000600760008473ffffffffffffffffffffffffffffffffffffffff1673ffffffffffffffffffffffffffffffffffffffff16815260200190815260200160002060009054906101000a900460ff16905081600760008573ffffffffffffffffffffffffffffffffffffffff1673ffffffffffffffffffffffffffffffffffffffff16815260200190815260200160002060006101000a81548160ff021916908360ff1602179055506000808473ffffffffffffffffffffffffffffffffffffffff1673ffffffffffffffffffffffffffffffffffffffff16815260200190815260200160002054600a8260ff168154811061167157611670612861565b5b90600052602060002001600082825461168a9190612688565b925050819055506000808473ffffffffffffffffffffffffffffffffffffffff1673ffffffffffffffffffffffffffffffffffffffff16815260200190815260200160002054600a8360ff16815481106116e7576116e6612861565b5b90600052602060002001600082825461170091906125a7565b9250508190555060098260ff168154811061171e5761171d612861565b5b9060005260206000200154600660008573ffffffffffffffffffffffffffffffffffffffff1673ffffffffffffffffffffffffffffffffffffffff16815260200190815260200160002081905550505050565b60008060016000611780611b21565b73ffffffffffffffffffffffffffffffffffffffff1673ffffffffffffffffffffffffffffffffffffffff16815260200190815260200160002060008573ffffffffffffffffffffffffffffffffffffffff1673ffffffffffffffffffffffffffffffffffffffff1681526020019081526020016000205490508281101561183d576040517f08c379a000000000000000000000000000000000000000000000000000000000815260040161183490612535565b60405180910390fd5b61185a611848611b21565b8585846118559190612688565b611b29565b600191505092915050565b600080611870611b21565b905061187b816104e4565b611884846104e4565b82600a600760008473ffffffffffffffffffffffffffffffffffffffff1673ffffffffffffffffffffffffffffffffffffffff16815260200190815260200160002060009054906101000a900460ff1660ff16815481106118e8576118e7612861565b5b9060005260206000200160008282546119019190612688565b9250508190555082600a600760008773ffffffffffffffffffffffffffffffffffffffff1673ffffffffffffffffffffffffffffffffffffffff16815260200190815260200160002060009054906101000a900460ff1660ff168154811061196c5761196b612861565b5b90600052602060002001600082825461198591906125a7565b92505081905550611997818585611dba565b600191505092915050565b6000600160008473ffffffffffffffffffffffffffffffffffffffff1673ffffffffffffffffffffffffffffffffffffffff16815260200190815260200160002060008373ffffffffffffffffffffffffffffffffffffffff1673ffffffffffffffffffffffffffffffffffffffff16815260200190815260200160002054905092915050565b611a31611b21565b73ffffffffffffffffffffffffffffffffffffffff16611a4f6110c0565b73ffffffffffffffffffffffffffffffffffffffff1614611aa5576040517f08c379a0000000000000000000000000000000000000000000000000000000008152600401611a9c90612495565b60405180910390fd5b600073ffffffffffffffffffffffffffffffffffffffff168173ffffffffffffffffffffffffffffffffffffffff161415611b15576040517f08c379a0000000000000000000000000000000000000000000000000000000008152600401611b0c90612435565b60405180910390fd5b611b1e81611cf4565b50565b600033905090565b600073ffffffffffffffffffffffffffffffffffffffff168373ffffffffffffffffffffffffffffffffffffffff161415611b99576040517f08c379a0000000000000000000000000000000000000000000000000000000008152600401611b90906124f5565b60405180910390fd5b600073ffffffffffffffffffffffffffffffffffffffff168273ffffffffffffffffffffffffffffffffffffffff161415611c09576040517f08c379a0000000000000000000000000000000000000000000000000000000008152600401611c0090612455565b60405180910390fd5b80600160008573ffffffffffffffffffffffffffffffffffffffff1673ffffffffffffffffffffffffffffffffffffffff16815260200190815260200160002060008473ffffffffffffffffffffffffffffffffffffffff1673ffffffffffffffffffffffffffffffffffffffff168152602001908152602001600020819055508173ffffffffffffffffffffffffffffffffffffffff168373ffffffffffffffffffffffffffffffffffffffff167f8c5be1e5ebec7d5bd14f71427d1e84f3dd0314c0f7b2291e5b200ac8c7c3b92583604051611ce79190612555565b60405180910390a3505050565b6000600560009054906101000a900473ffffffffffffffffffffffffffffffffffffffff16905081600560006101000a81548173ffffffffffffffffffffffffffffffffffffffff021916908373ffffffffffffffffffffffffffffffffffffffff1602179055508173ffffffffffffffffffffffffffffffffffffffff168173ffffffffffffffffffffffffffffffffffffffff167f8be0079c531659141344cd1fd0a4f28419497f9722a3daafe3b4186f6b6457e060405160405180910390a35050565b600073ffffffffffffffffffffffffffffffffffffffff168373ffffffffffffffffffffffffffffffffffffffff161415611e2a576040517f08c379a0000000000000000000000000000000000000000000000000000000008152600401611e21906124d5565b60405180910390fd5b600073ffffffffffffffffffffffffffffffffffffffff168273ffffffffffffffffffffffffffffffffffffffff161415611e9a576040517f08c379a0000000000000000000000000000000000000000000000000000000008152600401611e9190612415565b60405180910390fd5b611ea5838383612039565b60008060008573ffffffffffffffffffffffffffffffffffffffff1673ffffffffffffffffffffffffffffffffffffffff16815260200190815260200160002054905081811015611f2b576040517f08c379a0000000000000000000000000000000000000000000000000000000008152600401611f2290612475565b60405180910390fd5b8181611f379190612688565b6000808673ffffffffffffffffffffffffffffffffffffffff1673ffffffffffffffffffffffffffffffffffffffff16815260200190815260200160002081905550816000808573ffffffffffffffffffffffffffffffffffffffff1673ffffffffffffffffffffffffffffffffffffffff1681526020019081526020016000206000828254611fc791906125a7565b925050819055508273ffffffffffffffffffffffffffffffffffffffff168473ffffffffffffffffffffffffffffffffffffffff167fddf252ad1be2c89b69c2b068fc378daa952ba7f163c4a11628f55a4df523b3ef8460405161202b9190612555565b60405180910390a350505050565b505050565b60008135905061204d81612b70565b92915050565b60008135905061206281612b87565b92915050565b60008135905061207781612b9e565b92915050565b60006020828403121561209357612092612890565b5b60006120a18482850161203e565b91505092915050565b600080604083850312156120c1576120c0612890565b5b60006120cf8582860161203e565b92505060206120e08582860161203e565b9150509250929050565b60008060006060848603121561210357612102612890565b5b60006121118682870161203e565b93505060206121228682870161203e565b925050604061213386828701612053565b9150509250925092565b6000806040838503121561215457612153612890565b5b60006121628582860161203e565b925050602061217385828601612053565b9150509250929050565b6000806040838503121561219457612193612890565b5b60006121a28582860161203e565b92505060206121b385828601612068565b9150509250929050565b6000602082840312156121d3576121d2612890565b5b60006121e184828501612053565b91505092915050565b6121f3816126f0565b82525050565b61220281612702565b82525050565b60006122138261258b565b61221d8185612596565b935061222d818560208601612745565b61223681612895565b840191505092915050565b600061224e602383612596565b9150612259826128a6565b604082019050919050565b6000612271602683612596565b915061227c826128f5565b604082019050919050565b6000612294602283612596565b915061229f82612944565b604082019050919050565b60006122b7602683612596565b91506122c282612993565b604082019050919050565b60006122da602083612596565b91506122e5826129e2565b602082019050919050565b60006122fd602083612596565b915061230882612a0b565b602082019050919050565b6000612320602583612596565b915061232b82612a34565b604082019050919050565b6000612343602483612596565b915061234e82612a83565b604082019050919050565b6000612366602483612596565b915061237182612ad2565b604082019050919050565b6000612389602583612596565b915061239482612b21565b604082019050919050565b6123a88161272e565b82525050565b6123b781612738565b82525050565b60006020820190506123d260008301846121ea565b92915050565b60006020820190506123ed60008301846121f9565b92915050565b6000602082019050818103600083015261240d8184612208565b905092915050565b6000602082019050818103600083015261242e81612241565b9050919050565b6000602082019050818103600083015261244e81612264565b9050919050565b6000602082019050818103600083015261246e81612287565b9050919050565b6000602082019050818103600083015261248e816122aa565b9050919050565b600060208201905081810360008301526124ae816122cd565b9050919050565b600060208201905081810360008301526124ce816122f0565b9050919050565b600060208201905081810360008301526124ee81612313565b9050919050565b6000602082019050818103600083015261250e81612336565b9050919050565b6000602082019050818103600083015261252e81612359565b9050919050565b6000602082019050818103600083015261254e8161237c565b9050919050565b600060208201905061256a600083018461239f565b92915050565b600060208201905061258560008301846123ae565b92915050565b600081519050919050565b600082825260208201905092915050565b60006125b28261272e565b91506125bd8361272e565b9250827fffffffffffffffffffffffffffffffffffffffffffffffffffffffffffffffff038211156125f2576125f16127d4565b5b828201905092915050565b60006126088261272e565b91506126138361272e565b92508261262357612622612803565b5b828204905092915050565b60006126398261272e565b91506126448361272e565b9250817fffffffffffffffffffffffffffffffffffffffffffffffffffffffffffffffff048311821515161561267d5761267c6127d4565b5b828202905092915050565b60006126938261272e565b915061269e8361272e565b9250828210156126b1576126b06127d4565b5b828203905092915050565b60006126c782612738565b91506126d283612738565b9250828210156126e5576126e46127d4565b5b828203905092915050565b60006126fb8261270e565b9050919050565b60008115159050919050565b600073ffffffffffffffffffffffffffffffffffffffff82169050919050565b6000819050919050565b600060ff82169050919050565b60005b83811015612763578082015181840152602081019050612748565b83811115612772576000848401525b50505050565b6000600282049050600182168061279057607f821691505b602082108114156127a4576127a3612832565b5b50919050565b60006127b582612738565b915060ff8214156127c9576127c86127d4565b5b600182019050919050565b7f4e487b7100000000000000000000000000000000000000000000000000000000600052601160045260246000fd5b7f4e487b7100000000000000000000000000000000000000000000000000000000600052601260045260246000fd5b7f4e487b7100000000000000000000000000000000000000000000000000000000600052602260045260246000fd5b7f4e487b7100000000000000000000000000000000000000000000000000000000600052603260045260246000fd5b600080fd5b6000601f19601f8301169050919050565b7f45524332303a207472616e7366657220746f20746865207a65726f206164647260008201527f6573730000000000000000000000000000000000000000000000000000000000602082015250565b7f4f776e61626c653a206e6577206f776e657220697320746865207a65726f206160008201527f6464726573730000000000000000000000000000000000000000000000000000602082015250565b7f45524332303a20617070726f766520746f20746865207a65726f20616464726560008201527f7373000000000000000000000000000000000000000000000000000000000000602082015250565b7f45524332303a207472616e7366657220616d6f756e742065786365656473206260008201527f616c616e63650000000000000000000000000000000000000000000000000000602082015250565b7f4f776e61626c653a2063616c6c6572206973206e6f7420746865206f776e6572600082015250565b7f6163636f756e74206973206120726567756c6172207368617265686f6c646572600082015250565b7f45524332303a207472616e736665722066726f6d20746865207a65726f20616460008201527f6472657373000000000000000000000000000000000000000000000000000000602082015250565b7f45524332303a20617070726f76652066726f6d20746865207a65726f2061646460008201527f7265737300000000000000000000000000000000000000000000000000000000602082015250565b7f6163636f756e74206973206e6f74206120726567756c6172207368617265686f60008201527f6c64657200000000000000000000000000000000000000000000000000000000602082015250565b7f45524332303a2064656372656173656420616c6c6f77616e63652062656c6f7760008201527f207a65726f000000000000000000000000000000000000000000000000000000602082015250565b612b79816126f0565b8114612b8457600080fd5b50565b612b908161272e565b8114612b9b57600080fd5b50565b612ba781612738565b8114612bb257600080fd5b5056fea26469706673582212206d44f80efb3522c11a4c8cb10f384b76221f2b01cf68d2fee97ee1e68aa8f36264736f6c63430008060033",
					"opcodes": "PUSH1 0x80 PUSH1 0x40 MSTORE PUSH1 0x3 PUSH1 0x8 SSTORE PUSH1 0x8 SLOAD PUSH8 0xFFFFFFFFFFFFFFFF DUP2 GT ISZERO PUSH3 0x28 JUMPI PUSH3 0x27 PUSH3 0xC36 JUMP JUMPDEST JUMPDEST PUSH1 0x40 MLOAD SWAP1 DUP1 DUP3 MSTORE DUP1 PUSH1 0x20 MUL PUSH1 0x20 ADD DUP3 ADD PUSH1 0x40 MSTORE DUP1 ISZERO PUSH3 0x57 JUMPI DUP2 PUSH1 0x20 ADD PUSH1 0x20 DUP3 MUL DUP1 CALLDATASIZE DUP4 CALLDATACOPY DUP1 DUP3 ADD SWAP2 POP POP SWAP1 POP JUMPDEST POP PUSH1 0x9 SWAP1 DUP1 MLOAD SWAP1 PUSH1 0x20 ADD SWAP1 PUSH3 0x6F SWAP3 SWAP2 SWAP1 PUSH3 0x55B JUMP JUMPDEST POP PUSH1 0x8 SLOAD PUSH8 0xFFFFFFFFFFFFFFFF DUP2 GT ISZERO PUSH3 0x8F JUMPI PUSH3 0x8E PUSH3 0xC36 JUMP JUMPDEST JUMPDEST PUSH1 0x40 MLOAD SWAP1 DUP1 DUP3 MSTORE DUP1 PUSH1 0x20 MUL PUSH1 0x20 ADD DUP3 ADD PUSH1 0x40 MSTORE DUP1 ISZERO PUSH3 0xBE JUMPI DUP2 PUSH1 0x20 ADD PUSH1 0x20 DUP3 MUL DUP1 CALLDATASIZE DUP4 CALLDATACOPY DUP1 DUP3 ADD SWAP2 POP POP SWAP1 POP JUMPDEST POP PUSH1 0xA SWAP1 DUP1 MLOAD SWAP1 PUSH1 0x20 ADD SWAP1 PUSH3 0xD6 SWAP3 SWAP2 SWAP1 PUSH3 0x55B JUMP JUMPDEST POP CALLVALUE DUP1 ISZERO PUSH3 0xE4 JUMPI PUSH1 0x0 DUP1 REVERT JUMPDEST POP PUSH1 0x40 MLOAD PUSH3 0x38D5 CODESIZE SUB DUP1 PUSH3 0x38D5 DUP4 CODECOPY DUP2 DUP2 ADD PUSH1 0x40 MSTORE DUP2 ADD SWAP1 PUSH3 0x10A SWAP2 SWAP1 PUSH3 0x6F2 JUMP JUMPDEST DUP3 DUP3 DUP2 PUSH1 0x3 SWAP1 DUP1 MLOAD SWAP1 PUSH1 0x20 ADD SWAP1 PUSH3 0x124 SWAP3 SWAP2 SWAP1 PUSH3 0x5AD JUMP JUMPDEST POP DUP1 PUSH1 0x4 SWAP1 DUP1 MLOAD SWAP1 PUSH1 0x20 ADD SWAP1 PUSH3 0x13D SWAP3 SWAP2 SWAP1 PUSH3 0x5AD JUMP JUMPDEST POP POP POP PUSH3 0x160 PUSH3 0x154 PUSH3 0x31A PUSH1 0x20 SHL PUSH1 0x20 SHR JUMP JUMPDEST PUSH3 0x322 PUSH1 0x20 SHL PUSH1 0x20 SHR JUMP JUMPDEST PUSH3 0x1A3 CALLER PUSH3 0x175 PUSH3 0x3E8 PUSH1 0x20 SHL PUSH1 0x20 SHR JUMP JUMPDEST PUSH1 0xFF AND PUSH1 0xA PUSH3 0x186 SWAP2 SWAP1 PUSH3 0x92B JUMP JUMPDEST PUSH4 0x11E1A300 PUSH3 0x197 SWAP2 SWAP1 PUSH3 0xA68 JUMP JUMPDEST PUSH3 0x3F1 PUSH1 0x20 SHL PUSH1 0x20 SHR JUMP JUMPDEST PUSH3 0x1B3 PUSH3 0x3E8 PUSH1 0x20 SHL PUSH1 0x20 SHR JUMP JUMPDEST PUSH1 0xFF AND PUSH1 0xA PUSH3 0x1C4 SWAP2 SWAP1 PUSH3 0x92B JUMP JUMPDEST PUSH1 0x9 PUSH1 0x0 DUP2 SLOAD DUP2 LT PUSH3 0x1DC JUMPI PUSH3 0x1DB PUSH3 0xC07 JUMP JUMPDEST JUMPDEST SWAP1 PUSH1 0x0 MSTORE PUSH1 0x20 PUSH1 0x0 KECCAK256 ADD DUP2 SWAP1 SSTORE POP PUSH3 0x1FA PUSH3 0x3E8 PUSH1 0x20 SHL PUSH1 0x20 SHR JUMP JUMPDEST PUSH1 0xFF AND PUSH1 0xA PUSH3 0x20B SWAP2 SWAP1 PUSH3 0x92B JUMP JUMPDEST PUSH1 0x9 PUSH1 0x1 DUP2 SLOAD DUP2 LT PUSH3 0x223 JUMPI PUSH3 0x222 PUSH3 0xC07 JUMP JUMPDEST JUMPDEST SWAP1 PUSH1 0x0 MSTORE PUSH1 0x20 PUSH1 0x0 KECCAK256 ADD DUP2 SWAP1 SSTORE POP PUSH3 0x241 PUSH3 0x3E8 PUSH1 0x20 SHL PUSH1 0x20 SHR JUMP JUMPDEST PUSH1 0xFF AND PUSH1 0xA PUSH3 0x252 SWAP2 SWAP1 PUSH3 0x92B JUMP JUMPDEST PUSH1 0x9 PUSH1 0x2 DUP2 SLOAD DUP2 LT PUSH3 0x26A JUMPI PUSH3 0x269 PUSH3 0xC07 JUMP JUMPDEST JUMPDEST SWAP1 PUSH1 0x0 MSTORE PUSH1 0x20 PUSH1 0x0 KECCAK256 ADD DUP2 SWAP1 SSTORE POP PUSH3 0x288 PUSH3 0x3E8 PUSH1 0x20 SHL PUSH1 0x20 SHR JUMP JUMPDEST PUSH1 0xFF AND PUSH1 0xA PUSH3 0x299 SWAP2 SWAP1 PUSH3 0x92B JUMP JUMPDEST PUSH4 0x11E1A300 PUSH3 0x2AA SWAP2 SWAP1 PUSH3 0xA68 JUMP JUMPDEST PUSH1 0xA PUSH1 0x0 DUP2 SLOAD DUP2 LT PUSH3 0x2C2 JUMPI PUSH3 0x2C1 PUSH3 0xC07 JUMP JUMPDEST JUMPDEST SWAP1 PUSH1 0x0 MSTORE PUSH1 0x20 PUSH1 0x0 KECCAK256 ADD DUP2 SWAP1 SSTORE POP DUP1 PUSH1 0xB PUSH1 0x0 PUSH2 0x100 EXP DUP2 SLOAD DUP2 PUSH20 0xFFFFFFFFFFFFFFFFFFFFFFFFFFFFFFFFFFFFFFFF MUL NOT AND SWAP1 DUP4 PUSH20 0xFFFFFFFFFFFFFFFFFFFFFFFFFFFFFFFFFFFFFFFF AND MUL OR SWAP1 SSTORE POP POP POP POP PUSH3 0xCDA JUMP JUMPDEST PUSH1 0x0 CALLER SWAP1 POP SWAP1 JUMP JUMPDEST PUSH1 0x0 PUSH1 0x5 PUSH1 0x0 SWAP1 SLOAD SWAP1 PUSH2 0x100 EXP SWAP1 DIV PUSH20 0xFFFFFFFFFFFFFFFFFFFFFFFFFFFFFFFFFFFFFFFF AND SWAP1 POP DUP2 PUSH1 0x5 PUSH1 0x0 PUSH2 0x100 EXP DUP2 SLOAD DUP2 PUSH20 0xFFFFFFFFFFFFFFFFFFFFFFFFFFFFFFFFFFFFFFFF MUL NOT AND SWAP1 DUP4 PUSH20 0xFFFFFFFFFFFFFFFFFFFFFFFFFFFFFFFFFFFFFFFF AND MUL OR SWAP1 SSTORE POP DUP2 PUSH20 0xFFFFFFFFFFFFFFFFFFFFFFFFFFFFFFFFFFFFFFFF AND DUP2 PUSH20 0xFFFFFFFFFFFFFFFFFFFFFFFFFFFFFFFFFFFFFFFF AND PUSH32 0x8BE0079C531659141344CD1FD0A4F28419497F9722A3DAAFE3B4186F6B6457E0 PUSH1 0x40 MLOAD PUSH1 0x40 MLOAD DUP1 SWAP2 SUB SWAP1 LOG3 POP POP JUMP JUMPDEST PUSH1 0x0 PUSH1 0x12 SWAP1 POP SWAP1 JUMP JUMPDEST PUSH1 0x0 PUSH20 0xFFFFFFFFFFFFFFFFFFFFFFFFFFFFFFFFFFFFFFFF AND DUP3 PUSH20 0xFFFFFFFFFFFFFFFFFFFFFFFFFFFFFFFFFFFFFFFF AND EQ ISZERO PUSH3 0x464 JUMPI PUSH1 0x40 MLOAD PUSH32 0x8C379A000000000000000000000000000000000000000000000000000000000 DUP2 MSTORE PUSH1 0x4 ADD PUSH3 0x45B SWAP1 PUSH3 0x7C4 JUMP JUMPDEST PUSH1 0x40 MLOAD DUP1 SWAP2 SUB SWAP1 REVERT JUMPDEST PUSH3 0x478 PUSH1 0x0 DUP4 DUP4 PUSH3 0x556 PUSH1 0x20 SHL PUSH1 0x20 SHR JUMP JUMPDEST DUP1 PUSH1 0x2 PUSH1 0x0 DUP3 DUP3 SLOAD PUSH3 0x48C SWAP2 SWAP1 PUSH3 0x873 JUMP JUMPDEST SWAP3 POP POP DUP2 SWAP1 SSTORE POP DUP1 PUSH1 0x0 DUP1 DUP5 PUSH20 0xFFFFFFFFFFFFFFFFFFFFFFFFFFFFFFFFFFFFFFFF AND PUSH20 0xFFFFFFFFFFFFFFFFFFFFFFFFFFFFFFFFFFFFFFFF AND DUP2 MSTORE PUSH1 0x20 ADD SWAP1 DUP2 MSTORE PUSH1 0x20 ADD PUSH1 0x0 KECCAK256 PUSH1 0x0 DUP3 DUP3 SLOAD PUSH3 0x4E3 SWAP2 SWAP1 PUSH3 0x873 JUMP JUMPDEST SWAP3 POP POP DUP2 SWAP1 SSTORE POP DUP2 PUSH20 0xFFFFFFFFFFFFFFFFFFFFFFFFFFFFFFFFFFFFFFFF AND PUSH1 0x0 PUSH20 0xFFFFFFFFFFFFFFFFFFFFFFFFFFFFFFFFFFFFFFFF AND PUSH32 0xDDF252AD1BE2C89B69C2B068FC378DAA952BA7F163C4A11628F55A4DF523B3EF DUP4 PUSH1 0x40 MLOAD PUSH3 0x54A SWAP2 SWAP1 PUSH3 0x7E6 JUMP JUMPDEST PUSH1 0x40 MLOAD DUP1 SWAP2 SUB SWAP1 LOG3 POP POP JUMP JUMPDEST POP POP POP JUMP JUMPDEST DUP3 DUP1 SLOAD DUP3 DUP3 SSTORE SWAP1 PUSH1 0x0 MSTORE PUSH1 0x20 PUSH1 0x0 KECCAK256 SWAP1 DUP2 ADD SWAP3 DUP3 ISZERO PUSH3 0x59A JUMPI SWAP2 PUSH1 0x20 MUL DUP3 ADD JUMPDEST DUP3 DUP2 GT ISZERO PUSH3 0x599 JUMPI DUP3 MLOAD DUP3 SSTORE SWAP2 PUSH1 0x20 ADD SWAP2 SWAP1 PUSH1 0x1 ADD SWAP1 PUSH3 0x57C JUMP JUMPDEST JUMPDEST POP SWAP1 POP PUSH3 0x5A9 SWAP2 SWAP1 PUSH3 0x63E JUMP JUMPDEST POP SWAP1 JUMP JUMPDEST DUP3 DUP1 SLOAD PUSH3 0x5BB SWAP1 PUSH3 0xB3D JUMP JUMPDEST SWAP1 PUSH1 0x0 MSTORE PUSH1 0x20 PUSH1 0x0 KECCAK256 SWAP1 PUSH1 0x1F ADD PUSH1 0x20 SWAP1 DIV DUP2 ADD SWAP3 DUP3 PUSH3 0x5DF JUMPI PUSH1 0x0 DUP6 SSTORE PUSH3 0x62B JUMP JUMPDEST DUP3 PUSH1 0x1F LT PUSH3 0x5FA JUMPI DUP1 MLOAD PUSH1 0xFF NOT AND DUP4 DUP1 ADD OR DUP6 SSTORE PUSH3 0x62B JUMP JUMPDEST DUP3 DUP1 ADD PUSH1 0x1 ADD DUP6 SSTORE DUP3 ISZERO PUSH3 0x62B JUMPI SWAP2 DUP3 ADD JUMPDEST DUP3 DUP2 GT ISZERO PUSH3 0x62A JUMPI DUP3 MLOAD DUP3 SSTORE SWAP2 PUSH1 0x20 ADD SWAP2 SWAP1 PUSH1 0x1 ADD SWAP1 PUSH3 0x60D JUMP JUMPDEST JUMPDEST POP SWAP1 POP PUSH3 0x63A SWAP2 SWAP1 PUSH3 0x63E JUMP JUMPDEST POP SWAP1 JUMP JUMPDEST JUMPDEST DUP1 DUP3 GT ISZERO PUSH3 0x659 JUMPI PUSH1 0x0 DUP2 PUSH1 0x0 SWAP1 SSTORE POP PUSH1 0x1 ADD PUSH3 0x63F JUMP JUMPDEST POP SWAP1 JUMP JUMPDEST PUSH1 0x0 PUSH3 0x674 PUSH3 0x66E DUP5 PUSH3 0x82C JUMP JUMPDEST PUSH3 0x803 JUMP JUMPDEST SWAP1 POP DUP3 DUP2 MSTORE PUSH1 0x20 DUP2 ADD DUP5 DUP5 DUP5 ADD GT ISZERO PUSH3 0x693 JUMPI PUSH3 0x692 PUSH3 0xC6A JUMP JUMPDEST JUMPDEST PUSH3 0x6A0 DUP5 DUP3 DUP6 PUSH3 0xB07 JUMP JUMPDEST POP SWAP4 SWAP3 POP POP POP JUMP JUMPDEST PUSH1 0x0 DUP2 MLOAD SWAP1 POP PUSH3 0x6B9 DUP2 PUSH3 0xCC0 JUMP JUMPDEST SWAP3 SWAP2 POP POP JUMP JUMPDEST PUSH1 0x0 DUP3 PUSH1 0x1F DUP4 ADD SLT PUSH3 0x6D7 JUMPI PUSH3 0x6D6 PUSH3 0xC65 JUMP JUMPDEST JUMPDEST DUP2 MLOAD PUSH3 0x6E9 DUP5 DUP3 PUSH1 0x20 DUP7 ADD PUSH3 0x65D JUMP JUMPDEST SWAP2 POP POP SWAP3 SWAP2 POP POP JUMP JUMPDEST PUSH1 0x0 DUP1 PUSH1 0x0 PUSH1 0x60 DUP5 DUP7 SUB SLT ISZERO PUSH3 0x70E JUMPI PUSH3 0x70D PUSH3 0xC74 JUMP JUMPDEST JUMPDEST PUSH1 0x0 DUP5 ADD MLOAD PUSH8 0xFFFFFFFFFFFFFFFF DUP2 GT ISZERO PUSH3 0x72F JUMPI PUSH3 0x72E PUSH3 0xC6F JUMP JUMPDEST JUMPDEST PUSH3 0x73D DUP7 DUP3 DUP8 ADD PUSH3 0x6BF JUMP JUMPDEST SWAP4 POP POP PUSH1 0x20 DUP5 ADD MLOAD PUSH8 0xFFFFFFFFFFFFFFFF DUP2 GT ISZERO PUSH3 0x761 JUMPI PUSH3 0x760 PUSH3 0xC6F JUMP JUMPDEST JUMPDEST PUSH3 0x76F DUP7 DUP3 DUP8 ADD PUSH3 0x6BF JUMP JUMPDEST SWAP3 POP POP PUSH1 0x40 PUSH3 0x782 DUP7 DUP3 DUP8 ADD PUSH3 0x6A8 JUMP JUMPDEST SWAP2 POP POP SWAP3 POP SWAP3 POP SWAP3 JUMP JUMPDEST PUSH1 0x0 PUSH3 0x79B PUSH1 0x1F DUP4 PUSH3 0x862 JUMP JUMPDEST SWAP2 POP PUSH3 0x7A8 DUP3 PUSH3 0xC97 JUMP JUMPDEST PUSH1 0x20 DUP3 ADD SWAP1 POP SWAP2 SWAP1 POP JUMP JUMPDEST PUSH3 0x7BE DUP2 PUSH3 0xAFD JUMP JUMPDEST DUP3 MSTORE POP POP JUMP JUMPDEST PUSH1 0x0 PUSH1 0x20 DUP3 ADD SWAP1 POP DUP2 DUP2 SUB PUSH1 0x0 DUP4 ADD MSTORE PUSH3 0x7DF DUP2 PUSH3 0x78C JUMP JUMPDEST SWAP1 POP SWAP2 SWAP1 POP JUMP JUMPDEST PUSH1 0x0 PUSH1 0x20 DUP3 ADD SWAP1 POP PUSH3 0x7FD PUSH1 0x0 DUP4 ADD DUP5 PUSH3 0x7B3 JUMP JUMPDEST SWAP3 SWAP2 POP POP JUMP JUMPDEST PUSH1 0x0 PUSH3 0x80F PUSH3 0x822 JUMP JUMPDEST SWAP1 POP PUSH3 0x81D DUP3 DUP3 PUSH3 0xB73 JUMP JUMPDEST SWAP2 SWAP1 POP JUMP JUMPDEST PUSH1 0x0 PUSH1 0x40 MLOAD SWAP1 POP SWAP1 JUMP JUMPDEST PUSH1 0x0 PUSH8 0xFFFFFFFFFFFFFFFF DUP3 GT ISZERO PUSH3 0x84A JUMPI PUSH3 0x849 PUSH3 0xC36 JUMP JUMPDEST JUMPDEST PUSH3 0x855 DUP3 PUSH3 0xC79 JUMP JUMPDEST SWAP1 POP PUSH1 0x20 DUP2 ADD SWAP1 POP SWAP2 SWAP1 POP JUMP JUMPDEST PUSH1 0x0 DUP3 DUP3 MSTORE PUSH1 0x20 DUP3 ADD SWAP1 POP SWAP3 SWAP2 POP POP JUMP JUMPDEST PUSH1 0x0 PUSH3 0x880 DUP3 PUSH3 0xAFD JUMP JUMPDEST SWAP2 POP PUSH3 0x88D DUP4 PUSH3 0xAFD JUMP JUMPDEST SWAP3 POP DUP3 PUSH32 0xFFFFFFFFFFFFFFFFFFFFFFFFFFFFFFFFFFFFFFFFFFFFFFFFFFFFFFFFFFFFFFFF SUB DUP3 GT ISZERO PUSH3 0x8C5 JUMPI PUSH3 0x8C4 PUSH3 0xBA9 JUMP JUMPDEST JUMPDEST DUP3 DUP3 ADD SWAP1 POP SWAP3 SWAP2 POP POP JUMP JUMPDEST PUSH1 0x0 DUP1 DUP3 SWAP2 POP DUP4 SWAP1 POP JUMPDEST PUSH1 0x1 DUP6 GT ISZERO PUSH3 0x922 JUMPI DUP1 DUP7 DIV DUP2 GT ISZERO PUSH3 0x8FA JUMPI PUSH3 0x8F9 PUSH3 0xBA9 JUMP JUMPDEST JUMPDEST PUSH1 0x1 DUP6 AND ISZERO PUSH3 0x90A JUMPI DUP1 DUP3 MUL SWAP2 POP JUMPDEST DUP1 DUP2 MUL SWAP1 POP PUSH3 0x91A DUP6 PUSH3 0xC8A JUMP JUMPDEST SWAP5 POP PUSH3 0x8DA JUMP JUMPDEST SWAP5 POP SWAP5 SWAP3 POP POP POP JUMP JUMPDEST PUSH1 0x0 PUSH3 0x938 DUP3 PUSH3 0xAFD JUMP JUMPDEST SWAP2 POP PUSH3 0x945 DUP4 PUSH3 0xAFD JUMP JUMPDEST SWAP3 POP PUSH3 0x974 PUSH32 0xFFFFFFFFFFFFFFFFFFFFFFFFFFFFFFFFFFFFFFFFFFFFFFFFFFFFFFFFFFFFFFFF DUP5 DUP5 PUSH3 0x97C JUMP JUMPDEST SWAP1 POP SWAP3 SWAP2 POP POP JUMP JUMPDEST PUSH1 0x0 DUP3 PUSH3 0x98E JUMPI PUSH1 0x1 SWAP1 POP PUSH3 0xA61 JUMP JUMPDEST DUP2 PUSH3 0x99E JUMPI PUSH1 0x0 SWAP1 POP PUSH3 0xA61 JUMP JUMPDEST DUP2 PUSH1 0x1 DUP2 EQ PUSH3 0x9B7 JUMPI PUSH1 0x2 DUP2 EQ PUSH3 0x9C2 JUMPI PUSH3 0x9F8 JUMP JUMPDEST PUSH1 0x1 SWAP2 POP POP PUSH3 0xA61 JUMP JUMPDEST PUSH1 0xFF DUP5 GT ISZERO PUSH3 0x9D7 JUMPI PUSH3 0x9D6 PUSH3 0xBA9 JUMP JUMPDEST JUMPDEST DUP4 PUSH1 0x2 EXP SWAP2 POP DUP5 DUP3 GT ISZERO PUSH3 0x9F1 JUMPI PUSH3 0x9F0 PUSH3 0xBA9 JUMP JUMPDEST JUMPDEST POP PUSH3 0xA61 JUMP JUMPDEST POP PUSH1 0x20 DUP4 LT PUSH2 0x133 DUP4 LT AND PUSH1 0x4E DUP5 LT PUSH1 0xB DUP5 LT AND OR ISZERO PUSH3 0xA32 JUMPI DUP3 DUP3 EXP SWAP1 POP DUP4 DUP2 GT ISZERO PUSH3 0xA2C JUMPI PUSH3 0xA2B PUSH3 0xBA9 JUMP JUMPDEST JUMPDEST PUSH3 0xA61 JUMP JUMPDEST PUSH3 0xA41 DUP5 DUP5 DUP5 PUSH1 0x1 PUSH3 0x8D0 JUMP JUMPDEST SWAP3 POP SWAP1 POP DUP2 DUP5 DIV DUP2 GT ISZERO PUSH3 0xA5B JUMPI PUSH3 0xA5A PUSH3 0xBA9 JUMP JUMPDEST JUMPDEST DUP2 DUP2 MUL SWAP1 POP JUMPDEST SWAP4 SWAP3 POP POP POP JUMP JUMPDEST PUSH1 0x0 PUSH3 0xA75 DUP3 PUSH3 0xAFD JUMP JUMPDEST SWAP2 POP PUSH3 0xA82 DUP4 PUSH3 0xAFD JUMP JUMPDEST SWAP3 POP DUP2 PUSH32 0xFFFFFFFFFFFFFFFFFFFFFFFFFFFFFFFFFFFFFFFFFFFFFFFFFFFFFFFFFFFFFFFF DIV DUP4 GT DUP3 ISZERO ISZERO AND ISZERO PUSH3 0xABE JUMPI PUSH3 0xABD PUSH3 0xBA9 JUMP JUMPDEST JUMPDEST DUP3 DUP3 MUL SWAP1 POP SWAP3 SWAP2 POP POP JUMP JUMPDEST PUSH1 0x0 PUSH3 0xAD6 DUP3 PUSH3 0xADD JUMP JUMPDEST SWAP1 POP SWAP2 SWAP1 POP JUMP JUMPDEST PUSH1 0x0 PUSH20 0xFFFFFFFFFFFFFFFFFFFFFFFFFFFFFFFFFFFFFFFF DUP3 AND SWAP1 POP SWAP2 SWAP1 POP JUMP JUMPDEST PUSH1 0x0 DUP2 SWAP1 POP SWAP2 SWAP1 POP JUMP JUMPDEST PUSH1 0x0 JUMPDEST DUP4 DUP2 LT ISZERO PUSH3 0xB27 JUMPI DUP1 DUP3 ADD MLOAD DUP2 DUP5 ADD MSTORE PUSH1 0x20 DUP2 ADD SWAP1 POP PUSH3 0xB0A JUMP JUMPDEST DUP4 DUP2 GT ISZERO PUSH3 0xB37 JUMPI PUSH1 0x0 DUP5 DUP5 ADD MSTORE JUMPDEST POP POP POP POP JUMP JUMPDEST PUSH1 0x0 PUSH1 0x2 DUP3 DIV SWAP1 POP PUSH1 0x1 DUP3 AND DUP1 PUSH3 0xB56 JUMPI PUSH1 0x7F DUP3 AND SWAP2 POP JUMPDEST PUSH1 0x20 DUP3 LT DUP2 EQ ISZERO PUSH3 0xB6D JUMPI PUSH3 0xB6C PUSH3 0xBD8 JUMP JUMPDEST JUMPDEST POP SWAP2 SWAP1 POP JUMP JUMPDEST PUSH3 0xB7E DUP3 PUSH3 0xC79 JUMP JUMPDEST DUP2 ADD DUP2 DUP2 LT PUSH8 0xFFFFFFFFFFFFFFFF DUP3 GT OR ISZERO PUSH3 0xBA0 JUMPI PUSH3 0xB9F PUSH3 0xC36 JUMP JUMPDEST JUMPDEST DUP1 PUSH1 0x40 MSTORE POP POP POP JUMP JUMPDEST PUSH32 0x4E487B7100000000000000000000000000000000000000000000000000000000 PUSH1 0x0 MSTORE PUSH1 0x11 PUSH1 0x4 MSTORE PUSH1 0x24 PUSH1 0x0 REVERT JUMPDEST PUSH32 0x4E487B7100000000000000000000000000000000000000000000000000000000 PUSH1 0x0 MSTORE PUSH1 0x22 PUSH1 0x4 MSTORE PUSH1 0x24 PUSH1 0x0 REVERT JUMPDEST PUSH32 0x4E487B7100000000000000000000000000000000000000000000000000000000 PUSH1 0x0 MSTORE PUSH1 0x32 PUSH1 0x4 MSTORE PUSH1 0x24 PUSH1 0x0 REVERT JUMPDEST PUSH32 0x4E487B7100000000000000000000000000000000000000000000000000000000 PUSH1 0x0 MSTORE PUSH1 0x41 PUSH1 0x4 MSTORE PUSH1 0x24 PUSH1 0x0 REVERT JUMPDEST PUSH1 0x0 DUP1 REVERT JUMPDEST PUSH1 0x0 DUP1 REVERT JUMPDEST PUSH1 0x0 DUP1 REVERT JUMPDEST PUSH1 0x0 DUP1 REVERT JUMPDEST PUSH1 0x0 PUSH1 0x1F NOT PUSH1 0x1F DUP4 ADD AND SWAP1 POP SWAP2 SWAP1 POP JUMP JUMPDEST PUSH1 0x0 DUP2 PUSH1 0x1 SHR SWAP1 POP SWAP2 SWAP1 POP JUMP JUMPDEST PUSH32 0x45524332303A206D696E7420746F20746865207A65726F206164647265737300 PUSH1 0x0 DUP3 ADD MSTORE POP JUMP JUMPDEST PUSH3 0xCCB DUP2 PUSH3 0xAC9 JUMP JUMPDEST DUP2 EQ PUSH3 0xCD7 JUMPI PUSH1 0x0 DUP1 REVERT JUMPDEST POP JUMP JUMPDEST PUSH2 0x2BEB DUP1 PUSH3 0xCEA PUSH1 0x0 CODECOPY PUSH1 0x0 RETURN INVALID PUSH1 0x80 PUSH1 0x40 MSTORE CALLVALUE DUP1 ISZERO PUSH2 0x10 JUMPI PUSH1 0x0 DUP1 REVERT JUMPDEST POP PUSH1 0x4 CALLDATASIZE LT PUSH2 0x137 JUMPI PUSH1 0x0 CALLDATALOAD PUSH1 0xE0 SHR DUP1 PUSH4 0x70A08231 GT PUSH2 0xB8 JUMPI DUP1 PUSH4 0xA0712D68 GT PUSH2 0x7C JUMPI DUP1 PUSH4 0xA0712D68 EQ PUSH2 0x350 JUMPI DUP1 PUSH4 0xA33E7D7E EQ PUSH2 0x36C JUMPI DUP1 PUSH4 0xA457C2D7 EQ PUSH2 0x388 JUMPI DUP1 PUSH4 0xA9059CBB EQ PUSH2 0x3B8 JUMPI DUP1 PUSH4 0xDD62ED3E EQ PUSH2 0x3E8 JUMPI DUP1 PUSH4 0xF2FDE38B EQ PUSH2 0x418 JUMPI PUSH2 0x137 JUMP JUMPDEST DUP1 PUSH4 0x70A08231 EQ PUSH2 0x2AA JUMPI DUP1 PUSH4 0x715018A6 EQ PUSH2 0x2DA JUMPI DUP1 PUSH4 0x7A0D944C EQ PUSH2 0x2E4 JUMPI DUP1 PUSH4 0x8DA5CB5B EQ PUSH2 0x314 JUMPI DUP1 PUSH4 0x95D89B41 EQ PUSH2 0x332 JUMPI PUSH2 0x137 JUMP JUMPDEST DUP1 PUSH4 0x18160DDD GT PUSH2 0xFF JUMPI DUP1 PUSH4 0x18160DDD EQ PUSH2 0x1DE JUMPI DUP1 PUSH4 0x23B872DD EQ PUSH2 0x1FC JUMPI DUP1 PUSH4 0x313CE567 EQ PUSH2 0x22C JUMPI DUP1 PUSH4 0x39509351 EQ PUSH2 0x24A JUMPI DUP1 PUSH4 0x69313678 EQ PUSH2 0x27A JUMPI PUSH2 0x137 JUMP JUMPDEST DUP1 PUSH4 0x6FDDE03 EQ PUSH2 0x13C JUMPI DUP1 PUSH4 0x95EA7B3 EQ PUSH2 0x15A JUMPI DUP1 PUSH4 0xA61877E EQ PUSH2 0x18A JUMPI DUP1 PUSH4 0x13B954A3 EQ PUSH2 0x1A6 JUMPI DUP1 PUSH4 0x1506F480 EQ PUSH2 0x1C2 JUMPI JUMPDEST PUSH1 0x0 DUP1 REVERT JUMPDEST PUSH2 0x144 PUSH2 0x434 JUMP JUMPDEST PUSH1 0x40 MLOAD PUSH2 0x151 SWAP2 SWAP1 PUSH2 0x23F3 JUMP JUMPDEST PUSH1 0x40 MLOAD DUP1 SWAP2 SUB SWAP1 RETURN JUMPDEST PUSH2 0x174 PUSH1 0x4 DUP1 CALLDATASIZE SUB DUP2 ADD SWAP1 PUSH2 0x16F SWAP2 SWAP1 PUSH2 0x213D JUMP JUMPDEST PUSH2 0x4C6 JUMP JUMPDEST PUSH1 0x40 MLOAD PUSH2 0x181 SWAP2 SWAP1 PUSH2 0x23D8 JUMP JUMPDEST PUSH1 0x40 MLOAD DUP1 SWAP2 SUB SWAP1 RETURN JUMPDEST PUSH2 0x1A4 PUSH1 0x4 DUP1 CALLDATASIZE SUB DUP2 ADD SWAP1 PUSH2 0x19F SWAP2 SWAP1 PUSH2 0x207D JUMP JUMPDEST PUSH2 0x4E4 JUMP JUMPDEST STOP JUMPDEST PUSH2 0x1C0 PUSH1 0x4 DUP1 CALLDATASIZE SUB DUP2 ADD SWAP1 PUSH2 0x1BB SWAP2 SWAP1 PUSH2 0x213D JUMP JUMPDEST PUSH2 0x739 JUMP JUMPDEST STOP JUMPDEST PUSH2 0x1DC PUSH1 0x4 DUP1 CALLDATASIZE SUB DUP2 ADD SWAP1 PUSH2 0x1D7 SWAP2 SWAP1 PUSH2 0x213D JUMP JUMPDEST PUSH2 0x9EC JUMP JUMPDEST STOP JUMPDEST PUSH2 0x1E6 PUSH2 0xD80 JUMP JUMPDEST PUSH1 0x40 MLOAD PUSH2 0x1F3 SWAP2 SWAP1 PUSH2 0x2555 JUMP JUMPDEST PUSH1 0x40 MLOAD DUP1 SWAP2 SUB SWAP1 RETURN JUMPDEST PUSH2 0x216 PUSH1 0x4 DUP1 CALLDATASIZE SUB DUP2 ADD SWAP1 PUSH2 0x211 SWAP2 SWAP1 PUSH2 0x20EA JUMP JUMPDEST PUSH2 0xD8A JUMP JUMPDEST PUSH1 0x40 MLOAD PUSH2 0x223 SWAP2 SWAP1 PUSH2 0x23D8 JUMP JUMPDEST PUSH1 0x40 MLOAD DUP1 SWAP2 SUB SWAP1 RETURN JUMPDEST PUSH2 0x234 PUSH2 0xD97 JUMP JUMPDEST PUSH1 0x40 MLOAD PUSH2 0x241 SWAP2 SWAP1 PUSH2 0x2570 JUMP JUMPDEST PUSH1 0x40 MLOAD DUP1 SWAP2 SUB SWAP1 RETURN JUMPDEST PUSH2 0x264 PUSH1 0x4 DUP1 CALLDATASIZE SUB DUP2 ADD SWAP1 PUSH2 0x25F SWAP2 SWAP1 PUSH2 0x213D JUMP JUMPDEST PUSH2 0xDA0 JUMP JUMPDEST PUSH1 0x40 MLOAD PUSH2 0x271 SWAP2 SWAP1 PUSH2 0x23D8 JUMP JUMPDEST PUSH1 0x40 MLOAD DUP1 SWAP2 SUB SWAP1 RETURN JUMPDEST PUSH2 0x294 PUSH1 0x4 DUP1 CALLDATASIZE SUB DUP2 ADD SWAP1 PUSH2 0x28F SWAP2 SWAP1 PUSH2 0x21BD JUMP JUMPDEST PUSH2 0xE4C JUMP JUMPDEST PUSH1 0x40 MLOAD PUSH2 0x2A1 SWAP2 SWAP1 PUSH2 0x2555 JUMP JUMPDEST PUSH1 0x40 MLOAD DUP1 SWAP2 SUB SWAP1 RETURN JUMPDEST PUSH2 0x2C4 PUSH1 0x4 DUP1 CALLDATASIZE SUB DUP2 ADD SWAP1 PUSH2 0x2BF SWAP2 SWAP1 PUSH2 0x207D JUMP JUMPDEST PUSH2 0xE70 JUMP JUMPDEST PUSH1 0x40 MLOAD PUSH2 0x2D1 SWAP2 SWAP1 PUSH2 0x2555 JUMP JUMPDEST PUSH1 0x40 MLOAD DUP1 SWAP2 SUB SWAP1 RETURN JUMPDEST PUSH2 0x2E2 PUSH2 0x1018 JUMP JUMPDEST STOP JUMPDEST PUSH2 0x2FE PUSH1 0x4 DUP1 CALLDATASIZE SUB DUP2 ADD SWAP1 PUSH2 0x2F9 SWAP2 SWAP1 PUSH2 0x207D JUMP JUMPDEST PUSH2 0x10A0 JUMP JUMPDEST PUSH1 0x40 MLOAD PUSH2 0x30B SWAP2 SWAP1 PUSH2 0x2570 JUMP JUMPDEST PUSH1 0x40 MLOAD DUP1 SWAP2 SUB SWAP1 RETURN JUMPDEST PUSH2 0x31C PUSH2 0x10C0 JUMP JUMPDEST PUSH1 0x40 MLOAD PUSH2 0x329 SWAP2 SWAP1 PUSH2 0x23BD JUMP JUMPDEST PUSH1 0x40 MLOAD DUP1 SWAP2 SUB SWAP1 RETURN JUMPDEST PUSH2 0x33A PUSH2 0x10EA JUMP JUMPDEST PUSH1 0x40 MLOAD PUSH2 0x347 SWAP2 SWAP1 PUSH2 0x23F3 JUMP JUMPDEST PUSH1 0x40 MLOAD DUP1 SWAP2 SUB SWAP1 RETURN JUMPDEST PUSH2 0x36A PUSH1 0x4 DUP1 CALLDATASIZE SUB DUP2 ADD SWAP1 PUSH2 0x365 SWAP2 SWAP1 PUSH2 0x21BD JUMP JUMPDEST PUSH2 0x117C JUMP JUMPDEST STOP JUMPDEST PUSH2 0x386 PUSH1 0x4 DUP1 CALLDATASIZE SUB DUP2 ADD SWAP1 PUSH2 0x381 SWAP2 SWAP1 PUSH2 0x217D JUMP JUMPDEST PUSH2 0x14ED JUMP JUMPDEST STOP JUMPDEST PUSH2 0x3A2 PUSH1 0x4 DUP1 CALLDATASIZE SUB DUP2 ADD SWAP1 PUSH2 0x39D SWAP2 SWAP1 PUSH2 0x213D JUMP JUMPDEST PUSH2 0x1771 JUMP JUMPDEST PUSH1 0x40 MLOAD PUSH2 0x3AF SWAP2 SWAP1 PUSH2 0x23D8 JUMP JUMPDEST PUSH1 0x40 MLOAD DUP1 SWAP2 SUB SWAP1 RETURN JUMPDEST PUSH2 0x3D2 PUSH1 0x4 DUP1 CALLDATASIZE SUB DUP2 ADD SWAP1 PUSH2 0x3CD SWAP2 SWAP1 PUSH2 0x213D JUMP JUMPDEST PUSH2 0x1865 JUMP JUMPDEST PUSH1 0x40 MLOAD PUSH2 0x3DF SWAP2 SWAP1 PUSH2 0x23D8 JUMP JUMPDEST PUSH1 0x40 MLOAD DUP1 SWAP2 SUB SWAP1 RETURN JUMPDEST PUSH2 0x402 PUSH1 0x4 DUP1 CALLDATASIZE SUB DUP2 ADD SWAP1 PUSH2 0x3FD SWAP2 SWAP1 PUSH2 0x20AA JUMP JUMPDEST PUSH2 0x19A2 JUMP JUMPDEST PUSH1 0x40 MLOAD PUSH2 0x40F SWAP2 SWAP1 PUSH2 0x2555 JUMP JUMPDEST PUSH1 0x40 MLOAD DUP1 SWAP2 SUB SWAP1 RETURN JUMPDEST PUSH2 0x432 PUSH1 0x4 DUP1 CALLDATASIZE SUB DUP2 ADD SWAP1 PUSH2 0x42D SWAP2 SWAP1 PUSH2 0x207D JUMP JUMPDEST PUSH2 0x1A29 JUMP JUMPDEST STOP JUMPDEST PUSH1 0x60 PUSH1 0x3 DUP1 SLOAD PUSH2 0x443 SWAP1 PUSH2 0x2778 JUMP JUMPDEST DUP1 PUSH1 0x1F ADD PUSH1 0x20 DUP1 SWAP2 DIV MUL PUSH1 0x20 ADD PUSH1 0x40 MLOAD SWAP1 DUP2 ADD PUSH1 0x40 MSTORE DUP1 SWAP3 SWAP2 SWAP1 DUP2 DUP2 MSTORE PUSH1 0x20 ADD DUP3 DUP1 SLOAD PUSH2 0x46F SWAP1 PUSH2 0x2778 JUMP JUMPDEST DUP1 ISZERO PUSH2 0x4BC JUMPI DUP1 PUSH1 0x1F LT PUSH2 0x491 JUMPI PUSH2 0x100 DUP1 DUP4 SLOAD DIV MUL DUP4 MSTORE SWAP2 PUSH1 0x20 ADD SWAP2 PUSH2 0x4BC JUMP JUMPDEST DUP3 ADD SWAP2 SWAP1 PUSH1 0x0 MSTORE PUSH1 0x20 PUSH1 0x0 KECCAK256 SWAP1 JUMPDEST DUP2 SLOAD DUP2 MSTORE SWAP1 PUSH1 0x1 ADD SWAP1 PUSH1 0x20 ADD DUP1 DUP4 GT PUSH2 0x49F JUMPI DUP3 SWAP1 SUB PUSH1 0x1F AND DUP3 ADD SWAP2 JUMPDEST POP POP POP POP POP SWAP1 POP SWAP1 JUMP JUMPDEST PUSH1 0x0 PUSH2 0x4DA PUSH2 0x4D3 PUSH2 0x1B21 JUMP JUMPDEST DUP5 DUP5 PUSH2 0x1B29 JUMP JUMPDEST PUSH1 0x1 SWAP1 POP SWAP3 SWAP2 POP POP JUMP JUMPDEST PUSH1 0x0 PUSH1 0x7 PUSH1 0x0 DUP4 PUSH20 0xFFFFFFFFFFFFFFFFFFFFFFFFFFFFFFFFFFFFFFFF AND PUSH20 0xFFFFFFFFFFFFFFFFFFFFFFFFFFFFFFFFFFFFFFFF AND DUP2 MSTORE PUSH1 0x20 ADD SWAP1 DUP2 MSTORE PUSH1 0x20 ADD PUSH1 0x0 KECCAK256 PUSH1 0x0 SWAP1 SLOAD SWAP1 PUSH2 0x100 EXP SWAP1 DIV PUSH1 0xFF AND PUSH1 0xFF AND EQ ISZERO PUSH2 0x541 JUMPI PUSH2 0x736 JUMP JUMPDEST PUSH1 0x6 PUSH1 0x0 DUP3 PUSH20 0xFFFFFFFFFFFFFFFFFFFFFFFFFFFFFFFFFFFFFFFF AND PUSH20 0xFFFFFFFFFFFFFFFFFFFFFFFFFFFFFFFFFFFFFFFF AND DUP2 MSTORE PUSH1 0x20 ADD SWAP1 DUP2 MSTORE PUSH1 0x20 ADD PUSH1 0x0 KECCAK256 SLOAD PUSH1 0x0 DUP1 DUP4 PUSH20 0xFFFFFFFFFFFFFFFFFFFFFFFFFFFFFFFFFFFFFFFF AND PUSH20 0xFFFFFFFFFFFFFFFFFFFFFFFFFFFFFFFFFFFFFFFF AND DUP2 MSTORE PUSH1 0x20 ADD SWAP1 DUP2 MSTORE PUSH1 0x20 ADD PUSH1 0x0 KECCAK256 SLOAD PUSH1 0x9 PUSH1 0x7 PUSH1 0x0 DUP6 PUSH20 0xFFFFFFFFFFFFFFFFFFFFFFFFFFFFFFFFFFFFFFFF AND PUSH20 0xFFFFFFFFFFFFFFFFFFFFFFFFFFFFFFFFFFFFFFFF AND DUP2 MSTORE PUSH1 0x20 ADD SWAP1 DUP2 MSTORE PUSH1 0x20 ADD PUSH1 0x0 KECCAK256 PUSH1 0x0 SWAP1 SLOAD SWAP1 PUSH2 0x100 EXP SWAP1 DIV PUSH1 0xFF AND PUSH1 0xFF AND DUP2 SLOAD DUP2 LT PUSH2 0x623 JUMPI PUSH2 0x622 PUSH2 0x2861 JUMP JUMPDEST JUMPDEST SWAP1 PUSH1 0x0 MSTORE PUSH1 0x20 PUSH1 0x0 KECCAK256 ADD SLOAD PUSH2 0x638 SWAP2 SWAP1 PUSH2 0x262E JUMP JUMPDEST PUSH2 0x642 SWAP2 SWAP1 PUSH2 0x25FD JUMP JUMPDEST PUSH1 0x0 DUP1 DUP4 PUSH20 0xFFFFFFFFFFFFFFFFFFFFFFFFFFFFFFFFFFFFFFFF AND PUSH20 0xFFFFFFFFFFFFFFFFFFFFFFFFFFFFFFFFFFFFFFFF AND DUP2 MSTORE PUSH1 0x20 ADD SWAP1 DUP2 MSTORE PUSH1 0x20 ADD PUSH1 0x0 KECCAK256 DUP2 SWAP1 SSTORE POP PUSH1 0x9 PUSH1 0x7 PUSH1 0x0 DUP4 PUSH20 0xFFFFFFFFFFFFFFFFFFFFFFFFFFFFFFFFFFFFFFFF AND PUSH20 0xFFFFFFFFFFFFFFFFFFFFFFFFFFFFFFFFFFFFFFFF AND DUP2 MSTORE PUSH1 0x20 ADD SWAP1 DUP2 MSTORE PUSH1 0x20 ADD PUSH1 0x0 KECCAK256 PUSH1 0x0 SWAP1 SLOAD SWAP1 PUSH2 0x100 EXP SWAP1 DIV PUSH1 0xFF AND PUSH1 0xFF AND DUP2 SLOAD DUP2 LT PUSH2 0x6E7 JUMPI PUSH2 0x6E6 PUSH2 0x2861 JUMP JUMPDEST JUMPDEST SWAP1 PUSH1 0x0 MSTORE PUSH1 0x20 PUSH1 0x0 KECCAK256 ADD SLOAD PUSH1 0x6 PUSH1 0x0 DUP4 PUSH20 0xFFFFFFFFFFFFFFFFFFFFFFFFFFFFFFFFFFFFFFFF AND PUSH20 0xFFFFFFFFFFFFFFFFFFFFFFFFFFFFFFFFFFFFFFFF AND DUP2 MSTORE PUSH1 0x20 ADD SWAP1 DUP2 MSTORE PUSH1 0x20 ADD PUSH1 0x0 KECCAK256 DUP2 SWAP1 SSTORE POP JUMPDEST POP JUMP JUMPDEST PUSH2 0x741 PUSH2 0x1B21 JUMP JUMPDEST PUSH20 0xFFFFFFFFFFFFFFFFFFFFFFFFFFFFFFFFFFFFFFFF AND PUSH2 0x75F PUSH2 0x10C0 JUMP JUMPDEST PUSH20 0xFFFFFFFFFFFFFFFFFFFFFFFFFFFFFFFFFFFFFFFF AND EQ PUSH2 0x7B5 JUMPI PUSH1 0x40 MLOAD PUSH32 0x8C379A000000000000000000000000000000000000000000000000000000000 DUP2 MSTORE PUSH1 0x4 ADD PUSH2 0x7AC SWAP1 PUSH2 0x2495 JUMP JUMPDEST PUSH1 0x40 MLOAD DUP1 SWAP2 SUB SWAP1 REVERT JUMPDEST PUSH1 0x0 PUSH1 0x7 PUSH1 0x0 DUP5 PUSH20 0xFFFFFFFFFFFFFFFFFFFFFFFFFFFFFFFFFFFFFFFF AND PUSH20 0xFFFFFFFFFFFFFFFFFFFFFFFFFFFFFFFFFFFFFFFF AND DUP2 MSTORE PUSH1 0x20 ADD SWAP1 DUP2 MSTORE PUSH1 0x20 ADD PUSH1 0x0 KECCAK256 PUSH1 0x0 SWAP1 SLOAD SWAP1 PUSH2 0x100 EXP SWAP1 DIV PUSH1 0xFF AND PUSH1 0xFF AND EQ PUSH2 0x847 JUMPI PUSH1 0x40 MLOAD PUSH32 0x8C379A000000000000000000000000000000000000000000000000000000000 DUP2 MSTORE PUSH1 0x4 ADD PUSH2 0x83E SWAP1 PUSH2 0x2515 JUMP JUMPDEST PUSH1 0x40 MLOAD DUP1 SWAP2 SUB SWAP1 REVERT JUMPDEST DUP1 PUSH1 0x0 DUP1 DUP5 PUSH20 0xFFFFFFFFFFFFFFFFFFFFFFFFFFFFFFFFFFFFFFFF AND PUSH20 0xFFFFFFFFFFFFFFFFFFFFFFFFFFFFFFFFFFFFFFFF AND DUP2 MSTORE PUSH1 0x20 ADD SWAP1 DUP2 MSTORE PUSH1 0x20 ADD PUSH1 0x0 KECCAK256 PUSH1 0x0 DUP3 DUP3 SLOAD PUSH2 0x895 SWAP2 SWAP1 PUSH2 0x25A7 JUMP JUMPDEST SWAP3 POP POP DUP2 SWAP1 SSTORE POP PUSH1 0x0 PUSH1 0x1 SWAP1 POP JUMPDEST PUSH1 0x2 DUP2 PUSH1 0xFF AND GT PUSH2 0x9CE JUMPI PUSH1 0x2 DUP3 PUSH2 0x8BB SWAP2 SWAP1 PUSH2 0x25FD JUMP JUMPDEST PUSH1 0xA DUP3 PUSH1 0xFF AND DUP2 SLOAD DUP2 LT PUSH2 0x8D2 JUMPI PUSH2 0x8D1 PUSH2 0x2861 JUMP JUMPDEST JUMPDEST SWAP1 PUSH1 0x0 MSTORE PUSH1 0x20 PUSH1 0x0 KECCAK256 ADD SLOAD PUSH2 0x8E7 SWAP2 SWAP1 PUSH2 0x25A7 JUMP JUMPDEST PUSH1 0x9 DUP3 PUSH1 0xFF AND DUP2 SLOAD DUP2 LT PUSH2 0x8FE JUMPI PUSH2 0x8FD PUSH2 0x2861 JUMP JUMPDEST JUMPDEST SWAP1 PUSH1 0x0 MSTORE PUSH1 0x20 PUSH1 0x0 KECCAK256 ADD PUSH1 0x0 DUP3 DUP3 SLOAD PUSH2 0x917 SWAP2 SWAP1 PUSH2 0x262E JUMP JUMPDEST SWAP3 POP POP DUP2 SWAP1 SSTORE POP PUSH1 0xA DUP2 PUSH1 0xFF AND DUP2 SLOAD DUP2 LT PUSH2 0x935 JUMPI PUSH2 0x934 PUSH2 0x2861 JUMP JUMPDEST JUMPDEST SWAP1 PUSH1 0x0 MSTORE PUSH1 0x20 PUSH1 0x0 KECCAK256 ADD SLOAD PUSH1 0x9 DUP3 PUSH1 0xFF AND DUP2 SLOAD DUP2 LT PUSH2 0x957 JUMPI PUSH2 0x956 PUSH2 0x2861 JUMP JUMPDEST JUMPDEST SWAP1 PUSH1 0x0 MSTORE PUSH1 0x20 PUSH1 0x0 KECCAK256 ADD PUSH1 0x0 DUP3 DUP3 SLOAD PUSH2 0x970 SWAP2 SWAP1 PUSH2 0x25FD JUMP JUMPDEST SWAP3 POP POP DUP2 SWAP1 SSTORE POP PUSH1 0x2 DUP3 PUSH2 0x984 SWAP2 SWAP1 PUSH2 0x25FD JUMP JUMPDEST PUSH1 0xA DUP3 PUSH1 0xFF AND DUP2 SLOAD DUP2 LT PUSH2 0x99B JUMPI PUSH2 0x99A PUSH2 0x2861 JUMP JUMPDEST JUMPDEST SWAP1 PUSH1 0x0 MSTORE PUSH1 0x20 PUSH1 0x0 KECCAK256 ADD PUSH1 0x0 DUP3 DUP3 SLOAD PUSH2 0x9B4 SWAP2 SWAP1 PUSH2 0x25A7 JUMP JUMPDEST SWAP3 POP POP DUP2 SWAP1 SSTORE POP DUP1 DUP1 PUSH2 0x9C6 SWAP1 PUSH2 0x27AA JUMP JUMPDEST SWAP2 POP POP PUSH2 0x8A3 JUMP JUMPDEST POP DUP1 PUSH1 0x2 PUSH1 0x0 DUP3 DUP3 SLOAD PUSH2 0x9E1 SWAP2 SWAP1 PUSH2 0x25A7 JUMP JUMPDEST SWAP3 POP POP DUP2 SWAP1 SSTORE POP POP POP JUMP JUMPDEST PUSH2 0x9F4 PUSH2 0x1B21 JUMP JUMPDEST PUSH20 0xFFFFFFFFFFFFFFFFFFFFFFFFFFFFFFFFFFFFFFFF AND PUSH2 0xA12 PUSH2 0x10C0 JUMP JUMPDEST PUSH20 0xFFFFFFFFFFFFFFFFFFFFFFFFFFFFFFFFFFFFFFFF AND EQ PUSH2 0xA68 JUMPI PUSH1 0x40 MLOAD PUSH32 0x8C379A000000000000000000000000000000000000000000000000000000000 DUP2 MSTORE PUSH1 0x4 ADD PUSH2 0xA5F SWAP1 PUSH2 0x2495 JUMP JUMPDEST PUSH1 0x40 MLOAD DUP1 SWAP2 SUB SWAP1 REVERT JUMPDEST PUSH1 0x0 PUSH1 0x7 PUSH1 0x0 DUP5 PUSH20 0xFFFFFFFFFFFFFFFFFFFFFFFFFFFFFFFFFFFFFFFF AND PUSH20 0xFFFFFFFFFFFFFFFFFFFFFFFFFFFFFFFFFFFFFFFF AND DUP2 MSTORE PUSH1 0x20 ADD SWAP1 DUP2 MSTORE PUSH1 0x20 ADD PUSH1 0x0 KECCAK256 PUSH1 0x0 SWAP1 SLOAD SWAP1 PUSH2 0x100 EXP SWAP1 DIV PUSH1 0xFF AND PUSH1 0xFF AND EQ ISZERO PUSH2 0xAFB JUMPI PUSH1 0x40 MLOAD PUSH32 0x8C379A000000000000000000000000000000000000000000000000000000000 DUP2 MSTORE PUSH1 0x4 ADD PUSH2 0xAF2 SWAP1 PUSH2 0x24B5 JUMP JUMPDEST PUSH1 0x40 MLOAD DUP1 SWAP2 SUB SWAP1 REVERT JUMPDEST PUSH2 0xB04 DUP3 PUSH2 0x4E4 JUMP JUMPDEST DUP1 PUSH1 0x0 DUP1 DUP5 PUSH20 0xFFFFFFFFFFFFFFFFFFFFFFFFFFFFFFFFFFFFFFFF AND PUSH20 0xFFFFFFFFFFFFFFFFFFFFFFFFFFFFFFFFFFFFFFFF AND DUP2 MSTORE PUSH1 0x20 ADD SWAP1 DUP2 MSTORE PUSH1 0x20 ADD PUSH1 0x0 KECCAK256 PUSH1 0x0 DUP3 DUP3 SLOAD PUSH2 0xB52 SWAP2 SWAP1 PUSH2 0x25A7 JUMP JUMPDEST SWAP3 POP POP DUP2 SWAP1 SSTORE POP DUP1 PUSH1 0x2 PUSH2 0xB66 SWAP2 SWAP1 PUSH2 0x262E JUMP JUMPDEST PUSH1 0x0 DUP1 PUSH1 0xB PUSH1 0x0 SWAP1 SLOAD SWAP1 PUSH2 0x100 EXP SWAP1 DIV PUSH20 0xFFFFFFFFFFFFFFFFFFFFFFFFFFFFFFFFFFFFFFFF AND PUSH20 0xFFFFFFFFFFFFFFFFFFFFFFFFFFFFFFFFFFFFFFFF AND PUSH20 0xFFFFFFFFFFFFFFFFFFFFFFFFFFFFFFFFFFFFFFFF AND DUP2 MSTORE PUSH1 0x20 ADD SWAP1 DUP2 MSTORE PUSH1 0x20 ADD PUSH1 0x0 KECCAK256 PUSH1 0x0 DUP3 DUP3 SLOAD PUSH2 0xBD5 SWAP2 SWAP1 PUSH2 0x25A7 JUMP JUMPDEST SWAP3 POP POP DUP2 SWAP1 SSTORE POP PUSH1 0x0 PUSH1 0x7 PUSH1 0x0 DUP5 PUSH20 0xFFFFFFFFFFFFFFFFFFFFFFFFFFFFFFFFFFFFFFFF AND PUSH20 0xFFFFFFFFFFFFFFFFFFFFFFFFFFFFFFFFFFFFFFFF AND DUP2 MSTORE PUSH1 0x20 ADD SWAP1 DUP2 MSTORE PUSH1 0x20 ADD PUSH1 0x0 KECCAK256 PUSH1 0x0 SWAP1 SLOAD SWAP1 PUSH2 0x100 EXP SWAP1 DIV PUSH1 0xFF AND PUSH1 0x1 PUSH2 0xC37 SWAP2 SWAP1 PUSH2 0x26BC JUMP JUMPDEST SWAP1 POP DUP2 PUSH1 0xA DUP3 PUSH1 0xFF AND DUP2 SLOAD DUP2 LT PUSH2 0xC51 JUMPI PUSH2 0xC50 PUSH2 0x2861 JUMP JUMPDEST JUMPDEST SWAP1 PUSH1 0x0 MSTORE PUSH1 0x20 PUSH1 0x0 KECCAK256 ADD SLOAD PUSH2 0xC66 SWAP2 SWAP1 PUSH2 0x25A7 JUMP JUMPDEST PUSH1 0x9 DUP3 PUSH1 0xFF AND DUP2 SLOAD DUP2 LT PUSH2 0xC7D JUMPI PUSH2 0xC7C PUSH2 0x2861 JUMP JUMPDEST JUMPDEST SWAP1 PUSH1 0x0 MSTORE PUSH1 0x20 PUSH1 0x0 KECCAK256 ADD PUSH1 0x0 DUP3 DUP3 SLOAD PUSH2 0xC96 SWAP2 SWAP1 PUSH2 0x262E JUMP JUMPDEST SWAP3 POP POP DUP2 SWAP1 SSTORE POP PUSH1 0xA DUP2 PUSH1 0xFF AND DUP2 SLOAD DUP2 LT PUSH2 0xCB4 JUMPI PUSH2 0xCB3 PUSH2 0x2861 JUMP JUMPDEST JUMPDEST SWAP1 PUSH1 0x0 MSTORE PUSH1 0x20 PUSH1 0x0 KECCAK256 ADD SLOAD PUSH1 0x9 DUP3 PUSH1 0xFF AND DUP2 SLOAD DUP2 LT PUSH2 0xCD6 JUMPI PUSH2 0xCD5 PUSH2 0x2861 JUMP JUMPDEST JUMPDEST SWAP1 PUSH1 0x0 MSTORE PUSH1 0x20 PUSH1 0x0 KECCAK256 ADD PUSH1 0x0 DUP3 DUP3 SLOAD PUSH2 0xCEF SWAP2 SWAP1 PUSH2 0x25FD JUMP JUMPDEST SWAP3 POP POP DUP2 SWAP1 SSTORE POP DUP2 PUSH1 0xA PUSH1 0x1 DUP2 SLOAD DUP2 LT PUSH2 0xD0C JUMPI PUSH2 0xD0B PUSH2 0x2861 JUMP JUMPDEST JUMPDEST SWAP1 PUSH1 0x0 MSTORE PUSH1 0x20 PUSH1 0x0 KECCAK256 ADD PUSH1 0x0 DUP3 DUP3 SLOAD PUSH2 0xD25 SWAP2 SWAP1 PUSH2 0x25A7 JUMP JUMPDEST SWAP3 POP POP DUP2 SWAP1 SSTORE POP DUP2 PUSH1 0xA PUSH1 0x2 DUP2 SLOAD DUP2 LT PUSH2 0xD42 JUMPI PUSH2 0xD41 PUSH2 0x2861 JUMP JUMPDEST JUMPDEST SWAP1 PUSH1 0x0 MSTORE PUSH1 0x20 PUSH1 0x0 KECCAK256 ADD PUSH1 0x0 DUP3 DUP3 SLOAD PUSH2 0xD5B SWAP2 SWAP1 PUSH2 0x25A7 JUMP JUMPDEST SWAP3 POP POP DUP2 SWAP1 SSTORE POP DUP2 PUSH1 0x2 PUSH1 0x0 DUP3 DUP3 SLOAD PUSH2 0xD74 SWAP2 SWAP1 PUSH2 0x25A7 JUMP JUMPDEST SWAP3 POP POP DUP2 SWAP1 SSTORE POP POP POP POP JUMP JUMPDEST PUSH1 0x0 PUSH1 0x2 SLOAD SWAP1 POP SWAP1 JUMP JUMPDEST PUSH1 0x0 PUSH1 0x1 SWAP1 POP SWAP4 SWAP3 POP POP POP JUMP JUMPDEST PUSH1 0x0 PUSH1 0x12 SWAP1 POP SWAP1 JUMP JUMPDEST PUSH1 0x0 PUSH2 0xE42 PUSH2 0xDAD PUSH2 0x1B21 JUMP JUMPDEST DUP5 DUP5 PUSH1 0x1 PUSH1 0x0 PUSH2 0xDBB PUSH2 0x1B21 JUMP JUMPDEST PUSH20 0xFFFFFFFFFFFFFFFFFFFFFFFFFFFFFFFFFFFFFFFF AND PUSH20 0xFFFFFFFFFFFFFFFFFFFFFFFFFFFFFFFFFFFFFFFF AND DUP2 MSTORE PUSH1 0x20 ADD SWAP1 DUP2 MSTORE PUSH1 0x20 ADD PUSH1 0x0 KECCAK256 PUSH1 0x0 DUP9 PUSH20 0xFFFFFFFFFFFFFFFFFFFFFFFFFFFFFFFFFFFFFFFF AND PUSH20 0xFFFFFFFFFFFFFFFFFFFFFFFFFFFFFFFFFFFFFFFF AND DUP2 MSTORE PUSH1 0x20 ADD SWAP1 DUP2 MSTORE PUSH1 0x20 ADD PUSH1 0x0 KECCAK256 SLOAD PUSH2 0xE3D SWAP2 SWAP1 PUSH2 0x25A7 JUMP JUMPDEST PUSH2 0x1B29 JUMP JUMPDEST PUSH1 0x1 SWAP1 POP SWAP3 SWAP2 POP POP JUMP JUMPDEST PUSH1 0x9 DUP2 DUP2 SLOAD DUP2 LT PUSH2 0xE5C JUMPI PUSH1 0x0 DUP1 REVERT JUMPDEST SWAP1 PUSH1 0x0 MSTORE PUSH1 0x20 PUSH1 0x0 KECCAK256 ADD PUSH1 0x0 SWAP2 POP SWAP1 POP SLOAD DUP2 JUMP JUMPDEST PUSH1 0x0 DUP1 PUSH1 0x7 PUSH1 0x0 DUP5 PUSH20 0xFFFFFFFFFFFFFFFFFFFFFFFFFFFFFFFFFFFFFFFF AND PUSH20 0xFFFFFFFFFFFFFFFFFFFFFFFFFFFFFFFFFFFFFFFF AND DUP2 MSTORE PUSH1 0x20 ADD SWAP1 DUP2 MSTORE PUSH1 0x20 ADD PUSH1 0x0 KECCAK256 PUSH1 0x0 SWAP1 SLOAD SWAP1 PUSH2 0x100 EXP SWAP1 DIV PUSH1 0xFF AND PUSH1 0xFF AND EQ ISZERO PUSH2 0xF0F JUMPI PUSH1 0x0 DUP1 DUP4 PUSH20 0xFFFFFFFFFFFFFFFFFFFFFFFFFFFFFFFFFFFFFFFF AND PUSH20 0xFFFFFFFFFFFFFFFFFFFFFFFFFFFFFFFFFFFFFFFF AND DUP2 MSTORE PUSH1 0x20 ADD SWAP1 DUP2 MSTORE PUSH1 0x20 ADD PUSH1 0x0 KECCAK256 SLOAD SWAP1 POP PUSH2 0x1013 JUMP JUMPDEST PUSH1 0x6 PUSH1 0x0 DUP4 PUSH20 0xFFFFFFFFFFFFFFFFFFFFFFFFFFFFFFFFFFFFFFFF AND PUSH20 0xFFFFFFFFFFFFFFFFFFFFFFFFFFFFFFFFFFFFFFFF AND DUP2 MSTORE PUSH1 0x20 ADD SWAP1 DUP2 MSTORE PUSH1 0x20 ADD PUSH1 0x0 KECCAK256 SLOAD PUSH1 0x0 DUP1 DUP5 PUSH20 0xFFFFFFFFFFFFFFFFFFFFFFFFFFFFFFFFFFFFFFFF AND PUSH20 0xFFFFFFFFFFFFFFFFFFFFFFFFFFFFFFFFFFFFFFFF AND DUP2 MSTORE PUSH1 0x20 ADD SWAP1 DUP2 MSTORE PUSH1 0x20 ADD PUSH1 0x0 KECCAK256 SLOAD PUSH1 0x9 PUSH1 0x7 PUSH1 0x0 DUP7 PUSH20 0xFFFFFFFFFFFFFFFFFFFFFFFFFFFFFFFFFFFFFFFF AND PUSH20 0xFFFFFFFFFFFFFFFFFFFFFFFFFFFFFFFFFFFFFFFF AND DUP2 MSTORE PUSH1 0x20 ADD SWAP1 DUP2 MSTORE PUSH1 0x20 ADD PUSH1 0x0 KECCAK256 PUSH1 0x0 SWAP1 SLOAD SWAP1 PUSH2 0x100 EXP SWAP1 DIV PUSH1 0xFF AND PUSH1 0xFF AND DUP2 SLOAD DUP2 LT PUSH2 0xFF1 JUMPI PUSH2 0xFF0 PUSH2 0x2861 JUMP JUMPDEST JUMPDEST SWAP1 PUSH1 0x0 MSTORE PUSH1 0x20 PUSH1 0x0 KECCAK256 ADD SLOAD PUSH2 0x1006 SWAP2 SWAP1 PUSH2 0x262E JUMP JUMPDEST PUSH2 0x1010 SWAP2 SWAP1 PUSH2 0x25FD JUMP JUMPDEST SWAP1 POP JUMPDEST SWAP2 SWAP1 POP JUMP JUMPDEST PUSH2 0x1020 PUSH2 0x1B21 JUMP JUMPDEST PUSH20 0xFFFFFFFFFFFFFFFFFFFFFFFFFFFFFFFFFFFFFFFF AND PUSH2 0x103E PUSH2 0x10C0 JUMP JUMPDEST PUSH20 0xFFFFFFFFFFFFFFFFFFFFFFFFFFFFFFFFFFFFFFFF AND EQ PUSH2 0x1094 JUMPI PUSH1 0x40 MLOAD PUSH32 0x8C379A000000000000000000000000000000000000000000000000000000000 DUP2 MSTORE PUSH1 0x4 ADD PUSH2 0x108B SWAP1 PUSH2 0x2495 JUMP JUMPDEST PUSH1 0x40 MLOAD DUP1 SWAP2 SUB SWAP1 REVERT JUMPDEST PUSH2 0x109E PUSH1 0x0 PUSH2 0x1CF4 JUMP JUMPDEST JUMP JUMPDEST PUSH1 0x7 PUSH1 0x20 MSTORE DUP1 PUSH1 0x0 MSTORE PUSH1 0x40 PUSH1 0x0 KECCAK256 PUSH1 0x0 SWAP2 POP SLOAD SWAP1 PUSH2 0x100 EXP SWAP1 DIV PUSH1 0xFF AND DUP2 JUMP JUMPDEST PUSH1 0x0 PUSH1 0x5 PUSH1 0x0 SWAP1 SLOAD SWAP1 PUSH2 0x100 EXP SWAP1 DIV PUSH20 0xFFFFFFFFFFFFFFFFFFFFFFFFFFFFFFFFFFFFFFFF AND SWAP1 POP SWAP1 JUMP JUMPDEST PUSH1 0x60 PUSH1 0x4 DUP1 SLOAD PUSH2 0x10F9 SWAP1 PUSH2 0x2778 JUMP JUMPDEST DUP1 PUSH1 0x1F ADD PUSH1 0x20 DUP1 SWAP2 DIV MUL PUSH1 0x20 ADD PUSH1 0x40 MLOAD SWAP1 DUP2 ADD PUSH1 0x40 MSTORE DUP1 SWAP3 SWAP2 SWAP1 DUP2 DUP2 MSTORE PUSH1 0x20 ADD DUP3 DUP1 SLOAD PUSH2 0x1125 SWAP1 PUSH2 0x2778 JUMP JUMPDEST DUP1 ISZERO PUSH2 0x1172 JUMPI DUP1 PUSH1 0x1F LT PUSH2 0x1147 JUMPI PUSH2 0x100 DUP1 DUP4 SLOAD DIV MUL DUP4 MSTORE SWAP2 PUSH1 0x20 ADD SWAP2 PUSH2 0x1172 JUMP JUMPDEST DUP3 ADD SWAP2 SWAP1 PUSH1 0x0 MSTORE PUSH1 0x20 PUSH1 0x0 KECCAK256 SWAP1 JUMPDEST DUP2 SLOAD DUP2 MSTORE SWAP1 PUSH1 0x1 ADD SWAP1 PUSH1 0x20 ADD DUP1 DUP4 GT PUSH2 0x1155 JUMPI DUP3 SWAP1 SUB PUSH1 0x1F AND DUP3 ADD SWAP2 JUMPDEST POP POP POP POP POP SWAP1 POP SWAP1 JUMP JUMPDEST PUSH2 0x1184 PUSH2 0x1B21 JUMP JUMPDEST PUSH20 0xFFFFFFFFFFFFFFFFFFFFFFFFFFFFFFFFFFFFFFFF AND PUSH2 0x11A2 PUSH2 0x10C0 JUMP JUMPDEST PUSH20 0xFFFFFFFFFFFFFFFFFFFFFFFFFFFFFFFFFFFFFFFF AND EQ PUSH2 0x11F8 JUMPI PUSH1 0x40 MLOAD PUSH32 0x8C379A000000000000000000000000000000000000000000000000000000000 DUP2 MSTORE PUSH1 0x4 ADD PUSH2 0x11EF SWAP1 PUSH2 0x2495 JUMP JUMPDEST PUSH1 0x40 MLOAD DUP1 SWAP2 SUB SWAP1 REVERT JUMPDEST PUSH1 0x0 PUSH1 0xA PUSH1 0x2 DUP2 SLOAD DUP2 LT PUSH2 0x120F JUMPI PUSH2 0x120E PUSH2 0x2861 JUMP JUMPDEST JUMPDEST SWAP1 PUSH1 0x0 MSTORE PUSH1 0x20 PUSH1 0x0 KECCAK256 ADD SLOAD EQ PUSH2 0x12E1 JUMPI PUSH1 0x4 DUP2 PUSH2 0x122C SWAP2 SWAP1 PUSH2 0x25FD JUMP JUMPDEST PUSH1 0xA PUSH1 0x2 DUP2 SLOAD DUP2 LT PUSH2 0x1241 JUMPI PUSH2 0x1240 PUSH2 0x2861 JUMP JUMPDEST JUMPDEST SWAP1 PUSH1 0x0 MSTORE PUSH1 0x20 PUSH1 0x0 KECCAK256 ADD SLOAD PUSH2 0x1256 SWAP2 SWAP1 PUSH2 0x25A7 JUMP JUMPDEST PUSH1 0x9 PUSH1 0x2 DUP2 SLOAD DUP2 LT PUSH2 0x126B JUMPI PUSH2 0x126A PUSH2 0x2861 JUMP JUMPDEST JUMPDEST SWAP1 PUSH1 0x0 MSTORE PUSH1 0x20 PUSH1 0x0 KECCAK256 ADD PUSH1 0x0 DUP3 DUP3 SLOAD PUSH2 0x1284 SWAP2 SWAP1 PUSH2 0x262E JUMP JUMPDEST SWAP3 POP POP DUP2 SWAP1 SSTORE POP PUSH1 0xA PUSH1 0x2 DUP2 SLOAD DUP2 LT PUSH2 0x12A0 JUMPI PUSH2 0x129F PUSH2 0x2861 JUMP JUMPDEST JUMPDEST SWAP1 PUSH1 0x0 MSTORE PUSH1 0x20 PUSH1 0x0 KECCAK256 ADD SLOAD PUSH1 0x9 PUSH1 0x2 DUP2 SLOAD DUP2 LT PUSH2 0x12C0 JUMPI PUSH2 0x12BF PUSH2 0x2861 JUMP JUMPDEST JUMPDEST SWAP1 PUSH1 0x0 MSTORE PUSH1 0x20 PUSH1 0x0 KECCAK256 ADD PUSH1 0x0 DUP3 DUP3 SLOAD PUSH2 0x12D9 SWAP2 SWAP1 PUSH2 0x25FD JUMP JUMPDEST SWAP3 POP POP DUP2 SWAP1 SSTORE POP JUMPDEST PUSH1 0x0 PUSH1 0xA PUSH1 0x1 DUP2 SLOAD DUP2 LT PUSH2 0x12F8 JUMPI PUSH2 0x12F7 PUSH2 0x2861 JUMP JUMPDEST JUMPDEST SWAP1 PUSH1 0x0 MSTORE PUSH1 0x20 PUSH1 0x0 KECCAK256 ADD SLOAD EQ PUSH2 0x13CA JUMPI PUSH1 0x4 DUP2 PUSH2 0x1315 SWAP2 SWAP1 PUSH2 0x25FD JUMP JUMPDEST PUSH1 0xA PUSH1 0x1 DUP2 SLOAD DUP2 LT PUSH2 0x132A JUMPI PUSH2 0x1329 PUSH2 0x2861 JUMP JUMPDEST JUMPDEST SWAP1 PUSH1 0x0 MSTORE PUSH1 0x20 PUSH1 0x0 KECCAK256 ADD SLOAD PUSH2 0x133F SWAP2 SWAP1 PUSH2 0x25A7 JUMP JUMPDEST PUSH1 0x9 PUSH1 0x1 DUP2 SLOAD DUP2 LT PUSH2 0x1354 JUMPI PUSH2 0x1353 PUSH2 0x2861 JUMP JUMPDEST JUMPDEST SWAP1 PUSH1 0x0 MSTORE PUSH1 0x20 PUSH1 0x0 KECCAK256 ADD PUSH1 0x0 DUP3 DUP3 SLOAD PUSH2 0x136D SWAP2 SWAP1 PUSH2 0x262E JUMP JUMPDEST SWAP3 POP POP DUP2 SWAP1 SSTORE POP PUSH1 0xA PUSH1 0x1 DUP2 SLOAD DUP2 LT PUSH2 0x1389 JUMPI PUSH2 0x1388 PUSH2 0x2861 JUMP JUMPDEST JUMPDEST SWAP1 PUSH1 0x0 MSTORE PUSH1 0x20 PUSH1 0x0 KECCAK256 ADD SLOAD PUSH1 0x9 PUSH1 0x1 DUP2 SLOAD DUP2 LT PUSH2 0x13A9 JUMPI PUSH2 0x13A8 PUSH2 0x2861 JUMP JUMPDEST JUMPDEST SWAP1 PUSH1 0x0 MSTORE PUSH1 0x20 PUSH1 0x0 KECCAK256 ADD PUSH1 0x0 DUP3 DUP3 SLOAD PUSH2 0x13C2 SWAP2 SWAP1 PUSH2 0x25FD JUMP JUMPDEST SWAP3 POP POP DUP2 SWAP1 SSTORE POP JUMPDEST PUSH1 0x2 DUP2 PUSH2 0x13D7 SWAP2 SWAP1 PUSH2 0x25FD JUMP JUMPDEST PUSH1 0x0 DUP1 PUSH1 0xB PUSH1 0x0 SWAP1 SLOAD SWAP1 PUSH2 0x100 EXP SWAP1 DIV PUSH20 0xFFFFFFFFFFFFFFFFFFFFFFFFFFFFFFFFFFFFFFFF AND PUSH20 0xFFFFFFFFFFFFFFFFFFFFFFFFFFFFFFFFFFFFFFFF AND PUSH20 0xFFFFFFFFFFFFFFFFFFFFFFFFFFFFFFFFFFFFFFFF AND DUP2 MSTORE PUSH1 0x20 ADD SWAP1 DUP2 MSTORE PUSH1 0x20 ADD PUSH1 0x0 KECCAK256 PUSH1 0x0 DUP3 DUP3 SLOAD PUSH2 0x1446 SWAP2 SWAP1 PUSH2 0x25A7 JUMP JUMPDEST SWAP3 POP POP DUP2 SWAP1 SSTORE POP PUSH1 0x4 DUP2 PUSH2 0x145A SWAP2 SWAP1 PUSH2 0x25FD JUMP JUMPDEST PUSH1 0xA PUSH1 0x1 DUP2 SLOAD DUP2 LT PUSH2 0x146F JUMPI PUSH2 0x146E PUSH2 0x2861 JUMP JUMPDEST JUMPDEST SWAP1 PUSH1 0x0 MSTORE PUSH1 0x20 PUSH1 0x0 KECCAK256 ADD PUSH1 0x0 DUP3 DUP3 SLOAD PUSH2 0x1488 SWAP2 SWAP1 PUSH2 0x25A7 JUMP JUMPDEST SWAP3 POP POP DUP2 SWAP1 SSTORE POP PUSH1 0x4 DUP2 PUSH2 0x149C SWAP2 SWAP1 PUSH2 0x25FD JUMP JUMPDEST PUSH1 0xA PUSH1 0x2 DUP2 SLOAD DUP2 LT PUSH2 0x14B1 JUMPI PUSH2 0x14B0 PUSH2 0x2861 JUMP JUMPDEST JUMPDEST SWAP1 PUSH1 0x0 MSTORE PUSH1 0x20 PUSH1 0x0 KECCAK256 ADD PUSH1 0x0 DUP3 DUP3 SLOAD PUSH2 0x14CA SWAP2 SWAP1 PUSH2 0x25A7 JUMP JUMPDEST SWAP3 POP POP DUP2 SWAP1 SSTORE POP DUP1 PUSH1 0x2 PUSH1 0x0 DUP3 DUP3 SLOAD PUSH2 0x14E3 SWAP2 SWAP1 PUSH2 0x25A7 JUMP JUMPDEST SWAP3 POP POP DUP2 SWAP1 SSTORE POP POP JUMP JUMPDEST PUSH2 0x14F5 PUSH2 0x1B21 JUMP JUMPDEST PUSH20 0xFFFFFFFFFFFFFFFFFFFFFFFFFFFFFFFFFFFFFFFF AND PUSH2 0x1513 PUSH2 0x10C0 JUMP JUMPDEST PUSH20 0xFFFFFFFFFFFFFFFFFFFFFFFFFFFFFFFFFFFFFFFF AND EQ PUSH2 0x1569 JUMPI PUSH1 0x40 MLOAD PUSH32 0x8C379A000000000000000000000000000000000000000000000000000000000 DUP2 MSTORE PUSH1 0x4 ADD PUSH2 0x1560 SWAP1 PUSH2 0x2495 JUMP JUMPDEST PUSH1 0x40 MLOAD DUP1 SWAP2 SUB SWAP1 REVERT JUMPDEST PUSH2 0x1572 DUP3 PUSH2 0x4E4 JUMP JUMPDEST PUSH1 0x0 PUSH1 0x7 PUSH1 0x0 DUP5 PUSH20 0xFFFFFFFFFFFFFFFFFFFFFFFFFFFFFFFFFFFFFFFF AND PUSH20 0xFFFFFFFFFFFFFFFFFFFFFFFFFFFFFFFFFFFFFFFF AND DUP2 MSTORE PUSH1 0x20 ADD SWAP1 DUP2 MSTORE PUSH1 0x20 ADD PUSH1 0x0 KECCAK256 PUSH1 0x0 SWAP1 SLOAD SWAP1 PUSH2 0x100 EXP SWAP1 DIV PUSH1 0xFF AND SWAP1 POP DUP2 PUSH1 0x7 PUSH1 0x0 DUP6 PUSH20 0xFFFFFFFFFFFFFFFFFFFFFFFFFFFFFFFFFFFFFFFF AND PUSH20 0xFFFFFFFFFFFFFFFFFFFFFFFFFFFFFFFFFFFFFFFF AND DUP2 MSTORE PUSH1 0x20 ADD SWAP1 DUP2 MSTORE PUSH1 0x20 ADD PUSH1 0x0 KECCAK256 PUSH1 0x0 PUSH2 0x100 EXP DUP2 SLOAD DUP2 PUSH1 0xFF MUL NOT AND SWAP1 DUP4 PUSH1 0xFF AND MUL OR SWAP1 SSTORE POP PUSH1 0x0 DUP1 DUP5 PUSH20 0xFFFFFFFFFFFFFFFFFFFFFFFFFFFFFFFFFFFFFFFF AND PUSH20 0xFFFFFFFFFFFFFFFFFFFFFFFFFFFFFFFFFFFFFFFF AND DUP2 MSTORE PUSH1 0x20 ADD SWAP1 DUP2 MSTORE PUSH1 0x20 ADD PUSH1 0x0 KECCAK256 SLOAD PUSH1 0xA DUP3 PUSH1 0xFF AND DUP2 SLOAD DUP2 LT PUSH2 0x1671 JUMPI PUSH2 0x1670 PUSH2 0x2861 JUMP JUMPDEST JUMPDEST SWAP1 PUSH1 0x0 MSTORE PUSH1 0x20 PUSH1 0x0 KECCAK256 ADD PUSH1 0x0 DUP3 DUP3 SLOAD PUSH2 0x168A SWAP2 SWAP1 PUSH2 0x2688 JUMP JUMPDEST SWAP3 POP POP DUP2 SWAP1 SSTORE POP PUSH1 0x0 DUP1 DUP5 PUSH20 0xFFFFFFFFFFFFFFFFFFFFFFFFFFFFFFFFFFFFFFFF AND PUSH20 0xFFFFFFFFFFFFFFFFFFFFFFFFFFFFFFFFFFFFFFFF AND DUP2 MSTORE PUSH1 0x20 ADD SWAP1 DUP2 MSTORE PUSH1 0x20 ADD PUSH1 0x0 KECCAK256 SLOAD PUSH1 0xA DUP4 PUSH1 0xFF AND DUP2 SLOAD DUP2 LT PUSH2 0x16E7 JUMPI PUSH2 0x16E6 PUSH2 0x2861 JUMP JUMPDEST JUMPDEST SWAP1 PUSH1 0x0 MSTORE PUSH1 0x20 PUSH1 0x0 KECCAK256 ADD PUSH1 0x0 DUP3 DUP3 SLOAD PUSH2 0x1700 SWAP2 SWAP1 PUSH2 0x25A7 JUMP JUMPDEST SWAP3 POP POP DUP2 SWAP1 SSTORE POP PUSH1 0x9 DUP3 PUSH1 0xFF AND DUP2 SLOAD DUP2 LT PUSH2 0x171E JUMPI PUSH2 0x171D PUSH2 0x2861 JUMP JUMPDEST JUMPDEST SWAP1 PUSH1 0x0 MSTORE PUSH1 0x20 PUSH1 0x0 KECCAK256 ADD SLOAD PUSH1 0x6 PUSH1 0x0 DUP6 PUSH20 0xFFFFFFFFFFFFFFFFFFFFFFFFFFFFFFFFFFFFFFFF AND PUSH20 0xFFFFFFFFFFFFFFFFFFFFFFFFFFFFFFFFFFFFFFFF AND DUP2 MSTORE PUSH1 0x20 ADD SWAP1 DUP2 MSTORE PUSH1 0x20 ADD PUSH1 0x0 KECCAK256 DUP2 SWAP1 SSTORE POP POP POP POP JUMP JUMPDEST PUSH1 0x0 DUP1 PUSH1 0x1 PUSH1 0x0 PUSH2 0x1780 PUSH2 0x1B21 JUMP JUMPDEST PUSH20 0xFFFFFFFFFFFFFFFFFFFFFFFFFFFFFFFFFFFFFFFF AND PUSH20 0xFFFFFFFFFFFFFFFFFFFFFFFFFFFFFFFFFFFFFFFF AND DUP2 MSTORE PUSH1 0x20 ADD SWAP1 DUP2 MSTORE PUSH1 0x20 ADD PUSH1 0x0 KECCAK256 PUSH1 0x0 DUP6 PUSH20 0xFFFFFFFFFFFFFFFFFFFFFFFFFFFFFFFFFFFFFFFF AND PUSH20 0xFFFFFFFFFFFFFFFFFFFFFFFFFFFFFFFFFFFFFFFF AND DUP2 MSTORE PUSH1 0x20 ADD SWAP1 DUP2 MSTORE PUSH1 0x20 ADD PUSH1 0x0 KECCAK256 SLOAD SWAP1 POP DUP3 DUP2 LT ISZERO PUSH2 0x183D JUMPI PUSH1 0x40 MLOAD PUSH32 0x8C379A000000000000000000000000000000000000000000000000000000000 DUP2 MSTORE PUSH1 0x4 ADD PUSH2 0x1834 SWAP1 PUSH2 0x2535 JUMP JUMPDEST PUSH1 0x40 MLOAD DUP1 SWAP2 SUB SWAP1 REVERT JUMPDEST PUSH2 0x185A PUSH2 0x1848 PUSH2 0x1B21 JUMP JUMPDEST DUP6 DUP6 DUP5 PUSH2 0x1855 SWAP2 SWAP1 PUSH2 0x2688 JUMP JUMPDEST PUSH2 0x1B29 JUMP JUMPDEST PUSH1 0x1 SWAP2 POP POP SWAP3 SWAP2 POP POP JUMP JUMPDEST PUSH1 0x0 DUP1 PUSH2 0x1870 PUSH2 0x1B21 JUMP JUMPDEST SWAP1 POP PUSH2 0x187B DUP2 PUSH2 0x4E4 JUMP JUMPDEST PUSH2 0x1884 DUP5 PUSH2 0x4E4 JUMP JUMPDEST DUP3 PUSH1 0xA PUSH1 0x7 PUSH1 0x0 DUP5 PUSH20 0xFFFFFFFFFFFFFFFFFFFFFFFFFFFFFFFFFFFFFFFF AND PUSH20 0xFFFFFFFFFFFFFFFFFFFFFFFFFFFFFFFFFFFFFFFF AND DUP2 MSTORE PUSH1 0x20 ADD SWAP1 DUP2 MSTORE PUSH1 0x20 ADD PUSH1 0x0 KECCAK256 PUSH1 0x0 SWAP1 SLOAD SWAP1 PUSH2 0x100 EXP SWAP1 DIV PUSH1 0xFF AND PUSH1 0xFF AND DUP2 SLOAD DUP2 LT PUSH2 0x18E8 JUMPI PUSH2 0x18E7 PUSH2 0x2861 JUMP JUMPDEST JUMPDEST SWAP1 PUSH1 0x0 MSTORE PUSH1 0x20 PUSH1 0x0 KECCAK256 ADD PUSH1 0x0 DUP3 DUP3 SLOAD PUSH2 0x1901 SWAP2 SWAP1 PUSH2 0x2688 JUMP JUMPDEST SWAP3 POP POP DUP2 SWAP1 SSTORE POP DUP3 PUSH1 0xA PUSH1 0x7 PUSH1 0x0 DUP8 PUSH20 0xFFFFFFFFFFFFFFFFFFFFFFFFFFFFFFFFFFFFFFFF AND PUSH20 0xFFFFFFFFFFFFFFFFFFFFFFFFFFFFFFFFFFFFFFFF AND DUP2 MSTORE PUSH1 0x20 ADD SWAP1 DUP2 MSTORE PUSH1 0x20 ADD PUSH1 0x0 KECCAK256 PUSH1 0x0 SWAP1 SLOAD SWAP1 PUSH2 0x100 EXP SWAP1 DIV PUSH1 0xFF AND PUSH1 0xFF AND DUP2 SLOAD DUP2 LT PUSH2 0x196C JUMPI PUSH2 0x196B PUSH2 0x2861 JUMP JUMPDEST JUMPDEST SWAP1 PUSH1 0x0 MSTORE PUSH1 0x20 PUSH1 0x0 KECCAK256 ADD PUSH1 0x0 DUP3 DUP3 SLOAD PUSH2 0x1985 SWAP2 SWAP1 PUSH2 0x25A7 JUMP JUMPDEST SWAP3 POP POP DUP2 SWAP1 SSTORE POP PUSH2 0x1997 DUP2 DUP6 DUP6 PUSH2 0x1DBA JUMP JUMPDEST PUSH1 0x1 SWAP2 POP POP SWAP3 SWAP2 POP POP JUMP JUMPDEST PUSH1 0x0 PUSH1 0x1 PUSH1 0x0 DUP5 PUSH20 0xFFFFFFFFFFFFFFFFFFFFFFFFFFFFFFFFFFFFFFFF AND PUSH20 0xFFFFFFFFFFFFFFFFFFFFFFFFFFFFFFFFFFFFFFFF AND DUP2 MSTORE PUSH1 0x20 ADD SWAP1 DUP2 MSTORE PUSH1 0x20 ADD PUSH1 0x0 KECCAK256 PUSH1 0x0 DUP4 PUSH20 0xFFFFFFFFFFFFFFFFFFFFFFFFFFFFFFFFFFFFFFFF AND PUSH20 0xFFFFFFFFFFFFFFFFFFFFFFFFFFFFFFFFFFFFFFFF AND DUP2 MSTORE PUSH1 0x20 ADD SWAP1 DUP2 MSTORE PUSH1 0x20 ADD PUSH1 0x0 KECCAK256 SLOAD SWAP1 POP SWAP3 SWAP2 POP POP JUMP JUMPDEST PUSH2 0x1A31 PUSH2 0x1B21 JUMP JUMPDEST PUSH20 0xFFFFFFFFFFFFFFFFFFFFFFFFFFFFFFFFFFFFFFFF AND PUSH2 0x1A4F PUSH2 0x10C0 JUMP JUMPDEST PUSH20 0xFFFFFFFFFFFFFFFFFFFFFFFFFFFFFFFFFFFFFFFF AND EQ PUSH2 0x1AA5 JUMPI PUSH1 0x40 MLOAD PUSH32 0x8C379A000000000000000000000000000000000000000000000000000000000 DUP2 MSTORE PUSH1 0x4 ADD PUSH2 0x1A9C SWAP1 PUSH2 0x2495 JUMP JUMPDEST PUSH1 0x40 MLOAD DUP1 SWAP2 SUB SWAP1 REVERT JUMPDEST PUSH1 0x0 PUSH20 0xFFFFFFFFFFFFFFFFFFFFFFFFFFFFFFFFFFFFFFFF AND DUP2 PUSH20 0xFFFFFFFFFFFFFFFFFFFFFFFFFFFFFFFFFFFFFFFF AND EQ ISZERO PUSH2 0x1B15 JUMPI PUSH1 0x40 MLOAD PUSH32 0x8C379A000000000000000000000000000000000000000000000000000000000 DUP2 MSTORE PUSH1 0x4 ADD PUSH2 0x1B0C SWAP1 PUSH2 0x2435 JUMP JUMPDEST PUSH1 0x40 MLOAD DUP1 SWAP2 SUB SWAP1 REVERT JUMPDEST PUSH2 0x1B1E DUP2 PUSH2 0x1CF4 JUMP JUMPDEST POP JUMP JUMPDEST PUSH1 0x0 CALLER SWAP1 POP SWAP1 JUMP JUMPDEST PUSH1 0x0 PUSH20 0xFFFFFFFFFFFFFFFFFFFFFFFFFFFFFFFFFFFFFFFF AND DUP4 PUSH20 0xFFFFFFFFFFFFFFFFFFFFFFFFFFFFFFFFFFFFFFFF AND EQ ISZERO PUSH2 0x1B99 JUMPI PUSH1 0x40 MLOAD PUSH32 0x8C379A000000000000000000000000000000000000000000000000000000000 DUP2 MSTORE PUSH1 0x4 ADD PUSH2 0x1B90 SWAP1 PUSH2 0x24F5 JUMP JUMPDEST PUSH1 0x40 MLOAD DUP1 SWAP2 SUB SWAP1 REVERT JUMPDEST PUSH1 0x0 PUSH20 0xFFFFFFFFFFFFFFFFFFFFFFFFFFFFFFFFFFFFFFFF AND DUP3 PUSH20 0xFFFFFFFFFFFFFFFFFFFFFFFFFFFFFFFFFFFFFFFF AND EQ ISZERO PUSH2 0x1C09 JUMPI PUSH1 0x40 MLOAD PUSH32 0x8C379A000000000000000000000000000000000000000000000000000000000 DUP2 MSTORE PUSH1 0x4 ADD PUSH2 0x1C00 SWAP1 PUSH2 0x2455 JUMP JUMPDEST PUSH1 0x40 MLOAD DUP1 SWAP2 SUB SWAP1 REVERT JUMPDEST DUP1 PUSH1 0x1 PUSH1 0x0 DUP6 PUSH20 0xFFFFFFFFFFFFFFFFFFFFFFFFFFFFFFFFFFFFFFFF AND PUSH20 0xFFFFFFFFFFFFFFFFFFFFFFFFFFFFFFFFFFFFFFFF AND DUP2 MSTORE PUSH1 0x20 ADD SWAP1 DUP2 MSTORE PUSH1 0x20 ADD PUSH1 0x0 KECCAK256 PUSH1 0x0 DUP5 PUSH20 0xFFFFFFFFFFFFFFFFFFFFFFFFFFFFFFFFFFFFFFFF AND PUSH20 0xFFFFFFFFFFFFFFFFFFFFFFFFFFFFFFFFFFFFFFFF AND DUP2 MSTORE PUSH1 0x20 ADD SWAP1 DUP2 MSTORE PUSH1 0x20 ADD PUSH1 0x0 KECCAK256 DUP2 SWAP1 SSTORE POP DUP2 PUSH20 0xFFFFFFFFFFFFFFFFFFFFFFFFFFFFFFFFFFFFFFFF AND DUP4 PUSH20 0xFFFFFFFFFFFFFFFFFFFFFFFFFFFFFFFFFFFFFFFF AND PUSH32 0x8C5BE1E5EBEC7D5BD14F71427D1E84F3DD0314C0F7B2291E5B200AC8C7C3B925 DUP4 PUSH1 0x40 MLOAD PUSH2 0x1CE7 SWAP2 SWAP1 PUSH2 0x2555 JUMP JUMPDEST PUSH1 0x40 MLOAD DUP1 SWAP2 SUB SWAP1 LOG3 POP POP POP JUMP JUMPDEST PUSH1 0x0 PUSH1 0x5 PUSH1 0x0 SWAP1 SLOAD SWAP1 PUSH2 0x100 EXP SWAP1 DIV PUSH20 0xFFFFFFFFFFFFFFFFFFFFFFFFFFFFFFFFFFFFFFFF AND SWAP1 POP DUP2 PUSH1 0x5 PUSH1 0x0 PUSH2 0x100 EXP DUP2 SLOAD DUP2 PUSH20 0xFFFFFFFFFFFFFFFFFFFFFFFFFFFFFFFFFFFFFFFF MUL NOT AND SWAP1 DUP4 PUSH20 0xFFFFFFFFFFFFFFFFFFFFFFFFFFFFFFFFFFFFFFFF AND MUL OR SWAP1 SSTORE POP DUP2 PUSH20 0xFFFFFFFFFFFFFFFFFFFFFFFFFFFFFFFFFFFFFFFF AND DUP2 PUSH20 0xFFFFFFFFFFFFFFFFFFFFFFFFFFFFFFFFFFFFFFFF AND PUSH32 0x8BE0079C531659141344CD1FD0A4F28419497F9722A3DAAFE3B4186F6B6457E0 PUSH1 0x40 MLOAD PUSH1 0x40 MLOAD DUP1 SWAP2 SUB SWAP1 LOG3 POP POP JUMP JUMPDEST PUSH1 0x0 PUSH20 0xFFFFFFFFFFFFFFFFFFFFFFFFFFFFFFFFFFFFFFFF AND DUP4 PUSH20 0xFFFFFFFFFFFFFFFFFFFFFFFFFFFFFFFFFFFFFFFF AND EQ ISZERO PUSH2 0x1E2A JUMPI PUSH1 0x40 MLOAD PUSH32 0x8C379A000000000000000000000000000000000000000000000000000000000 DUP2 MSTORE PUSH1 0x4 ADD PUSH2 0x1E21 SWAP1 PUSH2 0x24D5 JUMP JUMPDEST PUSH1 0x40 MLOAD DUP1 SWAP2 SUB SWAP1 REVERT JUMPDEST PUSH1 0x0 PUSH20 0xFFFFFFFFFFFFFFFFFFFFFFFFFFFFFFFFFFFFFFFF AND DUP3 PUSH20 0xFFFFFFFFFFFFFFFFFFFFFFFFFFFFFFFFFFFFFFFF AND EQ ISZERO PUSH2 0x1E9A JUMPI PUSH1 0x40 MLOAD PUSH32 0x8C379A000000000000000000000000000000000000000000000000000000000 DUP2 MSTORE PUSH1 0x4 ADD PUSH2 0x1E91 SWAP1 PUSH2 0x2415 JUMP JUMPDEST PUSH1 0x40 MLOAD DUP1 SWAP2 SUB SWAP1 REVERT JUMPDEST PUSH2 0x1EA5 DUP4 DUP4 DUP4 PUSH2 0x2039 JUMP JUMPDEST PUSH1 0x0 DUP1 PUSH1 0x0 DUP6 PUSH20 0xFFFFFFFFFFFFFFFFFFFFFFFFFFFFFFFFFFFFFFFF AND PUSH20 0xFFFFFFFFFFFFFFFFFFFFFFFFFFFFFFFFFFFFFFFF AND DUP2 MSTORE PUSH1 0x20 ADD SWAP1 DUP2 MSTORE PUSH1 0x20 ADD PUSH1 0x0 KECCAK256 SLOAD SWAP1 POP DUP2 DUP2 LT ISZERO PUSH2 0x1F2B JUMPI PUSH1 0x40 MLOAD PUSH32 0x8C379A000000000000000000000000000000000000000000000000000000000 DUP2 MSTORE PUSH1 0x4 ADD PUSH2 0x1F22 SWAP1 PUSH2 0x2475 JUMP JUMPDEST PUSH1 0x40 MLOAD DUP1 SWAP2 SUB SWAP1 REVERT JUMPDEST DUP2 DUP2 PUSH2 0x1F37 SWAP2 SWAP1 PUSH2 0x2688 JUMP JUMPDEST PUSH1 0x0 DUP1 DUP7 PUSH20 0xFFFFFFFFFFFFFFFFFFFFFFFFFFFFFFFFFFFFFFFF AND PUSH20 0xFFFFFFFFFFFFFFFFFFFFFFFFFFFFFFFFFFFFFFFF AND DUP2 MSTORE PUSH1 0x20 ADD SWAP1 DUP2 MSTORE PUSH1 0x20 ADD PUSH1 0x0 KECCAK256 DUP2 SWAP1 SSTORE POP DUP2 PUSH1 0x0 DUP1 DUP6 PUSH20 0xFFFFFFFFFFFFFFFFFFFFFFFFFFFFFFFFFFFFFFFF AND PUSH20 0xFFFFFFFFFFFFFFFFFFFFFFFFFFFFFFFFFFFFFFFF AND DUP2 MSTORE PUSH1 0x20 ADD SWAP1 DUP2 MSTORE PUSH1 0x20 ADD PUSH1 0x0 KECCAK256 PUSH1 0x0 DUP3 DUP3 SLOAD PUSH2 0x1FC7 SWAP2 SWAP1 PUSH2 0x25A7 JUMP JUMPDEST SWAP3 POP POP DUP2 SWAP1 SSTORE POP DUP3 PUSH20 0xFFFFFFFFFFFFFFFFFFFFFFFFFFFFFFFFFFFFFFFF AND DUP5 PUSH20 0xFFFFFFFFFFFFFFFFFFFFFFFFFFFFFFFFFFFFFFFF AND PUSH32 0xDDF252AD1BE2C89B69C2B068FC378DAA952BA7F163C4A11628F55A4DF523B3EF DUP5 PUSH1 0x40 MLOAD PUSH2 0x202B SWAP2 SWAP1 PUSH2 0x2555 JUMP JUMPDEST PUSH1 0x40 MLOAD DUP1 SWAP2 SUB SWAP1 LOG3 POP POP POP POP JUMP JUMPDEST POP POP POP JUMP JUMPDEST PUSH1 0x0 DUP2 CALLDATALOAD SWAP1 POP PUSH2 0x204D DUP2 PUSH2 0x2B70 JUMP JUMPDEST SWAP3 SWAP2 POP POP JUMP JUMPDEST PUSH1 0x0 DUP2 CALLDATALOAD SWAP1 POP PUSH2 0x2062 DUP2 PUSH2 0x2B87 JUMP JUMPDEST SWAP3 SWAP2 POP POP JUMP JUMPDEST PUSH1 0x0 DUP2 CALLDATALOAD SWAP1 POP PUSH2 0x2077 DUP2 PUSH2 0x2B9E JUMP JUMPDEST SWAP3 SWAP2 POP POP JUMP JUMPDEST PUSH1 0x0 PUSH1 0x20 DUP3 DUP5 SUB SLT ISZERO PUSH2 0x2093 JUMPI PUSH2 0x2092 PUSH2 0x2890 JUMP JUMPDEST JUMPDEST PUSH1 0x0 PUSH2 0x20A1 DUP5 DUP3 DUP6 ADD PUSH2 0x203E JUMP JUMPDEST SWAP2 POP POP SWAP3 SWAP2 POP POP JUMP JUMPDEST PUSH1 0x0 DUP1 PUSH1 0x40 DUP4 DUP6 SUB SLT ISZERO PUSH2 0x20C1 JUMPI PUSH2 0x20C0 PUSH2 0x2890 JUMP JUMPDEST JUMPDEST PUSH1 0x0 PUSH2 0x20CF DUP6 DUP3 DUP7 ADD PUSH2 0x203E JUMP JUMPDEST SWAP3 POP POP PUSH1 0x20 PUSH2 0x20E0 DUP6 DUP3 DUP7 ADD PUSH2 0x203E JUMP JUMPDEST SWAP2 POP POP SWAP3 POP SWAP3 SWAP1 POP JUMP JUMPDEST PUSH1 0x0 DUP1 PUSH1 0x0 PUSH1 0x60 DUP5 DUP7 SUB SLT ISZERO PUSH2 0x2103 JUMPI PUSH2 0x2102 PUSH2 0x2890 JUMP JUMPDEST JUMPDEST PUSH1 0x0 PUSH2 0x2111 DUP7 DUP3 DUP8 ADD PUSH2 0x203E JUMP JUMPDEST SWAP4 POP POP PUSH1 0x20 PUSH2 0x2122 DUP7 DUP3 DUP8 ADD PUSH2 0x203E JUMP JUMPDEST SWAP3 POP POP PUSH1 0x40 PUSH2 0x2133 DUP7 DUP3 DUP8 ADD PUSH2 0x2053 JUMP JUMPDEST SWAP2 POP POP SWAP3 POP SWAP3 POP SWAP3 JUMP JUMPDEST PUSH1 0x0 DUP1 PUSH1 0x40 DUP4 DUP6 SUB SLT ISZERO PUSH2 0x2154 JUMPI PUSH2 0x2153 PUSH2 0x2890 JUMP JUMPDEST JUMPDEST PUSH1 0x0 PUSH2 0x2162 DUP6 DUP3 DUP7 ADD PUSH2 0x203E JUMP JUMPDEST SWAP3 POP POP PUSH1 0x20 PUSH2 0x2173 DUP6 DUP3 DUP7 ADD PUSH2 0x2053 JUMP JUMPDEST SWAP2 POP POP SWAP3 POP SWAP3 SWAP1 POP JUMP JUMPDEST PUSH1 0x0 DUP1 PUSH1 0x40 DUP4 DUP6 SUB SLT ISZERO PUSH2 0x2194 JUMPI PUSH2 0x2193 PUSH2 0x2890 JUMP JUMPDEST JUMPDEST PUSH1 0x0 PUSH2 0x21A2 DUP6 DUP3 DUP7 ADD PUSH2 0x203E JUMP JUMPDEST SWAP3 POP POP PUSH1 0x20 PUSH2 0x21B3 DUP6 DUP3 DUP7 ADD PUSH2 0x2068 JUMP JUMPDEST SWAP2 POP POP SWAP3 POP SWAP3 SWAP1 POP JUMP JUMPDEST PUSH1 0x0 PUSH1 0x20 DUP3 DUP5 SUB SLT ISZERO PUSH2 0x21D3 JUMPI PUSH2 0x21D2 PUSH2 0x2890 JUMP JUMPDEST JUMPDEST PUSH1 0x0 PUSH2 0x21E1 DUP5 DUP3 DUP6 ADD PUSH2 0x2053 JUMP JUMPDEST SWAP2 POP POP SWAP3 SWAP2 POP POP JUMP JUMPDEST PUSH2 0x21F3 DUP2 PUSH2 0x26F0 JUMP JUMPDEST DUP3 MSTORE POP POP JUMP JUMPDEST PUSH2 0x2202 DUP2 PUSH2 0x2702 JUMP JUMPDEST DUP3 MSTORE POP POP JUMP JUMPDEST PUSH1 0x0 PUSH2 0x2213 DUP3 PUSH2 0x258B JUMP JUMPDEST PUSH2 0x221D DUP2 DUP6 PUSH2 0x2596 JUMP JUMPDEST SWAP4 POP PUSH2 0x222D DUP2 DUP6 PUSH1 0x20 DUP7 ADD PUSH2 0x2745 JUMP JUMPDEST PUSH2 0x2236 DUP2 PUSH2 0x2895 JUMP JUMPDEST DUP5 ADD SWAP2 POP POP SWAP3 SWAP2 POP POP JUMP JUMPDEST PUSH1 0x0 PUSH2 0x224E PUSH1 0x23 DUP4 PUSH2 0x2596 JUMP JUMPDEST SWAP2 POP PUSH2 0x2259 DUP3 PUSH2 0x28A6 JUMP JUMPDEST PUSH1 0x40 DUP3 ADD SWAP1 POP SWAP2 SWAP1 POP JUMP JUMPDEST PUSH1 0x0 PUSH2 0x2271 PUSH1 0x26 DUP4 PUSH2 0x2596 JUMP JUMPDEST SWAP2 POP PUSH2 0x227C DUP3 PUSH2 0x28F5 JUMP JUMPDEST PUSH1 0x40 DUP3 ADD SWAP1 POP SWAP2 SWAP1 POP JUMP JUMPDEST PUSH1 0x0 PUSH2 0x2294 PUSH1 0x22 DUP4 PUSH2 0x2596 JUMP JUMPDEST SWAP2 POP PUSH2 0x229F DUP3 PUSH2 0x2944 JUMP JUMPDEST PUSH1 0x40 DUP3 ADD SWAP1 POP SWAP2 SWAP1 POP JUMP JUMPDEST PUSH1 0x0 PUSH2 0x22B7 PUSH1 0x26 DUP4 PUSH2 0x2596 JUMP JUMPDEST SWAP2 POP PUSH2 0x22C2 DUP3 PUSH2 0x2993 JUMP JUMPDEST PUSH1 0x40 DUP3 ADD SWAP1 POP SWAP2 SWAP1 POP JUMP JUMPDEST PUSH1 0x0 PUSH2 0x22DA PUSH1 0x20 DUP4 PUSH2 0x2596 JUMP JUMPDEST SWAP2 POP PUSH2 0x22E5 DUP3 PUSH2 0x29E2 JUMP JUMPDEST PUSH1 0x20 DUP3 ADD SWAP1 POP SWAP2 SWAP1 POP JUMP JUMPDEST PUSH1 0x0 PUSH2 0x22FD PUSH1 0x20 DUP4 PUSH2 0x2596 JUMP JUMPDEST SWAP2 POP PUSH2 0x2308 DUP3 PUSH2 0x2A0B JUMP JUMPDEST PUSH1 0x20 DUP3 ADD SWAP1 POP SWAP2 SWAP1 POP JUMP JUMPDEST PUSH1 0x0 PUSH2 0x2320 PUSH1 0x25 DUP4 PUSH2 0x2596 JUMP JUMPDEST SWAP2 POP PUSH2 0x232B DUP3 PUSH2 0x2A34 JUMP JUMPDEST PUSH1 0x40 DUP3 ADD SWAP1 POP SWAP2 SWAP1 POP JUMP JUMPDEST PUSH1 0x0 PUSH2 0x2343 PUSH1 0x24 DUP4 PUSH2 0x2596 JUMP JUMPDEST SWAP2 POP PUSH2 0x234E DUP3 PUSH2 0x2A83 JUMP JUMPDEST PUSH1 0x40 DUP3 ADD SWAP1 POP SWAP2 SWAP1 POP JUMP JUMPDEST PUSH1 0x0 PUSH2 0x2366 PUSH1 0x24 DUP4 PUSH2 0x2596 JUMP JUMPDEST SWAP2 POP PUSH2 0x2371 DUP3 PUSH2 0x2AD2 JUMP JUMPDEST PUSH1 0x40 DUP3 ADD SWAP1 POP SWAP2 SWAP1 POP JUMP JUMPDEST PUSH1 0x0 PUSH2 0x2389 PUSH1 0x25 DUP4 PUSH2 0x2596 JUMP JUMPDEST SWAP2 POP PUSH2 0x2394 DUP3 PUSH2 0x2B21 JUMP JUMPDEST PUSH1 0x40 DUP3 ADD SWAP1 POP SWAP2 SWAP1 POP JUMP JUMPDEST PUSH2 0x23A8 DUP2 PUSH2 0x272E JUMP JUMPDEST DUP3 MSTORE POP POP JUMP JUMPDEST PUSH2 0x23B7 DUP2 PUSH2 0x2738 JUMP JUMPDEST DUP3 MSTORE POP POP JUMP JUMPDEST PUSH1 0x0 PUSH1 0x20 DUP3 ADD SWAP1 POP PUSH2 0x23D2 PUSH1 0x0 DUP4 ADD DUP5 PUSH2 0x21EA JUMP JUMPDEST SWAP3 SWAP2 POP POP JUMP JUMPDEST PUSH1 0x0 PUSH1 0x20 DUP3 ADD SWAP1 POP PUSH2 0x23ED PUSH1 0x0 DUP4 ADD DUP5 PUSH2 0x21F9 JUMP JUMPDEST SWAP3 SWAP2 POP POP JUMP JUMPDEST PUSH1 0x0 PUSH1 0x20 DUP3 ADD SWAP1 POP DUP2 DUP2 SUB PUSH1 0x0 DUP4 ADD MSTORE PUSH2 0x240D DUP2 DUP5 PUSH2 0x2208 JUMP JUMPDEST SWAP1 POP SWAP3 SWAP2 POP POP JUMP JUMPDEST PUSH1 0x0 PUSH1 0x20 DUP3 ADD SWAP1 POP DUP2 DUP2 SUB PUSH1 0x0 DUP4 ADD MSTORE PUSH2 0x242E DUP2 PUSH2 0x2241 JUMP JUMPDEST SWAP1 POP SWAP2 SWAP1 POP JUMP JUMPDEST PUSH1 0x0 PUSH1 0x20 DUP3 ADD SWAP1 POP DUP2 DUP2 SUB PUSH1 0x0 DUP4 ADD MSTORE PUSH2 0x244E DUP2 PUSH2 0x2264 JUMP JUMPDEST SWAP1 POP SWAP2 SWAP1 POP JUMP JUMPDEST PUSH1 0x0 PUSH1 0x20 DUP3 ADD SWAP1 POP DUP2 DUP2 SUB PUSH1 0x0 DUP4 ADD MSTORE PUSH2 0x246E DUP2 PUSH2 0x2287 JUMP JUMPDEST SWAP1 POP SWAP2 SWAP1 POP JUMP JUMPDEST PUSH1 0x0 PUSH1 0x20 DUP3 ADD SWAP1 POP DUP2 DUP2 SUB PUSH1 0x0 DUP4 ADD MSTORE PUSH2 0x248E DUP2 PUSH2 0x22AA JUMP JUMPDEST SWAP1 POP SWAP2 SWAP1 POP JUMP JUMPDEST PUSH1 0x0 PUSH1 0x20 DUP3 ADD SWAP1 POP DUP2 DUP2 SUB PUSH1 0x0 DUP4 ADD MSTORE PUSH2 0x24AE DUP2 PUSH2 0x22CD JUMP JUMPDEST SWAP1 POP SWAP2 SWAP1 POP JUMP JUMPDEST PUSH1 0x0 PUSH1 0x20 DUP3 ADD SWAP1 POP DUP2 DUP2 SUB PUSH1 0x0 DUP4 ADD MSTORE PUSH2 0x24CE DUP2 PUSH2 0x22F0 JUMP JUMPDEST SWAP1 POP SWAP2 SWAP1 POP JUMP JUMPDEST PUSH1 0x0 PUSH1 0x20 DUP3 ADD SWAP1 POP DUP2 DUP2 SUB PUSH1 0x0 DUP4 ADD MSTORE PUSH2 0x24EE DUP2 PUSH2 0x2313 JUMP JUMPDEST SWAP1 POP SWAP2 SWAP1 POP JUMP JUMPDEST PUSH1 0x0 PUSH1 0x20 DUP3 ADD SWAP1 POP DUP2 DUP2 SUB PUSH1 0x0 DUP4 ADD MSTORE PUSH2 0x250E DUP2 PUSH2 0x2336 JUMP JUMPDEST SWAP1 POP SWAP2 SWAP1 POP JUMP JUMPDEST PUSH1 0x0 PUSH1 0x20 DUP3 ADD SWAP1 POP DUP2 DUP2 SUB PUSH1 0x0 DUP4 ADD MSTORE PUSH2 0x252E DUP2 PUSH2 0x2359 JUMP JUMPDEST SWAP1 POP SWAP2 SWAP1 POP JUMP JUMPDEST PUSH1 0x0 PUSH1 0x20 DUP3 ADD SWAP1 POP DUP2 DUP2 SUB PUSH1 0x0 DUP4 ADD MSTORE PUSH2 0x254E DUP2 PUSH2 0x237C JUMP JUMPDEST SWAP1 POP SWAP2 SWAP1 POP JUMP JUMPDEST PUSH1 0x0 PUSH1 0x20 DUP3 ADD SWAP1 POP PUSH2 0x256A PUSH1 0x0 DUP4 ADD DUP5 PUSH2 0x239F JUMP JUMPDEST SWAP3 SWAP2 POP POP JUMP JUMPDEST PUSH1 0x0 PUSH1 0x20 DUP3 ADD SWAP1 POP PUSH2 0x2585 PUSH1 0x0 DUP4 ADD DUP5 PUSH2 0x23AE JUMP JUMPDEST SWAP3 SWAP2 POP POP JUMP JUMPDEST PUSH1 0x0 DUP2 MLOAD SWAP1 POP SWAP2 SWAP1 POP JUMP JUMPDEST PUSH1 0x0 DUP3 DUP3 MSTORE PUSH1 0x20 DUP3 ADD SWAP1 POP SWAP3 SWAP2 POP POP JUMP JUMPDEST PUSH1 0x0 PUSH2 0x25B2 DUP3 PUSH2 0x272E JUMP JUMPDEST SWAP2 POP PUSH2 0x25BD DUP4 PUSH2 0x272E JUMP JUMPDEST SWAP3 POP DUP3 PUSH32 0xFFFFFFFFFFFFFFFFFFFFFFFFFFFFFFFFFFFFFFFFFFFFFFFFFFFFFFFFFFFFFFFF SUB DUP3 GT ISZERO PUSH2 0x25F2 JUMPI PUSH2 0x25F1 PUSH2 0x27D4 JUMP JUMPDEST JUMPDEST DUP3 DUP3 ADD SWAP1 POP SWAP3 SWAP2 POP POP JUMP JUMPDEST PUSH1 0x0 PUSH2 0x2608 DUP3 PUSH2 0x272E JUMP JUMPDEST SWAP2 POP PUSH2 0x2613 DUP4 PUSH2 0x272E JUMP JUMPDEST SWAP3 POP DUP3 PUSH2 0x2623 JUMPI PUSH2 0x2622 PUSH2 0x2803 JUMP JUMPDEST JUMPDEST DUP3 DUP3 DIV SWAP1 POP SWAP3 SWAP2 POP POP JUMP JUMPDEST PUSH1 0x0 PUSH2 0x2639 DUP3 PUSH2 0x272E JUMP JUMPDEST SWAP2 POP PUSH2 0x2644 DUP4 PUSH2 0x272E JUMP JUMPDEST SWAP3 POP DUP2 PUSH32 0xFFFFFFFFFFFFFFFFFFFFFFFFFFFFFFFFFFFFFFFFFFFFFFFFFFFFFFFFFFFFFFFF DIV DUP4 GT DUP3 ISZERO ISZERO AND ISZERO PUSH2 0x267D JUMPI PUSH2 0x267C PUSH2 0x27D4 JUMP JUMPDEST JUMPDEST DUP3 DUP3 MUL SWAP1 POP SWAP3 SWAP2 POP POP JUMP JUMPDEST PUSH1 0x0 PUSH2 0x2693 DUP3 PUSH2 0x272E JUMP JUMPDEST SWAP2 POP PUSH2 0x269E DUP4 PUSH2 0x272E JUMP JUMPDEST SWAP3 POP DUP3 DUP3 LT ISZERO PUSH2 0x26B1 JUMPI PUSH2 0x26B0 PUSH2 0x27D4 JUMP JUMPDEST JUMPDEST DUP3 DUP3 SUB SWAP1 POP SWAP3 SWAP2 POP POP JUMP JUMPDEST PUSH1 0x0 PUSH2 0x26C7 DUP3 PUSH2 0x2738 JUMP JUMPDEST SWAP2 POP PUSH2 0x26D2 DUP4 PUSH2 0x2738 JUMP JUMPDEST SWAP3 POP DUP3 DUP3 LT ISZERO PUSH2 0x26E5 JUMPI PUSH2 0x26E4 PUSH2 0x27D4 JUMP JUMPDEST JUMPDEST DUP3 DUP3 SUB SWAP1 POP SWAP3 SWAP2 POP POP JUMP JUMPDEST PUSH1 0x0 PUSH2 0x26FB DUP3 PUSH2 0x270E JUMP JUMPDEST SWAP1 POP SWAP2 SWAP1 POP JUMP JUMPDEST PUSH1 0x0 DUP2 ISZERO ISZERO SWAP1 POP SWAP2 SWAP1 POP JUMP JUMPDEST PUSH1 0x0 PUSH20 0xFFFFFFFFFFFFFFFFFFFFFFFFFFFFFFFFFFFFFFFF DUP3 AND SWAP1 POP SWAP2 SWAP1 POP JUMP JUMPDEST PUSH1 0x0 DUP2 SWAP1 POP SWAP2 SWAP1 POP JUMP JUMPDEST PUSH1 0x0 PUSH1 0xFF DUP3 AND SWAP1 POP SWAP2 SWAP1 POP JUMP JUMPDEST PUSH1 0x0 JUMPDEST DUP4 DUP2 LT ISZERO PUSH2 0x2763 JUMPI DUP1 DUP3 ADD MLOAD DUP2 DUP5 ADD MSTORE PUSH1 0x20 DUP2 ADD SWAP1 POP PUSH2 0x2748 JUMP JUMPDEST DUP4 DUP2 GT ISZERO PUSH2 0x2772 JUMPI PUSH1 0x0 DUP5 DUP5 ADD MSTORE JUMPDEST POP POP POP POP JUMP JUMPDEST PUSH1 0x0 PUSH1 0x2 DUP3 DIV SWAP1 POP PUSH1 0x1 DUP3 AND DUP1 PUSH2 0x2790 JUMPI PUSH1 0x7F DUP3 AND SWAP2 POP JUMPDEST PUSH1 0x20 DUP3 LT DUP2 EQ ISZERO PUSH2 0x27A4 JUMPI PUSH2 0x27A3 PUSH2 0x2832 JUMP JUMPDEST JUMPDEST POP SWAP2 SWAP1 POP JUMP JUMPDEST PUSH1 0x0 PUSH2 0x27B5 DUP3 PUSH2 0x2738 JUMP JUMPDEST SWAP2 POP PUSH1 0xFF DUP3 EQ ISZERO PUSH2 0x27C9 JUMPI PUSH2 0x27C8 PUSH2 0x27D4 JUMP JUMPDEST JUMPDEST PUSH1 0x1 DUP3 ADD SWAP1 POP SWAP2 SWAP1 POP JUMP JUMPDEST PUSH32 0x4E487B7100000000000000000000000000000000000000000000000000000000 PUSH1 0x0 MSTORE PUSH1 0x11 PUSH1 0x4 MSTORE PUSH1 0x24 PUSH1 0x0 REVERT JUMPDEST PUSH32 0x4E487B7100000000000000000000000000000000000000000000000000000000 PUSH1 0x0 MSTORE PUSH1 0x12 PUSH1 0x4 MSTORE PUSH1 0x24 PUSH1 0x0 REVERT JUMPDEST PUSH32 0x4E487B7100000000000000000000000000000000000000000000000000000000 PUSH1 0x0 MSTORE PUSH1 0x22 PUSH1 0x4 MSTORE PUSH1 0x24 PUSH1 0x0 REVERT JUMPDEST PUSH32 0x4E487B7100000000000000000000000000000000000000000000000000000000 PUSH1 0x0 MSTORE PUSH1 0x32 PUSH1 0x4 MSTORE PUSH1 0x24 PUSH1 0x0 REVERT JUMPDEST PUSH1 0x0 DUP1 REVERT JUMPDEST PUSH1 0x0 PUSH1 0x1F NOT PUSH1 0x1F DUP4 ADD AND SWAP1 POP SWAP2 SWAP1 POP JUMP JUMPDEST PUSH32 0x45524332303A207472616E7366657220746F20746865207A65726F2061646472 PUSH1 0x0 DUP3 ADD MSTORE PUSH32 0x6573730000000000000000000000000000000000000000000000000000000000 PUSH1 0x20 DUP3 ADD MSTORE POP JUMP JUMPDEST PUSH32 0x4F776E61626C653A206E6577206F776E657220697320746865207A65726F2061 PUSH1 0x0 DUP3 ADD MSTORE PUSH32 0x6464726573730000000000000000000000000000000000000000000000000000 PUSH1 0x20 DUP3 ADD MSTORE POP JUMP JUMPDEST PUSH32 0x45524332303A20617070726F766520746F20746865207A65726F206164647265 PUSH1 0x0 DUP3 ADD MSTORE PUSH32 0x7373000000000000000000000000000000000000000000000000000000000000 PUSH1 0x20 DUP3 ADD MSTORE POP JUMP JUMPDEST PUSH32 0x45524332303A207472616E7366657220616D6F756E7420657863656564732062 PUSH1 0x0 DUP3 ADD MSTORE PUSH32 0x616C616E63650000000000000000000000000000000000000000000000000000 PUSH1 0x20 DUP3 ADD MSTORE POP JUMP JUMPDEST PUSH32 0x4F776E61626C653A2063616C6C6572206973206E6F7420746865206F776E6572 PUSH1 0x0 DUP3 ADD MSTORE POP JUMP JUMPDEST PUSH32 0x6163636F756E74206973206120726567756C6172207368617265686F6C646572 PUSH1 0x0 DUP3 ADD MSTORE POP JUMP JUMPDEST PUSH32 0x45524332303A207472616E736665722066726F6D20746865207A65726F206164 PUSH1 0x0 DUP3 ADD MSTORE PUSH32 0x6472657373000000000000000000000000000000000000000000000000000000 PUSH1 0x20 DUP3 ADD MSTORE POP JUMP JUMPDEST PUSH32 0x45524332303A20617070726F76652066726F6D20746865207A65726F20616464 PUSH1 0x0 DUP3 ADD MSTORE PUSH32 0x7265737300000000000000000000000000000000000000000000000000000000 PUSH1 0x20 DUP3 ADD MSTORE POP JUMP JUMPDEST PUSH32 0x6163636F756E74206973206E6F74206120726567756C6172207368617265686F PUSH1 0x0 DUP3 ADD MSTORE PUSH32 0x6C64657200000000000000000000000000000000000000000000000000000000 PUSH1 0x20 DUP3 ADD MSTORE POP JUMP JUMPDEST PUSH32 0x45524332303A2064656372656173656420616C6C6F77616E63652062656C6F77 PUSH1 0x0 DUP3 ADD MSTORE PUSH32 0x207A65726F000000000000000000000000000000000000000000000000000000 PUSH1 0x20 DUP3 ADD MSTORE POP JUMP JUMPDEST PUSH2 0x2B79 DUP2 PUSH2 0x26F0 JUMP JUMPDEST DUP2 EQ PUSH2 0x2B84 JUMPI PUSH1 0x0 DUP1 REVERT JUMPDEST POP JUMP JUMPDEST PUSH2 0x2B90 DUP2 PUSH2 0x272E JUMP JUMPDEST DUP2 EQ PUSH2 0x2B9B JUMPI PUSH1 0x0 DUP1 REVERT JUMPDEST POP JUMP JUMPDEST PUSH2 0x2BA7 DUP2 PUSH2 0x2738 JUMP JUMPDEST DUP2 EQ PUSH2 0x2BB2 JUMPI PUSH1 0x0 DUP1 REVERT JUMPDEST POP JUMP INVALID LOG2 PUSH5 0x6970667358 0x22 SLT KECCAK256 PUSH14 0x44F80EFB3522C11A4C8CB10F384B PUSH23 0x221F2B01CF68D2FEE97EE1E68AA8F36264736F6C634300 ADDMOD MOD STOP CALLER "
				},
				"gasEstimates": {
					"creation": {
						"codeDepositCost": "2248600",
						"executionCost": "infinite",
						"totalCost": "infinite"
					},
					"external": {
						"allowance(address,address)": "infinite",
						"approve(address,uint256)": "infinite",
						"balanceOf(address)": "infinite",
						"changeLvl(address,uint8)": "infinite",
						"cury(uint256)": "infinite",
						"decimals()": "410",
						"decreaseAllowance(address,uint256)": "infinite",
						"increaseAllowance(address,uint256)": "infinite",
						"lvl(address)": "2912",
						"mint(uint256)": "infinite",
						"mintToNRS(address,uint256)": "infinite",
						"mintToRS(address,uint256)": "infinite",
						"name()": "infinite",
						"owner()": "2611",
						"relaxBalance(address)": "infinite",
						"renounceOwnership()": "30419",
						"symbol()": "infinite",
						"totalSupply()": "2460",
						"transfer(address,uint256)": "infinite",
						"transferFrom(address,address,uint256)": "infinite",
						"transferOwnership(address)": "30855"
					}
				},
				"methodIdentifiers": {
					"allowance(address,address)": "dd62ed3e",
					"approve(address,uint256)": "095ea7b3",
					"balanceOf(address)": "70a08231",
					"changeLvl(address,uint8)": "a33e7d7e",
					"cury(uint256)": "69313678",
					"decimals()": "313ce567",
					"decreaseAllowance(address,uint256)": "a457c2d7",
					"increaseAllowance(address,uint256)": "39509351",
					"lvl(address)": "7a0d944c",
					"mint(uint256)": "a0712d68",
					"mintToNRS(address,uint256)": "1506f480",
					"mintToRS(address,uint256)": "13b954a3",
					"name()": "06fdde03",
					"owner()": "8da5cb5b",
					"relaxBalance(address)": "0a61877e",
					"renounceOwnership()": "715018a6",
					"symbol()": "95d89b41",
					"totalSupply()": "18160ddd",
					"transfer(address,uint256)": "a9059cbb",
					"transferFrom(address,address,uint256)": "23b872dd",
					"transferOwnership(address)": "f2fde38b"
				}
			},
			"userdoc": {
				"kind": "user",
				"methods": {},
				"version": 1
			}
		}
	}
}