{
	"contracts/Distribution/AtlantisDistribution.sol": {
		"AtlantisDistribution": {
			"abi": [
				{
					"inputs": [
						{
							"internalType": "string",
							"name": "name",
							"type": "string"
						},
						{
							"internalType": "string",
							"name": "symbol",
							"type": "string"
						},
						{
							"internalType": "address payable",
							"name": "_fund_wallet",
							"type": "address"
						}
					],
					"stateMutability": "nonpayable",
					"type": "constructor"
				},
				{
					"anonymous": false,
					"inputs": [
						{
							"indexed": true,
							"internalType": "address",
							"name": "owner",
							"type": "address"
						},
						{
							"indexed": true,
							"internalType": "address",
							"name": "spender",
							"type": "address"
						},
						{
							"indexed": false,
							"internalType": "uint256",
							"name": "value",
							"type": "uint256"
						}
					],
					"name": "Approval",
					"type": "event"
				},
				{
					"anonymous": false,
					"inputs": [
						{
							"indexed": true,
							"internalType": "address",
							"name": "previousOwner",
							"type": "address"
						},
						{
							"indexed": true,
							"internalType": "address",
							"name": "newOwner",
							"type": "address"
						}
					],
					"name": "OwnershipTransferred",
					"type": "event"
				},
				{
					"anonymous": false,
					"inputs": [
						{
							"indexed": true,
							"internalType": "address",
							"name": "from",
							"type": "address"
						},
						{
							"indexed": true,
							"internalType": "address",
							"name": "to",
							"type": "address"
						},
						{
							"indexed": false,
							"internalType": "uint256",
							"name": "value",
							"type": "uint256"
						}
					],
					"name": "Transfer",
					"type": "event"
				},
				{
					"inputs": [
						{
							"internalType": "address",
							"name": "",
							"type": "address"
						}
					],
					"name": "BC",
					"outputs": [
						{
							"internalType": "uint256",
							"name": "",
							"type": "uint256"
						}
					],
					"stateMutability": "view",
					"type": "function"
				},
				{
					"inputs": [
						{
							"internalType": "address",
							"name": "owner",
							"type": "address"
						},
						{
							"internalType": "address",
							"name": "spender",
							"type": "address"
						}
					],
					"name": "allowance",
					"outputs": [
						{
							"internalType": "uint256",
							"name": "",
							"type": "uint256"
						}
					],
					"stateMutability": "view",
					"type": "function"
				},
				{
					"inputs": [
						{
							"internalType": "address",
							"name": "spender",
							"type": "address"
						},
						{
							"internalType": "uint256",
							"name": "amount",
							"type": "uint256"
						}
					],
					"name": "approve",
					"outputs": [
						{
							"internalType": "bool",
							"name": "",
							"type": "bool"
						}
					],
					"stateMutability": "nonpayable",
					"type": "function"
				},
				{
					"inputs": [
						{
							"internalType": "address",
							"name": "account",
							"type": "address"
						}
					],
					"name": "balanceOf",
					"outputs": [
						{
							"internalType": "uint256",
							"name": "",
							"type": "uint256"
						}
					],
					"stateMutability": "view",
					"type": "function"
				},
				{
					"inputs": [
						{
							"internalType": "address",
							"name": "account",
							"type": "address"
						},
						{
							"internalType": "uint8",
							"name": "newLvl",
							"type": "uint8"
						}
					],
					"name": "changeLvl",
					"outputs": [],
					"stateMutability": "nonpayable",
					"type": "function"
				},
				{
					"inputs": [
						{
							"internalType": "uint256",
							"name": "",
							"type": "uint256"
						}
					],
					"name": "currentBC",
					"outputs": [
						{
							"internalType": "uint256",
							"name": "",
							"type": "uint256"
						}
					],
					"stateMutability": "view",
					"type": "function"
				},
				{
					"inputs": [],
					"name": "decimals",
					"outputs": [
						{
							"internalType": "uint8",
							"name": "",
							"type": "uint8"
						}
					],
					"stateMutability": "view",
					"type": "function"
				},
				{
					"inputs": [
						{
							"internalType": "address",
							"name": "spender",
							"type": "address"
						},
						{
							"internalType": "uint256",
							"name": "subtractedValue",
							"type": "uint256"
						}
					],
					"name": "decreaseAllowance",
					"outputs": [
						{
							"internalType": "bool",
							"name": "",
							"type": "bool"
						}
					],
					"stateMutability": "nonpayable",
					"type": "function"
				},
				{
					"inputs": [],
					"name": "fund_wallet",
					"outputs": [
						{
							"internalType": "address payable",
							"name": "",
							"type": "address"
						}
					],
					"stateMutability": "view",
					"type": "function"
				},
				{
					"inputs": [
						{
							"internalType": "address",
							"name": "spender",
							"type": "address"
						},
						{
							"internalType": "uint256",
							"name": "addedValue",
							"type": "uint256"
						}
					],
					"name": "increaseAllowance",
					"outputs": [
						{
							"internalType": "bool",
							"name": "",
							"type": "bool"
						}
					],
					"stateMutability": "nonpayable",
					"type": "function"
				},
				{
					"inputs": [
						{
							"internalType": "address",
							"name": "",
							"type": "address"
						}
					],
					"name": "lvl",
					"outputs": [
						{
							"internalType": "uint8",
							"name": "",
							"type": "uint8"
						}
					],
					"stateMutability": "view",
					"type": "function"
				},
				{
					"inputs": [
						{
							"internalType": "uint256",
							"name": "amount",
							"type": "uint256"
						}
					],
					"name": "mint",
					"outputs": [],
					"stateMutability": "nonpayable",
					"type": "function"
				},
				{
					"inputs": [
						{
							"internalType": "address",
							"name": "account",
							"type": "address"
						},
						{
							"internalType": "uint256",
							"name": "amount",
							"type": "uint256"
						}
					],
					"name": "mintToNRS",
					"outputs": [],
					"stateMutability": "nonpayable",
					"type": "function"
				},
				{
					"inputs": [
						{
							"internalType": "address",
							"name": "account",
							"type": "address"
						},
						{
							"internalType": "uint256",
							"name": "amount",
							"type": "uint256"
						}
					],
					"name": "mintToRS",
					"outputs": [],
					"stateMutability": "nonpayable",
					"type": "function"
				},
				{
					"inputs": [],
					"name": "name",
					"outputs": [
						{
							"internalType": "string",
							"name": "",
							"type": "string"
						}
					],
					"stateMutability": "view",
					"type": "function"
				},
				{
					"inputs": [],
					"name": "owner",
					"outputs": [
						{
							"internalType": "address",
							"name": "",
							"type": "address"
						}
					],
					"stateMutability": "view",
					"type": "function"
				},
				{
					"inputs": [],
					"name": "renounceOwnership",
					"outputs": [],
					"stateMutability": "nonpayable",
					"type": "function"
				},
				{
					"inputs": [],
					"name": "symbol",
					"outputs": [
						{
							"internalType": "string",
							"name": "",
							"type": "string"
						}
					],
					"stateMutability": "view",
					"type": "function"
				},
				{
					"inputs": [],
					"name": "totalSupply",
					"outputs": [
						{
							"internalType": "uint256",
							"name": "",
							"type": "uint256"
						}
					],
					"stateMutability": "view",
					"type": "function"
				},
				{
					"inputs": [
						{
							"internalType": "address",
							"name": "recipient",
							"type": "address"
						},
						{
							"internalType": "uint256",
							"name": "amount",
							"type": "uint256"
						}
					],
					"name": "transfer",
					"outputs": [
						{
							"internalType": "bool",
							"name": "",
							"type": "bool"
						}
					],
					"stateMutability": "nonpayable",
					"type": "function"
				},
				{
					"inputs": [
						{
							"internalType": "address",
							"name": "sender",
							"type": "address"
						},
						{
							"internalType": "address",
							"name": "recipient",
							"type": "address"
						},
						{
							"internalType": "uint256",
							"name": "amount",
							"type": "uint256"
						}
					],
					"name": "transferFrom",
					"outputs": [
						{
							"internalType": "bool",
							"name": "",
							"type": "bool"
						}
					],
					"stateMutability": "nonpayable",
					"type": "function"
				},
				{
					"inputs": [
						{
							"internalType": "address",
							"name": "newOwner",
							"type": "address"
						}
					],
					"name": "transferOwnership",
					"outputs": [],
					"stateMutability": "nonpayable",
					"type": "function"
				}
			],
			"devdoc": {
				"kind": "dev",
				"methods": {
					"allowance(address,address)": {
						"details": "See {IERC20-allowance}."
					},
					"approve(address,uint256)": {
						"details": "See {IERC20-approve}. Requirements: - `spender` cannot be the zero address."
					},
					"balanceOf(address)": {
						"details": "See {IERC20-balanceOf}."
					},
					"decimals()": {
						"details": "Returns the number of decimals used to get its user representation. For example, if `decimals` equals `2`, a balance of `505` tokens should be displayed to a user as `5,05` (`505 / 10 ** 2`). Tokens usually opt for a value of 18, imitating the relationship between Ether and Wei. This is the value {ERC20} uses, unless this function is overloaded; NOTE: This information is only used for _display_ purposes: it in no way affects any of the arithmetic of the contract, including {IERC20-balanceOf} and {IERC20-transfer}."
					},
					"decreaseAllowance(address,uint256)": {
						"details": "Atomically decreases the allowance granted to `spender` by the caller. This is an alternative to {approve} that can be used as a mitigation for problems described in {IERC20-approve}. Emits an {Approval} event indicating the updated allowance. Requirements: - `spender` cannot be the zero address. - `spender` must have allowance for the caller of at least `subtractedValue`."
					},
					"increaseAllowance(address,uint256)": {
						"details": "Atomically increases the allowance granted to `spender` by the caller. This is an alternative to {approve} that can be used as a mitigation for problems described in {IERC20-approve}. Emits an {Approval} event indicating the updated allowance. Requirements: - `spender` cannot be the zero address."
					},
					"name()": {
						"details": "Returns the name of the token."
					},
					"owner()": {
						"details": "Returns the address of the current owner."
					},
					"renounceOwnership()": {
						"details": "Leaves the contract without owner. It will not be possible to call `onlyOwner` functions anymore. Can only be called by the current owner. NOTE: Renouncing ownership will leave the contract without an owner, thereby removing any functionality that is only available to the owner."
					},
					"symbol()": {
						"details": "Returns the symbol of the token, usually a shorter version of the name."
					},
					"totalSupply()": {
						"details": "See {IERC20-totalSupply}."
					},
					"transfer(address,uint256)": {
						"details": "See {IERC20-transfer}. Requirements: - `recipient` cannot be the zero address. - the caller must have a balance of at least `amount`."
					},
					"transferFrom(address,address,uint256)": {
						"details": "See {IERC20-transferFrom}. Emits an {Approval} event indicating the updated allowance. This is not required by the EIP. See the note at the beginning of {ERC20}. Requirements: - `sender` and `recipient` cannot be the zero address. - `sender` must have a balance of at least `amount`. - the caller must have allowance for ``sender``'s tokens of at least `amount`."
					},
					"transferOwnership(address)": {
						"details": "Transfers ownership of the contract to a new account (`newOwner`). Can only be called by the current owner."
					}
				},
				"version": 1
			},
			"evm": {
				"assembly": "    /* \"contracts/Distribution/AtlantisDistribution.sol\":206:4667  contract AtlantisDistribution is ERC20, Ownable {... */\n  mstore(0x40, 0x80)\n    /* \"contracts/Distribution/AtlantisDistribution.sol\":900:1340  constructor(string memory name, string memory symbol, address payable _fund_wallet) ERC20(name, symbol) {... */\n  callvalue\n  dup1\n  iszero\n  tag_1\n  jumpi\n  0x00\n  dup1\n  revert\ntag_1:\n  pop\n  mload(0x40)\n  sub(codesize, bytecodeSize)\n  dup1\n  bytecodeSize\n  dup4\n  codecopy\n  dup2\n  dup2\n  add\n  0x40\n  mstore\n  dup2\n  add\n  swap1\n  tag_2\n  swap2\n  swap1\n  tag_3\n  jump\t// in\ntag_2:\n    /* \"contracts/Distribution/AtlantisDistribution.sol\":990:994  name */\n  dup3\n    /* \"contracts/Distribution/AtlantisDistribution.sol\":996:1002  symbol */\n  dup3\n    /* \"contracts/Distribution/WrappedERC20Token.sol\":1953:1958  name_ */\n  dup2\n    /* \"contracts/Distribution/WrappedERC20Token.sol\":1945:1950  _name */\n  0x03\n    /* \"contracts/Distribution/WrappedERC20Token.sol\":1945:1958  _name = name_ */\n  swap1\n  dup1\n  mload\n  swap1\n  0x20\n  add\n  swap1\n  tag_8\n  swap3\n  swap2\n  swap1\n  tag_9\n  jump\t// in\ntag_8:\n  pop\n    /* \"contracts/Distribution/WrappedERC20Token.sol\":1978:1985  symbol_ */\n  dup1\n    /* \"contracts/Distribution/WrappedERC20Token.sol\":1968:1975  _symbol */\n  0x04\n    /* \"contracts/Distribution/WrappedERC20Token.sol\":1968:1985  _symbol = symbol_ */\n  swap1\n  dup1\n  mload\n  swap1\n  0x20\n  add\n  swap1\n  tag_10\n  swap3\n  swap2\n  swap1\n  tag_9\n  jump\t// in\ntag_10:\n  pop\n    /* \"contracts/Distribution/WrappedERC20Token.sol\":1878:1992  constructor (string memory name_, string memory symbol_) {... */\n  pop\n  pop\n    /* \"@openzeppelin/contracts/access/Ownable.sol\":867:890  _setOwner(_msgSender()) */\n  tag_12\n    /* \"@openzeppelin/contracts/access/Ownable.sol\":877:889  _msgSender() */\n  tag_13\n    /* \"@openzeppelin/contracts/access/Ownable.sol\":877:887  _msgSender */\n  shl(0x20, tag_14)\n    /* \"@openzeppelin/contracts/access/Ownable.sol\":877:889  _msgSender() */\n  0x20\n  shr\n  jump\t// in\ntag_13:\n    /* \"@openzeppelin/contracts/access/Ownable.sol\":867:876  _setOwner */\n  shl(0x20, tag_15)\n    /* \"@openzeppelin/contracts/access/Ownable.sol\":867:890  _setOwner(_msgSender()) */\n  0x20\n  shr\n  jump\t// in\ntag_12:\n    /* \"contracts/Distribution/AtlantisDistribution.sol\":1014:1065  _mint(msg.sender, 300000000 * 10**uint(decimals())) */\n  tag_17\n    /* \"contracts/Distribution/AtlantisDistribution.sol\":1020:1030  msg.sender */\n  caller\n    /* \"contracts/Distribution/AtlantisDistribution.sol\":1053:1063  decimals() */\n  tag_18\n    /* \"contracts/Distribution/AtlantisDistribution.sol\":1053:1061  decimals */\n  shl(0x20, tag_19)\n    /* \"contracts/Distribution/AtlantisDistribution.sol\":1053:1063  decimals() */\n  0x20\n  shr\n  jump\t// in\ntag_18:\n    /* \"contracts/Distribution/AtlantisDistribution.sol\":1048:1064  uint(decimals()) */\n  0xff\n  and\n    /* \"contracts/Distribution/AtlantisDistribution.sol\":1044:1046  10 */\n  0x0a\n    /* \"contracts/Distribution/AtlantisDistribution.sol\":1044:1064  10**uint(decimals()) */\n  tag_20\n  swap2\n  swap1\n  tag_21\n  jump\t// in\ntag_20:\n    /* \"contracts/Distribution/AtlantisDistribution.sol\":1032:1041  300000000 */\n  0x11e1a300\n    /* \"contracts/Distribution/AtlantisDistribution.sol\":1032:1064  300000000 * 10**uint(decimals()) */\n  tag_22\n  swap2\n  swap1\n  tag_23\n  jump\t// in\ntag_22:\n    /* \"contracts/Distribution/AtlantisDistribution.sol\":1014:1019  _mint */\n  shl(0x20, tag_24)\n    /* \"contracts/Distribution/AtlantisDistribution.sol\":1014:1065  _mint(msg.sender, 300000000 * 10**uint(decimals())) */\n  0x20\n  shr\n  jump\t// in\ntag_17:\n    /* \"contracts/Distribution/AtlantisDistribution.sol\":1099:1109  decimals() */\n  tag_25\n    /* \"contracts/Distribution/AtlantisDistribution.sol\":1099:1107  decimals */\n  shl(0x20, tag_19)\n    /* \"contracts/Distribution/AtlantisDistribution.sol\":1099:1109  decimals() */\n  0x20\n  shr\n  jump\t// in\ntag_25:\n    /* \"contracts/Distribution/AtlantisDistribution.sol\":1094:1110  uint(decimals()) */\n  0xff\n  and\n    /* \"contracts/Distribution/AtlantisDistribution.sol\":1090:1092  10 */\n  0x0a\n    /* \"contracts/Distribution/AtlantisDistribution.sol\":1090:1110  10**uint(decimals()) */\n  tag_26\n  swap2\n  swap1\n  tag_21\n  jump\t// in\ntag_26:\n    /* \"contracts/Distribution/AtlantisDistribution.sol\":1075:1084  currentBC */\n  0x08\n    /* \"contracts/Distribution/AtlantisDistribution.sol\":1085:1086  0 */\n  0x00\n    /* \"contracts/Distribution/AtlantisDistribution.sol\":1075:1087  currentBC[0] */\n  0x03\n  dup2\n  lt\n  tag_27\n  jumpi\n  tag_28\n  tag_29\n  jump\t// in\ntag_28:\ntag_27:\n  add\n    /* \"contracts/Distribution/AtlantisDistribution.sol\":1075:1110  currentBC[0] = 10**uint(decimals()) */\n  dup2\n  swap1\n  sstore\n  pop\n    /* \"contracts/Distribution/AtlantisDistribution.sol\":1144:1154  decimals() */\n  tag_31\n    /* \"contracts/Distribution/AtlantisDistribution.sol\":1144:1152  decimals */\n  shl(0x20, tag_19)\n    /* \"contracts/Distribution/AtlantisDistribution.sol\":1144:1154  decimals() */\n  0x20\n  shr\n  jump\t// in\ntag_31:\n    /* \"contracts/Distribution/AtlantisDistribution.sol\":1139:1155  uint(decimals()) */\n  0xff\n  and\n    /* \"contracts/Distribution/AtlantisDistribution.sol\":1135:1137  10 */\n  0x0a\n    /* \"contracts/Distribution/AtlantisDistribution.sol\":1135:1155  10**uint(decimals()) */\n  tag_32\n  swap2\n  swap1\n  tag_21\n  jump\t// in\ntag_32:\n    /* \"contracts/Distribution/AtlantisDistribution.sol\":1120:1129  currentBC */\n  0x08\n    /* \"contracts/Distribution/AtlantisDistribution.sol\":1130:1131  1 */\n  0x01\n    /* \"contracts/Distribution/AtlantisDistribution.sol\":1120:1132  currentBC[1] */\n  0x03\n  dup2\n  lt\n  tag_33\n  jumpi\n  tag_34\n  tag_29\n  jump\t// in\ntag_34:\ntag_33:\n  add\n    /* \"contracts/Distribution/AtlantisDistribution.sol\":1120:1155  currentBC[1] = 10**uint(decimals()) */\n  dup2\n  swap1\n  sstore\n  pop\n    /* \"contracts/Distribution/AtlantisDistribution.sol\":1189:1199  decimals() */\n  tag_36\n    /* \"contracts/Distribution/AtlantisDistribution.sol\":1189:1197  decimals */\n  shl(0x20, tag_19)\n    /* \"contracts/Distribution/AtlantisDistribution.sol\":1189:1199  decimals() */\n  0x20\n  shr\n  jump\t// in\ntag_36:\n    /* \"contracts/Distribution/AtlantisDistribution.sol\":1184:1200  uint(decimals()) */\n  0xff\n  and\n    /* \"contracts/Distribution/AtlantisDistribution.sol\":1180:1182  10 */\n  0x0a\n    /* \"contracts/Distribution/AtlantisDistribution.sol\":1180:1200  10**uint(decimals()) */\n  tag_37\n  swap2\n  swap1\n  tag_21\n  jump\t// in\ntag_37:\n    /* \"contracts/Distribution/AtlantisDistribution.sol\":1165:1174  currentBC */\n  0x08\n    /* \"contracts/Distribution/AtlantisDistribution.sol\":1175:1176  2 */\n  0x02\n    /* \"contracts/Distribution/AtlantisDistribution.sol\":1165:1177  currentBC[2] */\n  0x03\n  dup2\n  lt\n  tag_38\n  jumpi\n  tag_39\n  tag_29\n  jump\t// in\ntag_39:\ntag_38:\n  add\n    /* \"contracts/Distribution/AtlantisDistribution.sol\":1165:1200  currentBC[2] = 10**uint(decimals()) */\n  dup2\n  swap1\n  sstore\n  pop\n    /* \"contracts/Distribution/AtlantisDistribution.sol\":1242:1252  decimals() */\n  tag_41\n    /* \"contracts/Distribution/AtlantisDistribution.sol\":1242:1250  decimals */\n  shl(0x20, tag_19)\n    /* \"contracts/Distribution/AtlantisDistribution.sol\":1242:1252  decimals() */\n  0x20\n  shr\n  jump\t// in\ntag_41:\n    /* \"contracts/Distribution/AtlantisDistribution.sol\":1237:1253  uint(decimals()) */\n  0xff\n  and\n    /* \"contracts/Distribution/AtlantisDistribution.sol\":1233:1235  10 */\n  0x0a\n    /* \"contracts/Distribution/AtlantisDistribution.sol\":1233:1253  10**uint(decimals()) */\n  tag_42\n  swap2\n  swap1\n  tag_21\n  jump\t// in\ntag_42:\n    /* \"contracts/Distribution/AtlantisDistribution.sol\":1221:1230  300000000 */\n  0x11e1a300\n    /* \"contracts/Distribution/AtlantisDistribution.sol\":1221:1253  300000000 * 10**uint(decimals()) */\n  tag_43\n  swap2\n  swap1\n  tag_23\n  jump\t// in\ntag_43:\n    /* \"contracts/Distribution/AtlantisDistribution.sol\":1210:1215  total */\n  0x0b\n    /* \"contracts/Distribution/AtlantisDistribution.sol\":1216:1217  0 */\n  0x00\n    /* \"contracts/Distribution/AtlantisDistribution.sol\":1210:1218  total[0] */\n  0x03\n  dup2\n  lt\n  tag_44\n  jumpi\n  tag_45\n  tag_29\n  jump\t// in\ntag_45:\ntag_44:\n  add\n    /* \"contracts/Distribution/AtlantisDistribution.sol\":1210:1253  total[0] = 300000000 * 10**uint(decimals()) */\n  dup2\n  swap1\n  sstore\n  pop\n    /* \"contracts/Distribution/AtlantisDistribution.sol\":1274:1275  0 */\n  0x00\n    /* \"contracts/Distribution/AtlantisDistribution.sol\":1263:1268  total */\n  0x0b\n    /* \"contracts/Distribution/AtlantisDistribution.sol\":1269:1270  1 */\n  0x01\n    /* \"contracts/Distribution/AtlantisDistribution.sol\":1263:1271  total[1] */\n  0x03\n  dup2\n  lt\n  tag_47\n  jumpi\n  tag_48\n  tag_29\n  jump\t// in\ntag_48:\ntag_47:\n  add\n    /* \"contracts/Distribution/AtlantisDistribution.sol\":1263:1275  total[1] = 0 */\n  dup2\n  swap1\n  sstore\n  pop\n    /* \"contracts/Distribution/AtlantisDistribution.sol\":1296:1297  0 */\n  0x00\n    /* \"contracts/Distribution/AtlantisDistribution.sol\":1285:1290  total */\n  0x0b\n    /* \"contracts/Distribution/AtlantisDistribution.sol\":1291:1292  2 */\n  0x02\n    /* \"contracts/Distribution/AtlantisDistribution.sol\":1285:1293  total[2] */\n  0x03\n  dup2\n  lt\n  tag_50\n  jumpi\n  tag_51\n  tag_29\n  jump\t// in\ntag_51:\ntag_50:\n  add\n    /* \"contracts/Distribution/AtlantisDistribution.sol\":1285:1297  total[2] = 0 */\n  dup2\n  swap1\n  sstore\n  pop\n    /* \"contracts/Distribution/AtlantisDistribution.sol\":1321:1333  _fund_wallet */\n  dup1\n    /* \"contracts/Distribution/AtlantisDistribution.sol\":1307:1318  fund_wallet */\n  0x0e\n  0x00\n    /* \"contracts/Distribution/AtlantisDistribution.sol\":1307:1333  fund_wallet = _fund_wallet */\n  0x0100\n  exp\n  dup2\n  sload\n  dup2\n  0xffffffffffffffffffffffffffffffffffffffff\n  mul\n  not\n  and\n  swap1\n  dup4\n  0xffffffffffffffffffffffffffffffffffffffff\n  and\n  mul\n  or\n  swap1\n  sstore\n  pop\n    /* \"contracts/Distribution/AtlantisDistribution.sol\":900:1340  constructor(string memory name, string memory symbol, address payable _fund_wallet) ERC20(name, symbol) {... */\n  pop\n  pop\n  pop\n    /* \"contracts/Distribution/AtlantisDistribution.sol\":206:4667  contract AtlantisDistribution is ERC20, Ownable {... */\n  jump(tag_53)\n    /* \"@openzeppelin/contracts/utils/Context.sol\":587:683  function _msgSender() internal view virtual returns (address) {... */\ntag_14:\n    /* \"@openzeppelin/contracts/utils/Context.sol\":640:647  address */\n  0x00\n    /* \"@openzeppelin/contracts/utils/Context.sol\":666:676  msg.sender */\n  caller\n    /* \"@openzeppelin/contracts/utils/Context.sol\":659:676  return msg.sender */\n  swap1\n  pop\n    /* \"@openzeppelin/contracts/utils/Context.sol\":587:683  function _msgSender() internal view virtual returns (address) {... */\n  swap1\n  jump\t// out\n    /* \"@openzeppelin/contracts/access/Ownable.sol\":2041:2210  function _setOwner(address newOwner) private {... */\ntag_15:\n    /* \"@openzeppelin/contracts/access/Ownable.sol\":2096:2112  address oldOwner */\n  0x00\n    /* \"@openzeppelin/contracts/access/Ownable.sol\":2115:2121  _owner */\n  0x05\n  0x00\n  swap1\n  sload\n  swap1\n  0x0100\n  exp\n  swap1\n  div\n  0xffffffffffffffffffffffffffffffffffffffff\n  and\n    /* \"@openzeppelin/contracts/access/Ownable.sol\":2096:2121  address oldOwner = _owner */\n  swap1\n  pop\n    /* \"@openzeppelin/contracts/access/Ownable.sol\":2140:2148  newOwner */\n  dup2\n    /* \"@openzeppelin/contracts/access/Ownable.sol\":2131:2137  _owner */\n  0x05\n  0x00\n    /* \"@openzeppelin/contracts/access/Ownable.sol\":2131:2148  _owner = newOwner */\n  0x0100\n  exp\n  dup2\n  sload\n  dup2\n  0xffffffffffffffffffffffffffffffffffffffff\n  mul\n  not\n  and\n  swap1\n  dup4\n  0xffffffffffffffffffffffffffffffffffffffff\n  and\n  mul\n  or\n  swap1\n  sstore\n  pop\n    /* \"@openzeppelin/contracts/access/Ownable.sol\":2194:2202  newOwner */\n  dup2\n    /* \"@openzeppelin/contracts/access/Ownable.sol\":2163:2203  OwnershipTransferred(oldOwner, newOwner) */\n  0xffffffffffffffffffffffffffffffffffffffff\n  and\n    /* \"@openzeppelin/contracts/access/Ownable.sol\":2184:2192  oldOwner */\n  dup2\n    /* \"@openzeppelin/contracts/access/Ownable.sol\":2163:2203  OwnershipTransferred(oldOwner, newOwner) */\n  0xffffffffffffffffffffffffffffffffffffffff\n  and\n  0x8be0079c531659141344cd1fd0a4f28419497f9722a3daafe3b4186f6b6457e0\n  mload(0x40)\n  mload(0x40)\n  dup1\n  swap2\n  sub\n  swap1\n  log3\n    /* \"@openzeppelin/contracts/access/Ownable.sol\":2086:2210  {... */\n  pop\n    /* \"@openzeppelin/contracts/access/Ownable.sol\":2041:2210  function _setOwner(address newOwner) private {... */\n  pop\n  jump\t// out\n    /* \"contracts/Distribution/WrappedERC20Token.sol\":2976:3058  function decimals() public view virtual returns (uint8) {... */\ntag_19:\n    /* \"contracts/Distribution/WrappedERC20Token.sol\":3025:3030  uint8 */\n  0x00\n    /* \"contracts/Distribution/WrappedERC20Token.sol\":3049:3051  18 */\n  0x12\n    /* \"contracts/Distribution/WrappedERC20Token.sol\":3042:3051  return 18 */\n  swap1\n  pop\n    /* \"contracts/Distribution/WrappedERC20Token.sol\":2976:3058  function decimals() public view virtual returns (uint8) {... */\n  swap1\n  jump\t// out\n    /* \"contracts/Distribution/WrappedERC20Token.sol\":7976:8306  function _mint(address account, uint256 amount) internal virtual {... */\ntag_24:\n    /* \"contracts/Distribution/WrappedERC20Token.sol\":8078:8079  0 */\n  0x00\n    /* \"contracts/Distribution/WrappedERC20Token.sol\":8059:8080  account != address(0) */\n  0xffffffffffffffffffffffffffffffffffffffff\n  and\n    /* \"contracts/Distribution/WrappedERC20Token.sol\":8059:8066  account */\n  dup3\n    /* \"contracts/Distribution/WrappedERC20Token.sol\":8059:8080  account != address(0) */\n  0xffffffffffffffffffffffffffffffffffffffff\n  and\n  sub\n    /* \"contracts/Distribution/WrappedERC20Token.sol\":8051:8116  require(account != address(0), \"ERC20: mint to the zero address\") */\n  tag_58\n  jumpi\n  mload(0x40)\n  0x08c379a000000000000000000000000000000000000000000000000000000000\n  dup2\n  mstore\n  0x04\n  add\n  tag_59\n  swap1\n  tag_60\n  jump\t// in\ntag_59:\n  mload(0x40)\n  dup1\n  swap2\n  sub\n  swap1\n  revert\ntag_58:\n    /* \"contracts/Distribution/WrappedERC20Token.sol\":8127:8176  _beforeTokenTransfer(address(0), account, amount) */\n  tag_61\n    /* \"contracts/Distribution/WrappedERC20Token.sol\":8156:8157  0 */\n  0x00\n    /* \"contracts/Distribution/WrappedERC20Token.sol\":8160:8167  account */\n  dup4\n    /* \"contracts/Distribution/WrappedERC20Token.sol\":8169:8175  amount */\n  dup4\n    /* \"contracts/Distribution/WrappedERC20Token.sol\":8127:8147  _beforeTokenTransfer */\n  shl(0x20, tag_62)\n    /* \"contracts/Distribution/WrappedERC20Token.sol\":8127:8176  _beforeTokenTransfer(address(0), account, amount) */\n  0x20\n  shr\n  jump\t// in\ntag_61:\n    /* \"contracts/Distribution/WrappedERC20Token.sol\":8203:8209  amount */\n  dup1\n    /* \"contracts/Distribution/WrappedERC20Token.sol\":8187:8199  _totalSupply */\n  0x02\n  0x00\n    /* \"contracts/Distribution/WrappedERC20Token.sol\":8187:8209  _totalSupply += amount */\n  dup3\n  dup3\n  sload\n  tag_63\n  swap2\n  swap1\n  tag_64\n  jump\t// in\ntag_63:\n  swap3\n  pop\n  pop\n  dup2\n  swap1\n  sstore\n  pop\n    /* \"contracts/Distribution/WrappedERC20Token.sol\":8241:8247  amount */\n  dup1\n    /* \"contracts/Distribution/WrappedERC20Token.sol\":8219:8228  _balances */\n  0x00\n    /* \"contracts/Distribution/WrappedERC20Token.sol\":8219:8237  _balances[account] */\n  dup1\n    /* \"contracts/Distribution/WrappedERC20Token.sol\":8229:8236  account */\n  dup5\n    /* \"contracts/Distribution/WrappedERC20Token.sol\":8219:8237  _balances[account] */\n  0xffffffffffffffffffffffffffffffffffffffff\n  and\n  0xffffffffffffffffffffffffffffffffffffffff\n  and\n  dup2\n  mstore\n  0x20\n  add\n  swap1\n  dup2\n  mstore\n  0x20\n  add\n  0x00\n  keccak256\n  0x00\n    /* \"contracts/Distribution/WrappedERC20Token.sol\":8219:8247  _balances[account] += amount */\n  dup3\n  dup3\n  sload\n  tag_65\n  swap2\n  swap1\n  tag_64\n  jump\t// in\ntag_65:\n  swap3\n  pop\n  pop\n  dup2\n  swap1\n  sstore\n  pop\n    /* \"contracts/Distribution/WrappedERC20Token.sol\":8283:8290  account */\n  dup2\n    /* \"contracts/Distribution/WrappedERC20Token.sol\":8262:8299  Transfer(address(0), account, amount) */\n  0xffffffffffffffffffffffffffffffffffffffff\n  and\n    /* \"contracts/Distribution/WrappedERC20Token.sol\":8279:8280  0 */\n  0x00\n    /* \"contracts/Distribution/WrappedERC20Token.sol\":8262:8299  Transfer(address(0), account, amount) */\n  0xffffffffffffffffffffffffffffffffffffffff\n  and\n  0xddf252ad1be2c89b69c2b068fc378daa952ba7f163c4a11628f55a4df523b3ef\n    /* \"contracts/Distribution/WrappedERC20Token.sol\":8292:8298  amount */\n  dup4\n    /* \"contracts/Distribution/WrappedERC20Token.sol\":8262:8299  Transfer(address(0), account, amount) */\n  mload(0x40)\n  tag_66\n  swap2\n  swap1\n  tag_67\n  jump\t// in\ntag_66:\n  mload(0x40)\n  dup1\n  swap2\n  sub\n  swap1\n  log3\n    /* \"contracts/Distribution/WrappedERC20Token.sol\":7976:8306  function _mint(address account, uint256 amount) internal virtual {... */\n  pop\n  pop\n  jump\t// out\n    /* \"contracts/Distribution/WrappedERC20Token.sol\":10459:10551  function _beforeTokenTransfer(address from, address to, uint256 amount) internal virtual { } */\ntag_62:\n  pop\n  pop\n  pop\n  jump\t// out\n    /* \"contracts/Distribution/AtlantisDistribution.sol\":206:4667  contract AtlantisDistribution is ERC20, Ownable {... */\ntag_9:\n  dup3\n  dup1\n  sload\n  tag_69\n  swap1\n  tag_70\n  jump\t// in\ntag_69:\n  swap1\n  0x00\n  mstore\n  keccak256(0x00, 0x20)\n  swap1\n  0x1f\n  add\n  0x20\n  swap1\n  div\n  dup2\n  add\n  swap3\n  dup3\n  tag_72\n  jumpi\n  0x00\n  dup6\n  sstore\n  jump(tag_71)\ntag_72:\n  dup3\n  0x1f\n  lt\n  tag_73\n  jumpi\n  dup1\n  mload\n  not(0xff)\n  and\n  dup4\n  dup1\n  add\n  or\n  dup6\n  sstore\n  jump(tag_71)\ntag_73:\n  dup3\n  dup1\n  add\n  0x01\n  add\n  dup6\n  sstore\n  dup3\n  iszero\n  tag_71\n  jumpi\n  swap2\n  dup3\n  add\ntag_74:\n  dup3\n  dup2\n  gt\n  iszero\n  tag_75\n  jumpi\n  dup3\n  mload\n  dup3\n  sstore\n  swap2\n  0x20\n  add\n  swap2\n  swap1\n  0x01\n  add\n  swap1\n  jump(tag_74)\ntag_75:\ntag_71:\n  pop\n  swap1\n  pop\n  tag_76\n  swap2\n  swap1\n  tag_77\n  jump\t// in\ntag_76:\n  pop\n  swap1\n  jump\t// out\ntag_77:\ntag_78:\n  dup1\n  dup3\n  gt\n  iszero\n  tag_79\n  jumpi\n  0x00\n  dup2\n  0x00\n  swap1\n  sstore\n  pop\n  0x01\n  add\n  jump(tag_78)\ntag_79:\n  pop\n  swap1\n  jump\t// out\n    /* \"#utility.yul\":7:82   */\ntag_80:\n    /* \"#utility.yul\":40:46   */\n  0x00\n    /* \"#utility.yul\":73:75   */\n  0x40\n    /* \"#utility.yul\":67:76   */\n  mload\n    /* \"#utility.yul\":57:76   */\n  swap1\n  pop\n    /* \"#utility.yul\":7:82   */\n  swap1\n  jump\t// out\n    /* \"#utility.yul\":88:205   */\ntag_81:\n    /* \"#utility.yul\":197:198   */\n  0x00\n    /* \"#utility.yul\":194:195   */\n  dup1\n    /* \"#utility.yul\":187:199   */\n  revert\n    /* \"#utility.yul\":211:328   */\ntag_82:\n    /* \"#utility.yul\":320:321   */\n  0x00\n    /* \"#utility.yul\":317:318   */\n  dup1\n    /* \"#utility.yul\":310:322   */\n  revert\n    /* \"#utility.yul\":334:451   */\ntag_83:\n    /* \"#utility.yul\":443:444   */\n  0x00\n    /* \"#utility.yul\":440:441   */\n  dup1\n    /* \"#utility.yul\":433:445   */\n  revert\n    /* \"#utility.yul\":457:574   */\ntag_84:\n    /* \"#utility.yul\":566:567   */\n  0x00\n    /* \"#utility.yul\":563:564   */\n  dup1\n    /* \"#utility.yul\":556:568   */\n  revert\n    /* \"#utility.yul\":580:682   */\ntag_85:\n    /* \"#utility.yul\":621:627   */\n  0x00\n    /* \"#utility.yul\":672:674   */\n  0x1f\n    /* \"#utility.yul\":668:675   */\n  not\n    /* \"#utility.yul\":663:665   */\n  0x1f\n    /* \"#utility.yul\":656:661   */\n  dup4\n    /* \"#utility.yul\":652:666   */\n  add\n    /* \"#utility.yul\":648:676   */\n  and\n    /* \"#utility.yul\":638:676   */\n  swap1\n  pop\n    /* \"#utility.yul\":580:682   */\n  swap2\n  swap1\n  pop\n  jump\t// out\n    /* \"#utility.yul\":688:868   */\ntag_86:\n    /* \"#utility.yul\":736:813   */\n  0x4e487b7100000000000000000000000000000000000000000000000000000000\n    /* \"#utility.yul\":733:734   */\n  0x00\n    /* \"#utility.yul\":726:814   */\n  mstore\n    /* \"#utility.yul\":833:837   */\n  0x41\n    /* \"#utility.yul\":830:831   */\n  0x04\n    /* \"#utility.yul\":823:838   */\n  mstore\n    /* \"#utility.yul\":857:861   */\n  0x24\n    /* \"#utility.yul\":854:855   */\n  0x00\n    /* \"#utility.yul\":847:862   */\n  revert\n    /* \"#utility.yul\":874:1155   */\ntag_87:\n    /* \"#utility.yul\":957:984   */\n  tag_116\n    /* \"#utility.yul\":979:983   */\n  dup3\n    /* \"#utility.yul\":957:984   */\n  tag_85\n  jump\t// in\ntag_116:\n    /* \"#utility.yul\":949:955   */\n  dup2\n    /* \"#utility.yul\":945:985   */\n  add\n    /* \"#utility.yul\":1087:1093   */\n  dup2\n    /* \"#utility.yul\":1075:1085   */\n  dup2\n    /* \"#utility.yul\":1072:1094   */\n  lt\n    /* \"#utility.yul\":1051:1069   */\n  0xffffffffffffffff\n    /* \"#utility.yul\":1039:1049   */\n  dup3\n    /* \"#utility.yul\":1036:1070   */\n  gt\n    /* \"#utility.yul\":1033:1095   */\n  or\n    /* \"#utility.yul\":1030:1118   */\n  iszero\n  tag_117\n  jumpi\n    /* \"#utility.yul\":1098:1116   */\n  tag_118\n  tag_86\n  jump\t// in\ntag_118:\n    /* \"#utility.yul\":1030:1118   */\ntag_117:\n    /* \"#utility.yul\":1138:1148   */\n  dup1\n    /* \"#utility.yul\":1134:1136   */\n  0x40\n    /* \"#utility.yul\":1127:1149   */\n  mstore\n    /* \"#utility.yul\":917:1155   */\n  pop\n    /* \"#utility.yul\":874:1155   */\n  pop\n  pop\n  jump\t// out\n    /* \"#utility.yul\":1161:1290   */\ntag_88:\n    /* \"#utility.yul\":1195:1201   */\n  0x00\n    /* \"#utility.yul\":1222:1242   */\n  tag_120\n  tag_80\n  jump\t// in\ntag_120:\n    /* \"#utility.yul\":1212:1242   */\n  swap1\n  pop\n    /* \"#utility.yul\":1251:1284   */\n  tag_121\n    /* \"#utility.yul\":1279:1283   */\n  dup3\n    /* \"#utility.yul\":1271:1277   */\n  dup3\n    /* \"#utility.yul\":1251:1284   */\n  tag_87\n  jump\t// in\ntag_121:\n    /* \"#utility.yul\":1161:1290   */\n  swap2\n  swap1\n  pop\n  jump\t// out\n    /* \"#utility.yul\":1296:1604   */\ntag_89:\n    /* \"#utility.yul\":1358:1362   */\n  0x00\n    /* \"#utility.yul\":1448:1466   */\n  0xffffffffffffffff\n    /* \"#utility.yul\":1440:1446   */\n  dup3\n    /* \"#utility.yul\":1437:1467   */\n  gt\n    /* \"#utility.yul\":1434:1490   */\n  iszero\n  tag_123\n  jumpi\n    /* \"#utility.yul\":1470:1488   */\n  tag_124\n  tag_86\n  jump\t// in\ntag_124:\n    /* \"#utility.yul\":1434:1490   */\ntag_123:\n    /* \"#utility.yul\":1508:1537   */\n  tag_125\n    /* \"#utility.yul\":1530:1536   */\n  dup3\n    /* \"#utility.yul\":1508:1537   */\n  tag_85\n  jump\t// in\ntag_125:\n    /* \"#utility.yul\":1500:1537   */\n  swap1\n  pop\n    /* \"#utility.yul\":1592:1596   */\n  0x20\n    /* \"#utility.yul\":1586:1590   */\n  dup2\n    /* \"#utility.yul\":1582:1597   */\n  add\n    /* \"#utility.yul\":1574:1597   */\n  swap1\n  pop\n    /* \"#utility.yul\":1296:1604   */\n  swap2\n  swap1\n  pop\n  jump\t// out\n    /* \"#utility.yul\":1610:1917   */\ntag_90:\n    /* \"#utility.yul\":1678:1679   */\n  0x00\n    /* \"#utility.yul\":1688:1801   */\ntag_127:\n    /* \"#utility.yul\":1702:1708   */\n  dup4\n    /* \"#utility.yul\":1699:1700   */\n  dup2\n    /* \"#utility.yul\":1696:1709   */\n  lt\n    /* \"#utility.yul\":1688:1801   */\n  iszero\n  tag_129\n  jumpi\n    /* \"#utility.yul\":1787:1788   */\n  dup1\n    /* \"#utility.yul\":1782:1785   */\n  dup3\n    /* \"#utility.yul\":1778:1789   */\n  add\n    /* \"#utility.yul\":1772:1790   */\n  mload\n    /* \"#utility.yul\":1768:1769   */\n  dup2\n    /* \"#utility.yul\":1763:1766   */\n  dup5\n    /* \"#utility.yul\":1759:1770   */\n  add\n    /* \"#utility.yul\":1752:1791   */\n  mstore\n    /* \"#utility.yul\":1724:1726   */\n  0x20\n    /* \"#utility.yul\":1721:1722   */\n  dup2\n    /* \"#utility.yul\":1717:1727   */\n  add\n    /* \"#utility.yul\":1712:1727   */\n  swap1\n  pop\n    /* \"#utility.yul\":1688:1801   */\n  jump(tag_127)\ntag_129:\n    /* \"#utility.yul\":1819:1825   */\n  dup4\n    /* \"#utility.yul\":1816:1817   */\n  dup2\n    /* \"#utility.yul\":1813:1826   */\n  gt\n    /* \"#utility.yul\":1810:1911   */\n  iszero\n  tag_130\n  jumpi\n    /* \"#utility.yul\":1899:1900   */\n  0x00\n    /* \"#utility.yul\":1890:1896   */\n  dup5\n    /* \"#utility.yul\":1885:1888   */\n  dup5\n    /* \"#utility.yul\":1881:1897   */\n  add\n    /* \"#utility.yul\":1874:1901   */\n  mstore\n    /* \"#utility.yul\":1810:1911   */\ntag_130:\n    /* \"#utility.yul\":1659:1917   */\n  pop\n    /* \"#utility.yul\":1610:1917   */\n  pop\n  pop\n  pop\n  jump\t// out\n    /* \"#utility.yul\":1923:2344   */\ntag_91:\n    /* \"#utility.yul\":2012:2017   */\n  0x00\n    /* \"#utility.yul\":2037:2103   */\n  tag_132\n    /* \"#utility.yul\":2053:2102   */\n  tag_133\n    /* \"#utility.yul\":2095:2101   */\n  dup5\n    /* \"#utility.yul\":2053:2102   */\n  tag_89\n  jump\t// in\ntag_133:\n    /* \"#utility.yul\":2037:2103   */\n  tag_88\n  jump\t// in\ntag_132:\n    /* \"#utility.yul\":2028:2103   */\n  swap1\n  pop\n    /* \"#utility.yul\":2126:2132   */\n  dup3\n    /* \"#utility.yul\":2119:2124   */\n  dup2\n    /* \"#utility.yul\":2112:2133   */\n  mstore\n    /* \"#utility.yul\":2164:2168   */\n  0x20\n    /* \"#utility.yul\":2157:2162   */\n  dup2\n    /* \"#utility.yul\":2153:2169   */\n  add\n    /* \"#utility.yul\":2202:2205   */\n  dup5\n    /* \"#utility.yul\":2193:2199   */\n  dup5\n    /* \"#utility.yul\":2188:2191   */\n  dup5\n    /* \"#utility.yul\":2184:2200   */\n  add\n    /* \"#utility.yul\":2181:2206   */\n  gt\n    /* \"#utility.yul\":2178:2290   */\n  iszero\n  tag_134\n  jumpi\n    /* \"#utility.yul\":2209:2288   */\n  tag_135\n  tag_84\n  jump\t// in\ntag_135:\n    /* \"#utility.yul\":2178:2290   */\ntag_134:\n    /* \"#utility.yul\":2299:2338   */\n  tag_136\n    /* \"#utility.yul\":2331:2337   */\n  dup5\n    /* \"#utility.yul\":2326:2329   */\n  dup3\n    /* \"#utility.yul\":2321:2324   */\n  dup6\n    /* \"#utility.yul\":2299:2338   */\n  tag_90\n  jump\t// in\ntag_136:\n    /* \"#utility.yul\":2018:2344   */\n  pop\n    /* \"#utility.yul\":1923:2344   */\n  swap4\n  swap3\n  pop\n  pop\n  pop\n  jump\t// out\n    /* \"#utility.yul\":2364:2719   */\ntag_92:\n    /* \"#utility.yul\":2431:2436   */\n  0x00\n    /* \"#utility.yul\":2480:2483   */\n  dup3\n    /* \"#utility.yul\":2473:2477   */\n  0x1f\n    /* \"#utility.yul\":2465:2471   */\n  dup4\n    /* \"#utility.yul\":2461:2478   */\n  add\n    /* \"#utility.yul\":2457:2484   */\n  slt\n    /* \"#utility.yul\":2447:2569   */\n  tag_138\n  jumpi\n    /* \"#utility.yul\":2488:2567   */\n  tag_139\n  tag_83\n  jump\t// in\ntag_139:\n    /* \"#utility.yul\":2447:2569   */\ntag_138:\n    /* \"#utility.yul\":2598:2604   */\n  dup2\n    /* \"#utility.yul\":2592:2605   */\n  mload\n    /* \"#utility.yul\":2623:2713   */\n  tag_140\n    /* \"#utility.yul\":2709:2712   */\n  dup5\n    /* \"#utility.yul\":2701:2707   */\n  dup3\n    /* \"#utility.yul\":2694:2698   */\n  0x20\n    /* \"#utility.yul\":2686:2692   */\n  dup7\n    /* \"#utility.yul\":2682:2699   */\n  add\n    /* \"#utility.yul\":2623:2713   */\n  tag_91\n  jump\t// in\ntag_140:\n    /* \"#utility.yul\":2614:2713   */\n  swap2\n  pop\n    /* \"#utility.yul\":2437:2719   */\n  pop\n    /* \"#utility.yul\":2364:2719   */\n  swap3\n  swap2\n  pop\n  pop\n  jump\t// out\n    /* \"#utility.yul\":2725:2851   */\ntag_93:\n    /* \"#utility.yul\":2762:2769   */\n  0x00\n    /* \"#utility.yul\":2802:2844   */\n  0xffffffffffffffffffffffffffffffffffffffff\n    /* \"#utility.yul\":2795:2800   */\n  dup3\n    /* \"#utility.yul\":2791:2845   */\n  and\n    /* \"#utility.yul\":2780:2845   */\n  swap1\n  pop\n    /* \"#utility.yul\":2725:2851   */\n  swap2\n  swap1\n  pop\n  jump\t// out\n    /* \"#utility.yul\":2857:2961   */\ntag_94:\n    /* \"#utility.yul\":2902:2909   */\n  0x00\n    /* \"#utility.yul\":2931:2955   */\n  tag_143\n    /* \"#utility.yul\":2949:2954   */\n  dup3\n    /* \"#utility.yul\":2931:2955   */\n  tag_93\n  jump\t// in\ntag_143:\n    /* \"#utility.yul\":2920:2955   */\n  swap1\n  pop\n    /* \"#utility.yul\":2857:2961   */\n  swap2\n  swap1\n  pop\n  jump\t// out\n    /* \"#utility.yul\":2967:3105   */\ntag_95:\n    /* \"#utility.yul\":3048:3080   */\n  tag_145\n    /* \"#utility.yul\":3074:3079   */\n  dup2\n    /* \"#utility.yul\":3048:3080   */\n  tag_94\n  jump\t// in\ntag_145:\n    /* \"#utility.yul\":3041:3046   */\n  dup2\n    /* \"#utility.yul\":3038:3081   */\n  eq\n    /* \"#utility.yul\":3028:3099   */\n  tag_146\n  jumpi\n    /* \"#utility.yul\":3095:3096   */\n  0x00\n    /* \"#utility.yul\":3092:3093   */\n  dup1\n    /* \"#utility.yul\":3085:3097   */\n  revert\n    /* \"#utility.yul\":3028:3099   */\ntag_146:\n    /* \"#utility.yul\":2967:3105   */\n  pop\n  jump\t// out\n    /* \"#utility.yul\":3111:3270   */\ntag_96:\n    /* \"#utility.yul\":3176:3181   */\n  0x00\n    /* \"#utility.yul\":3207:3213   */\n  dup2\n    /* \"#utility.yul\":3201:3214   */\n  mload\n    /* \"#utility.yul\":3192:3214   */\n  swap1\n  pop\n    /* \"#utility.yul\":3223:3264   */\n  tag_148\n    /* \"#utility.yul\":3258:3263   */\n  dup2\n    /* \"#utility.yul\":3223:3264   */\n  tag_95\n  jump\t// in\ntag_148:\n    /* \"#utility.yul\":3111:3270   */\n  swap3\n  swap2\n  pop\n  pop\n  jump\t// out\n    /* \"#utility.yul\":3276:4301   */\ntag_3:\n    /* \"#utility.yul\":3392:3398   */\n  0x00\n    /* \"#utility.yul\":3400:3406   */\n  dup1\n    /* \"#utility.yul\":3408:3414   */\n  0x00\n    /* \"#utility.yul\":3457:3459   */\n  0x60\n    /* \"#utility.yul\":3445:3454   */\n  dup5\n    /* \"#utility.yul\":3436:3443   */\n  dup7\n    /* \"#utility.yul\":3432:3455   */\n  sub\n    /* \"#utility.yul\":3428:3460   */\n  slt\n    /* \"#utility.yul\":3425:3544   */\n  iszero\n  tag_150\n  jumpi\n    /* \"#utility.yul\":3463:3542   */\n  tag_151\n  tag_81\n  jump\t// in\ntag_151:\n    /* \"#utility.yul\":3425:3544   */\ntag_150:\n    /* \"#utility.yul\":3604:3605   */\n  0x00\n    /* \"#utility.yul\":3593:3602   */\n  dup5\n    /* \"#utility.yul\":3589:3606   */\n  add\n    /* \"#utility.yul\":3583:3607   */\n  mload\n    /* \"#utility.yul\":3634:3652   */\n  0xffffffffffffffff\n    /* \"#utility.yul\":3626:3632   */\n  dup2\n    /* \"#utility.yul\":3623:3653   */\n  gt\n    /* \"#utility.yul\":3620:3737   */\n  iszero\n  tag_152\n  jumpi\n    /* \"#utility.yul\":3656:3735   */\n  tag_153\n  tag_82\n  jump\t// in\ntag_153:\n    /* \"#utility.yul\":3620:3737   */\ntag_152:\n    /* \"#utility.yul\":3761:3835   */\n  tag_154\n    /* \"#utility.yul\":3827:3834   */\n  dup7\n    /* \"#utility.yul\":3818:3824   */\n  dup3\n    /* \"#utility.yul\":3807:3816   */\n  dup8\n    /* \"#utility.yul\":3803:3825   */\n  add\n    /* \"#utility.yul\":3761:3835   */\n  tag_92\n  jump\t// in\ntag_154:\n    /* \"#utility.yul\":3751:3835   */\n  swap4\n  pop\n    /* \"#utility.yul\":3554:3845   */\n  pop\n    /* \"#utility.yul\":3905:3907   */\n  0x20\n    /* \"#utility.yul\":3894:3903   */\n  dup5\n    /* \"#utility.yul\":3890:3908   */\n  add\n    /* \"#utility.yul\":3884:3909   */\n  mload\n    /* \"#utility.yul\":3936:3954   */\n  0xffffffffffffffff\n    /* \"#utility.yul\":3928:3934   */\n  dup2\n    /* \"#utility.yul\":3925:3955   */\n  gt\n    /* \"#utility.yul\":3922:4039   */\n  iszero\n  tag_155\n  jumpi\n    /* \"#utility.yul\":3958:4037   */\n  tag_156\n  tag_82\n  jump\t// in\ntag_156:\n    /* \"#utility.yul\":3922:4039   */\ntag_155:\n    /* \"#utility.yul\":4063:4137   */\n  tag_157\n    /* \"#utility.yul\":4129:4136   */\n  dup7\n    /* \"#utility.yul\":4120:4126   */\n  dup3\n    /* \"#utility.yul\":4109:4118   */\n  dup8\n    /* \"#utility.yul\":4105:4127   */\n  add\n    /* \"#utility.yul\":4063:4137   */\n  tag_92\n  jump\t// in\ntag_157:\n    /* \"#utility.yul\":4053:4137   */\n  swap3\n  pop\n    /* \"#utility.yul\":3855:4147   */\n  pop\n    /* \"#utility.yul\":4186:4188   */\n  0x40\n    /* \"#utility.yul\":4212:4284   */\n  tag_158\n    /* \"#utility.yul\":4276:4283   */\n  dup7\n    /* \"#utility.yul\":4267:4273   */\n  dup3\n    /* \"#utility.yul\":4256:4265   */\n  dup8\n    /* \"#utility.yul\":4252:4274   */\n  add\n    /* \"#utility.yul\":4212:4284   */\n  tag_96\n  jump\t// in\ntag_158:\n    /* \"#utility.yul\":4202:4284   */\n  swap2\n  pop\n    /* \"#utility.yul\":4157:4294   */\n  pop\n    /* \"#utility.yul\":3276:4301   */\n  swap3\n  pop\n  swap3\n  pop\n  swap3\n  jump\t// out\n    /* \"#utility.yul\":4307:4487   */\ntag_97:\n    /* \"#utility.yul\":4355:4432   */\n  0x4e487b7100000000000000000000000000000000000000000000000000000000\n    /* \"#utility.yul\":4352:4353   */\n  0x00\n    /* \"#utility.yul\":4345:4433   */\n  mstore\n    /* \"#utility.yul\":4452:4456   */\n  0x11\n    /* \"#utility.yul\":4449:4450   */\n  0x04\n    /* \"#utility.yul\":4442:4457   */\n  mstore\n    /* \"#utility.yul\":4476:4480   */\n  0x24\n    /* \"#utility.yul\":4473:4474   */\n  0x00\n    /* \"#utility.yul\":4466:4481   */\n  revert\n    /* \"#utility.yul\":4493:4595   */\ntag_98:\n    /* \"#utility.yul\":4535:4543   */\n  0x00\n    /* \"#utility.yul\":4582:4587   */\n  dup2\n    /* \"#utility.yul\":4579:4580   */\n  0x01\n    /* \"#utility.yul\":4575:4588   */\n  shr\n    /* \"#utility.yul\":4554:4588   */\n  swap1\n  pop\n    /* \"#utility.yul\":4493:4595   */\n  swap2\n  swap1\n  pop\n  jump\t// out\n    /* \"#utility.yul\":4601:5449   */\ntag_99:\n    /* \"#utility.yul\":4662:4667   */\n  0x00\n    /* \"#utility.yul\":4669:4673   */\n  dup1\n    /* \"#utility.yul\":4693:4699   */\n  dup3\n    /* \"#utility.yul\":4684:4699   */\n  swap2\n  pop\n    /* \"#utility.yul\":4717:4722   */\n  dup4\n    /* \"#utility.yul\":4708:4722   */\n  swap1\n  pop\n    /* \"#utility.yul\":4731:5443   */\ntag_162:\n    /* \"#utility.yul\":4752:4753   */\n  0x01\n    /* \"#utility.yul\":4742:4750   */\n  dup6\n    /* \"#utility.yul\":4739:4754   */\n  gt\n    /* \"#utility.yul\":4731:5443   */\n  iszero\n  tag_164\n  jumpi\n    /* \"#utility.yul\":4847:4851   */\n  dup1\n    /* \"#utility.yul\":4842:4845   */\n  dup7\n    /* \"#utility.yul\":4838:4852   */\n  div\n    /* \"#utility.yul\":4832:4836   */\n  dup2\n    /* \"#utility.yul\":4829:4853   */\n  gt\n    /* \"#utility.yul\":4826:4876   */\n  iszero\n  tag_165\n  jumpi\n    /* \"#utility.yul\":4856:4874   */\n  tag_166\n  tag_97\n  jump\t// in\ntag_166:\n    /* \"#utility.yul\":4826:4876   */\ntag_165:\n    /* \"#utility.yul\":4906:4907   */\n  0x01\n    /* \"#utility.yul\":4896:4904   */\n  dup6\n    /* \"#utility.yul\":4892:4908   */\n  and\n    /* \"#utility.yul\":4889:5340   */\n  iszero\n  tag_167\n  jumpi\n    /* \"#utility.yul\":5321:5325   */\n  dup1\n    /* \"#utility.yul\":5314:5319   */\n  dup3\n    /* \"#utility.yul\":5310:5326   */\n  mul\n    /* \"#utility.yul\":5301:5326   */\n  swap2\n  pop\n    /* \"#utility.yul\":4889:5340   */\ntag_167:\n    /* \"#utility.yul\":5371:5375   */\n  dup1\n    /* \"#utility.yul\":5365:5369   */\n  dup2\n    /* \"#utility.yul\":5361:5376   */\n  mul\n    /* \"#utility.yul\":5353:5376   */\n  swap1\n  pop\n    /* \"#utility.yul\":5401:5433   */\n  tag_168\n    /* \"#utility.yul\":5424:5432   */\n  dup6\n    /* \"#utility.yul\":5401:5433   */\n  tag_98\n  jump\t// in\ntag_168:\n    /* \"#utility.yul\":5389:5433   */\n  swap5\n  pop\n    /* \"#utility.yul\":4731:5443   */\n  jump(tag_162)\ntag_164:\n    /* \"#utility.yul\":4601:5449   */\n  swap5\n  pop\n  swap5\n  swap3\n  pop\n  pop\n  pop\n  jump\t// out\n    /* \"#utility.yul\":5455:6528   */\ntag_100:\n    /* \"#utility.yul\":5509:5514   */\n  0x00\n    /* \"#utility.yul\":5700:5708   */\n  dup3\n    /* \"#utility.yul\":5690:5730   */\n  tag_170\n  jumpi\n    /* \"#utility.yul\":5721:5722   */\n  0x01\n    /* \"#utility.yul\":5712:5722   */\n  swap1\n  pop\n    /* \"#utility.yul\":5723:5728   */\n  jump(tag_169)\n    /* \"#utility.yul\":5690:5730   */\ntag_170:\n    /* \"#utility.yul\":5749:5753   */\n  dup2\n    /* \"#utility.yul\":5739:5775   */\n  tag_171\n  jumpi\n    /* \"#utility.yul\":5766:5767   */\n  0x00\n    /* \"#utility.yul\":5757:5767   */\n  swap1\n  pop\n    /* \"#utility.yul\":5768:5773   */\n  jump(tag_169)\n    /* \"#utility.yul\":5739:5775   */\ntag_171:\n    /* \"#utility.yul\":5835:5839   */\n  dup2\n    /* \"#utility.yul\":5883:5884   */\n  0x01\n    /* \"#utility.yul\":5878:5905   */\n  dup2\n  eq\n  tag_173\n  jumpi\n    /* \"#utility.yul\":5919:5920   */\n  0x02\n    /* \"#utility.yul\":5914:6105   */\n  dup2\n  eq\n  tag_174\n  jumpi\n    /* \"#utility.yul\":5828:6105   */\n  jump(tag_172)\n    /* \"#utility.yul\":5878:5905   */\ntag_173:\n    /* \"#utility.yul\":5896:5897   */\n  0x01\n    /* \"#utility.yul\":5887:5897   */\n  swap2\n  pop\n    /* \"#utility.yul\":5898:5903   */\n  pop\n  jump(tag_169)\n    /* \"#utility.yul\":5914:6105   */\ntag_174:\n    /* \"#utility.yul\":5959:5962   */\n  0xff\n    /* \"#utility.yul\":5949:5957   */\n  dup5\n    /* \"#utility.yul\":5946:5963   */\n  gt\n    /* \"#utility.yul\":5943:5986   */\n  iszero\n  tag_175\n  jumpi\n    /* \"#utility.yul\":5966:5984   */\n  tag_176\n  tag_97\n  jump\t// in\ntag_176:\n    /* \"#utility.yul\":5943:5986   */\ntag_175:\n    /* \"#utility.yul\":6015:6023   */\n  dup4\n    /* \"#utility.yul\":6012:6013   */\n  0x02\n    /* \"#utility.yul\":6008:6024   */\n  exp\n    /* \"#utility.yul\":5999:6024   */\n  swap2\n  pop\n    /* \"#utility.yul\":6050:6053   */\n  dup5\n    /* \"#utility.yul\":6043:6048   */\n  dup3\n    /* \"#utility.yul\":6040:6054   */\n  gt\n    /* \"#utility.yul\":6037:6077   */\n  iszero\n  tag_177\n  jumpi\n    /* \"#utility.yul\":6057:6075   */\n  tag_178\n  tag_97\n  jump\t// in\ntag_178:\n    /* \"#utility.yul\":6037:6077   */\ntag_177:\n    /* \"#utility.yul\":6090:6095   */\n  pop\n  jump(tag_169)\n    /* \"#utility.yul\":5828:6105   */\ntag_172:\n  pop\n    /* \"#utility.yul\":6214:6216   */\n  0x20\n    /* \"#utility.yul\":6204:6212   */\n  dup4\n    /* \"#utility.yul\":6201:6217   */\n  lt\n    /* \"#utility.yul\":6195:6198   */\n  0x0133\n    /* \"#utility.yul\":6189:6193   */\n  dup4\n    /* \"#utility.yul\":6186:6199   */\n  lt\n    /* \"#utility.yul\":6182:6218   */\n  and\n    /* \"#utility.yul\":6164:6166   */\n  0x4e\n    /* \"#utility.yul\":6154:6162   */\n  dup5\n    /* \"#utility.yul\":6151:6167   */\n  lt\n    /* \"#utility.yul\":6146:6148   */\n  0x0b\n    /* \"#utility.yul\":6140:6144   */\n  dup5\n    /* \"#utility.yul\":6137:6149   */\n  lt\n    /* \"#utility.yul\":6133:6168   */\n  and\n    /* \"#utility.yul\":6117:6228   */\n  or\n    /* \"#utility.yul\":6114:6360   */\n  iszero\n  tag_179\n  jumpi\n    /* \"#utility.yul\":6270:6278   */\n  dup3\n    /* \"#utility.yul\":6264:6268   */\n  dup3\n    /* \"#utility.yul\":6260:6279   */\n  exp\n    /* \"#utility.yul\":6251:6279   */\n  swap1\n  pop\n    /* \"#utility.yul\":6305:6308   */\n  dup4\n    /* \"#utility.yul\":6298:6303   */\n  dup2\n    /* \"#utility.yul\":6295:6309   */\n  gt\n    /* \"#utility.yul\":6292:6332   */\n  iszero\n  tag_180\n  jumpi\n    /* \"#utility.yul\":6312:6330   */\n  tag_181\n  tag_97\n  jump\t// in\ntag_181:\n    /* \"#utility.yul\":6292:6332   */\ntag_180:\n    /* \"#utility.yul\":6345:6350   */\n  jump(tag_169)\n    /* \"#utility.yul\":6114:6360   */\ntag_179:\n    /* \"#utility.yul\":6385:6427   */\n  tag_182\n    /* \"#utility.yul\":6423:6426   */\n  dup5\n    /* \"#utility.yul\":6413:6421   */\n  dup5\n    /* \"#utility.yul\":6407:6411   */\n  dup5\n    /* \"#utility.yul\":6404:6405   */\n  0x01\n    /* \"#utility.yul\":6385:6427   */\n  tag_99\n  jump\t// in\ntag_182:\n    /* \"#utility.yul\":6370:6427   */\n  swap3\n  pop\n  swap1\n  pop\n    /* \"#utility.yul\":6459:6463   */\n  dup2\n    /* \"#utility.yul\":6454:6457   */\n  dup5\n    /* \"#utility.yul\":6450:6464   */\n  div\n    /* \"#utility.yul\":6443:6448   */\n  dup2\n    /* \"#utility.yul\":6440:6465   */\n  gt\n    /* \"#utility.yul\":6437:6488   */\n  iszero\n  tag_183\n  jumpi\n    /* \"#utility.yul\":6468:6486   */\n  tag_184\n  tag_97\n  jump\t// in\ntag_184:\n    /* \"#utility.yul\":6437:6488   */\ntag_183:\n    /* \"#utility.yul\":6517:6521   */\n  dup2\n    /* \"#utility.yul\":6510:6515   */\n  dup2\n    /* \"#utility.yul\":6506:6522   */\n  mul\n    /* \"#utility.yul\":6497:6522   */\n  swap1\n  pop\n    /* \"#utility.yul\":5455:6528   */\ntag_169:\n  swap4\n  swap3\n  pop\n  pop\n  pop\n  jump\t// out\n    /* \"#utility.yul\":6534:6611   */\ntag_101:\n    /* \"#utility.yul\":6571:6578   */\n  0x00\n    /* \"#utility.yul\":6600:6605   */\n  dup2\n    /* \"#utility.yul\":6589:6605   */\n  swap1\n  pop\n    /* \"#utility.yul\":6534:6611   */\n  swap2\n  swap1\n  pop\n  jump\t// out\n    /* \"#utility.yul\":6617:6902   */\ntag_21:\n    /* \"#utility.yul\":6677:6682   */\n  0x00\n    /* \"#utility.yul\":6701:6724   */\n  tag_187\n    /* \"#utility.yul\":6719:6723   */\n  dup3\n    /* \"#utility.yul\":6701:6724   */\n  tag_101\n  jump\t// in\ntag_187:\n    /* \"#utility.yul\":6693:6724   */\n  swap2\n  pop\n    /* \"#utility.yul\":6745:6772   */\n  tag_188\n    /* \"#utility.yul\":6763:6771   */\n  dup4\n    /* \"#utility.yul\":6745:6772   */\n  tag_101\n  jump\t// in\ntag_188:\n    /* \"#utility.yul\":6733:6772   */\n  swap3\n  pop\n    /* \"#utility.yul\":6791:6895   */\n  tag_189\n    /* \"#utility.yul\":6828:6894   */\n  0xffffffffffffffffffffffffffffffffffffffffffffffffffffffffffffffff\n    /* \"#utility.yul\":6818:6826   */\n  dup5\n    /* \"#utility.yul\":6812:6816   */\n  dup5\n    /* \"#utility.yul\":6791:6895   */\n  tag_100\n  jump\t// in\ntag_189:\n    /* \"#utility.yul\":6782:6895   */\n  swap1\n  pop\n    /* \"#utility.yul\":6617:6902   */\n  swap3\n  swap2\n  pop\n  pop\n  jump\t// out\n    /* \"#utility.yul\":6908:7256   */\ntag_23:\n    /* \"#utility.yul\":6948:6955   */\n  0x00\n    /* \"#utility.yul\":6971:6991   */\n  tag_191\n    /* \"#utility.yul\":6989:6990   */\n  dup3\n    /* \"#utility.yul\":6971:6991   */\n  tag_101\n  jump\t// in\ntag_191:\n    /* \"#utility.yul\":6966:6991   */\n  swap2\n  pop\n    /* \"#utility.yul\":7005:7025   */\n  tag_192\n    /* \"#utility.yul\":7023:7024   */\n  dup4\n    /* \"#utility.yul\":7005:7025   */\n  tag_101\n  jump\t// in\ntag_192:\n    /* \"#utility.yul\":7000:7025   */\n  swap3\n  pop\n    /* \"#utility.yul\":7193:7194   */\n  dup2\n    /* \"#utility.yul\":7125:7191   */\n  0xffffffffffffffffffffffffffffffffffffffffffffffffffffffffffffffff\n    /* \"#utility.yul\":7121:7195   */\n  div\n    /* \"#utility.yul\":7118:7119   */\n  dup4\n    /* \"#utility.yul\":7115:7196   */\n  gt\n    /* \"#utility.yul\":7110:7111   */\n  dup3\n    /* \"#utility.yul\":7103:7112   */\n  iszero\n    /* \"#utility.yul\":7096:7113   */\n  iszero\n    /* \"#utility.yul\":7092:7197   */\n  and\n    /* \"#utility.yul\":7089:7220   */\n  iszero\n  tag_193\n  jumpi\n    /* \"#utility.yul\":7200:7218   */\n  tag_194\n  tag_97\n  jump\t// in\ntag_194:\n    /* \"#utility.yul\":7089:7220   */\ntag_193:\n    /* \"#utility.yul\":7248:7249   */\n  dup3\n    /* \"#utility.yul\":7245:7246   */\n  dup3\n    /* \"#utility.yul\":7241:7250   */\n  mul\n    /* \"#utility.yul\":7230:7250   */\n  swap1\n  pop\n    /* \"#utility.yul\":6908:7256   */\n  swap3\n  swap2\n  pop\n  pop\n  jump\t// out\n    /* \"#utility.yul\":7262:7442   */\ntag_29:\n    /* \"#utility.yul\":7310:7387   */\n  0x4e487b7100000000000000000000000000000000000000000000000000000000\n    /* \"#utility.yul\":7307:7308   */\n  0x00\n    /* \"#utility.yul\":7300:7388   */\n  mstore\n    /* \"#utility.yul\":7407:7411   */\n  0x32\n    /* \"#utility.yul\":7404:7405   */\n  0x04\n    /* \"#utility.yul\":7397:7412   */\n  mstore\n    /* \"#utility.yul\":7431:7435   */\n  0x24\n    /* \"#utility.yul\":7428:7429   */\n  0x00\n    /* \"#utility.yul\":7421:7436   */\n  revert\n    /* \"#utility.yul\":7448:7617   */\ntag_102:\n    /* \"#utility.yul\":7532:7543   */\n  0x00\n    /* \"#utility.yul\":7566:7572   */\n  dup3\n    /* \"#utility.yul\":7561:7564   */\n  dup3\n    /* \"#utility.yul\":7554:7573   */\n  mstore\n    /* \"#utility.yul\":7606:7610   */\n  0x20\n    /* \"#utility.yul\":7601:7604   */\n  dup3\n    /* \"#utility.yul\":7597:7611   */\n  add\n    /* \"#utility.yul\":7582:7611   */\n  swap1\n  pop\n    /* \"#utility.yul\":7448:7617   */\n  swap3\n  swap2\n  pop\n  pop\n  jump\t// out\n    /* \"#utility.yul\":7623:7804   */\ntag_103:\n    /* \"#utility.yul\":7763:7796   */\n  0x45524332303a206d696e7420746f20746865207a65726f206164647265737300\n    /* \"#utility.yul\":7759:7760   */\n  0x00\n    /* \"#utility.yul\":7751:7757   */\n  dup3\n    /* \"#utility.yul\":7747:7761   */\n  add\n    /* \"#utility.yul\":7740:7797   */\n  mstore\n    /* \"#utility.yul\":7623:7804   */\n  pop\n  jump\t// out\n    /* \"#utility.yul\":7810:8176   */\ntag_104:\n    /* \"#utility.yul\":7952:7955   */\n  0x00\n    /* \"#utility.yul\":7973:8040   */\n  tag_199\n    /* \"#utility.yul\":8037:8039   */\n  0x1f\n    /* \"#utility.yul\":8032:8035   */\n  dup4\n    /* \"#utility.yul\":7973:8040   */\n  tag_102\n  jump\t// in\ntag_199:\n    /* \"#utility.yul\":7966:8040   */\n  swap2\n  pop\n    /* \"#utility.yul\":8049:8142   */\n  tag_200\n    /* \"#utility.yul\":8138:8141   */\n  dup3\n    /* \"#utility.yul\":8049:8142   */\n  tag_103\n  jump\t// in\ntag_200:\n    /* \"#utility.yul\":8167:8169   */\n  0x20\n    /* \"#utility.yul\":8162:8165   */\n  dup3\n    /* \"#utility.yul\":8158:8170   */\n  add\n    /* \"#utility.yul\":8151:8170   */\n  swap1\n  pop\n    /* \"#utility.yul\":7810:8176   */\n  swap2\n  swap1\n  pop\n  jump\t// out\n    /* \"#utility.yul\":8182:8601   */\ntag_60:\n    /* \"#utility.yul\":8348:8352   */\n  0x00\n    /* \"#utility.yul\":8386:8388   */\n  0x20\n    /* \"#utility.yul\":8375:8384   */\n  dup3\n    /* \"#utility.yul\":8371:8389   */\n  add\n    /* \"#utility.yul\":8363:8389   */\n  swap1\n  pop\n    /* \"#utility.yul\":8435:8444   */\n  dup2\n    /* \"#utility.yul\":8429:8433   */\n  dup2\n    /* \"#utility.yul\":8425:8445   */\n  sub\n    /* \"#utility.yul\":8421:8422   */\n  0x00\n    /* \"#utility.yul\":8410:8419   */\n  dup4\n    /* \"#utility.yul\":8406:8423   */\n  add\n    /* \"#utility.yul\":8399:8446   */\n  mstore\n    /* \"#utility.yul\":8463:8594   */\n  tag_202\n    /* \"#utility.yul\":8589:8593   */\n  dup2\n    /* \"#utility.yul\":8463:8594   */\n  tag_104\n  jump\t// in\ntag_202:\n    /* \"#utility.yul\":8455:8594   */\n  swap1\n  pop\n    /* \"#utility.yul\":8182:8601   */\n  swap2\n  swap1\n  pop\n  jump\t// out\n    /* \"#utility.yul\":8607:8912   */\ntag_64:\n    /* \"#utility.yul\":8647:8650   */\n  0x00\n    /* \"#utility.yul\":8666:8686   */\n  tag_204\n    /* \"#utility.yul\":8684:8685   */\n  dup3\n    /* \"#utility.yul\":8666:8686   */\n  tag_101\n  jump\t// in\ntag_204:\n    /* \"#utility.yul\":8661:8686   */\n  swap2\n  pop\n    /* \"#utility.yul\":8700:8720   */\n  tag_205\n    /* \"#utility.yul\":8718:8719   */\n  dup4\n    /* \"#utility.yul\":8700:8720   */\n  tag_101\n  jump\t// in\ntag_205:\n    /* \"#utility.yul\":8695:8720   */\n  swap3\n  pop\n    /* \"#utility.yul\":8854:8855   */\n  dup3\n    /* \"#utility.yul\":8786:8852   */\n  0xffffffffffffffffffffffffffffffffffffffffffffffffffffffffffffffff\n    /* \"#utility.yul\":8782:8856   */\n  sub\n    /* \"#utility.yul\":8779:8780   */\n  dup3\n    /* \"#utility.yul\":8776:8857   */\n  gt\n    /* \"#utility.yul\":8773:8880   */\n  iszero\n  tag_206\n  jumpi\n    /* \"#utility.yul\":8860:8878   */\n  tag_207\n  tag_97\n  jump\t// in\ntag_207:\n    /* \"#utility.yul\":8773:8880   */\ntag_206:\n    /* \"#utility.yul\":8904:8905   */\n  dup3\n    /* \"#utility.yul\":8901:8902   */\n  dup3\n    /* \"#utility.yul\":8897:8906   */\n  add\n    /* \"#utility.yul\":8890:8906   */\n  swap1\n  pop\n    /* \"#utility.yul\":8607:8912   */\n  swap3\n  swap2\n  pop\n  pop\n  jump\t// out\n    /* \"#utility.yul\":8918:9036   */\ntag_105:\n    /* \"#utility.yul\":9005:9029   */\n  tag_209\n    /* \"#utility.yul\":9023:9028   */\n  dup2\n    /* \"#utility.yul\":9005:9029   */\n  tag_101\n  jump\t// in\ntag_209:\n    /* \"#utility.yul\":9000:9003   */\n  dup3\n    /* \"#utility.yul\":8993:9030   */\n  mstore\n    /* \"#utility.yul\":8918:9036   */\n  pop\n  pop\n  jump\t// out\n    /* \"#utility.yul\":9042:9264   */\ntag_67:\n    /* \"#utility.yul\":9135:9139   */\n  0x00\n    /* \"#utility.yul\":9173:9175   */\n  0x20\n    /* \"#utility.yul\":9162:9171   */\n  dup3\n    /* \"#utility.yul\":9158:9176   */\n  add\n    /* \"#utility.yul\":9150:9176   */\n  swap1\n  pop\n    /* \"#utility.yul\":9186:9257   */\n  tag_211\n    /* \"#utility.yul\":9254:9255   */\n  0x00\n    /* \"#utility.yul\":9243:9252   */\n  dup4\n    /* \"#utility.yul\":9239:9256   */\n  add\n    /* \"#utility.yul\":9230:9236   */\n  dup5\n    /* \"#utility.yul\":9186:9257   */\n  tag_105\n  jump\t// in\ntag_211:\n    /* \"#utility.yul\":9042:9264   */\n  swap3\n  swap2\n  pop\n  pop\n  jump\t// out\n    /* \"#utility.yul\":9270:9450   */\ntag_106:\n    /* \"#utility.yul\":9318:9395   */\n  0x4e487b7100000000000000000000000000000000000000000000000000000000\n    /* \"#utility.yul\":9315:9316   */\n  0x00\n    /* \"#utility.yul\":9308:9396   */\n  mstore\n    /* \"#utility.yul\":9415:9419   */\n  0x22\n    /* \"#utility.yul\":9412:9413   */\n  0x04\n    /* \"#utility.yul\":9405:9420   */\n  mstore\n    /* \"#utility.yul\":9439:9443   */\n  0x24\n    /* \"#utility.yul\":9436:9437   */\n  0x00\n    /* \"#utility.yul\":9429:9444   */\n  revert\n    /* \"#utility.yul\":9456:9776   */\ntag_70:\n    /* \"#utility.yul\":9500:9506   */\n  0x00\n    /* \"#utility.yul\":9537:9538   */\n  0x02\n    /* \"#utility.yul\":9531:9535   */\n  dup3\n    /* \"#utility.yul\":9527:9539   */\n  div\n    /* \"#utility.yul\":9517:9539   */\n  swap1\n  pop\n    /* \"#utility.yul\":9584:9585   */\n  0x01\n    /* \"#utility.yul\":9578:9582   */\n  dup3\n    /* \"#utility.yul\":9574:9586   */\n  and\n    /* \"#utility.yul\":9605:9623   */\n  dup1\n    /* \"#utility.yul\":9595:9676   */\n  tag_214\n  jumpi\n    /* \"#utility.yul\":9661:9665   */\n  0x7f\n    /* \"#utility.yul\":9653:9659   */\n  dup3\n    /* \"#utility.yul\":9649:9666   */\n  and\n    /* \"#utility.yul\":9639:9666   */\n  swap2\n  pop\n    /* \"#utility.yul\":9595:9676   */\ntag_214:\n    /* \"#utility.yul\":9723:9725   */\n  0x20\n    /* \"#utility.yul\":9715:9721   */\n  dup3\n    /* \"#utility.yul\":9712:9726   */\n  lt\n    /* \"#utility.yul\":9692:9710   */\n  dup2\n    /* \"#utility.yul\":9689:9727   */\n  sub\n    /* \"#utility.yul\":9686:9770   */\n  tag_215\n  jumpi\n    /* \"#utility.yul\":9742:9760   */\n  tag_216\n  tag_106\n  jump\t// in\ntag_216:\n    /* \"#utility.yul\":9686:9770   */\ntag_215:\n    /* \"#utility.yul\":9507:9776   */\n  pop\n    /* \"#utility.yul\":9456:9776   */\n  swap2\n  swap1\n  pop\n  jump\t// out\n    /* \"contracts/Distribution/AtlantisDistribution.sol\":206:4667  contract AtlantisDistribution is ERC20, Ownable {... */\ntag_53:\n  dataSize(sub_0)\n  dup1\n  dataOffset(sub_0)\n  0x00\n  codecopy\n  0x00\n  return\nstop\n\nsub_0: assembly {\n        /* \"contracts/Distribution/AtlantisDistribution.sol\":206:4667  contract AtlantisDistribution is ERC20, Ownable {... */\n      mstore(0x40, 0x80)\n      callvalue\n      dup1\n      iszero\n      tag_1\n      jumpi\n      0x00\n      dup1\n      revert\n    tag_1:\n      pop\n      jumpi(tag_2, lt(calldatasize, 0x04))\n      shr(0xe0, calldataload(0x00))\n      dup1\n      0x7a0d944c\n      gt\n      tag_25\n      jumpi\n      dup1\n      0xa457c2d7\n      gt\n      tag_26\n      jumpi\n      dup1\n      0xa457c2d7\n      eq\n      tag_19\n      jumpi\n      dup1\n      0xa9059cbb\n      eq\n      tag_20\n      jumpi\n      dup1\n      0xab645851\n      eq\n      tag_21\n      jumpi\n      dup1\n      0xdd62ed3e\n      eq\n      tag_22\n      jumpi\n      dup1\n      0xf2fde38b\n      eq\n      tag_23\n      jumpi\n      dup1\n      0xf8e233b1\n      eq\n      tag_24\n      jumpi\n      jump(tag_2)\n    tag_26:\n      dup1\n      0x7a0d944c\n      eq\n      tag_14\n      jumpi\n      dup1\n      0x8da5cb5b\n      eq\n      tag_15\n      jumpi\n      dup1\n      0x95d89b41\n      eq\n      tag_16\n      jumpi\n      dup1\n      0xa0712d68\n      eq\n      tag_17\n      jumpi\n      dup1\n      0xa33e7d7e\n      eq\n      tag_18\n      jumpi\n      jump(tag_2)\n    tag_25:\n      dup1\n      0x23b872dd\n      gt\n      tag_27\n      jumpi\n      dup1\n      0x23b872dd\n      eq\n      tag_8\n      jumpi\n      dup1\n      0x313ce567\n      eq\n      tag_9\n      jumpi\n      dup1\n      0x39509351\n      eq\n      tag_10\n      jumpi\n      dup1\n      0x670d5a8f\n      eq\n      tag_11\n      jumpi\n      dup1\n      0x70a08231\n      eq\n      tag_12\n      jumpi\n      dup1\n      0x715018a6\n      eq\n      tag_13\n      jumpi\n      jump(tag_2)\n    tag_27:\n      dup1\n      0x06fdde03\n      eq\n      tag_3\n      jumpi\n      dup1\n      0x095ea7b3\n      eq\n      tag_4\n      jumpi\n      dup1\n      0x13b954a3\n      eq\n      tag_5\n      jumpi\n      dup1\n      0x1506f480\n      eq\n      tag_6\n      jumpi\n      dup1\n      0x18160ddd\n      eq\n      tag_7\n      jumpi\n    tag_2:\n      0x00\n      dup1\n      revert\n        /* \"contracts/Distribution/WrappedERC20Token.sol\":2057:2146  function name() public view virtual returns (string memory) {... */\n    tag_3:\n      tag_28\n      tag_29\n      jump\t// in\n    tag_28:\n      mload(0x40)\n      tag_30\n      swap2\n      swap1\n      tag_31\n      jump\t// in\n    tag_30:\n      mload(0x40)\n      dup1\n      swap2\n      sub\n      swap1\n      return\n        /* \"contracts/Distribution/WrappedERC20Token.sol\":4127:4293  function approve(address spender, uint256 amount) public virtual override returns (bool) {... */\n    tag_4:\n      tag_32\n      0x04\n      dup1\n      calldatasize\n      sub\n      dup2\n      add\n      swap1\n      tag_33\n      swap2\n      swap1\n      tag_34\n      jump\t// in\n    tag_33:\n      tag_35\n      jump\t// in\n    tag_32:\n      mload(0x40)\n      tag_36\n      swap2\n      swap1\n      tag_37\n      jump\t// in\n    tag_36:\n      mload(0x40)\n      dup1\n      swap2\n      sub\n      swap1\n      return\n        /* \"contracts/Distribution/AtlantisDistribution.sol\":3936:4512  function mintToRS(address account, uint256 amount) external onlyOwner {... */\n    tag_5:\n      tag_38\n      0x04\n      dup1\n      calldatasize\n      sub\n      dup2\n      add\n      swap1\n      tag_39\n      swap2\n      swap1\n      tag_34\n      jump\t// in\n    tag_39:\n      tag_40\n      jump\t// in\n    tag_38:\n      stop\n        /* \"contracts/Distribution/AtlantisDistribution.sol\":3260:3930  function mintToNRS(address account, uint256 amount) external onlyOwner {... */\n    tag_6:\n      tag_41\n      0x04\n      dup1\n      calldatasize\n      sub\n      dup2\n      add\n      swap1\n      tag_42\n      swap2\n      swap1\n      tag_34\n      jump\t// in\n    tag_42:\n      tag_43\n      jump\t// in\n    tag_41:\n      stop\n        /* \"contracts/Distribution/WrappedERC20Token.sol\":3118:3224  function totalSupply() public view virtual override returns (uint256) {... */\n    tag_7:\n      tag_44\n      tag_45\n      jump\t// in\n    tag_44:\n      mload(0x40)\n      tag_46\n      swap2\n      swap1\n      tag_47\n      jump\t// in\n    tag_46:\n      mload(0x40)\n      dup1\n      swap2\n      sub\n      swap1\n      return\n        /* \"contracts/Distribution/AtlantisDistribution.sol\":4518:4665  function transferFrom(address sender, address recipient, uint256 amount) public override returns (bool) {... */\n    tag_8:\n      tag_48\n      0x04\n      dup1\n      calldatasize\n      sub\n      dup2\n      add\n      swap1\n      tag_49\n      swap2\n      swap1\n      tag_50\n      jump\t// in\n    tag_49:\n      tag_51\n      jump\t// in\n    tag_48:\n      mload(0x40)\n      tag_52\n      swap2\n      swap1\n      tag_37\n      jump\t// in\n    tag_52:\n      mload(0x40)\n      dup1\n      swap2\n      sub\n      swap1\n      return\n        /* \"contracts/Distribution/WrappedERC20Token.sol\":2976:3058  function decimals() public view virtual returns (uint8) {... */\n    tag_9:\n      tag_53\n      tag_54\n      jump\t// in\n    tag_53:\n      mload(0x40)\n      tag_55\n      swap2\n      swap1\n      tag_56\n      jump\t// in\n    tag_55:\n      mload(0x40)\n      dup1\n      swap2\n      sub\n      swap1\n      return\n        /* \"contracts/Distribution/WrappedERC20Token.sol\":5569:5781  function increaseAllowance(address spender, uint256 addedValue) public virtual returns (bool) {... */\n    tag_10:\n      tag_57\n      0x04\n      dup1\n      calldatasize\n      sub\n      dup2\n      add\n      swap1\n      tag_58\n      swap2\n      swap1\n      tag_34\n      jump\t// in\n    tag_58:\n      tag_59\n      jump\t// in\n    tag_57:\n      mload(0x40)\n      tag_60\n      swap2\n      swap1\n      tag_37\n      jump\t// in\n    tag_60:\n      mload(0x40)\n      dup1\n      swap2\n      sub\n      swap1\n      return\n        /* \"contracts/Distribution/AtlantisDistribution.sol\":486:524  mapping (address => uint256) public BC */\n    tag_11:\n      tag_61\n      0x04\n      dup1\n      calldatasize\n      sub\n      dup2\n      add\n      swap1\n      tag_62\n      swap2\n      swap1\n      tag_63\n      jump\t// in\n    tag_62:\n      tag_64\n      jump\t// in\n    tag_61:\n      mload(0x40)\n      tag_65\n      swap2\n      swap1\n      tag_47\n      jump\t// in\n    tag_65:\n      mload(0x40)\n      dup1\n      swap2\n      sub\n      swap1\n      return\n        /* \"contracts/Distribution/AtlantisDistribution.sol\":1346:1581  function balanceOf(address account) public view override returns (uint256) {... */\n    tag_12:\n      tag_66\n      0x04\n      dup1\n      calldatasize\n      sub\n      dup2\n      add\n      swap1\n      tag_67\n      swap2\n      swap1\n      tag_63\n      jump\t// in\n    tag_67:\n      tag_68\n      jump\t// in\n    tag_66:\n      mload(0x40)\n      tag_69\n      swap2\n      swap1\n      tag_47\n      jump\t// in\n    tag_69:\n      mload(0x40)\n      dup1\n      swap2\n      sub\n      swap1\n      return\n        /* \"@openzeppelin/contracts/access/Ownable.sol\":1605:1697  function renounceOwnership() public virtual onlyOwner {... */\n    tag_13:\n      tag_70\n      tag_71\n      jump\t// in\n    tag_70:\n      stop\n        /* \"contracts/Distribution/AtlantisDistribution.sol\":587:624  mapping (address => uint8) public lvl */\n    tag_14:\n      tag_72\n      0x04\n      dup1\n      calldatasize\n      sub\n      dup2\n      add\n      swap1\n      tag_73\n      swap2\n      swap1\n      tag_63\n      jump\t// in\n    tag_73:\n      tag_74\n      jump\t// in\n    tag_72:\n      mload(0x40)\n      tag_75\n      swap2\n      swap1\n      tag_56\n      jump\t// in\n    tag_75:\n      mload(0x40)\n      dup1\n      swap2\n      sub\n      swap1\n      return\n        /* \"@openzeppelin/contracts/access/Ownable.sol\":973:1058  function owner() public view virtual returns (address) {... */\n    tag_15:\n      tag_76\n      tag_77\n      jump\t// in\n    tag_76:\n      mload(0x40)\n      tag_78\n      swap2\n      swap1\n      tag_79\n      jump\t// in\n    tag_78:\n      mload(0x40)\n      dup1\n      swap2\n      sub\n      swap1\n      return\n        /* \"contracts/Distribution/WrappedERC20Token.sol\":2259:2352  function symbol() public view virtual returns (string memory) {... */\n    tag_16:\n      tag_80\n      tag_81\n      jump\t// in\n    tag_80:\n      mload(0x40)\n      tag_82\n      swap2\n      swap1\n      tag_31\n      jump\t// in\n    tag_82:\n      mload(0x40)\n      dup1\n      swap2\n      sub\n      swap1\n      return\n        /* \"contracts/Distribution/AtlantisDistribution.sol\":1843:2520  function mint(uint256 amount) external onlyOwner {... */\n    tag_17:\n      tag_83\n      0x04\n      dup1\n      calldatasize\n      sub\n      dup2\n      add\n      swap1\n      tag_84\n      swap2\n      swap1\n      tag_85\n      jump\t// in\n    tag_84:\n      tag_86\n      jump\t// in\n    tag_83:\n      stop\n        /* \"contracts/Distribution/AtlantisDistribution.sol\":2948:3254  function changeLvl(address account, uint8 newLvl) external onlyOwner {... */\n    tag_18:\n      tag_87\n      0x04\n      dup1\n      calldatasize\n      sub\n      dup2\n      add\n      swap1\n      tag_88\n      swap2\n      swap1\n      tag_89\n      jump\t// in\n    tag_88:\n      tag_90\n      jump\t// in\n    tag_87:\n      stop\n        /* \"contracts/Distribution/WrappedERC20Token.sol\":6268:6639  function decreaseAllowance(address spender, uint256 subtractedValue) public virtual returns (bool) {... */\n    tag_19:\n      tag_91\n      0x04\n      dup1\n      calldatasize\n      sub\n      dup2\n      add\n      swap1\n      tag_92\n      swap2\n      swap1\n      tag_34\n      jump\t// in\n    tag_92:\n      tag_93\n      jump\t// in\n    tag_91:\n      mload(0x40)\n      tag_94\n      swap2\n      swap1\n      tag_37\n      jump\t// in\n    tag_94:\n      mload(0x40)\n      dup1\n      swap2\n      sub\n      swap1\n      return\n        /* \"contracts/Distribution/AtlantisDistribution.sol\":2526:2942  function transfer(address recipient, uint256 amount) public override returns (bool) {... */\n    tag_20:\n      tag_95\n      0x04\n      dup1\n      calldatasize\n      sub\n      dup2\n      add\n      swap1\n      tag_96\n      swap2\n      swap1\n      tag_34\n      jump\t// in\n    tag_96:\n      tag_97\n      jump\t// in\n    tag_95:\n      mload(0x40)\n      tag_98\n      swap2\n      swap1\n      tag_37\n      jump\t// in\n    tag_98:\n      mload(0x40)\n      dup1\n      swap2\n      sub\n      swap1\n      return\n        /* \"contracts/Distribution/AtlantisDistribution.sol\":721:751  uint256[size] public currentBC */\n    tag_21:\n      tag_99\n      0x04\n      dup1\n      calldatasize\n      sub\n      dup2\n      add\n      swap1\n      tag_100\n      swap2\n      swap1\n      tag_85\n      jump\t// in\n    tag_100:\n      tag_101\n      jump\t// in\n    tag_99:\n      mload(0x40)\n      tag_102\n      swap2\n      swap1\n      tag_47\n      jump\t// in\n    tag_102:\n      mload(0x40)\n      dup1\n      swap2\n      sub\n      swap1\n      return\n        /* \"contracts/Distribution/WrappedERC20Token.sol\":3840:3989  function allowance(address owner, address spender) public view virtual override returns (uint256) {... */\n    tag_22:\n      tag_103\n      0x04\n      dup1\n      calldatasize\n      sub\n      dup2\n      add\n      swap1\n      tag_104\n      swap2\n      swap1\n      tag_105\n      jump\t// in\n    tag_104:\n      tag_106\n      jump\t// in\n    tag_103:\n      mload(0x40)\n      tag_107\n      swap2\n      swap1\n      tag_47\n      jump\t// in\n    tag_107:\n      mload(0x40)\n      dup1\n      swap2\n      sub\n      swap1\n      return\n        /* \"@openzeppelin/contracts/access/Ownable.sol\":1846:2035  function transferOwnership(address newOwner) public virtual onlyOwner {... */\n    tag_23:\n      tag_108\n      0x04\n      dup1\n      calldatasize\n      sub\n      dup2\n      add\n      swap1\n      tag_109\n      swap2\n      swap1\n      tag_63\n      jump\t// in\n    tag_109:\n      tag_110\n      jump\t// in\n    tag_108:\n      stop\n        /* \"contracts/Distribution/AtlantisDistribution.sol\":859:893  address payable public fund_wallet */\n    tag_24:\n      tag_111\n      tag_112\n      jump\t// in\n    tag_111:\n      mload(0x40)\n      tag_113\n      swap2\n      swap1\n      tag_114\n      jump\t// in\n    tag_113:\n      mload(0x40)\n      dup1\n      swap2\n      sub\n      swap1\n      return\n        /* \"contracts/Distribution/WrappedERC20Token.sol\":2057:2146  function name() public view virtual returns (string memory) {... */\n    tag_29:\n        /* \"contracts/Distribution/WrappedERC20Token.sol\":2102:2115  string memory */\n      0x60\n        /* \"contracts/Distribution/WrappedERC20Token.sol\":2134:2139  _name */\n      0x03\n        /* \"contracts/Distribution/WrappedERC20Token.sol\":2127:2139  return _name */\n      dup1\n      sload\n      tag_116\n      swap1\n      tag_117\n      jump\t// in\n    tag_116:\n      dup1\n      0x1f\n      add\n      0x20\n      dup1\n      swap2\n      div\n      mul\n      0x20\n      add\n      mload(0x40)\n      swap1\n      dup2\n      add\n      0x40\n      mstore\n      dup1\n      swap3\n      swap2\n      swap1\n      dup2\n      dup2\n      mstore\n      0x20\n      add\n      dup3\n      dup1\n      sload\n      tag_118\n      swap1\n      tag_117\n      jump\t// in\n    tag_118:\n      dup1\n      iszero\n      tag_119\n      jumpi\n      dup1\n      0x1f\n      lt\n      tag_120\n      jumpi\n      0x0100\n      dup1\n      dup4\n      sload\n      div\n      mul\n      dup4\n      mstore\n      swap2\n      0x20\n      add\n      swap2\n      jump(tag_119)\n    tag_120:\n      dup3\n      add\n      swap2\n      swap1\n      0x00\n      mstore\n      keccak256(0x00, 0x20)\n      swap1\n    tag_121:\n      dup2\n      sload\n      dup2\n      mstore\n      swap1\n      0x01\n      add\n      swap1\n      0x20\n      add\n      dup1\n      dup4\n      gt\n      tag_121\n      jumpi\n      dup3\n      swap1\n      sub\n      0x1f\n      and\n      dup3\n      add\n      swap2\n    tag_119:\n      pop\n      pop\n      pop\n      pop\n      pop\n      swap1\n      pop\n        /* \"contracts/Distribution/WrappedERC20Token.sol\":2057:2146  function name() public view virtual returns (string memory) {... */\n      swap1\n      jump\t// out\n        /* \"contracts/Distribution/WrappedERC20Token.sol\":4127:4293  function approve(address spender, uint256 amount) public virtual override returns (bool) {... */\n    tag_35:\n        /* \"contracts/Distribution/WrappedERC20Token.sol\":4210:4214  bool */\n      0x00\n        /* \"contracts/Distribution/WrappedERC20Token.sol\":4226:4265  _approve(_msgSender(), spender, amount) */\n      tag_123\n        /* \"contracts/Distribution/WrappedERC20Token.sol\":4235:4247  _msgSender() */\n      tag_124\n        /* \"contracts/Distribution/WrappedERC20Token.sol\":4235:4245  _msgSender */\n      tag_125\n        /* \"contracts/Distribution/WrappedERC20Token.sol\":4235:4247  _msgSender() */\n      jump\t// in\n    tag_124:\n        /* \"contracts/Distribution/WrappedERC20Token.sol\":4249:4256  spender */\n      dup5\n        /* \"contracts/Distribution/WrappedERC20Token.sol\":4258:4264  amount */\n      dup5\n        /* \"contracts/Distribution/WrappedERC20Token.sol\":4226:4234  _approve */\n      tag_126\n        /* \"contracts/Distribution/WrappedERC20Token.sol\":4226:4265  _approve(_msgSender(), spender, amount) */\n      jump\t// in\n    tag_123:\n        /* \"contracts/Distribution/WrappedERC20Token.sol\":4282:4286  true */\n      0x01\n        /* \"contracts/Distribution/WrappedERC20Token.sol\":4275:4286  return true */\n      swap1\n      pop\n        /* \"contracts/Distribution/WrappedERC20Token.sol\":4127:4293  function approve(address spender, uint256 amount) public virtual override returns (bool) {... */\n      swap3\n      swap2\n      pop\n      pop\n      jump\t// out\n        /* \"contracts/Distribution/AtlantisDistribution.sol\":3936:4512  function mintToRS(address account, uint256 amount) external onlyOwner {... */\n    tag_40:\n        /* \"@openzeppelin/contracts/access/Ownable.sol\":1196:1208  _msgSender() */\n      tag_128\n        /* \"@openzeppelin/contracts/access/Ownable.sol\":1196:1206  _msgSender */\n      tag_125\n        /* \"@openzeppelin/contracts/access/Ownable.sol\":1196:1208  _msgSender() */\n      jump\t// in\n    tag_128:\n        /* \"@openzeppelin/contracts/access/Ownable.sol\":1185:1208  owner() == _msgSender() */\n      0xffffffffffffffffffffffffffffffffffffffff\n      and\n        /* \"@openzeppelin/contracts/access/Ownable.sol\":1185:1192  owner() */\n      tag_129\n        /* \"@openzeppelin/contracts/access/Ownable.sol\":1185:1190  owner */\n      tag_77\n        /* \"@openzeppelin/contracts/access/Ownable.sol\":1185:1192  owner() */\n      jump\t// in\n    tag_129:\n        /* \"@openzeppelin/contracts/access/Ownable.sol\":1185:1208  owner() == _msgSender() */\n      0xffffffffffffffffffffffffffffffffffffffff\n      and\n      eq\n        /* \"@openzeppelin/contracts/access/Ownable.sol\":1177:1245  require(owner() == _msgSender(), \"Ownable: caller is not the owner\") */\n      tag_130\n      jumpi\n      mload(0x40)\n      0x08c379a000000000000000000000000000000000000000000000000000000000\n      dup2\n      mstore\n      0x04\n      add\n      tag_131\n      swap1\n      tag_132\n      jump\t// in\n    tag_131:\n      mload(0x40)\n      dup1\n      swap2\n      sub\n      swap1\n      revert\n    tag_130:\n        /* \"contracts/Distribution/AtlantisDistribution.sol\":4175:4176  0 */\n      0x00\n        /* \"contracts/Distribution/AtlantisDistribution.sol\":4159:4162  lvl */\n      0x07\n        /* \"contracts/Distribution/AtlantisDistribution.sol\":4159:4171  lvl[account] */\n      0x00\n        /* \"contracts/Distribution/AtlantisDistribution.sol\":4163:4170  account */\n      dup5\n        /* \"contracts/Distribution/AtlantisDistribution.sol\":4159:4171  lvl[account] */\n      0xffffffffffffffffffffffffffffffffffffffff\n      and\n      0xffffffffffffffffffffffffffffffffffffffff\n      and\n      dup2\n      mstore\n      0x20\n      add\n      swap1\n      dup2\n      mstore\n      0x20\n      add\n      0x00\n      keccak256\n      0x00\n      swap1\n      sload\n      swap1\n      0x0100\n      exp\n      swap1\n      div\n      0xff\n      and\n        /* \"contracts/Distribution/AtlantisDistribution.sol\":4159:4176  lvl[account] == 0 */\n      0xff\n      and\n      eq\n        /* \"contracts/Distribution/AtlantisDistribution.sol\":4151:4217  require(lvl[account] == 0, \"account is not a regular shareholder\") */\n      tag_134\n      jumpi\n      mload(0x40)\n      0x08c379a000000000000000000000000000000000000000000000000000000000\n      dup2\n      mstore\n      0x04\n      add\n      tag_135\n      swap1\n      tag_136\n      jump\t// in\n    tag_135:\n      mload(0x40)\n      dup1\n      swap2\n      sub\n      swap1\n      revert\n    tag_134:\n        /* \"contracts/Distribution/AtlantisDistribution.sol\":4249:4255  amount */\n      dup1\n        /* \"contracts/Distribution/AtlantisDistribution.sol\":4227:4236  _balances */\n      0x00\n        /* \"contracts/Distribution/AtlantisDistribution.sol\":4227:4245  _balances[account] */\n      dup1\n        /* \"contracts/Distribution/AtlantisDistribution.sol\":4237:4244  account */\n      dup5\n        /* \"contracts/Distribution/AtlantisDistribution.sol\":4227:4245  _balances[account] */\n      0xffffffffffffffffffffffffffffffffffffffff\n      and\n      0xffffffffffffffffffffffffffffffffffffffff\n      and\n      dup2\n      mstore\n      0x20\n      add\n      swap1\n      dup2\n      mstore\n      0x20\n      add\n      0x00\n      keccak256\n      0x00\n        /* \"contracts/Distribution/AtlantisDistribution.sol\":4227:4255  _balances[account] += amount */\n      dup3\n      dup3\n      sload\n      tag_137\n      swap2\n      swap1\n      tag_138\n      jump\t// in\n    tag_137:\n      swap3\n      pop\n      pop\n      dup2\n      swap1\n      sstore\n      pop\n        /* \"contracts/Distribution/AtlantisDistribution.sol\":4270:4277  uint8 i */\n      0x00\n        /* \"contracts/Distribution/AtlantisDistribution.sol\":4280:4281  1 */\n      0x01\n        /* \"contracts/Distribution/AtlantisDistribution.sol\":4270:4281  uint8 i = 1 */\n      swap1\n      pop\n        /* \"contracts/Distribution/AtlantisDistribution.sol\":4265:4474  for (uint8 i = 1; i <= 2; i++) {... */\n    tag_139:\n        /* \"contracts/Distribution/AtlantisDistribution.sol\":4288:4289  2 */\n      0x02\n        /* \"contracts/Distribution/AtlantisDistribution.sol\":4283:4284  i */\n      dup2\n        /* \"contracts/Distribution/AtlantisDistribution.sol\":4283:4289  i <= 2 */\n      0xff\n      and\n      gt\n        /* \"contracts/Distribution/AtlantisDistribution.sol\":4265:4474  for (uint8 i = 1; i <= 2; i++) {... */\n      tag_140\n      jumpi\n        /* \"contracts/Distribution/AtlantisDistribution.sol\":4325:4369  currentBC[i].mul((total[i] + amount.div(2))) */\n      tag_142\n        /* \"contracts/Distribution/AtlantisDistribution.sol\":4354:4367  amount.div(2) */\n      tag_143\n        /* \"contracts/Distribution/AtlantisDistribution.sol\":4365:4366  2 */\n      0x02\n        /* \"contracts/Distribution/AtlantisDistribution.sol\":4354:4360  amount */\n      dup5\n        /* \"contracts/Distribution/AtlantisDistribution.sol\":4354:4364  amount.div */\n      tag_144\n      swap1\n        /* \"contracts/Distribution/AtlantisDistribution.sol\":4354:4367  amount.div(2) */\n      swap2\n      swap1\n      0xffffffff\n      and\n      jump\t// in\n    tag_143:\n        /* \"contracts/Distribution/AtlantisDistribution.sol\":4343:4348  total */\n      0x0b\n        /* \"contracts/Distribution/AtlantisDistribution.sol\":4349:4350  i */\n      dup4\n        /* \"contracts/Distribution/AtlantisDistribution.sol\":4343:4351  total[i] */\n      0xff\n      and\n      0x03\n      dup2\n      lt\n      tag_145\n      jumpi\n      tag_146\n      tag_147\n      jump\t// in\n    tag_146:\n    tag_145:\n      add\n      sload\n        /* \"contracts/Distribution/AtlantisDistribution.sol\":4343:4367  total[i] + amount.div(2) */\n      tag_149\n      swap2\n      swap1\n      tag_138\n      jump\t// in\n    tag_149:\n        /* \"contracts/Distribution/AtlantisDistribution.sol\":4325:4334  currentBC */\n      0x08\n        /* \"contracts/Distribution/AtlantisDistribution.sol\":4335:4336  i */\n      dup4\n        /* \"contracts/Distribution/AtlantisDistribution.sol\":4325:4337  currentBC[i] */\n      0xff\n      and\n      0x03\n      dup2\n      lt\n      tag_150\n      jumpi\n      tag_151\n      tag_147\n      jump\t// in\n    tag_151:\n    tag_150:\n      add\n      sload\n        /* \"contracts/Distribution/AtlantisDistribution.sol\":4325:4341  currentBC[i].mul */\n      tag_153\n      swap1\n        /* \"contracts/Distribution/AtlantisDistribution.sol\":4325:4369  currentBC[i].mul((total[i] + amount.div(2))) */\n      swap2\n      swap1\n      0xffffffff\n      and\n      jump\t// in\n    tag_142:\n        /* \"contracts/Distribution/AtlantisDistribution.sol\":4310:4319  currentBC */\n      0x08\n        /* \"contracts/Distribution/AtlantisDistribution.sol\":4320:4321  i */\n      dup3\n        /* \"contracts/Distribution/AtlantisDistribution.sol\":4310:4322  currentBC[i] */\n      0xff\n      and\n      0x03\n      dup2\n      lt\n      tag_154\n      jumpi\n      tag_155\n      tag_147\n      jump\t// in\n    tag_155:\n    tag_154:\n      add\n        /* \"contracts/Distribution/AtlantisDistribution.sol\":4310:4369  currentBC[i] = currentBC[i].mul((total[i] + amount.div(2))) */\n      dup2\n      swap1\n      sstore\n      pop\n        /* \"contracts/Distribution/AtlantisDistribution.sol\":4398:4424  currentBC[i].div(total[i]) */\n      tag_157\n        /* \"contracts/Distribution/AtlantisDistribution.sol\":4415:4420  total */\n      0x0b\n        /* \"contracts/Distribution/AtlantisDistribution.sol\":4421:4422  i */\n      dup3\n        /* \"contracts/Distribution/AtlantisDistribution.sol\":4415:4423  total[i] */\n      0xff\n      and\n      0x03\n      dup2\n      lt\n      tag_158\n      jumpi\n      tag_159\n      tag_147\n      jump\t// in\n    tag_159:\n    tag_158:\n      add\n      sload\n        /* \"contracts/Distribution/AtlantisDistribution.sol\":4398:4407  currentBC */\n      0x08\n        /* \"contracts/Distribution/AtlantisDistribution.sol\":4408:4409  i */\n      dup4\n        /* \"contracts/Distribution/AtlantisDistribution.sol\":4398:4410  currentBC[i] */\n      0xff\n      and\n      0x03\n      dup2\n      lt\n      tag_161\n      jumpi\n      tag_162\n      tag_147\n      jump\t// in\n    tag_162:\n    tag_161:\n      add\n      sload\n        /* \"contracts/Distribution/AtlantisDistribution.sol\":4398:4414  currentBC[i].div */\n      tag_144\n      swap1\n        /* \"contracts/Distribution/AtlantisDistribution.sol\":4398:4424  currentBC[i].div(total[i]) */\n      swap2\n      swap1\n      0xffffffff\n      and\n      jump\t// in\n    tag_157:\n        /* \"contracts/Distribution/AtlantisDistribution.sol\":4383:4392  currentBC */\n      0x08\n        /* \"contracts/Distribution/AtlantisDistribution.sol\":4393:4394  i */\n      dup3\n        /* \"contracts/Distribution/AtlantisDistribution.sol\":4383:4395  currentBC[i] */\n      0xff\n      and\n      0x03\n      dup2\n      lt\n      tag_164\n      jumpi\n      tag_165\n      tag_147\n      jump\t// in\n    tag_165:\n    tag_164:\n      add\n        /* \"contracts/Distribution/AtlantisDistribution.sol\":4383:4424  currentBC[i] = currentBC[i].div(total[i]) */\n      dup2\n      swap1\n      sstore\n      pop\n        /* \"contracts/Distribution/AtlantisDistribution.sol\":4450:4463  amount.div(2) */\n      tag_167\n        /* \"contracts/Distribution/AtlantisDistribution.sol\":4461:4462  2 */\n      0x02\n        /* \"contracts/Distribution/AtlantisDistribution.sol\":4450:4456  amount */\n      dup4\n        /* \"contracts/Distribution/AtlantisDistribution.sol\":4450:4460  amount.div */\n      tag_144\n      swap1\n        /* \"contracts/Distribution/AtlantisDistribution.sol\":4450:4463  amount.div(2) */\n      swap2\n      swap1\n      0xffffffff\n      and\n      jump\t// in\n    tag_167:\n        /* \"contracts/Distribution/AtlantisDistribution.sol\":4438:4443  total */\n      0x0b\n        /* \"contracts/Distribution/AtlantisDistribution.sol\":4444:4445  i */\n      dup3\n        /* \"contracts/Distribution/AtlantisDistribution.sol\":4438:4446  total[i] */\n      0xff\n      and\n      0x03\n      dup2\n      lt\n      tag_168\n      jumpi\n      tag_169\n      tag_147\n      jump\t// in\n    tag_169:\n    tag_168:\n      add\n      0x00\n        /* \"contracts/Distribution/AtlantisDistribution.sol\":4438:4463  total[i] += amount.div(2) */\n      dup3\n      dup3\n      sload\n      tag_171\n      swap2\n      swap1\n      tag_138\n      jump\t// in\n    tag_171:\n      swap3\n      pop\n      pop\n      dup2\n      swap1\n      sstore\n      pop\n        /* \"contracts/Distribution/AtlantisDistribution.sol\":4291:4294  i++ */\n      dup1\n      dup1\n      tag_172\n      swap1\n      tag_173\n      jump\t// in\n    tag_172:\n      swap2\n      pop\n      pop\n        /* \"contracts/Distribution/AtlantisDistribution.sol\":4265:4474  for (uint8 i = 1; i <= 2; i++) {... */\n      jump(tag_139)\n    tag_140:\n      pop\n        /* \"contracts/Distribution/AtlantisDistribution.sol\":4499:4505  amount */\n      dup1\n        /* \"contracts/Distribution/AtlantisDistribution.sol\":4483:4495  _totalSupply */\n      0x02\n      0x00\n        /* \"contracts/Distribution/AtlantisDistribution.sol\":4483:4505  _totalSupply += amount */\n      dup3\n      dup3\n      sload\n      tag_174\n      swap2\n      swap1\n      tag_138\n      jump\t// in\n    tag_174:\n      swap3\n      pop\n      pop\n      dup2\n      swap1\n      sstore\n      pop\n        /* \"contracts/Distribution/AtlantisDistribution.sol\":3936:4512  function mintToRS(address account, uint256 amount) external onlyOwner {... */\n      pop\n      pop\n      jump\t// out\n        /* \"contracts/Distribution/AtlantisDistribution.sol\":3260:3930  function mintToNRS(address account, uint256 amount) external onlyOwner {... */\n    tag_43:\n        /* \"@openzeppelin/contracts/access/Ownable.sol\":1196:1208  _msgSender() */\n      tag_176\n        /* \"@openzeppelin/contracts/access/Ownable.sol\":1196:1206  _msgSender */\n      tag_125\n        /* \"@openzeppelin/contracts/access/Ownable.sol\":1196:1208  _msgSender() */\n      jump\t// in\n    tag_176:\n        /* \"@openzeppelin/contracts/access/Ownable.sol\":1185:1208  owner() == _msgSender() */\n      0xffffffffffffffffffffffffffffffffffffffff\n      and\n        /* \"@openzeppelin/contracts/access/Ownable.sol\":1185:1192  owner() */\n      tag_177\n        /* \"@openzeppelin/contracts/access/Ownable.sol\":1185:1190  owner */\n      tag_77\n        /* \"@openzeppelin/contracts/access/Ownable.sol\":1185:1192  owner() */\n      jump\t// in\n    tag_177:\n        /* \"@openzeppelin/contracts/access/Ownable.sol\":1185:1208  owner() == _msgSender() */\n      0xffffffffffffffffffffffffffffffffffffffff\n      and\n      eq\n        /* \"@openzeppelin/contracts/access/Ownable.sol\":1177:1245  require(owner() == _msgSender(), \"Ownable: caller is not the owner\") */\n      tag_178\n      jumpi\n      mload(0x40)\n      0x08c379a000000000000000000000000000000000000000000000000000000000\n      dup2\n      mstore\n      0x04\n      add\n      tag_179\n      swap1\n      tag_132\n      jump\t// in\n    tag_179:\n      mload(0x40)\n      dup1\n      swap2\n      sub\n      swap1\n      revert\n    tag_178:\n        /* \"contracts/Distribution/AtlantisDistribution.sol\":3500:3501  0 */\n      0x00\n        /* \"contracts/Distribution/AtlantisDistribution.sol\":3484:3487  lvl */\n      0x07\n        /* \"contracts/Distribution/AtlantisDistribution.sol\":3484:3496  lvl[account] */\n      0x00\n        /* \"contracts/Distribution/AtlantisDistribution.sol\":3488:3495  account */\n      dup5\n        /* \"contracts/Distribution/AtlantisDistribution.sol\":3484:3496  lvl[account] */\n      0xffffffffffffffffffffffffffffffffffffffff\n      and\n      0xffffffffffffffffffffffffffffffffffffffff\n      and\n      dup2\n      mstore\n      0x20\n      add\n      swap1\n      dup2\n      mstore\n      0x20\n      add\n      0x00\n      keccak256\n      0x00\n      swap1\n      sload\n      swap1\n      0x0100\n      exp\n      swap1\n      div\n      0xff\n      and\n        /* \"contracts/Distribution/AtlantisDistribution.sol\":3484:3501  lvl[account] != 0 */\n      0xff\n      and\n      sub\n        /* \"contracts/Distribution/AtlantisDistribution.sol\":3476:3538  require(lvl[account] != 0, \"account is a regular shareholder\") */\n      tag_181\n      jumpi\n      mload(0x40)\n      0x08c379a000000000000000000000000000000000000000000000000000000000\n      dup2\n      mstore\n      0x04\n      add\n      tag_182\n      swap1\n      tag_183\n      jump\t// in\n    tag_182:\n      mload(0x40)\n      dup1\n      swap2\n      sub\n      swap1\n      revert\n    tag_181:\n        /* \"contracts/Distribution/AtlantisDistribution.sol\":3548:3569  relaxBalance(account) */\n      tag_184\n        /* \"contracts/Distribution/AtlantisDistribution.sol\":3561:3568  account */\n      dup3\n        /* \"contracts/Distribution/AtlantisDistribution.sol\":3548:3560  relaxBalance */\n      tag_185\n        /* \"contracts/Distribution/AtlantisDistribution.sol\":3548:3569  relaxBalance(account) */\n      jump\t// in\n    tag_184:\n        /* \"contracts/Distribution/AtlantisDistribution.sol\":3601:3607  amount */\n      dup1\n        /* \"contracts/Distribution/AtlantisDistribution.sol\":3579:3588  _balances */\n      0x00\n        /* \"contracts/Distribution/AtlantisDistribution.sol\":3579:3597  _balances[account] */\n      dup1\n        /* \"contracts/Distribution/AtlantisDistribution.sol\":3589:3596  account */\n      dup5\n        /* \"contracts/Distribution/AtlantisDistribution.sol\":3579:3597  _balances[account] */\n      0xffffffffffffffffffffffffffffffffffffffff\n      and\n      0xffffffffffffffffffffffffffffffffffffffff\n      and\n      dup2\n      mstore\n      0x20\n      add\n      swap1\n      dup2\n      mstore\n      0x20\n      add\n      0x00\n      keccak256\n      0x00\n        /* \"contracts/Distribution/AtlantisDistribution.sol\":3579:3607  _balances[account] += amount */\n      dup3\n      dup3\n      sload\n      tag_186\n      swap2\n      swap1\n      tag_138\n      jump\t// in\n    tag_186:\n      swap3\n      pop\n      pop\n      dup2\n      swap1\n      sstore\n      pop\n        /* \"contracts/Distribution/AtlantisDistribution.sol\":3643:3656  amount.mul(2) */\n      tag_187\n        /* \"contracts/Distribution/AtlantisDistribution.sol\":3654:3655  2 */\n      0x02\n        /* \"contracts/Distribution/AtlantisDistribution.sol\":3643:3649  amount */\n      dup3\n        /* \"contracts/Distribution/AtlantisDistribution.sol\":3643:3653  amount.mul */\n      tag_153\n      swap1\n        /* \"contracts/Distribution/AtlantisDistribution.sol\":3643:3656  amount.mul(2) */\n      swap2\n      swap1\n      0xffffffff\n      and\n      jump\t// in\n    tag_187:\n        /* \"contracts/Distribution/AtlantisDistribution.sol\":3617:3626  _balances */\n      0x00\n        /* \"contracts/Distribution/AtlantisDistribution.sol\":3617:3639  _balances[fund_wallet] */\n      dup1\n        /* \"contracts/Distribution/AtlantisDistribution.sol\":3627:3638  fund_wallet */\n      0x0e\n      0x00\n      swap1\n      sload\n      swap1\n      0x0100\n      exp\n      swap1\n      div\n      0xffffffffffffffffffffffffffffffffffffffff\n      and\n        /* \"contracts/Distribution/AtlantisDistribution.sol\":3617:3639  _balances[fund_wallet] */\n      0xffffffffffffffffffffffffffffffffffffffff\n      and\n      0xffffffffffffffffffffffffffffffffffffffff\n      and\n      dup2\n      mstore\n      0x20\n      add\n      swap1\n      dup2\n      mstore\n      0x20\n      add\n      0x00\n      keccak256\n      0x00\n        /* \"contracts/Distribution/AtlantisDistribution.sol\":3617:3656  _balances[fund_wallet] += amount.mul(2) */\n      dup3\n      dup3\n      sload\n      tag_188\n      swap2\n      swap1\n      tag_138\n      jump\t// in\n    tag_188:\n      swap3\n      pop\n      pop\n      dup2\n      swap1\n      sstore\n      pop\n        /* \"contracts/Distribution/AtlantisDistribution.sol\":3667:3678  uint8 other */\n      0x00\n        /* \"contracts/Distribution/AtlantisDistribution.sol\":3685:3688  lvl */\n      0x07\n        /* \"contracts/Distribution/AtlantisDistribution.sol\":3685:3697  lvl[account] */\n      0x00\n        /* \"contracts/Distribution/AtlantisDistribution.sol\":3689:3696  account */\n      dup5\n        /* \"contracts/Distribution/AtlantisDistribution.sol\":3685:3697  lvl[account] */\n      0xffffffffffffffffffffffffffffffffffffffff\n      and\n      0xffffffffffffffffffffffffffffffffffffffff\n      and\n      dup2\n      mstore\n      0x20\n      add\n      swap1\n      dup2\n      mstore\n      0x20\n      add\n      0x00\n      keccak256\n      0x00\n      swap1\n      sload\n      swap1\n      0x0100\n      exp\n      swap1\n      div\n      0xff\n      and\n        /* \"contracts/Distribution/AtlantisDistribution.sol\":3681:3682  1 */\n      0x01\n        /* \"contracts/Distribution/AtlantisDistribution.sol\":3681:3697  1 - lvl[account] */\n      tag_189\n      swap2\n      swap1\n      tag_190\n      jump\t// in\n    tag_189:\n        /* \"contracts/Distribution/AtlantisDistribution.sol\":3667:3697  uint8 other = 1 - lvl[account] */\n      swap1\n      pop\n        /* \"contracts/Distribution/AtlantisDistribution.sol\":3726:3771  currentBC[other].mul((total[other] + amount)) */\n      tag_191\n        /* \"contracts/Distribution/AtlantisDistribution.sol\":3763:3769  amount */\n      dup3\n        /* \"contracts/Distribution/AtlantisDistribution.sol\":3748:3753  total */\n      0x0b\n        /* \"contracts/Distribution/AtlantisDistribution.sol\":3754:3759  other */\n      dup4\n        /* \"contracts/Distribution/AtlantisDistribution.sol\":3748:3760  total[other] */\n      0xff\n      and\n      0x03\n      dup2\n      lt\n      tag_192\n      jumpi\n      tag_193\n      tag_147\n      jump\t// in\n    tag_193:\n    tag_192:\n      add\n      sload\n        /* \"contracts/Distribution/AtlantisDistribution.sol\":3748:3769  total[other] + amount */\n      tag_195\n      swap2\n      swap1\n      tag_138\n      jump\t// in\n    tag_195:\n        /* \"contracts/Distribution/AtlantisDistribution.sol\":3726:3735  currentBC */\n      0x08\n        /* \"contracts/Distribution/AtlantisDistribution.sol\":3736:3741  other */\n      dup4\n        /* \"contracts/Distribution/AtlantisDistribution.sol\":3726:3742  currentBC[other] */\n      0xff\n      and\n      0x03\n      dup2\n      lt\n      tag_196\n      jumpi\n      tag_197\n      tag_147\n      jump\t// in\n    tag_197:\n    tag_196:\n      add\n      sload\n        /* \"contracts/Distribution/AtlantisDistribution.sol\":3726:3746  currentBC[other].mul */\n      tag_153\n      swap1\n        /* \"contracts/Distribution/AtlantisDistribution.sol\":3726:3771  currentBC[other].mul((total[other] + amount)) */\n      swap2\n      swap1\n      0xffffffff\n      and\n      jump\t// in\n    tag_191:\n        /* \"contracts/Distribution/AtlantisDistribution.sol\":3707:3716  currentBC */\n      0x08\n        /* \"contracts/Distribution/AtlantisDistribution.sol\":3717:3722  other */\n      dup3\n        /* \"contracts/Distribution/AtlantisDistribution.sol\":3707:3723  currentBC[other] */\n      0xff\n      and\n      0x03\n      dup2\n      lt\n      tag_199\n      jumpi\n      tag_200\n      tag_147\n      jump\t// in\n    tag_200:\n    tag_199:\n      add\n        /* \"contracts/Distribution/AtlantisDistribution.sol\":3707:3771  currentBC[other] = currentBC[other].mul((total[other] + amount)) */\n      dup2\n      swap1\n      sstore\n      pop\n        /* \"contracts/Distribution/AtlantisDistribution.sol\":3800:3834  currentBC[other].div(total[other]) */\n      tag_202\n        /* \"contracts/Distribution/AtlantisDistribution.sol\":3821:3826  total */\n      0x0b\n        /* \"contracts/Distribution/AtlantisDistribution.sol\":3827:3832  other */\n      dup3\n        /* \"contracts/Distribution/AtlantisDistribution.sol\":3821:3833  total[other] */\n      0xff\n      and\n      0x03\n      dup2\n      lt\n      tag_203\n      jumpi\n      tag_204\n      tag_147\n      jump\t// in\n    tag_204:\n    tag_203:\n      add\n      sload\n        /* \"contracts/Distribution/AtlantisDistribution.sol\":3800:3809  currentBC */\n      0x08\n        /* \"contracts/Distribution/AtlantisDistribution.sol\":3810:3815  other */\n      dup4\n        /* \"contracts/Distribution/AtlantisDistribution.sol\":3800:3816  currentBC[other] */\n      0xff\n      and\n      0x03\n      dup2\n      lt\n      tag_206\n      jumpi\n      tag_207\n      tag_147\n      jump\t// in\n    tag_207:\n    tag_206:\n      add\n      sload\n        /* \"contracts/Distribution/AtlantisDistribution.sol\":3800:3820  currentBC[other].div */\n      tag_144\n      swap1\n        /* \"contracts/Distribution/AtlantisDistribution.sol\":3800:3834  currentBC[other].div(total[other]) */\n      swap2\n      swap1\n      0xffffffff\n      and\n      jump\t// in\n    tag_202:\n        /* \"contracts/Distribution/AtlantisDistribution.sol\":3781:3790  currentBC */\n      0x08\n        /* \"contracts/Distribution/AtlantisDistribution.sol\":3791:3796  other */\n      dup3\n        /* \"contracts/Distribution/AtlantisDistribution.sol\":3781:3797  currentBC[other] */\n      0xff\n      and\n      0x03\n      dup2\n      lt\n      tag_209\n      jumpi\n      tag_210\n      tag_147\n      jump\t// in\n    tag_210:\n    tag_209:\n      add\n        /* \"contracts/Distribution/AtlantisDistribution.sol\":3781:3834  currentBC[other] = currentBC[other].div(total[other]) */\n      dup2\n      swap1\n      sstore\n      pop\n        /* \"contracts/Distribution/AtlantisDistribution.sol\":3856:3862  amount */\n      dup2\n        /* \"contracts/Distribution/AtlantisDistribution.sol\":3844:3849  total */\n      0x0b\n        /* \"contracts/Distribution/AtlantisDistribution.sol\":3850:3851  1 */\n      0x01\n        /* \"contracts/Distribution/AtlantisDistribution.sol\":3844:3852  total[1] */\n      0x03\n      dup2\n      lt\n      tag_212\n      jumpi\n      tag_213\n      tag_147\n      jump\t// in\n    tag_213:\n    tag_212:\n      add\n      0x00\n        /* \"contracts/Distribution/AtlantisDistribution.sol\":3844:3862  total[1] += amount */\n      dup3\n      dup3\n      sload\n      tag_215\n      swap2\n      swap1\n      tag_138\n      jump\t// in\n    tag_215:\n      swap3\n      pop\n      pop\n      dup2\n      swap1\n      sstore\n      pop\n        /* \"contracts/Distribution/AtlantisDistribution.sol\":3884:3890  amount */\n      dup2\n        /* \"contracts/Distribution/AtlantisDistribution.sol\":3872:3877  total */\n      0x0b\n        /* \"contracts/Distribution/AtlantisDistribution.sol\":3878:3879  2 */\n      0x02\n        /* \"contracts/Distribution/AtlantisDistribution.sol\":3872:3880  total[2] */\n      0x03\n      dup2\n      lt\n      tag_216\n      jumpi\n      tag_217\n      tag_147\n      jump\t// in\n    tag_217:\n    tag_216:\n      add\n      0x00\n        /* \"contracts/Distribution/AtlantisDistribution.sol\":3872:3890  total[2] += amount */\n      dup3\n      dup3\n      sload\n      tag_219\n      swap2\n      swap1\n      tag_138\n      jump\t// in\n    tag_219:\n      swap3\n      pop\n      pop\n      dup2\n      swap1\n      sstore\n      pop\n        /* \"contracts/Distribution/AtlantisDistribution.sol\":3917:3923  amount */\n      dup2\n        /* \"contracts/Distribution/AtlantisDistribution.sol\":3901:3913  _totalSupply */\n      0x02\n      0x00\n        /* \"contracts/Distribution/AtlantisDistribution.sol\":3901:3923  _totalSupply += amount */\n      dup3\n      dup3\n      sload\n      tag_220\n      swap2\n      swap1\n      tag_138\n      jump\t// in\n    tag_220:\n      swap3\n      pop\n      pop\n      dup2\n      swap1\n      sstore\n      pop\n        /* \"contracts/Distribution/AtlantisDistribution.sol\":3331:3930  {... */\n      pop\n        /* \"contracts/Distribution/AtlantisDistribution.sol\":3260:3930  function mintToNRS(address account, uint256 amount) external onlyOwner {... */\n      pop\n      pop\n      jump\t// out\n        /* \"contracts/Distribution/WrappedERC20Token.sol\":3118:3224  function totalSupply() public view virtual override returns (uint256) {... */\n    tag_45:\n        /* \"contracts/Distribution/WrappedERC20Token.sol\":3179:3186  uint256 */\n      0x00\n        /* \"contracts/Distribution/WrappedERC20Token.sol\":3205:3217  _totalSupply */\n      sload(0x02)\n        /* \"contracts/Distribution/WrappedERC20Token.sol\":3198:3217  return _totalSupply */\n      swap1\n      pop\n        /* \"contracts/Distribution/WrappedERC20Token.sol\":3118:3224  function totalSupply() public view virtual override returns (uint256) {... */\n      swap1\n      jump\t// out\n        /* \"contracts/Distribution/AtlantisDistribution.sol\":4518:4665  function transferFrom(address sender, address recipient, uint256 amount) public override returns (bool) {... */\n    tag_51:\n        /* \"contracts/Distribution/AtlantisDistribution.sol\":4616:4620  bool */\n      0x00\n        /* \"contracts/Distribution/AtlantisDistribution.sol\":4654:4658  true */\n      0x01\n        /* \"contracts/Distribution/AtlantisDistribution.sol\":4647:4658  return true */\n      swap1\n      pop\n        /* \"contracts/Distribution/AtlantisDistribution.sol\":4518:4665  function transferFrom(address sender, address recipient, uint256 amount) public override returns (bool) {... */\n      swap4\n      swap3\n      pop\n      pop\n      pop\n      jump\t// out\n        /* \"contracts/Distribution/WrappedERC20Token.sol\":2976:3058  function decimals() public view virtual returns (uint8) {... */\n    tag_54:\n        /* \"contracts/Distribution/WrappedERC20Token.sol\":3025:3030  uint8 */\n      0x00\n        /* \"contracts/Distribution/WrappedERC20Token.sol\":3049:3051  18 */\n      0x12\n        /* \"contracts/Distribution/WrappedERC20Token.sol\":3042:3051  return 18 */\n      swap1\n      pop\n        /* \"contracts/Distribution/WrappedERC20Token.sol\":2976:3058  function decimals() public view virtual returns (uint8) {... */\n      swap1\n      jump\t// out\n        /* \"contracts/Distribution/WrappedERC20Token.sol\":5569:5781  function increaseAllowance(address spender, uint256 addedValue) public virtual returns (bool) {... */\n    tag_59:\n        /* \"contracts/Distribution/WrappedERC20Token.sol\":5657:5661  bool */\n      0x00\n        /* \"contracts/Distribution/WrappedERC20Token.sol\":5673:5753  _approve(_msgSender(), spender, _allowances[_msgSender()][spender] + addedValue) */\n      tag_225\n        /* \"contracts/Distribution/WrappedERC20Token.sol\":5682:5694  _msgSender() */\n      tag_226\n        /* \"contracts/Distribution/WrappedERC20Token.sol\":5682:5692  _msgSender */\n      tag_125\n        /* \"contracts/Distribution/WrappedERC20Token.sol\":5682:5694  _msgSender() */\n      jump\t// in\n    tag_226:\n        /* \"contracts/Distribution/WrappedERC20Token.sol\":5696:5703  spender */\n      dup5\n        /* \"contracts/Distribution/WrappedERC20Token.sol\":5742:5752  addedValue */\n      dup5\n        /* \"contracts/Distribution/WrappedERC20Token.sol\":5705:5716  _allowances */\n      0x01\n        /* \"contracts/Distribution/WrappedERC20Token.sol\":5705:5730  _allowances[_msgSender()] */\n      0x00\n        /* \"contracts/Distribution/WrappedERC20Token.sol\":5717:5729  _msgSender() */\n      tag_227\n        /* \"contracts/Distribution/WrappedERC20Token.sol\":5717:5727  _msgSender */\n      tag_125\n        /* \"contracts/Distribution/WrappedERC20Token.sol\":5717:5729  _msgSender() */\n      jump\t// in\n    tag_227:\n        /* \"contracts/Distribution/WrappedERC20Token.sol\":5705:5730  _allowances[_msgSender()] */\n      0xffffffffffffffffffffffffffffffffffffffff\n      and\n      0xffffffffffffffffffffffffffffffffffffffff\n      and\n      dup2\n      mstore\n      0x20\n      add\n      swap1\n      dup2\n      mstore\n      0x20\n      add\n      0x00\n      keccak256\n        /* \"contracts/Distribution/WrappedERC20Token.sol\":5705:5739  _allowances[_msgSender()][spender] */\n      0x00\n        /* \"contracts/Distribution/WrappedERC20Token.sol\":5731:5738  spender */\n      dup9\n        /* \"contracts/Distribution/WrappedERC20Token.sol\":5705:5739  _allowances[_msgSender()][spender] */\n      0xffffffffffffffffffffffffffffffffffffffff\n      and\n      0xffffffffffffffffffffffffffffffffffffffff\n      and\n      dup2\n      mstore\n      0x20\n      add\n      swap1\n      dup2\n      mstore\n      0x20\n      add\n      0x00\n      keccak256\n      sload\n        /* \"contracts/Distribution/WrappedERC20Token.sol\":5705:5752  _allowances[_msgSender()][spender] + addedValue */\n      tag_228\n      swap2\n      swap1\n      tag_138\n      jump\t// in\n    tag_228:\n        /* \"contracts/Distribution/WrappedERC20Token.sol\":5673:5681  _approve */\n      tag_126\n        /* \"contracts/Distribution/WrappedERC20Token.sol\":5673:5753  _approve(_msgSender(), spender, _allowances[_msgSender()][spender] + addedValue) */\n      jump\t// in\n    tag_225:\n        /* \"contracts/Distribution/WrappedERC20Token.sol\":5770:5774  true */\n      0x01\n        /* \"contracts/Distribution/WrappedERC20Token.sol\":5763:5774  return true */\n      swap1\n      pop\n        /* \"contracts/Distribution/WrappedERC20Token.sol\":5569:5781  function increaseAllowance(address spender, uint256 addedValue) public virtual returns (bool) {... */\n      swap3\n      swap2\n      pop\n      pop\n      jump\t// out\n        /* \"contracts/Distribution/AtlantisDistribution.sol\":486:524  mapping (address => uint256) public BC */\n    tag_64:\n      mstore(0x20, 0x06)\n      dup1\n      0x00\n      mstore\n      keccak256(0x00, 0x40)\n      0x00\n      swap2\n      pop\n      swap1\n      pop\n      sload\n      dup2\n      jump\t// out\n        /* \"contracts/Distribution/AtlantisDistribution.sol\":1346:1581  function balanceOf(address account) public view override returns (uint256) {... */\n    tag_68:\n        /* \"contracts/Distribution/AtlantisDistribution.sol\":1412:1419  uint256 */\n      0x00\n        /* \"contracts/Distribution/AtlantisDistribution.sol\":1451:1452  0 */\n      dup1\n        /* \"contracts/Distribution/AtlantisDistribution.sol\":1435:1438  lvl */\n      0x07\n        /* \"contracts/Distribution/AtlantisDistribution.sol\":1435:1447  lvl[account] */\n      0x00\n        /* \"contracts/Distribution/AtlantisDistribution.sol\":1439:1446  account */\n      dup5\n        /* \"contracts/Distribution/AtlantisDistribution.sol\":1435:1447  lvl[account] */\n      0xffffffffffffffffffffffffffffffffffffffff\n      and\n      0xffffffffffffffffffffffffffffffffffffffff\n      and\n      dup2\n      mstore\n      0x20\n      add\n      swap1\n      dup2\n      mstore\n      0x20\n      add\n      0x00\n      keccak256\n      0x00\n      swap1\n      sload\n      swap1\n      0x0100\n      exp\n      swap1\n      div\n      0xff\n      and\n        /* \"contracts/Distribution/AtlantisDistribution.sol\":1435:1452  lvl[account] == 0 */\n      0xff\n      and\n      sub\n        /* \"contracts/Distribution/AtlantisDistribution.sol\":1431:1491  if (lvl[account] == 0)... */\n      tag_230\n      jumpi\n        /* \"contracts/Distribution/AtlantisDistribution.sol\":1473:1482  _balances */\n      0x00\n        /* \"contracts/Distribution/AtlantisDistribution.sol\":1473:1491  _balances[account] */\n      dup1\n        /* \"contracts/Distribution/AtlantisDistribution.sol\":1483:1490  account */\n      dup4\n        /* \"contracts/Distribution/AtlantisDistribution.sol\":1473:1491  _balances[account] */\n      0xffffffffffffffffffffffffffffffffffffffff\n      and\n      0xffffffffffffffffffffffffffffffffffffffff\n      and\n      dup2\n      mstore\n      0x20\n      add\n      swap1\n      dup2\n      mstore\n      0x20\n      add\n      0x00\n      keccak256\n      sload\n        /* \"contracts/Distribution/AtlantisDistribution.sol\":1466:1491  return _balances[account] */\n      swap1\n      pop\n      jump(tag_229)\n        /* \"contracts/Distribution/AtlantisDistribution.sol\":1431:1491  if (lvl[account] == 0)... */\n    tag_230:\n        /* \"contracts/Distribution/AtlantisDistribution.sol\":1508:1574  (currentBC[lvl[account]].mul(_balances[account])).div(BC[account]) */\n      tag_231\n        /* \"contracts/Distribution/AtlantisDistribution.sol\":1562:1564  BC */\n      0x06\n        /* \"contracts/Distribution/AtlantisDistribution.sol\":1562:1573  BC[account] */\n      0x00\n        /* \"contracts/Distribution/AtlantisDistribution.sol\":1565:1572  account */\n      dup5\n        /* \"contracts/Distribution/AtlantisDistribution.sol\":1562:1573  BC[account] */\n      0xffffffffffffffffffffffffffffffffffffffff\n      and\n      0xffffffffffffffffffffffffffffffffffffffff\n      and\n      dup2\n      mstore\n      0x20\n      add\n      swap1\n      dup2\n      mstore\n      0x20\n      add\n      0x00\n      keccak256\n      sload\n        /* \"contracts/Distribution/AtlantisDistribution.sol\":1509:1556  currentBC[lvl[account]].mul(_balances[account]) */\n      tag_232\n        /* \"contracts/Distribution/AtlantisDistribution.sol\":1537:1546  _balances */\n      0x00\n        /* \"contracts/Distribution/AtlantisDistribution.sol\":1537:1555  _balances[account] */\n      dup1\n        /* \"contracts/Distribution/AtlantisDistribution.sol\":1547:1554  account */\n      dup7\n        /* \"contracts/Distribution/AtlantisDistribution.sol\":1537:1555  _balances[account] */\n      0xffffffffffffffffffffffffffffffffffffffff\n      and\n      0xffffffffffffffffffffffffffffffffffffffff\n      and\n      dup2\n      mstore\n      0x20\n      add\n      swap1\n      dup2\n      mstore\n      0x20\n      add\n      0x00\n      keccak256\n      sload\n        /* \"contracts/Distribution/AtlantisDistribution.sol\":1509:1518  currentBC */\n      0x08\n        /* \"contracts/Distribution/AtlantisDistribution.sol\":1519:1522  lvl */\n      0x07\n        /* \"contracts/Distribution/AtlantisDistribution.sol\":1519:1531  lvl[account] */\n      0x00\n        /* \"contracts/Distribution/AtlantisDistribution.sol\":1523:1530  account */\n      dup9\n        /* \"contracts/Distribution/AtlantisDistribution.sol\":1519:1531  lvl[account] */\n      0xffffffffffffffffffffffffffffffffffffffff\n      and\n      0xffffffffffffffffffffffffffffffffffffffff\n      and\n      dup2\n      mstore\n      0x20\n      add\n      swap1\n      dup2\n      mstore\n      0x20\n      add\n      0x00\n      keccak256\n      0x00\n      swap1\n      sload\n      swap1\n      0x0100\n      exp\n      swap1\n      div\n      0xff\n      and\n        /* \"contracts/Distribution/AtlantisDistribution.sol\":1509:1532  currentBC[lvl[account]] */\n      0xff\n      and\n      0x03\n      dup2\n      lt\n      tag_233\n      jumpi\n      tag_234\n      tag_147\n      jump\t// in\n    tag_234:\n    tag_233:\n      add\n      sload\n        /* \"contracts/Distribution/AtlantisDistribution.sol\":1509:1536  currentBC[lvl[account]].mul */\n      tag_153\n      swap1\n        /* \"contracts/Distribution/AtlantisDistribution.sol\":1509:1556  currentBC[lvl[account]].mul(_balances[account]) */\n      swap2\n      swap1\n      0xffffffff\n      and\n      jump\t// in\n    tag_232:\n        /* \"contracts/Distribution/AtlantisDistribution.sol\":1508:1561  (currentBC[lvl[account]].mul(_balances[account])).div */\n      tag_144\n      swap1\n        /* \"contracts/Distribution/AtlantisDistribution.sol\":1508:1574  (currentBC[lvl[account]].mul(_balances[account])).div(BC[account]) */\n      swap2\n      swap1\n      0xffffffff\n      and\n      jump\t// in\n    tag_231:\n        /* \"contracts/Distribution/AtlantisDistribution.sol\":1501:1574  return (currentBC[lvl[account]].mul(_balances[account])).div(BC[account]) */\n      swap1\n      pop\n        /* \"contracts/Distribution/AtlantisDistribution.sol\":1346:1581  function balanceOf(address account) public view override returns (uint256) {... */\n    tag_229:\n      swap2\n      swap1\n      pop\n      jump\t// out\n        /* \"@openzeppelin/contracts/access/Ownable.sol\":1605:1697  function renounceOwnership() public virtual onlyOwner {... */\n    tag_71:\n        /* \"@openzeppelin/contracts/access/Ownable.sol\":1196:1208  _msgSender() */\n      tag_237\n        /* \"@openzeppelin/contracts/access/Ownable.sol\":1196:1206  _msgSender */\n      tag_125\n        /* \"@openzeppelin/contracts/access/Ownable.sol\":1196:1208  _msgSender() */\n      jump\t// in\n    tag_237:\n        /* \"@openzeppelin/contracts/access/Ownable.sol\":1185:1208  owner() == _msgSender() */\n      0xffffffffffffffffffffffffffffffffffffffff\n      and\n        /* \"@openzeppelin/contracts/access/Ownable.sol\":1185:1192  owner() */\n      tag_238\n        /* \"@openzeppelin/contracts/access/Ownable.sol\":1185:1190  owner */\n      tag_77\n        /* \"@openzeppelin/contracts/access/Ownable.sol\":1185:1192  owner() */\n      jump\t// in\n    tag_238:\n        /* \"@openzeppelin/contracts/access/Ownable.sol\":1185:1208  owner() == _msgSender() */\n      0xffffffffffffffffffffffffffffffffffffffff\n      and\n      eq\n        /* \"@openzeppelin/contracts/access/Ownable.sol\":1177:1245  require(owner() == _msgSender(), \"Ownable: caller is not the owner\") */\n      tag_239\n      jumpi\n      mload(0x40)\n      0x08c379a000000000000000000000000000000000000000000000000000000000\n      dup2\n      mstore\n      0x04\n      add\n      tag_240\n      swap1\n      tag_132\n      jump\t// in\n    tag_240:\n      mload(0x40)\n      dup1\n      swap2\n      sub\n      swap1\n      revert\n    tag_239:\n        /* \"@openzeppelin/contracts/access/Ownable.sol\":1669:1690  _setOwner(address(0)) */\n      tag_242\n        /* \"@openzeppelin/contracts/access/Ownable.sol\":1687:1688  0 */\n      0x00\n        /* \"@openzeppelin/contracts/access/Ownable.sol\":1669:1678  _setOwner */\n      tag_243\n        /* \"@openzeppelin/contracts/access/Ownable.sol\":1669:1690  _setOwner(address(0)) */\n      jump\t// in\n    tag_242:\n        /* \"@openzeppelin/contracts/access/Ownable.sol\":1605:1697  function renounceOwnership() public virtual onlyOwner {... */\n      jump\t// out\n        /* \"contracts/Distribution/AtlantisDistribution.sol\":587:624  mapping (address => uint8) public lvl */\n    tag_74:\n      mstore(0x20, 0x07)\n      dup1\n      0x00\n      mstore\n      keccak256(0x00, 0x40)\n      0x00\n      swap2\n      pop\n      sload\n      swap1\n      0x0100\n      exp\n      swap1\n      div\n      0xff\n      and\n      dup2\n      jump\t// out\n        /* \"@openzeppelin/contracts/access/Ownable.sol\":973:1058  function owner() public view virtual returns (address) {... */\n    tag_77:\n        /* \"@openzeppelin/contracts/access/Ownable.sol\":1019:1026  address */\n      0x00\n        /* \"@openzeppelin/contracts/access/Ownable.sol\":1045:1051  _owner */\n      0x05\n      0x00\n      swap1\n      sload\n      swap1\n      0x0100\n      exp\n      swap1\n      div\n      0xffffffffffffffffffffffffffffffffffffffff\n      and\n        /* \"@openzeppelin/contracts/access/Ownable.sol\":1038:1051  return _owner */\n      swap1\n      pop\n        /* \"@openzeppelin/contracts/access/Ownable.sol\":973:1058  function owner() public view virtual returns (address) {... */\n      swap1\n      jump\t// out\n        /* \"contracts/Distribution/WrappedERC20Token.sol\":2259:2352  function symbol() public view virtual returns (string memory) {... */\n    tag_81:\n        /* \"contracts/Distribution/WrappedERC20Token.sol\":2306:2319  string memory */\n      0x60\n        /* \"contracts/Distribution/WrappedERC20Token.sol\":2338:2345  _symbol */\n      0x04\n        /* \"contracts/Distribution/WrappedERC20Token.sol\":2331:2345  return _symbol */\n      dup1\n      sload\n      tag_246\n      swap1\n      tag_117\n      jump\t// in\n    tag_246:\n      dup1\n      0x1f\n      add\n      0x20\n      dup1\n      swap2\n      div\n      mul\n      0x20\n      add\n      mload(0x40)\n      swap1\n      dup2\n      add\n      0x40\n      mstore\n      dup1\n      swap3\n      swap2\n      swap1\n      dup2\n      dup2\n      mstore\n      0x20\n      add\n      dup3\n      dup1\n      sload\n      tag_247\n      swap1\n      tag_117\n      jump\t// in\n    tag_247:\n      dup1\n      iszero\n      tag_248\n      jumpi\n      dup1\n      0x1f\n      lt\n      tag_249\n      jumpi\n      0x0100\n      dup1\n      dup4\n      sload\n      div\n      mul\n      dup4\n      mstore\n      swap2\n      0x20\n      add\n      swap2\n      jump(tag_248)\n    tag_249:\n      dup3\n      add\n      swap2\n      swap1\n      0x00\n      mstore\n      keccak256(0x00, 0x20)\n      swap1\n    tag_250:\n      dup2\n      sload\n      dup2\n      mstore\n      swap1\n      0x01\n      add\n      swap1\n      0x20\n      add\n      dup1\n      dup4\n      gt\n      tag_250\n      jumpi\n      dup3\n      swap1\n      sub\n      0x1f\n      and\n      dup3\n      add\n      swap2\n    tag_248:\n      pop\n      pop\n      pop\n      pop\n      pop\n      swap1\n      pop\n        /* \"contracts/Distribution/WrappedERC20Token.sol\":2259:2352  function symbol() public view virtual returns (string memory) {... */\n      swap1\n      jump\t// out\n        /* \"contracts/Distribution/AtlantisDistribution.sol\":1843:2520  function mint(uint256 amount) external onlyOwner {... */\n    tag_86:\n        /* \"@openzeppelin/contracts/access/Ownable.sol\":1196:1208  _msgSender() */\n      tag_252\n        /* \"@openzeppelin/contracts/access/Ownable.sol\":1196:1206  _msgSender */\n      tag_125\n        /* \"@openzeppelin/contracts/access/Ownable.sol\":1196:1208  _msgSender() */\n      jump\t// in\n    tag_252:\n        /* \"@openzeppelin/contracts/access/Ownable.sol\":1185:1208  owner() == _msgSender() */\n      0xffffffffffffffffffffffffffffffffffffffff\n      and\n        /* \"@openzeppelin/contracts/access/Ownable.sol\":1185:1192  owner() */\n      tag_253\n        /* \"@openzeppelin/contracts/access/Ownable.sol\":1185:1190  owner */\n      tag_77\n        /* \"@openzeppelin/contracts/access/Ownable.sol\":1185:1192  owner() */\n      jump\t// in\n    tag_253:\n        /* \"@openzeppelin/contracts/access/Ownable.sol\":1185:1208  owner() == _msgSender() */\n      0xffffffffffffffffffffffffffffffffffffffff\n      and\n      eq\n        /* \"@openzeppelin/contracts/access/Ownable.sol\":1177:1245  require(owner() == _msgSender(), \"Ownable: caller is not the owner\") */\n      tag_254\n      jumpi\n      mload(0x40)\n      0x08c379a000000000000000000000000000000000000000000000000000000000\n      dup2\n      mstore\n      0x04\n      add\n      tag_255\n      swap1\n      tag_132\n      jump\t// in\n    tag_255:\n      mload(0x40)\n      dup1\n      swap2\n      sub\n      swap1\n      revert\n    tag_254:\n        /* \"contracts/Distribution/AtlantisDistribution.sol\":2053:2054  0 */\n      0x00\n        /* \"contracts/Distribution/AtlantisDistribution.sol\":2041:2046  total */\n      0x0b\n        /* \"contracts/Distribution/AtlantisDistribution.sol\":2047:2048  2 */\n      0x02\n        /* \"contracts/Distribution/AtlantisDistribution.sol\":2041:2049  total[2] */\n      0x03\n      dup2\n      lt\n      tag_257\n      jumpi\n      tag_258\n      tag_147\n      jump\t// in\n    tag_258:\n    tag_257:\n      add\n      sload\n        /* \"contracts/Distribution/AtlantisDistribution.sol\":2041:2054  total[2] != 0 */\n      eq\n        /* \"contracts/Distribution/AtlantisDistribution.sol\":2037:2195  if (total[2] != 0) {... */\n      tag_260\n      jumpi\n        /* \"contracts/Distribution/AtlantisDistribution.sol\":2085:2129  currentBC[2].mul((total[2] + amount.div(4))) */\n      tag_261\n        /* \"contracts/Distribution/AtlantisDistribution.sol\":2114:2127  amount.div(4) */\n      tag_262\n        /* \"contracts/Distribution/AtlantisDistribution.sol\":2125:2126  4 */\n      0x04\n        /* \"contracts/Distribution/AtlantisDistribution.sol\":2114:2120  amount */\n      dup4\n        /* \"contracts/Distribution/AtlantisDistribution.sol\":2114:2124  amount.div */\n      tag_144\n      swap1\n        /* \"contracts/Distribution/AtlantisDistribution.sol\":2114:2127  amount.div(4) */\n      swap2\n      swap1\n      0xffffffff\n      and\n      jump\t// in\n    tag_262:\n        /* \"contracts/Distribution/AtlantisDistribution.sol\":2103:2108  total */\n      0x0b\n        /* \"contracts/Distribution/AtlantisDistribution.sol\":2109:2110  2 */\n      0x02\n        /* \"contracts/Distribution/AtlantisDistribution.sol\":2103:2111  total[2] */\n      0x03\n      dup2\n      lt\n      tag_263\n      jumpi\n      tag_264\n      tag_147\n      jump\t// in\n    tag_264:\n    tag_263:\n      add\n      sload\n        /* \"contracts/Distribution/AtlantisDistribution.sol\":2103:2127  total[2] + amount.div(4) */\n      tag_266\n      swap2\n      swap1\n      tag_138\n      jump\t// in\n    tag_266:\n        /* \"contracts/Distribution/AtlantisDistribution.sol\":2085:2094  currentBC */\n      0x08\n        /* \"contracts/Distribution/AtlantisDistribution.sol\":2095:2096  2 */\n      0x02\n        /* \"contracts/Distribution/AtlantisDistribution.sol\":2085:2097  currentBC[2] */\n      0x03\n      dup2\n      lt\n      tag_267\n      jumpi\n      tag_268\n      tag_147\n      jump\t// in\n    tag_268:\n    tag_267:\n      add\n      sload\n        /* \"contracts/Distribution/AtlantisDistribution.sol\":2085:2101  currentBC[2].mul */\n      tag_153\n      swap1\n        /* \"contracts/Distribution/AtlantisDistribution.sol\":2085:2129  currentBC[2].mul((total[2] + amount.div(4))) */\n      swap2\n      swap1\n      0xffffffff\n      and\n      jump\t// in\n    tag_261:\n        /* \"contracts/Distribution/AtlantisDistribution.sol\":2070:2079  currentBC */\n      0x08\n        /* \"contracts/Distribution/AtlantisDistribution.sol\":2080:2081  2 */\n      0x02\n        /* \"contracts/Distribution/AtlantisDistribution.sol\":2070:2082  currentBC[2] */\n      0x03\n      dup2\n      lt\n      tag_270\n      jumpi\n      tag_271\n      tag_147\n      jump\t// in\n    tag_271:\n    tag_270:\n      add\n        /* \"contracts/Distribution/AtlantisDistribution.sol\":2070:2129  currentBC[2] = currentBC[2].mul((total[2] + amount.div(4))) */\n      dup2\n      swap1\n      sstore\n      pop\n        /* \"contracts/Distribution/AtlantisDistribution.sol\":2158:2184  currentBC[2].div(total[2]) */\n      tag_273\n        /* \"contracts/Distribution/AtlantisDistribution.sol\":2175:2180  total */\n      0x0b\n        /* \"contracts/Distribution/AtlantisDistribution.sol\":2181:2182  2 */\n      0x02\n        /* \"contracts/Distribution/AtlantisDistribution.sol\":2175:2183  total[2] */\n      0x03\n      dup2\n      lt\n      tag_274\n      jumpi\n      tag_275\n      tag_147\n      jump\t// in\n    tag_275:\n    tag_274:\n      add\n      sload\n        /* \"contracts/Distribution/AtlantisDistribution.sol\":2158:2167  currentBC */\n      0x08\n        /* \"contracts/Distribution/AtlantisDistribution.sol\":2168:2169  2 */\n      0x02\n        /* \"contracts/Distribution/AtlantisDistribution.sol\":2158:2170  currentBC[2] */\n      0x03\n      dup2\n      lt\n      tag_277\n      jumpi\n      tag_278\n      tag_147\n      jump\t// in\n    tag_278:\n    tag_277:\n      add\n      sload\n        /* \"contracts/Distribution/AtlantisDistribution.sol\":2158:2174  currentBC[2].div */\n      tag_144\n      swap1\n        /* \"contracts/Distribution/AtlantisDistribution.sol\":2158:2184  currentBC[2].div(total[2]) */\n      swap2\n      swap1\n      0xffffffff\n      and\n      jump\t// in\n    tag_273:\n        /* \"contracts/Distribution/AtlantisDistribution.sol\":2143:2152  currentBC */\n      0x08\n        /* \"contracts/Distribution/AtlantisDistribution.sol\":2153:2154  2 */\n      0x02\n        /* \"contracts/Distribution/AtlantisDistribution.sol\":2143:2155  currentBC[2] */\n      0x03\n      dup2\n      lt\n      tag_280\n      jumpi\n      tag_281\n      tag_147\n      jump\t// in\n    tag_281:\n    tag_280:\n      add\n        /* \"contracts/Distribution/AtlantisDistribution.sol\":2143:2184  currentBC[2] = currentBC[2].div(total[2]) */\n      dup2\n      swap1\n      sstore\n      pop\n        /* \"contracts/Distribution/AtlantisDistribution.sol\":2037:2195  if (total[2] != 0) {... */\n    tag_260:\n        /* \"contracts/Distribution/AtlantisDistribution.sol\":2220:2221  0 */\n      0x00\n        /* \"contracts/Distribution/AtlantisDistribution.sol\":2208:2213  total */\n      0x0b\n        /* \"contracts/Distribution/AtlantisDistribution.sol\":2214:2215  1 */\n      0x01\n        /* \"contracts/Distribution/AtlantisDistribution.sol\":2208:2216  total[1] */\n      0x03\n      dup2\n      lt\n      tag_283\n      jumpi\n      tag_284\n      tag_147\n      jump\t// in\n    tag_284:\n    tag_283:\n      add\n      sload\n        /* \"contracts/Distribution/AtlantisDistribution.sol\":2208:2221  total[1] != 0 */\n      eq\n        /* \"contracts/Distribution/AtlantisDistribution.sol\":2204:2362  if (total[1] != 0) {... */\n      tag_286\n      jumpi\n        /* \"contracts/Distribution/AtlantisDistribution.sol\":2252:2296  currentBC[1].mul((total[1] + amount.div(4))) */\n      tag_287\n        /* \"contracts/Distribution/AtlantisDistribution.sol\":2281:2294  amount.div(4) */\n      tag_288\n        /* \"contracts/Distribution/AtlantisDistribution.sol\":2292:2293  4 */\n      0x04\n        /* \"contracts/Distribution/AtlantisDistribution.sol\":2281:2287  amount */\n      dup4\n        /* \"contracts/Distribution/AtlantisDistribution.sol\":2281:2291  amount.div */\n      tag_144\n      swap1\n        /* \"contracts/Distribution/AtlantisDistribution.sol\":2281:2294  amount.div(4) */\n      swap2\n      swap1\n      0xffffffff\n      and\n      jump\t// in\n    tag_288:\n        /* \"contracts/Distribution/AtlantisDistribution.sol\":2270:2275  total */\n      0x0b\n        /* \"contracts/Distribution/AtlantisDistribution.sol\":2276:2277  1 */\n      0x01\n        /* \"contracts/Distribution/AtlantisDistribution.sol\":2270:2278  total[1] */\n      0x03\n      dup2\n      lt\n      tag_289\n      jumpi\n      tag_290\n      tag_147\n      jump\t// in\n    tag_290:\n    tag_289:\n      add\n      sload\n        /* \"contracts/Distribution/AtlantisDistribution.sol\":2270:2294  total[1] + amount.div(4) */\n      tag_292\n      swap2\n      swap1\n      tag_138\n      jump\t// in\n    tag_292:\n        /* \"contracts/Distribution/AtlantisDistribution.sol\":2252:2261  currentBC */\n      0x08\n        /* \"contracts/Distribution/AtlantisDistribution.sol\":2262:2263  1 */\n      0x01\n        /* \"contracts/Distribution/AtlantisDistribution.sol\":2252:2264  currentBC[1] */\n      0x03\n      dup2\n      lt\n      tag_293\n      jumpi\n      tag_294\n      tag_147\n      jump\t// in\n    tag_294:\n    tag_293:\n      add\n      sload\n        /* \"contracts/Distribution/AtlantisDistribution.sol\":2252:2268  currentBC[1].mul */\n      tag_153\n      swap1\n        /* \"contracts/Distribution/AtlantisDistribution.sol\":2252:2296  currentBC[1].mul((total[1] + amount.div(4))) */\n      swap2\n      swap1\n      0xffffffff\n      and\n      jump\t// in\n    tag_287:\n        /* \"contracts/Distribution/AtlantisDistribution.sol\":2237:2246  currentBC */\n      0x08\n        /* \"contracts/Distribution/AtlantisDistribution.sol\":2247:2248  1 */\n      0x01\n        /* \"contracts/Distribution/AtlantisDistribution.sol\":2237:2249  currentBC[1] */\n      0x03\n      dup2\n      lt\n      tag_296\n      jumpi\n      tag_297\n      tag_147\n      jump\t// in\n    tag_297:\n    tag_296:\n      add\n        /* \"contracts/Distribution/AtlantisDistribution.sol\":2237:2296  currentBC[1] = currentBC[1].mul((total[1] + amount.div(4))) */\n      dup2\n      swap1\n      sstore\n      pop\n        /* \"contracts/Distribution/AtlantisDistribution.sol\":2325:2351  currentBC[1].div(total[1]) */\n      tag_299\n        /* \"contracts/Distribution/AtlantisDistribution.sol\":2342:2347  total */\n      0x0b\n        /* \"contracts/Distribution/AtlantisDistribution.sol\":2348:2349  1 */\n      0x01\n        /* \"contracts/Distribution/AtlantisDistribution.sol\":2342:2350  total[1] */\n      0x03\n      dup2\n      lt\n      tag_300\n      jumpi\n      tag_301\n      tag_147\n      jump\t// in\n    tag_301:\n    tag_300:\n      add\n      sload\n        /* \"contracts/Distribution/AtlantisDistribution.sol\":2325:2334  currentBC */\n      0x08\n        /* \"contracts/Distribution/AtlantisDistribution.sol\":2335:2336  1 */\n      0x01\n        /* \"contracts/Distribution/AtlantisDistribution.sol\":2325:2337  currentBC[1] */\n      0x03\n      dup2\n      lt\n      tag_303\n      jumpi\n      tag_304\n      tag_147\n      jump\t// in\n    tag_304:\n    tag_303:\n      add\n      sload\n        /* \"contracts/Distribution/AtlantisDistribution.sol\":2325:2341  currentBC[1].div */\n      tag_144\n      swap1\n        /* \"contracts/Distribution/AtlantisDistribution.sol\":2325:2351  currentBC[1].div(total[1]) */\n      swap2\n      swap1\n      0xffffffff\n      and\n      jump\t// in\n    tag_299:\n        /* \"contracts/Distribution/AtlantisDistribution.sol\":2310:2319  currentBC */\n      0x08\n        /* \"contracts/Distribution/AtlantisDistribution.sol\":2320:2321  1 */\n      0x01\n        /* \"contracts/Distribution/AtlantisDistribution.sol\":2310:2322  currentBC[1] */\n      0x03\n      dup2\n      lt\n      tag_306\n      jumpi\n      tag_307\n      tag_147\n      jump\t// in\n    tag_307:\n    tag_306:\n      add\n        /* \"contracts/Distribution/AtlantisDistribution.sol\":2310:2351  currentBC[1] = currentBC[1].div(total[1]) */\n      dup2\n      swap1\n      sstore\n      pop\n        /* \"contracts/Distribution/AtlantisDistribution.sol\":2204:2362  if (total[1] != 0) {... */\n    tag_286:\n        /* \"contracts/Distribution/AtlantisDistribution.sol\":2397:2410  amount.div(2) */\n      tag_309\n        /* \"contracts/Distribution/AtlantisDistribution.sol\":2408:2409  2 */\n      0x02\n        /* \"contracts/Distribution/AtlantisDistribution.sol\":2397:2403  amount */\n      dup3\n        /* \"contracts/Distribution/AtlantisDistribution.sol\":2397:2407  amount.div */\n      tag_144\n      swap1\n        /* \"contracts/Distribution/AtlantisDistribution.sol\":2397:2410  amount.div(2) */\n      swap2\n      swap1\n      0xffffffff\n      and\n      jump\t// in\n    tag_309:\n        /* \"contracts/Distribution/AtlantisDistribution.sol\":2371:2380  _balances */\n      0x00\n        /* \"contracts/Distribution/AtlantisDistribution.sol\":2371:2393  _balances[fund_wallet] */\n      dup1\n        /* \"contracts/Distribution/AtlantisDistribution.sol\":2381:2392  fund_wallet */\n      0x0e\n      0x00\n      swap1\n      sload\n      swap1\n      0x0100\n      exp\n      swap1\n      div\n      0xffffffffffffffffffffffffffffffffffffffff\n      and\n        /* \"contracts/Distribution/AtlantisDistribution.sol\":2371:2393  _balances[fund_wallet] */\n      0xffffffffffffffffffffffffffffffffffffffff\n      and\n      0xffffffffffffffffffffffffffffffffffffffff\n      and\n      dup2\n      mstore\n      0x20\n      add\n      swap1\n      dup2\n      mstore\n      0x20\n      add\n      0x00\n      keccak256\n      0x00\n        /* \"contracts/Distribution/AtlantisDistribution.sol\":2371:2410  _balances[fund_wallet] += amount.div(2) */\n      dup3\n      dup3\n      sload\n      tag_310\n      swap2\n      swap1\n      tag_138\n      jump\t// in\n    tag_310:\n      swap3\n      pop\n      pop\n      dup2\n      swap1\n      sstore\n      pop\n        /* \"contracts/Distribution/AtlantisDistribution.sol\":2432:2445  amount.div(4) */\n      tag_311\n        /* \"contracts/Distribution/AtlantisDistribution.sol\":2443:2444  4 */\n      0x04\n        /* \"contracts/Distribution/AtlantisDistribution.sol\":2432:2438  amount */\n      dup3\n        /* \"contracts/Distribution/AtlantisDistribution.sol\":2432:2442  amount.div */\n      tag_144\n      swap1\n        /* \"contracts/Distribution/AtlantisDistribution.sol\":2432:2445  amount.div(4) */\n      swap2\n      swap1\n      0xffffffff\n      and\n      jump\t// in\n    tag_311:\n        /* \"contracts/Distribution/AtlantisDistribution.sol\":2420:2425  total */\n      0x0b\n        /* \"contracts/Distribution/AtlantisDistribution.sol\":2426:2427  1 */\n      0x01\n        /* \"contracts/Distribution/AtlantisDistribution.sol\":2420:2428  total[1] */\n      0x03\n      dup2\n      lt\n      tag_312\n      jumpi\n      tag_313\n      tag_147\n      jump\t// in\n    tag_313:\n    tag_312:\n      add\n      0x00\n        /* \"contracts/Distribution/AtlantisDistribution.sol\":2420:2445  total[1] += amount.div(4) */\n      dup3\n      dup3\n      sload\n      tag_315\n      swap2\n      swap1\n      tag_138\n      jump\t// in\n    tag_315:\n      swap3\n      pop\n      pop\n      dup2\n      swap1\n      sstore\n      pop\n        /* \"contracts/Distribution/AtlantisDistribution.sol\":2467:2480  amount.div(4) */\n      tag_316\n        /* \"contracts/Distribution/AtlantisDistribution.sol\":2478:2479  4 */\n      0x04\n        /* \"contracts/Distribution/AtlantisDistribution.sol\":2467:2473  amount */\n      dup3\n        /* \"contracts/Distribution/AtlantisDistribution.sol\":2467:2477  amount.div */\n      tag_144\n      swap1\n        /* \"contracts/Distribution/AtlantisDistribution.sol\":2467:2480  amount.div(4) */\n      swap2\n      swap1\n      0xffffffff\n      and\n      jump\t// in\n    tag_316:\n        /* \"contracts/Distribution/AtlantisDistribution.sol\":2455:2460  total */\n      0x0b\n        /* \"contracts/Distribution/AtlantisDistribution.sol\":2461:2462  2 */\n      0x02\n        /* \"contracts/Distribution/AtlantisDistribution.sol\":2455:2463  total[2] */\n      0x03\n      dup2\n      lt\n      tag_317\n      jumpi\n      tag_318\n      tag_147\n      jump\t// in\n    tag_318:\n    tag_317:\n      add\n      0x00\n        /* \"contracts/Distribution/AtlantisDistribution.sol\":2455:2480  total[2] += amount.div(4) */\n      dup3\n      dup3\n      sload\n      tag_320\n      swap2\n      swap1\n      tag_138\n      jump\t// in\n    tag_320:\n      swap3\n      pop\n      pop\n      dup2\n      swap1\n      sstore\n      pop\n        /* \"contracts/Distribution/AtlantisDistribution.sol\":2507:2513  amount */\n      dup1\n        /* \"contracts/Distribution/AtlantisDistribution.sol\":2491:2503  _totalSupply */\n      0x02\n      0x00\n        /* \"contracts/Distribution/AtlantisDistribution.sol\":2491:2513  _totalSupply += amount */\n      dup3\n      dup3\n      sload\n      tag_321\n      swap2\n      swap1\n      tag_138\n      jump\t// in\n    tag_321:\n      swap3\n      pop\n      pop\n      dup2\n      swap1\n      sstore\n      pop\n        /* \"contracts/Distribution/AtlantisDistribution.sol\":1843:2520  function mint(uint256 amount) external onlyOwner {... */\n      pop\n      jump\t// out\n        /* \"contracts/Distribution/AtlantisDistribution.sol\":2948:3254  function changeLvl(address account, uint8 newLvl) external onlyOwner {... */\n    tag_90:\n        /* \"@openzeppelin/contracts/access/Ownable.sol\":1196:1208  _msgSender() */\n      tag_323\n        /* \"@openzeppelin/contracts/access/Ownable.sol\":1196:1206  _msgSender */\n      tag_125\n        /* \"@openzeppelin/contracts/access/Ownable.sol\":1196:1208  _msgSender() */\n      jump\t// in\n    tag_323:\n        /* \"@openzeppelin/contracts/access/Ownable.sol\":1185:1208  owner() == _msgSender() */\n      0xffffffffffffffffffffffffffffffffffffffff\n      and\n        /* \"@openzeppelin/contracts/access/Ownable.sol\":1185:1192  owner() */\n      tag_324\n        /* \"@openzeppelin/contracts/access/Ownable.sol\":1185:1190  owner */\n      tag_77\n        /* \"@openzeppelin/contracts/access/Ownable.sol\":1185:1192  owner() */\n      jump\t// in\n    tag_324:\n        /* \"@openzeppelin/contracts/access/Ownable.sol\":1185:1208  owner() == _msgSender() */\n      0xffffffffffffffffffffffffffffffffffffffff\n      and\n      eq\n        /* \"@openzeppelin/contracts/access/Ownable.sol\":1177:1245  require(owner() == _msgSender(), \"Ownable: caller is not the owner\") */\n      tag_325\n      jumpi\n      mload(0x40)\n      0x08c379a000000000000000000000000000000000000000000000000000000000\n      dup2\n      mstore\n      0x04\n      add\n      tag_326\n      swap1\n      tag_132\n      jump\t// in\n    tag_326:\n      mload(0x40)\n      dup1\n      swap2\n      sub\n      swap1\n      revert\n    tag_325:\n        /* \"contracts/Distribution/AtlantisDistribution.sol\":3027:3048  relaxBalance(account) */\n      tag_328\n        /* \"contracts/Distribution/AtlantisDistribution.sol\":3040:3047  account */\n      dup3\n        /* \"contracts/Distribution/AtlantisDistribution.sol\":3027:3039  relaxBalance */\n      tag_185\n        /* \"contracts/Distribution/AtlantisDistribution.sol\":3027:3048  relaxBalance(account) */\n      jump\t// in\n    tag_328:\n        /* \"contracts/Distribution/AtlantisDistribution.sol\":3058:3070  uint8 oldLvl */\n      0x00\n        /* \"contracts/Distribution/AtlantisDistribution.sol\":3073:3076  lvl */\n      0x07\n        /* \"contracts/Distribution/AtlantisDistribution.sol\":3073:3085  lvl[account] */\n      0x00\n        /* \"contracts/Distribution/AtlantisDistribution.sol\":3077:3084  account */\n      dup5\n        /* \"contracts/Distribution/AtlantisDistribution.sol\":3073:3085  lvl[account] */\n      0xffffffffffffffffffffffffffffffffffffffff\n      and\n      0xffffffffffffffffffffffffffffffffffffffff\n      and\n      dup2\n      mstore\n      0x20\n      add\n      swap1\n      dup2\n      mstore\n      0x20\n      add\n      0x00\n      keccak256\n      0x00\n      swap1\n      sload\n      swap1\n      0x0100\n      exp\n      swap1\n      div\n      0xff\n      and\n        /* \"contracts/Distribution/AtlantisDistribution.sol\":3058:3085  uint8 oldLvl = lvl[account] */\n      swap1\n      pop\n        /* \"contracts/Distribution/AtlantisDistribution.sol\":3110:3116  newLvl */\n      dup2\n        /* \"contracts/Distribution/AtlantisDistribution.sol\":3095:3098  lvl */\n      0x07\n        /* \"contracts/Distribution/AtlantisDistribution.sol\":3095:3107  lvl[account] */\n      0x00\n        /* \"contracts/Distribution/AtlantisDistribution.sol\":3099:3106  account */\n      dup6\n        /* \"contracts/Distribution/AtlantisDistribution.sol\":3095:3107  lvl[account] */\n      0xffffffffffffffffffffffffffffffffffffffff\n      and\n      0xffffffffffffffffffffffffffffffffffffffff\n      and\n      dup2\n      mstore\n      0x20\n      add\n      swap1\n      dup2\n      mstore\n      0x20\n      add\n      0x00\n      keccak256\n      0x00\n        /* \"contracts/Distribution/AtlantisDistribution.sol\":3095:3116  lvl[account] = newLvl */\n      0x0100\n      exp\n      dup2\n      sload\n      dup2\n      0xff\n      mul\n      not\n      and\n      swap1\n      dup4\n      0xff\n      and\n      mul\n      or\n      swap1\n      sstore\n      pop\n        /* \"contracts/Distribution/AtlantisDistribution.sol\":3143:3152  _balances */\n      0x00\n        /* \"contracts/Distribution/AtlantisDistribution.sol\":3143:3161  _balances[account] */\n      dup1\n        /* \"contracts/Distribution/AtlantisDistribution.sol\":3153:3160  account */\n      dup5\n        /* \"contracts/Distribution/AtlantisDistribution.sol\":3143:3161  _balances[account] */\n      0xffffffffffffffffffffffffffffffffffffffff\n      and\n      0xffffffffffffffffffffffffffffffffffffffff\n      and\n      dup2\n      mstore\n      0x20\n      add\n      swap1\n      dup2\n      mstore\n      0x20\n      add\n      0x00\n      keccak256\n      sload\n        /* \"contracts/Distribution/AtlantisDistribution.sol\":3126:3131  total */\n      0x0b\n        /* \"contracts/Distribution/AtlantisDistribution.sol\":3132:3138  oldLvl */\n      dup3\n        /* \"contracts/Distribution/AtlantisDistribution.sol\":3126:3139  total[oldLvl] */\n      0xff\n      and\n      0x03\n      dup2\n      lt\n      tag_329\n      jumpi\n      tag_330\n      tag_147\n      jump\t// in\n    tag_330:\n    tag_329:\n      add\n      0x00\n        /* \"contracts/Distribution/AtlantisDistribution.sol\":3126:3161  total[oldLvl] -= _balances[account] */\n      dup3\n      dup3\n      sload\n      tag_332\n      swap2\n      swap1\n      tag_333\n      jump\t// in\n    tag_332:\n      swap3\n      pop\n      pop\n      dup2\n      swap1\n      sstore\n      pop\n        /* \"contracts/Distribution/AtlantisDistribution.sol\":3188:3197  _balances */\n      0x00\n        /* \"contracts/Distribution/AtlantisDistribution.sol\":3188:3206  _balances[account] */\n      dup1\n        /* \"contracts/Distribution/AtlantisDistribution.sol\":3198:3205  account */\n      dup5\n        /* \"contracts/Distribution/AtlantisDistribution.sol\":3188:3206  _balances[account] */\n      0xffffffffffffffffffffffffffffffffffffffff\n      and\n      0xffffffffffffffffffffffffffffffffffffffff\n      and\n      dup2\n      mstore\n      0x20\n      add\n      swap1\n      dup2\n      mstore\n      0x20\n      add\n      0x00\n      keccak256\n      sload\n        /* \"contracts/Distribution/AtlantisDistribution.sol\":3171:3176  total */\n      0x0b\n        /* \"contracts/Distribution/AtlantisDistribution.sol\":3177:3183  newLvl */\n      dup4\n        /* \"contracts/Distribution/AtlantisDistribution.sol\":3171:3184  total[newLvl] */\n      0xff\n      and\n      0x03\n      dup2\n      lt\n      tag_334\n      jumpi\n      tag_335\n      tag_147\n      jump\t// in\n    tag_335:\n    tag_334:\n      add\n      0x00\n        /* \"contracts/Distribution/AtlantisDistribution.sol\":3171:3206  total[newLvl] += _balances[account] */\n      dup3\n      dup3\n      sload\n      tag_337\n      swap2\n      swap1\n      tag_138\n      jump\t// in\n    tag_337:\n      swap3\n      pop\n      pop\n      dup2\n      swap1\n      sstore\n      pop\n        /* \"contracts/Distribution/AtlantisDistribution.sol\":3230:3239  currentBC */\n      0x08\n        /* \"contracts/Distribution/AtlantisDistribution.sol\":3240:3246  newLvl */\n      dup3\n        /* \"contracts/Distribution/AtlantisDistribution.sol\":3230:3247  currentBC[newLvl] */\n      0xff\n      and\n      0x03\n      dup2\n      lt\n      tag_338\n      jumpi\n      tag_339\n      tag_147\n      jump\t// in\n    tag_339:\n    tag_338:\n      add\n      sload\n        /* \"contracts/Distribution/AtlantisDistribution.sol\":3216:3218  BC */\n      0x06\n        /* \"contracts/Distribution/AtlantisDistribution.sol\":3216:3227  BC[account] */\n      0x00\n        /* \"contracts/Distribution/AtlantisDistribution.sol\":3219:3226  account */\n      dup6\n        /* \"contracts/Distribution/AtlantisDistribution.sol\":3216:3227  BC[account] */\n      0xffffffffffffffffffffffffffffffffffffffff\n      and\n      0xffffffffffffffffffffffffffffffffffffffff\n      and\n      dup2\n      mstore\n      0x20\n      add\n      swap1\n      dup2\n      mstore\n      0x20\n      add\n      0x00\n      keccak256\n        /* \"contracts/Distribution/AtlantisDistribution.sol\":3216:3247  BC[account] = currentBC[newLvl] */\n      dup2\n      swap1\n      sstore\n      pop\n        /* \"contracts/Distribution/AtlantisDistribution.sol\":3017:3254  {... */\n      pop\n        /* \"contracts/Distribution/AtlantisDistribution.sol\":2948:3254  function changeLvl(address account, uint8 newLvl) external onlyOwner {... */\n      pop\n      pop\n      jump\t// out\n        /* \"contracts/Distribution/WrappedERC20Token.sol\":6268:6639  function decreaseAllowance(address spender, uint256 subtractedValue) public virtual returns (bool) {... */\n    tag_93:\n        /* \"contracts/Distribution/WrappedERC20Token.sol\":6361:6365  bool */\n      0x00\n        /* \"contracts/Distribution/WrappedERC20Token.sol\":6377:6401  uint256 currentAllowance */\n      dup1\n        /* \"contracts/Distribution/WrappedERC20Token.sol\":6404:6415  _allowances */\n      0x01\n        /* \"contracts/Distribution/WrappedERC20Token.sol\":6404:6429  _allowances[_msgSender()] */\n      0x00\n        /* \"contracts/Distribution/WrappedERC20Token.sol\":6416:6428  _msgSender() */\n      tag_342\n        /* \"contracts/Distribution/WrappedERC20Token.sol\":6416:6426  _msgSender */\n      tag_125\n        /* \"contracts/Distribution/WrappedERC20Token.sol\":6416:6428  _msgSender() */\n      jump\t// in\n    tag_342:\n        /* \"contracts/Distribution/WrappedERC20Token.sol\":6404:6429  _allowances[_msgSender()] */\n      0xffffffffffffffffffffffffffffffffffffffff\n      and\n      0xffffffffffffffffffffffffffffffffffffffff\n      and\n      dup2\n      mstore\n      0x20\n      add\n      swap1\n      dup2\n      mstore\n      0x20\n      add\n      0x00\n      keccak256\n        /* \"contracts/Distribution/WrappedERC20Token.sol\":6404:6438  _allowances[_msgSender()][spender] */\n      0x00\n        /* \"contracts/Distribution/WrappedERC20Token.sol\":6430:6437  spender */\n      dup6\n        /* \"contracts/Distribution/WrappedERC20Token.sol\":6404:6438  _allowances[_msgSender()][spender] */\n      0xffffffffffffffffffffffffffffffffffffffff\n      and\n      0xffffffffffffffffffffffffffffffffffffffff\n      and\n      dup2\n      mstore\n      0x20\n      add\n      swap1\n      dup2\n      mstore\n      0x20\n      add\n      0x00\n      keccak256\n      sload\n        /* \"contracts/Distribution/WrappedERC20Token.sol\":6377:6438  uint256 currentAllowance = _allowances[_msgSender()][spender] */\n      swap1\n      pop\n        /* \"contracts/Distribution/WrappedERC20Token.sol\":6476:6491  subtractedValue */\n      dup3\n        /* \"contracts/Distribution/WrappedERC20Token.sol\":6456:6472  currentAllowance */\n      dup2\n        /* \"contracts/Distribution/WrappedERC20Token.sol\":6456:6491  currentAllowance >= subtractedValue */\n      lt\n      iszero\n        /* \"contracts/Distribution/WrappedERC20Token.sol\":6448:6533  require(currentAllowance >= subtractedValue, \"ERC20: decreased allowance below zero\") */\n      tag_343\n      jumpi\n      mload(0x40)\n      0x08c379a000000000000000000000000000000000000000000000000000000000\n      dup2\n      mstore\n      0x04\n      add\n      tag_344\n      swap1\n      tag_345\n      jump\t// in\n    tag_344:\n      mload(0x40)\n      dup1\n      swap2\n      sub\n      swap1\n      revert\n    tag_343:\n        /* \"contracts/Distribution/WrappedERC20Token.sol\":6543:6610  _approve(_msgSender(), spender, currentAllowance - subtractedValue) */\n      tag_346\n        /* \"contracts/Distribution/WrappedERC20Token.sol\":6552:6564  _msgSender() */\n      tag_347\n        /* \"contracts/Distribution/WrappedERC20Token.sol\":6552:6562  _msgSender */\n      tag_125\n        /* \"contracts/Distribution/WrappedERC20Token.sol\":6552:6564  _msgSender() */\n      jump\t// in\n    tag_347:\n        /* \"contracts/Distribution/WrappedERC20Token.sol\":6566:6573  spender */\n      dup6\n        /* \"contracts/Distribution/WrappedERC20Token.sol\":6594:6609  subtractedValue */\n      dup6\n        /* \"contracts/Distribution/WrappedERC20Token.sol\":6575:6591  currentAllowance */\n      dup5\n        /* \"contracts/Distribution/WrappedERC20Token.sol\":6575:6609  currentAllowance - subtractedValue */\n      tag_348\n      swap2\n      swap1\n      tag_333\n      jump\t// in\n    tag_348:\n        /* \"contracts/Distribution/WrappedERC20Token.sol\":6543:6551  _approve */\n      tag_126\n        /* \"contracts/Distribution/WrappedERC20Token.sol\":6543:6610  _approve(_msgSender(), spender, currentAllowance - subtractedValue) */\n      jump\t// in\n    tag_346:\n        /* \"contracts/Distribution/WrappedERC20Token.sol\":6628:6632  true */\n      0x01\n        /* \"contracts/Distribution/WrappedERC20Token.sol\":6621:6632  return true */\n      swap2\n      pop\n      pop\n        /* \"contracts/Distribution/WrappedERC20Token.sol\":6268:6639  function decreaseAllowance(address spender, uint256 subtractedValue) public virtual returns (bool) {... */\n      swap3\n      swap2\n      pop\n      pop\n      jump\t// out\n        /* \"contracts/Distribution/AtlantisDistribution.sol\":2526:2942  function transfer(address recipient, uint256 amount) public override returns (bool) {... */\n    tag_97:\n        /* \"contracts/Distribution/AtlantisDistribution.sol\":2604:2608  bool */\n      0x00\n        /* \"contracts/Distribution/AtlantisDistribution.sol\":2660:2674  address sender */\n      dup1\n        /* \"contracts/Distribution/AtlantisDistribution.sol\":2677:2689  _msgSender() */\n      tag_350\n        /* \"contracts/Distribution/AtlantisDistribution.sol\":2677:2687  _msgSender */\n      tag_125\n        /* \"contracts/Distribution/AtlantisDistribution.sol\":2677:2689  _msgSender() */\n      jump\t// in\n    tag_350:\n        /* \"contracts/Distribution/AtlantisDistribution.sol\":2660:2689  address sender = _msgSender() */\n      swap1\n      pop\n        /* \"contracts/Distribution/AtlantisDistribution.sol\":2699:2719  relaxBalance(sender) */\n      tag_351\n        /* \"contracts/Distribution/AtlantisDistribution.sol\":2712:2718  sender */\n      dup2\n        /* \"contracts/Distribution/AtlantisDistribution.sol\":2699:2711  relaxBalance */\n      tag_185\n        /* \"contracts/Distribution/AtlantisDistribution.sol\":2699:2719  relaxBalance(sender) */\n      jump\t// in\n    tag_351:\n        /* \"contracts/Distribution/AtlantisDistribution.sol\":2729:2752  relaxBalance(recipient) */\n      tag_352\n        /* \"contracts/Distribution/AtlantisDistribution.sol\":2742:2751  recipient */\n      dup5\n        /* \"contracts/Distribution/AtlantisDistribution.sol\":2729:2741  relaxBalance */\n      tag_185\n        /* \"contracts/Distribution/AtlantisDistribution.sol\":2729:2752  relaxBalance(recipient) */\n      jump\t// in\n    tag_352:\n        /* \"contracts/Distribution/AtlantisDistribution.sol\":2784:2790  amount */\n      dup3\n        /* \"contracts/Distribution/AtlantisDistribution.sol\":2762:2767  total */\n      0x0b\n        /* \"contracts/Distribution/AtlantisDistribution.sol\":2768:2771  lvl */\n      0x07\n        /* \"contracts/Distribution/AtlantisDistribution.sol\":2768:2779  lvl[sender] */\n      0x00\n        /* \"contracts/Distribution/AtlantisDistribution.sol\":2772:2778  sender */\n      dup5\n        /* \"contracts/Distribution/AtlantisDistribution.sol\":2768:2779  lvl[sender] */\n      0xffffffffffffffffffffffffffffffffffffffff\n      and\n      0xffffffffffffffffffffffffffffffffffffffff\n      and\n      dup2\n      mstore\n      0x20\n      add\n      swap1\n      dup2\n      mstore\n      0x20\n      add\n      0x00\n      keccak256\n      0x00\n      swap1\n      sload\n      swap1\n      0x0100\n      exp\n      swap1\n      div\n      0xff\n      and\n        /* \"contracts/Distribution/AtlantisDistribution.sol\":2762:2780  total[lvl[sender]] */\n      0xff\n      and\n      0x03\n      dup2\n      lt\n      tag_353\n      jumpi\n      tag_354\n      tag_147\n      jump\t// in\n    tag_354:\n    tag_353:\n      add\n      0x00\n        /* \"contracts/Distribution/AtlantisDistribution.sol\":2762:2790  total[lvl[sender]] -= amount */\n      dup3\n      dup3\n      sload\n      tag_356\n      swap2\n      swap1\n      tag_333\n      jump\t// in\n    tag_356:\n      swap3\n      pop\n      pop\n      dup2\n      swap1\n      sstore\n      pop\n        /* \"contracts/Distribution/AtlantisDistribution.sol\":2825:2831  amount */\n      dup3\n        /* \"contracts/Distribution/AtlantisDistribution.sol\":2800:2805  total */\n      0x0b\n        /* \"contracts/Distribution/AtlantisDistribution.sol\":2806:2809  lvl */\n      0x07\n        /* \"contracts/Distribution/AtlantisDistribution.sol\":2806:2820  lvl[recipient] */\n      0x00\n        /* \"contracts/Distribution/AtlantisDistribution.sol\":2810:2819  recipient */\n      dup8\n        /* \"contracts/Distribution/AtlantisDistribution.sol\":2806:2820  lvl[recipient] */\n      0xffffffffffffffffffffffffffffffffffffffff\n      and\n      0xffffffffffffffffffffffffffffffffffffffff\n      and\n      dup2\n      mstore\n      0x20\n      add\n      swap1\n      dup2\n      mstore\n      0x20\n      add\n      0x00\n      keccak256\n      0x00\n      swap1\n      sload\n      swap1\n      0x0100\n      exp\n      swap1\n      div\n      0xff\n      and\n        /* \"contracts/Distribution/AtlantisDistribution.sol\":2800:2821  total[lvl[recipient]] */\n      0xff\n      and\n      0x03\n      dup2\n      lt\n      tag_357\n      jumpi\n      tag_358\n      tag_147\n      jump\t// in\n    tag_358:\n    tag_357:\n      add\n      0x00\n        /* \"contracts/Distribution/AtlantisDistribution.sol\":2800:2831  total[lvl[recipient]] += amount */\n      dup3\n      dup3\n      sload\n      tag_360\n      swap2\n      swap1\n      tag_138\n      jump\t// in\n    tag_360:\n      swap3\n      pop\n      pop\n      dup2\n      swap1\n      sstore\n      pop\n        /* \"contracts/Distribution/AtlantisDistribution.sol\":2878:2914  _transfer(sender, recipient, amount) */\n      tag_361\n        /* \"contracts/Distribution/AtlantisDistribution.sol\":2888:2894  sender */\n      dup2\n        /* \"contracts/Distribution/AtlantisDistribution.sol\":2896:2905  recipient */\n      dup6\n        /* \"contracts/Distribution/AtlantisDistribution.sol\":2907:2913  amount */\n      dup6\n        /* \"contracts/Distribution/AtlantisDistribution.sol\":2878:2887  _transfer */\n      tag_362\n        /* \"contracts/Distribution/AtlantisDistribution.sol\":2878:2914  _transfer(sender, recipient, amount) */\n      jump\t// in\n    tag_361:\n        /* \"contracts/Distribution/AtlantisDistribution.sol\":2931:2935  true */\n      0x01\n        /* \"contracts/Distribution/AtlantisDistribution.sol\":2924:2935  return true */\n      swap2\n      pop\n      pop\n        /* \"contracts/Distribution/AtlantisDistribution.sol\":2526:2942  function transfer(address recipient, uint256 amount) public override returns (bool) {... */\n      swap3\n      swap2\n      pop\n      pop\n      jump\t// out\n        /* \"contracts/Distribution/AtlantisDistribution.sol\":721:751  uint256[size] public currentBC */\n    tag_101:\n      0x08\n      dup2\n      0x03\n      dup2\n      lt\n      tag_363\n      jumpi\n      0x00\n      dup1\n      revert\n    tag_363:\n      add\n      0x00\n      swap2\n      pop\n      swap1\n      pop\n      sload\n      dup2\n      jump\t// out\n        /* \"contracts/Distribution/WrappedERC20Token.sol\":3840:3989  function allowance(address owner, address spender) public view virtual override returns (uint256) {... */\n    tag_106:\n        /* \"contracts/Distribution/WrappedERC20Token.sol\":3929:3936  uint256 */\n      0x00\n        /* \"contracts/Distribution/WrappedERC20Token.sol\":3955:3966  _allowances */\n      0x01\n        /* \"contracts/Distribution/WrappedERC20Token.sol\":3955:3973  _allowances[owner] */\n      0x00\n        /* \"contracts/Distribution/WrappedERC20Token.sol\":3967:3972  owner */\n      dup5\n        /* \"contracts/Distribution/WrappedERC20Token.sol\":3955:3973  _allowances[owner] */\n      0xffffffffffffffffffffffffffffffffffffffff\n      and\n      0xffffffffffffffffffffffffffffffffffffffff\n      and\n      dup2\n      mstore\n      0x20\n      add\n      swap1\n      dup2\n      mstore\n      0x20\n      add\n      0x00\n      keccak256\n        /* \"contracts/Distribution/WrappedERC20Token.sol\":3955:3982  _allowances[owner][spender] */\n      0x00\n        /* \"contracts/Distribution/WrappedERC20Token.sol\":3974:3981  spender */\n      dup4\n        /* \"contracts/Distribution/WrappedERC20Token.sol\":3955:3982  _allowances[owner][spender] */\n      0xffffffffffffffffffffffffffffffffffffffff\n      and\n      0xffffffffffffffffffffffffffffffffffffffff\n      and\n      dup2\n      mstore\n      0x20\n      add\n      swap1\n      dup2\n      mstore\n      0x20\n      add\n      0x00\n      keccak256\n      sload\n        /* \"contracts/Distribution/WrappedERC20Token.sol\":3948:3982  return _allowances[owner][spender] */\n      swap1\n      pop\n        /* \"contracts/Distribution/WrappedERC20Token.sol\":3840:3989  function allowance(address owner, address spender) public view virtual override returns (uint256) {... */\n      swap3\n      swap2\n      pop\n      pop\n      jump\t// out\n        /* \"@openzeppelin/contracts/access/Ownable.sol\":1846:2035  function transferOwnership(address newOwner) public virtual onlyOwner {... */\n    tag_110:\n        /* \"@openzeppelin/contracts/access/Ownable.sol\":1196:1208  _msgSender() */\n      tag_367\n        /* \"@openzeppelin/contracts/access/Ownable.sol\":1196:1206  _msgSender */\n      tag_125\n        /* \"@openzeppelin/contracts/access/Ownable.sol\":1196:1208  _msgSender() */\n      jump\t// in\n    tag_367:\n        /* \"@openzeppelin/contracts/access/Ownable.sol\":1185:1208  owner() == _msgSender() */\n      0xffffffffffffffffffffffffffffffffffffffff\n      and\n        /* \"@openzeppelin/contracts/access/Ownable.sol\":1185:1192  owner() */\n      tag_368\n        /* \"@openzeppelin/contracts/access/Ownable.sol\":1185:1190  owner */\n      tag_77\n        /* \"@openzeppelin/contracts/access/Ownable.sol\":1185:1192  owner() */\n      jump\t// in\n    tag_368:\n        /* \"@openzeppelin/contracts/access/Ownable.sol\":1185:1208  owner() == _msgSender() */\n      0xffffffffffffffffffffffffffffffffffffffff\n      and\n      eq\n        /* \"@openzeppelin/contracts/access/Ownable.sol\":1177:1245  require(owner() == _msgSender(), \"Ownable: caller is not the owner\") */\n      tag_369\n      jumpi\n      mload(0x40)\n      0x08c379a000000000000000000000000000000000000000000000000000000000\n      dup2\n      mstore\n      0x04\n      add\n      tag_370\n      swap1\n      tag_132\n      jump\t// in\n    tag_370:\n      mload(0x40)\n      dup1\n      swap2\n      sub\n      swap1\n      revert\n    tag_369:\n        /* \"@openzeppelin/contracts/access/Ownable.sol\":1954:1955  0 */\n      0x00\n        /* \"@openzeppelin/contracts/access/Ownable.sol\":1934:1956  newOwner != address(0) */\n      0xffffffffffffffffffffffffffffffffffffffff\n      and\n        /* \"@openzeppelin/contracts/access/Ownable.sol\":1934:1942  newOwner */\n      dup2\n        /* \"@openzeppelin/contracts/access/Ownable.sol\":1934:1956  newOwner != address(0) */\n      0xffffffffffffffffffffffffffffffffffffffff\n      and\n      sub\n        /* \"@openzeppelin/contracts/access/Ownable.sol\":1926:1999  require(newOwner != address(0), \"Ownable: new owner is the zero address\") */\n      tag_372\n      jumpi\n      mload(0x40)\n      0x08c379a000000000000000000000000000000000000000000000000000000000\n      dup2\n      mstore\n      0x04\n      add\n      tag_373\n      swap1\n      tag_374\n      jump\t// in\n    tag_373:\n      mload(0x40)\n      dup1\n      swap2\n      sub\n      swap1\n      revert\n    tag_372:\n        /* \"@openzeppelin/contracts/access/Ownable.sol\":2009:2028  _setOwner(newOwner) */\n      tag_375\n        /* \"@openzeppelin/contracts/access/Ownable.sol\":2019:2027  newOwner */\n      dup2\n        /* \"@openzeppelin/contracts/access/Ownable.sol\":2009:2018  _setOwner */\n      tag_243\n        /* \"@openzeppelin/contracts/access/Ownable.sol\":2009:2028  _setOwner(newOwner) */\n      jump\t// in\n    tag_375:\n        /* \"@openzeppelin/contracts/access/Ownable.sol\":1846:2035  function transferOwnership(address newOwner) public virtual onlyOwner {... */\n      pop\n      jump\t// out\n        /* \"contracts/Distribution/AtlantisDistribution.sol\":859:893  address payable public fund_wallet */\n    tag_112:\n      0x0e\n      0x00\n      swap1\n      sload\n      swap1\n      0x0100\n      exp\n      swap1\n      div\n      0xffffffffffffffffffffffffffffffffffffffff\n      and\n      dup2\n      jump\t// out\n        /* \"@openzeppelin/contracts/utils/Context.sol\":587:683  function _msgSender() internal view virtual returns (address) {... */\n    tag_125:\n        /* \"@openzeppelin/contracts/utils/Context.sol\":640:647  address */\n      0x00\n        /* \"@openzeppelin/contracts/utils/Context.sol\":666:676  msg.sender */\n      caller\n        /* \"@openzeppelin/contracts/utils/Context.sol\":659:676  return msg.sender */\n      swap1\n      pop\n        /* \"@openzeppelin/contracts/utils/Context.sol\":587:683  function _msgSender() internal view virtual returns (address) {... */\n      swap1\n      jump\t// out\n        /* \"contracts/Distribution/WrappedERC20Token.sol\":9532:9872  function _approve(address owner, address spender, uint256 amount) internal virtual {... */\n    tag_126:\n        /* \"contracts/Distribution/WrappedERC20Token.sol\":9650:9651  0 */\n      0x00\n        /* \"contracts/Distribution/WrappedERC20Token.sol\":9633:9652  owner != address(0) */\n      0xffffffffffffffffffffffffffffffffffffffff\n      and\n        /* \"contracts/Distribution/WrappedERC20Token.sol\":9633:9638  owner */\n      dup4\n        /* \"contracts/Distribution/WrappedERC20Token.sol\":9633:9652  owner != address(0) */\n      0xffffffffffffffffffffffffffffffffffffffff\n      and\n      sub\n        /* \"contracts/Distribution/WrappedERC20Token.sol\":9625:9693  require(owner != address(0), \"ERC20: approve from the zero address\") */\n      tag_378\n      jumpi\n      mload(0x40)\n      0x08c379a000000000000000000000000000000000000000000000000000000000\n      dup2\n      mstore\n      0x04\n      add\n      tag_379\n      swap1\n      tag_380\n      jump\t// in\n    tag_379:\n      mload(0x40)\n      dup1\n      swap2\n      sub\n      swap1\n      revert\n    tag_378:\n        /* \"contracts/Distribution/WrappedERC20Token.sol\":9730:9731  0 */\n      0x00\n        /* \"contracts/Distribution/WrappedERC20Token.sol\":9711:9732  spender != address(0) */\n      0xffffffffffffffffffffffffffffffffffffffff\n      and\n        /* \"contracts/Distribution/WrappedERC20Token.sol\":9711:9718  spender */\n      dup3\n        /* \"contracts/Distribution/WrappedERC20Token.sol\":9711:9732  spender != address(0) */\n      0xffffffffffffffffffffffffffffffffffffffff\n      and\n      sub\n        /* \"contracts/Distribution/WrappedERC20Token.sol\":9703:9771  require(spender != address(0), \"ERC20: approve to the zero address\") */\n      tag_381\n      jumpi\n      mload(0x40)\n      0x08c379a000000000000000000000000000000000000000000000000000000000\n      dup2\n      mstore\n      0x04\n      add\n      tag_382\n      swap1\n      tag_383\n      jump\t// in\n    tag_382:\n      mload(0x40)\n      dup1\n      swap2\n      sub\n      swap1\n      revert\n    tag_381:\n        /* \"contracts/Distribution/WrappedERC20Token.sol\":9812:9818  amount */\n      dup1\n        /* \"contracts/Distribution/WrappedERC20Token.sol\":9782:9793  _allowances */\n      0x01\n        /* \"contracts/Distribution/WrappedERC20Token.sol\":9782:9800  _allowances[owner] */\n      0x00\n        /* \"contracts/Distribution/WrappedERC20Token.sol\":9794:9799  owner */\n      dup6\n        /* \"contracts/Distribution/WrappedERC20Token.sol\":9782:9800  _allowances[owner] */\n      0xffffffffffffffffffffffffffffffffffffffff\n      and\n      0xffffffffffffffffffffffffffffffffffffffff\n      and\n      dup2\n      mstore\n      0x20\n      add\n      swap1\n      dup2\n      mstore\n      0x20\n      add\n      0x00\n      keccak256\n        /* \"contracts/Distribution/WrappedERC20Token.sol\":9782:9809  _allowances[owner][spender] */\n      0x00\n        /* \"contracts/Distribution/WrappedERC20Token.sol\":9801:9808  spender */\n      dup5\n        /* \"contracts/Distribution/WrappedERC20Token.sol\":9782:9809  _allowances[owner][spender] */\n      0xffffffffffffffffffffffffffffffffffffffff\n      and\n      0xffffffffffffffffffffffffffffffffffffffff\n      and\n      dup2\n      mstore\n      0x20\n      add\n      swap1\n      dup2\n      mstore\n      0x20\n      add\n      0x00\n      keccak256\n        /* \"contracts/Distribution/WrappedERC20Token.sol\":9782:9818  _allowances[owner][spender] = amount */\n      dup2\n      swap1\n      sstore\n      pop\n        /* \"contracts/Distribution/WrappedERC20Token.sol\":9849:9856  spender */\n      dup2\n        /* \"contracts/Distribution/WrappedERC20Token.sol\":9833:9865  Approval(owner, spender, amount) */\n      0xffffffffffffffffffffffffffffffffffffffff\n      and\n        /* \"contracts/Distribution/WrappedERC20Token.sol\":9842:9847  owner */\n      dup4\n        /* \"contracts/Distribution/WrappedERC20Token.sol\":9833:9865  Approval(owner, spender, amount) */\n      0xffffffffffffffffffffffffffffffffffffffff\n      and\n      0x8c5be1e5ebec7d5bd14f71427d1e84f3dd0314c0f7b2291e5b200ac8c7c3b925\n        /* \"contracts/Distribution/WrappedERC20Token.sol\":9858:9864  amount */\n      dup4\n        /* \"contracts/Distribution/WrappedERC20Token.sol\":9833:9865  Approval(owner, spender, amount) */\n      mload(0x40)\n      tag_384\n      swap2\n      swap1\n      tag_47\n      jump\t// in\n    tag_384:\n      mload(0x40)\n      dup1\n      swap2\n      sub\n      swap1\n      log3\n        /* \"contracts/Distribution/WrappedERC20Token.sol\":9532:9872  function _approve(address owner, address spender, uint256 amount) internal virtual {... */\n      pop\n      pop\n      pop\n      jump\t// out\n        /* \"@openzeppelin/contracts/utils/math/SafeMath.sol\":3767:3863  function div(uint256 a, uint256 b) internal pure returns (uint256) {... */\n    tag_144:\n        /* \"@openzeppelin/contracts/utils/math/SafeMath.sol\":3825:3832  uint256 */\n      0x00\n        /* \"@openzeppelin/contracts/utils/math/SafeMath.sol\":3855:3856  b */\n      dup2\n        /* \"@openzeppelin/contracts/utils/math/SafeMath.sol\":3851:3852  a */\n      dup4\n        /* \"@openzeppelin/contracts/utils/math/SafeMath.sol\":3851:3856  a / b */\n      tag_386\n      swap2\n      swap1\n      tag_387\n      jump\t// in\n    tag_386:\n        /* \"@openzeppelin/contracts/utils/math/SafeMath.sol\":3844:3856  return a / b */\n      swap1\n      pop\n        /* \"@openzeppelin/contracts/utils/math/SafeMath.sol\":3767:3863  function div(uint256 a, uint256 b) internal pure returns (uint256) {... */\n      swap3\n      swap2\n      pop\n      pop\n      jump\t// out\n        /* \"@openzeppelin/contracts/utils/math/SafeMath.sol\":3382:3478  function mul(uint256 a, uint256 b) internal pure returns (uint256) {... */\n    tag_153:\n        /* \"@openzeppelin/contracts/utils/math/SafeMath.sol\":3440:3447  uint256 */\n      0x00\n        /* \"@openzeppelin/contracts/utils/math/SafeMath.sol\":3470:3471  b */\n      dup2\n        /* \"@openzeppelin/contracts/utils/math/SafeMath.sol\":3466:3467  a */\n      dup4\n        /* \"@openzeppelin/contracts/utils/math/SafeMath.sol\":3466:3471  a * b */\n      tag_389\n      swap2\n      swap1\n      tag_390\n      jump\t// in\n    tag_389:\n        /* \"@openzeppelin/contracts/utils/math/SafeMath.sol\":3459:3471  return a * b */\n      swap1\n      pop\n        /* \"@openzeppelin/contracts/utils/math/SafeMath.sol\":3382:3478  function mul(uint256 a, uint256 b) internal pure returns (uint256) {... */\n      swap3\n      swap2\n      pop\n      pop\n      jump\t// out\n        /* \"contracts/Distribution/AtlantisDistribution.sol\":1587:1837  function relaxBalance(address account) internal {... */\n    tag_185:\n        /* \"contracts/Distribution/AtlantisDistribution.sol\":1665:1666  0 */\n      0x00\n        /* \"contracts/Distribution/AtlantisDistribution.sol\":1649:1652  lvl */\n      0x07\n        /* \"contracts/Distribution/AtlantisDistribution.sol\":1649:1661  lvl[account] */\n      0x00\n        /* \"contracts/Distribution/AtlantisDistribution.sol\":1653:1660  account */\n      dup4\n        /* \"contracts/Distribution/AtlantisDistribution.sol\":1649:1661  lvl[account] */\n      0xffffffffffffffffffffffffffffffffffffffff\n      and\n      0xffffffffffffffffffffffffffffffffffffffff\n      and\n      dup2\n      mstore\n      0x20\n      add\n      swap1\n      dup2\n      mstore\n      0x20\n      add\n      0x00\n      keccak256\n      0x00\n      swap1\n      sload\n      swap1\n      0x0100\n      exp\n      swap1\n      div\n      0xff\n      and\n        /* \"contracts/Distribution/AtlantisDistribution.sol\":1649:1666  lvl[account] == 0 */\n      0xff\n      and\n      sub\n        /* \"contracts/Distribution/AtlantisDistribution.sol\":1645:1687  if (lvl[account] == 0)... */\n      iszero\n        /* \"contracts/Distribution/AtlantisDistribution.sol\":1680:1687  return; */\n      tag_391\n        /* \"contracts/Distribution/AtlantisDistribution.sol\":1645:1687  if (lvl[account] == 0)... */\n      jumpi\n        /* \"contracts/Distribution/AtlantisDistribution.sol\":1717:1783  (currentBC[lvl[account]].mul(_balances[account])).div(BC[account]) */\n      tag_393\n        /* \"contracts/Distribution/AtlantisDistribution.sol\":1771:1773  BC */\n      0x06\n        /* \"contracts/Distribution/AtlantisDistribution.sol\":1771:1782  BC[account] */\n      0x00\n        /* \"contracts/Distribution/AtlantisDistribution.sol\":1774:1781  account */\n      dup4\n        /* \"contracts/Distribution/AtlantisDistribution.sol\":1771:1782  BC[account] */\n      0xffffffffffffffffffffffffffffffffffffffff\n      and\n      0xffffffffffffffffffffffffffffffffffffffff\n      and\n      dup2\n      mstore\n      0x20\n      add\n      swap1\n      dup2\n      mstore\n      0x20\n      add\n      0x00\n      keccak256\n      sload\n        /* \"contracts/Distribution/AtlantisDistribution.sol\":1718:1765  currentBC[lvl[account]].mul(_balances[account]) */\n      tag_394\n        /* \"contracts/Distribution/AtlantisDistribution.sol\":1746:1755  _balances */\n      0x00\n        /* \"contracts/Distribution/AtlantisDistribution.sol\":1746:1764  _balances[account] */\n      dup1\n        /* \"contracts/Distribution/AtlantisDistribution.sol\":1756:1763  account */\n      dup6\n        /* \"contracts/Distribution/AtlantisDistribution.sol\":1746:1764  _balances[account] */\n      0xffffffffffffffffffffffffffffffffffffffff\n      and\n      0xffffffffffffffffffffffffffffffffffffffff\n      and\n      dup2\n      mstore\n      0x20\n      add\n      swap1\n      dup2\n      mstore\n      0x20\n      add\n      0x00\n      keccak256\n      sload\n        /* \"contracts/Distribution/AtlantisDistribution.sol\":1718:1727  currentBC */\n      0x08\n        /* \"contracts/Distribution/AtlantisDistribution.sol\":1728:1731  lvl */\n      0x07\n        /* \"contracts/Distribution/AtlantisDistribution.sol\":1728:1740  lvl[account] */\n      0x00\n        /* \"contracts/Distribution/AtlantisDistribution.sol\":1732:1739  account */\n      dup8\n        /* \"contracts/Distribution/AtlantisDistribution.sol\":1728:1740  lvl[account] */\n      0xffffffffffffffffffffffffffffffffffffffff\n      and\n      0xffffffffffffffffffffffffffffffffffffffff\n      and\n      dup2\n      mstore\n      0x20\n      add\n      swap1\n      dup2\n      mstore\n      0x20\n      add\n      0x00\n      keccak256\n      0x00\n      swap1\n      sload\n      swap1\n      0x0100\n      exp\n      swap1\n      div\n      0xff\n      and\n        /* \"contracts/Distribution/AtlantisDistribution.sol\":1718:1741  currentBC[lvl[account]] */\n      0xff\n      and\n      0x03\n      dup2\n      lt\n      tag_395\n      jumpi\n      tag_396\n      tag_147\n      jump\t// in\n    tag_396:\n    tag_395:\n      add\n      sload\n        /* \"contracts/Distribution/AtlantisDistribution.sol\":1718:1745  currentBC[lvl[account]].mul */\n      tag_153\n      swap1\n        /* \"contracts/Distribution/AtlantisDistribution.sol\":1718:1765  currentBC[lvl[account]].mul(_balances[account]) */\n      swap2\n      swap1\n      0xffffffff\n      and\n      jump\t// in\n    tag_394:\n        /* \"contracts/Distribution/AtlantisDistribution.sol\":1717:1770  (currentBC[lvl[account]].mul(_balances[account])).div */\n      tag_144\n      swap1\n        /* \"contracts/Distribution/AtlantisDistribution.sol\":1717:1783  (currentBC[lvl[account]].mul(_balances[account])).div(BC[account]) */\n      swap2\n      swap1\n      0xffffffff\n      and\n      jump\t// in\n    tag_393:\n        /* \"contracts/Distribution/AtlantisDistribution.sol\":1696:1705  _balances */\n      0x00\n        /* \"contracts/Distribution/AtlantisDistribution.sol\":1696:1714  _balances[account] */\n      dup1\n        /* \"contracts/Distribution/AtlantisDistribution.sol\":1706:1713  account */\n      dup4\n        /* \"contracts/Distribution/AtlantisDistribution.sol\":1696:1714  _balances[account] */\n      0xffffffffffffffffffffffffffffffffffffffff\n      and\n      0xffffffffffffffffffffffffffffffffffffffff\n      and\n      dup2\n      mstore\n      0x20\n      add\n      swap1\n      dup2\n      mstore\n      0x20\n      add\n      0x00\n      keccak256\n        /* \"contracts/Distribution/AtlantisDistribution.sol\":1696:1783  _balances[account] = (currentBC[lvl[account]].mul(_balances[account])).div(BC[account]) */\n      dup2\n      swap1\n      sstore\n      pop\n        /* \"contracts/Distribution/AtlantisDistribution.sol\":1807:1816  currentBC */\n      0x08\n        /* \"contracts/Distribution/AtlantisDistribution.sol\":1817:1820  lvl */\n      0x07\n        /* \"contracts/Distribution/AtlantisDistribution.sol\":1817:1829  lvl[account] */\n      0x00\n        /* \"contracts/Distribution/AtlantisDistribution.sol\":1821:1828  account */\n      dup4\n        /* \"contracts/Distribution/AtlantisDistribution.sol\":1817:1829  lvl[account] */\n      0xffffffffffffffffffffffffffffffffffffffff\n      and\n      0xffffffffffffffffffffffffffffffffffffffff\n      and\n      dup2\n      mstore\n      0x20\n      add\n      swap1\n      dup2\n      mstore\n      0x20\n      add\n      0x00\n      keccak256\n      0x00\n      swap1\n      sload\n      swap1\n      0x0100\n      exp\n      swap1\n      div\n      0xff\n      and\n        /* \"contracts/Distribution/AtlantisDistribution.sol\":1807:1830  currentBC[lvl[account]] */\n      0xff\n      and\n      0x03\n      dup2\n      lt\n      tag_398\n      jumpi\n      tag_399\n      tag_147\n      jump\t// in\n    tag_399:\n    tag_398:\n      add\n      sload\n        /* \"contracts/Distribution/AtlantisDistribution.sol\":1793:1795  BC */\n      0x06\n        /* \"contracts/Distribution/AtlantisDistribution.sol\":1793:1804  BC[account] */\n      0x00\n        /* \"contracts/Distribution/AtlantisDistribution.sol\":1796:1803  account */\n      dup4\n        /* \"contracts/Distribution/AtlantisDistribution.sol\":1793:1804  BC[account] */\n      0xffffffffffffffffffffffffffffffffffffffff\n      and\n      0xffffffffffffffffffffffffffffffffffffffff\n      and\n      dup2\n      mstore\n      0x20\n      add\n      swap1\n      dup2\n      mstore\n      0x20\n      add\n      0x00\n      keccak256\n        /* \"contracts/Distribution/AtlantisDistribution.sol\":1793:1830  BC[account] = currentBC[lvl[account]] */\n      dup2\n      swap1\n      sstore\n      pop\n        /* \"contracts/Distribution/AtlantisDistribution.sol\":1587:1837  function relaxBalance(address account) internal {... */\n    tag_391:\n      pop\n      jump\t// out\n        /* \"@openzeppelin/contracts/access/Ownable.sol\":2041:2210  function _setOwner(address newOwner) private {... */\n    tag_243:\n        /* \"@openzeppelin/contracts/access/Ownable.sol\":2096:2112  address oldOwner */\n      0x00\n        /* \"@openzeppelin/contracts/access/Ownable.sol\":2115:2121  _owner */\n      0x05\n      0x00\n      swap1\n      sload\n      swap1\n      0x0100\n      exp\n      swap1\n      div\n      0xffffffffffffffffffffffffffffffffffffffff\n      and\n        /* \"@openzeppelin/contracts/access/Ownable.sol\":2096:2121  address oldOwner = _owner */\n      swap1\n      pop\n        /* \"@openzeppelin/contracts/access/Ownable.sol\":2140:2148  newOwner */\n      dup2\n        /* \"@openzeppelin/contracts/access/Ownable.sol\":2131:2137  _owner */\n      0x05\n      0x00\n        /* \"@openzeppelin/contracts/access/Ownable.sol\":2131:2148  _owner = newOwner */\n      0x0100\n      exp\n      dup2\n      sload\n      dup2\n      0xffffffffffffffffffffffffffffffffffffffff\n      mul\n      not\n      and\n      swap1\n      dup4\n      0xffffffffffffffffffffffffffffffffffffffff\n      and\n      mul\n      or\n      swap1\n      sstore\n      pop\n        /* \"@openzeppelin/contracts/access/Ownable.sol\":2194:2202  newOwner */\n      dup2\n        /* \"@openzeppelin/contracts/access/Ownable.sol\":2163:2203  OwnershipTransferred(oldOwner, newOwner) */\n      0xffffffffffffffffffffffffffffffffffffffff\n      and\n        /* \"@openzeppelin/contracts/access/Ownable.sol\":2184:2192  oldOwner */\n      dup2\n        /* \"@openzeppelin/contracts/access/Ownable.sol\":2163:2203  OwnershipTransferred(oldOwner, newOwner) */\n      0xffffffffffffffffffffffffffffffffffffffff\n      and\n      0x8be0079c531659141344cd1fd0a4f28419497f9722a3daafe3b4186f6b6457e0\n      mload(0x40)\n      mload(0x40)\n      dup1\n      swap2\n      sub\n      swap1\n      log3\n        /* \"@openzeppelin/contracts/access/Ownable.sol\":2086:2210  {... */\n      pop\n        /* \"@openzeppelin/contracts/access/Ownable.sol\":2041:2210  function _setOwner(address newOwner) private {... */\n      pop\n      jump\t// out\n        /* \"contracts/Distribution/WrappedERC20Token.sol\":7113:7705  function _transfer(address sender, address recipient, uint256 amount) internal virtual {... */\n    tag_362:\n        /* \"contracts/Distribution/WrappedERC20Token.sol\":7236:7237  0 */\n      0x00\n        /* \"contracts/Distribution/WrappedERC20Token.sol\":7218:7238  sender != address(0) */\n      0xffffffffffffffffffffffffffffffffffffffff\n      and\n        /* \"contracts/Distribution/WrappedERC20Token.sol\":7218:7224  sender */\n      dup4\n        /* \"contracts/Distribution/WrappedERC20Token.sol\":7218:7238  sender != address(0) */\n      0xffffffffffffffffffffffffffffffffffffffff\n      and\n      sub\n        /* \"contracts/Distribution/WrappedERC20Token.sol\":7210:7280  require(sender != address(0), \"ERC20: transfer from the zero address\") */\n      tag_403\n      jumpi\n      mload(0x40)\n      0x08c379a000000000000000000000000000000000000000000000000000000000\n      dup2\n      mstore\n      0x04\n      add\n      tag_404\n      swap1\n      tag_405\n      jump\t// in\n    tag_404:\n      mload(0x40)\n      dup1\n      swap2\n      sub\n      swap1\n      revert\n    tag_403:\n        /* \"contracts/Distribution/WrappedERC20Token.sol\":7319:7320  0 */\n      0x00\n        /* \"contracts/Distribution/WrappedERC20Token.sol\":7298:7321  recipient != address(0) */\n      0xffffffffffffffffffffffffffffffffffffffff\n      and\n        /* \"contracts/Distribution/WrappedERC20Token.sol\":7298:7307  recipient */\n      dup3\n        /* \"contracts/Distribution/WrappedERC20Token.sol\":7298:7321  recipient != address(0) */\n      0xffffffffffffffffffffffffffffffffffffffff\n      and\n      sub\n        /* \"contracts/Distribution/WrappedERC20Token.sol\":7290:7361  require(recipient != address(0), \"ERC20: transfer to the zero address\") */\n      tag_406\n      jumpi\n      mload(0x40)\n      0x08c379a000000000000000000000000000000000000000000000000000000000\n      dup2\n      mstore\n      0x04\n      add\n      tag_407\n      swap1\n      tag_408\n      jump\t// in\n    tag_407:\n      mload(0x40)\n      dup1\n      swap2\n      sub\n      swap1\n      revert\n    tag_406:\n        /* \"contracts/Distribution/WrappedERC20Token.sol\":7372:7419  _beforeTokenTransfer(sender, recipient, amount) */\n      tag_409\n        /* \"contracts/Distribution/WrappedERC20Token.sol\":7393:7399  sender */\n      dup4\n        /* \"contracts/Distribution/WrappedERC20Token.sol\":7401:7410  recipient */\n      dup4\n        /* \"contracts/Distribution/WrappedERC20Token.sol\":7412:7418  amount */\n      dup4\n        /* \"contracts/Distribution/WrappedERC20Token.sol\":7372:7392  _beforeTokenTransfer */\n      tag_410\n        /* \"contracts/Distribution/WrappedERC20Token.sol\":7372:7419  _beforeTokenTransfer(sender, recipient, amount) */\n      jump\t// in\n    tag_409:\n        /* \"contracts/Distribution/WrappedERC20Token.sol\":7430:7451  uint256 senderBalance */\n      0x00\n        /* \"contracts/Distribution/WrappedERC20Token.sol\":7454:7463  _balances */\n      dup1\n        /* \"contracts/Distribution/WrappedERC20Token.sol\":7454:7471  _balances[sender] */\n      0x00\n        /* \"contracts/Distribution/WrappedERC20Token.sol\":7464:7470  sender */\n      dup6\n        /* \"contracts/Distribution/WrappedERC20Token.sol\":7454:7471  _balances[sender] */\n      0xffffffffffffffffffffffffffffffffffffffff\n      and\n      0xffffffffffffffffffffffffffffffffffffffff\n      and\n      dup2\n      mstore\n      0x20\n      add\n      swap1\n      dup2\n      mstore\n      0x20\n      add\n      0x00\n      keccak256\n      sload\n        /* \"contracts/Distribution/WrappedERC20Token.sol\":7430:7471  uint256 senderBalance = _balances[sender] */\n      swap1\n      pop\n        /* \"contracts/Distribution/WrappedERC20Token.sol\":7506:7512  amount */\n      dup2\n        /* \"contracts/Distribution/WrappedERC20Token.sol\":7489:7502  senderBalance */\n      dup2\n        /* \"contracts/Distribution/WrappedERC20Token.sol\":7489:7512  senderBalance >= amount */\n      lt\n      iszero\n        /* \"contracts/Distribution/WrappedERC20Token.sol\":7481:7555  require(senderBalance >= amount, \"ERC20: transfer amount exceeds balance\") */\n      tag_411\n      jumpi\n      mload(0x40)\n      0x08c379a000000000000000000000000000000000000000000000000000000000\n      dup2\n      mstore\n      0x04\n      add\n      tag_412\n      swap1\n      tag_413\n      jump\t// in\n    tag_412:\n      mload(0x40)\n      dup1\n      swap2\n      sub\n      swap1\n      revert\n    tag_411:\n        /* \"contracts/Distribution/WrappedERC20Token.sol\":7601:7607  amount */\n      dup2\n        /* \"contracts/Distribution/WrappedERC20Token.sol\":7585:7598  senderBalance */\n      dup2\n        /* \"contracts/Distribution/WrappedERC20Token.sol\":7585:7607  senderBalance - amount */\n      tag_414\n      swap2\n      swap1\n      tag_333\n      jump\t// in\n    tag_414:\n        /* \"contracts/Distribution/WrappedERC20Token.sol\":7565:7574  _balances */\n      0x00\n        /* \"contracts/Distribution/WrappedERC20Token.sol\":7565:7582  _balances[sender] */\n      dup1\n        /* \"contracts/Distribution/WrappedERC20Token.sol\":7575:7581  sender */\n      dup7\n        /* \"contracts/Distribution/WrappedERC20Token.sol\":7565:7582  _balances[sender] */\n      0xffffffffffffffffffffffffffffffffffffffff\n      and\n      0xffffffffffffffffffffffffffffffffffffffff\n      and\n      dup2\n      mstore\n      0x20\n      add\n      swap1\n      dup2\n      mstore\n      0x20\n      add\n      0x00\n      keccak256\n        /* \"contracts/Distribution/WrappedERC20Token.sol\":7565:7607  _balances[sender] = senderBalance - amount */\n      dup2\n      swap1\n      sstore\n      pop\n        /* \"contracts/Distribution/WrappedERC20Token.sol\":7641:7647  amount */\n      dup2\n        /* \"contracts/Distribution/WrappedERC20Token.sol\":7617:7626  _balances */\n      0x00\n        /* \"contracts/Distribution/WrappedERC20Token.sol\":7617:7637  _balances[recipient] */\n      dup1\n        /* \"contracts/Distribution/WrappedERC20Token.sol\":7627:7636  recipient */\n      dup6\n        /* \"contracts/Distribution/WrappedERC20Token.sol\":7617:7637  _balances[recipient] */\n      0xffffffffffffffffffffffffffffffffffffffff\n      and\n      0xffffffffffffffffffffffffffffffffffffffff\n      and\n      dup2\n      mstore\n      0x20\n      add\n      swap1\n      dup2\n      mstore\n      0x20\n      add\n      0x00\n      keccak256\n      0x00\n        /* \"contracts/Distribution/WrappedERC20Token.sol\":7617:7647  _balances[recipient] += amount */\n      dup3\n      dup3\n      sload\n      tag_415\n      swap2\n      swap1\n      tag_138\n      jump\t// in\n    tag_415:\n      swap3\n      pop\n      pop\n      dup2\n      swap1\n      sstore\n      pop\n        /* \"contracts/Distribution/WrappedERC20Token.sol\":7680:7689  recipient */\n      dup3\n        /* \"contracts/Distribution/WrappedERC20Token.sol\":7663:7698  Transfer(sender, recipient, amount) */\n      0xffffffffffffffffffffffffffffffffffffffff\n      and\n        /* \"contracts/Distribution/WrappedERC20Token.sol\":7672:7678  sender */\n      dup5\n        /* \"contracts/Distribution/WrappedERC20Token.sol\":7663:7698  Transfer(sender, recipient, amount) */\n      0xffffffffffffffffffffffffffffffffffffffff\n      and\n      0xddf252ad1be2c89b69c2b068fc378daa952ba7f163c4a11628f55a4df523b3ef\n        /* \"contracts/Distribution/WrappedERC20Token.sol\":7691:7697  amount */\n      dup5\n        /* \"contracts/Distribution/WrappedERC20Token.sol\":7663:7698  Transfer(sender, recipient, amount) */\n      mload(0x40)\n      tag_416\n      swap2\n      swap1\n      tag_47\n      jump\t// in\n    tag_416:\n      mload(0x40)\n      dup1\n      swap2\n      sub\n      swap1\n      log3\n        /* \"contracts/Distribution/WrappedERC20Token.sol\":7200:7705  {... */\n      pop\n        /* \"contracts/Distribution/WrappedERC20Token.sol\":7113:7705  function _transfer(address sender, address recipient, uint256 amount) internal virtual {... */\n      pop\n      pop\n      pop\n      jump\t// out\n        /* \"contracts/Distribution/WrappedERC20Token.sol\":10459:10551  function _beforeTokenTransfer(address from, address to, uint256 amount) internal virtual { } */\n    tag_410:\n      pop\n      pop\n      pop\n      jump\t// out\n        /* \"#utility.yul\":7:106   */\n    tag_418:\n        /* \"#utility.yul\":59:65   */\n      0x00\n        /* \"#utility.yul\":93:98   */\n      dup2\n        /* \"#utility.yul\":87:99   */\n      mload\n        /* \"#utility.yul\":77:99   */\n      swap1\n      pop\n        /* \"#utility.yul\":7:106   */\n      swap2\n      swap1\n      pop\n      jump\t// out\n        /* \"#utility.yul\":112:281   */\n    tag_419:\n        /* \"#utility.yul\":196:207   */\n      0x00\n        /* \"#utility.yul\":230:236   */\n      dup3\n        /* \"#utility.yul\":225:228   */\n      dup3\n        /* \"#utility.yul\":218:237   */\n      mstore\n        /* \"#utility.yul\":270:274   */\n      0x20\n        /* \"#utility.yul\":265:268   */\n      dup3\n        /* \"#utility.yul\":261:275   */\n      add\n        /* \"#utility.yul\":246:275   */\n      swap1\n      pop\n        /* \"#utility.yul\":112:281   */\n      swap3\n      swap2\n      pop\n      pop\n      jump\t// out\n        /* \"#utility.yul\":287:594   */\n    tag_420:\n        /* \"#utility.yul\":355:356   */\n      0x00\n        /* \"#utility.yul\":365:478   */\n    tag_470:\n        /* \"#utility.yul\":379:385   */\n      dup4\n        /* \"#utility.yul\":376:377   */\n      dup2\n        /* \"#utility.yul\":373:386   */\n      lt\n        /* \"#utility.yul\":365:478   */\n      iszero\n      tag_472\n      jumpi\n        /* \"#utility.yul\":464:465   */\n      dup1\n        /* \"#utility.yul\":459:462   */\n      dup3\n        /* \"#utility.yul\":455:466   */\n      add\n        /* \"#utility.yul\":449:467   */\n      mload\n        /* \"#utility.yul\":445:446   */\n      dup2\n        /* \"#utility.yul\":440:443   */\n      dup5\n        /* \"#utility.yul\":436:447   */\n      add\n        /* \"#utility.yul\":429:468   */\n      mstore\n        /* \"#utility.yul\":401:403   */\n      0x20\n        /* \"#utility.yul\":398:399   */\n      dup2\n        /* \"#utility.yul\":394:404   */\n      add\n        /* \"#utility.yul\":389:404   */\n      swap1\n      pop\n        /* \"#utility.yul\":365:478   */\n      jump(tag_470)\n    tag_472:\n        /* \"#utility.yul\":496:502   */\n      dup4\n        /* \"#utility.yul\":493:494   */\n      dup2\n        /* \"#utility.yul\":490:503   */\n      gt\n        /* \"#utility.yul\":487:588   */\n      iszero\n      tag_473\n      jumpi\n        /* \"#utility.yul\":576:577   */\n      0x00\n        /* \"#utility.yul\":567:573   */\n      dup5\n        /* \"#utility.yul\":562:565   */\n      dup5\n        /* \"#utility.yul\":558:574   */\n      add\n        /* \"#utility.yul\":551:578   */\n      mstore\n        /* \"#utility.yul\":487:588   */\n    tag_473:\n        /* \"#utility.yul\":336:594   */\n      pop\n        /* \"#utility.yul\":287:594   */\n      pop\n      pop\n      pop\n      jump\t// out\n        /* \"#utility.yul\":600:702   */\n    tag_421:\n        /* \"#utility.yul\":641:647   */\n      0x00\n        /* \"#utility.yul\":692:694   */\n      0x1f\n        /* \"#utility.yul\":688:695   */\n      not\n        /* \"#utility.yul\":683:685   */\n      0x1f\n        /* \"#utility.yul\":676:681   */\n      dup4\n        /* \"#utility.yul\":672:686   */\n      add\n        /* \"#utility.yul\":668:696   */\n      and\n        /* \"#utility.yul\":658:696   */\n      swap1\n      pop\n        /* \"#utility.yul\":600:702   */\n      swap2\n      swap1\n      pop\n      jump\t// out\n        /* \"#utility.yul\":708:1072   */\n    tag_422:\n        /* \"#utility.yul\":796:799   */\n      0x00\n        /* \"#utility.yul\":824:863   */\n      tag_476\n        /* \"#utility.yul\":857:862   */\n      dup3\n        /* \"#utility.yul\":824:863   */\n      tag_418\n      jump\t// in\n    tag_476:\n        /* \"#utility.yul\":879:950   */\n      tag_477\n        /* \"#utility.yul\":943:949   */\n      dup2\n        /* \"#utility.yul\":938:941   */\n      dup6\n        /* \"#utility.yul\":879:950   */\n      tag_419\n      jump\t// in\n    tag_477:\n        /* \"#utility.yul\":872:950   */\n      swap4\n      pop\n        /* \"#utility.yul\":959:1011   */\n      tag_478\n        /* \"#utility.yul\":1004:1010   */\n      dup2\n        /* \"#utility.yul\":999:1002   */\n      dup6\n        /* \"#utility.yul\":992:996   */\n      0x20\n        /* \"#utility.yul\":985:990   */\n      dup7\n        /* \"#utility.yul\":981:997   */\n      add\n        /* \"#utility.yul\":959:1011   */\n      tag_420\n      jump\t// in\n    tag_478:\n        /* \"#utility.yul\":1036:1065   */\n      tag_479\n        /* \"#utility.yul\":1058:1064   */\n      dup2\n        /* \"#utility.yul\":1036:1065   */\n      tag_421\n      jump\t// in\n    tag_479:\n        /* \"#utility.yul\":1031:1034   */\n      dup5\n        /* \"#utility.yul\":1027:1066   */\n      add\n        /* \"#utility.yul\":1020:1066   */\n      swap2\n      pop\n        /* \"#utility.yul\":800:1072   */\n      pop\n        /* \"#utility.yul\":708:1072   */\n      swap3\n      swap2\n      pop\n      pop\n      jump\t// out\n        /* \"#utility.yul\":1078:1391   */\n    tag_31:\n        /* \"#utility.yul\":1191:1195   */\n      0x00\n        /* \"#utility.yul\":1229:1231   */\n      0x20\n        /* \"#utility.yul\":1218:1227   */\n      dup3\n        /* \"#utility.yul\":1214:1232   */\n      add\n        /* \"#utility.yul\":1206:1232   */\n      swap1\n      pop\n        /* \"#utility.yul\":1278:1287   */\n      dup2\n        /* \"#utility.yul\":1272:1276   */\n      dup2\n        /* \"#utility.yul\":1268:1288   */\n      sub\n        /* \"#utility.yul\":1264:1265   */\n      0x00\n        /* \"#utility.yul\":1253:1262   */\n      dup4\n        /* \"#utility.yul\":1249:1266   */\n      add\n        /* \"#utility.yul\":1242:1289   */\n      mstore\n        /* \"#utility.yul\":1306:1384   */\n      tag_481\n        /* \"#utility.yul\":1379:1383   */\n      dup2\n        /* \"#utility.yul\":1370:1376   */\n      dup5\n        /* \"#utility.yul\":1306:1384   */\n      tag_422\n      jump\t// in\n    tag_481:\n        /* \"#utility.yul\":1298:1384   */\n      swap1\n      pop\n        /* \"#utility.yul\":1078:1391   */\n      swap3\n      swap2\n      pop\n      pop\n      jump\t// out\n        /* \"#utility.yul\":1478:1595   */\n    tag_424:\n        /* \"#utility.yul\":1587:1588   */\n      0x00\n        /* \"#utility.yul\":1584:1585   */\n      dup1\n        /* \"#utility.yul\":1577:1589   */\n      revert\n        /* \"#utility.yul\":1724:1850   */\n    tag_426:\n        /* \"#utility.yul\":1761:1768   */\n      0x00\n        /* \"#utility.yul\":1801:1843   */\n      0xffffffffffffffffffffffffffffffffffffffff\n        /* \"#utility.yul\":1794:1799   */\n      dup3\n        /* \"#utility.yul\":1790:1844   */\n      and\n        /* \"#utility.yul\":1779:1844   */\n      swap1\n      pop\n        /* \"#utility.yul\":1724:1850   */\n      swap2\n      swap1\n      pop\n      jump\t// out\n        /* \"#utility.yul\":1856:1952   */\n    tag_427:\n        /* \"#utility.yul\":1893:1900   */\n      0x00\n        /* \"#utility.yul\":1922:1946   */\n      tag_487\n        /* \"#utility.yul\":1940:1945   */\n      dup3\n        /* \"#utility.yul\":1922:1946   */\n      tag_426\n      jump\t// in\n    tag_487:\n        /* \"#utility.yul\":1911:1946   */\n      swap1\n      pop\n        /* \"#utility.yul\":1856:1952   */\n      swap2\n      swap1\n      pop\n      jump\t// out\n        /* \"#utility.yul\":1958:2080   */\n    tag_428:\n        /* \"#utility.yul\":2031:2055   */\n      tag_489\n        /* \"#utility.yul\":2049:2054   */\n      dup2\n        /* \"#utility.yul\":2031:2055   */\n      tag_427\n      jump\t// in\n    tag_489:\n        /* \"#utility.yul\":2024:2029   */\n      dup2\n        /* \"#utility.yul\":2021:2056   */\n      eq\n        /* \"#utility.yul\":2011:2074   */\n      tag_490\n      jumpi\n        /* \"#utility.yul\":2070:2071   */\n      0x00\n        /* \"#utility.yul\":2067:2068   */\n      dup1\n        /* \"#utility.yul\":2060:2072   */\n      revert\n        /* \"#utility.yul\":2011:2074   */\n    tag_490:\n        /* \"#utility.yul\":1958:2080   */\n      pop\n      jump\t// out\n        /* \"#utility.yul\":2086:2225   */\n    tag_429:\n        /* \"#utility.yul\":2132:2137   */\n      0x00\n        /* \"#utility.yul\":2170:2176   */\n      dup2\n        /* \"#utility.yul\":2157:2177   */\n      calldataload\n        /* \"#utility.yul\":2148:2177   */\n      swap1\n      pop\n        /* \"#utility.yul\":2186:2219   */\n      tag_492\n        /* \"#utility.yul\":2213:2218   */\n      dup2\n        /* \"#utility.yul\":2186:2219   */\n      tag_428\n      jump\t// in\n    tag_492:\n        /* \"#utility.yul\":2086:2225   */\n      swap3\n      swap2\n      pop\n      pop\n      jump\t// out\n        /* \"#utility.yul\":2231:2308   */\n    tag_430:\n        /* \"#utility.yul\":2268:2275   */\n      0x00\n        /* \"#utility.yul\":2297:2302   */\n      dup2\n        /* \"#utility.yul\":2286:2302   */\n      swap1\n      pop\n        /* \"#utility.yul\":2231:2308   */\n      swap2\n      swap1\n      pop\n      jump\t// out\n        /* \"#utility.yul\":2314:2436   */\n    tag_431:\n        /* \"#utility.yul\":2387:2411   */\n      tag_495\n        /* \"#utility.yul\":2405:2410   */\n      dup2\n        /* \"#utility.yul\":2387:2411   */\n      tag_430\n      jump\t// in\n    tag_495:\n        /* \"#utility.yul\":2380:2385   */\n      dup2\n        /* \"#utility.yul\":2377:2412   */\n      eq\n        /* \"#utility.yul\":2367:2430   */\n      tag_496\n      jumpi\n        /* \"#utility.yul\":2426:2427   */\n      0x00\n        /* \"#utility.yul\":2423:2424   */\n      dup1\n        /* \"#utility.yul\":2416:2428   */\n      revert\n        /* \"#utility.yul\":2367:2430   */\n    tag_496:\n        /* \"#utility.yul\":2314:2436   */\n      pop\n      jump\t// out\n        /* \"#utility.yul\":2442:2581   */\n    tag_432:\n        /* \"#utility.yul\":2488:2493   */\n      0x00\n        /* \"#utility.yul\":2526:2532   */\n      dup2\n        /* \"#utility.yul\":2513:2533   */\n      calldataload\n        /* \"#utility.yul\":2504:2533   */\n      swap1\n      pop\n        /* \"#utility.yul\":2542:2575   */\n      tag_498\n        /* \"#utility.yul\":2569:2574   */\n      dup2\n        /* \"#utility.yul\":2542:2575   */\n      tag_431\n      jump\t// in\n    tag_498:\n        /* \"#utility.yul\":2442:2581   */\n      swap3\n      swap2\n      pop\n      pop\n      jump\t// out\n        /* \"#utility.yul\":2587:3061   */\n    tag_34:\n        /* \"#utility.yul\":2655:2661   */\n      0x00\n        /* \"#utility.yul\":2663:2669   */\n      dup1\n        /* \"#utility.yul\":2712:2714   */\n      0x40\n        /* \"#utility.yul\":2700:2709   */\n      dup4\n        /* \"#utility.yul\":2691:2698   */\n      dup6\n        /* \"#utility.yul\":2687:2710   */\n      sub\n        /* \"#utility.yul\":2683:2715   */\n      slt\n        /* \"#utility.yul\":2680:2799   */\n      iszero\n      tag_500\n      jumpi\n        /* \"#utility.yul\":2718:2797   */\n      tag_501\n      tag_424\n      jump\t// in\n    tag_501:\n        /* \"#utility.yul\":2680:2799   */\n    tag_500:\n        /* \"#utility.yul\":2838:2839   */\n      0x00\n        /* \"#utility.yul\":2863:2916   */\n      tag_502\n        /* \"#utility.yul\":2908:2915   */\n      dup6\n        /* \"#utility.yul\":2899:2905   */\n      dup3\n        /* \"#utility.yul\":2888:2897   */\n      dup7\n        /* \"#utility.yul\":2884:2906   */\n      add\n        /* \"#utility.yul\":2863:2916   */\n      tag_429\n      jump\t// in\n    tag_502:\n        /* \"#utility.yul\":2853:2916   */\n      swap3\n      pop\n        /* \"#utility.yul\":2809:2926   */\n      pop\n        /* \"#utility.yul\":2965:2967   */\n      0x20\n        /* \"#utility.yul\":2991:3044   */\n      tag_503\n        /* \"#utility.yul\":3036:3043   */\n      dup6\n        /* \"#utility.yul\":3027:3033   */\n      dup3\n        /* \"#utility.yul\":3016:3025   */\n      dup7\n        /* \"#utility.yul\":3012:3034   */\n      add\n        /* \"#utility.yul\":2991:3044   */\n      tag_432\n      jump\t// in\n    tag_503:\n        /* \"#utility.yul\":2981:3044   */\n      swap2\n      pop\n        /* \"#utility.yul\":2936:3054   */\n      pop\n        /* \"#utility.yul\":2587:3061   */\n      swap3\n      pop\n      swap3\n      swap1\n      pop\n      jump\t// out\n        /* \"#utility.yul\":3067:3157   */\n    tag_433:\n        /* \"#utility.yul\":3101:3108   */\n      0x00\n        /* \"#utility.yul\":3144:3149   */\n      dup2\n        /* \"#utility.yul\":3137:3150   */\n      iszero\n        /* \"#utility.yul\":3130:3151   */\n      iszero\n        /* \"#utility.yul\":3119:3151   */\n      swap1\n      pop\n        /* \"#utility.yul\":3067:3157   */\n      swap2\n      swap1\n      pop\n      jump\t// out\n        /* \"#utility.yul\":3163:3272   */\n    tag_434:\n        /* \"#utility.yul\":3244:3265   */\n      tag_506\n        /* \"#utility.yul\":3259:3264   */\n      dup2\n        /* \"#utility.yul\":3244:3265   */\n      tag_433\n      jump\t// in\n    tag_506:\n        /* \"#utility.yul\":3239:3242   */\n      dup3\n        /* \"#utility.yul\":3232:3266   */\n      mstore\n        /* \"#utility.yul\":3163:3272   */\n      pop\n      pop\n      jump\t// out\n        /* \"#utility.yul\":3278:3488   */\n    tag_37:\n        /* \"#utility.yul\":3365:3369   */\n      0x00\n        /* \"#utility.yul\":3403:3405   */\n      0x20\n        /* \"#utility.yul\":3392:3401   */\n      dup3\n        /* \"#utility.yul\":3388:3406   */\n      add\n        /* \"#utility.yul\":3380:3406   */\n      swap1\n      pop\n        /* \"#utility.yul\":3416:3481   */\n      tag_508\n        /* \"#utility.yul\":3478:3479   */\n      0x00\n        /* \"#utility.yul\":3467:3476   */\n      dup4\n        /* \"#utility.yul\":3463:3480   */\n      add\n        /* \"#utility.yul\":3454:3460   */\n      dup5\n        /* \"#utility.yul\":3416:3481   */\n      tag_434\n      jump\t// in\n    tag_508:\n        /* \"#utility.yul\":3278:3488   */\n      swap3\n      swap2\n      pop\n      pop\n      jump\t// out\n        /* \"#utility.yul\":3494:3612   */\n    tag_435:\n        /* \"#utility.yul\":3581:3605   */\n      tag_510\n        /* \"#utility.yul\":3599:3604   */\n      dup2\n        /* \"#utility.yul\":3581:3605   */\n      tag_430\n      jump\t// in\n    tag_510:\n        /* \"#utility.yul\":3576:3579   */\n      dup3\n        /* \"#utility.yul\":3569:3606   */\n      mstore\n        /* \"#utility.yul\":3494:3612   */\n      pop\n      pop\n      jump\t// out\n        /* \"#utility.yul\":3618:3840   */\n    tag_47:\n        /* \"#utility.yul\":3711:3715   */\n      0x00\n        /* \"#utility.yul\":3749:3751   */\n      0x20\n        /* \"#utility.yul\":3738:3747   */\n      dup3\n        /* \"#utility.yul\":3734:3752   */\n      add\n        /* \"#utility.yul\":3726:3752   */\n      swap1\n      pop\n        /* \"#utility.yul\":3762:3833   */\n      tag_512\n        /* \"#utility.yul\":3830:3831   */\n      0x00\n        /* \"#utility.yul\":3819:3828   */\n      dup4\n        /* \"#utility.yul\":3815:3832   */\n      add\n        /* \"#utility.yul\":3806:3812   */\n      dup5\n        /* \"#utility.yul\":3762:3833   */\n      tag_435\n      jump\t// in\n    tag_512:\n        /* \"#utility.yul\":3618:3840   */\n      swap3\n      swap2\n      pop\n      pop\n      jump\t// out\n        /* \"#utility.yul\":3846:4465   */\n    tag_50:\n        /* \"#utility.yul\":3923:3929   */\n      0x00\n        /* \"#utility.yul\":3931:3937   */\n      dup1\n        /* \"#utility.yul\":3939:3945   */\n      0x00\n        /* \"#utility.yul\":3988:3990   */\n      0x60\n        /* \"#utility.yul\":3976:3985   */\n      dup5\n        /* \"#utility.yul\":3967:3974   */\n      dup7\n        /* \"#utility.yul\":3963:3986   */\n      sub\n        /* \"#utility.yul\":3959:3991   */\n      slt\n        /* \"#utility.yul\":3956:4075   */\n      iszero\n      tag_514\n      jumpi\n        /* \"#utility.yul\":3994:4073   */\n      tag_515\n      tag_424\n      jump\t// in\n    tag_515:\n        /* \"#utility.yul\":3956:4075   */\n    tag_514:\n        /* \"#utility.yul\":4114:4115   */\n      0x00\n        /* \"#utility.yul\":4139:4192   */\n      tag_516\n        /* \"#utility.yul\":4184:4191   */\n      dup7\n        /* \"#utility.yul\":4175:4181   */\n      dup3\n        /* \"#utility.yul\":4164:4173   */\n      dup8\n        /* \"#utility.yul\":4160:4182   */\n      add\n        /* \"#utility.yul\":4139:4192   */\n      tag_429\n      jump\t// in\n    tag_516:\n        /* \"#utility.yul\":4129:4192   */\n      swap4\n      pop\n        /* \"#utility.yul\":4085:4202   */\n      pop\n        /* \"#utility.yul\":4241:4243   */\n      0x20\n        /* \"#utility.yul\":4267:4320   */\n      tag_517\n        /* \"#utility.yul\":4312:4319   */\n      dup7\n        /* \"#utility.yul\":4303:4309   */\n      dup3\n        /* \"#utility.yul\":4292:4301   */\n      dup8\n        /* \"#utility.yul\":4288:4310   */\n      add\n        /* \"#utility.yul\":4267:4320   */\n      tag_429\n      jump\t// in\n    tag_517:\n        /* \"#utility.yul\":4257:4320   */\n      swap3\n      pop\n        /* \"#utility.yul\":4212:4330   */\n      pop\n        /* \"#utility.yul\":4369:4371   */\n      0x40\n        /* \"#utility.yul\":4395:4448   */\n      tag_518\n        /* \"#utility.yul\":4440:4447   */\n      dup7\n        /* \"#utility.yul\":4431:4437   */\n      dup3\n        /* \"#utility.yul\":4420:4429   */\n      dup8\n        /* \"#utility.yul\":4416:4438   */\n      add\n        /* \"#utility.yul\":4395:4448   */\n      tag_432\n      jump\t// in\n    tag_518:\n        /* \"#utility.yul\":4385:4448   */\n      swap2\n      pop\n        /* \"#utility.yul\":4340:4458   */\n      pop\n        /* \"#utility.yul\":3846:4465   */\n      swap3\n      pop\n      swap3\n      pop\n      swap3\n      jump\t// out\n        /* \"#utility.yul\":4471:4557   */\n    tag_436:\n        /* \"#utility.yul\":4506:4513   */\n      0x00\n        /* \"#utility.yul\":4546:4550   */\n      0xff\n        /* \"#utility.yul\":4539:4544   */\n      dup3\n        /* \"#utility.yul\":4535:4551   */\n      and\n        /* \"#utility.yul\":4524:4551   */\n      swap1\n      pop\n        /* \"#utility.yul\":4471:4557   */\n      swap2\n      swap1\n      pop\n      jump\t// out\n        /* \"#utility.yul\":4563:4675   */\n    tag_437:\n        /* \"#utility.yul\":4646:4668   */\n      tag_521\n        /* \"#utility.yul\":4662:4667   */\n      dup2\n        /* \"#utility.yul\":4646:4668   */\n      tag_436\n      jump\t// in\n    tag_521:\n        /* \"#utility.yul\":4641:4644   */\n      dup3\n        /* \"#utility.yul\":4634:4669   */\n      mstore\n        /* \"#utility.yul\":4563:4675   */\n      pop\n      pop\n      jump\t// out\n        /* \"#utility.yul\":4681:4895   */\n    tag_56:\n        /* \"#utility.yul\":4770:4774   */\n      0x00\n        /* \"#utility.yul\":4808:4810   */\n      0x20\n        /* \"#utility.yul\":4797:4806   */\n      dup3\n        /* \"#utility.yul\":4793:4811   */\n      add\n        /* \"#utility.yul\":4785:4811   */\n      swap1\n      pop\n        /* \"#utility.yul\":4821:4888   */\n      tag_523\n        /* \"#utility.yul\":4885:4886   */\n      0x00\n        /* \"#utility.yul\":4874:4883   */\n      dup4\n        /* \"#utility.yul\":4870:4887   */\n      add\n        /* \"#utility.yul\":4861:4867   */\n      dup5\n        /* \"#utility.yul\":4821:4888   */\n      tag_437\n      jump\t// in\n    tag_523:\n        /* \"#utility.yul\":4681:4895   */\n      swap3\n      swap2\n      pop\n      pop\n      jump\t// out\n        /* \"#utility.yul\":4901:5230   */\n    tag_63:\n        /* \"#utility.yul\":4960:4966   */\n      0x00\n        /* \"#utility.yul\":5009:5011   */\n      0x20\n        /* \"#utility.yul\":4997:5006   */\n      dup3\n        /* \"#utility.yul\":4988:4995   */\n      dup5\n        /* \"#utility.yul\":4984:5007   */\n      sub\n        /* \"#utility.yul\":4980:5012   */\n      slt\n        /* \"#utility.yul\":4977:5096   */\n      iszero\n      tag_525\n      jumpi\n        /* \"#utility.yul\":5015:5094   */\n      tag_526\n      tag_424\n      jump\t// in\n    tag_526:\n        /* \"#utility.yul\":4977:5096   */\n    tag_525:\n        /* \"#utility.yul\":5135:5136   */\n      0x00\n        /* \"#utility.yul\":5160:5213   */\n      tag_527\n        /* \"#utility.yul\":5205:5212   */\n      dup5\n        /* \"#utility.yul\":5196:5202   */\n      dup3\n        /* \"#utility.yul\":5185:5194   */\n      dup6\n        /* \"#utility.yul\":5181:5203   */\n      add\n        /* \"#utility.yul\":5160:5213   */\n      tag_429\n      jump\t// in\n    tag_527:\n        /* \"#utility.yul\":5150:5213   */\n      swap2\n      pop\n        /* \"#utility.yul\":5106:5223   */\n      pop\n        /* \"#utility.yul\":4901:5230   */\n      swap3\n      swap2\n      pop\n      pop\n      jump\t// out\n        /* \"#utility.yul\":5236:5354   */\n    tag_438:\n        /* \"#utility.yul\":5323:5347   */\n      tag_529\n        /* \"#utility.yul\":5341:5346   */\n      dup2\n        /* \"#utility.yul\":5323:5347   */\n      tag_427\n      jump\t// in\n    tag_529:\n        /* \"#utility.yul\":5318:5321   */\n      dup3\n        /* \"#utility.yul\":5311:5348   */\n      mstore\n        /* \"#utility.yul\":5236:5354   */\n      pop\n      pop\n      jump\t// out\n        /* \"#utility.yul\":5360:5582   */\n    tag_79:\n        /* \"#utility.yul\":5453:5457   */\n      0x00\n        /* \"#utility.yul\":5491:5493   */\n      0x20\n        /* \"#utility.yul\":5480:5489   */\n      dup3\n        /* \"#utility.yul\":5476:5494   */\n      add\n        /* \"#utility.yul\":5468:5494   */\n      swap1\n      pop\n        /* \"#utility.yul\":5504:5575   */\n      tag_531\n        /* \"#utility.yul\":5572:5573   */\n      0x00\n        /* \"#utility.yul\":5561:5570   */\n      dup4\n        /* \"#utility.yul\":5557:5574   */\n      add\n        /* \"#utility.yul\":5548:5554   */\n      dup5\n        /* \"#utility.yul\":5504:5575   */\n      tag_438\n      jump\t// in\n    tag_531:\n        /* \"#utility.yul\":5360:5582   */\n      swap3\n      swap2\n      pop\n      pop\n      jump\t// out\n        /* \"#utility.yul\":5588:5917   */\n    tag_85:\n        /* \"#utility.yul\":5647:5653   */\n      0x00\n        /* \"#utility.yul\":5696:5698   */\n      0x20\n        /* \"#utility.yul\":5684:5693   */\n      dup3\n        /* \"#utility.yul\":5675:5682   */\n      dup5\n        /* \"#utility.yul\":5671:5694   */\n      sub\n        /* \"#utility.yul\":5667:5699   */\n      slt\n        /* \"#utility.yul\":5664:5783   */\n      iszero\n      tag_533\n      jumpi\n        /* \"#utility.yul\":5702:5781   */\n      tag_534\n      tag_424\n      jump\t// in\n    tag_534:\n        /* \"#utility.yul\":5664:5783   */\n    tag_533:\n        /* \"#utility.yul\":5822:5823   */\n      0x00\n        /* \"#utility.yul\":5847:5900   */\n      tag_535\n        /* \"#utility.yul\":5892:5899   */\n      dup5\n        /* \"#utility.yul\":5883:5889   */\n      dup3\n        /* \"#utility.yul\":5872:5881   */\n      dup6\n        /* \"#utility.yul\":5868:5890   */\n      add\n        /* \"#utility.yul\":5847:5900   */\n      tag_432\n      jump\t// in\n    tag_535:\n        /* \"#utility.yul\":5837:5900   */\n      swap2\n      pop\n        /* \"#utility.yul\":5793:5910   */\n      pop\n        /* \"#utility.yul\":5588:5917   */\n      swap3\n      swap2\n      pop\n      pop\n      jump\t// out\n        /* \"#utility.yul\":5923:6041   */\n    tag_439:\n        /* \"#utility.yul\":5994:6016   */\n      tag_537\n        /* \"#utility.yul\":6010:6015   */\n      dup2\n        /* \"#utility.yul\":5994:6016   */\n      tag_436\n      jump\t// in\n    tag_537:\n        /* \"#utility.yul\":5987:5992   */\n      dup2\n        /* \"#utility.yul\":5984:6017   */\n      eq\n        /* \"#utility.yul\":5974:6035   */\n      tag_538\n      jumpi\n        /* \"#utility.yul\":6031:6032   */\n      0x00\n        /* \"#utility.yul\":6028:6029   */\n      dup1\n        /* \"#utility.yul\":6021:6033   */\n      revert\n        /* \"#utility.yul\":5974:6035   */\n    tag_538:\n        /* \"#utility.yul\":5923:6041   */\n      pop\n      jump\t// out\n        /* \"#utility.yul\":6047:6182   */\n    tag_440:\n        /* \"#utility.yul\":6091:6096   */\n      0x00\n        /* \"#utility.yul\":6129:6135   */\n      dup2\n        /* \"#utility.yul\":6116:6136   */\n      calldataload\n        /* \"#utility.yul\":6107:6136   */\n      swap1\n      pop\n        /* \"#utility.yul\":6145:6176   */\n      tag_540\n        /* \"#utility.yul\":6170:6175   */\n      dup2\n        /* \"#utility.yul\":6145:6176   */\n      tag_439\n      jump\t// in\n    tag_540:\n        /* \"#utility.yul\":6047:6182   */\n      swap3\n      swap2\n      pop\n      pop\n      jump\t// out\n        /* \"#utility.yul\":6188:6658   */\n    tag_89:\n        /* \"#utility.yul\":6254:6260   */\n      0x00\n        /* \"#utility.yul\":6262:6268   */\n      dup1\n        /* \"#utility.yul\":6311:6313   */\n      0x40\n        /* \"#utility.yul\":6299:6308   */\n      dup4\n        /* \"#utility.yul\":6290:6297   */\n      dup6\n        /* \"#utility.yul\":6286:6309   */\n      sub\n        /* \"#utility.yul\":6282:6314   */\n      slt\n        /* \"#utility.yul\":6279:6398   */\n      iszero\n      tag_542\n      jumpi\n        /* \"#utility.yul\":6317:6396   */\n      tag_543\n      tag_424\n      jump\t// in\n    tag_543:\n        /* \"#utility.yul\":6279:6398   */\n    tag_542:\n        /* \"#utility.yul\":6437:6438   */\n      0x00\n        /* \"#utility.yul\":6462:6515   */\n      tag_544\n        /* \"#utility.yul\":6507:6514   */\n      dup6\n        /* \"#utility.yul\":6498:6504   */\n      dup3\n        /* \"#utility.yul\":6487:6496   */\n      dup7\n        /* \"#utility.yul\":6483:6505   */\n      add\n        /* \"#utility.yul\":6462:6515   */\n      tag_429\n      jump\t// in\n    tag_544:\n        /* \"#utility.yul\":6452:6515   */\n      swap3\n      pop\n        /* \"#utility.yul\":6408:6525   */\n      pop\n        /* \"#utility.yul\":6564:6566   */\n      0x20\n        /* \"#utility.yul\":6590:6641   */\n      tag_545\n        /* \"#utility.yul\":6633:6640   */\n      dup6\n        /* \"#utility.yul\":6624:6630   */\n      dup3\n        /* \"#utility.yul\":6613:6622   */\n      dup7\n        /* \"#utility.yul\":6609:6631   */\n      add\n        /* \"#utility.yul\":6590:6641   */\n      tag_440\n      jump\t// in\n    tag_545:\n        /* \"#utility.yul\":6580:6641   */\n      swap2\n      pop\n        /* \"#utility.yul\":6535:6651   */\n      pop\n        /* \"#utility.yul\":6188:6658   */\n      swap3\n      pop\n      swap3\n      swap1\n      pop\n      jump\t// out\n        /* \"#utility.yul\":6664:7138   */\n    tag_105:\n        /* \"#utility.yul\":6732:6738   */\n      0x00\n        /* \"#utility.yul\":6740:6746   */\n      dup1\n        /* \"#utility.yul\":6789:6791   */\n      0x40\n        /* \"#utility.yul\":6777:6786   */\n      dup4\n        /* \"#utility.yul\":6768:6775   */\n      dup6\n        /* \"#utility.yul\":6764:6787   */\n      sub\n        /* \"#utility.yul\":6760:6792   */\n      slt\n        /* \"#utility.yul\":6757:6876   */\n      iszero\n      tag_547\n      jumpi\n        /* \"#utility.yul\":6795:6874   */\n      tag_548\n      tag_424\n      jump\t// in\n    tag_548:\n        /* \"#utility.yul\":6757:6876   */\n    tag_547:\n        /* \"#utility.yul\":6915:6916   */\n      0x00\n        /* \"#utility.yul\":6940:6993   */\n      tag_549\n        /* \"#utility.yul\":6985:6992   */\n      dup6\n        /* \"#utility.yul\":6976:6982   */\n      dup3\n        /* \"#utility.yul\":6965:6974   */\n      dup7\n        /* \"#utility.yul\":6961:6983   */\n      add\n        /* \"#utility.yul\":6940:6993   */\n      tag_429\n      jump\t// in\n    tag_549:\n        /* \"#utility.yul\":6930:6993   */\n      swap3\n      pop\n        /* \"#utility.yul\":6886:7003   */\n      pop\n        /* \"#utility.yul\":7042:7044   */\n      0x20\n        /* \"#utility.yul\":7068:7121   */\n      tag_550\n        /* \"#utility.yul\":7113:7120   */\n      dup6\n        /* \"#utility.yul\":7104:7110   */\n      dup3\n        /* \"#utility.yul\":7093:7102   */\n      dup7\n        /* \"#utility.yul\":7089:7111   */\n      add\n        /* \"#utility.yul\":7068:7121   */\n      tag_429\n      jump\t// in\n    tag_550:\n        /* \"#utility.yul\":7058:7121   */\n      swap2\n      pop\n        /* \"#utility.yul\":7013:7131   */\n      pop\n        /* \"#utility.yul\":6664:7138   */\n      swap3\n      pop\n      swap3\n      swap1\n      pop\n      jump\t// out\n        /* \"#utility.yul\":7144:7248   */\n    tag_441:\n        /* \"#utility.yul\":7189:7196   */\n      0x00\n        /* \"#utility.yul\":7218:7242   */\n      tag_552\n        /* \"#utility.yul\":7236:7241   */\n      dup3\n        /* \"#utility.yul\":7218:7242   */\n      tag_426\n      jump\t// in\n    tag_552:\n        /* \"#utility.yul\":7207:7242   */\n      swap1\n      pop\n        /* \"#utility.yul\":7144:7248   */\n      swap2\n      swap1\n      pop\n      jump\t// out\n        /* \"#utility.yul\":7254:7396   */\n    tag_442:\n        /* \"#utility.yul\":7357:7389   */\n      tag_554\n        /* \"#utility.yul\":7383:7388   */\n      dup2\n        /* \"#utility.yul\":7357:7389   */\n      tag_441\n      jump\t// in\n    tag_554:\n        /* \"#utility.yul\":7352:7355   */\n      dup3\n        /* \"#utility.yul\":7345:7390   */\n      mstore\n        /* \"#utility.yul\":7254:7396   */\n      pop\n      pop\n      jump\t// out\n        /* \"#utility.yul\":7402:7656   */\n    tag_114:\n        /* \"#utility.yul\":7511:7515   */\n      0x00\n        /* \"#utility.yul\":7549:7551   */\n      0x20\n        /* \"#utility.yul\":7538:7547   */\n      dup3\n        /* \"#utility.yul\":7534:7552   */\n      add\n        /* \"#utility.yul\":7526:7552   */\n      swap1\n      pop\n        /* \"#utility.yul\":7562:7649   */\n      tag_556\n        /* \"#utility.yul\":7646:7647   */\n      0x00\n        /* \"#utility.yul\":7635:7644   */\n      dup4\n        /* \"#utility.yul\":7631:7648   */\n      add\n        /* \"#utility.yul\":7622:7628   */\n      dup5\n        /* \"#utility.yul\":7562:7649   */\n      tag_442\n      jump\t// in\n    tag_556:\n        /* \"#utility.yul\":7402:7656   */\n      swap3\n      swap2\n      pop\n      pop\n      jump\t// out\n        /* \"#utility.yul\":7662:7842   */\n    tag_443:\n        /* \"#utility.yul\":7710:7787   */\n      0x4e487b7100000000000000000000000000000000000000000000000000000000\n        /* \"#utility.yul\":7707:7708   */\n      0x00\n        /* \"#utility.yul\":7700:7788   */\n      mstore\n        /* \"#utility.yul\":7807:7811   */\n      0x22\n        /* \"#utility.yul\":7804:7805   */\n      0x04\n        /* \"#utility.yul\":7797:7812   */\n      mstore\n        /* \"#utility.yul\":7831:7835   */\n      0x24\n        /* \"#utility.yul\":7828:7829   */\n      0x00\n        /* \"#utility.yul\":7821:7836   */\n      revert\n        /* \"#utility.yul\":7848:8168   */\n    tag_117:\n        /* \"#utility.yul\":7892:7898   */\n      0x00\n        /* \"#utility.yul\":7929:7930   */\n      0x02\n        /* \"#utility.yul\":7923:7927   */\n      dup3\n        /* \"#utility.yul\":7919:7931   */\n      div\n        /* \"#utility.yul\":7909:7931   */\n      swap1\n      pop\n        /* \"#utility.yul\":7976:7977   */\n      0x01\n        /* \"#utility.yul\":7970:7974   */\n      dup3\n        /* \"#utility.yul\":7966:7978   */\n      and\n        /* \"#utility.yul\":7997:8015   */\n      dup1\n        /* \"#utility.yul\":7987:8068   */\n      tag_559\n      jumpi\n        /* \"#utility.yul\":8053:8057   */\n      0x7f\n        /* \"#utility.yul\":8045:8051   */\n      dup3\n        /* \"#utility.yul\":8041:8058   */\n      and\n        /* \"#utility.yul\":8031:8058   */\n      swap2\n      pop\n        /* \"#utility.yul\":7987:8068   */\n    tag_559:\n        /* \"#utility.yul\":8115:8117   */\n      0x20\n        /* \"#utility.yul\":8107:8113   */\n      dup3\n        /* \"#utility.yul\":8104:8118   */\n      lt\n        /* \"#utility.yul\":8084:8102   */\n      dup2\n        /* \"#utility.yul\":8081:8119   */\n      sub\n        /* \"#utility.yul\":8078:8162   */\n      tag_560\n      jumpi\n        /* \"#utility.yul\":8134:8152   */\n      tag_561\n      tag_443\n      jump\t// in\n    tag_561:\n        /* \"#utility.yul\":8078:8162   */\n    tag_560:\n        /* \"#utility.yul\":7899:8168   */\n      pop\n        /* \"#utility.yul\":7848:8168   */\n      swap2\n      swap1\n      pop\n      jump\t// out\n        /* \"#utility.yul\":8174:8356   */\n    tag_444:\n        /* \"#utility.yul\":8314:8348   */\n      0x4f776e61626c653a2063616c6c6572206973206e6f7420746865206f776e6572\n        /* \"#utility.yul\":8310:8311   */\n      0x00\n        /* \"#utility.yul\":8302:8308   */\n      dup3\n        /* \"#utility.yul\":8298:8312   */\n      add\n        /* \"#utility.yul\":8291:8349   */\n      mstore\n        /* \"#utility.yul\":8174:8356   */\n      pop\n      jump\t// out\n        /* \"#utility.yul\":8362:8728   */\n    tag_445:\n        /* \"#utility.yul\":8504:8507   */\n      0x00\n        /* \"#utility.yul\":8525:8592   */\n      tag_564\n        /* \"#utility.yul\":8589:8591   */\n      0x20\n        /* \"#utility.yul\":8584:8587   */\n      dup4\n        /* \"#utility.yul\":8525:8592   */\n      tag_419\n      jump\t// in\n    tag_564:\n        /* \"#utility.yul\":8518:8592   */\n      swap2\n      pop\n        /* \"#utility.yul\":8601:8694   */\n      tag_565\n        /* \"#utility.yul\":8690:8693   */\n      dup3\n        /* \"#utility.yul\":8601:8694   */\n      tag_444\n      jump\t// in\n    tag_565:\n        /* \"#utility.yul\":8719:8721   */\n      0x20\n        /* \"#utility.yul\":8714:8717   */\n      dup3\n        /* \"#utility.yul\":8710:8722   */\n      add\n        /* \"#utility.yul\":8703:8722   */\n      swap1\n      pop\n        /* \"#utility.yul\":8362:8728   */\n      swap2\n      swap1\n      pop\n      jump\t// out\n        /* \"#utility.yul\":8734:9153   */\n    tag_132:\n        /* \"#utility.yul\":8900:8904   */\n      0x00\n        /* \"#utility.yul\":8938:8940   */\n      0x20\n        /* \"#utility.yul\":8927:8936   */\n      dup3\n        /* \"#utility.yul\":8923:8941   */\n      add\n        /* \"#utility.yul\":8915:8941   */\n      swap1\n      pop\n        /* \"#utility.yul\":8987:8996   */\n      dup2\n        /* \"#utility.yul\":8981:8985   */\n      dup2\n        /* \"#utility.yul\":8977:8997   */\n      sub\n        /* \"#utility.yul\":8973:8974   */\n      0x00\n        /* \"#utility.yul\":8962:8971   */\n      dup4\n        /* \"#utility.yul\":8958:8975   */\n      add\n        /* \"#utility.yul\":8951:8998   */\n      mstore\n        /* \"#utility.yul\":9015:9146   */\n      tag_567\n        /* \"#utility.yul\":9141:9145   */\n      dup2\n        /* \"#utility.yul\":9015:9146   */\n      tag_445\n      jump\t// in\n    tag_567:\n        /* \"#utility.yul\":9007:9146   */\n      swap1\n      pop\n        /* \"#utility.yul\":8734:9153   */\n      swap2\n      swap1\n      pop\n      jump\t// out\n        /* \"#utility.yul\":9159:9382   */\n    tag_446:\n        /* \"#utility.yul\":9299:9333   */\n      0x6163636f756e74206973206e6f74206120726567756c6172207368617265686f\n        /* \"#utility.yul\":9295:9296   */\n      0x00\n        /* \"#utility.yul\":9287:9293   */\n      dup3\n        /* \"#utility.yul\":9283:9297   */\n      add\n        /* \"#utility.yul\":9276:9334   */\n      mstore\n        /* \"#utility.yul\":9368:9374   */\n      0x6c64657200000000000000000000000000000000000000000000000000000000\n        /* \"#utility.yul\":9363:9365   */\n      0x20\n        /* \"#utility.yul\":9355:9361   */\n      dup3\n        /* \"#utility.yul\":9351:9366   */\n      add\n        /* \"#utility.yul\":9344:9375   */\n      mstore\n        /* \"#utility.yul\":9159:9382   */\n      pop\n      jump\t// out\n        /* \"#utility.yul\":9388:9754   */\n    tag_447:\n        /* \"#utility.yul\":9530:9533   */\n      0x00\n        /* \"#utility.yul\":9551:9618   */\n      tag_570\n        /* \"#utility.yul\":9615:9617   */\n      0x24\n        /* \"#utility.yul\":9610:9613   */\n      dup4\n        /* \"#utility.yul\":9551:9618   */\n      tag_419\n      jump\t// in\n    tag_570:\n        /* \"#utility.yul\":9544:9618   */\n      swap2\n      pop\n        /* \"#utility.yul\":9627:9720   */\n      tag_571\n        /* \"#utility.yul\":9716:9719   */\n      dup3\n        /* \"#utility.yul\":9627:9720   */\n      tag_446\n      jump\t// in\n    tag_571:\n        /* \"#utility.yul\":9745:9747   */\n      0x40\n        /* \"#utility.yul\":9740:9743   */\n      dup3\n        /* \"#utility.yul\":9736:9748   */\n      add\n        /* \"#utility.yul\":9729:9748   */\n      swap1\n      pop\n        /* \"#utility.yul\":9388:9754   */\n      swap2\n      swap1\n      pop\n      jump\t// out\n        /* \"#utility.yul\":9760:10179   */\n    tag_136:\n        /* \"#utility.yul\":9926:9930   */\n      0x00\n        /* \"#utility.yul\":9964:9966   */\n      0x20\n        /* \"#utility.yul\":9953:9962   */\n      dup3\n        /* \"#utility.yul\":9949:9967   */\n      add\n        /* \"#utility.yul\":9941:9967   */\n      swap1\n      pop\n        /* \"#utility.yul\":10013:10022   */\n      dup2\n        /* \"#utility.yul\":10007:10011   */\n      dup2\n        /* \"#utility.yul\":10003:10023   */\n      sub\n        /* \"#utility.yul\":9999:10000   */\n      0x00\n        /* \"#utility.yul\":9988:9997   */\n      dup4\n        /* \"#utility.yul\":9984:10001   */\n      add\n        /* \"#utility.yul\":9977:10024   */\n      mstore\n        /* \"#utility.yul\":10041:10172   */\n      tag_573\n        /* \"#utility.yul\":10167:10171   */\n      dup2\n        /* \"#utility.yul\":10041:10172   */\n      tag_447\n      jump\t// in\n    tag_573:\n        /* \"#utility.yul\":10033:10172   */\n      swap1\n      pop\n        /* \"#utility.yul\":9760:10179   */\n      swap2\n      swap1\n      pop\n      jump\t// out\n        /* \"#utility.yul\":10185:10365   */\n    tag_448:\n        /* \"#utility.yul\":10233:10310   */\n      0x4e487b7100000000000000000000000000000000000000000000000000000000\n        /* \"#utility.yul\":10230:10231   */\n      0x00\n        /* \"#utility.yul\":10223:10311   */\n      mstore\n        /* \"#utility.yul\":10330:10334   */\n      0x11\n        /* \"#utility.yul\":10327:10328   */\n      0x04\n        /* \"#utility.yul\":10320:10335   */\n      mstore\n        /* \"#utility.yul\":10354:10358   */\n      0x24\n        /* \"#utility.yul\":10351:10352   */\n      0x00\n        /* \"#utility.yul\":10344:10359   */\n      revert\n        /* \"#utility.yul\":10371:10676   */\n    tag_138:\n        /* \"#utility.yul\":10411:10414   */\n      0x00\n        /* \"#utility.yul\":10430:10450   */\n      tag_576\n        /* \"#utility.yul\":10448:10449   */\n      dup3\n        /* \"#utility.yul\":10430:10450   */\n      tag_430\n      jump\t// in\n    tag_576:\n        /* \"#utility.yul\":10425:10450   */\n      swap2\n      pop\n        /* \"#utility.yul\":10464:10484   */\n      tag_577\n        /* \"#utility.yul\":10482:10483   */\n      dup4\n        /* \"#utility.yul\":10464:10484   */\n      tag_430\n      jump\t// in\n    tag_577:\n        /* \"#utility.yul\":10459:10484   */\n      swap3\n      pop\n        /* \"#utility.yul\":10618:10619   */\n      dup3\n        /* \"#utility.yul\":10550:10616   */\n      0xffffffffffffffffffffffffffffffffffffffffffffffffffffffffffffffff\n        /* \"#utility.yul\":10546:10620   */\n      sub\n        /* \"#utility.yul\":10543:10544   */\n      dup3\n        /* \"#utility.yul\":10540:10621   */\n      gt\n        /* \"#utility.yul\":10537:10644   */\n      iszero\n      tag_578\n      jumpi\n        /* \"#utility.yul\":10624:10642   */\n      tag_579\n      tag_448\n      jump\t// in\n    tag_579:\n        /* \"#utility.yul\":10537:10644   */\n    tag_578:\n        /* \"#utility.yul\":10668:10669   */\n      dup3\n        /* \"#utility.yul\":10665:10666   */\n      dup3\n        /* \"#utility.yul\":10661:10670   */\n      add\n        /* \"#utility.yul\":10654:10670   */\n      swap1\n      pop\n        /* \"#utility.yul\":10371:10676   */\n      swap3\n      swap2\n      pop\n      pop\n      jump\t// out\n        /* \"#utility.yul\":10682:10862   */\n    tag_147:\n        /* \"#utility.yul\":10730:10807   */\n      0x4e487b7100000000000000000000000000000000000000000000000000000000\n        /* \"#utility.yul\":10727:10728   */\n      0x00\n        /* \"#utility.yul\":10720:10808   */\n      mstore\n        /* \"#utility.yul\":10827:10831   */\n      0x32\n        /* \"#utility.yul\":10824:10825   */\n      0x04\n        /* \"#utility.yul\":10817:10832   */\n      mstore\n        /* \"#utility.yul\":10851:10855   */\n      0x24\n        /* \"#utility.yul\":10848:10849   */\n      0x00\n        /* \"#utility.yul\":10841:10856   */\n      revert\n        /* \"#utility.yul\":10868:11035   */\n    tag_173:\n        /* \"#utility.yul\":10905:10908   */\n      0x00\n        /* \"#utility.yul\":10928:10950   */\n      tag_582\n        /* \"#utility.yul\":10944:10949   */\n      dup3\n        /* \"#utility.yul\":10928:10950   */\n      tag_436\n      jump\t// in\n    tag_582:\n        /* \"#utility.yul\":10919:10950   */\n      swap2\n      pop\n        /* \"#utility.yul\":10972:10976   */\n      0xff\n        /* \"#utility.yul\":10965:10970   */\n      dup3\n        /* \"#utility.yul\":10962:10977   */\n      sub\n        /* \"#utility.yul\":10959:11000   */\n      tag_583\n      jumpi\n        /* \"#utility.yul\":10980:10998   */\n      tag_584\n      tag_448\n      jump\t// in\n    tag_584:\n        /* \"#utility.yul\":10959:11000   */\n    tag_583:\n        /* \"#utility.yul\":11027:11028   */\n      0x01\n        /* \"#utility.yul\":11020:11025   */\n      dup3\n        /* \"#utility.yul\":11016:11029   */\n      add\n        /* \"#utility.yul\":11009:11029   */\n      swap1\n      pop\n        /* \"#utility.yul\":10868:11035   */\n      swap2\n      swap1\n      pop\n      jump\t// out\n        /* \"#utility.yul\":11041:11223   */\n    tag_449:\n        /* \"#utility.yul\":11181:11215   */\n      0x6163636f756e74206973206120726567756c6172207368617265686f6c646572\n        /* \"#utility.yul\":11177:11178   */\n      0x00\n        /* \"#utility.yul\":11169:11175   */\n      dup3\n        /* \"#utility.yul\":11165:11179   */\n      add\n        /* \"#utility.yul\":11158:11216   */\n      mstore\n        /* \"#utility.yul\":11041:11223   */\n      pop\n      jump\t// out\n        /* \"#utility.yul\":11229:11595   */\n    tag_450:\n        /* \"#utility.yul\":11371:11374   */\n      0x00\n        /* \"#utility.yul\":11392:11459   */\n      tag_587\n        /* \"#utility.yul\":11456:11458   */\n      0x20\n        /* \"#utility.yul\":11451:11454   */\n      dup4\n        /* \"#utility.yul\":11392:11459   */\n      tag_419\n      jump\t// in\n    tag_587:\n        /* \"#utility.yul\":11385:11459   */\n      swap2\n      pop\n        /* \"#utility.yul\":11468:11561   */\n      tag_588\n        /* \"#utility.yul\":11557:11560   */\n      dup3\n        /* \"#utility.yul\":11468:11561   */\n      tag_449\n      jump\t// in\n    tag_588:\n        /* \"#utility.yul\":11586:11588   */\n      0x20\n        /* \"#utility.yul\":11581:11584   */\n      dup3\n        /* \"#utility.yul\":11577:11589   */\n      add\n        /* \"#utility.yul\":11570:11589   */\n      swap1\n      pop\n        /* \"#utility.yul\":11229:11595   */\n      swap2\n      swap1\n      pop\n      jump\t// out\n        /* \"#utility.yul\":11601:12020   */\n    tag_183:\n        /* \"#utility.yul\":11767:11771   */\n      0x00\n        /* \"#utility.yul\":11805:11807   */\n      0x20\n        /* \"#utility.yul\":11794:11803   */\n      dup3\n        /* \"#utility.yul\":11790:11808   */\n      add\n        /* \"#utility.yul\":11782:11808   */\n      swap1\n      pop\n        /* \"#utility.yul\":11854:11863   */\n      dup2\n        /* \"#utility.yul\":11848:11852   */\n      dup2\n        /* \"#utility.yul\":11844:11864   */\n      sub\n        /* \"#utility.yul\":11840:11841   */\n      0x00\n        /* \"#utility.yul\":11829:11838   */\n      dup4\n        /* \"#utility.yul\":11825:11842   */\n      add\n        /* \"#utility.yul\":11818:11865   */\n      mstore\n        /* \"#utility.yul\":11882:12013   */\n      tag_590\n        /* \"#utility.yul\":12008:12012   */\n      dup2\n        /* \"#utility.yul\":11882:12013   */\n      tag_450\n      jump\t// in\n    tag_590:\n        /* \"#utility.yul\":11874:12013   */\n      swap1\n      pop\n        /* \"#utility.yul\":11601:12020   */\n      swap2\n      swap1\n      pop\n      jump\t// out\n        /* \"#utility.yul\":12026:12211   */\n    tag_190:\n        /* \"#utility.yul\":12064:12068   */\n      0x00\n        /* \"#utility.yul\":12084:12102   */\n      tag_592\n        /* \"#utility.yul\":12100:12101   */\n      dup3\n        /* \"#utility.yul\":12084:12102   */\n      tag_436\n      jump\t// in\n    tag_592:\n        /* \"#utility.yul\":12079:12102   */\n      swap2\n      pop\n        /* \"#utility.yul\":12116:12134   */\n      tag_593\n        /* \"#utility.yul\":12132:12133   */\n      dup4\n        /* \"#utility.yul\":12116:12134   */\n      tag_436\n      jump\t// in\n    tag_593:\n        /* \"#utility.yul\":12111:12134   */\n      swap3\n      pop\n        /* \"#utility.yul\":12153:12154   */\n      dup3\n        /* \"#utility.yul\":12150:12151   */\n      dup3\n        /* \"#utility.yul\":12147:12155   */\n      lt\n        /* \"#utility.yul\":12144:12178   */\n      iszero\n      tag_594\n      jumpi\n        /* \"#utility.yul\":12158:12176   */\n      tag_595\n      tag_448\n      jump\t// in\n    tag_595:\n        /* \"#utility.yul\":12144:12178   */\n    tag_594:\n        /* \"#utility.yul\":12203:12204   */\n      dup3\n        /* \"#utility.yul\":12200:12201   */\n      dup3\n        /* \"#utility.yul\":12196:12205   */\n      sub\n        /* \"#utility.yul\":12188:12205   */\n      swap1\n      pop\n        /* \"#utility.yul\":12026:12211   */\n      swap3\n      swap2\n      pop\n      pop\n      jump\t// out\n        /* \"#utility.yul\":12217:12408   */\n    tag_333:\n        /* \"#utility.yul\":12257:12261   */\n      0x00\n        /* \"#utility.yul\":12277:12297   */\n      tag_597\n        /* \"#utility.yul\":12295:12296   */\n      dup3\n        /* \"#utility.yul\":12277:12297   */\n      tag_430\n      jump\t// in\n    tag_597:\n        /* \"#utility.yul\":12272:12297   */\n      swap2\n      pop\n        /* \"#utility.yul\":12311:12331   */\n      tag_598\n        /* \"#utility.yul\":12329:12330   */\n      dup4\n        /* \"#utility.yul\":12311:12331   */\n      tag_430\n      jump\t// in\n    tag_598:\n        /* \"#utility.yul\":12306:12331   */\n      swap3\n      pop\n        /* \"#utility.yul\":12350:12351   */\n      dup3\n        /* \"#utility.yul\":12347:12348   */\n      dup3\n        /* \"#utility.yul\":12344:12352   */\n      lt\n        /* \"#utility.yul\":12341:12375   */\n      iszero\n      tag_599\n      jumpi\n        /* \"#utility.yul\":12355:12373   */\n      tag_600\n      tag_448\n      jump\t// in\n    tag_600:\n        /* \"#utility.yul\":12341:12375   */\n    tag_599:\n        /* \"#utility.yul\":12400:12401   */\n      dup3\n        /* \"#utility.yul\":12397:12398   */\n      dup3\n        /* \"#utility.yul\":12393:12402   */\n      sub\n        /* \"#utility.yul\":12385:12402   */\n      swap1\n      pop\n        /* \"#utility.yul\":12217:12408   */\n      swap3\n      swap2\n      pop\n      pop\n      jump\t// out\n        /* \"#utility.yul\":12414:12638   */\n    tag_451:\n        /* \"#utility.yul\":12554:12588   */\n      0x45524332303a2064656372656173656420616c6c6f77616e63652062656c6f77\n        /* \"#utility.yul\":12550:12551   */\n      0x00\n        /* \"#utility.yul\":12542:12548   */\n      dup3\n        /* \"#utility.yul\":12538:12552   */\n      add\n        /* \"#utility.yul\":12531:12589   */\n      mstore\n        /* \"#utility.yul\":12623:12630   */\n      0x207a65726f000000000000000000000000000000000000000000000000000000\n        /* \"#utility.yul\":12618:12620   */\n      0x20\n        /* \"#utility.yul\":12610:12616   */\n      dup3\n        /* \"#utility.yul\":12606:12621   */\n      add\n        /* \"#utility.yul\":12599:12631   */\n      mstore\n        /* \"#utility.yul\":12414:12638   */\n      pop\n      jump\t// out\n        /* \"#utility.yul\":12644:13010   */\n    tag_452:\n        /* \"#utility.yul\":12786:12789   */\n      0x00\n        /* \"#utility.yul\":12807:12874   */\n      tag_603\n        /* \"#utility.yul\":12871:12873   */\n      0x25\n        /* \"#utility.yul\":12866:12869   */\n      dup4\n        /* \"#utility.yul\":12807:12874   */\n      tag_419\n      jump\t// in\n    tag_603:\n        /* \"#utility.yul\":12800:12874   */\n      swap2\n      pop\n        /* \"#utility.yul\":12883:12976   */\n      tag_604\n        /* \"#utility.yul\":12972:12975   */\n      dup3\n        /* \"#utility.yul\":12883:12976   */\n      tag_451\n      jump\t// in\n    tag_604:\n        /* \"#utility.yul\":13001:13003   */\n      0x40\n        /* \"#utility.yul\":12996:12999   */\n      dup3\n        /* \"#utility.yul\":12992:13004   */\n      add\n        /* \"#utility.yul\":12985:13004   */\n      swap1\n      pop\n        /* \"#utility.yul\":12644:13010   */\n      swap2\n      swap1\n      pop\n      jump\t// out\n        /* \"#utility.yul\":13016:13435   */\n    tag_345:\n        /* \"#utility.yul\":13182:13186   */\n      0x00\n        /* \"#utility.yul\":13220:13222   */\n      0x20\n        /* \"#utility.yul\":13209:13218   */\n      dup3\n        /* \"#utility.yul\":13205:13223   */\n      add\n        /* \"#utility.yul\":13197:13223   */\n      swap1\n      pop\n        /* \"#utility.yul\":13269:13278   */\n      dup2\n        /* \"#utility.yul\":13263:13267   */\n      dup2\n        /* \"#utility.yul\":13259:13279   */\n      sub\n        /* \"#utility.yul\":13255:13256   */\n      0x00\n        /* \"#utility.yul\":13244:13253   */\n      dup4\n        /* \"#utility.yul\":13240:13257   */\n      add\n        /* \"#utility.yul\":13233:13280   */\n      mstore\n        /* \"#utility.yul\":13297:13428   */\n      tag_606\n        /* \"#utility.yul\":13423:13427   */\n      dup2\n        /* \"#utility.yul\":13297:13428   */\n      tag_452\n      jump\t// in\n    tag_606:\n        /* \"#utility.yul\":13289:13428   */\n      swap1\n      pop\n        /* \"#utility.yul\":13016:13435   */\n      swap2\n      swap1\n      pop\n      jump\t// out\n        /* \"#utility.yul\":13441:13666   */\n    tag_453:\n        /* \"#utility.yul\":13581:13615   */\n      0x4f776e61626c653a206e6577206f776e657220697320746865207a65726f2061\n        /* \"#utility.yul\":13577:13578   */\n      0x00\n        /* \"#utility.yul\":13569:13575   */\n      dup3\n        /* \"#utility.yul\":13565:13579   */\n      add\n        /* \"#utility.yul\":13558:13616   */\n      mstore\n        /* \"#utility.yul\":13650:13658   */\n      0x6464726573730000000000000000000000000000000000000000000000000000\n        /* \"#utility.yul\":13645:13647   */\n      0x20\n        /* \"#utility.yul\":13637:13643   */\n      dup3\n        /* \"#utility.yul\":13633:13648   */\n      add\n        /* \"#utility.yul\":13626:13659   */\n      mstore\n        /* \"#utility.yul\":13441:13666   */\n      pop\n      jump\t// out\n        /* \"#utility.yul\":13672:14038   */\n    tag_454:\n        /* \"#utility.yul\":13814:13817   */\n      0x00\n        /* \"#utility.yul\":13835:13902   */\n      tag_609\n        /* \"#utility.yul\":13899:13901   */\n      0x26\n        /* \"#utility.yul\":13894:13897   */\n      dup4\n        /* \"#utility.yul\":13835:13902   */\n      tag_419\n      jump\t// in\n    tag_609:\n        /* \"#utility.yul\":13828:13902   */\n      swap2\n      pop\n        /* \"#utility.yul\":13911:14004   */\n      tag_610\n        /* \"#utility.yul\":14000:14003   */\n      dup3\n        /* \"#utility.yul\":13911:14004   */\n      tag_453\n      jump\t// in\n    tag_610:\n        /* \"#utility.yul\":14029:14031   */\n      0x40\n        /* \"#utility.yul\":14024:14027   */\n      dup3\n        /* \"#utility.yul\":14020:14032   */\n      add\n        /* \"#utility.yul\":14013:14032   */\n      swap1\n      pop\n        /* \"#utility.yul\":13672:14038   */\n      swap2\n      swap1\n      pop\n      jump\t// out\n        /* \"#utility.yul\":14044:14463   */\n    tag_374:\n        /* \"#utility.yul\":14210:14214   */\n      0x00\n        /* \"#utility.yul\":14248:14250   */\n      0x20\n        /* \"#utility.yul\":14237:14246   */\n      dup3\n        /* \"#utility.yul\":14233:14251   */\n      add\n        /* \"#utility.yul\":14225:14251   */\n      swap1\n      pop\n        /* \"#utility.yul\":14297:14306   */\n      dup2\n        /* \"#utility.yul\":14291:14295   */\n      dup2\n        /* \"#utility.yul\":14287:14307   */\n      sub\n        /* \"#utility.yul\":14283:14284   */\n      0x00\n        /* \"#utility.yul\":14272:14281   */\n      dup4\n        /* \"#utility.yul\":14268:14285   */\n      add\n        /* \"#utility.yul\":14261:14308   */\n      mstore\n        /* \"#utility.yul\":14325:14456   */\n      tag_612\n        /* \"#utility.yul\":14451:14455   */\n      dup2\n        /* \"#utility.yul\":14325:14456   */\n      tag_454\n      jump\t// in\n    tag_612:\n        /* \"#utility.yul\":14317:14456   */\n      swap1\n      pop\n        /* \"#utility.yul\":14044:14463   */\n      swap2\n      swap1\n      pop\n      jump\t// out\n        /* \"#utility.yul\":14469:14692   */\n    tag_455:\n        /* \"#utility.yul\":14609:14643   */\n      0x45524332303a20617070726f76652066726f6d20746865207a65726f20616464\n        /* \"#utility.yul\":14605:14606   */\n      0x00\n        /* \"#utility.yul\":14597:14603   */\n      dup3\n        /* \"#utility.yul\":14593:14607   */\n      add\n        /* \"#utility.yul\":14586:14644   */\n      mstore\n        /* \"#utility.yul\":14678:14684   */\n      0x7265737300000000000000000000000000000000000000000000000000000000\n        /* \"#utility.yul\":14673:14675   */\n      0x20\n        /* \"#utility.yul\":14665:14671   */\n      dup3\n        /* \"#utility.yul\":14661:14676   */\n      add\n        /* \"#utility.yul\":14654:14685   */\n      mstore\n        /* \"#utility.yul\":14469:14692   */\n      pop\n      jump\t// out\n        /* \"#utility.yul\":14698:15064   */\n    tag_456:\n        /* \"#utility.yul\":14840:14843   */\n      0x00\n        /* \"#utility.yul\":14861:14928   */\n      tag_615\n        /* \"#utility.yul\":14925:14927   */\n      0x24\n        /* \"#utility.yul\":14920:14923   */\n      dup4\n        /* \"#utility.yul\":14861:14928   */\n      tag_419\n      jump\t// in\n    tag_615:\n        /* \"#utility.yul\":14854:14928   */\n      swap2\n      pop\n        /* \"#utility.yul\":14937:15030   */\n      tag_616\n        /* \"#utility.yul\":15026:15029   */\n      dup3\n        /* \"#utility.yul\":14937:15030   */\n      tag_455\n      jump\t// in\n    tag_616:\n        /* \"#utility.yul\":15055:15057   */\n      0x40\n        /* \"#utility.yul\":15050:15053   */\n      dup3\n        /* \"#utility.yul\":15046:15058   */\n      add\n        /* \"#utility.yul\":15039:15058   */\n      swap1\n      pop\n        /* \"#utility.yul\":14698:15064   */\n      swap2\n      swap1\n      pop\n      jump\t// out\n        /* \"#utility.yul\":15070:15489   */\n    tag_380:\n        /* \"#utility.yul\":15236:15240   */\n      0x00\n        /* \"#utility.yul\":15274:15276   */\n      0x20\n        /* \"#utility.yul\":15263:15272   */\n      dup3\n        /* \"#utility.yul\":15259:15277   */\n      add\n        /* \"#utility.yul\":15251:15277   */\n      swap1\n      pop\n        /* \"#utility.yul\":15323:15332   */\n      dup2\n        /* \"#utility.yul\":15317:15321   */\n      dup2\n        /* \"#utility.yul\":15313:15333   */\n      sub\n        /* \"#utility.yul\":15309:15310   */\n      0x00\n        /* \"#utility.yul\":15298:15307   */\n      dup4\n        /* \"#utility.yul\":15294:15311   */\n      add\n        /* \"#utility.yul\":15287:15334   */\n      mstore\n        /* \"#utility.yul\":15351:15482   */\n      tag_618\n        /* \"#utility.yul\":15477:15481   */\n      dup2\n        /* \"#utility.yul\":15351:15482   */\n      tag_456\n      jump\t// in\n    tag_618:\n        /* \"#utility.yul\":15343:15482   */\n      swap1\n      pop\n        /* \"#utility.yul\":15070:15489   */\n      swap2\n      swap1\n      pop\n      jump\t// out\n        /* \"#utility.yul\":15495:15716   */\n    tag_457:\n        /* \"#utility.yul\":15635:15669   */\n      0x45524332303a20617070726f766520746f20746865207a65726f206164647265\n        /* \"#utility.yul\":15631:15632   */\n      0x00\n        /* \"#utility.yul\":15623:15629   */\n      dup3\n        /* \"#utility.yul\":15619:15633   */\n      add\n        /* \"#utility.yul\":15612:15670   */\n      mstore\n        /* \"#utility.yul\":15704:15708   */\n      0x7373000000000000000000000000000000000000000000000000000000000000\n        /* \"#utility.yul\":15699:15701   */\n      0x20\n        /* \"#utility.yul\":15691:15697   */\n      dup3\n        /* \"#utility.yul\":15687:15702   */\n      add\n        /* \"#utility.yul\":15680:15709   */\n      mstore\n        /* \"#utility.yul\":15495:15716   */\n      pop\n      jump\t// out\n        /* \"#utility.yul\":15722:16088   */\n    tag_458:\n        /* \"#utility.yul\":15864:15867   */\n      0x00\n        /* \"#utility.yul\":15885:15952   */\n      tag_621\n        /* \"#utility.yul\":15949:15951   */\n      0x22\n        /* \"#utility.yul\":15944:15947   */\n      dup4\n        /* \"#utility.yul\":15885:15952   */\n      tag_419\n      jump\t// in\n    tag_621:\n        /* \"#utility.yul\":15878:15952   */\n      swap2\n      pop\n        /* \"#utility.yul\":15961:16054   */\n      tag_622\n        /* \"#utility.yul\":16050:16053   */\n      dup3\n        /* \"#utility.yul\":15961:16054   */\n      tag_457\n      jump\t// in\n    tag_622:\n        /* \"#utility.yul\":16079:16081   */\n      0x40\n        /* \"#utility.yul\":16074:16077   */\n      dup3\n        /* \"#utility.yul\":16070:16082   */\n      add\n        /* \"#utility.yul\":16063:16082   */\n      swap1\n      pop\n        /* \"#utility.yul\":15722:16088   */\n      swap2\n      swap1\n      pop\n      jump\t// out\n        /* \"#utility.yul\":16094:16513   */\n    tag_383:\n        /* \"#utility.yul\":16260:16264   */\n      0x00\n        /* \"#utility.yul\":16298:16300   */\n      0x20\n        /* \"#utility.yul\":16287:16296   */\n      dup3\n        /* \"#utility.yul\":16283:16301   */\n      add\n        /* \"#utility.yul\":16275:16301   */\n      swap1\n      pop\n        /* \"#utility.yul\":16347:16356   */\n      dup2\n        /* \"#utility.yul\":16341:16345   */\n      dup2\n        /* \"#utility.yul\":16337:16357   */\n      sub\n        /* \"#utility.yul\":16333:16334   */\n      0x00\n        /* \"#utility.yul\":16322:16331   */\n      dup4\n        /* \"#utility.yul\":16318:16335   */\n      add\n        /* \"#utility.yul\":16311:16358   */\n      mstore\n        /* \"#utility.yul\":16375:16506   */\n      tag_624\n        /* \"#utility.yul\":16501:16505   */\n      dup2\n        /* \"#utility.yul\":16375:16506   */\n      tag_458\n      jump\t// in\n    tag_624:\n        /* \"#utility.yul\":16367:16506   */\n      swap1\n      pop\n        /* \"#utility.yul\":16094:16513   */\n      swap2\n      swap1\n      pop\n      jump\t// out\n        /* \"#utility.yul\":16519:16699   */\n    tag_459:\n        /* \"#utility.yul\":16567:16644   */\n      0x4e487b7100000000000000000000000000000000000000000000000000000000\n        /* \"#utility.yul\":16564:16565   */\n      0x00\n        /* \"#utility.yul\":16557:16645   */\n      mstore\n        /* \"#utility.yul\":16664:16668   */\n      0x12\n        /* \"#utility.yul\":16661:16662   */\n      0x04\n        /* \"#utility.yul\":16654:16669   */\n      mstore\n        /* \"#utility.yul\":16688:16692   */\n      0x24\n        /* \"#utility.yul\":16685:16686   */\n      0x00\n        /* \"#utility.yul\":16678:16693   */\n      revert\n        /* \"#utility.yul\":16705:16890   */\n    tag_387:\n        /* \"#utility.yul\":16745:16746   */\n      0x00\n        /* \"#utility.yul\":16762:16782   */\n      tag_627\n        /* \"#utility.yul\":16780:16781   */\n      dup3\n        /* \"#utility.yul\":16762:16782   */\n      tag_430\n      jump\t// in\n    tag_627:\n        /* \"#utility.yul\":16757:16782   */\n      swap2\n      pop\n        /* \"#utility.yul\":16796:16816   */\n      tag_628\n        /* \"#utility.yul\":16814:16815   */\n      dup4\n        /* \"#utility.yul\":16796:16816   */\n      tag_430\n      jump\t// in\n    tag_628:\n        /* \"#utility.yul\":16791:16816   */\n      swap3\n      pop\n        /* \"#utility.yul\":16835:16836   */\n      dup3\n        /* \"#utility.yul\":16825:16860   */\n      tag_629\n      jumpi\n        /* \"#utility.yul\":16840:16858   */\n      tag_630\n      tag_459\n      jump\t// in\n    tag_630:\n        /* \"#utility.yul\":16825:16860   */\n    tag_629:\n        /* \"#utility.yul\":16882:16883   */\n      dup3\n        /* \"#utility.yul\":16879:16880   */\n      dup3\n        /* \"#utility.yul\":16875:16884   */\n      div\n        /* \"#utility.yul\":16870:16884   */\n      swap1\n      pop\n        /* \"#utility.yul\":16705:16890   */\n      swap3\n      swap2\n      pop\n      pop\n      jump\t// out\n        /* \"#utility.yul\":16896:17244   */\n    tag_390:\n        /* \"#utility.yul\":16936:16943   */\n      0x00\n        /* \"#utility.yul\":16959:16979   */\n      tag_632\n        /* \"#utility.yul\":16977:16978   */\n      dup3\n        /* \"#utility.yul\":16959:16979   */\n      tag_430\n      jump\t// in\n    tag_632:\n        /* \"#utility.yul\":16954:16979   */\n      swap2\n      pop\n        /* \"#utility.yul\":16993:17013   */\n      tag_633\n        /* \"#utility.yul\":17011:17012   */\n      dup4\n        /* \"#utility.yul\":16993:17013   */\n      tag_430\n      jump\t// in\n    tag_633:\n        /* \"#utility.yul\":16988:17013   */\n      swap3\n      pop\n        /* \"#utility.yul\":17181:17182   */\n      dup2\n        /* \"#utility.yul\":17113:17179   */\n      0xffffffffffffffffffffffffffffffffffffffffffffffffffffffffffffffff\n        /* \"#utility.yul\":17109:17183   */\n      div\n        /* \"#utility.yul\":17106:17107   */\n      dup4\n        /* \"#utility.yul\":17103:17184   */\n      gt\n        /* \"#utility.yul\":17098:17099   */\n      dup3\n        /* \"#utility.yul\":17091:17100   */\n      iszero\n        /* \"#utility.yul\":17084:17101   */\n      iszero\n        /* \"#utility.yul\":17080:17185   */\n      and\n        /* \"#utility.yul\":17077:17208   */\n      iszero\n      tag_634\n      jumpi\n        /* \"#utility.yul\":17188:17206   */\n      tag_635\n      tag_448\n      jump\t// in\n    tag_635:\n        /* \"#utility.yul\":17077:17208   */\n    tag_634:\n        /* \"#utility.yul\":17236:17237   */\n      dup3\n        /* \"#utility.yul\":17233:17234   */\n      dup3\n        /* \"#utility.yul\":17229:17238   */\n      mul\n        /* \"#utility.yul\":17218:17238   */\n      swap1\n      pop\n        /* \"#utility.yul\":16896:17244   */\n      swap3\n      swap2\n      pop\n      pop\n      jump\t// out\n        /* \"#utility.yul\":17250:17474   */\n    tag_460:\n        /* \"#utility.yul\":17390:17424   */\n      0x45524332303a207472616e736665722066726f6d20746865207a65726f206164\n        /* \"#utility.yul\":17386:17387   */\n      0x00\n        /* \"#utility.yul\":17378:17384   */\n      dup3\n        /* \"#utility.yul\":17374:17388   */\n      add\n        /* \"#utility.yul\":17367:17425   */\n      mstore\n        /* \"#utility.yul\":17459:17466   */\n      0x6472657373000000000000000000000000000000000000000000000000000000\n        /* \"#utility.yul\":17454:17456   */\n      0x20\n        /* \"#utility.yul\":17446:17452   */\n      dup3\n        /* \"#utility.yul\":17442:17457   */\n      add\n        /* \"#utility.yul\":17435:17467   */\n      mstore\n        /* \"#utility.yul\":17250:17474   */\n      pop\n      jump\t// out\n        /* \"#utility.yul\":17480:17846   */\n    tag_461:\n        /* \"#utility.yul\":17622:17625   */\n      0x00\n        /* \"#utility.yul\":17643:17710   */\n      tag_638\n        /* \"#utility.yul\":17707:17709   */\n      0x25\n        /* \"#utility.yul\":17702:17705   */\n      dup4\n        /* \"#utility.yul\":17643:17710   */\n      tag_419\n      jump\t// in\n    tag_638:\n        /* \"#utility.yul\":17636:17710   */\n      swap2\n      pop\n        /* \"#utility.yul\":17719:17812   */\n      tag_639\n        /* \"#utility.yul\":17808:17811   */\n      dup3\n        /* \"#utility.yul\":17719:17812   */\n      tag_460\n      jump\t// in\n    tag_639:\n        /* \"#utility.yul\":17837:17839   */\n      0x40\n        /* \"#utility.yul\":17832:17835   */\n      dup3\n        /* \"#utility.yul\":17828:17840   */\n      add\n        /* \"#utility.yul\":17821:17840   */\n      swap1\n      pop\n        /* \"#utility.yul\":17480:17846   */\n      swap2\n      swap1\n      pop\n      jump\t// out\n        /* \"#utility.yul\":17852:18271   */\n    tag_405:\n        /* \"#utility.yul\":18018:18022   */\n      0x00\n        /* \"#utility.yul\":18056:18058   */\n      0x20\n        /* \"#utility.yul\":18045:18054   */\n      dup3\n        /* \"#utility.yul\":18041:18059   */\n      add\n        /* \"#utility.yul\":18033:18059   */\n      swap1\n      pop\n        /* \"#utility.yul\":18105:18114   */\n      dup2\n        /* \"#utility.yul\":18099:18103   */\n      dup2\n        /* \"#utility.yul\":18095:18115   */\n      sub\n        /* \"#utility.yul\":18091:18092   */\n      0x00\n        /* \"#utility.yul\":18080:18089   */\n      dup4\n        /* \"#utility.yul\":18076:18093   */\n      add\n        /* \"#utility.yul\":18069:18116   */\n      mstore\n        /* \"#utility.yul\":18133:18264   */\n      tag_641\n        /* \"#utility.yul\":18259:18263   */\n      dup2\n        /* \"#utility.yul\":18133:18264   */\n      tag_461\n      jump\t// in\n    tag_641:\n        /* \"#utility.yul\":18125:18264   */\n      swap1\n      pop\n        /* \"#utility.yul\":17852:18271   */\n      swap2\n      swap1\n      pop\n      jump\t// out\n        /* \"#utility.yul\":18277:18499   */\n    tag_462:\n        /* \"#utility.yul\":18417:18451   */\n      0x45524332303a207472616e7366657220746f20746865207a65726f2061646472\n        /* \"#utility.yul\":18413:18414   */\n      0x00\n        /* \"#utility.yul\":18405:18411   */\n      dup3\n        /* \"#utility.yul\":18401:18415   */\n      add\n        /* \"#utility.yul\":18394:18452   */\n      mstore\n        /* \"#utility.yul\":18486:18491   */\n      0x6573730000000000000000000000000000000000000000000000000000000000\n        /* \"#utility.yul\":18481:18483   */\n      0x20\n        /* \"#utility.yul\":18473:18479   */\n      dup3\n        /* \"#utility.yul\":18469:18484   */\n      add\n        /* \"#utility.yul\":18462:18492   */\n      mstore\n        /* \"#utility.yul\":18277:18499   */\n      pop\n      jump\t// out\n        /* \"#utility.yul\":18505:18871   */\n    tag_463:\n        /* \"#utility.yul\":18647:18650   */\n      0x00\n        /* \"#utility.yul\":18668:18735   */\n      tag_644\n        /* \"#utility.yul\":18732:18734   */\n      0x23\n        /* \"#utility.yul\":18727:18730   */\n      dup4\n        /* \"#utility.yul\":18668:18735   */\n      tag_419\n      jump\t// in\n    tag_644:\n        /* \"#utility.yul\":18661:18735   */\n      swap2\n      pop\n        /* \"#utility.yul\":18744:18837   */\n      tag_645\n        /* \"#utility.yul\":18833:18836   */\n      dup3\n        /* \"#utility.yul\":18744:18837   */\n      tag_462\n      jump\t// in\n    tag_645:\n        /* \"#utility.yul\":18862:18864   */\n      0x40\n        /* \"#utility.yul\":18857:18860   */\n      dup3\n        /* \"#utility.yul\":18853:18865   */\n      add\n        /* \"#utility.yul\":18846:18865   */\n      swap1\n      pop\n        /* \"#utility.yul\":18505:18871   */\n      swap2\n      swap1\n      pop\n      jump\t// out\n        /* \"#utility.yul\":18877:19296   */\n    tag_408:\n        /* \"#utility.yul\":19043:19047   */\n      0x00\n        /* \"#utility.yul\":19081:19083   */\n      0x20\n        /* \"#utility.yul\":19070:19079   */\n      dup3\n        /* \"#utility.yul\":19066:19084   */\n      add\n        /* \"#utility.yul\":19058:19084   */\n      swap1\n      pop\n        /* \"#utility.yul\":19130:19139   */\n      dup2\n        /* \"#utility.yul\":19124:19128   */\n      dup2\n        /* \"#utility.yul\":19120:19140   */\n      sub\n        /* \"#utility.yul\":19116:19117   */\n      0x00\n        /* \"#utility.yul\":19105:19114   */\n      dup4\n        /* \"#utility.yul\":19101:19118   */\n      add\n        /* \"#utility.yul\":19094:19141   */\n      mstore\n        /* \"#utility.yul\":19158:19289   */\n      tag_647\n        /* \"#utility.yul\":19284:19288   */\n      dup2\n        /* \"#utility.yul\":19158:19289   */\n      tag_463\n      jump\t// in\n    tag_647:\n        /* \"#utility.yul\":19150:19289   */\n      swap1\n      pop\n        /* \"#utility.yul\":18877:19296   */\n      swap2\n      swap1\n      pop\n      jump\t// out\n        /* \"#utility.yul\":19302:19527   */\n    tag_464:\n        /* \"#utility.yul\":19442:19476   */\n      0x45524332303a207472616e7366657220616d6f756e7420657863656564732062\n        /* \"#utility.yul\":19438:19439   */\n      0x00\n        /* \"#utility.yul\":19430:19436   */\n      dup3\n        /* \"#utility.yul\":19426:19440   */\n      add\n        /* \"#utility.yul\":19419:19477   */\n      mstore\n        /* \"#utility.yul\":19511:19519   */\n      0x616c616e63650000000000000000000000000000000000000000000000000000\n        /* \"#utility.yul\":19506:19508   */\n      0x20\n        /* \"#utility.yul\":19498:19504   */\n      dup3\n        /* \"#utility.yul\":19494:19509   */\n      add\n        /* \"#utility.yul\":19487:19520   */\n      mstore\n        /* \"#utility.yul\":19302:19527   */\n      pop\n      jump\t// out\n        /* \"#utility.yul\":19533:19899   */\n    tag_465:\n        /* \"#utility.yul\":19675:19678   */\n      0x00\n        /* \"#utility.yul\":19696:19763   */\n      tag_650\n        /* \"#utility.yul\":19760:19762   */\n      0x26\n        /* \"#utility.yul\":19755:19758   */\n      dup4\n        /* \"#utility.yul\":19696:19763   */\n      tag_419\n      jump\t// in\n    tag_650:\n        /* \"#utility.yul\":19689:19763   */\n      swap2\n      pop\n        /* \"#utility.yul\":19772:19865   */\n      tag_651\n        /* \"#utility.yul\":19861:19864   */\n      dup3\n        /* \"#utility.yul\":19772:19865   */\n      tag_464\n      jump\t// in\n    tag_651:\n        /* \"#utility.yul\":19890:19892   */\n      0x40\n        /* \"#utility.yul\":19885:19888   */\n      dup3\n        /* \"#utility.yul\":19881:19893   */\n      add\n        /* \"#utility.yul\":19874:19893   */\n      swap1\n      pop\n        /* \"#utility.yul\":19533:19899   */\n      swap2\n      swap1\n      pop\n      jump\t// out\n        /* \"#utility.yul\":19905:20324   */\n    tag_413:\n        /* \"#utility.yul\":20071:20075   */\n      0x00\n        /* \"#utility.yul\":20109:20111   */\n      0x20\n        /* \"#utility.yul\":20098:20107   */\n      dup3\n        /* \"#utility.yul\":20094:20112   */\n      add\n        /* \"#utility.yul\":20086:20112   */\n      swap1\n      pop\n        /* \"#utility.yul\":20158:20167   */\n      dup2\n        /* \"#utility.yul\":20152:20156   */\n      dup2\n        /* \"#utility.yul\":20148:20168   */\n      sub\n        /* \"#utility.yul\":20144:20145   */\n      0x00\n        /* \"#utility.yul\":20133:20142   */\n      dup4\n        /* \"#utility.yul\":20129:20146   */\n      add\n        /* \"#utility.yul\":20122:20169   */\n      mstore\n        /* \"#utility.yul\":20186:20317   */\n      tag_653\n        /* \"#utility.yul\":20312:20316   */\n      dup2\n        /* \"#utility.yul\":20186:20317   */\n      tag_465\n      jump\t// in\n    tag_653:\n        /* \"#utility.yul\":20178:20317   */\n      swap1\n      pop\n        /* \"#utility.yul\":19905:20324   */\n      swap2\n      swap1\n      pop\n      jump\t// out\n\n    auxdata: 0xa26469706673582212203cd60605ed5391ee73b03df18b6df1952c2766c508bde34ed64f8e17ccb9c9e564736f6c634300080d0033\n}\n",
				"bytecode": {
					"linkReferences": {},
					"object": "60806040523480156200001157600080fd5b506040516200388938038062003889833981810160405281019062000037919062000753565b8282816003908051906020019062000051929190620004a1565b5080600490805190602001906200006a929190620004a1565b5050506200008d620000816200026160201b60201c565b6200026960201b60201c565b620000d033620000a26200032f60201b60201c565b60ff16600a620000b391906200097a565b6311e1a300620000c49190620009cb565b6200033860201b60201c565b620000e06200032f60201b60201c565b60ff16600a620000f191906200097a565b600860006003811062000109576200010862000a2c565b5b01819055506200011e6200032f60201b60201c565b60ff16600a6200012f91906200097a565b600860016003811062000147576200014662000a2c565b5b01819055506200015c6200032f60201b60201c565b60ff16600a6200016d91906200097a565b600860026003811062000185576200018462000a2c565b5b01819055506200019a6200032f60201b60201c565b60ff16600a620001ab91906200097a565b6311e1a300620001bc9190620009cb565b600b600060038110620001d457620001d362000a2c565b5b01819055506000600b600160038110620001f357620001f262000a2c565b5b01819055506000600b60026003811062000212576200021162000a2c565b5b018190555080600e60006101000a81548173ffffffffffffffffffffffffffffffffffffffff021916908373ffffffffffffffffffffffffffffffffffffffff16021790555050505062000bcd565b600033905090565b6000600560009054906101000a900473ffffffffffffffffffffffffffffffffffffffff16905081600560006101000a81548173ffffffffffffffffffffffffffffffffffffffff021916908373ffffffffffffffffffffffffffffffffffffffff1602179055508173ffffffffffffffffffffffffffffffffffffffff168173ffffffffffffffffffffffffffffffffffffffff167f8be0079c531659141344cd1fd0a4f28419497f9722a3daafe3b4186f6b6457e060405160405180910390a35050565b60006012905090565b600073ffffffffffffffffffffffffffffffffffffffff168273ffffffffffffffffffffffffffffffffffffffff1603620003aa576040517f08c379a0000000000000000000000000000000000000000000000000000000008152600401620003a19062000abc565b60405180910390fd5b620003be600083836200049c60201b60201c565b8060026000828254620003d2919062000ade565b92505081905550806000808473ffffffffffffffffffffffffffffffffffffffff1673ffffffffffffffffffffffffffffffffffffffff168152602001908152602001600020600082825462000429919062000ade565b925050819055508173ffffffffffffffffffffffffffffffffffffffff16600073ffffffffffffffffffffffffffffffffffffffff167fddf252ad1be2c89b69c2b068fc378daa952ba7f163c4a11628f55a4df523b3ef8360405162000490919062000b4c565b60405180910390a35050565b505050565b828054620004af9062000b98565b90600052602060002090601f016020900481019282620004d357600085556200051f565b82601f10620004ee57805160ff19168380011785556200051f565b828001600101855582156200051f579182015b828111156200051e57825182559160200191906001019062000501565b5b5090506200052e919062000532565b5090565b5b808211156200054d57600081600090555060010162000533565b5090565b6000604051905090565b600080fd5b600080fd5b600080fd5b600080fd5b6000601f19601f8301169050919050565b7f4e487b7100000000000000000000000000000000000000000000000000000000600052604160045260246000fd5b620005ba826200056f565b810181811067ffffffffffffffff82111715620005dc57620005db62000580565b5b80604052505050565b6000620005f162000551565b9050620005ff8282620005af565b919050565b600067ffffffffffffffff82111562000622576200062162000580565b5b6200062d826200056f565b9050602081019050919050565b60005b838110156200065a5780820151818401526020810190506200063d565b838111156200066a576000848401525b50505050565b600062000687620006818462000604565b620005e5565b905082815260208101848484011115620006a657620006a56200056a565b5b620006b38482856200063a565b509392505050565b600082601f830112620006d357620006d262000565565b5b8151620006e584826020860162000670565b91505092915050565b600073ffffffffffffffffffffffffffffffffffffffff82169050919050565b60006200071b82620006ee565b9050919050565b6200072d816200070e565b81146200073957600080fd5b50565b6000815190506200074d8162000722565b92915050565b6000806000606084860312156200076f576200076e6200055b565b5b600084015167ffffffffffffffff81111562000790576200078f62000560565b5b6200079e86828701620006bb565b935050602084015167ffffffffffffffff811115620007c257620007c162000560565b5b620007d086828701620006bb565b9250506040620007e3868287016200073c565b9150509250925092565b7f4e487b7100000000000000000000000000000000000000000000000000000000600052601160045260246000fd5b60008160011c9050919050565b6000808291508390505b60018511156200087b57808604811115620008535762000852620007ed565b5b6001851615620008635780820291505b808102905062000873856200081c565b945062000833565b94509492505050565b60008262000896576001905062000969565b81620008a6576000905062000969565b8160018114620008bf5760028114620008ca5762000900565b600191505062000969565b60ff841115620008df57620008de620007ed565b5b8360020a915084821115620008f957620008f8620007ed565b5b5062000969565b5060208310610133831016604e8410600b84101617156200093a5782820a905083811115620009345762000933620007ed565b5b62000969565b62000949848484600162000829565b92509050818404811115620009635762000962620007ed565b5b81810290505b9392505050565b6000819050919050565b6000620009878262000970565b9150620009948362000970565b9250620009c37fffffffffffffffffffffffffffffffffffffffffffffffffffffffffffffffff848462000884565b905092915050565b6000620009d88262000970565b9150620009e58362000970565b9250817fffffffffffffffffffffffffffffffffffffffffffffffffffffffffffffffff048311821515161562000a215762000a20620007ed565b5b828202905092915050565b7f4e487b7100000000000000000000000000000000000000000000000000000000600052603260045260246000fd5b600082825260208201905092915050565b7f45524332303a206d696e7420746f20746865207a65726f206164647265737300600082015250565b600062000aa4601f8362000a5b565b915062000ab18262000a6c565b602082019050919050565b6000602082019050818103600083015262000ad78162000a95565b9050919050565b600062000aeb8262000970565b915062000af88362000970565b9250827fffffffffffffffffffffffffffffffffffffffffffffffffffffffffffffffff0382111562000b305762000b2f620007ed565b5b828201905092915050565b62000b468162000970565b82525050565b600060208201905062000b63600083018462000b3b565b92915050565b7f4e487b7100000000000000000000000000000000000000000000000000000000600052602260045260246000fd5b6000600282049050600182168062000bb157607f821691505b60208210810362000bc75762000bc662000b69565b5b50919050565b612cac8062000bdd6000396000f3fe608060405234801561001057600080fd5b50600436106101425760003560e01c80637a0d944c116100b8578063a457c2d71161007c578063a457c2d714610377578063a9059cbb146103a7578063ab645851146103d7578063dd62ed3e14610407578063f2fde38b14610437578063f8e233b11461045357610142565b80637a0d944c146102d35780638da5cb5b1461030357806395d89b4114610321578063a0712d681461033f578063a33e7d7e1461035b57610142565b806323b872dd1161010a57806323b872dd146101eb578063313ce5671461021b5780633950935114610239578063670d5a8f1461026957806370a0823114610299578063715018a6146102c957610142565b806306fdde0314610147578063095ea7b31461016557806313b954a3146101955780631506f480146101b157806318160ddd146101cd575b600080fd5b61014f610471565b60405161015c919061215e565b60405180910390f35b61017f600480360381019061017a9190612219565b610503565b60405161018c9190612274565b60405180910390f35b6101af60048036038101906101aa9190612219565b610521565b005b6101cb60048036038101906101c69190612219565b6107e5565b005b6101d5610b79565b6040516101e2919061229e565b60405180910390f35b610205600480360381019061020091906122b9565b610b83565b6040516102129190612274565b60405180910390f35b610223610b90565b6040516102309190612328565b60405180910390f35b610253600480360381019061024e9190612219565b610b99565b6040516102609190612274565b60405180910390f35b610283600480360381019061027e9190612343565b610c45565b604051610290919061229e565b60405180910390f35b6102b360048036038101906102ae9190612343565b610c5d565b6040516102c0919061229e565b60405180910390f35b6102d1610e09565b005b6102ed60048036038101906102e89190612343565b610e91565b6040516102fa9190612328565b60405180910390f35b61030b610eb1565b604051610318919061237f565b60405180910390f35b610329610edb565b604051610336919061215e565b60405180910390f35b6103596004803603810190610354919061239a565b610f6d565b005b610375600480360381019061037091906123f3565b6112ed565b005b610391600480360381019061038c9190612219565b611556565b60405161039e9190612274565b60405180910390f35b6103c160048036038101906103bc9190612219565b61164a565b6040516103ce9190612274565b60405180910390f35b6103f160048036038101906103ec919061239a565b611775565b6040516103fe919061229e565b60405180910390f35b610421600480360381019061041c9190612433565b611790565b60405161042e919061229e565b60405180910390f35b610451600480360381019061044c9190612343565b611817565b005b61045b61190e565b6040516104689190612494565b60405180910390f35b606060038054610480906124de565b80601f01602080910402602001604051908101604052809291908181526020018280546104ac906124de565b80156104f95780601f106104ce576101008083540402835291602001916104f9565b820191906000526020600020905b8154815290600101906020018083116104dc57829003601f168201915b5050505050905090565b6000610517610510611934565b848461193c565b6001905092915050565b610529611934565b73ffffffffffffffffffffffffffffffffffffffff16610547610eb1565b73ffffffffffffffffffffffffffffffffffffffff161461059d576040517f08c379a00000000000000000000000000000000000000000000000000000000081526004016105949061255b565b60405180910390fd5b6000600760008473ffffffffffffffffffffffffffffffffffffffff1673ffffffffffffffffffffffffffffffffffffffff16815260200190815260200160002060009054906101000a900460ff1660ff161461062f576040517f08c379a0000000000000000000000000000000000000000000000000000000008152600401610626906125ed565b60405180910390fd5b806000808473ffffffffffffffffffffffffffffffffffffffff1673ffffffffffffffffffffffffffffffffffffffff168152602001908152602001600020600082825461067d919061263c565b925050819055506000600190505b60028160ff16116107c7576106f76106ad600284611b0590919063ffffffff16565b600b8360ff16600381106106c4576106c3612692565b5b01546106d0919061263c565b60088360ff16600381106106e7576106e6612692565b5b0154611b1b90919063ffffffff16565b60088260ff166003811061070e5761070d612692565b5b0181905550610756600b8260ff166003811061072d5761072c612692565b5b015460088360ff166003811061074657610745612692565b5b0154611b0590919063ffffffff16565b60088260ff166003811061076d5761076c612692565b5b0181905550610786600283611b0590919063ffffffff16565b600b8260ff166003811061079d5761079c612692565b5b0160008282546107ad919061263c565b9250508190555080806107bf906126c1565b91505061068b565b5080600260008282546107da919061263c565b925050819055505050565b6107ed611934565b73ffffffffffffffffffffffffffffffffffffffff1661080b610eb1565b73ffffffffffffffffffffffffffffffffffffffff1614610861576040517f08c379a00000000000000000000000000000000000000000000000000000000081526004016108589061255b565b60405180910390fd5b6000600760008473ffffffffffffffffffffffffffffffffffffffff1673ffffffffffffffffffffffffffffffffffffffff16815260200190815260200160002060009054906101000a900460ff1660ff16036108f3576040517f08c379a00000000000000000000000000000000000000000000000000000000081526004016108ea90612736565b60405180910390fd5b6108fc82611b31565b806000808473ffffffffffffffffffffffffffffffffffffffff1673ffffffffffffffffffffffffffffffffffffffff168152602001908152602001600020600082825461094a919061263c565b92505081905550610965600282611b1b90919063ffffffff16565b600080600e60009054906101000a900473ffffffffffffffffffffffffffffffffffffffff1673ffffffffffffffffffffffffffffffffffffffff1673ffffffffffffffffffffffffffffffffffffffff16815260200190815260200160002060008282546109d4919061263c565b925050819055506000600760008473ffffffffffffffffffffffffffffffffffffffff1673ffffffffffffffffffffffffffffffffffffffff16815260200190815260200160002060009054906101000a900460ff166001610a369190612756565b9050610a8682600b8360ff1660038110610a5357610a52612692565b5b0154610a5f919061263c565b60088360ff1660038110610a7657610a75612692565b5b0154611b1b90919063ffffffff16565b60088260ff1660038110610a9d57610a9c612692565b5b0181905550610ae5600b8260ff1660038110610abc57610abb612692565b5b015460088360ff1660038110610ad557610ad4612692565b5b0154611b0590919063ffffffff16565b60088260ff1660038110610afc57610afb612692565b5b018190555081600b600160038110610b1757610b16612692565b5b016000828254610b27919061263c565b9250508190555081600b600260038110610b4457610b43612692565b5b016000828254610b54919061263c565b925050819055508160026000828254610b6d919061263c565b92505081905550505050565b6000600254905090565b6000600190509392505050565b60006012905090565b6000610c3b610ba6611934565b848460016000610bb4611934565b73ffffffffffffffffffffffffffffffffffffffff1673ffffffffffffffffffffffffffffffffffffffff16815260200190815260200160002060008873ffffffffffffffffffffffffffffffffffffffff1673ffffffffffffffffffffffffffffffffffffffff16815260200190815260200160002054610c36919061263c565b61193c565b6001905092915050565b60066020528060005260406000206000915090505481565b600080600760008473ffffffffffffffffffffffffffffffffffffffff1673ffffffffffffffffffffffffffffffffffffffff16815260200190815260200160002060009054906101000a900460ff1660ff1603610cfb576000808373ffffffffffffffffffffffffffffffffffffffff1673ffffffffffffffffffffffffffffffffffffffff168152602001908152602001600020549050610e04565b610e01600660008473ffffffffffffffffffffffffffffffffffffffff1673ffffffffffffffffffffffffffffffffffffffff16815260200190815260200160002054610df36000808673ffffffffffffffffffffffffffffffffffffffff1673ffffffffffffffffffffffffffffffffffffffff168152602001908152602001600020546008600760008873ffffffffffffffffffffffffffffffffffffffff1673ffffffffffffffffffffffffffffffffffffffff16815260200190815260200160002060009054906101000a900460ff1660ff1660038110610de357610de2612692565b5b0154611b1b90919063ffffffff16565b611b0590919063ffffffff16565b90505b919050565b610e11611934565b73ffffffffffffffffffffffffffffffffffffffff16610e2f610eb1565b73ffffffffffffffffffffffffffffffffffffffff1614610e85576040517f08c379a0000000000000000000000000000000000000000000000000000000008152600401610e7c9061255b565b60405180910390fd5b610e8f6000611d7d565b565b60076020528060005260406000206000915054906101000a900460ff1681565b6000600560009054906101000a900473ffffffffffffffffffffffffffffffffffffffff16905090565b606060048054610eea906124de565b80601f0160208091040260200160405190810160405280929190818152602001828054610f16906124de565b8015610f635780601f10610f3857610100808354040283529160200191610f63565b820191906000526020600020905b815481529060010190602001808311610f4657829003601f168201915b5050505050905090565b610f75611934565b73ffffffffffffffffffffffffffffffffffffffff16610f93610eb1565b73ffffffffffffffffffffffffffffffffffffffff1614610fe9576040517f08c379a0000000000000000000000000000000000000000000000000000000008152600401610fe09061255b565b60405180910390fd5b6000600b60026003811061100057610fff612692565b5b0154146110d85761106461101e600483611b0590919063ffffffff16565b600b60026003811061103357611032612692565b5b015461103f919061263c565b600860026003811061105457611053612692565b5b0154611b1b90919063ffffffff16565b600860026003811061107957611078612692565b5b01819055506110bd600b60026003811061109657611095612692565b5b015460086002600381106110ad576110ac612692565b5b0154611b0590919063ffffffff16565b60086002600381106110d2576110d1612692565b5b01819055505b6000600b6001600381106110ef576110ee612692565b5b0154146111c75761115361110d600483611b0590919063ffffffff16565b600b60016003811061112257611121612692565b5b015461112e919061263c565b600860016003811061114357611142612692565b5b0154611b1b90919063ffffffff16565b600860016003811061116857611167612692565b5b01819055506111ac600b60016003811061118557611184612692565b5b0154600860016003811061119c5761119b612692565b5b0154611b0590919063ffffffff16565b60086001600381106111c1576111c0612692565b5b01819055505b6111db600282611b0590919063ffffffff16565b600080600e60009054906101000a900473ffffffffffffffffffffffffffffffffffffffff1673ffffffffffffffffffffffffffffffffffffffff1673ffffffffffffffffffffffffffffffffffffffff168152602001908152602001600020600082825461124a919061263c565b92505081905550611265600482611b0590919063ffffffff16565b600b60016003811061127a57611279612692565b5b01600082825461128a919061263c565b925050819055506112a5600482611b0590919063ffffffff16565b600b6002600381106112ba576112b9612692565b5b0160008282546112ca919061263c565b9250508190555080600260008282546112e3919061263c565b9250508190555050565b6112f5611934565b73ffffffffffffffffffffffffffffffffffffffff16611313610eb1565b73ffffffffffffffffffffffffffffffffffffffff1614611369576040517f08c379a00000000000000000000000000000000000000000000000000000000081526004016113609061255b565b60405180910390fd5b61137282611b31565b6000600760008473ffffffffffffffffffffffffffffffffffffffff1673ffffffffffffffffffffffffffffffffffffffff16815260200190815260200160002060009054906101000a900460ff16905081600760008573ffffffffffffffffffffffffffffffffffffffff1673ffffffffffffffffffffffffffffffffffffffff16815260200190815260200160002060006101000a81548160ff021916908360ff1602179055506000808473ffffffffffffffffffffffffffffffffffffffff1673ffffffffffffffffffffffffffffffffffffffff16815260200190815260200160002054600b8260ff166003811061147157611470612692565b5b016000828254611481919061278a565b925050819055506000808473ffffffffffffffffffffffffffffffffffffffff1673ffffffffffffffffffffffffffffffffffffffff16815260200190815260200160002054600b8360ff16600381106114de576114dd612692565b5b0160008282546114ee919061263c565b9250508190555060088260ff166003811061150c5761150b612692565b5b0154600660008573ffffffffffffffffffffffffffffffffffffffff1673ffffffffffffffffffffffffffffffffffffffff16815260200190815260200160002081905550505050565b60008060016000611565611934565b73ffffffffffffffffffffffffffffffffffffffff1673ffffffffffffffffffffffffffffffffffffffff16815260200190815260200160002060008573ffffffffffffffffffffffffffffffffffffffff1673ffffffffffffffffffffffffffffffffffffffff16815260200190815260200160002054905082811015611622576040517f08c379a000000000000000000000000000000000000000000000000000000000815260040161161990612830565b60405180910390fd5b61163f61162d611934565b85858461163a919061278a565b61193c565b600191505092915050565b600080611655611934565b905061166081611b31565b61166984611b31565b82600b600760008473ffffffffffffffffffffffffffffffffffffffff1673ffffffffffffffffffffffffffffffffffffffff16815260200190815260200160002060009054906101000a900460ff1660ff16600381106116cd576116cc612692565b5b0160008282546116dd919061278a565b9250508190555082600b600760008773ffffffffffffffffffffffffffffffffffffffff1673ffffffffffffffffffffffffffffffffffffffff16815260200190815260200160002060009054906101000a900460ff1660ff166003811061174857611747612692565b5b016000828254611758919061263c565b9250508190555061176a818585611e43565b600191505092915050565b6008816003811061178557600080fd5b016000915090505481565b6000600160008473ffffffffffffffffffffffffffffffffffffffff1673ffffffffffffffffffffffffffffffffffffffff16815260200190815260200160002060008373ffffffffffffffffffffffffffffffffffffffff1673ffffffffffffffffffffffffffffffffffffffff16815260200190815260200160002054905092915050565b61181f611934565b73ffffffffffffffffffffffffffffffffffffffff1661183d610eb1565b73ffffffffffffffffffffffffffffffffffffffff1614611893576040517f08c379a000000000000000000000000000000000000000000000000000000000815260040161188a9061255b565b60405180910390fd5b600073ffffffffffffffffffffffffffffffffffffffff168173ffffffffffffffffffffffffffffffffffffffff1603611902576040517f08c379a00000000000000000000000000000000000000000000000000000000081526004016118f9906128c2565b60405180910390fd5b61190b81611d7d565b50565b600e60009054906101000a900473ffffffffffffffffffffffffffffffffffffffff1681565b600033905090565b600073ffffffffffffffffffffffffffffffffffffffff168373ffffffffffffffffffffffffffffffffffffffff16036119ab576040517f08c379a00000000000000000000000000000000000000000000000000000000081526004016119a290612954565b60405180910390fd5b600073ffffffffffffffffffffffffffffffffffffffff168273ffffffffffffffffffffffffffffffffffffffff1603611a1a576040517f08c379a0000000000000000000000000000000000000000000000000000000008152600401611a11906129e6565b60405180910390fd5b80600160008573ffffffffffffffffffffffffffffffffffffffff1673ffffffffffffffffffffffffffffffffffffffff16815260200190815260200160002060008473ffffffffffffffffffffffffffffffffffffffff1673ffffffffffffffffffffffffffffffffffffffff168152602001908152602001600020819055508173ffffffffffffffffffffffffffffffffffffffff168373ffffffffffffffffffffffffffffffffffffffff167f8c5be1e5ebec7d5bd14f71427d1e84f3dd0314c0f7b2291e5b200ac8c7c3b92583604051611af8919061229e565b60405180910390a3505050565b60008183611b139190612a35565b905092915050565b60008183611b299190612a66565b905092915050565b6000600760008373ffffffffffffffffffffffffffffffffffffffff1673ffffffffffffffffffffffffffffffffffffffff16815260200190815260200160002060009054906101000a900460ff1660ff160315611d7a57611c8f600660008373ffffffffffffffffffffffffffffffffffffffff1673ffffffffffffffffffffffffffffffffffffffff16815260200190815260200160002054611c816000808573ffffffffffffffffffffffffffffffffffffffff1673ffffffffffffffffffffffffffffffffffffffff168152602001908152602001600020546008600760008773ffffffffffffffffffffffffffffffffffffffff1673ffffffffffffffffffffffffffffffffffffffff16815260200190815260200160002060009054906101000a900460ff1660ff1660038110611c7157611c70612692565b5b0154611b1b90919063ffffffff16565b611b0590919063ffffffff16565b6000808373ffffffffffffffffffffffffffffffffffffffff1673ffffffffffffffffffffffffffffffffffffffff168152602001908152602001600020819055506008600760008373ffffffffffffffffffffffffffffffffffffffff1673ffffffffffffffffffffffffffffffffffffffff16815260200190815260200160002060009054906101000a900460ff1660ff1660038110611d3457611d33612692565b5b0154600660008373ffffffffffffffffffffffffffffffffffffffff1673ffffffffffffffffffffffffffffffffffffffff168152602001908152602001600020819055505b50565b6000600560009054906101000a900473ffffffffffffffffffffffffffffffffffffffff16905081600560006101000a81548173ffffffffffffffffffffffffffffffffffffffff021916908373ffffffffffffffffffffffffffffffffffffffff1602179055508173ffffffffffffffffffffffffffffffffffffffff168173ffffffffffffffffffffffffffffffffffffffff167f8be0079c531659141344cd1fd0a4f28419497f9722a3daafe3b4186f6b6457e060405160405180910390a35050565b600073ffffffffffffffffffffffffffffffffffffffff168373ffffffffffffffffffffffffffffffffffffffff1603611eb2576040517f08c379a0000000000000000000000000000000000000000000000000000000008152600401611ea990612b32565b60405180910390fd5b600073ffffffffffffffffffffffffffffffffffffffff168273ffffffffffffffffffffffffffffffffffffffff1603611f21576040517f08c379a0000000000000000000000000000000000000000000000000000000008152600401611f1890612bc4565b60405180910390fd5b611f2c8383836120c0565b60008060008573ffffffffffffffffffffffffffffffffffffffff1673ffffffffffffffffffffffffffffffffffffffff16815260200190815260200160002054905081811015611fb2576040517f08c379a0000000000000000000000000000000000000000000000000000000008152600401611fa990612c56565b60405180910390fd5b8181611fbe919061278a565b6000808673ffffffffffffffffffffffffffffffffffffffff1673ffffffffffffffffffffffffffffffffffffffff16815260200190815260200160002081905550816000808573ffffffffffffffffffffffffffffffffffffffff1673ffffffffffffffffffffffffffffffffffffffff168152602001908152602001600020600082825461204e919061263c565b925050819055508273ffffffffffffffffffffffffffffffffffffffff168473ffffffffffffffffffffffffffffffffffffffff167fddf252ad1be2c89b69c2b068fc378daa952ba7f163c4a11628f55a4df523b3ef846040516120b2919061229e565b60405180910390a350505050565b505050565b600081519050919050565b600082825260208201905092915050565b60005b838110156120ff5780820151818401526020810190506120e4565b8381111561210e576000848401525b50505050565b6000601f19601f8301169050919050565b6000612130826120c5565b61213a81856120d0565b935061214a8185602086016120e1565b61215381612114565b840191505092915050565b600060208201905081810360008301526121788184612125565b905092915050565b600080fd5b600073ffffffffffffffffffffffffffffffffffffffff82169050919050565b60006121b082612185565b9050919050565b6121c0816121a5565b81146121cb57600080fd5b50565b6000813590506121dd816121b7565b92915050565b6000819050919050565b6121f6816121e3565b811461220157600080fd5b50565b600081359050612213816121ed565b92915050565b600080604083850312156122305761222f612180565b5b600061223e858286016121ce565b925050602061224f85828601612204565b9150509250929050565b60008115159050919050565b61226e81612259565b82525050565b60006020820190506122896000830184612265565b92915050565b612298816121e3565b82525050565b60006020820190506122b3600083018461228f565b92915050565b6000806000606084860312156122d2576122d1612180565b5b60006122e0868287016121ce565b93505060206122f1868287016121ce565b925050604061230286828701612204565b9150509250925092565b600060ff82169050919050565b6123228161230c565b82525050565b600060208201905061233d6000830184612319565b92915050565b60006020828403121561235957612358612180565b5b6000612367848285016121ce565b91505092915050565b612379816121a5565b82525050565b60006020820190506123946000830184612370565b92915050565b6000602082840312156123b0576123af612180565b5b60006123be84828501612204565b91505092915050565b6123d08161230c565b81146123db57600080fd5b50565b6000813590506123ed816123c7565b92915050565b6000806040838503121561240a57612409612180565b5b6000612418858286016121ce565b9250506020612429858286016123de565b9150509250929050565b6000806040838503121561244a57612449612180565b5b6000612458858286016121ce565b9250506020612469858286016121ce565b9150509250929050565b600061247e82612185565b9050919050565b61248e81612473565b82525050565b60006020820190506124a96000830184612485565b92915050565b7f4e487b7100000000000000000000000000000000000000000000000000000000600052602260045260246000fd5b600060028204905060018216806124f657607f821691505b602082108103612509576125086124af565b5b50919050565b7f4f776e61626c653a2063616c6c6572206973206e6f7420746865206f776e6572600082015250565b60006125456020836120d0565b91506125508261250f565b602082019050919050565b6000602082019050818103600083015261257481612538565b9050919050565b7f6163636f756e74206973206e6f74206120726567756c6172207368617265686f60008201527f6c64657200000000000000000000000000000000000000000000000000000000602082015250565b60006125d76024836120d0565b91506125e28261257b565b604082019050919050565b60006020820190508181036000830152612606816125ca565b9050919050565b7f4e487b7100000000000000000000000000000000000000000000000000000000600052601160045260246000fd5b6000612647826121e3565b9150612652836121e3565b9250827fffffffffffffffffffffffffffffffffffffffffffffffffffffffffffffffff038211156126875761268661260d565b5b828201905092915050565b7f4e487b7100000000000000000000000000000000000000000000000000000000600052603260045260246000fd5b60006126cc8261230c565b915060ff82036126df576126de61260d565b5b600182019050919050565b7f6163636f756e74206973206120726567756c6172207368617265686f6c646572600082015250565b60006127206020836120d0565b915061272b826126ea565b602082019050919050565b6000602082019050818103600083015261274f81612713565b9050919050565b60006127618261230c565b915061276c8361230c565b92508282101561277f5761277e61260d565b5b828203905092915050565b6000612795826121e3565b91506127a0836121e3565b9250828210156127b3576127b261260d565b5b828203905092915050565b7f45524332303a2064656372656173656420616c6c6f77616e63652062656c6f7760008201527f207a65726f000000000000000000000000000000000000000000000000000000602082015250565b600061281a6025836120d0565b9150612825826127be565b604082019050919050565b600060208201905081810360008301526128498161280d565b9050919050565b7f4f776e61626c653a206e6577206f776e657220697320746865207a65726f206160008201527f6464726573730000000000000000000000000000000000000000000000000000602082015250565b60006128ac6026836120d0565b91506128b782612850565b604082019050919050565b600060208201905081810360008301526128db8161289f565b9050919050565b7f45524332303a20617070726f76652066726f6d20746865207a65726f2061646460008201527f7265737300000000000000000000000000000000000000000000000000000000602082015250565b600061293e6024836120d0565b9150612949826128e2565b604082019050919050565b6000602082019050818103600083015261296d81612931565b9050919050565b7f45524332303a20617070726f766520746f20746865207a65726f20616464726560008201527f7373000000000000000000000000000000000000000000000000000000000000602082015250565b60006129d06022836120d0565b91506129db82612974565b604082019050919050565b600060208201905081810360008301526129ff816129c3565b9050919050565b7f4e487b7100000000000000000000000000000000000000000000000000000000600052601260045260246000fd5b6000612a40826121e3565b9150612a4b836121e3565b925082612a5b57612a5a612a06565b5b828204905092915050565b6000612a71826121e3565b9150612a7c836121e3565b9250817fffffffffffffffffffffffffffffffffffffffffffffffffffffffffffffffff0483118215151615612ab557612ab461260d565b5b828202905092915050565b7f45524332303a207472616e736665722066726f6d20746865207a65726f20616460008201527f6472657373000000000000000000000000000000000000000000000000000000602082015250565b6000612b1c6025836120d0565b9150612b2782612ac0565b604082019050919050565b60006020820190508181036000830152612b4b81612b0f565b9050919050565b7f45524332303a207472616e7366657220746f20746865207a65726f206164647260008201527f6573730000000000000000000000000000000000000000000000000000000000602082015250565b6000612bae6023836120d0565b9150612bb982612b52565b604082019050919050565b60006020820190508181036000830152612bdd81612ba1565b9050919050565b7f45524332303a207472616e7366657220616d6f756e742065786365656473206260008201527f616c616e63650000000000000000000000000000000000000000000000000000602082015250565b6000612c406026836120d0565b9150612c4b82612be4565b604082019050919050565b60006020820190508181036000830152612c6f81612c33565b905091905056fea26469706673582212203cd60605ed5391ee73b03df18b6df1952c2766c508bde34ed64f8e17ccb9c9e564736f6c634300080d0033",
					"opcodes": "PUSH1 0x80 PUSH1 0x40 MSTORE CALLVALUE DUP1 ISZERO PUSH3 0x11 JUMPI PUSH1 0x0 DUP1 REVERT JUMPDEST POP PUSH1 0x40 MLOAD PUSH3 0x3889 CODESIZE SUB DUP1 PUSH3 0x3889 DUP4 CODECOPY DUP2 DUP2 ADD PUSH1 0x40 MSTORE DUP2 ADD SWAP1 PUSH3 0x37 SWAP2 SWAP1 PUSH3 0x753 JUMP JUMPDEST DUP3 DUP3 DUP2 PUSH1 0x3 SWAP1 DUP1 MLOAD SWAP1 PUSH1 0x20 ADD SWAP1 PUSH3 0x51 SWAP3 SWAP2 SWAP1 PUSH3 0x4A1 JUMP JUMPDEST POP DUP1 PUSH1 0x4 SWAP1 DUP1 MLOAD SWAP1 PUSH1 0x20 ADD SWAP1 PUSH3 0x6A SWAP3 SWAP2 SWAP1 PUSH3 0x4A1 JUMP JUMPDEST POP POP POP PUSH3 0x8D PUSH3 0x81 PUSH3 0x261 PUSH1 0x20 SHL PUSH1 0x20 SHR JUMP JUMPDEST PUSH3 0x269 PUSH1 0x20 SHL PUSH1 0x20 SHR JUMP JUMPDEST PUSH3 0xD0 CALLER PUSH3 0xA2 PUSH3 0x32F PUSH1 0x20 SHL PUSH1 0x20 SHR JUMP JUMPDEST PUSH1 0xFF AND PUSH1 0xA PUSH3 0xB3 SWAP2 SWAP1 PUSH3 0x97A JUMP JUMPDEST PUSH4 0x11E1A300 PUSH3 0xC4 SWAP2 SWAP1 PUSH3 0x9CB JUMP JUMPDEST PUSH3 0x338 PUSH1 0x20 SHL PUSH1 0x20 SHR JUMP JUMPDEST PUSH3 0xE0 PUSH3 0x32F PUSH1 0x20 SHL PUSH1 0x20 SHR JUMP JUMPDEST PUSH1 0xFF AND PUSH1 0xA PUSH3 0xF1 SWAP2 SWAP1 PUSH3 0x97A JUMP JUMPDEST PUSH1 0x8 PUSH1 0x0 PUSH1 0x3 DUP2 LT PUSH3 0x109 JUMPI PUSH3 0x108 PUSH3 0xA2C JUMP JUMPDEST JUMPDEST ADD DUP2 SWAP1 SSTORE POP PUSH3 0x11E PUSH3 0x32F PUSH1 0x20 SHL PUSH1 0x20 SHR JUMP JUMPDEST PUSH1 0xFF AND PUSH1 0xA PUSH3 0x12F SWAP2 SWAP1 PUSH3 0x97A JUMP JUMPDEST PUSH1 0x8 PUSH1 0x1 PUSH1 0x3 DUP2 LT PUSH3 0x147 JUMPI PUSH3 0x146 PUSH3 0xA2C JUMP JUMPDEST JUMPDEST ADD DUP2 SWAP1 SSTORE POP PUSH3 0x15C PUSH3 0x32F PUSH1 0x20 SHL PUSH1 0x20 SHR JUMP JUMPDEST PUSH1 0xFF AND PUSH1 0xA PUSH3 0x16D SWAP2 SWAP1 PUSH3 0x97A JUMP JUMPDEST PUSH1 0x8 PUSH1 0x2 PUSH1 0x3 DUP2 LT PUSH3 0x185 JUMPI PUSH3 0x184 PUSH3 0xA2C JUMP JUMPDEST JUMPDEST ADD DUP2 SWAP1 SSTORE POP PUSH3 0x19A PUSH3 0x32F PUSH1 0x20 SHL PUSH1 0x20 SHR JUMP JUMPDEST PUSH1 0xFF AND PUSH1 0xA PUSH3 0x1AB SWAP2 SWAP1 PUSH3 0x97A JUMP JUMPDEST PUSH4 0x11E1A300 PUSH3 0x1BC SWAP2 SWAP1 PUSH3 0x9CB JUMP JUMPDEST PUSH1 0xB PUSH1 0x0 PUSH1 0x3 DUP2 LT PUSH3 0x1D4 JUMPI PUSH3 0x1D3 PUSH3 0xA2C JUMP JUMPDEST JUMPDEST ADD DUP2 SWAP1 SSTORE POP PUSH1 0x0 PUSH1 0xB PUSH1 0x1 PUSH1 0x3 DUP2 LT PUSH3 0x1F3 JUMPI PUSH3 0x1F2 PUSH3 0xA2C JUMP JUMPDEST JUMPDEST ADD DUP2 SWAP1 SSTORE POP PUSH1 0x0 PUSH1 0xB PUSH1 0x2 PUSH1 0x3 DUP2 LT PUSH3 0x212 JUMPI PUSH3 0x211 PUSH3 0xA2C JUMP JUMPDEST JUMPDEST ADD DUP2 SWAP1 SSTORE POP DUP1 PUSH1 0xE PUSH1 0x0 PUSH2 0x100 EXP DUP2 SLOAD DUP2 PUSH20 0xFFFFFFFFFFFFFFFFFFFFFFFFFFFFFFFFFFFFFFFF MUL NOT AND SWAP1 DUP4 PUSH20 0xFFFFFFFFFFFFFFFFFFFFFFFFFFFFFFFFFFFFFFFF AND MUL OR SWAP1 SSTORE POP POP POP POP PUSH3 0xBCD JUMP JUMPDEST PUSH1 0x0 CALLER SWAP1 POP SWAP1 JUMP JUMPDEST PUSH1 0x0 PUSH1 0x5 PUSH1 0x0 SWAP1 SLOAD SWAP1 PUSH2 0x100 EXP SWAP1 DIV PUSH20 0xFFFFFFFFFFFFFFFFFFFFFFFFFFFFFFFFFFFFFFFF AND SWAP1 POP DUP2 PUSH1 0x5 PUSH1 0x0 PUSH2 0x100 EXP DUP2 SLOAD DUP2 PUSH20 0xFFFFFFFFFFFFFFFFFFFFFFFFFFFFFFFFFFFFFFFF MUL NOT AND SWAP1 DUP4 PUSH20 0xFFFFFFFFFFFFFFFFFFFFFFFFFFFFFFFFFFFFFFFF AND MUL OR SWAP1 SSTORE POP DUP2 PUSH20 0xFFFFFFFFFFFFFFFFFFFFFFFFFFFFFFFFFFFFFFFF AND DUP2 PUSH20 0xFFFFFFFFFFFFFFFFFFFFFFFFFFFFFFFFFFFFFFFF AND PUSH32 0x8BE0079C531659141344CD1FD0A4F28419497F9722A3DAAFE3B4186F6B6457E0 PUSH1 0x40 MLOAD PUSH1 0x40 MLOAD DUP1 SWAP2 SUB SWAP1 LOG3 POP POP JUMP JUMPDEST PUSH1 0x0 PUSH1 0x12 SWAP1 POP SWAP1 JUMP JUMPDEST PUSH1 0x0 PUSH20 0xFFFFFFFFFFFFFFFFFFFFFFFFFFFFFFFFFFFFFFFF AND DUP3 PUSH20 0xFFFFFFFFFFFFFFFFFFFFFFFFFFFFFFFFFFFFFFFF AND SUB PUSH3 0x3AA JUMPI PUSH1 0x40 MLOAD PUSH32 0x8C379A000000000000000000000000000000000000000000000000000000000 DUP2 MSTORE PUSH1 0x4 ADD PUSH3 0x3A1 SWAP1 PUSH3 0xABC JUMP JUMPDEST PUSH1 0x40 MLOAD DUP1 SWAP2 SUB SWAP1 REVERT JUMPDEST PUSH3 0x3BE PUSH1 0x0 DUP4 DUP4 PUSH3 0x49C PUSH1 0x20 SHL PUSH1 0x20 SHR JUMP JUMPDEST DUP1 PUSH1 0x2 PUSH1 0x0 DUP3 DUP3 SLOAD PUSH3 0x3D2 SWAP2 SWAP1 PUSH3 0xADE JUMP JUMPDEST SWAP3 POP POP DUP2 SWAP1 SSTORE POP DUP1 PUSH1 0x0 DUP1 DUP5 PUSH20 0xFFFFFFFFFFFFFFFFFFFFFFFFFFFFFFFFFFFFFFFF AND PUSH20 0xFFFFFFFFFFFFFFFFFFFFFFFFFFFFFFFFFFFFFFFF AND DUP2 MSTORE PUSH1 0x20 ADD SWAP1 DUP2 MSTORE PUSH1 0x20 ADD PUSH1 0x0 KECCAK256 PUSH1 0x0 DUP3 DUP3 SLOAD PUSH3 0x429 SWAP2 SWAP1 PUSH3 0xADE JUMP JUMPDEST SWAP3 POP POP DUP2 SWAP1 SSTORE POP DUP2 PUSH20 0xFFFFFFFFFFFFFFFFFFFFFFFFFFFFFFFFFFFFFFFF AND PUSH1 0x0 PUSH20 0xFFFFFFFFFFFFFFFFFFFFFFFFFFFFFFFFFFFFFFFF AND PUSH32 0xDDF252AD1BE2C89B69C2B068FC378DAA952BA7F163C4A11628F55A4DF523B3EF DUP4 PUSH1 0x40 MLOAD PUSH3 0x490 SWAP2 SWAP1 PUSH3 0xB4C JUMP JUMPDEST PUSH1 0x40 MLOAD DUP1 SWAP2 SUB SWAP1 LOG3 POP POP JUMP JUMPDEST POP POP POP JUMP JUMPDEST DUP3 DUP1 SLOAD PUSH3 0x4AF SWAP1 PUSH3 0xB98 JUMP JUMPDEST SWAP1 PUSH1 0x0 MSTORE PUSH1 0x20 PUSH1 0x0 KECCAK256 SWAP1 PUSH1 0x1F ADD PUSH1 0x20 SWAP1 DIV DUP2 ADD SWAP3 DUP3 PUSH3 0x4D3 JUMPI PUSH1 0x0 DUP6 SSTORE PUSH3 0x51F JUMP JUMPDEST DUP3 PUSH1 0x1F LT PUSH3 0x4EE JUMPI DUP1 MLOAD PUSH1 0xFF NOT AND DUP4 DUP1 ADD OR DUP6 SSTORE PUSH3 0x51F JUMP JUMPDEST DUP3 DUP1 ADD PUSH1 0x1 ADD DUP6 SSTORE DUP3 ISZERO PUSH3 0x51F JUMPI SWAP2 DUP3 ADD JUMPDEST DUP3 DUP2 GT ISZERO PUSH3 0x51E JUMPI DUP3 MLOAD DUP3 SSTORE SWAP2 PUSH1 0x20 ADD SWAP2 SWAP1 PUSH1 0x1 ADD SWAP1 PUSH3 0x501 JUMP JUMPDEST JUMPDEST POP SWAP1 POP PUSH3 0x52E SWAP2 SWAP1 PUSH3 0x532 JUMP JUMPDEST POP SWAP1 JUMP JUMPDEST JUMPDEST DUP1 DUP3 GT ISZERO PUSH3 0x54D JUMPI PUSH1 0x0 DUP2 PUSH1 0x0 SWAP1 SSTORE POP PUSH1 0x1 ADD PUSH3 0x533 JUMP JUMPDEST POP SWAP1 JUMP JUMPDEST PUSH1 0x0 PUSH1 0x40 MLOAD SWAP1 POP SWAP1 JUMP JUMPDEST PUSH1 0x0 DUP1 REVERT JUMPDEST PUSH1 0x0 DUP1 REVERT JUMPDEST PUSH1 0x0 DUP1 REVERT JUMPDEST PUSH1 0x0 DUP1 REVERT JUMPDEST PUSH1 0x0 PUSH1 0x1F NOT PUSH1 0x1F DUP4 ADD AND SWAP1 POP SWAP2 SWAP1 POP JUMP JUMPDEST PUSH32 0x4E487B7100000000000000000000000000000000000000000000000000000000 PUSH1 0x0 MSTORE PUSH1 0x41 PUSH1 0x4 MSTORE PUSH1 0x24 PUSH1 0x0 REVERT JUMPDEST PUSH3 0x5BA DUP3 PUSH3 0x56F JUMP JUMPDEST DUP2 ADD DUP2 DUP2 LT PUSH8 0xFFFFFFFFFFFFFFFF DUP3 GT OR ISZERO PUSH3 0x5DC JUMPI PUSH3 0x5DB PUSH3 0x580 JUMP JUMPDEST JUMPDEST DUP1 PUSH1 0x40 MSTORE POP POP POP JUMP JUMPDEST PUSH1 0x0 PUSH3 0x5F1 PUSH3 0x551 JUMP JUMPDEST SWAP1 POP PUSH3 0x5FF DUP3 DUP3 PUSH3 0x5AF JUMP JUMPDEST SWAP2 SWAP1 POP JUMP JUMPDEST PUSH1 0x0 PUSH8 0xFFFFFFFFFFFFFFFF DUP3 GT ISZERO PUSH3 0x622 JUMPI PUSH3 0x621 PUSH3 0x580 JUMP JUMPDEST JUMPDEST PUSH3 0x62D DUP3 PUSH3 0x56F JUMP JUMPDEST SWAP1 POP PUSH1 0x20 DUP2 ADD SWAP1 POP SWAP2 SWAP1 POP JUMP JUMPDEST PUSH1 0x0 JUMPDEST DUP4 DUP2 LT ISZERO PUSH3 0x65A JUMPI DUP1 DUP3 ADD MLOAD DUP2 DUP5 ADD MSTORE PUSH1 0x20 DUP2 ADD SWAP1 POP PUSH3 0x63D JUMP JUMPDEST DUP4 DUP2 GT ISZERO PUSH3 0x66A JUMPI PUSH1 0x0 DUP5 DUP5 ADD MSTORE JUMPDEST POP POP POP POP JUMP JUMPDEST PUSH1 0x0 PUSH3 0x687 PUSH3 0x681 DUP5 PUSH3 0x604 JUMP JUMPDEST PUSH3 0x5E5 JUMP JUMPDEST SWAP1 POP DUP3 DUP2 MSTORE PUSH1 0x20 DUP2 ADD DUP5 DUP5 DUP5 ADD GT ISZERO PUSH3 0x6A6 JUMPI PUSH3 0x6A5 PUSH3 0x56A JUMP JUMPDEST JUMPDEST PUSH3 0x6B3 DUP5 DUP3 DUP6 PUSH3 0x63A JUMP JUMPDEST POP SWAP4 SWAP3 POP POP POP JUMP JUMPDEST PUSH1 0x0 DUP3 PUSH1 0x1F DUP4 ADD SLT PUSH3 0x6D3 JUMPI PUSH3 0x6D2 PUSH3 0x565 JUMP JUMPDEST JUMPDEST DUP2 MLOAD PUSH3 0x6E5 DUP5 DUP3 PUSH1 0x20 DUP7 ADD PUSH3 0x670 JUMP JUMPDEST SWAP2 POP POP SWAP3 SWAP2 POP POP JUMP JUMPDEST PUSH1 0x0 PUSH20 0xFFFFFFFFFFFFFFFFFFFFFFFFFFFFFFFFFFFFFFFF DUP3 AND SWAP1 POP SWAP2 SWAP1 POP JUMP JUMPDEST PUSH1 0x0 PUSH3 0x71B DUP3 PUSH3 0x6EE JUMP JUMPDEST SWAP1 POP SWAP2 SWAP1 POP JUMP JUMPDEST PUSH3 0x72D DUP2 PUSH3 0x70E JUMP JUMPDEST DUP2 EQ PUSH3 0x739 JUMPI PUSH1 0x0 DUP1 REVERT JUMPDEST POP JUMP JUMPDEST PUSH1 0x0 DUP2 MLOAD SWAP1 POP PUSH3 0x74D DUP2 PUSH3 0x722 JUMP JUMPDEST SWAP3 SWAP2 POP POP JUMP JUMPDEST PUSH1 0x0 DUP1 PUSH1 0x0 PUSH1 0x60 DUP5 DUP7 SUB SLT ISZERO PUSH3 0x76F JUMPI PUSH3 0x76E PUSH3 0x55B JUMP JUMPDEST JUMPDEST PUSH1 0x0 DUP5 ADD MLOAD PUSH8 0xFFFFFFFFFFFFFFFF DUP2 GT ISZERO PUSH3 0x790 JUMPI PUSH3 0x78F PUSH3 0x560 JUMP JUMPDEST JUMPDEST PUSH3 0x79E DUP7 DUP3 DUP8 ADD PUSH3 0x6BB JUMP JUMPDEST SWAP4 POP POP PUSH1 0x20 DUP5 ADD MLOAD PUSH8 0xFFFFFFFFFFFFFFFF DUP2 GT ISZERO PUSH3 0x7C2 JUMPI PUSH3 0x7C1 PUSH3 0x560 JUMP JUMPDEST JUMPDEST PUSH3 0x7D0 DUP7 DUP3 DUP8 ADD PUSH3 0x6BB JUMP JUMPDEST SWAP3 POP POP PUSH1 0x40 PUSH3 0x7E3 DUP7 DUP3 DUP8 ADD PUSH3 0x73C JUMP JUMPDEST SWAP2 POP POP SWAP3 POP SWAP3 POP SWAP3 JUMP JUMPDEST PUSH32 0x4E487B7100000000000000000000000000000000000000000000000000000000 PUSH1 0x0 MSTORE PUSH1 0x11 PUSH1 0x4 MSTORE PUSH1 0x24 PUSH1 0x0 REVERT JUMPDEST PUSH1 0x0 DUP2 PUSH1 0x1 SHR SWAP1 POP SWAP2 SWAP1 POP JUMP JUMPDEST PUSH1 0x0 DUP1 DUP3 SWAP2 POP DUP4 SWAP1 POP JUMPDEST PUSH1 0x1 DUP6 GT ISZERO PUSH3 0x87B JUMPI DUP1 DUP7 DIV DUP2 GT ISZERO PUSH3 0x853 JUMPI PUSH3 0x852 PUSH3 0x7ED JUMP JUMPDEST JUMPDEST PUSH1 0x1 DUP6 AND ISZERO PUSH3 0x863 JUMPI DUP1 DUP3 MUL SWAP2 POP JUMPDEST DUP1 DUP2 MUL SWAP1 POP PUSH3 0x873 DUP6 PUSH3 0x81C JUMP JUMPDEST SWAP5 POP PUSH3 0x833 JUMP JUMPDEST SWAP5 POP SWAP5 SWAP3 POP POP POP JUMP JUMPDEST PUSH1 0x0 DUP3 PUSH3 0x896 JUMPI PUSH1 0x1 SWAP1 POP PUSH3 0x969 JUMP JUMPDEST DUP2 PUSH3 0x8A6 JUMPI PUSH1 0x0 SWAP1 POP PUSH3 0x969 JUMP JUMPDEST DUP2 PUSH1 0x1 DUP2 EQ PUSH3 0x8BF JUMPI PUSH1 0x2 DUP2 EQ PUSH3 0x8CA JUMPI PUSH3 0x900 JUMP JUMPDEST PUSH1 0x1 SWAP2 POP POP PUSH3 0x969 JUMP JUMPDEST PUSH1 0xFF DUP5 GT ISZERO PUSH3 0x8DF JUMPI PUSH3 0x8DE PUSH3 0x7ED JUMP JUMPDEST JUMPDEST DUP4 PUSH1 0x2 EXP SWAP2 POP DUP5 DUP3 GT ISZERO PUSH3 0x8F9 JUMPI PUSH3 0x8F8 PUSH3 0x7ED JUMP JUMPDEST JUMPDEST POP PUSH3 0x969 JUMP JUMPDEST POP PUSH1 0x20 DUP4 LT PUSH2 0x133 DUP4 LT AND PUSH1 0x4E DUP5 LT PUSH1 0xB DUP5 LT AND OR ISZERO PUSH3 0x93A JUMPI DUP3 DUP3 EXP SWAP1 POP DUP4 DUP2 GT ISZERO PUSH3 0x934 JUMPI PUSH3 0x933 PUSH3 0x7ED JUMP JUMPDEST JUMPDEST PUSH3 0x969 JUMP JUMPDEST PUSH3 0x949 DUP5 DUP5 DUP5 PUSH1 0x1 PUSH3 0x829 JUMP JUMPDEST SWAP3 POP SWAP1 POP DUP2 DUP5 DIV DUP2 GT ISZERO PUSH3 0x963 JUMPI PUSH3 0x962 PUSH3 0x7ED JUMP JUMPDEST JUMPDEST DUP2 DUP2 MUL SWAP1 POP JUMPDEST SWAP4 SWAP3 POP POP POP JUMP JUMPDEST PUSH1 0x0 DUP2 SWAP1 POP SWAP2 SWAP1 POP JUMP JUMPDEST PUSH1 0x0 PUSH3 0x987 DUP3 PUSH3 0x970 JUMP JUMPDEST SWAP2 POP PUSH3 0x994 DUP4 PUSH3 0x970 JUMP JUMPDEST SWAP3 POP PUSH3 0x9C3 PUSH32 0xFFFFFFFFFFFFFFFFFFFFFFFFFFFFFFFFFFFFFFFFFFFFFFFFFFFFFFFFFFFFFFFF DUP5 DUP5 PUSH3 0x884 JUMP JUMPDEST SWAP1 POP SWAP3 SWAP2 POP POP JUMP JUMPDEST PUSH1 0x0 PUSH3 0x9D8 DUP3 PUSH3 0x970 JUMP JUMPDEST SWAP2 POP PUSH3 0x9E5 DUP4 PUSH3 0x970 JUMP JUMPDEST SWAP3 POP DUP2 PUSH32 0xFFFFFFFFFFFFFFFFFFFFFFFFFFFFFFFFFFFFFFFFFFFFFFFFFFFFFFFFFFFFFFFF DIV DUP4 GT DUP3 ISZERO ISZERO AND ISZERO PUSH3 0xA21 JUMPI PUSH3 0xA20 PUSH3 0x7ED JUMP JUMPDEST JUMPDEST DUP3 DUP3 MUL SWAP1 POP SWAP3 SWAP2 POP POP JUMP JUMPDEST PUSH32 0x4E487B7100000000000000000000000000000000000000000000000000000000 PUSH1 0x0 MSTORE PUSH1 0x32 PUSH1 0x4 MSTORE PUSH1 0x24 PUSH1 0x0 REVERT JUMPDEST PUSH1 0x0 DUP3 DUP3 MSTORE PUSH1 0x20 DUP3 ADD SWAP1 POP SWAP3 SWAP2 POP POP JUMP JUMPDEST PUSH32 0x45524332303A206D696E7420746F20746865207A65726F206164647265737300 PUSH1 0x0 DUP3 ADD MSTORE POP JUMP JUMPDEST PUSH1 0x0 PUSH3 0xAA4 PUSH1 0x1F DUP4 PUSH3 0xA5B JUMP JUMPDEST SWAP2 POP PUSH3 0xAB1 DUP3 PUSH3 0xA6C JUMP JUMPDEST PUSH1 0x20 DUP3 ADD SWAP1 POP SWAP2 SWAP1 POP JUMP JUMPDEST PUSH1 0x0 PUSH1 0x20 DUP3 ADD SWAP1 POP DUP2 DUP2 SUB PUSH1 0x0 DUP4 ADD MSTORE PUSH3 0xAD7 DUP2 PUSH3 0xA95 JUMP JUMPDEST SWAP1 POP SWAP2 SWAP1 POP JUMP JUMPDEST PUSH1 0x0 PUSH3 0xAEB DUP3 PUSH3 0x970 JUMP JUMPDEST SWAP2 POP PUSH3 0xAF8 DUP4 PUSH3 0x970 JUMP JUMPDEST SWAP3 POP DUP3 PUSH32 0xFFFFFFFFFFFFFFFFFFFFFFFFFFFFFFFFFFFFFFFFFFFFFFFFFFFFFFFFFFFFFFFF SUB DUP3 GT ISZERO PUSH3 0xB30 JUMPI PUSH3 0xB2F PUSH3 0x7ED JUMP JUMPDEST JUMPDEST DUP3 DUP3 ADD SWAP1 POP SWAP3 SWAP2 POP POP JUMP JUMPDEST PUSH3 0xB46 DUP2 PUSH3 0x970 JUMP JUMPDEST DUP3 MSTORE POP POP JUMP JUMPDEST PUSH1 0x0 PUSH1 0x20 DUP3 ADD SWAP1 POP PUSH3 0xB63 PUSH1 0x0 DUP4 ADD DUP5 PUSH3 0xB3B JUMP JUMPDEST SWAP3 SWAP2 POP POP JUMP JUMPDEST PUSH32 0x4E487B7100000000000000000000000000000000000000000000000000000000 PUSH1 0x0 MSTORE PUSH1 0x22 PUSH1 0x4 MSTORE PUSH1 0x24 PUSH1 0x0 REVERT JUMPDEST PUSH1 0x0 PUSH1 0x2 DUP3 DIV SWAP1 POP PUSH1 0x1 DUP3 AND DUP1 PUSH3 0xBB1 JUMPI PUSH1 0x7F DUP3 AND SWAP2 POP JUMPDEST PUSH1 0x20 DUP3 LT DUP2 SUB PUSH3 0xBC7 JUMPI PUSH3 0xBC6 PUSH3 0xB69 JUMP JUMPDEST JUMPDEST POP SWAP2 SWAP1 POP JUMP JUMPDEST PUSH2 0x2CAC DUP1 PUSH3 0xBDD PUSH1 0x0 CODECOPY PUSH1 0x0 RETURN INVALID PUSH1 0x80 PUSH1 0x40 MSTORE CALLVALUE DUP1 ISZERO PUSH2 0x10 JUMPI PUSH1 0x0 DUP1 REVERT JUMPDEST POP PUSH1 0x4 CALLDATASIZE LT PUSH2 0x142 JUMPI PUSH1 0x0 CALLDATALOAD PUSH1 0xE0 SHR DUP1 PUSH4 0x7A0D944C GT PUSH2 0xB8 JUMPI DUP1 PUSH4 0xA457C2D7 GT PUSH2 0x7C JUMPI DUP1 PUSH4 0xA457C2D7 EQ PUSH2 0x377 JUMPI DUP1 PUSH4 0xA9059CBB EQ PUSH2 0x3A7 JUMPI DUP1 PUSH4 0xAB645851 EQ PUSH2 0x3D7 JUMPI DUP1 PUSH4 0xDD62ED3E EQ PUSH2 0x407 JUMPI DUP1 PUSH4 0xF2FDE38B EQ PUSH2 0x437 JUMPI DUP1 PUSH4 0xF8E233B1 EQ PUSH2 0x453 JUMPI PUSH2 0x142 JUMP JUMPDEST DUP1 PUSH4 0x7A0D944C EQ PUSH2 0x2D3 JUMPI DUP1 PUSH4 0x8DA5CB5B EQ PUSH2 0x303 JUMPI DUP1 PUSH4 0x95D89B41 EQ PUSH2 0x321 JUMPI DUP1 PUSH4 0xA0712D68 EQ PUSH2 0x33F JUMPI DUP1 PUSH4 0xA33E7D7E EQ PUSH2 0x35B JUMPI PUSH2 0x142 JUMP JUMPDEST DUP1 PUSH4 0x23B872DD GT PUSH2 0x10A JUMPI DUP1 PUSH4 0x23B872DD EQ PUSH2 0x1EB JUMPI DUP1 PUSH4 0x313CE567 EQ PUSH2 0x21B JUMPI DUP1 PUSH4 0x39509351 EQ PUSH2 0x239 JUMPI DUP1 PUSH4 0x670D5A8F EQ PUSH2 0x269 JUMPI DUP1 PUSH4 0x70A08231 EQ PUSH2 0x299 JUMPI DUP1 PUSH4 0x715018A6 EQ PUSH2 0x2C9 JUMPI PUSH2 0x142 JUMP JUMPDEST DUP1 PUSH4 0x6FDDE03 EQ PUSH2 0x147 JUMPI DUP1 PUSH4 0x95EA7B3 EQ PUSH2 0x165 JUMPI DUP1 PUSH4 0x13B954A3 EQ PUSH2 0x195 JUMPI DUP1 PUSH4 0x1506F480 EQ PUSH2 0x1B1 JUMPI DUP1 PUSH4 0x18160DDD EQ PUSH2 0x1CD JUMPI JUMPDEST PUSH1 0x0 DUP1 REVERT JUMPDEST PUSH2 0x14F PUSH2 0x471 JUMP JUMPDEST PUSH1 0x40 MLOAD PUSH2 0x15C SWAP2 SWAP1 PUSH2 0x215E JUMP JUMPDEST PUSH1 0x40 MLOAD DUP1 SWAP2 SUB SWAP1 RETURN JUMPDEST PUSH2 0x17F PUSH1 0x4 DUP1 CALLDATASIZE SUB DUP2 ADD SWAP1 PUSH2 0x17A SWAP2 SWAP1 PUSH2 0x2219 JUMP JUMPDEST PUSH2 0x503 JUMP JUMPDEST PUSH1 0x40 MLOAD PUSH2 0x18C SWAP2 SWAP1 PUSH2 0x2274 JUMP JUMPDEST PUSH1 0x40 MLOAD DUP1 SWAP2 SUB SWAP1 RETURN JUMPDEST PUSH2 0x1AF PUSH1 0x4 DUP1 CALLDATASIZE SUB DUP2 ADD SWAP1 PUSH2 0x1AA SWAP2 SWAP1 PUSH2 0x2219 JUMP JUMPDEST PUSH2 0x521 JUMP JUMPDEST STOP JUMPDEST PUSH2 0x1CB PUSH1 0x4 DUP1 CALLDATASIZE SUB DUP2 ADD SWAP1 PUSH2 0x1C6 SWAP2 SWAP1 PUSH2 0x2219 JUMP JUMPDEST PUSH2 0x7E5 JUMP JUMPDEST STOP JUMPDEST PUSH2 0x1D5 PUSH2 0xB79 JUMP JUMPDEST PUSH1 0x40 MLOAD PUSH2 0x1E2 SWAP2 SWAP1 PUSH2 0x229E JUMP JUMPDEST PUSH1 0x40 MLOAD DUP1 SWAP2 SUB SWAP1 RETURN JUMPDEST PUSH2 0x205 PUSH1 0x4 DUP1 CALLDATASIZE SUB DUP2 ADD SWAP1 PUSH2 0x200 SWAP2 SWAP1 PUSH2 0x22B9 JUMP JUMPDEST PUSH2 0xB83 JUMP JUMPDEST PUSH1 0x40 MLOAD PUSH2 0x212 SWAP2 SWAP1 PUSH2 0x2274 JUMP JUMPDEST PUSH1 0x40 MLOAD DUP1 SWAP2 SUB SWAP1 RETURN JUMPDEST PUSH2 0x223 PUSH2 0xB90 JUMP JUMPDEST PUSH1 0x40 MLOAD PUSH2 0x230 SWAP2 SWAP1 PUSH2 0x2328 JUMP JUMPDEST PUSH1 0x40 MLOAD DUP1 SWAP2 SUB SWAP1 RETURN JUMPDEST PUSH2 0x253 PUSH1 0x4 DUP1 CALLDATASIZE SUB DUP2 ADD SWAP1 PUSH2 0x24E SWAP2 SWAP1 PUSH2 0x2219 JUMP JUMPDEST PUSH2 0xB99 JUMP JUMPDEST PUSH1 0x40 MLOAD PUSH2 0x260 SWAP2 SWAP1 PUSH2 0x2274 JUMP JUMPDEST PUSH1 0x40 MLOAD DUP1 SWAP2 SUB SWAP1 RETURN JUMPDEST PUSH2 0x283 PUSH1 0x4 DUP1 CALLDATASIZE SUB DUP2 ADD SWAP1 PUSH2 0x27E SWAP2 SWAP1 PUSH2 0x2343 JUMP JUMPDEST PUSH2 0xC45 JUMP JUMPDEST PUSH1 0x40 MLOAD PUSH2 0x290 SWAP2 SWAP1 PUSH2 0x229E JUMP JUMPDEST PUSH1 0x40 MLOAD DUP1 SWAP2 SUB SWAP1 RETURN JUMPDEST PUSH2 0x2B3 PUSH1 0x4 DUP1 CALLDATASIZE SUB DUP2 ADD SWAP1 PUSH2 0x2AE SWAP2 SWAP1 PUSH2 0x2343 JUMP JUMPDEST PUSH2 0xC5D JUMP JUMPDEST PUSH1 0x40 MLOAD PUSH2 0x2C0 SWAP2 SWAP1 PUSH2 0x229E JUMP JUMPDEST PUSH1 0x40 MLOAD DUP1 SWAP2 SUB SWAP1 RETURN JUMPDEST PUSH2 0x2D1 PUSH2 0xE09 JUMP JUMPDEST STOP JUMPDEST PUSH2 0x2ED PUSH1 0x4 DUP1 CALLDATASIZE SUB DUP2 ADD SWAP1 PUSH2 0x2E8 SWAP2 SWAP1 PUSH2 0x2343 JUMP JUMPDEST PUSH2 0xE91 JUMP JUMPDEST PUSH1 0x40 MLOAD PUSH2 0x2FA SWAP2 SWAP1 PUSH2 0x2328 JUMP JUMPDEST PUSH1 0x40 MLOAD DUP1 SWAP2 SUB SWAP1 RETURN JUMPDEST PUSH2 0x30B PUSH2 0xEB1 JUMP JUMPDEST PUSH1 0x40 MLOAD PUSH2 0x318 SWAP2 SWAP1 PUSH2 0x237F JUMP JUMPDEST PUSH1 0x40 MLOAD DUP1 SWAP2 SUB SWAP1 RETURN JUMPDEST PUSH2 0x329 PUSH2 0xEDB JUMP JUMPDEST PUSH1 0x40 MLOAD PUSH2 0x336 SWAP2 SWAP1 PUSH2 0x215E JUMP JUMPDEST PUSH1 0x40 MLOAD DUP1 SWAP2 SUB SWAP1 RETURN JUMPDEST PUSH2 0x359 PUSH1 0x4 DUP1 CALLDATASIZE SUB DUP2 ADD SWAP1 PUSH2 0x354 SWAP2 SWAP1 PUSH2 0x239A JUMP JUMPDEST PUSH2 0xF6D JUMP JUMPDEST STOP JUMPDEST PUSH2 0x375 PUSH1 0x4 DUP1 CALLDATASIZE SUB DUP2 ADD SWAP1 PUSH2 0x370 SWAP2 SWAP1 PUSH2 0x23F3 JUMP JUMPDEST PUSH2 0x12ED JUMP JUMPDEST STOP JUMPDEST PUSH2 0x391 PUSH1 0x4 DUP1 CALLDATASIZE SUB DUP2 ADD SWAP1 PUSH2 0x38C SWAP2 SWAP1 PUSH2 0x2219 JUMP JUMPDEST PUSH2 0x1556 JUMP JUMPDEST PUSH1 0x40 MLOAD PUSH2 0x39E SWAP2 SWAP1 PUSH2 0x2274 JUMP JUMPDEST PUSH1 0x40 MLOAD DUP1 SWAP2 SUB SWAP1 RETURN JUMPDEST PUSH2 0x3C1 PUSH1 0x4 DUP1 CALLDATASIZE SUB DUP2 ADD SWAP1 PUSH2 0x3BC SWAP2 SWAP1 PUSH2 0x2219 JUMP JUMPDEST PUSH2 0x164A JUMP JUMPDEST PUSH1 0x40 MLOAD PUSH2 0x3CE SWAP2 SWAP1 PUSH2 0x2274 JUMP JUMPDEST PUSH1 0x40 MLOAD DUP1 SWAP2 SUB SWAP1 RETURN JUMPDEST PUSH2 0x3F1 PUSH1 0x4 DUP1 CALLDATASIZE SUB DUP2 ADD SWAP1 PUSH2 0x3EC SWAP2 SWAP1 PUSH2 0x239A JUMP JUMPDEST PUSH2 0x1775 JUMP JUMPDEST PUSH1 0x40 MLOAD PUSH2 0x3FE SWAP2 SWAP1 PUSH2 0x229E JUMP JUMPDEST PUSH1 0x40 MLOAD DUP1 SWAP2 SUB SWAP1 RETURN JUMPDEST PUSH2 0x421 PUSH1 0x4 DUP1 CALLDATASIZE SUB DUP2 ADD SWAP1 PUSH2 0x41C SWAP2 SWAP1 PUSH2 0x2433 JUMP JUMPDEST PUSH2 0x1790 JUMP JUMPDEST PUSH1 0x40 MLOAD PUSH2 0x42E SWAP2 SWAP1 PUSH2 0x229E JUMP JUMPDEST PUSH1 0x40 MLOAD DUP1 SWAP2 SUB SWAP1 RETURN JUMPDEST PUSH2 0x451 PUSH1 0x4 DUP1 CALLDATASIZE SUB DUP2 ADD SWAP1 PUSH2 0x44C SWAP2 SWAP1 PUSH2 0x2343 JUMP JUMPDEST PUSH2 0x1817 JUMP JUMPDEST STOP JUMPDEST PUSH2 0x45B PUSH2 0x190E JUMP JUMPDEST PUSH1 0x40 MLOAD PUSH2 0x468 SWAP2 SWAP1 PUSH2 0x2494 JUMP JUMPDEST PUSH1 0x40 MLOAD DUP1 SWAP2 SUB SWAP1 RETURN JUMPDEST PUSH1 0x60 PUSH1 0x3 DUP1 SLOAD PUSH2 0x480 SWAP1 PUSH2 0x24DE JUMP JUMPDEST DUP1 PUSH1 0x1F ADD PUSH1 0x20 DUP1 SWAP2 DIV MUL PUSH1 0x20 ADD PUSH1 0x40 MLOAD SWAP1 DUP2 ADD PUSH1 0x40 MSTORE DUP1 SWAP3 SWAP2 SWAP1 DUP2 DUP2 MSTORE PUSH1 0x20 ADD DUP3 DUP1 SLOAD PUSH2 0x4AC SWAP1 PUSH2 0x24DE JUMP JUMPDEST DUP1 ISZERO PUSH2 0x4F9 JUMPI DUP1 PUSH1 0x1F LT PUSH2 0x4CE JUMPI PUSH2 0x100 DUP1 DUP4 SLOAD DIV MUL DUP4 MSTORE SWAP2 PUSH1 0x20 ADD SWAP2 PUSH2 0x4F9 JUMP JUMPDEST DUP3 ADD SWAP2 SWAP1 PUSH1 0x0 MSTORE PUSH1 0x20 PUSH1 0x0 KECCAK256 SWAP1 JUMPDEST DUP2 SLOAD DUP2 MSTORE SWAP1 PUSH1 0x1 ADD SWAP1 PUSH1 0x20 ADD DUP1 DUP4 GT PUSH2 0x4DC JUMPI DUP3 SWAP1 SUB PUSH1 0x1F AND DUP3 ADD SWAP2 JUMPDEST POP POP POP POP POP SWAP1 POP SWAP1 JUMP JUMPDEST PUSH1 0x0 PUSH2 0x517 PUSH2 0x510 PUSH2 0x1934 JUMP JUMPDEST DUP5 DUP5 PUSH2 0x193C JUMP JUMPDEST PUSH1 0x1 SWAP1 POP SWAP3 SWAP2 POP POP JUMP JUMPDEST PUSH2 0x529 PUSH2 0x1934 JUMP JUMPDEST PUSH20 0xFFFFFFFFFFFFFFFFFFFFFFFFFFFFFFFFFFFFFFFF AND PUSH2 0x547 PUSH2 0xEB1 JUMP JUMPDEST PUSH20 0xFFFFFFFFFFFFFFFFFFFFFFFFFFFFFFFFFFFFFFFF AND EQ PUSH2 0x59D JUMPI PUSH1 0x40 MLOAD PUSH32 0x8C379A000000000000000000000000000000000000000000000000000000000 DUP2 MSTORE PUSH1 0x4 ADD PUSH2 0x594 SWAP1 PUSH2 0x255B JUMP JUMPDEST PUSH1 0x40 MLOAD DUP1 SWAP2 SUB SWAP1 REVERT JUMPDEST PUSH1 0x0 PUSH1 0x7 PUSH1 0x0 DUP5 PUSH20 0xFFFFFFFFFFFFFFFFFFFFFFFFFFFFFFFFFFFFFFFF AND PUSH20 0xFFFFFFFFFFFFFFFFFFFFFFFFFFFFFFFFFFFFFFFF AND DUP2 MSTORE PUSH1 0x20 ADD SWAP1 DUP2 MSTORE PUSH1 0x20 ADD PUSH1 0x0 KECCAK256 PUSH1 0x0 SWAP1 SLOAD SWAP1 PUSH2 0x100 EXP SWAP1 DIV PUSH1 0xFF AND PUSH1 0xFF AND EQ PUSH2 0x62F JUMPI PUSH1 0x40 MLOAD PUSH32 0x8C379A000000000000000000000000000000000000000000000000000000000 DUP2 MSTORE PUSH1 0x4 ADD PUSH2 0x626 SWAP1 PUSH2 0x25ED JUMP JUMPDEST PUSH1 0x40 MLOAD DUP1 SWAP2 SUB SWAP1 REVERT JUMPDEST DUP1 PUSH1 0x0 DUP1 DUP5 PUSH20 0xFFFFFFFFFFFFFFFFFFFFFFFFFFFFFFFFFFFFFFFF AND PUSH20 0xFFFFFFFFFFFFFFFFFFFFFFFFFFFFFFFFFFFFFFFF AND DUP2 MSTORE PUSH1 0x20 ADD SWAP1 DUP2 MSTORE PUSH1 0x20 ADD PUSH1 0x0 KECCAK256 PUSH1 0x0 DUP3 DUP3 SLOAD PUSH2 0x67D SWAP2 SWAP1 PUSH2 0x263C JUMP JUMPDEST SWAP3 POP POP DUP2 SWAP1 SSTORE POP PUSH1 0x0 PUSH1 0x1 SWAP1 POP JUMPDEST PUSH1 0x2 DUP2 PUSH1 0xFF AND GT PUSH2 0x7C7 JUMPI PUSH2 0x6F7 PUSH2 0x6AD PUSH1 0x2 DUP5 PUSH2 0x1B05 SWAP1 SWAP2 SWAP1 PUSH4 0xFFFFFFFF AND JUMP JUMPDEST PUSH1 0xB DUP4 PUSH1 0xFF AND PUSH1 0x3 DUP2 LT PUSH2 0x6C4 JUMPI PUSH2 0x6C3 PUSH2 0x2692 JUMP JUMPDEST JUMPDEST ADD SLOAD PUSH2 0x6D0 SWAP2 SWAP1 PUSH2 0x263C JUMP JUMPDEST PUSH1 0x8 DUP4 PUSH1 0xFF AND PUSH1 0x3 DUP2 LT PUSH2 0x6E7 JUMPI PUSH2 0x6E6 PUSH2 0x2692 JUMP JUMPDEST JUMPDEST ADD SLOAD PUSH2 0x1B1B SWAP1 SWAP2 SWAP1 PUSH4 0xFFFFFFFF AND JUMP JUMPDEST PUSH1 0x8 DUP3 PUSH1 0xFF AND PUSH1 0x3 DUP2 LT PUSH2 0x70E JUMPI PUSH2 0x70D PUSH2 0x2692 JUMP JUMPDEST JUMPDEST ADD DUP2 SWAP1 SSTORE POP PUSH2 0x756 PUSH1 0xB DUP3 PUSH1 0xFF AND PUSH1 0x3 DUP2 LT PUSH2 0x72D JUMPI PUSH2 0x72C PUSH2 0x2692 JUMP JUMPDEST JUMPDEST ADD SLOAD PUSH1 0x8 DUP4 PUSH1 0xFF AND PUSH1 0x3 DUP2 LT PUSH2 0x746 JUMPI PUSH2 0x745 PUSH2 0x2692 JUMP JUMPDEST JUMPDEST ADD SLOAD PUSH2 0x1B05 SWAP1 SWAP2 SWAP1 PUSH4 0xFFFFFFFF AND JUMP JUMPDEST PUSH1 0x8 DUP3 PUSH1 0xFF AND PUSH1 0x3 DUP2 LT PUSH2 0x76D JUMPI PUSH2 0x76C PUSH2 0x2692 JUMP JUMPDEST JUMPDEST ADD DUP2 SWAP1 SSTORE POP PUSH2 0x786 PUSH1 0x2 DUP4 PUSH2 0x1B05 SWAP1 SWAP2 SWAP1 PUSH4 0xFFFFFFFF AND JUMP JUMPDEST PUSH1 0xB DUP3 PUSH1 0xFF AND PUSH1 0x3 DUP2 LT PUSH2 0x79D JUMPI PUSH2 0x79C PUSH2 0x2692 JUMP JUMPDEST JUMPDEST ADD PUSH1 0x0 DUP3 DUP3 SLOAD PUSH2 0x7AD SWAP2 SWAP1 PUSH2 0x263C JUMP JUMPDEST SWAP3 POP POP DUP2 SWAP1 SSTORE POP DUP1 DUP1 PUSH2 0x7BF SWAP1 PUSH2 0x26C1 JUMP JUMPDEST SWAP2 POP POP PUSH2 0x68B JUMP JUMPDEST POP DUP1 PUSH1 0x2 PUSH1 0x0 DUP3 DUP3 SLOAD PUSH2 0x7DA SWAP2 SWAP1 PUSH2 0x263C JUMP JUMPDEST SWAP3 POP POP DUP2 SWAP1 SSTORE POP POP POP JUMP JUMPDEST PUSH2 0x7ED PUSH2 0x1934 JUMP JUMPDEST PUSH20 0xFFFFFFFFFFFFFFFFFFFFFFFFFFFFFFFFFFFFFFFF AND PUSH2 0x80B PUSH2 0xEB1 JUMP JUMPDEST PUSH20 0xFFFFFFFFFFFFFFFFFFFFFFFFFFFFFFFFFFFFFFFF AND EQ PUSH2 0x861 JUMPI PUSH1 0x40 MLOAD PUSH32 0x8C379A000000000000000000000000000000000000000000000000000000000 DUP2 MSTORE PUSH1 0x4 ADD PUSH2 0x858 SWAP1 PUSH2 0x255B JUMP JUMPDEST PUSH1 0x40 MLOAD DUP1 SWAP2 SUB SWAP1 REVERT JUMPDEST PUSH1 0x0 PUSH1 0x7 PUSH1 0x0 DUP5 PUSH20 0xFFFFFFFFFFFFFFFFFFFFFFFFFFFFFFFFFFFFFFFF AND PUSH20 0xFFFFFFFFFFFFFFFFFFFFFFFFFFFFFFFFFFFFFFFF AND DUP2 MSTORE PUSH1 0x20 ADD SWAP1 DUP2 MSTORE PUSH1 0x20 ADD PUSH1 0x0 KECCAK256 PUSH1 0x0 SWAP1 SLOAD SWAP1 PUSH2 0x100 EXP SWAP1 DIV PUSH1 0xFF AND PUSH1 0xFF AND SUB PUSH2 0x8F3 JUMPI PUSH1 0x40 MLOAD PUSH32 0x8C379A000000000000000000000000000000000000000000000000000000000 DUP2 MSTORE PUSH1 0x4 ADD PUSH2 0x8EA SWAP1 PUSH2 0x2736 JUMP JUMPDEST PUSH1 0x40 MLOAD DUP1 SWAP2 SUB SWAP1 REVERT JUMPDEST PUSH2 0x8FC DUP3 PUSH2 0x1B31 JUMP JUMPDEST DUP1 PUSH1 0x0 DUP1 DUP5 PUSH20 0xFFFFFFFFFFFFFFFFFFFFFFFFFFFFFFFFFFFFFFFF AND PUSH20 0xFFFFFFFFFFFFFFFFFFFFFFFFFFFFFFFFFFFFFFFF AND DUP2 MSTORE PUSH1 0x20 ADD SWAP1 DUP2 MSTORE PUSH1 0x20 ADD PUSH1 0x0 KECCAK256 PUSH1 0x0 DUP3 DUP3 SLOAD PUSH2 0x94A SWAP2 SWAP1 PUSH2 0x263C JUMP JUMPDEST SWAP3 POP POP DUP2 SWAP1 SSTORE POP PUSH2 0x965 PUSH1 0x2 DUP3 PUSH2 0x1B1B SWAP1 SWAP2 SWAP1 PUSH4 0xFFFFFFFF AND JUMP JUMPDEST PUSH1 0x0 DUP1 PUSH1 0xE PUSH1 0x0 SWAP1 SLOAD SWAP1 PUSH2 0x100 EXP SWAP1 DIV PUSH20 0xFFFFFFFFFFFFFFFFFFFFFFFFFFFFFFFFFFFFFFFF AND PUSH20 0xFFFFFFFFFFFFFFFFFFFFFFFFFFFFFFFFFFFFFFFF AND PUSH20 0xFFFFFFFFFFFFFFFFFFFFFFFFFFFFFFFFFFFFFFFF AND DUP2 MSTORE PUSH1 0x20 ADD SWAP1 DUP2 MSTORE PUSH1 0x20 ADD PUSH1 0x0 KECCAK256 PUSH1 0x0 DUP3 DUP3 SLOAD PUSH2 0x9D4 SWAP2 SWAP1 PUSH2 0x263C JUMP JUMPDEST SWAP3 POP POP DUP2 SWAP1 SSTORE POP PUSH1 0x0 PUSH1 0x7 PUSH1 0x0 DUP5 PUSH20 0xFFFFFFFFFFFFFFFFFFFFFFFFFFFFFFFFFFFFFFFF AND PUSH20 0xFFFFFFFFFFFFFFFFFFFFFFFFFFFFFFFFFFFFFFFF AND DUP2 MSTORE PUSH1 0x20 ADD SWAP1 DUP2 MSTORE PUSH1 0x20 ADD PUSH1 0x0 KECCAK256 PUSH1 0x0 SWAP1 SLOAD SWAP1 PUSH2 0x100 EXP SWAP1 DIV PUSH1 0xFF AND PUSH1 0x1 PUSH2 0xA36 SWAP2 SWAP1 PUSH2 0x2756 JUMP JUMPDEST SWAP1 POP PUSH2 0xA86 DUP3 PUSH1 0xB DUP4 PUSH1 0xFF AND PUSH1 0x3 DUP2 LT PUSH2 0xA53 JUMPI PUSH2 0xA52 PUSH2 0x2692 JUMP JUMPDEST JUMPDEST ADD SLOAD PUSH2 0xA5F SWAP2 SWAP1 PUSH2 0x263C JUMP JUMPDEST PUSH1 0x8 DUP4 PUSH1 0xFF AND PUSH1 0x3 DUP2 LT PUSH2 0xA76 JUMPI PUSH2 0xA75 PUSH2 0x2692 JUMP JUMPDEST JUMPDEST ADD SLOAD PUSH2 0x1B1B SWAP1 SWAP2 SWAP1 PUSH4 0xFFFFFFFF AND JUMP JUMPDEST PUSH1 0x8 DUP3 PUSH1 0xFF AND PUSH1 0x3 DUP2 LT PUSH2 0xA9D JUMPI PUSH2 0xA9C PUSH2 0x2692 JUMP JUMPDEST JUMPDEST ADD DUP2 SWAP1 SSTORE POP PUSH2 0xAE5 PUSH1 0xB DUP3 PUSH1 0xFF AND PUSH1 0x3 DUP2 LT PUSH2 0xABC JUMPI PUSH2 0xABB PUSH2 0x2692 JUMP JUMPDEST JUMPDEST ADD SLOAD PUSH1 0x8 DUP4 PUSH1 0xFF AND PUSH1 0x3 DUP2 LT PUSH2 0xAD5 JUMPI PUSH2 0xAD4 PUSH2 0x2692 JUMP JUMPDEST JUMPDEST ADD SLOAD PUSH2 0x1B05 SWAP1 SWAP2 SWAP1 PUSH4 0xFFFFFFFF AND JUMP JUMPDEST PUSH1 0x8 DUP3 PUSH1 0xFF AND PUSH1 0x3 DUP2 LT PUSH2 0xAFC JUMPI PUSH2 0xAFB PUSH2 0x2692 JUMP JUMPDEST JUMPDEST ADD DUP2 SWAP1 SSTORE POP DUP2 PUSH1 0xB PUSH1 0x1 PUSH1 0x3 DUP2 LT PUSH2 0xB17 JUMPI PUSH2 0xB16 PUSH2 0x2692 JUMP JUMPDEST JUMPDEST ADD PUSH1 0x0 DUP3 DUP3 SLOAD PUSH2 0xB27 SWAP2 SWAP1 PUSH2 0x263C JUMP JUMPDEST SWAP3 POP POP DUP2 SWAP1 SSTORE POP DUP2 PUSH1 0xB PUSH1 0x2 PUSH1 0x3 DUP2 LT PUSH2 0xB44 JUMPI PUSH2 0xB43 PUSH2 0x2692 JUMP JUMPDEST JUMPDEST ADD PUSH1 0x0 DUP3 DUP3 SLOAD PUSH2 0xB54 SWAP2 SWAP1 PUSH2 0x263C JUMP JUMPDEST SWAP3 POP POP DUP2 SWAP1 SSTORE POP DUP2 PUSH1 0x2 PUSH1 0x0 DUP3 DUP3 SLOAD PUSH2 0xB6D SWAP2 SWAP1 PUSH2 0x263C JUMP JUMPDEST SWAP3 POP POP DUP2 SWAP1 SSTORE POP POP POP POP JUMP JUMPDEST PUSH1 0x0 PUSH1 0x2 SLOAD SWAP1 POP SWAP1 JUMP JUMPDEST PUSH1 0x0 PUSH1 0x1 SWAP1 POP SWAP4 SWAP3 POP POP POP JUMP JUMPDEST PUSH1 0x0 PUSH1 0x12 SWAP1 POP SWAP1 JUMP JUMPDEST PUSH1 0x0 PUSH2 0xC3B PUSH2 0xBA6 PUSH2 0x1934 JUMP JUMPDEST DUP5 DUP5 PUSH1 0x1 PUSH1 0x0 PUSH2 0xBB4 PUSH2 0x1934 JUMP JUMPDEST PUSH20 0xFFFFFFFFFFFFFFFFFFFFFFFFFFFFFFFFFFFFFFFF AND PUSH20 0xFFFFFFFFFFFFFFFFFFFFFFFFFFFFFFFFFFFFFFFF AND DUP2 MSTORE PUSH1 0x20 ADD SWAP1 DUP2 MSTORE PUSH1 0x20 ADD PUSH1 0x0 KECCAK256 PUSH1 0x0 DUP9 PUSH20 0xFFFFFFFFFFFFFFFFFFFFFFFFFFFFFFFFFFFFFFFF AND PUSH20 0xFFFFFFFFFFFFFFFFFFFFFFFFFFFFFFFFFFFFFFFF AND DUP2 MSTORE PUSH1 0x20 ADD SWAP1 DUP2 MSTORE PUSH1 0x20 ADD PUSH1 0x0 KECCAK256 SLOAD PUSH2 0xC36 SWAP2 SWAP1 PUSH2 0x263C JUMP JUMPDEST PUSH2 0x193C JUMP JUMPDEST PUSH1 0x1 SWAP1 POP SWAP3 SWAP2 POP POP JUMP JUMPDEST PUSH1 0x6 PUSH1 0x20 MSTORE DUP1 PUSH1 0x0 MSTORE PUSH1 0x40 PUSH1 0x0 KECCAK256 PUSH1 0x0 SWAP2 POP SWAP1 POP SLOAD DUP2 JUMP JUMPDEST PUSH1 0x0 DUP1 PUSH1 0x7 PUSH1 0x0 DUP5 PUSH20 0xFFFFFFFFFFFFFFFFFFFFFFFFFFFFFFFFFFFFFFFF AND PUSH20 0xFFFFFFFFFFFFFFFFFFFFFFFFFFFFFFFFFFFFFFFF AND DUP2 MSTORE PUSH1 0x20 ADD SWAP1 DUP2 MSTORE PUSH1 0x20 ADD PUSH1 0x0 KECCAK256 PUSH1 0x0 SWAP1 SLOAD SWAP1 PUSH2 0x100 EXP SWAP1 DIV PUSH1 0xFF AND PUSH1 0xFF AND SUB PUSH2 0xCFB JUMPI PUSH1 0x0 DUP1 DUP4 PUSH20 0xFFFFFFFFFFFFFFFFFFFFFFFFFFFFFFFFFFFFFFFF AND PUSH20 0xFFFFFFFFFFFFFFFFFFFFFFFFFFFFFFFFFFFFFFFF AND DUP2 MSTORE PUSH1 0x20 ADD SWAP1 DUP2 MSTORE PUSH1 0x20 ADD PUSH1 0x0 KECCAK256 SLOAD SWAP1 POP PUSH2 0xE04 JUMP JUMPDEST PUSH2 0xE01 PUSH1 0x6 PUSH1 0x0 DUP5 PUSH20 0xFFFFFFFFFFFFFFFFFFFFFFFFFFFFFFFFFFFFFFFF AND PUSH20 0xFFFFFFFFFFFFFFFFFFFFFFFFFFFFFFFFFFFFFFFF AND DUP2 MSTORE PUSH1 0x20 ADD SWAP1 DUP2 MSTORE PUSH1 0x20 ADD PUSH1 0x0 KECCAK256 SLOAD PUSH2 0xDF3 PUSH1 0x0 DUP1 DUP7 PUSH20 0xFFFFFFFFFFFFFFFFFFFFFFFFFFFFFFFFFFFFFFFF AND PUSH20 0xFFFFFFFFFFFFFFFFFFFFFFFFFFFFFFFFFFFFFFFF AND DUP2 MSTORE PUSH1 0x20 ADD SWAP1 DUP2 MSTORE PUSH1 0x20 ADD PUSH1 0x0 KECCAK256 SLOAD PUSH1 0x8 PUSH1 0x7 PUSH1 0x0 DUP9 PUSH20 0xFFFFFFFFFFFFFFFFFFFFFFFFFFFFFFFFFFFFFFFF AND PUSH20 0xFFFFFFFFFFFFFFFFFFFFFFFFFFFFFFFFFFFFFFFF AND DUP2 MSTORE PUSH1 0x20 ADD SWAP1 DUP2 MSTORE PUSH1 0x20 ADD PUSH1 0x0 KECCAK256 PUSH1 0x0 SWAP1 SLOAD SWAP1 PUSH2 0x100 EXP SWAP1 DIV PUSH1 0xFF AND PUSH1 0xFF AND PUSH1 0x3 DUP2 LT PUSH2 0xDE3 JUMPI PUSH2 0xDE2 PUSH2 0x2692 JUMP JUMPDEST JUMPDEST ADD SLOAD PUSH2 0x1B1B SWAP1 SWAP2 SWAP1 PUSH4 0xFFFFFFFF AND JUMP JUMPDEST PUSH2 0x1B05 SWAP1 SWAP2 SWAP1 PUSH4 0xFFFFFFFF AND JUMP JUMPDEST SWAP1 POP JUMPDEST SWAP2 SWAP1 POP JUMP JUMPDEST PUSH2 0xE11 PUSH2 0x1934 JUMP JUMPDEST PUSH20 0xFFFFFFFFFFFFFFFFFFFFFFFFFFFFFFFFFFFFFFFF AND PUSH2 0xE2F PUSH2 0xEB1 JUMP JUMPDEST PUSH20 0xFFFFFFFFFFFFFFFFFFFFFFFFFFFFFFFFFFFFFFFF AND EQ PUSH2 0xE85 JUMPI PUSH1 0x40 MLOAD PUSH32 0x8C379A000000000000000000000000000000000000000000000000000000000 DUP2 MSTORE PUSH1 0x4 ADD PUSH2 0xE7C SWAP1 PUSH2 0x255B JUMP JUMPDEST PUSH1 0x40 MLOAD DUP1 SWAP2 SUB SWAP1 REVERT JUMPDEST PUSH2 0xE8F PUSH1 0x0 PUSH2 0x1D7D JUMP JUMPDEST JUMP JUMPDEST PUSH1 0x7 PUSH1 0x20 MSTORE DUP1 PUSH1 0x0 MSTORE PUSH1 0x40 PUSH1 0x0 KECCAK256 PUSH1 0x0 SWAP2 POP SLOAD SWAP1 PUSH2 0x100 EXP SWAP1 DIV PUSH1 0xFF AND DUP2 JUMP JUMPDEST PUSH1 0x0 PUSH1 0x5 PUSH1 0x0 SWAP1 SLOAD SWAP1 PUSH2 0x100 EXP SWAP1 DIV PUSH20 0xFFFFFFFFFFFFFFFFFFFFFFFFFFFFFFFFFFFFFFFF AND SWAP1 POP SWAP1 JUMP JUMPDEST PUSH1 0x60 PUSH1 0x4 DUP1 SLOAD PUSH2 0xEEA SWAP1 PUSH2 0x24DE JUMP JUMPDEST DUP1 PUSH1 0x1F ADD PUSH1 0x20 DUP1 SWAP2 DIV MUL PUSH1 0x20 ADD PUSH1 0x40 MLOAD SWAP1 DUP2 ADD PUSH1 0x40 MSTORE DUP1 SWAP3 SWAP2 SWAP1 DUP2 DUP2 MSTORE PUSH1 0x20 ADD DUP3 DUP1 SLOAD PUSH2 0xF16 SWAP1 PUSH2 0x24DE JUMP JUMPDEST DUP1 ISZERO PUSH2 0xF63 JUMPI DUP1 PUSH1 0x1F LT PUSH2 0xF38 JUMPI PUSH2 0x100 DUP1 DUP4 SLOAD DIV MUL DUP4 MSTORE SWAP2 PUSH1 0x20 ADD SWAP2 PUSH2 0xF63 JUMP JUMPDEST DUP3 ADD SWAP2 SWAP1 PUSH1 0x0 MSTORE PUSH1 0x20 PUSH1 0x0 KECCAK256 SWAP1 JUMPDEST DUP2 SLOAD DUP2 MSTORE SWAP1 PUSH1 0x1 ADD SWAP1 PUSH1 0x20 ADD DUP1 DUP4 GT PUSH2 0xF46 JUMPI DUP3 SWAP1 SUB PUSH1 0x1F AND DUP3 ADD SWAP2 JUMPDEST POP POP POP POP POP SWAP1 POP SWAP1 JUMP JUMPDEST PUSH2 0xF75 PUSH2 0x1934 JUMP JUMPDEST PUSH20 0xFFFFFFFFFFFFFFFFFFFFFFFFFFFFFFFFFFFFFFFF AND PUSH2 0xF93 PUSH2 0xEB1 JUMP JUMPDEST PUSH20 0xFFFFFFFFFFFFFFFFFFFFFFFFFFFFFFFFFFFFFFFF AND EQ PUSH2 0xFE9 JUMPI PUSH1 0x40 MLOAD PUSH32 0x8C379A000000000000000000000000000000000000000000000000000000000 DUP2 MSTORE PUSH1 0x4 ADD PUSH2 0xFE0 SWAP1 PUSH2 0x255B JUMP JUMPDEST PUSH1 0x40 MLOAD DUP1 SWAP2 SUB SWAP1 REVERT JUMPDEST PUSH1 0x0 PUSH1 0xB PUSH1 0x2 PUSH1 0x3 DUP2 LT PUSH2 0x1000 JUMPI PUSH2 0xFFF PUSH2 0x2692 JUMP JUMPDEST JUMPDEST ADD SLOAD EQ PUSH2 0x10D8 JUMPI PUSH2 0x1064 PUSH2 0x101E PUSH1 0x4 DUP4 PUSH2 0x1B05 SWAP1 SWAP2 SWAP1 PUSH4 0xFFFFFFFF AND JUMP JUMPDEST PUSH1 0xB PUSH1 0x2 PUSH1 0x3 DUP2 LT PUSH2 0x1033 JUMPI PUSH2 0x1032 PUSH2 0x2692 JUMP JUMPDEST JUMPDEST ADD SLOAD PUSH2 0x103F SWAP2 SWAP1 PUSH2 0x263C JUMP JUMPDEST PUSH1 0x8 PUSH1 0x2 PUSH1 0x3 DUP2 LT PUSH2 0x1054 JUMPI PUSH2 0x1053 PUSH2 0x2692 JUMP JUMPDEST JUMPDEST ADD SLOAD PUSH2 0x1B1B SWAP1 SWAP2 SWAP1 PUSH4 0xFFFFFFFF AND JUMP JUMPDEST PUSH1 0x8 PUSH1 0x2 PUSH1 0x3 DUP2 LT PUSH2 0x1079 JUMPI PUSH2 0x1078 PUSH2 0x2692 JUMP JUMPDEST JUMPDEST ADD DUP2 SWAP1 SSTORE POP PUSH2 0x10BD PUSH1 0xB PUSH1 0x2 PUSH1 0x3 DUP2 LT PUSH2 0x1096 JUMPI PUSH2 0x1095 PUSH2 0x2692 JUMP JUMPDEST JUMPDEST ADD SLOAD PUSH1 0x8 PUSH1 0x2 PUSH1 0x3 DUP2 LT PUSH2 0x10AD JUMPI PUSH2 0x10AC PUSH2 0x2692 JUMP JUMPDEST JUMPDEST ADD SLOAD PUSH2 0x1B05 SWAP1 SWAP2 SWAP1 PUSH4 0xFFFFFFFF AND JUMP JUMPDEST PUSH1 0x8 PUSH1 0x2 PUSH1 0x3 DUP2 LT PUSH2 0x10D2 JUMPI PUSH2 0x10D1 PUSH2 0x2692 JUMP JUMPDEST JUMPDEST ADD DUP2 SWAP1 SSTORE POP JUMPDEST PUSH1 0x0 PUSH1 0xB PUSH1 0x1 PUSH1 0x3 DUP2 LT PUSH2 0x10EF JUMPI PUSH2 0x10EE PUSH2 0x2692 JUMP JUMPDEST JUMPDEST ADD SLOAD EQ PUSH2 0x11C7 JUMPI PUSH2 0x1153 PUSH2 0x110D PUSH1 0x4 DUP4 PUSH2 0x1B05 SWAP1 SWAP2 SWAP1 PUSH4 0xFFFFFFFF AND JUMP JUMPDEST PUSH1 0xB PUSH1 0x1 PUSH1 0x3 DUP2 LT PUSH2 0x1122 JUMPI PUSH2 0x1121 PUSH2 0x2692 JUMP JUMPDEST JUMPDEST ADD SLOAD PUSH2 0x112E SWAP2 SWAP1 PUSH2 0x263C JUMP JUMPDEST PUSH1 0x8 PUSH1 0x1 PUSH1 0x3 DUP2 LT PUSH2 0x1143 JUMPI PUSH2 0x1142 PUSH2 0x2692 JUMP JUMPDEST JUMPDEST ADD SLOAD PUSH2 0x1B1B SWAP1 SWAP2 SWAP1 PUSH4 0xFFFFFFFF AND JUMP JUMPDEST PUSH1 0x8 PUSH1 0x1 PUSH1 0x3 DUP2 LT PUSH2 0x1168 JUMPI PUSH2 0x1167 PUSH2 0x2692 JUMP JUMPDEST JUMPDEST ADD DUP2 SWAP1 SSTORE POP PUSH2 0x11AC PUSH1 0xB PUSH1 0x1 PUSH1 0x3 DUP2 LT PUSH2 0x1185 JUMPI PUSH2 0x1184 PUSH2 0x2692 JUMP JUMPDEST JUMPDEST ADD SLOAD PUSH1 0x8 PUSH1 0x1 PUSH1 0x3 DUP2 LT PUSH2 0x119C JUMPI PUSH2 0x119B PUSH2 0x2692 JUMP JUMPDEST JUMPDEST ADD SLOAD PUSH2 0x1B05 SWAP1 SWAP2 SWAP1 PUSH4 0xFFFFFFFF AND JUMP JUMPDEST PUSH1 0x8 PUSH1 0x1 PUSH1 0x3 DUP2 LT PUSH2 0x11C1 JUMPI PUSH2 0x11C0 PUSH2 0x2692 JUMP JUMPDEST JUMPDEST ADD DUP2 SWAP1 SSTORE POP JUMPDEST PUSH2 0x11DB PUSH1 0x2 DUP3 PUSH2 0x1B05 SWAP1 SWAP2 SWAP1 PUSH4 0xFFFFFFFF AND JUMP JUMPDEST PUSH1 0x0 DUP1 PUSH1 0xE PUSH1 0x0 SWAP1 SLOAD SWAP1 PUSH2 0x100 EXP SWAP1 DIV PUSH20 0xFFFFFFFFFFFFFFFFFFFFFFFFFFFFFFFFFFFFFFFF AND PUSH20 0xFFFFFFFFFFFFFFFFFFFFFFFFFFFFFFFFFFFFFFFF AND PUSH20 0xFFFFFFFFFFFFFFFFFFFFFFFFFFFFFFFFFFFFFFFF AND DUP2 MSTORE PUSH1 0x20 ADD SWAP1 DUP2 MSTORE PUSH1 0x20 ADD PUSH1 0x0 KECCAK256 PUSH1 0x0 DUP3 DUP3 SLOAD PUSH2 0x124A SWAP2 SWAP1 PUSH2 0x263C JUMP JUMPDEST SWAP3 POP POP DUP2 SWAP1 SSTORE POP PUSH2 0x1265 PUSH1 0x4 DUP3 PUSH2 0x1B05 SWAP1 SWAP2 SWAP1 PUSH4 0xFFFFFFFF AND JUMP JUMPDEST PUSH1 0xB PUSH1 0x1 PUSH1 0x3 DUP2 LT PUSH2 0x127A JUMPI PUSH2 0x1279 PUSH2 0x2692 JUMP JUMPDEST JUMPDEST ADD PUSH1 0x0 DUP3 DUP3 SLOAD PUSH2 0x128A SWAP2 SWAP1 PUSH2 0x263C JUMP JUMPDEST SWAP3 POP POP DUP2 SWAP1 SSTORE POP PUSH2 0x12A5 PUSH1 0x4 DUP3 PUSH2 0x1B05 SWAP1 SWAP2 SWAP1 PUSH4 0xFFFFFFFF AND JUMP JUMPDEST PUSH1 0xB PUSH1 0x2 PUSH1 0x3 DUP2 LT PUSH2 0x12BA JUMPI PUSH2 0x12B9 PUSH2 0x2692 JUMP JUMPDEST JUMPDEST ADD PUSH1 0x0 DUP3 DUP3 SLOAD PUSH2 0x12CA SWAP2 SWAP1 PUSH2 0x263C JUMP JUMPDEST SWAP3 POP POP DUP2 SWAP1 SSTORE POP DUP1 PUSH1 0x2 PUSH1 0x0 DUP3 DUP3 SLOAD PUSH2 0x12E3 SWAP2 SWAP1 PUSH2 0x263C JUMP JUMPDEST SWAP3 POP POP DUP2 SWAP1 SSTORE POP POP JUMP JUMPDEST PUSH2 0x12F5 PUSH2 0x1934 JUMP JUMPDEST PUSH20 0xFFFFFFFFFFFFFFFFFFFFFFFFFFFFFFFFFFFFFFFF AND PUSH2 0x1313 PUSH2 0xEB1 JUMP JUMPDEST PUSH20 0xFFFFFFFFFFFFFFFFFFFFFFFFFFFFFFFFFFFFFFFF AND EQ PUSH2 0x1369 JUMPI PUSH1 0x40 MLOAD PUSH32 0x8C379A000000000000000000000000000000000000000000000000000000000 DUP2 MSTORE PUSH1 0x4 ADD PUSH2 0x1360 SWAP1 PUSH2 0x255B JUMP JUMPDEST PUSH1 0x40 MLOAD DUP1 SWAP2 SUB SWAP1 REVERT JUMPDEST PUSH2 0x1372 DUP3 PUSH2 0x1B31 JUMP JUMPDEST PUSH1 0x0 PUSH1 0x7 PUSH1 0x0 DUP5 PUSH20 0xFFFFFFFFFFFFFFFFFFFFFFFFFFFFFFFFFFFFFFFF AND PUSH20 0xFFFFFFFFFFFFFFFFFFFFFFFFFFFFFFFFFFFFFFFF AND DUP2 MSTORE PUSH1 0x20 ADD SWAP1 DUP2 MSTORE PUSH1 0x20 ADD PUSH1 0x0 KECCAK256 PUSH1 0x0 SWAP1 SLOAD SWAP1 PUSH2 0x100 EXP SWAP1 DIV PUSH1 0xFF AND SWAP1 POP DUP2 PUSH1 0x7 PUSH1 0x0 DUP6 PUSH20 0xFFFFFFFFFFFFFFFFFFFFFFFFFFFFFFFFFFFFFFFF AND PUSH20 0xFFFFFFFFFFFFFFFFFFFFFFFFFFFFFFFFFFFFFFFF AND DUP2 MSTORE PUSH1 0x20 ADD SWAP1 DUP2 MSTORE PUSH1 0x20 ADD PUSH1 0x0 KECCAK256 PUSH1 0x0 PUSH2 0x100 EXP DUP2 SLOAD DUP2 PUSH1 0xFF MUL NOT AND SWAP1 DUP4 PUSH1 0xFF AND MUL OR SWAP1 SSTORE POP PUSH1 0x0 DUP1 DUP5 PUSH20 0xFFFFFFFFFFFFFFFFFFFFFFFFFFFFFFFFFFFFFFFF AND PUSH20 0xFFFFFFFFFFFFFFFFFFFFFFFFFFFFFFFFFFFFFFFF AND DUP2 MSTORE PUSH1 0x20 ADD SWAP1 DUP2 MSTORE PUSH1 0x20 ADD PUSH1 0x0 KECCAK256 SLOAD PUSH1 0xB DUP3 PUSH1 0xFF AND PUSH1 0x3 DUP2 LT PUSH2 0x1471 JUMPI PUSH2 0x1470 PUSH2 0x2692 JUMP JUMPDEST JUMPDEST ADD PUSH1 0x0 DUP3 DUP3 SLOAD PUSH2 0x1481 SWAP2 SWAP1 PUSH2 0x278A JUMP JUMPDEST SWAP3 POP POP DUP2 SWAP1 SSTORE POP PUSH1 0x0 DUP1 DUP5 PUSH20 0xFFFFFFFFFFFFFFFFFFFFFFFFFFFFFFFFFFFFFFFF AND PUSH20 0xFFFFFFFFFFFFFFFFFFFFFFFFFFFFFFFFFFFFFFFF AND DUP2 MSTORE PUSH1 0x20 ADD SWAP1 DUP2 MSTORE PUSH1 0x20 ADD PUSH1 0x0 KECCAK256 SLOAD PUSH1 0xB DUP4 PUSH1 0xFF AND PUSH1 0x3 DUP2 LT PUSH2 0x14DE JUMPI PUSH2 0x14DD PUSH2 0x2692 JUMP JUMPDEST JUMPDEST ADD PUSH1 0x0 DUP3 DUP3 SLOAD PUSH2 0x14EE SWAP2 SWAP1 PUSH2 0x263C JUMP JUMPDEST SWAP3 POP POP DUP2 SWAP1 SSTORE POP PUSH1 0x8 DUP3 PUSH1 0xFF AND PUSH1 0x3 DUP2 LT PUSH2 0x150C JUMPI PUSH2 0x150B PUSH2 0x2692 JUMP JUMPDEST JUMPDEST ADD SLOAD PUSH1 0x6 PUSH1 0x0 DUP6 PUSH20 0xFFFFFFFFFFFFFFFFFFFFFFFFFFFFFFFFFFFFFFFF AND PUSH20 0xFFFFFFFFFFFFFFFFFFFFFFFFFFFFFFFFFFFFFFFF AND DUP2 MSTORE PUSH1 0x20 ADD SWAP1 DUP2 MSTORE PUSH1 0x20 ADD PUSH1 0x0 KECCAK256 DUP2 SWAP1 SSTORE POP POP POP POP JUMP JUMPDEST PUSH1 0x0 DUP1 PUSH1 0x1 PUSH1 0x0 PUSH2 0x1565 PUSH2 0x1934 JUMP JUMPDEST PUSH20 0xFFFFFFFFFFFFFFFFFFFFFFFFFFFFFFFFFFFFFFFF AND PUSH20 0xFFFFFFFFFFFFFFFFFFFFFFFFFFFFFFFFFFFFFFFF AND DUP2 MSTORE PUSH1 0x20 ADD SWAP1 DUP2 MSTORE PUSH1 0x20 ADD PUSH1 0x0 KECCAK256 PUSH1 0x0 DUP6 PUSH20 0xFFFFFFFFFFFFFFFFFFFFFFFFFFFFFFFFFFFFFFFF AND PUSH20 0xFFFFFFFFFFFFFFFFFFFFFFFFFFFFFFFFFFFFFFFF AND DUP2 MSTORE PUSH1 0x20 ADD SWAP1 DUP2 MSTORE PUSH1 0x20 ADD PUSH1 0x0 KECCAK256 SLOAD SWAP1 POP DUP3 DUP2 LT ISZERO PUSH2 0x1622 JUMPI PUSH1 0x40 MLOAD PUSH32 0x8C379A000000000000000000000000000000000000000000000000000000000 DUP2 MSTORE PUSH1 0x4 ADD PUSH2 0x1619 SWAP1 PUSH2 0x2830 JUMP JUMPDEST PUSH1 0x40 MLOAD DUP1 SWAP2 SUB SWAP1 REVERT JUMPDEST PUSH2 0x163F PUSH2 0x162D PUSH2 0x1934 JUMP JUMPDEST DUP6 DUP6 DUP5 PUSH2 0x163A SWAP2 SWAP1 PUSH2 0x278A JUMP JUMPDEST PUSH2 0x193C JUMP JUMPDEST PUSH1 0x1 SWAP2 POP POP SWAP3 SWAP2 POP POP JUMP JUMPDEST PUSH1 0x0 DUP1 PUSH2 0x1655 PUSH2 0x1934 JUMP JUMPDEST SWAP1 POP PUSH2 0x1660 DUP2 PUSH2 0x1B31 JUMP JUMPDEST PUSH2 0x1669 DUP5 PUSH2 0x1B31 JUMP JUMPDEST DUP3 PUSH1 0xB PUSH1 0x7 PUSH1 0x0 DUP5 PUSH20 0xFFFFFFFFFFFFFFFFFFFFFFFFFFFFFFFFFFFFFFFF AND PUSH20 0xFFFFFFFFFFFFFFFFFFFFFFFFFFFFFFFFFFFFFFFF AND DUP2 MSTORE PUSH1 0x20 ADD SWAP1 DUP2 MSTORE PUSH1 0x20 ADD PUSH1 0x0 KECCAK256 PUSH1 0x0 SWAP1 SLOAD SWAP1 PUSH2 0x100 EXP SWAP1 DIV PUSH1 0xFF AND PUSH1 0xFF AND PUSH1 0x3 DUP2 LT PUSH2 0x16CD JUMPI PUSH2 0x16CC PUSH2 0x2692 JUMP JUMPDEST JUMPDEST ADD PUSH1 0x0 DUP3 DUP3 SLOAD PUSH2 0x16DD SWAP2 SWAP1 PUSH2 0x278A JUMP JUMPDEST SWAP3 POP POP DUP2 SWAP1 SSTORE POP DUP3 PUSH1 0xB PUSH1 0x7 PUSH1 0x0 DUP8 PUSH20 0xFFFFFFFFFFFFFFFFFFFFFFFFFFFFFFFFFFFFFFFF AND PUSH20 0xFFFFFFFFFFFFFFFFFFFFFFFFFFFFFFFFFFFFFFFF AND DUP2 MSTORE PUSH1 0x20 ADD SWAP1 DUP2 MSTORE PUSH1 0x20 ADD PUSH1 0x0 KECCAK256 PUSH1 0x0 SWAP1 SLOAD SWAP1 PUSH2 0x100 EXP SWAP1 DIV PUSH1 0xFF AND PUSH1 0xFF AND PUSH1 0x3 DUP2 LT PUSH2 0x1748 JUMPI PUSH2 0x1747 PUSH2 0x2692 JUMP JUMPDEST JUMPDEST ADD PUSH1 0x0 DUP3 DUP3 SLOAD PUSH2 0x1758 SWAP2 SWAP1 PUSH2 0x263C JUMP JUMPDEST SWAP3 POP POP DUP2 SWAP1 SSTORE POP PUSH2 0x176A DUP2 DUP6 DUP6 PUSH2 0x1E43 JUMP JUMPDEST PUSH1 0x1 SWAP2 POP POP SWAP3 SWAP2 POP POP JUMP JUMPDEST PUSH1 0x8 DUP2 PUSH1 0x3 DUP2 LT PUSH2 0x1785 JUMPI PUSH1 0x0 DUP1 REVERT JUMPDEST ADD PUSH1 0x0 SWAP2 POP SWAP1 POP SLOAD DUP2 JUMP JUMPDEST PUSH1 0x0 PUSH1 0x1 PUSH1 0x0 DUP5 PUSH20 0xFFFFFFFFFFFFFFFFFFFFFFFFFFFFFFFFFFFFFFFF AND PUSH20 0xFFFFFFFFFFFFFFFFFFFFFFFFFFFFFFFFFFFFFFFF AND DUP2 MSTORE PUSH1 0x20 ADD SWAP1 DUP2 MSTORE PUSH1 0x20 ADD PUSH1 0x0 KECCAK256 PUSH1 0x0 DUP4 PUSH20 0xFFFFFFFFFFFFFFFFFFFFFFFFFFFFFFFFFFFFFFFF AND PUSH20 0xFFFFFFFFFFFFFFFFFFFFFFFFFFFFFFFFFFFFFFFF AND DUP2 MSTORE PUSH1 0x20 ADD SWAP1 DUP2 MSTORE PUSH1 0x20 ADD PUSH1 0x0 KECCAK256 SLOAD SWAP1 POP SWAP3 SWAP2 POP POP JUMP JUMPDEST PUSH2 0x181F PUSH2 0x1934 JUMP JUMPDEST PUSH20 0xFFFFFFFFFFFFFFFFFFFFFFFFFFFFFFFFFFFFFFFF AND PUSH2 0x183D PUSH2 0xEB1 JUMP JUMPDEST PUSH20 0xFFFFFFFFFFFFFFFFFFFFFFFFFFFFFFFFFFFFFFFF AND EQ PUSH2 0x1893 JUMPI PUSH1 0x40 MLOAD PUSH32 0x8C379A000000000000000000000000000000000000000000000000000000000 DUP2 MSTORE PUSH1 0x4 ADD PUSH2 0x188A SWAP1 PUSH2 0x255B JUMP JUMPDEST PUSH1 0x40 MLOAD DUP1 SWAP2 SUB SWAP1 REVERT JUMPDEST PUSH1 0x0 PUSH20 0xFFFFFFFFFFFFFFFFFFFFFFFFFFFFFFFFFFFFFFFF AND DUP2 PUSH20 0xFFFFFFFFFFFFFFFFFFFFFFFFFFFFFFFFFFFFFFFF AND SUB PUSH2 0x1902 JUMPI PUSH1 0x40 MLOAD PUSH32 0x8C379A000000000000000000000000000000000000000000000000000000000 DUP2 MSTORE PUSH1 0x4 ADD PUSH2 0x18F9 SWAP1 PUSH2 0x28C2 JUMP JUMPDEST PUSH1 0x40 MLOAD DUP1 SWAP2 SUB SWAP1 REVERT JUMPDEST PUSH2 0x190B DUP2 PUSH2 0x1D7D JUMP JUMPDEST POP JUMP JUMPDEST PUSH1 0xE PUSH1 0x0 SWAP1 SLOAD SWAP1 PUSH2 0x100 EXP SWAP1 DIV PUSH20 0xFFFFFFFFFFFFFFFFFFFFFFFFFFFFFFFFFFFFFFFF AND DUP2 JUMP JUMPDEST PUSH1 0x0 CALLER SWAP1 POP SWAP1 JUMP JUMPDEST PUSH1 0x0 PUSH20 0xFFFFFFFFFFFFFFFFFFFFFFFFFFFFFFFFFFFFFFFF AND DUP4 PUSH20 0xFFFFFFFFFFFFFFFFFFFFFFFFFFFFFFFFFFFFFFFF AND SUB PUSH2 0x19AB JUMPI PUSH1 0x40 MLOAD PUSH32 0x8C379A000000000000000000000000000000000000000000000000000000000 DUP2 MSTORE PUSH1 0x4 ADD PUSH2 0x19A2 SWAP1 PUSH2 0x2954 JUMP JUMPDEST PUSH1 0x40 MLOAD DUP1 SWAP2 SUB SWAP1 REVERT JUMPDEST PUSH1 0x0 PUSH20 0xFFFFFFFFFFFFFFFFFFFFFFFFFFFFFFFFFFFFFFFF AND DUP3 PUSH20 0xFFFFFFFFFFFFFFFFFFFFFFFFFFFFFFFFFFFFFFFF AND SUB PUSH2 0x1A1A JUMPI PUSH1 0x40 MLOAD PUSH32 0x8C379A000000000000000000000000000000000000000000000000000000000 DUP2 MSTORE PUSH1 0x4 ADD PUSH2 0x1A11 SWAP1 PUSH2 0x29E6 JUMP JUMPDEST PUSH1 0x40 MLOAD DUP1 SWAP2 SUB SWAP1 REVERT JUMPDEST DUP1 PUSH1 0x1 PUSH1 0x0 DUP6 PUSH20 0xFFFFFFFFFFFFFFFFFFFFFFFFFFFFFFFFFFFFFFFF AND PUSH20 0xFFFFFFFFFFFFFFFFFFFFFFFFFFFFFFFFFFFFFFFF AND DUP2 MSTORE PUSH1 0x20 ADD SWAP1 DUP2 MSTORE PUSH1 0x20 ADD PUSH1 0x0 KECCAK256 PUSH1 0x0 DUP5 PUSH20 0xFFFFFFFFFFFFFFFFFFFFFFFFFFFFFFFFFFFFFFFF AND PUSH20 0xFFFFFFFFFFFFFFFFFFFFFFFFFFFFFFFFFFFFFFFF AND DUP2 MSTORE PUSH1 0x20 ADD SWAP1 DUP2 MSTORE PUSH1 0x20 ADD PUSH1 0x0 KECCAK256 DUP2 SWAP1 SSTORE POP DUP2 PUSH20 0xFFFFFFFFFFFFFFFFFFFFFFFFFFFFFFFFFFFFFFFF AND DUP4 PUSH20 0xFFFFFFFFFFFFFFFFFFFFFFFFFFFFFFFFFFFFFFFF AND PUSH32 0x8C5BE1E5EBEC7D5BD14F71427D1E84F3DD0314C0F7B2291E5B200AC8C7C3B925 DUP4 PUSH1 0x40 MLOAD PUSH2 0x1AF8 SWAP2 SWAP1 PUSH2 0x229E JUMP JUMPDEST PUSH1 0x40 MLOAD DUP1 SWAP2 SUB SWAP1 LOG3 POP POP POP JUMP JUMPDEST PUSH1 0x0 DUP2 DUP4 PUSH2 0x1B13 SWAP2 SWAP1 PUSH2 0x2A35 JUMP JUMPDEST SWAP1 POP SWAP3 SWAP2 POP POP JUMP JUMPDEST PUSH1 0x0 DUP2 DUP4 PUSH2 0x1B29 SWAP2 SWAP1 PUSH2 0x2A66 JUMP JUMPDEST SWAP1 POP SWAP3 SWAP2 POP POP JUMP JUMPDEST PUSH1 0x0 PUSH1 0x7 PUSH1 0x0 DUP4 PUSH20 0xFFFFFFFFFFFFFFFFFFFFFFFFFFFFFFFFFFFFFFFF AND PUSH20 0xFFFFFFFFFFFFFFFFFFFFFFFFFFFFFFFFFFFFFFFF AND DUP2 MSTORE PUSH1 0x20 ADD SWAP1 DUP2 MSTORE PUSH1 0x20 ADD PUSH1 0x0 KECCAK256 PUSH1 0x0 SWAP1 SLOAD SWAP1 PUSH2 0x100 EXP SWAP1 DIV PUSH1 0xFF AND PUSH1 0xFF AND SUB ISZERO PUSH2 0x1D7A JUMPI PUSH2 0x1C8F PUSH1 0x6 PUSH1 0x0 DUP4 PUSH20 0xFFFFFFFFFFFFFFFFFFFFFFFFFFFFFFFFFFFFFFFF AND PUSH20 0xFFFFFFFFFFFFFFFFFFFFFFFFFFFFFFFFFFFFFFFF AND DUP2 MSTORE PUSH1 0x20 ADD SWAP1 DUP2 MSTORE PUSH1 0x20 ADD PUSH1 0x0 KECCAK256 SLOAD PUSH2 0x1C81 PUSH1 0x0 DUP1 DUP6 PUSH20 0xFFFFFFFFFFFFFFFFFFFFFFFFFFFFFFFFFFFFFFFF AND PUSH20 0xFFFFFFFFFFFFFFFFFFFFFFFFFFFFFFFFFFFFFFFF AND DUP2 MSTORE PUSH1 0x20 ADD SWAP1 DUP2 MSTORE PUSH1 0x20 ADD PUSH1 0x0 KECCAK256 SLOAD PUSH1 0x8 PUSH1 0x7 PUSH1 0x0 DUP8 PUSH20 0xFFFFFFFFFFFFFFFFFFFFFFFFFFFFFFFFFFFFFFFF AND PUSH20 0xFFFFFFFFFFFFFFFFFFFFFFFFFFFFFFFFFFFFFFFF AND DUP2 MSTORE PUSH1 0x20 ADD SWAP1 DUP2 MSTORE PUSH1 0x20 ADD PUSH1 0x0 KECCAK256 PUSH1 0x0 SWAP1 SLOAD SWAP1 PUSH2 0x100 EXP SWAP1 DIV PUSH1 0xFF AND PUSH1 0xFF AND PUSH1 0x3 DUP2 LT PUSH2 0x1C71 JUMPI PUSH2 0x1C70 PUSH2 0x2692 JUMP JUMPDEST JUMPDEST ADD SLOAD PUSH2 0x1B1B SWAP1 SWAP2 SWAP1 PUSH4 0xFFFFFFFF AND JUMP JUMPDEST PUSH2 0x1B05 SWAP1 SWAP2 SWAP1 PUSH4 0xFFFFFFFF AND JUMP JUMPDEST PUSH1 0x0 DUP1 DUP4 PUSH20 0xFFFFFFFFFFFFFFFFFFFFFFFFFFFFFFFFFFFFFFFF AND PUSH20 0xFFFFFFFFFFFFFFFFFFFFFFFFFFFFFFFFFFFFFFFF AND DUP2 MSTORE PUSH1 0x20 ADD SWAP1 DUP2 MSTORE PUSH1 0x20 ADD PUSH1 0x0 KECCAK256 DUP2 SWAP1 SSTORE POP PUSH1 0x8 PUSH1 0x7 PUSH1 0x0 DUP4 PUSH20 0xFFFFFFFFFFFFFFFFFFFFFFFFFFFFFFFFFFFFFFFF AND PUSH20 0xFFFFFFFFFFFFFFFFFFFFFFFFFFFFFFFFFFFFFFFF AND DUP2 MSTORE PUSH1 0x20 ADD SWAP1 DUP2 MSTORE PUSH1 0x20 ADD PUSH1 0x0 KECCAK256 PUSH1 0x0 SWAP1 SLOAD SWAP1 PUSH2 0x100 EXP SWAP1 DIV PUSH1 0xFF AND PUSH1 0xFF AND PUSH1 0x3 DUP2 LT PUSH2 0x1D34 JUMPI PUSH2 0x1D33 PUSH2 0x2692 JUMP JUMPDEST JUMPDEST ADD SLOAD PUSH1 0x6 PUSH1 0x0 DUP4 PUSH20 0xFFFFFFFFFFFFFFFFFFFFFFFFFFFFFFFFFFFFFFFF AND PUSH20 0xFFFFFFFFFFFFFFFFFFFFFFFFFFFFFFFFFFFFFFFF AND DUP2 MSTORE PUSH1 0x20 ADD SWAP1 DUP2 MSTORE PUSH1 0x20 ADD PUSH1 0x0 KECCAK256 DUP2 SWAP1 SSTORE POP JUMPDEST POP JUMP JUMPDEST PUSH1 0x0 PUSH1 0x5 PUSH1 0x0 SWAP1 SLOAD SWAP1 PUSH2 0x100 EXP SWAP1 DIV PUSH20 0xFFFFFFFFFFFFFFFFFFFFFFFFFFFFFFFFFFFFFFFF AND SWAP1 POP DUP2 PUSH1 0x5 PUSH1 0x0 PUSH2 0x100 EXP DUP2 SLOAD DUP2 PUSH20 0xFFFFFFFFFFFFFFFFFFFFFFFFFFFFFFFFFFFFFFFF MUL NOT AND SWAP1 DUP4 PUSH20 0xFFFFFFFFFFFFFFFFFFFFFFFFFFFFFFFFFFFFFFFF AND MUL OR SWAP1 SSTORE POP DUP2 PUSH20 0xFFFFFFFFFFFFFFFFFFFFFFFFFFFFFFFFFFFFFFFF AND DUP2 PUSH20 0xFFFFFFFFFFFFFFFFFFFFFFFFFFFFFFFFFFFFFFFF AND PUSH32 0x8BE0079C531659141344CD1FD0A4F28419497F9722A3DAAFE3B4186F6B6457E0 PUSH1 0x40 MLOAD PUSH1 0x40 MLOAD DUP1 SWAP2 SUB SWAP1 LOG3 POP POP JUMP JUMPDEST PUSH1 0x0 PUSH20 0xFFFFFFFFFFFFFFFFFFFFFFFFFFFFFFFFFFFFFFFF AND DUP4 PUSH20 0xFFFFFFFFFFFFFFFFFFFFFFFFFFFFFFFFFFFFFFFF AND SUB PUSH2 0x1EB2 JUMPI PUSH1 0x40 MLOAD PUSH32 0x8C379A000000000000000000000000000000000000000000000000000000000 DUP2 MSTORE PUSH1 0x4 ADD PUSH2 0x1EA9 SWAP1 PUSH2 0x2B32 JUMP JUMPDEST PUSH1 0x40 MLOAD DUP1 SWAP2 SUB SWAP1 REVERT JUMPDEST PUSH1 0x0 PUSH20 0xFFFFFFFFFFFFFFFFFFFFFFFFFFFFFFFFFFFFFFFF AND DUP3 PUSH20 0xFFFFFFFFFFFFFFFFFFFFFFFFFFFFFFFFFFFFFFFF AND SUB PUSH2 0x1F21 JUMPI PUSH1 0x40 MLOAD PUSH32 0x8C379A000000000000000000000000000000000000000000000000000000000 DUP2 MSTORE PUSH1 0x4 ADD PUSH2 0x1F18 SWAP1 PUSH2 0x2BC4 JUMP JUMPDEST PUSH1 0x40 MLOAD DUP1 SWAP2 SUB SWAP1 REVERT JUMPDEST PUSH2 0x1F2C DUP4 DUP4 DUP4 PUSH2 0x20C0 JUMP JUMPDEST PUSH1 0x0 DUP1 PUSH1 0x0 DUP6 PUSH20 0xFFFFFFFFFFFFFFFFFFFFFFFFFFFFFFFFFFFFFFFF AND PUSH20 0xFFFFFFFFFFFFFFFFFFFFFFFFFFFFFFFFFFFFFFFF AND DUP2 MSTORE PUSH1 0x20 ADD SWAP1 DUP2 MSTORE PUSH1 0x20 ADD PUSH1 0x0 KECCAK256 SLOAD SWAP1 POP DUP2 DUP2 LT ISZERO PUSH2 0x1FB2 JUMPI PUSH1 0x40 MLOAD PUSH32 0x8C379A000000000000000000000000000000000000000000000000000000000 DUP2 MSTORE PUSH1 0x4 ADD PUSH2 0x1FA9 SWAP1 PUSH2 0x2C56 JUMP JUMPDEST PUSH1 0x40 MLOAD DUP1 SWAP2 SUB SWAP1 REVERT JUMPDEST DUP2 DUP2 PUSH2 0x1FBE SWAP2 SWAP1 PUSH2 0x278A JUMP JUMPDEST PUSH1 0x0 DUP1 DUP7 PUSH20 0xFFFFFFFFFFFFFFFFFFFFFFFFFFFFFFFFFFFFFFFF AND PUSH20 0xFFFFFFFFFFFFFFFFFFFFFFFFFFFFFFFFFFFFFFFF AND DUP2 MSTORE PUSH1 0x20 ADD SWAP1 DUP2 MSTORE PUSH1 0x20 ADD PUSH1 0x0 KECCAK256 DUP2 SWAP1 SSTORE POP DUP2 PUSH1 0x0 DUP1 DUP6 PUSH20 0xFFFFFFFFFFFFFFFFFFFFFFFFFFFFFFFFFFFFFFFF AND PUSH20 0xFFFFFFFFFFFFFFFFFFFFFFFFFFFFFFFFFFFFFFFF AND DUP2 MSTORE PUSH1 0x20 ADD SWAP1 DUP2 MSTORE PUSH1 0x20 ADD PUSH1 0x0 KECCAK256 PUSH1 0x0 DUP3 DUP3 SLOAD PUSH2 0x204E SWAP2 SWAP1 PUSH2 0x263C JUMP JUMPDEST SWAP3 POP POP DUP2 SWAP1 SSTORE POP DUP3 PUSH20 0xFFFFFFFFFFFFFFFFFFFFFFFFFFFFFFFFFFFFFFFF AND DUP5 PUSH20 0xFFFFFFFFFFFFFFFFFFFFFFFFFFFFFFFFFFFFFFFF AND PUSH32 0xDDF252AD1BE2C89B69C2B068FC378DAA952BA7F163C4A11628F55A4DF523B3EF DUP5 PUSH1 0x40 MLOAD PUSH2 0x20B2 SWAP2 SWAP1 PUSH2 0x229E JUMP JUMPDEST PUSH1 0x40 MLOAD DUP1 SWAP2 SUB SWAP1 LOG3 POP POP POP POP JUMP JUMPDEST POP POP POP JUMP JUMPDEST PUSH1 0x0 DUP2 MLOAD SWAP1 POP SWAP2 SWAP1 POP JUMP JUMPDEST PUSH1 0x0 DUP3 DUP3 MSTORE PUSH1 0x20 DUP3 ADD SWAP1 POP SWAP3 SWAP2 POP POP JUMP JUMPDEST PUSH1 0x0 JUMPDEST DUP4 DUP2 LT ISZERO PUSH2 0x20FF JUMPI DUP1 DUP3 ADD MLOAD DUP2 DUP5 ADD MSTORE PUSH1 0x20 DUP2 ADD SWAP1 POP PUSH2 0x20E4 JUMP JUMPDEST DUP4 DUP2 GT ISZERO PUSH2 0x210E JUMPI PUSH1 0x0 DUP5 DUP5 ADD MSTORE JUMPDEST POP POP POP POP JUMP JUMPDEST PUSH1 0x0 PUSH1 0x1F NOT PUSH1 0x1F DUP4 ADD AND SWAP1 POP SWAP2 SWAP1 POP JUMP JUMPDEST PUSH1 0x0 PUSH2 0x2130 DUP3 PUSH2 0x20C5 JUMP JUMPDEST PUSH2 0x213A DUP2 DUP6 PUSH2 0x20D0 JUMP JUMPDEST SWAP4 POP PUSH2 0x214A DUP2 DUP6 PUSH1 0x20 DUP7 ADD PUSH2 0x20E1 JUMP JUMPDEST PUSH2 0x2153 DUP2 PUSH2 0x2114 JUMP JUMPDEST DUP5 ADD SWAP2 POP POP SWAP3 SWAP2 POP POP JUMP JUMPDEST PUSH1 0x0 PUSH1 0x20 DUP3 ADD SWAP1 POP DUP2 DUP2 SUB PUSH1 0x0 DUP4 ADD MSTORE PUSH2 0x2178 DUP2 DUP5 PUSH2 0x2125 JUMP JUMPDEST SWAP1 POP SWAP3 SWAP2 POP POP JUMP JUMPDEST PUSH1 0x0 DUP1 REVERT JUMPDEST PUSH1 0x0 PUSH20 0xFFFFFFFFFFFFFFFFFFFFFFFFFFFFFFFFFFFFFFFF DUP3 AND SWAP1 POP SWAP2 SWAP1 POP JUMP JUMPDEST PUSH1 0x0 PUSH2 0x21B0 DUP3 PUSH2 0x2185 JUMP JUMPDEST SWAP1 POP SWAP2 SWAP1 POP JUMP JUMPDEST PUSH2 0x21C0 DUP2 PUSH2 0x21A5 JUMP JUMPDEST DUP2 EQ PUSH2 0x21CB JUMPI PUSH1 0x0 DUP1 REVERT JUMPDEST POP JUMP JUMPDEST PUSH1 0x0 DUP2 CALLDATALOAD SWAP1 POP PUSH2 0x21DD DUP2 PUSH2 0x21B7 JUMP JUMPDEST SWAP3 SWAP2 POP POP JUMP JUMPDEST PUSH1 0x0 DUP2 SWAP1 POP SWAP2 SWAP1 POP JUMP JUMPDEST PUSH2 0x21F6 DUP2 PUSH2 0x21E3 JUMP JUMPDEST DUP2 EQ PUSH2 0x2201 JUMPI PUSH1 0x0 DUP1 REVERT JUMPDEST POP JUMP JUMPDEST PUSH1 0x0 DUP2 CALLDATALOAD SWAP1 POP PUSH2 0x2213 DUP2 PUSH2 0x21ED JUMP JUMPDEST SWAP3 SWAP2 POP POP JUMP JUMPDEST PUSH1 0x0 DUP1 PUSH1 0x40 DUP4 DUP6 SUB SLT ISZERO PUSH2 0x2230 JUMPI PUSH2 0x222F PUSH2 0x2180 JUMP JUMPDEST JUMPDEST PUSH1 0x0 PUSH2 0x223E DUP6 DUP3 DUP7 ADD PUSH2 0x21CE JUMP JUMPDEST SWAP3 POP POP PUSH1 0x20 PUSH2 0x224F DUP6 DUP3 DUP7 ADD PUSH2 0x2204 JUMP JUMPDEST SWAP2 POP POP SWAP3 POP SWAP3 SWAP1 POP JUMP JUMPDEST PUSH1 0x0 DUP2 ISZERO ISZERO SWAP1 POP SWAP2 SWAP1 POP JUMP JUMPDEST PUSH2 0x226E DUP2 PUSH2 0x2259 JUMP JUMPDEST DUP3 MSTORE POP POP JUMP JUMPDEST PUSH1 0x0 PUSH1 0x20 DUP3 ADD SWAP1 POP PUSH2 0x2289 PUSH1 0x0 DUP4 ADD DUP5 PUSH2 0x2265 JUMP JUMPDEST SWAP3 SWAP2 POP POP JUMP JUMPDEST PUSH2 0x2298 DUP2 PUSH2 0x21E3 JUMP JUMPDEST DUP3 MSTORE POP POP JUMP JUMPDEST PUSH1 0x0 PUSH1 0x20 DUP3 ADD SWAP1 POP PUSH2 0x22B3 PUSH1 0x0 DUP4 ADD DUP5 PUSH2 0x228F JUMP JUMPDEST SWAP3 SWAP2 POP POP JUMP JUMPDEST PUSH1 0x0 DUP1 PUSH1 0x0 PUSH1 0x60 DUP5 DUP7 SUB SLT ISZERO PUSH2 0x22D2 JUMPI PUSH2 0x22D1 PUSH2 0x2180 JUMP JUMPDEST JUMPDEST PUSH1 0x0 PUSH2 0x22E0 DUP7 DUP3 DUP8 ADD PUSH2 0x21CE JUMP JUMPDEST SWAP4 POP POP PUSH1 0x20 PUSH2 0x22F1 DUP7 DUP3 DUP8 ADD PUSH2 0x21CE JUMP JUMPDEST SWAP3 POP POP PUSH1 0x40 PUSH2 0x2302 DUP7 DUP3 DUP8 ADD PUSH2 0x2204 JUMP JUMPDEST SWAP2 POP POP SWAP3 POP SWAP3 POP SWAP3 JUMP JUMPDEST PUSH1 0x0 PUSH1 0xFF DUP3 AND SWAP1 POP SWAP2 SWAP1 POP JUMP JUMPDEST PUSH2 0x2322 DUP2 PUSH2 0x230C JUMP JUMPDEST DUP3 MSTORE POP POP JUMP JUMPDEST PUSH1 0x0 PUSH1 0x20 DUP3 ADD SWAP1 POP PUSH2 0x233D PUSH1 0x0 DUP4 ADD DUP5 PUSH2 0x2319 JUMP JUMPDEST SWAP3 SWAP2 POP POP JUMP JUMPDEST PUSH1 0x0 PUSH1 0x20 DUP3 DUP5 SUB SLT ISZERO PUSH2 0x2359 JUMPI PUSH2 0x2358 PUSH2 0x2180 JUMP JUMPDEST JUMPDEST PUSH1 0x0 PUSH2 0x2367 DUP5 DUP3 DUP6 ADD PUSH2 0x21CE JUMP JUMPDEST SWAP2 POP POP SWAP3 SWAP2 POP POP JUMP JUMPDEST PUSH2 0x2379 DUP2 PUSH2 0x21A5 JUMP JUMPDEST DUP3 MSTORE POP POP JUMP JUMPDEST PUSH1 0x0 PUSH1 0x20 DUP3 ADD SWAP1 POP PUSH2 0x2394 PUSH1 0x0 DUP4 ADD DUP5 PUSH2 0x2370 JUMP JUMPDEST SWAP3 SWAP2 POP POP JUMP JUMPDEST PUSH1 0x0 PUSH1 0x20 DUP3 DUP5 SUB SLT ISZERO PUSH2 0x23B0 JUMPI PUSH2 0x23AF PUSH2 0x2180 JUMP JUMPDEST JUMPDEST PUSH1 0x0 PUSH2 0x23BE DUP5 DUP3 DUP6 ADD PUSH2 0x2204 JUMP JUMPDEST SWAP2 POP POP SWAP3 SWAP2 POP POP JUMP JUMPDEST PUSH2 0x23D0 DUP2 PUSH2 0x230C JUMP JUMPDEST DUP2 EQ PUSH2 0x23DB JUMPI PUSH1 0x0 DUP1 REVERT JUMPDEST POP JUMP JUMPDEST PUSH1 0x0 DUP2 CALLDATALOAD SWAP1 POP PUSH2 0x23ED DUP2 PUSH2 0x23C7 JUMP JUMPDEST SWAP3 SWAP2 POP POP JUMP JUMPDEST PUSH1 0x0 DUP1 PUSH1 0x40 DUP4 DUP6 SUB SLT ISZERO PUSH2 0x240A JUMPI PUSH2 0x2409 PUSH2 0x2180 JUMP JUMPDEST JUMPDEST PUSH1 0x0 PUSH2 0x2418 DUP6 DUP3 DUP7 ADD PUSH2 0x21CE JUMP JUMPDEST SWAP3 POP POP PUSH1 0x20 PUSH2 0x2429 DUP6 DUP3 DUP7 ADD PUSH2 0x23DE JUMP JUMPDEST SWAP2 POP POP SWAP3 POP SWAP3 SWAP1 POP JUMP JUMPDEST PUSH1 0x0 DUP1 PUSH1 0x40 DUP4 DUP6 SUB SLT ISZERO PUSH2 0x244A JUMPI PUSH2 0x2449 PUSH2 0x2180 JUMP JUMPDEST JUMPDEST PUSH1 0x0 PUSH2 0x2458 DUP6 DUP3 DUP7 ADD PUSH2 0x21CE JUMP JUMPDEST SWAP3 POP POP PUSH1 0x20 PUSH2 0x2469 DUP6 DUP3 DUP7 ADD PUSH2 0x21CE JUMP JUMPDEST SWAP2 POP POP SWAP3 POP SWAP3 SWAP1 POP JUMP JUMPDEST PUSH1 0x0 PUSH2 0x247E DUP3 PUSH2 0x2185 JUMP JUMPDEST SWAP1 POP SWAP2 SWAP1 POP JUMP JUMPDEST PUSH2 0x248E DUP2 PUSH2 0x2473 JUMP JUMPDEST DUP3 MSTORE POP POP JUMP JUMPDEST PUSH1 0x0 PUSH1 0x20 DUP3 ADD SWAP1 POP PUSH2 0x24A9 PUSH1 0x0 DUP4 ADD DUP5 PUSH2 0x2485 JUMP JUMPDEST SWAP3 SWAP2 POP POP JUMP JUMPDEST PUSH32 0x4E487B7100000000000000000000000000000000000000000000000000000000 PUSH1 0x0 MSTORE PUSH1 0x22 PUSH1 0x4 MSTORE PUSH1 0x24 PUSH1 0x0 REVERT JUMPDEST PUSH1 0x0 PUSH1 0x2 DUP3 DIV SWAP1 POP PUSH1 0x1 DUP3 AND DUP1 PUSH2 0x24F6 JUMPI PUSH1 0x7F DUP3 AND SWAP2 POP JUMPDEST PUSH1 0x20 DUP3 LT DUP2 SUB PUSH2 0x2509 JUMPI PUSH2 0x2508 PUSH2 0x24AF JUMP JUMPDEST JUMPDEST POP SWAP2 SWAP1 POP JUMP JUMPDEST PUSH32 0x4F776E61626C653A2063616C6C6572206973206E6F7420746865206F776E6572 PUSH1 0x0 DUP3 ADD MSTORE POP JUMP JUMPDEST PUSH1 0x0 PUSH2 0x2545 PUSH1 0x20 DUP4 PUSH2 0x20D0 JUMP JUMPDEST SWAP2 POP PUSH2 0x2550 DUP3 PUSH2 0x250F JUMP JUMPDEST PUSH1 0x20 DUP3 ADD SWAP1 POP SWAP2 SWAP1 POP JUMP JUMPDEST PUSH1 0x0 PUSH1 0x20 DUP3 ADD SWAP1 POP DUP2 DUP2 SUB PUSH1 0x0 DUP4 ADD MSTORE PUSH2 0x2574 DUP2 PUSH2 0x2538 JUMP JUMPDEST SWAP1 POP SWAP2 SWAP1 POP JUMP JUMPDEST PUSH32 0x6163636F756E74206973206E6F74206120726567756C6172207368617265686F PUSH1 0x0 DUP3 ADD MSTORE PUSH32 0x6C64657200000000000000000000000000000000000000000000000000000000 PUSH1 0x20 DUP3 ADD MSTORE POP JUMP JUMPDEST PUSH1 0x0 PUSH2 0x25D7 PUSH1 0x24 DUP4 PUSH2 0x20D0 JUMP JUMPDEST SWAP2 POP PUSH2 0x25E2 DUP3 PUSH2 0x257B JUMP JUMPDEST PUSH1 0x40 DUP3 ADD SWAP1 POP SWAP2 SWAP1 POP JUMP JUMPDEST PUSH1 0x0 PUSH1 0x20 DUP3 ADD SWAP1 POP DUP2 DUP2 SUB PUSH1 0x0 DUP4 ADD MSTORE PUSH2 0x2606 DUP2 PUSH2 0x25CA JUMP JUMPDEST SWAP1 POP SWAP2 SWAP1 POP JUMP JUMPDEST PUSH32 0x4E487B7100000000000000000000000000000000000000000000000000000000 PUSH1 0x0 MSTORE PUSH1 0x11 PUSH1 0x4 MSTORE PUSH1 0x24 PUSH1 0x0 REVERT JUMPDEST PUSH1 0x0 PUSH2 0x2647 DUP3 PUSH2 0x21E3 JUMP JUMPDEST SWAP2 POP PUSH2 0x2652 DUP4 PUSH2 0x21E3 JUMP JUMPDEST SWAP3 POP DUP3 PUSH32 0xFFFFFFFFFFFFFFFFFFFFFFFFFFFFFFFFFFFFFFFFFFFFFFFFFFFFFFFFFFFFFFFF SUB DUP3 GT ISZERO PUSH2 0x2687 JUMPI PUSH2 0x2686 PUSH2 0x260D JUMP JUMPDEST JUMPDEST DUP3 DUP3 ADD SWAP1 POP SWAP3 SWAP2 POP POP JUMP JUMPDEST PUSH32 0x4E487B7100000000000000000000000000000000000000000000000000000000 PUSH1 0x0 MSTORE PUSH1 0x32 PUSH1 0x4 MSTORE PUSH1 0x24 PUSH1 0x0 REVERT JUMPDEST PUSH1 0x0 PUSH2 0x26CC DUP3 PUSH2 0x230C JUMP JUMPDEST SWAP2 POP PUSH1 0xFF DUP3 SUB PUSH2 0x26DF JUMPI PUSH2 0x26DE PUSH2 0x260D JUMP JUMPDEST JUMPDEST PUSH1 0x1 DUP3 ADD SWAP1 POP SWAP2 SWAP1 POP JUMP JUMPDEST PUSH32 0x6163636F756E74206973206120726567756C6172207368617265686F6C646572 PUSH1 0x0 DUP3 ADD MSTORE POP JUMP JUMPDEST PUSH1 0x0 PUSH2 0x2720 PUSH1 0x20 DUP4 PUSH2 0x20D0 JUMP JUMPDEST SWAP2 POP PUSH2 0x272B DUP3 PUSH2 0x26EA JUMP JUMPDEST PUSH1 0x20 DUP3 ADD SWAP1 POP SWAP2 SWAP1 POP JUMP JUMPDEST PUSH1 0x0 PUSH1 0x20 DUP3 ADD SWAP1 POP DUP2 DUP2 SUB PUSH1 0x0 DUP4 ADD MSTORE PUSH2 0x274F DUP2 PUSH2 0x2713 JUMP JUMPDEST SWAP1 POP SWAP2 SWAP1 POP JUMP JUMPDEST PUSH1 0x0 PUSH2 0x2761 DUP3 PUSH2 0x230C JUMP JUMPDEST SWAP2 POP PUSH2 0x276C DUP4 PUSH2 0x230C JUMP JUMPDEST SWAP3 POP DUP3 DUP3 LT ISZERO PUSH2 0x277F JUMPI PUSH2 0x277E PUSH2 0x260D JUMP JUMPDEST JUMPDEST DUP3 DUP3 SUB SWAP1 POP SWAP3 SWAP2 POP POP JUMP JUMPDEST PUSH1 0x0 PUSH2 0x2795 DUP3 PUSH2 0x21E3 JUMP JUMPDEST SWAP2 POP PUSH2 0x27A0 DUP4 PUSH2 0x21E3 JUMP JUMPDEST SWAP3 POP DUP3 DUP3 LT ISZERO PUSH2 0x27B3 JUMPI PUSH2 0x27B2 PUSH2 0x260D JUMP JUMPDEST JUMPDEST DUP3 DUP3 SUB SWAP1 POP SWAP3 SWAP2 POP POP JUMP JUMPDEST PUSH32 0x45524332303A2064656372656173656420616C6C6F77616E63652062656C6F77 PUSH1 0x0 DUP3 ADD MSTORE PUSH32 0x207A65726F000000000000000000000000000000000000000000000000000000 PUSH1 0x20 DUP3 ADD MSTORE POP JUMP JUMPDEST PUSH1 0x0 PUSH2 0x281A PUSH1 0x25 DUP4 PUSH2 0x20D0 JUMP JUMPDEST SWAP2 POP PUSH2 0x2825 DUP3 PUSH2 0x27BE JUMP JUMPDEST PUSH1 0x40 DUP3 ADD SWAP1 POP SWAP2 SWAP1 POP JUMP JUMPDEST PUSH1 0x0 PUSH1 0x20 DUP3 ADD SWAP1 POP DUP2 DUP2 SUB PUSH1 0x0 DUP4 ADD MSTORE PUSH2 0x2849 DUP2 PUSH2 0x280D JUMP JUMPDEST SWAP1 POP SWAP2 SWAP1 POP JUMP JUMPDEST PUSH32 0x4F776E61626C653A206E6577206F776E657220697320746865207A65726F2061 PUSH1 0x0 DUP3 ADD MSTORE PUSH32 0x6464726573730000000000000000000000000000000000000000000000000000 PUSH1 0x20 DUP3 ADD MSTORE POP JUMP JUMPDEST PUSH1 0x0 PUSH2 0x28AC PUSH1 0x26 DUP4 PUSH2 0x20D0 JUMP JUMPDEST SWAP2 POP PUSH2 0x28B7 DUP3 PUSH2 0x2850 JUMP JUMPDEST PUSH1 0x40 DUP3 ADD SWAP1 POP SWAP2 SWAP1 POP JUMP JUMPDEST PUSH1 0x0 PUSH1 0x20 DUP3 ADD SWAP1 POP DUP2 DUP2 SUB PUSH1 0x0 DUP4 ADD MSTORE PUSH2 0x28DB DUP2 PUSH2 0x289F JUMP JUMPDEST SWAP1 POP SWAP2 SWAP1 POP JUMP JUMPDEST PUSH32 0x45524332303A20617070726F76652066726F6D20746865207A65726F20616464 PUSH1 0x0 DUP3 ADD MSTORE PUSH32 0x7265737300000000000000000000000000000000000000000000000000000000 PUSH1 0x20 DUP3 ADD MSTORE POP JUMP JUMPDEST PUSH1 0x0 PUSH2 0x293E PUSH1 0x24 DUP4 PUSH2 0x20D0 JUMP JUMPDEST SWAP2 POP PUSH2 0x2949 DUP3 PUSH2 0x28E2 JUMP JUMPDEST PUSH1 0x40 DUP3 ADD SWAP1 POP SWAP2 SWAP1 POP JUMP JUMPDEST PUSH1 0x0 PUSH1 0x20 DUP3 ADD SWAP1 POP DUP2 DUP2 SUB PUSH1 0x0 DUP4 ADD MSTORE PUSH2 0x296D DUP2 PUSH2 0x2931 JUMP JUMPDEST SWAP1 POP SWAP2 SWAP1 POP JUMP JUMPDEST PUSH32 0x45524332303A20617070726F766520746F20746865207A65726F206164647265 PUSH1 0x0 DUP3 ADD MSTORE PUSH32 0x7373000000000000000000000000000000000000000000000000000000000000 PUSH1 0x20 DUP3 ADD MSTORE POP JUMP JUMPDEST PUSH1 0x0 PUSH2 0x29D0 PUSH1 0x22 DUP4 PUSH2 0x20D0 JUMP JUMPDEST SWAP2 POP PUSH2 0x29DB DUP3 PUSH2 0x2974 JUMP JUMPDEST PUSH1 0x40 DUP3 ADD SWAP1 POP SWAP2 SWAP1 POP JUMP JUMPDEST PUSH1 0x0 PUSH1 0x20 DUP3 ADD SWAP1 POP DUP2 DUP2 SUB PUSH1 0x0 DUP4 ADD MSTORE PUSH2 0x29FF DUP2 PUSH2 0x29C3 JUMP JUMPDEST SWAP1 POP SWAP2 SWAP1 POP JUMP JUMPDEST PUSH32 0x4E487B7100000000000000000000000000000000000000000000000000000000 PUSH1 0x0 MSTORE PUSH1 0x12 PUSH1 0x4 MSTORE PUSH1 0x24 PUSH1 0x0 REVERT JUMPDEST PUSH1 0x0 PUSH2 0x2A40 DUP3 PUSH2 0x21E3 JUMP JUMPDEST SWAP2 POP PUSH2 0x2A4B DUP4 PUSH2 0x21E3 JUMP JUMPDEST SWAP3 POP DUP3 PUSH2 0x2A5B JUMPI PUSH2 0x2A5A PUSH2 0x2A06 JUMP JUMPDEST JUMPDEST DUP3 DUP3 DIV SWAP1 POP SWAP3 SWAP2 POP POP JUMP JUMPDEST PUSH1 0x0 PUSH2 0x2A71 DUP3 PUSH2 0x21E3 JUMP JUMPDEST SWAP2 POP PUSH2 0x2A7C DUP4 PUSH2 0x21E3 JUMP JUMPDEST SWAP3 POP DUP2 PUSH32 0xFFFFFFFFFFFFFFFFFFFFFFFFFFFFFFFFFFFFFFFFFFFFFFFFFFFFFFFFFFFFFFFF DIV DUP4 GT DUP3 ISZERO ISZERO AND ISZERO PUSH2 0x2AB5 JUMPI PUSH2 0x2AB4 PUSH2 0x260D JUMP JUMPDEST JUMPDEST DUP3 DUP3 MUL SWAP1 POP SWAP3 SWAP2 POP POP JUMP JUMPDEST PUSH32 0x45524332303A207472616E736665722066726F6D20746865207A65726F206164 PUSH1 0x0 DUP3 ADD MSTORE PUSH32 0x6472657373000000000000000000000000000000000000000000000000000000 PUSH1 0x20 DUP3 ADD MSTORE POP JUMP JUMPDEST PUSH1 0x0 PUSH2 0x2B1C PUSH1 0x25 DUP4 PUSH2 0x20D0 JUMP JUMPDEST SWAP2 POP PUSH2 0x2B27 DUP3 PUSH2 0x2AC0 JUMP JUMPDEST PUSH1 0x40 DUP3 ADD SWAP1 POP SWAP2 SWAP1 POP JUMP JUMPDEST PUSH1 0x0 PUSH1 0x20 DUP3 ADD SWAP1 POP DUP2 DUP2 SUB PUSH1 0x0 DUP4 ADD MSTORE PUSH2 0x2B4B DUP2 PUSH2 0x2B0F JUMP JUMPDEST SWAP1 POP SWAP2 SWAP1 POP JUMP JUMPDEST PUSH32 0x45524332303A207472616E7366657220746F20746865207A65726F2061646472 PUSH1 0x0 DUP3 ADD MSTORE PUSH32 0x6573730000000000000000000000000000000000000000000000000000000000 PUSH1 0x20 DUP3 ADD MSTORE POP JUMP JUMPDEST PUSH1 0x0 PUSH2 0x2BAE PUSH1 0x23 DUP4 PUSH2 0x20D0 JUMP JUMPDEST SWAP2 POP PUSH2 0x2BB9 DUP3 PUSH2 0x2B52 JUMP JUMPDEST PUSH1 0x40 DUP3 ADD SWAP1 POP SWAP2 SWAP1 POP JUMP JUMPDEST PUSH1 0x0 PUSH1 0x20 DUP3 ADD SWAP1 POP DUP2 DUP2 SUB PUSH1 0x0 DUP4 ADD MSTORE PUSH2 0x2BDD DUP2 PUSH2 0x2BA1 JUMP JUMPDEST SWAP1 POP SWAP2 SWAP1 POP JUMP JUMPDEST PUSH32 0x45524332303A207472616E7366657220616D6F756E7420657863656564732062 PUSH1 0x0 DUP3 ADD MSTORE PUSH32 0x616C616E63650000000000000000000000000000000000000000000000000000 PUSH1 0x20 DUP3 ADD MSTORE POP JUMP JUMPDEST PUSH1 0x0 PUSH2 0x2C40 PUSH1 0x26 DUP4 PUSH2 0x20D0 JUMP JUMPDEST SWAP2 POP PUSH2 0x2C4B DUP3 PUSH2 0x2BE4 JUMP JUMPDEST PUSH1 0x40 DUP3 ADD SWAP1 POP SWAP2 SWAP1 POP JUMP JUMPDEST PUSH1 0x0 PUSH1 0x20 DUP3 ADD SWAP1 POP DUP2 DUP2 SUB PUSH1 0x0 DUP4 ADD MSTORE PUSH2 0x2C6F DUP2 PUSH2 0x2C33 JUMP JUMPDEST SWAP1 POP SWAP2 SWAP1 POP JUMP INVALID LOG2 PUSH5 0x6970667358 0x22 SLT KECCAK256 EXTCODECOPY 0xD6 MOD SDIV 0xED MSTORE8 SWAP2 0xEE PUSH20 0xB03DF18B6DF1952C2766C508BDE34ED64F8E17CC 0xB9 0xC9 0xE5 PUSH5 0x736F6C6343 STOP ADDMOD 0xD STOP CALLER "
				},
				"gasEstimates": {
					"creation": {
						"codeDepositCost": "2287200",
						"executionCost": "infinite",
						"totalCost": "infinite"
					},
					"external": {
						"BC(address)": "2903",
						"allowance(address,address)": "infinite",
						"approve(address,uint256)": "infinite",
						"balanceOf(address)": "infinite",
						"changeLvl(address,uint8)": "infinite",
						"currentBC(uint256)": "infinite",
						"decimals()": "388",
						"decreaseAllowance(address,uint256)": "infinite",
						"fund_wallet()": "2646",
						"increaseAllowance(address,uint256)": "infinite",
						"lvl(address)": "2868",
						"mint(uint256)": "infinite",
						"mintToNRS(address,uint256)": "infinite",
						"mintToRS(address,uint256)": "infinite",
						"name()": "infinite",
						"owner()": "2567",
						"renounceOwnership()": "30507",
						"symbol()": "infinite",
						"totalSupply()": "2549",
						"transfer(address,uint256)": "infinite",
						"transferFrom(address,address,uint256)": "infinite",
						"transferOwnership(address)": "30830"
					},
					"internal": {
						"relaxBalance(address)": "infinite"
					}
				},
				"methodIdentifiers": {
					"BC(address)": "670d5a8f",
					"allowance(address,address)": "dd62ed3e",
					"approve(address,uint256)": "095ea7b3",
					"balanceOf(address)": "70a08231",
					"changeLvl(address,uint8)": "a33e7d7e",
					"currentBC(uint256)": "ab645851",
					"decimals()": "313ce567",
					"decreaseAllowance(address,uint256)": "a457c2d7",
					"fund_wallet()": "f8e233b1",
					"increaseAllowance(address,uint256)": "39509351",
					"lvl(address)": "7a0d944c",
					"mint(uint256)": "a0712d68",
					"mintToNRS(address,uint256)": "1506f480",
					"mintToRS(address,uint256)": "13b954a3",
					"name()": "06fdde03",
					"owner()": "8da5cb5b",
					"renounceOwnership()": "715018a6",
					"symbol()": "95d89b41",
					"totalSupply()": "18160ddd",
					"transfer(address,uint256)": "a9059cbb",
					"transferFrom(address,address,uint256)": "23b872dd",
					"transferOwnership(address)": "f2fde38b"
				}
			},
			"userdoc": {
				"kind": "user",
				"methods": {},
				"version": 1
			}
		}
	}
}