{
	"contracts/Distribution/AtlantisDistribution.sol": {
		"AtlantisDistribution": {
			"abi": [
				{
					"inputs": [
						{
							"internalType": "string",
							"name": "name",
							"type": "string"
						},
						{
							"internalType": "string",
							"name": "symbol",
							"type": "string"
						},
						{
							"internalType": "address payable",
							"name": "_fund_wallet",
							"type": "address"
						}
					],
					"stateMutability": "nonpayable",
					"type": "constructor"
				},
				{
					"anonymous": false,
					"inputs": [
						{
							"indexed": true,
							"internalType": "address",
							"name": "owner",
							"type": "address"
						},
						{
							"indexed": true,
							"internalType": "address",
							"name": "spender",
							"type": "address"
						},
						{
							"indexed": false,
							"internalType": "uint256",
							"name": "value",
							"type": "uint256"
						}
					],
					"name": "Approval",
					"type": "event"
				},
				{
					"anonymous": false,
					"inputs": [
						{
							"indexed": true,
							"internalType": "address",
							"name": "previousOwner",
							"type": "address"
						},
						{
							"indexed": true,
							"internalType": "address",
							"name": "newOwner",
							"type": "address"
						}
					],
					"name": "OwnershipTransferred",
					"type": "event"
				},
				{
					"anonymous": false,
					"inputs": [
						{
							"indexed": true,
							"internalType": "address",
							"name": "from",
							"type": "address"
						},
						{
							"indexed": true,
							"internalType": "address",
							"name": "to",
							"type": "address"
						},
						{
							"indexed": false,
							"internalType": "uint256",
							"name": "value",
							"type": "uint256"
						}
					],
					"name": "Transfer",
					"type": "event"
				},
				{
					"inputs": [
						{
							"internalType": "address",
							"name": "owner",
							"type": "address"
						},
						{
							"internalType": "address",
							"name": "spender",
							"type": "address"
						}
					],
					"name": "allowance",
					"outputs": [
						{
							"internalType": "uint256",
							"name": "",
							"type": "uint256"
						}
					],
					"stateMutability": "view",
					"type": "function"
				},
				{
					"inputs": [
						{
							"internalType": "address",
							"name": "spender",
							"type": "address"
						},
						{
							"internalType": "uint256",
							"name": "amount",
							"type": "uint256"
						}
					],
					"name": "approve",
					"outputs": [
						{
							"internalType": "bool",
							"name": "",
							"type": "bool"
						}
					],
					"stateMutability": "nonpayable",
					"type": "function"
				},
				{
					"inputs": [
						{
							"internalType": "address",
							"name": "account",
							"type": "address"
						}
					],
					"name": "balanceOf",
					"outputs": [
						{
							"internalType": "uint256",
							"name": "",
							"type": "uint256"
						}
					],
					"stateMutability": "view",
					"type": "function"
				},
				{
					"inputs": [
						{
							"internalType": "address",
							"name": "account",
							"type": "address"
						},
						{
							"internalType": "uint8",
							"name": "newLvl",
							"type": "uint8"
						}
					],
					"name": "changeLvl",
					"outputs": [],
					"stateMutability": "nonpayable",
					"type": "function"
				},
				{
					"inputs": [],
					"name": "decimals",
					"outputs": [
						{
							"internalType": "uint8",
							"name": "",
							"type": "uint8"
						}
					],
					"stateMutability": "view",
					"type": "function"
				},
				{
					"inputs": [
						{
							"internalType": "address",
							"name": "spender",
							"type": "address"
						},
						{
							"internalType": "uint256",
							"name": "subtractedValue",
							"type": "uint256"
						}
					],
					"name": "decreaseAllowance",
					"outputs": [
						{
							"internalType": "bool",
							"name": "",
							"type": "bool"
						}
					],
					"stateMutability": "nonpayable",
					"type": "function"
				},
				{
					"inputs": [],
					"name": "fund_wallet",
					"outputs": [
						{
							"internalType": "address payable",
							"name": "",
							"type": "address"
						}
					],
					"stateMutability": "view",
					"type": "function"
				},
				{
					"inputs": [
						{
							"internalType": "address",
							"name": "spender",
							"type": "address"
						},
						{
							"internalType": "uint256",
							"name": "addedValue",
							"type": "uint256"
						}
					],
					"name": "increaseAllowance",
					"outputs": [
						{
							"internalType": "bool",
							"name": "",
							"type": "bool"
						}
					],
					"stateMutability": "nonpayable",
					"type": "function"
				},
				{
					"inputs": [
						{
							"internalType": "address",
							"name": "",
							"type": "address"
						}
					],
					"name": "lvl",
					"outputs": [
						{
							"internalType": "uint8",
							"name": "",
							"type": "uint8"
						}
					],
					"stateMutability": "view",
					"type": "function"
				},
				{
					"inputs": [
						{
							"internalType": "uint256",
							"name": "amount",
							"type": "uint256"
						}
					],
					"name": "mint",
					"outputs": [],
					"stateMutability": "nonpayable",
					"type": "function"
				},
				{
					"inputs": [
						{
							"internalType": "address",
							"name": "account",
							"type": "address"
						},
						{
							"internalType": "uint256",
							"name": "amount",
							"type": "uint256"
						}
					],
					"name": "mintToNRS",
					"outputs": [],
					"stateMutability": "nonpayable",
					"type": "function"
				},
				{
					"inputs": [
						{
							"internalType": "address",
							"name": "account",
							"type": "address"
						},
						{
							"internalType": "uint256",
							"name": "amount",
							"type": "uint256"
						}
					],
					"name": "mintToRS",
					"outputs": [],
					"stateMutability": "nonpayable",
					"type": "function"
				},
				{
					"inputs": [],
					"name": "name",
					"outputs": [
						{
							"internalType": "string",
							"name": "",
							"type": "string"
						}
					],
					"stateMutability": "view",
					"type": "function"
				},
				{
					"inputs": [],
					"name": "owner",
					"outputs": [
						{
							"internalType": "address",
							"name": "",
							"type": "address"
						}
					],
					"stateMutability": "view",
					"type": "function"
				},
				{
					"inputs": [],
					"name": "renounceOwnership",
					"outputs": [],
					"stateMutability": "nonpayable",
					"type": "function"
				},
				{
					"inputs": [],
					"name": "symbol",
					"outputs": [
						{
							"internalType": "string",
							"name": "",
							"type": "string"
						}
					],
					"stateMutability": "view",
					"type": "function"
				},
				{
					"inputs": [],
					"name": "totalSupply",
					"outputs": [
						{
							"internalType": "uint256",
							"name": "",
							"type": "uint256"
						}
					],
					"stateMutability": "view",
					"type": "function"
				},
				{
					"inputs": [
						{
							"internalType": "address",
							"name": "recipient",
							"type": "address"
						},
						{
							"internalType": "uint256",
							"name": "amount",
							"type": "uint256"
						}
					],
					"name": "transfer",
					"outputs": [
						{
							"internalType": "bool",
							"name": "",
							"type": "bool"
						}
					],
					"stateMutability": "nonpayable",
					"type": "function"
				},
				{
					"inputs": [
						{
							"internalType": "address",
							"name": "sender",
							"type": "address"
						},
						{
							"internalType": "address",
							"name": "recipient",
							"type": "address"
						},
						{
							"internalType": "uint256",
							"name": "amount",
							"type": "uint256"
						}
					],
					"name": "transferFrom",
					"outputs": [
						{
							"internalType": "bool",
							"name": "",
							"type": "bool"
						}
					],
					"stateMutability": "nonpayable",
					"type": "function"
				},
				{
					"inputs": [
						{
							"internalType": "address",
							"name": "newOwner",
							"type": "address"
						}
					],
					"name": "transferOwnership",
					"outputs": [],
					"stateMutability": "nonpayable",
					"type": "function"
				}
			],
			"devdoc": {
				"kind": "dev",
				"methods": {
					"allowance(address,address)": {
						"details": "See {IERC20-allowance}."
					},
					"approve(address,uint256)": {
						"details": "See {IERC20-approve}. Requirements: - `spender` cannot be the zero address."
					},
					"balanceOf(address)": {
						"details": "See {IERC20-balanceOf}."
					},
					"decimals()": {
						"details": "Returns the number of decimals used to get its user representation. For example, if `decimals` equals `2`, a balance of `505` tokens should be displayed to a user as `5,05` (`505 / 10 ** 2`). Tokens usually opt for a value of 18, imitating the relationship between Ether and Wei. This is the value {ERC20} uses, unless this function is overloaded; NOTE: This information is only used for _display_ purposes: it in no way affects any of the arithmetic of the contract, including {IERC20-balanceOf} and {IERC20-transfer}."
					},
					"decreaseAllowance(address,uint256)": {
						"details": "Atomically decreases the allowance granted to `spender` by the caller. This is an alternative to {approve} that can be used as a mitigation for problems described in {IERC20-approve}. Emits an {Approval} event indicating the updated allowance. Requirements: - `spender` cannot be the zero address. - `spender` must have allowance for the caller of at least `subtractedValue`."
					},
					"increaseAllowance(address,uint256)": {
						"details": "Atomically increases the allowance granted to `spender` by the caller. This is an alternative to {approve} that can be used as a mitigation for problems described in {IERC20-approve}. Emits an {Approval} event indicating the updated allowance. Requirements: - `spender` cannot be the zero address."
					},
					"name()": {
						"details": "Returns the name of the token."
					},
					"owner()": {
						"details": "Returns the address of the current owner."
					},
					"renounceOwnership()": {
						"details": "Leaves the contract without owner. It will not be possible to call `onlyOwner` functions anymore. Can only be called by the current owner. NOTE: Renouncing ownership will leave the contract without an owner, thereby removing any functionality that is only available to the owner."
					},
					"symbol()": {
						"details": "Returns the symbol of the token, usually a shorter version of the name."
					},
					"totalSupply()": {
						"details": "See {IERC20-totalSupply}."
					},
					"transfer(address,uint256)": {
						"details": "See {IERC20-transfer}. Requirements: - `recipient` cannot be the zero address. - the caller must have a balance of at least `amount`."
					},
					"transferFrom(address,address,uint256)": {
						"details": "See {IERC20-transferFrom}. Emits an {Approval} event indicating the updated allowance. This is not required by the EIP. See the note at the beginning of {ERC20}. Requirements: - `sender` and `recipient` cannot be the zero address. - `sender` must have a balance of at least `amount`. - the caller must have allowance for ``sender``'s tokens of at least `amount`."
					},
					"transferOwnership(address)": {
						"details": "Transfers ownership of the contract to a new account (`newOwner`). Can only be called by the current owner."
					}
				},
				"version": 1
			},
			"evm": {
				"assembly": "    /* \"contracts/Distribution/AtlantisDistribution.sol\":206:4327  contract AtlantisDistribution is ERC20, Ownable {... */\n  mstore(0x40, 0x80)\n    /* \"contracts/Distribution/AtlantisDistribution.sol\":886:1326  constructor(string memory name, string memory symbol, address payable _fund_wallet) ERC20(name, symbol) {... */\n  callvalue\n  dup1\n  iszero\n  tag_1\n  jumpi\n  0x00\n  dup1\n  revert\ntag_1:\n  pop\n  mload(0x40)\n  sub(codesize, bytecodeSize)\n  dup1\n  bytecodeSize\n  dup4\n  codecopy\n  dup2\n  dup2\n  add\n  0x40\n  mstore\n  dup2\n  add\n  swap1\n  tag_2\n  swap2\n  swap1\n  tag_3\n  jump\t// in\ntag_2:\n    /* \"contracts/Distribution/AtlantisDistribution.sol\":976:980  name */\n  dup3\n    /* \"contracts/Distribution/AtlantisDistribution.sol\":982:988  symbol */\n  dup3\n    /* \"contracts/Distribution/WrappedERC20Token.sol\":1953:1958  name_ */\n  dup2\n    /* \"contracts/Distribution/WrappedERC20Token.sol\":1945:1950  _name */\n  0x03\n    /* \"contracts/Distribution/WrappedERC20Token.sol\":1945:1958  _name = name_ */\n  swap1\n  dup1\n  mload\n  swap1\n  0x20\n  add\n  swap1\n  tag_8\n  swap3\n  swap2\n  swap1\n  tag_9\n  jump\t// in\ntag_8:\n  pop\n    /* \"contracts/Distribution/WrappedERC20Token.sol\":1978:1985  symbol_ */\n  dup1\n    /* \"contracts/Distribution/WrappedERC20Token.sol\":1968:1975  _symbol */\n  0x04\n    /* \"contracts/Distribution/WrappedERC20Token.sol\":1968:1985  _symbol = symbol_ */\n  swap1\n  dup1\n  mload\n  swap1\n  0x20\n  add\n  swap1\n  tag_10\n  swap3\n  swap2\n  swap1\n  tag_9\n  jump\t// in\ntag_10:\n  pop\n    /* \"contracts/Distribution/WrappedERC20Token.sol\":1878:1992  constructor (string memory name_, string memory symbol_) {... */\n  pop\n  pop\n    /* \"@openzeppelin/contracts/access/Ownable.sol\":867:890  _setOwner(_msgSender()) */\n  tag_12\n    /* \"@openzeppelin/contracts/access/Ownable.sol\":877:889  _msgSender() */\n  tag_13\n    /* \"@openzeppelin/contracts/access/Ownable.sol\":877:887  _msgSender */\n  shl(0x20, tag_14)\n    /* \"@openzeppelin/contracts/access/Ownable.sol\":877:889  _msgSender() */\n  0x20\n  shr\n  jump\t// in\ntag_13:\n    /* \"@openzeppelin/contracts/access/Ownable.sol\":867:876  _setOwner */\n  shl(0x20, tag_15)\n    /* \"@openzeppelin/contracts/access/Ownable.sol\":867:890  _setOwner(_msgSender()) */\n  0x20\n  shr\n  jump\t// in\ntag_12:\n    /* \"contracts/Distribution/AtlantisDistribution.sol\":1000:1051  _mint(msg.sender, 300000000 * 10**uint(decimals())) */\n  tag_17\n    /* \"contracts/Distribution/AtlantisDistribution.sol\":1006:1016  msg.sender */\n  caller\n    /* \"contracts/Distribution/AtlantisDistribution.sol\":1039:1049  decimals() */\n  tag_18\n    /* \"contracts/Distribution/AtlantisDistribution.sol\":1039:1047  decimals */\n  shl(0x20, tag_19)\n    /* \"contracts/Distribution/AtlantisDistribution.sol\":1039:1049  decimals() */\n  0x20\n  shr\n  jump\t// in\ntag_18:\n    /* \"contracts/Distribution/AtlantisDistribution.sol\":1034:1050  uint(decimals()) */\n  0xff\n  and\n    /* \"contracts/Distribution/AtlantisDistribution.sol\":1030:1032  10 */\n  0x0a\n    /* \"contracts/Distribution/AtlantisDistribution.sol\":1030:1050  10**uint(decimals()) */\n  tag_20\n  swap2\n  swap1\n  tag_21\n  jump\t// in\ntag_20:\n    /* \"contracts/Distribution/AtlantisDistribution.sol\":1018:1027  300000000 */\n  0x11e1a300\n    /* \"contracts/Distribution/AtlantisDistribution.sol\":1018:1050  300000000 * 10**uint(decimals()) */\n  tag_22\n  swap2\n  swap1\n  tag_23\n  jump\t// in\ntag_22:\n    /* \"contracts/Distribution/AtlantisDistribution.sol\":1000:1005  _mint */\n  shl(0x20, tag_24)\n    /* \"contracts/Distribution/AtlantisDistribution.sol\":1000:1051  _mint(msg.sender, 300000000 * 10**uint(decimals())) */\n  0x20\n  shr\n  jump\t// in\ntag_17:\n    /* \"contracts/Distribution/AtlantisDistribution.sol\":1085:1095  decimals() */\n  tag_25\n    /* \"contracts/Distribution/AtlantisDistribution.sol\":1085:1093  decimals */\n  shl(0x20, tag_19)\n    /* \"contracts/Distribution/AtlantisDistribution.sol\":1085:1095  decimals() */\n  0x20\n  shr\n  jump\t// in\ntag_25:\n    /* \"contracts/Distribution/AtlantisDistribution.sol\":1080:1096  uint(decimals()) */\n  0xff\n  and\n    /* \"contracts/Distribution/AtlantisDistribution.sol\":1076:1078  10 */\n  0x0a\n    /* \"contracts/Distribution/AtlantisDistribution.sol\":1076:1096  10**uint(decimals()) */\n  tag_26\n  swap2\n  swap1\n  tag_21\n  jump\t// in\ntag_26:\n    /* \"contracts/Distribution/AtlantisDistribution.sol\":1061:1070  currentBC */\n  0x08\n    /* \"contracts/Distribution/AtlantisDistribution.sol\":1071:1072  0 */\n  0x00\n    /* \"contracts/Distribution/AtlantisDistribution.sol\":1061:1073  currentBC[0] */\n  0x03\n  dup2\n  lt\n  tag_27\n  jumpi\n  tag_28\n  tag_29\n  jump\t// in\ntag_28:\ntag_27:\n  add\n    /* \"contracts/Distribution/AtlantisDistribution.sol\":1061:1096  currentBC[0] = 10**uint(decimals()) */\n  dup2\n  swap1\n  sstore\n  pop\n    /* \"contracts/Distribution/AtlantisDistribution.sol\":1130:1140  decimals() */\n  tag_31\n    /* \"contracts/Distribution/AtlantisDistribution.sol\":1130:1138  decimals */\n  shl(0x20, tag_19)\n    /* \"contracts/Distribution/AtlantisDistribution.sol\":1130:1140  decimals() */\n  0x20\n  shr\n  jump\t// in\ntag_31:\n    /* \"contracts/Distribution/AtlantisDistribution.sol\":1125:1141  uint(decimals()) */\n  0xff\n  and\n    /* \"contracts/Distribution/AtlantisDistribution.sol\":1121:1123  10 */\n  0x0a\n    /* \"contracts/Distribution/AtlantisDistribution.sol\":1121:1141  10**uint(decimals()) */\n  tag_32\n  swap2\n  swap1\n  tag_21\n  jump\t// in\ntag_32:\n    /* \"contracts/Distribution/AtlantisDistribution.sol\":1106:1115  currentBC */\n  0x08\n    /* \"contracts/Distribution/AtlantisDistribution.sol\":1116:1117  1 */\n  0x01\n    /* \"contracts/Distribution/AtlantisDistribution.sol\":1106:1118  currentBC[1] */\n  0x03\n  dup2\n  lt\n  tag_33\n  jumpi\n  tag_34\n  tag_29\n  jump\t// in\ntag_34:\ntag_33:\n  add\n    /* \"contracts/Distribution/AtlantisDistribution.sol\":1106:1141  currentBC[1] = 10**uint(decimals()) */\n  dup2\n  swap1\n  sstore\n  pop\n    /* \"contracts/Distribution/AtlantisDistribution.sol\":1175:1185  decimals() */\n  tag_36\n    /* \"contracts/Distribution/AtlantisDistribution.sol\":1175:1183  decimals */\n  shl(0x20, tag_19)\n    /* \"contracts/Distribution/AtlantisDistribution.sol\":1175:1185  decimals() */\n  0x20\n  shr\n  jump\t// in\ntag_36:\n    /* \"contracts/Distribution/AtlantisDistribution.sol\":1170:1186  uint(decimals()) */\n  0xff\n  and\n    /* \"contracts/Distribution/AtlantisDistribution.sol\":1166:1168  10 */\n  0x0a\n    /* \"contracts/Distribution/AtlantisDistribution.sol\":1166:1186  10**uint(decimals()) */\n  tag_37\n  swap2\n  swap1\n  tag_21\n  jump\t// in\ntag_37:\n    /* \"contracts/Distribution/AtlantisDistribution.sol\":1151:1160  currentBC */\n  0x08\n    /* \"contracts/Distribution/AtlantisDistribution.sol\":1161:1162  2 */\n  0x02\n    /* \"contracts/Distribution/AtlantisDistribution.sol\":1151:1163  currentBC[2] */\n  0x03\n  dup2\n  lt\n  tag_38\n  jumpi\n  tag_39\n  tag_29\n  jump\t// in\ntag_39:\ntag_38:\n  add\n    /* \"contracts/Distribution/AtlantisDistribution.sol\":1151:1186  currentBC[2] = 10**uint(decimals()) */\n  dup2\n  swap1\n  sstore\n  pop\n    /* \"contracts/Distribution/AtlantisDistribution.sol\":1228:1238  decimals() */\n  tag_41\n    /* \"contracts/Distribution/AtlantisDistribution.sol\":1228:1236  decimals */\n  shl(0x20, tag_19)\n    /* \"contracts/Distribution/AtlantisDistribution.sol\":1228:1238  decimals() */\n  0x20\n  shr\n  jump\t// in\ntag_41:\n    /* \"contracts/Distribution/AtlantisDistribution.sol\":1223:1239  uint(decimals()) */\n  0xff\n  and\n    /* \"contracts/Distribution/AtlantisDistribution.sol\":1219:1221  10 */\n  0x0a\n    /* \"contracts/Distribution/AtlantisDistribution.sol\":1219:1239  10**uint(decimals()) */\n  tag_42\n  swap2\n  swap1\n  tag_21\n  jump\t// in\ntag_42:\n    /* \"contracts/Distribution/AtlantisDistribution.sol\":1207:1216  300000000 */\n  0x11e1a300\n    /* \"contracts/Distribution/AtlantisDistribution.sol\":1207:1239  300000000 * 10**uint(decimals()) */\n  tag_43\n  swap2\n  swap1\n  tag_23\n  jump\t// in\ntag_43:\n    /* \"contracts/Distribution/AtlantisDistribution.sol\":1196:1201  total */\n  0x0b\n    /* \"contracts/Distribution/AtlantisDistribution.sol\":1202:1203  0 */\n  0x00\n    /* \"contracts/Distribution/AtlantisDistribution.sol\":1196:1204  total[0] */\n  0x03\n  dup2\n  lt\n  tag_44\n  jumpi\n  tag_45\n  tag_29\n  jump\t// in\ntag_45:\ntag_44:\n  add\n    /* \"contracts/Distribution/AtlantisDistribution.sol\":1196:1239  total[0] = 300000000 * 10**uint(decimals()) */\n  dup2\n  swap1\n  sstore\n  pop\n    /* \"contracts/Distribution/AtlantisDistribution.sol\":1260:1261  0 */\n  0x00\n    /* \"contracts/Distribution/AtlantisDistribution.sol\":1249:1254  total */\n  0x0b\n    /* \"contracts/Distribution/AtlantisDistribution.sol\":1255:1256  1 */\n  0x01\n    /* \"contracts/Distribution/AtlantisDistribution.sol\":1249:1257  total[1] */\n  0x03\n  dup2\n  lt\n  tag_47\n  jumpi\n  tag_48\n  tag_29\n  jump\t// in\ntag_48:\ntag_47:\n  add\n    /* \"contracts/Distribution/AtlantisDistribution.sol\":1249:1261  total[1] = 0 */\n  dup2\n  swap1\n  sstore\n  pop\n    /* \"contracts/Distribution/AtlantisDistribution.sol\":1282:1283  0 */\n  0x00\n    /* \"contracts/Distribution/AtlantisDistribution.sol\":1271:1276  total */\n  0x0b\n    /* \"contracts/Distribution/AtlantisDistribution.sol\":1277:1278  2 */\n  0x02\n    /* \"contracts/Distribution/AtlantisDistribution.sol\":1271:1279  total[2] */\n  0x03\n  dup2\n  lt\n  tag_50\n  jumpi\n  tag_51\n  tag_29\n  jump\t// in\ntag_51:\ntag_50:\n  add\n    /* \"contracts/Distribution/AtlantisDistribution.sol\":1271:1283  total[2] = 0 */\n  dup2\n  swap1\n  sstore\n  pop\n    /* \"contracts/Distribution/AtlantisDistribution.sol\":1307:1319  _fund_wallet */\n  dup1\n    /* \"contracts/Distribution/AtlantisDistribution.sol\":1293:1304  fund_wallet */\n  0x0e\n  0x00\n    /* \"contracts/Distribution/AtlantisDistribution.sol\":1293:1319  fund_wallet = _fund_wallet */\n  0x0100\n  exp\n  dup2\n  sload\n  dup2\n  0xffffffffffffffffffffffffffffffffffffffff\n  mul\n  not\n  and\n  swap1\n  dup4\n  0xffffffffffffffffffffffffffffffffffffffff\n  and\n  mul\n  or\n  swap1\n  sstore\n  pop\n    /* \"contracts/Distribution/AtlantisDistribution.sol\":886:1326  constructor(string memory name, string memory symbol, address payable _fund_wallet) ERC20(name, symbol) {... */\n  pop\n  pop\n  pop\n    /* \"contracts/Distribution/AtlantisDistribution.sol\":206:4327  contract AtlantisDistribution is ERC20, Ownable {... */\n  jump(tag_53)\n    /* \"@openzeppelin/contracts/utils/Context.sol\":587:683  function _msgSender() internal view virtual returns (address) {... */\ntag_14:\n    /* \"@openzeppelin/contracts/utils/Context.sol\":640:647  address */\n  0x00\n    /* \"@openzeppelin/contracts/utils/Context.sol\":666:676  msg.sender */\n  caller\n    /* \"@openzeppelin/contracts/utils/Context.sol\":659:676  return msg.sender */\n  swap1\n  pop\n    /* \"@openzeppelin/contracts/utils/Context.sol\":587:683  function _msgSender() internal view virtual returns (address) {... */\n  swap1\n  jump\t// out\n    /* \"@openzeppelin/contracts/access/Ownable.sol\":2041:2210  function _setOwner(address newOwner) private {... */\ntag_15:\n    /* \"@openzeppelin/contracts/access/Ownable.sol\":2096:2112  address oldOwner */\n  0x00\n    /* \"@openzeppelin/contracts/access/Ownable.sol\":2115:2121  _owner */\n  0x05\n  0x00\n  swap1\n  sload\n  swap1\n  0x0100\n  exp\n  swap1\n  div\n  0xffffffffffffffffffffffffffffffffffffffff\n  and\n    /* \"@openzeppelin/contracts/access/Ownable.sol\":2096:2121  address oldOwner = _owner */\n  swap1\n  pop\n    /* \"@openzeppelin/contracts/access/Ownable.sol\":2140:2148  newOwner */\n  dup2\n    /* \"@openzeppelin/contracts/access/Ownable.sol\":2131:2137  _owner */\n  0x05\n  0x00\n    /* \"@openzeppelin/contracts/access/Ownable.sol\":2131:2148  _owner = newOwner */\n  0x0100\n  exp\n  dup2\n  sload\n  dup2\n  0xffffffffffffffffffffffffffffffffffffffff\n  mul\n  not\n  and\n  swap1\n  dup4\n  0xffffffffffffffffffffffffffffffffffffffff\n  and\n  mul\n  or\n  swap1\n  sstore\n  pop\n    /* \"@openzeppelin/contracts/access/Ownable.sol\":2194:2202  newOwner */\n  dup2\n    /* \"@openzeppelin/contracts/access/Ownable.sol\":2163:2203  OwnershipTransferred(oldOwner, newOwner) */\n  0xffffffffffffffffffffffffffffffffffffffff\n  and\n    /* \"@openzeppelin/contracts/access/Ownable.sol\":2184:2192  oldOwner */\n  dup2\n    /* \"@openzeppelin/contracts/access/Ownable.sol\":2163:2203  OwnershipTransferred(oldOwner, newOwner) */\n  0xffffffffffffffffffffffffffffffffffffffff\n  and\n  0x8be0079c531659141344cd1fd0a4f28419497f9722a3daafe3b4186f6b6457e0\n  mload(0x40)\n  mload(0x40)\n  dup1\n  swap2\n  sub\n  swap1\n  log3\n    /* \"@openzeppelin/contracts/access/Ownable.sol\":2086:2210  {... */\n  pop\n    /* \"@openzeppelin/contracts/access/Ownable.sol\":2041:2210  function _setOwner(address newOwner) private {... */\n  pop\n  jump\t// out\n    /* \"contracts/Distribution/WrappedERC20Token.sol\":2976:3058  function decimals() public view virtual returns (uint8) {... */\ntag_19:\n    /* \"contracts/Distribution/WrappedERC20Token.sol\":3025:3030  uint8 */\n  0x00\n    /* \"contracts/Distribution/WrappedERC20Token.sol\":3049:3051  18 */\n  0x12\n    /* \"contracts/Distribution/WrappedERC20Token.sol\":3042:3051  return 18 */\n  swap1\n  pop\n    /* \"contracts/Distribution/WrappedERC20Token.sol\":2976:3058  function decimals() public view virtual returns (uint8) {... */\n  swap1\n  jump\t// out\n    /* \"contracts/Distribution/WrappedERC20Token.sol\":7976:8306  function _mint(address account, uint256 amount) internal virtual {... */\ntag_24:\n    /* \"contracts/Distribution/WrappedERC20Token.sol\":8078:8079  0 */\n  0x00\n    /* \"contracts/Distribution/WrappedERC20Token.sol\":8059:8080  account != address(0) */\n  0xffffffffffffffffffffffffffffffffffffffff\n  and\n    /* \"contracts/Distribution/WrappedERC20Token.sol\":8059:8066  account */\n  dup3\n    /* \"contracts/Distribution/WrappedERC20Token.sol\":8059:8080  account != address(0) */\n  0xffffffffffffffffffffffffffffffffffffffff\n  and\n  sub\n    /* \"contracts/Distribution/WrappedERC20Token.sol\":8051:8116  require(account != address(0), \"ERC20: mint to the zero address\") */\n  tag_58\n  jumpi\n  mload(0x40)\n  0x08c379a000000000000000000000000000000000000000000000000000000000\n  dup2\n  mstore\n  0x04\n  add\n  tag_59\n  swap1\n  tag_60\n  jump\t// in\ntag_59:\n  mload(0x40)\n  dup1\n  swap2\n  sub\n  swap1\n  revert\ntag_58:\n    /* \"contracts/Distribution/WrappedERC20Token.sol\":8127:8176  _beforeTokenTransfer(address(0), account, amount) */\n  tag_61\n    /* \"contracts/Distribution/WrappedERC20Token.sol\":8156:8157  0 */\n  0x00\n    /* \"contracts/Distribution/WrappedERC20Token.sol\":8160:8167  account */\n  dup4\n    /* \"contracts/Distribution/WrappedERC20Token.sol\":8169:8175  amount */\n  dup4\n    /* \"contracts/Distribution/WrappedERC20Token.sol\":8127:8147  _beforeTokenTransfer */\n  shl(0x20, tag_62)\n    /* \"contracts/Distribution/WrappedERC20Token.sol\":8127:8176  _beforeTokenTransfer(address(0), account, amount) */\n  0x20\n  shr\n  jump\t// in\ntag_61:\n    /* \"contracts/Distribution/WrappedERC20Token.sol\":8203:8209  amount */\n  dup1\n    /* \"contracts/Distribution/WrappedERC20Token.sol\":8187:8199  _totalSupply */\n  0x02\n  0x00\n    /* \"contracts/Distribution/WrappedERC20Token.sol\":8187:8209  _totalSupply += amount */\n  dup3\n  dup3\n  sload\n  tag_63\n  swap2\n  swap1\n  tag_64\n  jump\t// in\ntag_63:\n  swap3\n  pop\n  pop\n  dup2\n  swap1\n  sstore\n  pop\n    /* \"contracts/Distribution/WrappedERC20Token.sol\":8241:8247  amount */\n  dup1\n    /* \"contracts/Distribution/WrappedERC20Token.sol\":8219:8228  _balances */\n  0x00\n    /* \"contracts/Distribution/WrappedERC20Token.sol\":8219:8237  _balances[account] */\n  dup1\n    /* \"contracts/Distribution/WrappedERC20Token.sol\":8229:8236  account */\n  dup5\n    /* \"contracts/Distribution/WrappedERC20Token.sol\":8219:8237  _balances[account] */\n  0xffffffffffffffffffffffffffffffffffffffff\n  and\n  0xffffffffffffffffffffffffffffffffffffffff\n  and\n  dup2\n  mstore\n  0x20\n  add\n  swap1\n  dup2\n  mstore\n  0x20\n  add\n  0x00\n  keccak256\n  0x00\n    /* \"contracts/Distribution/WrappedERC20Token.sol\":8219:8247  _balances[account] += amount */\n  dup3\n  dup3\n  sload\n  tag_65\n  swap2\n  swap1\n  tag_64\n  jump\t// in\ntag_65:\n  swap3\n  pop\n  pop\n  dup2\n  swap1\n  sstore\n  pop\n    /* \"contracts/Distribution/WrappedERC20Token.sol\":8283:8290  account */\n  dup2\n    /* \"contracts/Distribution/WrappedERC20Token.sol\":8262:8299  Transfer(address(0), account, amount) */\n  0xffffffffffffffffffffffffffffffffffffffff\n  and\n    /* \"contracts/Distribution/WrappedERC20Token.sol\":8279:8280  0 */\n  0x00\n    /* \"contracts/Distribution/WrappedERC20Token.sol\":8262:8299  Transfer(address(0), account, amount) */\n  0xffffffffffffffffffffffffffffffffffffffff\n  and\n  0xddf252ad1be2c89b69c2b068fc378daa952ba7f163c4a11628f55a4df523b3ef\n    /* \"contracts/Distribution/WrappedERC20Token.sol\":8292:8298  amount */\n  dup4\n    /* \"contracts/Distribution/WrappedERC20Token.sol\":8262:8299  Transfer(address(0), account, amount) */\n  mload(0x40)\n  tag_66\n  swap2\n  swap1\n  tag_67\n  jump\t// in\ntag_66:\n  mload(0x40)\n  dup1\n  swap2\n  sub\n  swap1\n  log3\n    /* \"contracts/Distribution/WrappedERC20Token.sol\":7976:8306  function _mint(address account, uint256 amount) internal virtual {... */\n  pop\n  pop\n  jump\t// out\n    /* \"contracts/Distribution/WrappedERC20Token.sol\":10459:10551  function _beforeTokenTransfer(address from, address to, uint256 amount) internal virtual { } */\ntag_62:\n  pop\n  pop\n  pop\n  jump\t// out\n    /* \"contracts/Distribution/AtlantisDistribution.sol\":206:4327  contract AtlantisDistribution is ERC20, Ownable {... */\ntag_9:\n  dup3\n  dup1\n  sload\n  tag_69\n  swap1\n  tag_70\n  jump\t// in\ntag_69:\n  swap1\n  0x00\n  mstore\n  keccak256(0x00, 0x20)\n  swap1\n  0x1f\n  add\n  0x20\n  swap1\n  div\n  dup2\n  add\n  swap3\n  dup3\n  tag_72\n  jumpi\n  0x00\n  dup6\n  sstore\n  jump(tag_71)\ntag_72:\n  dup3\n  0x1f\n  lt\n  tag_73\n  jumpi\n  dup1\n  mload\n  not(0xff)\n  and\n  dup4\n  dup1\n  add\n  or\n  dup6\n  sstore\n  jump(tag_71)\ntag_73:\n  dup3\n  dup1\n  add\n  0x01\n  add\n  dup6\n  sstore\n  dup3\n  iszero\n  tag_71\n  jumpi\n  swap2\n  dup3\n  add\ntag_74:\n  dup3\n  dup2\n  gt\n  iszero\n  tag_75\n  jumpi\n  dup3\n  mload\n  dup3\n  sstore\n  swap2\n  0x20\n  add\n  swap2\n  swap1\n  0x01\n  add\n  swap1\n  jump(tag_74)\ntag_75:\ntag_71:\n  pop\n  swap1\n  pop\n  tag_76\n  swap2\n  swap1\n  tag_77\n  jump\t// in\ntag_76:\n  pop\n  swap1\n  jump\t// out\ntag_77:\ntag_78:\n  dup1\n  dup3\n  gt\n  iszero\n  tag_79\n  jumpi\n  0x00\n  dup2\n  0x00\n  swap1\n  sstore\n  pop\n  0x01\n  add\n  jump(tag_78)\ntag_79:\n  pop\n  swap1\n  jump\t// out\n    /* \"#utility.yul\":7:82   */\ntag_80:\n    /* \"#utility.yul\":40:46   */\n  0x00\n    /* \"#utility.yul\":73:75   */\n  0x40\n    /* \"#utility.yul\":67:76   */\n  mload\n    /* \"#utility.yul\":57:76   */\n  swap1\n  pop\n    /* \"#utility.yul\":7:82   */\n  swap1\n  jump\t// out\n    /* \"#utility.yul\":88:205   */\ntag_81:\n    /* \"#utility.yul\":197:198   */\n  0x00\n    /* \"#utility.yul\":194:195   */\n  dup1\n    /* \"#utility.yul\":187:199   */\n  revert\n    /* \"#utility.yul\":211:328   */\ntag_82:\n    /* \"#utility.yul\":320:321   */\n  0x00\n    /* \"#utility.yul\":317:318   */\n  dup1\n    /* \"#utility.yul\":310:322   */\n  revert\n    /* \"#utility.yul\":334:451   */\ntag_83:\n    /* \"#utility.yul\":443:444   */\n  0x00\n    /* \"#utility.yul\":440:441   */\n  dup1\n    /* \"#utility.yul\":433:445   */\n  revert\n    /* \"#utility.yul\":457:574   */\ntag_84:\n    /* \"#utility.yul\":566:567   */\n  0x00\n    /* \"#utility.yul\":563:564   */\n  dup1\n    /* \"#utility.yul\":556:568   */\n  revert\n    /* \"#utility.yul\":580:682   */\ntag_85:\n    /* \"#utility.yul\":621:627   */\n  0x00\n    /* \"#utility.yul\":672:674   */\n  0x1f\n    /* \"#utility.yul\":668:675   */\n  not\n    /* \"#utility.yul\":663:665   */\n  0x1f\n    /* \"#utility.yul\":656:661   */\n  dup4\n    /* \"#utility.yul\":652:666   */\n  add\n    /* \"#utility.yul\":648:676   */\n  and\n    /* \"#utility.yul\":638:676   */\n  swap1\n  pop\n    /* \"#utility.yul\":580:682   */\n  swap2\n  swap1\n  pop\n  jump\t// out\n    /* \"#utility.yul\":688:868   */\ntag_86:\n    /* \"#utility.yul\":736:813   */\n  0x4e487b7100000000000000000000000000000000000000000000000000000000\n    /* \"#utility.yul\":733:734   */\n  0x00\n    /* \"#utility.yul\":726:814   */\n  mstore\n    /* \"#utility.yul\":833:837   */\n  0x41\n    /* \"#utility.yul\":830:831   */\n  0x04\n    /* \"#utility.yul\":823:838   */\n  mstore\n    /* \"#utility.yul\":857:861   */\n  0x24\n    /* \"#utility.yul\":854:855   */\n  0x00\n    /* \"#utility.yul\":847:862   */\n  revert\n    /* \"#utility.yul\":874:1155   */\ntag_87:\n    /* \"#utility.yul\":957:984   */\n  tag_116\n    /* \"#utility.yul\":979:983   */\n  dup3\n    /* \"#utility.yul\":957:984   */\n  tag_85\n  jump\t// in\ntag_116:\n    /* \"#utility.yul\":949:955   */\n  dup2\n    /* \"#utility.yul\":945:985   */\n  add\n    /* \"#utility.yul\":1087:1093   */\n  dup2\n    /* \"#utility.yul\":1075:1085   */\n  dup2\n    /* \"#utility.yul\":1072:1094   */\n  lt\n    /* \"#utility.yul\":1051:1069   */\n  0xffffffffffffffff\n    /* \"#utility.yul\":1039:1049   */\n  dup3\n    /* \"#utility.yul\":1036:1070   */\n  gt\n    /* \"#utility.yul\":1033:1095   */\n  or\n    /* \"#utility.yul\":1030:1118   */\n  iszero\n  tag_117\n  jumpi\n    /* \"#utility.yul\":1098:1116   */\n  tag_118\n  tag_86\n  jump\t// in\ntag_118:\n    /* \"#utility.yul\":1030:1118   */\ntag_117:\n    /* \"#utility.yul\":1138:1148   */\n  dup1\n    /* \"#utility.yul\":1134:1136   */\n  0x40\n    /* \"#utility.yul\":1127:1149   */\n  mstore\n    /* \"#utility.yul\":917:1155   */\n  pop\n    /* \"#utility.yul\":874:1155   */\n  pop\n  pop\n  jump\t// out\n    /* \"#utility.yul\":1161:1290   */\ntag_88:\n    /* \"#utility.yul\":1195:1201   */\n  0x00\n    /* \"#utility.yul\":1222:1242   */\n  tag_120\n  tag_80\n  jump\t// in\ntag_120:\n    /* \"#utility.yul\":1212:1242   */\n  swap1\n  pop\n    /* \"#utility.yul\":1251:1284   */\n  tag_121\n    /* \"#utility.yul\":1279:1283   */\n  dup3\n    /* \"#utility.yul\":1271:1277   */\n  dup3\n    /* \"#utility.yul\":1251:1284   */\n  tag_87\n  jump\t// in\ntag_121:\n    /* \"#utility.yul\":1161:1290   */\n  swap2\n  swap1\n  pop\n  jump\t// out\n    /* \"#utility.yul\":1296:1604   */\ntag_89:\n    /* \"#utility.yul\":1358:1362   */\n  0x00\n    /* \"#utility.yul\":1448:1466   */\n  0xffffffffffffffff\n    /* \"#utility.yul\":1440:1446   */\n  dup3\n    /* \"#utility.yul\":1437:1467   */\n  gt\n    /* \"#utility.yul\":1434:1490   */\n  iszero\n  tag_123\n  jumpi\n    /* \"#utility.yul\":1470:1488   */\n  tag_124\n  tag_86\n  jump\t// in\ntag_124:\n    /* \"#utility.yul\":1434:1490   */\ntag_123:\n    /* \"#utility.yul\":1508:1537   */\n  tag_125\n    /* \"#utility.yul\":1530:1536   */\n  dup3\n    /* \"#utility.yul\":1508:1537   */\n  tag_85\n  jump\t// in\ntag_125:\n    /* \"#utility.yul\":1500:1537   */\n  swap1\n  pop\n    /* \"#utility.yul\":1592:1596   */\n  0x20\n    /* \"#utility.yul\":1586:1590   */\n  dup2\n    /* \"#utility.yul\":1582:1597   */\n  add\n    /* \"#utility.yul\":1574:1597   */\n  swap1\n  pop\n    /* \"#utility.yul\":1296:1604   */\n  swap2\n  swap1\n  pop\n  jump\t// out\n    /* \"#utility.yul\":1610:1917   */\ntag_90:\n    /* \"#utility.yul\":1678:1679   */\n  0x00\n    /* \"#utility.yul\":1688:1801   */\ntag_127:\n    /* \"#utility.yul\":1702:1708   */\n  dup4\n    /* \"#utility.yul\":1699:1700   */\n  dup2\n    /* \"#utility.yul\":1696:1709   */\n  lt\n    /* \"#utility.yul\":1688:1801   */\n  iszero\n  tag_129\n  jumpi\n    /* \"#utility.yul\":1787:1788   */\n  dup1\n    /* \"#utility.yul\":1782:1785   */\n  dup3\n    /* \"#utility.yul\":1778:1789   */\n  add\n    /* \"#utility.yul\":1772:1790   */\n  mload\n    /* \"#utility.yul\":1768:1769   */\n  dup2\n    /* \"#utility.yul\":1763:1766   */\n  dup5\n    /* \"#utility.yul\":1759:1770   */\n  add\n    /* \"#utility.yul\":1752:1791   */\n  mstore\n    /* \"#utility.yul\":1724:1726   */\n  0x20\n    /* \"#utility.yul\":1721:1722   */\n  dup2\n    /* \"#utility.yul\":1717:1727   */\n  add\n    /* \"#utility.yul\":1712:1727   */\n  swap1\n  pop\n    /* \"#utility.yul\":1688:1801   */\n  jump(tag_127)\ntag_129:\n    /* \"#utility.yul\":1819:1825   */\n  dup4\n    /* \"#utility.yul\":1816:1817   */\n  dup2\n    /* \"#utility.yul\":1813:1826   */\n  gt\n    /* \"#utility.yul\":1810:1911   */\n  iszero\n  tag_130\n  jumpi\n    /* \"#utility.yul\":1899:1900   */\n  0x00\n    /* \"#utility.yul\":1890:1896   */\n  dup5\n    /* \"#utility.yul\":1885:1888   */\n  dup5\n    /* \"#utility.yul\":1881:1897   */\n  add\n    /* \"#utility.yul\":1874:1901   */\n  mstore\n    /* \"#utility.yul\":1810:1911   */\ntag_130:\n    /* \"#utility.yul\":1659:1917   */\n  pop\n    /* \"#utility.yul\":1610:1917   */\n  pop\n  pop\n  pop\n  jump\t// out\n    /* \"#utility.yul\":1923:2344   */\ntag_91:\n    /* \"#utility.yul\":2012:2017   */\n  0x00\n    /* \"#utility.yul\":2037:2103   */\n  tag_132\n    /* \"#utility.yul\":2053:2102   */\n  tag_133\n    /* \"#utility.yul\":2095:2101   */\n  dup5\n    /* \"#utility.yul\":2053:2102   */\n  tag_89\n  jump\t// in\ntag_133:\n    /* \"#utility.yul\":2037:2103   */\n  tag_88\n  jump\t// in\ntag_132:\n    /* \"#utility.yul\":2028:2103   */\n  swap1\n  pop\n    /* \"#utility.yul\":2126:2132   */\n  dup3\n    /* \"#utility.yul\":2119:2124   */\n  dup2\n    /* \"#utility.yul\":2112:2133   */\n  mstore\n    /* \"#utility.yul\":2164:2168   */\n  0x20\n    /* \"#utility.yul\":2157:2162   */\n  dup2\n    /* \"#utility.yul\":2153:2169   */\n  add\n    /* \"#utility.yul\":2202:2205   */\n  dup5\n    /* \"#utility.yul\":2193:2199   */\n  dup5\n    /* \"#utility.yul\":2188:2191   */\n  dup5\n    /* \"#utility.yul\":2184:2200   */\n  add\n    /* \"#utility.yul\":2181:2206   */\n  gt\n    /* \"#utility.yul\":2178:2290   */\n  iszero\n  tag_134\n  jumpi\n    /* \"#utility.yul\":2209:2288   */\n  tag_135\n  tag_84\n  jump\t// in\ntag_135:\n    /* \"#utility.yul\":2178:2290   */\ntag_134:\n    /* \"#utility.yul\":2299:2338   */\n  tag_136\n    /* \"#utility.yul\":2331:2337   */\n  dup5\n    /* \"#utility.yul\":2326:2329   */\n  dup3\n    /* \"#utility.yul\":2321:2324   */\n  dup6\n    /* \"#utility.yul\":2299:2338   */\n  tag_90\n  jump\t// in\ntag_136:\n    /* \"#utility.yul\":2018:2344   */\n  pop\n    /* \"#utility.yul\":1923:2344   */\n  swap4\n  swap3\n  pop\n  pop\n  pop\n  jump\t// out\n    /* \"#utility.yul\":2364:2719   */\ntag_92:\n    /* \"#utility.yul\":2431:2436   */\n  0x00\n    /* \"#utility.yul\":2480:2483   */\n  dup3\n    /* \"#utility.yul\":2473:2477   */\n  0x1f\n    /* \"#utility.yul\":2465:2471   */\n  dup4\n    /* \"#utility.yul\":2461:2478   */\n  add\n    /* \"#utility.yul\":2457:2484   */\n  slt\n    /* \"#utility.yul\":2447:2569   */\n  tag_138\n  jumpi\n    /* \"#utility.yul\":2488:2567   */\n  tag_139\n  tag_83\n  jump\t// in\ntag_139:\n    /* \"#utility.yul\":2447:2569   */\ntag_138:\n    /* \"#utility.yul\":2598:2604   */\n  dup2\n    /* \"#utility.yul\":2592:2605   */\n  mload\n    /* \"#utility.yul\":2623:2713   */\n  tag_140\n    /* \"#utility.yul\":2709:2712   */\n  dup5\n    /* \"#utility.yul\":2701:2707   */\n  dup3\n    /* \"#utility.yul\":2694:2698   */\n  0x20\n    /* \"#utility.yul\":2686:2692   */\n  dup7\n    /* \"#utility.yul\":2682:2699   */\n  add\n    /* \"#utility.yul\":2623:2713   */\n  tag_91\n  jump\t// in\ntag_140:\n    /* \"#utility.yul\":2614:2713   */\n  swap2\n  pop\n    /* \"#utility.yul\":2437:2719   */\n  pop\n    /* \"#utility.yul\":2364:2719   */\n  swap3\n  swap2\n  pop\n  pop\n  jump\t// out\n    /* \"#utility.yul\":2725:2851   */\ntag_93:\n    /* \"#utility.yul\":2762:2769   */\n  0x00\n    /* \"#utility.yul\":2802:2844   */\n  0xffffffffffffffffffffffffffffffffffffffff\n    /* \"#utility.yul\":2795:2800   */\n  dup3\n    /* \"#utility.yul\":2791:2845   */\n  and\n    /* \"#utility.yul\":2780:2845   */\n  swap1\n  pop\n    /* \"#utility.yul\":2725:2851   */\n  swap2\n  swap1\n  pop\n  jump\t// out\n    /* \"#utility.yul\":2857:2961   */\ntag_94:\n    /* \"#utility.yul\":2902:2909   */\n  0x00\n    /* \"#utility.yul\":2931:2955   */\n  tag_143\n    /* \"#utility.yul\":2949:2954   */\n  dup3\n    /* \"#utility.yul\":2931:2955   */\n  tag_93\n  jump\t// in\ntag_143:\n    /* \"#utility.yul\":2920:2955   */\n  swap1\n  pop\n    /* \"#utility.yul\":2857:2961   */\n  swap2\n  swap1\n  pop\n  jump\t// out\n    /* \"#utility.yul\":2967:3105   */\ntag_95:\n    /* \"#utility.yul\":3048:3080   */\n  tag_145\n    /* \"#utility.yul\":3074:3079   */\n  dup2\n    /* \"#utility.yul\":3048:3080   */\n  tag_94\n  jump\t// in\ntag_145:\n    /* \"#utility.yul\":3041:3046   */\n  dup2\n    /* \"#utility.yul\":3038:3081   */\n  eq\n    /* \"#utility.yul\":3028:3099   */\n  tag_146\n  jumpi\n    /* \"#utility.yul\":3095:3096   */\n  0x00\n    /* \"#utility.yul\":3092:3093   */\n  dup1\n    /* \"#utility.yul\":3085:3097   */\n  revert\n    /* \"#utility.yul\":3028:3099   */\ntag_146:\n    /* \"#utility.yul\":2967:3105   */\n  pop\n  jump\t// out\n    /* \"#utility.yul\":3111:3270   */\ntag_96:\n    /* \"#utility.yul\":3176:3181   */\n  0x00\n    /* \"#utility.yul\":3207:3213   */\n  dup2\n    /* \"#utility.yul\":3201:3214   */\n  mload\n    /* \"#utility.yul\":3192:3214   */\n  swap1\n  pop\n    /* \"#utility.yul\":3223:3264   */\n  tag_148\n    /* \"#utility.yul\":3258:3263   */\n  dup2\n    /* \"#utility.yul\":3223:3264   */\n  tag_95\n  jump\t// in\ntag_148:\n    /* \"#utility.yul\":3111:3270   */\n  swap3\n  swap2\n  pop\n  pop\n  jump\t// out\n    /* \"#utility.yul\":3276:4301   */\ntag_3:\n    /* \"#utility.yul\":3392:3398   */\n  0x00\n    /* \"#utility.yul\":3400:3406   */\n  dup1\n    /* \"#utility.yul\":3408:3414   */\n  0x00\n    /* \"#utility.yul\":3457:3459   */\n  0x60\n    /* \"#utility.yul\":3445:3454   */\n  dup5\n    /* \"#utility.yul\":3436:3443   */\n  dup7\n    /* \"#utility.yul\":3432:3455   */\n  sub\n    /* \"#utility.yul\":3428:3460   */\n  slt\n    /* \"#utility.yul\":3425:3544   */\n  iszero\n  tag_150\n  jumpi\n    /* \"#utility.yul\":3463:3542   */\n  tag_151\n  tag_81\n  jump\t// in\ntag_151:\n    /* \"#utility.yul\":3425:3544   */\ntag_150:\n    /* \"#utility.yul\":3604:3605   */\n  0x00\n    /* \"#utility.yul\":3593:3602   */\n  dup5\n    /* \"#utility.yul\":3589:3606   */\n  add\n    /* \"#utility.yul\":3583:3607   */\n  mload\n    /* \"#utility.yul\":3634:3652   */\n  0xffffffffffffffff\n    /* \"#utility.yul\":3626:3632   */\n  dup2\n    /* \"#utility.yul\":3623:3653   */\n  gt\n    /* \"#utility.yul\":3620:3737   */\n  iszero\n  tag_152\n  jumpi\n    /* \"#utility.yul\":3656:3735   */\n  tag_153\n  tag_82\n  jump\t// in\ntag_153:\n    /* \"#utility.yul\":3620:3737   */\ntag_152:\n    /* \"#utility.yul\":3761:3835   */\n  tag_154\n    /* \"#utility.yul\":3827:3834   */\n  dup7\n    /* \"#utility.yul\":3818:3824   */\n  dup3\n    /* \"#utility.yul\":3807:3816   */\n  dup8\n    /* \"#utility.yul\":3803:3825   */\n  add\n    /* \"#utility.yul\":3761:3835   */\n  tag_92\n  jump\t// in\ntag_154:\n    /* \"#utility.yul\":3751:3835   */\n  swap4\n  pop\n    /* \"#utility.yul\":3554:3845   */\n  pop\n    /* \"#utility.yul\":3905:3907   */\n  0x20\n    /* \"#utility.yul\":3894:3903   */\n  dup5\n    /* \"#utility.yul\":3890:3908   */\n  add\n    /* \"#utility.yul\":3884:3909   */\n  mload\n    /* \"#utility.yul\":3936:3954   */\n  0xffffffffffffffff\n    /* \"#utility.yul\":3928:3934   */\n  dup2\n    /* \"#utility.yul\":3925:3955   */\n  gt\n    /* \"#utility.yul\":3922:4039   */\n  iszero\n  tag_155\n  jumpi\n    /* \"#utility.yul\":3958:4037   */\n  tag_156\n  tag_82\n  jump\t// in\ntag_156:\n    /* \"#utility.yul\":3922:4039   */\ntag_155:\n    /* \"#utility.yul\":4063:4137   */\n  tag_157\n    /* \"#utility.yul\":4129:4136   */\n  dup7\n    /* \"#utility.yul\":4120:4126   */\n  dup3\n    /* \"#utility.yul\":4109:4118   */\n  dup8\n    /* \"#utility.yul\":4105:4127   */\n  add\n    /* \"#utility.yul\":4063:4137   */\n  tag_92\n  jump\t// in\ntag_157:\n    /* \"#utility.yul\":4053:4137   */\n  swap3\n  pop\n    /* \"#utility.yul\":3855:4147   */\n  pop\n    /* \"#utility.yul\":4186:4188   */\n  0x40\n    /* \"#utility.yul\":4212:4284   */\n  tag_158\n    /* \"#utility.yul\":4276:4283   */\n  dup7\n    /* \"#utility.yul\":4267:4273   */\n  dup3\n    /* \"#utility.yul\":4256:4265   */\n  dup8\n    /* \"#utility.yul\":4252:4274   */\n  add\n    /* \"#utility.yul\":4212:4284   */\n  tag_96\n  jump\t// in\ntag_158:\n    /* \"#utility.yul\":4202:4284   */\n  swap2\n  pop\n    /* \"#utility.yul\":4157:4294   */\n  pop\n    /* \"#utility.yul\":3276:4301   */\n  swap3\n  pop\n  swap3\n  pop\n  swap3\n  jump\t// out\n    /* \"#utility.yul\":4307:4487   */\ntag_97:\n    /* \"#utility.yul\":4355:4432   */\n  0x4e487b7100000000000000000000000000000000000000000000000000000000\n    /* \"#utility.yul\":4352:4353   */\n  0x00\n    /* \"#utility.yul\":4345:4433   */\n  mstore\n    /* \"#utility.yul\":4452:4456   */\n  0x11\n    /* \"#utility.yul\":4449:4450   */\n  0x04\n    /* \"#utility.yul\":4442:4457   */\n  mstore\n    /* \"#utility.yul\":4476:4480   */\n  0x24\n    /* \"#utility.yul\":4473:4474   */\n  0x00\n    /* \"#utility.yul\":4466:4481   */\n  revert\n    /* \"#utility.yul\":4493:4595   */\ntag_98:\n    /* \"#utility.yul\":4535:4543   */\n  0x00\n    /* \"#utility.yul\":4582:4587   */\n  dup2\n    /* \"#utility.yul\":4579:4580   */\n  0x01\n    /* \"#utility.yul\":4575:4588   */\n  shr\n    /* \"#utility.yul\":4554:4588   */\n  swap1\n  pop\n    /* \"#utility.yul\":4493:4595   */\n  swap2\n  swap1\n  pop\n  jump\t// out\n    /* \"#utility.yul\":4601:5449   */\ntag_99:\n    /* \"#utility.yul\":4662:4667   */\n  0x00\n    /* \"#utility.yul\":4669:4673   */\n  dup1\n    /* \"#utility.yul\":4693:4699   */\n  dup3\n    /* \"#utility.yul\":4684:4699   */\n  swap2\n  pop\n    /* \"#utility.yul\":4717:4722   */\n  dup4\n    /* \"#utility.yul\":4708:4722   */\n  swap1\n  pop\n    /* \"#utility.yul\":4731:5443   */\ntag_162:\n    /* \"#utility.yul\":4752:4753   */\n  0x01\n    /* \"#utility.yul\":4742:4750   */\n  dup6\n    /* \"#utility.yul\":4739:4754   */\n  gt\n    /* \"#utility.yul\":4731:5443   */\n  iszero\n  tag_164\n  jumpi\n    /* \"#utility.yul\":4847:4851   */\n  dup1\n    /* \"#utility.yul\":4842:4845   */\n  dup7\n    /* \"#utility.yul\":4838:4852   */\n  div\n    /* \"#utility.yul\":4832:4836   */\n  dup2\n    /* \"#utility.yul\":4829:4853   */\n  gt\n    /* \"#utility.yul\":4826:4876   */\n  iszero\n  tag_165\n  jumpi\n    /* \"#utility.yul\":4856:4874   */\n  tag_166\n  tag_97\n  jump\t// in\ntag_166:\n    /* \"#utility.yul\":4826:4876   */\ntag_165:\n    /* \"#utility.yul\":4906:4907   */\n  0x01\n    /* \"#utility.yul\":4896:4904   */\n  dup6\n    /* \"#utility.yul\":4892:4908   */\n  and\n    /* \"#utility.yul\":4889:5340   */\n  iszero\n  tag_167\n  jumpi\n    /* \"#utility.yul\":5321:5325   */\n  dup1\n    /* \"#utility.yul\":5314:5319   */\n  dup3\n    /* \"#utility.yul\":5310:5326   */\n  mul\n    /* \"#utility.yul\":5301:5326   */\n  swap2\n  pop\n    /* \"#utility.yul\":4889:5340   */\ntag_167:\n    /* \"#utility.yul\":5371:5375   */\n  dup1\n    /* \"#utility.yul\":5365:5369   */\n  dup2\n    /* \"#utility.yul\":5361:5376   */\n  mul\n    /* \"#utility.yul\":5353:5376   */\n  swap1\n  pop\n    /* \"#utility.yul\":5401:5433   */\n  tag_168\n    /* \"#utility.yul\":5424:5432   */\n  dup6\n    /* \"#utility.yul\":5401:5433   */\n  tag_98\n  jump\t// in\ntag_168:\n    /* \"#utility.yul\":5389:5433   */\n  swap5\n  pop\n    /* \"#utility.yul\":4731:5443   */\n  jump(tag_162)\ntag_164:\n    /* \"#utility.yul\":4601:5449   */\n  swap5\n  pop\n  swap5\n  swap3\n  pop\n  pop\n  pop\n  jump\t// out\n    /* \"#utility.yul\":5455:6528   */\ntag_100:\n    /* \"#utility.yul\":5509:5514   */\n  0x00\n    /* \"#utility.yul\":5700:5708   */\n  dup3\n    /* \"#utility.yul\":5690:5730   */\n  tag_170\n  jumpi\n    /* \"#utility.yul\":5721:5722   */\n  0x01\n    /* \"#utility.yul\":5712:5722   */\n  swap1\n  pop\n    /* \"#utility.yul\":5723:5728   */\n  jump(tag_169)\n    /* \"#utility.yul\":5690:5730   */\ntag_170:\n    /* \"#utility.yul\":5749:5753   */\n  dup2\n    /* \"#utility.yul\":5739:5775   */\n  tag_171\n  jumpi\n    /* \"#utility.yul\":5766:5767   */\n  0x00\n    /* \"#utility.yul\":5757:5767   */\n  swap1\n  pop\n    /* \"#utility.yul\":5768:5773   */\n  jump(tag_169)\n    /* \"#utility.yul\":5739:5775   */\ntag_171:\n    /* \"#utility.yul\":5835:5839   */\n  dup2\n    /* \"#utility.yul\":5883:5884   */\n  0x01\n    /* \"#utility.yul\":5878:5905   */\n  dup2\n  eq\n  tag_173\n  jumpi\n    /* \"#utility.yul\":5919:5920   */\n  0x02\n    /* \"#utility.yul\":5914:6105   */\n  dup2\n  eq\n  tag_174\n  jumpi\n    /* \"#utility.yul\":5828:6105   */\n  jump(tag_172)\n    /* \"#utility.yul\":5878:5905   */\ntag_173:\n    /* \"#utility.yul\":5896:5897   */\n  0x01\n    /* \"#utility.yul\":5887:5897   */\n  swap2\n  pop\n    /* \"#utility.yul\":5898:5903   */\n  pop\n  jump(tag_169)\n    /* \"#utility.yul\":5914:6105   */\ntag_174:\n    /* \"#utility.yul\":5959:5962   */\n  0xff\n    /* \"#utility.yul\":5949:5957   */\n  dup5\n    /* \"#utility.yul\":5946:5963   */\n  gt\n    /* \"#utility.yul\":5943:5986   */\n  iszero\n  tag_175\n  jumpi\n    /* \"#utility.yul\":5966:5984   */\n  tag_176\n  tag_97\n  jump\t// in\ntag_176:\n    /* \"#utility.yul\":5943:5986   */\ntag_175:\n    /* \"#utility.yul\":6015:6023   */\n  dup4\n    /* \"#utility.yul\":6012:6013   */\n  0x02\n    /* \"#utility.yul\":6008:6024   */\n  exp\n    /* \"#utility.yul\":5999:6024   */\n  swap2\n  pop\n    /* \"#utility.yul\":6050:6053   */\n  dup5\n    /* \"#utility.yul\":6043:6048   */\n  dup3\n    /* \"#utility.yul\":6040:6054   */\n  gt\n    /* \"#utility.yul\":6037:6077   */\n  iszero\n  tag_177\n  jumpi\n    /* \"#utility.yul\":6057:6075   */\n  tag_178\n  tag_97\n  jump\t// in\ntag_178:\n    /* \"#utility.yul\":6037:6077   */\ntag_177:\n    /* \"#utility.yul\":6090:6095   */\n  pop\n  jump(tag_169)\n    /* \"#utility.yul\":5828:6105   */\ntag_172:\n  pop\n    /* \"#utility.yul\":6214:6216   */\n  0x20\n    /* \"#utility.yul\":6204:6212   */\n  dup4\n    /* \"#utility.yul\":6201:6217   */\n  lt\n    /* \"#utility.yul\":6195:6198   */\n  0x0133\n    /* \"#utility.yul\":6189:6193   */\n  dup4\n    /* \"#utility.yul\":6186:6199   */\n  lt\n    /* \"#utility.yul\":6182:6218   */\n  and\n    /* \"#utility.yul\":6164:6166   */\n  0x4e\n    /* \"#utility.yul\":6154:6162   */\n  dup5\n    /* \"#utility.yul\":6151:6167   */\n  lt\n    /* \"#utility.yul\":6146:6148   */\n  0x0b\n    /* \"#utility.yul\":6140:6144   */\n  dup5\n    /* \"#utility.yul\":6137:6149   */\n  lt\n    /* \"#utility.yul\":6133:6168   */\n  and\n    /* \"#utility.yul\":6117:6228   */\n  or\n    /* \"#utility.yul\":6114:6360   */\n  iszero\n  tag_179\n  jumpi\n    /* \"#utility.yul\":6270:6278   */\n  dup3\n    /* \"#utility.yul\":6264:6268   */\n  dup3\n    /* \"#utility.yul\":6260:6279   */\n  exp\n    /* \"#utility.yul\":6251:6279   */\n  swap1\n  pop\n    /* \"#utility.yul\":6305:6308   */\n  dup4\n    /* \"#utility.yul\":6298:6303   */\n  dup2\n    /* \"#utility.yul\":6295:6309   */\n  gt\n    /* \"#utility.yul\":6292:6332   */\n  iszero\n  tag_180\n  jumpi\n    /* \"#utility.yul\":6312:6330   */\n  tag_181\n  tag_97\n  jump\t// in\ntag_181:\n    /* \"#utility.yul\":6292:6332   */\ntag_180:\n    /* \"#utility.yul\":6345:6350   */\n  jump(tag_169)\n    /* \"#utility.yul\":6114:6360   */\ntag_179:\n    /* \"#utility.yul\":6385:6427   */\n  tag_182\n    /* \"#utility.yul\":6423:6426   */\n  dup5\n    /* \"#utility.yul\":6413:6421   */\n  dup5\n    /* \"#utility.yul\":6407:6411   */\n  dup5\n    /* \"#utility.yul\":6404:6405   */\n  0x01\n    /* \"#utility.yul\":6385:6427   */\n  tag_99\n  jump\t// in\ntag_182:\n    /* \"#utility.yul\":6370:6427   */\n  swap3\n  pop\n  swap1\n  pop\n    /* \"#utility.yul\":6459:6463   */\n  dup2\n    /* \"#utility.yul\":6454:6457   */\n  dup5\n    /* \"#utility.yul\":6450:6464   */\n  div\n    /* \"#utility.yul\":6443:6448   */\n  dup2\n    /* \"#utility.yul\":6440:6465   */\n  gt\n    /* \"#utility.yul\":6437:6488   */\n  iszero\n  tag_183\n  jumpi\n    /* \"#utility.yul\":6468:6486   */\n  tag_184\n  tag_97\n  jump\t// in\ntag_184:\n    /* \"#utility.yul\":6437:6488   */\ntag_183:\n    /* \"#utility.yul\":6517:6521   */\n  dup2\n    /* \"#utility.yul\":6510:6515   */\n  dup2\n    /* \"#utility.yul\":6506:6522   */\n  mul\n    /* \"#utility.yul\":6497:6522   */\n  swap1\n  pop\n    /* \"#utility.yul\":5455:6528   */\ntag_169:\n  swap4\n  swap3\n  pop\n  pop\n  pop\n  jump\t// out\n    /* \"#utility.yul\":6534:6611   */\ntag_101:\n    /* \"#utility.yul\":6571:6578   */\n  0x00\n    /* \"#utility.yul\":6600:6605   */\n  dup2\n    /* \"#utility.yul\":6589:6605   */\n  swap1\n  pop\n    /* \"#utility.yul\":6534:6611   */\n  swap2\n  swap1\n  pop\n  jump\t// out\n    /* \"#utility.yul\":6617:6902   */\ntag_21:\n    /* \"#utility.yul\":6677:6682   */\n  0x00\n    /* \"#utility.yul\":6701:6724   */\n  tag_187\n    /* \"#utility.yul\":6719:6723   */\n  dup3\n    /* \"#utility.yul\":6701:6724   */\n  tag_101\n  jump\t// in\ntag_187:\n    /* \"#utility.yul\":6693:6724   */\n  swap2\n  pop\n    /* \"#utility.yul\":6745:6772   */\n  tag_188\n    /* \"#utility.yul\":6763:6771   */\n  dup4\n    /* \"#utility.yul\":6745:6772   */\n  tag_101\n  jump\t// in\ntag_188:\n    /* \"#utility.yul\":6733:6772   */\n  swap3\n  pop\n    /* \"#utility.yul\":6791:6895   */\n  tag_189\n    /* \"#utility.yul\":6828:6894   */\n  0xffffffffffffffffffffffffffffffffffffffffffffffffffffffffffffffff\n    /* \"#utility.yul\":6818:6826   */\n  dup5\n    /* \"#utility.yul\":6812:6816   */\n  dup5\n    /* \"#utility.yul\":6791:6895   */\n  tag_100\n  jump\t// in\ntag_189:\n    /* \"#utility.yul\":6782:6895   */\n  swap1\n  pop\n    /* \"#utility.yul\":6617:6902   */\n  swap3\n  swap2\n  pop\n  pop\n  jump\t// out\n    /* \"#utility.yul\":6908:7256   */\ntag_23:\n    /* \"#utility.yul\":6948:6955   */\n  0x00\n    /* \"#utility.yul\":6971:6991   */\n  tag_191\n    /* \"#utility.yul\":6989:6990   */\n  dup3\n    /* \"#utility.yul\":6971:6991   */\n  tag_101\n  jump\t// in\ntag_191:\n    /* \"#utility.yul\":6966:6991   */\n  swap2\n  pop\n    /* \"#utility.yul\":7005:7025   */\n  tag_192\n    /* \"#utility.yul\":7023:7024   */\n  dup4\n    /* \"#utility.yul\":7005:7025   */\n  tag_101\n  jump\t// in\ntag_192:\n    /* \"#utility.yul\":7000:7025   */\n  swap3\n  pop\n    /* \"#utility.yul\":7193:7194   */\n  dup2\n    /* \"#utility.yul\":7125:7191   */\n  0xffffffffffffffffffffffffffffffffffffffffffffffffffffffffffffffff\n    /* \"#utility.yul\":7121:7195   */\n  div\n    /* \"#utility.yul\":7118:7119   */\n  dup4\n    /* \"#utility.yul\":7115:7196   */\n  gt\n    /* \"#utility.yul\":7110:7111   */\n  dup3\n    /* \"#utility.yul\":7103:7112   */\n  iszero\n    /* \"#utility.yul\":7096:7113   */\n  iszero\n    /* \"#utility.yul\":7092:7197   */\n  and\n    /* \"#utility.yul\":7089:7220   */\n  iszero\n  tag_193\n  jumpi\n    /* \"#utility.yul\":7200:7218   */\n  tag_194\n  tag_97\n  jump\t// in\ntag_194:\n    /* \"#utility.yul\":7089:7220   */\ntag_193:\n    /* \"#utility.yul\":7248:7249   */\n  dup3\n    /* \"#utility.yul\":7245:7246   */\n  dup3\n    /* \"#utility.yul\":7241:7250   */\n  mul\n    /* \"#utility.yul\":7230:7250   */\n  swap1\n  pop\n    /* \"#utility.yul\":6908:7256   */\n  swap3\n  swap2\n  pop\n  pop\n  jump\t// out\n    /* \"#utility.yul\":7262:7442   */\ntag_29:\n    /* \"#utility.yul\":7310:7387   */\n  0x4e487b7100000000000000000000000000000000000000000000000000000000\n    /* \"#utility.yul\":7307:7308   */\n  0x00\n    /* \"#utility.yul\":7300:7388   */\n  mstore\n    /* \"#utility.yul\":7407:7411   */\n  0x32\n    /* \"#utility.yul\":7404:7405   */\n  0x04\n    /* \"#utility.yul\":7397:7412   */\n  mstore\n    /* \"#utility.yul\":7431:7435   */\n  0x24\n    /* \"#utility.yul\":7428:7429   */\n  0x00\n    /* \"#utility.yul\":7421:7436   */\n  revert\n    /* \"#utility.yul\":7448:7617   */\ntag_102:\n    /* \"#utility.yul\":7532:7543   */\n  0x00\n    /* \"#utility.yul\":7566:7572   */\n  dup3\n    /* \"#utility.yul\":7561:7564   */\n  dup3\n    /* \"#utility.yul\":7554:7573   */\n  mstore\n    /* \"#utility.yul\":7606:7610   */\n  0x20\n    /* \"#utility.yul\":7601:7604   */\n  dup3\n    /* \"#utility.yul\":7597:7611   */\n  add\n    /* \"#utility.yul\":7582:7611   */\n  swap1\n  pop\n    /* \"#utility.yul\":7448:7617   */\n  swap3\n  swap2\n  pop\n  pop\n  jump\t// out\n    /* \"#utility.yul\":7623:7804   */\ntag_103:\n    /* \"#utility.yul\":7763:7796   */\n  0x45524332303a206d696e7420746f20746865207a65726f206164647265737300\n    /* \"#utility.yul\":7759:7760   */\n  0x00\n    /* \"#utility.yul\":7751:7757   */\n  dup3\n    /* \"#utility.yul\":7747:7761   */\n  add\n    /* \"#utility.yul\":7740:7797   */\n  mstore\n    /* \"#utility.yul\":7623:7804   */\n  pop\n  jump\t// out\n    /* \"#utility.yul\":7810:8176   */\ntag_104:\n    /* \"#utility.yul\":7952:7955   */\n  0x00\n    /* \"#utility.yul\":7973:8040   */\n  tag_199\n    /* \"#utility.yul\":8037:8039   */\n  0x1f\n    /* \"#utility.yul\":8032:8035   */\n  dup4\n    /* \"#utility.yul\":7973:8040   */\n  tag_102\n  jump\t// in\ntag_199:\n    /* \"#utility.yul\":7966:8040   */\n  swap2\n  pop\n    /* \"#utility.yul\":8049:8142   */\n  tag_200\n    /* \"#utility.yul\":8138:8141   */\n  dup3\n    /* \"#utility.yul\":8049:8142   */\n  tag_103\n  jump\t// in\ntag_200:\n    /* \"#utility.yul\":8167:8169   */\n  0x20\n    /* \"#utility.yul\":8162:8165   */\n  dup3\n    /* \"#utility.yul\":8158:8170   */\n  add\n    /* \"#utility.yul\":8151:8170   */\n  swap1\n  pop\n    /* \"#utility.yul\":7810:8176   */\n  swap2\n  swap1\n  pop\n  jump\t// out\n    /* \"#utility.yul\":8182:8601   */\ntag_60:\n    /* \"#utility.yul\":8348:8352   */\n  0x00\n    /* \"#utility.yul\":8386:8388   */\n  0x20\n    /* \"#utility.yul\":8375:8384   */\n  dup3\n    /* \"#utility.yul\":8371:8389   */\n  add\n    /* \"#utility.yul\":8363:8389   */\n  swap1\n  pop\n    /* \"#utility.yul\":8435:8444   */\n  dup2\n    /* \"#utility.yul\":8429:8433   */\n  dup2\n    /* \"#utility.yul\":8425:8445   */\n  sub\n    /* \"#utility.yul\":8421:8422   */\n  0x00\n    /* \"#utility.yul\":8410:8419   */\n  dup4\n    /* \"#utility.yul\":8406:8423   */\n  add\n    /* \"#utility.yul\":8399:8446   */\n  mstore\n    /* \"#utility.yul\":8463:8594   */\n  tag_202\n    /* \"#utility.yul\":8589:8593   */\n  dup2\n    /* \"#utility.yul\":8463:8594   */\n  tag_104\n  jump\t// in\ntag_202:\n    /* \"#utility.yul\":8455:8594   */\n  swap1\n  pop\n    /* \"#utility.yul\":8182:8601   */\n  swap2\n  swap1\n  pop\n  jump\t// out\n    /* \"#utility.yul\":8607:8912   */\ntag_64:\n    /* \"#utility.yul\":8647:8650   */\n  0x00\n    /* \"#utility.yul\":8666:8686   */\n  tag_204\n    /* \"#utility.yul\":8684:8685   */\n  dup3\n    /* \"#utility.yul\":8666:8686   */\n  tag_101\n  jump\t// in\ntag_204:\n    /* \"#utility.yul\":8661:8686   */\n  swap2\n  pop\n    /* \"#utility.yul\":8700:8720   */\n  tag_205\n    /* \"#utility.yul\":8718:8719   */\n  dup4\n    /* \"#utility.yul\":8700:8720   */\n  tag_101\n  jump\t// in\ntag_205:\n    /* \"#utility.yul\":8695:8720   */\n  swap3\n  pop\n    /* \"#utility.yul\":8854:8855   */\n  dup3\n    /* \"#utility.yul\":8786:8852   */\n  0xffffffffffffffffffffffffffffffffffffffffffffffffffffffffffffffff\n    /* \"#utility.yul\":8782:8856   */\n  sub\n    /* \"#utility.yul\":8779:8780   */\n  dup3\n    /* \"#utility.yul\":8776:8857   */\n  gt\n    /* \"#utility.yul\":8773:8880   */\n  iszero\n  tag_206\n  jumpi\n    /* \"#utility.yul\":8860:8878   */\n  tag_207\n  tag_97\n  jump\t// in\ntag_207:\n    /* \"#utility.yul\":8773:8880   */\ntag_206:\n    /* \"#utility.yul\":8904:8905   */\n  dup3\n    /* \"#utility.yul\":8901:8902   */\n  dup3\n    /* \"#utility.yul\":8897:8906   */\n  add\n    /* \"#utility.yul\":8890:8906   */\n  swap1\n  pop\n    /* \"#utility.yul\":8607:8912   */\n  swap3\n  swap2\n  pop\n  pop\n  jump\t// out\n    /* \"#utility.yul\":8918:9036   */\ntag_105:\n    /* \"#utility.yul\":9005:9029   */\n  tag_209\n    /* \"#utility.yul\":9023:9028   */\n  dup2\n    /* \"#utility.yul\":9005:9029   */\n  tag_101\n  jump\t// in\ntag_209:\n    /* \"#utility.yul\":9000:9003   */\n  dup3\n    /* \"#utility.yul\":8993:9030   */\n  mstore\n    /* \"#utility.yul\":8918:9036   */\n  pop\n  pop\n  jump\t// out\n    /* \"#utility.yul\":9042:9264   */\ntag_67:\n    /* \"#utility.yul\":9135:9139   */\n  0x00\n    /* \"#utility.yul\":9173:9175   */\n  0x20\n    /* \"#utility.yul\":9162:9171   */\n  dup3\n    /* \"#utility.yul\":9158:9176   */\n  add\n    /* \"#utility.yul\":9150:9176   */\n  swap1\n  pop\n    /* \"#utility.yul\":9186:9257   */\n  tag_211\n    /* \"#utility.yul\":9254:9255   */\n  0x00\n    /* \"#utility.yul\":9243:9252   */\n  dup4\n    /* \"#utility.yul\":9239:9256   */\n  add\n    /* \"#utility.yul\":9230:9236   */\n  dup5\n    /* \"#utility.yul\":9186:9257   */\n  tag_105\n  jump\t// in\ntag_211:\n    /* \"#utility.yul\":9042:9264   */\n  swap3\n  swap2\n  pop\n  pop\n  jump\t// out\n    /* \"#utility.yul\":9270:9450   */\ntag_106:\n    /* \"#utility.yul\":9318:9395   */\n  0x4e487b7100000000000000000000000000000000000000000000000000000000\n    /* \"#utility.yul\":9315:9316   */\n  0x00\n    /* \"#utility.yul\":9308:9396   */\n  mstore\n    /* \"#utility.yul\":9415:9419   */\n  0x22\n    /* \"#utility.yul\":9412:9413   */\n  0x04\n    /* \"#utility.yul\":9405:9420   */\n  mstore\n    /* \"#utility.yul\":9439:9443   */\n  0x24\n    /* \"#utility.yul\":9436:9437   */\n  0x00\n    /* \"#utility.yul\":9429:9444   */\n  revert\n    /* \"#utility.yul\":9456:9776   */\ntag_70:\n    /* \"#utility.yul\":9500:9506   */\n  0x00\n    /* \"#utility.yul\":9537:9538   */\n  0x02\n    /* \"#utility.yul\":9531:9535   */\n  dup3\n    /* \"#utility.yul\":9527:9539   */\n  div\n    /* \"#utility.yul\":9517:9539   */\n  swap1\n  pop\n    /* \"#utility.yul\":9584:9585   */\n  0x01\n    /* \"#utility.yul\":9578:9582   */\n  dup3\n    /* \"#utility.yul\":9574:9586   */\n  and\n    /* \"#utility.yul\":9605:9623   */\n  dup1\n    /* \"#utility.yul\":9595:9676   */\n  tag_214\n  jumpi\n    /* \"#utility.yul\":9661:9665   */\n  0x7f\n    /* \"#utility.yul\":9653:9659   */\n  dup3\n    /* \"#utility.yul\":9649:9666   */\n  and\n    /* \"#utility.yul\":9639:9666   */\n  swap2\n  pop\n    /* \"#utility.yul\":9595:9676   */\ntag_214:\n    /* \"#utility.yul\":9723:9725   */\n  0x20\n    /* \"#utility.yul\":9715:9721   */\n  dup3\n    /* \"#utility.yul\":9712:9726   */\n  lt\n    /* \"#utility.yul\":9692:9710   */\n  dup2\n    /* \"#utility.yul\":9689:9727   */\n  sub\n    /* \"#utility.yul\":9686:9770   */\n  tag_215\n  jumpi\n    /* \"#utility.yul\":9742:9760   */\n  tag_216\n  tag_106\n  jump\t// in\ntag_216:\n    /* \"#utility.yul\":9686:9770   */\ntag_215:\n    /* \"#utility.yul\":9507:9776   */\n  pop\n    /* \"#utility.yul\":9456:9776   */\n  swap2\n  swap1\n  pop\n  jump\t// out\n    /* \"contracts/Distribution/AtlantisDistribution.sol\":206:4327  contract AtlantisDistribution is ERC20, Ownable {... */\ntag_53:\n  dataSize(sub_0)\n  dup1\n  dataOffset(sub_0)\n  0x00\n  codecopy\n  0x00\n  return\nstop\n\nsub_0: assembly {\n        /* \"contracts/Distribution/AtlantisDistribution.sol\":206:4327  contract AtlantisDistribution is ERC20, Ownable {... */\n      mstore(0x40, 0x80)\n      callvalue\n      dup1\n      iszero\n      tag_1\n      jumpi\n      0x00\n      dup1\n      revert\n    tag_1:\n      pop\n      jumpi(tag_2, lt(calldatasize, 0x04))\n      shr(0xe0, calldataload(0x00))\n      dup1\n      0x7a0d944c\n      gt\n      tag_23\n      jumpi\n      dup1\n      0xa457c2d7\n      gt\n      tag_24\n      jumpi\n      dup1\n      0xa457c2d7\n      eq\n      tag_18\n      jumpi\n      dup1\n      0xa9059cbb\n      eq\n      tag_19\n      jumpi\n      dup1\n      0xdd62ed3e\n      eq\n      tag_20\n      jumpi\n      dup1\n      0xf2fde38b\n      eq\n      tag_21\n      jumpi\n      dup1\n      0xf8e233b1\n      eq\n      tag_22\n      jumpi\n      jump(tag_2)\n    tag_24:\n      dup1\n      0x7a0d944c\n      eq\n      tag_13\n      jumpi\n      dup1\n      0x8da5cb5b\n      eq\n      tag_14\n      jumpi\n      dup1\n      0x95d89b41\n      eq\n      tag_15\n      jumpi\n      dup1\n      0xa0712d68\n      eq\n      tag_16\n      jumpi\n      dup1\n      0xa33e7d7e\n      eq\n      tag_17\n      jumpi\n      jump(tag_2)\n    tag_23:\n      dup1\n      0x23b872dd\n      gt\n      tag_25\n      jumpi\n      dup1\n      0x23b872dd\n      eq\n      tag_8\n      jumpi\n      dup1\n      0x313ce567\n      eq\n      tag_9\n      jumpi\n      dup1\n      0x39509351\n      eq\n      tag_10\n      jumpi\n      dup1\n      0x70a08231\n      eq\n      tag_11\n      jumpi\n      dup1\n      0x715018a6\n      eq\n      tag_12\n      jumpi\n      jump(tag_2)\n    tag_25:\n      dup1\n      0x06fdde03\n      eq\n      tag_3\n      jumpi\n      dup1\n      0x095ea7b3\n      eq\n      tag_4\n      jumpi\n      dup1\n      0x13b954a3\n      eq\n      tag_5\n      jumpi\n      dup1\n      0x1506f480\n      eq\n      tag_6\n      jumpi\n      dup1\n      0x18160ddd\n      eq\n      tag_7\n      jumpi\n    tag_2:\n      0x00\n      dup1\n      revert\n        /* \"contracts/Distribution/WrappedERC20Token.sol\":2057:2146  function name() public view virtual returns (string memory) {... */\n    tag_3:\n      tag_26\n      tag_27\n      jump\t// in\n    tag_26:\n      mload(0x40)\n      tag_28\n      swap2\n      swap1\n      tag_29\n      jump\t// in\n    tag_28:\n      mload(0x40)\n      dup1\n      swap2\n      sub\n      swap1\n      return\n        /* \"contracts/Distribution/WrappedERC20Token.sol\":4127:4293  function approve(address spender, uint256 amount) public virtual override returns (bool) {... */\n    tag_4:\n      tag_30\n      0x04\n      dup1\n      calldatasize\n      sub\n      dup2\n      add\n      swap1\n      tag_31\n      swap2\n      swap1\n      tag_32\n      jump\t// in\n    tag_31:\n      tag_33\n      jump\t// in\n    tag_30:\n      mload(0x40)\n      tag_34\n      swap2\n      swap1\n      tag_35\n      jump\t// in\n    tag_34:\n      mload(0x40)\n      dup1\n      swap2\n      sub\n      swap1\n      return\n        /* \"contracts/Distribution/AtlantisDistribution.sol\":3680:4172  function mintToRS(address account, uint256 amount) external onlyOwner {... */\n    tag_5:\n      tag_36\n      0x04\n      dup1\n      calldatasize\n      sub\n      dup2\n      add\n      swap1\n      tag_37\n      swap2\n      swap1\n      tag_32\n      jump\t// in\n    tag_37:\n      tag_38\n      jump\t// in\n    tag_36:\n      stop\n        /* \"contracts/Distribution/AtlantisDistribution.sol\":3085:3674  function mintToNRS(address account, uint256 amount) external onlyOwner {... */\n    tag_6:\n      tag_39\n      0x04\n      dup1\n      calldatasize\n      sub\n      dup2\n      add\n      swap1\n      tag_40\n      swap2\n      swap1\n      tag_32\n      jump\t// in\n    tag_40:\n      tag_41\n      jump\t// in\n    tag_39:\n      stop\n        /* \"contracts/Distribution/WrappedERC20Token.sol\":3118:3224  function totalSupply() public view virtual override returns (uint256) {... */\n    tag_7:\n      tag_42\n      tag_43\n      jump\t// in\n    tag_42:\n      mload(0x40)\n      tag_44\n      swap2\n      swap1\n      tag_45\n      jump\t// in\n    tag_44:\n      mload(0x40)\n      dup1\n      swap2\n      sub\n      swap1\n      return\n        /* \"contracts/Distribution/AtlantisDistribution.sol\":4178:4325  function transferFrom(address sender, address recipient, uint256 amount) public override returns (bool) {... */\n    tag_8:\n      tag_46\n      0x04\n      dup1\n      calldatasize\n      sub\n      dup2\n      add\n      swap1\n      tag_47\n      swap2\n      swap1\n      tag_48\n      jump\t// in\n    tag_47:\n      tag_49\n      jump\t// in\n    tag_46:\n      mload(0x40)\n      tag_50\n      swap2\n      swap1\n      tag_35\n      jump\t// in\n    tag_50:\n      mload(0x40)\n      dup1\n      swap2\n      sub\n      swap1\n      return\n        /* \"contracts/Distribution/WrappedERC20Token.sol\":2976:3058  function decimals() public view virtual returns (uint8) {... */\n    tag_9:\n      tag_51\n      tag_52\n      jump\t// in\n    tag_51:\n      mload(0x40)\n      tag_53\n      swap2\n      swap1\n      tag_54\n      jump\t// in\n    tag_53:\n      mload(0x40)\n      dup1\n      swap2\n      sub\n      swap1\n      return\n        /* \"contracts/Distribution/WrappedERC20Token.sol\":5569:5781  function increaseAllowance(address spender, uint256 addedValue) public virtual returns (bool) {... */\n    tag_10:\n      tag_55\n      0x04\n      dup1\n      calldatasize\n      sub\n      dup2\n      add\n      swap1\n      tag_56\n      swap2\n      swap1\n      tag_32\n      jump\t// in\n    tag_56:\n      tag_57\n      jump\t// in\n    tag_55:\n      mload(0x40)\n      tag_58\n      swap2\n      swap1\n      tag_35\n      jump\t// in\n    tag_58:\n      mload(0x40)\n      dup1\n      swap2\n      sub\n      swap1\n      return\n        /* \"contracts/Distribution/AtlantisDistribution.sol\":1332:1567  function balanceOf(address account) public view override returns (uint256) {... */\n    tag_11:\n      tag_59\n      0x04\n      dup1\n      calldatasize\n      sub\n      dup2\n      add\n      swap1\n      tag_60\n      swap2\n      swap1\n      tag_61\n      jump\t// in\n    tag_60:\n      tag_62\n      jump\t// in\n    tag_59:\n      mload(0x40)\n      tag_63\n      swap2\n      swap1\n      tag_45\n      jump\t// in\n    tag_63:\n      mload(0x40)\n      dup1\n      swap2\n      sub\n      swap1\n      return\n        /* \"@openzeppelin/contracts/access/Ownable.sol\":1605:1697  function renounceOwnership() public virtual onlyOwner {... */\n    tag_12:\n      tag_64\n      tag_65\n      jump\t// in\n    tag_64:\n      stop\n        /* \"contracts/Distribution/AtlantisDistribution.sol\":580:617  mapping (address => uint8) public lvl */\n    tag_13:\n      tag_66\n      0x04\n      dup1\n      calldatasize\n      sub\n      dup2\n      add\n      swap1\n      tag_67\n      swap2\n      swap1\n      tag_61\n      jump\t// in\n    tag_67:\n      tag_68\n      jump\t// in\n    tag_66:\n      mload(0x40)\n      tag_69\n      swap2\n      swap1\n      tag_54\n      jump\t// in\n    tag_69:\n      mload(0x40)\n      dup1\n      swap2\n      sub\n      swap1\n      return\n        /* \"@openzeppelin/contracts/access/Ownable.sol\":973:1058  function owner() public view virtual returns (address) {... */\n    tag_14:\n      tag_70\n      tag_71\n      jump\t// in\n    tag_70:\n      mload(0x40)\n      tag_72\n      swap2\n      swap1\n      tag_73\n      jump\t// in\n    tag_72:\n      mload(0x40)\n      dup1\n      swap2\n      sub\n      swap1\n      return\n        /* \"contracts/Distribution/WrappedERC20Token.sol\":2259:2352  function symbol() public view virtual returns (string memory) {... */\n    tag_15:\n      tag_74\n      tag_75\n      jump\t// in\n    tag_74:\n      mload(0x40)\n      tag_76\n      swap2\n      swap1\n      tag_29\n      jump\t// in\n    tag_76:\n      mload(0x40)\n      dup1\n      swap2\n      sub\n      swap1\n      return\n        /* \"contracts/Distribution/AtlantisDistribution.sol\":1829:2422  function mint(uint256 amount) external onlyOwner {... */\n    tag_16:\n      tag_77\n      0x04\n      dup1\n      calldatasize\n      sub\n      dup2\n      add\n      swap1\n      tag_78\n      swap2\n      swap1\n      tag_79\n      jump\t// in\n    tag_78:\n      tag_80\n      jump\t// in\n    tag_77:\n      stop\n        /* \"contracts/Distribution/AtlantisDistribution.sol\":2773:3079  function changeLvl(address account, uint8 newLvl) external onlyOwner {... */\n    tag_17:\n      tag_81\n      0x04\n      dup1\n      calldatasize\n      sub\n      dup2\n      add\n      swap1\n      tag_82\n      swap2\n      swap1\n      tag_83\n      jump\t// in\n    tag_82:\n      tag_84\n      jump\t// in\n    tag_81:\n      stop\n        /* \"contracts/Distribution/WrappedERC20Token.sol\":6268:6639  function decreaseAllowance(address spender, uint256 subtractedValue) public virtual returns (bool) {... */\n    tag_18:\n      tag_85\n      0x04\n      dup1\n      calldatasize\n      sub\n      dup2\n      add\n      swap1\n      tag_86\n      swap2\n      swap1\n      tag_32\n      jump\t// in\n    tag_86:\n      tag_87\n      jump\t// in\n    tag_85:\n      mload(0x40)\n      tag_88\n      swap2\n      swap1\n      tag_35\n      jump\t// in\n    tag_88:\n      mload(0x40)\n      dup1\n      swap2\n      sub\n      swap1\n      return\n        /* \"contracts/Distribution/AtlantisDistribution.sol\":2428:2767  function transfer(address recipient, uint256 amount) public override returns (bool) {... */\n    tag_19:\n      tag_89\n      0x04\n      dup1\n      calldatasize\n      sub\n      dup2\n      add\n      swap1\n      tag_90\n      swap2\n      swap1\n      tag_32\n      jump\t// in\n    tag_90:\n      tag_91\n      jump\t// in\n    tag_89:\n      mload(0x40)\n      tag_92\n      swap2\n      swap1\n      tag_35\n      jump\t// in\n    tag_92:\n      mload(0x40)\n      dup1\n      swap2\n      sub\n      swap1\n      return\n        /* \"contracts/Distribution/WrappedERC20Token.sol\":3840:3989  function allowance(address owner, address spender) public view virtual override returns (uint256) {... */\n    tag_20:\n      tag_93\n      0x04\n      dup1\n      calldatasize\n      sub\n      dup2\n      add\n      swap1\n      tag_94\n      swap2\n      swap1\n      tag_95\n      jump\t// in\n    tag_94:\n      tag_96\n      jump\t// in\n    tag_93:\n      mload(0x40)\n      tag_97\n      swap2\n      swap1\n      tag_45\n      jump\t// in\n    tag_97:\n      mload(0x40)\n      dup1\n      swap2\n      sub\n      swap1\n      return\n        /* \"@openzeppelin/contracts/access/Ownable.sol\":1846:2035  function transferOwnership(address newOwner) public virtual onlyOwner {... */\n    tag_21:\n      tag_98\n      0x04\n      dup1\n      calldatasize\n      sub\n      dup2\n      add\n      swap1\n      tag_99\n      swap2\n      swap1\n      tag_61\n      jump\t// in\n    tag_99:\n      tag_100\n      jump\t// in\n    tag_98:\n      stop\n        /* \"contracts/Distribution/AtlantisDistribution.sol\":845:879  address payable public fund_wallet */\n    tag_22:\n      tag_101\n      tag_102\n      jump\t// in\n    tag_101:\n      mload(0x40)\n      tag_103\n      swap2\n      swap1\n      tag_104\n      jump\t// in\n    tag_103:\n      mload(0x40)\n      dup1\n      swap2\n      sub\n      swap1\n      return\n        /* \"contracts/Distribution/WrappedERC20Token.sol\":2057:2146  function name() public view virtual returns (string memory) {... */\n    tag_27:\n        /* \"contracts/Distribution/WrappedERC20Token.sol\":2102:2115  string memory */\n      0x60\n        /* \"contracts/Distribution/WrappedERC20Token.sol\":2134:2139  _name */\n      0x03\n        /* \"contracts/Distribution/WrappedERC20Token.sol\":2127:2139  return _name */\n      dup1\n      sload\n      tag_106\n      swap1\n      tag_107\n      jump\t// in\n    tag_106:\n      dup1\n      0x1f\n      add\n      0x20\n      dup1\n      swap2\n      div\n      mul\n      0x20\n      add\n      mload(0x40)\n      swap1\n      dup2\n      add\n      0x40\n      mstore\n      dup1\n      swap3\n      swap2\n      swap1\n      dup2\n      dup2\n      mstore\n      0x20\n      add\n      dup3\n      dup1\n      sload\n      tag_108\n      swap1\n      tag_107\n      jump\t// in\n    tag_108:\n      dup1\n      iszero\n      tag_109\n      jumpi\n      dup1\n      0x1f\n      lt\n      tag_110\n      jumpi\n      0x0100\n      dup1\n      dup4\n      sload\n      div\n      mul\n      dup4\n      mstore\n      swap2\n      0x20\n      add\n      swap2\n      jump(tag_109)\n    tag_110:\n      dup3\n      add\n      swap2\n      swap1\n      0x00\n      mstore\n      keccak256(0x00, 0x20)\n      swap1\n    tag_111:\n      dup2\n      sload\n      dup2\n      mstore\n      swap1\n      0x01\n      add\n      swap1\n      0x20\n      add\n      dup1\n      dup4\n      gt\n      tag_111\n      jumpi\n      dup3\n      swap1\n      sub\n      0x1f\n      and\n      dup3\n      add\n      swap2\n    tag_109:\n      pop\n      pop\n      pop\n      pop\n      pop\n      swap1\n      pop\n        /* \"contracts/Distribution/WrappedERC20Token.sol\":2057:2146  function name() public view virtual returns (string memory) {... */\n      swap1\n      jump\t// out\n        /* \"contracts/Distribution/WrappedERC20Token.sol\":4127:4293  function approve(address spender, uint256 amount) public virtual override returns (bool) {... */\n    tag_33:\n        /* \"contracts/Distribution/WrappedERC20Token.sol\":4210:4214  bool */\n      0x00\n        /* \"contracts/Distribution/WrappedERC20Token.sol\":4226:4265  _approve(_msgSender(), spender, amount) */\n      tag_113\n        /* \"contracts/Distribution/WrappedERC20Token.sol\":4235:4247  _msgSender() */\n      tag_114\n        /* \"contracts/Distribution/WrappedERC20Token.sol\":4235:4245  _msgSender */\n      tag_115\n        /* \"contracts/Distribution/WrappedERC20Token.sol\":4235:4247  _msgSender() */\n      jump\t// in\n    tag_114:\n        /* \"contracts/Distribution/WrappedERC20Token.sol\":4249:4256  spender */\n      dup5\n        /* \"contracts/Distribution/WrappedERC20Token.sol\":4258:4264  amount */\n      dup5\n        /* \"contracts/Distribution/WrappedERC20Token.sol\":4226:4234  _approve */\n      tag_116\n        /* \"contracts/Distribution/WrappedERC20Token.sol\":4226:4265  _approve(_msgSender(), spender, amount) */\n      jump\t// in\n    tag_113:\n        /* \"contracts/Distribution/WrappedERC20Token.sol\":4282:4286  true */\n      0x01\n        /* \"contracts/Distribution/WrappedERC20Token.sol\":4275:4286  return true */\n      swap1\n      pop\n        /* \"contracts/Distribution/WrappedERC20Token.sol\":4127:4293  function approve(address spender, uint256 amount) public virtual override returns (bool) {... */\n      swap3\n      swap2\n      pop\n      pop\n      jump\t// out\n        /* \"contracts/Distribution/AtlantisDistribution.sol\":3680:4172  function mintToRS(address account, uint256 amount) external onlyOwner {... */\n    tag_38:\n        /* \"@openzeppelin/contracts/access/Ownable.sol\":1196:1208  _msgSender() */\n      tag_118\n        /* \"@openzeppelin/contracts/access/Ownable.sol\":1196:1206  _msgSender */\n      tag_115\n        /* \"@openzeppelin/contracts/access/Ownable.sol\":1196:1208  _msgSender() */\n      jump\t// in\n    tag_118:\n        /* \"@openzeppelin/contracts/access/Ownable.sol\":1185:1208  owner() == _msgSender() */\n      0xffffffffffffffffffffffffffffffffffffffff\n      and\n        /* \"@openzeppelin/contracts/access/Ownable.sol\":1185:1192  owner() */\n      tag_119\n        /* \"@openzeppelin/contracts/access/Ownable.sol\":1185:1190  owner */\n      tag_71\n        /* \"@openzeppelin/contracts/access/Ownable.sol\":1185:1192  owner() */\n      jump\t// in\n    tag_119:\n        /* \"@openzeppelin/contracts/access/Ownable.sol\":1185:1208  owner() == _msgSender() */\n      0xffffffffffffffffffffffffffffffffffffffff\n      and\n      eq\n        /* \"@openzeppelin/contracts/access/Ownable.sol\":1177:1245  require(owner() == _msgSender(), \"Ownable: caller is not the owner\") */\n      tag_120\n      jumpi\n      mload(0x40)\n      0x08c379a000000000000000000000000000000000000000000000000000000000\n      dup2\n      mstore\n      0x04\n      add\n      tag_121\n      swap1\n      tag_122\n      jump\t// in\n    tag_121:\n      mload(0x40)\n      dup1\n      swap2\n      sub\n      swap1\n      revert\n    tag_120:\n        /* \"contracts/Distribution/AtlantisDistribution.sol\":3838:3839  0 */\n      0x00\n        /* \"contracts/Distribution/AtlantisDistribution.sol\":3822:3825  lvl */\n      0x07\n        /* \"contracts/Distribution/AtlantisDistribution.sol\":3822:3834  lvl[account] */\n      0x00\n        /* \"contracts/Distribution/AtlantisDistribution.sol\":3826:3833  account */\n      dup5\n        /* \"contracts/Distribution/AtlantisDistribution.sol\":3822:3834  lvl[account] */\n      0xffffffffffffffffffffffffffffffffffffffff\n      and\n      0xffffffffffffffffffffffffffffffffffffffff\n      and\n      dup2\n      mstore\n      0x20\n      add\n      swap1\n      dup2\n      mstore\n      0x20\n      add\n      0x00\n      keccak256\n      0x00\n      swap1\n      sload\n      swap1\n      0x0100\n      exp\n      swap1\n      div\n      0xff\n      and\n        /* \"contracts/Distribution/AtlantisDistribution.sol\":3822:3839  lvl[account] == 0 */\n      0xff\n      and\n      eq\n        /* \"contracts/Distribution/AtlantisDistribution.sol\":3814:3880  require(lvl[account] == 0, \"account is not a regular shareholder\") */\n      tag_124\n      jumpi\n      mload(0x40)\n      0x08c379a000000000000000000000000000000000000000000000000000000000\n      dup2\n      mstore\n      0x04\n      add\n      tag_125\n      swap1\n      tag_126\n      jump\t// in\n    tag_125:\n      mload(0x40)\n      dup1\n      swap2\n      sub\n      swap1\n      revert\n    tag_124:\n        /* \"contracts/Distribution/AtlantisDistribution.sol\":3912:3918  amount */\n      dup1\n        /* \"contracts/Distribution/AtlantisDistribution.sol\":3890:3899  _balances */\n      0x00\n        /* \"contracts/Distribution/AtlantisDistribution.sol\":3890:3908  _balances[account] */\n      dup1\n        /* \"contracts/Distribution/AtlantisDistribution.sol\":3900:3907  account */\n      dup5\n        /* \"contracts/Distribution/AtlantisDistribution.sol\":3890:3908  _balances[account] */\n      0xffffffffffffffffffffffffffffffffffffffff\n      and\n      0xffffffffffffffffffffffffffffffffffffffff\n      and\n      dup2\n      mstore\n      0x20\n      add\n      swap1\n      dup2\n      mstore\n      0x20\n      add\n      0x00\n      keccak256\n      0x00\n        /* \"contracts/Distribution/AtlantisDistribution.sol\":3890:3918  _balances[account] += amount */\n      dup3\n      dup3\n      sload\n      tag_127\n      swap2\n      swap1\n      tag_128\n      jump\t// in\n    tag_127:\n      swap3\n      pop\n      pop\n      dup2\n      swap1\n      sstore\n      pop\n        /* \"contracts/Distribution/AtlantisDistribution.sol\":3933:3940  uint8 i */\n      0x00\n        /* \"contracts/Distribution/AtlantisDistribution.sol\":3943:3944  1 */\n      0x01\n        /* \"contracts/Distribution/AtlantisDistribution.sol\":3933:3944  uint8 i = 1 */\n      swap1\n      pop\n        /* \"contracts/Distribution/AtlantisDistribution.sol\":3928:4134  for (uint8 i = 1; i <= 2; i++) {... */\n    tag_129:\n        /* \"contracts/Distribution/AtlantisDistribution.sol\":3951:3952  2 */\n      0x02\n        /* \"contracts/Distribution/AtlantisDistribution.sol\":3946:3947  i */\n      dup2\n        /* \"contracts/Distribution/AtlantisDistribution.sol\":3946:3952  i <= 2 */\n      0xff\n      and\n      gt\n        /* \"contracts/Distribution/AtlantisDistribution.sol\":3928:4134  for (uint8 i = 1; i <= 2; i++) {... */\n      tag_130\n      jumpi\n        /* \"contracts/Distribution/AtlantisDistribution.sol\":3988:4032  currentBC[i].mul((total[i] + amount.div(2))) */\n      tag_132\n        /* \"contracts/Distribution/AtlantisDistribution.sol\":4017:4030  amount.div(2) */\n      tag_133\n        /* \"contracts/Distribution/AtlantisDistribution.sol\":4028:4029  2 */\n      0x02\n        /* \"contracts/Distribution/AtlantisDistribution.sol\":4017:4023  amount */\n      dup5\n        /* \"contracts/Distribution/AtlantisDistribution.sol\":4017:4027  amount.div */\n      tag_134\n      swap1\n        /* \"contracts/Distribution/AtlantisDistribution.sol\":4017:4030  amount.div(2) */\n      swap2\n      swap1\n      0xffffffff\n      and\n      jump\t// in\n    tag_133:\n        /* \"contracts/Distribution/AtlantisDistribution.sol\":4006:4011  total */\n      0x0b\n        /* \"contracts/Distribution/AtlantisDistribution.sol\":4012:4013  i */\n      dup4\n        /* \"contracts/Distribution/AtlantisDistribution.sol\":4006:4014  total[i] */\n      0xff\n      and\n      0x03\n      dup2\n      lt\n      tag_135\n      jumpi\n      tag_136\n      tag_137\n      jump\t// in\n    tag_136:\n    tag_135:\n      add\n      sload\n        /* \"contracts/Distribution/AtlantisDistribution.sol\":4006:4030  total[i] + amount.div(2) */\n      tag_139\n      swap2\n      swap1\n      tag_128\n      jump\t// in\n    tag_139:\n        /* \"contracts/Distribution/AtlantisDistribution.sol\":3988:3997  currentBC */\n      0x08\n        /* \"contracts/Distribution/AtlantisDistribution.sol\":3998:3999  i */\n      dup4\n        /* \"contracts/Distribution/AtlantisDistribution.sol\":3988:4000  currentBC[i] */\n      0xff\n      and\n      0x03\n      dup2\n      lt\n      tag_140\n      jumpi\n      tag_141\n      tag_137\n      jump\t// in\n    tag_141:\n    tag_140:\n      add\n      sload\n        /* \"contracts/Distribution/AtlantisDistribution.sol\":3988:4004  currentBC[i].mul */\n      tag_143\n      swap1\n        /* \"contracts/Distribution/AtlantisDistribution.sol\":3988:4032  currentBC[i].mul((total[i] + amount.div(2))) */\n      swap2\n      swap1\n      0xffffffff\n      and\n      jump\t// in\n    tag_132:\n        /* \"contracts/Distribution/AtlantisDistribution.sol\":3973:3982  currentBC */\n      0x08\n        /* \"contracts/Distribution/AtlantisDistribution.sol\":3983:3984  i */\n      dup3\n        /* \"contracts/Distribution/AtlantisDistribution.sol\":3973:3985  currentBC[i] */\n      0xff\n      and\n      0x03\n      dup2\n      lt\n      tag_144\n      jumpi\n      tag_145\n      tag_137\n      jump\t// in\n    tag_145:\n    tag_144:\n      add\n        /* \"contracts/Distribution/AtlantisDistribution.sol\":3973:4032  currentBC[i] = currentBC[i].mul((total[i] + amount.div(2))) */\n      dup2\n      swap1\n      sstore\n      pop\n        /* \"contracts/Distribution/AtlantisDistribution.sol\":4061:4087  currentBC[i].div(total[i]) */\n      tag_147\n        /* \"contracts/Distribution/AtlantisDistribution.sol\":4078:4083  total */\n      0x0b\n        /* \"contracts/Distribution/AtlantisDistribution.sol\":4084:4085  i */\n      dup3\n        /* \"contracts/Distribution/AtlantisDistribution.sol\":4078:4086  total[i] */\n      0xff\n      and\n      0x03\n      dup2\n      lt\n      tag_148\n      jumpi\n      tag_149\n      tag_137\n      jump\t// in\n    tag_149:\n    tag_148:\n      add\n      sload\n        /* \"contracts/Distribution/AtlantisDistribution.sol\":4061:4070  currentBC */\n      0x08\n        /* \"contracts/Distribution/AtlantisDistribution.sol\":4071:4072  i */\n      dup4\n        /* \"contracts/Distribution/AtlantisDistribution.sol\":4061:4073  currentBC[i] */\n      0xff\n      and\n      0x03\n      dup2\n      lt\n      tag_151\n      jumpi\n      tag_152\n      tag_137\n      jump\t// in\n    tag_152:\n    tag_151:\n      add\n      sload\n        /* \"contracts/Distribution/AtlantisDistribution.sol\":4061:4077  currentBC[i].div */\n      tag_134\n      swap1\n        /* \"contracts/Distribution/AtlantisDistribution.sol\":4061:4087  currentBC[i].div(total[i]) */\n      swap2\n      swap1\n      0xffffffff\n      and\n      jump\t// in\n    tag_147:\n        /* \"contracts/Distribution/AtlantisDistribution.sol\":4046:4055  currentBC */\n      0x08\n        /* \"contracts/Distribution/AtlantisDistribution.sol\":4056:4057  i */\n      dup3\n        /* \"contracts/Distribution/AtlantisDistribution.sol\":4046:4058  currentBC[i] */\n      0xff\n      and\n      0x03\n      dup2\n      lt\n      tag_154\n      jumpi\n      tag_155\n      tag_137\n      jump\t// in\n    tag_155:\n    tag_154:\n      add\n        /* \"contracts/Distribution/AtlantisDistribution.sol\":4046:4087  currentBC[i] = currentBC[i].div(total[i]) */\n      dup2\n      swap1\n      sstore\n      pop\n        /* \"contracts/Distribution/AtlantisDistribution.sol\":4122:4123  2 */\n      0x02\n        /* \"contracts/Distribution/AtlantisDistribution.sol\":4113:4119  amount */\n      dup3\n        /* \"contracts/Distribution/AtlantisDistribution.sol\":4113:4123  amount / 2 */\n      tag_157\n      swap2\n      swap1\n      tag_158\n      jump\t// in\n    tag_157:\n        /* \"contracts/Distribution/AtlantisDistribution.sol\":4101:4106  total */\n      0x0b\n        /* \"contracts/Distribution/AtlantisDistribution.sol\":4107:4108  i */\n      dup3\n        /* \"contracts/Distribution/AtlantisDistribution.sol\":4101:4109  total[i] */\n      0xff\n      and\n      0x03\n      dup2\n      lt\n      tag_159\n      jumpi\n      tag_160\n      tag_137\n      jump\t// in\n    tag_160:\n    tag_159:\n      add\n      0x00\n        /* \"contracts/Distribution/AtlantisDistribution.sol\":4101:4123  total[i] += amount / 2 */\n      dup3\n      dup3\n      sload\n      tag_162\n      swap2\n      swap1\n      tag_128\n      jump\t// in\n    tag_162:\n      swap3\n      pop\n      pop\n      dup2\n      swap1\n      sstore\n      pop\n        /* \"contracts/Distribution/AtlantisDistribution.sol\":3954:3957  i++ */\n      dup1\n      dup1\n      tag_163\n      swap1\n      tag_164\n      jump\t// in\n    tag_163:\n      swap2\n      pop\n      pop\n        /* \"contracts/Distribution/AtlantisDistribution.sol\":3928:4134  for (uint8 i = 1; i <= 2; i++) {... */\n      jump(tag_129)\n    tag_130:\n      pop\n        /* \"contracts/Distribution/AtlantisDistribution.sol\":4159:4165  amount */\n      dup1\n        /* \"contracts/Distribution/AtlantisDistribution.sol\":4143:4155  _totalSupply */\n      0x02\n      0x00\n        /* \"contracts/Distribution/AtlantisDistribution.sol\":4143:4165  _totalSupply += amount */\n      dup3\n      dup3\n      sload\n      tag_165\n      swap2\n      swap1\n      tag_128\n      jump\t// in\n    tag_165:\n      swap3\n      pop\n      pop\n      dup2\n      swap1\n      sstore\n      pop\n        /* \"contracts/Distribution/AtlantisDistribution.sol\":3680:4172  function mintToRS(address account, uint256 amount) external onlyOwner {... */\n      pop\n      pop\n      jump\t// out\n        /* \"contracts/Distribution/AtlantisDistribution.sol\":3085:3674  function mintToNRS(address account, uint256 amount) external onlyOwner {... */\n    tag_41:\n        /* \"@openzeppelin/contracts/access/Ownable.sol\":1196:1208  _msgSender() */\n      tag_167\n        /* \"@openzeppelin/contracts/access/Ownable.sol\":1196:1206  _msgSender */\n      tag_115\n        /* \"@openzeppelin/contracts/access/Ownable.sol\":1196:1208  _msgSender() */\n      jump\t// in\n    tag_167:\n        /* \"@openzeppelin/contracts/access/Ownable.sol\":1185:1208  owner() == _msgSender() */\n      0xffffffffffffffffffffffffffffffffffffffff\n      and\n        /* \"@openzeppelin/contracts/access/Ownable.sol\":1185:1192  owner() */\n      tag_168\n        /* \"@openzeppelin/contracts/access/Ownable.sol\":1185:1190  owner */\n      tag_71\n        /* \"@openzeppelin/contracts/access/Ownable.sol\":1185:1192  owner() */\n      jump\t// in\n    tag_168:\n        /* \"@openzeppelin/contracts/access/Ownable.sol\":1185:1208  owner() == _msgSender() */\n      0xffffffffffffffffffffffffffffffffffffffff\n      and\n      eq\n        /* \"@openzeppelin/contracts/access/Ownable.sol\":1177:1245  require(owner() == _msgSender(), \"Ownable: caller is not the owner\") */\n      tag_169\n      jumpi\n      mload(0x40)\n      0x08c379a000000000000000000000000000000000000000000000000000000000\n      dup2\n      mstore\n      0x04\n      add\n      tag_170\n      swap1\n      tag_122\n      jump\t// in\n    tag_170:\n      mload(0x40)\n      dup1\n      swap2\n      sub\n      swap1\n      revert\n    tag_169:\n        /* \"contracts/Distribution/AtlantisDistribution.sol\":3244:3245  0 */\n      0x00\n        /* \"contracts/Distribution/AtlantisDistribution.sol\":3228:3231  lvl */\n      0x07\n        /* \"contracts/Distribution/AtlantisDistribution.sol\":3228:3240  lvl[account] */\n      0x00\n        /* \"contracts/Distribution/AtlantisDistribution.sol\":3232:3239  account */\n      dup5\n        /* \"contracts/Distribution/AtlantisDistribution.sol\":3228:3240  lvl[account] */\n      0xffffffffffffffffffffffffffffffffffffffff\n      and\n      0xffffffffffffffffffffffffffffffffffffffff\n      and\n      dup2\n      mstore\n      0x20\n      add\n      swap1\n      dup2\n      mstore\n      0x20\n      add\n      0x00\n      keccak256\n      0x00\n      swap1\n      sload\n      swap1\n      0x0100\n      exp\n      swap1\n      div\n      0xff\n      and\n        /* \"contracts/Distribution/AtlantisDistribution.sol\":3228:3245  lvl[account] != 0 */\n      0xff\n      and\n      sub\n        /* \"contracts/Distribution/AtlantisDistribution.sol\":3220:3282  require(lvl[account] != 0, \"account is a regular shareholder\") */\n      tag_172\n      jumpi\n      mload(0x40)\n      0x08c379a000000000000000000000000000000000000000000000000000000000\n      dup2\n      mstore\n      0x04\n      add\n      tag_173\n      swap1\n      tag_174\n      jump\t// in\n    tag_173:\n      mload(0x40)\n      dup1\n      swap2\n      sub\n      swap1\n      revert\n    tag_172:\n        /* \"contracts/Distribution/AtlantisDistribution.sol\":3292:3313  relaxBalance(account) */\n      tag_175\n        /* \"contracts/Distribution/AtlantisDistribution.sol\":3305:3312  account */\n      dup3\n        /* \"contracts/Distribution/AtlantisDistribution.sol\":3292:3304  relaxBalance */\n      tag_176\n        /* \"contracts/Distribution/AtlantisDistribution.sol\":3292:3313  relaxBalance(account) */\n      jump\t// in\n    tag_175:\n        /* \"contracts/Distribution/AtlantisDistribution.sol\":3345:3351  amount */\n      dup1\n        /* \"contracts/Distribution/AtlantisDistribution.sol\":3323:3332  _balances */\n      0x00\n        /* \"contracts/Distribution/AtlantisDistribution.sol\":3323:3341  _balances[account] */\n      dup1\n        /* \"contracts/Distribution/AtlantisDistribution.sol\":3333:3340  account */\n      dup5\n        /* \"contracts/Distribution/AtlantisDistribution.sol\":3323:3341  _balances[account] */\n      0xffffffffffffffffffffffffffffffffffffffff\n      and\n      0xffffffffffffffffffffffffffffffffffffffff\n      and\n      dup2\n      mstore\n      0x20\n      add\n      swap1\n      dup2\n      mstore\n      0x20\n      add\n      0x00\n      keccak256\n      0x00\n        /* \"contracts/Distribution/AtlantisDistribution.sol\":3323:3351  _balances[account] += amount */\n      dup3\n      dup3\n      sload\n      tag_177\n      swap2\n      swap1\n      tag_128\n      jump\t// in\n    tag_177:\n      swap3\n      pop\n      pop\n      dup2\n      swap1\n      sstore\n      pop\n        /* \"contracts/Distribution/AtlantisDistribution.sol\":3387:3400  amount.mul(2) */\n      tag_178\n        /* \"contracts/Distribution/AtlantisDistribution.sol\":3398:3399  2 */\n      0x02\n        /* \"contracts/Distribution/AtlantisDistribution.sol\":3387:3393  amount */\n      dup3\n        /* \"contracts/Distribution/AtlantisDistribution.sol\":3387:3397  amount.mul */\n      tag_143\n      swap1\n        /* \"contracts/Distribution/AtlantisDistribution.sol\":3387:3400  amount.mul(2) */\n      swap2\n      swap1\n      0xffffffff\n      and\n      jump\t// in\n    tag_178:\n        /* \"contracts/Distribution/AtlantisDistribution.sol\":3361:3370  _balances */\n      0x00\n        /* \"contracts/Distribution/AtlantisDistribution.sol\":3361:3383  _balances[fund_wallet] */\n      dup1\n        /* \"contracts/Distribution/AtlantisDistribution.sol\":3371:3382  fund_wallet */\n      0x0e\n      0x00\n      swap1\n      sload\n      swap1\n      0x0100\n      exp\n      swap1\n      div\n      0xffffffffffffffffffffffffffffffffffffffff\n      and\n        /* \"contracts/Distribution/AtlantisDistribution.sol\":3361:3383  _balances[fund_wallet] */\n      0xffffffffffffffffffffffffffffffffffffffff\n      and\n      0xffffffffffffffffffffffffffffffffffffffff\n      and\n      dup2\n      mstore\n      0x20\n      add\n      swap1\n      dup2\n      mstore\n      0x20\n      add\n      0x00\n      keccak256\n      0x00\n        /* \"contracts/Distribution/AtlantisDistribution.sol\":3361:3400  _balances[fund_wallet] += amount.mul(2) */\n      dup3\n      dup3\n      sload\n      tag_179\n      swap2\n      swap1\n      tag_128\n      jump\t// in\n    tag_179:\n      swap3\n      pop\n      pop\n      dup2\n      swap1\n      sstore\n      pop\n        /* \"contracts/Distribution/AtlantisDistribution.sol\":3411:3422  uint8 other */\n      0x00\n        /* \"contracts/Distribution/AtlantisDistribution.sol\":3429:3432  lvl */\n      0x07\n        /* \"contracts/Distribution/AtlantisDistribution.sol\":3429:3441  lvl[account] */\n      0x00\n        /* \"contracts/Distribution/AtlantisDistribution.sol\":3433:3440  account */\n      dup5\n        /* \"contracts/Distribution/AtlantisDistribution.sol\":3429:3441  lvl[account] */\n      0xffffffffffffffffffffffffffffffffffffffff\n      and\n      0xffffffffffffffffffffffffffffffffffffffff\n      and\n      dup2\n      mstore\n      0x20\n      add\n      swap1\n      dup2\n      mstore\n      0x20\n      add\n      0x00\n      keccak256\n      0x00\n      swap1\n      sload\n      swap1\n      0x0100\n      exp\n      swap1\n      div\n      0xff\n      and\n        /* \"contracts/Distribution/AtlantisDistribution.sol\":3425:3426  1 */\n      0x01\n        /* \"contracts/Distribution/AtlantisDistribution.sol\":3425:3441  1 - lvl[account] */\n      tag_180\n      swap2\n      swap1\n      tag_181\n      jump\t// in\n    tag_180:\n        /* \"contracts/Distribution/AtlantisDistribution.sol\":3411:3441  uint8 other = 1 - lvl[account] */\n      swap1\n      pop\n        /* \"contracts/Distribution/AtlantisDistribution.sol\":3470:3515  currentBC[other].mul((total[other] + amount)) */\n      tag_182\n        /* \"contracts/Distribution/AtlantisDistribution.sol\":3507:3513  amount */\n      dup3\n        /* \"contracts/Distribution/AtlantisDistribution.sol\":3492:3497  total */\n      0x0b\n        /* \"contracts/Distribution/AtlantisDistribution.sol\":3498:3503  other */\n      dup4\n        /* \"contracts/Distribution/AtlantisDistribution.sol\":3492:3504  total[other] */\n      0xff\n      and\n      0x03\n      dup2\n      lt\n      tag_183\n      jumpi\n      tag_184\n      tag_137\n      jump\t// in\n    tag_184:\n    tag_183:\n      add\n      sload\n        /* \"contracts/Distribution/AtlantisDistribution.sol\":3492:3513  total[other] + amount */\n      tag_186\n      swap2\n      swap1\n      tag_128\n      jump\t// in\n    tag_186:\n        /* \"contracts/Distribution/AtlantisDistribution.sol\":3470:3479  currentBC */\n      0x08\n        /* \"contracts/Distribution/AtlantisDistribution.sol\":3480:3485  other */\n      dup4\n        /* \"contracts/Distribution/AtlantisDistribution.sol\":3470:3486  currentBC[other] */\n      0xff\n      and\n      0x03\n      dup2\n      lt\n      tag_187\n      jumpi\n      tag_188\n      tag_137\n      jump\t// in\n    tag_188:\n    tag_187:\n      add\n      sload\n        /* \"contracts/Distribution/AtlantisDistribution.sol\":3470:3490  currentBC[other].mul */\n      tag_143\n      swap1\n        /* \"contracts/Distribution/AtlantisDistribution.sol\":3470:3515  currentBC[other].mul((total[other] + amount)) */\n      swap2\n      swap1\n      0xffffffff\n      and\n      jump\t// in\n    tag_182:\n        /* \"contracts/Distribution/AtlantisDistribution.sol\":3451:3460  currentBC */\n      0x08\n        /* \"contracts/Distribution/AtlantisDistribution.sol\":3461:3466  other */\n      dup3\n        /* \"contracts/Distribution/AtlantisDistribution.sol\":3451:3467  currentBC[other] */\n      0xff\n      and\n      0x03\n      dup2\n      lt\n      tag_190\n      jumpi\n      tag_191\n      tag_137\n      jump\t// in\n    tag_191:\n    tag_190:\n      add\n        /* \"contracts/Distribution/AtlantisDistribution.sol\":3451:3515  currentBC[other] = currentBC[other].mul((total[other] + amount)) */\n      dup2\n      swap1\n      sstore\n      pop\n        /* \"contracts/Distribution/AtlantisDistribution.sol\":3544:3578  currentBC[other].div(total[other]) */\n      tag_193\n        /* \"contracts/Distribution/AtlantisDistribution.sol\":3565:3570  total */\n      0x0b\n        /* \"contracts/Distribution/AtlantisDistribution.sol\":3571:3576  other */\n      dup3\n        /* \"contracts/Distribution/AtlantisDistribution.sol\":3565:3577  total[other] */\n      0xff\n      and\n      0x03\n      dup2\n      lt\n      tag_194\n      jumpi\n      tag_195\n      tag_137\n      jump\t// in\n    tag_195:\n    tag_194:\n      add\n      sload\n        /* \"contracts/Distribution/AtlantisDistribution.sol\":3544:3553  currentBC */\n      0x08\n        /* \"contracts/Distribution/AtlantisDistribution.sol\":3554:3559  other */\n      dup4\n        /* \"contracts/Distribution/AtlantisDistribution.sol\":3544:3560  currentBC[other] */\n      0xff\n      and\n      0x03\n      dup2\n      lt\n      tag_197\n      jumpi\n      tag_198\n      tag_137\n      jump\t// in\n    tag_198:\n    tag_197:\n      add\n      sload\n        /* \"contracts/Distribution/AtlantisDistribution.sol\":3544:3564  currentBC[other].div */\n      tag_134\n      swap1\n        /* \"contracts/Distribution/AtlantisDistribution.sol\":3544:3578  currentBC[other].div(total[other]) */\n      swap2\n      swap1\n      0xffffffff\n      and\n      jump\t// in\n    tag_193:\n        /* \"contracts/Distribution/AtlantisDistribution.sol\":3525:3534  currentBC */\n      0x08\n        /* \"contracts/Distribution/AtlantisDistribution.sol\":3535:3540  other */\n      dup3\n        /* \"contracts/Distribution/AtlantisDistribution.sol\":3525:3541  currentBC[other] */\n      0xff\n      and\n      0x03\n      dup2\n      lt\n      tag_200\n      jumpi\n      tag_201\n      tag_137\n      jump\t// in\n    tag_201:\n    tag_200:\n      add\n        /* \"contracts/Distribution/AtlantisDistribution.sol\":3525:3578  currentBC[other] = currentBC[other].div(total[other]) */\n      dup2\n      swap1\n      sstore\n      pop\n        /* \"contracts/Distribution/AtlantisDistribution.sol\":3600:3606  amount */\n      dup2\n        /* \"contracts/Distribution/AtlantisDistribution.sol\":3588:3593  total */\n      0x0b\n        /* \"contracts/Distribution/AtlantisDistribution.sol\":3594:3595  1 */\n      0x01\n        /* \"contracts/Distribution/AtlantisDistribution.sol\":3588:3596  total[1] */\n      0x03\n      dup2\n      lt\n      tag_203\n      jumpi\n      tag_204\n      tag_137\n      jump\t// in\n    tag_204:\n    tag_203:\n      add\n      0x00\n        /* \"contracts/Distribution/AtlantisDistribution.sol\":3588:3606  total[1] += amount */\n      dup3\n      dup3\n      sload\n      tag_206\n      swap2\n      swap1\n      tag_128\n      jump\t// in\n    tag_206:\n      swap3\n      pop\n      pop\n      dup2\n      swap1\n      sstore\n      pop\n        /* \"contracts/Distribution/AtlantisDistribution.sol\":3628:3634  amount */\n      dup2\n        /* \"contracts/Distribution/AtlantisDistribution.sol\":3616:3621  total */\n      0x0b\n        /* \"contracts/Distribution/AtlantisDistribution.sol\":3622:3623  2 */\n      0x02\n        /* \"contracts/Distribution/AtlantisDistribution.sol\":3616:3624  total[2] */\n      0x03\n      dup2\n      lt\n      tag_207\n      jumpi\n      tag_208\n      tag_137\n      jump\t// in\n    tag_208:\n    tag_207:\n      add\n      0x00\n        /* \"contracts/Distribution/AtlantisDistribution.sol\":3616:3634  total[2] += amount */\n      dup3\n      dup3\n      sload\n      tag_210\n      swap2\n      swap1\n      tag_128\n      jump\t// in\n    tag_210:\n      swap3\n      pop\n      pop\n      dup2\n      swap1\n      sstore\n      pop\n        /* \"contracts/Distribution/AtlantisDistribution.sol\":3661:3667  amount */\n      dup2\n        /* \"contracts/Distribution/AtlantisDistribution.sol\":3645:3657  _totalSupply */\n      0x02\n      0x00\n        /* \"contracts/Distribution/AtlantisDistribution.sol\":3645:3667  _totalSupply += amount */\n      dup3\n      dup3\n      sload\n      tag_211\n      swap2\n      swap1\n      tag_128\n      jump\t// in\n    tag_211:\n      swap3\n      pop\n      pop\n      dup2\n      swap1\n      sstore\n      pop\n        /* \"contracts/Distribution/AtlantisDistribution.sol\":3156:3674  {... */\n      pop\n        /* \"contracts/Distribution/AtlantisDistribution.sol\":3085:3674  function mintToNRS(address account, uint256 amount) external onlyOwner {... */\n      pop\n      pop\n      jump\t// out\n        /* \"contracts/Distribution/WrappedERC20Token.sol\":3118:3224  function totalSupply() public view virtual override returns (uint256) {... */\n    tag_43:\n        /* \"contracts/Distribution/WrappedERC20Token.sol\":3179:3186  uint256 */\n      0x00\n        /* \"contracts/Distribution/WrappedERC20Token.sol\":3205:3217  _totalSupply */\n      sload(0x02)\n        /* \"contracts/Distribution/WrappedERC20Token.sol\":3198:3217  return _totalSupply */\n      swap1\n      pop\n        /* \"contracts/Distribution/WrappedERC20Token.sol\":3118:3224  function totalSupply() public view virtual override returns (uint256) {... */\n      swap1\n      jump\t// out\n        /* \"contracts/Distribution/AtlantisDistribution.sol\":4178:4325  function transferFrom(address sender, address recipient, uint256 amount) public override returns (bool) {... */\n    tag_49:\n        /* \"contracts/Distribution/AtlantisDistribution.sol\":4276:4280  bool */\n      0x00\n        /* \"contracts/Distribution/AtlantisDistribution.sol\":4314:4318  true */\n      0x01\n        /* \"contracts/Distribution/AtlantisDistribution.sol\":4307:4318  return true */\n      swap1\n      pop\n        /* \"contracts/Distribution/AtlantisDistribution.sol\":4178:4325  function transferFrom(address sender, address recipient, uint256 amount) public override returns (bool) {... */\n      swap4\n      swap3\n      pop\n      pop\n      pop\n      jump\t// out\n        /* \"contracts/Distribution/WrappedERC20Token.sol\":2976:3058  function decimals() public view virtual returns (uint8) {... */\n    tag_52:\n        /* \"contracts/Distribution/WrappedERC20Token.sol\":3025:3030  uint8 */\n      0x00\n        /* \"contracts/Distribution/WrappedERC20Token.sol\":3049:3051  18 */\n      0x12\n        /* \"contracts/Distribution/WrappedERC20Token.sol\":3042:3051  return 18 */\n      swap1\n      pop\n        /* \"contracts/Distribution/WrappedERC20Token.sol\":2976:3058  function decimals() public view virtual returns (uint8) {... */\n      swap1\n      jump\t// out\n        /* \"contracts/Distribution/WrappedERC20Token.sol\":5569:5781  function increaseAllowance(address spender, uint256 addedValue) public virtual returns (bool) {... */\n    tag_57:\n        /* \"contracts/Distribution/WrappedERC20Token.sol\":5657:5661  bool */\n      0x00\n        /* \"contracts/Distribution/WrappedERC20Token.sol\":5673:5753  _approve(_msgSender(), spender, _allowances[_msgSender()][spender] + addedValue) */\n      tag_216\n        /* \"contracts/Distribution/WrappedERC20Token.sol\":5682:5694  _msgSender() */\n      tag_217\n        /* \"contracts/Distribution/WrappedERC20Token.sol\":5682:5692  _msgSender */\n      tag_115\n        /* \"contracts/Distribution/WrappedERC20Token.sol\":5682:5694  _msgSender() */\n      jump\t// in\n    tag_217:\n        /* \"contracts/Distribution/WrappedERC20Token.sol\":5696:5703  spender */\n      dup5\n        /* \"contracts/Distribution/WrappedERC20Token.sol\":5742:5752  addedValue */\n      dup5\n        /* \"contracts/Distribution/WrappedERC20Token.sol\":5705:5716  _allowances */\n      0x01\n        /* \"contracts/Distribution/WrappedERC20Token.sol\":5705:5730  _allowances[_msgSender()] */\n      0x00\n        /* \"contracts/Distribution/WrappedERC20Token.sol\":5717:5729  _msgSender() */\n      tag_218\n        /* \"contracts/Distribution/WrappedERC20Token.sol\":5717:5727  _msgSender */\n      tag_115\n        /* \"contracts/Distribution/WrappedERC20Token.sol\":5717:5729  _msgSender() */\n      jump\t// in\n    tag_218:\n        /* \"contracts/Distribution/WrappedERC20Token.sol\":5705:5730  _allowances[_msgSender()] */\n      0xffffffffffffffffffffffffffffffffffffffff\n      and\n      0xffffffffffffffffffffffffffffffffffffffff\n      and\n      dup2\n      mstore\n      0x20\n      add\n      swap1\n      dup2\n      mstore\n      0x20\n      add\n      0x00\n      keccak256\n        /* \"contracts/Distribution/WrappedERC20Token.sol\":5705:5739  _allowances[_msgSender()][spender] */\n      0x00\n        /* \"contracts/Distribution/WrappedERC20Token.sol\":5731:5738  spender */\n      dup9\n        /* \"contracts/Distribution/WrappedERC20Token.sol\":5705:5739  _allowances[_msgSender()][spender] */\n      0xffffffffffffffffffffffffffffffffffffffff\n      and\n      0xffffffffffffffffffffffffffffffffffffffff\n      and\n      dup2\n      mstore\n      0x20\n      add\n      swap1\n      dup2\n      mstore\n      0x20\n      add\n      0x00\n      keccak256\n      sload\n        /* \"contracts/Distribution/WrappedERC20Token.sol\":5705:5752  _allowances[_msgSender()][spender] + addedValue */\n      tag_219\n      swap2\n      swap1\n      tag_128\n      jump\t// in\n    tag_219:\n        /* \"contracts/Distribution/WrappedERC20Token.sol\":5673:5681  _approve */\n      tag_116\n        /* \"contracts/Distribution/WrappedERC20Token.sol\":5673:5753  _approve(_msgSender(), spender, _allowances[_msgSender()][spender] + addedValue) */\n      jump\t// in\n    tag_216:\n        /* \"contracts/Distribution/WrappedERC20Token.sol\":5770:5774  true */\n      0x01\n        /* \"contracts/Distribution/WrappedERC20Token.sol\":5763:5774  return true */\n      swap1\n      pop\n        /* \"contracts/Distribution/WrappedERC20Token.sol\":5569:5781  function increaseAllowance(address spender, uint256 addedValue) public virtual returns (bool) {... */\n      swap3\n      swap2\n      pop\n      pop\n      jump\t// out\n        /* \"contracts/Distribution/AtlantisDistribution.sol\":1332:1567  function balanceOf(address account) public view override returns (uint256) {... */\n    tag_62:\n        /* \"contracts/Distribution/AtlantisDistribution.sol\":1398:1405  uint256 */\n      0x00\n        /* \"contracts/Distribution/AtlantisDistribution.sol\":1437:1438  0 */\n      dup1\n        /* \"contracts/Distribution/AtlantisDistribution.sol\":1421:1424  lvl */\n      0x07\n        /* \"contracts/Distribution/AtlantisDistribution.sol\":1421:1433  lvl[account] */\n      0x00\n        /* \"contracts/Distribution/AtlantisDistribution.sol\":1425:1432  account */\n      dup5\n        /* \"contracts/Distribution/AtlantisDistribution.sol\":1421:1433  lvl[account] */\n      0xffffffffffffffffffffffffffffffffffffffff\n      and\n      0xffffffffffffffffffffffffffffffffffffffff\n      and\n      dup2\n      mstore\n      0x20\n      add\n      swap1\n      dup2\n      mstore\n      0x20\n      add\n      0x00\n      keccak256\n      0x00\n      swap1\n      sload\n      swap1\n      0x0100\n      exp\n      swap1\n      div\n      0xff\n      and\n        /* \"contracts/Distribution/AtlantisDistribution.sol\":1421:1438  lvl[account] == 0 */\n      0xff\n      and\n      sub\n        /* \"contracts/Distribution/AtlantisDistribution.sol\":1417:1477  if (lvl[account] == 0)... */\n      tag_221\n      jumpi\n        /* \"contracts/Distribution/AtlantisDistribution.sol\":1459:1468  _balances */\n      0x00\n        /* \"contracts/Distribution/AtlantisDistribution.sol\":1459:1477  _balances[account] */\n      dup1\n        /* \"contracts/Distribution/AtlantisDistribution.sol\":1469:1476  account */\n      dup4\n        /* \"contracts/Distribution/AtlantisDistribution.sol\":1459:1477  _balances[account] */\n      0xffffffffffffffffffffffffffffffffffffffff\n      and\n      0xffffffffffffffffffffffffffffffffffffffff\n      and\n      dup2\n      mstore\n      0x20\n      add\n      swap1\n      dup2\n      mstore\n      0x20\n      add\n      0x00\n      keccak256\n      sload\n        /* \"contracts/Distribution/AtlantisDistribution.sol\":1452:1477  return _balances[account] */\n      swap1\n      pop\n      jump(tag_220)\n        /* \"contracts/Distribution/AtlantisDistribution.sol\":1417:1477  if (lvl[account] == 0)... */\n    tag_221:\n        /* \"contracts/Distribution/AtlantisDistribution.sol\":1494:1560  (currentBC[lvl[account]].mul(_balances[account])).div(BC[account]) */\n      tag_222\n        /* \"contracts/Distribution/AtlantisDistribution.sol\":1548:1550  BC */\n      0x06\n        /* \"contracts/Distribution/AtlantisDistribution.sol\":1548:1559  BC[account] */\n      0x00\n        /* \"contracts/Distribution/AtlantisDistribution.sol\":1551:1558  account */\n      dup5\n        /* \"contracts/Distribution/AtlantisDistribution.sol\":1548:1559  BC[account] */\n      0xffffffffffffffffffffffffffffffffffffffff\n      and\n      0xffffffffffffffffffffffffffffffffffffffff\n      and\n      dup2\n      mstore\n      0x20\n      add\n      swap1\n      dup2\n      mstore\n      0x20\n      add\n      0x00\n      keccak256\n      sload\n        /* \"contracts/Distribution/AtlantisDistribution.sol\":1495:1542  currentBC[lvl[account]].mul(_balances[account]) */\n      tag_223\n        /* \"contracts/Distribution/AtlantisDistribution.sol\":1523:1532  _balances */\n      0x00\n        /* \"contracts/Distribution/AtlantisDistribution.sol\":1523:1541  _balances[account] */\n      dup1\n        /* \"contracts/Distribution/AtlantisDistribution.sol\":1533:1540  account */\n      dup7\n        /* \"contracts/Distribution/AtlantisDistribution.sol\":1523:1541  _balances[account] */\n      0xffffffffffffffffffffffffffffffffffffffff\n      and\n      0xffffffffffffffffffffffffffffffffffffffff\n      and\n      dup2\n      mstore\n      0x20\n      add\n      swap1\n      dup2\n      mstore\n      0x20\n      add\n      0x00\n      keccak256\n      sload\n        /* \"contracts/Distribution/AtlantisDistribution.sol\":1495:1504  currentBC */\n      0x08\n        /* \"contracts/Distribution/AtlantisDistribution.sol\":1505:1508  lvl */\n      0x07\n        /* \"contracts/Distribution/AtlantisDistribution.sol\":1505:1517  lvl[account] */\n      0x00\n        /* \"contracts/Distribution/AtlantisDistribution.sol\":1509:1516  account */\n      dup9\n        /* \"contracts/Distribution/AtlantisDistribution.sol\":1505:1517  lvl[account] */\n      0xffffffffffffffffffffffffffffffffffffffff\n      and\n      0xffffffffffffffffffffffffffffffffffffffff\n      and\n      dup2\n      mstore\n      0x20\n      add\n      swap1\n      dup2\n      mstore\n      0x20\n      add\n      0x00\n      keccak256\n      0x00\n      swap1\n      sload\n      swap1\n      0x0100\n      exp\n      swap1\n      div\n      0xff\n      and\n        /* \"contracts/Distribution/AtlantisDistribution.sol\":1495:1518  currentBC[lvl[account]] */\n      0xff\n      and\n      0x03\n      dup2\n      lt\n      tag_224\n      jumpi\n      tag_225\n      tag_137\n      jump\t// in\n    tag_225:\n    tag_224:\n      add\n      sload\n        /* \"contracts/Distribution/AtlantisDistribution.sol\":1495:1522  currentBC[lvl[account]].mul */\n      tag_143\n      swap1\n        /* \"contracts/Distribution/AtlantisDistribution.sol\":1495:1542  currentBC[lvl[account]].mul(_balances[account]) */\n      swap2\n      swap1\n      0xffffffff\n      and\n      jump\t// in\n    tag_223:\n        /* \"contracts/Distribution/AtlantisDistribution.sol\":1494:1547  (currentBC[lvl[account]].mul(_balances[account])).div */\n      tag_134\n      swap1\n        /* \"contracts/Distribution/AtlantisDistribution.sol\":1494:1560  (currentBC[lvl[account]].mul(_balances[account])).div(BC[account]) */\n      swap2\n      swap1\n      0xffffffff\n      and\n      jump\t// in\n    tag_222:\n        /* \"contracts/Distribution/AtlantisDistribution.sol\":1487:1560  return (currentBC[lvl[account]].mul(_balances[account])).div(BC[account]) */\n      swap1\n      pop\n        /* \"contracts/Distribution/AtlantisDistribution.sol\":1332:1567  function balanceOf(address account) public view override returns (uint256) {... */\n    tag_220:\n      swap2\n      swap1\n      pop\n      jump\t// out\n        /* \"@openzeppelin/contracts/access/Ownable.sol\":1605:1697  function renounceOwnership() public virtual onlyOwner {... */\n    tag_65:\n        /* \"@openzeppelin/contracts/access/Ownable.sol\":1196:1208  _msgSender() */\n      tag_228\n        /* \"@openzeppelin/contracts/access/Ownable.sol\":1196:1206  _msgSender */\n      tag_115\n        /* \"@openzeppelin/contracts/access/Ownable.sol\":1196:1208  _msgSender() */\n      jump\t// in\n    tag_228:\n        /* \"@openzeppelin/contracts/access/Ownable.sol\":1185:1208  owner() == _msgSender() */\n      0xffffffffffffffffffffffffffffffffffffffff\n      and\n        /* \"@openzeppelin/contracts/access/Ownable.sol\":1185:1192  owner() */\n      tag_229\n        /* \"@openzeppelin/contracts/access/Ownable.sol\":1185:1190  owner */\n      tag_71\n        /* \"@openzeppelin/contracts/access/Ownable.sol\":1185:1192  owner() */\n      jump\t// in\n    tag_229:\n        /* \"@openzeppelin/contracts/access/Ownable.sol\":1185:1208  owner() == _msgSender() */\n      0xffffffffffffffffffffffffffffffffffffffff\n      and\n      eq\n        /* \"@openzeppelin/contracts/access/Ownable.sol\":1177:1245  require(owner() == _msgSender(), \"Ownable: caller is not the owner\") */\n      tag_230\n      jumpi\n      mload(0x40)\n      0x08c379a000000000000000000000000000000000000000000000000000000000\n      dup2\n      mstore\n      0x04\n      add\n      tag_231\n      swap1\n      tag_122\n      jump\t// in\n    tag_231:\n      mload(0x40)\n      dup1\n      swap2\n      sub\n      swap1\n      revert\n    tag_230:\n        /* \"@openzeppelin/contracts/access/Ownable.sol\":1669:1690  _setOwner(address(0)) */\n      tag_233\n        /* \"@openzeppelin/contracts/access/Ownable.sol\":1687:1688  0 */\n      0x00\n        /* \"@openzeppelin/contracts/access/Ownable.sol\":1669:1678  _setOwner */\n      tag_234\n        /* \"@openzeppelin/contracts/access/Ownable.sol\":1669:1690  _setOwner(address(0)) */\n      jump\t// in\n    tag_233:\n        /* \"@openzeppelin/contracts/access/Ownable.sol\":1605:1697  function renounceOwnership() public virtual onlyOwner {... */\n      jump\t// out\n        /* \"contracts/Distribution/AtlantisDistribution.sol\":580:617  mapping (address => uint8) public lvl */\n    tag_68:\n      mstore(0x20, 0x07)\n      dup1\n      0x00\n      mstore\n      keccak256(0x00, 0x40)\n      0x00\n      swap2\n      pop\n      sload\n      swap1\n      0x0100\n      exp\n      swap1\n      div\n      0xff\n      and\n      dup2\n      jump\t// out\n        /* \"@openzeppelin/contracts/access/Ownable.sol\":973:1058  function owner() public view virtual returns (address) {... */\n    tag_71:\n        /* \"@openzeppelin/contracts/access/Ownable.sol\":1019:1026  address */\n      0x00\n        /* \"@openzeppelin/contracts/access/Ownable.sol\":1045:1051  _owner */\n      0x05\n      0x00\n      swap1\n      sload\n      swap1\n      0x0100\n      exp\n      swap1\n      div\n      0xffffffffffffffffffffffffffffffffffffffff\n      and\n        /* \"@openzeppelin/contracts/access/Ownable.sol\":1038:1051  return _owner */\n      swap1\n      pop\n        /* \"@openzeppelin/contracts/access/Ownable.sol\":973:1058  function owner() public view virtual returns (address) {... */\n      swap1\n      jump\t// out\n        /* \"contracts/Distribution/WrappedERC20Token.sol\":2259:2352  function symbol() public view virtual returns (string memory) {... */\n    tag_75:\n        /* \"contracts/Distribution/WrappedERC20Token.sol\":2306:2319  string memory */\n      0x60\n        /* \"contracts/Distribution/WrappedERC20Token.sol\":2338:2345  _symbol */\n      0x04\n        /* \"contracts/Distribution/WrappedERC20Token.sol\":2331:2345  return _symbol */\n      dup1\n      sload\n      tag_237\n      swap1\n      tag_107\n      jump\t// in\n    tag_237:\n      dup1\n      0x1f\n      add\n      0x20\n      dup1\n      swap2\n      div\n      mul\n      0x20\n      add\n      mload(0x40)\n      swap1\n      dup2\n      add\n      0x40\n      mstore\n      dup1\n      swap3\n      swap2\n      swap1\n      dup2\n      dup2\n      mstore\n      0x20\n      add\n      dup3\n      dup1\n      sload\n      tag_238\n      swap1\n      tag_107\n      jump\t// in\n    tag_238:\n      dup1\n      iszero\n      tag_239\n      jumpi\n      dup1\n      0x1f\n      lt\n      tag_240\n      jumpi\n      0x0100\n      dup1\n      dup4\n      sload\n      div\n      mul\n      dup4\n      mstore\n      swap2\n      0x20\n      add\n      swap2\n      jump(tag_239)\n    tag_240:\n      dup3\n      add\n      swap2\n      swap1\n      0x00\n      mstore\n      keccak256(0x00, 0x20)\n      swap1\n    tag_241:\n      dup2\n      sload\n      dup2\n      mstore\n      swap1\n      0x01\n      add\n      swap1\n      0x20\n      add\n      dup1\n      dup4\n      gt\n      tag_241\n      jumpi\n      dup3\n      swap1\n      sub\n      0x1f\n      and\n      dup3\n      add\n      swap2\n    tag_239:\n      pop\n      pop\n      pop\n      pop\n      pop\n      swap1\n      pop\n        /* \"contracts/Distribution/WrappedERC20Token.sol\":2259:2352  function symbol() public view virtual returns (string memory) {... */\n      swap1\n      jump\t// out\n        /* \"contracts/Distribution/AtlantisDistribution.sol\":1829:2422  function mint(uint256 amount) external onlyOwner {... */\n    tag_80:\n        /* \"@openzeppelin/contracts/access/Ownable.sol\":1196:1208  _msgSender() */\n      tag_243\n        /* \"@openzeppelin/contracts/access/Ownable.sol\":1196:1206  _msgSender */\n      tag_115\n        /* \"@openzeppelin/contracts/access/Ownable.sol\":1196:1208  _msgSender() */\n      jump\t// in\n    tag_243:\n        /* \"@openzeppelin/contracts/access/Ownable.sol\":1185:1208  owner() == _msgSender() */\n      0xffffffffffffffffffffffffffffffffffffffff\n      and\n        /* \"@openzeppelin/contracts/access/Ownable.sol\":1185:1192  owner() */\n      tag_244\n        /* \"@openzeppelin/contracts/access/Ownable.sol\":1185:1190  owner */\n      tag_71\n        /* \"@openzeppelin/contracts/access/Ownable.sol\":1185:1192  owner() */\n      jump\t// in\n    tag_244:\n        /* \"@openzeppelin/contracts/access/Ownable.sol\":1185:1208  owner() == _msgSender() */\n      0xffffffffffffffffffffffffffffffffffffffff\n      and\n      eq\n        /* \"@openzeppelin/contracts/access/Ownable.sol\":1177:1245  require(owner() == _msgSender(), \"Ownable: caller is not the owner\") */\n      tag_245\n      jumpi\n      mload(0x40)\n      0x08c379a000000000000000000000000000000000000000000000000000000000\n      dup2\n      mstore\n      0x04\n      add\n      tag_246\n      swap1\n      tag_122\n      jump\t// in\n    tag_246:\n      mload(0x40)\n      dup1\n      swap2\n      sub\n      swap1\n      revert\n    tag_245:\n        /* \"contracts/Distribution/AtlantisDistribution.sol\":1958:1959  0 */\n      0x00\n        /* \"contracts/Distribution/AtlantisDistribution.sol\":1946:1951  total */\n      0x0b\n        /* \"contracts/Distribution/AtlantisDistribution.sol\":1952:1953  2 */\n      0x02\n        /* \"contracts/Distribution/AtlantisDistribution.sol\":1946:1954  total[2] */\n      0x03\n      dup2\n      lt\n      tag_248\n      jumpi\n      tag_249\n      tag_137\n      jump\t// in\n    tag_249:\n    tag_248:\n      add\n      sload\n        /* \"contracts/Distribution/AtlantisDistribution.sol\":1946:1959  total[2] != 0 */\n      eq\n        /* \"contracts/Distribution/AtlantisDistribution.sol\":1942:2100  if (total[2] != 0) {... */\n      tag_251\n      jumpi\n        /* \"contracts/Distribution/AtlantisDistribution.sol\":1990:2034  currentBC[2].mul((total[2] + amount.div(4))) */\n      tag_252\n        /* \"contracts/Distribution/AtlantisDistribution.sol\":2019:2032  amount.div(4) */\n      tag_253\n        /* \"contracts/Distribution/AtlantisDistribution.sol\":2030:2031  4 */\n      0x04\n        /* \"contracts/Distribution/AtlantisDistribution.sol\":2019:2025  amount */\n      dup4\n        /* \"contracts/Distribution/AtlantisDistribution.sol\":2019:2029  amount.div */\n      tag_134\n      swap1\n        /* \"contracts/Distribution/AtlantisDistribution.sol\":2019:2032  amount.div(4) */\n      swap2\n      swap1\n      0xffffffff\n      and\n      jump\t// in\n    tag_253:\n        /* \"contracts/Distribution/AtlantisDistribution.sol\":2008:2013  total */\n      0x0b\n        /* \"contracts/Distribution/AtlantisDistribution.sol\":2014:2015  2 */\n      0x02\n        /* \"contracts/Distribution/AtlantisDistribution.sol\":2008:2016  total[2] */\n      0x03\n      dup2\n      lt\n      tag_254\n      jumpi\n      tag_255\n      tag_137\n      jump\t// in\n    tag_255:\n    tag_254:\n      add\n      sload\n        /* \"contracts/Distribution/AtlantisDistribution.sol\":2008:2032  total[2] + amount.div(4) */\n      tag_257\n      swap2\n      swap1\n      tag_128\n      jump\t// in\n    tag_257:\n        /* \"contracts/Distribution/AtlantisDistribution.sol\":1990:1999  currentBC */\n      0x08\n        /* \"contracts/Distribution/AtlantisDistribution.sol\":2000:2001  2 */\n      0x02\n        /* \"contracts/Distribution/AtlantisDistribution.sol\":1990:2002  currentBC[2] */\n      0x03\n      dup2\n      lt\n      tag_258\n      jumpi\n      tag_259\n      tag_137\n      jump\t// in\n    tag_259:\n    tag_258:\n      add\n      sload\n        /* \"contracts/Distribution/AtlantisDistribution.sol\":1990:2006  currentBC[2].mul */\n      tag_143\n      swap1\n        /* \"contracts/Distribution/AtlantisDistribution.sol\":1990:2034  currentBC[2].mul((total[2] + amount.div(4))) */\n      swap2\n      swap1\n      0xffffffff\n      and\n      jump\t// in\n    tag_252:\n        /* \"contracts/Distribution/AtlantisDistribution.sol\":1975:1984  currentBC */\n      0x08\n        /* \"contracts/Distribution/AtlantisDistribution.sol\":1985:1986  2 */\n      0x02\n        /* \"contracts/Distribution/AtlantisDistribution.sol\":1975:1987  currentBC[2] */\n      0x03\n      dup2\n      lt\n      tag_261\n      jumpi\n      tag_262\n      tag_137\n      jump\t// in\n    tag_262:\n    tag_261:\n      add\n        /* \"contracts/Distribution/AtlantisDistribution.sol\":1975:2034  currentBC[2] = currentBC[2].mul((total[2] + amount.div(4))) */\n      dup2\n      swap1\n      sstore\n      pop\n        /* \"contracts/Distribution/AtlantisDistribution.sol\":2063:2089  currentBC[2].div(total[2]) */\n      tag_264\n        /* \"contracts/Distribution/AtlantisDistribution.sol\":2080:2085  total */\n      0x0b\n        /* \"contracts/Distribution/AtlantisDistribution.sol\":2086:2087  2 */\n      0x02\n        /* \"contracts/Distribution/AtlantisDistribution.sol\":2080:2088  total[2] */\n      0x03\n      dup2\n      lt\n      tag_265\n      jumpi\n      tag_266\n      tag_137\n      jump\t// in\n    tag_266:\n    tag_265:\n      add\n      sload\n        /* \"contracts/Distribution/AtlantisDistribution.sol\":2063:2072  currentBC */\n      0x08\n        /* \"contracts/Distribution/AtlantisDistribution.sol\":2073:2074  2 */\n      0x02\n        /* \"contracts/Distribution/AtlantisDistribution.sol\":2063:2075  currentBC[2] */\n      0x03\n      dup2\n      lt\n      tag_268\n      jumpi\n      tag_269\n      tag_137\n      jump\t// in\n    tag_269:\n    tag_268:\n      add\n      sload\n        /* \"contracts/Distribution/AtlantisDistribution.sol\":2063:2079  currentBC[2].div */\n      tag_134\n      swap1\n        /* \"contracts/Distribution/AtlantisDistribution.sol\":2063:2089  currentBC[2].div(total[2]) */\n      swap2\n      swap1\n      0xffffffff\n      and\n      jump\t// in\n    tag_264:\n        /* \"contracts/Distribution/AtlantisDistribution.sol\":2048:2057  currentBC */\n      0x08\n        /* \"contracts/Distribution/AtlantisDistribution.sol\":2058:2059  2 */\n      0x02\n        /* \"contracts/Distribution/AtlantisDistribution.sol\":2048:2060  currentBC[2] */\n      0x03\n      dup2\n      lt\n      tag_271\n      jumpi\n      tag_272\n      tag_137\n      jump\t// in\n    tag_272:\n    tag_271:\n      add\n        /* \"contracts/Distribution/AtlantisDistribution.sol\":2048:2089  currentBC[2] = currentBC[2].div(total[2]) */\n      dup2\n      swap1\n      sstore\n      pop\n        /* \"contracts/Distribution/AtlantisDistribution.sol\":1942:2100  if (total[2] != 0) {... */\n    tag_251:\n        /* \"contracts/Distribution/AtlantisDistribution.sol\":2125:2126  0 */\n      0x00\n        /* \"contracts/Distribution/AtlantisDistribution.sol\":2113:2118  total */\n      0x0b\n        /* \"contracts/Distribution/AtlantisDistribution.sol\":2119:2120  1 */\n      0x01\n        /* \"contracts/Distribution/AtlantisDistribution.sol\":2113:2121  total[1] */\n      0x03\n      dup2\n      lt\n      tag_274\n      jumpi\n      tag_275\n      tag_137\n      jump\t// in\n    tag_275:\n    tag_274:\n      add\n      sload\n        /* \"contracts/Distribution/AtlantisDistribution.sol\":2113:2126  total[1] != 0 */\n      eq\n        /* \"contracts/Distribution/AtlantisDistribution.sol\":2109:2267  if (total[1] != 0) {... */\n      tag_277\n      jumpi\n        /* \"contracts/Distribution/AtlantisDistribution.sol\":2157:2201  currentBC[1].mul((total[1] + amount.div(4))) */\n      tag_278\n        /* \"contracts/Distribution/AtlantisDistribution.sol\":2186:2199  amount.div(4) */\n      tag_279\n        /* \"contracts/Distribution/AtlantisDistribution.sol\":2197:2198  4 */\n      0x04\n        /* \"contracts/Distribution/AtlantisDistribution.sol\":2186:2192  amount */\n      dup4\n        /* \"contracts/Distribution/AtlantisDistribution.sol\":2186:2196  amount.div */\n      tag_134\n      swap1\n        /* \"contracts/Distribution/AtlantisDistribution.sol\":2186:2199  amount.div(4) */\n      swap2\n      swap1\n      0xffffffff\n      and\n      jump\t// in\n    tag_279:\n        /* \"contracts/Distribution/AtlantisDistribution.sol\":2175:2180  total */\n      0x0b\n        /* \"contracts/Distribution/AtlantisDistribution.sol\":2181:2182  1 */\n      0x01\n        /* \"contracts/Distribution/AtlantisDistribution.sol\":2175:2183  total[1] */\n      0x03\n      dup2\n      lt\n      tag_280\n      jumpi\n      tag_281\n      tag_137\n      jump\t// in\n    tag_281:\n    tag_280:\n      add\n      sload\n        /* \"contracts/Distribution/AtlantisDistribution.sol\":2175:2199  total[1] + amount.div(4) */\n      tag_283\n      swap2\n      swap1\n      tag_128\n      jump\t// in\n    tag_283:\n        /* \"contracts/Distribution/AtlantisDistribution.sol\":2157:2166  currentBC */\n      0x08\n        /* \"contracts/Distribution/AtlantisDistribution.sol\":2167:2168  1 */\n      0x01\n        /* \"contracts/Distribution/AtlantisDistribution.sol\":2157:2169  currentBC[1] */\n      0x03\n      dup2\n      lt\n      tag_284\n      jumpi\n      tag_285\n      tag_137\n      jump\t// in\n    tag_285:\n    tag_284:\n      add\n      sload\n        /* \"contracts/Distribution/AtlantisDistribution.sol\":2157:2173  currentBC[1].mul */\n      tag_143\n      swap1\n        /* \"contracts/Distribution/AtlantisDistribution.sol\":2157:2201  currentBC[1].mul((total[1] + amount.div(4))) */\n      swap2\n      swap1\n      0xffffffff\n      and\n      jump\t// in\n    tag_278:\n        /* \"contracts/Distribution/AtlantisDistribution.sol\":2142:2151  currentBC */\n      0x08\n        /* \"contracts/Distribution/AtlantisDistribution.sol\":2152:2153  1 */\n      0x01\n        /* \"contracts/Distribution/AtlantisDistribution.sol\":2142:2154  currentBC[1] */\n      0x03\n      dup2\n      lt\n      tag_287\n      jumpi\n      tag_288\n      tag_137\n      jump\t// in\n    tag_288:\n    tag_287:\n      add\n        /* \"contracts/Distribution/AtlantisDistribution.sol\":2142:2201  currentBC[1] = currentBC[1].mul((total[1] + amount.div(4))) */\n      dup2\n      swap1\n      sstore\n      pop\n        /* \"contracts/Distribution/AtlantisDistribution.sol\":2230:2256  currentBC[1].div(total[1]) */\n      tag_290\n        /* \"contracts/Distribution/AtlantisDistribution.sol\":2247:2252  total */\n      0x0b\n        /* \"contracts/Distribution/AtlantisDistribution.sol\":2253:2254  1 */\n      0x01\n        /* \"contracts/Distribution/AtlantisDistribution.sol\":2247:2255  total[1] */\n      0x03\n      dup2\n      lt\n      tag_291\n      jumpi\n      tag_292\n      tag_137\n      jump\t// in\n    tag_292:\n    tag_291:\n      add\n      sload\n        /* \"contracts/Distribution/AtlantisDistribution.sol\":2230:2239  currentBC */\n      0x08\n        /* \"contracts/Distribution/AtlantisDistribution.sol\":2240:2241  1 */\n      0x01\n        /* \"contracts/Distribution/AtlantisDistribution.sol\":2230:2242  currentBC[1] */\n      0x03\n      dup2\n      lt\n      tag_294\n      jumpi\n      tag_295\n      tag_137\n      jump\t// in\n    tag_295:\n    tag_294:\n      add\n      sload\n        /* \"contracts/Distribution/AtlantisDistribution.sol\":2230:2246  currentBC[1].div */\n      tag_134\n      swap1\n        /* \"contracts/Distribution/AtlantisDistribution.sol\":2230:2256  currentBC[1].div(total[1]) */\n      swap2\n      swap1\n      0xffffffff\n      and\n      jump\t// in\n    tag_290:\n        /* \"contracts/Distribution/AtlantisDistribution.sol\":2215:2224  currentBC */\n      0x08\n        /* \"contracts/Distribution/AtlantisDistribution.sol\":2225:2226  1 */\n      0x01\n        /* \"contracts/Distribution/AtlantisDistribution.sol\":2215:2227  currentBC[1] */\n      0x03\n      dup2\n      lt\n      tag_297\n      jumpi\n      tag_298\n      tag_137\n      jump\t// in\n    tag_298:\n    tag_297:\n      add\n        /* \"contracts/Distribution/AtlantisDistribution.sol\":2215:2256  currentBC[1] = currentBC[1].div(total[1]) */\n      dup2\n      swap1\n      sstore\n      pop\n        /* \"contracts/Distribution/AtlantisDistribution.sol\":2109:2267  if (total[1] != 0) {... */\n    tag_277:\n        /* \"contracts/Distribution/AtlantisDistribution.sol\":2311:2312  2 */\n      0x02\n        /* \"contracts/Distribution/AtlantisDistribution.sol\":2302:2308  amount */\n      dup2\n        /* \"contracts/Distribution/AtlantisDistribution.sol\":2302:2312  amount / 2 */\n      tag_300\n      swap2\n      swap1\n      tag_158\n      jump\t// in\n    tag_300:\n        /* \"contracts/Distribution/AtlantisDistribution.sol\":2276:2285  _balances */\n      0x00\n        /* \"contracts/Distribution/AtlantisDistribution.sol\":2276:2298  _balances[fund_wallet] */\n      dup1\n        /* \"contracts/Distribution/AtlantisDistribution.sol\":2286:2297  fund_wallet */\n      0x0e\n      0x00\n      swap1\n      sload\n      swap1\n      0x0100\n      exp\n      swap1\n      div\n      0xffffffffffffffffffffffffffffffffffffffff\n      and\n        /* \"contracts/Distribution/AtlantisDistribution.sol\":2276:2298  _balances[fund_wallet] */\n      0xffffffffffffffffffffffffffffffffffffffff\n      and\n      0xffffffffffffffffffffffffffffffffffffffff\n      and\n      dup2\n      mstore\n      0x20\n      add\n      swap1\n      dup2\n      mstore\n      0x20\n      add\n      0x00\n      keccak256\n      0x00\n        /* \"contracts/Distribution/AtlantisDistribution.sol\":2276:2312  _balances[fund_wallet] += amount / 2 */\n      dup3\n      dup3\n      sload\n      tag_301\n      swap2\n      swap1\n      tag_128\n      jump\t// in\n    tag_301:\n      swap3\n      pop\n      pop\n      dup2\n      swap1\n      sstore\n      pop\n        /* \"contracts/Distribution/AtlantisDistribution.sol\":2334:2347  amount.div(4) */\n      tag_302\n        /* \"contracts/Distribution/AtlantisDistribution.sol\":2345:2346  4 */\n      0x04\n        /* \"contracts/Distribution/AtlantisDistribution.sol\":2334:2340  amount */\n      dup3\n        /* \"contracts/Distribution/AtlantisDistribution.sol\":2334:2344  amount.div */\n      tag_134\n      swap1\n        /* \"contracts/Distribution/AtlantisDistribution.sol\":2334:2347  amount.div(4) */\n      swap2\n      swap1\n      0xffffffff\n      and\n      jump\t// in\n    tag_302:\n        /* \"contracts/Distribution/AtlantisDistribution.sol\":2322:2327  total */\n      0x0b\n        /* \"contracts/Distribution/AtlantisDistribution.sol\":2328:2329  1 */\n      0x01\n        /* \"contracts/Distribution/AtlantisDistribution.sol\":2322:2330  total[1] */\n      0x03\n      dup2\n      lt\n      tag_303\n      jumpi\n      tag_304\n      tag_137\n      jump\t// in\n    tag_304:\n    tag_303:\n      add\n      0x00\n        /* \"contracts/Distribution/AtlantisDistribution.sol\":2322:2347  total[1] += amount.div(4) */\n      dup3\n      dup3\n      sload\n      tag_306\n      swap2\n      swap1\n      tag_128\n      jump\t// in\n    tag_306:\n      swap3\n      pop\n      pop\n      dup2\n      swap1\n      sstore\n      pop\n        /* \"contracts/Distribution/AtlantisDistribution.sol\":2369:2382  amount.div(4) */\n      tag_307\n        /* \"contracts/Distribution/AtlantisDistribution.sol\":2380:2381  4 */\n      0x04\n        /* \"contracts/Distribution/AtlantisDistribution.sol\":2369:2375  amount */\n      dup3\n        /* \"contracts/Distribution/AtlantisDistribution.sol\":2369:2379  amount.div */\n      tag_134\n      swap1\n        /* \"contracts/Distribution/AtlantisDistribution.sol\":2369:2382  amount.div(4) */\n      swap2\n      swap1\n      0xffffffff\n      and\n      jump\t// in\n    tag_307:\n        /* \"contracts/Distribution/AtlantisDistribution.sol\":2357:2362  total */\n      0x0b\n        /* \"contracts/Distribution/AtlantisDistribution.sol\":2363:2364  2 */\n      0x02\n        /* \"contracts/Distribution/AtlantisDistribution.sol\":2357:2365  total[2] */\n      0x03\n      dup2\n      lt\n      tag_308\n      jumpi\n      tag_309\n      tag_137\n      jump\t// in\n    tag_309:\n    tag_308:\n      add\n      0x00\n        /* \"contracts/Distribution/AtlantisDistribution.sol\":2357:2382  total[2] += amount.div(4) */\n      dup3\n      dup3\n      sload\n      tag_311\n      swap2\n      swap1\n      tag_128\n      jump\t// in\n    tag_311:\n      swap3\n      pop\n      pop\n      dup2\n      swap1\n      sstore\n      pop\n        /* \"contracts/Distribution/AtlantisDistribution.sol\":2409:2415  amount */\n      dup1\n        /* \"contracts/Distribution/AtlantisDistribution.sol\":2393:2405  _totalSupply */\n      0x02\n      0x00\n        /* \"contracts/Distribution/AtlantisDistribution.sol\":2393:2415  _totalSupply += amount */\n      dup3\n      dup3\n      sload\n      tag_312\n      swap2\n      swap1\n      tag_128\n      jump\t// in\n    tag_312:\n      swap3\n      pop\n      pop\n      dup2\n      swap1\n      sstore\n      pop\n        /* \"contracts/Distribution/AtlantisDistribution.sol\":1829:2422  function mint(uint256 amount) external onlyOwner {... */\n      pop\n      jump\t// out\n        /* \"contracts/Distribution/AtlantisDistribution.sol\":2773:3079  function changeLvl(address account, uint8 newLvl) external onlyOwner {... */\n    tag_84:\n        /* \"@openzeppelin/contracts/access/Ownable.sol\":1196:1208  _msgSender() */\n      tag_314\n        /* \"@openzeppelin/contracts/access/Ownable.sol\":1196:1206  _msgSender */\n      tag_115\n        /* \"@openzeppelin/contracts/access/Ownable.sol\":1196:1208  _msgSender() */\n      jump\t// in\n    tag_314:\n        /* \"@openzeppelin/contracts/access/Ownable.sol\":1185:1208  owner() == _msgSender() */\n      0xffffffffffffffffffffffffffffffffffffffff\n      and\n        /* \"@openzeppelin/contracts/access/Ownable.sol\":1185:1192  owner() */\n      tag_315\n        /* \"@openzeppelin/contracts/access/Ownable.sol\":1185:1190  owner */\n      tag_71\n        /* \"@openzeppelin/contracts/access/Ownable.sol\":1185:1192  owner() */\n      jump\t// in\n    tag_315:\n        /* \"@openzeppelin/contracts/access/Ownable.sol\":1185:1208  owner() == _msgSender() */\n      0xffffffffffffffffffffffffffffffffffffffff\n      and\n      eq\n        /* \"@openzeppelin/contracts/access/Ownable.sol\":1177:1245  require(owner() == _msgSender(), \"Ownable: caller is not the owner\") */\n      tag_316\n      jumpi\n      mload(0x40)\n      0x08c379a000000000000000000000000000000000000000000000000000000000\n      dup2\n      mstore\n      0x04\n      add\n      tag_317\n      swap1\n      tag_122\n      jump\t// in\n    tag_317:\n      mload(0x40)\n      dup1\n      swap2\n      sub\n      swap1\n      revert\n    tag_316:\n        /* \"contracts/Distribution/AtlantisDistribution.sol\":2852:2873  relaxBalance(account) */\n      tag_319\n        /* \"contracts/Distribution/AtlantisDistribution.sol\":2865:2872  account */\n      dup3\n        /* \"contracts/Distribution/AtlantisDistribution.sol\":2852:2864  relaxBalance */\n      tag_176\n        /* \"contracts/Distribution/AtlantisDistribution.sol\":2852:2873  relaxBalance(account) */\n      jump\t// in\n    tag_319:\n        /* \"contracts/Distribution/AtlantisDistribution.sol\":2883:2895  uint8 oldLvl */\n      0x00\n        /* \"contracts/Distribution/AtlantisDistribution.sol\":2898:2901  lvl */\n      0x07\n        /* \"contracts/Distribution/AtlantisDistribution.sol\":2898:2910  lvl[account] */\n      0x00\n        /* \"contracts/Distribution/AtlantisDistribution.sol\":2902:2909  account */\n      dup5\n        /* \"contracts/Distribution/AtlantisDistribution.sol\":2898:2910  lvl[account] */\n      0xffffffffffffffffffffffffffffffffffffffff\n      and\n      0xffffffffffffffffffffffffffffffffffffffff\n      and\n      dup2\n      mstore\n      0x20\n      add\n      swap1\n      dup2\n      mstore\n      0x20\n      add\n      0x00\n      keccak256\n      0x00\n      swap1\n      sload\n      swap1\n      0x0100\n      exp\n      swap1\n      div\n      0xff\n      and\n        /* \"contracts/Distribution/AtlantisDistribution.sol\":2883:2910  uint8 oldLvl = lvl[account] */\n      swap1\n      pop\n        /* \"contracts/Distribution/AtlantisDistribution.sol\":2935:2941  newLvl */\n      dup2\n        /* \"contracts/Distribution/AtlantisDistribution.sol\":2920:2923  lvl */\n      0x07\n        /* \"contracts/Distribution/AtlantisDistribution.sol\":2920:2932  lvl[account] */\n      0x00\n        /* \"contracts/Distribution/AtlantisDistribution.sol\":2924:2931  account */\n      dup6\n        /* \"contracts/Distribution/AtlantisDistribution.sol\":2920:2932  lvl[account] */\n      0xffffffffffffffffffffffffffffffffffffffff\n      and\n      0xffffffffffffffffffffffffffffffffffffffff\n      and\n      dup2\n      mstore\n      0x20\n      add\n      swap1\n      dup2\n      mstore\n      0x20\n      add\n      0x00\n      keccak256\n      0x00\n        /* \"contracts/Distribution/AtlantisDistribution.sol\":2920:2941  lvl[account] = newLvl */\n      0x0100\n      exp\n      dup2\n      sload\n      dup2\n      0xff\n      mul\n      not\n      and\n      swap1\n      dup4\n      0xff\n      and\n      mul\n      or\n      swap1\n      sstore\n      pop\n        /* \"contracts/Distribution/AtlantisDistribution.sol\":2968:2977  _balances */\n      0x00\n        /* \"contracts/Distribution/AtlantisDistribution.sol\":2968:2986  _balances[account] */\n      dup1\n        /* \"contracts/Distribution/AtlantisDistribution.sol\":2978:2985  account */\n      dup5\n        /* \"contracts/Distribution/AtlantisDistribution.sol\":2968:2986  _balances[account] */\n      0xffffffffffffffffffffffffffffffffffffffff\n      and\n      0xffffffffffffffffffffffffffffffffffffffff\n      and\n      dup2\n      mstore\n      0x20\n      add\n      swap1\n      dup2\n      mstore\n      0x20\n      add\n      0x00\n      keccak256\n      sload\n        /* \"contracts/Distribution/AtlantisDistribution.sol\":2951:2956  total */\n      0x0b\n        /* \"contracts/Distribution/AtlantisDistribution.sol\":2957:2963  oldLvl */\n      dup3\n        /* \"contracts/Distribution/AtlantisDistribution.sol\":2951:2964  total[oldLvl] */\n      0xff\n      and\n      0x03\n      dup2\n      lt\n      tag_320\n      jumpi\n      tag_321\n      tag_137\n      jump\t// in\n    tag_321:\n    tag_320:\n      add\n      0x00\n        /* \"contracts/Distribution/AtlantisDistribution.sol\":2951:2986  total[oldLvl] -= _balances[account] */\n      dup3\n      dup3\n      sload\n      tag_323\n      swap2\n      swap1\n      tag_324\n      jump\t// in\n    tag_323:\n      swap3\n      pop\n      pop\n      dup2\n      swap1\n      sstore\n      pop\n        /* \"contracts/Distribution/AtlantisDistribution.sol\":3013:3022  _balances */\n      0x00\n        /* \"contracts/Distribution/AtlantisDistribution.sol\":3013:3031  _balances[account] */\n      dup1\n        /* \"contracts/Distribution/AtlantisDistribution.sol\":3023:3030  account */\n      dup5\n        /* \"contracts/Distribution/AtlantisDistribution.sol\":3013:3031  _balances[account] */\n      0xffffffffffffffffffffffffffffffffffffffff\n      and\n      0xffffffffffffffffffffffffffffffffffffffff\n      and\n      dup2\n      mstore\n      0x20\n      add\n      swap1\n      dup2\n      mstore\n      0x20\n      add\n      0x00\n      keccak256\n      sload\n        /* \"contracts/Distribution/AtlantisDistribution.sol\":2996:3001  total */\n      0x0b\n        /* \"contracts/Distribution/AtlantisDistribution.sol\":3002:3008  newLvl */\n      dup4\n        /* \"contracts/Distribution/AtlantisDistribution.sol\":2996:3009  total[newLvl] */\n      0xff\n      and\n      0x03\n      dup2\n      lt\n      tag_325\n      jumpi\n      tag_326\n      tag_137\n      jump\t// in\n    tag_326:\n    tag_325:\n      add\n      0x00\n        /* \"contracts/Distribution/AtlantisDistribution.sol\":2996:3031  total[newLvl] += _balances[account] */\n      dup3\n      dup3\n      sload\n      tag_328\n      swap2\n      swap1\n      tag_128\n      jump\t// in\n    tag_328:\n      swap3\n      pop\n      pop\n      dup2\n      swap1\n      sstore\n      pop\n        /* \"contracts/Distribution/AtlantisDistribution.sol\":3055:3064  currentBC */\n      0x08\n        /* \"contracts/Distribution/AtlantisDistribution.sol\":3065:3071  newLvl */\n      dup3\n        /* \"contracts/Distribution/AtlantisDistribution.sol\":3055:3072  currentBC[newLvl] */\n      0xff\n      and\n      0x03\n      dup2\n      lt\n      tag_329\n      jumpi\n      tag_330\n      tag_137\n      jump\t// in\n    tag_330:\n    tag_329:\n      add\n      sload\n        /* \"contracts/Distribution/AtlantisDistribution.sol\":3041:3043  BC */\n      0x06\n        /* \"contracts/Distribution/AtlantisDistribution.sol\":3041:3052  BC[account] */\n      0x00\n        /* \"contracts/Distribution/AtlantisDistribution.sol\":3044:3051  account */\n      dup6\n        /* \"contracts/Distribution/AtlantisDistribution.sol\":3041:3052  BC[account] */\n      0xffffffffffffffffffffffffffffffffffffffff\n      and\n      0xffffffffffffffffffffffffffffffffffffffff\n      and\n      dup2\n      mstore\n      0x20\n      add\n      swap1\n      dup2\n      mstore\n      0x20\n      add\n      0x00\n      keccak256\n        /* \"contracts/Distribution/AtlantisDistribution.sol\":3041:3072  BC[account] = currentBC[newLvl] */\n      dup2\n      swap1\n      sstore\n      pop\n        /* \"contracts/Distribution/AtlantisDistribution.sol\":2842:3079  {... */\n      pop\n        /* \"contracts/Distribution/AtlantisDistribution.sol\":2773:3079  function changeLvl(address account, uint8 newLvl) external onlyOwner {... */\n      pop\n      pop\n      jump\t// out\n        /* \"contracts/Distribution/WrappedERC20Token.sol\":6268:6639  function decreaseAllowance(address spender, uint256 subtractedValue) public virtual returns (bool) {... */\n    tag_87:\n        /* \"contracts/Distribution/WrappedERC20Token.sol\":6361:6365  bool */\n      0x00\n        /* \"contracts/Distribution/WrappedERC20Token.sol\":6377:6401  uint256 currentAllowance */\n      dup1\n        /* \"contracts/Distribution/WrappedERC20Token.sol\":6404:6415  _allowances */\n      0x01\n        /* \"contracts/Distribution/WrappedERC20Token.sol\":6404:6429  _allowances[_msgSender()] */\n      0x00\n        /* \"contracts/Distribution/WrappedERC20Token.sol\":6416:6428  _msgSender() */\n      tag_333\n        /* \"contracts/Distribution/WrappedERC20Token.sol\":6416:6426  _msgSender */\n      tag_115\n        /* \"contracts/Distribution/WrappedERC20Token.sol\":6416:6428  _msgSender() */\n      jump\t// in\n    tag_333:\n        /* \"contracts/Distribution/WrappedERC20Token.sol\":6404:6429  _allowances[_msgSender()] */\n      0xffffffffffffffffffffffffffffffffffffffff\n      and\n      0xffffffffffffffffffffffffffffffffffffffff\n      and\n      dup2\n      mstore\n      0x20\n      add\n      swap1\n      dup2\n      mstore\n      0x20\n      add\n      0x00\n      keccak256\n        /* \"contracts/Distribution/WrappedERC20Token.sol\":6404:6438  _allowances[_msgSender()][spender] */\n      0x00\n        /* \"contracts/Distribution/WrappedERC20Token.sol\":6430:6437  spender */\n      dup6\n        /* \"contracts/Distribution/WrappedERC20Token.sol\":6404:6438  _allowances[_msgSender()][spender] */\n      0xffffffffffffffffffffffffffffffffffffffff\n      and\n      0xffffffffffffffffffffffffffffffffffffffff\n      and\n      dup2\n      mstore\n      0x20\n      add\n      swap1\n      dup2\n      mstore\n      0x20\n      add\n      0x00\n      keccak256\n      sload\n        /* \"contracts/Distribution/WrappedERC20Token.sol\":6377:6438  uint256 currentAllowance = _allowances[_msgSender()][spender] */\n      swap1\n      pop\n        /* \"contracts/Distribution/WrappedERC20Token.sol\":6476:6491  subtractedValue */\n      dup3\n        /* \"contracts/Distribution/WrappedERC20Token.sol\":6456:6472  currentAllowance */\n      dup2\n        /* \"contracts/Distribution/WrappedERC20Token.sol\":6456:6491  currentAllowance >= subtractedValue */\n      lt\n      iszero\n        /* \"contracts/Distribution/WrappedERC20Token.sol\":6448:6533  require(currentAllowance >= subtractedValue, \"ERC20: decreased allowance below zero\") */\n      tag_334\n      jumpi\n      mload(0x40)\n      0x08c379a000000000000000000000000000000000000000000000000000000000\n      dup2\n      mstore\n      0x04\n      add\n      tag_335\n      swap1\n      tag_336\n      jump\t// in\n    tag_335:\n      mload(0x40)\n      dup1\n      swap2\n      sub\n      swap1\n      revert\n    tag_334:\n        /* \"contracts/Distribution/WrappedERC20Token.sol\":6543:6610  _approve(_msgSender(), spender, currentAllowance - subtractedValue) */\n      tag_337\n        /* \"contracts/Distribution/WrappedERC20Token.sol\":6552:6564  _msgSender() */\n      tag_338\n        /* \"contracts/Distribution/WrappedERC20Token.sol\":6552:6562  _msgSender */\n      tag_115\n        /* \"contracts/Distribution/WrappedERC20Token.sol\":6552:6564  _msgSender() */\n      jump\t// in\n    tag_338:\n        /* \"contracts/Distribution/WrappedERC20Token.sol\":6566:6573  spender */\n      dup6\n        /* \"contracts/Distribution/WrappedERC20Token.sol\":6594:6609  subtractedValue */\n      dup6\n        /* \"contracts/Distribution/WrappedERC20Token.sol\":6575:6591  currentAllowance */\n      dup5\n        /* \"contracts/Distribution/WrappedERC20Token.sol\":6575:6609  currentAllowance - subtractedValue */\n      tag_339\n      swap2\n      swap1\n      tag_324\n      jump\t// in\n    tag_339:\n        /* \"contracts/Distribution/WrappedERC20Token.sol\":6543:6551  _approve */\n      tag_116\n        /* \"contracts/Distribution/WrappedERC20Token.sol\":6543:6610  _approve(_msgSender(), spender, currentAllowance - subtractedValue) */\n      jump\t// in\n    tag_337:\n        /* \"contracts/Distribution/WrappedERC20Token.sol\":6628:6632  true */\n      0x01\n        /* \"contracts/Distribution/WrappedERC20Token.sol\":6621:6632  return true */\n      swap2\n      pop\n      pop\n        /* \"contracts/Distribution/WrappedERC20Token.sol\":6268:6639  function decreaseAllowance(address spender, uint256 subtractedValue) public virtual returns (bool) {... */\n      swap3\n      swap2\n      pop\n      pop\n      jump\t// out\n        /* \"contracts/Distribution/AtlantisDistribution.sol\":2428:2767  function transfer(address recipient, uint256 amount) public override returns (bool) {... */\n    tag_91:\n        /* \"contracts/Distribution/AtlantisDistribution.sol\":2506:2510  bool */\n      0x00\n        /* \"contracts/Distribution/AtlantisDistribution.sol\":2522:2536  address sender */\n      dup1\n        /* \"contracts/Distribution/AtlantisDistribution.sol\":2539:2551  _msgSender() */\n      tag_341\n        /* \"contracts/Distribution/AtlantisDistribution.sol\":2539:2549  _msgSender */\n      tag_115\n        /* \"contracts/Distribution/AtlantisDistribution.sol\":2539:2551  _msgSender() */\n      jump\t// in\n    tag_341:\n        /* \"contracts/Distribution/AtlantisDistribution.sol\":2522:2551  address sender = _msgSender() */\n      swap1\n      pop\n        /* \"contracts/Distribution/AtlantisDistribution.sol\":2561:2581  relaxBalance(sender) */\n      tag_342\n        /* \"contracts/Distribution/AtlantisDistribution.sol\":2574:2580  sender */\n      dup2\n        /* \"contracts/Distribution/AtlantisDistribution.sol\":2561:2573  relaxBalance */\n      tag_176\n        /* \"contracts/Distribution/AtlantisDistribution.sol\":2561:2581  relaxBalance(sender) */\n      jump\t// in\n    tag_342:\n        /* \"contracts/Distribution/AtlantisDistribution.sol\":2591:2614  relaxBalance(recipient) */\n      tag_343\n        /* \"contracts/Distribution/AtlantisDistribution.sol\":2604:2613  recipient */\n      dup5\n        /* \"contracts/Distribution/AtlantisDistribution.sol\":2591:2603  relaxBalance */\n      tag_176\n        /* \"contracts/Distribution/AtlantisDistribution.sol\":2591:2614  relaxBalance(recipient) */\n      jump\t// in\n    tag_343:\n        /* \"contracts/Distribution/AtlantisDistribution.sol\":2646:2652  amount */\n      dup3\n        /* \"contracts/Distribution/AtlantisDistribution.sol\":2624:2629  total */\n      0x0b\n        /* \"contracts/Distribution/AtlantisDistribution.sol\":2630:2633  lvl */\n      0x07\n        /* \"contracts/Distribution/AtlantisDistribution.sol\":2630:2641  lvl[sender] */\n      0x00\n        /* \"contracts/Distribution/AtlantisDistribution.sol\":2634:2640  sender */\n      dup5\n        /* \"contracts/Distribution/AtlantisDistribution.sol\":2630:2641  lvl[sender] */\n      0xffffffffffffffffffffffffffffffffffffffff\n      and\n      0xffffffffffffffffffffffffffffffffffffffff\n      and\n      dup2\n      mstore\n      0x20\n      add\n      swap1\n      dup2\n      mstore\n      0x20\n      add\n      0x00\n      keccak256\n      0x00\n      swap1\n      sload\n      swap1\n      0x0100\n      exp\n      swap1\n      div\n      0xff\n      and\n        /* \"contracts/Distribution/AtlantisDistribution.sol\":2624:2642  total[lvl[sender]] */\n      0xff\n      and\n      0x03\n      dup2\n      lt\n      tag_344\n      jumpi\n      tag_345\n      tag_137\n      jump\t// in\n    tag_345:\n    tag_344:\n      add\n      0x00\n        /* \"contracts/Distribution/AtlantisDistribution.sol\":2624:2652  total[lvl[sender]] -= amount */\n      dup3\n      dup3\n      sload\n      tag_347\n      swap2\n      swap1\n      tag_324\n      jump\t// in\n    tag_347:\n      swap3\n      pop\n      pop\n      dup2\n      swap1\n      sstore\n      pop\n        /* \"contracts/Distribution/AtlantisDistribution.sol\":2687:2693  amount */\n      dup3\n        /* \"contracts/Distribution/AtlantisDistribution.sol\":2662:2667  total */\n      0x0b\n        /* \"contracts/Distribution/AtlantisDistribution.sol\":2668:2671  lvl */\n      0x07\n        /* \"contracts/Distribution/AtlantisDistribution.sol\":2668:2682  lvl[recipient] */\n      0x00\n        /* \"contracts/Distribution/AtlantisDistribution.sol\":2672:2681  recipient */\n      dup8\n        /* \"contracts/Distribution/AtlantisDistribution.sol\":2668:2682  lvl[recipient] */\n      0xffffffffffffffffffffffffffffffffffffffff\n      and\n      0xffffffffffffffffffffffffffffffffffffffff\n      and\n      dup2\n      mstore\n      0x20\n      add\n      swap1\n      dup2\n      mstore\n      0x20\n      add\n      0x00\n      keccak256\n      0x00\n      swap1\n      sload\n      swap1\n      0x0100\n      exp\n      swap1\n      div\n      0xff\n      and\n        /* \"contracts/Distribution/AtlantisDistribution.sol\":2662:2683  total[lvl[recipient]] */\n      0xff\n      and\n      0x03\n      dup2\n      lt\n      tag_348\n      jumpi\n      tag_349\n      tag_137\n      jump\t// in\n    tag_349:\n    tag_348:\n      add\n      0x00\n        /* \"contracts/Distribution/AtlantisDistribution.sol\":2662:2693  total[lvl[recipient]] += amount */\n      dup3\n      dup3\n      sload\n      tag_351\n      swap2\n      swap1\n      tag_128\n      jump\t// in\n    tag_351:\n      swap3\n      pop\n      pop\n      dup2\n      swap1\n      sstore\n      pop\n        /* \"contracts/Distribution/AtlantisDistribution.sol\":2703:2739  _transfer(sender, recipient, amount) */\n      tag_352\n        /* \"contracts/Distribution/AtlantisDistribution.sol\":2713:2719  sender */\n      dup2\n        /* \"contracts/Distribution/AtlantisDistribution.sol\":2721:2730  recipient */\n      dup6\n        /* \"contracts/Distribution/AtlantisDistribution.sol\":2732:2738  amount */\n      dup6\n        /* \"contracts/Distribution/AtlantisDistribution.sol\":2703:2712  _transfer */\n      tag_353\n        /* \"contracts/Distribution/AtlantisDistribution.sol\":2703:2739  _transfer(sender, recipient, amount) */\n      jump\t// in\n    tag_352:\n        /* \"contracts/Distribution/AtlantisDistribution.sol\":2756:2760  true */\n      0x01\n        /* \"contracts/Distribution/AtlantisDistribution.sol\":2749:2760  return true */\n      swap2\n      pop\n      pop\n        /* \"contracts/Distribution/AtlantisDistribution.sol\":2428:2767  function transfer(address recipient, uint256 amount) public override returns (bool) {... */\n      swap3\n      swap2\n      pop\n      pop\n      jump\t// out\n        /* \"contracts/Distribution/WrappedERC20Token.sol\":3840:3989  function allowance(address owner, address spender) public view virtual override returns (uint256) {... */\n    tag_96:\n        /* \"contracts/Distribution/WrappedERC20Token.sol\":3929:3936  uint256 */\n      0x00\n        /* \"contracts/Distribution/WrappedERC20Token.sol\":3955:3966  _allowances */\n      0x01\n        /* \"contracts/Distribution/WrappedERC20Token.sol\":3955:3973  _allowances[owner] */\n      0x00\n        /* \"contracts/Distribution/WrappedERC20Token.sol\":3967:3972  owner */\n      dup5\n        /* \"contracts/Distribution/WrappedERC20Token.sol\":3955:3973  _allowances[owner] */\n      0xffffffffffffffffffffffffffffffffffffffff\n      and\n      0xffffffffffffffffffffffffffffffffffffffff\n      and\n      dup2\n      mstore\n      0x20\n      add\n      swap1\n      dup2\n      mstore\n      0x20\n      add\n      0x00\n      keccak256\n        /* \"contracts/Distribution/WrappedERC20Token.sol\":3955:3982  _allowances[owner][spender] */\n      0x00\n        /* \"contracts/Distribution/WrappedERC20Token.sol\":3974:3981  spender */\n      dup4\n        /* \"contracts/Distribution/WrappedERC20Token.sol\":3955:3982  _allowances[owner][spender] */\n      0xffffffffffffffffffffffffffffffffffffffff\n      and\n      0xffffffffffffffffffffffffffffffffffffffff\n      and\n      dup2\n      mstore\n      0x20\n      add\n      swap1\n      dup2\n      mstore\n      0x20\n      add\n      0x00\n      keccak256\n      sload\n        /* \"contracts/Distribution/WrappedERC20Token.sol\":3948:3982  return _allowances[owner][spender] */\n      swap1\n      pop\n        /* \"contracts/Distribution/WrappedERC20Token.sol\":3840:3989  function allowance(address owner, address spender) public view virtual override returns (uint256) {... */\n      swap3\n      swap2\n      pop\n      pop\n      jump\t// out\n        /* \"@openzeppelin/contracts/access/Ownable.sol\":1846:2035  function transferOwnership(address newOwner) public virtual onlyOwner {... */\n    tag_100:\n        /* \"@openzeppelin/contracts/access/Ownable.sol\":1196:1208  _msgSender() */\n      tag_356\n        /* \"@openzeppelin/contracts/access/Ownable.sol\":1196:1206  _msgSender */\n      tag_115\n        /* \"@openzeppelin/contracts/access/Ownable.sol\":1196:1208  _msgSender() */\n      jump\t// in\n    tag_356:\n        /* \"@openzeppelin/contracts/access/Ownable.sol\":1185:1208  owner() == _msgSender() */\n      0xffffffffffffffffffffffffffffffffffffffff\n      and\n        /* \"@openzeppelin/contracts/access/Ownable.sol\":1185:1192  owner() */\n      tag_357\n        /* \"@openzeppelin/contracts/access/Ownable.sol\":1185:1190  owner */\n      tag_71\n        /* \"@openzeppelin/contracts/access/Ownable.sol\":1185:1192  owner() */\n      jump\t// in\n    tag_357:\n        /* \"@openzeppelin/contracts/access/Ownable.sol\":1185:1208  owner() == _msgSender() */\n      0xffffffffffffffffffffffffffffffffffffffff\n      and\n      eq\n        /* \"@openzeppelin/contracts/access/Ownable.sol\":1177:1245  require(owner() == _msgSender(), \"Ownable: caller is not the owner\") */\n      tag_358\n      jumpi\n      mload(0x40)\n      0x08c379a000000000000000000000000000000000000000000000000000000000\n      dup2\n      mstore\n      0x04\n      add\n      tag_359\n      swap1\n      tag_122\n      jump\t// in\n    tag_359:\n      mload(0x40)\n      dup1\n      swap2\n      sub\n      swap1\n      revert\n    tag_358:\n        /* \"@openzeppelin/contracts/access/Ownable.sol\":1954:1955  0 */\n      0x00\n        /* \"@openzeppelin/contracts/access/Ownable.sol\":1934:1956  newOwner != address(0) */\n      0xffffffffffffffffffffffffffffffffffffffff\n      and\n        /* \"@openzeppelin/contracts/access/Ownable.sol\":1934:1942  newOwner */\n      dup2\n        /* \"@openzeppelin/contracts/access/Ownable.sol\":1934:1956  newOwner != address(0) */\n      0xffffffffffffffffffffffffffffffffffffffff\n      and\n      sub\n        /* \"@openzeppelin/contracts/access/Ownable.sol\":1926:1999  require(newOwner != address(0), \"Ownable: new owner is the zero address\") */\n      tag_361\n      jumpi\n      mload(0x40)\n      0x08c379a000000000000000000000000000000000000000000000000000000000\n      dup2\n      mstore\n      0x04\n      add\n      tag_362\n      swap1\n      tag_363\n      jump\t// in\n    tag_362:\n      mload(0x40)\n      dup1\n      swap2\n      sub\n      swap1\n      revert\n    tag_361:\n        /* \"@openzeppelin/contracts/access/Ownable.sol\":2009:2028  _setOwner(newOwner) */\n      tag_364\n        /* \"@openzeppelin/contracts/access/Ownable.sol\":2019:2027  newOwner */\n      dup2\n        /* \"@openzeppelin/contracts/access/Ownable.sol\":2009:2018  _setOwner */\n      tag_234\n        /* \"@openzeppelin/contracts/access/Ownable.sol\":2009:2028  _setOwner(newOwner) */\n      jump\t// in\n    tag_364:\n        /* \"@openzeppelin/contracts/access/Ownable.sol\":1846:2035  function transferOwnership(address newOwner) public virtual onlyOwner {... */\n      pop\n      jump\t// out\n        /* \"contracts/Distribution/AtlantisDistribution.sol\":845:879  address payable public fund_wallet */\n    tag_102:\n      0x0e\n      0x00\n      swap1\n      sload\n      swap1\n      0x0100\n      exp\n      swap1\n      div\n      0xffffffffffffffffffffffffffffffffffffffff\n      and\n      dup2\n      jump\t// out\n        /* \"@openzeppelin/contracts/utils/Context.sol\":587:683  function _msgSender() internal view virtual returns (address) {... */\n    tag_115:\n        /* \"@openzeppelin/contracts/utils/Context.sol\":640:647  address */\n      0x00\n        /* \"@openzeppelin/contracts/utils/Context.sol\":666:676  msg.sender */\n      caller\n        /* \"@openzeppelin/contracts/utils/Context.sol\":659:676  return msg.sender */\n      swap1\n      pop\n        /* \"@openzeppelin/contracts/utils/Context.sol\":587:683  function _msgSender() internal view virtual returns (address) {... */\n      swap1\n      jump\t// out\n        /* \"contracts/Distribution/WrappedERC20Token.sol\":9532:9872  function _approve(address owner, address spender, uint256 amount) internal virtual {... */\n    tag_116:\n        /* \"contracts/Distribution/WrappedERC20Token.sol\":9650:9651  0 */\n      0x00\n        /* \"contracts/Distribution/WrappedERC20Token.sol\":9633:9652  owner != address(0) */\n      0xffffffffffffffffffffffffffffffffffffffff\n      and\n        /* \"contracts/Distribution/WrappedERC20Token.sol\":9633:9638  owner */\n      dup4\n        /* \"contracts/Distribution/WrappedERC20Token.sol\":9633:9652  owner != address(0) */\n      0xffffffffffffffffffffffffffffffffffffffff\n      and\n      sub\n        /* \"contracts/Distribution/WrappedERC20Token.sol\":9625:9693  require(owner != address(0), \"ERC20: approve from the zero address\") */\n      tag_367\n      jumpi\n      mload(0x40)\n      0x08c379a000000000000000000000000000000000000000000000000000000000\n      dup2\n      mstore\n      0x04\n      add\n      tag_368\n      swap1\n      tag_369\n      jump\t// in\n    tag_368:\n      mload(0x40)\n      dup1\n      swap2\n      sub\n      swap1\n      revert\n    tag_367:\n        /* \"contracts/Distribution/WrappedERC20Token.sol\":9730:9731  0 */\n      0x00\n        /* \"contracts/Distribution/WrappedERC20Token.sol\":9711:9732  spender != address(0) */\n      0xffffffffffffffffffffffffffffffffffffffff\n      and\n        /* \"contracts/Distribution/WrappedERC20Token.sol\":9711:9718  spender */\n      dup3\n        /* \"contracts/Distribution/WrappedERC20Token.sol\":9711:9732  spender != address(0) */\n      0xffffffffffffffffffffffffffffffffffffffff\n      and\n      sub\n        /* \"contracts/Distribution/WrappedERC20Token.sol\":9703:9771  require(spender != address(0), \"ERC20: approve to the zero address\") */\n      tag_370\n      jumpi\n      mload(0x40)\n      0x08c379a000000000000000000000000000000000000000000000000000000000\n      dup2\n      mstore\n      0x04\n      add\n      tag_371\n      swap1\n      tag_372\n      jump\t// in\n    tag_371:\n      mload(0x40)\n      dup1\n      swap2\n      sub\n      swap1\n      revert\n    tag_370:\n        /* \"contracts/Distribution/WrappedERC20Token.sol\":9812:9818  amount */\n      dup1\n        /* \"contracts/Distribution/WrappedERC20Token.sol\":9782:9793  _allowances */\n      0x01\n        /* \"contracts/Distribution/WrappedERC20Token.sol\":9782:9800  _allowances[owner] */\n      0x00\n        /* \"contracts/Distribution/WrappedERC20Token.sol\":9794:9799  owner */\n      dup6\n        /* \"contracts/Distribution/WrappedERC20Token.sol\":9782:9800  _allowances[owner] */\n      0xffffffffffffffffffffffffffffffffffffffff\n      and\n      0xffffffffffffffffffffffffffffffffffffffff\n      and\n      dup2\n      mstore\n      0x20\n      add\n      swap1\n      dup2\n      mstore\n      0x20\n      add\n      0x00\n      keccak256\n        /* \"contracts/Distribution/WrappedERC20Token.sol\":9782:9809  _allowances[owner][spender] */\n      0x00\n        /* \"contracts/Distribution/WrappedERC20Token.sol\":9801:9808  spender */\n      dup5\n        /* \"contracts/Distribution/WrappedERC20Token.sol\":9782:9809  _allowances[owner][spender] */\n      0xffffffffffffffffffffffffffffffffffffffff\n      and\n      0xffffffffffffffffffffffffffffffffffffffff\n      and\n      dup2\n      mstore\n      0x20\n      add\n      swap1\n      dup2\n      mstore\n      0x20\n      add\n      0x00\n      keccak256\n        /* \"contracts/Distribution/WrappedERC20Token.sol\":9782:9818  _allowances[owner][spender] = amount */\n      dup2\n      swap1\n      sstore\n      pop\n        /* \"contracts/Distribution/WrappedERC20Token.sol\":9849:9856  spender */\n      dup2\n        /* \"contracts/Distribution/WrappedERC20Token.sol\":9833:9865  Approval(owner, spender, amount) */\n      0xffffffffffffffffffffffffffffffffffffffff\n      and\n        /* \"contracts/Distribution/WrappedERC20Token.sol\":9842:9847  owner */\n      dup4\n        /* \"contracts/Distribution/WrappedERC20Token.sol\":9833:9865  Approval(owner, spender, amount) */\n      0xffffffffffffffffffffffffffffffffffffffff\n      and\n      0x8c5be1e5ebec7d5bd14f71427d1e84f3dd0314c0f7b2291e5b200ac8c7c3b925\n        /* \"contracts/Distribution/WrappedERC20Token.sol\":9858:9864  amount */\n      dup4\n        /* \"contracts/Distribution/WrappedERC20Token.sol\":9833:9865  Approval(owner, spender, amount) */\n      mload(0x40)\n      tag_373\n      swap2\n      swap1\n      tag_45\n      jump\t// in\n    tag_373:\n      mload(0x40)\n      dup1\n      swap2\n      sub\n      swap1\n      log3\n        /* \"contracts/Distribution/WrappedERC20Token.sol\":9532:9872  function _approve(address owner, address spender, uint256 amount) internal virtual {... */\n      pop\n      pop\n      pop\n      jump\t// out\n        /* \"@openzeppelin/contracts/utils/math/SafeMath.sol\":3767:3863  function div(uint256 a, uint256 b) internal pure returns (uint256) {... */\n    tag_134:\n        /* \"@openzeppelin/contracts/utils/math/SafeMath.sol\":3825:3832  uint256 */\n      0x00\n        /* \"@openzeppelin/contracts/utils/math/SafeMath.sol\":3855:3856  b */\n      dup2\n        /* \"@openzeppelin/contracts/utils/math/SafeMath.sol\":3851:3852  a */\n      dup4\n        /* \"@openzeppelin/contracts/utils/math/SafeMath.sol\":3851:3856  a / b */\n      tag_375\n      swap2\n      swap1\n      tag_158\n      jump\t// in\n    tag_375:\n        /* \"@openzeppelin/contracts/utils/math/SafeMath.sol\":3844:3856  return a / b */\n      swap1\n      pop\n        /* \"@openzeppelin/contracts/utils/math/SafeMath.sol\":3767:3863  function div(uint256 a, uint256 b) internal pure returns (uint256) {... */\n      swap3\n      swap2\n      pop\n      pop\n      jump\t// out\n        /* \"@openzeppelin/contracts/utils/math/SafeMath.sol\":3382:3478  function mul(uint256 a, uint256 b) internal pure returns (uint256) {... */\n    tag_143:\n        /* \"@openzeppelin/contracts/utils/math/SafeMath.sol\":3440:3447  uint256 */\n      0x00\n        /* \"@openzeppelin/contracts/utils/math/SafeMath.sol\":3470:3471  b */\n      dup2\n        /* \"@openzeppelin/contracts/utils/math/SafeMath.sol\":3466:3467  a */\n      dup4\n        /* \"@openzeppelin/contracts/utils/math/SafeMath.sol\":3466:3471  a * b */\n      tag_377\n      swap2\n      swap1\n      tag_378\n      jump\t// in\n    tag_377:\n        /* \"@openzeppelin/contracts/utils/math/SafeMath.sol\":3459:3471  return a * b */\n      swap1\n      pop\n        /* \"@openzeppelin/contracts/utils/math/SafeMath.sol\":3382:3478  function mul(uint256 a, uint256 b) internal pure returns (uint256) {... */\n      swap3\n      swap2\n      pop\n      pop\n      jump\t// out\n        /* \"contracts/Distribution/AtlantisDistribution.sol\":1573:1823  function relaxBalance(address account) internal {... */\n    tag_176:\n        /* \"contracts/Distribution/AtlantisDistribution.sol\":1651:1652  0 */\n      0x00\n        /* \"contracts/Distribution/AtlantisDistribution.sol\":1635:1638  lvl */\n      0x07\n        /* \"contracts/Distribution/AtlantisDistribution.sol\":1635:1647  lvl[account] */\n      0x00\n        /* \"contracts/Distribution/AtlantisDistribution.sol\":1639:1646  account */\n      dup4\n        /* \"contracts/Distribution/AtlantisDistribution.sol\":1635:1647  lvl[account] */\n      0xffffffffffffffffffffffffffffffffffffffff\n      and\n      0xffffffffffffffffffffffffffffffffffffffff\n      and\n      dup2\n      mstore\n      0x20\n      add\n      swap1\n      dup2\n      mstore\n      0x20\n      add\n      0x00\n      keccak256\n      0x00\n      swap1\n      sload\n      swap1\n      0x0100\n      exp\n      swap1\n      div\n      0xff\n      and\n        /* \"contracts/Distribution/AtlantisDistribution.sol\":1635:1652  lvl[account] == 0 */\n      0xff\n      and\n      sub\n        /* \"contracts/Distribution/AtlantisDistribution.sol\":1631:1673  if (lvl[account] == 0)... */\n      iszero\n        /* \"contracts/Distribution/AtlantisDistribution.sol\":1666:1673  return; */\n      tag_379\n        /* \"contracts/Distribution/AtlantisDistribution.sol\":1631:1673  if (lvl[account] == 0)... */\n      jumpi\n        /* \"contracts/Distribution/AtlantisDistribution.sol\":1703:1769  (currentBC[lvl[account]].mul(_balances[account])).div(BC[account]) */\n      tag_381\n        /* \"contracts/Distribution/AtlantisDistribution.sol\":1757:1759  BC */\n      0x06\n        /* \"contracts/Distribution/AtlantisDistribution.sol\":1757:1768  BC[account] */\n      0x00\n        /* \"contracts/Distribution/AtlantisDistribution.sol\":1760:1767  account */\n      dup4\n        /* \"contracts/Distribution/AtlantisDistribution.sol\":1757:1768  BC[account] */\n      0xffffffffffffffffffffffffffffffffffffffff\n      and\n      0xffffffffffffffffffffffffffffffffffffffff\n      and\n      dup2\n      mstore\n      0x20\n      add\n      swap1\n      dup2\n      mstore\n      0x20\n      add\n      0x00\n      keccak256\n      sload\n        /* \"contracts/Distribution/AtlantisDistribution.sol\":1704:1751  currentBC[lvl[account]].mul(_balances[account]) */\n      tag_382\n        /* \"contracts/Distribution/AtlantisDistribution.sol\":1732:1741  _balances */\n      0x00\n        /* \"contracts/Distribution/AtlantisDistribution.sol\":1732:1750  _balances[account] */\n      dup1\n        /* \"contracts/Distribution/AtlantisDistribution.sol\":1742:1749  account */\n      dup6\n        /* \"contracts/Distribution/AtlantisDistribution.sol\":1732:1750  _balances[account] */\n      0xffffffffffffffffffffffffffffffffffffffff\n      and\n      0xffffffffffffffffffffffffffffffffffffffff\n      and\n      dup2\n      mstore\n      0x20\n      add\n      swap1\n      dup2\n      mstore\n      0x20\n      add\n      0x00\n      keccak256\n      sload\n        /* \"contracts/Distribution/AtlantisDistribution.sol\":1704:1713  currentBC */\n      0x08\n        /* \"contracts/Distribution/AtlantisDistribution.sol\":1714:1717  lvl */\n      0x07\n        /* \"contracts/Distribution/AtlantisDistribution.sol\":1714:1726  lvl[account] */\n      0x00\n        /* \"contracts/Distribution/AtlantisDistribution.sol\":1718:1725  account */\n      dup8\n        /* \"contracts/Distribution/AtlantisDistribution.sol\":1714:1726  lvl[account] */\n      0xffffffffffffffffffffffffffffffffffffffff\n      and\n      0xffffffffffffffffffffffffffffffffffffffff\n      and\n      dup2\n      mstore\n      0x20\n      add\n      swap1\n      dup2\n      mstore\n      0x20\n      add\n      0x00\n      keccak256\n      0x00\n      swap1\n      sload\n      swap1\n      0x0100\n      exp\n      swap1\n      div\n      0xff\n      and\n        /* \"contracts/Distribution/AtlantisDistribution.sol\":1704:1727  currentBC[lvl[account]] */\n      0xff\n      and\n      0x03\n      dup2\n      lt\n      tag_383\n      jumpi\n      tag_384\n      tag_137\n      jump\t// in\n    tag_384:\n    tag_383:\n      add\n      sload\n        /* \"contracts/Distribution/AtlantisDistribution.sol\":1704:1731  currentBC[lvl[account]].mul */\n      tag_143\n      swap1\n        /* \"contracts/Distribution/AtlantisDistribution.sol\":1704:1751  currentBC[lvl[account]].mul(_balances[account]) */\n      swap2\n      swap1\n      0xffffffff\n      and\n      jump\t// in\n    tag_382:\n        /* \"contracts/Distribution/AtlantisDistribution.sol\":1703:1756  (currentBC[lvl[account]].mul(_balances[account])).div */\n      tag_134\n      swap1\n        /* \"contracts/Distribution/AtlantisDistribution.sol\":1703:1769  (currentBC[lvl[account]].mul(_balances[account])).div(BC[account]) */\n      swap2\n      swap1\n      0xffffffff\n      and\n      jump\t// in\n    tag_381:\n        /* \"contracts/Distribution/AtlantisDistribution.sol\":1682:1691  _balances */\n      0x00\n        /* \"contracts/Distribution/AtlantisDistribution.sol\":1682:1700  _balances[account] */\n      dup1\n        /* \"contracts/Distribution/AtlantisDistribution.sol\":1692:1699  account */\n      dup4\n        /* \"contracts/Distribution/AtlantisDistribution.sol\":1682:1700  _balances[account] */\n      0xffffffffffffffffffffffffffffffffffffffff\n      and\n      0xffffffffffffffffffffffffffffffffffffffff\n      and\n      dup2\n      mstore\n      0x20\n      add\n      swap1\n      dup2\n      mstore\n      0x20\n      add\n      0x00\n      keccak256\n        /* \"contracts/Distribution/AtlantisDistribution.sol\":1682:1769  _balances[account] = (currentBC[lvl[account]].mul(_balances[account])).div(BC[account]) */\n      dup2\n      swap1\n      sstore\n      pop\n        /* \"contracts/Distribution/AtlantisDistribution.sol\":1793:1802  currentBC */\n      0x08\n        /* \"contracts/Distribution/AtlantisDistribution.sol\":1803:1806  lvl */\n      0x07\n        /* \"contracts/Distribution/AtlantisDistribution.sol\":1803:1815  lvl[account] */\n      0x00\n        /* \"contracts/Distribution/AtlantisDistribution.sol\":1807:1814  account */\n      dup4\n        /* \"contracts/Distribution/AtlantisDistribution.sol\":1803:1815  lvl[account] */\n      0xffffffffffffffffffffffffffffffffffffffff\n      and\n      0xffffffffffffffffffffffffffffffffffffffff\n      and\n      dup2\n      mstore\n      0x20\n      add\n      swap1\n      dup2\n      mstore\n      0x20\n      add\n      0x00\n      keccak256\n      0x00\n      swap1\n      sload\n      swap1\n      0x0100\n      exp\n      swap1\n      div\n      0xff\n      and\n        /* \"contracts/Distribution/AtlantisDistribution.sol\":1793:1816  currentBC[lvl[account]] */\n      0xff\n      and\n      0x03\n      dup2\n      lt\n      tag_386\n      jumpi\n      tag_387\n      tag_137\n      jump\t// in\n    tag_387:\n    tag_386:\n      add\n      sload\n        /* \"contracts/Distribution/AtlantisDistribution.sol\":1779:1781  BC */\n      0x06\n        /* \"contracts/Distribution/AtlantisDistribution.sol\":1779:1790  BC[account] */\n      0x00\n        /* \"contracts/Distribution/AtlantisDistribution.sol\":1782:1789  account */\n      dup4\n        /* \"contracts/Distribution/AtlantisDistribution.sol\":1779:1790  BC[account] */\n      0xffffffffffffffffffffffffffffffffffffffff\n      and\n      0xffffffffffffffffffffffffffffffffffffffff\n      and\n      dup2\n      mstore\n      0x20\n      add\n      swap1\n      dup2\n      mstore\n      0x20\n      add\n      0x00\n      keccak256\n        /* \"contracts/Distribution/AtlantisDistribution.sol\":1779:1816  BC[account] = currentBC[lvl[account]] */\n      dup2\n      swap1\n      sstore\n      pop\n        /* \"contracts/Distribution/AtlantisDistribution.sol\":1573:1823  function relaxBalance(address account) internal {... */\n    tag_379:\n      pop\n      jump\t// out\n        /* \"@openzeppelin/contracts/access/Ownable.sol\":2041:2210  function _setOwner(address newOwner) private {... */\n    tag_234:\n        /* \"@openzeppelin/contracts/access/Ownable.sol\":2096:2112  address oldOwner */\n      0x00\n        /* \"@openzeppelin/contracts/access/Ownable.sol\":2115:2121  _owner */\n      0x05\n      0x00\n      swap1\n      sload\n      swap1\n      0x0100\n      exp\n      swap1\n      div\n      0xffffffffffffffffffffffffffffffffffffffff\n      and\n        /* \"@openzeppelin/contracts/access/Ownable.sol\":2096:2121  address oldOwner = _owner */\n      swap1\n      pop\n        /* \"@openzeppelin/contracts/access/Ownable.sol\":2140:2148  newOwner */\n      dup2\n        /* \"@openzeppelin/contracts/access/Ownable.sol\":2131:2137  _owner */\n      0x05\n      0x00\n        /* \"@openzeppelin/contracts/access/Ownable.sol\":2131:2148  _owner = newOwner */\n      0x0100\n      exp\n      dup2\n      sload\n      dup2\n      0xffffffffffffffffffffffffffffffffffffffff\n      mul\n      not\n      and\n      swap1\n      dup4\n      0xffffffffffffffffffffffffffffffffffffffff\n      and\n      mul\n      or\n      swap1\n      sstore\n      pop\n        /* \"@openzeppelin/contracts/access/Ownable.sol\":2194:2202  newOwner */\n      dup2\n        /* \"@openzeppelin/contracts/access/Ownable.sol\":2163:2203  OwnershipTransferred(oldOwner, newOwner) */\n      0xffffffffffffffffffffffffffffffffffffffff\n      and\n        /* \"@openzeppelin/contracts/access/Ownable.sol\":2184:2192  oldOwner */\n      dup2\n        /* \"@openzeppelin/contracts/access/Ownable.sol\":2163:2203  OwnershipTransferred(oldOwner, newOwner) */\n      0xffffffffffffffffffffffffffffffffffffffff\n      and\n      0x8be0079c531659141344cd1fd0a4f28419497f9722a3daafe3b4186f6b6457e0\n      mload(0x40)\n      mload(0x40)\n      dup1\n      swap2\n      sub\n      swap1\n      log3\n        /* \"@openzeppelin/contracts/access/Ownable.sol\":2086:2210  {... */\n      pop\n        /* \"@openzeppelin/contracts/access/Ownable.sol\":2041:2210  function _setOwner(address newOwner) private {... */\n      pop\n      jump\t// out\n        /* \"contracts/Distribution/WrappedERC20Token.sol\":7113:7705  function _transfer(address sender, address recipient, uint256 amount) internal virtual {... */\n    tag_353:\n        /* \"contracts/Distribution/WrappedERC20Token.sol\":7236:7237  0 */\n      0x00\n        /* \"contracts/Distribution/WrappedERC20Token.sol\":7218:7238  sender != address(0) */\n      0xffffffffffffffffffffffffffffffffffffffff\n      and\n        /* \"contracts/Distribution/WrappedERC20Token.sol\":7218:7224  sender */\n      dup4\n        /* \"contracts/Distribution/WrappedERC20Token.sol\":7218:7238  sender != address(0) */\n      0xffffffffffffffffffffffffffffffffffffffff\n      and\n      sub\n        /* \"contracts/Distribution/WrappedERC20Token.sol\":7210:7280  require(sender != address(0), \"ERC20: transfer from the zero address\") */\n      tag_391\n      jumpi\n      mload(0x40)\n      0x08c379a000000000000000000000000000000000000000000000000000000000\n      dup2\n      mstore\n      0x04\n      add\n      tag_392\n      swap1\n      tag_393\n      jump\t// in\n    tag_392:\n      mload(0x40)\n      dup1\n      swap2\n      sub\n      swap1\n      revert\n    tag_391:\n        /* \"contracts/Distribution/WrappedERC20Token.sol\":7319:7320  0 */\n      0x00\n        /* \"contracts/Distribution/WrappedERC20Token.sol\":7298:7321  recipient != address(0) */\n      0xffffffffffffffffffffffffffffffffffffffff\n      and\n        /* \"contracts/Distribution/WrappedERC20Token.sol\":7298:7307  recipient */\n      dup3\n        /* \"contracts/Distribution/WrappedERC20Token.sol\":7298:7321  recipient != address(0) */\n      0xffffffffffffffffffffffffffffffffffffffff\n      and\n      sub\n        /* \"contracts/Distribution/WrappedERC20Token.sol\":7290:7361  require(recipient != address(0), \"ERC20: transfer to the zero address\") */\n      tag_394\n      jumpi\n      mload(0x40)\n      0x08c379a000000000000000000000000000000000000000000000000000000000\n      dup2\n      mstore\n      0x04\n      add\n      tag_395\n      swap1\n      tag_396\n      jump\t// in\n    tag_395:\n      mload(0x40)\n      dup1\n      swap2\n      sub\n      swap1\n      revert\n    tag_394:\n        /* \"contracts/Distribution/WrappedERC20Token.sol\":7372:7419  _beforeTokenTransfer(sender, recipient, amount) */\n      tag_397\n        /* \"contracts/Distribution/WrappedERC20Token.sol\":7393:7399  sender */\n      dup4\n        /* \"contracts/Distribution/WrappedERC20Token.sol\":7401:7410  recipient */\n      dup4\n        /* \"contracts/Distribution/WrappedERC20Token.sol\":7412:7418  amount */\n      dup4\n        /* \"contracts/Distribution/WrappedERC20Token.sol\":7372:7392  _beforeTokenTransfer */\n      tag_398\n        /* \"contracts/Distribution/WrappedERC20Token.sol\":7372:7419  _beforeTokenTransfer(sender, recipient, amount) */\n      jump\t// in\n    tag_397:\n        /* \"contracts/Distribution/WrappedERC20Token.sol\":7430:7451  uint256 senderBalance */\n      0x00\n        /* \"contracts/Distribution/WrappedERC20Token.sol\":7454:7463  _balances */\n      dup1\n        /* \"contracts/Distribution/WrappedERC20Token.sol\":7454:7471  _balances[sender] */\n      0x00\n        /* \"contracts/Distribution/WrappedERC20Token.sol\":7464:7470  sender */\n      dup6\n        /* \"contracts/Distribution/WrappedERC20Token.sol\":7454:7471  _balances[sender] */\n      0xffffffffffffffffffffffffffffffffffffffff\n      and\n      0xffffffffffffffffffffffffffffffffffffffff\n      and\n      dup2\n      mstore\n      0x20\n      add\n      swap1\n      dup2\n      mstore\n      0x20\n      add\n      0x00\n      keccak256\n      sload\n        /* \"contracts/Distribution/WrappedERC20Token.sol\":7430:7471  uint256 senderBalance = _balances[sender] */\n      swap1\n      pop\n        /* \"contracts/Distribution/WrappedERC20Token.sol\":7506:7512  amount */\n      dup2\n        /* \"contracts/Distribution/WrappedERC20Token.sol\":7489:7502  senderBalance */\n      dup2\n        /* \"contracts/Distribution/WrappedERC20Token.sol\":7489:7512  senderBalance >= amount */\n      lt\n      iszero\n        /* \"contracts/Distribution/WrappedERC20Token.sol\":7481:7555  require(senderBalance >= amount, \"ERC20: transfer amount exceeds balance\") */\n      tag_399\n      jumpi\n      mload(0x40)\n      0x08c379a000000000000000000000000000000000000000000000000000000000\n      dup2\n      mstore\n      0x04\n      add\n      tag_400\n      swap1\n      tag_401\n      jump\t// in\n    tag_400:\n      mload(0x40)\n      dup1\n      swap2\n      sub\n      swap1\n      revert\n    tag_399:\n        /* \"contracts/Distribution/WrappedERC20Token.sol\":7601:7607  amount */\n      dup2\n        /* \"contracts/Distribution/WrappedERC20Token.sol\":7585:7598  senderBalance */\n      dup2\n        /* \"contracts/Distribution/WrappedERC20Token.sol\":7585:7607  senderBalance - amount */\n      tag_402\n      swap2\n      swap1\n      tag_324\n      jump\t// in\n    tag_402:\n        /* \"contracts/Distribution/WrappedERC20Token.sol\":7565:7574  _balances */\n      0x00\n        /* \"contracts/Distribution/WrappedERC20Token.sol\":7565:7582  _balances[sender] */\n      dup1\n        /* \"contracts/Distribution/WrappedERC20Token.sol\":7575:7581  sender */\n      dup7\n        /* \"contracts/Distribution/WrappedERC20Token.sol\":7565:7582  _balances[sender] */\n      0xffffffffffffffffffffffffffffffffffffffff\n      and\n      0xffffffffffffffffffffffffffffffffffffffff\n      and\n      dup2\n      mstore\n      0x20\n      add\n      swap1\n      dup2\n      mstore\n      0x20\n      add\n      0x00\n      keccak256\n        /* \"contracts/Distribution/WrappedERC20Token.sol\":7565:7607  _balances[sender] = senderBalance - amount */\n      dup2\n      swap1\n      sstore\n      pop\n        /* \"contracts/Distribution/WrappedERC20Token.sol\":7641:7647  amount */\n      dup2\n        /* \"contracts/Distribution/WrappedERC20Token.sol\":7617:7626  _balances */\n      0x00\n        /* \"contracts/Distribution/WrappedERC20Token.sol\":7617:7637  _balances[recipient] */\n      dup1\n        /* \"contracts/Distribution/WrappedERC20Token.sol\":7627:7636  recipient */\n      dup6\n        /* \"contracts/Distribution/WrappedERC20Token.sol\":7617:7637  _balances[recipient] */\n      0xffffffffffffffffffffffffffffffffffffffff\n      and\n      0xffffffffffffffffffffffffffffffffffffffff\n      and\n      dup2\n      mstore\n      0x20\n      add\n      swap1\n      dup2\n      mstore\n      0x20\n      add\n      0x00\n      keccak256\n      0x00\n        /* \"contracts/Distribution/WrappedERC20Token.sol\":7617:7647  _balances[recipient] += amount */\n      dup3\n      dup3\n      sload\n      tag_403\n      swap2\n      swap1\n      tag_128\n      jump\t// in\n    tag_403:\n      swap3\n      pop\n      pop\n      dup2\n      swap1\n      sstore\n      pop\n        /* \"contracts/Distribution/WrappedERC20Token.sol\":7680:7689  recipient */\n      dup3\n        /* \"contracts/Distribution/WrappedERC20Token.sol\":7663:7698  Transfer(sender, recipient, amount) */\n      0xffffffffffffffffffffffffffffffffffffffff\n      and\n        /* \"contracts/Distribution/WrappedERC20Token.sol\":7672:7678  sender */\n      dup5\n        /* \"contracts/Distribution/WrappedERC20Token.sol\":7663:7698  Transfer(sender, recipient, amount) */\n      0xffffffffffffffffffffffffffffffffffffffff\n      and\n      0xddf252ad1be2c89b69c2b068fc378daa952ba7f163c4a11628f55a4df523b3ef\n        /* \"contracts/Distribution/WrappedERC20Token.sol\":7691:7697  amount */\n      dup5\n        /* \"contracts/Distribution/WrappedERC20Token.sol\":7663:7698  Transfer(sender, recipient, amount) */\n      mload(0x40)\n      tag_404\n      swap2\n      swap1\n      tag_45\n      jump\t// in\n    tag_404:\n      mload(0x40)\n      dup1\n      swap2\n      sub\n      swap1\n      log3\n        /* \"contracts/Distribution/WrappedERC20Token.sol\":7200:7705  {... */\n      pop\n        /* \"contracts/Distribution/WrappedERC20Token.sol\":7113:7705  function _transfer(address sender, address recipient, uint256 amount) internal virtual {... */\n      pop\n      pop\n      pop\n      jump\t// out\n        /* \"contracts/Distribution/WrappedERC20Token.sol\":10459:10551  function _beforeTokenTransfer(address from, address to, uint256 amount) internal virtual { } */\n    tag_398:\n      pop\n      pop\n      pop\n      jump\t// out\n        /* \"#utility.yul\":7:106   */\n    tag_406:\n        /* \"#utility.yul\":59:65   */\n      0x00\n        /* \"#utility.yul\":93:98   */\n      dup2\n        /* \"#utility.yul\":87:99   */\n      mload\n        /* \"#utility.yul\":77:99   */\n      swap1\n      pop\n        /* \"#utility.yul\":7:106   */\n      swap2\n      swap1\n      pop\n      jump\t// out\n        /* \"#utility.yul\":112:281   */\n    tag_407:\n        /* \"#utility.yul\":196:207   */\n      0x00\n        /* \"#utility.yul\":230:236   */\n      dup3\n        /* \"#utility.yul\":225:228   */\n      dup3\n        /* \"#utility.yul\":218:237   */\n      mstore\n        /* \"#utility.yul\":270:274   */\n      0x20\n        /* \"#utility.yul\":265:268   */\n      dup3\n        /* \"#utility.yul\":261:275   */\n      add\n        /* \"#utility.yul\":246:275   */\n      swap1\n      pop\n        /* \"#utility.yul\":112:281   */\n      swap3\n      swap2\n      pop\n      pop\n      jump\t// out\n        /* \"#utility.yul\":287:594   */\n    tag_408:\n        /* \"#utility.yul\":355:356   */\n      0x00\n        /* \"#utility.yul\":365:478   */\n    tag_458:\n        /* \"#utility.yul\":379:385   */\n      dup4\n        /* \"#utility.yul\":376:377   */\n      dup2\n        /* \"#utility.yul\":373:386   */\n      lt\n        /* \"#utility.yul\":365:478   */\n      iszero\n      tag_460\n      jumpi\n        /* \"#utility.yul\":464:465   */\n      dup1\n        /* \"#utility.yul\":459:462   */\n      dup3\n        /* \"#utility.yul\":455:466   */\n      add\n        /* \"#utility.yul\":449:467   */\n      mload\n        /* \"#utility.yul\":445:446   */\n      dup2\n        /* \"#utility.yul\":440:443   */\n      dup5\n        /* \"#utility.yul\":436:447   */\n      add\n        /* \"#utility.yul\":429:468   */\n      mstore\n        /* \"#utility.yul\":401:403   */\n      0x20\n        /* \"#utility.yul\":398:399   */\n      dup2\n        /* \"#utility.yul\":394:404   */\n      add\n        /* \"#utility.yul\":389:404   */\n      swap1\n      pop\n        /* \"#utility.yul\":365:478   */\n      jump(tag_458)\n    tag_460:\n        /* \"#utility.yul\":496:502   */\n      dup4\n        /* \"#utility.yul\":493:494   */\n      dup2\n        /* \"#utility.yul\":490:503   */\n      gt\n        /* \"#utility.yul\":487:588   */\n      iszero\n      tag_461\n      jumpi\n        /* \"#utility.yul\":576:577   */\n      0x00\n        /* \"#utility.yul\":567:573   */\n      dup5\n        /* \"#utility.yul\":562:565   */\n      dup5\n        /* \"#utility.yul\":558:574   */\n      add\n        /* \"#utility.yul\":551:578   */\n      mstore\n        /* \"#utility.yul\":487:588   */\n    tag_461:\n        /* \"#utility.yul\":336:594   */\n      pop\n        /* \"#utility.yul\":287:594   */\n      pop\n      pop\n      pop\n      jump\t// out\n        /* \"#utility.yul\":600:702   */\n    tag_409:\n        /* \"#utility.yul\":641:647   */\n      0x00\n        /* \"#utility.yul\":692:694   */\n      0x1f\n        /* \"#utility.yul\":688:695   */\n      not\n        /* \"#utility.yul\":683:685   */\n      0x1f\n        /* \"#utility.yul\":676:681   */\n      dup4\n        /* \"#utility.yul\":672:686   */\n      add\n        /* \"#utility.yul\":668:696   */\n      and\n        /* \"#utility.yul\":658:696   */\n      swap1\n      pop\n        /* \"#utility.yul\":600:702   */\n      swap2\n      swap1\n      pop\n      jump\t// out\n        /* \"#utility.yul\":708:1072   */\n    tag_410:\n        /* \"#utility.yul\":796:799   */\n      0x00\n        /* \"#utility.yul\":824:863   */\n      tag_464\n        /* \"#utility.yul\":857:862   */\n      dup3\n        /* \"#utility.yul\":824:863   */\n      tag_406\n      jump\t// in\n    tag_464:\n        /* \"#utility.yul\":879:950   */\n      tag_465\n        /* \"#utility.yul\":943:949   */\n      dup2\n        /* \"#utility.yul\":938:941   */\n      dup6\n        /* \"#utility.yul\":879:950   */\n      tag_407\n      jump\t// in\n    tag_465:\n        /* \"#utility.yul\":872:950   */\n      swap4\n      pop\n        /* \"#utility.yul\":959:1011   */\n      tag_466\n        /* \"#utility.yul\":1004:1010   */\n      dup2\n        /* \"#utility.yul\":999:1002   */\n      dup6\n        /* \"#utility.yul\":992:996   */\n      0x20\n        /* \"#utility.yul\":985:990   */\n      dup7\n        /* \"#utility.yul\":981:997   */\n      add\n        /* \"#utility.yul\":959:1011   */\n      tag_408\n      jump\t// in\n    tag_466:\n        /* \"#utility.yul\":1036:1065   */\n      tag_467\n        /* \"#utility.yul\":1058:1064   */\n      dup2\n        /* \"#utility.yul\":1036:1065   */\n      tag_409\n      jump\t// in\n    tag_467:\n        /* \"#utility.yul\":1031:1034   */\n      dup5\n        /* \"#utility.yul\":1027:1066   */\n      add\n        /* \"#utility.yul\":1020:1066   */\n      swap2\n      pop\n        /* \"#utility.yul\":800:1072   */\n      pop\n        /* \"#utility.yul\":708:1072   */\n      swap3\n      swap2\n      pop\n      pop\n      jump\t// out\n        /* \"#utility.yul\":1078:1391   */\n    tag_29:\n        /* \"#utility.yul\":1191:1195   */\n      0x00\n        /* \"#utility.yul\":1229:1231   */\n      0x20\n        /* \"#utility.yul\":1218:1227   */\n      dup3\n        /* \"#utility.yul\":1214:1232   */\n      add\n        /* \"#utility.yul\":1206:1232   */\n      swap1\n      pop\n        /* \"#utility.yul\":1278:1287   */\n      dup2\n        /* \"#utility.yul\":1272:1276   */\n      dup2\n        /* \"#utility.yul\":1268:1288   */\n      sub\n        /* \"#utility.yul\":1264:1265   */\n      0x00\n        /* \"#utility.yul\":1253:1262   */\n      dup4\n        /* \"#utility.yul\":1249:1266   */\n      add\n        /* \"#utility.yul\":1242:1289   */\n      mstore\n        /* \"#utility.yul\":1306:1384   */\n      tag_469\n        /* \"#utility.yul\":1379:1383   */\n      dup2\n        /* \"#utility.yul\":1370:1376   */\n      dup5\n        /* \"#utility.yul\":1306:1384   */\n      tag_410\n      jump\t// in\n    tag_469:\n        /* \"#utility.yul\":1298:1384   */\n      swap1\n      pop\n        /* \"#utility.yul\":1078:1391   */\n      swap3\n      swap2\n      pop\n      pop\n      jump\t// out\n        /* \"#utility.yul\":1478:1595   */\n    tag_412:\n        /* \"#utility.yul\":1587:1588   */\n      0x00\n        /* \"#utility.yul\":1584:1585   */\n      dup1\n        /* \"#utility.yul\":1577:1589   */\n      revert\n        /* \"#utility.yul\":1724:1850   */\n    tag_414:\n        /* \"#utility.yul\":1761:1768   */\n      0x00\n        /* \"#utility.yul\":1801:1843   */\n      0xffffffffffffffffffffffffffffffffffffffff\n        /* \"#utility.yul\":1794:1799   */\n      dup3\n        /* \"#utility.yul\":1790:1844   */\n      and\n        /* \"#utility.yul\":1779:1844   */\n      swap1\n      pop\n        /* \"#utility.yul\":1724:1850   */\n      swap2\n      swap1\n      pop\n      jump\t// out\n        /* \"#utility.yul\":1856:1952   */\n    tag_415:\n        /* \"#utility.yul\":1893:1900   */\n      0x00\n        /* \"#utility.yul\":1922:1946   */\n      tag_475\n        /* \"#utility.yul\":1940:1945   */\n      dup3\n        /* \"#utility.yul\":1922:1946   */\n      tag_414\n      jump\t// in\n    tag_475:\n        /* \"#utility.yul\":1911:1946   */\n      swap1\n      pop\n        /* \"#utility.yul\":1856:1952   */\n      swap2\n      swap1\n      pop\n      jump\t// out\n        /* \"#utility.yul\":1958:2080   */\n    tag_416:\n        /* \"#utility.yul\":2031:2055   */\n      tag_477\n        /* \"#utility.yul\":2049:2054   */\n      dup2\n        /* \"#utility.yul\":2031:2055   */\n      tag_415\n      jump\t// in\n    tag_477:\n        /* \"#utility.yul\":2024:2029   */\n      dup2\n        /* \"#utility.yul\":2021:2056   */\n      eq\n        /* \"#utility.yul\":2011:2074   */\n      tag_478\n      jumpi\n        /* \"#utility.yul\":2070:2071   */\n      0x00\n        /* \"#utility.yul\":2067:2068   */\n      dup1\n        /* \"#utility.yul\":2060:2072   */\n      revert\n        /* \"#utility.yul\":2011:2074   */\n    tag_478:\n        /* \"#utility.yul\":1958:2080   */\n      pop\n      jump\t// out\n        /* \"#utility.yul\":2086:2225   */\n    tag_417:\n        /* \"#utility.yul\":2132:2137   */\n      0x00\n        /* \"#utility.yul\":2170:2176   */\n      dup2\n        /* \"#utility.yul\":2157:2177   */\n      calldataload\n        /* \"#utility.yul\":2148:2177   */\n      swap1\n      pop\n        /* \"#utility.yul\":2186:2219   */\n      tag_480\n        /* \"#utility.yul\":2213:2218   */\n      dup2\n        /* \"#utility.yul\":2186:2219   */\n      tag_416\n      jump\t// in\n    tag_480:\n        /* \"#utility.yul\":2086:2225   */\n      swap3\n      swap2\n      pop\n      pop\n      jump\t// out\n        /* \"#utility.yul\":2231:2308   */\n    tag_418:\n        /* \"#utility.yul\":2268:2275   */\n      0x00\n        /* \"#utility.yul\":2297:2302   */\n      dup2\n        /* \"#utility.yul\":2286:2302   */\n      swap1\n      pop\n        /* \"#utility.yul\":2231:2308   */\n      swap2\n      swap1\n      pop\n      jump\t// out\n        /* \"#utility.yul\":2314:2436   */\n    tag_419:\n        /* \"#utility.yul\":2387:2411   */\n      tag_483\n        /* \"#utility.yul\":2405:2410   */\n      dup2\n        /* \"#utility.yul\":2387:2411   */\n      tag_418\n      jump\t// in\n    tag_483:\n        /* \"#utility.yul\":2380:2385   */\n      dup2\n        /* \"#utility.yul\":2377:2412   */\n      eq\n        /* \"#utility.yul\":2367:2430   */\n      tag_484\n      jumpi\n        /* \"#utility.yul\":2426:2427   */\n      0x00\n        /* \"#utility.yul\":2423:2424   */\n      dup1\n        /* \"#utility.yul\":2416:2428   */\n      revert\n        /* \"#utility.yul\":2367:2430   */\n    tag_484:\n        /* \"#utility.yul\":2314:2436   */\n      pop\n      jump\t// out\n        /* \"#utility.yul\":2442:2581   */\n    tag_420:\n        /* \"#utility.yul\":2488:2493   */\n      0x00\n        /* \"#utility.yul\":2526:2532   */\n      dup2\n        /* \"#utility.yul\":2513:2533   */\n      calldataload\n        /* \"#utility.yul\":2504:2533   */\n      swap1\n      pop\n        /* \"#utility.yul\":2542:2575   */\n      tag_486\n        /* \"#utility.yul\":2569:2574   */\n      dup2\n        /* \"#utility.yul\":2542:2575   */\n      tag_419\n      jump\t// in\n    tag_486:\n        /* \"#utility.yul\":2442:2581   */\n      swap3\n      swap2\n      pop\n      pop\n      jump\t// out\n        /* \"#utility.yul\":2587:3061   */\n    tag_32:\n        /* \"#utility.yul\":2655:2661   */\n      0x00\n        /* \"#utility.yul\":2663:2669   */\n      dup1\n        /* \"#utility.yul\":2712:2714   */\n      0x40\n        /* \"#utility.yul\":2700:2709   */\n      dup4\n        /* \"#utility.yul\":2691:2698   */\n      dup6\n        /* \"#utility.yul\":2687:2710   */\n      sub\n        /* \"#utility.yul\":2683:2715   */\n      slt\n        /* \"#utility.yul\":2680:2799   */\n      iszero\n      tag_488\n      jumpi\n        /* \"#utility.yul\":2718:2797   */\n      tag_489\n      tag_412\n      jump\t// in\n    tag_489:\n        /* \"#utility.yul\":2680:2799   */\n    tag_488:\n        /* \"#utility.yul\":2838:2839   */\n      0x00\n        /* \"#utility.yul\":2863:2916   */\n      tag_490\n        /* \"#utility.yul\":2908:2915   */\n      dup6\n        /* \"#utility.yul\":2899:2905   */\n      dup3\n        /* \"#utility.yul\":2888:2897   */\n      dup7\n        /* \"#utility.yul\":2884:2906   */\n      add\n        /* \"#utility.yul\":2863:2916   */\n      tag_417\n      jump\t// in\n    tag_490:\n        /* \"#utility.yul\":2853:2916   */\n      swap3\n      pop\n        /* \"#utility.yul\":2809:2926   */\n      pop\n        /* \"#utility.yul\":2965:2967   */\n      0x20\n        /* \"#utility.yul\":2991:3044   */\n      tag_491\n        /* \"#utility.yul\":3036:3043   */\n      dup6\n        /* \"#utility.yul\":3027:3033   */\n      dup3\n        /* \"#utility.yul\":3016:3025   */\n      dup7\n        /* \"#utility.yul\":3012:3034   */\n      add\n        /* \"#utility.yul\":2991:3044   */\n      tag_420\n      jump\t// in\n    tag_491:\n        /* \"#utility.yul\":2981:3044   */\n      swap2\n      pop\n        /* \"#utility.yul\":2936:3054   */\n      pop\n        /* \"#utility.yul\":2587:3061   */\n      swap3\n      pop\n      swap3\n      swap1\n      pop\n      jump\t// out\n        /* \"#utility.yul\":3067:3157   */\n    tag_421:\n        /* \"#utility.yul\":3101:3108   */\n      0x00\n        /* \"#utility.yul\":3144:3149   */\n      dup2\n        /* \"#utility.yul\":3137:3150   */\n      iszero\n        /* \"#utility.yul\":3130:3151   */\n      iszero\n        /* \"#utility.yul\":3119:3151   */\n      swap1\n      pop\n        /* \"#utility.yul\":3067:3157   */\n      swap2\n      swap1\n      pop\n      jump\t// out\n        /* \"#utility.yul\":3163:3272   */\n    tag_422:\n        /* \"#utility.yul\":3244:3265   */\n      tag_494\n        /* \"#utility.yul\":3259:3264   */\n      dup2\n        /* \"#utility.yul\":3244:3265   */\n      tag_421\n      jump\t// in\n    tag_494:\n        /* \"#utility.yul\":3239:3242   */\n      dup3\n        /* \"#utility.yul\":3232:3266   */\n      mstore\n        /* \"#utility.yul\":3163:3272   */\n      pop\n      pop\n      jump\t// out\n        /* \"#utility.yul\":3278:3488   */\n    tag_35:\n        /* \"#utility.yul\":3365:3369   */\n      0x00\n        /* \"#utility.yul\":3403:3405   */\n      0x20\n        /* \"#utility.yul\":3392:3401   */\n      dup3\n        /* \"#utility.yul\":3388:3406   */\n      add\n        /* \"#utility.yul\":3380:3406   */\n      swap1\n      pop\n        /* \"#utility.yul\":3416:3481   */\n      tag_496\n        /* \"#utility.yul\":3478:3479   */\n      0x00\n        /* \"#utility.yul\":3467:3476   */\n      dup4\n        /* \"#utility.yul\":3463:3480   */\n      add\n        /* \"#utility.yul\":3454:3460   */\n      dup5\n        /* \"#utility.yul\":3416:3481   */\n      tag_422\n      jump\t// in\n    tag_496:\n        /* \"#utility.yul\":3278:3488   */\n      swap3\n      swap2\n      pop\n      pop\n      jump\t// out\n        /* \"#utility.yul\":3494:3612   */\n    tag_423:\n        /* \"#utility.yul\":3581:3605   */\n      tag_498\n        /* \"#utility.yul\":3599:3604   */\n      dup2\n        /* \"#utility.yul\":3581:3605   */\n      tag_418\n      jump\t// in\n    tag_498:\n        /* \"#utility.yul\":3576:3579   */\n      dup3\n        /* \"#utility.yul\":3569:3606   */\n      mstore\n        /* \"#utility.yul\":3494:3612   */\n      pop\n      pop\n      jump\t// out\n        /* \"#utility.yul\":3618:3840   */\n    tag_45:\n        /* \"#utility.yul\":3711:3715   */\n      0x00\n        /* \"#utility.yul\":3749:3751   */\n      0x20\n        /* \"#utility.yul\":3738:3747   */\n      dup3\n        /* \"#utility.yul\":3734:3752   */\n      add\n        /* \"#utility.yul\":3726:3752   */\n      swap1\n      pop\n        /* \"#utility.yul\":3762:3833   */\n      tag_500\n        /* \"#utility.yul\":3830:3831   */\n      0x00\n        /* \"#utility.yul\":3819:3828   */\n      dup4\n        /* \"#utility.yul\":3815:3832   */\n      add\n        /* \"#utility.yul\":3806:3812   */\n      dup5\n        /* \"#utility.yul\":3762:3833   */\n      tag_423\n      jump\t// in\n    tag_500:\n        /* \"#utility.yul\":3618:3840   */\n      swap3\n      swap2\n      pop\n      pop\n      jump\t// out\n        /* \"#utility.yul\":3846:4465   */\n    tag_48:\n        /* \"#utility.yul\":3923:3929   */\n      0x00\n        /* \"#utility.yul\":3931:3937   */\n      dup1\n        /* \"#utility.yul\":3939:3945   */\n      0x00\n        /* \"#utility.yul\":3988:3990   */\n      0x60\n        /* \"#utility.yul\":3976:3985   */\n      dup5\n        /* \"#utility.yul\":3967:3974   */\n      dup7\n        /* \"#utility.yul\":3963:3986   */\n      sub\n        /* \"#utility.yul\":3959:3991   */\n      slt\n        /* \"#utility.yul\":3956:4075   */\n      iszero\n      tag_502\n      jumpi\n        /* \"#utility.yul\":3994:4073   */\n      tag_503\n      tag_412\n      jump\t// in\n    tag_503:\n        /* \"#utility.yul\":3956:4075   */\n    tag_502:\n        /* \"#utility.yul\":4114:4115   */\n      0x00\n        /* \"#utility.yul\":4139:4192   */\n      tag_504\n        /* \"#utility.yul\":4184:4191   */\n      dup7\n        /* \"#utility.yul\":4175:4181   */\n      dup3\n        /* \"#utility.yul\":4164:4173   */\n      dup8\n        /* \"#utility.yul\":4160:4182   */\n      add\n        /* \"#utility.yul\":4139:4192   */\n      tag_417\n      jump\t// in\n    tag_504:\n        /* \"#utility.yul\":4129:4192   */\n      swap4\n      pop\n        /* \"#utility.yul\":4085:4202   */\n      pop\n        /* \"#utility.yul\":4241:4243   */\n      0x20\n        /* \"#utility.yul\":4267:4320   */\n      tag_505\n        /* \"#utility.yul\":4312:4319   */\n      dup7\n        /* \"#utility.yul\":4303:4309   */\n      dup3\n        /* \"#utility.yul\":4292:4301   */\n      dup8\n        /* \"#utility.yul\":4288:4310   */\n      add\n        /* \"#utility.yul\":4267:4320   */\n      tag_417\n      jump\t// in\n    tag_505:\n        /* \"#utility.yul\":4257:4320   */\n      swap3\n      pop\n        /* \"#utility.yul\":4212:4330   */\n      pop\n        /* \"#utility.yul\":4369:4371   */\n      0x40\n        /* \"#utility.yul\":4395:4448   */\n      tag_506\n        /* \"#utility.yul\":4440:4447   */\n      dup7\n        /* \"#utility.yul\":4431:4437   */\n      dup3\n        /* \"#utility.yul\":4420:4429   */\n      dup8\n        /* \"#utility.yul\":4416:4438   */\n      add\n        /* \"#utility.yul\":4395:4448   */\n      tag_420\n      jump\t// in\n    tag_506:\n        /* \"#utility.yul\":4385:4448   */\n      swap2\n      pop\n        /* \"#utility.yul\":4340:4458   */\n      pop\n        /* \"#utility.yul\":3846:4465   */\n      swap3\n      pop\n      swap3\n      pop\n      swap3\n      jump\t// out\n        /* \"#utility.yul\":4471:4557   */\n    tag_424:\n        /* \"#utility.yul\":4506:4513   */\n      0x00\n        /* \"#utility.yul\":4546:4550   */\n      0xff\n        /* \"#utility.yul\":4539:4544   */\n      dup3\n        /* \"#utility.yul\":4535:4551   */\n      and\n        /* \"#utility.yul\":4524:4551   */\n      swap1\n      pop\n        /* \"#utility.yul\":4471:4557   */\n      swap2\n      swap1\n      pop\n      jump\t// out\n        /* \"#utility.yul\":4563:4675   */\n    tag_425:\n        /* \"#utility.yul\":4646:4668   */\n      tag_509\n        /* \"#utility.yul\":4662:4667   */\n      dup2\n        /* \"#utility.yul\":4646:4668   */\n      tag_424\n      jump\t// in\n    tag_509:\n        /* \"#utility.yul\":4641:4644   */\n      dup3\n        /* \"#utility.yul\":4634:4669   */\n      mstore\n        /* \"#utility.yul\":4563:4675   */\n      pop\n      pop\n      jump\t// out\n        /* \"#utility.yul\":4681:4895   */\n    tag_54:\n        /* \"#utility.yul\":4770:4774   */\n      0x00\n        /* \"#utility.yul\":4808:4810   */\n      0x20\n        /* \"#utility.yul\":4797:4806   */\n      dup3\n        /* \"#utility.yul\":4793:4811   */\n      add\n        /* \"#utility.yul\":4785:4811   */\n      swap1\n      pop\n        /* \"#utility.yul\":4821:4888   */\n      tag_511\n        /* \"#utility.yul\":4885:4886   */\n      0x00\n        /* \"#utility.yul\":4874:4883   */\n      dup4\n        /* \"#utility.yul\":4870:4887   */\n      add\n        /* \"#utility.yul\":4861:4867   */\n      dup5\n        /* \"#utility.yul\":4821:4888   */\n      tag_425\n      jump\t// in\n    tag_511:\n        /* \"#utility.yul\":4681:4895   */\n      swap3\n      swap2\n      pop\n      pop\n      jump\t// out\n        /* \"#utility.yul\":4901:5230   */\n    tag_61:\n        /* \"#utility.yul\":4960:4966   */\n      0x00\n        /* \"#utility.yul\":5009:5011   */\n      0x20\n        /* \"#utility.yul\":4997:5006   */\n      dup3\n        /* \"#utility.yul\":4988:4995   */\n      dup5\n        /* \"#utility.yul\":4984:5007   */\n      sub\n        /* \"#utility.yul\":4980:5012   */\n      slt\n        /* \"#utility.yul\":4977:5096   */\n      iszero\n      tag_513\n      jumpi\n        /* \"#utility.yul\":5015:5094   */\n      tag_514\n      tag_412\n      jump\t// in\n    tag_514:\n        /* \"#utility.yul\":4977:5096   */\n    tag_513:\n        /* \"#utility.yul\":5135:5136   */\n      0x00\n        /* \"#utility.yul\":5160:5213   */\n      tag_515\n        /* \"#utility.yul\":5205:5212   */\n      dup5\n        /* \"#utility.yul\":5196:5202   */\n      dup3\n        /* \"#utility.yul\":5185:5194   */\n      dup6\n        /* \"#utility.yul\":5181:5203   */\n      add\n        /* \"#utility.yul\":5160:5213   */\n      tag_417\n      jump\t// in\n    tag_515:\n        /* \"#utility.yul\":5150:5213   */\n      swap2\n      pop\n        /* \"#utility.yul\":5106:5223   */\n      pop\n        /* \"#utility.yul\":4901:5230   */\n      swap3\n      swap2\n      pop\n      pop\n      jump\t// out\n        /* \"#utility.yul\":5236:5354   */\n    tag_426:\n        /* \"#utility.yul\":5323:5347   */\n      tag_517\n        /* \"#utility.yul\":5341:5346   */\n      dup2\n        /* \"#utility.yul\":5323:5347   */\n      tag_415\n      jump\t// in\n    tag_517:\n        /* \"#utility.yul\":5318:5321   */\n      dup3\n        /* \"#utility.yul\":5311:5348   */\n      mstore\n        /* \"#utility.yul\":5236:5354   */\n      pop\n      pop\n      jump\t// out\n        /* \"#utility.yul\":5360:5582   */\n    tag_73:\n        /* \"#utility.yul\":5453:5457   */\n      0x00\n        /* \"#utility.yul\":5491:5493   */\n      0x20\n        /* \"#utility.yul\":5480:5489   */\n      dup3\n        /* \"#utility.yul\":5476:5494   */\n      add\n        /* \"#utility.yul\":5468:5494   */\n      swap1\n      pop\n        /* \"#utility.yul\":5504:5575   */\n      tag_519\n        /* \"#utility.yul\":5572:5573   */\n      0x00\n        /* \"#utility.yul\":5561:5570   */\n      dup4\n        /* \"#utility.yul\":5557:5574   */\n      add\n        /* \"#utility.yul\":5548:5554   */\n      dup5\n        /* \"#utility.yul\":5504:5575   */\n      tag_426\n      jump\t// in\n    tag_519:\n        /* \"#utility.yul\":5360:5582   */\n      swap3\n      swap2\n      pop\n      pop\n      jump\t// out\n        /* \"#utility.yul\":5588:5917   */\n    tag_79:\n        /* \"#utility.yul\":5647:5653   */\n      0x00\n        /* \"#utility.yul\":5696:5698   */\n      0x20\n        /* \"#utility.yul\":5684:5693   */\n      dup3\n        /* \"#utility.yul\":5675:5682   */\n      dup5\n        /* \"#utility.yul\":5671:5694   */\n      sub\n        /* \"#utility.yul\":5667:5699   */\n      slt\n        /* \"#utility.yul\":5664:5783   */\n      iszero\n      tag_521\n      jumpi\n        /* \"#utility.yul\":5702:5781   */\n      tag_522\n      tag_412\n      jump\t// in\n    tag_522:\n        /* \"#utility.yul\":5664:5783   */\n    tag_521:\n        /* \"#utility.yul\":5822:5823   */\n      0x00\n        /* \"#utility.yul\":5847:5900   */\n      tag_523\n        /* \"#utility.yul\":5892:5899   */\n      dup5\n        /* \"#utility.yul\":5883:5889   */\n      dup3\n        /* \"#utility.yul\":5872:5881   */\n      dup6\n        /* \"#utility.yul\":5868:5890   */\n      add\n        /* \"#utility.yul\":5847:5900   */\n      tag_420\n      jump\t// in\n    tag_523:\n        /* \"#utility.yul\":5837:5900   */\n      swap2\n      pop\n        /* \"#utility.yul\":5793:5910   */\n      pop\n        /* \"#utility.yul\":5588:5917   */\n      swap3\n      swap2\n      pop\n      pop\n      jump\t// out\n        /* \"#utility.yul\":5923:6041   */\n    tag_427:\n        /* \"#utility.yul\":5994:6016   */\n      tag_525\n        /* \"#utility.yul\":6010:6015   */\n      dup2\n        /* \"#utility.yul\":5994:6016   */\n      tag_424\n      jump\t// in\n    tag_525:\n        /* \"#utility.yul\":5987:5992   */\n      dup2\n        /* \"#utility.yul\":5984:6017   */\n      eq\n        /* \"#utility.yul\":5974:6035   */\n      tag_526\n      jumpi\n        /* \"#utility.yul\":6031:6032   */\n      0x00\n        /* \"#utility.yul\":6028:6029   */\n      dup1\n        /* \"#utility.yul\":6021:6033   */\n      revert\n        /* \"#utility.yul\":5974:6035   */\n    tag_526:\n        /* \"#utility.yul\":5923:6041   */\n      pop\n      jump\t// out\n        /* \"#utility.yul\":6047:6182   */\n    tag_428:\n        /* \"#utility.yul\":6091:6096   */\n      0x00\n        /* \"#utility.yul\":6129:6135   */\n      dup2\n        /* \"#utility.yul\":6116:6136   */\n      calldataload\n        /* \"#utility.yul\":6107:6136   */\n      swap1\n      pop\n        /* \"#utility.yul\":6145:6176   */\n      tag_528\n        /* \"#utility.yul\":6170:6175   */\n      dup2\n        /* \"#utility.yul\":6145:6176   */\n      tag_427\n      jump\t// in\n    tag_528:\n        /* \"#utility.yul\":6047:6182   */\n      swap3\n      swap2\n      pop\n      pop\n      jump\t// out\n        /* \"#utility.yul\":6188:6658   */\n    tag_83:\n        /* \"#utility.yul\":6254:6260   */\n      0x00\n        /* \"#utility.yul\":6262:6268   */\n      dup1\n        /* \"#utility.yul\":6311:6313   */\n      0x40\n        /* \"#utility.yul\":6299:6308   */\n      dup4\n        /* \"#utility.yul\":6290:6297   */\n      dup6\n        /* \"#utility.yul\":6286:6309   */\n      sub\n        /* \"#utility.yul\":6282:6314   */\n      slt\n        /* \"#utility.yul\":6279:6398   */\n      iszero\n      tag_530\n      jumpi\n        /* \"#utility.yul\":6317:6396   */\n      tag_531\n      tag_412\n      jump\t// in\n    tag_531:\n        /* \"#utility.yul\":6279:6398   */\n    tag_530:\n        /* \"#utility.yul\":6437:6438   */\n      0x00\n        /* \"#utility.yul\":6462:6515   */\n      tag_532\n        /* \"#utility.yul\":6507:6514   */\n      dup6\n        /* \"#utility.yul\":6498:6504   */\n      dup3\n        /* \"#utility.yul\":6487:6496   */\n      dup7\n        /* \"#utility.yul\":6483:6505   */\n      add\n        /* \"#utility.yul\":6462:6515   */\n      tag_417\n      jump\t// in\n    tag_532:\n        /* \"#utility.yul\":6452:6515   */\n      swap3\n      pop\n        /* \"#utility.yul\":6408:6525   */\n      pop\n        /* \"#utility.yul\":6564:6566   */\n      0x20\n        /* \"#utility.yul\":6590:6641   */\n      tag_533\n        /* \"#utility.yul\":6633:6640   */\n      dup6\n        /* \"#utility.yul\":6624:6630   */\n      dup3\n        /* \"#utility.yul\":6613:6622   */\n      dup7\n        /* \"#utility.yul\":6609:6631   */\n      add\n        /* \"#utility.yul\":6590:6641   */\n      tag_428\n      jump\t// in\n    tag_533:\n        /* \"#utility.yul\":6580:6641   */\n      swap2\n      pop\n        /* \"#utility.yul\":6535:6651   */\n      pop\n        /* \"#utility.yul\":6188:6658   */\n      swap3\n      pop\n      swap3\n      swap1\n      pop\n      jump\t// out\n        /* \"#utility.yul\":6664:7138   */\n    tag_95:\n        /* \"#utility.yul\":6732:6738   */\n      0x00\n        /* \"#utility.yul\":6740:6746   */\n      dup1\n        /* \"#utility.yul\":6789:6791   */\n      0x40\n        /* \"#utility.yul\":6777:6786   */\n      dup4\n        /* \"#utility.yul\":6768:6775   */\n      dup6\n        /* \"#utility.yul\":6764:6787   */\n      sub\n        /* \"#utility.yul\":6760:6792   */\n      slt\n        /* \"#utility.yul\":6757:6876   */\n      iszero\n      tag_535\n      jumpi\n        /* \"#utility.yul\":6795:6874   */\n      tag_536\n      tag_412\n      jump\t// in\n    tag_536:\n        /* \"#utility.yul\":6757:6876   */\n    tag_535:\n        /* \"#utility.yul\":6915:6916   */\n      0x00\n        /* \"#utility.yul\":6940:6993   */\n      tag_537\n        /* \"#utility.yul\":6985:6992   */\n      dup6\n        /* \"#utility.yul\":6976:6982   */\n      dup3\n        /* \"#utility.yul\":6965:6974   */\n      dup7\n        /* \"#utility.yul\":6961:6983   */\n      add\n        /* \"#utility.yul\":6940:6993   */\n      tag_417\n      jump\t// in\n    tag_537:\n        /* \"#utility.yul\":6930:6993   */\n      swap3\n      pop\n        /* \"#utility.yul\":6886:7003   */\n      pop\n        /* \"#utility.yul\":7042:7044   */\n      0x20\n        /* \"#utility.yul\":7068:7121   */\n      tag_538\n        /* \"#utility.yul\":7113:7120   */\n      dup6\n        /* \"#utility.yul\":7104:7110   */\n      dup3\n        /* \"#utility.yul\":7093:7102   */\n      dup7\n        /* \"#utility.yul\":7089:7111   */\n      add\n        /* \"#utility.yul\":7068:7121   */\n      tag_417\n      jump\t// in\n    tag_538:\n        /* \"#utility.yul\":7058:7121   */\n      swap2\n      pop\n        /* \"#utility.yul\":7013:7131   */\n      pop\n        /* \"#utility.yul\":6664:7138   */\n      swap3\n      pop\n      swap3\n      swap1\n      pop\n      jump\t// out\n        /* \"#utility.yul\":7144:7248   */\n    tag_429:\n        /* \"#utility.yul\":7189:7196   */\n      0x00\n        /* \"#utility.yul\":7218:7242   */\n      tag_540\n        /* \"#utility.yul\":7236:7241   */\n      dup3\n        /* \"#utility.yul\":7218:7242   */\n      tag_414\n      jump\t// in\n    tag_540:\n        /* \"#utility.yul\":7207:7242   */\n      swap1\n      pop\n        /* \"#utility.yul\":7144:7248   */\n      swap2\n      swap1\n      pop\n      jump\t// out\n        /* \"#utility.yul\":7254:7396   */\n    tag_430:\n        /* \"#utility.yul\":7357:7389   */\n      tag_542\n        /* \"#utility.yul\":7383:7388   */\n      dup2\n        /* \"#utility.yul\":7357:7389   */\n      tag_429\n      jump\t// in\n    tag_542:\n        /* \"#utility.yul\":7352:7355   */\n      dup3\n        /* \"#utility.yul\":7345:7390   */\n      mstore\n        /* \"#utility.yul\":7254:7396   */\n      pop\n      pop\n      jump\t// out\n        /* \"#utility.yul\":7402:7656   */\n    tag_104:\n        /* \"#utility.yul\":7511:7515   */\n      0x00\n        /* \"#utility.yul\":7549:7551   */\n      0x20\n        /* \"#utility.yul\":7538:7547   */\n      dup3\n        /* \"#utility.yul\":7534:7552   */\n      add\n        /* \"#utility.yul\":7526:7552   */\n      swap1\n      pop\n        /* \"#utility.yul\":7562:7649   */\n      tag_544\n        /* \"#utility.yul\":7646:7647   */\n      0x00\n        /* \"#utility.yul\":7635:7644   */\n      dup4\n        /* \"#utility.yul\":7631:7648   */\n      add\n        /* \"#utility.yul\":7622:7628   */\n      dup5\n        /* \"#utility.yul\":7562:7649   */\n      tag_430\n      jump\t// in\n    tag_544:\n        /* \"#utility.yul\":7402:7656   */\n      swap3\n      swap2\n      pop\n      pop\n      jump\t// out\n        /* \"#utility.yul\":7662:7842   */\n    tag_431:\n        /* \"#utility.yul\":7710:7787   */\n      0x4e487b7100000000000000000000000000000000000000000000000000000000\n        /* \"#utility.yul\":7707:7708   */\n      0x00\n        /* \"#utility.yul\":7700:7788   */\n      mstore\n        /* \"#utility.yul\":7807:7811   */\n      0x22\n        /* \"#utility.yul\":7804:7805   */\n      0x04\n        /* \"#utility.yul\":7797:7812   */\n      mstore\n        /* \"#utility.yul\":7831:7835   */\n      0x24\n        /* \"#utility.yul\":7828:7829   */\n      0x00\n        /* \"#utility.yul\":7821:7836   */\n      revert\n        /* \"#utility.yul\":7848:8168   */\n    tag_107:\n        /* \"#utility.yul\":7892:7898   */\n      0x00\n        /* \"#utility.yul\":7929:7930   */\n      0x02\n        /* \"#utility.yul\":7923:7927   */\n      dup3\n        /* \"#utility.yul\":7919:7931   */\n      div\n        /* \"#utility.yul\":7909:7931   */\n      swap1\n      pop\n        /* \"#utility.yul\":7976:7977   */\n      0x01\n        /* \"#utility.yul\":7970:7974   */\n      dup3\n        /* \"#utility.yul\":7966:7978   */\n      and\n        /* \"#utility.yul\":7997:8015   */\n      dup1\n        /* \"#utility.yul\":7987:8068   */\n      tag_547\n      jumpi\n        /* \"#utility.yul\":8053:8057   */\n      0x7f\n        /* \"#utility.yul\":8045:8051   */\n      dup3\n        /* \"#utility.yul\":8041:8058   */\n      and\n        /* \"#utility.yul\":8031:8058   */\n      swap2\n      pop\n        /* \"#utility.yul\":7987:8068   */\n    tag_547:\n        /* \"#utility.yul\":8115:8117   */\n      0x20\n        /* \"#utility.yul\":8107:8113   */\n      dup3\n        /* \"#utility.yul\":8104:8118   */\n      lt\n        /* \"#utility.yul\":8084:8102   */\n      dup2\n        /* \"#utility.yul\":8081:8119   */\n      sub\n        /* \"#utility.yul\":8078:8162   */\n      tag_548\n      jumpi\n        /* \"#utility.yul\":8134:8152   */\n      tag_549\n      tag_431\n      jump\t// in\n    tag_549:\n        /* \"#utility.yul\":8078:8162   */\n    tag_548:\n        /* \"#utility.yul\":7899:8168   */\n      pop\n        /* \"#utility.yul\":7848:8168   */\n      swap2\n      swap1\n      pop\n      jump\t// out\n        /* \"#utility.yul\":8174:8356   */\n    tag_432:\n        /* \"#utility.yul\":8314:8348   */\n      0x4f776e61626c653a2063616c6c6572206973206e6f7420746865206f776e6572\n        /* \"#utility.yul\":8310:8311   */\n      0x00\n        /* \"#utility.yul\":8302:8308   */\n      dup3\n        /* \"#utility.yul\":8298:8312   */\n      add\n        /* \"#utility.yul\":8291:8349   */\n      mstore\n        /* \"#utility.yul\":8174:8356   */\n      pop\n      jump\t// out\n        /* \"#utility.yul\":8362:8728   */\n    tag_433:\n        /* \"#utility.yul\":8504:8507   */\n      0x00\n        /* \"#utility.yul\":8525:8592   */\n      tag_552\n        /* \"#utility.yul\":8589:8591   */\n      0x20\n        /* \"#utility.yul\":8584:8587   */\n      dup4\n        /* \"#utility.yul\":8525:8592   */\n      tag_407\n      jump\t// in\n    tag_552:\n        /* \"#utility.yul\":8518:8592   */\n      swap2\n      pop\n        /* \"#utility.yul\":8601:8694   */\n      tag_553\n        /* \"#utility.yul\":8690:8693   */\n      dup3\n        /* \"#utility.yul\":8601:8694   */\n      tag_432\n      jump\t// in\n    tag_553:\n        /* \"#utility.yul\":8719:8721   */\n      0x20\n        /* \"#utility.yul\":8714:8717   */\n      dup3\n        /* \"#utility.yul\":8710:8722   */\n      add\n        /* \"#utility.yul\":8703:8722   */\n      swap1\n      pop\n        /* \"#utility.yul\":8362:8728   */\n      swap2\n      swap1\n      pop\n      jump\t// out\n        /* \"#utility.yul\":8734:9153   */\n    tag_122:\n        /* \"#utility.yul\":8900:8904   */\n      0x00\n        /* \"#utility.yul\":8938:8940   */\n      0x20\n        /* \"#utility.yul\":8927:8936   */\n      dup3\n        /* \"#utility.yul\":8923:8941   */\n      add\n        /* \"#utility.yul\":8915:8941   */\n      swap1\n      pop\n        /* \"#utility.yul\":8987:8996   */\n      dup2\n        /* \"#utility.yul\":8981:8985   */\n      dup2\n        /* \"#utility.yul\":8977:8997   */\n      sub\n        /* \"#utility.yul\":8973:8974   */\n      0x00\n        /* \"#utility.yul\":8962:8971   */\n      dup4\n        /* \"#utility.yul\":8958:8975   */\n      add\n        /* \"#utility.yul\":8951:8998   */\n      mstore\n        /* \"#utility.yul\":9015:9146   */\n      tag_555\n        /* \"#utility.yul\":9141:9145   */\n      dup2\n        /* \"#utility.yul\":9015:9146   */\n      tag_433\n      jump\t// in\n    tag_555:\n        /* \"#utility.yul\":9007:9146   */\n      swap1\n      pop\n        /* \"#utility.yul\":8734:9153   */\n      swap2\n      swap1\n      pop\n      jump\t// out\n        /* \"#utility.yul\":9159:9382   */\n    tag_434:\n        /* \"#utility.yul\":9299:9333   */\n      0x6163636f756e74206973206e6f74206120726567756c6172207368617265686f\n        /* \"#utility.yul\":9295:9296   */\n      0x00\n        /* \"#utility.yul\":9287:9293   */\n      dup3\n        /* \"#utility.yul\":9283:9297   */\n      add\n        /* \"#utility.yul\":9276:9334   */\n      mstore\n        /* \"#utility.yul\":9368:9374   */\n      0x6c64657200000000000000000000000000000000000000000000000000000000\n        /* \"#utility.yul\":9363:9365   */\n      0x20\n        /* \"#utility.yul\":9355:9361   */\n      dup3\n        /* \"#utility.yul\":9351:9366   */\n      add\n        /* \"#utility.yul\":9344:9375   */\n      mstore\n        /* \"#utility.yul\":9159:9382   */\n      pop\n      jump\t// out\n        /* \"#utility.yul\":9388:9754   */\n    tag_435:\n        /* \"#utility.yul\":9530:9533   */\n      0x00\n        /* \"#utility.yul\":9551:9618   */\n      tag_558\n        /* \"#utility.yul\":9615:9617   */\n      0x24\n        /* \"#utility.yul\":9610:9613   */\n      dup4\n        /* \"#utility.yul\":9551:9618   */\n      tag_407\n      jump\t// in\n    tag_558:\n        /* \"#utility.yul\":9544:9618   */\n      swap2\n      pop\n        /* \"#utility.yul\":9627:9720   */\n      tag_559\n        /* \"#utility.yul\":9716:9719   */\n      dup3\n        /* \"#utility.yul\":9627:9720   */\n      tag_434\n      jump\t// in\n    tag_559:\n        /* \"#utility.yul\":9745:9747   */\n      0x40\n        /* \"#utility.yul\":9740:9743   */\n      dup3\n        /* \"#utility.yul\":9736:9748   */\n      add\n        /* \"#utility.yul\":9729:9748   */\n      swap1\n      pop\n        /* \"#utility.yul\":9388:9754   */\n      swap2\n      swap1\n      pop\n      jump\t// out\n        /* \"#utility.yul\":9760:10179   */\n    tag_126:\n        /* \"#utility.yul\":9926:9930   */\n      0x00\n        /* \"#utility.yul\":9964:9966   */\n      0x20\n        /* \"#utility.yul\":9953:9962   */\n      dup3\n        /* \"#utility.yul\":9949:9967   */\n      add\n        /* \"#utility.yul\":9941:9967   */\n      swap1\n      pop\n        /* \"#utility.yul\":10013:10022   */\n      dup2\n        /* \"#utility.yul\":10007:10011   */\n      dup2\n        /* \"#utility.yul\":10003:10023   */\n      sub\n        /* \"#utility.yul\":9999:10000   */\n      0x00\n        /* \"#utility.yul\":9988:9997   */\n      dup4\n        /* \"#utility.yul\":9984:10001   */\n      add\n        /* \"#utility.yul\":9977:10024   */\n      mstore\n        /* \"#utility.yul\":10041:10172   */\n      tag_561\n        /* \"#utility.yul\":10167:10171   */\n      dup2\n        /* \"#utility.yul\":10041:10172   */\n      tag_435\n      jump\t// in\n    tag_561:\n        /* \"#utility.yul\":10033:10172   */\n      swap1\n      pop\n        /* \"#utility.yul\":9760:10179   */\n      swap2\n      swap1\n      pop\n      jump\t// out\n        /* \"#utility.yul\":10185:10365   */\n    tag_436:\n        /* \"#utility.yul\":10233:10310   */\n      0x4e487b7100000000000000000000000000000000000000000000000000000000\n        /* \"#utility.yul\":10230:10231   */\n      0x00\n        /* \"#utility.yul\":10223:10311   */\n      mstore\n        /* \"#utility.yul\":10330:10334   */\n      0x11\n        /* \"#utility.yul\":10327:10328   */\n      0x04\n        /* \"#utility.yul\":10320:10335   */\n      mstore\n        /* \"#utility.yul\":10354:10358   */\n      0x24\n        /* \"#utility.yul\":10351:10352   */\n      0x00\n        /* \"#utility.yul\":10344:10359   */\n      revert\n        /* \"#utility.yul\":10371:10676   */\n    tag_128:\n        /* \"#utility.yul\":10411:10414   */\n      0x00\n        /* \"#utility.yul\":10430:10450   */\n      tag_564\n        /* \"#utility.yul\":10448:10449   */\n      dup3\n        /* \"#utility.yul\":10430:10450   */\n      tag_418\n      jump\t// in\n    tag_564:\n        /* \"#utility.yul\":10425:10450   */\n      swap2\n      pop\n        /* \"#utility.yul\":10464:10484   */\n      tag_565\n        /* \"#utility.yul\":10482:10483   */\n      dup4\n        /* \"#utility.yul\":10464:10484   */\n      tag_418\n      jump\t// in\n    tag_565:\n        /* \"#utility.yul\":10459:10484   */\n      swap3\n      pop\n        /* \"#utility.yul\":10618:10619   */\n      dup3\n        /* \"#utility.yul\":10550:10616   */\n      0xffffffffffffffffffffffffffffffffffffffffffffffffffffffffffffffff\n        /* \"#utility.yul\":10546:10620   */\n      sub\n        /* \"#utility.yul\":10543:10544   */\n      dup3\n        /* \"#utility.yul\":10540:10621   */\n      gt\n        /* \"#utility.yul\":10537:10644   */\n      iszero\n      tag_566\n      jumpi\n        /* \"#utility.yul\":10624:10642   */\n      tag_567\n      tag_436\n      jump\t// in\n    tag_567:\n        /* \"#utility.yul\":10537:10644   */\n    tag_566:\n        /* \"#utility.yul\":10668:10669   */\n      dup3\n        /* \"#utility.yul\":10665:10666   */\n      dup3\n        /* \"#utility.yul\":10661:10670   */\n      add\n        /* \"#utility.yul\":10654:10670   */\n      swap1\n      pop\n        /* \"#utility.yul\":10371:10676   */\n      swap3\n      swap2\n      pop\n      pop\n      jump\t// out\n        /* \"#utility.yul\":10682:10862   */\n    tag_137:\n        /* \"#utility.yul\":10730:10807   */\n      0x4e487b7100000000000000000000000000000000000000000000000000000000\n        /* \"#utility.yul\":10727:10728   */\n      0x00\n        /* \"#utility.yul\":10720:10808   */\n      mstore\n        /* \"#utility.yul\":10827:10831   */\n      0x32\n        /* \"#utility.yul\":10824:10825   */\n      0x04\n        /* \"#utility.yul\":10817:10832   */\n      mstore\n        /* \"#utility.yul\":10851:10855   */\n      0x24\n        /* \"#utility.yul\":10848:10849   */\n      0x00\n        /* \"#utility.yul\":10841:10856   */\n      revert\n        /* \"#utility.yul\":10868:11048   */\n    tag_437:\n        /* \"#utility.yul\":10916:10993   */\n      0x4e487b7100000000000000000000000000000000000000000000000000000000\n        /* \"#utility.yul\":10913:10914   */\n      0x00\n        /* \"#utility.yul\":10906:10994   */\n      mstore\n        /* \"#utility.yul\":11013:11017   */\n      0x12\n        /* \"#utility.yul\":11010:11011   */\n      0x04\n        /* \"#utility.yul\":11003:11018   */\n      mstore\n        /* \"#utility.yul\":11037:11041   */\n      0x24\n        /* \"#utility.yul\":11034:11035   */\n      0x00\n        /* \"#utility.yul\":11027:11042   */\n      revert\n        /* \"#utility.yul\":11054:11239   */\n    tag_158:\n        /* \"#utility.yul\":11094:11095   */\n      0x00\n        /* \"#utility.yul\":11111:11131   */\n      tag_571\n        /* \"#utility.yul\":11129:11130   */\n      dup3\n        /* \"#utility.yul\":11111:11131   */\n      tag_418\n      jump\t// in\n    tag_571:\n        /* \"#utility.yul\":11106:11131   */\n      swap2\n      pop\n        /* \"#utility.yul\":11145:11165   */\n      tag_572\n        /* \"#utility.yul\":11163:11164   */\n      dup4\n        /* \"#utility.yul\":11145:11165   */\n      tag_418\n      jump\t// in\n    tag_572:\n        /* \"#utility.yul\":11140:11165   */\n      swap3\n      pop\n        /* \"#utility.yul\":11184:11185   */\n      dup3\n        /* \"#utility.yul\":11174:11209   */\n      tag_573\n      jumpi\n        /* \"#utility.yul\":11189:11207   */\n      tag_574\n      tag_437\n      jump\t// in\n    tag_574:\n        /* \"#utility.yul\":11174:11209   */\n    tag_573:\n        /* \"#utility.yul\":11231:11232   */\n      dup3\n        /* \"#utility.yul\":11228:11229   */\n      dup3\n        /* \"#utility.yul\":11224:11233   */\n      div\n        /* \"#utility.yul\":11219:11233   */\n      swap1\n      pop\n        /* \"#utility.yul\":11054:11239   */\n      swap3\n      swap2\n      pop\n      pop\n      jump\t// out\n        /* \"#utility.yul\":11245:11412   */\n    tag_164:\n        /* \"#utility.yul\":11282:11285   */\n      0x00\n        /* \"#utility.yul\":11305:11327   */\n      tag_576\n        /* \"#utility.yul\":11321:11326   */\n      dup3\n        /* \"#utility.yul\":11305:11327   */\n      tag_424\n      jump\t// in\n    tag_576:\n        /* \"#utility.yul\":11296:11327   */\n      swap2\n      pop\n        /* \"#utility.yul\":11349:11353   */\n      0xff\n        /* \"#utility.yul\":11342:11347   */\n      dup3\n        /* \"#utility.yul\":11339:11354   */\n      sub\n        /* \"#utility.yul\":11336:11377   */\n      tag_577\n      jumpi\n        /* \"#utility.yul\":11357:11375   */\n      tag_578\n      tag_436\n      jump\t// in\n    tag_578:\n        /* \"#utility.yul\":11336:11377   */\n    tag_577:\n        /* \"#utility.yul\":11404:11405   */\n      0x01\n        /* \"#utility.yul\":11397:11402   */\n      dup3\n        /* \"#utility.yul\":11393:11406   */\n      add\n        /* \"#utility.yul\":11386:11406   */\n      swap1\n      pop\n        /* \"#utility.yul\":11245:11412   */\n      swap2\n      swap1\n      pop\n      jump\t// out\n        /* \"#utility.yul\":11418:11600   */\n    tag_438:\n        /* \"#utility.yul\":11558:11592   */\n      0x6163636f756e74206973206120726567756c6172207368617265686f6c646572\n        /* \"#utility.yul\":11554:11555   */\n      0x00\n        /* \"#utility.yul\":11546:11552   */\n      dup3\n        /* \"#utility.yul\":11542:11556   */\n      add\n        /* \"#utility.yul\":11535:11593   */\n      mstore\n        /* \"#utility.yul\":11418:11600   */\n      pop\n      jump\t// out\n        /* \"#utility.yul\":11606:11972   */\n    tag_439:\n        /* \"#utility.yul\":11748:11751   */\n      0x00\n        /* \"#utility.yul\":11769:11836   */\n      tag_581\n        /* \"#utility.yul\":11833:11835   */\n      0x20\n        /* \"#utility.yul\":11828:11831   */\n      dup4\n        /* \"#utility.yul\":11769:11836   */\n      tag_407\n      jump\t// in\n    tag_581:\n        /* \"#utility.yul\":11762:11836   */\n      swap2\n      pop\n        /* \"#utility.yul\":11845:11938   */\n      tag_582\n        /* \"#utility.yul\":11934:11937   */\n      dup3\n        /* \"#utility.yul\":11845:11938   */\n      tag_438\n      jump\t// in\n    tag_582:\n        /* \"#utility.yul\":11963:11965   */\n      0x20\n        /* \"#utility.yul\":11958:11961   */\n      dup3\n        /* \"#utility.yul\":11954:11966   */\n      add\n        /* \"#utility.yul\":11947:11966   */\n      swap1\n      pop\n        /* \"#utility.yul\":11606:11972   */\n      swap2\n      swap1\n      pop\n      jump\t// out\n        /* \"#utility.yul\":11978:12397   */\n    tag_174:\n        /* \"#utility.yul\":12144:12148   */\n      0x00\n        /* \"#utility.yul\":12182:12184   */\n      0x20\n        /* \"#utility.yul\":12171:12180   */\n      dup3\n        /* \"#utility.yul\":12167:12185   */\n      add\n        /* \"#utility.yul\":12159:12185   */\n      swap1\n      pop\n        /* \"#utility.yul\":12231:12240   */\n      dup2\n        /* \"#utility.yul\":12225:12229   */\n      dup2\n        /* \"#utility.yul\":12221:12241   */\n      sub\n        /* \"#utility.yul\":12217:12218   */\n      0x00\n        /* \"#utility.yul\":12206:12215   */\n      dup4\n        /* \"#utility.yul\":12202:12219   */\n      add\n        /* \"#utility.yul\":12195:12242   */\n      mstore\n        /* \"#utility.yul\":12259:12390   */\n      tag_584\n        /* \"#utility.yul\":12385:12389   */\n      dup2\n        /* \"#utility.yul\":12259:12390   */\n      tag_439\n      jump\t// in\n    tag_584:\n        /* \"#utility.yul\":12251:12390   */\n      swap1\n      pop\n        /* \"#utility.yul\":11978:12397   */\n      swap2\n      swap1\n      pop\n      jump\t// out\n        /* \"#utility.yul\":12403:12588   */\n    tag_181:\n        /* \"#utility.yul\":12441:12445   */\n      0x00\n        /* \"#utility.yul\":12461:12479   */\n      tag_586\n        /* \"#utility.yul\":12477:12478   */\n      dup3\n        /* \"#utility.yul\":12461:12479   */\n      tag_424\n      jump\t// in\n    tag_586:\n        /* \"#utility.yul\":12456:12479   */\n      swap2\n      pop\n        /* \"#utility.yul\":12493:12511   */\n      tag_587\n        /* \"#utility.yul\":12509:12510   */\n      dup4\n        /* \"#utility.yul\":12493:12511   */\n      tag_424\n      jump\t// in\n    tag_587:\n        /* \"#utility.yul\":12488:12511   */\n      swap3\n      pop\n        /* \"#utility.yul\":12530:12531   */\n      dup3\n        /* \"#utility.yul\":12527:12528   */\n      dup3\n        /* \"#utility.yul\":12524:12532   */\n      lt\n        /* \"#utility.yul\":12521:12555   */\n      iszero\n      tag_588\n      jumpi\n        /* \"#utility.yul\":12535:12553   */\n      tag_589\n      tag_436\n      jump\t// in\n    tag_589:\n        /* \"#utility.yul\":12521:12555   */\n    tag_588:\n        /* \"#utility.yul\":12580:12581   */\n      dup3\n        /* \"#utility.yul\":12577:12578   */\n      dup3\n        /* \"#utility.yul\":12573:12582   */\n      sub\n        /* \"#utility.yul\":12565:12582   */\n      swap1\n      pop\n        /* \"#utility.yul\":12403:12588   */\n      swap3\n      swap2\n      pop\n      pop\n      jump\t// out\n        /* \"#utility.yul\":12594:12785   */\n    tag_324:\n        /* \"#utility.yul\":12634:12638   */\n      0x00\n        /* \"#utility.yul\":12654:12674   */\n      tag_591\n        /* \"#utility.yul\":12672:12673   */\n      dup3\n        /* \"#utility.yul\":12654:12674   */\n      tag_418\n      jump\t// in\n    tag_591:\n        /* \"#utility.yul\":12649:12674   */\n      swap2\n      pop\n        /* \"#utility.yul\":12688:12708   */\n      tag_592\n        /* \"#utility.yul\":12706:12707   */\n      dup4\n        /* \"#utility.yul\":12688:12708   */\n      tag_418\n      jump\t// in\n    tag_592:\n        /* \"#utility.yul\":12683:12708   */\n      swap3\n      pop\n        /* \"#utility.yul\":12727:12728   */\n      dup3\n        /* \"#utility.yul\":12724:12725   */\n      dup3\n        /* \"#utility.yul\":12721:12729   */\n      lt\n        /* \"#utility.yul\":12718:12752   */\n      iszero\n      tag_593\n      jumpi\n        /* \"#utility.yul\":12732:12750   */\n      tag_594\n      tag_436\n      jump\t// in\n    tag_594:\n        /* \"#utility.yul\":12718:12752   */\n    tag_593:\n        /* \"#utility.yul\":12777:12778   */\n      dup3\n        /* \"#utility.yul\":12774:12775   */\n      dup3\n        /* \"#utility.yul\":12770:12779   */\n      sub\n        /* \"#utility.yul\":12762:12779   */\n      swap1\n      pop\n        /* \"#utility.yul\":12594:12785   */\n      swap3\n      swap2\n      pop\n      pop\n      jump\t// out\n        /* \"#utility.yul\":12791:13015   */\n    tag_440:\n        /* \"#utility.yul\":12931:12965   */\n      0x45524332303a2064656372656173656420616c6c6f77616e63652062656c6f77\n        /* \"#utility.yul\":12927:12928   */\n      0x00\n        /* \"#utility.yul\":12919:12925   */\n      dup3\n        /* \"#utility.yul\":12915:12929   */\n      add\n        /* \"#utility.yul\":12908:12966   */\n      mstore\n        /* \"#utility.yul\":13000:13007   */\n      0x207a65726f000000000000000000000000000000000000000000000000000000\n        /* \"#utility.yul\":12995:12997   */\n      0x20\n        /* \"#utility.yul\":12987:12993   */\n      dup3\n        /* \"#utility.yul\":12983:12998   */\n      add\n        /* \"#utility.yul\":12976:13008   */\n      mstore\n        /* \"#utility.yul\":12791:13015   */\n      pop\n      jump\t// out\n        /* \"#utility.yul\":13021:13387   */\n    tag_441:\n        /* \"#utility.yul\":13163:13166   */\n      0x00\n        /* \"#utility.yul\":13184:13251   */\n      tag_597\n        /* \"#utility.yul\":13248:13250   */\n      0x25\n        /* \"#utility.yul\":13243:13246   */\n      dup4\n        /* \"#utility.yul\":13184:13251   */\n      tag_407\n      jump\t// in\n    tag_597:\n        /* \"#utility.yul\":13177:13251   */\n      swap2\n      pop\n        /* \"#utility.yul\":13260:13353   */\n      tag_598\n        /* \"#utility.yul\":13349:13352   */\n      dup3\n        /* \"#utility.yul\":13260:13353   */\n      tag_440\n      jump\t// in\n    tag_598:\n        /* \"#utility.yul\":13378:13380   */\n      0x40\n        /* \"#utility.yul\":13373:13376   */\n      dup3\n        /* \"#utility.yul\":13369:13381   */\n      add\n        /* \"#utility.yul\":13362:13381   */\n      swap1\n      pop\n        /* \"#utility.yul\":13021:13387   */\n      swap2\n      swap1\n      pop\n      jump\t// out\n        /* \"#utility.yul\":13393:13812   */\n    tag_336:\n        /* \"#utility.yul\":13559:13563   */\n      0x00\n        /* \"#utility.yul\":13597:13599   */\n      0x20\n        /* \"#utility.yul\":13586:13595   */\n      dup3\n        /* \"#utility.yul\":13582:13600   */\n      add\n        /* \"#utility.yul\":13574:13600   */\n      swap1\n      pop\n        /* \"#utility.yul\":13646:13655   */\n      dup2\n        /* \"#utility.yul\":13640:13644   */\n      dup2\n        /* \"#utility.yul\":13636:13656   */\n      sub\n        /* \"#utility.yul\":13632:13633   */\n      0x00\n        /* \"#utility.yul\":13621:13630   */\n      dup4\n        /* \"#utility.yul\":13617:13634   */\n      add\n        /* \"#utility.yul\":13610:13657   */\n      mstore\n        /* \"#utility.yul\":13674:13805   */\n      tag_600\n        /* \"#utility.yul\":13800:13804   */\n      dup2\n        /* \"#utility.yul\":13674:13805   */\n      tag_441\n      jump\t// in\n    tag_600:\n        /* \"#utility.yul\":13666:13805   */\n      swap1\n      pop\n        /* \"#utility.yul\":13393:13812   */\n      swap2\n      swap1\n      pop\n      jump\t// out\n        /* \"#utility.yul\":13818:14043   */\n    tag_442:\n        /* \"#utility.yul\":13958:13992   */\n      0x4f776e61626c653a206e6577206f776e657220697320746865207a65726f2061\n        /* \"#utility.yul\":13954:13955   */\n      0x00\n        /* \"#utility.yul\":13946:13952   */\n      dup3\n        /* \"#utility.yul\":13942:13956   */\n      add\n        /* \"#utility.yul\":13935:13993   */\n      mstore\n        /* \"#utility.yul\":14027:14035   */\n      0x6464726573730000000000000000000000000000000000000000000000000000\n        /* \"#utility.yul\":14022:14024   */\n      0x20\n        /* \"#utility.yul\":14014:14020   */\n      dup3\n        /* \"#utility.yul\":14010:14025   */\n      add\n        /* \"#utility.yul\":14003:14036   */\n      mstore\n        /* \"#utility.yul\":13818:14043   */\n      pop\n      jump\t// out\n        /* \"#utility.yul\":14049:14415   */\n    tag_443:\n        /* \"#utility.yul\":14191:14194   */\n      0x00\n        /* \"#utility.yul\":14212:14279   */\n      tag_603\n        /* \"#utility.yul\":14276:14278   */\n      0x26\n        /* \"#utility.yul\":14271:14274   */\n      dup4\n        /* \"#utility.yul\":14212:14279   */\n      tag_407\n      jump\t// in\n    tag_603:\n        /* \"#utility.yul\":14205:14279   */\n      swap2\n      pop\n        /* \"#utility.yul\":14288:14381   */\n      tag_604\n        /* \"#utility.yul\":14377:14380   */\n      dup3\n        /* \"#utility.yul\":14288:14381   */\n      tag_442\n      jump\t// in\n    tag_604:\n        /* \"#utility.yul\":14406:14408   */\n      0x40\n        /* \"#utility.yul\":14401:14404   */\n      dup3\n        /* \"#utility.yul\":14397:14409   */\n      add\n        /* \"#utility.yul\":14390:14409   */\n      swap1\n      pop\n        /* \"#utility.yul\":14049:14415   */\n      swap2\n      swap1\n      pop\n      jump\t// out\n        /* \"#utility.yul\":14421:14840   */\n    tag_363:\n        /* \"#utility.yul\":14587:14591   */\n      0x00\n        /* \"#utility.yul\":14625:14627   */\n      0x20\n        /* \"#utility.yul\":14614:14623   */\n      dup3\n        /* \"#utility.yul\":14610:14628   */\n      add\n        /* \"#utility.yul\":14602:14628   */\n      swap1\n      pop\n        /* \"#utility.yul\":14674:14683   */\n      dup2\n        /* \"#utility.yul\":14668:14672   */\n      dup2\n        /* \"#utility.yul\":14664:14684   */\n      sub\n        /* \"#utility.yul\":14660:14661   */\n      0x00\n        /* \"#utility.yul\":14649:14658   */\n      dup4\n        /* \"#utility.yul\":14645:14662   */\n      add\n        /* \"#utility.yul\":14638:14685   */\n      mstore\n        /* \"#utility.yul\":14702:14833   */\n      tag_606\n        /* \"#utility.yul\":14828:14832   */\n      dup2\n        /* \"#utility.yul\":14702:14833   */\n      tag_443\n      jump\t// in\n    tag_606:\n        /* \"#utility.yul\":14694:14833   */\n      swap1\n      pop\n        /* \"#utility.yul\":14421:14840   */\n      swap2\n      swap1\n      pop\n      jump\t// out\n        /* \"#utility.yul\":14846:15069   */\n    tag_444:\n        /* \"#utility.yul\":14986:15020   */\n      0x45524332303a20617070726f76652066726f6d20746865207a65726f20616464\n        /* \"#utility.yul\":14982:14983   */\n      0x00\n        /* \"#utility.yul\":14974:14980   */\n      dup3\n        /* \"#utility.yul\":14970:14984   */\n      add\n        /* \"#utility.yul\":14963:15021   */\n      mstore\n        /* \"#utility.yul\":15055:15061   */\n      0x7265737300000000000000000000000000000000000000000000000000000000\n        /* \"#utility.yul\":15050:15052   */\n      0x20\n        /* \"#utility.yul\":15042:15048   */\n      dup3\n        /* \"#utility.yul\":15038:15053   */\n      add\n        /* \"#utility.yul\":15031:15062   */\n      mstore\n        /* \"#utility.yul\":14846:15069   */\n      pop\n      jump\t// out\n        /* \"#utility.yul\":15075:15441   */\n    tag_445:\n        /* \"#utility.yul\":15217:15220   */\n      0x00\n        /* \"#utility.yul\":15238:15305   */\n      tag_609\n        /* \"#utility.yul\":15302:15304   */\n      0x24\n        /* \"#utility.yul\":15297:15300   */\n      dup4\n        /* \"#utility.yul\":15238:15305   */\n      tag_407\n      jump\t// in\n    tag_609:\n        /* \"#utility.yul\":15231:15305   */\n      swap2\n      pop\n        /* \"#utility.yul\":15314:15407   */\n      tag_610\n        /* \"#utility.yul\":15403:15406   */\n      dup3\n        /* \"#utility.yul\":15314:15407   */\n      tag_444\n      jump\t// in\n    tag_610:\n        /* \"#utility.yul\":15432:15434   */\n      0x40\n        /* \"#utility.yul\":15427:15430   */\n      dup3\n        /* \"#utility.yul\":15423:15435   */\n      add\n        /* \"#utility.yul\":15416:15435   */\n      swap1\n      pop\n        /* \"#utility.yul\":15075:15441   */\n      swap2\n      swap1\n      pop\n      jump\t// out\n        /* \"#utility.yul\":15447:15866   */\n    tag_369:\n        /* \"#utility.yul\":15613:15617   */\n      0x00\n        /* \"#utility.yul\":15651:15653   */\n      0x20\n        /* \"#utility.yul\":15640:15649   */\n      dup3\n        /* \"#utility.yul\":15636:15654   */\n      add\n        /* \"#utility.yul\":15628:15654   */\n      swap1\n      pop\n        /* \"#utility.yul\":15700:15709   */\n      dup2\n        /* \"#utility.yul\":15694:15698   */\n      dup2\n        /* \"#utility.yul\":15690:15710   */\n      sub\n        /* \"#utility.yul\":15686:15687   */\n      0x00\n        /* \"#utility.yul\":15675:15684   */\n      dup4\n        /* \"#utility.yul\":15671:15688   */\n      add\n        /* \"#utility.yul\":15664:15711   */\n      mstore\n        /* \"#utility.yul\":15728:15859   */\n      tag_612\n        /* \"#utility.yul\":15854:15858   */\n      dup2\n        /* \"#utility.yul\":15728:15859   */\n      tag_445\n      jump\t// in\n    tag_612:\n        /* \"#utility.yul\":15720:15859   */\n      swap1\n      pop\n        /* \"#utility.yul\":15447:15866   */\n      swap2\n      swap1\n      pop\n      jump\t// out\n        /* \"#utility.yul\":15872:16093   */\n    tag_446:\n        /* \"#utility.yul\":16012:16046   */\n      0x45524332303a20617070726f766520746f20746865207a65726f206164647265\n        /* \"#utility.yul\":16008:16009   */\n      0x00\n        /* \"#utility.yul\":16000:16006   */\n      dup3\n        /* \"#utility.yul\":15996:16010   */\n      add\n        /* \"#utility.yul\":15989:16047   */\n      mstore\n        /* \"#utility.yul\":16081:16085   */\n      0x7373000000000000000000000000000000000000000000000000000000000000\n        /* \"#utility.yul\":16076:16078   */\n      0x20\n        /* \"#utility.yul\":16068:16074   */\n      dup3\n        /* \"#utility.yul\":16064:16079   */\n      add\n        /* \"#utility.yul\":16057:16086   */\n      mstore\n        /* \"#utility.yul\":15872:16093   */\n      pop\n      jump\t// out\n        /* \"#utility.yul\":16099:16465   */\n    tag_447:\n        /* \"#utility.yul\":16241:16244   */\n      0x00\n        /* \"#utility.yul\":16262:16329   */\n      tag_615\n        /* \"#utility.yul\":16326:16328   */\n      0x22\n        /* \"#utility.yul\":16321:16324   */\n      dup4\n        /* \"#utility.yul\":16262:16329   */\n      tag_407\n      jump\t// in\n    tag_615:\n        /* \"#utility.yul\":16255:16329   */\n      swap2\n      pop\n        /* \"#utility.yul\":16338:16431   */\n      tag_616\n        /* \"#utility.yul\":16427:16430   */\n      dup3\n        /* \"#utility.yul\":16338:16431   */\n      tag_446\n      jump\t// in\n    tag_616:\n        /* \"#utility.yul\":16456:16458   */\n      0x40\n        /* \"#utility.yul\":16451:16454   */\n      dup3\n        /* \"#utility.yul\":16447:16459   */\n      add\n        /* \"#utility.yul\":16440:16459   */\n      swap1\n      pop\n        /* \"#utility.yul\":16099:16465   */\n      swap2\n      swap1\n      pop\n      jump\t// out\n        /* \"#utility.yul\":16471:16890   */\n    tag_372:\n        /* \"#utility.yul\":16637:16641   */\n      0x00\n        /* \"#utility.yul\":16675:16677   */\n      0x20\n        /* \"#utility.yul\":16664:16673   */\n      dup3\n        /* \"#utility.yul\":16660:16678   */\n      add\n        /* \"#utility.yul\":16652:16678   */\n      swap1\n      pop\n        /* \"#utility.yul\":16724:16733   */\n      dup2\n        /* \"#utility.yul\":16718:16722   */\n      dup2\n        /* \"#utility.yul\":16714:16734   */\n      sub\n        /* \"#utility.yul\":16710:16711   */\n      0x00\n        /* \"#utility.yul\":16699:16708   */\n      dup4\n        /* \"#utility.yul\":16695:16712   */\n      add\n        /* \"#utility.yul\":16688:16735   */\n      mstore\n        /* \"#utility.yul\":16752:16883   */\n      tag_618\n        /* \"#utility.yul\":16878:16882   */\n      dup2\n        /* \"#utility.yul\":16752:16883   */\n      tag_447\n      jump\t// in\n    tag_618:\n        /* \"#utility.yul\":16744:16883   */\n      swap1\n      pop\n        /* \"#utility.yul\":16471:16890   */\n      swap2\n      swap1\n      pop\n      jump\t// out\n        /* \"#utility.yul\":16896:17244   */\n    tag_378:\n        /* \"#utility.yul\":16936:16943   */\n      0x00\n        /* \"#utility.yul\":16959:16979   */\n      tag_620\n        /* \"#utility.yul\":16977:16978   */\n      dup3\n        /* \"#utility.yul\":16959:16979   */\n      tag_418\n      jump\t// in\n    tag_620:\n        /* \"#utility.yul\":16954:16979   */\n      swap2\n      pop\n        /* \"#utility.yul\":16993:17013   */\n      tag_621\n        /* \"#utility.yul\":17011:17012   */\n      dup4\n        /* \"#utility.yul\":16993:17013   */\n      tag_418\n      jump\t// in\n    tag_621:\n        /* \"#utility.yul\":16988:17013   */\n      swap3\n      pop\n        /* \"#utility.yul\":17181:17182   */\n      dup2\n        /* \"#utility.yul\":17113:17179   */\n      0xffffffffffffffffffffffffffffffffffffffffffffffffffffffffffffffff\n        /* \"#utility.yul\":17109:17183   */\n      div\n        /* \"#utility.yul\":17106:17107   */\n      dup4\n        /* \"#utility.yul\":17103:17184   */\n      gt\n        /* \"#utility.yul\":17098:17099   */\n      dup3\n        /* \"#utility.yul\":17091:17100   */\n      iszero\n        /* \"#utility.yul\":17084:17101   */\n      iszero\n        /* \"#utility.yul\":17080:17185   */\n      and\n        /* \"#utility.yul\":17077:17208   */\n      iszero\n      tag_622\n      jumpi\n        /* \"#utility.yul\":17188:17206   */\n      tag_623\n      tag_436\n      jump\t// in\n    tag_623:\n        /* \"#utility.yul\":17077:17208   */\n    tag_622:\n        /* \"#utility.yul\":17236:17237   */\n      dup3\n        /* \"#utility.yul\":17233:17234   */\n      dup3\n        /* \"#utility.yul\":17229:17238   */\n      mul\n        /* \"#utility.yul\":17218:17238   */\n      swap1\n      pop\n        /* \"#utility.yul\":16896:17244   */\n      swap3\n      swap2\n      pop\n      pop\n      jump\t// out\n        /* \"#utility.yul\":17250:17474   */\n    tag_448:\n        /* \"#utility.yul\":17390:17424   */\n      0x45524332303a207472616e736665722066726f6d20746865207a65726f206164\n        /* \"#utility.yul\":17386:17387   */\n      0x00\n        /* \"#utility.yul\":17378:17384   */\n      dup3\n        /* \"#utility.yul\":17374:17388   */\n      add\n        /* \"#utility.yul\":17367:17425   */\n      mstore\n        /* \"#utility.yul\":17459:17466   */\n      0x6472657373000000000000000000000000000000000000000000000000000000\n        /* \"#utility.yul\":17454:17456   */\n      0x20\n        /* \"#utility.yul\":17446:17452   */\n      dup3\n        /* \"#utility.yul\":17442:17457   */\n      add\n        /* \"#utility.yul\":17435:17467   */\n      mstore\n        /* \"#utility.yul\":17250:17474   */\n      pop\n      jump\t// out\n        /* \"#utility.yul\":17480:17846   */\n    tag_449:\n        /* \"#utility.yul\":17622:17625   */\n      0x00\n        /* \"#utility.yul\":17643:17710   */\n      tag_626\n        /* \"#utility.yul\":17707:17709   */\n      0x25\n        /* \"#utility.yul\":17702:17705   */\n      dup4\n        /* \"#utility.yul\":17643:17710   */\n      tag_407\n      jump\t// in\n    tag_626:\n        /* \"#utility.yul\":17636:17710   */\n      swap2\n      pop\n        /* \"#utility.yul\":17719:17812   */\n      tag_627\n        /* \"#utility.yul\":17808:17811   */\n      dup3\n        /* \"#utility.yul\":17719:17812   */\n      tag_448\n      jump\t// in\n    tag_627:\n        /* \"#utility.yul\":17837:17839   */\n      0x40\n        /* \"#utility.yul\":17832:17835   */\n      dup3\n        /* \"#utility.yul\":17828:17840   */\n      add\n        /* \"#utility.yul\":17821:17840   */\n      swap1\n      pop\n        /* \"#utility.yul\":17480:17846   */\n      swap2\n      swap1\n      pop\n      jump\t// out\n        /* \"#utility.yul\":17852:18271   */\n    tag_393:\n        /* \"#utility.yul\":18018:18022   */\n      0x00\n        /* \"#utility.yul\":18056:18058   */\n      0x20\n        /* \"#utility.yul\":18045:18054   */\n      dup3\n        /* \"#utility.yul\":18041:18059   */\n      add\n        /* \"#utility.yul\":18033:18059   */\n      swap1\n      pop\n        /* \"#utility.yul\":18105:18114   */\n      dup2\n        /* \"#utility.yul\":18099:18103   */\n      dup2\n        /* \"#utility.yul\":18095:18115   */\n      sub\n        /* \"#utility.yul\":18091:18092   */\n      0x00\n        /* \"#utility.yul\":18080:18089   */\n      dup4\n        /* \"#utility.yul\":18076:18093   */\n      add\n        /* \"#utility.yul\":18069:18116   */\n      mstore\n        /* \"#utility.yul\":18133:18264   */\n      tag_629\n        /* \"#utility.yul\":18259:18263   */\n      dup2\n        /* \"#utility.yul\":18133:18264   */\n      tag_449\n      jump\t// in\n    tag_629:\n        /* \"#utility.yul\":18125:18264   */\n      swap1\n      pop\n        /* \"#utility.yul\":17852:18271   */\n      swap2\n      swap1\n      pop\n      jump\t// out\n        /* \"#utility.yul\":18277:18499   */\n    tag_450:\n        /* \"#utility.yul\":18417:18451   */\n      0x45524332303a207472616e7366657220746f20746865207a65726f2061646472\n        /* \"#utility.yul\":18413:18414   */\n      0x00\n        /* \"#utility.yul\":18405:18411   */\n      dup3\n        /* \"#utility.yul\":18401:18415   */\n      add\n        /* \"#utility.yul\":18394:18452   */\n      mstore\n        /* \"#utility.yul\":18486:18491   */\n      0x6573730000000000000000000000000000000000000000000000000000000000\n        /* \"#utility.yul\":18481:18483   */\n      0x20\n        /* \"#utility.yul\":18473:18479   */\n      dup3\n        /* \"#utility.yul\":18469:18484   */\n      add\n        /* \"#utility.yul\":18462:18492   */\n      mstore\n        /* \"#utility.yul\":18277:18499   */\n      pop\n      jump\t// out\n        /* \"#utility.yul\":18505:18871   */\n    tag_451:\n        /* \"#utility.yul\":18647:18650   */\n      0x00\n        /* \"#utility.yul\":18668:18735   */\n      tag_632\n        /* \"#utility.yul\":18732:18734   */\n      0x23\n        /* \"#utility.yul\":18727:18730   */\n      dup4\n        /* \"#utility.yul\":18668:18735   */\n      tag_407\n      jump\t// in\n    tag_632:\n        /* \"#utility.yul\":18661:18735   */\n      swap2\n      pop\n        /* \"#utility.yul\":18744:18837   */\n      tag_633\n        /* \"#utility.yul\":18833:18836   */\n      dup3\n        /* \"#utility.yul\":18744:18837   */\n      tag_450\n      jump\t// in\n    tag_633:\n        /* \"#utility.yul\":18862:18864   */\n      0x40\n        /* \"#utility.yul\":18857:18860   */\n      dup3\n        /* \"#utility.yul\":18853:18865   */\n      add\n        /* \"#utility.yul\":18846:18865   */\n      swap1\n      pop\n        /* \"#utility.yul\":18505:18871   */\n      swap2\n      swap1\n      pop\n      jump\t// out\n        /* \"#utility.yul\":18877:19296   */\n    tag_396:\n        /* \"#utility.yul\":19043:19047   */\n      0x00\n        /* \"#utility.yul\":19081:19083   */\n      0x20\n        /* \"#utility.yul\":19070:19079   */\n      dup3\n        /* \"#utility.yul\":19066:19084   */\n      add\n        /* \"#utility.yul\":19058:19084   */\n      swap1\n      pop\n        /* \"#utility.yul\":19130:19139   */\n      dup2\n        /* \"#utility.yul\":19124:19128   */\n      dup2\n        /* \"#utility.yul\":19120:19140   */\n      sub\n        /* \"#utility.yul\":19116:19117   */\n      0x00\n        /* \"#utility.yul\":19105:19114   */\n      dup4\n        /* \"#utility.yul\":19101:19118   */\n      add\n        /* \"#utility.yul\":19094:19141   */\n      mstore\n        /* \"#utility.yul\":19158:19289   */\n      tag_635\n        /* \"#utility.yul\":19284:19288   */\n      dup2\n        /* \"#utility.yul\":19158:19289   */\n      tag_451\n      jump\t// in\n    tag_635:\n        /* \"#utility.yul\":19150:19289   */\n      swap1\n      pop\n        /* \"#utility.yul\":18877:19296   */\n      swap2\n      swap1\n      pop\n      jump\t// out\n        /* \"#utility.yul\":19302:19527   */\n    tag_452:\n        /* \"#utility.yul\":19442:19476   */\n      0x45524332303a207472616e7366657220616d6f756e7420657863656564732062\n        /* \"#utility.yul\":19438:19439   */\n      0x00\n        /* \"#utility.yul\":19430:19436   */\n      dup3\n        /* \"#utility.yul\":19426:19440   */\n      add\n        /* \"#utility.yul\":19419:19477   */\n      mstore\n        /* \"#utility.yul\":19511:19519   */\n      0x616c616e63650000000000000000000000000000000000000000000000000000\n        /* \"#utility.yul\":19506:19508   */\n      0x20\n        /* \"#utility.yul\":19498:19504   */\n      dup3\n        /* \"#utility.yul\":19494:19509   */\n      add\n        /* \"#utility.yul\":19487:19520   */\n      mstore\n        /* \"#utility.yul\":19302:19527   */\n      pop\n      jump\t// out\n        /* \"#utility.yul\":19533:19899   */\n    tag_453:\n        /* \"#utility.yul\":19675:19678   */\n      0x00\n        /* \"#utility.yul\":19696:19763   */\n      tag_638\n        /* \"#utility.yul\":19760:19762   */\n      0x26\n        /* \"#utility.yul\":19755:19758   */\n      dup4\n        /* \"#utility.yul\":19696:19763   */\n      tag_407\n      jump\t// in\n    tag_638:\n        /* \"#utility.yul\":19689:19763   */\n      swap2\n      pop\n        /* \"#utility.yul\":19772:19865   */\n      tag_639\n        /* \"#utility.yul\":19861:19864   */\n      dup3\n        /* \"#utility.yul\":19772:19865   */\n      tag_452\n      jump\t// in\n    tag_639:\n        /* \"#utility.yul\":19890:19892   */\n      0x40\n        /* \"#utility.yul\":19885:19888   */\n      dup3\n        /* \"#utility.yul\":19881:19893   */\n      add\n        /* \"#utility.yul\":19874:19893   */\n      swap1\n      pop\n        /* \"#utility.yul\":19533:19899   */\n      swap2\n      swap1\n      pop\n      jump\t// out\n        /* \"#utility.yul\":19905:20324   */\n    tag_401:\n        /* \"#utility.yul\":20071:20075   */\n      0x00\n        /* \"#utility.yul\":20109:20111   */\n      0x20\n        /* \"#utility.yul\":20098:20107   */\n      dup3\n        /* \"#utility.yul\":20094:20112   */\n      add\n        /* \"#utility.yul\":20086:20112   */\n      swap1\n      pop\n        /* \"#utility.yul\":20158:20167   */\n      dup2\n        /* \"#utility.yul\":20152:20156   */\n      dup2\n        /* \"#utility.yul\":20148:20168   */\n      sub\n        /* \"#utility.yul\":20144:20145   */\n      0x00\n        /* \"#utility.yul\":20133:20142   */\n      dup4\n        /* \"#utility.yul\":20129:20146   */\n      add\n        /* \"#utility.yul\":20122:20169   */\n      mstore\n        /* \"#utility.yul\":20186:20317   */\n      tag_641\n        /* \"#utility.yul\":20312:20316   */\n      dup2\n        /* \"#utility.yul\":20186:20317   */\n      tag_453\n      jump\t// in\n    tag_641:\n        /* \"#utility.yul\":20178:20317   */\n      swap1\n      pop\n        /* \"#utility.yul\":19905:20324   */\n      swap2\n      swap1\n      pop\n      jump\t// out\n\n    auxdata: 0xa264697066735822122052ce024f200ca0590d6ebbf4521ef881fd0f1df1e038709b8269328452a0c79e64736f6c634300080d0033\n}\n",
				"bytecode": {
					"linkReferences": {},
					"object": "60806040523480156200001157600080fd5b50604051620037d2380380620037d2833981810160405281019062000037919062000753565b8282816003908051906020019062000051929190620004a1565b5080600490805190602001906200006a929190620004a1565b5050506200008d620000816200026160201b60201c565b6200026960201b60201c565b620000d033620000a26200032f60201b60201c565b60ff16600a620000b391906200097a565b6311e1a300620000c49190620009cb565b6200033860201b60201c565b620000e06200032f60201b60201c565b60ff16600a620000f191906200097a565b600860006003811062000109576200010862000a2c565b5b01819055506200011e6200032f60201b60201c565b60ff16600a6200012f91906200097a565b600860016003811062000147576200014662000a2c565b5b01819055506200015c6200032f60201b60201c565b60ff16600a6200016d91906200097a565b600860026003811062000185576200018462000a2c565b5b01819055506200019a6200032f60201b60201c565b60ff16600a620001ab91906200097a565b6311e1a300620001bc9190620009cb565b600b600060038110620001d457620001d362000a2c565b5b01819055506000600b600160038110620001f357620001f262000a2c565b5b01819055506000600b60026003811062000212576200021162000a2c565b5b018190555080600e60006101000a81548173ffffffffffffffffffffffffffffffffffffffff021916908373ffffffffffffffffffffffffffffffffffffffff16021790555050505062000bcd565b600033905090565b6000600560009054906101000a900473ffffffffffffffffffffffffffffffffffffffff16905081600560006101000a81548173ffffffffffffffffffffffffffffffffffffffff021916908373ffffffffffffffffffffffffffffffffffffffff1602179055508173ffffffffffffffffffffffffffffffffffffffff168173ffffffffffffffffffffffffffffffffffffffff167f8be0079c531659141344cd1fd0a4f28419497f9722a3daafe3b4186f6b6457e060405160405180910390a35050565b60006012905090565b600073ffffffffffffffffffffffffffffffffffffffff168273ffffffffffffffffffffffffffffffffffffffff1603620003aa576040517f08c379a0000000000000000000000000000000000000000000000000000000008152600401620003a19062000abc565b60405180910390fd5b620003be600083836200049c60201b60201c565b8060026000828254620003d2919062000ade565b92505081905550806000808473ffffffffffffffffffffffffffffffffffffffff1673ffffffffffffffffffffffffffffffffffffffff168152602001908152602001600020600082825462000429919062000ade565b925050819055508173ffffffffffffffffffffffffffffffffffffffff16600073ffffffffffffffffffffffffffffffffffffffff167fddf252ad1be2c89b69c2b068fc378daa952ba7f163c4a11628f55a4df523b3ef8360405162000490919062000b4c565b60405180910390a35050565b505050565b828054620004af9062000b98565b90600052602060002090601f016020900481019282620004d357600085556200051f565b82601f10620004ee57805160ff19168380011785556200051f565b828001600101855582156200051f579182015b828111156200051e57825182559160200191906001019062000501565b5b5090506200052e919062000532565b5090565b5b808211156200054d57600081600090555060010162000533565b5090565b6000604051905090565b600080fd5b600080fd5b600080fd5b600080fd5b6000601f19601f8301169050919050565b7f4e487b7100000000000000000000000000000000000000000000000000000000600052604160045260246000fd5b620005ba826200056f565b810181811067ffffffffffffffff82111715620005dc57620005db62000580565b5b80604052505050565b6000620005f162000551565b9050620005ff8282620005af565b919050565b600067ffffffffffffffff82111562000622576200062162000580565b5b6200062d826200056f565b9050602081019050919050565b60005b838110156200065a5780820151818401526020810190506200063d565b838111156200066a576000848401525b50505050565b600062000687620006818462000604565b620005e5565b905082815260208101848484011115620006a657620006a56200056a565b5b620006b38482856200063a565b509392505050565b600082601f830112620006d357620006d262000565565b5b8151620006e584826020860162000670565b91505092915050565b600073ffffffffffffffffffffffffffffffffffffffff82169050919050565b60006200071b82620006ee565b9050919050565b6200072d816200070e565b81146200073957600080fd5b50565b6000815190506200074d8162000722565b92915050565b6000806000606084860312156200076f576200076e6200055b565b5b600084015167ffffffffffffffff81111562000790576200078f62000560565b5b6200079e86828701620006bb565b935050602084015167ffffffffffffffff811115620007c257620007c162000560565b5b620007d086828701620006bb565b9250506040620007e3868287016200073c565b9150509250925092565b7f4e487b7100000000000000000000000000000000000000000000000000000000600052601160045260246000fd5b60008160011c9050919050565b6000808291508390505b60018511156200087b57808604811115620008535762000852620007ed565b5b6001851615620008635780820291505b808102905062000873856200081c565b945062000833565b94509492505050565b60008262000896576001905062000969565b81620008a6576000905062000969565b8160018114620008bf5760028114620008ca5762000900565b600191505062000969565b60ff841115620008df57620008de620007ed565b5b8360020a915084821115620008f957620008f8620007ed565b5b5062000969565b5060208310610133831016604e8410600b84101617156200093a5782820a905083811115620009345762000933620007ed565b5b62000969565b62000949848484600162000829565b92509050818404811115620009635762000962620007ed565b5b81810290505b9392505050565b6000819050919050565b6000620009878262000970565b9150620009948362000970565b9250620009c37fffffffffffffffffffffffffffffffffffffffffffffffffffffffffffffffff848462000884565b905092915050565b6000620009d88262000970565b9150620009e58362000970565b9250817fffffffffffffffffffffffffffffffffffffffffffffffffffffffffffffffff048311821515161562000a215762000a20620007ed565b5b828202905092915050565b7f4e487b7100000000000000000000000000000000000000000000000000000000600052603260045260246000fd5b600082825260208201905092915050565b7f45524332303a206d696e7420746f20746865207a65726f206164647265737300600082015250565b600062000aa4601f8362000a5b565b915062000ab18262000a6c565b602082019050919050565b6000602082019050818103600083015262000ad78162000a95565b9050919050565b600062000aeb8262000970565b915062000af88362000970565b9250827fffffffffffffffffffffffffffffffffffffffffffffffffffffffffffffffff0382111562000b305762000b2f620007ed565b5b828201905092915050565b62000b468162000970565b82525050565b600060208201905062000b63600083018462000b3b565b92915050565b7f4e487b7100000000000000000000000000000000000000000000000000000000600052602260045260246000fd5b6000600282049050600182168062000bb157607f821691505b60208210810362000bc75762000bc662000b69565b5b50919050565b612bf58062000bdd6000396000f3fe608060405234801561001057600080fd5b506004361061012c5760003560e01c80637a0d944c116100ad578063a457c2d711610071578063a457c2d714610331578063a9059cbb14610361578063dd62ed3e14610391578063f2fde38b146103c1578063f8e233b1146103dd5761012c565b80637a0d944c1461028d5780638da5cb5b146102bd57806395d89b41146102db578063a0712d68146102f9578063a33e7d7e146103155761012c565b806323b872dd116100f457806323b872dd146101d5578063313ce56714610205578063395093511461022357806370a0823114610253578063715018a6146102835761012c565b806306fdde0314610131578063095ea7b31461014f57806313b954a31461017f5780631506f4801461019b57806318160ddd146101b7575b600080fd5b6101396103fb565b60405161014691906120a7565b60405180910390f35b61016960048036038101906101649190612162565b61048d565b60405161017691906121bd565b60405180910390f35b61019960048036038101906101949190612162565b6104ab565b005b6101b560048036038101906101b09190612162565b610768565b005b6101bf610afc565b6040516101cc91906121e7565b60405180910390f35b6101ef60048036038101906101ea9190612202565b610b06565b6040516101fc91906121bd565b60405180910390f35b61020d610b13565b60405161021a9190612271565b60405180910390f35b61023d60048036038101906102389190612162565b610b1c565b60405161024a91906121bd565b60405180910390f35b61026d6004803603810190610268919061228c565b610bc8565b60405161027a91906121e7565b60405180910390f35b61028b610d74565b005b6102a760048036038101906102a2919061228c565b610dfc565b6040516102b49190612271565b60405180910390f35b6102c5610e1c565b6040516102d291906122c8565b60405180910390f35b6102e3610e46565b6040516102f091906120a7565b60405180910390f35b610313600480360381019061030e91906122e3565b610ed8565b005b61032f600480360381019061032a919061233c565b611251565b005b61034b60048036038101906103469190612162565b6114ba565b60405161035891906121bd565b60405180910390f35b61037b60048036038101906103769190612162565b6115ae565b60405161038891906121bd565b60405180910390f35b6103ab60048036038101906103a6919061237c565b6116d9565b6040516103b891906121e7565b60405180910390f35b6103db60048036038101906103d6919061228c565b611760565b005b6103e5611857565b6040516103f291906123dd565b60405180910390f35b60606003805461040a90612427565b80601f016020809104026020016040519081016040528092919081815260200182805461043690612427565b80156104835780601f1061045857610100808354040283529160200191610483565b820191906000526020600020905b81548152906001019060200180831161046657829003601f168201915b5050505050905090565b60006104a161049a61187d565b8484611885565b6001905092915050565b6104b361187d565b73ffffffffffffffffffffffffffffffffffffffff166104d1610e1c565b73ffffffffffffffffffffffffffffffffffffffff1614610527576040517f08c379a000000000000000000000000000000000000000000000000000000000815260040161051e906124a4565b60405180910390fd5b6000600760008473ffffffffffffffffffffffffffffffffffffffff1673ffffffffffffffffffffffffffffffffffffffff16815260200190815260200160002060009054906101000a900460ff1660ff16146105b9576040517f08c379a00000000000000000000000000000000000000000000000000000000081526004016105b090612536565b60405180910390fd5b806000808473ffffffffffffffffffffffffffffffffffffffff1673ffffffffffffffffffffffffffffffffffffffff16815260200190815260200160002060008282546106079190612585565b925050819055506000600190505b60028160ff161161074a57610681610637600284611a4e90919063ffffffff16565b600b8360ff166003811061064e5761064d6125db565b5b015461065a9190612585565b60088360ff1660038110610671576106706125db565b5b0154611a6490919063ffffffff16565b60088260ff1660038110610698576106976125db565b5b01819055506106e0600b8260ff16600381106106b7576106b66125db565b5b015460088360ff16600381106106d0576106cf6125db565b5b0154611a4e90919063ffffffff16565b60088260ff16600381106106f7576106f66125db565b5b01819055506002826107099190612639565b600b8260ff16600381106107205761071f6125db565b5b0160008282546107309190612585565b9250508190555080806107429061266a565b915050610615565b50806002600082825461075d9190612585565b925050819055505050565b61077061187d565b73ffffffffffffffffffffffffffffffffffffffff1661078e610e1c565b73ffffffffffffffffffffffffffffffffffffffff16146107e4576040517f08c379a00000000000000000000000000000000000000000000000000000000081526004016107db906124a4565b60405180910390fd5b6000600760008473ffffffffffffffffffffffffffffffffffffffff1673ffffffffffffffffffffffffffffffffffffffff16815260200190815260200160002060009054906101000a900460ff1660ff1603610876576040517f08c379a000000000000000000000000000000000000000000000000000000000815260040161086d906126df565b60405180910390fd5b61087f82611a7a565b806000808473ffffffffffffffffffffffffffffffffffffffff1673ffffffffffffffffffffffffffffffffffffffff16815260200190815260200160002060008282546108cd9190612585565b925050819055506108e8600282611a6490919063ffffffff16565b600080600e60009054906101000a900473ffffffffffffffffffffffffffffffffffffffff1673ffffffffffffffffffffffffffffffffffffffff1673ffffffffffffffffffffffffffffffffffffffff16815260200190815260200160002060008282546109579190612585565b925050819055506000600760008473ffffffffffffffffffffffffffffffffffffffff1673ffffffffffffffffffffffffffffffffffffffff16815260200190815260200160002060009054906101000a900460ff1660016109b991906126ff565b9050610a0982600b8360ff16600381106109d6576109d56125db565b5b01546109e29190612585565b60088360ff16600381106109f9576109f86125db565b5b0154611a6490919063ffffffff16565b60088260ff1660038110610a2057610a1f6125db565b5b0181905550610a68600b8260ff1660038110610a3f57610a3e6125db565b5b015460088360ff1660038110610a5857610a576125db565b5b0154611a4e90919063ffffffff16565b60088260ff1660038110610a7f57610a7e6125db565b5b018190555081600b600160038110610a9a57610a996125db565b5b016000828254610aaa9190612585565b9250508190555081600b600260038110610ac757610ac66125db565b5b016000828254610ad79190612585565b925050819055508160026000828254610af09190612585565b92505081905550505050565b6000600254905090565b6000600190509392505050565b60006012905090565b6000610bbe610b2961187d565b848460016000610b3761187d565b73ffffffffffffffffffffffffffffffffffffffff1673ffffffffffffffffffffffffffffffffffffffff16815260200190815260200160002060008873ffffffffffffffffffffffffffffffffffffffff1673ffffffffffffffffffffffffffffffffffffffff16815260200190815260200160002054610bb99190612585565b611885565b6001905092915050565b600080600760008473ffffffffffffffffffffffffffffffffffffffff1673ffffffffffffffffffffffffffffffffffffffff16815260200190815260200160002060009054906101000a900460ff1660ff1603610c66576000808373ffffffffffffffffffffffffffffffffffffffff1673ffffffffffffffffffffffffffffffffffffffff168152602001908152602001600020549050610d6f565b610d6c600660008473ffffffffffffffffffffffffffffffffffffffff1673ffffffffffffffffffffffffffffffffffffffff16815260200190815260200160002054610d5e6000808673ffffffffffffffffffffffffffffffffffffffff1673ffffffffffffffffffffffffffffffffffffffff168152602001908152602001600020546008600760008873ffffffffffffffffffffffffffffffffffffffff1673ffffffffffffffffffffffffffffffffffffffff16815260200190815260200160002060009054906101000a900460ff1660ff1660038110610d4e57610d4d6125db565b5b0154611a6490919063ffffffff16565b611a4e90919063ffffffff16565b90505b919050565b610d7c61187d565b73ffffffffffffffffffffffffffffffffffffffff16610d9a610e1c565b73ffffffffffffffffffffffffffffffffffffffff1614610df0576040517f08c379a0000000000000000000000000000000000000000000000000000000008152600401610de7906124a4565b60405180910390fd5b610dfa6000611cc6565b565b60076020528060005260406000206000915054906101000a900460ff1681565b6000600560009054906101000a900473ffffffffffffffffffffffffffffffffffffffff16905090565b606060048054610e5590612427565b80601f0160208091040260200160405190810160405280929190818152602001828054610e8190612427565b8015610ece5780601f10610ea357610100808354040283529160200191610ece565b820191906000526020600020905b815481529060010190602001808311610eb157829003601f168201915b5050505050905090565b610ee061187d565b73ffffffffffffffffffffffffffffffffffffffff16610efe610e1c565b73ffffffffffffffffffffffffffffffffffffffff1614610f54576040517f08c379a0000000000000000000000000000000000000000000000000000000008152600401610f4b906124a4565b60405180910390fd5b6000600b600260038110610f6b57610f6a6125db565b5b01541461104357610fcf610f89600483611a4e90919063ffffffff16565b600b600260038110610f9e57610f9d6125db565b5b0154610faa9190612585565b6008600260038110610fbf57610fbe6125db565b5b0154611a6490919063ffffffff16565b6008600260038110610fe457610fe36125db565b5b0181905550611028600b600260038110611001576110006125db565b5b01546008600260038110611018576110176125db565b5b0154611a4e90919063ffffffff16565b600860026003811061103d5761103c6125db565b5b01819055505b6000600b60016003811061105a576110596125db565b5b015414611132576110be611078600483611a4e90919063ffffffff16565b600b60016003811061108d5761108c6125db565b5b01546110999190612585565b60086001600381106110ae576110ad6125db565b5b0154611a6490919063ffffffff16565b60086001600381106110d3576110d26125db565b5b0181905550611117600b6001600381106110f0576110ef6125db565b5b01546008600160038110611107576111066125db565b5b0154611a4e90919063ffffffff16565b600860016003811061112c5761112b6125db565b5b01819055505b60028161113f9190612639565b600080600e60009054906101000a900473ffffffffffffffffffffffffffffffffffffffff1673ffffffffffffffffffffffffffffffffffffffff1673ffffffffffffffffffffffffffffffffffffffff16815260200190815260200160002060008282546111ae9190612585565b925050819055506111c9600482611a4e90919063ffffffff16565b600b6001600381106111de576111dd6125db565b5b0160008282546111ee9190612585565b92505081905550611209600482611a4e90919063ffffffff16565b600b60026003811061121e5761121d6125db565b5b01600082825461122e9190612585565b9250508190555080600260008282546112479190612585565b9250508190555050565b61125961187d565b73ffffffffffffffffffffffffffffffffffffffff16611277610e1c565b73ffffffffffffffffffffffffffffffffffffffff16146112cd576040517f08c379a00000000000000000000000000000000000000000000000000000000081526004016112c4906124a4565b60405180910390fd5b6112d682611a7a565b6000600760008473ffffffffffffffffffffffffffffffffffffffff1673ffffffffffffffffffffffffffffffffffffffff16815260200190815260200160002060009054906101000a900460ff16905081600760008573ffffffffffffffffffffffffffffffffffffffff1673ffffffffffffffffffffffffffffffffffffffff16815260200190815260200160002060006101000a81548160ff021916908360ff1602179055506000808473ffffffffffffffffffffffffffffffffffffffff1673ffffffffffffffffffffffffffffffffffffffff16815260200190815260200160002054600b8260ff16600381106113d5576113d46125db565b5b0160008282546113e59190612733565b925050819055506000808473ffffffffffffffffffffffffffffffffffffffff1673ffffffffffffffffffffffffffffffffffffffff16815260200190815260200160002054600b8360ff1660038110611442576114416125db565b5b0160008282546114529190612585565b9250508190555060088260ff16600381106114705761146f6125db565b5b0154600660008573ffffffffffffffffffffffffffffffffffffffff1673ffffffffffffffffffffffffffffffffffffffff16815260200190815260200160002081905550505050565b600080600160006114c961187d565b73ffffffffffffffffffffffffffffffffffffffff1673ffffffffffffffffffffffffffffffffffffffff16815260200190815260200160002060008573ffffffffffffffffffffffffffffffffffffffff1673ffffffffffffffffffffffffffffffffffffffff16815260200190815260200160002054905082811015611586576040517f08c379a000000000000000000000000000000000000000000000000000000000815260040161157d906127d9565b60405180910390fd5b6115a361159161187d565b85858461159e9190612733565b611885565b600191505092915050565b6000806115b961187d565b90506115c481611a7a565b6115cd84611a7a565b82600b600760008473ffffffffffffffffffffffffffffffffffffffff1673ffffffffffffffffffffffffffffffffffffffff16815260200190815260200160002060009054906101000a900460ff1660ff1660038110611631576116306125db565b5b0160008282546116419190612733565b9250508190555082600b600760008773ffffffffffffffffffffffffffffffffffffffff1673ffffffffffffffffffffffffffffffffffffffff16815260200190815260200160002060009054906101000a900460ff1660ff16600381106116ac576116ab6125db565b5b0160008282546116bc9190612585565b925050819055506116ce818585611d8c565b600191505092915050565b6000600160008473ffffffffffffffffffffffffffffffffffffffff1673ffffffffffffffffffffffffffffffffffffffff16815260200190815260200160002060008373ffffffffffffffffffffffffffffffffffffffff1673ffffffffffffffffffffffffffffffffffffffff16815260200190815260200160002054905092915050565b61176861187d565b73ffffffffffffffffffffffffffffffffffffffff16611786610e1c565b73ffffffffffffffffffffffffffffffffffffffff16146117dc576040517f08c379a00000000000000000000000000000000000000000000000000000000081526004016117d3906124a4565b60405180910390fd5b600073ffffffffffffffffffffffffffffffffffffffff168173ffffffffffffffffffffffffffffffffffffffff160361184b576040517f08c379a00000000000000000000000000000000000000000000000000000000081526004016118429061286b565b60405180910390fd5b61185481611cc6565b50565b600e60009054906101000a900473ffffffffffffffffffffffffffffffffffffffff1681565b600033905090565b600073ffffffffffffffffffffffffffffffffffffffff168373ffffffffffffffffffffffffffffffffffffffff16036118f4576040517f08c379a00000000000000000000000000000000000000000000000000000000081526004016118eb906128fd565b60405180910390fd5b600073ffffffffffffffffffffffffffffffffffffffff168273ffffffffffffffffffffffffffffffffffffffff1603611963576040517f08c379a000000000000000000000000000000000000000000000000000000000815260040161195a9061298f565b60405180910390fd5b80600160008573ffffffffffffffffffffffffffffffffffffffff1673ffffffffffffffffffffffffffffffffffffffff16815260200190815260200160002060008473ffffffffffffffffffffffffffffffffffffffff1673ffffffffffffffffffffffffffffffffffffffff168152602001908152602001600020819055508173ffffffffffffffffffffffffffffffffffffffff168373ffffffffffffffffffffffffffffffffffffffff167f8c5be1e5ebec7d5bd14f71427d1e84f3dd0314c0f7b2291e5b200ac8c7c3b92583604051611a4191906121e7565b60405180910390a3505050565b60008183611a5c9190612639565b905092915050565b60008183611a7291906129af565b905092915050565b6000600760008373ffffffffffffffffffffffffffffffffffffffff1673ffffffffffffffffffffffffffffffffffffffff16815260200190815260200160002060009054906101000a900460ff1660ff160315611cc357611bd8600660008373ffffffffffffffffffffffffffffffffffffffff1673ffffffffffffffffffffffffffffffffffffffff16815260200190815260200160002054611bca6000808573ffffffffffffffffffffffffffffffffffffffff1673ffffffffffffffffffffffffffffffffffffffff168152602001908152602001600020546008600760008773ffffffffffffffffffffffffffffffffffffffff1673ffffffffffffffffffffffffffffffffffffffff16815260200190815260200160002060009054906101000a900460ff1660ff1660038110611bba57611bb96125db565b5b0154611a6490919063ffffffff16565b611a4e90919063ffffffff16565b6000808373ffffffffffffffffffffffffffffffffffffffff1673ffffffffffffffffffffffffffffffffffffffff168152602001908152602001600020819055506008600760008373ffffffffffffffffffffffffffffffffffffffff1673ffffffffffffffffffffffffffffffffffffffff16815260200190815260200160002060009054906101000a900460ff1660ff1660038110611c7d57611c7c6125db565b5b0154600660008373ffffffffffffffffffffffffffffffffffffffff1673ffffffffffffffffffffffffffffffffffffffff168152602001908152602001600020819055505b50565b6000600560009054906101000a900473ffffffffffffffffffffffffffffffffffffffff16905081600560006101000a81548173ffffffffffffffffffffffffffffffffffffffff021916908373ffffffffffffffffffffffffffffffffffffffff1602179055508173ffffffffffffffffffffffffffffffffffffffff168173ffffffffffffffffffffffffffffffffffffffff167f8be0079c531659141344cd1fd0a4f28419497f9722a3daafe3b4186f6b6457e060405160405180910390a35050565b600073ffffffffffffffffffffffffffffffffffffffff168373ffffffffffffffffffffffffffffffffffffffff1603611dfb576040517f08c379a0000000000000000000000000000000000000000000000000000000008152600401611df290612a7b565b60405180910390fd5b600073ffffffffffffffffffffffffffffffffffffffff168273ffffffffffffffffffffffffffffffffffffffff1603611e6a576040517f08c379a0000000000000000000000000000000000000000000000000000000008152600401611e6190612b0d565b60405180910390fd5b611e75838383612009565b60008060008573ffffffffffffffffffffffffffffffffffffffff1673ffffffffffffffffffffffffffffffffffffffff16815260200190815260200160002054905081811015611efb576040517f08c379a0000000000000000000000000000000000000000000000000000000008152600401611ef290612b9f565b60405180910390fd5b8181611f079190612733565b6000808673ffffffffffffffffffffffffffffffffffffffff1673ffffffffffffffffffffffffffffffffffffffff16815260200190815260200160002081905550816000808573ffffffffffffffffffffffffffffffffffffffff1673ffffffffffffffffffffffffffffffffffffffff1681526020019081526020016000206000828254611f979190612585565b925050819055508273ffffffffffffffffffffffffffffffffffffffff168473ffffffffffffffffffffffffffffffffffffffff167fddf252ad1be2c89b69c2b068fc378daa952ba7f163c4a11628f55a4df523b3ef84604051611ffb91906121e7565b60405180910390a350505050565b505050565b600081519050919050565b600082825260208201905092915050565b60005b8381101561204857808201518184015260208101905061202d565b83811115612057576000848401525b50505050565b6000601f19601f8301169050919050565b60006120798261200e565b6120838185612019565b935061209381856020860161202a565b61209c8161205d565b840191505092915050565b600060208201905081810360008301526120c1818461206e565b905092915050565b600080fd5b600073ffffffffffffffffffffffffffffffffffffffff82169050919050565b60006120f9826120ce565b9050919050565b612109816120ee565b811461211457600080fd5b50565b60008135905061212681612100565b92915050565b6000819050919050565b61213f8161212c565b811461214a57600080fd5b50565b60008135905061215c81612136565b92915050565b60008060408385031215612179576121786120c9565b5b600061218785828601612117565b92505060206121988582860161214d565b9150509250929050565b60008115159050919050565b6121b7816121a2565b82525050565b60006020820190506121d260008301846121ae565b92915050565b6121e18161212c565b82525050565b60006020820190506121fc60008301846121d8565b92915050565b60008060006060848603121561221b5761221a6120c9565b5b600061222986828701612117565b935050602061223a86828701612117565b925050604061224b8682870161214d565b9150509250925092565b600060ff82169050919050565b61226b81612255565b82525050565b60006020820190506122866000830184612262565b92915050565b6000602082840312156122a2576122a16120c9565b5b60006122b084828501612117565b91505092915050565b6122c2816120ee565b82525050565b60006020820190506122dd60008301846122b9565b92915050565b6000602082840312156122f9576122f86120c9565b5b60006123078482850161214d565b91505092915050565b61231981612255565b811461232457600080fd5b50565b60008135905061233681612310565b92915050565b60008060408385031215612353576123526120c9565b5b600061236185828601612117565b925050602061237285828601612327565b9150509250929050565b60008060408385031215612393576123926120c9565b5b60006123a185828601612117565b92505060206123b285828601612117565b9150509250929050565b60006123c7826120ce565b9050919050565b6123d7816123bc565b82525050565b60006020820190506123f260008301846123ce565b92915050565b7f4e487b7100000000000000000000000000000000000000000000000000000000600052602260045260246000fd5b6000600282049050600182168061243f57607f821691505b602082108103612452576124516123f8565b5b50919050565b7f4f776e61626c653a2063616c6c6572206973206e6f7420746865206f776e6572600082015250565b600061248e602083612019565b915061249982612458565b602082019050919050565b600060208201905081810360008301526124bd81612481565b9050919050565b7f6163636f756e74206973206e6f74206120726567756c6172207368617265686f60008201527f6c64657200000000000000000000000000000000000000000000000000000000602082015250565b6000612520602483612019565b915061252b826124c4565b604082019050919050565b6000602082019050818103600083015261254f81612513565b9050919050565b7f4e487b7100000000000000000000000000000000000000000000000000000000600052601160045260246000fd5b60006125908261212c565b915061259b8361212c565b9250827fffffffffffffffffffffffffffffffffffffffffffffffffffffffffffffffff038211156125d0576125cf612556565b5b828201905092915050565b7f4e487b7100000000000000000000000000000000000000000000000000000000600052603260045260246000fd5b7f4e487b7100000000000000000000000000000000000000000000000000000000600052601260045260246000fd5b60006126448261212c565b915061264f8361212c565b92508261265f5761265e61260a565b5b828204905092915050565b600061267582612255565b915060ff820361268857612687612556565b5b600182019050919050565b7f6163636f756e74206973206120726567756c6172207368617265686f6c646572600082015250565b60006126c9602083612019565b91506126d482612693565b602082019050919050565b600060208201905081810360008301526126f8816126bc565b9050919050565b600061270a82612255565b915061271583612255565b92508282101561272857612727612556565b5b828203905092915050565b600061273e8261212c565b91506127498361212c565b92508282101561275c5761275b612556565b5b828203905092915050565b7f45524332303a2064656372656173656420616c6c6f77616e63652062656c6f7760008201527f207a65726f000000000000000000000000000000000000000000000000000000602082015250565b60006127c3602583612019565b91506127ce82612767565b604082019050919050565b600060208201905081810360008301526127f2816127b6565b9050919050565b7f4f776e61626c653a206e6577206f776e657220697320746865207a65726f206160008201527f6464726573730000000000000000000000000000000000000000000000000000602082015250565b6000612855602683612019565b9150612860826127f9565b604082019050919050565b6000602082019050818103600083015261288481612848565b9050919050565b7f45524332303a20617070726f76652066726f6d20746865207a65726f2061646460008201527f7265737300000000000000000000000000000000000000000000000000000000602082015250565b60006128e7602483612019565b91506128f28261288b565b604082019050919050565b60006020820190508181036000830152612916816128da565b9050919050565b7f45524332303a20617070726f766520746f20746865207a65726f20616464726560008201527f7373000000000000000000000000000000000000000000000000000000000000602082015250565b6000612979602283612019565b91506129848261291d565b604082019050919050565b600060208201905081810360008301526129a88161296c565b9050919050565b60006129ba8261212c565b91506129c58361212c565b9250817fffffffffffffffffffffffffffffffffffffffffffffffffffffffffffffffff04831182151516156129fe576129fd612556565b5b828202905092915050565b7f45524332303a207472616e736665722066726f6d20746865207a65726f20616460008201527f6472657373000000000000000000000000000000000000000000000000000000602082015250565b6000612a65602583612019565b9150612a7082612a09565b604082019050919050565b60006020820190508181036000830152612a9481612a58565b9050919050565b7f45524332303a207472616e7366657220746f20746865207a65726f206164647260008201527f6573730000000000000000000000000000000000000000000000000000000000602082015250565b6000612af7602383612019565b9150612b0282612a9b565b604082019050919050565b60006020820190508181036000830152612b2681612aea565b9050919050565b7f45524332303a207472616e7366657220616d6f756e742065786365656473206260008201527f616c616e63650000000000000000000000000000000000000000000000000000602082015250565b6000612b89602683612019565b9150612b9482612b2d565b604082019050919050565b60006020820190508181036000830152612bb881612b7c565b905091905056fea264697066735822122052ce024f200ca0590d6ebbf4521ef881fd0f1df1e038709b8269328452a0c79e64736f6c634300080d0033",
					"opcodes": "PUSH1 0x80 PUSH1 0x40 MSTORE CALLVALUE DUP1 ISZERO PUSH3 0x11 JUMPI PUSH1 0x0 DUP1 REVERT JUMPDEST POP PUSH1 0x40 MLOAD PUSH3 0x37D2 CODESIZE SUB DUP1 PUSH3 0x37D2 DUP4 CODECOPY DUP2 DUP2 ADD PUSH1 0x40 MSTORE DUP2 ADD SWAP1 PUSH3 0x37 SWAP2 SWAP1 PUSH3 0x753 JUMP JUMPDEST DUP3 DUP3 DUP2 PUSH1 0x3 SWAP1 DUP1 MLOAD SWAP1 PUSH1 0x20 ADD SWAP1 PUSH3 0x51 SWAP3 SWAP2 SWAP1 PUSH3 0x4A1 JUMP JUMPDEST POP DUP1 PUSH1 0x4 SWAP1 DUP1 MLOAD SWAP1 PUSH1 0x20 ADD SWAP1 PUSH3 0x6A SWAP3 SWAP2 SWAP1 PUSH3 0x4A1 JUMP JUMPDEST POP POP POP PUSH3 0x8D PUSH3 0x81 PUSH3 0x261 PUSH1 0x20 SHL PUSH1 0x20 SHR JUMP JUMPDEST PUSH3 0x269 PUSH1 0x20 SHL PUSH1 0x20 SHR JUMP JUMPDEST PUSH3 0xD0 CALLER PUSH3 0xA2 PUSH3 0x32F PUSH1 0x20 SHL PUSH1 0x20 SHR JUMP JUMPDEST PUSH1 0xFF AND PUSH1 0xA PUSH3 0xB3 SWAP2 SWAP1 PUSH3 0x97A JUMP JUMPDEST PUSH4 0x11E1A300 PUSH3 0xC4 SWAP2 SWAP1 PUSH3 0x9CB JUMP JUMPDEST PUSH3 0x338 PUSH1 0x20 SHL PUSH1 0x20 SHR JUMP JUMPDEST PUSH3 0xE0 PUSH3 0x32F PUSH1 0x20 SHL PUSH1 0x20 SHR JUMP JUMPDEST PUSH1 0xFF AND PUSH1 0xA PUSH3 0xF1 SWAP2 SWAP1 PUSH3 0x97A JUMP JUMPDEST PUSH1 0x8 PUSH1 0x0 PUSH1 0x3 DUP2 LT PUSH3 0x109 JUMPI PUSH3 0x108 PUSH3 0xA2C JUMP JUMPDEST JUMPDEST ADD DUP2 SWAP1 SSTORE POP PUSH3 0x11E PUSH3 0x32F PUSH1 0x20 SHL PUSH1 0x20 SHR JUMP JUMPDEST PUSH1 0xFF AND PUSH1 0xA PUSH3 0x12F SWAP2 SWAP1 PUSH3 0x97A JUMP JUMPDEST PUSH1 0x8 PUSH1 0x1 PUSH1 0x3 DUP2 LT PUSH3 0x147 JUMPI PUSH3 0x146 PUSH3 0xA2C JUMP JUMPDEST JUMPDEST ADD DUP2 SWAP1 SSTORE POP PUSH3 0x15C PUSH3 0x32F PUSH1 0x20 SHL PUSH1 0x20 SHR JUMP JUMPDEST PUSH1 0xFF AND PUSH1 0xA PUSH3 0x16D SWAP2 SWAP1 PUSH3 0x97A JUMP JUMPDEST PUSH1 0x8 PUSH1 0x2 PUSH1 0x3 DUP2 LT PUSH3 0x185 JUMPI PUSH3 0x184 PUSH3 0xA2C JUMP JUMPDEST JUMPDEST ADD DUP2 SWAP1 SSTORE POP PUSH3 0x19A PUSH3 0x32F PUSH1 0x20 SHL PUSH1 0x20 SHR JUMP JUMPDEST PUSH1 0xFF AND PUSH1 0xA PUSH3 0x1AB SWAP2 SWAP1 PUSH3 0x97A JUMP JUMPDEST PUSH4 0x11E1A300 PUSH3 0x1BC SWAP2 SWAP1 PUSH3 0x9CB JUMP JUMPDEST PUSH1 0xB PUSH1 0x0 PUSH1 0x3 DUP2 LT PUSH3 0x1D4 JUMPI PUSH3 0x1D3 PUSH3 0xA2C JUMP JUMPDEST JUMPDEST ADD DUP2 SWAP1 SSTORE POP PUSH1 0x0 PUSH1 0xB PUSH1 0x1 PUSH1 0x3 DUP2 LT PUSH3 0x1F3 JUMPI PUSH3 0x1F2 PUSH3 0xA2C JUMP JUMPDEST JUMPDEST ADD DUP2 SWAP1 SSTORE POP PUSH1 0x0 PUSH1 0xB PUSH1 0x2 PUSH1 0x3 DUP2 LT PUSH3 0x212 JUMPI PUSH3 0x211 PUSH3 0xA2C JUMP JUMPDEST JUMPDEST ADD DUP2 SWAP1 SSTORE POP DUP1 PUSH1 0xE PUSH1 0x0 PUSH2 0x100 EXP DUP2 SLOAD DUP2 PUSH20 0xFFFFFFFFFFFFFFFFFFFFFFFFFFFFFFFFFFFFFFFF MUL NOT AND SWAP1 DUP4 PUSH20 0xFFFFFFFFFFFFFFFFFFFFFFFFFFFFFFFFFFFFFFFF AND MUL OR SWAP1 SSTORE POP POP POP POP PUSH3 0xBCD JUMP JUMPDEST PUSH1 0x0 CALLER SWAP1 POP SWAP1 JUMP JUMPDEST PUSH1 0x0 PUSH1 0x5 PUSH1 0x0 SWAP1 SLOAD SWAP1 PUSH2 0x100 EXP SWAP1 DIV PUSH20 0xFFFFFFFFFFFFFFFFFFFFFFFFFFFFFFFFFFFFFFFF AND SWAP1 POP DUP2 PUSH1 0x5 PUSH1 0x0 PUSH2 0x100 EXP DUP2 SLOAD DUP2 PUSH20 0xFFFFFFFFFFFFFFFFFFFFFFFFFFFFFFFFFFFFFFFF MUL NOT AND SWAP1 DUP4 PUSH20 0xFFFFFFFFFFFFFFFFFFFFFFFFFFFFFFFFFFFFFFFF AND MUL OR SWAP1 SSTORE POP DUP2 PUSH20 0xFFFFFFFFFFFFFFFFFFFFFFFFFFFFFFFFFFFFFFFF AND DUP2 PUSH20 0xFFFFFFFFFFFFFFFFFFFFFFFFFFFFFFFFFFFFFFFF AND PUSH32 0x8BE0079C531659141344CD1FD0A4F28419497F9722A3DAAFE3B4186F6B6457E0 PUSH1 0x40 MLOAD PUSH1 0x40 MLOAD DUP1 SWAP2 SUB SWAP1 LOG3 POP POP JUMP JUMPDEST PUSH1 0x0 PUSH1 0x12 SWAP1 POP SWAP1 JUMP JUMPDEST PUSH1 0x0 PUSH20 0xFFFFFFFFFFFFFFFFFFFFFFFFFFFFFFFFFFFFFFFF AND DUP3 PUSH20 0xFFFFFFFFFFFFFFFFFFFFFFFFFFFFFFFFFFFFFFFF AND SUB PUSH3 0x3AA JUMPI PUSH1 0x40 MLOAD PUSH32 0x8C379A000000000000000000000000000000000000000000000000000000000 DUP2 MSTORE PUSH1 0x4 ADD PUSH3 0x3A1 SWAP1 PUSH3 0xABC JUMP JUMPDEST PUSH1 0x40 MLOAD DUP1 SWAP2 SUB SWAP1 REVERT JUMPDEST PUSH3 0x3BE PUSH1 0x0 DUP4 DUP4 PUSH3 0x49C PUSH1 0x20 SHL PUSH1 0x20 SHR JUMP JUMPDEST DUP1 PUSH1 0x2 PUSH1 0x0 DUP3 DUP3 SLOAD PUSH3 0x3D2 SWAP2 SWAP1 PUSH3 0xADE JUMP JUMPDEST SWAP3 POP POP DUP2 SWAP1 SSTORE POP DUP1 PUSH1 0x0 DUP1 DUP5 PUSH20 0xFFFFFFFFFFFFFFFFFFFFFFFFFFFFFFFFFFFFFFFF AND PUSH20 0xFFFFFFFFFFFFFFFFFFFFFFFFFFFFFFFFFFFFFFFF AND DUP2 MSTORE PUSH1 0x20 ADD SWAP1 DUP2 MSTORE PUSH1 0x20 ADD PUSH1 0x0 KECCAK256 PUSH1 0x0 DUP3 DUP3 SLOAD PUSH3 0x429 SWAP2 SWAP1 PUSH3 0xADE JUMP JUMPDEST SWAP3 POP POP DUP2 SWAP1 SSTORE POP DUP2 PUSH20 0xFFFFFFFFFFFFFFFFFFFFFFFFFFFFFFFFFFFFFFFF AND PUSH1 0x0 PUSH20 0xFFFFFFFFFFFFFFFFFFFFFFFFFFFFFFFFFFFFFFFF AND PUSH32 0xDDF252AD1BE2C89B69C2B068FC378DAA952BA7F163C4A11628F55A4DF523B3EF DUP4 PUSH1 0x40 MLOAD PUSH3 0x490 SWAP2 SWAP1 PUSH3 0xB4C JUMP JUMPDEST PUSH1 0x40 MLOAD DUP1 SWAP2 SUB SWAP1 LOG3 POP POP JUMP JUMPDEST POP POP POP JUMP JUMPDEST DUP3 DUP1 SLOAD PUSH3 0x4AF SWAP1 PUSH3 0xB98 JUMP JUMPDEST SWAP1 PUSH1 0x0 MSTORE PUSH1 0x20 PUSH1 0x0 KECCAK256 SWAP1 PUSH1 0x1F ADD PUSH1 0x20 SWAP1 DIV DUP2 ADD SWAP3 DUP3 PUSH3 0x4D3 JUMPI PUSH1 0x0 DUP6 SSTORE PUSH3 0x51F JUMP JUMPDEST DUP3 PUSH1 0x1F LT PUSH3 0x4EE JUMPI DUP1 MLOAD PUSH1 0xFF NOT AND DUP4 DUP1 ADD OR DUP6 SSTORE PUSH3 0x51F JUMP JUMPDEST DUP3 DUP1 ADD PUSH1 0x1 ADD DUP6 SSTORE DUP3 ISZERO PUSH3 0x51F JUMPI SWAP2 DUP3 ADD JUMPDEST DUP3 DUP2 GT ISZERO PUSH3 0x51E JUMPI DUP3 MLOAD DUP3 SSTORE SWAP2 PUSH1 0x20 ADD SWAP2 SWAP1 PUSH1 0x1 ADD SWAP1 PUSH3 0x501 JUMP JUMPDEST JUMPDEST POP SWAP1 POP PUSH3 0x52E SWAP2 SWAP1 PUSH3 0x532 JUMP JUMPDEST POP SWAP1 JUMP JUMPDEST JUMPDEST DUP1 DUP3 GT ISZERO PUSH3 0x54D JUMPI PUSH1 0x0 DUP2 PUSH1 0x0 SWAP1 SSTORE POP PUSH1 0x1 ADD PUSH3 0x533 JUMP JUMPDEST POP SWAP1 JUMP JUMPDEST PUSH1 0x0 PUSH1 0x40 MLOAD SWAP1 POP SWAP1 JUMP JUMPDEST PUSH1 0x0 DUP1 REVERT JUMPDEST PUSH1 0x0 DUP1 REVERT JUMPDEST PUSH1 0x0 DUP1 REVERT JUMPDEST PUSH1 0x0 DUP1 REVERT JUMPDEST PUSH1 0x0 PUSH1 0x1F NOT PUSH1 0x1F DUP4 ADD AND SWAP1 POP SWAP2 SWAP1 POP JUMP JUMPDEST PUSH32 0x4E487B7100000000000000000000000000000000000000000000000000000000 PUSH1 0x0 MSTORE PUSH1 0x41 PUSH1 0x4 MSTORE PUSH1 0x24 PUSH1 0x0 REVERT JUMPDEST PUSH3 0x5BA DUP3 PUSH3 0x56F JUMP JUMPDEST DUP2 ADD DUP2 DUP2 LT PUSH8 0xFFFFFFFFFFFFFFFF DUP3 GT OR ISZERO PUSH3 0x5DC JUMPI PUSH3 0x5DB PUSH3 0x580 JUMP JUMPDEST JUMPDEST DUP1 PUSH1 0x40 MSTORE POP POP POP JUMP JUMPDEST PUSH1 0x0 PUSH3 0x5F1 PUSH3 0x551 JUMP JUMPDEST SWAP1 POP PUSH3 0x5FF DUP3 DUP3 PUSH3 0x5AF JUMP JUMPDEST SWAP2 SWAP1 POP JUMP JUMPDEST PUSH1 0x0 PUSH8 0xFFFFFFFFFFFFFFFF DUP3 GT ISZERO PUSH3 0x622 JUMPI PUSH3 0x621 PUSH3 0x580 JUMP JUMPDEST JUMPDEST PUSH3 0x62D DUP3 PUSH3 0x56F JUMP JUMPDEST SWAP1 POP PUSH1 0x20 DUP2 ADD SWAP1 POP SWAP2 SWAP1 POP JUMP JUMPDEST PUSH1 0x0 JUMPDEST DUP4 DUP2 LT ISZERO PUSH3 0x65A JUMPI DUP1 DUP3 ADD MLOAD DUP2 DUP5 ADD MSTORE PUSH1 0x20 DUP2 ADD SWAP1 POP PUSH3 0x63D JUMP JUMPDEST DUP4 DUP2 GT ISZERO PUSH3 0x66A JUMPI PUSH1 0x0 DUP5 DUP5 ADD MSTORE JUMPDEST POP POP POP POP JUMP JUMPDEST PUSH1 0x0 PUSH3 0x687 PUSH3 0x681 DUP5 PUSH3 0x604 JUMP JUMPDEST PUSH3 0x5E5 JUMP JUMPDEST SWAP1 POP DUP3 DUP2 MSTORE PUSH1 0x20 DUP2 ADD DUP5 DUP5 DUP5 ADD GT ISZERO PUSH3 0x6A6 JUMPI PUSH3 0x6A5 PUSH3 0x56A JUMP JUMPDEST JUMPDEST PUSH3 0x6B3 DUP5 DUP3 DUP6 PUSH3 0x63A JUMP JUMPDEST POP SWAP4 SWAP3 POP POP POP JUMP JUMPDEST PUSH1 0x0 DUP3 PUSH1 0x1F DUP4 ADD SLT PUSH3 0x6D3 JUMPI PUSH3 0x6D2 PUSH3 0x565 JUMP JUMPDEST JUMPDEST DUP2 MLOAD PUSH3 0x6E5 DUP5 DUP3 PUSH1 0x20 DUP7 ADD PUSH3 0x670 JUMP JUMPDEST SWAP2 POP POP SWAP3 SWAP2 POP POP JUMP JUMPDEST PUSH1 0x0 PUSH20 0xFFFFFFFFFFFFFFFFFFFFFFFFFFFFFFFFFFFFFFFF DUP3 AND SWAP1 POP SWAP2 SWAP1 POP JUMP JUMPDEST PUSH1 0x0 PUSH3 0x71B DUP3 PUSH3 0x6EE JUMP JUMPDEST SWAP1 POP SWAP2 SWAP1 POP JUMP JUMPDEST PUSH3 0x72D DUP2 PUSH3 0x70E JUMP JUMPDEST DUP2 EQ PUSH3 0x739 JUMPI PUSH1 0x0 DUP1 REVERT JUMPDEST POP JUMP JUMPDEST PUSH1 0x0 DUP2 MLOAD SWAP1 POP PUSH3 0x74D DUP2 PUSH3 0x722 JUMP JUMPDEST SWAP3 SWAP2 POP POP JUMP JUMPDEST PUSH1 0x0 DUP1 PUSH1 0x0 PUSH1 0x60 DUP5 DUP7 SUB SLT ISZERO PUSH3 0x76F JUMPI PUSH3 0x76E PUSH3 0x55B JUMP JUMPDEST JUMPDEST PUSH1 0x0 DUP5 ADD MLOAD PUSH8 0xFFFFFFFFFFFFFFFF DUP2 GT ISZERO PUSH3 0x790 JUMPI PUSH3 0x78F PUSH3 0x560 JUMP JUMPDEST JUMPDEST PUSH3 0x79E DUP7 DUP3 DUP8 ADD PUSH3 0x6BB JUMP JUMPDEST SWAP4 POP POP PUSH1 0x20 DUP5 ADD MLOAD PUSH8 0xFFFFFFFFFFFFFFFF DUP2 GT ISZERO PUSH3 0x7C2 JUMPI PUSH3 0x7C1 PUSH3 0x560 JUMP JUMPDEST JUMPDEST PUSH3 0x7D0 DUP7 DUP3 DUP8 ADD PUSH3 0x6BB JUMP JUMPDEST SWAP3 POP POP PUSH1 0x40 PUSH3 0x7E3 DUP7 DUP3 DUP8 ADD PUSH3 0x73C JUMP JUMPDEST SWAP2 POP POP SWAP3 POP SWAP3 POP SWAP3 JUMP JUMPDEST PUSH32 0x4E487B7100000000000000000000000000000000000000000000000000000000 PUSH1 0x0 MSTORE PUSH1 0x11 PUSH1 0x4 MSTORE PUSH1 0x24 PUSH1 0x0 REVERT JUMPDEST PUSH1 0x0 DUP2 PUSH1 0x1 SHR SWAP1 POP SWAP2 SWAP1 POP JUMP JUMPDEST PUSH1 0x0 DUP1 DUP3 SWAP2 POP DUP4 SWAP1 POP JUMPDEST PUSH1 0x1 DUP6 GT ISZERO PUSH3 0x87B JUMPI DUP1 DUP7 DIV DUP2 GT ISZERO PUSH3 0x853 JUMPI PUSH3 0x852 PUSH3 0x7ED JUMP JUMPDEST JUMPDEST PUSH1 0x1 DUP6 AND ISZERO PUSH3 0x863 JUMPI DUP1 DUP3 MUL SWAP2 POP JUMPDEST DUP1 DUP2 MUL SWAP1 POP PUSH3 0x873 DUP6 PUSH3 0x81C JUMP JUMPDEST SWAP5 POP PUSH3 0x833 JUMP JUMPDEST SWAP5 POP SWAP5 SWAP3 POP POP POP JUMP JUMPDEST PUSH1 0x0 DUP3 PUSH3 0x896 JUMPI PUSH1 0x1 SWAP1 POP PUSH3 0x969 JUMP JUMPDEST DUP2 PUSH3 0x8A6 JUMPI PUSH1 0x0 SWAP1 POP PUSH3 0x969 JUMP JUMPDEST DUP2 PUSH1 0x1 DUP2 EQ PUSH3 0x8BF JUMPI PUSH1 0x2 DUP2 EQ PUSH3 0x8CA JUMPI PUSH3 0x900 JUMP JUMPDEST PUSH1 0x1 SWAP2 POP POP PUSH3 0x969 JUMP JUMPDEST PUSH1 0xFF DUP5 GT ISZERO PUSH3 0x8DF JUMPI PUSH3 0x8DE PUSH3 0x7ED JUMP JUMPDEST JUMPDEST DUP4 PUSH1 0x2 EXP SWAP2 POP DUP5 DUP3 GT ISZERO PUSH3 0x8F9 JUMPI PUSH3 0x8F8 PUSH3 0x7ED JUMP JUMPDEST JUMPDEST POP PUSH3 0x969 JUMP JUMPDEST POP PUSH1 0x20 DUP4 LT PUSH2 0x133 DUP4 LT AND PUSH1 0x4E DUP5 LT PUSH1 0xB DUP5 LT AND OR ISZERO PUSH3 0x93A JUMPI DUP3 DUP3 EXP SWAP1 POP DUP4 DUP2 GT ISZERO PUSH3 0x934 JUMPI PUSH3 0x933 PUSH3 0x7ED JUMP JUMPDEST JUMPDEST PUSH3 0x969 JUMP JUMPDEST PUSH3 0x949 DUP5 DUP5 DUP5 PUSH1 0x1 PUSH3 0x829 JUMP JUMPDEST SWAP3 POP SWAP1 POP DUP2 DUP5 DIV DUP2 GT ISZERO PUSH3 0x963 JUMPI PUSH3 0x962 PUSH3 0x7ED JUMP JUMPDEST JUMPDEST DUP2 DUP2 MUL SWAP1 POP JUMPDEST SWAP4 SWAP3 POP POP POP JUMP JUMPDEST PUSH1 0x0 DUP2 SWAP1 POP SWAP2 SWAP1 POP JUMP JUMPDEST PUSH1 0x0 PUSH3 0x987 DUP3 PUSH3 0x970 JUMP JUMPDEST SWAP2 POP PUSH3 0x994 DUP4 PUSH3 0x970 JUMP JUMPDEST SWAP3 POP PUSH3 0x9C3 PUSH32 0xFFFFFFFFFFFFFFFFFFFFFFFFFFFFFFFFFFFFFFFFFFFFFFFFFFFFFFFFFFFFFFFF DUP5 DUP5 PUSH3 0x884 JUMP JUMPDEST SWAP1 POP SWAP3 SWAP2 POP POP JUMP JUMPDEST PUSH1 0x0 PUSH3 0x9D8 DUP3 PUSH3 0x970 JUMP JUMPDEST SWAP2 POP PUSH3 0x9E5 DUP4 PUSH3 0x970 JUMP JUMPDEST SWAP3 POP DUP2 PUSH32 0xFFFFFFFFFFFFFFFFFFFFFFFFFFFFFFFFFFFFFFFFFFFFFFFFFFFFFFFFFFFFFFFF DIV DUP4 GT DUP3 ISZERO ISZERO AND ISZERO PUSH3 0xA21 JUMPI PUSH3 0xA20 PUSH3 0x7ED JUMP JUMPDEST JUMPDEST DUP3 DUP3 MUL SWAP1 POP SWAP3 SWAP2 POP POP JUMP JUMPDEST PUSH32 0x4E487B7100000000000000000000000000000000000000000000000000000000 PUSH1 0x0 MSTORE PUSH1 0x32 PUSH1 0x4 MSTORE PUSH1 0x24 PUSH1 0x0 REVERT JUMPDEST PUSH1 0x0 DUP3 DUP3 MSTORE PUSH1 0x20 DUP3 ADD SWAP1 POP SWAP3 SWAP2 POP POP JUMP JUMPDEST PUSH32 0x45524332303A206D696E7420746F20746865207A65726F206164647265737300 PUSH1 0x0 DUP3 ADD MSTORE POP JUMP JUMPDEST PUSH1 0x0 PUSH3 0xAA4 PUSH1 0x1F DUP4 PUSH3 0xA5B JUMP JUMPDEST SWAP2 POP PUSH3 0xAB1 DUP3 PUSH3 0xA6C JUMP JUMPDEST PUSH1 0x20 DUP3 ADD SWAP1 POP SWAP2 SWAP1 POP JUMP JUMPDEST PUSH1 0x0 PUSH1 0x20 DUP3 ADD SWAP1 POP DUP2 DUP2 SUB PUSH1 0x0 DUP4 ADD MSTORE PUSH3 0xAD7 DUP2 PUSH3 0xA95 JUMP JUMPDEST SWAP1 POP SWAP2 SWAP1 POP JUMP JUMPDEST PUSH1 0x0 PUSH3 0xAEB DUP3 PUSH3 0x970 JUMP JUMPDEST SWAP2 POP PUSH3 0xAF8 DUP4 PUSH3 0x970 JUMP JUMPDEST SWAP3 POP DUP3 PUSH32 0xFFFFFFFFFFFFFFFFFFFFFFFFFFFFFFFFFFFFFFFFFFFFFFFFFFFFFFFFFFFFFFFF SUB DUP3 GT ISZERO PUSH3 0xB30 JUMPI PUSH3 0xB2F PUSH3 0x7ED JUMP JUMPDEST JUMPDEST DUP3 DUP3 ADD SWAP1 POP SWAP3 SWAP2 POP POP JUMP JUMPDEST PUSH3 0xB46 DUP2 PUSH3 0x970 JUMP JUMPDEST DUP3 MSTORE POP POP JUMP JUMPDEST PUSH1 0x0 PUSH1 0x20 DUP3 ADD SWAP1 POP PUSH3 0xB63 PUSH1 0x0 DUP4 ADD DUP5 PUSH3 0xB3B JUMP JUMPDEST SWAP3 SWAP2 POP POP JUMP JUMPDEST PUSH32 0x4E487B7100000000000000000000000000000000000000000000000000000000 PUSH1 0x0 MSTORE PUSH1 0x22 PUSH1 0x4 MSTORE PUSH1 0x24 PUSH1 0x0 REVERT JUMPDEST PUSH1 0x0 PUSH1 0x2 DUP3 DIV SWAP1 POP PUSH1 0x1 DUP3 AND DUP1 PUSH3 0xBB1 JUMPI PUSH1 0x7F DUP3 AND SWAP2 POP JUMPDEST PUSH1 0x20 DUP3 LT DUP2 SUB PUSH3 0xBC7 JUMPI PUSH3 0xBC6 PUSH3 0xB69 JUMP JUMPDEST JUMPDEST POP SWAP2 SWAP1 POP JUMP JUMPDEST PUSH2 0x2BF5 DUP1 PUSH3 0xBDD PUSH1 0x0 CODECOPY PUSH1 0x0 RETURN INVALID PUSH1 0x80 PUSH1 0x40 MSTORE CALLVALUE DUP1 ISZERO PUSH2 0x10 JUMPI PUSH1 0x0 DUP1 REVERT JUMPDEST POP PUSH1 0x4 CALLDATASIZE LT PUSH2 0x12C JUMPI PUSH1 0x0 CALLDATALOAD PUSH1 0xE0 SHR DUP1 PUSH4 0x7A0D944C GT PUSH2 0xAD JUMPI DUP1 PUSH4 0xA457C2D7 GT PUSH2 0x71 JUMPI DUP1 PUSH4 0xA457C2D7 EQ PUSH2 0x331 JUMPI DUP1 PUSH4 0xA9059CBB EQ PUSH2 0x361 JUMPI DUP1 PUSH4 0xDD62ED3E EQ PUSH2 0x391 JUMPI DUP1 PUSH4 0xF2FDE38B EQ PUSH2 0x3C1 JUMPI DUP1 PUSH4 0xF8E233B1 EQ PUSH2 0x3DD JUMPI PUSH2 0x12C JUMP JUMPDEST DUP1 PUSH4 0x7A0D944C EQ PUSH2 0x28D JUMPI DUP1 PUSH4 0x8DA5CB5B EQ PUSH2 0x2BD JUMPI DUP1 PUSH4 0x95D89B41 EQ PUSH2 0x2DB JUMPI DUP1 PUSH4 0xA0712D68 EQ PUSH2 0x2F9 JUMPI DUP1 PUSH4 0xA33E7D7E EQ PUSH2 0x315 JUMPI PUSH2 0x12C JUMP JUMPDEST DUP1 PUSH4 0x23B872DD GT PUSH2 0xF4 JUMPI DUP1 PUSH4 0x23B872DD EQ PUSH2 0x1D5 JUMPI DUP1 PUSH4 0x313CE567 EQ PUSH2 0x205 JUMPI DUP1 PUSH4 0x39509351 EQ PUSH2 0x223 JUMPI DUP1 PUSH4 0x70A08231 EQ PUSH2 0x253 JUMPI DUP1 PUSH4 0x715018A6 EQ PUSH2 0x283 JUMPI PUSH2 0x12C JUMP JUMPDEST DUP1 PUSH4 0x6FDDE03 EQ PUSH2 0x131 JUMPI DUP1 PUSH4 0x95EA7B3 EQ PUSH2 0x14F JUMPI DUP1 PUSH4 0x13B954A3 EQ PUSH2 0x17F JUMPI DUP1 PUSH4 0x1506F480 EQ PUSH2 0x19B JUMPI DUP1 PUSH4 0x18160DDD EQ PUSH2 0x1B7 JUMPI JUMPDEST PUSH1 0x0 DUP1 REVERT JUMPDEST PUSH2 0x139 PUSH2 0x3FB JUMP JUMPDEST PUSH1 0x40 MLOAD PUSH2 0x146 SWAP2 SWAP1 PUSH2 0x20A7 JUMP JUMPDEST PUSH1 0x40 MLOAD DUP1 SWAP2 SUB SWAP1 RETURN JUMPDEST PUSH2 0x169 PUSH1 0x4 DUP1 CALLDATASIZE SUB DUP2 ADD SWAP1 PUSH2 0x164 SWAP2 SWAP1 PUSH2 0x2162 JUMP JUMPDEST PUSH2 0x48D JUMP JUMPDEST PUSH1 0x40 MLOAD PUSH2 0x176 SWAP2 SWAP1 PUSH2 0x21BD JUMP JUMPDEST PUSH1 0x40 MLOAD DUP1 SWAP2 SUB SWAP1 RETURN JUMPDEST PUSH2 0x199 PUSH1 0x4 DUP1 CALLDATASIZE SUB DUP2 ADD SWAP1 PUSH2 0x194 SWAP2 SWAP1 PUSH2 0x2162 JUMP JUMPDEST PUSH2 0x4AB JUMP JUMPDEST STOP JUMPDEST PUSH2 0x1B5 PUSH1 0x4 DUP1 CALLDATASIZE SUB DUP2 ADD SWAP1 PUSH2 0x1B0 SWAP2 SWAP1 PUSH2 0x2162 JUMP JUMPDEST PUSH2 0x768 JUMP JUMPDEST STOP JUMPDEST PUSH2 0x1BF PUSH2 0xAFC JUMP JUMPDEST PUSH1 0x40 MLOAD PUSH2 0x1CC SWAP2 SWAP1 PUSH2 0x21E7 JUMP JUMPDEST PUSH1 0x40 MLOAD DUP1 SWAP2 SUB SWAP1 RETURN JUMPDEST PUSH2 0x1EF PUSH1 0x4 DUP1 CALLDATASIZE SUB DUP2 ADD SWAP1 PUSH2 0x1EA SWAP2 SWAP1 PUSH2 0x2202 JUMP JUMPDEST PUSH2 0xB06 JUMP JUMPDEST PUSH1 0x40 MLOAD PUSH2 0x1FC SWAP2 SWAP1 PUSH2 0x21BD JUMP JUMPDEST PUSH1 0x40 MLOAD DUP1 SWAP2 SUB SWAP1 RETURN JUMPDEST PUSH2 0x20D PUSH2 0xB13 JUMP JUMPDEST PUSH1 0x40 MLOAD PUSH2 0x21A SWAP2 SWAP1 PUSH2 0x2271 JUMP JUMPDEST PUSH1 0x40 MLOAD DUP1 SWAP2 SUB SWAP1 RETURN JUMPDEST PUSH2 0x23D PUSH1 0x4 DUP1 CALLDATASIZE SUB DUP2 ADD SWAP1 PUSH2 0x238 SWAP2 SWAP1 PUSH2 0x2162 JUMP JUMPDEST PUSH2 0xB1C JUMP JUMPDEST PUSH1 0x40 MLOAD PUSH2 0x24A SWAP2 SWAP1 PUSH2 0x21BD JUMP JUMPDEST PUSH1 0x40 MLOAD DUP1 SWAP2 SUB SWAP1 RETURN JUMPDEST PUSH2 0x26D PUSH1 0x4 DUP1 CALLDATASIZE SUB DUP2 ADD SWAP1 PUSH2 0x268 SWAP2 SWAP1 PUSH2 0x228C JUMP JUMPDEST PUSH2 0xBC8 JUMP JUMPDEST PUSH1 0x40 MLOAD PUSH2 0x27A SWAP2 SWAP1 PUSH2 0x21E7 JUMP JUMPDEST PUSH1 0x40 MLOAD DUP1 SWAP2 SUB SWAP1 RETURN JUMPDEST PUSH2 0x28B PUSH2 0xD74 JUMP JUMPDEST STOP JUMPDEST PUSH2 0x2A7 PUSH1 0x4 DUP1 CALLDATASIZE SUB DUP2 ADD SWAP1 PUSH2 0x2A2 SWAP2 SWAP1 PUSH2 0x228C JUMP JUMPDEST PUSH2 0xDFC JUMP JUMPDEST PUSH1 0x40 MLOAD PUSH2 0x2B4 SWAP2 SWAP1 PUSH2 0x2271 JUMP JUMPDEST PUSH1 0x40 MLOAD DUP1 SWAP2 SUB SWAP1 RETURN JUMPDEST PUSH2 0x2C5 PUSH2 0xE1C JUMP JUMPDEST PUSH1 0x40 MLOAD PUSH2 0x2D2 SWAP2 SWAP1 PUSH2 0x22C8 JUMP JUMPDEST PUSH1 0x40 MLOAD DUP1 SWAP2 SUB SWAP1 RETURN JUMPDEST PUSH2 0x2E3 PUSH2 0xE46 JUMP JUMPDEST PUSH1 0x40 MLOAD PUSH2 0x2F0 SWAP2 SWAP1 PUSH2 0x20A7 JUMP JUMPDEST PUSH1 0x40 MLOAD DUP1 SWAP2 SUB SWAP1 RETURN JUMPDEST PUSH2 0x313 PUSH1 0x4 DUP1 CALLDATASIZE SUB DUP2 ADD SWAP1 PUSH2 0x30E SWAP2 SWAP1 PUSH2 0x22E3 JUMP JUMPDEST PUSH2 0xED8 JUMP JUMPDEST STOP JUMPDEST PUSH2 0x32F PUSH1 0x4 DUP1 CALLDATASIZE SUB DUP2 ADD SWAP1 PUSH2 0x32A SWAP2 SWAP1 PUSH2 0x233C JUMP JUMPDEST PUSH2 0x1251 JUMP JUMPDEST STOP JUMPDEST PUSH2 0x34B PUSH1 0x4 DUP1 CALLDATASIZE SUB DUP2 ADD SWAP1 PUSH2 0x346 SWAP2 SWAP1 PUSH2 0x2162 JUMP JUMPDEST PUSH2 0x14BA JUMP JUMPDEST PUSH1 0x40 MLOAD PUSH2 0x358 SWAP2 SWAP1 PUSH2 0x21BD JUMP JUMPDEST PUSH1 0x40 MLOAD DUP1 SWAP2 SUB SWAP1 RETURN JUMPDEST PUSH2 0x37B PUSH1 0x4 DUP1 CALLDATASIZE SUB DUP2 ADD SWAP1 PUSH2 0x376 SWAP2 SWAP1 PUSH2 0x2162 JUMP JUMPDEST PUSH2 0x15AE JUMP JUMPDEST PUSH1 0x40 MLOAD PUSH2 0x388 SWAP2 SWAP1 PUSH2 0x21BD JUMP JUMPDEST PUSH1 0x40 MLOAD DUP1 SWAP2 SUB SWAP1 RETURN JUMPDEST PUSH2 0x3AB PUSH1 0x4 DUP1 CALLDATASIZE SUB DUP2 ADD SWAP1 PUSH2 0x3A6 SWAP2 SWAP1 PUSH2 0x237C JUMP JUMPDEST PUSH2 0x16D9 JUMP JUMPDEST PUSH1 0x40 MLOAD PUSH2 0x3B8 SWAP2 SWAP1 PUSH2 0x21E7 JUMP JUMPDEST PUSH1 0x40 MLOAD DUP1 SWAP2 SUB SWAP1 RETURN JUMPDEST PUSH2 0x3DB PUSH1 0x4 DUP1 CALLDATASIZE SUB DUP2 ADD SWAP1 PUSH2 0x3D6 SWAP2 SWAP1 PUSH2 0x228C JUMP JUMPDEST PUSH2 0x1760 JUMP JUMPDEST STOP JUMPDEST PUSH2 0x3E5 PUSH2 0x1857 JUMP JUMPDEST PUSH1 0x40 MLOAD PUSH2 0x3F2 SWAP2 SWAP1 PUSH2 0x23DD JUMP JUMPDEST PUSH1 0x40 MLOAD DUP1 SWAP2 SUB SWAP1 RETURN JUMPDEST PUSH1 0x60 PUSH1 0x3 DUP1 SLOAD PUSH2 0x40A SWAP1 PUSH2 0x2427 JUMP JUMPDEST DUP1 PUSH1 0x1F ADD PUSH1 0x20 DUP1 SWAP2 DIV MUL PUSH1 0x20 ADD PUSH1 0x40 MLOAD SWAP1 DUP2 ADD PUSH1 0x40 MSTORE DUP1 SWAP3 SWAP2 SWAP1 DUP2 DUP2 MSTORE PUSH1 0x20 ADD DUP3 DUP1 SLOAD PUSH2 0x436 SWAP1 PUSH2 0x2427 JUMP JUMPDEST DUP1 ISZERO PUSH2 0x483 JUMPI DUP1 PUSH1 0x1F LT PUSH2 0x458 JUMPI PUSH2 0x100 DUP1 DUP4 SLOAD DIV MUL DUP4 MSTORE SWAP2 PUSH1 0x20 ADD SWAP2 PUSH2 0x483 JUMP JUMPDEST DUP3 ADD SWAP2 SWAP1 PUSH1 0x0 MSTORE PUSH1 0x20 PUSH1 0x0 KECCAK256 SWAP1 JUMPDEST DUP2 SLOAD DUP2 MSTORE SWAP1 PUSH1 0x1 ADD SWAP1 PUSH1 0x20 ADD DUP1 DUP4 GT PUSH2 0x466 JUMPI DUP3 SWAP1 SUB PUSH1 0x1F AND DUP3 ADD SWAP2 JUMPDEST POP POP POP POP POP SWAP1 POP SWAP1 JUMP JUMPDEST PUSH1 0x0 PUSH2 0x4A1 PUSH2 0x49A PUSH2 0x187D JUMP JUMPDEST DUP5 DUP5 PUSH2 0x1885 JUMP JUMPDEST PUSH1 0x1 SWAP1 POP SWAP3 SWAP2 POP POP JUMP JUMPDEST PUSH2 0x4B3 PUSH2 0x187D JUMP JUMPDEST PUSH20 0xFFFFFFFFFFFFFFFFFFFFFFFFFFFFFFFFFFFFFFFF AND PUSH2 0x4D1 PUSH2 0xE1C JUMP JUMPDEST PUSH20 0xFFFFFFFFFFFFFFFFFFFFFFFFFFFFFFFFFFFFFFFF AND EQ PUSH2 0x527 JUMPI PUSH1 0x40 MLOAD PUSH32 0x8C379A000000000000000000000000000000000000000000000000000000000 DUP2 MSTORE PUSH1 0x4 ADD PUSH2 0x51E SWAP1 PUSH2 0x24A4 JUMP JUMPDEST PUSH1 0x40 MLOAD DUP1 SWAP2 SUB SWAP1 REVERT JUMPDEST PUSH1 0x0 PUSH1 0x7 PUSH1 0x0 DUP5 PUSH20 0xFFFFFFFFFFFFFFFFFFFFFFFFFFFFFFFFFFFFFFFF AND PUSH20 0xFFFFFFFFFFFFFFFFFFFFFFFFFFFFFFFFFFFFFFFF AND DUP2 MSTORE PUSH1 0x20 ADD SWAP1 DUP2 MSTORE PUSH1 0x20 ADD PUSH1 0x0 KECCAK256 PUSH1 0x0 SWAP1 SLOAD SWAP1 PUSH2 0x100 EXP SWAP1 DIV PUSH1 0xFF AND PUSH1 0xFF AND EQ PUSH2 0x5B9 JUMPI PUSH1 0x40 MLOAD PUSH32 0x8C379A000000000000000000000000000000000000000000000000000000000 DUP2 MSTORE PUSH1 0x4 ADD PUSH2 0x5B0 SWAP1 PUSH2 0x2536 JUMP JUMPDEST PUSH1 0x40 MLOAD DUP1 SWAP2 SUB SWAP1 REVERT JUMPDEST DUP1 PUSH1 0x0 DUP1 DUP5 PUSH20 0xFFFFFFFFFFFFFFFFFFFFFFFFFFFFFFFFFFFFFFFF AND PUSH20 0xFFFFFFFFFFFFFFFFFFFFFFFFFFFFFFFFFFFFFFFF AND DUP2 MSTORE PUSH1 0x20 ADD SWAP1 DUP2 MSTORE PUSH1 0x20 ADD PUSH1 0x0 KECCAK256 PUSH1 0x0 DUP3 DUP3 SLOAD PUSH2 0x607 SWAP2 SWAP1 PUSH2 0x2585 JUMP JUMPDEST SWAP3 POP POP DUP2 SWAP1 SSTORE POP PUSH1 0x0 PUSH1 0x1 SWAP1 POP JUMPDEST PUSH1 0x2 DUP2 PUSH1 0xFF AND GT PUSH2 0x74A JUMPI PUSH2 0x681 PUSH2 0x637 PUSH1 0x2 DUP5 PUSH2 0x1A4E SWAP1 SWAP2 SWAP1 PUSH4 0xFFFFFFFF AND JUMP JUMPDEST PUSH1 0xB DUP4 PUSH1 0xFF AND PUSH1 0x3 DUP2 LT PUSH2 0x64E JUMPI PUSH2 0x64D PUSH2 0x25DB JUMP JUMPDEST JUMPDEST ADD SLOAD PUSH2 0x65A SWAP2 SWAP1 PUSH2 0x2585 JUMP JUMPDEST PUSH1 0x8 DUP4 PUSH1 0xFF AND PUSH1 0x3 DUP2 LT PUSH2 0x671 JUMPI PUSH2 0x670 PUSH2 0x25DB JUMP JUMPDEST JUMPDEST ADD SLOAD PUSH2 0x1A64 SWAP1 SWAP2 SWAP1 PUSH4 0xFFFFFFFF AND JUMP JUMPDEST PUSH1 0x8 DUP3 PUSH1 0xFF AND PUSH1 0x3 DUP2 LT PUSH2 0x698 JUMPI PUSH2 0x697 PUSH2 0x25DB JUMP JUMPDEST JUMPDEST ADD DUP2 SWAP1 SSTORE POP PUSH2 0x6E0 PUSH1 0xB DUP3 PUSH1 0xFF AND PUSH1 0x3 DUP2 LT PUSH2 0x6B7 JUMPI PUSH2 0x6B6 PUSH2 0x25DB JUMP JUMPDEST JUMPDEST ADD SLOAD PUSH1 0x8 DUP4 PUSH1 0xFF AND PUSH1 0x3 DUP2 LT PUSH2 0x6D0 JUMPI PUSH2 0x6CF PUSH2 0x25DB JUMP JUMPDEST JUMPDEST ADD SLOAD PUSH2 0x1A4E SWAP1 SWAP2 SWAP1 PUSH4 0xFFFFFFFF AND JUMP JUMPDEST PUSH1 0x8 DUP3 PUSH1 0xFF AND PUSH1 0x3 DUP2 LT PUSH2 0x6F7 JUMPI PUSH2 0x6F6 PUSH2 0x25DB JUMP JUMPDEST JUMPDEST ADD DUP2 SWAP1 SSTORE POP PUSH1 0x2 DUP3 PUSH2 0x709 SWAP2 SWAP1 PUSH2 0x2639 JUMP JUMPDEST PUSH1 0xB DUP3 PUSH1 0xFF AND PUSH1 0x3 DUP2 LT PUSH2 0x720 JUMPI PUSH2 0x71F PUSH2 0x25DB JUMP JUMPDEST JUMPDEST ADD PUSH1 0x0 DUP3 DUP3 SLOAD PUSH2 0x730 SWAP2 SWAP1 PUSH2 0x2585 JUMP JUMPDEST SWAP3 POP POP DUP2 SWAP1 SSTORE POP DUP1 DUP1 PUSH2 0x742 SWAP1 PUSH2 0x266A JUMP JUMPDEST SWAP2 POP POP PUSH2 0x615 JUMP JUMPDEST POP DUP1 PUSH1 0x2 PUSH1 0x0 DUP3 DUP3 SLOAD PUSH2 0x75D SWAP2 SWAP1 PUSH2 0x2585 JUMP JUMPDEST SWAP3 POP POP DUP2 SWAP1 SSTORE POP POP POP JUMP JUMPDEST PUSH2 0x770 PUSH2 0x187D JUMP JUMPDEST PUSH20 0xFFFFFFFFFFFFFFFFFFFFFFFFFFFFFFFFFFFFFFFF AND PUSH2 0x78E PUSH2 0xE1C JUMP JUMPDEST PUSH20 0xFFFFFFFFFFFFFFFFFFFFFFFFFFFFFFFFFFFFFFFF AND EQ PUSH2 0x7E4 JUMPI PUSH1 0x40 MLOAD PUSH32 0x8C379A000000000000000000000000000000000000000000000000000000000 DUP2 MSTORE PUSH1 0x4 ADD PUSH2 0x7DB SWAP1 PUSH2 0x24A4 JUMP JUMPDEST PUSH1 0x40 MLOAD DUP1 SWAP2 SUB SWAP1 REVERT JUMPDEST PUSH1 0x0 PUSH1 0x7 PUSH1 0x0 DUP5 PUSH20 0xFFFFFFFFFFFFFFFFFFFFFFFFFFFFFFFFFFFFFFFF AND PUSH20 0xFFFFFFFFFFFFFFFFFFFFFFFFFFFFFFFFFFFFFFFF AND DUP2 MSTORE PUSH1 0x20 ADD SWAP1 DUP2 MSTORE PUSH1 0x20 ADD PUSH1 0x0 KECCAK256 PUSH1 0x0 SWAP1 SLOAD SWAP1 PUSH2 0x100 EXP SWAP1 DIV PUSH1 0xFF AND PUSH1 0xFF AND SUB PUSH2 0x876 JUMPI PUSH1 0x40 MLOAD PUSH32 0x8C379A000000000000000000000000000000000000000000000000000000000 DUP2 MSTORE PUSH1 0x4 ADD PUSH2 0x86D SWAP1 PUSH2 0x26DF JUMP JUMPDEST PUSH1 0x40 MLOAD DUP1 SWAP2 SUB SWAP1 REVERT JUMPDEST PUSH2 0x87F DUP3 PUSH2 0x1A7A JUMP JUMPDEST DUP1 PUSH1 0x0 DUP1 DUP5 PUSH20 0xFFFFFFFFFFFFFFFFFFFFFFFFFFFFFFFFFFFFFFFF AND PUSH20 0xFFFFFFFFFFFFFFFFFFFFFFFFFFFFFFFFFFFFFFFF AND DUP2 MSTORE PUSH1 0x20 ADD SWAP1 DUP2 MSTORE PUSH1 0x20 ADD PUSH1 0x0 KECCAK256 PUSH1 0x0 DUP3 DUP3 SLOAD PUSH2 0x8CD SWAP2 SWAP1 PUSH2 0x2585 JUMP JUMPDEST SWAP3 POP POP DUP2 SWAP1 SSTORE POP PUSH2 0x8E8 PUSH1 0x2 DUP3 PUSH2 0x1A64 SWAP1 SWAP2 SWAP1 PUSH4 0xFFFFFFFF AND JUMP JUMPDEST PUSH1 0x0 DUP1 PUSH1 0xE PUSH1 0x0 SWAP1 SLOAD SWAP1 PUSH2 0x100 EXP SWAP1 DIV PUSH20 0xFFFFFFFFFFFFFFFFFFFFFFFFFFFFFFFFFFFFFFFF AND PUSH20 0xFFFFFFFFFFFFFFFFFFFFFFFFFFFFFFFFFFFFFFFF AND PUSH20 0xFFFFFFFFFFFFFFFFFFFFFFFFFFFFFFFFFFFFFFFF AND DUP2 MSTORE PUSH1 0x20 ADD SWAP1 DUP2 MSTORE PUSH1 0x20 ADD PUSH1 0x0 KECCAK256 PUSH1 0x0 DUP3 DUP3 SLOAD PUSH2 0x957 SWAP2 SWAP1 PUSH2 0x2585 JUMP JUMPDEST SWAP3 POP POP DUP2 SWAP1 SSTORE POP PUSH1 0x0 PUSH1 0x7 PUSH1 0x0 DUP5 PUSH20 0xFFFFFFFFFFFFFFFFFFFFFFFFFFFFFFFFFFFFFFFF AND PUSH20 0xFFFFFFFFFFFFFFFFFFFFFFFFFFFFFFFFFFFFFFFF AND DUP2 MSTORE PUSH1 0x20 ADD SWAP1 DUP2 MSTORE PUSH1 0x20 ADD PUSH1 0x0 KECCAK256 PUSH1 0x0 SWAP1 SLOAD SWAP1 PUSH2 0x100 EXP SWAP1 DIV PUSH1 0xFF AND PUSH1 0x1 PUSH2 0x9B9 SWAP2 SWAP1 PUSH2 0x26FF JUMP JUMPDEST SWAP1 POP PUSH2 0xA09 DUP3 PUSH1 0xB DUP4 PUSH1 0xFF AND PUSH1 0x3 DUP2 LT PUSH2 0x9D6 JUMPI PUSH2 0x9D5 PUSH2 0x25DB JUMP JUMPDEST JUMPDEST ADD SLOAD PUSH2 0x9E2 SWAP2 SWAP1 PUSH2 0x2585 JUMP JUMPDEST PUSH1 0x8 DUP4 PUSH1 0xFF AND PUSH1 0x3 DUP2 LT PUSH2 0x9F9 JUMPI PUSH2 0x9F8 PUSH2 0x25DB JUMP JUMPDEST JUMPDEST ADD SLOAD PUSH2 0x1A64 SWAP1 SWAP2 SWAP1 PUSH4 0xFFFFFFFF AND JUMP JUMPDEST PUSH1 0x8 DUP3 PUSH1 0xFF AND PUSH1 0x3 DUP2 LT PUSH2 0xA20 JUMPI PUSH2 0xA1F PUSH2 0x25DB JUMP JUMPDEST JUMPDEST ADD DUP2 SWAP1 SSTORE POP PUSH2 0xA68 PUSH1 0xB DUP3 PUSH1 0xFF AND PUSH1 0x3 DUP2 LT PUSH2 0xA3F JUMPI PUSH2 0xA3E PUSH2 0x25DB JUMP JUMPDEST JUMPDEST ADD SLOAD PUSH1 0x8 DUP4 PUSH1 0xFF AND PUSH1 0x3 DUP2 LT PUSH2 0xA58 JUMPI PUSH2 0xA57 PUSH2 0x25DB JUMP JUMPDEST JUMPDEST ADD SLOAD PUSH2 0x1A4E SWAP1 SWAP2 SWAP1 PUSH4 0xFFFFFFFF AND JUMP JUMPDEST PUSH1 0x8 DUP3 PUSH1 0xFF AND PUSH1 0x3 DUP2 LT PUSH2 0xA7F JUMPI PUSH2 0xA7E PUSH2 0x25DB JUMP JUMPDEST JUMPDEST ADD DUP2 SWAP1 SSTORE POP DUP2 PUSH1 0xB PUSH1 0x1 PUSH1 0x3 DUP2 LT PUSH2 0xA9A JUMPI PUSH2 0xA99 PUSH2 0x25DB JUMP JUMPDEST JUMPDEST ADD PUSH1 0x0 DUP3 DUP3 SLOAD PUSH2 0xAAA SWAP2 SWAP1 PUSH2 0x2585 JUMP JUMPDEST SWAP3 POP POP DUP2 SWAP1 SSTORE POP DUP2 PUSH1 0xB PUSH1 0x2 PUSH1 0x3 DUP2 LT PUSH2 0xAC7 JUMPI PUSH2 0xAC6 PUSH2 0x25DB JUMP JUMPDEST JUMPDEST ADD PUSH1 0x0 DUP3 DUP3 SLOAD PUSH2 0xAD7 SWAP2 SWAP1 PUSH2 0x2585 JUMP JUMPDEST SWAP3 POP POP DUP2 SWAP1 SSTORE POP DUP2 PUSH1 0x2 PUSH1 0x0 DUP3 DUP3 SLOAD PUSH2 0xAF0 SWAP2 SWAP1 PUSH2 0x2585 JUMP JUMPDEST SWAP3 POP POP DUP2 SWAP1 SSTORE POP POP POP POP JUMP JUMPDEST PUSH1 0x0 PUSH1 0x2 SLOAD SWAP1 POP SWAP1 JUMP JUMPDEST PUSH1 0x0 PUSH1 0x1 SWAP1 POP SWAP4 SWAP3 POP POP POP JUMP JUMPDEST PUSH1 0x0 PUSH1 0x12 SWAP1 POP SWAP1 JUMP JUMPDEST PUSH1 0x0 PUSH2 0xBBE PUSH2 0xB29 PUSH2 0x187D JUMP JUMPDEST DUP5 DUP5 PUSH1 0x1 PUSH1 0x0 PUSH2 0xB37 PUSH2 0x187D JUMP JUMPDEST PUSH20 0xFFFFFFFFFFFFFFFFFFFFFFFFFFFFFFFFFFFFFFFF AND PUSH20 0xFFFFFFFFFFFFFFFFFFFFFFFFFFFFFFFFFFFFFFFF AND DUP2 MSTORE PUSH1 0x20 ADD SWAP1 DUP2 MSTORE PUSH1 0x20 ADD PUSH1 0x0 KECCAK256 PUSH1 0x0 DUP9 PUSH20 0xFFFFFFFFFFFFFFFFFFFFFFFFFFFFFFFFFFFFFFFF AND PUSH20 0xFFFFFFFFFFFFFFFFFFFFFFFFFFFFFFFFFFFFFFFF AND DUP2 MSTORE PUSH1 0x20 ADD SWAP1 DUP2 MSTORE PUSH1 0x20 ADD PUSH1 0x0 KECCAK256 SLOAD PUSH2 0xBB9 SWAP2 SWAP1 PUSH2 0x2585 JUMP JUMPDEST PUSH2 0x1885 JUMP JUMPDEST PUSH1 0x1 SWAP1 POP SWAP3 SWAP2 POP POP JUMP JUMPDEST PUSH1 0x0 DUP1 PUSH1 0x7 PUSH1 0x0 DUP5 PUSH20 0xFFFFFFFFFFFFFFFFFFFFFFFFFFFFFFFFFFFFFFFF AND PUSH20 0xFFFFFFFFFFFFFFFFFFFFFFFFFFFFFFFFFFFFFFFF AND DUP2 MSTORE PUSH1 0x20 ADD SWAP1 DUP2 MSTORE PUSH1 0x20 ADD PUSH1 0x0 KECCAK256 PUSH1 0x0 SWAP1 SLOAD SWAP1 PUSH2 0x100 EXP SWAP1 DIV PUSH1 0xFF AND PUSH1 0xFF AND SUB PUSH2 0xC66 JUMPI PUSH1 0x0 DUP1 DUP4 PUSH20 0xFFFFFFFFFFFFFFFFFFFFFFFFFFFFFFFFFFFFFFFF AND PUSH20 0xFFFFFFFFFFFFFFFFFFFFFFFFFFFFFFFFFFFFFFFF AND DUP2 MSTORE PUSH1 0x20 ADD SWAP1 DUP2 MSTORE PUSH1 0x20 ADD PUSH1 0x0 KECCAK256 SLOAD SWAP1 POP PUSH2 0xD6F JUMP JUMPDEST PUSH2 0xD6C PUSH1 0x6 PUSH1 0x0 DUP5 PUSH20 0xFFFFFFFFFFFFFFFFFFFFFFFFFFFFFFFFFFFFFFFF AND PUSH20 0xFFFFFFFFFFFFFFFFFFFFFFFFFFFFFFFFFFFFFFFF AND DUP2 MSTORE PUSH1 0x20 ADD SWAP1 DUP2 MSTORE PUSH1 0x20 ADD PUSH1 0x0 KECCAK256 SLOAD PUSH2 0xD5E PUSH1 0x0 DUP1 DUP7 PUSH20 0xFFFFFFFFFFFFFFFFFFFFFFFFFFFFFFFFFFFFFFFF AND PUSH20 0xFFFFFFFFFFFFFFFFFFFFFFFFFFFFFFFFFFFFFFFF AND DUP2 MSTORE PUSH1 0x20 ADD SWAP1 DUP2 MSTORE PUSH1 0x20 ADD PUSH1 0x0 KECCAK256 SLOAD PUSH1 0x8 PUSH1 0x7 PUSH1 0x0 DUP9 PUSH20 0xFFFFFFFFFFFFFFFFFFFFFFFFFFFFFFFFFFFFFFFF AND PUSH20 0xFFFFFFFFFFFFFFFFFFFFFFFFFFFFFFFFFFFFFFFF AND DUP2 MSTORE PUSH1 0x20 ADD SWAP1 DUP2 MSTORE PUSH1 0x20 ADD PUSH1 0x0 KECCAK256 PUSH1 0x0 SWAP1 SLOAD SWAP1 PUSH2 0x100 EXP SWAP1 DIV PUSH1 0xFF AND PUSH1 0xFF AND PUSH1 0x3 DUP2 LT PUSH2 0xD4E JUMPI PUSH2 0xD4D PUSH2 0x25DB JUMP JUMPDEST JUMPDEST ADD SLOAD PUSH2 0x1A64 SWAP1 SWAP2 SWAP1 PUSH4 0xFFFFFFFF AND JUMP JUMPDEST PUSH2 0x1A4E SWAP1 SWAP2 SWAP1 PUSH4 0xFFFFFFFF AND JUMP JUMPDEST SWAP1 POP JUMPDEST SWAP2 SWAP1 POP JUMP JUMPDEST PUSH2 0xD7C PUSH2 0x187D JUMP JUMPDEST PUSH20 0xFFFFFFFFFFFFFFFFFFFFFFFFFFFFFFFFFFFFFFFF AND PUSH2 0xD9A PUSH2 0xE1C JUMP JUMPDEST PUSH20 0xFFFFFFFFFFFFFFFFFFFFFFFFFFFFFFFFFFFFFFFF AND EQ PUSH2 0xDF0 JUMPI PUSH1 0x40 MLOAD PUSH32 0x8C379A000000000000000000000000000000000000000000000000000000000 DUP2 MSTORE PUSH1 0x4 ADD PUSH2 0xDE7 SWAP1 PUSH2 0x24A4 JUMP JUMPDEST PUSH1 0x40 MLOAD DUP1 SWAP2 SUB SWAP1 REVERT JUMPDEST PUSH2 0xDFA PUSH1 0x0 PUSH2 0x1CC6 JUMP JUMPDEST JUMP JUMPDEST PUSH1 0x7 PUSH1 0x20 MSTORE DUP1 PUSH1 0x0 MSTORE PUSH1 0x40 PUSH1 0x0 KECCAK256 PUSH1 0x0 SWAP2 POP SLOAD SWAP1 PUSH2 0x100 EXP SWAP1 DIV PUSH1 0xFF AND DUP2 JUMP JUMPDEST PUSH1 0x0 PUSH1 0x5 PUSH1 0x0 SWAP1 SLOAD SWAP1 PUSH2 0x100 EXP SWAP1 DIV PUSH20 0xFFFFFFFFFFFFFFFFFFFFFFFFFFFFFFFFFFFFFFFF AND SWAP1 POP SWAP1 JUMP JUMPDEST PUSH1 0x60 PUSH1 0x4 DUP1 SLOAD PUSH2 0xE55 SWAP1 PUSH2 0x2427 JUMP JUMPDEST DUP1 PUSH1 0x1F ADD PUSH1 0x20 DUP1 SWAP2 DIV MUL PUSH1 0x20 ADD PUSH1 0x40 MLOAD SWAP1 DUP2 ADD PUSH1 0x40 MSTORE DUP1 SWAP3 SWAP2 SWAP1 DUP2 DUP2 MSTORE PUSH1 0x20 ADD DUP3 DUP1 SLOAD PUSH2 0xE81 SWAP1 PUSH2 0x2427 JUMP JUMPDEST DUP1 ISZERO PUSH2 0xECE JUMPI DUP1 PUSH1 0x1F LT PUSH2 0xEA3 JUMPI PUSH2 0x100 DUP1 DUP4 SLOAD DIV MUL DUP4 MSTORE SWAP2 PUSH1 0x20 ADD SWAP2 PUSH2 0xECE JUMP JUMPDEST DUP3 ADD SWAP2 SWAP1 PUSH1 0x0 MSTORE PUSH1 0x20 PUSH1 0x0 KECCAK256 SWAP1 JUMPDEST DUP2 SLOAD DUP2 MSTORE SWAP1 PUSH1 0x1 ADD SWAP1 PUSH1 0x20 ADD DUP1 DUP4 GT PUSH2 0xEB1 JUMPI DUP3 SWAP1 SUB PUSH1 0x1F AND DUP3 ADD SWAP2 JUMPDEST POP POP POP POP POP SWAP1 POP SWAP1 JUMP JUMPDEST PUSH2 0xEE0 PUSH2 0x187D JUMP JUMPDEST PUSH20 0xFFFFFFFFFFFFFFFFFFFFFFFFFFFFFFFFFFFFFFFF AND PUSH2 0xEFE PUSH2 0xE1C JUMP JUMPDEST PUSH20 0xFFFFFFFFFFFFFFFFFFFFFFFFFFFFFFFFFFFFFFFF AND EQ PUSH2 0xF54 JUMPI PUSH1 0x40 MLOAD PUSH32 0x8C379A000000000000000000000000000000000000000000000000000000000 DUP2 MSTORE PUSH1 0x4 ADD PUSH2 0xF4B SWAP1 PUSH2 0x24A4 JUMP JUMPDEST PUSH1 0x40 MLOAD DUP1 SWAP2 SUB SWAP1 REVERT JUMPDEST PUSH1 0x0 PUSH1 0xB PUSH1 0x2 PUSH1 0x3 DUP2 LT PUSH2 0xF6B JUMPI PUSH2 0xF6A PUSH2 0x25DB JUMP JUMPDEST JUMPDEST ADD SLOAD EQ PUSH2 0x1043 JUMPI PUSH2 0xFCF PUSH2 0xF89 PUSH1 0x4 DUP4 PUSH2 0x1A4E SWAP1 SWAP2 SWAP1 PUSH4 0xFFFFFFFF AND JUMP JUMPDEST PUSH1 0xB PUSH1 0x2 PUSH1 0x3 DUP2 LT PUSH2 0xF9E JUMPI PUSH2 0xF9D PUSH2 0x25DB JUMP JUMPDEST JUMPDEST ADD SLOAD PUSH2 0xFAA SWAP2 SWAP1 PUSH2 0x2585 JUMP JUMPDEST PUSH1 0x8 PUSH1 0x2 PUSH1 0x3 DUP2 LT PUSH2 0xFBF JUMPI PUSH2 0xFBE PUSH2 0x25DB JUMP JUMPDEST JUMPDEST ADD SLOAD PUSH2 0x1A64 SWAP1 SWAP2 SWAP1 PUSH4 0xFFFFFFFF AND JUMP JUMPDEST PUSH1 0x8 PUSH1 0x2 PUSH1 0x3 DUP2 LT PUSH2 0xFE4 JUMPI PUSH2 0xFE3 PUSH2 0x25DB JUMP JUMPDEST JUMPDEST ADD DUP2 SWAP1 SSTORE POP PUSH2 0x1028 PUSH1 0xB PUSH1 0x2 PUSH1 0x3 DUP2 LT PUSH2 0x1001 JUMPI PUSH2 0x1000 PUSH2 0x25DB JUMP JUMPDEST JUMPDEST ADD SLOAD PUSH1 0x8 PUSH1 0x2 PUSH1 0x3 DUP2 LT PUSH2 0x1018 JUMPI PUSH2 0x1017 PUSH2 0x25DB JUMP JUMPDEST JUMPDEST ADD SLOAD PUSH2 0x1A4E SWAP1 SWAP2 SWAP1 PUSH4 0xFFFFFFFF AND JUMP JUMPDEST PUSH1 0x8 PUSH1 0x2 PUSH1 0x3 DUP2 LT PUSH2 0x103D JUMPI PUSH2 0x103C PUSH2 0x25DB JUMP JUMPDEST JUMPDEST ADD DUP2 SWAP1 SSTORE POP JUMPDEST PUSH1 0x0 PUSH1 0xB PUSH1 0x1 PUSH1 0x3 DUP2 LT PUSH2 0x105A JUMPI PUSH2 0x1059 PUSH2 0x25DB JUMP JUMPDEST JUMPDEST ADD SLOAD EQ PUSH2 0x1132 JUMPI PUSH2 0x10BE PUSH2 0x1078 PUSH1 0x4 DUP4 PUSH2 0x1A4E SWAP1 SWAP2 SWAP1 PUSH4 0xFFFFFFFF AND JUMP JUMPDEST PUSH1 0xB PUSH1 0x1 PUSH1 0x3 DUP2 LT PUSH2 0x108D JUMPI PUSH2 0x108C PUSH2 0x25DB JUMP JUMPDEST JUMPDEST ADD SLOAD PUSH2 0x1099 SWAP2 SWAP1 PUSH2 0x2585 JUMP JUMPDEST PUSH1 0x8 PUSH1 0x1 PUSH1 0x3 DUP2 LT PUSH2 0x10AE JUMPI PUSH2 0x10AD PUSH2 0x25DB JUMP JUMPDEST JUMPDEST ADD SLOAD PUSH2 0x1A64 SWAP1 SWAP2 SWAP1 PUSH4 0xFFFFFFFF AND JUMP JUMPDEST PUSH1 0x8 PUSH1 0x1 PUSH1 0x3 DUP2 LT PUSH2 0x10D3 JUMPI PUSH2 0x10D2 PUSH2 0x25DB JUMP JUMPDEST JUMPDEST ADD DUP2 SWAP1 SSTORE POP PUSH2 0x1117 PUSH1 0xB PUSH1 0x1 PUSH1 0x3 DUP2 LT PUSH2 0x10F0 JUMPI PUSH2 0x10EF PUSH2 0x25DB JUMP JUMPDEST JUMPDEST ADD SLOAD PUSH1 0x8 PUSH1 0x1 PUSH1 0x3 DUP2 LT PUSH2 0x1107 JUMPI PUSH2 0x1106 PUSH2 0x25DB JUMP JUMPDEST JUMPDEST ADD SLOAD PUSH2 0x1A4E SWAP1 SWAP2 SWAP1 PUSH4 0xFFFFFFFF AND JUMP JUMPDEST PUSH1 0x8 PUSH1 0x1 PUSH1 0x3 DUP2 LT PUSH2 0x112C JUMPI PUSH2 0x112B PUSH2 0x25DB JUMP JUMPDEST JUMPDEST ADD DUP2 SWAP1 SSTORE POP JUMPDEST PUSH1 0x2 DUP2 PUSH2 0x113F SWAP2 SWAP1 PUSH2 0x2639 JUMP JUMPDEST PUSH1 0x0 DUP1 PUSH1 0xE PUSH1 0x0 SWAP1 SLOAD SWAP1 PUSH2 0x100 EXP SWAP1 DIV PUSH20 0xFFFFFFFFFFFFFFFFFFFFFFFFFFFFFFFFFFFFFFFF AND PUSH20 0xFFFFFFFFFFFFFFFFFFFFFFFFFFFFFFFFFFFFFFFF AND PUSH20 0xFFFFFFFFFFFFFFFFFFFFFFFFFFFFFFFFFFFFFFFF AND DUP2 MSTORE PUSH1 0x20 ADD SWAP1 DUP2 MSTORE PUSH1 0x20 ADD PUSH1 0x0 KECCAK256 PUSH1 0x0 DUP3 DUP3 SLOAD PUSH2 0x11AE SWAP2 SWAP1 PUSH2 0x2585 JUMP JUMPDEST SWAP3 POP POP DUP2 SWAP1 SSTORE POP PUSH2 0x11C9 PUSH1 0x4 DUP3 PUSH2 0x1A4E SWAP1 SWAP2 SWAP1 PUSH4 0xFFFFFFFF AND JUMP JUMPDEST PUSH1 0xB PUSH1 0x1 PUSH1 0x3 DUP2 LT PUSH2 0x11DE JUMPI PUSH2 0x11DD PUSH2 0x25DB JUMP JUMPDEST JUMPDEST ADD PUSH1 0x0 DUP3 DUP3 SLOAD PUSH2 0x11EE SWAP2 SWAP1 PUSH2 0x2585 JUMP JUMPDEST SWAP3 POP POP DUP2 SWAP1 SSTORE POP PUSH2 0x1209 PUSH1 0x4 DUP3 PUSH2 0x1A4E SWAP1 SWAP2 SWAP1 PUSH4 0xFFFFFFFF AND JUMP JUMPDEST PUSH1 0xB PUSH1 0x2 PUSH1 0x3 DUP2 LT PUSH2 0x121E JUMPI PUSH2 0x121D PUSH2 0x25DB JUMP JUMPDEST JUMPDEST ADD PUSH1 0x0 DUP3 DUP3 SLOAD PUSH2 0x122E SWAP2 SWAP1 PUSH2 0x2585 JUMP JUMPDEST SWAP3 POP POP DUP2 SWAP1 SSTORE POP DUP1 PUSH1 0x2 PUSH1 0x0 DUP3 DUP3 SLOAD PUSH2 0x1247 SWAP2 SWAP1 PUSH2 0x2585 JUMP JUMPDEST SWAP3 POP POP DUP2 SWAP1 SSTORE POP POP JUMP JUMPDEST PUSH2 0x1259 PUSH2 0x187D JUMP JUMPDEST PUSH20 0xFFFFFFFFFFFFFFFFFFFFFFFFFFFFFFFFFFFFFFFF AND PUSH2 0x1277 PUSH2 0xE1C JUMP JUMPDEST PUSH20 0xFFFFFFFFFFFFFFFFFFFFFFFFFFFFFFFFFFFFFFFF AND EQ PUSH2 0x12CD JUMPI PUSH1 0x40 MLOAD PUSH32 0x8C379A000000000000000000000000000000000000000000000000000000000 DUP2 MSTORE PUSH1 0x4 ADD PUSH2 0x12C4 SWAP1 PUSH2 0x24A4 JUMP JUMPDEST PUSH1 0x40 MLOAD DUP1 SWAP2 SUB SWAP1 REVERT JUMPDEST PUSH2 0x12D6 DUP3 PUSH2 0x1A7A JUMP JUMPDEST PUSH1 0x0 PUSH1 0x7 PUSH1 0x0 DUP5 PUSH20 0xFFFFFFFFFFFFFFFFFFFFFFFFFFFFFFFFFFFFFFFF AND PUSH20 0xFFFFFFFFFFFFFFFFFFFFFFFFFFFFFFFFFFFFFFFF AND DUP2 MSTORE PUSH1 0x20 ADD SWAP1 DUP2 MSTORE PUSH1 0x20 ADD PUSH1 0x0 KECCAK256 PUSH1 0x0 SWAP1 SLOAD SWAP1 PUSH2 0x100 EXP SWAP1 DIV PUSH1 0xFF AND SWAP1 POP DUP2 PUSH1 0x7 PUSH1 0x0 DUP6 PUSH20 0xFFFFFFFFFFFFFFFFFFFFFFFFFFFFFFFFFFFFFFFF AND PUSH20 0xFFFFFFFFFFFFFFFFFFFFFFFFFFFFFFFFFFFFFFFF AND DUP2 MSTORE PUSH1 0x20 ADD SWAP1 DUP2 MSTORE PUSH1 0x20 ADD PUSH1 0x0 KECCAK256 PUSH1 0x0 PUSH2 0x100 EXP DUP2 SLOAD DUP2 PUSH1 0xFF MUL NOT AND SWAP1 DUP4 PUSH1 0xFF AND MUL OR SWAP1 SSTORE POP PUSH1 0x0 DUP1 DUP5 PUSH20 0xFFFFFFFFFFFFFFFFFFFFFFFFFFFFFFFFFFFFFFFF AND PUSH20 0xFFFFFFFFFFFFFFFFFFFFFFFFFFFFFFFFFFFFFFFF AND DUP2 MSTORE PUSH1 0x20 ADD SWAP1 DUP2 MSTORE PUSH1 0x20 ADD PUSH1 0x0 KECCAK256 SLOAD PUSH1 0xB DUP3 PUSH1 0xFF AND PUSH1 0x3 DUP2 LT PUSH2 0x13D5 JUMPI PUSH2 0x13D4 PUSH2 0x25DB JUMP JUMPDEST JUMPDEST ADD PUSH1 0x0 DUP3 DUP3 SLOAD PUSH2 0x13E5 SWAP2 SWAP1 PUSH2 0x2733 JUMP JUMPDEST SWAP3 POP POP DUP2 SWAP1 SSTORE POP PUSH1 0x0 DUP1 DUP5 PUSH20 0xFFFFFFFFFFFFFFFFFFFFFFFFFFFFFFFFFFFFFFFF AND PUSH20 0xFFFFFFFFFFFFFFFFFFFFFFFFFFFFFFFFFFFFFFFF AND DUP2 MSTORE PUSH1 0x20 ADD SWAP1 DUP2 MSTORE PUSH1 0x20 ADD PUSH1 0x0 KECCAK256 SLOAD PUSH1 0xB DUP4 PUSH1 0xFF AND PUSH1 0x3 DUP2 LT PUSH2 0x1442 JUMPI PUSH2 0x1441 PUSH2 0x25DB JUMP JUMPDEST JUMPDEST ADD PUSH1 0x0 DUP3 DUP3 SLOAD PUSH2 0x1452 SWAP2 SWAP1 PUSH2 0x2585 JUMP JUMPDEST SWAP3 POP POP DUP2 SWAP1 SSTORE POP PUSH1 0x8 DUP3 PUSH1 0xFF AND PUSH1 0x3 DUP2 LT PUSH2 0x1470 JUMPI PUSH2 0x146F PUSH2 0x25DB JUMP JUMPDEST JUMPDEST ADD SLOAD PUSH1 0x6 PUSH1 0x0 DUP6 PUSH20 0xFFFFFFFFFFFFFFFFFFFFFFFFFFFFFFFFFFFFFFFF AND PUSH20 0xFFFFFFFFFFFFFFFFFFFFFFFFFFFFFFFFFFFFFFFF AND DUP2 MSTORE PUSH1 0x20 ADD SWAP1 DUP2 MSTORE PUSH1 0x20 ADD PUSH1 0x0 KECCAK256 DUP2 SWAP1 SSTORE POP POP POP POP JUMP JUMPDEST PUSH1 0x0 DUP1 PUSH1 0x1 PUSH1 0x0 PUSH2 0x14C9 PUSH2 0x187D JUMP JUMPDEST PUSH20 0xFFFFFFFFFFFFFFFFFFFFFFFFFFFFFFFFFFFFFFFF AND PUSH20 0xFFFFFFFFFFFFFFFFFFFFFFFFFFFFFFFFFFFFFFFF AND DUP2 MSTORE PUSH1 0x20 ADD SWAP1 DUP2 MSTORE PUSH1 0x20 ADD PUSH1 0x0 KECCAK256 PUSH1 0x0 DUP6 PUSH20 0xFFFFFFFFFFFFFFFFFFFFFFFFFFFFFFFFFFFFFFFF AND PUSH20 0xFFFFFFFFFFFFFFFFFFFFFFFFFFFFFFFFFFFFFFFF AND DUP2 MSTORE PUSH1 0x20 ADD SWAP1 DUP2 MSTORE PUSH1 0x20 ADD PUSH1 0x0 KECCAK256 SLOAD SWAP1 POP DUP3 DUP2 LT ISZERO PUSH2 0x1586 JUMPI PUSH1 0x40 MLOAD PUSH32 0x8C379A000000000000000000000000000000000000000000000000000000000 DUP2 MSTORE PUSH1 0x4 ADD PUSH2 0x157D SWAP1 PUSH2 0x27D9 JUMP JUMPDEST PUSH1 0x40 MLOAD DUP1 SWAP2 SUB SWAP1 REVERT JUMPDEST PUSH2 0x15A3 PUSH2 0x1591 PUSH2 0x187D JUMP JUMPDEST DUP6 DUP6 DUP5 PUSH2 0x159E SWAP2 SWAP1 PUSH2 0x2733 JUMP JUMPDEST PUSH2 0x1885 JUMP JUMPDEST PUSH1 0x1 SWAP2 POP POP SWAP3 SWAP2 POP POP JUMP JUMPDEST PUSH1 0x0 DUP1 PUSH2 0x15B9 PUSH2 0x187D JUMP JUMPDEST SWAP1 POP PUSH2 0x15C4 DUP2 PUSH2 0x1A7A JUMP JUMPDEST PUSH2 0x15CD DUP5 PUSH2 0x1A7A JUMP JUMPDEST DUP3 PUSH1 0xB PUSH1 0x7 PUSH1 0x0 DUP5 PUSH20 0xFFFFFFFFFFFFFFFFFFFFFFFFFFFFFFFFFFFFFFFF AND PUSH20 0xFFFFFFFFFFFFFFFFFFFFFFFFFFFFFFFFFFFFFFFF AND DUP2 MSTORE PUSH1 0x20 ADD SWAP1 DUP2 MSTORE PUSH1 0x20 ADD PUSH1 0x0 KECCAK256 PUSH1 0x0 SWAP1 SLOAD SWAP1 PUSH2 0x100 EXP SWAP1 DIV PUSH1 0xFF AND PUSH1 0xFF AND PUSH1 0x3 DUP2 LT PUSH2 0x1631 JUMPI PUSH2 0x1630 PUSH2 0x25DB JUMP JUMPDEST JUMPDEST ADD PUSH1 0x0 DUP3 DUP3 SLOAD PUSH2 0x1641 SWAP2 SWAP1 PUSH2 0x2733 JUMP JUMPDEST SWAP3 POP POP DUP2 SWAP1 SSTORE POP DUP3 PUSH1 0xB PUSH1 0x7 PUSH1 0x0 DUP8 PUSH20 0xFFFFFFFFFFFFFFFFFFFFFFFFFFFFFFFFFFFFFFFF AND PUSH20 0xFFFFFFFFFFFFFFFFFFFFFFFFFFFFFFFFFFFFFFFF AND DUP2 MSTORE PUSH1 0x20 ADD SWAP1 DUP2 MSTORE PUSH1 0x20 ADD PUSH1 0x0 KECCAK256 PUSH1 0x0 SWAP1 SLOAD SWAP1 PUSH2 0x100 EXP SWAP1 DIV PUSH1 0xFF AND PUSH1 0xFF AND PUSH1 0x3 DUP2 LT PUSH2 0x16AC JUMPI PUSH2 0x16AB PUSH2 0x25DB JUMP JUMPDEST JUMPDEST ADD PUSH1 0x0 DUP3 DUP3 SLOAD PUSH2 0x16BC SWAP2 SWAP1 PUSH2 0x2585 JUMP JUMPDEST SWAP3 POP POP DUP2 SWAP1 SSTORE POP PUSH2 0x16CE DUP2 DUP6 DUP6 PUSH2 0x1D8C JUMP JUMPDEST PUSH1 0x1 SWAP2 POP POP SWAP3 SWAP2 POP POP JUMP JUMPDEST PUSH1 0x0 PUSH1 0x1 PUSH1 0x0 DUP5 PUSH20 0xFFFFFFFFFFFFFFFFFFFFFFFFFFFFFFFFFFFFFFFF AND PUSH20 0xFFFFFFFFFFFFFFFFFFFFFFFFFFFFFFFFFFFFFFFF AND DUP2 MSTORE PUSH1 0x20 ADD SWAP1 DUP2 MSTORE PUSH1 0x20 ADD PUSH1 0x0 KECCAK256 PUSH1 0x0 DUP4 PUSH20 0xFFFFFFFFFFFFFFFFFFFFFFFFFFFFFFFFFFFFFFFF AND PUSH20 0xFFFFFFFFFFFFFFFFFFFFFFFFFFFFFFFFFFFFFFFF AND DUP2 MSTORE PUSH1 0x20 ADD SWAP1 DUP2 MSTORE PUSH1 0x20 ADD PUSH1 0x0 KECCAK256 SLOAD SWAP1 POP SWAP3 SWAP2 POP POP JUMP JUMPDEST PUSH2 0x1768 PUSH2 0x187D JUMP JUMPDEST PUSH20 0xFFFFFFFFFFFFFFFFFFFFFFFFFFFFFFFFFFFFFFFF AND PUSH2 0x1786 PUSH2 0xE1C JUMP JUMPDEST PUSH20 0xFFFFFFFFFFFFFFFFFFFFFFFFFFFFFFFFFFFFFFFF AND EQ PUSH2 0x17DC JUMPI PUSH1 0x40 MLOAD PUSH32 0x8C379A000000000000000000000000000000000000000000000000000000000 DUP2 MSTORE PUSH1 0x4 ADD PUSH2 0x17D3 SWAP1 PUSH2 0x24A4 JUMP JUMPDEST PUSH1 0x40 MLOAD DUP1 SWAP2 SUB SWAP1 REVERT JUMPDEST PUSH1 0x0 PUSH20 0xFFFFFFFFFFFFFFFFFFFFFFFFFFFFFFFFFFFFFFFF AND DUP2 PUSH20 0xFFFFFFFFFFFFFFFFFFFFFFFFFFFFFFFFFFFFFFFF AND SUB PUSH2 0x184B JUMPI PUSH1 0x40 MLOAD PUSH32 0x8C379A000000000000000000000000000000000000000000000000000000000 DUP2 MSTORE PUSH1 0x4 ADD PUSH2 0x1842 SWAP1 PUSH2 0x286B JUMP JUMPDEST PUSH1 0x40 MLOAD DUP1 SWAP2 SUB SWAP1 REVERT JUMPDEST PUSH2 0x1854 DUP2 PUSH2 0x1CC6 JUMP JUMPDEST POP JUMP JUMPDEST PUSH1 0xE PUSH1 0x0 SWAP1 SLOAD SWAP1 PUSH2 0x100 EXP SWAP1 DIV PUSH20 0xFFFFFFFFFFFFFFFFFFFFFFFFFFFFFFFFFFFFFFFF AND DUP2 JUMP JUMPDEST PUSH1 0x0 CALLER SWAP1 POP SWAP1 JUMP JUMPDEST PUSH1 0x0 PUSH20 0xFFFFFFFFFFFFFFFFFFFFFFFFFFFFFFFFFFFFFFFF AND DUP4 PUSH20 0xFFFFFFFFFFFFFFFFFFFFFFFFFFFFFFFFFFFFFFFF AND SUB PUSH2 0x18F4 JUMPI PUSH1 0x40 MLOAD PUSH32 0x8C379A000000000000000000000000000000000000000000000000000000000 DUP2 MSTORE PUSH1 0x4 ADD PUSH2 0x18EB SWAP1 PUSH2 0x28FD JUMP JUMPDEST PUSH1 0x40 MLOAD DUP1 SWAP2 SUB SWAP1 REVERT JUMPDEST PUSH1 0x0 PUSH20 0xFFFFFFFFFFFFFFFFFFFFFFFFFFFFFFFFFFFFFFFF AND DUP3 PUSH20 0xFFFFFFFFFFFFFFFFFFFFFFFFFFFFFFFFFFFFFFFF AND SUB PUSH2 0x1963 JUMPI PUSH1 0x40 MLOAD PUSH32 0x8C379A000000000000000000000000000000000000000000000000000000000 DUP2 MSTORE PUSH1 0x4 ADD PUSH2 0x195A SWAP1 PUSH2 0x298F JUMP JUMPDEST PUSH1 0x40 MLOAD DUP1 SWAP2 SUB SWAP1 REVERT JUMPDEST DUP1 PUSH1 0x1 PUSH1 0x0 DUP6 PUSH20 0xFFFFFFFFFFFFFFFFFFFFFFFFFFFFFFFFFFFFFFFF AND PUSH20 0xFFFFFFFFFFFFFFFFFFFFFFFFFFFFFFFFFFFFFFFF AND DUP2 MSTORE PUSH1 0x20 ADD SWAP1 DUP2 MSTORE PUSH1 0x20 ADD PUSH1 0x0 KECCAK256 PUSH1 0x0 DUP5 PUSH20 0xFFFFFFFFFFFFFFFFFFFFFFFFFFFFFFFFFFFFFFFF AND PUSH20 0xFFFFFFFFFFFFFFFFFFFFFFFFFFFFFFFFFFFFFFFF AND DUP2 MSTORE PUSH1 0x20 ADD SWAP1 DUP2 MSTORE PUSH1 0x20 ADD PUSH1 0x0 KECCAK256 DUP2 SWAP1 SSTORE POP DUP2 PUSH20 0xFFFFFFFFFFFFFFFFFFFFFFFFFFFFFFFFFFFFFFFF AND DUP4 PUSH20 0xFFFFFFFFFFFFFFFFFFFFFFFFFFFFFFFFFFFFFFFF AND PUSH32 0x8C5BE1E5EBEC7D5BD14F71427D1E84F3DD0314C0F7B2291E5B200AC8C7C3B925 DUP4 PUSH1 0x40 MLOAD PUSH2 0x1A41 SWAP2 SWAP1 PUSH2 0x21E7 JUMP JUMPDEST PUSH1 0x40 MLOAD DUP1 SWAP2 SUB SWAP1 LOG3 POP POP POP JUMP JUMPDEST PUSH1 0x0 DUP2 DUP4 PUSH2 0x1A5C SWAP2 SWAP1 PUSH2 0x2639 JUMP JUMPDEST SWAP1 POP SWAP3 SWAP2 POP POP JUMP JUMPDEST PUSH1 0x0 DUP2 DUP4 PUSH2 0x1A72 SWAP2 SWAP1 PUSH2 0x29AF JUMP JUMPDEST SWAP1 POP SWAP3 SWAP2 POP POP JUMP JUMPDEST PUSH1 0x0 PUSH1 0x7 PUSH1 0x0 DUP4 PUSH20 0xFFFFFFFFFFFFFFFFFFFFFFFFFFFFFFFFFFFFFFFF AND PUSH20 0xFFFFFFFFFFFFFFFFFFFFFFFFFFFFFFFFFFFFFFFF AND DUP2 MSTORE PUSH1 0x20 ADD SWAP1 DUP2 MSTORE PUSH1 0x20 ADD PUSH1 0x0 KECCAK256 PUSH1 0x0 SWAP1 SLOAD SWAP1 PUSH2 0x100 EXP SWAP1 DIV PUSH1 0xFF AND PUSH1 0xFF AND SUB ISZERO PUSH2 0x1CC3 JUMPI PUSH2 0x1BD8 PUSH1 0x6 PUSH1 0x0 DUP4 PUSH20 0xFFFFFFFFFFFFFFFFFFFFFFFFFFFFFFFFFFFFFFFF AND PUSH20 0xFFFFFFFFFFFFFFFFFFFFFFFFFFFFFFFFFFFFFFFF AND DUP2 MSTORE PUSH1 0x20 ADD SWAP1 DUP2 MSTORE PUSH1 0x20 ADD PUSH1 0x0 KECCAK256 SLOAD PUSH2 0x1BCA PUSH1 0x0 DUP1 DUP6 PUSH20 0xFFFFFFFFFFFFFFFFFFFFFFFFFFFFFFFFFFFFFFFF AND PUSH20 0xFFFFFFFFFFFFFFFFFFFFFFFFFFFFFFFFFFFFFFFF AND DUP2 MSTORE PUSH1 0x20 ADD SWAP1 DUP2 MSTORE PUSH1 0x20 ADD PUSH1 0x0 KECCAK256 SLOAD PUSH1 0x8 PUSH1 0x7 PUSH1 0x0 DUP8 PUSH20 0xFFFFFFFFFFFFFFFFFFFFFFFFFFFFFFFFFFFFFFFF AND PUSH20 0xFFFFFFFFFFFFFFFFFFFFFFFFFFFFFFFFFFFFFFFF AND DUP2 MSTORE PUSH1 0x20 ADD SWAP1 DUP2 MSTORE PUSH1 0x20 ADD PUSH1 0x0 KECCAK256 PUSH1 0x0 SWAP1 SLOAD SWAP1 PUSH2 0x100 EXP SWAP1 DIV PUSH1 0xFF AND PUSH1 0xFF AND PUSH1 0x3 DUP2 LT PUSH2 0x1BBA JUMPI PUSH2 0x1BB9 PUSH2 0x25DB JUMP JUMPDEST JUMPDEST ADD SLOAD PUSH2 0x1A64 SWAP1 SWAP2 SWAP1 PUSH4 0xFFFFFFFF AND JUMP JUMPDEST PUSH2 0x1A4E SWAP1 SWAP2 SWAP1 PUSH4 0xFFFFFFFF AND JUMP JUMPDEST PUSH1 0x0 DUP1 DUP4 PUSH20 0xFFFFFFFFFFFFFFFFFFFFFFFFFFFFFFFFFFFFFFFF AND PUSH20 0xFFFFFFFFFFFFFFFFFFFFFFFFFFFFFFFFFFFFFFFF AND DUP2 MSTORE PUSH1 0x20 ADD SWAP1 DUP2 MSTORE PUSH1 0x20 ADD PUSH1 0x0 KECCAK256 DUP2 SWAP1 SSTORE POP PUSH1 0x8 PUSH1 0x7 PUSH1 0x0 DUP4 PUSH20 0xFFFFFFFFFFFFFFFFFFFFFFFFFFFFFFFFFFFFFFFF AND PUSH20 0xFFFFFFFFFFFFFFFFFFFFFFFFFFFFFFFFFFFFFFFF AND DUP2 MSTORE PUSH1 0x20 ADD SWAP1 DUP2 MSTORE PUSH1 0x20 ADD PUSH1 0x0 KECCAK256 PUSH1 0x0 SWAP1 SLOAD SWAP1 PUSH2 0x100 EXP SWAP1 DIV PUSH1 0xFF AND PUSH1 0xFF AND PUSH1 0x3 DUP2 LT PUSH2 0x1C7D JUMPI PUSH2 0x1C7C PUSH2 0x25DB JUMP JUMPDEST JUMPDEST ADD SLOAD PUSH1 0x6 PUSH1 0x0 DUP4 PUSH20 0xFFFFFFFFFFFFFFFFFFFFFFFFFFFFFFFFFFFFFFFF AND PUSH20 0xFFFFFFFFFFFFFFFFFFFFFFFFFFFFFFFFFFFFFFFF AND DUP2 MSTORE PUSH1 0x20 ADD SWAP1 DUP2 MSTORE PUSH1 0x20 ADD PUSH1 0x0 KECCAK256 DUP2 SWAP1 SSTORE POP JUMPDEST POP JUMP JUMPDEST PUSH1 0x0 PUSH1 0x5 PUSH1 0x0 SWAP1 SLOAD SWAP1 PUSH2 0x100 EXP SWAP1 DIV PUSH20 0xFFFFFFFFFFFFFFFFFFFFFFFFFFFFFFFFFFFFFFFF AND SWAP1 POP DUP2 PUSH1 0x5 PUSH1 0x0 PUSH2 0x100 EXP DUP2 SLOAD DUP2 PUSH20 0xFFFFFFFFFFFFFFFFFFFFFFFFFFFFFFFFFFFFFFFF MUL NOT AND SWAP1 DUP4 PUSH20 0xFFFFFFFFFFFFFFFFFFFFFFFFFFFFFFFFFFFFFFFF AND MUL OR SWAP1 SSTORE POP DUP2 PUSH20 0xFFFFFFFFFFFFFFFFFFFFFFFFFFFFFFFFFFFFFFFF AND DUP2 PUSH20 0xFFFFFFFFFFFFFFFFFFFFFFFFFFFFFFFFFFFFFFFF AND PUSH32 0x8BE0079C531659141344CD1FD0A4F28419497F9722A3DAAFE3B4186F6B6457E0 PUSH1 0x40 MLOAD PUSH1 0x40 MLOAD DUP1 SWAP2 SUB SWAP1 LOG3 POP POP JUMP JUMPDEST PUSH1 0x0 PUSH20 0xFFFFFFFFFFFFFFFFFFFFFFFFFFFFFFFFFFFFFFFF AND DUP4 PUSH20 0xFFFFFFFFFFFFFFFFFFFFFFFFFFFFFFFFFFFFFFFF AND SUB PUSH2 0x1DFB JUMPI PUSH1 0x40 MLOAD PUSH32 0x8C379A000000000000000000000000000000000000000000000000000000000 DUP2 MSTORE PUSH1 0x4 ADD PUSH2 0x1DF2 SWAP1 PUSH2 0x2A7B JUMP JUMPDEST PUSH1 0x40 MLOAD DUP1 SWAP2 SUB SWAP1 REVERT JUMPDEST PUSH1 0x0 PUSH20 0xFFFFFFFFFFFFFFFFFFFFFFFFFFFFFFFFFFFFFFFF AND DUP3 PUSH20 0xFFFFFFFFFFFFFFFFFFFFFFFFFFFFFFFFFFFFFFFF AND SUB PUSH2 0x1E6A JUMPI PUSH1 0x40 MLOAD PUSH32 0x8C379A000000000000000000000000000000000000000000000000000000000 DUP2 MSTORE PUSH1 0x4 ADD PUSH2 0x1E61 SWAP1 PUSH2 0x2B0D JUMP JUMPDEST PUSH1 0x40 MLOAD DUP1 SWAP2 SUB SWAP1 REVERT JUMPDEST PUSH2 0x1E75 DUP4 DUP4 DUP4 PUSH2 0x2009 JUMP JUMPDEST PUSH1 0x0 DUP1 PUSH1 0x0 DUP6 PUSH20 0xFFFFFFFFFFFFFFFFFFFFFFFFFFFFFFFFFFFFFFFF AND PUSH20 0xFFFFFFFFFFFFFFFFFFFFFFFFFFFFFFFFFFFFFFFF AND DUP2 MSTORE PUSH1 0x20 ADD SWAP1 DUP2 MSTORE PUSH1 0x20 ADD PUSH1 0x0 KECCAK256 SLOAD SWAP1 POP DUP2 DUP2 LT ISZERO PUSH2 0x1EFB JUMPI PUSH1 0x40 MLOAD PUSH32 0x8C379A000000000000000000000000000000000000000000000000000000000 DUP2 MSTORE PUSH1 0x4 ADD PUSH2 0x1EF2 SWAP1 PUSH2 0x2B9F JUMP JUMPDEST PUSH1 0x40 MLOAD DUP1 SWAP2 SUB SWAP1 REVERT JUMPDEST DUP2 DUP2 PUSH2 0x1F07 SWAP2 SWAP1 PUSH2 0x2733 JUMP JUMPDEST PUSH1 0x0 DUP1 DUP7 PUSH20 0xFFFFFFFFFFFFFFFFFFFFFFFFFFFFFFFFFFFFFFFF AND PUSH20 0xFFFFFFFFFFFFFFFFFFFFFFFFFFFFFFFFFFFFFFFF AND DUP2 MSTORE PUSH1 0x20 ADD SWAP1 DUP2 MSTORE PUSH1 0x20 ADD PUSH1 0x0 KECCAK256 DUP2 SWAP1 SSTORE POP DUP2 PUSH1 0x0 DUP1 DUP6 PUSH20 0xFFFFFFFFFFFFFFFFFFFFFFFFFFFFFFFFFFFFFFFF AND PUSH20 0xFFFFFFFFFFFFFFFFFFFFFFFFFFFFFFFFFFFFFFFF AND DUP2 MSTORE PUSH1 0x20 ADD SWAP1 DUP2 MSTORE PUSH1 0x20 ADD PUSH1 0x0 KECCAK256 PUSH1 0x0 DUP3 DUP3 SLOAD PUSH2 0x1F97 SWAP2 SWAP1 PUSH2 0x2585 JUMP JUMPDEST SWAP3 POP POP DUP2 SWAP1 SSTORE POP DUP3 PUSH20 0xFFFFFFFFFFFFFFFFFFFFFFFFFFFFFFFFFFFFFFFF AND DUP5 PUSH20 0xFFFFFFFFFFFFFFFFFFFFFFFFFFFFFFFFFFFFFFFF AND PUSH32 0xDDF252AD1BE2C89B69C2B068FC378DAA952BA7F163C4A11628F55A4DF523B3EF DUP5 PUSH1 0x40 MLOAD PUSH2 0x1FFB SWAP2 SWAP1 PUSH2 0x21E7 JUMP JUMPDEST PUSH1 0x40 MLOAD DUP1 SWAP2 SUB SWAP1 LOG3 POP POP POP POP JUMP JUMPDEST POP POP POP JUMP JUMPDEST PUSH1 0x0 DUP2 MLOAD SWAP1 POP SWAP2 SWAP1 POP JUMP JUMPDEST PUSH1 0x0 DUP3 DUP3 MSTORE PUSH1 0x20 DUP3 ADD SWAP1 POP SWAP3 SWAP2 POP POP JUMP JUMPDEST PUSH1 0x0 JUMPDEST DUP4 DUP2 LT ISZERO PUSH2 0x2048 JUMPI DUP1 DUP3 ADD MLOAD DUP2 DUP5 ADD MSTORE PUSH1 0x20 DUP2 ADD SWAP1 POP PUSH2 0x202D JUMP JUMPDEST DUP4 DUP2 GT ISZERO PUSH2 0x2057 JUMPI PUSH1 0x0 DUP5 DUP5 ADD MSTORE JUMPDEST POP POP POP POP JUMP JUMPDEST PUSH1 0x0 PUSH1 0x1F NOT PUSH1 0x1F DUP4 ADD AND SWAP1 POP SWAP2 SWAP1 POP JUMP JUMPDEST PUSH1 0x0 PUSH2 0x2079 DUP3 PUSH2 0x200E JUMP JUMPDEST PUSH2 0x2083 DUP2 DUP6 PUSH2 0x2019 JUMP JUMPDEST SWAP4 POP PUSH2 0x2093 DUP2 DUP6 PUSH1 0x20 DUP7 ADD PUSH2 0x202A JUMP JUMPDEST PUSH2 0x209C DUP2 PUSH2 0x205D JUMP JUMPDEST DUP5 ADD SWAP2 POP POP SWAP3 SWAP2 POP POP JUMP JUMPDEST PUSH1 0x0 PUSH1 0x20 DUP3 ADD SWAP1 POP DUP2 DUP2 SUB PUSH1 0x0 DUP4 ADD MSTORE PUSH2 0x20C1 DUP2 DUP5 PUSH2 0x206E JUMP JUMPDEST SWAP1 POP SWAP3 SWAP2 POP POP JUMP JUMPDEST PUSH1 0x0 DUP1 REVERT JUMPDEST PUSH1 0x0 PUSH20 0xFFFFFFFFFFFFFFFFFFFFFFFFFFFFFFFFFFFFFFFF DUP3 AND SWAP1 POP SWAP2 SWAP1 POP JUMP JUMPDEST PUSH1 0x0 PUSH2 0x20F9 DUP3 PUSH2 0x20CE JUMP JUMPDEST SWAP1 POP SWAP2 SWAP1 POP JUMP JUMPDEST PUSH2 0x2109 DUP2 PUSH2 0x20EE JUMP JUMPDEST DUP2 EQ PUSH2 0x2114 JUMPI PUSH1 0x0 DUP1 REVERT JUMPDEST POP JUMP JUMPDEST PUSH1 0x0 DUP2 CALLDATALOAD SWAP1 POP PUSH2 0x2126 DUP2 PUSH2 0x2100 JUMP JUMPDEST SWAP3 SWAP2 POP POP JUMP JUMPDEST PUSH1 0x0 DUP2 SWAP1 POP SWAP2 SWAP1 POP JUMP JUMPDEST PUSH2 0x213F DUP2 PUSH2 0x212C JUMP JUMPDEST DUP2 EQ PUSH2 0x214A JUMPI PUSH1 0x0 DUP1 REVERT JUMPDEST POP JUMP JUMPDEST PUSH1 0x0 DUP2 CALLDATALOAD SWAP1 POP PUSH2 0x215C DUP2 PUSH2 0x2136 JUMP JUMPDEST SWAP3 SWAP2 POP POP JUMP JUMPDEST PUSH1 0x0 DUP1 PUSH1 0x40 DUP4 DUP6 SUB SLT ISZERO PUSH2 0x2179 JUMPI PUSH2 0x2178 PUSH2 0x20C9 JUMP JUMPDEST JUMPDEST PUSH1 0x0 PUSH2 0x2187 DUP6 DUP3 DUP7 ADD PUSH2 0x2117 JUMP JUMPDEST SWAP3 POP POP PUSH1 0x20 PUSH2 0x2198 DUP6 DUP3 DUP7 ADD PUSH2 0x214D JUMP JUMPDEST SWAP2 POP POP SWAP3 POP SWAP3 SWAP1 POP JUMP JUMPDEST PUSH1 0x0 DUP2 ISZERO ISZERO SWAP1 POP SWAP2 SWAP1 POP JUMP JUMPDEST PUSH2 0x21B7 DUP2 PUSH2 0x21A2 JUMP JUMPDEST DUP3 MSTORE POP POP JUMP JUMPDEST PUSH1 0x0 PUSH1 0x20 DUP3 ADD SWAP1 POP PUSH2 0x21D2 PUSH1 0x0 DUP4 ADD DUP5 PUSH2 0x21AE JUMP JUMPDEST SWAP3 SWAP2 POP POP JUMP JUMPDEST PUSH2 0x21E1 DUP2 PUSH2 0x212C JUMP JUMPDEST DUP3 MSTORE POP POP JUMP JUMPDEST PUSH1 0x0 PUSH1 0x20 DUP3 ADD SWAP1 POP PUSH2 0x21FC PUSH1 0x0 DUP4 ADD DUP5 PUSH2 0x21D8 JUMP JUMPDEST SWAP3 SWAP2 POP POP JUMP JUMPDEST PUSH1 0x0 DUP1 PUSH1 0x0 PUSH1 0x60 DUP5 DUP7 SUB SLT ISZERO PUSH2 0x221B JUMPI PUSH2 0x221A PUSH2 0x20C9 JUMP JUMPDEST JUMPDEST PUSH1 0x0 PUSH2 0x2229 DUP7 DUP3 DUP8 ADD PUSH2 0x2117 JUMP JUMPDEST SWAP4 POP POP PUSH1 0x20 PUSH2 0x223A DUP7 DUP3 DUP8 ADD PUSH2 0x2117 JUMP JUMPDEST SWAP3 POP POP PUSH1 0x40 PUSH2 0x224B DUP7 DUP3 DUP8 ADD PUSH2 0x214D JUMP JUMPDEST SWAP2 POP POP SWAP3 POP SWAP3 POP SWAP3 JUMP JUMPDEST PUSH1 0x0 PUSH1 0xFF DUP3 AND SWAP1 POP SWAP2 SWAP1 POP JUMP JUMPDEST PUSH2 0x226B DUP2 PUSH2 0x2255 JUMP JUMPDEST DUP3 MSTORE POP POP JUMP JUMPDEST PUSH1 0x0 PUSH1 0x20 DUP3 ADD SWAP1 POP PUSH2 0x2286 PUSH1 0x0 DUP4 ADD DUP5 PUSH2 0x2262 JUMP JUMPDEST SWAP3 SWAP2 POP POP JUMP JUMPDEST PUSH1 0x0 PUSH1 0x20 DUP3 DUP5 SUB SLT ISZERO PUSH2 0x22A2 JUMPI PUSH2 0x22A1 PUSH2 0x20C9 JUMP JUMPDEST JUMPDEST PUSH1 0x0 PUSH2 0x22B0 DUP5 DUP3 DUP6 ADD PUSH2 0x2117 JUMP JUMPDEST SWAP2 POP POP SWAP3 SWAP2 POP POP JUMP JUMPDEST PUSH2 0x22C2 DUP2 PUSH2 0x20EE JUMP JUMPDEST DUP3 MSTORE POP POP JUMP JUMPDEST PUSH1 0x0 PUSH1 0x20 DUP3 ADD SWAP1 POP PUSH2 0x22DD PUSH1 0x0 DUP4 ADD DUP5 PUSH2 0x22B9 JUMP JUMPDEST SWAP3 SWAP2 POP POP JUMP JUMPDEST PUSH1 0x0 PUSH1 0x20 DUP3 DUP5 SUB SLT ISZERO PUSH2 0x22F9 JUMPI PUSH2 0x22F8 PUSH2 0x20C9 JUMP JUMPDEST JUMPDEST PUSH1 0x0 PUSH2 0x2307 DUP5 DUP3 DUP6 ADD PUSH2 0x214D JUMP JUMPDEST SWAP2 POP POP SWAP3 SWAP2 POP POP JUMP JUMPDEST PUSH2 0x2319 DUP2 PUSH2 0x2255 JUMP JUMPDEST DUP2 EQ PUSH2 0x2324 JUMPI PUSH1 0x0 DUP1 REVERT JUMPDEST POP JUMP JUMPDEST PUSH1 0x0 DUP2 CALLDATALOAD SWAP1 POP PUSH2 0x2336 DUP2 PUSH2 0x2310 JUMP JUMPDEST SWAP3 SWAP2 POP POP JUMP JUMPDEST PUSH1 0x0 DUP1 PUSH1 0x40 DUP4 DUP6 SUB SLT ISZERO PUSH2 0x2353 JUMPI PUSH2 0x2352 PUSH2 0x20C9 JUMP JUMPDEST JUMPDEST PUSH1 0x0 PUSH2 0x2361 DUP6 DUP3 DUP7 ADD PUSH2 0x2117 JUMP JUMPDEST SWAP3 POP POP PUSH1 0x20 PUSH2 0x2372 DUP6 DUP3 DUP7 ADD PUSH2 0x2327 JUMP JUMPDEST SWAP2 POP POP SWAP3 POP SWAP3 SWAP1 POP JUMP JUMPDEST PUSH1 0x0 DUP1 PUSH1 0x40 DUP4 DUP6 SUB SLT ISZERO PUSH2 0x2393 JUMPI PUSH2 0x2392 PUSH2 0x20C9 JUMP JUMPDEST JUMPDEST PUSH1 0x0 PUSH2 0x23A1 DUP6 DUP3 DUP7 ADD PUSH2 0x2117 JUMP JUMPDEST SWAP3 POP POP PUSH1 0x20 PUSH2 0x23B2 DUP6 DUP3 DUP7 ADD PUSH2 0x2117 JUMP JUMPDEST SWAP2 POP POP SWAP3 POP SWAP3 SWAP1 POP JUMP JUMPDEST PUSH1 0x0 PUSH2 0x23C7 DUP3 PUSH2 0x20CE JUMP JUMPDEST SWAP1 POP SWAP2 SWAP1 POP JUMP JUMPDEST PUSH2 0x23D7 DUP2 PUSH2 0x23BC JUMP JUMPDEST DUP3 MSTORE POP POP JUMP JUMPDEST PUSH1 0x0 PUSH1 0x20 DUP3 ADD SWAP1 POP PUSH2 0x23F2 PUSH1 0x0 DUP4 ADD DUP5 PUSH2 0x23CE JUMP JUMPDEST SWAP3 SWAP2 POP POP JUMP JUMPDEST PUSH32 0x4E487B7100000000000000000000000000000000000000000000000000000000 PUSH1 0x0 MSTORE PUSH1 0x22 PUSH1 0x4 MSTORE PUSH1 0x24 PUSH1 0x0 REVERT JUMPDEST PUSH1 0x0 PUSH1 0x2 DUP3 DIV SWAP1 POP PUSH1 0x1 DUP3 AND DUP1 PUSH2 0x243F JUMPI PUSH1 0x7F DUP3 AND SWAP2 POP JUMPDEST PUSH1 0x20 DUP3 LT DUP2 SUB PUSH2 0x2452 JUMPI PUSH2 0x2451 PUSH2 0x23F8 JUMP JUMPDEST JUMPDEST POP SWAP2 SWAP1 POP JUMP JUMPDEST PUSH32 0x4F776E61626C653A2063616C6C6572206973206E6F7420746865206F776E6572 PUSH1 0x0 DUP3 ADD MSTORE POP JUMP JUMPDEST PUSH1 0x0 PUSH2 0x248E PUSH1 0x20 DUP4 PUSH2 0x2019 JUMP JUMPDEST SWAP2 POP PUSH2 0x2499 DUP3 PUSH2 0x2458 JUMP JUMPDEST PUSH1 0x20 DUP3 ADD SWAP1 POP SWAP2 SWAP1 POP JUMP JUMPDEST PUSH1 0x0 PUSH1 0x20 DUP3 ADD SWAP1 POP DUP2 DUP2 SUB PUSH1 0x0 DUP4 ADD MSTORE PUSH2 0x24BD DUP2 PUSH2 0x2481 JUMP JUMPDEST SWAP1 POP SWAP2 SWAP1 POP JUMP JUMPDEST PUSH32 0x6163636F756E74206973206E6F74206120726567756C6172207368617265686F PUSH1 0x0 DUP3 ADD MSTORE PUSH32 0x6C64657200000000000000000000000000000000000000000000000000000000 PUSH1 0x20 DUP3 ADD MSTORE POP JUMP JUMPDEST PUSH1 0x0 PUSH2 0x2520 PUSH1 0x24 DUP4 PUSH2 0x2019 JUMP JUMPDEST SWAP2 POP PUSH2 0x252B DUP3 PUSH2 0x24C4 JUMP JUMPDEST PUSH1 0x40 DUP3 ADD SWAP1 POP SWAP2 SWAP1 POP JUMP JUMPDEST PUSH1 0x0 PUSH1 0x20 DUP3 ADD SWAP1 POP DUP2 DUP2 SUB PUSH1 0x0 DUP4 ADD MSTORE PUSH2 0x254F DUP2 PUSH2 0x2513 JUMP JUMPDEST SWAP1 POP SWAP2 SWAP1 POP JUMP JUMPDEST PUSH32 0x4E487B7100000000000000000000000000000000000000000000000000000000 PUSH1 0x0 MSTORE PUSH1 0x11 PUSH1 0x4 MSTORE PUSH1 0x24 PUSH1 0x0 REVERT JUMPDEST PUSH1 0x0 PUSH2 0x2590 DUP3 PUSH2 0x212C JUMP JUMPDEST SWAP2 POP PUSH2 0x259B DUP4 PUSH2 0x212C JUMP JUMPDEST SWAP3 POP DUP3 PUSH32 0xFFFFFFFFFFFFFFFFFFFFFFFFFFFFFFFFFFFFFFFFFFFFFFFFFFFFFFFFFFFFFFFF SUB DUP3 GT ISZERO PUSH2 0x25D0 JUMPI PUSH2 0x25CF PUSH2 0x2556 JUMP JUMPDEST JUMPDEST DUP3 DUP3 ADD SWAP1 POP SWAP3 SWAP2 POP POP JUMP JUMPDEST PUSH32 0x4E487B7100000000000000000000000000000000000000000000000000000000 PUSH1 0x0 MSTORE PUSH1 0x32 PUSH1 0x4 MSTORE PUSH1 0x24 PUSH1 0x0 REVERT JUMPDEST PUSH32 0x4E487B7100000000000000000000000000000000000000000000000000000000 PUSH1 0x0 MSTORE PUSH1 0x12 PUSH1 0x4 MSTORE PUSH1 0x24 PUSH1 0x0 REVERT JUMPDEST PUSH1 0x0 PUSH2 0x2644 DUP3 PUSH2 0x212C JUMP JUMPDEST SWAP2 POP PUSH2 0x264F DUP4 PUSH2 0x212C JUMP JUMPDEST SWAP3 POP DUP3 PUSH2 0x265F JUMPI PUSH2 0x265E PUSH2 0x260A JUMP JUMPDEST JUMPDEST DUP3 DUP3 DIV SWAP1 POP SWAP3 SWAP2 POP POP JUMP JUMPDEST PUSH1 0x0 PUSH2 0x2675 DUP3 PUSH2 0x2255 JUMP JUMPDEST SWAP2 POP PUSH1 0xFF DUP3 SUB PUSH2 0x2688 JUMPI PUSH2 0x2687 PUSH2 0x2556 JUMP JUMPDEST JUMPDEST PUSH1 0x1 DUP3 ADD SWAP1 POP SWAP2 SWAP1 POP JUMP JUMPDEST PUSH32 0x6163636F756E74206973206120726567756C6172207368617265686F6C646572 PUSH1 0x0 DUP3 ADD MSTORE POP JUMP JUMPDEST PUSH1 0x0 PUSH2 0x26C9 PUSH1 0x20 DUP4 PUSH2 0x2019 JUMP JUMPDEST SWAP2 POP PUSH2 0x26D4 DUP3 PUSH2 0x2693 JUMP JUMPDEST PUSH1 0x20 DUP3 ADD SWAP1 POP SWAP2 SWAP1 POP JUMP JUMPDEST PUSH1 0x0 PUSH1 0x20 DUP3 ADD SWAP1 POP DUP2 DUP2 SUB PUSH1 0x0 DUP4 ADD MSTORE PUSH2 0x26F8 DUP2 PUSH2 0x26BC JUMP JUMPDEST SWAP1 POP SWAP2 SWAP1 POP JUMP JUMPDEST PUSH1 0x0 PUSH2 0x270A DUP3 PUSH2 0x2255 JUMP JUMPDEST SWAP2 POP PUSH2 0x2715 DUP4 PUSH2 0x2255 JUMP JUMPDEST SWAP3 POP DUP3 DUP3 LT ISZERO PUSH2 0x2728 JUMPI PUSH2 0x2727 PUSH2 0x2556 JUMP JUMPDEST JUMPDEST DUP3 DUP3 SUB SWAP1 POP SWAP3 SWAP2 POP POP JUMP JUMPDEST PUSH1 0x0 PUSH2 0x273E DUP3 PUSH2 0x212C JUMP JUMPDEST SWAP2 POP PUSH2 0x2749 DUP4 PUSH2 0x212C JUMP JUMPDEST SWAP3 POP DUP3 DUP3 LT ISZERO PUSH2 0x275C JUMPI PUSH2 0x275B PUSH2 0x2556 JUMP JUMPDEST JUMPDEST DUP3 DUP3 SUB SWAP1 POP SWAP3 SWAP2 POP POP JUMP JUMPDEST PUSH32 0x45524332303A2064656372656173656420616C6C6F77616E63652062656C6F77 PUSH1 0x0 DUP3 ADD MSTORE PUSH32 0x207A65726F000000000000000000000000000000000000000000000000000000 PUSH1 0x20 DUP3 ADD MSTORE POP JUMP JUMPDEST PUSH1 0x0 PUSH2 0x27C3 PUSH1 0x25 DUP4 PUSH2 0x2019 JUMP JUMPDEST SWAP2 POP PUSH2 0x27CE DUP3 PUSH2 0x2767 JUMP JUMPDEST PUSH1 0x40 DUP3 ADD SWAP1 POP SWAP2 SWAP1 POP JUMP JUMPDEST PUSH1 0x0 PUSH1 0x20 DUP3 ADD SWAP1 POP DUP2 DUP2 SUB PUSH1 0x0 DUP4 ADD MSTORE PUSH2 0x27F2 DUP2 PUSH2 0x27B6 JUMP JUMPDEST SWAP1 POP SWAP2 SWAP1 POP JUMP JUMPDEST PUSH32 0x4F776E61626C653A206E6577206F776E657220697320746865207A65726F2061 PUSH1 0x0 DUP3 ADD MSTORE PUSH32 0x6464726573730000000000000000000000000000000000000000000000000000 PUSH1 0x20 DUP3 ADD MSTORE POP JUMP JUMPDEST PUSH1 0x0 PUSH2 0x2855 PUSH1 0x26 DUP4 PUSH2 0x2019 JUMP JUMPDEST SWAP2 POP PUSH2 0x2860 DUP3 PUSH2 0x27F9 JUMP JUMPDEST PUSH1 0x40 DUP3 ADD SWAP1 POP SWAP2 SWAP1 POP JUMP JUMPDEST PUSH1 0x0 PUSH1 0x20 DUP3 ADD SWAP1 POP DUP2 DUP2 SUB PUSH1 0x0 DUP4 ADD MSTORE PUSH2 0x2884 DUP2 PUSH2 0x2848 JUMP JUMPDEST SWAP1 POP SWAP2 SWAP1 POP JUMP JUMPDEST PUSH32 0x45524332303A20617070726F76652066726F6D20746865207A65726F20616464 PUSH1 0x0 DUP3 ADD MSTORE PUSH32 0x7265737300000000000000000000000000000000000000000000000000000000 PUSH1 0x20 DUP3 ADD MSTORE POP JUMP JUMPDEST PUSH1 0x0 PUSH2 0x28E7 PUSH1 0x24 DUP4 PUSH2 0x2019 JUMP JUMPDEST SWAP2 POP PUSH2 0x28F2 DUP3 PUSH2 0x288B JUMP JUMPDEST PUSH1 0x40 DUP3 ADD SWAP1 POP SWAP2 SWAP1 POP JUMP JUMPDEST PUSH1 0x0 PUSH1 0x20 DUP3 ADD SWAP1 POP DUP2 DUP2 SUB PUSH1 0x0 DUP4 ADD MSTORE PUSH2 0x2916 DUP2 PUSH2 0x28DA JUMP JUMPDEST SWAP1 POP SWAP2 SWAP1 POP JUMP JUMPDEST PUSH32 0x45524332303A20617070726F766520746F20746865207A65726F206164647265 PUSH1 0x0 DUP3 ADD MSTORE PUSH32 0x7373000000000000000000000000000000000000000000000000000000000000 PUSH1 0x20 DUP3 ADD MSTORE POP JUMP JUMPDEST PUSH1 0x0 PUSH2 0x2979 PUSH1 0x22 DUP4 PUSH2 0x2019 JUMP JUMPDEST SWAP2 POP PUSH2 0x2984 DUP3 PUSH2 0x291D JUMP JUMPDEST PUSH1 0x40 DUP3 ADD SWAP1 POP SWAP2 SWAP1 POP JUMP JUMPDEST PUSH1 0x0 PUSH1 0x20 DUP3 ADD SWAP1 POP DUP2 DUP2 SUB PUSH1 0x0 DUP4 ADD MSTORE PUSH2 0x29A8 DUP2 PUSH2 0x296C JUMP JUMPDEST SWAP1 POP SWAP2 SWAP1 POP JUMP JUMPDEST PUSH1 0x0 PUSH2 0x29BA DUP3 PUSH2 0x212C JUMP JUMPDEST SWAP2 POP PUSH2 0x29C5 DUP4 PUSH2 0x212C JUMP JUMPDEST SWAP3 POP DUP2 PUSH32 0xFFFFFFFFFFFFFFFFFFFFFFFFFFFFFFFFFFFFFFFFFFFFFFFFFFFFFFFFFFFFFFFF DIV DUP4 GT DUP3 ISZERO ISZERO AND ISZERO PUSH2 0x29FE JUMPI PUSH2 0x29FD PUSH2 0x2556 JUMP JUMPDEST JUMPDEST DUP3 DUP3 MUL SWAP1 POP SWAP3 SWAP2 POP POP JUMP JUMPDEST PUSH32 0x45524332303A207472616E736665722066726F6D20746865207A65726F206164 PUSH1 0x0 DUP3 ADD MSTORE PUSH32 0x6472657373000000000000000000000000000000000000000000000000000000 PUSH1 0x20 DUP3 ADD MSTORE POP JUMP JUMPDEST PUSH1 0x0 PUSH2 0x2A65 PUSH1 0x25 DUP4 PUSH2 0x2019 JUMP JUMPDEST SWAP2 POP PUSH2 0x2A70 DUP3 PUSH2 0x2A09 JUMP JUMPDEST PUSH1 0x40 DUP3 ADD SWAP1 POP SWAP2 SWAP1 POP JUMP JUMPDEST PUSH1 0x0 PUSH1 0x20 DUP3 ADD SWAP1 POP DUP2 DUP2 SUB PUSH1 0x0 DUP4 ADD MSTORE PUSH2 0x2A94 DUP2 PUSH2 0x2A58 JUMP JUMPDEST SWAP1 POP SWAP2 SWAP1 POP JUMP JUMPDEST PUSH32 0x45524332303A207472616E7366657220746F20746865207A65726F2061646472 PUSH1 0x0 DUP3 ADD MSTORE PUSH32 0x6573730000000000000000000000000000000000000000000000000000000000 PUSH1 0x20 DUP3 ADD MSTORE POP JUMP JUMPDEST PUSH1 0x0 PUSH2 0x2AF7 PUSH1 0x23 DUP4 PUSH2 0x2019 JUMP JUMPDEST SWAP2 POP PUSH2 0x2B02 DUP3 PUSH2 0x2A9B JUMP JUMPDEST PUSH1 0x40 DUP3 ADD SWAP1 POP SWAP2 SWAP1 POP JUMP JUMPDEST PUSH1 0x0 PUSH1 0x20 DUP3 ADD SWAP1 POP DUP2 DUP2 SUB PUSH1 0x0 DUP4 ADD MSTORE PUSH2 0x2B26 DUP2 PUSH2 0x2AEA JUMP JUMPDEST SWAP1 POP SWAP2 SWAP1 POP JUMP JUMPDEST PUSH32 0x45524332303A207472616E7366657220616D6F756E7420657863656564732062 PUSH1 0x0 DUP3 ADD MSTORE PUSH32 0x616C616E63650000000000000000000000000000000000000000000000000000 PUSH1 0x20 DUP3 ADD MSTORE POP JUMP JUMPDEST PUSH1 0x0 PUSH2 0x2B89 PUSH1 0x26 DUP4 PUSH2 0x2019 JUMP JUMPDEST SWAP2 POP PUSH2 0x2B94 DUP3 PUSH2 0x2B2D JUMP JUMPDEST PUSH1 0x40 DUP3 ADD SWAP1 POP SWAP2 SWAP1 POP JUMP JUMPDEST PUSH1 0x0 PUSH1 0x20 DUP3 ADD SWAP1 POP DUP2 DUP2 SUB PUSH1 0x0 DUP4 ADD MSTORE PUSH2 0x2BB8 DUP2 PUSH2 0x2B7C JUMP JUMPDEST SWAP1 POP SWAP2 SWAP1 POP JUMP INVALID LOG2 PUSH5 0x6970667358 0x22 SLT KECCAK256 MSTORE 0xCE MUL 0x4F KECCAK256 0xC LOG0 MSIZE 0xD PUSH15 0xBBF4521EF881FD0F1DF1E038709B82 PUSH10 0x328452A0C79E64736F6C PUSH4 0x4300080D STOP CALLER "
				},
				"gasEstimates": {
					"creation": {
						"codeDepositCost": "2250600",
						"executionCost": "infinite",
						"totalCost": "infinite"
					},
					"external": {
						"allowance(address,address)": "infinite",
						"approve(address,uint256)": "infinite",
						"balanceOf(address)": "infinite",
						"changeLvl(address,uint8)": "infinite",
						"decimals()": "388",
						"decreaseAllowance(address,uint256)": "infinite",
						"fund_wallet()": "2624",
						"increaseAllowance(address,uint256)": "infinite",
						"lvl(address)": "2868",
						"mint(uint256)": "infinite",
						"mintToNRS(address,uint256)": "infinite",
						"mintToRS(address,uint256)": "infinite",
						"name()": "infinite",
						"owner()": "2567",
						"renounceOwnership()": "30485",
						"symbol()": "infinite",
						"totalSupply()": "2549",
						"transfer(address,uint256)": "infinite",
						"transferFrom(address,address,uint256)": "infinite",
						"transferOwnership(address)": "30808"
					},
					"internal": {
						"relaxBalance(address)": "infinite"
					}
				},
				"methodIdentifiers": {
					"allowance(address,address)": "dd62ed3e",
					"approve(address,uint256)": "095ea7b3",
					"balanceOf(address)": "70a08231",
					"changeLvl(address,uint8)": "a33e7d7e",
					"decimals()": "313ce567",
					"decreaseAllowance(address,uint256)": "a457c2d7",
					"fund_wallet()": "f8e233b1",
					"increaseAllowance(address,uint256)": "39509351",
					"lvl(address)": "7a0d944c",
					"mint(uint256)": "a0712d68",
					"mintToNRS(address,uint256)": "1506f480",
					"mintToRS(address,uint256)": "13b954a3",
					"name()": "06fdde03",
					"owner()": "8da5cb5b",
					"renounceOwnership()": "715018a6",
					"symbol()": "95d89b41",
					"totalSupply()": "18160ddd",
					"transfer(address,uint256)": "a9059cbb",
					"transferFrom(address,address,uint256)": "23b872dd",
					"transferOwnership(address)": "f2fde38b"
				}
			},
			"userdoc": {
				"kind": "user",
				"methods": {},
				"version": 1
			}
		}
	}
}