{
	"contracts/Distribution/AtlantisDistribution.sol": {
		"AtlantisDistribution": {
			"abi": [
				{
					"inputs": [
						{
							"internalType": "string",
							"name": "name",
							"type": "string"
						},
						{
							"internalType": "string",
							"name": "symbol",
							"type": "string"
						},
						{
							"internalType": "address payable",
							"name": "_fund_wallet",
							"type": "address"
						}
					],
					"stateMutability": "nonpayable",
					"type": "constructor"
				},
				{
					"anonymous": false,
					"inputs": [
						{
							"indexed": true,
							"internalType": "address",
							"name": "owner",
							"type": "address"
						},
						{
							"indexed": true,
							"internalType": "address",
							"name": "spender",
							"type": "address"
						},
						{
							"indexed": false,
							"internalType": "uint256",
							"name": "value",
							"type": "uint256"
						}
					],
					"name": "Approval",
					"type": "event"
				},
				{
					"anonymous": false,
					"inputs": [
						{
							"indexed": true,
							"internalType": "address",
							"name": "previousOwner",
							"type": "address"
						},
						{
							"indexed": true,
							"internalType": "address",
							"name": "newOwner",
							"type": "address"
						}
					],
					"name": "OwnershipTransferred",
					"type": "event"
				},
				{
					"anonymous": false,
					"inputs": [
						{
							"indexed": true,
							"internalType": "address",
							"name": "from",
							"type": "address"
						},
						{
							"indexed": true,
							"internalType": "address",
							"name": "to",
							"type": "address"
						},
						{
							"indexed": false,
							"internalType": "uint256",
							"name": "value",
							"type": "uint256"
						}
					],
					"name": "Transfer",
					"type": "event"
				},
				{
					"inputs": [
						{
							"internalType": "address",
							"name": "owner",
							"type": "address"
						},
						{
							"internalType": "address",
							"name": "spender",
							"type": "address"
						}
					],
					"name": "allowance",
					"outputs": [
						{
							"internalType": "uint256",
							"name": "",
							"type": "uint256"
						}
					],
					"stateMutability": "view",
					"type": "function"
				},
				{
					"inputs": [
						{
							"internalType": "address",
							"name": "spender",
							"type": "address"
						},
						{
							"internalType": "uint256",
							"name": "amount",
							"type": "uint256"
						}
					],
					"name": "approve",
					"outputs": [
						{
							"internalType": "bool",
							"name": "",
							"type": "bool"
						}
					],
					"stateMutability": "nonpayable",
					"type": "function"
				},
				{
					"inputs": [
						{
							"internalType": "address",
							"name": "account",
							"type": "address"
						}
					],
					"name": "balanceOf",
					"outputs": [
						{
							"internalType": "uint256",
							"name": "",
							"type": "uint256"
						}
					],
					"stateMutability": "view",
					"type": "function"
				},
				{
					"inputs": [
						{
							"internalType": "address",
							"name": "account",
							"type": "address"
						},
						{
							"internalType": "uint8",
							"name": "newLvl",
							"type": "uint8"
						}
					],
					"name": "changeLvl",
					"outputs": [],
					"stateMutability": "nonpayable",
					"type": "function"
				},
				{
					"inputs": [],
					"name": "decimals",
					"outputs": [
						{
							"internalType": "uint8",
							"name": "",
							"type": "uint8"
						}
					],
					"stateMutability": "view",
					"type": "function"
				},
				{
					"inputs": [
						{
							"internalType": "address",
							"name": "spender",
							"type": "address"
						},
						{
							"internalType": "uint256",
							"name": "subtractedValue",
							"type": "uint256"
						}
					],
					"name": "decreaseAllowance",
					"outputs": [
						{
							"internalType": "bool",
							"name": "",
							"type": "bool"
						}
					],
					"stateMutability": "nonpayable",
					"type": "function"
				},
				{
					"inputs": [
						{
							"internalType": "address",
							"name": "spender",
							"type": "address"
						},
						{
							"internalType": "uint256",
							"name": "addedValue",
							"type": "uint256"
						}
					],
					"name": "increaseAllowance",
					"outputs": [
						{
							"internalType": "bool",
							"name": "",
							"type": "bool"
						}
					],
					"stateMutability": "nonpayable",
					"type": "function"
				},
				{
					"inputs": [
						{
							"internalType": "address",
							"name": "",
							"type": "address"
						}
					],
					"name": "lvl",
					"outputs": [
						{
							"internalType": "uint8",
							"name": "",
							"type": "uint8"
						}
					],
					"stateMutability": "view",
					"type": "function"
				},
				{
					"inputs": [
						{
							"internalType": "uint256",
							"name": "amount",
							"type": "uint256"
						}
					],
					"name": "mint",
					"outputs": [],
					"stateMutability": "nonpayable",
					"type": "function"
				},
				{
					"inputs": [
						{
							"internalType": "address",
							"name": "account",
							"type": "address"
						},
						{
							"internalType": "uint256",
							"name": "amount",
							"type": "uint256"
						}
					],
					"name": "mintToNRS",
					"outputs": [],
					"stateMutability": "nonpayable",
					"type": "function"
				},
				{
					"inputs": [
						{
							"internalType": "address",
							"name": "account",
							"type": "address"
						},
						{
							"internalType": "uint256",
							"name": "amount",
							"type": "uint256"
						}
					],
					"name": "mintToRS",
					"outputs": [],
					"stateMutability": "nonpayable",
					"type": "function"
				},
				{
					"inputs": [],
					"name": "name",
					"outputs": [
						{
							"internalType": "string",
							"name": "",
							"type": "string"
						}
					],
					"stateMutability": "view",
					"type": "function"
				},
				{
					"inputs": [],
					"name": "owner",
					"outputs": [
						{
							"internalType": "address",
							"name": "",
							"type": "address"
						}
					],
					"stateMutability": "view",
					"type": "function"
				},
				{
					"inputs": [],
					"name": "renounceOwnership",
					"outputs": [],
					"stateMutability": "nonpayable",
					"type": "function"
				},
				{
					"inputs": [],
					"name": "symbol",
					"outputs": [
						{
							"internalType": "string",
							"name": "",
							"type": "string"
						}
					],
					"stateMutability": "view",
					"type": "function"
				},
				{
					"inputs": [],
					"name": "totalSupply",
					"outputs": [
						{
							"internalType": "uint256",
							"name": "",
							"type": "uint256"
						}
					],
					"stateMutability": "view",
					"type": "function"
				},
				{
					"inputs": [
						{
							"internalType": "address",
							"name": "recipient",
							"type": "address"
						},
						{
							"internalType": "uint256",
							"name": "amount",
							"type": "uint256"
						}
					],
					"name": "transfer",
					"outputs": [
						{
							"internalType": "bool",
							"name": "",
							"type": "bool"
						}
					],
					"stateMutability": "nonpayable",
					"type": "function"
				},
				{
					"inputs": [
						{
							"internalType": "address",
							"name": "sender",
							"type": "address"
						},
						{
							"internalType": "address",
							"name": "recipient",
							"type": "address"
						},
						{
							"internalType": "uint256",
							"name": "amount",
							"type": "uint256"
						}
					],
					"name": "transferFrom",
					"outputs": [
						{
							"internalType": "bool",
							"name": "",
							"type": "bool"
						}
					],
					"stateMutability": "nonpayable",
					"type": "function"
				},
				{
					"inputs": [
						{
							"internalType": "address",
							"name": "newOwner",
							"type": "address"
						}
					],
					"name": "transferOwnership",
					"outputs": [],
					"stateMutability": "nonpayable",
					"type": "function"
				}
			],
			"devdoc": {
				"kind": "dev",
				"methods": {
					"allowance(address,address)": {
						"details": "See {IERC20-allowance}."
					},
					"approve(address,uint256)": {
						"details": "See {IERC20-approve}. Requirements: - `spender` cannot be the zero address."
					},
					"balanceOf(address)": {
						"details": "See {IERC20-balanceOf}."
					},
					"decimals()": {
						"details": "Returns the number of decimals used to get its user representation. For example, if `decimals` equals `2`, a balance of `505` tokens should be displayed to a user as `5,05` (`505 / 10 ** 2`). Tokens usually opt for a value of 18, imitating the relationship between Ether and Wei. This is the value {ERC20} uses, unless this function is overloaded; NOTE: This information is only used for _display_ purposes: it in no way affects any of the arithmetic of the contract, including {IERC20-balanceOf} and {IERC20-transfer}."
					},
					"decreaseAllowance(address,uint256)": {
						"details": "Atomically decreases the allowance granted to `spender` by the caller. This is an alternative to {approve} that can be used as a mitigation for problems described in {IERC20-approve}. Emits an {Approval} event indicating the updated allowance. Requirements: - `spender` cannot be the zero address. - `spender` must have allowance for the caller of at least `subtractedValue`."
					},
					"increaseAllowance(address,uint256)": {
						"details": "Atomically increases the allowance granted to `spender` by the caller. This is an alternative to {approve} that can be used as a mitigation for problems described in {IERC20-approve}. Emits an {Approval} event indicating the updated allowance. Requirements: - `spender` cannot be the zero address."
					},
					"name()": {
						"details": "Returns the name of the token."
					},
					"owner()": {
						"details": "Returns the address of the current owner."
					},
					"renounceOwnership()": {
						"details": "Leaves the contract without owner. It will not be possible to call `onlyOwner` functions anymore. Can only be called by the current owner. NOTE: Renouncing ownership will leave the contract without an owner, thereby removing any functionality that is only available to the owner."
					},
					"symbol()": {
						"details": "Returns the symbol of the token, usually a shorter version of the name."
					},
					"totalSupply()": {
						"details": "See {IERC20-totalSupply}."
					},
					"transfer(address,uint256)": {
						"details": "See {IERC20-transfer}. Requirements: - `recipient` cannot be the zero address. - the caller must have a balance of at least `amount`."
					},
					"transferFrom(address,address,uint256)": {
						"details": "See {IERC20-transferFrom}. Emits an {Approval} event indicating the updated allowance. This is not required by the EIP. See the note at the beginning of {ERC20}. Requirements: - `sender` and `recipient` cannot be the zero address. - `sender` must have a balance of at least `amount`. - the caller must have allowance for ``sender``'s tokens of at least `amount`."
					},
					"transferOwnership(address)": {
						"details": "Transfers ownership of the contract to a new account (`newOwner`). Can only be called by the current owner."
					}
				},
				"version": 1
			},
			"evm": {
				"assembly": "    /* \"contracts/Distribution/AtlantisDistribution.sol\":206:3827  contract AtlantisDistribution is ERC20, Ownable {... */\n  mstore(0x40, 0x80)\n    /* \"contracts/Distribution/AtlantisDistribution.sol\":574:575  3 */\n  0x03\n    /* \"contracts/Distribution/AtlantisDistribution.sol\":562:575  uint size = 3 */\n  0x08\n  sstore\n    /* \"contracts/Distribution/AtlantisDistribution.sol\":725:1165  constructor(string memory name, string memory symbol, address payable _fund_wallet) ERC20(name, symbol) {... */\n  callvalue\n  dup1\n  iszero\n  tag_1\n  jumpi\n  0x00\n  dup1\n  revert\ntag_1:\n  pop\n  mload(0x40)\n  sub(codesize, bytecodeSize)\n  dup1\n  bytecodeSize\n  dup4\n  codecopy\n  dup2\n  dup2\n  add\n  0x40\n  mstore\n  dup2\n  add\n  swap1\n  tag_2\n  swap2\n  swap1\n  tag_3\n  jump\t// in\ntag_2:\n    /* \"contracts/Distribution/AtlantisDistribution.sol\":815:819  name */\n  dup3\n    /* \"contracts/Distribution/AtlantisDistribution.sol\":821:827  symbol */\n  dup3\n    /* \"contracts/Distribution/WrappedERC20Token.sol\":1953:1958  name_ */\n  dup2\n    /* \"contracts/Distribution/WrappedERC20Token.sol\":1945:1950  _name */\n  0x03\n    /* \"contracts/Distribution/WrappedERC20Token.sol\":1945:1958  _name = name_ */\n  swap1\n  dup1\n  mload\n  swap1\n  0x20\n  add\n  swap1\n  tag_8\n  swap3\n  swap2\n  swap1\n  tag_9\n  jump\t// in\ntag_8:\n  pop\n    /* \"contracts/Distribution/WrappedERC20Token.sol\":1978:1985  symbol_ */\n  dup1\n    /* \"contracts/Distribution/WrappedERC20Token.sol\":1968:1975  _symbol */\n  0x04\n    /* \"contracts/Distribution/WrappedERC20Token.sol\":1968:1985  _symbol = symbol_ */\n  swap1\n  dup1\n  mload\n  swap1\n  0x20\n  add\n  swap1\n  tag_10\n  swap3\n  swap2\n  swap1\n  tag_9\n  jump\t// in\ntag_10:\n  pop\n    /* \"contracts/Distribution/WrappedERC20Token.sol\":1878:1992  constructor (string memory name_, string memory symbol_) {... */\n  pop\n  pop\n    /* \"@openzeppelin/contracts/access/Ownable.sol\":867:890  _setOwner(_msgSender()) */\n  tag_12\n    /* \"@openzeppelin/contracts/access/Ownable.sol\":877:889  _msgSender() */\n  tag_13\n    /* \"@openzeppelin/contracts/access/Ownable.sol\":877:887  _msgSender */\n  shl(0x20, tag_14)\n    /* \"@openzeppelin/contracts/access/Ownable.sol\":877:889  _msgSender() */\n  0x20\n  shr\n  jump\t// in\ntag_13:\n    /* \"@openzeppelin/contracts/access/Ownable.sol\":867:876  _setOwner */\n  shl(0x20, tag_15)\n    /* \"@openzeppelin/contracts/access/Ownable.sol\":867:890  _setOwner(_msgSender()) */\n  0x20\n  shr\n  jump\t// in\ntag_12:\n    /* \"contracts/Distribution/AtlantisDistribution.sol\":839:890  _mint(msg.sender, 300000000 * 10**uint(decimals())) */\n  tag_17\n    /* \"contracts/Distribution/AtlantisDistribution.sol\":845:855  msg.sender */\n  caller\n    /* \"contracts/Distribution/AtlantisDistribution.sol\":878:888  decimals() */\n  tag_18\n    /* \"contracts/Distribution/AtlantisDistribution.sol\":878:886  decimals */\n  shl(0x20, tag_19)\n    /* \"contracts/Distribution/AtlantisDistribution.sol\":878:888  decimals() */\n  0x20\n  shr\n  jump\t// in\ntag_18:\n    /* \"contracts/Distribution/AtlantisDistribution.sol\":873:889  uint(decimals()) */\n  0xff\n  and\n    /* \"contracts/Distribution/AtlantisDistribution.sol\":869:871  10 */\n  0x0a\n    /* \"contracts/Distribution/AtlantisDistribution.sol\":869:889  10**uint(decimals()) */\n  tag_20\n  swap2\n  swap1\n  tag_21\n  jump\t// in\ntag_20:\n    /* \"contracts/Distribution/AtlantisDistribution.sol\":857:866  300000000 */\n  0x11e1a300\n    /* \"contracts/Distribution/AtlantisDistribution.sol\":857:889  300000000 * 10**uint(decimals()) */\n  tag_22\n  swap2\n  swap1\n  tag_23\n  jump\t// in\ntag_22:\n    /* \"contracts/Distribution/AtlantisDistribution.sol\":839:844  _mint */\n  shl(0x20, tag_24)\n    /* \"contracts/Distribution/AtlantisDistribution.sol\":839:890  _mint(msg.sender, 300000000 * 10**uint(decimals())) */\n  0x20\n  shr\n  jump\t// in\ntag_17:\n    /* \"contracts/Distribution/AtlantisDistribution.sol\":924:934  decimals() */\n  tag_25\n    /* \"contracts/Distribution/AtlantisDistribution.sol\":924:932  decimals */\n  shl(0x20, tag_19)\n    /* \"contracts/Distribution/AtlantisDistribution.sol\":924:934  decimals() */\n  0x20\n  shr\n  jump\t// in\ntag_25:\n    /* \"contracts/Distribution/AtlantisDistribution.sol\":919:935  uint(decimals()) */\n  0xff\n  and\n    /* \"contracts/Distribution/AtlantisDistribution.sol\":915:917  10 */\n  0x0a\n    /* \"contracts/Distribution/AtlantisDistribution.sol\":915:935  10**uint(decimals()) */\n  tag_26\n  swap2\n  swap1\n  tag_21\n  jump\t// in\ntag_26:\n    /* \"contracts/Distribution/AtlantisDistribution.sol\":900:909  currentBC */\n  0x09\n    /* \"contracts/Distribution/AtlantisDistribution.sol\":910:911  0 */\n  0x00\n    /* \"contracts/Distribution/AtlantisDistribution.sol\":900:912  currentBC[0] */\n  0x03\n  dup2\n  lt\n  tag_27\n  jumpi\n  tag_28\n  tag_29\n  jump\t// in\ntag_28:\ntag_27:\n  add\n    /* \"contracts/Distribution/AtlantisDistribution.sol\":900:935  currentBC[0] = 10**uint(decimals()) */\n  dup2\n  swap1\n  sstore\n  pop\n    /* \"contracts/Distribution/AtlantisDistribution.sol\":969:979  decimals() */\n  tag_31\n    /* \"contracts/Distribution/AtlantisDistribution.sol\":969:977  decimals */\n  shl(0x20, tag_19)\n    /* \"contracts/Distribution/AtlantisDistribution.sol\":969:979  decimals() */\n  0x20\n  shr\n  jump\t// in\ntag_31:\n    /* \"contracts/Distribution/AtlantisDistribution.sol\":964:980  uint(decimals()) */\n  0xff\n  and\n    /* \"contracts/Distribution/AtlantisDistribution.sol\":960:962  10 */\n  0x0a\n    /* \"contracts/Distribution/AtlantisDistribution.sol\":960:980  10**uint(decimals()) */\n  tag_32\n  swap2\n  swap1\n  tag_21\n  jump\t// in\ntag_32:\n    /* \"contracts/Distribution/AtlantisDistribution.sol\":945:954  currentBC */\n  0x09\n    /* \"contracts/Distribution/AtlantisDistribution.sol\":955:956  1 */\n  0x01\n    /* \"contracts/Distribution/AtlantisDistribution.sol\":945:957  currentBC[1] */\n  0x03\n  dup2\n  lt\n  tag_33\n  jumpi\n  tag_34\n  tag_29\n  jump\t// in\ntag_34:\ntag_33:\n  add\n    /* \"contracts/Distribution/AtlantisDistribution.sol\":945:980  currentBC[1] = 10**uint(decimals()) */\n  dup2\n  swap1\n  sstore\n  pop\n    /* \"contracts/Distribution/AtlantisDistribution.sol\":1014:1024  decimals() */\n  tag_36\n    /* \"contracts/Distribution/AtlantisDistribution.sol\":1014:1022  decimals */\n  shl(0x20, tag_19)\n    /* \"contracts/Distribution/AtlantisDistribution.sol\":1014:1024  decimals() */\n  0x20\n  shr\n  jump\t// in\ntag_36:\n    /* \"contracts/Distribution/AtlantisDistribution.sol\":1009:1025  uint(decimals()) */\n  0xff\n  and\n    /* \"contracts/Distribution/AtlantisDistribution.sol\":1005:1007  10 */\n  0x0a\n    /* \"contracts/Distribution/AtlantisDistribution.sol\":1005:1025  10**uint(decimals()) */\n  tag_37\n  swap2\n  swap1\n  tag_21\n  jump\t// in\ntag_37:\n    /* \"contracts/Distribution/AtlantisDistribution.sol\":990:999  currentBC */\n  0x09\n    /* \"contracts/Distribution/AtlantisDistribution.sol\":1000:1001  2 */\n  0x02\n    /* \"contracts/Distribution/AtlantisDistribution.sol\":990:1002  currentBC[2] */\n  0x03\n  dup2\n  lt\n  tag_38\n  jumpi\n  tag_39\n  tag_29\n  jump\t// in\ntag_39:\ntag_38:\n  add\n    /* \"contracts/Distribution/AtlantisDistribution.sol\":990:1025  currentBC[2] = 10**uint(decimals()) */\n  dup2\n  swap1\n  sstore\n  pop\n    /* \"contracts/Distribution/AtlantisDistribution.sol\":1067:1077  decimals() */\n  tag_41\n    /* \"contracts/Distribution/AtlantisDistribution.sol\":1067:1075  decimals */\n  shl(0x20, tag_19)\n    /* \"contracts/Distribution/AtlantisDistribution.sol\":1067:1077  decimals() */\n  0x20\n  shr\n  jump\t// in\ntag_41:\n    /* \"contracts/Distribution/AtlantisDistribution.sol\":1062:1078  uint(decimals()) */\n  0xff\n  and\n    /* \"contracts/Distribution/AtlantisDistribution.sol\":1058:1060  10 */\n  0x0a\n    /* \"contracts/Distribution/AtlantisDistribution.sol\":1058:1078  10**uint(decimals()) */\n  tag_42\n  swap2\n  swap1\n  tag_21\n  jump\t// in\ntag_42:\n    /* \"contracts/Distribution/AtlantisDistribution.sol\":1046:1055  300000000 */\n  0x11e1a300\n    /* \"contracts/Distribution/AtlantisDistribution.sol\":1046:1078  300000000 * 10**uint(decimals()) */\n  tag_43\n  swap2\n  swap1\n  tag_23\n  jump\t// in\ntag_43:\n    /* \"contracts/Distribution/AtlantisDistribution.sol\":1035:1040  total */\n  0x0c\n    /* \"contracts/Distribution/AtlantisDistribution.sol\":1041:1042  0 */\n  0x00\n    /* \"contracts/Distribution/AtlantisDistribution.sol\":1035:1043  total[0] */\n  0x03\n  dup2\n  lt\n  tag_44\n  jumpi\n  tag_45\n  tag_29\n  jump\t// in\ntag_45:\ntag_44:\n  add\n    /* \"contracts/Distribution/AtlantisDistribution.sol\":1035:1078  total[0] = 300000000 * 10**uint(decimals()) */\n  dup2\n  swap1\n  sstore\n  pop\n    /* \"contracts/Distribution/AtlantisDistribution.sol\":1099:1100  0 */\n  0x00\n    /* \"contracts/Distribution/AtlantisDistribution.sol\":1088:1093  total */\n  0x0c\n    /* \"contracts/Distribution/AtlantisDistribution.sol\":1094:1095  1 */\n  0x01\n    /* \"contracts/Distribution/AtlantisDistribution.sol\":1088:1096  total[1] */\n  0x03\n  dup2\n  lt\n  tag_47\n  jumpi\n  tag_48\n  tag_29\n  jump\t// in\ntag_48:\ntag_47:\n  add\n    /* \"contracts/Distribution/AtlantisDistribution.sol\":1088:1100  total[1] = 0 */\n  dup2\n  swap1\n  sstore\n  pop\n    /* \"contracts/Distribution/AtlantisDistribution.sol\":1121:1122  0 */\n  0x00\n    /* \"contracts/Distribution/AtlantisDistribution.sol\":1110:1115  total */\n  0x0c\n    /* \"contracts/Distribution/AtlantisDistribution.sol\":1116:1117  2 */\n  0x02\n    /* \"contracts/Distribution/AtlantisDistribution.sol\":1110:1118  total[2] */\n  0x03\n  dup2\n  lt\n  tag_50\n  jumpi\n  tag_51\n  tag_29\n  jump\t// in\ntag_51:\ntag_50:\n  add\n    /* \"contracts/Distribution/AtlantisDistribution.sol\":1110:1122  total[2] = 0 */\n  dup2\n  swap1\n  sstore\n  pop\n    /* \"contracts/Distribution/AtlantisDistribution.sol\":1146:1158  _fund_wallet */\n  dup1\n    /* \"contracts/Distribution/AtlantisDistribution.sol\":1132:1143  fund_wallet */\n  0x0f\n  0x00\n    /* \"contracts/Distribution/AtlantisDistribution.sol\":1132:1158  fund_wallet = _fund_wallet */\n  0x0100\n  exp\n  dup2\n  sload\n  dup2\n  0xffffffffffffffffffffffffffffffffffffffff\n  mul\n  not\n  and\n  swap1\n  dup4\n  0xffffffffffffffffffffffffffffffffffffffff\n  and\n  mul\n  or\n  swap1\n  sstore\n  pop\n    /* \"contracts/Distribution/AtlantisDistribution.sol\":725:1165  constructor(string memory name, string memory symbol, address payable _fund_wallet) ERC20(name, symbol) {... */\n  pop\n  pop\n  pop\n    /* \"contracts/Distribution/AtlantisDistribution.sol\":206:3827  contract AtlantisDistribution is ERC20, Ownable {... */\n  jump(tag_53)\n    /* \"@openzeppelin/contracts/utils/Context.sol\":587:683  function _msgSender() internal view virtual returns (address) {... */\ntag_14:\n    /* \"@openzeppelin/contracts/utils/Context.sol\":640:647  address */\n  0x00\n    /* \"@openzeppelin/contracts/utils/Context.sol\":666:676  msg.sender */\n  caller\n    /* \"@openzeppelin/contracts/utils/Context.sol\":659:676  return msg.sender */\n  swap1\n  pop\n    /* \"@openzeppelin/contracts/utils/Context.sol\":587:683  function _msgSender() internal view virtual returns (address) {... */\n  swap1\n  jump\t// out\n    /* \"@openzeppelin/contracts/access/Ownable.sol\":2041:2210  function _setOwner(address newOwner) private {... */\ntag_15:\n    /* \"@openzeppelin/contracts/access/Ownable.sol\":2096:2112  address oldOwner */\n  0x00\n    /* \"@openzeppelin/contracts/access/Ownable.sol\":2115:2121  _owner */\n  0x05\n  0x00\n  swap1\n  sload\n  swap1\n  0x0100\n  exp\n  swap1\n  div\n  0xffffffffffffffffffffffffffffffffffffffff\n  and\n    /* \"@openzeppelin/contracts/access/Ownable.sol\":2096:2121  address oldOwner = _owner */\n  swap1\n  pop\n    /* \"@openzeppelin/contracts/access/Ownable.sol\":2140:2148  newOwner */\n  dup2\n    /* \"@openzeppelin/contracts/access/Ownable.sol\":2131:2137  _owner */\n  0x05\n  0x00\n    /* \"@openzeppelin/contracts/access/Ownable.sol\":2131:2148  _owner = newOwner */\n  0x0100\n  exp\n  dup2\n  sload\n  dup2\n  0xffffffffffffffffffffffffffffffffffffffff\n  mul\n  not\n  and\n  swap1\n  dup4\n  0xffffffffffffffffffffffffffffffffffffffff\n  and\n  mul\n  or\n  swap1\n  sstore\n  pop\n    /* \"@openzeppelin/contracts/access/Ownable.sol\":2194:2202  newOwner */\n  dup2\n    /* \"@openzeppelin/contracts/access/Ownable.sol\":2163:2203  OwnershipTransferred(oldOwner, newOwner) */\n  0xffffffffffffffffffffffffffffffffffffffff\n  and\n    /* \"@openzeppelin/contracts/access/Ownable.sol\":2184:2192  oldOwner */\n  dup2\n    /* \"@openzeppelin/contracts/access/Ownable.sol\":2163:2203  OwnershipTransferred(oldOwner, newOwner) */\n  0xffffffffffffffffffffffffffffffffffffffff\n  and\n  0x8be0079c531659141344cd1fd0a4f28419497f9722a3daafe3b4186f6b6457e0\n  mload(0x40)\n  mload(0x40)\n  dup1\n  swap2\n  sub\n  swap1\n  log3\n    /* \"@openzeppelin/contracts/access/Ownable.sol\":2086:2210  {... */\n  pop\n    /* \"@openzeppelin/contracts/access/Ownable.sol\":2041:2210  function _setOwner(address newOwner) private {... */\n  pop\n  jump\t// out\n    /* \"contracts/Distribution/WrappedERC20Token.sol\":2976:3058  function decimals() public view virtual returns (uint8) {... */\ntag_19:\n    /* \"contracts/Distribution/WrappedERC20Token.sol\":3025:3030  uint8 */\n  0x00\n    /* \"contracts/Distribution/WrappedERC20Token.sol\":3049:3051  18 */\n  0x12\n    /* \"contracts/Distribution/WrappedERC20Token.sol\":3042:3051  return 18 */\n  swap1\n  pop\n    /* \"contracts/Distribution/WrappedERC20Token.sol\":2976:3058  function decimals() public view virtual returns (uint8) {... */\n  swap1\n  jump\t// out\n    /* \"contracts/Distribution/WrappedERC20Token.sol\":7976:8306  function _mint(address account, uint256 amount) internal virtual {... */\ntag_24:\n    /* \"contracts/Distribution/WrappedERC20Token.sol\":8078:8079  0 */\n  0x00\n    /* \"contracts/Distribution/WrappedERC20Token.sol\":8059:8080  account != address(0) */\n  0xffffffffffffffffffffffffffffffffffffffff\n  and\n    /* \"contracts/Distribution/WrappedERC20Token.sol\":8059:8066  account */\n  dup3\n    /* \"contracts/Distribution/WrappedERC20Token.sol\":8059:8080  account != address(0) */\n  0xffffffffffffffffffffffffffffffffffffffff\n  and\n  sub\n    /* \"contracts/Distribution/WrappedERC20Token.sol\":8051:8116  require(account != address(0), \"ERC20: mint to the zero address\") */\n  tag_58\n  jumpi\n  mload(0x40)\n  0x08c379a000000000000000000000000000000000000000000000000000000000\n  dup2\n  mstore\n  0x04\n  add\n  tag_59\n  swap1\n  tag_60\n  jump\t// in\ntag_59:\n  mload(0x40)\n  dup1\n  swap2\n  sub\n  swap1\n  revert\ntag_58:\n    /* \"contracts/Distribution/WrappedERC20Token.sol\":8127:8176  _beforeTokenTransfer(address(0), account, amount) */\n  tag_61\n    /* \"contracts/Distribution/WrappedERC20Token.sol\":8156:8157  0 */\n  0x00\n    /* \"contracts/Distribution/WrappedERC20Token.sol\":8160:8167  account */\n  dup4\n    /* \"contracts/Distribution/WrappedERC20Token.sol\":8169:8175  amount */\n  dup4\n    /* \"contracts/Distribution/WrappedERC20Token.sol\":8127:8147  _beforeTokenTransfer */\n  shl(0x20, tag_62)\n    /* \"contracts/Distribution/WrappedERC20Token.sol\":8127:8176  _beforeTokenTransfer(address(0), account, amount) */\n  0x20\n  shr\n  jump\t// in\ntag_61:\n    /* \"contracts/Distribution/WrappedERC20Token.sol\":8203:8209  amount */\n  dup1\n    /* \"contracts/Distribution/WrappedERC20Token.sol\":8187:8199  _totalSupply */\n  0x02\n  0x00\n    /* \"contracts/Distribution/WrappedERC20Token.sol\":8187:8209  _totalSupply += amount */\n  dup3\n  dup3\n  sload\n  tag_63\n  swap2\n  swap1\n  tag_64\n  jump\t// in\ntag_63:\n  swap3\n  pop\n  pop\n  dup2\n  swap1\n  sstore\n  pop\n    /* \"contracts/Distribution/WrappedERC20Token.sol\":8241:8247  amount */\n  dup1\n    /* \"contracts/Distribution/WrappedERC20Token.sol\":8219:8228  _balances */\n  0x00\n    /* \"contracts/Distribution/WrappedERC20Token.sol\":8219:8237  _balances[account] */\n  dup1\n    /* \"contracts/Distribution/WrappedERC20Token.sol\":8229:8236  account */\n  dup5\n    /* \"contracts/Distribution/WrappedERC20Token.sol\":8219:8237  _balances[account] */\n  0xffffffffffffffffffffffffffffffffffffffff\n  and\n  0xffffffffffffffffffffffffffffffffffffffff\n  and\n  dup2\n  mstore\n  0x20\n  add\n  swap1\n  dup2\n  mstore\n  0x20\n  add\n  0x00\n  keccak256\n  0x00\n    /* \"contracts/Distribution/WrappedERC20Token.sol\":8219:8247  _balances[account] += amount */\n  dup3\n  dup3\n  sload\n  tag_65\n  swap2\n  swap1\n  tag_64\n  jump\t// in\ntag_65:\n  swap3\n  pop\n  pop\n  dup2\n  swap1\n  sstore\n  pop\n    /* \"contracts/Distribution/WrappedERC20Token.sol\":8283:8290  account */\n  dup2\n    /* \"contracts/Distribution/WrappedERC20Token.sol\":8262:8299  Transfer(address(0), account, amount) */\n  0xffffffffffffffffffffffffffffffffffffffff\n  and\n    /* \"contracts/Distribution/WrappedERC20Token.sol\":8279:8280  0 */\n  0x00\n    /* \"contracts/Distribution/WrappedERC20Token.sol\":8262:8299  Transfer(address(0), account, amount) */\n  0xffffffffffffffffffffffffffffffffffffffff\n  and\n  0xddf252ad1be2c89b69c2b068fc378daa952ba7f163c4a11628f55a4df523b3ef\n    /* \"contracts/Distribution/WrappedERC20Token.sol\":8292:8298  amount */\n  dup4\n    /* \"contracts/Distribution/WrappedERC20Token.sol\":8262:8299  Transfer(address(0), account, amount) */\n  mload(0x40)\n  tag_66\n  swap2\n  swap1\n  tag_67\n  jump\t// in\ntag_66:\n  mload(0x40)\n  dup1\n  swap2\n  sub\n  swap1\n  log3\n    /* \"contracts/Distribution/WrappedERC20Token.sol\":7976:8306  function _mint(address account, uint256 amount) internal virtual {... */\n  pop\n  pop\n  jump\t// out\n    /* \"contracts/Distribution/WrappedERC20Token.sol\":10459:10551  function _beforeTokenTransfer(address from, address to, uint256 amount) internal virtual { } */\ntag_62:\n  pop\n  pop\n  pop\n  jump\t// out\n    /* \"contracts/Distribution/AtlantisDistribution.sol\":206:3827  contract AtlantisDistribution is ERC20, Ownable {... */\ntag_9:\n  dup3\n  dup1\n  sload\n  tag_69\n  swap1\n  tag_70\n  jump\t// in\ntag_69:\n  swap1\n  0x00\n  mstore\n  keccak256(0x00, 0x20)\n  swap1\n  0x1f\n  add\n  0x20\n  swap1\n  div\n  dup2\n  add\n  swap3\n  dup3\n  tag_72\n  jumpi\n  0x00\n  dup6\n  sstore\n  jump(tag_71)\ntag_72:\n  dup3\n  0x1f\n  lt\n  tag_73\n  jumpi\n  dup1\n  mload\n  not(0xff)\n  and\n  dup4\n  dup1\n  add\n  or\n  dup6\n  sstore\n  jump(tag_71)\ntag_73:\n  dup3\n  dup1\n  add\n  0x01\n  add\n  dup6\n  sstore\n  dup3\n  iszero\n  tag_71\n  jumpi\n  swap2\n  dup3\n  add\ntag_74:\n  dup3\n  dup2\n  gt\n  iszero\n  tag_75\n  jumpi\n  dup3\n  mload\n  dup3\n  sstore\n  swap2\n  0x20\n  add\n  swap2\n  swap1\n  0x01\n  add\n  swap1\n  jump(tag_74)\ntag_75:\ntag_71:\n  pop\n  swap1\n  pop\n  tag_76\n  swap2\n  swap1\n  tag_77\n  jump\t// in\ntag_76:\n  pop\n  swap1\n  jump\t// out\ntag_77:\ntag_78:\n  dup1\n  dup3\n  gt\n  iszero\n  tag_79\n  jumpi\n  0x00\n  dup2\n  0x00\n  swap1\n  sstore\n  pop\n  0x01\n  add\n  jump(tag_78)\ntag_79:\n  pop\n  swap1\n  jump\t// out\n    /* \"#utility.yul\":7:82   */\ntag_80:\n    /* \"#utility.yul\":40:46   */\n  0x00\n    /* \"#utility.yul\":73:75   */\n  0x40\n    /* \"#utility.yul\":67:76   */\n  mload\n    /* \"#utility.yul\":57:76   */\n  swap1\n  pop\n    /* \"#utility.yul\":7:82   */\n  swap1\n  jump\t// out\n    /* \"#utility.yul\":88:205   */\ntag_81:\n    /* \"#utility.yul\":197:198   */\n  0x00\n    /* \"#utility.yul\":194:195   */\n  dup1\n    /* \"#utility.yul\":187:199   */\n  revert\n    /* \"#utility.yul\":211:328   */\ntag_82:\n    /* \"#utility.yul\":320:321   */\n  0x00\n    /* \"#utility.yul\":317:318   */\n  dup1\n    /* \"#utility.yul\":310:322   */\n  revert\n    /* \"#utility.yul\":334:451   */\ntag_83:\n    /* \"#utility.yul\":443:444   */\n  0x00\n    /* \"#utility.yul\":440:441   */\n  dup1\n    /* \"#utility.yul\":433:445   */\n  revert\n    /* \"#utility.yul\":457:574   */\ntag_84:\n    /* \"#utility.yul\":566:567   */\n  0x00\n    /* \"#utility.yul\":563:564   */\n  dup1\n    /* \"#utility.yul\":556:568   */\n  revert\n    /* \"#utility.yul\":580:682   */\ntag_85:\n    /* \"#utility.yul\":621:627   */\n  0x00\n    /* \"#utility.yul\":672:674   */\n  0x1f\n    /* \"#utility.yul\":668:675   */\n  not\n    /* \"#utility.yul\":663:665   */\n  0x1f\n    /* \"#utility.yul\":656:661   */\n  dup4\n    /* \"#utility.yul\":652:666   */\n  add\n    /* \"#utility.yul\":648:676   */\n  and\n    /* \"#utility.yul\":638:676   */\n  swap1\n  pop\n    /* \"#utility.yul\":580:682   */\n  swap2\n  swap1\n  pop\n  jump\t// out\n    /* \"#utility.yul\":688:868   */\ntag_86:\n    /* \"#utility.yul\":736:813   */\n  0x4e487b7100000000000000000000000000000000000000000000000000000000\n    /* \"#utility.yul\":733:734   */\n  0x00\n    /* \"#utility.yul\":726:814   */\n  mstore\n    /* \"#utility.yul\":833:837   */\n  0x41\n    /* \"#utility.yul\":830:831   */\n  0x04\n    /* \"#utility.yul\":823:838   */\n  mstore\n    /* \"#utility.yul\":857:861   */\n  0x24\n    /* \"#utility.yul\":854:855   */\n  0x00\n    /* \"#utility.yul\":847:862   */\n  revert\n    /* \"#utility.yul\":874:1155   */\ntag_87:\n    /* \"#utility.yul\":957:984   */\n  tag_116\n    /* \"#utility.yul\":979:983   */\n  dup3\n    /* \"#utility.yul\":957:984   */\n  tag_85\n  jump\t// in\ntag_116:\n    /* \"#utility.yul\":949:955   */\n  dup2\n    /* \"#utility.yul\":945:985   */\n  add\n    /* \"#utility.yul\":1087:1093   */\n  dup2\n    /* \"#utility.yul\":1075:1085   */\n  dup2\n    /* \"#utility.yul\":1072:1094   */\n  lt\n    /* \"#utility.yul\":1051:1069   */\n  0xffffffffffffffff\n    /* \"#utility.yul\":1039:1049   */\n  dup3\n    /* \"#utility.yul\":1036:1070   */\n  gt\n    /* \"#utility.yul\":1033:1095   */\n  or\n    /* \"#utility.yul\":1030:1118   */\n  iszero\n  tag_117\n  jumpi\n    /* \"#utility.yul\":1098:1116   */\n  tag_118\n  tag_86\n  jump\t// in\ntag_118:\n    /* \"#utility.yul\":1030:1118   */\ntag_117:\n    /* \"#utility.yul\":1138:1148   */\n  dup1\n    /* \"#utility.yul\":1134:1136   */\n  0x40\n    /* \"#utility.yul\":1127:1149   */\n  mstore\n    /* \"#utility.yul\":917:1155   */\n  pop\n    /* \"#utility.yul\":874:1155   */\n  pop\n  pop\n  jump\t// out\n    /* \"#utility.yul\":1161:1290   */\ntag_88:\n    /* \"#utility.yul\":1195:1201   */\n  0x00\n    /* \"#utility.yul\":1222:1242   */\n  tag_120\n  tag_80\n  jump\t// in\ntag_120:\n    /* \"#utility.yul\":1212:1242   */\n  swap1\n  pop\n    /* \"#utility.yul\":1251:1284   */\n  tag_121\n    /* \"#utility.yul\":1279:1283   */\n  dup3\n    /* \"#utility.yul\":1271:1277   */\n  dup3\n    /* \"#utility.yul\":1251:1284   */\n  tag_87\n  jump\t// in\ntag_121:\n    /* \"#utility.yul\":1161:1290   */\n  swap2\n  swap1\n  pop\n  jump\t// out\n    /* \"#utility.yul\":1296:1604   */\ntag_89:\n    /* \"#utility.yul\":1358:1362   */\n  0x00\n    /* \"#utility.yul\":1448:1466   */\n  0xffffffffffffffff\n    /* \"#utility.yul\":1440:1446   */\n  dup3\n    /* \"#utility.yul\":1437:1467   */\n  gt\n    /* \"#utility.yul\":1434:1490   */\n  iszero\n  tag_123\n  jumpi\n    /* \"#utility.yul\":1470:1488   */\n  tag_124\n  tag_86\n  jump\t// in\ntag_124:\n    /* \"#utility.yul\":1434:1490   */\ntag_123:\n    /* \"#utility.yul\":1508:1537   */\n  tag_125\n    /* \"#utility.yul\":1530:1536   */\n  dup3\n    /* \"#utility.yul\":1508:1537   */\n  tag_85\n  jump\t// in\ntag_125:\n    /* \"#utility.yul\":1500:1537   */\n  swap1\n  pop\n    /* \"#utility.yul\":1592:1596   */\n  0x20\n    /* \"#utility.yul\":1586:1590   */\n  dup2\n    /* \"#utility.yul\":1582:1597   */\n  add\n    /* \"#utility.yul\":1574:1597   */\n  swap1\n  pop\n    /* \"#utility.yul\":1296:1604   */\n  swap2\n  swap1\n  pop\n  jump\t// out\n    /* \"#utility.yul\":1610:1917   */\ntag_90:\n    /* \"#utility.yul\":1678:1679   */\n  0x00\n    /* \"#utility.yul\":1688:1801   */\ntag_127:\n    /* \"#utility.yul\":1702:1708   */\n  dup4\n    /* \"#utility.yul\":1699:1700   */\n  dup2\n    /* \"#utility.yul\":1696:1709   */\n  lt\n    /* \"#utility.yul\":1688:1801   */\n  iszero\n  tag_129\n  jumpi\n    /* \"#utility.yul\":1787:1788   */\n  dup1\n    /* \"#utility.yul\":1782:1785   */\n  dup3\n    /* \"#utility.yul\":1778:1789   */\n  add\n    /* \"#utility.yul\":1772:1790   */\n  mload\n    /* \"#utility.yul\":1768:1769   */\n  dup2\n    /* \"#utility.yul\":1763:1766   */\n  dup5\n    /* \"#utility.yul\":1759:1770   */\n  add\n    /* \"#utility.yul\":1752:1791   */\n  mstore\n    /* \"#utility.yul\":1724:1726   */\n  0x20\n    /* \"#utility.yul\":1721:1722   */\n  dup2\n    /* \"#utility.yul\":1717:1727   */\n  add\n    /* \"#utility.yul\":1712:1727   */\n  swap1\n  pop\n    /* \"#utility.yul\":1688:1801   */\n  jump(tag_127)\ntag_129:\n    /* \"#utility.yul\":1819:1825   */\n  dup4\n    /* \"#utility.yul\":1816:1817   */\n  dup2\n    /* \"#utility.yul\":1813:1826   */\n  gt\n    /* \"#utility.yul\":1810:1911   */\n  iszero\n  tag_130\n  jumpi\n    /* \"#utility.yul\":1899:1900   */\n  0x00\n    /* \"#utility.yul\":1890:1896   */\n  dup5\n    /* \"#utility.yul\":1885:1888   */\n  dup5\n    /* \"#utility.yul\":1881:1897   */\n  add\n    /* \"#utility.yul\":1874:1901   */\n  mstore\n    /* \"#utility.yul\":1810:1911   */\ntag_130:\n    /* \"#utility.yul\":1659:1917   */\n  pop\n    /* \"#utility.yul\":1610:1917   */\n  pop\n  pop\n  pop\n  jump\t// out\n    /* \"#utility.yul\":1923:2344   */\ntag_91:\n    /* \"#utility.yul\":2012:2017   */\n  0x00\n    /* \"#utility.yul\":2037:2103   */\n  tag_132\n    /* \"#utility.yul\":2053:2102   */\n  tag_133\n    /* \"#utility.yul\":2095:2101   */\n  dup5\n    /* \"#utility.yul\":2053:2102   */\n  tag_89\n  jump\t// in\ntag_133:\n    /* \"#utility.yul\":2037:2103   */\n  tag_88\n  jump\t// in\ntag_132:\n    /* \"#utility.yul\":2028:2103   */\n  swap1\n  pop\n    /* \"#utility.yul\":2126:2132   */\n  dup3\n    /* \"#utility.yul\":2119:2124   */\n  dup2\n    /* \"#utility.yul\":2112:2133   */\n  mstore\n    /* \"#utility.yul\":2164:2168   */\n  0x20\n    /* \"#utility.yul\":2157:2162   */\n  dup2\n    /* \"#utility.yul\":2153:2169   */\n  add\n    /* \"#utility.yul\":2202:2205   */\n  dup5\n    /* \"#utility.yul\":2193:2199   */\n  dup5\n    /* \"#utility.yul\":2188:2191   */\n  dup5\n    /* \"#utility.yul\":2184:2200   */\n  add\n    /* \"#utility.yul\":2181:2206   */\n  gt\n    /* \"#utility.yul\":2178:2290   */\n  iszero\n  tag_134\n  jumpi\n    /* \"#utility.yul\":2209:2288   */\n  tag_135\n  tag_84\n  jump\t// in\ntag_135:\n    /* \"#utility.yul\":2178:2290   */\ntag_134:\n    /* \"#utility.yul\":2299:2338   */\n  tag_136\n    /* \"#utility.yul\":2331:2337   */\n  dup5\n    /* \"#utility.yul\":2326:2329   */\n  dup3\n    /* \"#utility.yul\":2321:2324   */\n  dup6\n    /* \"#utility.yul\":2299:2338   */\n  tag_90\n  jump\t// in\ntag_136:\n    /* \"#utility.yul\":2018:2344   */\n  pop\n    /* \"#utility.yul\":1923:2344   */\n  swap4\n  swap3\n  pop\n  pop\n  pop\n  jump\t// out\n    /* \"#utility.yul\":2364:2719   */\ntag_92:\n    /* \"#utility.yul\":2431:2436   */\n  0x00\n    /* \"#utility.yul\":2480:2483   */\n  dup3\n    /* \"#utility.yul\":2473:2477   */\n  0x1f\n    /* \"#utility.yul\":2465:2471   */\n  dup4\n    /* \"#utility.yul\":2461:2478   */\n  add\n    /* \"#utility.yul\":2457:2484   */\n  slt\n    /* \"#utility.yul\":2447:2569   */\n  tag_138\n  jumpi\n    /* \"#utility.yul\":2488:2567   */\n  tag_139\n  tag_83\n  jump\t// in\ntag_139:\n    /* \"#utility.yul\":2447:2569   */\ntag_138:\n    /* \"#utility.yul\":2598:2604   */\n  dup2\n    /* \"#utility.yul\":2592:2605   */\n  mload\n    /* \"#utility.yul\":2623:2713   */\n  tag_140\n    /* \"#utility.yul\":2709:2712   */\n  dup5\n    /* \"#utility.yul\":2701:2707   */\n  dup3\n    /* \"#utility.yul\":2694:2698   */\n  0x20\n    /* \"#utility.yul\":2686:2692   */\n  dup7\n    /* \"#utility.yul\":2682:2699   */\n  add\n    /* \"#utility.yul\":2623:2713   */\n  tag_91\n  jump\t// in\ntag_140:\n    /* \"#utility.yul\":2614:2713   */\n  swap2\n  pop\n    /* \"#utility.yul\":2437:2719   */\n  pop\n    /* \"#utility.yul\":2364:2719   */\n  swap3\n  swap2\n  pop\n  pop\n  jump\t// out\n    /* \"#utility.yul\":2725:2851   */\ntag_93:\n    /* \"#utility.yul\":2762:2769   */\n  0x00\n    /* \"#utility.yul\":2802:2844   */\n  0xffffffffffffffffffffffffffffffffffffffff\n    /* \"#utility.yul\":2795:2800   */\n  dup3\n    /* \"#utility.yul\":2791:2845   */\n  and\n    /* \"#utility.yul\":2780:2845   */\n  swap1\n  pop\n    /* \"#utility.yul\":2725:2851   */\n  swap2\n  swap1\n  pop\n  jump\t// out\n    /* \"#utility.yul\":2857:2961   */\ntag_94:\n    /* \"#utility.yul\":2902:2909   */\n  0x00\n    /* \"#utility.yul\":2931:2955   */\n  tag_143\n    /* \"#utility.yul\":2949:2954   */\n  dup3\n    /* \"#utility.yul\":2931:2955   */\n  tag_93\n  jump\t// in\ntag_143:\n    /* \"#utility.yul\":2920:2955   */\n  swap1\n  pop\n    /* \"#utility.yul\":2857:2961   */\n  swap2\n  swap1\n  pop\n  jump\t// out\n    /* \"#utility.yul\":2967:3105   */\ntag_95:\n    /* \"#utility.yul\":3048:3080   */\n  tag_145\n    /* \"#utility.yul\":3074:3079   */\n  dup2\n    /* \"#utility.yul\":3048:3080   */\n  tag_94\n  jump\t// in\ntag_145:\n    /* \"#utility.yul\":3041:3046   */\n  dup2\n    /* \"#utility.yul\":3038:3081   */\n  eq\n    /* \"#utility.yul\":3028:3099   */\n  tag_146\n  jumpi\n    /* \"#utility.yul\":3095:3096   */\n  0x00\n    /* \"#utility.yul\":3092:3093   */\n  dup1\n    /* \"#utility.yul\":3085:3097   */\n  revert\n    /* \"#utility.yul\":3028:3099   */\ntag_146:\n    /* \"#utility.yul\":2967:3105   */\n  pop\n  jump\t// out\n    /* \"#utility.yul\":3111:3270   */\ntag_96:\n    /* \"#utility.yul\":3176:3181   */\n  0x00\n    /* \"#utility.yul\":3207:3213   */\n  dup2\n    /* \"#utility.yul\":3201:3214   */\n  mload\n    /* \"#utility.yul\":3192:3214   */\n  swap1\n  pop\n    /* \"#utility.yul\":3223:3264   */\n  tag_148\n    /* \"#utility.yul\":3258:3263   */\n  dup2\n    /* \"#utility.yul\":3223:3264   */\n  tag_95\n  jump\t// in\ntag_148:\n    /* \"#utility.yul\":3111:3270   */\n  swap3\n  swap2\n  pop\n  pop\n  jump\t// out\n    /* \"#utility.yul\":3276:4301   */\ntag_3:\n    /* \"#utility.yul\":3392:3398   */\n  0x00\n    /* \"#utility.yul\":3400:3406   */\n  dup1\n    /* \"#utility.yul\":3408:3414   */\n  0x00\n    /* \"#utility.yul\":3457:3459   */\n  0x60\n    /* \"#utility.yul\":3445:3454   */\n  dup5\n    /* \"#utility.yul\":3436:3443   */\n  dup7\n    /* \"#utility.yul\":3432:3455   */\n  sub\n    /* \"#utility.yul\":3428:3460   */\n  slt\n    /* \"#utility.yul\":3425:3544   */\n  iszero\n  tag_150\n  jumpi\n    /* \"#utility.yul\":3463:3542   */\n  tag_151\n  tag_81\n  jump\t// in\ntag_151:\n    /* \"#utility.yul\":3425:3544   */\ntag_150:\n    /* \"#utility.yul\":3604:3605   */\n  0x00\n    /* \"#utility.yul\":3593:3602   */\n  dup5\n    /* \"#utility.yul\":3589:3606   */\n  add\n    /* \"#utility.yul\":3583:3607   */\n  mload\n    /* \"#utility.yul\":3634:3652   */\n  0xffffffffffffffff\n    /* \"#utility.yul\":3626:3632   */\n  dup2\n    /* \"#utility.yul\":3623:3653   */\n  gt\n    /* \"#utility.yul\":3620:3737   */\n  iszero\n  tag_152\n  jumpi\n    /* \"#utility.yul\":3656:3735   */\n  tag_153\n  tag_82\n  jump\t// in\ntag_153:\n    /* \"#utility.yul\":3620:3737   */\ntag_152:\n    /* \"#utility.yul\":3761:3835   */\n  tag_154\n    /* \"#utility.yul\":3827:3834   */\n  dup7\n    /* \"#utility.yul\":3818:3824   */\n  dup3\n    /* \"#utility.yul\":3807:3816   */\n  dup8\n    /* \"#utility.yul\":3803:3825   */\n  add\n    /* \"#utility.yul\":3761:3835   */\n  tag_92\n  jump\t// in\ntag_154:\n    /* \"#utility.yul\":3751:3835   */\n  swap4\n  pop\n    /* \"#utility.yul\":3554:3845   */\n  pop\n    /* \"#utility.yul\":3905:3907   */\n  0x20\n    /* \"#utility.yul\":3894:3903   */\n  dup5\n    /* \"#utility.yul\":3890:3908   */\n  add\n    /* \"#utility.yul\":3884:3909   */\n  mload\n    /* \"#utility.yul\":3936:3954   */\n  0xffffffffffffffff\n    /* \"#utility.yul\":3928:3934   */\n  dup2\n    /* \"#utility.yul\":3925:3955   */\n  gt\n    /* \"#utility.yul\":3922:4039   */\n  iszero\n  tag_155\n  jumpi\n    /* \"#utility.yul\":3958:4037   */\n  tag_156\n  tag_82\n  jump\t// in\ntag_156:\n    /* \"#utility.yul\":3922:4039   */\ntag_155:\n    /* \"#utility.yul\":4063:4137   */\n  tag_157\n    /* \"#utility.yul\":4129:4136   */\n  dup7\n    /* \"#utility.yul\":4120:4126   */\n  dup3\n    /* \"#utility.yul\":4109:4118   */\n  dup8\n    /* \"#utility.yul\":4105:4127   */\n  add\n    /* \"#utility.yul\":4063:4137   */\n  tag_92\n  jump\t// in\ntag_157:\n    /* \"#utility.yul\":4053:4137   */\n  swap3\n  pop\n    /* \"#utility.yul\":3855:4147   */\n  pop\n    /* \"#utility.yul\":4186:4188   */\n  0x40\n    /* \"#utility.yul\":4212:4284   */\n  tag_158\n    /* \"#utility.yul\":4276:4283   */\n  dup7\n    /* \"#utility.yul\":4267:4273   */\n  dup3\n    /* \"#utility.yul\":4256:4265   */\n  dup8\n    /* \"#utility.yul\":4252:4274   */\n  add\n    /* \"#utility.yul\":4212:4284   */\n  tag_96\n  jump\t// in\ntag_158:\n    /* \"#utility.yul\":4202:4284   */\n  swap2\n  pop\n    /* \"#utility.yul\":4157:4294   */\n  pop\n    /* \"#utility.yul\":3276:4301   */\n  swap3\n  pop\n  swap3\n  pop\n  swap3\n  jump\t// out\n    /* \"#utility.yul\":4307:4487   */\ntag_97:\n    /* \"#utility.yul\":4355:4432   */\n  0x4e487b7100000000000000000000000000000000000000000000000000000000\n    /* \"#utility.yul\":4352:4353   */\n  0x00\n    /* \"#utility.yul\":4345:4433   */\n  mstore\n    /* \"#utility.yul\":4452:4456   */\n  0x11\n    /* \"#utility.yul\":4449:4450   */\n  0x04\n    /* \"#utility.yul\":4442:4457   */\n  mstore\n    /* \"#utility.yul\":4476:4480   */\n  0x24\n    /* \"#utility.yul\":4473:4474   */\n  0x00\n    /* \"#utility.yul\":4466:4481   */\n  revert\n    /* \"#utility.yul\":4493:4595   */\ntag_98:\n    /* \"#utility.yul\":4535:4543   */\n  0x00\n    /* \"#utility.yul\":4582:4587   */\n  dup2\n    /* \"#utility.yul\":4579:4580   */\n  0x01\n    /* \"#utility.yul\":4575:4588   */\n  shr\n    /* \"#utility.yul\":4554:4588   */\n  swap1\n  pop\n    /* \"#utility.yul\":4493:4595   */\n  swap2\n  swap1\n  pop\n  jump\t// out\n    /* \"#utility.yul\":4601:5449   */\ntag_99:\n    /* \"#utility.yul\":4662:4667   */\n  0x00\n    /* \"#utility.yul\":4669:4673   */\n  dup1\n    /* \"#utility.yul\":4693:4699   */\n  dup3\n    /* \"#utility.yul\":4684:4699   */\n  swap2\n  pop\n    /* \"#utility.yul\":4717:4722   */\n  dup4\n    /* \"#utility.yul\":4708:4722   */\n  swap1\n  pop\n    /* \"#utility.yul\":4731:5443   */\ntag_162:\n    /* \"#utility.yul\":4752:4753   */\n  0x01\n    /* \"#utility.yul\":4742:4750   */\n  dup6\n    /* \"#utility.yul\":4739:4754   */\n  gt\n    /* \"#utility.yul\":4731:5443   */\n  iszero\n  tag_164\n  jumpi\n    /* \"#utility.yul\":4847:4851   */\n  dup1\n    /* \"#utility.yul\":4842:4845   */\n  dup7\n    /* \"#utility.yul\":4838:4852   */\n  div\n    /* \"#utility.yul\":4832:4836   */\n  dup2\n    /* \"#utility.yul\":4829:4853   */\n  gt\n    /* \"#utility.yul\":4826:4876   */\n  iszero\n  tag_165\n  jumpi\n    /* \"#utility.yul\":4856:4874   */\n  tag_166\n  tag_97\n  jump\t// in\ntag_166:\n    /* \"#utility.yul\":4826:4876   */\ntag_165:\n    /* \"#utility.yul\":4906:4907   */\n  0x01\n    /* \"#utility.yul\":4896:4904   */\n  dup6\n    /* \"#utility.yul\":4892:4908   */\n  and\n    /* \"#utility.yul\":4889:5340   */\n  iszero\n  tag_167\n  jumpi\n    /* \"#utility.yul\":5321:5325   */\n  dup1\n    /* \"#utility.yul\":5314:5319   */\n  dup3\n    /* \"#utility.yul\":5310:5326   */\n  mul\n    /* \"#utility.yul\":5301:5326   */\n  swap2\n  pop\n    /* \"#utility.yul\":4889:5340   */\ntag_167:\n    /* \"#utility.yul\":5371:5375   */\n  dup1\n    /* \"#utility.yul\":5365:5369   */\n  dup2\n    /* \"#utility.yul\":5361:5376   */\n  mul\n    /* \"#utility.yul\":5353:5376   */\n  swap1\n  pop\n    /* \"#utility.yul\":5401:5433   */\n  tag_168\n    /* \"#utility.yul\":5424:5432   */\n  dup6\n    /* \"#utility.yul\":5401:5433   */\n  tag_98\n  jump\t// in\ntag_168:\n    /* \"#utility.yul\":5389:5433   */\n  swap5\n  pop\n    /* \"#utility.yul\":4731:5443   */\n  jump(tag_162)\ntag_164:\n    /* \"#utility.yul\":4601:5449   */\n  swap5\n  pop\n  swap5\n  swap3\n  pop\n  pop\n  pop\n  jump\t// out\n    /* \"#utility.yul\":5455:6528   */\ntag_100:\n    /* \"#utility.yul\":5509:5514   */\n  0x00\n    /* \"#utility.yul\":5700:5708   */\n  dup3\n    /* \"#utility.yul\":5690:5730   */\n  tag_170\n  jumpi\n    /* \"#utility.yul\":5721:5722   */\n  0x01\n    /* \"#utility.yul\":5712:5722   */\n  swap1\n  pop\n    /* \"#utility.yul\":5723:5728   */\n  jump(tag_169)\n    /* \"#utility.yul\":5690:5730   */\ntag_170:\n    /* \"#utility.yul\":5749:5753   */\n  dup2\n    /* \"#utility.yul\":5739:5775   */\n  tag_171\n  jumpi\n    /* \"#utility.yul\":5766:5767   */\n  0x00\n    /* \"#utility.yul\":5757:5767   */\n  swap1\n  pop\n    /* \"#utility.yul\":5768:5773   */\n  jump(tag_169)\n    /* \"#utility.yul\":5739:5775   */\ntag_171:\n    /* \"#utility.yul\":5835:5839   */\n  dup2\n    /* \"#utility.yul\":5883:5884   */\n  0x01\n    /* \"#utility.yul\":5878:5905   */\n  dup2\n  eq\n  tag_173\n  jumpi\n    /* \"#utility.yul\":5919:5920   */\n  0x02\n    /* \"#utility.yul\":5914:6105   */\n  dup2\n  eq\n  tag_174\n  jumpi\n    /* \"#utility.yul\":5828:6105   */\n  jump(tag_172)\n    /* \"#utility.yul\":5878:5905   */\ntag_173:\n    /* \"#utility.yul\":5896:5897   */\n  0x01\n    /* \"#utility.yul\":5887:5897   */\n  swap2\n  pop\n    /* \"#utility.yul\":5898:5903   */\n  pop\n  jump(tag_169)\n    /* \"#utility.yul\":5914:6105   */\ntag_174:\n    /* \"#utility.yul\":5959:5962   */\n  0xff\n    /* \"#utility.yul\":5949:5957   */\n  dup5\n    /* \"#utility.yul\":5946:5963   */\n  gt\n    /* \"#utility.yul\":5943:5986   */\n  iszero\n  tag_175\n  jumpi\n    /* \"#utility.yul\":5966:5984   */\n  tag_176\n  tag_97\n  jump\t// in\ntag_176:\n    /* \"#utility.yul\":5943:5986   */\ntag_175:\n    /* \"#utility.yul\":6015:6023   */\n  dup4\n    /* \"#utility.yul\":6012:6013   */\n  0x02\n    /* \"#utility.yul\":6008:6024   */\n  exp\n    /* \"#utility.yul\":5999:6024   */\n  swap2\n  pop\n    /* \"#utility.yul\":6050:6053   */\n  dup5\n    /* \"#utility.yul\":6043:6048   */\n  dup3\n    /* \"#utility.yul\":6040:6054   */\n  gt\n    /* \"#utility.yul\":6037:6077   */\n  iszero\n  tag_177\n  jumpi\n    /* \"#utility.yul\":6057:6075   */\n  tag_178\n  tag_97\n  jump\t// in\ntag_178:\n    /* \"#utility.yul\":6037:6077   */\ntag_177:\n    /* \"#utility.yul\":6090:6095   */\n  pop\n  jump(tag_169)\n    /* \"#utility.yul\":5828:6105   */\ntag_172:\n  pop\n    /* \"#utility.yul\":6214:6216   */\n  0x20\n    /* \"#utility.yul\":6204:6212   */\n  dup4\n    /* \"#utility.yul\":6201:6217   */\n  lt\n    /* \"#utility.yul\":6195:6198   */\n  0x0133\n    /* \"#utility.yul\":6189:6193   */\n  dup4\n    /* \"#utility.yul\":6186:6199   */\n  lt\n    /* \"#utility.yul\":6182:6218   */\n  and\n    /* \"#utility.yul\":6164:6166   */\n  0x4e\n    /* \"#utility.yul\":6154:6162   */\n  dup5\n    /* \"#utility.yul\":6151:6167   */\n  lt\n    /* \"#utility.yul\":6146:6148   */\n  0x0b\n    /* \"#utility.yul\":6140:6144   */\n  dup5\n    /* \"#utility.yul\":6137:6149   */\n  lt\n    /* \"#utility.yul\":6133:6168   */\n  and\n    /* \"#utility.yul\":6117:6228   */\n  or\n    /* \"#utility.yul\":6114:6360   */\n  iszero\n  tag_179\n  jumpi\n    /* \"#utility.yul\":6270:6278   */\n  dup3\n    /* \"#utility.yul\":6264:6268   */\n  dup3\n    /* \"#utility.yul\":6260:6279   */\n  exp\n    /* \"#utility.yul\":6251:6279   */\n  swap1\n  pop\n    /* \"#utility.yul\":6305:6308   */\n  dup4\n    /* \"#utility.yul\":6298:6303   */\n  dup2\n    /* \"#utility.yul\":6295:6309   */\n  gt\n    /* \"#utility.yul\":6292:6332   */\n  iszero\n  tag_180\n  jumpi\n    /* \"#utility.yul\":6312:6330   */\n  tag_181\n  tag_97\n  jump\t// in\ntag_181:\n    /* \"#utility.yul\":6292:6332   */\ntag_180:\n    /* \"#utility.yul\":6345:6350   */\n  jump(tag_169)\n    /* \"#utility.yul\":6114:6360   */\ntag_179:\n    /* \"#utility.yul\":6385:6427   */\n  tag_182\n    /* \"#utility.yul\":6423:6426   */\n  dup5\n    /* \"#utility.yul\":6413:6421   */\n  dup5\n    /* \"#utility.yul\":6407:6411   */\n  dup5\n    /* \"#utility.yul\":6404:6405   */\n  0x01\n    /* \"#utility.yul\":6385:6427   */\n  tag_99\n  jump\t// in\ntag_182:\n    /* \"#utility.yul\":6370:6427   */\n  swap3\n  pop\n  swap1\n  pop\n    /* \"#utility.yul\":6459:6463   */\n  dup2\n    /* \"#utility.yul\":6454:6457   */\n  dup5\n    /* \"#utility.yul\":6450:6464   */\n  div\n    /* \"#utility.yul\":6443:6448   */\n  dup2\n    /* \"#utility.yul\":6440:6465   */\n  gt\n    /* \"#utility.yul\":6437:6488   */\n  iszero\n  tag_183\n  jumpi\n    /* \"#utility.yul\":6468:6486   */\n  tag_184\n  tag_97\n  jump\t// in\ntag_184:\n    /* \"#utility.yul\":6437:6488   */\ntag_183:\n    /* \"#utility.yul\":6517:6521   */\n  dup2\n    /* \"#utility.yul\":6510:6515   */\n  dup2\n    /* \"#utility.yul\":6506:6522   */\n  mul\n    /* \"#utility.yul\":6497:6522   */\n  swap1\n  pop\n    /* \"#utility.yul\":5455:6528   */\ntag_169:\n  swap4\n  swap3\n  pop\n  pop\n  pop\n  jump\t// out\n    /* \"#utility.yul\":6534:6611   */\ntag_101:\n    /* \"#utility.yul\":6571:6578   */\n  0x00\n    /* \"#utility.yul\":6600:6605   */\n  dup2\n    /* \"#utility.yul\":6589:6605   */\n  swap1\n  pop\n    /* \"#utility.yul\":6534:6611   */\n  swap2\n  swap1\n  pop\n  jump\t// out\n    /* \"#utility.yul\":6617:6902   */\ntag_21:\n    /* \"#utility.yul\":6677:6682   */\n  0x00\n    /* \"#utility.yul\":6701:6724   */\n  tag_187\n    /* \"#utility.yul\":6719:6723   */\n  dup3\n    /* \"#utility.yul\":6701:6724   */\n  tag_101\n  jump\t// in\ntag_187:\n    /* \"#utility.yul\":6693:6724   */\n  swap2\n  pop\n    /* \"#utility.yul\":6745:6772   */\n  tag_188\n    /* \"#utility.yul\":6763:6771   */\n  dup4\n    /* \"#utility.yul\":6745:6772   */\n  tag_101\n  jump\t// in\ntag_188:\n    /* \"#utility.yul\":6733:6772   */\n  swap3\n  pop\n    /* \"#utility.yul\":6791:6895   */\n  tag_189\n    /* \"#utility.yul\":6828:6894   */\n  0xffffffffffffffffffffffffffffffffffffffffffffffffffffffffffffffff\n    /* \"#utility.yul\":6818:6826   */\n  dup5\n    /* \"#utility.yul\":6812:6816   */\n  dup5\n    /* \"#utility.yul\":6791:6895   */\n  tag_100\n  jump\t// in\ntag_189:\n    /* \"#utility.yul\":6782:6895   */\n  swap1\n  pop\n    /* \"#utility.yul\":6617:6902   */\n  swap3\n  swap2\n  pop\n  pop\n  jump\t// out\n    /* \"#utility.yul\":6908:7256   */\ntag_23:\n    /* \"#utility.yul\":6948:6955   */\n  0x00\n    /* \"#utility.yul\":6971:6991   */\n  tag_191\n    /* \"#utility.yul\":6989:6990   */\n  dup3\n    /* \"#utility.yul\":6971:6991   */\n  tag_101\n  jump\t// in\ntag_191:\n    /* \"#utility.yul\":6966:6991   */\n  swap2\n  pop\n    /* \"#utility.yul\":7005:7025   */\n  tag_192\n    /* \"#utility.yul\":7023:7024   */\n  dup4\n    /* \"#utility.yul\":7005:7025   */\n  tag_101\n  jump\t// in\ntag_192:\n    /* \"#utility.yul\":7000:7025   */\n  swap3\n  pop\n    /* \"#utility.yul\":7193:7194   */\n  dup2\n    /* \"#utility.yul\":7125:7191   */\n  0xffffffffffffffffffffffffffffffffffffffffffffffffffffffffffffffff\n    /* \"#utility.yul\":7121:7195   */\n  div\n    /* \"#utility.yul\":7118:7119   */\n  dup4\n    /* \"#utility.yul\":7115:7196   */\n  gt\n    /* \"#utility.yul\":7110:7111   */\n  dup3\n    /* \"#utility.yul\":7103:7112   */\n  iszero\n    /* \"#utility.yul\":7096:7113   */\n  iszero\n    /* \"#utility.yul\":7092:7197   */\n  and\n    /* \"#utility.yul\":7089:7220   */\n  iszero\n  tag_193\n  jumpi\n    /* \"#utility.yul\":7200:7218   */\n  tag_194\n  tag_97\n  jump\t// in\ntag_194:\n    /* \"#utility.yul\":7089:7220   */\ntag_193:\n    /* \"#utility.yul\":7248:7249   */\n  dup3\n    /* \"#utility.yul\":7245:7246   */\n  dup3\n    /* \"#utility.yul\":7241:7250   */\n  mul\n    /* \"#utility.yul\":7230:7250   */\n  swap1\n  pop\n    /* \"#utility.yul\":6908:7256   */\n  swap3\n  swap2\n  pop\n  pop\n  jump\t// out\n    /* \"#utility.yul\":7262:7442   */\ntag_29:\n    /* \"#utility.yul\":7310:7387   */\n  0x4e487b7100000000000000000000000000000000000000000000000000000000\n    /* \"#utility.yul\":7307:7308   */\n  0x00\n    /* \"#utility.yul\":7300:7388   */\n  mstore\n    /* \"#utility.yul\":7407:7411   */\n  0x32\n    /* \"#utility.yul\":7404:7405   */\n  0x04\n    /* \"#utility.yul\":7397:7412   */\n  mstore\n    /* \"#utility.yul\":7431:7435   */\n  0x24\n    /* \"#utility.yul\":7428:7429   */\n  0x00\n    /* \"#utility.yul\":7421:7436   */\n  revert\n    /* \"#utility.yul\":7448:7617   */\ntag_102:\n    /* \"#utility.yul\":7532:7543   */\n  0x00\n    /* \"#utility.yul\":7566:7572   */\n  dup3\n    /* \"#utility.yul\":7561:7564   */\n  dup3\n    /* \"#utility.yul\":7554:7573   */\n  mstore\n    /* \"#utility.yul\":7606:7610   */\n  0x20\n    /* \"#utility.yul\":7601:7604   */\n  dup3\n    /* \"#utility.yul\":7597:7611   */\n  add\n    /* \"#utility.yul\":7582:7611   */\n  swap1\n  pop\n    /* \"#utility.yul\":7448:7617   */\n  swap3\n  swap2\n  pop\n  pop\n  jump\t// out\n    /* \"#utility.yul\":7623:7804   */\ntag_103:\n    /* \"#utility.yul\":7763:7796   */\n  0x45524332303a206d696e7420746f20746865207a65726f206164647265737300\n    /* \"#utility.yul\":7759:7760   */\n  0x00\n    /* \"#utility.yul\":7751:7757   */\n  dup3\n    /* \"#utility.yul\":7747:7761   */\n  add\n    /* \"#utility.yul\":7740:7797   */\n  mstore\n    /* \"#utility.yul\":7623:7804   */\n  pop\n  jump\t// out\n    /* \"#utility.yul\":7810:8176   */\ntag_104:\n    /* \"#utility.yul\":7952:7955   */\n  0x00\n    /* \"#utility.yul\":7973:8040   */\n  tag_199\n    /* \"#utility.yul\":8037:8039   */\n  0x1f\n    /* \"#utility.yul\":8032:8035   */\n  dup4\n    /* \"#utility.yul\":7973:8040   */\n  tag_102\n  jump\t// in\ntag_199:\n    /* \"#utility.yul\":7966:8040   */\n  swap2\n  pop\n    /* \"#utility.yul\":8049:8142   */\n  tag_200\n    /* \"#utility.yul\":8138:8141   */\n  dup3\n    /* \"#utility.yul\":8049:8142   */\n  tag_103\n  jump\t// in\ntag_200:\n    /* \"#utility.yul\":8167:8169   */\n  0x20\n    /* \"#utility.yul\":8162:8165   */\n  dup3\n    /* \"#utility.yul\":8158:8170   */\n  add\n    /* \"#utility.yul\":8151:8170   */\n  swap1\n  pop\n    /* \"#utility.yul\":7810:8176   */\n  swap2\n  swap1\n  pop\n  jump\t// out\n    /* \"#utility.yul\":8182:8601   */\ntag_60:\n    /* \"#utility.yul\":8348:8352   */\n  0x00\n    /* \"#utility.yul\":8386:8388   */\n  0x20\n    /* \"#utility.yul\":8375:8384   */\n  dup3\n    /* \"#utility.yul\":8371:8389   */\n  add\n    /* \"#utility.yul\":8363:8389   */\n  swap1\n  pop\n    /* \"#utility.yul\":8435:8444   */\n  dup2\n    /* \"#utility.yul\":8429:8433   */\n  dup2\n    /* \"#utility.yul\":8425:8445   */\n  sub\n    /* \"#utility.yul\":8421:8422   */\n  0x00\n    /* \"#utility.yul\":8410:8419   */\n  dup4\n    /* \"#utility.yul\":8406:8423   */\n  add\n    /* \"#utility.yul\":8399:8446   */\n  mstore\n    /* \"#utility.yul\":8463:8594   */\n  tag_202\n    /* \"#utility.yul\":8589:8593   */\n  dup2\n    /* \"#utility.yul\":8463:8594   */\n  tag_104\n  jump\t// in\ntag_202:\n    /* \"#utility.yul\":8455:8594   */\n  swap1\n  pop\n    /* \"#utility.yul\":8182:8601   */\n  swap2\n  swap1\n  pop\n  jump\t// out\n    /* \"#utility.yul\":8607:8912   */\ntag_64:\n    /* \"#utility.yul\":8647:8650   */\n  0x00\n    /* \"#utility.yul\":8666:8686   */\n  tag_204\n    /* \"#utility.yul\":8684:8685   */\n  dup3\n    /* \"#utility.yul\":8666:8686   */\n  tag_101\n  jump\t// in\ntag_204:\n    /* \"#utility.yul\":8661:8686   */\n  swap2\n  pop\n    /* \"#utility.yul\":8700:8720   */\n  tag_205\n    /* \"#utility.yul\":8718:8719   */\n  dup4\n    /* \"#utility.yul\":8700:8720   */\n  tag_101\n  jump\t// in\ntag_205:\n    /* \"#utility.yul\":8695:8720   */\n  swap3\n  pop\n    /* \"#utility.yul\":8854:8855   */\n  dup3\n    /* \"#utility.yul\":8786:8852   */\n  0xffffffffffffffffffffffffffffffffffffffffffffffffffffffffffffffff\n    /* \"#utility.yul\":8782:8856   */\n  sub\n    /* \"#utility.yul\":8779:8780   */\n  dup3\n    /* \"#utility.yul\":8776:8857   */\n  gt\n    /* \"#utility.yul\":8773:8880   */\n  iszero\n  tag_206\n  jumpi\n    /* \"#utility.yul\":8860:8878   */\n  tag_207\n  tag_97\n  jump\t// in\ntag_207:\n    /* \"#utility.yul\":8773:8880   */\ntag_206:\n    /* \"#utility.yul\":8904:8905   */\n  dup3\n    /* \"#utility.yul\":8901:8902   */\n  dup3\n    /* \"#utility.yul\":8897:8906   */\n  add\n    /* \"#utility.yul\":8890:8906   */\n  swap1\n  pop\n    /* \"#utility.yul\":8607:8912   */\n  swap3\n  swap2\n  pop\n  pop\n  jump\t// out\n    /* \"#utility.yul\":8918:9036   */\ntag_105:\n    /* \"#utility.yul\":9005:9029   */\n  tag_209\n    /* \"#utility.yul\":9023:9028   */\n  dup2\n    /* \"#utility.yul\":9005:9029   */\n  tag_101\n  jump\t// in\ntag_209:\n    /* \"#utility.yul\":9000:9003   */\n  dup3\n    /* \"#utility.yul\":8993:9030   */\n  mstore\n    /* \"#utility.yul\":8918:9036   */\n  pop\n  pop\n  jump\t// out\n    /* \"#utility.yul\":9042:9264   */\ntag_67:\n    /* \"#utility.yul\":9135:9139   */\n  0x00\n    /* \"#utility.yul\":9173:9175   */\n  0x20\n    /* \"#utility.yul\":9162:9171   */\n  dup3\n    /* \"#utility.yul\":9158:9176   */\n  add\n    /* \"#utility.yul\":9150:9176   */\n  swap1\n  pop\n    /* \"#utility.yul\":9186:9257   */\n  tag_211\n    /* \"#utility.yul\":9254:9255   */\n  0x00\n    /* \"#utility.yul\":9243:9252   */\n  dup4\n    /* \"#utility.yul\":9239:9256   */\n  add\n    /* \"#utility.yul\":9230:9236   */\n  dup5\n    /* \"#utility.yul\":9186:9257   */\n  tag_105\n  jump\t// in\ntag_211:\n    /* \"#utility.yul\":9042:9264   */\n  swap3\n  swap2\n  pop\n  pop\n  jump\t// out\n    /* \"#utility.yul\":9270:9450   */\ntag_106:\n    /* \"#utility.yul\":9318:9395   */\n  0x4e487b7100000000000000000000000000000000000000000000000000000000\n    /* \"#utility.yul\":9315:9316   */\n  0x00\n    /* \"#utility.yul\":9308:9396   */\n  mstore\n    /* \"#utility.yul\":9415:9419   */\n  0x22\n    /* \"#utility.yul\":9412:9413   */\n  0x04\n    /* \"#utility.yul\":9405:9420   */\n  mstore\n    /* \"#utility.yul\":9439:9443   */\n  0x24\n    /* \"#utility.yul\":9436:9437   */\n  0x00\n    /* \"#utility.yul\":9429:9444   */\n  revert\n    /* \"#utility.yul\":9456:9776   */\ntag_70:\n    /* \"#utility.yul\":9500:9506   */\n  0x00\n    /* \"#utility.yul\":9537:9538   */\n  0x02\n    /* \"#utility.yul\":9531:9535   */\n  dup3\n    /* \"#utility.yul\":9527:9539   */\n  div\n    /* \"#utility.yul\":9517:9539   */\n  swap1\n  pop\n    /* \"#utility.yul\":9584:9585   */\n  0x01\n    /* \"#utility.yul\":9578:9582   */\n  dup3\n    /* \"#utility.yul\":9574:9586   */\n  and\n    /* \"#utility.yul\":9605:9623   */\n  dup1\n    /* \"#utility.yul\":9595:9676   */\n  tag_214\n  jumpi\n    /* \"#utility.yul\":9661:9665   */\n  0x7f\n    /* \"#utility.yul\":9653:9659   */\n  dup3\n    /* \"#utility.yul\":9649:9666   */\n  and\n    /* \"#utility.yul\":9639:9666   */\n  swap2\n  pop\n    /* \"#utility.yul\":9595:9676   */\ntag_214:\n    /* \"#utility.yul\":9723:9725   */\n  0x20\n    /* \"#utility.yul\":9715:9721   */\n  dup3\n    /* \"#utility.yul\":9712:9726   */\n  lt\n    /* \"#utility.yul\":9692:9710   */\n  dup2\n    /* \"#utility.yul\":9689:9727   */\n  sub\n    /* \"#utility.yul\":9686:9770   */\n  tag_215\n  jumpi\n    /* \"#utility.yul\":9742:9760   */\n  tag_216\n  tag_106\n  jump\t// in\ntag_216:\n    /* \"#utility.yul\":9686:9770   */\ntag_215:\n    /* \"#utility.yul\":9507:9776   */\n  pop\n    /* \"#utility.yul\":9456:9776   */\n  swap2\n  swap1\n  pop\n  jump\t// out\n    /* \"contracts/Distribution/AtlantisDistribution.sol\":206:3827  contract AtlantisDistribution is ERC20, Ownable {... */\ntag_53:\n  dataSize(sub_0)\n  dup1\n  dataOffset(sub_0)\n  0x00\n  codecopy\n  0x00\n  return\nstop\n\nsub_0: assembly {\n        /* \"contracts/Distribution/AtlantisDistribution.sol\":206:3827  contract AtlantisDistribution is ERC20, Ownable {... */\n      mstore(0x40, 0x80)\n      callvalue\n      dup1\n      iszero\n      tag_1\n      jumpi\n      0x00\n      dup1\n      revert\n    tag_1:\n      pop\n      jumpi(tag_2, lt(calldatasize, 0x04))\n      shr(0xe0, calldataload(0x00))\n      dup1\n      0x715018a6\n      gt\n      tag_22\n      jumpi\n      dup1\n      0xa33e7d7e\n      gt\n      tag_23\n      jumpi\n      dup1\n      0xa33e7d7e\n      eq\n      tag_17\n      jumpi\n      dup1\n      0xa457c2d7\n      eq\n      tag_18\n      jumpi\n      dup1\n      0xa9059cbb\n      eq\n      tag_19\n      jumpi\n      dup1\n      0xdd62ed3e\n      eq\n      tag_20\n      jumpi\n      dup1\n      0xf2fde38b\n      eq\n      tag_21\n      jumpi\n      jump(tag_2)\n    tag_23:\n      dup1\n      0x715018a6\n      eq\n      tag_12\n      jumpi\n      dup1\n      0x7a0d944c\n      eq\n      tag_13\n      jumpi\n      dup1\n      0x8da5cb5b\n      eq\n      tag_14\n      jumpi\n      dup1\n      0x95d89b41\n      eq\n      tag_15\n      jumpi\n      dup1\n      0xa0712d68\n      eq\n      tag_16\n      jumpi\n      jump(tag_2)\n    tag_22:\n      dup1\n      0x18160ddd\n      gt\n      tag_24\n      jumpi\n      dup1\n      0x18160ddd\n      eq\n      tag_7\n      jumpi\n      dup1\n      0x23b872dd\n      eq\n      tag_8\n      jumpi\n      dup1\n      0x313ce567\n      eq\n      tag_9\n      jumpi\n      dup1\n      0x39509351\n      eq\n      tag_10\n      jumpi\n      dup1\n      0x70a08231\n      eq\n      tag_11\n      jumpi\n      jump(tag_2)\n    tag_24:\n      dup1\n      0x06fdde03\n      eq\n      tag_3\n      jumpi\n      dup1\n      0x095ea7b3\n      eq\n      tag_4\n      jumpi\n      dup1\n      0x13b954a3\n      eq\n      tag_5\n      jumpi\n      dup1\n      0x1506f480\n      eq\n      tag_6\n      jumpi\n    tag_2:\n      0x00\n      dup1\n      revert\n        /* \"contracts/Distribution/WrappedERC20Token.sol\":2057:2146  function name() public view virtual returns (string memory) {... */\n    tag_3:\n      tag_25\n      tag_26\n      jump\t// in\n    tag_25:\n      mload(0x40)\n      tag_27\n      swap2\n      swap1\n      tag_28\n      jump\t// in\n    tag_27:\n      mload(0x40)\n      dup1\n      swap2\n      sub\n      swap1\n      return\n        /* \"contracts/Distribution/WrappedERC20Token.sol\":4127:4293  function approve(address spender, uint256 amount) public virtual override returns (bool) {... */\n    tag_4:\n      tag_29\n      0x04\n      dup1\n      calldatasize\n      sub\n      dup2\n      add\n      swap1\n      tag_30\n      swap2\n      swap1\n      tag_31\n      jump\t// in\n    tag_30:\n      tag_32\n      jump\t// in\n    tag_29:\n      mload(0x40)\n      tag_33\n      swap2\n      swap1\n      tag_34\n      jump\t// in\n    tag_33:\n      mload(0x40)\n      dup1\n      swap2\n      sub\n      swap1\n      return\n        /* \"contracts/Distribution/AtlantisDistribution.sol\":3271:3672  function mintToRS(address account, uint256 amount) external onlyOwner {... */\n    tag_5:\n      tag_35\n      0x04\n      dup1\n      calldatasize\n      sub\n      dup2\n      add\n      swap1\n      tag_36\n      swap2\n      swap1\n      tag_31\n      jump\t// in\n    tag_36:\n      tag_37\n      jump\t// in\n    tag_35:\n      stop\n        /* \"contracts/Distribution/AtlantisDistribution.sol\":2775:3265  function mintToNRS(address account, uint256 amount) external onlyOwner {... */\n    tag_6:\n      tag_38\n      0x04\n      dup1\n      calldatasize\n      sub\n      dup2\n      add\n      swap1\n      tag_39\n      swap2\n      swap1\n      tag_31\n      jump\t// in\n    tag_39:\n      tag_40\n      jump\t// in\n    tag_38:\n      stop\n        /* \"contracts/Distribution/WrappedERC20Token.sol\":3118:3224  function totalSupply() public view virtual override returns (uint256) {... */\n    tag_7:\n      tag_41\n      tag_42\n      jump\t// in\n    tag_41:\n      mload(0x40)\n      tag_43\n      swap2\n      swap1\n      tag_44\n      jump\t// in\n    tag_43:\n      mload(0x40)\n      dup1\n      swap2\n      sub\n      swap1\n      return\n        /* \"contracts/Distribution/AtlantisDistribution.sol\":3678:3825  function transferFrom(address sender, address recipient, uint256 amount) public override returns (bool) {... */\n    tag_8:\n      tag_45\n      0x04\n      dup1\n      calldatasize\n      sub\n      dup2\n      add\n      swap1\n      tag_46\n      swap2\n      swap1\n      tag_47\n      jump\t// in\n    tag_46:\n      tag_48\n      jump\t// in\n    tag_45:\n      mload(0x40)\n      tag_49\n      swap2\n      swap1\n      tag_34\n      jump\t// in\n    tag_49:\n      mload(0x40)\n      dup1\n      swap2\n      sub\n      swap1\n      return\n        /* \"contracts/Distribution/WrappedERC20Token.sol\":2976:3058  function decimals() public view virtual returns (uint8) {... */\n    tag_9:\n      tag_50\n      tag_51\n      jump\t// in\n    tag_50:\n      mload(0x40)\n      tag_52\n      swap2\n      swap1\n      tag_53\n      jump\t// in\n    tag_52:\n      mload(0x40)\n      dup1\n      swap2\n      sub\n      swap1\n      return\n        /* \"contracts/Distribution/WrappedERC20Token.sol\":5569:5781  function increaseAllowance(address spender, uint256 addedValue) public virtual returns (bool) {... */\n    tag_10:\n      tag_54\n      0x04\n      dup1\n      calldatasize\n      sub\n      dup2\n      add\n      swap1\n      tag_55\n      swap2\n      swap1\n      tag_31\n      jump\t// in\n    tag_55:\n      tag_56\n      jump\t// in\n    tag_54:\n      mload(0x40)\n      tag_57\n      swap2\n      swap1\n      tag_34\n      jump\t// in\n    tag_57:\n      mload(0x40)\n      dup1\n      swap2\n      sub\n      swap1\n      return\n        /* \"contracts/Distribution/AtlantisDistribution.sol\":1171:1398  function balanceOf(address account) public view override returns (uint256) {... */\n    tag_11:\n      tag_58\n      0x04\n      dup1\n      calldatasize\n      sub\n      dup2\n      add\n      swap1\n      tag_59\n      swap2\n      swap1\n      tag_60\n      jump\t// in\n    tag_59:\n      tag_61\n      jump\t// in\n    tag_58:\n      mload(0x40)\n      tag_62\n      swap2\n      swap1\n      tag_44\n      jump\t// in\n    tag_62:\n      mload(0x40)\n      dup1\n      swap2\n      sub\n      swap1\n      return\n        /* \"@openzeppelin/contracts/access/Ownable.sol\":1605:1697  function renounceOwnership() public virtual onlyOwner {... */\n    tag_12:\n      tag_63\n      tag_64\n      jump\t// in\n    tag_63:\n      stop\n        /* \"contracts/Distribution/AtlantisDistribution.sol\":519:556  mapping (address => uint8) public lvl */\n    tag_13:\n      tag_65\n      0x04\n      dup1\n      calldatasize\n      sub\n      dup2\n      add\n      swap1\n      tag_66\n      swap2\n      swap1\n      tag_60\n      jump\t// in\n    tag_66:\n      tag_67\n      jump\t// in\n    tag_65:\n      mload(0x40)\n      tag_68\n      swap2\n      swap1\n      tag_53\n      jump\t// in\n    tag_68:\n      mload(0x40)\n      dup1\n      swap2\n      sub\n      swap1\n      return\n        /* \"@openzeppelin/contracts/access/Ownable.sol\":973:1058  function owner() public view virtual returns (address) {... */\n    tag_14:\n      tag_69\n      tag_70\n      jump\t// in\n    tag_69:\n      mload(0x40)\n      tag_71\n      swap2\n      swap1\n      tag_72\n      jump\t// in\n    tag_71:\n      mload(0x40)\n      dup1\n      swap2\n      sub\n      swap1\n      return\n        /* \"contracts/Distribution/WrappedERC20Token.sol\":2259:2352  function symbol() public view virtual returns (string memory) {... */\n    tag_15:\n      tag_73\n      tag_74\n      jump\t// in\n    tag_73:\n      mload(0x40)\n      tag_75\n      swap2\n      swap1\n      tag_28\n      jump\t// in\n    tag_75:\n      mload(0x40)\n      dup1\n      swap2\n      sub\n      swap1\n      return\n        /* \"contracts/Distribution/AtlantisDistribution.sol\":1652:2112  function mint(uint256 amount) external onlyOwner {... */\n    tag_16:\n      tag_76\n      0x04\n      dup1\n      calldatasize\n      sub\n      dup2\n      add\n      swap1\n      tag_77\n      swap2\n      swap1\n      tag_78\n      jump\t// in\n    tag_77:\n      tag_79\n      jump\t// in\n    tag_76:\n      stop\n        /* \"contracts/Distribution/AtlantisDistribution.sol\":2463:2769  function changeLvl(address account, uint8 newLvl) external onlyOwner {... */\n    tag_17:\n      tag_80\n      0x04\n      dup1\n      calldatasize\n      sub\n      dup2\n      add\n      swap1\n      tag_81\n      swap2\n      swap1\n      tag_82\n      jump\t// in\n    tag_81:\n      tag_83\n      jump\t// in\n    tag_80:\n      stop\n        /* \"contracts/Distribution/WrappedERC20Token.sol\":6268:6639  function decreaseAllowance(address spender, uint256 subtractedValue) public virtual returns (bool) {... */\n    tag_18:\n      tag_84\n      0x04\n      dup1\n      calldatasize\n      sub\n      dup2\n      add\n      swap1\n      tag_85\n      swap2\n      swap1\n      tag_31\n      jump\t// in\n    tag_85:\n      tag_86\n      jump\t// in\n    tag_84:\n      mload(0x40)\n      tag_87\n      swap2\n      swap1\n      tag_34\n      jump\t// in\n    tag_87:\n      mload(0x40)\n      dup1\n      swap2\n      sub\n      swap1\n      return\n        /* \"contracts/Distribution/AtlantisDistribution.sol\":2118:2457  function transfer(address recipient, uint256 amount) public override returns (bool) {... */\n    tag_19:\n      tag_88\n      0x04\n      dup1\n      calldatasize\n      sub\n      dup2\n      add\n      swap1\n      tag_89\n      swap2\n      swap1\n      tag_31\n      jump\t// in\n    tag_89:\n      tag_90\n      jump\t// in\n    tag_88:\n      mload(0x40)\n      tag_91\n      swap2\n      swap1\n      tag_34\n      jump\t// in\n    tag_91:\n      mload(0x40)\n      dup1\n      swap2\n      sub\n      swap1\n      return\n        /* \"contracts/Distribution/WrappedERC20Token.sol\":3840:3989  function allowance(address owner, address spender) public view virtual override returns (uint256) {... */\n    tag_20:\n      tag_92\n      0x04\n      dup1\n      calldatasize\n      sub\n      dup2\n      add\n      swap1\n      tag_93\n      swap2\n      swap1\n      tag_94\n      jump\t// in\n    tag_93:\n      tag_95\n      jump\t// in\n    tag_92:\n      mload(0x40)\n      tag_96\n      swap2\n      swap1\n      tag_44\n      jump\t// in\n    tag_96:\n      mload(0x40)\n      dup1\n      swap2\n      sub\n      swap1\n      return\n        /* \"@openzeppelin/contracts/access/Ownable.sol\":1846:2035  function transferOwnership(address newOwner) public virtual onlyOwner {... */\n    tag_21:\n      tag_97\n      0x04\n      dup1\n      calldatasize\n      sub\n      dup2\n      add\n      swap1\n      tag_98\n      swap2\n      swap1\n      tag_60\n      jump\t// in\n    tag_98:\n      tag_99\n      jump\t// in\n    tag_97:\n      stop\n        /* \"contracts/Distribution/WrappedERC20Token.sol\":2057:2146  function name() public view virtual returns (string memory) {... */\n    tag_26:\n        /* \"contracts/Distribution/WrappedERC20Token.sol\":2102:2115  string memory */\n      0x60\n        /* \"contracts/Distribution/WrappedERC20Token.sol\":2134:2139  _name */\n      0x03\n        /* \"contracts/Distribution/WrappedERC20Token.sol\":2127:2139  return _name */\n      dup1\n      sload\n      tag_101\n      swap1\n      tag_102\n      jump\t// in\n    tag_101:\n      dup1\n      0x1f\n      add\n      0x20\n      dup1\n      swap2\n      div\n      mul\n      0x20\n      add\n      mload(0x40)\n      swap1\n      dup2\n      add\n      0x40\n      mstore\n      dup1\n      swap3\n      swap2\n      swap1\n      dup2\n      dup2\n      mstore\n      0x20\n      add\n      dup3\n      dup1\n      sload\n      tag_103\n      swap1\n      tag_102\n      jump\t// in\n    tag_103:\n      dup1\n      iszero\n      tag_104\n      jumpi\n      dup1\n      0x1f\n      lt\n      tag_105\n      jumpi\n      0x0100\n      dup1\n      dup4\n      sload\n      div\n      mul\n      dup4\n      mstore\n      swap2\n      0x20\n      add\n      swap2\n      jump(tag_104)\n    tag_105:\n      dup3\n      add\n      swap2\n      swap1\n      0x00\n      mstore\n      keccak256(0x00, 0x20)\n      swap1\n    tag_106:\n      dup2\n      sload\n      dup2\n      mstore\n      swap1\n      0x01\n      add\n      swap1\n      0x20\n      add\n      dup1\n      dup4\n      gt\n      tag_106\n      jumpi\n      dup3\n      swap1\n      sub\n      0x1f\n      and\n      dup3\n      add\n      swap2\n    tag_104:\n      pop\n      pop\n      pop\n      pop\n      pop\n      swap1\n      pop\n        /* \"contracts/Distribution/WrappedERC20Token.sol\":2057:2146  function name() public view virtual returns (string memory) {... */\n      swap1\n      jump\t// out\n        /* \"contracts/Distribution/WrappedERC20Token.sol\":4127:4293  function approve(address spender, uint256 amount) public virtual override returns (bool) {... */\n    tag_32:\n        /* \"contracts/Distribution/WrappedERC20Token.sol\":4210:4214  bool */\n      0x00\n        /* \"contracts/Distribution/WrappedERC20Token.sol\":4226:4265  _approve(_msgSender(), spender, amount) */\n      tag_108\n        /* \"contracts/Distribution/WrappedERC20Token.sol\":4235:4247  _msgSender() */\n      tag_109\n        /* \"contracts/Distribution/WrappedERC20Token.sol\":4235:4245  _msgSender */\n      tag_110\n        /* \"contracts/Distribution/WrappedERC20Token.sol\":4235:4247  _msgSender() */\n      jump\t// in\n    tag_109:\n        /* \"contracts/Distribution/WrappedERC20Token.sol\":4249:4256  spender */\n      dup5\n        /* \"contracts/Distribution/WrappedERC20Token.sol\":4258:4264  amount */\n      dup5\n        /* \"contracts/Distribution/WrappedERC20Token.sol\":4226:4234  _approve */\n      tag_111\n        /* \"contracts/Distribution/WrappedERC20Token.sol\":4226:4265  _approve(_msgSender(), spender, amount) */\n      jump\t// in\n    tag_108:\n        /* \"contracts/Distribution/WrappedERC20Token.sol\":4282:4286  true */\n      0x01\n        /* \"contracts/Distribution/WrappedERC20Token.sol\":4275:4286  return true */\n      swap1\n      pop\n        /* \"contracts/Distribution/WrappedERC20Token.sol\":4127:4293  function approve(address spender, uint256 amount) public virtual override returns (bool) {... */\n      swap3\n      swap2\n      pop\n      pop\n      jump\t// out\n        /* \"contracts/Distribution/AtlantisDistribution.sol\":3271:3672  function mintToRS(address account, uint256 amount) external onlyOwner {... */\n    tag_37:\n        /* \"@openzeppelin/contracts/access/Ownable.sol\":1196:1208  _msgSender() */\n      tag_113\n        /* \"@openzeppelin/contracts/access/Ownable.sol\":1196:1206  _msgSender */\n      tag_110\n        /* \"@openzeppelin/contracts/access/Ownable.sol\":1196:1208  _msgSender() */\n      jump\t// in\n    tag_113:\n        /* \"@openzeppelin/contracts/access/Ownable.sol\":1185:1208  owner() == _msgSender() */\n      0xffffffffffffffffffffffffffffffffffffffff\n      and\n        /* \"@openzeppelin/contracts/access/Ownable.sol\":1185:1192  owner() */\n      tag_114\n        /* \"@openzeppelin/contracts/access/Ownable.sol\":1185:1190  owner */\n      tag_70\n        /* \"@openzeppelin/contracts/access/Ownable.sol\":1185:1192  owner() */\n      jump\t// in\n    tag_114:\n        /* \"@openzeppelin/contracts/access/Ownable.sol\":1185:1208  owner() == _msgSender() */\n      0xffffffffffffffffffffffffffffffffffffffff\n      and\n      eq\n        /* \"@openzeppelin/contracts/access/Ownable.sol\":1177:1245  require(owner() == _msgSender(), \"Ownable: caller is not the owner\") */\n      tag_115\n      jumpi\n      mload(0x40)\n      0x08c379a000000000000000000000000000000000000000000000000000000000\n      dup2\n      mstore\n      0x04\n      add\n      tag_116\n      swap1\n      tag_117\n      jump\t// in\n    tag_116:\n      mload(0x40)\n      dup1\n      swap2\n      sub\n      swap1\n      revert\n    tag_115:\n        /* \"contracts/Distribution/AtlantisDistribution.sol\":3375:3376  0 */\n      0x00\n        /* \"contracts/Distribution/AtlantisDistribution.sol\":3359:3362  lvl */\n      0x07\n        /* \"contracts/Distribution/AtlantisDistribution.sol\":3359:3371  lvl[account] */\n      0x00\n        /* \"contracts/Distribution/AtlantisDistribution.sol\":3363:3370  account */\n      dup5\n        /* \"contracts/Distribution/AtlantisDistribution.sol\":3359:3371  lvl[account] */\n      0xffffffffffffffffffffffffffffffffffffffff\n      and\n      0xffffffffffffffffffffffffffffffffffffffff\n      and\n      dup2\n      mstore\n      0x20\n      add\n      swap1\n      dup2\n      mstore\n      0x20\n      add\n      0x00\n      keccak256\n      0x00\n      swap1\n      sload\n      swap1\n      0x0100\n      exp\n      swap1\n      div\n      0xff\n      and\n        /* \"contracts/Distribution/AtlantisDistribution.sol\":3359:3376  lvl[account] == 0 */\n      0xff\n      and\n      eq\n        /* \"contracts/Distribution/AtlantisDistribution.sol\":3351:3417  require(lvl[account] == 0, \"account is not a regular shareholder\") */\n      tag_119\n      jumpi\n      mload(0x40)\n      0x08c379a000000000000000000000000000000000000000000000000000000000\n      dup2\n      mstore\n      0x04\n      add\n      tag_120\n      swap1\n      tag_121\n      jump\t// in\n    tag_120:\n      mload(0x40)\n      dup1\n      swap2\n      sub\n      swap1\n      revert\n    tag_119:\n        /* \"contracts/Distribution/AtlantisDistribution.sol\":3449:3455  amount */\n      dup1\n        /* \"contracts/Distribution/AtlantisDistribution.sol\":3427:3436  _balances */\n      0x00\n        /* \"contracts/Distribution/AtlantisDistribution.sol\":3427:3445  _balances[account] */\n      dup1\n        /* \"contracts/Distribution/AtlantisDistribution.sol\":3437:3444  account */\n      dup5\n        /* \"contracts/Distribution/AtlantisDistribution.sol\":3427:3445  _balances[account] */\n      0xffffffffffffffffffffffffffffffffffffffff\n      and\n      0xffffffffffffffffffffffffffffffffffffffff\n      and\n      dup2\n      mstore\n      0x20\n      add\n      swap1\n      dup2\n      mstore\n      0x20\n      add\n      0x00\n      keccak256\n      0x00\n        /* \"contracts/Distribution/AtlantisDistribution.sol\":3427:3455  _balances[account] += amount */\n      dup3\n      dup3\n      sload\n      tag_122\n      swap2\n      swap1\n      tag_123\n      jump\t// in\n    tag_122:\n      swap3\n      pop\n      pop\n      dup2\n      swap1\n      sstore\n      pop\n        /* \"contracts/Distribution/AtlantisDistribution.sol\":3470:3477  uint8 i */\n      0x00\n        /* \"contracts/Distribution/AtlantisDistribution.sol\":3480:3481  1 */\n      0x01\n        /* \"contracts/Distribution/AtlantisDistribution.sol\":3470:3481  uint8 i = 1 */\n      swap1\n      pop\n        /* \"contracts/Distribution/AtlantisDistribution.sol\":3465:3634  for (uint8 i = 1; i <= 2; i++) {... */\n    tag_124:\n        /* \"contracts/Distribution/AtlantisDistribution.sol\":3488:3489  2 */\n      0x02\n        /* \"contracts/Distribution/AtlantisDistribution.sol\":3483:3484  i */\n      dup2\n        /* \"contracts/Distribution/AtlantisDistribution.sol\":3483:3489  i <= 2 */\n      0xff\n      and\n      gt\n        /* \"contracts/Distribution/AtlantisDistribution.sol\":3465:3634  for (uint8 i = 1; i <= 2; i++) {... */\n      tag_125\n      jumpi\n        /* \"contracts/Distribution/AtlantisDistribution.sol\":3547:3548  2 */\n      0x02\n        /* \"contracts/Distribution/AtlantisDistribution.sol\":3538:3544  amount */\n      dup3\n        /* \"contracts/Distribution/AtlantisDistribution.sol\":3538:3548  amount / 2 */\n      tag_127\n      swap2\n      swap1\n      tag_128\n      jump\t// in\n    tag_127:\n        /* \"contracts/Distribution/AtlantisDistribution.sol\":3527:3532  total */\n      0x0c\n        /* \"contracts/Distribution/AtlantisDistribution.sol\":3533:3534  i */\n      dup3\n        /* \"contracts/Distribution/AtlantisDistribution.sol\":3527:3535  total[i] */\n      0xff\n      and\n      0x03\n      dup2\n      lt\n      tag_129\n      jumpi\n      tag_130\n      tag_131\n      jump\t// in\n    tag_130:\n    tag_129:\n      add\n      sload\n        /* \"contracts/Distribution/AtlantisDistribution.sol\":3527:3548  total[i] + amount / 2 */\n      tag_133\n      swap2\n      swap1\n      tag_123\n      jump\t// in\n    tag_133:\n        /* \"contracts/Distribution/AtlantisDistribution.sol\":3510:3519  currentBC */\n      0x09\n        /* \"contracts/Distribution/AtlantisDistribution.sol\":3520:3521  i */\n      dup3\n        /* \"contracts/Distribution/AtlantisDistribution.sol\":3510:3522  currentBC[i] */\n      0xff\n      and\n      0x03\n      dup2\n      lt\n      tag_134\n      jumpi\n      tag_135\n      tag_131\n      jump\t// in\n    tag_135:\n    tag_134:\n      add\n      0x00\n        /* \"contracts/Distribution/AtlantisDistribution.sol\":3510:3549  currentBC[i] *= (total[i] + amount / 2) */\n      dup3\n      dup3\n      sload\n      tag_137\n      swap2\n      swap1\n      tag_138\n      jump\t// in\n    tag_137:\n      swap3\n      pop\n      pop\n      dup2\n      swap1\n      sstore\n      pop\n        /* \"contracts/Distribution/AtlantisDistribution.sol\":3579:3584  total */\n      0x0c\n        /* \"contracts/Distribution/AtlantisDistribution.sol\":3585:3586  i */\n      dup2\n        /* \"contracts/Distribution/AtlantisDistribution.sol\":3579:3587  total[i] */\n      0xff\n      and\n      0x03\n      dup2\n      lt\n      tag_139\n      jumpi\n      tag_140\n      tag_131\n      jump\t// in\n    tag_140:\n    tag_139:\n      add\n      sload\n        /* \"contracts/Distribution/AtlantisDistribution.sol\":3563:3572  currentBC */\n      0x09\n        /* \"contracts/Distribution/AtlantisDistribution.sol\":3573:3574  i */\n      dup3\n        /* \"contracts/Distribution/AtlantisDistribution.sol\":3563:3575  currentBC[i] */\n      0xff\n      and\n      0x03\n      dup2\n      lt\n      tag_142\n      jumpi\n      tag_143\n      tag_131\n      jump\t// in\n    tag_143:\n    tag_142:\n      add\n      0x00\n        /* \"contracts/Distribution/AtlantisDistribution.sol\":3563:3587  currentBC[i] /= total[i] */\n      dup3\n      dup3\n      sload\n      tag_145\n      swap2\n      swap1\n      tag_128\n      jump\t// in\n    tag_145:\n      swap3\n      pop\n      pop\n      dup2\n      swap1\n      sstore\n      pop\n        /* \"contracts/Distribution/AtlantisDistribution.sol\":3622:3623  2 */\n      0x02\n        /* \"contracts/Distribution/AtlantisDistribution.sol\":3613:3619  amount */\n      dup3\n        /* \"contracts/Distribution/AtlantisDistribution.sol\":3613:3623  amount / 2 */\n      tag_146\n      swap2\n      swap1\n      tag_128\n      jump\t// in\n    tag_146:\n        /* \"contracts/Distribution/AtlantisDistribution.sol\":3601:3606  total */\n      0x0c\n        /* \"contracts/Distribution/AtlantisDistribution.sol\":3607:3608  i */\n      dup3\n        /* \"contracts/Distribution/AtlantisDistribution.sol\":3601:3609  total[i] */\n      0xff\n      and\n      0x03\n      dup2\n      lt\n      tag_147\n      jumpi\n      tag_148\n      tag_131\n      jump\t// in\n    tag_148:\n    tag_147:\n      add\n      0x00\n        /* \"contracts/Distribution/AtlantisDistribution.sol\":3601:3623  total[i] += amount / 2 */\n      dup3\n      dup3\n      sload\n      tag_150\n      swap2\n      swap1\n      tag_123\n      jump\t// in\n    tag_150:\n      swap3\n      pop\n      pop\n      dup2\n      swap1\n      sstore\n      pop\n        /* \"contracts/Distribution/AtlantisDistribution.sol\":3491:3494  i++ */\n      dup1\n      dup1\n      tag_151\n      swap1\n      tag_152\n      jump\t// in\n    tag_151:\n      swap2\n      pop\n      pop\n        /* \"contracts/Distribution/AtlantisDistribution.sol\":3465:3634  for (uint8 i = 1; i <= 2; i++) {... */\n      jump(tag_124)\n    tag_125:\n      pop\n        /* \"contracts/Distribution/AtlantisDistribution.sol\":3659:3665  amount */\n      dup1\n        /* \"contracts/Distribution/AtlantisDistribution.sol\":3643:3655  _totalSupply */\n      0x02\n      0x00\n        /* \"contracts/Distribution/AtlantisDistribution.sol\":3643:3665  _totalSupply += amount */\n      dup3\n      dup3\n      sload\n      tag_153\n      swap2\n      swap1\n      tag_123\n      jump\t// in\n    tag_153:\n      swap3\n      pop\n      pop\n      dup2\n      swap1\n      sstore\n      pop\n        /* \"contracts/Distribution/AtlantisDistribution.sol\":3271:3672  function mintToRS(address account, uint256 amount) external onlyOwner {... */\n      pop\n      pop\n      jump\t// out\n        /* \"contracts/Distribution/AtlantisDistribution.sol\":2775:3265  function mintToNRS(address account, uint256 amount) external onlyOwner {... */\n    tag_40:\n        /* \"@openzeppelin/contracts/access/Ownable.sol\":1196:1208  _msgSender() */\n      tag_155\n        /* \"@openzeppelin/contracts/access/Ownable.sol\":1196:1206  _msgSender */\n      tag_110\n        /* \"@openzeppelin/contracts/access/Ownable.sol\":1196:1208  _msgSender() */\n      jump\t// in\n    tag_155:\n        /* \"@openzeppelin/contracts/access/Ownable.sol\":1185:1208  owner() == _msgSender() */\n      0xffffffffffffffffffffffffffffffffffffffff\n      and\n        /* \"@openzeppelin/contracts/access/Ownable.sol\":1185:1192  owner() */\n      tag_156\n        /* \"@openzeppelin/contracts/access/Ownable.sol\":1185:1190  owner */\n      tag_70\n        /* \"@openzeppelin/contracts/access/Ownable.sol\":1185:1192  owner() */\n      jump\t// in\n    tag_156:\n        /* \"@openzeppelin/contracts/access/Ownable.sol\":1185:1208  owner() == _msgSender() */\n      0xffffffffffffffffffffffffffffffffffffffff\n      and\n      eq\n        /* \"@openzeppelin/contracts/access/Ownable.sol\":1177:1245  require(owner() == _msgSender(), \"Ownable: caller is not the owner\") */\n      tag_157\n      jumpi\n      mload(0x40)\n      0x08c379a000000000000000000000000000000000000000000000000000000000\n      dup2\n      mstore\n      0x04\n      add\n      tag_158\n      swap1\n      tag_117\n      jump\t// in\n    tag_158:\n      mload(0x40)\n      dup1\n      swap2\n      sub\n      swap1\n      revert\n    tag_157:\n        /* \"contracts/Distribution/AtlantisDistribution.sol\":2880:2881  0 */\n      0x00\n        /* \"contracts/Distribution/AtlantisDistribution.sol\":2864:2867  lvl */\n      0x07\n        /* \"contracts/Distribution/AtlantisDistribution.sol\":2864:2876  lvl[account] */\n      0x00\n        /* \"contracts/Distribution/AtlantisDistribution.sol\":2868:2875  account */\n      dup5\n        /* \"contracts/Distribution/AtlantisDistribution.sol\":2864:2876  lvl[account] */\n      0xffffffffffffffffffffffffffffffffffffffff\n      and\n      0xffffffffffffffffffffffffffffffffffffffff\n      and\n      dup2\n      mstore\n      0x20\n      add\n      swap1\n      dup2\n      mstore\n      0x20\n      add\n      0x00\n      keccak256\n      0x00\n      swap1\n      sload\n      swap1\n      0x0100\n      exp\n      swap1\n      div\n      0xff\n      and\n        /* \"contracts/Distribution/AtlantisDistribution.sol\":2864:2881  lvl[account] != 0 */\n      0xff\n      and\n      sub\n        /* \"contracts/Distribution/AtlantisDistribution.sol\":2856:2918  require(lvl[account] != 0, \"account is a regular shareholder\") */\n      tag_160\n      jumpi\n      mload(0x40)\n      0x08c379a000000000000000000000000000000000000000000000000000000000\n      dup2\n      mstore\n      0x04\n      add\n      tag_161\n      swap1\n      tag_162\n      jump\t// in\n    tag_161:\n      mload(0x40)\n      dup1\n      swap2\n      sub\n      swap1\n      revert\n    tag_160:\n        /* \"contracts/Distribution/AtlantisDistribution.sol\":2928:2949  relaxBalance(account) */\n      tag_163\n        /* \"contracts/Distribution/AtlantisDistribution.sol\":2941:2948  account */\n      dup3\n        /* \"contracts/Distribution/AtlantisDistribution.sol\":2928:2940  relaxBalance */\n      tag_164\n        /* \"contracts/Distribution/AtlantisDistribution.sol\":2928:2949  relaxBalance(account) */\n      jump\t// in\n    tag_163:\n        /* \"contracts/Distribution/AtlantisDistribution.sol\":2981:2987  amount */\n      dup1\n        /* \"contracts/Distribution/AtlantisDistribution.sol\":2959:2968  _balances */\n      0x00\n        /* \"contracts/Distribution/AtlantisDistribution.sol\":2959:2977  _balances[account] */\n      dup1\n        /* \"contracts/Distribution/AtlantisDistribution.sol\":2969:2976  account */\n      dup5\n        /* \"contracts/Distribution/AtlantisDistribution.sol\":2959:2977  _balances[account] */\n      0xffffffffffffffffffffffffffffffffffffffff\n      and\n      0xffffffffffffffffffffffffffffffffffffffff\n      and\n      dup2\n      mstore\n      0x20\n      add\n      swap1\n      dup2\n      mstore\n      0x20\n      add\n      0x00\n      keccak256\n      0x00\n        /* \"contracts/Distribution/AtlantisDistribution.sol\":2959:2987  _balances[account] += amount */\n      dup3\n      dup3\n      sload\n      tag_165\n      swap2\n      swap1\n      tag_123\n      jump\t// in\n    tag_165:\n      swap3\n      pop\n      pop\n      dup2\n      swap1\n      sstore\n      pop\n        /* \"contracts/Distribution/AtlantisDistribution.sol\":3027:3033  amount */\n      dup1\n        /* \"contracts/Distribution/AtlantisDistribution.sol\":3023:3024  2 */\n      0x02\n        /* \"contracts/Distribution/AtlantisDistribution.sol\":3023:3033  2 * amount */\n      tag_166\n      swap2\n      swap1\n      tag_138\n      jump\t// in\n    tag_166:\n        /* \"contracts/Distribution/AtlantisDistribution.sol\":2997:3006  _balances */\n      0x00\n        /* \"contracts/Distribution/AtlantisDistribution.sol\":2997:3019  _balances[fund_wallet] */\n      dup1\n        /* \"contracts/Distribution/AtlantisDistribution.sol\":3007:3018  fund_wallet */\n      0x0f\n      0x00\n      swap1\n      sload\n      swap1\n      0x0100\n      exp\n      swap1\n      div\n      0xffffffffffffffffffffffffffffffffffffffff\n      and\n        /* \"contracts/Distribution/AtlantisDistribution.sol\":2997:3019  _balances[fund_wallet] */\n      0xffffffffffffffffffffffffffffffffffffffff\n      and\n      0xffffffffffffffffffffffffffffffffffffffff\n      and\n      dup2\n      mstore\n      0x20\n      add\n      swap1\n      dup2\n      mstore\n      0x20\n      add\n      0x00\n      keccak256\n      0x00\n        /* \"contracts/Distribution/AtlantisDistribution.sol\":2997:3033  _balances[fund_wallet] += 2 * amount */\n      dup3\n      dup3\n      sload\n      tag_167\n      swap2\n      swap1\n      tag_123\n      jump\t// in\n    tag_167:\n      swap3\n      pop\n      pop\n      dup2\n      swap1\n      sstore\n      pop\n        /* \"contracts/Distribution/AtlantisDistribution.sol\":3044:3055  uint8 other */\n      0x00\n        /* \"contracts/Distribution/AtlantisDistribution.sol\":3062:3065  lvl */\n      0x07\n        /* \"contracts/Distribution/AtlantisDistribution.sol\":3062:3074  lvl[account] */\n      0x00\n        /* \"contracts/Distribution/AtlantisDistribution.sol\":3066:3073  account */\n      dup5\n        /* \"contracts/Distribution/AtlantisDistribution.sol\":3062:3074  lvl[account] */\n      0xffffffffffffffffffffffffffffffffffffffff\n      and\n      0xffffffffffffffffffffffffffffffffffffffff\n      and\n      dup2\n      mstore\n      0x20\n      add\n      swap1\n      dup2\n      mstore\n      0x20\n      add\n      0x00\n      keccak256\n      0x00\n      swap1\n      sload\n      swap1\n      0x0100\n      exp\n      swap1\n      div\n      0xff\n      and\n        /* \"contracts/Distribution/AtlantisDistribution.sol\":3058:3059  1 */\n      0x01\n        /* \"contracts/Distribution/AtlantisDistribution.sol\":3058:3074  1 - lvl[account] */\n      tag_168\n      swap2\n      swap1\n      tag_169\n      jump\t// in\n    tag_168:\n        /* \"contracts/Distribution/AtlantisDistribution.sol\":3044:3074  uint8 other = 1 - lvl[account] */\n      swap1\n      pop\n        /* \"contracts/Distribution/AtlantisDistribution.sol\":3120:3126  amount */\n      dup2\n        /* \"contracts/Distribution/AtlantisDistribution.sol\":3105:3110  total */\n      0x0c\n        /* \"contracts/Distribution/AtlantisDistribution.sol\":3111:3116  other */\n      dup3\n        /* \"contracts/Distribution/AtlantisDistribution.sol\":3105:3117  total[other] */\n      0xff\n      and\n      0x03\n      dup2\n      lt\n      tag_170\n      jumpi\n      tag_171\n      tag_131\n      jump\t// in\n    tag_171:\n    tag_170:\n      add\n      sload\n        /* \"contracts/Distribution/AtlantisDistribution.sol\":3105:3126  total[other] + amount */\n      tag_173\n      swap2\n      swap1\n      tag_123\n      jump\t// in\n    tag_173:\n        /* \"contracts/Distribution/AtlantisDistribution.sol\":3084:3093  currentBC */\n      0x09\n        /* \"contracts/Distribution/AtlantisDistribution.sol\":3094:3099  other */\n      dup3\n        /* \"contracts/Distribution/AtlantisDistribution.sol\":3084:3100  currentBC[other] */\n      0xff\n      and\n      0x03\n      dup2\n      lt\n      tag_174\n      jumpi\n      tag_175\n      tag_131\n      jump\t// in\n    tag_175:\n    tag_174:\n      add\n      0x00\n        /* \"contracts/Distribution/AtlantisDistribution.sol\":3084:3127  currentBC[other] *= (total[other] + amount) */\n      dup3\n      dup3\n      sload\n      tag_177\n      swap2\n      swap1\n      tag_138\n      jump\t// in\n    tag_177:\n      swap3\n      pop\n      pop\n      dup2\n      swap1\n      sstore\n      pop\n        /* \"contracts/Distribution/AtlantisDistribution.sol\":3157:3162  total */\n      0x0c\n        /* \"contracts/Distribution/AtlantisDistribution.sol\":3163:3168  other */\n      dup2\n        /* \"contracts/Distribution/AtlantisDistribution.sol\":3157:3169  total[other] */\n      0xff\n      and\n      0x03\n      dup2\n      lt\n      tag_178\n      jumpi\n      tag_179\n      tag_131\n      jump\t// in\n    tag_179:\n    tag_178:\n      add\n      sload\n        /* \"contracts/Distribution/AtlantisDistribution.sol\":3137:3146  currentBC */\n      0x09\n        /* \"contracts/Distribution/AtlantisDistribution.sol\":3147:3152  other */\n      dup3\n        /* \"contracts/Distribution/AtlantisDistribution.sol\":3137:3153  currentBC[other] */\n      0xff\n      and\n      0x03\n      dup2\n      lt\n      tag_181\n      jumpi\n      tag_182\n      tag_131\n      jump\t// in\n    tag_182:\n    tag_181:\n      add\n      0x00\n        /* \"contracts/Distribution/AtlantisDistribution.sol\":3137:3169  currentBC[other] /= total[other] */\n      dup3\n      dup3\n      sload\n      tag_184\n      swap2\n      swap1\n      tag_128\n      jump\t// in\n    tag_184:\n      swap3\n      pop\n      pop\n      dup2\n      swap1\n      sstore\n      pop\n        /* \"contracts/Distribution/AtlantisDistribution.sol\":3191:3197  amount */\n      dup2\n        /* \"contracts/Distribution/AtlantisDistribution.sol\":3179:3184  total */\n      0x0c\n        /* \"contracts/Distribution/AtlantisDistribution.sol\":3185:3186  1 */\n      0x01\n        /* \"contracts/Distribution/AtlantisDistribution.sol\":3179:3187  total[1] */\n      0x03\n      dup2\n      lt\n      tag_185\n      jumpi\n      tag_186\n      tag_131\n      jump\t// in\n    tag_186:\n    tag_185:\n      add\n      0x00\n        /* \"contracts/Distribution/AtlantisDistribution.sol\":3179:3197  total[1] += amount */\n      dup3\n      dup3\n      sload\n      tag_188\n      swap2\n      swap1\n      tag_123\n      jump\t// in\n    tag_188:\n      swap3\n      pop\n      pop\n      dup2\n      swap1\n      sstore\n      pop\n        /* \"contracts/Distribution/AtlantisDistribution.sol\":3219:3225  amount */\n      dup2\n        /* \"contracts/Distribution/AtlantisDistribution.sol\":3207:3212  total */\n      0x0c\n        /* \"contracts/Distribution/AtlantisDistribution.sol\":3213:3214  2 */\n      0x02\n        /* \"contracts/Distribution/AtlantisDistribution.sol\":3207:3215  total[2] */\n      0x03\n      dup2\n      lt\n      tag_189\n      jumpi\n      tag_190\n      tag_131\n      jump\t// in\n    tag_190:\n    tag_189:\n      add\n      0x00\n        /* \"contracts/Distribution/AtlantisDistribution.sol\":3207:3225  total[2] += amount */\n      dup3\n      dup3\n      sload\n      tag_192\n      swap2\n      swap1\n      tag_123\n      jump\t// in\n    tag_192:\n      swap3\n      pop\n      pop\n      dup2\n      swap1\n      sstore\n      pop\n        /* \"contracts/Distribution/AtlantisDistribution.sol\":3252:3258  amount */\n      dup2\n        /* \"contracts/Distribution/AtlantisDistribution.sol\":3236:3248  _totalSupply */\n      0x02\n      0x00\n        /* \"contracts/Distribution/AtlantisDistribution.sol\":3236:3258  _totalSupply += amount */\n      dup3\n      dup3\n      sload\n      tag_193\n      swap2\n      swap1\n      tag_123\n      jump\t// in\n    tag_193:\n      swap3\n      pop\n      pop\n      dup2\n      swap1\n      sstore\n      pop\n        /* \"contracts/Distribution/AtlantisDistribution.sol\":2846:3265  {... */\n      pop\n        /* \"contracts/Distribution/AtlantisDistribution.sol\":2775:3265  function mintToNRS(address account, uint256 amount) external onlyOwner {... */\n      pop\n      pop\n      jump\t// out\n        /* \"contracts/Distribution/WrappedERC20Token.sol\":3118:3224  function totalSupply() public view virtual override returns (uint256) {... */\n    tag_42:\n        /* \"contracts/Distribution/WrappedERC20Token.sol\":3179:3186  uint256 */\n      0x00\n        /* \"contracts/Distribution/WrappedERC20Token.sol\":3205:3217  _totalSupply */\n      sload(0x02)\n        /* \"contracts/Distribution/WrappedERC20Token.sol\":3198:3217  return _totalSupply */\n      swap1\n      pop\n        /* \"contracts/Distribution/WrappedERC20Token.sol\":3118:3224  function totalSupply() public view virtual override returns (uint256) {... */\n      swap1\n      jump\t// out\n        /* \"contracts/Distribution/AtlantisDistribution.sol\":3678:3825  function transferFrom(address sender, address recipient, uint256 amount) public override returns (bool) {... */\n    tag_48:\n        /* \"contracts/Distribution/AtlantisDistribution.sol\":3776:3780  bool */\n      0x00\n        /* \"contracts/Distribution/AtlantisDistribution.sol\":3814:3818  true */\n      0x01\n        /* \"contracts/Distribution/AtlantisDistribution.sol\":3807:3818  return true */\n      swap1\n      pop\n        /* \"contracts/Distribution/AtlantisDistribution.sol\":3678:3825  function transferFrom(address sender, address recipient, uint256 amount) public override returns (bool) {... */\n      swap4\n      swap3\n      pop\n      pop\n      pop\n      jump\t// out\n        /* \"contracts/Distribution/WrappedERC20Token.sol\":2976:3058  function decimals() public view virtual returns (uint8) {... */\n    tag_51:\n        /* \"contracts/Distribution/WrappedERC20Token.sol\":3025:3030  uint8 */\n      0x00\n        /* \"contracts/Distribution/WrappedERC20Token.sol\":3049:3051  18 */\n      0x12\n        /* \"contracts/Distribution/WrappedERC20Token.sol\":3042:3051  return 18 */\n      swap1\n      pop\n        /* \"contracts/Distribution/WrappedERC20Token.sol\":2976:3058  function decimals() public view virtual returns (uint8) {... */\n      swap1\n      jump\t// out\n        /* \"contracts/Distribution/WrappedERC20Token.sol\":5569:5781  function increaseAllowance(address spender, uint256 addedValue) public virtual returns (bool) {... */\n    tag_56:\n        /* \"contracts/Distribution/WrappedERC20Token.sol\":5657:5661  bool */\n      0x00\n        /* \"contracts/Distribution/WrappedERC20Token.sol\":5673:5753  _approve(_msgSender(), spender, _allowances[_msgSender()][spender] + addedValue) */\n      tag_198\n        /* \"contracts/Distribution/WrappedERC20Token.sol\":5682:5694  _msgSender() */\n      tag_199\n        /* \"contracts/Distribution/WrappedERC20Token.sol\":5682:5692  _msgSender */\n      tag_110\n        /* \"contracts/Distribution/WrappedERC20Token.sol\":5682:5694  _msgSender() */\n      jump\t// in\n    tag_199:\n        /* \"contracts/Distribution/WrappedERC20Token.sol\":5696:5703  spender */\n      dup5\n        /* \"contracts/Distribution/WrappedERC20Token.sol\":5742:5752  addedValue */\n      dup5\n        /* \"contracts/Distribution/WrappedERC20Token.sol\":5705:5716  _allowances */\n      0x01\n        /* \"contracts/Distribution/WrappedERC20Token.sol\":5705:5730  _allowances[_msgSender()] */\n      0x00\n        /* \"contracts/Distribution/WrappedERC20Token.sol\":5717:5729  _msgSender() */\n      tag_200\n        /* \"contracts/Distribution/WrappedERC20Token.sol\":5717:5727  _msgSender */\n      tag_110\n        /* \"contracts/Distribution/WrappedERC20Token.sol\":5717:5729  _msgSender() */\n      jump\t// in\n    tag_200:\n        /* \"contracts/Distribution/WrappedERC20Token.sol\":5705:5730  _allowances[_msgSender()] */\n      0xffffffffffffffffffffffffffffffffffffffff\n      and\n      0xffffffffffffffffffffffffffffffffffffffff\n      and\n      dup2\n      mstore\n      0x20\n      add\n      swap1\n      dup2\n      mstore\n      0x20\n      add\n      0x00\n      keccak256\n        /* \"contracts/Distribution/WrappedERC20Token.sol\":5705:5739  _allowances[_msgSender()][spender] */\n      0x00\n        /* \"contracts/Distribution/WrappedERC20Token.sol\":5731:5738  spender */\n      dup9\n        /* \"contracts/Distribution/WrappedERC20Token.sol\":5705:5739  _allowances[_msgSender()][spender] */\n      0xffffffffffffffffffffffffffffffffffffffff\n      and\n      0xffffffffffffffffffffffffffffffffffffffff\n      and\n      dup2\n      mstore\n      0x20\n      add\n      swap1\n      dup2\n      mstore\n      0x20\n      add\n      0x00\n      keccak256\n      sload\n        /* \"contracts/Distribution/WrappedERC20Token.sol\":5705:5752  _allowances[_msgSender()][spender] + addedValue */\n      tag_201\n      swap2\n      swap1\n      tag_123\n      jump\t// in\n    tag_201:\n        /* \"contracts/Distribution/WrappedERC20Token.sol\":5673:5681  _approve */\n      tag_111\n        /* \"contracts/Distribution/WrappedERC20Token.sol\":5673:5753  _approve(_msgSender(), spender, _allowances[_msgSender()][spender] + addedValue) */\n      jump\t// in\n    tag_198:\n        /* \"contracts/Distribution/WrappedERC20Token.sol\":5770:5774  true */\n      0x01\n        /* \"contracts/Distribution/WrappedERC20Token.sol\":5763:5774  return true */\n      swap1\n      pop\n        /* \"contracts/Distribution/WrappedERC20Token.sol\":5569:5781  function increaseAllowance(address spender, uint256 addedValue) public virtual returns (bool) {... */\n      swap3\n      swap2\n      pop\n      pop\n      jump\t// out\n        /* \"contracts/Distribution/AtlantisDistribution.sol\":1171:1398  function balanceOf(address account) public view override returns (uint256) {... */\n    tag_61:\n        /* \"contracts/Distribution/AtlantisDistribution.sol\":1237:1244  uint256 */\n      0x00\n        /* \"contracts/Distribution/AtlantisDistribution.sol\":1276:1277  0 */\n      dup1\n        /* \"contracts/Distribution/AtlantisDistribution.sol\":1260:1263  lvl */\n      0x07\n        /* \"contracts/Distribution/AtlantisDistribution.sol\":1260:1272  lvl[account] */\n      0x00\n        /* \"contracts/Distribution/AtlantisDistribution.sol\":1264:1271  account */\n      dup5\n        /* \"contracts/Distribution/AtlantisDistribution.sol\":1260:1272  lvl[account] */\n      0xffffffffffffffffffffffffffffffffffffffff\n      and\n      0xffffffffffffffffffffffffffffffffffffffff\n      and\n      dup2\n      mstore\n      0x20\n      add\n      swap1\n      dup2\n      mstore\n      0x20\n      add\n      0x00\n      keccak256\n      0x00\n      swap1\n      sload\n      swap1\n      0x0100\n      exp\n      swap1\n      div\n      0xff\n      and\n        /* \"contracts/Distribution/AtlantisDistribution.sol\":1260:1277  lvl[account] == 0 */\n      0xff\n      and\n      sub\n        /* \"contracts/Distribution/AtlantisDistribution.sol\":1256:1316  if (lvl[account] == 0)... */\n      tag_203\n      jumpi\n        /* \"contracts/Distribution/AtlantisDistribution.sol\":1298:1307  _balances */\n      0x00\n        /* \"contracts/Distribution/AtlantisDistribution.sol\":1298:1316  _balances[account] */\n      dup1\n        /* \"contracts/Distribution/AtlantisDistribution.sol\":1308:1315  account */\n      dup4\n        /* \"contracts/Distribution/AtlantisDistribution.sol\":1298:1316  _balances[account] */\n      0xffffffffffffffffffffffffffffffffffffffff\n      and\n      0xffffffffffffffffffffffffffffffffffffffff\n      and\n      dup2\n      mstore\n      0x20\n      add\n      swap1\n      dup2\n      mstore\n      0x20\n      add\n      0x00\n      keccak256\n      sload\n        /* \"contracts/Distribution/AtlantisDistribution.sol\":1291:1316  return _balances[account] */\n      swap1\n      pop\n      jump(tag_202)\n        /* \"contracts/Distribution/AtlantisDistribution.sol\":1256:1316  if (lvl[account] == 0)... */\n    tag_203:\n        /* \"contracts/Distribution/AtlantisDistribution.sol\":1380:1382  BC */\n      0x06\n        /* \"contracts/Distribution/AtlantisDistribution.sol\":1380:1391  BC[account] */\n      0x00\n        /* \"contracts/Distribution/AtlantisDistribution.sol\":1383:1390  account */\n      dup4\n        /* \"contracts/Distribution/AtlantisDistribution.sol\":1380:1391  BC[account] */\n      0xffffffffffffffffffffffffffffffffffffffff\n      and\n      0xffffffffffffffffffffffffffffffffffffffff\n      and\n      dup2\n      mstore\n      0x20\n      add\n      swap1\n      dup2\n      mstore\n      0x20\n      add\n      0x00\n      keccak256\n      sload\n        /* \"contracts/Distribution/AtlantisDistribution.sol\":1359:1368  _balances */\n      0x00\n        /* \"contracts/Distribution/AtlantisDistribution.sol\":1359:1377  _balances[account] */\n      dup1\n        /* \"contracts/Distribution/AtlantisDistribution.sol\":1369:1376  account */\n      dup5\n        /* \"contracts/Distribution/AtlantisDistribution.sol\":1359:1377  _balances[account] */\n      0xffffffffffffffffffffffffffffffffffffffff\n      and\n      0xffffffffffffffffffffffffffffffffffffffff\n      and\n      dup2\n      mstore\n      0x20\n      add\n      swap1\n      dup2\n      mstore\n      0x20\n      add\n      0x00\n      keccak256\n      sload\n        /* \"contracts/Distribution/AtlantisDistribution.sol\":1333:1342  currentBC */\n      0x09\n        /* \"contracts/Distribution/AtlantisDistribution.sol\":1343:1346  lvl */\n      0x07\n        /* \"contracts/Distribution/AtlantisDistribution.sol\":1343:1355  lvl[account] */\n      0x00\n        /* \"contracts/Distribution/AtlantisDistribution.sol\":1347:1354  account */\n      dup7\n        /* \"contracts/Distribution/AtlantisDistribution.sol\":1343:1355  lvl[account] */\n      0xffffffffffffffffffffffffffffffffffffffff\n      and\n      0xffffffffffffffffffffffffffffffffffffffff\n      and\n      dup2\n      mstore\n      0x20\n      add\n      swap1\n      dup2\n      mstore\n      0x20\n      add\n      0x00\n      keccak256\n      0x00\n      swap1\n      sload\n      swap1\n      0x0100\n      exp\n      swap1\n      div\n      0xff\n      and\n        /* \"contracts/Distribution/AtlantisDistribution.sol\":1333:1356  currentBC[lvl[account]] */\n      0xff\n      and\n      0x03\n      dup2\n      lt\n      tag_204\n      jumpi\n      tag_205\n      tag_131\n      jump\t// in\n    tag_205:\n    tag_204:\n      add\n      sload\n        /* \"contracts/Distribution/AtlantisDistribution.sol\":1333:1377  currentBC[lvl[account]] * _balances[account] */\n      tag_207\n      swap2\n      swap1\n      tag_138\n      jump\t// in\n    tag_207:\n        /* \"contracts/Distribution/AtlantisDistribution.sol\":1333:1391  currentBC[lvl[account]] * _balances[account] / BC[account] */\n      tag_208\n      swap2\n      swap1\n      tag_128\n      jump\t// in\n    tag_208:\n        /* \"contracts/Distribution/AtlantisDistribution.sol\":1326:1391  return currentBC[lvl[account]] * _balances[account] / BC[account] */\n      swap1\n      pop\n        /* \"contracts/Distribution/AtlantisDistribution.sol\":1171:1398  function balanceOf(address account) public view override returns (uint256) {... */\n    tag_202:\n      swap2\n      swap1\n      pop\n      jump\t// out\n        /* \"@openzeppelin/contracts/access/Ownable.sol\":1605:1697  function renounceOwnership() public virtual onlyOwner {... */\n    tag_64:\n        /* \"@openzeppelin/contracts/access/Ownable.sol\":1196:1208  _msgSender() */\n      tag_210\n        /* \"@openzeppelin/contracts/access/Ownable.sol\":1196:1206  _msgSender */\n      tag_110\n        /* \"@openzeppelin/contracts/access/Ownable.sol\":1196:1208  _msgSender() */\n      jump\t// in\n    tag_210:\n        /* \"@openzeppelin/contracts/access/Ownable.sol\":1185:1208  owner() == _msgSender() */\n      0xffffffffffffffffffffffffffffffffffffffff\n      and\n        /* \"@openzeppelin/contracts/access/Ownable.sol\":1185:1192  owner() */\n      tag_211\n        /* \"@openzeppelin/contracts/access/Ownable.sol\":1185:1190  owner */\n      tag_70\n        /* \"@openzeppelin/contracts/access/Ownable.sol\":1185:1192  owner() */\n      jump\t// in\n    tag_211:\n        /* \"@openzeppelin/contracts/access/Ownable.sol\":1185:1208  owner() == _msgSender() */\n      0xffffffffffffffffffffffffffffffffffffffff\n      and\n      eq\n        /* \"@openzeppelin/contracts/access/Ownable.sol\":1177:1245  require(owner() == _msgSender(), \"Ownable: caller is not the owner\") */\n      tag_212\n      jumpi\n      mload(0x40)\n      0x08c379a000000000000000000000000000000000000000000000000000000000\n      dup2\n      mstore\n      0x04\n      add\n      tag_213\n      swap1\n      tag_117\n      jump\t// in\n    tag_213:\n      mload(0x40)\n      dup1\n      swap2\n      sub\n      swap1\n      revert\n    tag_212:\n        /* \"@openzeppelin/contracts/access/Ownable.sol\":1669:1690  _setOwner(address(0)) */\n      tag_215\n        /* \"@openzeppelin/contracts/access/Ownable.sol\":1687:1688  0 */\n      0x00\n        /* \"@openzeppelin/contracts/access/Ownable.sol\":1669:1678  _setOwner */\n      tag_216\n        /* \"@openzeppelin/contracts/access/Ownable.sol\":1669:1690  _setOwner(address(0)) */\n      jump\t// in\n    tag_215:\n        /* \"@openzeppelin/contracts/access/Ownable.sol\":1605:1697  function renounceOwnership() public virtual onlyOwner {... */\n      jump\t// out\n        /* \"contracts/Distribution/AtlantisDistribution.sol\":519:556  mapping (address => uint8) public lvl */\n    tag_67:\n      mstore(0x20, 0x07)\n      dup1\n      0x00\n      mstore\n      keccak256(0x00, 0x40)\n      0x00\n      swap2\n      pop\n      sload\n      swap1\n      0x0100\n      exp\n      swap1\n      div\n      0xff\n      and\n      dup2\n      jump\t// out\n        /* \"@openzeppelin/contracts/access/Ownable.sol\":973:1058  function owner() public view virtual returns (address) {... */\n    tag_70:\n        /* \"@openzeppelin/contracts/access/Ownable.sol\":1019:1026  address */\n      0x00\n        /* \"@openzeppelin/contracts/access/Ownable.sol\":1045:1051  _owner */\n      0x05\n      0x00\n      swap1\n      sload\n      swap1\n      0x0100\n      exp\n      swap1\n      div\n      0xffffffffffffffffffffffffffffffffffffffff\n      and\n        /* \"@openzeppelin/contracts/access/Ownable.sol\":1038:1051  return _owner */\n      swap1\n      pop\n        /* \"@openzeppelin/contracts/access/Ownable.sol\":973:1058  function owner() public view virtual returns (address) {... */\n      swap1\n      jump\t// out\n        /* \"contracts/Distribution/WrappedERC20Token.sol\":2259:2352  function symbol() public view virtual returns (string memory) {... */\n    tag_74:\n        /* \"contracts/Distribution/WrappedERC20Token.sol\":2306:2319  string memory */\n      0x60\n        /* \"contracts/Distribution/WrappedERC20Token.sol\":2338:2345  _symbol */\n      0x04\n        /* \"contracts/Distribution/WrappedERC20Token.sol\":2331:2345  return _symbol */\n      dup1\n      sload\n      tag_219\n      swap1\n      tag_102\n      jump\t// in\n    tag_219:\n      dup1\n      0x1f\n      add\n      0x20\n      dup1\n      swap2\n      div\n      mul\n      0x20\n      add\n      mload(0x40)\n      swap1\n      dup2\n      add\n      0x40\n      mstore\n      dup1\n      swap3\n      swap2\n      swap1\n      dup2\n      dup2\n      mstore\n      0x20\n      add\n      dup3\n      dup1\n      sload\n      tag_220\n      swap1\n      tag_102\n      jump\t// in\n    tag_220:\n      dup1\n      iszero\n      tag_221\n      jumpi\n      dup1\n      0x1f\n      lt\n      tag_222\n      jumpi\n      0x0100\n      dup1\n      dup4\n      sload\n      div\n      mul\n      dup4\n      mstore\n      swap2\n      0x20\n      add\n      swap2\n      jump(tag_221)\n    tag_222:\n      dup3\n      add\n      swap2\n      swap1\n      0x00\n      mstore\n      keccak256(0x00, 0x20)\n      swap1\n    tag_223:\n      dup2\n      sload\n      dup2\n      mstore\n      swap1\n      0x01\n      add\n      swap1\n      0x20\n      add\n      dup1\n      dup4\n      gt\n      tag_223\n      jumpi\n      dup3\n      swap1\n      sub\n      0x1f\n      and\n      dup3\n      add\n      swap2\n    tag_221:\n      pop\n      pop\n      pop\n      pop\n      pop\n      swap1\n      pop\n        /* \"contracts/Distribution/WrappedERC20Token.sol\":2259:2352  function symbol() public view virtual returns (string memory) {... */\n      swap1\n      jump\t// out\n        /* \"contracts/Distribution/AtlantisDistribution.sol\":1652:2112  function mint(uint256 amount) external onlyOwner {... */\n    tag_79:\n        /* \"@openzeppelin/contracts/access/Ownable.sol\":1196:1208  _msgSender() */\n      tag_225\n        /* \"@openzeppelin/contracts/access/Ownable.sol\":1196:1206  _msgSender */\n      tag_110\n        /* \"@openzeppelin/contracts/access/Ownable.sol\":1196:1208  _msgSender() */\n      jump\t// in\n    tag_225:\n        /* \"@openzeppelin/contracts/access/Ownable.sol\":1185:1208  owner() == _msgSender() */\n      0xffffffffffffffffffffffffffffffffffffffff\n      and\n        /* \"@openzeppelin/contracts/access/Ownable.sol\":1185:1192  owner() */\n      tag_226\n        /* \"@openzeppelin/contracts/access/Ownable.sol\":1185:1190  owner */\n      tag_70\n        /* \"@openzeppelin/contracts/access/Ownable.sol\":1185:1192  owner() */\n      jump\t// in\n    tag_226:\n        /* \"@openzeppelin/contracts/access/Ownable.sol\":1185:1208  owner() == _msgSender() */\n      0xffffffffffffffffffffffffffffffffffffffff\n      and\n      eq\n        /* \"@openzeppelin/contracts/access/Ownable.sol\":1177:1245  require(owner() == _msgSender(), \"Ownable: caller is not the owner\") */\n      tag_227\n      jumpi\n      mload(0x40)\n      0x08c379a000000000000000000000000000000000000000000000000000000000\n      dup2\n      mstore\n      0x04\n      add\n      tag_228\n      swap1\n      tag_117\n      jump\t// in\n    tag_228:\n      mload(0x40)\n      dup1\n      swap2\n      sub\n      swap1\n      revert\n    tag_227:\n        /* \"contracts/Distribution/AtlantisDistribution.sol\":1727:1728  0 */\n      0x00\n        /* \"contracts/Distribution/AtlantisDistribution.sol\":1715:1720  total */\n      0x0c\n        /* \"contracts/Distribution/AtlantisDistribution.sol\":1721:1722  2 */\n      0x02\n        /* \"contracts/Distribution/AtlantisDistribution.sol\":1715:1723  total[2] */\n      0x03\n      dup2\n      lt\n      tag_230\n      jumpi\n      tag_231\n      tag_131\n      jump\t// in\n    tag_231:\n    tag_230:\n      add\n      sload\n        /* \"contracts/Distribution/AtlantisDistribution.sol\":1715:1728  total[2] != 0 */\n      eq\n        /* \"contracts/Distribution/AtlantisDistribution.sol\":1711:1833  if (total[2] != 0) {... */\n      tag_233\n      jumpi\n        /* \"contracts/Distribution/AtlantisDistribution.sol\":1781:1782  4 */\n      0x04\n        /* \"contracts/Distribution/AtlantisDistribution.sol\":1772:1778  amount */\n      dup2\n        /* \"contracts/Distribution/AtlantisDistribution.sol\":1772:1782  amount / 4 */\n      tag_234\n      swap2\n      swap1\n      tag_128\n      jump\t// in\n    tag_234:\n        /* \"contracts/Distribution/AtlantisDistribution.sol\":1761:1766  total */\n      0x0c\n        /* \"contracts/Distribution/AtlantisDistribution.sol\":1767:1768  2 */\n      0x02\n        /* \"contracts/Distribution/AtlantisDistribution.sol\":1761:1769  total[2] */\n      0x03\n      dup2\n      lt\n      tag_235\n      jumpi\n      tag_236\n      tag_131\n      jump\t// in\n    tag_236:\n    tag_235:\n      add\n      sload\n        /* \"contracts/Distribution/AtlantisDistribution.sol\":1761:1782  total[2] + amount / 4 */\n      tag_238\n      swap2\n      swap1\n      tag_123\n      jump\t// in\n    tag_238:\n        /* \"contracts/Distribution/AtlantisDistribution.sol\":1744:1753  currentBC */\n      0x09\n        /* \"contracts/Distribution/AtlantisDistribution.sol\":1754:1755  2 */\n      0x02\n        /* \"contracts/Distribution/AtlantisDistribution.sol\":1744:1756  currentBC[2] */\n      0x03\n      dup2\n      lt\n      tag_239\n      jumpi\n      tag_240\n      tag_131\n      jump\t// in\n    tag_240:\n    tag_239:\n      add\n      0x00\n        /* \"contracts/Distribution/AtlantisDistribution.sol\":1744:1783  currentBC[2] *= (total[2] + amount / 4) */\n      dup3\n      dup3\n      sload\n      tag_242\n      swap2\n      swap1\n      tag_138\n      jump\t// in\n    tag_242:\n      swap3\n      pop\n      pop\n      dup2\n      swap1\n      sstore\n      pop\n        /* \"contracts/Distribution/AtlantisDistribution.sol\":1814:1819  total */\n      0x0c\n        /* \"contracts/Distribution/AtlantisDistribution.sol\":1820:1821  2 */\n      0x02\n        /* \"contracts/Distribution/AtlantisDistribution.sol\":1814:1822  total[2] */\n      0x03\n      dup2\n      lt\n      tag_243\n      jumpi\n      tag_244\n      tag_131\n      jump\t// in\n    tag_244:\n    tag_243:\n      add\n      sload\n        /* \"contracts/Distribution/AtlantisDistribution.sol\":1797:1806  currentBC */\n      0x09\n        /* \"contracts/Distribution/AtlantisDistribution.sol\":1807:1808  2 */\n      0x02\n        /* \"contracts/Distribution/AtlantisDistribution.sol\":1797:1809  currentBC[2] */\n      0x03\n      dup2\n      lt\n      tag_246\n      jumpi\n      tag_247\n      tag_131\n      jump\t// in\n    tag_247:\n    tag_246:\n      add\n      0x00\n        /* \"contracts/Distribution/AtlantisDistribution.sol\":1797:1822  currentBC[2] /=  total[2] */\n      dup3\n      dup3\n      sload\n      tag_249\n      swap2\n      swap1\n      tag_128\n      jump\t// in\n    tag_249:\n      swap3\n      pop\n      pop\n      dup2\n      swap1\n      sstore\n      pop\n        /* \"contracts/Distribution/AtlantisDistribution.sol\":1711:1833  if (total[2] != 0) {... */\n    tag_233:\n        /* \"contracts/Distribution/AtlantisDistribution.sol\":1858:1859  0 */\n      0x00\n        /* \"contracts/Distribution/AtlantisDistribution.sol\":1846:1851  total */\n      0x0c\n        /* \"contracts/Distribution/AtlantisDistribution.sol\":1852:1853  1 */\n      0x01\n        /* \"contracts/Distribution/AtlantisDistribution.sol\":1846:1854  total[1] */\n      0x03\n      dup2\n      lt\n      tag_250\n      jumpi\n      tag_251\n      tag_131\n      jump\t// in\n    tag_251:\n    tag_250:\n      add\n      sload\n        /* \"contracts/Distribution/AtlantisDistribution.sol\":1846:1859  total[1] != 0 */\n      eq\n        /* \"contracts/Distribution/AtlantisDistribution.sol\":1842:1963  if (total[1] != 0) {... */\n      tag_253\n      jumpi\n        /* \"contracts/Distribution/AtlantisDistribution.sol\":1912:1913  4 */\n      0x04\n        /* \"contracts/Distribution/AtlantisDistribution.sol\":1903:1909  amount */\n      dup2\n        /* \"contracts/Distribution/AtlantisDistribution.sol\":1903:1913  amount / 4 */\n      tag_254\n      swap2\n      swap1\n      tag_128\n      jump\t// in\n    tag_254:\n        /* \"contracts/Distribution/AtlantisDistribution.sol\":1892:1897  total */\n      0x0c\n        /* \"contracts/Distribution/AtlantisDistribution.sol\":1898:1899  1 */\n      0x01\n        /* \"contracts/Distribution/AtlantisDistribution.sol\":1892:1900  total[1] */\n      0x03\n      dup2\n      lt\n      tag_255\n      jumpi\n      tag_256\n      tag_131\n      jump\t// in\n    tag_256:\n    tag_255:\n      add\n      sload\n        /* \"contracts/Distribution/AtlantisDistribution.sol\":1892:1913  total[1] + amount / 4 */\n      tag_258\n      swap2\n      swap1\n      tag_123\n      jump\t// in\n    tag_258:\n        /* \"contracts/Distribution/AtlantisDistribution.sol\":1875:1884  currentBC */\n      0x09\n        /* \"contracts/Distribution/AtlantisDistribution.sol\":1885:1886  1 */\n      0x01\n        /* \"contracts/Distribution/AtlantisDistribution.sol\":1875:1887  currentBC[1] */\n      0x03\n      dup2\n      lt\n      tag_259\n      jumpi\n      tag_260\n      tag_131\n      jump\t// in\n    tag_260:\n    tag_259:\n      add\n      0x00\n        /* \"contracts/Distribution/AtlantisDistribution.sol\":1875:1914  currentBC[1] *= (total[1] + amount / 4) */\n      dup3\n      dup3\n      sload\n      tag_262\n      swap2\n      swap1\n      tag_138\n      jump\t// in\n    tag_262:\n      swap3\n      pop\n      pop\n      dup2\n      swap1\n      sstore\n      pop\n        /* \"contracts/Distribution/AtlantisDistribution.sol\":1944:1949  total */\n      0x0c\n        /* \"contracts/Distribution/AtlantisDistribution.sol\":1950:1951  1 */\n      0x01\n        /* \"contracts/Distribution/AtlantisDistribution.sol\":1944:1952  total[1] */\n      0x03\n      dup2\n      lt\n      tag_263\n      jumpi\n      tag_264\n      tag_131\n      jump\t// in\n    tag_264:\n    tag_263:\n      add\n      sload\n        /* \"contracts/Distribution/AtlantisDistribution.sol\":1928:1937  currentBC */\n      0x09\n        /* \"contracts/Distribution/AtlantisDistribution.sol\":1938:1939  1 */\n      0x01\n        /* \"contracts/Distribution/AtlantisDistribution.sol\":1928:1940  currentBC[1] */\n      0x03\n      dup2\n      lt\n      tag_266\n      jumpi\n      tag_267\n      tag_131\n      jump\t// in\n    tag_267:\n    tag_266:\n      add\n      0x00\n        /* \"contracts/Distribution/AtlantisDistribution.sol\":1928:1952  currentBC[1] /= total[1] */\n      dup3\n      dup3\n      sload\n      tag_269\n      swap2\n      swap1\n      tag_128\n      jump\t// in\n    tag_269:\n      swap3\n      pop\n      pop\n      dup2\n      swap1\n      sstore\n      pop\n        /* \"contracts/Distribution/AtlantisDistribution.sol\":1842:1963  if (total[1] != 0) {... */\n    tag_253:\n        /* \"contracts/Distribution/AtlantisDistribution.sol\":2007:2008  2 */\n      0x02\n        /* \"contracts/Distribution/AtlantisDistribution.sol\":1998:2004  amount */\n      dup2\n        /* \"contracts/Distribution/AtlantisDistribution.sol\":1998:2008  amount / 2 */\n      tag_270\n      swap2\n      swap1\n      tag_128\n      jump\t// in\n    tag_270:\n        /* \"contracts/Distribution/AtlantisDistribution.sol\":1972:1981  _balances */\n      0x00\n        /* \"contracts/Distribution/AtlantisDistribution.sol\":1972:1994  _balances[fund_wallet] */\n      dup1\n        /* \"contracts/Distribution/AtlantisDistribution.sol\":1982:1993  fund_wallet */\n      0x0f\n      0x00\n      swap1\n      sload\n      swap1\n      0x0100\n      exp\n      swap1\n      div\n      0xffffffffffffffffffffffffffffffffffffffff\n      and\n        /* \"contracts/Distribution/AtlantisDistribution.sol\":1972:1994  _balances[fund_wallet] */\n      0xffffffffffffffffffffffffffffffffffffffff\n      and\n      0xffffffffffffffffffffffffffffffffffffffff\n      and\n      dup2\n      mstore\n      0x20\n      add\n      swap1\n      dup2\n      mstore\n      0x20\n      add\n      0x00\n      keccak256\n      0x00\n        /* \"contracts/Distribution/AtlantisDistribution.sol\":1972:2008  _balances[fund_wallet] += amount / 2 */\n      dup3\n      dup3\n      sload\n      tag_271\n      swap2\n      swap1\n      tag_123\n      jump\t// in\n    tag_271:\n      swap3\n      pop\n      pop\n      dup2\n      swap1\n      sstore\n      pop\n        /* \"contracts/Distribution/AtlantisDistribution.sol\":2039:2040  4 */\n      0x04\n        /* \"contracts/Distribution/AtlantisDistribution.sol\":2030:2036  amount */\n      dup2\n        /* \"contracts/Distribution/AtlantisDistribution.sol\":2030:2040  amount / 4 */\n      tag_272\n      swap2\n      swap1\n      tag_128\n      jump\t// in\n    tag_272:\n        /* \"contracts/Distribution/AtlantisDistribution.sol\":2018:2023  total */\n      0x0c\n        /* \"contracts/Distribution/AtlantisDistribution.sol\":2024:2025  1 */\n      0x01\n        /* \"contracts/Distribution/AtlantisDistribution.sol\":2018:2026  total[1] */\n      0x03\n      dup2\n      lt\n      tag_273\n      jumpi\n      tag_274\n      tag_131\n      jump\t// in\n    tag_274:\n    tag_273:\n      add\n      0x00\n        /* \"contracts/Distribution/AtlantisDistribution.sol\":2018:2040  total[1] += amount / 4 */\n      dup3\n      dup3\n      sload\n      tag_276\n      swap2\n      swap1\n      tag_123\n      jump\t// in\n    tag_276:\n      swap3\n      pop\n      pop\n      dup2\n      swap1\n      sstore\n      pop\n        /* \"contracts/Distribution/AtlantisDistribution.sol\":2071:2072  4 */\n      0x04\n        /* \"contracts/Distribution/AtlantisDistribution.sol\":2062:2068  amount */\n      dup2\n        /* \"contracts/Distribution/AtlantisDistribution.sol\":2062:2072  amount / 4 */\n      tag_277\n      swap2\n      swap1\n      tag_128\n      jump\t// in\n    tag_277:\n        /* \"contracts/Distribution/AtlantisDistribution.sol\":2050:2055  total */\n      0x0c\n        /* \"contracts/Distribution/AtlantisDistribution.sol\":2056:2057  2 */\n      0x02\n        /* \"contracts/Distribution/AtlantisDistribution.sol\":2050:2058  total[2] */\n      0x03\n      dup2\n      lt\n      tag_278\n      jumpi\n      tag_279\n      tag_131\n      jump\t// in\n    tag_279:\n    tag_278:\n      add\n      0x00\n        /* \"contracts/Distribution/AtlantisDistribution.sol\":2050:2072  total[2] += amount / 4 */\n      dup3\n      dup3\n      sload\n      tag_281\n      swap2\n      swap1\n      tag_123\n      jump\t// in\n    tag_281:\n      swap3\n      pop\n      pop\n      dup2\n      swap1\n      sstore\n      pop\n        /* \"contracts/Distribution/AtlantisDistribution.sol\":2099:2105  amount */\n      dup1\n        /* \"contracts/Distribution/AtlantisDistribution.sol\":2083:2095  _totalSupply */\n      0x02\n      0x00\n        /* \"contracts/Distribution/AtlantisDistribution.sol\":2083:2105  _totalSupply += amount */\n      dup3\n      dup3\n      sload\n      tag_282\n      swap2\n      swap1\n      tag_123\n      jump\t// in\n    tag_282:\n      swap3\n      pop\n      pop\n      dup2\n      swap1\n      sstore\n      pop\n        /* \"contracts/Distribution/AtlantisDistribution.sol\":1652:2112  function mint(uint256 amount) external onlyOwner {... */\n      pop\n      jump\t// out\n        /* \"contracts/Distribution/AtlantisDistribution.sol\":2463:2769  function changeLvl(address account, uint8 newLvl) external onlyOwner {... */\n    tag_83:\n        /* \"@openzeppelin/contracts/access/Ownable.sol\":1196:1208  _msgSender() */\n      tag_284\n        /* \"@openzeppelin/contracts/access/Ownable.sol\":1196:1206  _msgSender */\n      tag_110\n        /* \"@openzeppelin/contracts/access/Ownable.sol\":1196:1208  _msgSender() */\n      jump\t// in\n    tag_284:\n        /* \"@openzeppelin/contracts/access/Ownable.sol\":1185:1208  owner() == _msgSender() */\n      0xffffffffffffffffffffffffffffffffffffffff\n      and\n        /* \"@openzeppelin/contracts/access/Ownable.sol\":1185:1192  owner() */\n      tag_285\n        /* \"@openzeppelin/contracts/access/Ownable.sol\":1185:1190  owner */\n      tag_70\n        /* \"@openzeppelin/contracts/access/Ownable.sol\":1185:1192  owner() */\n      jump\t// in\n    tag_285:\n        /* \"@openzeppelin/contracts/access/Ownable.sol\":1185:1208  owner() == _msgSender() */\n      0xffffffffffffffffffffffffffffffffffffffff\n      and\n      eq\n        /* \"@openzeppelin/contracts/access/Ownable.sol\":1177:1245  require(owner() == _msgSender(), \"Ownable: caller is not the owner\") */\n      tag_286\n      jumpi\n      mload(0x40)\n      0x08c379a000000000000000000000000000000000000000000000000000000000\n      dup2\n      mstore\n      0x04\n      add\n      tag_287\n      swap1\n      tag_117\n      jump\t// in\n    tag_287:\n      mload(0x40)\n      dup1\n      swap2\n      sub\n      swap1\n      revert\n    tag_286:\n        /* \"contracts/Distribution/AtlantisDistribution.sol\":2542:2563  relaxBalance(account) */\n      tag_289\n        /* \"contracts/Distribution/AtlantisDistribution.sol\":2555:2562  account */\n      dup3\n        /* \"contracts/Distribution/AtlantisDistribution.sol\":2542:2554  relaxBalance */\n      tag_164\n        /* \"contracts/Distribution/AtlantisDistribution.sol\":2542:2563  relaxBalance(account) */\n      jump\t// in\n    tag_289:\n        /* \"contracts/Distribution/AtlantisDistribution.sol\":2573:2585  uint8 oldLvl */\n      0x00\n        /* \"contracts/Distribution/AtlantisDistribution.sol\":2588:2591  lvl */\n      0x07\n        /* \"contracts/Distribution/AtlantisDistribution.sol\":2588:2600  lvl[account] */\n      0x00\n        /* \"contracts/Distribution/AtlantisDistribution.sol\":2592:2599  account */\n      dup5\n        /* \"contracts/Distribution/AtlantisDistribution.sol\":2588:2600  lvl[account] */\n      0xffffffffffffffffffffffffffffffffffffffff\n      and\n      0xffffffffffffffffffffffffffffffffffffffff\n      and\n      dup2\n      mstore\n      0x20\n      add\n      swap1\n      dup2\n      mstore\n      0x20\n      add\n      0x00\n      keccak256\n      0x00\n      swap1\n      sload\n      swap1\n      0x0100\n      exp\n      swap1\n      div\n      0xff\n      and\n        /* \"contracts/Distribution/AtlantisDistribution.sol\":2573:2600  uint8 oldLvl = lvl[account] */\n      swap1\n      pop\n        /* \"contracts/Distribution/AtlantisDistribution.sol\":2625:2631  newLvl */\n      dup2\n        /* \"contracts/Distribution/AtlantisDistribution.sol\":2610:2613  lvl */\n      0x07\n        /* \"contracts/Distribution/AtlantisDistribution.sol\":2610:2622  lvl[account] */\n      0x00\n        /* \"contracts/Distribution/AtlantisDistribution.sol\":2614:2621  account */\n      dup6\n        /* \"contracts/Distribution/AtlantisDistribution.sol\":2610:2622  lvl[account] */\n      0xffffffffffffffffffffffffffffffffffffffff\n      and\n      0xffffffffffffffffffffffffffffffffffffffff\n      and\n      dup2\n      mstore\n      0x20\n      add\n      swap1\n      dup2\n      mstore\n      0x20\n      add\n      0x00\n      keccak256\n      0x00\n        /* \"contracts/Distribution/AtlantisDistribution.sol\":2610:2631  lvl[account] = newLvl */\n      0x0100\n      exp\n      dup2\n      sload\n      dup2\n      0xff\n      mul\n      not\n      and\n      swap1\n      dup4\n      0xff\n      and\n      mul\n      or\n      swap1\n      sstore\n      pop\n        /* \"contracts/Distribution/AtlantisDistribution.sol\":2658:2667  _balances */\n      0x00\n        /* \"contracts/Distribution/AtlantisDistribution.sol\":2658:2676  _balances[account] */\n      dup1\n        /* \"contracts/Distribution/AtlantisDistribution.sol\":2668:2675  account */\n      dup5\n        /* \"contracts/Distribution/AtlantisDistribution.sol\":2658:2676  _balances[account] */\n      0xffffffffffffffffffffffffffffffffffffffff\n      and\n      0xffffffffffffffffffffffffffffffffffffffff\n      and\n      dup2\n      mstore\n      0x20\n      add\n      swap1\n      dup2\n      mstore\n      0x20\n      add\n      0x00\n      keccak256\n      sload\n        /* \"contracts/Distribution/AtlantisDistribution.sol\":2641:2646  total */\n      0x0c\n        /* \"contracts/Distribution/AtlantisDistribution.sol\":2647:2653  oldLvl */\n      dup3\n        /* \"contracts/Distribution/AtlantisDistribution.sol\":2641:2654  total[oldLvl] */\n      0xff\n      and\n      0x03\n      dup2\n      lt\n      tag_290\n      jumpi\n      tag_291\n      tag_131\n      jump\t// in\n    tag_291:\n    tag_290:\n      add\n      0x00\n        /* \"contracts/Distribution/AtlantisDistribution.sol\":2641:2676  total[oldLvl] -= _balances[account] */\n      dup3\n      dup3\n      sload\n      tag_293\n      swap2\n      swap1\n      tag_294\n      jump\t// in\n    tag_293:\n      swap3\n      pop\n      pop\n      dup2\n      swap1\n      sstore\n      pop\n        /* \"contracts/Distribution/AtlantisDistribution.sol\":2703:2712  _balances */\n      0x00\n        /* \"contracts/Distribution/AtlantisDistribution.sol\":2703:2721  _balances[account] */\n      dup1\n        /* \"contracts/Distribution/AtlantisDistribution.sol\":2713:2720  account */\n      dup5\n        /* \"contracts/Distribution/AtlantisDistribution.sol\":2703:2721  _balances[account] */\n      0xffffffffffffffffffffffffffffffffffffffff\n      and\n      0xffffffffffffffffffffffffffffffffffffffff\n      and\n      dup2\n      mstore\n      0x20\n      add\n      swap1\n      dup2\n      mstore\n      0x20\n      add\n      0x00\n      keccak256\n      sload\n        /* \"contracts/Distribution/AtlantisDistribution.sol\":2686:2691  total */\n      0x0c\n        /* \"contracts/Distribution/AtlantisDistribution.sol\":2692:2698  newLvl */\n      dup4\n        /* \"contracts/Distribution/AtlantisDistribution.sol\":2686:2699  total[newLvl] */\n      0xff\n      and\n      0x03\n      dup2\n      lt\n      tag_295\n      jumpi\n      tag_296\n      tag_131\n      jump\t// in\n    tag_296:\n    tag_295:\n      add\n      0x00\n        /* \"contracts/Distribution/AtlantisDistribution.sol\":2686:2721  total[newLvl] += _balances[account] */\n      dup3\n      dup3\n      sload\n      tag_298\n      swap2\n      swap1\n      tag_123\n      jump\t// in\n    tag_298:\n      swap3\n      pop\n      pop\n      dup2\n      swap1\n      sstore\n      pop\n        /* \"contracts/Distribution/AtlantisDistribution.sol\":2745:2754  currentBC */\n      0x09\n        /* \"contracts/Distribution/AtlantisDistribution.sol\":2755:2761  newLvl */\n      dup3\n        /* \"contracts/Distribution/AtlantisDistribution.sol\":2745:2762  currentBC[newLvl] */\n      0xff\n      and\n      0x03\n      dup2\n      lt\n      tag_299\n      jumpi\n      tag_300\n      tag_131\n      jump\t// in\n    tag_300:\n    tag_299:\n      add\n      sload\n        /* \"contracts/Distribution/AtlantisDistribution.sol\":2731:2733  BC */\n      0x06\n        /* \"contracts/Distribution/AtlantisDistribution.sol\":2731:2742  BC[account] */\n      0x00\n        /* \"contracts/Distribution/AtlantisDistribution.sol\":2734:2741  account */\n      dup6\n        /* \"contracts/Distribution/AtlantisDistribution.sol\":2731:2742  BC[account] */\n      0xffffffffffffffffffffffffffffffffffffffff\n      and\n      0xffffffffffffffffffffffffffffffffffffffff\n      and\n      dup2\n      mstore\n      0x20\n      add\n      swap1\n      dup2\n      mstore\n      0x20\n      add\n      0x00\n      keccak256\n        /* \"contracts/Distribution/AtlantisDistribution.sol\":2731:2762  BC[account] = currentBC[newLvl] */\n      dup2\n      swap1\n      sstore\n      pop\n        /* \"contracts/Distribution/AtlantisDistribution.sol\":2532:2769  {... */\n      pop\n        /* \"contracts/Distribution/AtlantisDistribution.sol\":2463:2769  function changeLvl(address account, uint8 newLvl) external onlyOwner {... */\n      pop\n      pop\n      jump\t// out\n        /* \"contracts/Distribution/WrappedERC20Token.sol\":6268:6639  function decreaseAllowance(address spender, uint256 subtractedValue) public virtual returns (bool) {... */\n    tag_86:\n        /* \"contracts/Distribution/WrappedERC20Token.sol\":6361:6365  bool */\n      0x00\n        /* \"contracts/Distribution/WrappedERC20Token.sol\":6377:6401  uint256 currentAllowance */\n      dup1\n        /* \"contracts/Distribution/WrappedERC20Token.sol\":6404:6415  _allowances */\n      0x01\n        /* \"contracts/Distribution/WrappedERC20Token.sol\":6404:6429  _allowances[_msgSender()] */\n      0x00\n        /* \"contracts/Distribution/WrappedERC20Token.sol\":6416:6428  _msgSender() */\n      tag_303\n        /* \"contracts/Distribution/WrappedERC20Token.sol\":6416:6426  _msgSender */\n      tag_110\n        /* \"contracts/Distribution/WrappedERC20Token.sol\":6416:6428  _msgSender() */\n      jump\t// in\n    tag_303:\n        /* \"contracts/Distribution/WrappedERC20Token.sol\":6404:6429  _allowances[_msgSender()] */\n      0xffffffffffffffffffffffffffffffffffffffff\n      and\n      0xffffffffffffffffffffffffffffffffffffffff\n      and\n      dup2\n      mstore\n      0x20\n      add\n      swap1\n      dup2\n      mstore\n      0x20\n      add\n      0x00\n      keccak256\n        /* \"contracts/Distribution/WrappedERC20Token.sol\":6404:6438  _allowances[_msgSender()][spender] */\n      0x00\n        /* \"contracts/Distribution/WrappedERC20Token.sol\":6430:6437  spender */\n      dup6\n        /* \"contracts/Distribution/WrappedERC20Token.sol\":6404:6438  _allowances[_msgSender()][spender] */\n      0xffffffffffffffffffffffffffffffffffffffff\n      and\n      0xffffffffffffffffffffffffffffffffffffffff\n      and\n      dup2\n      mstore\n      0x20\n      add\n      swap1\n      dup2\n      mstore\n      0x20\n      add\n      0x00\n      keccak256\n      sload\n        /* \"contracts/Distribution/WrappedERC20Token.sol\":6377:6438  uint256 currentAllowance = _allowances[_msgSender()][spender] */\n      swap1\n      pop\n        /* \"contracts/Distribution/WrappedERC20Token.sol\":6476:6491  subtractedValue */\n      dup3\n        /* \"contracts/Distribution/WrappedERC20Token.sol\":6456:6472  currentAllowance */\n      dup2\n        /* \"contracts/Distribution/WrappedERC20Token.sol\":6456:6491  currentAllowance >= subtractedValue */\n      lt\n      iszero\n        /* \"contracts/Distribution/WrappedERC20Token.sol\":6448:6533  require(currentAllowance >= subtractedValue, \"ERC20: decreased allowance below zero\") */\n      tag_304\n      jumpi\n      mload(0x40)\n      0x08c379a000000000000000000000000000000000000000000000000000000000\n      dup2\n      mstore\n      0x04\n      add\n      tag_305\n      swap1\n      tag_306\n      jump\t// in\n    tag_305:\n      mload(0x40)\n      dup1\n      swap2\n      sub\n      swap1\n      revert\n    tag_304:\n        /* \"contracts/Distribution/WrappedERC20Token.sol\":6543:6610  _approve(_msgSender(), spender, currentAllowance - subtractedValue) */\n      tag_307\n        /* \"contracts/Distribution/WrappedERC20Token.sol\":6552:6564  _msgSender() */\n      tag_308\n        /* \"contracts/Distribution/WrappedERC20Token.sol\":6552:6562  _msgSender */\n      tag_110\n        /* \"contracts/Distribution/WrappedERC20Token.sol\":6552:6564  _msgSender() */\n      jump\t// in\n    tag_308:\n        /* \"contracts/Distribution/WrappedERC20Token.sol\":6566:6573  spender */\n      dup6\n        /* \"contracts/Distribution/WrappedERC20Token.sol\":6594:6609  subtractedValue */\n      dup6\n        /* \"contracts/Distribution/WrappedERC20Token.sol\":6575:6591  currentAllowance */\n      dup5\n        /* \"contracts/Distribution/WrappedERC20Token.sol\":6575:6609  currentAllowance - subtractedValue */\n      tag_309\n      swap2\n      swap1\n      tag_294\n      jump\t// in\n    tag_309:\n        /* \"contracts/Distribution/WrappedERC20Token.sol\":6543:6551  _approve */\n      tag_111\n        /* \"contracts/Distribution/WrappedERC20Token.sol\":6543:6610  _approve(_msgSender(), spender, currentAllowance - subtractedValue) */\n      jump\t// in\n    tag_307:\n        /* \"contracts/Distribution/WrappedERC20Token.sol\":6628:6632  true */\n      0x01\n        /* \"contracts/Distribution/WrappedERC20Token.sol\":6621:6632  return true */\n      swap2\n      pop\n      pop\n        /* \"contracts/Distribution/WrappedERC20Token.sol\":6268:6639  function decreaseAllowance(address spender, uint256 subtractedValue) public virtual returns (bool) {... */\n      swap3\n      swap2\n      pop\n      pop\n      jump\t// out\n        /* \"contracts/Distribution/AtlantisDistribution.sol\":2118:2457  function transfer(address recipient, uint256 amount) public override returns (bool) {... */\n    tag_90:\n        /* \"contracts/Distribution/AtlantisDistribution.sol\":2196:2200  bool */\n      0x00\n        /* \"contracts/Distribution/AtlantisDistribution.sol\":2212:2226  address sender */\n      dup1\n        /* \"contracts/Distribution/AtlantisDistribution.sol\":2229:2241  _msgSender() */\n      tag_311\n        /* \"contracts/Distribution/AtlantisDistribution.sol\":2229:2239  _msgSender */\n      tag_110\n        /* \"contracts/Distribution/AtlantisDistribution.sol\":2229:2241  _msgSender() */\n      jump\t// in\n    tag_311:\n        /* \"contracts/Distribution/AtlantisDistribution.sol\":2212:2241  address sender = _msgSender() */\n      swap1\n      pop\n        /* \"contracts/Distribution/AtlantisDistribution.sol\":2251:2271  relaxBalance(sender) */\n      tag_312\n        /* \"contracts/Distribution/AtlantisDistribution.sol\":2264:2270  sender */\n      dup2\n        /* \"contracts/Distribution/AtlantisDistribution.sol\":2251:2263  relaxBalance */\n      tag_164\n        /* \"contracts/Distribution/AtlantisDistribution.sol\":2251:2271  relaxBalance(sender) */\n      jump\t// in\n    tag_312:\n        /* \"contracts/Distribution/AtlantisDistribution.sol\":2281:2304  relaxBalance(recipient) */\n      tag_313\n        /* \"contracts/Distribution/AtlantisDistribution.sol\":2294:2303  recipient */\n      dup5\n        /* \"contracts/Distribution/AtlantisDistribution.sol\":2281:2293  relaxBalance */\n      tag_164\n        /* \"contracts/Distribution/AtlantisDistribution.sol\":2281:2304  relaxBalance(recipient) */\n      jump\t// in\n    tag_313:\n        /* \"contracts/Distribution/AtlantisDistribution.sol\":2336:2342  amount */\n      dup3\n        /* \"contracts/Distribution/AtlantisDistribution.sol\":2314:2319  total */\n      0x0c\n        /* \"contracts/Distribution/AtlantisDistribution.sol\":2320:2323  lvl */\n      0x07\n        /* \"contracts/Distribution/AtlantisDistribution.sol\":2320:2331  lvl[sender] */\n      0x00\n        /* \"contracts/Distribution/AtlantisDistribution.sol\":2324:2330  sender */\n      dup5\n        /* \"contracts/Distribution/AtlantisDistribution.sol\":2320:2331  lvl[sender] */\n      0xffffffffffffffffffffffffffffffffffffffff\n      and\n      0xffffffffffffffffffffffffffffffffffffffff\n      and\n      dup2\n      mstore\n      0x20\n      add\n      swap1\n      dup2\n      mstore\n      0x20\n      add\n      0x00\n      keccak256\n      0x00\n      swap1\n      sload\n      swap1\n      0x0100\n      exp\n      swap1\n      div\n      0xff\n      and\n        /* \"contracts/Distribution/AtlantisDistribution.sol\":2314:2332  total[lvl[sender]] */\n      0xff\n      and\n      0x03\n      dup2\n      lt\n      tag_314\n      jumpi\n      tag_315\n      tag_131\n      jump\t// in\n    tag_315:\n    tag_314:\n      add\n      0x00\n        /* \"contracts/Distribution/AtlantisDistribution.sol\":2314:2342  total[lvl[sender]] -= amount */\n      dup3\n      dup3\n      sload\n      tag_317\n      swap2\n      swap1\n      tag_294\n      jump\t// in\n    tag_317:\n      swap3\n      pop\n      pop\n      dup2\n      swap1\n      sstore\n      pop\n        /* \"contracts/Distribution/AtlantisDistribution.sol\":2377:2383  amount */\n      dup3\n        /* \"contracts/Distribution/AtlantisDistribution.sol\":2352:2357  total */\n      0x0c\n        /* \"contracts/Distribution/AtlantisDistribution.sol\":2358:2361  lvl */\n      0x07\n        /* \"contracts/Distribution/AtlantisDistribution.sol\":2358:2372  lvl[recipient] */\n      0x00\n        /* \"contracts/Distribution/AtlantisDistribution.sol\":2362:2371  recipient */\n      dup8\n        /* \"contracts/Distribution/AtlantisDistribution.sol\":2358:2372  lvl[recipient] */\n      0xffffffffffffffffffffffffffffffffffffffff\n      and\n      0xffffffffffffffffffffffffffffffffffffffff\n      and\n      dup2\n      mstore\n      0x20\n      add\n      swap1\n      dup2\n      mstore\n      0x20\n      add\n      0x00\n      keccak256\n      0x00\n      swap1\n      sload\n      swap1\n      0x0100\n      exp\n      swap1\n      div\n      0xff\n      and\n        /* \"contracts/Distribution/AtlantisDistribution.sol\":2352:2373  total[lvl[recipient]] */\n      0xff\n      and\n      0x03\n      dup2\n      lt\n      tag_318\n      jumpi\n      tag_319\n      tag_131\n      jump\t// in\n    tag_319:\n    tag_318:\n      add\n      0x00\n        /* \"contracts/Distribution/AtlantisDistribution.sol\":2352:2383  total[lvl[recipient]] += amount */\n      dup3\n      dup3\n      sload\n      tag_321\n      swap2\n      swap1\n      tag_123\n      jump\t// in\n    tag_321:\n      swap3\n      pop\n      pop\n      dup2\n      swap1\n      sstore\n      pop\n        /* \"contracts/Distribution/AtlantisDistribution.sol\":2393:2429  _transfer(sender, recipient, amount) */\n      tag_322\n        /* \"contracts/Distribution/AtlantisDistribution.sol\":2403:2409  sender */\n      dup2\n        /* \"contracts/Distribution/AtlantisDistribution.sol\":2411:2420  recipient */\n      dup6\n        /* \"contracts/Distribution/AtlantisDistribution.sol\":2422:2428  amount */\n      dup6\n        /* \"contracts/Distribution/AtlantisDistribution.sol\":2393:2402  _transfer */\n      tag_323\n        /* \"contracts/Distribution/AtlantisDistribution.sol\":2393:2429  _transfer(sender, recipient, amount) */\n      jump\t// in\n    tag_322:\n        /* \"contracts/Distribution/AtlantisDistribution.sol\":2446:2450  true */\n      0x01\n        /* \"contracts/Distribution/AtlantisDistribution.sol\":2439:2450  return true */\n      swap2\n      pop\n      pop\n        /* \"contracts/Distribution/AtlantisDistribution.sol\":2118:2457  function transfer(address recipient, uint256 amount) public override returns (bool) {... */\n      swap3\n      swap2\n      pop\n      pop\n      jump\t// out\n        /* \"contracts/Distribution/WrappedERC20Token.sol\":3840:3989  function allowance(address owner, address spender) public view virtual override returns (uint256) {... */\n    tag_95:\n        /* \"contracts/Distribution/WrappedERC20Token.sol\":3929:3936  uint256 */\n      0x00\n        /* \"contracts/Distribution/WrappedERC20Token.sol\":3955:3966  _allowances */\n      0x01\n        /* \"contracts/Distribution/WrappedERC20Token.sol\":3955:3973  _allowances[owner] */\n      0x00\n        /* \"contracts/Distribution/WrappedERC20Token.sol\":3967:3972  owner */\n      dup5\n        /* \"contracts/Distribution/WrappedERC20Token.sol\":3955:3973  _allowances[owner] */\n      0xffffffffffffffffffffffffffffffffffffffff\n      and\n      0xffffffffffffffffffffffffffffffffffffffff\n      and\n      dup2\n      mstore\n      0x20\n      add\n      swap1\n      dup2\n      mstore\n      0x20\n      add\n      0x00\n      keccak256\n        /* \"contracts/Distribution/WrappedERC20Token.sol\":3955:3982  _allowances[owner][spender] */\n      0x00\n        /* \"contracts/Distribution/WrappedERC20Token.sol\":3974:3981  spender */\n      dup4\n        /* \"contracts/Distribution/WrappedERC20Token.sol\":3955:3982  _allowances[owner][spender] */\n      0xffffffffffffffffffffffffffffffffffffffff\n      and\n      0xffffffffffffffffffffffffffffffffffffffff\n      and\n      dup2\n      mstore\n      0x20\n      add\n      swap1\n      dup2\n      mstore\n      0x20\n      add\n      0x00\n      keccak256\n      sload\n        /* \"contracts/Distribution/WrappedERC20Token.sol\":3948:3982  return _allowances[owner][spender] */\n      swap1\n      pop\n        /* \"contracts/Distribution/WrappedERC20Token.sol\":3840:3989  function allowance(address owner, address spender) public view virtual override returns (uint256) {... */\n      swap3\n      swap2\n      pop\n      pop\n      jump\t// out\n        /* \"@openzeppelin/contracts/access/Ownable.sol\":1846:2035  function transferOwnership(address newOwner) public virtual onlyOwner {... */\n    tag_99:\n        /* \"@openzeppelin/contracts/access/Ownable.sol\":1196:1208  _msgSender() */\n      tag_326\n        /* \"@openzeppelin/contracts/access/Ownable.sol\":1196:1206  _msgSender */\n      tag_110\n        /* \"@openzeppelin/contracts/access/Ownable.sol\":1196:1208  _msgSender() */\n      jump\t// in\n    tag_326:\n        /* \"@openzeppelin/contracts/access/Ownable.sol\":1185:1208  owner() == _msgSender() */\n      0xffffffffffffffffffffffffffffffffffffffff\n      and\n        /* \"@openzeppelin/contracts/access/Ownable.sol\":1185:1192  owner() */\n      tag_327\n        /* \"@openzeppelin/contracts/access/Ownable.sol\":1185:1190  owner */\n      tag_70\n        /* \"@openzeppelin/contracts/access/Ownable.sol\":1185:1192  owner() */\n      jump\t// in\n    tag_327:\n        /* \"@openzeppelin/contracts/access/Ownable.sol\":1185:1208  owner() == _msgSender() */\n      0xffffffffffffffffffffffffffffffffffffffff\n      and\n      eq\n        /* \"@openzeppelin/contracts/access/Ownable.sol\":1177:1245  require(owner() == _msgSender(), \"Ownable: caller is not the owner\") */\n      tag_328\n      jumpi\n      mload(0x40)\n      0x08c379a000000000000000000000000000000000000000000000000000000000\n      dup2\n      mstore\n      0x04\n      add\n      tag_329\n      swap1\n      tag_117\n      jump\t// in\n    tag_329:\n      mload(0x40)\n      dup1\n      swap2\n      sub\n      swap1\n      revert\n    tag_328:\n        /* \"@openzeppelin/contracts/access/Ownable.sol\":1954:1955  0 */\n      0x00\n        /* \"@openzeppelin/contracts/access/Ownable.sol\":1934:1956  newOwner != address(0) */\n      0xffffffffffffffffffffffffffffffffffffffff\n      and\n        /* \"@openzeppelin/contracts/access/Ownable.sol\":1934:1942  newOwner */\n      dup2\n        /* \"@openzeppelin/contracts/access/Ownable.sol\":1934:1956  newOwner != address(0) */\n      0xffffffffffffffffffffffffffffffffffffffff\n      and\n      sub\n        /* \"@openzeppelin/contracts/access/Ownable.sol\":1926:1999  require(newOwner != address(0), \"Ownable: new owner is the zero address\") */\n      tag_331\n      jumpi\n      mload(0x40)\n      0x08c379a000000000000000000000000000000000000000000000000000000000\n      dup2\n      mstore\n      0x04\n      add\n      tag_332\n      swap1\n      tag_333\n      jump\t// in\n    tag_332:\n      mload(0x40)\n      dup1\n      swap2\n      sub\n      swap1\n      revert\n    tag_331:\n        /* \"@openzeppelin/contracts/access/Ownable.sol\":2009:2028  _setOwner(newOwner) */\n      tag_334\n        /* \"@openzeppelin/contracts/access/Ownable.sol\":2019:2027  newOwner */\n      dup2\n        /* \"@openzeppelin/contracts/access/Ownable.sol\":2009:2018  _setOwner */\n      tag_216\n        /* \"@openzeppelin/contracts/access/Ownable.sol\":2009:2028  _setOwner(newOwner) */\n      jump\t// in\n    tag_334:\n        /* \"@openzeppelin/contracts/access/Ownable.sol\":1846:2035  function transferOwnership(address newOwner) public virtual onlyOwner {... */\n      pop\n      jump\t// out\n        /* \"@openzeppelin/contracts/utils/Context.sol\":587:683  function _msgSender() internal view virtual returns (address) {... */\n    tag_110:\n        /* \"@openzeppelin/contracts/utils/Context.sol\":640:647  address */\n      0x00\n        /* \"@openzeppelin/contracts/utils/Context.sol\":666:676  msg.sender */\n      caller\n        /* \"@openzeppelin/contracts/utils/Context.sol\":659:676  return msg.sender */\n      swap1\n      pop\n        /* \"@openzeppelin/contracts/utils/Context.sol\":587:683  function _msgSender() internal view virtual returns (address) {... */\n      swap1\n      jump\t// out\n        /* \"contracts/Distribution/WrappedERC20Token.sol\":9532:9872  function _approve(address owner, address spender, uint256 amount) internal virtual {... */\n    tag_111:\n        /* \"contracts/Distribution/WrappedERC20Token.sol\":9650:9651  0 */\n      0x00\n        /* \"contracts/Distribution/WrappedERC20Token.sol\":9633:9652  owner != address(0) */\n      0xffffffffffffffffffffffffffffffffffffffff\n      and\n        /* \"contracts/Distribution/WrappedERC20Token.sol\":9633:9638  owner */\n      dup4\n        /* \"contracts/Distribution/WrappedERC20Token.sol\":9633:9652  owner != address(0) */\n      0xffffffffffffffffffffffffffffffffffffffff\n      and\n      sub\n        /* \"contracts/Distribution/WrappedERC20Token.sol\":9625:9693  require(owner != address(0), \"ERC20: approve from the zero address\") */\n      tag_337\n      jumpi\n      mload(0x40)\n      0x08c379a000000000000000000000000000000000000000000000000000000000\n      dup2\n      mstore\n      0x04\n      add\n      tag_338\n      swap1\n      tag_339\n      jump\t// in\n    tag_338:\n      mload(0x40)\n      dup1\n      swap2\n      sub\n      swap1\n      revert\n    tag_337:\n        /* \"contracts/Distribution/WrappedERC20Token.sol\":9730:9731  0 */\n      0x00\n        /* \"contracts/Distribution/WrappedERC20Token.sol\":9711:9732  spender != address(0) */\n      0xffffffffffffffffffffffffffffffffffffffff\n      and\n        /* \"contracts/Distribution/WrappedERC20Token.sol\":9711:9718  spender */\n      dup3\n        /* \"contracts/Distribution/WrappedERC20Token.sol\":9711:9732  spender != address(0) */\n      0xffffffffffffffffffffffffffffffffffffffff\n      and\n      sub\n        /* \"contracts/Distribution/WrappedERC20Token.sol\":9703:9771  require(spender != address(0), \"ERC20: approve to the zero address\") */\n      tag_340\n      jumpi\n      mload(0x40)\n      0x08c379a000000000000000000000000000000000000000000000000000000000\n      dup2\n      mstore\n      0x04\n      add\n      tag_341\n      swap1\n      tag_342\n      jump\t// in\n    tag_341:\n      mload(0x40)\n      dup1\n      swap2\n      sub\n      swap1\n      revert\n    tag_340:\n        /* \"contracts/Distribution/WrappedERC20Token.sol\":9812:9818  amount */\n      dup1\n        /* \"contracts/Distribution/WrappedERC20Token.sol\":9782:9793  _allowances */\n      0x01\n        /* \"contracts/Distribution/WrappedERC20Token.sol\":9782:9800  _allowances[owner] */\n      0x00\n        /* \"contracts/Distribution/WrappedERC20Token.sol\":9794:9799  owner */\n      dup6\n        /* \"contracts/Distribution/WrappedERC20Token.sol\":9782:9800  _allowances[owner] */\n      0xffffffffffffffffffffffffffffffffffffffff\n      and\n      0xffffffffffffffffffffffffffffffffffffffff\n      and\n      dup2\n      mstore\n      0x20\n      add\n      swap1\n      dup2\n      mstore\n      0x20\n      add\n      0x00\n      keccak256\n        /* \"contracts/Distribution/WrappedERC20Token.sol\":9782:9809  _allowances[owner][spender] */\n      0x00\n        /* \"contracts/Distribution/WrappedERC20Token.sol\":9801:9808  spender */\n      dup5\n        /* \"contracts/Distribution/WrappedERC20Token.sol\":9782:9809  _allowances[owner][spender] */\n      0xffffffffffffffffffffffffffffffffffffffff\n      and\n      0xffffffffffffffffffffffffffffffffffffffff\n      and\n      dup2\n      mstore\n      0x20\n      add\n      swap1\n      dup2\n      mstore\n      0x20\n      add\n      0x00\n      keccak256\n        /* \"contracts/Distribution/WrappedERC20Token.sol\":9782:9818  _allowances[owner][spender] = amount */\n      dup2\n      swap1\n      sstore\n      pop\n        /* \"contracts/Distribution/WrappedERC20Token.sol\":9849:9856  spender */\n      dup2\n        /* \"contracts/Distribution/WrappedERC20Token.sol\":9833:9865  Approval(owner, spender, amount) */\n      0xffffffffffffffffffffffffffffffffffffffff\n      and\n        /* \"contracts/Distribution/WrappedERC20Token.sol\":9842:9847  owner */\n      dup4\n        /* \"contracts/Distribution/WrappedERC20Token.sol\":9833:9865  Approval(owner, spender, amount) */\n      0xffffffffffffffffffffffffffffffffffffffff\n      and\n      0x8c5be1e5ebec7d5bd14f71427d1e84f3dd0314c0f7b2291e5b200ac8c7c3b925\n        /* \"contracts/Distribution/WrappedERC20Token.sol\":9858:9864  amount */\n      dup4\n        /* \"contracts/Distribution/WrappedERC20Token.sol\":9833:9865  Approval(owner, spender, amount) */\n      mload(0x40)\n      tag_343\n      swap2\n      swap1\n      tag_44\n      jump\t// in\n    tag_343:\n      mload(0x40)\n      dup1\n      swap2\n      sub\n      swap1\n      log3\n        /* \"contracts/Distribution/WrappedERC20Token.sol\":9532:9872  function _approve(address owner, address spender, uint256 amount) internal virtual {... */\n      pop\n      pop\n      pop\n      jump\t// out\n        /* \"contracts/Distribution/AtlantisDistribution.sol\":1404:1646  function relaxBalance(address account) internal {... */\n    tag_164:\n        /* \"contracts/Distribution/AtlantisDistribution.sol\":1482:1483  0 */\n      0x00\n        /* \"contracts/Distribution/AtlantisDistribution.sol\":1466:1469  lvl */\n      0x07\n        /* \"contracts/Distribution/AtlantisDistribution.sol\":1466:1478  lvl[account] */\n      0x00\n        /* \"contracts/Distribution/AtlantisDistribution.sol\":1470:1477  account */\n      dup4\n        /* \"contracts/Distribution/AtlantisDistribution.sol\":1466:1478  lvl[account] */\n      0xffffffffffffffffffffffffffffffffffffffff\n      and\n      0xffffffffffffffffffffffffffffffffffffffff\n      and\n      dup2\n      mstore\n      0x20\n      add\n      swap1\n      dup2\n      mstore\n      0x20\n      add\n      0x00\n      keccak256\n      0x00\n      swap1\n      sload\n      swap1\n      0x0100\n      exp\n      swap1\n      div\n      0xff\n      and\n        /* \"contracts/Distribution/AtlantisDistribution.sol\":1466:1483  lvl[account] == 0 */\n      0xff\n      and\n      sub\n        /* \"contracts/Distribution/AtlantisDistribution.sol\":1462:1504  if (lvl[account] == 0)... */\n      iszero\n        /* \"contracts/Distribution/AtlantisDistribution.sol\":1497:1504  return; */\n      tag_344\n        /* \"contracts/Distribution/AtlantisDistribution.sol\":1462:1504  if (lvl[account] == 0)... */\n      jumpi\n        /* \"contracts/Distribution/AtlantisDistribution.sol\":1581:1583  BC */\n      0x06\n        /* \"contracts/Distribution/AtlantisDistribution.sol\":1581:1592  BC[account] */\n      0x00\n        /* \"contracts/Distribution/AtlantisDistribution.sol\":1584:1591  account */\n      dup3\n        /* \"contracts/Distribution/AtlantisDistribution.sol\":1581:1592  BC[account] */\n      0xffffffffffffffffffffffffffffffffffffffff\n      and\n      0xffffffffffffffffffffffffffffffffffffffff\n      and\n      dup2\n      mstore\n      0x20\n      add\n      swap1\n      dup2\n      mstore\n      0x20\n      add\n      0x00\n      keccak256\n      sload\n        /* \"contracts/Distribution/AtlantisDistribution.sol\":1560:1569  _balances */\n      0x00\n        /* \"contracts/Distribution/AtlantisDistribution.sol\":1560:1578  _balances[account] */\n      dup1\n        /* \"contracts/Distribution/AtlantisDistribution.sol\":1570:1577  account */\n      dup4\n        /* \"contracts/Distribution/AtlantisDistribution.sol\":1560:1578  _balances[account] */\n      0xffffffffffffffffffffffffffffffffffffffff\n      and\n      0xffffffffffffffffffffffffffffffffffffffff\n      and\n      dup2\n      mstore\n      0x20\n      add\n      swap1\n      dup2\n      mstore\n      0x20\n      add\n      0x00\n      keccak256\n      sload\n        /* \"contracts/Distribution/AtlantisDistribution.sol\":1534:1543  currentBC */\n      0x09\n        /* \"contracts/Distribution/AtlantisDistribution.sol\":1544:1547  lvl */\n      0x07\n        /* \"contracts/Distribution/AtlantisDistribution.sol\":1544:1556  lvl[account] */\n      0x00\n        /* \"contracts/Distribution/AtlantisDistribution.sol\":1548:1555  account */\n      dup6\n        /* \"contracts/Distribution/AtlantisDistribution.sol\":1544:1556  lvl[account] */\n      0xffffffffffffffffffffffffffffffffffffffff\n      and\n      0xffffffffffffffffffffffffffffffffffffffff\n      and\n      dup2\n      mstore\n      0x20\n      add\n      swap1\n      dup2\n      mstore\n      0x20\n      add\n      0x00\n      keccak256\n      0x00\n      swap1\n      sload\n      swap1\n      0x0100\n      exp\n      swap1\n      div\n      0xff\n      and\n        /* \"contracts/Distribution/AtlantisDistribution.sol\":1534:1557  currentBC[lvl[account]] */\n      0xff\n      and\n      0x03\n      dup2\n      lt\n      tag_346\n      jumpi\n      tag_347\n      tag_131\n      jump\t// in\n    tag_347:\n    tag_346:\n      add\n      sload\n        /* \"contracts/Distribution/AtlantisDistribution.sol\":1534:1578  currentBC[lvl[account]] * _balances[account] */\n      tag_349\n      swap2\n      swap1\n      tag_138\n      jump\t// in\n    tag_349:\n        /* \"contracts/Distribution/AtlantisDistribution.sol\":1534:1592  currentBC[lvl[account]] * _balances[account] / BC[account] */\n      tag_350\n      swap2\n      swap1\n      tag_128\n      jump\t// in\n    tag_350:\n        /* \"contracts/Distribution/AtlantisDistribution.sol\":1513:1522  _balances */\n      0x00\n        /* \"contracts/Distribution/AtlantisDistribution.sol\":1513:1531  _balances[account] */\n      dup1\n        /* \"contracts/Distribution/AtlantisDistribution.sol\":1523:1530  account */\n      dup4\n        /* \"contracts/Distribution/AtlantisDistribution.sol\":1513:1531  _balances[account] */\n      0xffffffffffffffffffffffffffffffffffffffff\n      and\n      0xffffffffffffffffffffffffffffffffffffffff\n      and\n      dup2\n      mstore\n      0x20\n      add\n      swap1\n      dup2\n      mstore\n      0x20\n      add\n      0x00\n      keccak256\n        /* \"contracts/Distribution/AtlantisDistribution.sol\":1513:1592  _balances[account] = currentBC[lvl[account]] * _balances[account] / BC[account] */\n      dup2\n      swap1\n      sstore\n      pop\n        /* \"contracts/Distribution/AtlantisDistribution.sol\":1616:1625  currentBC */\n      0x09\n        /* \"contracts/Distribution/AtlantisDistribution.sol\":1626:1629  lvl */\n      0x07\n        /* \"contracts/Distribution/AtlantisDistribution.sol\":1626:1638  lvl[account] */\n      0x00\n        /* \"contracts/Distribution/AtlantisDistribution.sol\":1630:1637  account */\n      dup4\n        /* \"contracts/Distribution/AtlantisDistribution.sol\":1626:1638  lvl[account] */\n      0xffffffffffffffffffffffffffffffffffffffff\n      and\n      0xffffffffffffffffffffffffffffffffffffffff\n      and\n      dup2\n      mstore\n      0x20\n      add\n      swap1\n      dup2\n      mstore\n      0x20\n      add\n      0x00\n      keccak256\n      0x00\n      swap1\n      sload\n      swap1\n      0x0100\n      exp\n      swap1\n      div\n      0xff\n      and\n        /* \"contracts/Distribution/AtlantisDistribution.sol\":1616:1639  currentBC[lvl[account]] */\n      0xff\n      and\n      0x03\n      dup2\n      lt\n      tag_351\n      jumpi\n      tag_352\n      tag_131\n      jump\t// in\n    tag_352:\n    tag_351:\n      add\n      sload\n        /* \"contracts/Distribution/AtlantisDistribution.sol\":1602:1604  BC */\n      0x06\n        /* \"contracts/Distribution/AtlantisDistribution.sol\":1602:1613  BC[account] */\n      0x00\n        /* \"contracts/Distribution/AtlantisDistribution.sol\":1605:1612  account */\n      dup4\n        /* \"contracts/Distribution/AtlantisDistribution.sol\":1602:1613  BC[account] */\n      0xffffffffffffffffffffffffffffffffffffffff\n      and\n      0xffffffffffffffffffffffffffffffffffffffff\n      and\n      dup2\n      mstore\n      0x20\n      add\n      swap1\n      dup2\n      mstore\n      0x20\n      add\n      0x00\n      keccak256\n        /* \"contracts/Distribution/AtlantisDistribution.sol\":1602:1639  BC[account] = currentBC[lvl[account]] */\n      dup2\n      swap1\n      sstore\n      pop\n        /* \"contracts/Distribution/AtlantisDistribution.sol\":1404:1646  function relaxBalance(address account) internal {... */\n    tag_344:\n      pop\n      jump\t// out\n        /* \"@openzeppelin/contracts/access/Ownable.sol\":2041:2210  function _setOwner(address newOwner) private {... */\n    tag_216:\n        /* \"@openzeppelin/contracts/access/Ownable.sol\":2096:2112  address oldOwner */\n      0x00\n        /* \"@openzeppelin/contracts/access/Ownable.sol\":2115:2121  _owner */\n      0x05\n      0x00\n      swap1\n      sload\n      swap1\n      0x0100\n      exp\n      swap1\n      div\n      0xffffffffffffffffffffffffffffffffffffffff\n      and\n        /* \"@openzeppelin/contracts/access/Ownable.sol\":2096:2121  address oldOwner = _owner */\n      swap1\n      pop\n        /* \"@openzeppelin/contracts/access/Ownable.sol\":2140:2148  newOwner */\n      dup2\n        /* \"@openzeppelin/contracts/access/Ownable.sol\":2131:2137  _owner */\n      0x05\n      0x00\n        /* \"@openzeppelin/contracts/access/Ownable.sol\":2131:2148  _owner = newOwner */\n      0x0100\n      exp\n      dup2\n      sload\n      dup2\n      0xffffffffffffffffffffffffffffffffffffffff\n      mul\n      not\n      and\n      swap1\n      dup4\n      0xffffffffffffffffffffffffffffffffffffffff\n      and\n      mul\n      or\n      swap1\n      sstore\n      pop\n        /* \"@openzeppelin/contracts/access/Ownable.sol\":2194:2202  newOwner */\n      dup2\n        /* \"@openzeppelin/contracts/access/Ownable.sol\":2163:2203  OwnershipTransferred(oldOwner, newOwner) */\n      0xffffffffffffffffffffffffffffffffffffffff\n      and\n        /* \"@openzeppelin/contracts/access/Ownable.sol\":2184:2192  oldOwner */\n      dup2\n        /* \"@openzeppelin/contracts/access/Ownable.sol\":2163:2203  OwnershipTransferred(oldOwner, newOwner) */\n      0xffffffffffffffffffffffffffffffffffffffff\n      and\n      0x8be0079c531659141344cd1fd0a4f28419497f9722a3daafe3b4186f6b6457e0\n      mload(0x40)\n      mload(0x40)\n      dup1\n      swap2\n      sub\n      swap1\n      log3\n        /* \"@openzeppelin/contracts/access/Ownable.sol\":2086:2210  {... */\n      pop\n        /* \"@openzeppelin/contracts/access/Ownable.sol\":2041:2210  function _setOwner(address newOwner) private {... */\n      pop\n      jump\t// out\n        /* \"contracts/Distribution/WrappedERC20Token.sol\":7113:7705  function _transfer(address sender, address recipient, uint256 amount) internal virtual {... */\n    tag_323:\n        /* \"contracts/Distribution/WrappedERC20Token.sol\":7236:7237  0 */\n      0x00\n        /* \"contracts/Distribution/WrappedERC20Token.sol\":7218:7238  sender != address(0) */\n      0xffffffffffffffffffffffffffffffffffffffff\n      and\n        /* \"contracts/Distribution/WrappedERC20Token.sol\":7218:7224  sender */\n      dup4\n        /* \"contracts/Distribution/WrappedERC20Token.sol\":7218:7238  sender != address(0) */\n      0xffffffffffffffffffffffffffffffffffffffff\n      and\n      sub\n        /* \"contracts/Distribution/WrappedERC20Token.sol\":7210:7280  require(sender != address(0), \"ERC20: transfer from the zero address\") */\n      tag_356\n      jumpi\n      mload(0x40)\n      0x08c379a000000000000000000000000000000000000000000000000000000000\n      dup2\n      mstore\n      0x04\n      add\n      tag_357\n      swap1\n      tag_358\n      jump\t// in\n    tag_357:\n      mload(0x40)\n      dup1\n      swap2\n      sub\n      swap1\n      revert\n    tag_356:\n        /* \"contracts/Distribution/WrappedERC20Token.sol\":7319:7320  0 */\n      0x00\n        /* \"contracts/Distribution/WrappedERC20Token.sol\":7298:7321  recipient != address(0) */\n      0xffffffffffffffffffffffffffffffffffffffff\n      and\n        /* \"contracts/Distribution/WrappedERC20Token.sol\":7298:7307  recipient */\n      dup3\n        /* \"contracts/Distribution/WrappedERC20Token.sol\":7298:7321  recipient != address(0) */\n      0xffffffffffffffffffffffffffffffffffffffff\n      and\n      sub\n        /* \"contracts/Distribution/WrappedERC20Token.sol\":7290:7361  require(recipient != address(0), \"ERC20: transfer to the zero address\") */\n      tag_359\n      jumpi\n      mload(0x40)\n      0x08c379a000000000000000000000000000000000000000000000000000000000\n      dup2\n      mstore\n      0x04\n      add\n      tag_360\n      swap1\n      tag_361\n      jump\t// in\n    tag_360:\n      mload(0x40)\n      dup1\n      swap2\n      sub\n      swap1\n      revert\n    tag_359:\n        /* \"contracts/Distribution/WrappedERC20Token.sol\":7372:7419  _beforeTokenTransfer(sender, recipient, amount) */\n      tag_362\n        /* \"contracts/Distribution/WrappedERC20Token.sol\":7393:7399  sender */\n      dup4\n        /* \"contracts/Distribution/WrappedERC20Token.sol\":7401:7410  recipient */\n      dup4\n        /* \"contracts/Distribution/WrappedERC20Token.sol\":7412:7418  amount */\n      dup4\n        /* \"contracts/Distribution/WrappedERC20Token.sol\":7372:7392  _beforeTokenTransfer */\n      tag_363\n        /* \"contracts/Distribution/WrappedERC20Token.sol\":7372:7419  _beforeTokenTransfer(sender, recipient, amount) */\n      jump\t// in\n    tag_362:\n        /* \"contracts/Distribution/WrappedERC20Token.sol\":7430:7451  uint256 senderBalance */\n      0x00\n        /* \"contracts/Distribution/WrappedERC20Token.sol\":7454:7463  _balances */\n      dup1\n        /* \"contracts/Distribution/WrappedERC20Token.sol\":7454:7471  _balances[sender] */\n      0x00\n        /* \"contracts/Distribution/WrappedERC20Token.sol\":7464:7470  sender */\n      dup6\n        /* \"contracts/Distribution/WrappedERC20Token.sol\":7454:7471  _balances[sender] */\n      0xffffffffffffffffffffffffffffffffffffffff\n      and\n      0xffffffffffffffffffffffffffffffffffffffff\n      and\n      dup2\n      mstore\n      0x20\n      add\n      swap1\n      dup2\n      mstore\n      0x20\n      add\n      0x00\n      keccak256\n      sload\n        /* \"contracts/Distribution/WrappedERC20Token.sol\":7430:7471  uint256 senderBalance = _balances[sender] */\n      swap1\n      pop\n        /* \"contracts/Distribution/WrappedERC20Token.sol\":7506:7512  amount */\n      dup2\n        /* \"contracts/Distribution/WrappedERC20Token.sol\":7489:7502  senderBalance */\n      dup2\n        /* \"contracts/Distribution/WrappedERC20Token.sol\":7489:7512  senderBalance >= amount */\n      lt\n      iszero\n        /* \"contracts/Distribution/WrappedERC20Token.sol\":7481:7555  require(senderBalance >= amount, \"ERC20: transfer amount exceeds balance\") */\n      tag_364\n      jumpi\n      mload(0x40)\n      0x08c379a000000000000000000000000000000000000000000000000000000000\n      dup2\n      mstore\n      0x04\n      add\n      tag_365\n      swap1\n      tag_366\n      jump\t// in\n    tag_365:\n      mload(0x40)\n      dup1\n      swap2\n      sub\n      swap1\n      revert\n    tag_364:\n        /* \"contracts/Distribution/WrappedERC20Token.sol\":7601:7607  amount */\n      dup2\n        /* \"contracts/Distribution/WrappedERC20Token.sol\":7585:7598  senderBalance */\n      dup2\n        /* \"contracts/Distribution/WrappedERC20Token.sol\":7585:7607  senderBalance - amount */\n      tag_367\n      swap2\n      swap1\n      tag_294\n      jump\t// in\n    tag_367:\n        /* \"contracts/Distribution/WrappedERC20Token.sol\":7565:7574  _balances */\n      0x00\n        /* \"contracts/Distribution/WrappedERC20Token.sol\":7565:7582  _balances[sender] */\n      dup1\n        /* \"contracts/Distribution/WrappedERC20Token.sol\":7575:7581  sender */\n      dup7\n        /* \"contracts/Distribution/WrappedERC20Token.sol\":7565:7582  _balances[sender] */\n      0xffffffffffffffffffffffffffffffffffffffff\n      and\n      0xffffffffffffffffffffffffffffffffffffffff\n      and\n      dup2\n      mstore\n      0x20\n      add\n      swap1\n      dup2\n      mstore\n      0x20\n      add\n      0x00\n      keccak256\n        /* \"contracts/Distribution/WrappedERC20Token.sol\":7565:7607  _balances[sender] = senderBalance - amount */\n      dup2\n      swap1\n      sstore\n      pop\n        /* \"contracts/Distribution/WrappedERC20Token.sol\":7641:7647  amount */\n      dup2\n        /* \"contracts/Distribution/WrappedERC20Token.sol\":7617:7626  _balances */\n      0x00\n        /* \"contracts/Distribution/WrappedERC20Token.sol\":7617:7637  _balances[recipient] */\n      dup1\n        /* \"contracts/Distribution/WrappedERC20Token.sol\":7627:7636  recipient */\n      dup6\n        /* \"contracts/Distribution/WrappedERC20Token.sol\":7617:7637  _balances[recipient] */\n      0xffffffffffffffffffffffffffffffffffffffff\n      and\n      0xffffffffffffffffffffffffffffffffffffffff\n      and\n      dup2\n      mstore\n      0x20\n      add\n      swap1\n      dup2\n      mstore\n      0x20\n      add\n      0x00\n      keccak256\n      0x00\n        /* \"contracts/Distribution/WrappedERC20Token.sol\":7617:7647  _balances[recipient] += amount */\n      dup3\n      dup3\n      sload\n      tag_368\n      swap2\n      swap1\n      tag_123\n      jump\t// in\n    tag_368:\n      swap3\n      pop\n      pop\n      dup2\n      swap1\n      sstore\n      pop\n        /* \"contracts/Distribution/WrappedERC20Token.sol\":7680:7689  recipient */\n      dup3\n        /* \"contracts/Distribution/WrappedERC20Token.sol\":7663:7698  Transfer(sender, recipient, amount) */\n      0xffffffffffffffffffffffffffffffffffffffff\n      and\n        /* \"contracts/Distribution/WrappedERC20Token.sol\":7672:7678  sender */\n      dup5\n        /* \"contracts/Distribution/WrappedERC20Token.sol\":7663:7698  Transfer(sender, recipient, amount) */\n      0xffffffffffffffffffffffffffffffffffffffff\n      and\n      0xddf252ad1be2c89b69c2b068fc378daa952ba7f163c4a11628f55a4df523b3ef\n        /* \"contracts/Distribution/WrappedERC20Token.sol\":7691:7697  amount */\n      dup5\n        /* \"contracts/Distribution/WrappedERC20Token.sol\":7663:7698  Transfer(sender, recipient, amount) */\n      mload(0x40)\n      tag_369\n      swap2\n      swap1\n      tag_44\n      jump\t// in\n    tag_369:\n      mload(0x40)\n      dup1\n      swap2\n      sub\n      swap1\n      log3\n        /* \"contracts/Distribution/WrappedERC20Token.sol\":7200:7705  {... */\n      pop\n        /* \"contracts/Distribution/WrappedERC20Token.sol\":7113:7705  function _transfer(address sender, address recipient, uint256 amount) internal virtual {... */\n      pop\n      pop\n      pop\n      jump\t// out\n        /* \"contracts/Distribution/WrappedERC20Token.sol\":10459:10551  function _beforeTokenTransfer(address from, address to, uint256 amount) internal virtual { } */\n    tag_363:\n      pop\n      pop\n      pop\n      jump\t// out\n        /* \"#utility.yul\":7:106   */\n    tag_371:\n        /* \"#utility.yul\":59:65   */\n      0x00\n        /* \"#utility.yul\":93:98   */\n      dup2\n        /* \"#utility.yul\":87:99   */\n      mload\n        /* \"#utility.yul\":77:99   */\n      swap1\n      pop\n        /* \"#utility.yul\":7:106   */\n      swap2\n      swap1\n      pop\n      jump\t// out\n        /* \"#utility.yul\":112:281   */\n    tag_372:\n        /* \"#utility.yul\":196:207   */\n      0x00\n        /* \"#utility.yul\":230:236   */\n      dup3\n        /* \"#utility.yul\":225:228   */\n      dup3\n        /* \"#utility.yul\":218:237   */\n      mstore\n        /* \"#utility.yul\":270:274   */\n      0x20\n        /* \"#utility.yul\":265:268   */\n      dup3\n        /* \"#utility.yul\":261:275   */\n      add\n        /* \"#utility.yul\":246:275   */\n      swap1\n      pop\n        /* \"#utility.yul\":112:281   */\n      swap3\n      swap2\n      pop\n      pop\n      jump\t// out\n        /* \"#utility.yul\":287:594   */\n    tag_373:\n        /* \"#utility.yul\":355:356   */\n      0x00\n        /* \"#utility.yul\":365:478   */\n    tag_421:\n        /* \"#utility.yul\":379:385   */\n      dup4\n        /* \"#utility.yul\":376:377   */\n      dup2\n        /* \"#utility.yul\":373:386   */\n      lt\n        /* \"#utility.yul\":365:478   */\n      iszero\n      tag_423\n      jumpi\n        /* \"#utility.yul\":464:465   */\n      dup1\n        /* \"#utility.yul\":459:462   */\n      dup3\n        /* \"#utility.yul\":455:466   */\n      add\n        /* \"#utility.yul\":449:467   */\n      mload\n        /* \"#utility.yul\":445:446   */\n      dup2\n        /* \"#utility.yul\":440:443   */\n      dup5\n        /* \"#utility.yul\":436:447   */\n      add\n        /* \"#utility.yul\":429:468   */\n      mstore\n        /* \"#utility.yul\":401:403   */\n      0x20\n        /* \"#utility.yul\":398:399   */\n      dup2\n        /* \"#utility.yul\":394:404   */\n      add\n        /* \"#utility.yul\":389:404   */\n      swap1\n      pop\n        /* \"#utility.yul\":365:478   */\n      jump(tag_421)\n    tag_423:\n        /* \"#utility.yul\":496:502   */\n      dup4\n        /* \"#utility.yul\":493:494   */\n      dup2\n        /* \"#utility.yul\":490:503   */\n      gt\n        /* \"#utility.yul\":487:588   */\n      iszero\n      tag_424\n      jumpi\n        /* \"#utility.yul\":576:577   */\n      0x00\n        /* \"#utility.yul\":567:573   */\n      dup5\n        /* \"#utility.yul\":562:565   */\n      dup5\n        /* \"#utility.yul\":558:574   */\n      add\n        /* \"#utility.yul\":551:578   */\n      mstore\n        /* \"#utility.yul\":487:588   */\n    tag_424:\n        /* \"#utility.yul\":336:594   */\n      pop\n        /* \"#utility.yul\":287:594   */\n      pop\n      pop\n      pop\n      jump\t// out\n        /* \"#utility.yul\":600:702   */\n    tag_374:\n        /* \"#utility.yul\":641:647   */\n      0x00\n        /* \"#utility.yul\":692:694   */\n      0x1f\n        /* \"#utility.yul\":688:695   */\n      not\n        /* \"#utility.yul\":683:685   */\n      0x1f\n        /* \"#utility.yul\":676:681   */\n      dup4\n        /* \"#utility.yul\":672:686   */\n      add\n        /* \"#utility.yul\":668:696   */\n      and\n        /* \"#utility.yul\":658:696   */\n      swap1\n      pop\n        /* \"#utility.yul\":600:702   */\n      swap2\n      swap1\n      pop\n      jump\t// out\n        /* \"#utility.yul\":708:1072   */\n    tag_375:\n        /* \"#utility.yul\":796:799   */\n      0x00\n        /* \"#utility.yul\":824:863   */\n      tag_427\n        /* \"#utility.yul\":857:862   */\n      dup3\n        /* \"#utility.yul\":824:863   */\n      tag_371\n      jump\t// in\n    tag_427:\n        /* \"#utility.yul\":879:950   */\n      tag_428\n        /* \"#utility.yul\":943:949   */\n      dup2\n        /* \"#utility.yul\":938:941   */\n      dup6\n        /* \"#utility.yul\":879:950   */\n      tag_372\n      jump\t// in\n    tag_428:\n        /* \"#utility.yul\":872:950   */\n      swap4\n      pop\n        /* \"#utility.yul\":959:1011   */\n      tag_429\n        /* \"#utility.yul\":1004:1010   */\n      dup2\n        /* \"#utility.yul\":999:1002   */\n      dup6\n        /* \"#utility.yul\":992:996   */\n      0x20\n        /* \"#utility.yul\":985:990   */\n      dup7\n        /* \"#utility.yul\":981:997   */\n      add\n        /* \"#utility.yul\":959:1011   */\n      tag_373\n      jump\t// in\n    tag_429:\n        /* \"#utility.yul\":1036:1065   */\n      tag_430\n        /* \"#utility.yul\":1058:1064   */\n      dup2\n        /* \"#utility.yul\":1036:1065   */\n      tag_374\n      jump\t// in\n    tag_430:\n        /* \"#utility.yul\":1031:1034   */\n      dup5\n        /* \"#utility.yul\":1027:1066   */\n      add\n        /* \"#utility.yul\":1020:1066   */\n      swap2\n      pop\n        /* \"#utility.yul\":800:1072   */\n      pop\n        /* \"#utility.yul\":708:1072   */\n      swap3\n      swap2\n      pop\n      pop\n      jump\t// out\n        /* \"#utility.yul\":1078:1391   */\n    tag_28:\n        /* \"#utility.yul\":1191:1195   */\n      0x00\n        /* \"#utility.yul\":1229:1231   */\n      0x20\n        /* \"#utility.yul\":1218:1227   */\n      dup3\n        /* \"#utility.yul\":1214:1232   */\n      add\n        /* \"#utility.yul\":1206:1232   */\n      swap1\n      pop\n        /* \"#utility.yul\":1278:1287   */\n      dup2\n        /* \"#utility.yul\":1272:1276   */\n      dup2\n        /* \"#utility.yul\":1268:1288   */\n      sub\n        /* \"#utility.yul\":1264:1265   */\n      0x00\n        /* \"#utility.yul\":1253:1262   */\n      dup4\n        /* \"#utility.yul\":1249:1266   */\n      add\n        /* \"#utility.yul\":1242:1289   */\n      mstore\n        /* \"#utility.yul\":1306:1384   */\n      tag_432\n        /* \"#utility.yul\":1379:1383   */\n      dup2\n        /* \"#utility.yul\":1370:1376   */\n      dup5\n        /* \"#utility.yul\":1306:1384   */\n      tag_375\n      jump\t// in\n    tag_432:\n        /* \"#utility.yul\":1298:1384   */\n      swap1\n      pop\n        /* \"#utility.yul\":1078:1391   */\n      swap3\n      swap2\n      pop\n      pop\n      jump\t// out\n        /* \"#utility.yul\":1478:1595   */\n    tag_377:\n        /* \"#utility.yul\":1587:1588   */\n      0x00\n        /* \"#utility.yul\":1584:1585   */\n      dup1\n        /* \"#utility.yul\":1577:1589   */\n      revert\n        /* \"#utility.yul\":1724:1850   */\n    tag_379:\n        /* \"#utility.yul\":1761:1768   */\n      0x00\n        /* \"#utility.yul\":1801:1843   */\n      0xffffffffffffffffffffffffffffffffffffffff\n        /* \"#utility.yul\":1794:1799   */\n      dup3\n        /* \"#utility.yul\":1790:1844   */\n      and\n        /* \"#utility.yul\":1779:1844   */\n      swap1\n      pop\n        /* \"#utility.yul\":1724:1850   */\n      swap2\n      swap1\n      pop\n      jump\t// out\n        /* \"#utility.yul\":1856:1952   */\n    tag_380:\n        /* \"#utility.yul\":1893:1900   */\n      0x00\n        /* \"#utility.yul\":1922:1946   */\n      tag_438\n        /* \"#utility.yul\":1940:1945   */\n      dup3\n        /* \"#utility.yul\":1922:1946   */\n      tag_379\n      jump\t// in\n    tag_438:\n        /* \"#utility.yul\":1911:1946   */\n      swap1\n      pop\n        /* \"#utility.yul\":1856:1952   */\n      swap2\n      swap1\n      pop\n      jump\t// out\n        /* \"#utility.yul\":1958:2080   */\n    tag_381:\n        /* \"#utility.yul\":2031:2055   */\n      tag_440\n        /* \"#utility.yul\":2049:2054   */\n      dup2\n        /* \"#utility.yul\":2031:2055   */\n      tag_380\n      jump\t// in\n    tag_440:\n        /* \"#utility.yul\":2024:2029   */\n      dup2\n        /* \"#utility.yul\":2021:2056   */\n      eq\n        /* \"#utility.yul\":2011:2074   */\n      tag_441\n      jumpi\n        /* \"#utility.yul\":2070:2071   */\n      0x00\n        /* \"#utility.yul\":2067:2068   */\n      dup1\n        /* \"#utility.yul\":2060:2072   */\n      revert\n        /* \"#utility.yul\":2011:2074   */\n    tag_441:\n        /* \"#utility.yul\":1958:2080   */\n      pop\n      jump\t// out\n        /* \"#utility.yul\":2086:2225   */\n    tag_382:\n        /* \"#utility.yul\":2132:2137   */\n      0x00\n        /* \"#utility.yul\":2170:2176   */\n      dup2\n        /* \"#utility.yul\":2157:2177   */\n      calldataload\n        /* \"#utility.yul\":2148:2177   */\n      swap1\n      pop\n        /* \"#utility.yul\":2186:2219   */\n      tag_443\n        /* \"#utility.yul\":2213:2218   */\n      dup2\n        /* \"#utility.yul\":2186:2219   */\n      tag_381\n      jump\t// in\n    tag_443:\n        /* \"#utility.yul\":2086:2225   */\n      swap3\n      swap2\n      pop\n      pop\n      jump\t// out\n        /* \"#utility.yul\":2231:2308   */\n    tag_383:\n        /* \"#utility.yul\":2268:2275   */\n      0x00\n        /* \"#utility.yul\":2297:2302   */\n      dup2\n        /* \"#utility.yul\":2286:2302   */\n      swap1\n      pop\n        /* \"#utility.yul\":2231:2308   */\n      swap2\n      swap1\n      pop\n      jump\t// out\n        /* \"#utility.yul\":2314:2436   */\n    tag_384:\n        /* \"#utility.yul\":2387:2411   */\n      tag_446\n        /* \"#utility.yul\":2405:2410   */\n      dup2\n        /* \"#utility.yul\":2387:2411   */\n      tag_383\n      jump\t// in\n    tag_446:\n        /* \"#utility.yul\":2380:2385   */\n      dup2\n        /* \"#utility.yul\":2377:2412   */\n      eq\n        /* \"#utility.yul\":2367:2430   */\n      tag_447\n      jumpi\n        /* \"#utility.yul\":2426:2427   */\n      0x00\n        /* \"#utility.yul\":2423:2424   */\n      dup1\n        /* \"#utility.yul\":2416:2428   */\n      revert\n        /* \"#utility.yul\":2367:2430   */\n    tag_447:\n        /* \"#utility.yul\":2314:2436   */\n      pop\n      jump\t// out\n        /* \"#utility.yul\":2442:2581   */\n    tag_385:\n        /* \"#utility.yul\":2488:2493   */\n      0x00\n        /* \"#utility.yul\":2526:2532   */\n      dup2\n        /* \"#utility.yul\":2513:2533   */\n      calldataload\n        /* \"#utility.yul\":2504:2533   */\n      swap1\n      pop\n        /* \"#utility.yul\":2542:2575   */\n      tag_449\n        /* \"#utility.yul\":2569:2574   */\n      dup2\n        /* \"#utility.yul\":2542:2575   */\n      tag_384\n      jump\t// in\n    tag_449:\n        /* \"#utility.yul\":2442:2581   */\n      swap3\n      swap2\n      pop\n      pop\n      jump\t// out\n        /* \"#utility.yul\":2587:3061   */\n    tag_31:\n        /* \"#utility.yul\":2655:2661   */\n      0x00\n        /* \"#utility.yul\":2663:2669   */\n      dup1\n        /* \"#utility.yul\":2712:2714   */\n      0x40\n        /* \"#utility.yul\":2700:2709   */\n      dup4\n        /* \"#utility.yul\":2691:2698   */\n      dup6\n        /* \"#utility.yul\":2687:2710   */\n      sub\n        /* \"#utility.yul\":2683:2715   */\n      slt\n        /* \"#utility.yul\":2680:2799   */\n      iszero\n      tag_451\n      jumpi\n        /* \"#utility.yul\":2718:2797   */\n      tag_452\n      tag_377\n      jump\t// in\n    tag_452:\n        /* \"#utility.yul\":2680:2799   */\n    tag_451:\n        /* \"#utility.yul\":2838:2839   */\n      0x00\n        /* \"#utility.yul\":2863:2916   */\n      tag_453\n        /* \"#utility.yul\":2908:2915   */\n      dup6\n        /* \"#utility.yul\":2899:2905   */\n      dup3\n        /* \"#utility.yul\":2888:2897   */\n      dup7\n        /* \"#utility.yul\":2884:2906   */\n      add\n        /* \"#utility.yul\":2863:2916   */\n      tag_382\n      jump\t// in\n    tag_453:\n        /* \"#utility.yul\":2853:2916   */\n      swap3\n      pop\n        /* \"#utility.yul\":2809:2926   */\n      pop\n        /* \"#utility.yul\":2965:2967   */\n      0x20\n        /* \"#utility.yul\":2991:3044   */\n      tag_454\n        /* \"#utility.yul\":3036:3043   */\n      dup6\n        /* \"#utility.yul\":3027:3033   */\n      dup3\n        /* \"#utility.yul\":3016:3025   */\n      dup7\n        /* \"#utility.yul\":3012:3034   */\n      add\n        /* \"#utility.yul\":2991:3044   */\n      tag_385\n      jump\t// in\n    tag_454:\n        /* \"#utility.yul\":2981:3044   */\n      swap2\n      pop\n        /* \"#utility.yul\":2936:3054   */\n      pop\n        /* \"#utility.yul\":2587:3061   */\n      swap3\n      pop\n      swap3\n      swap1\n      pop\n      jump\t// out\n        /* \"#utility.yul\":3067:3157   */\n    tag_386:\n        /* \"#utility.yul\":3101:3108   */\n      0x00\n        /* \"#utility.yul\":3144:3149   */\n      dup2\n        /* \"#utility.yul\":3137:3150   */\n      iszero\n        /* \"#utility.yul\":3130:3151   */\n      iszero\n        /* \"#utility.yul\":3119:3151   */\n      swap1\n      pop\n        /* \"#utility.yul\":3067:3157   */\n      swap2\n      swap1\n      pop\n      jump\t// out\n        /* \"#utility.yul\":3163:3272   */\n    tag_387:\n        /* \"#utility.yul\":3244:3265   */\n      tag_457\n        /* \"#utility.yul\":3259:3264   */\n      dup2\n        /* \"#utility.yul\":3244:3265   */\n      tag_386\n      jump\t// in\n    tag_457:\n        /* \"#utility.yul\":3239:3242   */\n      dup3\n        /* \"#utility.yul\":3232:3266   */\n      mstore\n        /* \"#utility.yul\":3163:3272   */\n      pop\n      pop\n      jump\t// out\n        /* \"#utility.yul\":3278:3488   */\n    tag_34:\n        /* \"#utility.yul\":3365:3369   */\n      0x00\n        /* \"#utility.yul\":3403:3405   */\n      0x20\n        /* \"#utility.yul\":3392:3401   */\n      dup3\n        /* \"#utility.yul\":3388:3406   */\n      add\n        /* \"#utility.yul\":3380:3406   */\n      swap1\n      pop\n        /* \"#utility.yul\":3416:3481   */\n      tag_459\n        /* \"#utility.yul\":3478:3479   */\n      0x00\n        /* \"#utility.yul\":3467:3476   */\n      dup4\n        /* \"#utility.yul\":3463:3480   */\n      add\n        /* \"#utility.yul\":3454:3460   */\n      dup5\n        /* \"#utility.yul\":3416:3481   */\n      tag_387\n      jump\t// in\n    tag_459:\n        /* \"#utility.yul\":3278:3488   */\n      swap3\n      swap2\n      pop\n      pop\n      jump\t// out\n        /* \"#utility.yul\":3494:3612   */\n    tag_388:\n        /* \"#utility.yul\":3581:3605   */\n      tag_461\n        /* \"#utility.yul\":3599:3604   */\n      dup2\n        /* \"#utility.yul\":3581:3605   */\n      tag_383\n      jump\t// in\n    tag_461:\n        /* \"#utility.yul\":3576:3579   */\n      dup3\n        /* \"#utility.yul\":3569:3606   */\n      mstore\n        /* \"#utility.yul\":3494:3612   */\n      pop\n      pop\n      jump\t// out\n        /* \"#utility.yul\":3618:3840   */\n    tag_44:\n        /* \"#utility.yul\":3711:3715   */\n      0x00\n        /* \"#utility.yul\":3749:3751   */\n      0x20\n        /* \"#utility.yul\":3738:3747   */\n      dup3\n        /* \"#utility.yul\":3734:3752   */\n      add\n        /* \"#utility.yul\":3726:3752   */\n      swap1\n      pop\n        /* \"#utility.yul\":3762:3833   */\n      tag_463\n        /* \"#utility.yul\":3830:3831   */\n      0x00\n        /* \"#utility.yul\":3819:3828   */\n      dup4\n        /* \"#utility.yul\":3815:3832   */\n      add\n        /* \"#utility.yul\":3806:3812   */\n      dup5\n        /* \"#utility.yul\":3762:3833   */\n      tag_388\n      jump\t// in\n    tag_463:\n        /* \"#utility.yul\":3618:3840   */\n      swap3\n      swap2\n      pop\n      pop\n      jump\t// out\n        /* \"#utility.yul\":3846:4465   */\n    tag_47:\n        /* \"#utility.yul\":3923:3929   */\n      0x00\n        /* \"#utility.yul\":3931:3937   */\n      dup1\n        /* \"#utility.yul\":3939:3945   */\n      0x00\n        /* \"#utility.yul\":3988:3990   */\n      0x60\n        /* \"#utility.yul\":3976:3985   */\n      dup5\n        /* \"#utility.yul\":3967:3974   */\n      dup7\n        /* \"#utility.yul\":3963:3986   */\n      sub\n        /* \"#utility.yul\":3959:3991   */\n      slt\n        /* \"#utility.yul\":3956:4075   */\n      iszero\n      tag_465\n      jumpi\n        /* \"#utility.yul\":3994:4073   */\n      tag_466\n      tag_377\n      jump\t// in\n    tag_466:\n        /* \"#utility.yul\":3956:4075   */\n    tag_465:\n        /* \"#utility.yul\":4114:4115   */\n      0x00\n        /* \"#utility.yul\":4139:4192   */\n      tag_467\n        /* \"#utility.yul\":4184:4191   */\n      dup7\n        /* \"#utility.yul\":4175:4181   */\n      dup3\n        /* \"#utility.yul\":4164:4173   */\n      dup8\n        /* \"#utility.yul\":4160:4182   */\n      add\n        /* \"#utility.yul\":4139:4192   */\n      tag_382\n      jump\t// in\n    tag_467:\n        /* \"#utility.yul\":4129:4192   */\n      swap4\n      pop\n        /* \"#utility.yul\":4085:4202   */\n      pop\n        /* \"#utility.yul\":4241:4243   */\n      0x20\n        /* \"#utility.yul\":4267:4320   */\n      tag_468\n        /* \"#utility.yul\":4312:4319   */\n      dup7\n        /* \"#utility.yul\":4303:4309   */\n      dup3\n        /* \"#utility.yul\":4292:4301   */\n      dup8\n        /* \"#utility.yul\":4288:4310   */\n      add\n        /* \"#utility.yul\":4267:4320   */\n      tag_382\n      jump\t// in\n    tag_468:\n        /* \"#utility.yul\":4257:4320   */\n      swap3\n      pop\n        /* \"#utility.yul\":4212:4330   */\n      pop\n        /* \"#utility.yul\":4369:4371   */\n      0x40\n        /* \"#utility.yul\":4395:4448   */\n      tag_469\n        /* \"#utility.yul\":4440:4447   */\n      dup7\n        /* \"#utility.yul\":4431:4437   */\n      dup3\n        /* \"#utility.yul\":4420:4429   */\n      dup8\n        /* \"#utility.yul\":4416:4438   */\n      add\n        /* \"#utility.yul\":4395:4448   */\n      tag_385\n      jump\t// in\n    tag_469:\n        /* \"#utility.yul\":4385:4448   */\n      swap2\n      pop\n        /* \"#utility.yul\":4340:4458   */\n      pop\n        /* \"#utility.yul\":3846:4465   */\n      swap3\n      pop\n      swap3\n      pop\n      swap3\n      jump\t// out\n        /* \"#utility.yul\":4471:4557   */\n    tag_389:\n        /* \"#utility.yul\":4506:4513   */\n      0x00\n        /* \"#utility.yul\":4546:4550   */\n      0xff\n        /* \"#utility.yul\":4539:4544   */\n      dup3\n        /* \"#utility.yul\":4535:4551   */\n      and\n        /* \"#utility.yul\":4524:4551   */\n      swap1\n      pop\n        /* \"#utility.yul\":4471:4557   */\n      swap2\n      swap1\n      pop\n      jump\t// out\n        /* \"#utility.yul\":4563:4675   */\n    tag_390:\n        /* \"#utility.yul\":4646:4668   */\n      tag_472\n        /* \"#utility.yul\":4662:4667   */\n      dup2\n        /* \"#utility.yul\":4646:4668   */\n      tag_389\n      jump\t// in\n    tag_472:\n        /* \"#utility.yul\":4641:4644   */\n      dup3\n        /* \"#utility.yul\":4634:4669   */\n      mstore\n        /* \"#utility.yul\":4563:4675   */\n      pop\n      pop\n      jump\t// out\n        /* \"#utility.yul\":4681:4895   */\n    tag_53:\n        /* \"#utility.yul\":4770:4774   */\n      0x00\n        /* \"#utility.yul\":4808:4810   */\n      0x20\n        /* \"#utility.yul\":4797:4806   */\n      dup3\n        /* \"#utility.yul\":4793:4811   */\n      add\n        /* \"#utility.yul\":4785:4811   */\n      swap1\n      pop\n        /* \"#utility.yul\":4821:4888   */\n      tag_474\n        /* \"#utility.yul\":4885:4886   */\n      0x00\n        /* \"#utility.yul\":4874:4883   */\n      dup4\n        /* \"#utility.yul\":4870:4887   */\n      add\n        /* \"#utility.yul\":4861:4867   */\n      dup5\n        /* \"#utility.yul\":4821:4888   */\n      tag_390\n      jump\t// in\n    tag_474:\n        /* \"#utility.yul\":4681:4895   */\n      swap3\n      swap2\n      pop\n      pop\n      jump\t// out\n        /* \"#utility.yul\":4901:5230   */\n    tag_60:\n        /* \"#utility.yul\":4960:4966   */\n      0x00\n        /* \"#utility.yul\":5009:5011   */\n      0x20\n        /* \"#utility.yul\":4997:5006   */\n      dup3\n        /* \"#utility.yul\":4988:4995   */\n      dup5\n        /* \"#utility.yul\":4984:5007   */\n      sub\n        /* \"#utility.yul\":4980:5012   */\n      slt\n        /* \"#utility.yul\":4977:5096   */\n      iszero\n      tag_476\n      jumpi\n        /* \"#utility.yul\":5015:5094   */\n      tag_477\n      tag_377\n      jump\t// in\n    tag_477:\n        /* \"#utility.yul\":4977:5096   */\n    tag_476:\n        /* \"#utility.yul\":5135:5136   */\n      0x00\n        /* \"#utility.yul\":5160:5213   */\n      tag_478\n        /* \"#utility.yul\":5205:5212   */\n      dup5\n        /* \"#utility.yul\":5196:5202   */\n      dup3\n        /* \"#utility.yul\":5185:5194   */\n      dup6\n        /* \"#utility.yul\":5181:5203   */\n      add\n        /* \"#utility.yul\":5160:5213   */\n      tag_382\n      jump\t// in\n    tag_478:\n        /* \"#utility.yul\":5150:5213   */\n      swap2\n      pop\n        /* \"#utility.yul\":5106:5223   */\n      pop\n        /* \"#utility.yul\":4901:5230   */\n      swap3\n      swap2\n      pop\n      pop\n      jump\t// out\n        /* \"#utility.yul\":5236:5354   */\n    tag_391:\n        /* \"#utility.yul\":5323:5347   */\n      tag_480\n        /* \"#utility.yul\":5341:5346   */\n      dup2\n        /* \"#utility.yul\":5323:5347   */\n      tag_380\n      jump\t// in\n    tag_480:\n        /* \"#utility.yul\":5318:5321   */\n      dup3\n        /* \"#utility.yul\":5311:5348   */\n      mstore\n        /* \"#utility.yul\":5236:5354   */\n      pop\n      pop\n      jump\t// out\n        /* \"#utility.yul\":5360:5582   */\n    tag_72:\n        /* \"#utility.yul\":5453:5457   */\n      0x00\n        /* \"#utility.yul\":5491:5493   */\n      0x20\n        /* \"#utility.yul\":5480:5489   */\n      dup3\n        /* \"#utility.yul\":5476:5494   */\n      add\n        /* \"#utility.yul\":5468:5494   */\n      swap1\n      pop\n        /* \"#utility.yul\":5504:5575   */\n      tag_482\n        /* \"#utility.yul\":5572:5573   */\n      0x00\n        /* \"#utility.yul\":5561:5570   */\n      dup4\n        /* \"#utility.yul\":5557:5574   */\n      add\n        /* \"#utility.yul\":5548:5554   */\n      dup5\n        /* \"#utility.yul\":5504:5575   */\n      tag_391\n      jump\t// in\n    tag_482:\n        /* \"#utility.yul\":5360:5582   */\n      swap3\n      swap2\n      pop\n      pop\n      jump\t// out\n        /* \"#utility.yul\":5588:5917   */\n    tag_78:\n        /* \"#utility.yul\":5647:5653   */\n      0x00\n        /* \"#utility.yul\":5696:5698   */\n      0x20\n        /* \"#utility.yul\":5684:5693   */\n      dup3\n        /* \"#utility.yul\":5675:5682   */\n      dup5\n        /* \"#utility.yul\":5671:5694   */\n      sub\n        /* \"#utility.yul\":5667:5699   */\n      slt\n        /* \"#utility.yul\":5664:5783   */\n      iszero\n      tag_484\n      jumpi\n        /* \"#utility.yul\":5702:5781   */\n      tag_485\n      tag_377\n      jump\t// in\n    tag_485:\n        /* \"#utility.yul\":5664:5783   */\n    tag_484:\n        /* \"#utility.yul\":5822:5823   */\n      0x00\n        /* \"#utility.yul\":5847:5900   */\n      tag_486\n        /* \"#utility.yul\":5892:5899   */\n      dup5\n        /* \"#utility.yul\":5883:5889   */\n      dup3\n        /* \"#utility.yul\":5872:5881   */\n      dup6\n        /* \"#utility.yul\":5868:5890   */\n      add\n        /* \"#utility.yul\":5847:5900   */\n      tag_385\n      jump\t// in\n    tag_486:\n        /* \"#utility.yul\":5837:5900   */\n      swap2\n      pop\n        /* \"#utility.yul\":5793:5910   */\n      pop\n        /* \"#utility.yul\":5588:5917   */\n      swap3\n      swap2\n      pop\n      pop\n      jump\t// out\n        /* \"#utility.yul\":5923:6041   */\n    tag_392:\n        /* \"#utility.yul\":5994:6016   */\n      tag_488\n        /* \"#utility.yul\":6010:6015   */\n      dup2\n        /* \"#utility.yul\":5994:6016   */\n      tag_389\n      jump\t// in\n    tag_488:\n        /* \"#utility.yul\":5987:5992   */\n      dup2\n        /* \"#utility.yul\":5984:6017   */\n      eq\n        /* \"#utility.yul\":5974:6035   */\n      tag_489\n      jumpi\n        /* \"#utility.yul\":6031:6032   */\n      0x00\n        /* \"#utility.yul\":6028:6029   */\n      dup1\n        /* \"#utility.yul\":6021:6033   */\n      revert\n        /* \"#utility.yul\":5974:6035   */\n    tag_489:\n        /* \"#utility.yul\":5923:6041   */\n      pop\n      jump\t// out\n        /* \"#utility.yul\":6047:6182   */\n    tag_393:\n        /* \"#utility.yul\":6091:6096   */\n      0x00\n        /* \"#utility.yul\":6129:6135   */\n      dup2\n        /* \"#utility.yul\":6116:6136   */\n      calldataload\n        /* \"#utility.yul\":6107:6136   */\n      swap1\n      pop\n        /* \"#utility.yul\":6145:6176   */\n      tag_491\n        /* \"#utility.yul\":6170:6175   */\n      dup2\n        /* \"#utility.yul\":6145:6176   */\n      tag_392\n      jump\t// in\n    tag_491:\n        /* \"#utility.yul\":6047:6182   */\n      swap3\n      swap2\n      pop\n      pop\n      jump\t// out\n        /* \"#utility.yul\":6188:6658   */\n    tag_82:\n        /* \"#utility.yul\":6254:6260   */\n      0x00\n        /* \"#utility.yul\":6262:6268   */\n      dup1\n        /* \"#utility.yul\":6311:6313   */\n      0x40\n        /* \"#utility.yul\":6299:6308   */\n      dup4\n        /* \"#utility.yul\":6290:6297   */\n      dup6\n        /* \"#utility.yul\":6286:6309   */\n      sub\n        /* \"#utility.yul\":6282:6314   */\n      slt\n        /* \"#utility.yul\":6279:6398   */\n      iszero\n      tag_493\n      jumpi\n        /* \"#utility.yul\":6317:6396   */\n      tag_494\n      tag_377\n      jump\t// in\n    tag_494:\n        /* \"#utility.yul\":6279:6398   */\n    tag_493:\n        /* \"#utility.yul\":6437:6438   */\n      0x00\n        /* \"#utility.yul\":6462:6515   */\n      tag_495\n        /* \"#utility.yul\":6507:6514   */\n      dup6\n        /* \"#utility.yul\":6498:6504   */\n      dup3\n        /* \"#utility.yul\":6487:6496   */\n      dup7\n        /* \"#utility.yul\":6483:6505   */\n      add\n        /* \"#utility.yul\":6462:6515   */\n      tag_382\n      jump\t// in\n    tag_495:\n        /* \"#utility.yul\":6452:6515   */\n      swap3\n      pop\n        /* \"#utility.yul\":6408:6525   */\n      pop\n        /* \"#utility.yul\":6564:6566   */\n      0x20\n        /* \"#utility.yul\":6590:6641   */\n      tag_496\n        /* \"#utility.yul\":6633:6640   */\n      dup6\n        /* \"#utility.yul\":6624:6630   */\n      dup3\n        /* \"#utility.yul\":6613:6622   */\n      dup7\n        /* \"#utility.yul\":6609:6631   */\n      add\n        /* \"#utility.yul\":6590:6641   */\n      tag_393\n      jump\t// in\n    tag_496:\n        /* \"#utility.yul\":6580:6641   */\n      swap2\n      pop\n        /* \"#utility.yul\":6535:6651   */\n      pop\n        /* \"#utility.yul\":6188:6658   */\n      swap3\n      pop\n      swap3\n      swap1\n      pop\n      jump\t// out\n        /* \"#utility.yul\":6664:7138   */\n    tag_94:\n        /* \"#utility.yul\":6732:6738   */\n      0x00\n        /* \"#utility.yul\":6740:6746   */\n      dup1\n        /* \"#utility.yul\":6789:6791   */\n      0x40\n        /* \"#utility.yul\":6777:6786   */\n      dup4\n        /* \"#utility.yul\":6768:6775   */\n      dup6\n        /* \"#utility.yul\":6764:6787   */\n      sub\n        /* \"#utility.yul\":6760:6792   */\n      slt\n        /* \"#utility.yul\":6757:6876   */\n      iszero\n      tag_498\n      jumpi\n        /* \"#utility.yul\":6795:6874   */\n      tag_499\n      tag_377\n      jump\t// in\n    tag_499:\n        /* \"#utility.yul\":6757:6876   */\n    tag_498:\n        /* \"#utility.yul\":6915:6916   */\n      0x00\n        /* \"#utility.yul\":6940:6993   */\n      tag_500\n        /* \"#utility.yul\":6985:6992   */\n      dup6\n        /* \"#utility.yul\":6976:6982   */\n      dup3\n        /* \"#utility.yul\":6965:6974   */\n      dup7\n        /* \"#utility.yul\":6961:6983   */\n      add\n        /* \"#utility.yul\":6940:6993   */\n      tag_382\n      jump\t// in\n    tag_500:\n        /* \"#utility.yul\":6930:6993   */\n      swap3\n      pop\n        /* \"#utility.yul\":6886:7003   */\n      pop\n        /* \"#utility.yul\":7042:7044   */\n      0x20\n        /* \"#utility.yul\":7068:7121   */\n      tag_501\n        /* \"#utility.yul\":7113:7120   */\n      dup6\n        /* \"#utility.yul\":7104:7110   */\n      dup3\n        /* \"#utility.yul\":7093:7102   */\n      dup7\n        /* \"#utility.yul\":7089:7111   */\n      add\n        /* \"#utility.yul\":7068:7121   */\n      tag_382\n      jump\t// in\n    tag_501:\n        /* \"#utility.yul\":7058:7121   */\n      swap2\n      pop\n        /* \"#utility.yul\":7013:7131   */\n      pop\n        /* \"#utility.yul\":6664:7138   */\n      swap3\n      pop\n      swap3\n      swap1\n      pop\n      jump\t// out\n        /* \"#utility.yul\":7144:7324   */\n    tag_394:\n        /* \"#utility.yul\":7192:7269   */\n      0x4e487b7100000000000000000000000000000000000000000000000000000000\n        /* \"#utility.yul\":7189:7190   */\n      0x00\n        /* \"#utility.yul\":7182:7270   */\n      mstore\n        /* \"#utility.yul\":7289:7293   */\n      0x22\n        /* \"#utility.yul\":7286:7287   */\n      0x04\n        /* \"#utility.yul\":7279:7294   */\n      mstore\n        /* \"#utility.yul\":7313:7317   */\n      0x24\n        /* \"#utility.yul\":7310:7311   */\n      0x00\n        /* \"#utility.yul\":7303:7318   */\n      revert\n        /* \"#utility.yul\":7330:7650   */\n    tag_102:\n        /* \"#utility.yul\":7374:7380   */\n      0x00\n        /* \"#utility.yul\":7411:7412   */\n      0x02\n        /* \"#utility.yul\":7405:7409   */\n      dup3\n        /* \"#utility.yul\":7401:7413   */\n      div\n        /* \"#utility.yul\":7391:7413   */\n      swap1\n      pop\n        /* \"#utility.yul\":7458:7459   */\n      0x01\n        /* \"#utility.yul\":7452:7456   */\n      dup3\n        /* \"#utility.yul\":7448:7460   */\n      and\n        /* \"#utility.yul\":7479:7497   */\n      dup1\n        /* \"#utility.yul\":7469:7550   */\n      tag_504\n      jumpi\n        /* \"#utility.yul\":7535:7539   */\n      0x7f\n        /* \"#utility.yul\":7527:7533   */\n      dup3\n        /* \"#utility.yul\":7523:7540   */\n      and\n        /* \"#utility.yul\":7513:7540   */\n      swap2\n      pop\n        /* \"#utility.yul\":7469:7550   */\n    tag_504:\n        /* \"#utility.yul\":7597:7599   */\n      0x20\n        /* \"#utility.yul\":7589:7595   */\n      dup3\n        /* \"#utility.yul\":7586:7600   */\n      lt\n        /* \"#utility.yul\":7566:7584   */\n      dup2\n        /* \"#utility.yul\":7563:7601   */\n      sub\n        /* \"#utility.yul\":7560:7644   */\n      tag_505\n      jumpi\n        /* \"#utility.yul\":7616:7634   */\n      tag_506\n      tag_394\n      jump\t// in\n    tag_506:\n        /* \"#utility.yul\":7560:7644   */\n    tag_505:\n        /* \"#utility.yul\":7381:7650   */\n      pop\n        /* \"#utility.yul\":7330:7650   */\n      swap2\n      swap1\n      pop\n      jump\t// out\n        /* \"#utility.yul\":7656:7838   */\n    tag_395:\n        /* \"#utility.yul\":7796:7830   */\n      0x4f776e61626c653a2063616c6c6572206973206e6f7420746865206f776e6572\n        /* \"#utility.yul\":7792:7793   */\n      0x00\n        /* \"#utility.yul\":7784:7790   */\n      dup3\n        /* \"#utility.yul\":7780:7794   */\n      add\n        /* \"#utility.yul\":7773:7831   */\n      mstore\n        /* \"#utility.yul\":7656:7838   */\n      pop\n      jump\t// out\n        /* \"#utility.yul\":7844:8210   */\n    tag_396:\n        /* \"#utility.yul\":7986:7989   */\n      0x00\n        /* \"#utility.yul\":8007:8074   */\n      tag_509\n        /* \"#utility.yul\":8071:8073   */\n      0x20\n        /* \"#utility.yul\":8066:8069   */\n      dup4\n        /* \"#utility.yul\":8007:8074   */\n      tag_372\n      jump\t// in\n    tag_509:\n        /* \"#utility.yul\":8000:8074   */\n      swap2\n      pop\n        /* \"#utility.yul\":8083:8176   */\n      tag_510\n        /* \"#utility.yul\":8172:8175   */\n      dup3\n        /* \"#utility.yul\":8083:8176   */\n      tag_395\n      jump\t// in\n    tag_510:\n        /* \"#utility.yul\":8201:8203   */\n      0x20\n        /* \"#utility.yul\":8196:8199   */\n      dup3\n        /* \"#utility.yul\":8192:8204   */\n      add\n        /* \"#utility.yul\":8185:8204   */\n      swap1\n      pop\n        /* \"#utility.yul\":7844:8210   */\n      swap2\n      swap1\n      pop\n      jump\t// out\n        /* \"#utility.yul\":8216:8635   */\n    tag_117:\n        /* \"#utility.yul\":8382:8386   */\n      0x00\n        /* \"#utility.yul\":8420:8422   */\n      0x20\n        /* \"#utility.yul\":8409:8418   */\n      dup3\n        /* \"#utility.yul\":8405:8423   */\n      add\n        /* \"#utility.yul\":8397:8423   */\n      swap1\n      pop\n        /* \"#utility.yul\":8469:8478   */\n      dup2\n        /* \"#utility.yul\":8463:8467   */\n      dup2\n        /* \"#utility.yul\":8459:8479   */\n      sub\n        /* \"#utility.yul\":8455:8456   */\n      0x00\n        /* \"#utility.yul\":8444:8453   */\n      dup4\n        /* \"#utility.yul\":8440:8457   */\n      add\n        /* \"#utility.yul\":8433:8480   */\n      mstore\n        /* \"#utility.yul\":8497:8628   */\n      tag_512\n        /* \"#utility.yul\":8623:8627   */\n      dup2\n        /* \"#utility.yul\":8497:8628   */\n      tag_396\n      jump\t// in\n    tag_512:\n        /* \"#utility.yul\":8489:8628   */\n      swap1\n      pop\n        /* \"#utility.yul\":8216:8635   */\n      swap2\n      swap1\n      pop\n      jump\t// out\n        /* \"#utility.yul\":8641:8864   */\n    tag_397:\n        /* \"#utility.yul\":8781:8815   */\n      0x6163636f756e74206973206e6f74206120726567756c6172207368617265686f\n        /* \"#utility.yul\":8777:8778   */\n      0x00\n        /* \"#utility.yul\":8769:8775   */\n      dup3\n        /* \"#utility.yul\":8765:8779   */\n      add\n        /* \"#utility.yul\":8758:8816   */\n      mstore\n        /* \"#utility.yul\":8850:8856   */\n      0x6c64657200000000000000000000000000000000000000000000000000000000\n        /* \"#utility.yul\":8845:8847   */\n      0x20\n        /* \"#utility.yul\":8837:8843   */\n      dup3\n        /* \"#utility.yul\":8833:8848   */\n      add\n        /* \"#utility.yul\":8826:8857   */\n      mstore\n        /* \"#utility.yul\":8641:8864   */\n      pop\n      jump\t// out\n        /* \"#utility.yul\":8870:9236   */\n    tag_398:\n        /* \"#utility.yul\":9012:9015   */\n      0x00\n        /* \"#utility.yul\":9033:9100   */\n      tag_515\n        /* \"#utility.yul\":9097:9099   */\n      0x24\n        /* \"#utility.yul\":9092:9095   */\n      dup4\n        /* \"#utility.yul\":9033:9100   */\n      tag_372\n      jump\t// in\n    tag_515:\n        /* \"#utility.yul\":9026:9100   */\n      swap2\n      pop\n        /* \"#utility.yul\":9109:9202   */\n      tag_516\n        /* \"#utility.yul\":9198:9201   */\n      dup3\n        /* \"#utility.yul\":9109:9202   */\n      tag_397\n      jump\t// in\n    tag_516:\n        /* \"#utility.yul\":9227:9229   */\n      0x40\n        /* \"#utility.yul\":9222:9225   */\n      dup3\n        /* \"#utility.yul\":9218:9230   */\n      add\n        /* \"#utility.yul\":9211:9230   */\n      swap1\n      pop\n        /* \"#utility.yul\":8870:9236   */\n      swap2\n      swap1\n      pop\n      jump\t// out\n        /* \"#utility.yul\":9242:9661   */\n    tag_121:\n        /* \"#utility.yul\":9408:9412   */\n      0x00\n        /* \"#utility.yul\":9446:9448   */\n      0x20\n        /* \"#utility.yul\":9435:9444   */\n      dup3\n        /* \"#utility.yul\":9431:9449   */\n      add\n        /* \"#utility.yul\":9423:9449   */\n      swap1\n      pop\n        /* \"#utility.yul\":9495:9504   */\n      dup2\n        /* \"#utility.yul\":9489:9493   */\n      dup2\n        /* \"#utility.yul\":9485:9505   */\n      sub\n        /* \"#utility.yul\":9481:9482   */\n      0x00\n        /* \"#utility.yul\":9470:9479   */\n      dup4\n        /* \"#utility.yul\":9466:9483   */\n      add\n        /* \"#utility.yul\":9459:9506   */\n      mstore\n        /* \"#utility.yul\":9523:9654   */\n      tag_518\n        /* \"#utility.yul\":9649:9653   */\n      dup2\n        /* \"#utility.yul\":9523:9654   */\n      tag_398\n      jump\t// in\n    tag_518:\n        /* \"#utility.yul\":9515:9654   */\n      swap1\n      pop\n        /* \"#utility.yul\":9242:9661   */\n      swap2\n      swap1\n      pop\n      jump\t// out\n        /* \"#utility.yul\":9667:9847   */\n    tag_399:\n        /* \"#utility.yul\":9715:9792   */\n      0x4e487b7100000000000000000000000000000000000000000000000000000000\n        /* \"#utility.yul\":9712:9713   */\n      0x00\n        /* \"#utility.yul\":9705:9793   */\n      mstore\n        /* \"#utility.yul\":9812:9816   */\n      0x11\n        /* \"#utility.yul\":9809:9810   */\n      0x04\n        /* \"#utility.yul\":9802:9817   */\n      mstore\n        /* \"#utility.yul\":9836:9840   */\n      0x24\n        /* \"#utility.yul\":9833:9834   */\n      0x00\n        /* \"#utility.yul\":9826:9841   */\n      revert\n        /* \"#utility.yul\":9853:10158   */\n    tag_123:\n        /* \"#utility.yul\":9893:9896   */\n      0x00\n        /* \"#utility.yul\":9912:9932   */\n      tag_521\n        /* \"#utility.yul\":9930:9931   */\n      dup3\n        /* \"#utility.yul\":9912:9932   */\n      tag_383\n      jump\t// in\n    tag_521:\n        /* \"#utility.yul\":9907:9932   */\n      swap2\n      pop\n        /* \"#utility.yul\":9946:9966   */\n      tag_522\n        /* \"#utility.yul\":9964:9965   */\n      dup4\n        /* \"#utility.yul\":9946:9966   */\n      tag_383\n      jump\t// in\n    tag_522:\n        /* \"#utility.yul\":9941:9966   */\n      swap3\n      pop\n        /* \"#utility.yul\":10100:10101   */\n      dup3\n        /* \"#utility.yul\":10032:10098   */\n      0xffffffffffffffffffffffffffffffffffffffffffffffffffffffffffffffff\n        /* \"#utility.yul\":10028:10102   */\n      sub\n        /* \"#utility.yul\":10025:10026   */\n      dup3\n        /* \"#utility.yul\":10022:10103   */\n      gt\n        /* \"#utility.yul\":10019:10126   */\n      iszero\n      tag_523\n      jumpi\n        /* \"#utility.yul\":10106:10124   */\n      tag_524\n      tag_399\n      jump\t// in\n    tag_524:\n        /* \"#utility.yul\":10019:10126   */\n    tag_523:\n        /* \"#utility.yul\":10150:10151   */\n      dup3\n        /* \"#utility.yul\":10147:10148   */\n      dup3\n        /* \"#utility.yul\":10143:10152   */\n      add\n        /* \"#utility.yul\":10136:10152   */\n      swap1\n      pop\n        /* \"#utility.yul\":9853:10158   */\n      swap3\n      swap2\n      pop\n      pop\n      jump\t// out\n        /* \"#utility.yul\":10164:10344   */\n    tag_400:\n        /* \"#utility.yul\":10212:10289   */\n      0x4e487b7100000000000000000000000000000000000000000000000000000000\n        /* \"#utility.yul\":10209:10210   */\n      0x00\n        /* \"#utility.yul\":10202:10290   */\n      mstore\n        /* \"#utility.yul\":10309:10313   */\n      0x12\n        /* \"#utility.yul\":10306:10307   */\n      0x04\n        /* \"#utility.yul\":10299:10314   */\n      mstore\n        /* \"#utility.yul\":10333:10337   */\n      0x24\n        /* \"#utility.yul\":10330:10331   */\n      0x00\n        /* \"#utility.yul\":10323:10338   */\n      revert\n        /* \"#utility.yul\":10350:10535   */\n    tag_128:\n        /* \"#utility.yul\":10390:10391   */\n      0x00\n        /* \"#utility.yul\":10407:10427   */\n      tag_527\n        /* \"#utility.yul\":10425:10426   */\n      dup3\n        /* \"#utility.yul\":10407:10427   */\n      tag_383\n      jump\t// in\n    tag_527:\n        /* \"#utility.yul\":10402:10427   */\n      swap2\n      pop\n        /* \"#utility.yul\":10441:10461   */\n      tag_528\n        /* \"#utility.yul\":10459:10460   */\n      dup4\n        /* \"#utility.yul\":10441:10461   */\n      tag_383\n      jump\t// in\n    tag_528:\n        /* \"#utility.yul\":10436:10461   */\n      swap3\n      pop\n        /* \"#utility.yul\":10480:10481   */\n      dup3\n        /* \"#utility.yul\":10470:10505   */\n      tag_529\n      jumpi\n        /* \"#utility.yul\":10485:10503   */\n      tag_530\n      tag_400\n      jump\t// in\n    tag_530:\n        /* \"#utility.yul\":10470:10505   */\n    tag_529:\n        /* \"#utility.yul\":10527:10528   */\n      dup3\n        /* \"#utility.yul\":10524:10525   */\n      dup3\n        /* \"#utility.yul\":10520:10529   */\n      div\n        /* \"#utility.yul\":10515:10529   */\n      swap1\n      pop\n        /* \"#utility.yul\":10350:10535   */\n      swap3\n      swap2\n      pop\n      pop\n      jump\t// out\n        /* \"#utility.yul\":10541:10721   */\n    tag_131:\n        /* \"#utility.yul\":10589:10666   */\n      0x4e487b7100000000000000000000000000000000000000000000000000000000\n        /* \"#utility.yul\":10586:10587   */\n      0x00\n        /* \"#utility.yul\":10579:10667   */\n      mstore\n        /* \"#utility.yul\":10686:10690   */\n      0x32\n        /* \"#utility.yul\":10683:10684   */\n      0x04\n        /* \"#utility.yul\":10676:10691   */\n      mstore\n        /* \"#utility.yul\":10710:10714   */\n      0x24\n        /* \"#utility.yul\":10707:10708   */\n      0x00\n        /* \"#utility.yul\":10700:10715   */\n      revert\n        /* \"#utility.yul\":10727:11075   */\n    tag_138:\n        /* \"#utility.yul\":10767:10774   */\n      0x00\n        /* \"#utility.yul\":10790:10810   */\n      tag_533\n        /* \"#utility.yul\":10808:10809   */\n      dup3\n        /* \"#utility.yul\":10790:10810   */\n      tag_383\n      jump\t// in\n    tag_533:\n        /* \"#utility.yul\":10785:10810   */\n      swap2\n      pop\n        /* \"#utility.yul\":10824:10844   */\n      tag_534\n        /* \"#utility.yul\":10842:10843   */\n      dup4\n        /* \"#utility.yul\":10824:10844   */\n      tag_383\n      jump\t// in\n    tag_534:\n        /* \"#utility.yul\":10819:10844   */\n      swap3\n      pop\n        /* \"#utility.yul\":11012:11013   */\n      dup2\n        /* \"#utility.yul\":10944:11010   */\n      0xffffffffffffffffffffffffffffffffffffffffffffffffffffffffffffffff\n        /* \"#utility.yul\":10940:11014   */\n      div\n        /* \"#utility.yul\":10937:10938   */\n      dup4\n        /* \"#utility.yul\":10934:11015   */\n      gt\n        /* \"#utility.yul\":10929:10930   */\n      dup3\n        /* \"#utility.yul\":10922:10931   */\n      iszero\n        /* \"#utility.yul\":10915:10932   */\n      iszero\n        /* \"#utility.yul\":10911:11016   */\n      and\n        /* \"#utility.yul\":10908:11039   */\n      iszero\n      tag_535\n      jumpi\n        /* \"#utility.yul\":11019:11037   */\n      tag_536\n      tag_399\n      jump\t// in\n    tag_536:\n        /* \"#utility.yul\":10908:11039   */\n    tag_535:\n        /* \"#utility.yul\":11067:11068   */\n      dup3\n        /* \"#utility.yul\":11064:11065   */\n      dup3\n        /* \"#utility.yul\":11060:11069   */\n      mul\n        /* \"#utility.yul\":11049:11069   */\n      swap1\n      pop\n        /* \"#utility.yul\":10727:11075   */\n      swap3\n      swap2\n      pop\n      pop\n      jump\t// out\n        /* \"#utility.yul\":11081:11248   */\n    tag_152:\n        /* \"#utility.yul\":11118:11121   */\n      0x00\n        /* \"#utility.yul\":11141:11163   */\n      tag_538\n        /* \"#utility.yul\":11157:11162   */\n      dup3\n        /* \"#utility.yul\":11141:11163   */\n      tag_389\n      jump\t// in\n    tag_538:\n        /* \"#utility.yul\":11132:11163   */\n      swap2\n      pop\n        /* \"#utility.yul\":11185:11189   */\n      0xff\n        /* \"#utility.yul\":11178:11183   */\n      dup3\n        /* \"#utility.yul\":11175:11190   */\n      sub\n        /* \"#utility.yul\":11172:11213   */\n      tag_539\n      jumpi\n        /* \"#utility.yul\":11193:11211   */\n      tag_540\n      tag_399\n      jump\t// in\n    tag_540:\n        /* \"#utility.yul\":11172:11213   */\n    tag_539:\n        /* \"#utility.yul\":11240:11241   */\n      0x01\n        /* \"#utility.yul\":11233:11238   */\n      dup3\n        /* \"#utility.yul\":11229:11242   */\n      add\n        /* \"#utility.yul\":11222:11242   */\n      swap1\n      pop\n        /* \"#utility.yul\":11081:11248   */\n      swap2\n      swap1\n      pop\n      jump\t// out\n        /* \"#utility.yul\":11254:11436   */\n    tag_401:\n        /* \"#utility.yul\":11394:11428   */\n      0x6163636f756e74206973206120726567756c6172207368617265686f6c646572\n        /* \"#utility.yul\":11390:11391   */\n      0x00\n        /* \"#utility.yul\":11382:11388   */\n      dup3\n        /* \"#utility.yul\":11378:11392   */\n      add\n        /* \"#utility.yul\":11371:11429   */\n      mstore\n        /* \"#utility.yul\":11254:11436   */\n      pop\n      jump\t// out\n        /* \"#utility.yul\":11442:11808   */\n    tag_402:\n        /* \"#utility.yul\":11584:11587   */\n      0x00\n        /* \"#utility.yul\":11605:11672   */\n      tag_543\n        /* \"#utility.yul\":11669:11671   */\n      0x20\n        /* \"#utility.yul\":11664:11667   */\n      dup4\n        /* \"#utility.yul\":11605:11672   */\n      tag_372\n      jump\t// in\n    tag_543:\n        /* \"#utility.yul\":11598:11672   */\n      swap2\n      pop\n        /* \"#utility.yul\":11681:11774   */\n      tag_544\n        /* \"#utility.yul\":11770:11773   */\n      dup3\n        /* \"#utility.yul\":11681:11774   */\n      tag_401\n      jump\t// in\n    tag_544:\n        /* \"#utility.yul\":11799:11801   */\n      0x20\n        /* \"#utility.yul\":11794:11797   */\n      dup3\n        /* \"#utility.yul\":11790:11802   */\n      add\n        /* \"#utility.yul\":11783:11802   */\n      swap1\n      pop\n        /* \"#utility.yul\":11442:11808   */\n      swap2\n      swap1\n      pop\n      jump\t// out\n        /* \"#utility.yul\":11814:12233   */\n    tag_162:\n        /* \"#utility.yul\":11980:11984   */\n      0x00\n        /* \"#utility.yul\":12018:12020   */\n      0x20\n        /* \"#utility.yul\":12007:12016   */\n      dup3\n        /* \"#utility.yul\":12003:12021   */\n      add\n        /* \"#utility.yul\":11995:12021   */\n      swap1\n      pop\n        /* \"#utility.yul\":12067:12076   */\n      dup2\n        /* \"#utility.yul\":12061:12065   */\n      dup2\n        /* \"#utility.yul\":12057:12077   */\n      sub\n        /* \"#utility.yul\":12053:12054   */\n      0x00\n        /* \"#utility.yul\":12042:12051   */\n      dup4\n        /* \"#utility.yul\":12038:12055   */\n      add\n        /* \"#utility.yul\":12031:12078   */\n      mstore\n        /* \"#utility.yul\":12095:12226   */\n      tag_546\n        /* \"#utility.yul\":12221:12225   */\n      dup2\n        /* \"#utility.yul\":12095:12226   */\n      tag_402\n      jump\t// in\n    tag_546:\n        /* \"#utility.yul\":12087:12226   */\n      swap1\n      pop\n        /* \"#utility.yul\":11814:12233   */\n      swap2\n      swap1\n      pop\n      jump\t// out\n        /* \"#utility.yul\":12239:12424   */\n    tag_169:\n        /* \"#utility.yul\":12277:12281   */\n      0x00\n        /* \"#utility.yul\":12297:12315   */\n      tag_548\n        /* \"#utility.yul\":12313:12314   */\n      dup3\n        /* \"#utility.yul\":12297:12315   */\n      tag_389\n      jump\t// in\n    tag_548:\n        /* \"#utility.yul\":12292:12315   */\n      swap2\n      pop\n        /* \"#utility.yul\":12329:12347   */\n      tag_549\n        /* \"#utility.yul\":12345:12346   */\n      dup4\n        /* \"#utility.yul\":12329:12347   */\n      tag_389\n      jump\t// in\n    tag_549:\n        /* \"#utility.yul\":12324:12347   */\n      swap3\n      pop\n        /* \"#utility.yul\":12366:12367   */\n      dup3\n        /* \"#utility.yul\":12363:12364   */\n      dup3\n        /* \"#utility.yul\":12360:12368   */\n      lt\n        /* \"#utility.yul\":12357:12391   */\n      iszero\n      tag_550\n      jumpi\n        /* \"#utility.yul\":12371:12389   */\n      tag_551\n      tag_399\n      jump\t// in\n    tag_551:\n        /* \"#utility.yul\":12357:12391   */\n    tag_550:\n        /* \"#utility.yul\":12416:12417   */\n      dup3\n        /* \"#utility.yul\":12413:12414   */\n      dup3\n        /* \"#utility.yul\":12409:12418   */\n      sub\n        /* \"#utility.yul\":12401:12418   */\n      swap1\n      pop\n        /* \"#utility.yul\":12239:12424   */\n      swap3\n      swap2\n      pop\n      pop\n      jump\t// out\n        /* \"#utility.yul\":12430:12621   */\n    tag_294:\n        /* \"#utility.yul\":12470:12474   */\n      0x00\n        /* \"#utility.yul\":12490:12510   */\n      tag_553\n        /* \"#utility.yul\":12508:12509   */\n      dup3\n        /* \"#utility.yul\":12490:12510   */\n      tag_383\n      jump\t// in\n    tag_553:\n        /* \"#utility.yul\":12485:12510   */\n      swap2\n      pop\n        /* \"#utility.yul\":12524:12544   */\n      tag_554\n        /* \"#utility.yul\":12542:12543   */\n      dup4\n        /* \"#utility.yul\":12524:12544   */\n      tag_383\n      jump\t// in\n    tag_554:\n        /* \"#utility.yul\":12519:12544   */\n      swap3\n      pop\n        /* \"#utility.yul\":12563:12564   */\n      dup3\n        /* \"#utility.yul\":12560:12561   */\n      dup3\n        /* \"#utility.yul\":12557:12565   */\n      lt\n        /* \"#utility.yul\":12554:12588   */\n      iszero\n      tag_555\n      jumpi\n        /* \"#utility.yul\":12568:12586   */\n      tag_556\n      tag_399\n      jump\t// in\n    tag_556:\n        /* \"#utility.yul\":12554:12588   */\n    tag_555:\n        /* \"#utility.yul\":12613:12614   */\n      dup3\n        /* \"#utility.yul\":12610:12611   */\n      dup3\n        /* \"#utility.yul\":12606:12615   */\n      sub\n        /* \"#utility.yul\":12598:12615   */\n      swap1\n      pop\n        /* \"#utility.yul\":12430:12621   */\n      swap3\n      swap2\n      pop\n      pop\n      jump\t// out\n        /* \"#utility.yul\":12627:12851   */\n    tag_403:\n        /* \"#utility.yul\":12767:12801   */\n      0x45524332303a2064656372656173656420616c6c6f77616e63652062656c6f77\n        /* \"#utility.yul\":12763:12764   */\n      0x00\n        /* \"#utility.yul\":12755:12761   */\n      dup3\n        /* \"#utility.yul\":12751:12765   */\n      add\n        /* \"#utility.yul\":12744:12802   */\n      mstore\n        /* \"#utility.yul\":12836:12843   */\n      0x207a65726f000000000000000000000000000000000000000000000000000000\n        /* \"#utility.yul\":12831:12833   */\n      0x20\n        /* \"#utility.yul\":12823:12829   */\n      dup3\n        /* \"#utility.yul\":12819:12834   */\n      add\n        /* \"#utility.yul\":12812:12844   */\n      mstore\n        /* \"#utility.yul\":12627:12851   */\n      pop\n      jump\t// out\n        /* \"#utility.yul\":12857:13223   */\n    tag_404:\n        /* \"#utility.yul\":12999:13002   */\n      0x00\n        /* \"#utility.yul\":13020:13087   */\n      tag_559\n        /* \"#utility.yul\":13084:13086   */\n      0x25\n        /* \"#utility.yul\":13079:13082   */\n      dup4\n        /* \"#utility.yul\":13020:13087   */\n      tag_372\n      jump\t// in\n    tag_559:\n        /* \"#utility.yul\":13013:13087   */\n      swap2\n      pop\n        /* \"#utility.yul\":13096:13189   */\n      tag_560\n        /* \"#utility.yul\":13185:13188   */\n      dup3\n        /* \"#utility.yul\":13096:13189   */\n      tag_403\n      jump\t// in\n    tag_560:\n        /* \"#utility.yul\":13214:13216   */\n      0x40\n        /* \"#utility.yul\":13209:13212   */\n      dup3\n        /* \"#utility.yul\":13205:13217   */\n      add\n        /* \"#utility.yul\":13198:13217   */\n      swap1\n      pop\n        /* \"#utility.yul\":12857:13223   */\n      swap2\n      swap1\n      pop\n      jump\t// out\n        /* \"#utility.yul\":13229:13648   */\n    tag_306:\n        /* \"#utility.yul\":13395:13399   */\n      0x00\n        /* \"#utility.yul\":13433:13435   */\n      0x20\n        /* \"#utility.yul\":13422:13431   */\n      dup3\n        /* \"#utility.yul\":13418:13436   */\n      add\n        /* \"#utility.yul\":13410:13436   */\n      swap1\n      pop\n        /* \"#utility.yul\":13482:13491   */\n      dup2\n        /* \"#utility.yul\":13476:13480   */\n      dup2\n        /* \"#utility.yul\":13472:13492   */\n      sub\n        /* \"#utility.yul\":13468:13469   */\n      0x00\n        /* \"#utility.yul\":13457:13466   */\n      dup4\n        /* \"#utility.yul\":13453:13470   */\n      add\n        /* \"#utility.yul\":13446:13493   */\n      mstore\n        /* \"#utility.yul\":13510:13641   */\n      tag_562\n        /* \"#utility.yul\":13636:13640   */\n      dup2\n        /* \"#utility.yul\":13510:13641   */\n      tag_404\n      jump\t// in\n    tag_562:\n        /* \"#utility.yul\":13502:13641   */\n      swap1\n      pop\n        /* \"#utility.yul\":13229:13648   */\n      swap2\n      swap1\n      pop\n      jump\t// out\n        /* \"#utility.yul\":13654:13879   */\n    tag_405:\n        /* \"#utility.yul\":13794:13828   */\n      0x4f776e61626c653a206e6577206f776e657220697320746865207a65726f2061\n        /* \"#utility.yul\":13790:13791   */\n      0x00\n        /* \"#utility.yul\":13782:13788   */\n      dup3\n        /* \"#utility.yul\":13778:13792   */\n      add\n        /* \"#utility.yul\":13771:13829   */\n      mstore\n        /* \"#utility.yul\":13863:13871   */\n      0x6464726573730000000000000000000000000000000000000000000000000000\n        /* \"#utility.yul\":13858:13860   */\n      0x20\n        /* \"#utility.yul\":13850:13856   */\n      dup3\n        /* \"#utility.yul\":13846:13861   */\n      add\n        /* \"#utility.yul\":13839:13872   */\n      mstore\n        /* \"#utility.yul\":13654:13879   */\n      pop\n      jump\t// out\n        /* \"#utility.yul\":13885:14251   */\n    tag_406:\n        /* \"#utility.yul\":14027:14030   */\n      0x00\n        /* \"#utility.yul\":14048:14115   */\n      tag_565\n        /* \"#utility.yul\":14112:14114   */\n      0x26\n        /* \"#utility.yul\":14107:14110   */\n      dup4\n        /* \"#utility.yul\":14048:14115   */\n      tag_372\n      jump\t// in\n    tag_565:\n        /* \"#utility.yul\":14041:14115   */\n      swap2\n      pop\n        /* \"#utility.yul\":14124:14217   */\n      tag_566\n        /* \"#utility.yul\":14213:14216   */\n      dup3\n        /* \"#utility.yul\":14124:14217   */\n      tag_405\n      jump\t// in\n    tag_566:\n        /* \"#utility.yul\":14242:14244   */\n      0x40\n        /* \"#utility.yul\":14237:14240   */\n      dup3\n        /* \"#utility.yul\":14233:14245   */\n      add\n        /* \"#utility.yul\":14226:14245   */\n      swap1\n      pop\n        /* \"#utility.yul\":13885:14251   */\n      swap2\n      swap1\n      pop\n      jump\t// out\n        /* \"#utility.yul\":14257:14676   */\n    tag_333:\n        /* \"#utility.yul\":14423:14427   */\n      0x00\n        /* \"#utility.yul\":14461:14463   */\n      0x20\n        /* \"#utility.yul\":14450:14459   */\n      dup3\n        /* \"#utility.yul\":14446:14464   */\n      add\n        /* \"#utility.yul\":14438:14464   */\n      swap1\n      pop\n        /* \"#utility.yul\":14510:14519   */\n      dup2\n        /* \"#utility.yul\":14504:14508   */\n      dup2\n        /* \"#utility.yul\":14500:14520   */\n      sub\n        /* \"#utility.yul\":14496:14497   */\n      0x00\n        /* \"#utility.yul\":14485:14494   */\n      dup4\n        /* \"#utility.yul\":14481:14498   */\n      add\n        /* \"#utility.yul\":14474:14521   */\n      mstore\n        /* \"#utility.yul\":14538:14669   */\n      tag_568\n        /* \"#utility.yul\":14664:14668   */\n      dup2\n        /* \"#utility.yul\":14538:14669   */\n      tag_406\n      jump\t// in\n    tag_568:\n        /* \"#utility.yul\":14530:14669   */\n      swap1\n      pop\n        /* \"#utility.yul\":14257:14676   */\n      swap2\n      swap1\n      pop\n      jump\t// out\n        /* \"#utility.yul\":14682:14905   */\n    tag_407:\n        /* \"#utility.yul\":14822:14856   */\n      0x45524332303a20617070726f76652066726f6d20746865207a65726f20616464\n        /* \"#utility.yul\":14818:14819   */\n      0x00\n        /* \"#utility.yul\":14810:14816   */\n      dup3\n        /* \"#utility.yul\":14806:14820   */\n      add\n        /* \"#utility.yul\":14799:14857   */\n      mstore\n        /* \"#utility.yul\":14891:14897   */\n      0x7265737300000000000000000000000000000000000000000000000000000000\n        /* \"#utility.yul\":14886:14888   */\n      0x20\n        /* \"#utility.yul\":14878:14884   */\n      dup3\n        /* \"#utility.yul\":14874:14889   */\n      add\n        /* \"#utility.yul\":14867:14898   */\n      mstore\n        /* \"#utility.yul\":14682:14905   */\n      pop\n      jump\t// out\n        /* \"#utility.yul\":14911:15277   */\n    tag_408:\n        /* \"#utility.yul\":15053:15056   */\n      0x00\n        /* \"#utility.yul\":15074:15141   */\n      tag_571\n        /* \"#utility.yul\":15138:15140   */\n      0x24\n        /* \"#utility.yul\":15133:15136   */\n      dup4\n        /* \"#utility.yul\":15074:15141   */\n      tag_372\n      jump\t// in\n    tag_571:\n        /* \"#utility.yul\":15067:15141   */\n      swap2\n      pop\n        /* \"#utility.yul\":15150:15243   */\n      tag_572\n        /* \"#utility.yul\":15239:15242   */\n      dup3\n        /* \"#utility.yul\":15150:15243   */\n      tag_407\n      jump\t// in\n    tag_572:\n        /* \"#utility.yul\":15268:15270   */\n      0x40\n        /* \"#utility.yul\":15263:15266   */\n      dup3\n        /* \"#utility.yul\":15259:15271   */\n      add\n        /* \"#utility.yul\":15252:15271   */\n      swap1\n      pop\n        /* \"#utility.yul\":14911:15277   */\n      swap2\n      swap1\n      pop\n      jump\t// out\n        /* \"#utility.yul\":15283:15702   */\n    tag_339:\n        /* \"#utility.yul\":15449:15453   */\n      0x00\n        /* \"#utility.yul\":15487:15489   */\n      0x20\n        /* \"#utility.yul\":15476:15485   */\n      dup3\n        /* \"#utility.yul\":15472:15490   */\n      add\n        /* \"#utility.yul\":15464:15490   */\n      swap1\n      pop\n        /* \"#utility.yul\":15536:15545   */\n      dup2\n        /* \"#utility.yul\":15530:15534   */\n      dup2\n        /* \"#utility.yul\":15526:15546   */\n      sub\n        /* \"#utility.yul\":15522:15523   */\n      0x00\n        /* \"#utility.yul\":15511:15520   */\n      dup4\n        /* \"#utility.yul\":15507:15524   */\n      add\n        /* \"#utility.yul\":15500:15547   */\n      mstore\n        /* \"#utility.yul\":15564:15695   */\n      tag_574\n        /* \"#utility.yul\":15690:15694   */\n      dup2\n        /* \"#utility.yul\":15564:15695   */\n      tag_408\n      jump\t// in\n    tag_574:\n        /* \"#utility.yul\":15556:15695   */\n      swap1\n      pop\n        /* \"#utility.yul\":15283:15702   */\n      swap2\n      swap1\n      pop\n      jump\t// out\n        /* \"#utility.yul\":15708:15929   */\n    tag_409:\n        /* \"#utility.yul\":15848:15882   */\n      0x45524332303a20617070726f766520746f20746865207a65726f206164647265\n        /* \"#utility.yul\":15844:15845   */\n      0x00\n        /* \"#utility.yul\":15836:15842   */\n      dup3\n        /* \"#utility.yul\":15832:15846   */\n      add\n        /* \"#utility.yul\":15825:15883   */\n      mstore\n        /* \"#utility.yul\":15917:15921   */\n      0x7373000000000000000000000000000000000000000000000000000000000000\n        /* \"#utility.yul\":15912:15914   */\n      0x20\n        /* \"#utility.yul\":15904:15910   */\n      dup3\n        /* \"#utility.yul\":15900:15915   */\n      add\n        /* \"#utility.yul\":15893:15922   */\n      mstore\n        /* \"#utility.yul\":15708:15929   */\n      pop\n      jump\t// out\n        /* \"#utility.yul\":15935:16301   */\n    tag_410:\n        /* \"#utility.yul\":16077:16080   */\n      0x00\n        /* \"#utility.yul\":16098:16165   */\n      tag_577\n        /* \"#utility.yul\":16162:16164   */\n      0x22\n        /* \"#utility.yul\":16157:16160   */\n      dup4\n        /* \"#utility.yul\":16098:16165   */\n      tag_372\n      jump\t// in\n    tag_577:\n        /* \"#utility.yul\":16091:16165   */\n      swap2\n      pop\n        /* \"#utility.yul\":16174:16267   */\n      tag_578\n        /* \"#utility.yul\":16263:16266   */\n      dup3\n        /* \"#utility.yul\":16174:16267   */\n      tag_409\n      jump\t// in\n    tag_578:\n        /* \"#utility.yul\":16292:16294   */\n      0x40\n        /* \"#utility.yul\":16287:16290   */\n      dup3\n        /* \"#utility.yul\":16283:16295   */\n      add\n        /* \"#utility.yul\":16276:16295   */\n      swap1\n      pop\n        /* \"#utility.yul\":15935:16301   */\n      swap2\n      swap1\n      pop\n      jump\t// out\n        /* \"#utility.yul\":16307:16726   */\n    tag_342:\n        /* \"#utility.yul\":16473:16477   */\n      0x00\n        /* \"#utility.yul\":16511:16513   */\n      0x20\n        /* \"#utility.yul\":16500:16509   */\n      dup3\n        /* \"#utility.yul\":16496:16514   */\n      add\n        /* \"#utility.yul\":16488:16514   */\n      swap1\n      pop\n        /* \"#utility.yul\":16560:16569   */\n      dup2\n        /* \"#utility.yul\":16554:16558   */\n      dup2\n        /* \"#utility.yul\":16550:16570   */\n      sub\n        /* \"#utility.yul\":16546:16547   */\n      0x00\n        /* \"#utility.yul\":16535:16544   */\n      dup4\n        /* \"#utility.yul\":16531:16548   */\n      add\n        /* \"#utility.yul\":16524:16571   */\n      mstore\n        /* \"#utility.yul\":16588:16719   */\n      tag_580\n        /* \"#utility.yul\":16714:16718   */\n      dup2\n        /* \"#utility.yul\":16588:16719   */\n      tag_410\n      jump\t// in\n    tag_580:\n        /* \"#utility.yul\":16580:16719   */\n      swap1\n      pop\n        /* \"#utility.yul\":16307:16726   */\n      swap2\n      swap1\n      pop\n      jump\t// out\n        /* \"#utility.yul\":16732:16956   */\n    tag_411:\n        /* \"#utility.yul\":16872:16906   */\n      0x45524332303a207472616e736665722066726f6d20746865207a65726f206164\n        /* \"#utility.yul\":16868:16869   */\n      0x00\n        /* \"#utility.yul\":16860:16866   */\n      dup3\n        /* \"#utility.yul\":16856:16870   */\n      add\n        /* \"#utility.yul\":16849:16907   */\n      mstore\n        /* \"#utility.yul\":16941:16948   */\n      0x6472657373000000000000000000000000000000000000000000000000000000\n        /* \"#utility.yul\":16936:16938   */\n      0x20\n        /* \"#utility.yul\":16928:16934   */\n      dup3\n        /* \"#utility.yul\":16924:16939   */\n      add\n        /* \"#utility.yul\":16917:16949   */\n      mstore\n        /* \"#utility.yul\":16732:16956   */\n      pop\n      jump\t// out\n        /* \"#utility.yul\":16962:17328   */\n    tag_412:\n        /* \"#utility.yul\":17104:17107   */\n      0x00\n        /* \"#utility.yul\":17125:17192   */\n      tag_583\n        /* \"#utility.yul\":17189:17191   */\n      0x25\n        /* \"#utility.yul\":17184:17187   */\n      dup4\n        /* \"#utility.yul\":17125:17192   */\n      tag_372\n      jump\t// in\n    tag_583:\n        /* \"#utility.yul\":17118:17192   */\n      swap2\n      pop\n        /* \"#utility.yul\":17201:17294   */\n      tag_584\n        /* \"#utility.yul\":17290:17293   */\n      dup3\n        /* \"#utility.yul\":17201:17294   */\n      tag_411\n      jump\t// in\n    tag_584:\n        /* \"#utility.yul\":17319:17321   */\n      0x40\n        /* \"#utility.yul\":17314:17317   */\n      dup3\n        /* \"#utility.yul\":17310:17322   */\n      add\n        /* \"#utility.yul\":17303:17322   */\n      swap1\n      pop\n        /* \"#utility.yul\":16962:17328   */\n      swap2\n      swap1\n      pop\n      jump\t// out\n        /* \"#utility.yul\":17334:17753   */\n    tag_358:\n        /* \"#utility.yul\":17500:17504   */\n      0x00\n        /* \"#utility.yul\":17538:17540   */\n      0x20\n        /* \"#utility.yul\":17527:17536   */\n      dup3\n        /* \"#utility.yul\":17523:17541   */\n      add\n        /* \"#utility.yul\":17515:17541   */\n      swap1\n      pop\n        /* \"#utility.yul\":17587:17596   */\n      dup2\n        /* \"#utility.yul\":17581:17585   */\n      dup2\n        /* \"#utility.yul\":17577:17597   */\n      sub\n        /* \"#utility.yul\":17573:17574   */\n      0x00\n        /* \"#utility.yul\":17562:17571   */\n      dup4\n        /* \"#utility.yul\":17558:17575   */\n      add\n        /* \"#utility.yul\":17551:17598   */\n      mstore\n        /* \"#utility.yul\":17615:17746   */\n      tag_586\n        /* \"#utility.yul\":17741:17745   */\n      dup2\n        /* \"#utility.yul\":17615:17746   */\n      tag_412\n      jump\t// in\n    tag_586:\n        /* \"#utility.yul\":17607:17746   */\n      swap1\n      pop\n        /* \"#utility.yul\":17334:17753   */\n      swap2\n      swap1\n      pop\n      jump\t// out\n        /* \"#utility.yul\":17759:17981   */\n    tag_413:\n        /* \"#utility.yul\":17899:17933   */\n      0x45524332303a207472616e7366657220746f20746865207a65726f2061646472\n        /* \"#utility.yul\":17895:17896   */\n      0x00\n        /* \"#utility.yul\":17887:17893   */\n      dup3\n        /* \"#utility.yul\":17883:17897   */\n      add\n        /* \"#utility.yul\":17876:17934   */\n      mstore\n        /* \"#utility.yul\":17968:17973   */\n      0x6573730000000000000000000000000000000000000000000000000000000000\n        /* \"#utility.yul\":17963:17965   */\n      0x20\n        /* \"#utility.yul\":17955:17961   */\n      dup3\n        /* \"#utility.yul\":17951:17966   */\n      add\n        /* \"#utility.yul\":17944:17974   */\n      mstore\n        /* \"#utility.yul\":17759:17981   */\n      pop\n      jump\t// out\n        /* \"#utility.yul\":17987:18353   */\n    tag_414:\n        /* \"#utility.yul\":18129:18132   */\n      0x00\n        /* \"#utility.yul\":18150:18217   */\n      tag_589\n        /* \"#utility.yul\":18214:18216   */\n      0x23\n        /* \"#utility.yul\":18209:18212   */\n      dup4\n        /* \"#utility.yul\":18150:18217   */\n      tag_372\n      jump\t// in\n    tag_589:\n        /* \"#utility.yul\":18143:18217   */\n      swap2\n      pop\n        /* \"#utility.yul\":18226:18319   */\n      tag_590\n        /* \"#utility.yul\":18315:18318   */\n      dup3\n        /* \"#utility.yul\":18226:18319   */\n      tag_413\n      jump\t// in\n    tag_590:\n        /* \"#utility.yul\":18344:18346   */\n      0x40\n        /* \"#utility.yul\":18339:18342   */\n      dup3\n        /* \"#utility.yul\":18335:18347   */\n      add\n        /* \"#utility.yul\":18328:18347   */\n      swap1\n      pop\n        /* \"#utility.yul\":17987:18353   */\n      swap2\n      swap1\n      pop\n      jump\t// out\n        /* \"#utility.yul\":18359:18778   */\n    tag_361:\n        /* \"#utility.yul\":18525:18529   */\n      0x00\n        /* \"#utility.yul\":18563:18565   */\n      0x20\n        /* \"#utility.yul\":18552:18561   */\n      dup3\n        /* \"#utility.yul\":18548:18566   */\n      add\n        /* \"#utility.yul\":18540:18566   */\n      swap1\n      pop\n        /* \"#utility.yul\":18612:18621   */\n      dup2\n        /* \"#utility.yul\":18606:18610   */\n      dup2\n        /* \"#utility.yul\":18602:18622   */\n      sub\n        /* \"#utility.yul\":18598:18599   */\n      0x00\n        /* \"#utility.yul\":18587:18596   */\n      dup4\n        /* \"#utility.yul\":18583:18600   */\n      add\n        /* \"#utility.yul\":18576:18623   */\n      mstore\n        /* \"#utility.yul\":18640:18771   */\n      tag_592\n        /* \"#utility.yul\":18766:18770   */\n      dup2\n        /* \"#utility.yul\":18640:18771   */\n      tag_414\n      jump\t// in\n    tag_592:\n        /* \"#utility.yul\":18632:18771   */\n      swap1\n      pop\n        /* \"#utility.yul\":18359:18778   */\n      swap2\n      swap1\n      pop\n      jump\t// out\n        /* \"#utility.yul\":18784:19009   */\n    tag_415:\n        /* \"#utility.yul\":18924:18958   */\n      0x45524332303a207472616e7366657220616d6f756e7420657863656564732062\n        /* \"#utility.yul\":18920:18921   */\n      0x00\n        /* \"#utility.yul\":18912:18918   */\n      dup3\n        /* \"#utility.yul\":18908:18922   */\n      add\n        /* \"#utility.yul\":18901:18959   */\n      mstore\n        /* \"#utility.yul\":18993:19001   */\n      0x616c616e63650000000000000000000000000000000000000000000000000000\n        /* \"#utility.yul\":18988:18990   */\n      0x20\n        /* \"#utility.yul\":18980:18986   */\n      dup3\n        /* \"#utility.yul\":18976:18991   */\n      add\n        /* \"#utility.yul\":18969:19002   */\n      mstore\n        /* \"#utility.yul\":18784:19009   */\n      pop\n      jump\t// out\n        /* \"#utility.yul\":19015:19381   */\n    tag_416:\n        /* \"#utility.yul\":19157:19160   */\n      0x00\n        /* \"#utility.yul\":19178:19245   */\n      tag_595\n        /* \"#utility.yul\":19242:19244   */\n      0x26\n        /* \"#utility.yul\":19237:19240   */\n      dup4\n        /* \"#utility.yul\":19178:19245   */\n      tag_372\n      jump\t// in\n    tag_595:\n        /* \"#utility.yul\":19171:19245   */\n      swap2\n      pop\n        /* \"#utility.yul\":19254:19347   */\n      tag_596\n        /* \"#utility.yul\":19343:19346   */\n      dup3\n        /* \"#utility.yul\":19254:19347   */\n      tag_415\n      jump\t// in\n    tag_596:\n        /* \"#utility.yul\":19372:19374   */\n      0x40\n        /* \"#utility.yul\":19367:19370   */\n      dup3\n        /* \"#utility.yul\":19363:19375   */\n      add\n        /* \"#utility.yul\":19356:19375   */\n      swap1\n      pop\n        /* \"#utility.yul\":19015:19381   */\n      swap2\n      swap1\n      pop\n      jump\t// out\n        /* \"#utility.yul\":19387:19806   */\n    tag_366:\n        /* \"#utility.yul\":19553:19557   */\n      0x00\n        /* \"#utility.yul\":19591:19593   */\n      0x20\n        /* \"#utility.yul\":19580:19589   */\n      dup3\n        /* \"#utility.yul\":19576:19594   */\n      add\n        /* \"#utility.yul\":19568:19594   */\n      swap1\n      pop\n        /* \"#utility.yul\":19640:19649   */\n      dup2\n        /* \"#utility.yul\":19634:19638   */\n      dup2\n        /* \"#utility.yul\":19630:19650   */\n      sub\n        /* \"#utility.yul\":19626:19627   */\n      0x00\n        /* \"#utility.yul\":19615:19624   */\n      dup4\n        /* \"#utility.yul\":19611:19628   */\n      add\n        /* \"#utility.yul\":19604:19651   */\n      mstore\n        /* \"#utility.yul\":19668:19799   */\n      tag_598\n        /* \"#utility.yul\":19794:19798   */\n      dup2\n        /* \"#utility.yul\":19668:19799   */\n      tag_416\n      jump\t// in\n    tag_598:\n        /* \"#utility.yul\":19660:19799   */\n      swap1\n      pop\n        /* \"#utility.yul\":19387:19806   */\n      swap2\n      swap1\n      pop\n      jump\t// out\n\n    auxdata: 0xa2646970667358221220ed1756936c7828c8c9947c7f44054c3e3156655ea5946cb912690692a0ec261864736f6c634300080d0033\n}\n",
				"bytecode": {
					"linkReferences": {},
					"object": "608060405260036008553480156200001657600080fd5b50604051620036223803806200362283398181016040528101906200003c919062000758565b8282816003908051906020019062000056929190620004a6565b5080600490805190602001906200006f929190620004a6565b50505062000092620000866200026660201b60201c565b6200026e60201b60201c565b620000d533620000a76200033460201b60201c565b60ff16600a620000b891906200097f565b6311e1a300620000c99190620009d0565b6200033d60201b60201c565b620000e56200033460201b60201c565b60ff16600a620000f691906200097f565b60096000600381106200010e576200010d62000a31565b5b0181905550620001236200033460201b60201c565b60ff16600a6200013491906200097f565b60096001600381106200014c576200014b62000a31565b5b0181905550620001616200033460201b60201c565b60ff16600a6200017291906200097f565b60096002600381106200018a576200018962000a31565b5b01819055506200019f6200033460201b60201c565b60ff16600a620001b091906200097f565b6311e1a300620001c19190620009d0565b600c600060038110620001d957620001d862000a31565b5b01819055506000600c600160038110620001f857620001f762000a31565b5b01819055506000600c60026003811062000217576200021662000a31565b5b018190555080600f60006101000a81548173ffffffffffffffffffffffffffffffffffffffff021916908373ffffffffffffffffffffffffffffffffffffffff16021790555050505062000bd2565b600033905090565b6000600560009054906101000a900473ffffffffffffffffffffffffffffffffffffffff16905081600560006101000a81548173ffffffffffffffffffffffffffffffffffffffff021916908373ffffffffffffffffffffffffffffffffffffffff1602179055508173ffffffffffffffffffffffffffffffffffffffff168173ffffffffffffffffffffffffffffffffffffffff167f8be0079c531659141344cd1fd0a4f28419497f9722a3daafe3b4186f6b6457e060405160405180910390a35050565b60006012905090565b600073ffffffffffffffffffffffffffffffffffffffff168273ffffffffffffffffffffffffffffffffffffffff1603620003af576040517f08c379a0000000000000000000000000000000000000000000000000000000008152600401620003a69062000ac1565b60405180910390fd5b620003c360008383620004a160201b60201c565b8060026000828254620003d7919062000ae3565b92505081905550806000808473ffffffffffffffffffffffffffffffffffffffff1673ffffffffffffffffffffffffffffffffffffffff16815260200190815260200160002060008282546200042e919062000ae3565b925050819055508173ffffffffffffffffffffffffffffffffffffffff16600073ffffffffffffffffffffffffffffffffffffffff167fddf252ad1be2c89b69c2b068fc378daa952ba7f163c4a11628f55a4df523b3ef8360405162000495919062000b51565b60405180910390a35050565b505050565b828054620004b49062000b9d565b90600052602060002090601f016020900481019282620004d8576000855562000524565b82601f10620004f357805160ff191683800117855562000524565b8280016001018555821562000524579182015b828111156200052357825182559160200191906001019062000506565b5b50905062000533919062000537565b5090565b5b808211156200055257600081600090555060010162000538565b5090565b6000604051905090565b600080fd5b600080fd5b600080fd5b600080fd5b6000601f19601f8301169050919050565b7f4e487b7100000000000000000000000000000000000000000000000000000000600052604160045260246000fd5b620005bf8262000574565b810181811067ffffffffffffffff82111715620005e157620005e062000585565b5b80604052505050565b6000620005f662000556565b9050620006048282620005b4565b919050565b600067ffffffffffffffff82111562000627576200062662000585565b5b620006328262000574565b9050602081019050919050565b60005b838110156200065f57808201518184015260208101905062000642565b838111156200066f576000848401525b50505050565b60006200068c620006868462000609565b620005ea565b905082815260208101848484011115620006ab57620006aa6200056f565b5b620006b88482856200063f565b509392505050565b600082601f830112620006d857620006d76200056a565b5b8151620006ea84826020860162000675565b91505092915050565b600073ffffffffffffffffffffffffffffffffffffffff82169050919050565b60006200072082620006f3565b9050919050565b620007328162000713565b81146200073e57600080fd5b50565b600081519050620007528162000727565b92915050565b60008060006060848603121562000774576200077362000560565b5b600084015167ffffffffffffffff81111562000795576200079462000565565b5b620007a386828701620006c0565b935050602084015167ffffffffffffffff811115620007c757620007c662000565565b5b620007d586828701620006c0565b9250506040620007e88682870162000741565b9150509250925092565b7f4e487b7100000000000000000000000000000000000000000000000000000000600052601160045260246000fd5b60008160011c9050919050565b6000808291508390505b60018511156200088057808604811115620008585762000857620007f2565b5b6001851615620008685780820291505b8081029050620008788562000821565b945062000838565b94509492505050565b6000826200089b57600190506200096e565b81620008ab57600090506200096e565b8160018114620008c45760028114620008cf5762000905565b60019150506200096e565b60ff841115620008e457620008e3620007f2565b5b8360020a915084821115620008fe57620008fd620007f2565b5b506200096e565b5060208310610133831016604e8410600b84101617156200093f5782820a905083811115620009395762000938620007f2565b5b6200096e565b6200094e84848460016200082e565b92509050818404811115620009685762000967620007f2565b5b81810290505b9392505050565b6000819050919050565b60006200098c8262000975565b9150620009998362000975565b9250620009c87fffffffffffffffffffffffffffffffffffffffffffffffffffffffffffffffff848462000889565b905092915050565b6000620009dd8262000975565b9150620009ea8362000975565b9250817fffffffffffffffffffffffffffffffffffffffffffffffffffffffffffffffff048311821515161562000a265762000a25620007f2565b5b828202905092915050565b7f4e487b7100000000000000000000000000000000000000000000000000000000600052603260045260246000fd5b600082825260208201905092915050565b7f45524332303a206d696e7420746f20746865207a65726f206164647265737300600082015250565b600062000aa9601f8362000a60565b915062000ab68262000a71565b602082019050919050565b6000602082019050818103600083015262000adc8162000a9a565b9050919050565b600062000af08262000975565b915062000afd8362000975565b9250827fffffffffffffffffffffffffffffffffffffffffffffffffffffffffffffffff0382111562000b355762000b34620007f2565b5b828201905092915050565b62000b4b8162000975565b82525050565b600060208201905062000b68600083018462000b40565b92915050565b7f4e487b7100000000000000000000000000000000000000000000000000000000600052602260045260246000fd5b6000600282049050600182168062000bb657607f821691505b60208210810362000bcc5762000bcb62000b6e565b5b50919050565b612a408062000be26000396000f3fe608060405234801561001057600080fd5b50600436106101215760003560e01c8063715018a6116100ad578063a33e7d7e11610071578063a33e7d7e1461030a578063a457c2d714610326578063a9059cbb14610356578063dd62ed3e14610386578063f2fde38b146103b657610121565b8063715018a6146102785780637a0d944c146102825780638da5cb5b146102b257806395d89b41146102d0578063a0712d68146102ee57610121565b806318160ddd116100f457806318160ddd146101ac57806323b872dd146101ca578063313ce567146101fa578063395093511461021857806370a082311461024857610121565b806306fdde0314610126578063095ea7b31461014457806313b954a3146101745780631506f48014610190575b600080fd5b61012e6103d2565b60405161013b9190611f2e565b60405180910390f35b61015e60048036038101906101599190611fe9565b610464565b60405161016b9190612044565b60405180910390f35b61018e60048036038101906101899190611fe9565b610482565b005b6101aa60048036038101906101a59190611fe9565b610708565b005b6101b4610a65565b6040516101c1919061206e565b60405180910390f35b6101e460048036038101906101df9190612089565b610a6f565b6040516101f19190612044565b60405180910390f35b610202610a7c565b60405161020f91906120f8565b60405180910390f35b610232600480360381019061022d9190611fe9565b610a85565b60405161023f9190612044565b60405180910390f35b610262600480360381019061025d9190612113565b610b31565b60405161026f919061206e565b60405180910390f35b610280610ccf565b005b61029c60048036038101906102979190612113565b610d57565b6040516102a991906120f8565b60405180910390f35b6102ba610d77565b6040516102c7919061214f565b60405180910390f35b6102d8610da1565b6040516102e59190611f2e565b60405180910390f35b6103086004803603810190610303919061216a565b610e33565b005b610324600480360381019061031f91906121c3565b611138565b005b610340600480360381019061033b9190611fe9565b6113a1565b60405161034d9190612044565b60405180910390f35b610370600480360381019061036b9190611fe9565b611495565b60405161037d9190612044565b60405180910390f35b6103a0600480360381019061039b9190612203565b6115c0565b6040516103ad919061206e565b60405180910390f35b6103d060048036038101906103cb9190612113565b611647565b005b6060600380546103e190612272565b80601f016020809104026020016040519081016040528092919081815260200182805461040d90612272565b801561045a5780601f1061042f5761010080835404028352916020019161045a565b820191906000526020600020905b81548152906001019060200180831161043d57829003601f168201915b5050505050905090565b600061047861047161173e565b8484611746565b6001905092915050565b61048a61173e565b73ffffffffffffffffffffffffffffffffffffffff166104a8610d77565b73ffffffffffffffffffffffffffffffffffffffff16146104fe576040517f08c379a00000000000000000000000000000000000000000000000000000000081526004016104f5906122ef565b60405180910390fd5b6000600760008473ffffffffffffffffffffffffffffffffffffffff1673ffffffffffffffffffffffffffffffffffffffff16815260200190815260200160002060009054906101000a900460ff1660ff1614610590576040517f08c379a000000000000000000000000000000000000000000000000000000000815260040161058790612381565b60405180910390fd5b806000808473ffffffffffffffffffffffffffffffffffffffff1673ffffffffffffffffffffffffffffffffffffffff16815260200190815260200160002060008282546105de91906123d0565b925050819055506000600190505b60028160ff16116106ea576002826106049190612455565b600c8260ff166003811061061b5761061a612486565b5b015461062791906123d0565b60098260ff166003811061063e5761063d612486565b5b01600082825461064e91906124b5565b92505081905550600c8160ff166003811061066c5761066b612486565b5b015460098260ff166003811061068557610684612486565b5b0160008282546106959190612455565b925050819055506002826106a99190612455565b600c8260ff16600381106106c0576106bf612486565b5b0160008282546106d091906123d0565b9250508190555080806106e29061250f565b9150506105ec565b5080600260008282546106fd91906123d0565b925050819055505050565b61071061173e565b73ffffffffffffffffffffffffffffffffffffffff1661072e610d77565b73ffffffffffffffffffffffffffffffffffffffff1614610784576040517f08c379a000000000000000000000000000000000000000000000000000000000815260040161077b906122ef565b60405180910390fd5b6000600760008473ffffffffffffffffffffffffffffffffffffffff1673ffffffffffffffffffffffffffffffffffffffff16815260200190815260200160002060009054906101000a900460ff1660ff1603610816576040517f08c379a000000000000000000000000000000000000000000000000000000000815260040161080d90612584565b60405180910390fd5b61081f8261190f565b806000808473ffffffffffffffffffffffffffffffffffffffff1673ffffffffffffffffffffffffffffffffffffffff168152602001908152602001600020600082825461086d91906123d0565b9250508190555080600261088191906124b5565b600080600f60009054906101000a900473ffffffffffffffffffffffffffffffffffffffff1673ffffffffffffffffffffffffffffffffffffffff1673ffffffffffffffffffffffffffffffffffffffff16815260200190815260200160002060008282546108f091906123d0565b925050819055506000600760008473ffffffffffffffffffffffffffffffffffffffff1673ffffffffffffffffffffffffffffffffffffffff16815260200190815260200160002060009054906101000a900460ff16600161095291906125a4565b905081600c8260ff166003811061096c5761096b612486565b5b015461097891906123d0565b60098260ff166003811061098f5761098e612486565b5b01600082825461099f91906124b5565b92505081905550600c8160ff16600381106109bd576109bc612486565b5b015460098260ff16600381106109d6576109d5612486565b5b0160008282546109e69190612455565b9250508190555081600c600160038110610a0357610a02612486565b5b016000828254610a1391906123d0565b9250508190555081600c600260038110610a3057610a2f612486565b5b016000828254610a4091906123d0565b925050819055508160026000828254610a5991906123d0565b92505081905550505050565b6000600254905090565b6000600190509392505050565b60006012905090565b6000610b27610a9261173e565b848460016000610aa061173e565b73ffffffffffffffffffffffffffffffffffffffff1673ffffffffffffffffffffffffffffffffffffffff16815260200190815260200160002060008873ffffffffffffffffffffffffffffffffffffffff1673ffffffffffffffffffffffffffffffffffffffff16815260200190815260200160002054610b2291906123d0565b611746565b6001905092915050565b600080600760008473ffffffffffffffffffffffffffffffffffffffff1673ffffffffffffffffffffffffffffffffffffffff16815260200190815260200160002060009054906101000a900460ff1660ff1603610bcf576000808373ffffffffffffffffffffffffffffffffffffffff1673ffffffffffffffffffffffffffffffffffffffff168152602001908152602001600020549050610cca565b600660008373ffffffffffffffffffffffffffffffffffffffff1673ffffffffffffffffffffffffffffffffffffffff168152602001908152602001600020546000808473ffffffffffffffffffffffffffffffffffffffff1673ffffffffffffffffffffffffffffffffffffffff168152602001908152602001600020546009600760008673ffffffffffffffffffffffffffffffffffffffff1673ffffffffffffffffffffffffffffffffffffffff16815260200190815260200160002060009054906101000a900460ff1660ff1660038110610cb157610cb0612486565b5b0154610cbd91906124b5565b610cc79190612455565b90505b919050565b610cd761173e565b73ffffffffffffffffffffffffffffffffffffffff16610cf5610d77565b73ffffffffffffffffffffffffffffffffffffffff1614610d4b576040517f08c379a0000000000000000000000000000000000000000000000000000000008152600401610d42906122ef565b60405180910390fd5b610d556000611b4d565b565b60076020528060005260406000206000915054906101000a900460ff1681565b6000600560009054906101000a900473ffffffffffffffffffffffffffffffffffffffff16905090565b606060048054610db090612272565b80601f0160208091040260200160405190810160405280929190818152602001828054610ddc90612272565b8015610e295780601f10610dfe57610100808354040283529160200191610e29565b820191906000526020600020905b815481529060010190602001808311610e0c57829003601f168201915b5050505050905090565b610e3b61173e565b73ffffffffffffffffffffffffffffffffffffffff16610e59610d77565b73ffffffffffffffffffffffffffffffffffffffff1614610eaf576040517f08c379a0000000000000000000000000000000000000000000000000000000008152600401610ea6906122ef565b60405180910390fd5b6000600c600260038110610ec657610ec5612486565b5b015414610f6b57600481610eda9190612455565b600c600260038110610eef57610eee612486565b5b0154610efb91906123d0565b6009600260038110610f1057610f0f612486565b5b016000828254610f2091906124b5565b92505081905550600c600260038110610f3c57610f3b612486565b5b01546009600260038110610f5357610f52612486565b5b016000828254610f639190612455565b925050819055505b6000600c600160038110610f8257610f81612486565b5b01541461102757600481610f969190612455565b600c600160038110610fab57610faa612486565b5b0154610fb791906123d0565b6009600160038110610fcc57610fcb612486565b5b016000828254610fdc91906124b5565b92505081905550600c600160038110610ff857610ff7612486565b5b0154600960016003811061100f5761100e612486565b5b01600082825461101f9190612455565b925050819055505b6002816110349190612455565b600080600f60009054906101000a900473ffffffffffffffffffffffffffffffffffffffff1673ffffffffffffffffffffffffffffffffffffffff1673ffffffffffffffffffffffffffffffffffffffff16815260200190815260200160002060008282546110a391906123d0565b925050819055506004816110b79190612455565b600c6001600381106110cc576110cb612486565b5b0160008282546110dc91906123d0565b925050819055506004816110f09190612455565b600c60026003811061110557611104612486565b5b01600082825461111591906123d0565b92505081905550806002600082825461112e91906123d0565b9250508190555050565b61114061173e565b73ffffffffffffffffffffffffffffffffffffffff1661115e610d77565b73ffffffffffffffffffffffffffffffffffffffff16146111b4576040517f08c379a00000000000000000000000000000000000000000000000000000000081526004016111ab906122ef565b60405180910390fd5b6111bd8261190f565b6000600760008473ffffffffffffffffffffffffffffffffffffffff1673ffffffffffffffffffffffffffffffffffffffff16815260200190815260200160002060009054906101000a900460ff16905081600760008573ffffffffffffffffffffffffffffffffffffffff1673ffffffffffffffffffffffffffffffffffffffff16815260200190815260200160002060006101000a81548160ff021916908360ff1602179055506000808473ffffffffffffffffffffffffffffffffffffffff1673ffffffffffffffffffffffffffffffffffffffff16815260200190815260200160002054600c8260ff16600381106112bc576112bb612486565b5b0160008282546112cc91906125d8565b925050819055506000808473ffffffffffffffffffffffffffffffffffffffff1673ffffffffffffffffffffffffffffffffffffffff16815260200190815260200160002054600c8360ff166003811061132957611328612486565b5b01600082825461133991906123d0565b9250508190555060098260ff166003811061135757611356612486565b5b0154600660008573ffffffffffffffffffffffffffffffffffffffff1673ffffffffffffffffffffffffffffffffffffffff16815260200190815260200160002081905550505050565b600080600160006113b061173e565b73ffffffffffffffffffffffffffffffffffffffff1673ffffffffffffffffffffffffffffffffffffffff16815260200190815260200160002060008573ffffffffffffffffffffffffffffffffffffffff1673ffffffffffffffffffffffffffffffffffffffff1681526020019081526020016000205490508281101561146d576040517f08c379a00000000000000000000000000000000000000000000000000000000081526004016114649061267e565b60405180910390fd5b61148a61147861173e565b85858461148591906125d8565b611746565b600191505092915050565b6000806114a061173e565b90506114ab8161190f565b6114b48461190f565b82600c600760008473ffffffffffffffffffffffffffffffffffffffff1673ffffffffffffffffffffffffffffffffffffffff16815260200190815260200160002060009054906101000a900460ff1660ff166003811061151857611517612486565b5b01600082825461152891906125d8565b9250508190555082600c600760008773ffffffffffffffffffffffffffffffffffffffff1673ffffffffffffffffffffffffffffffffffffffff16815260200190815260200160002060009054906101000a900460ff1660ff166003811061159357611592612486565b5b0160008282546115a391906123d0565b925050819055506115b5818585611c13565b600191505092915050565b6000600160008473ffffffffffffffffffffffffffffffffffffffff1673ffffffffffffffffffffffffffffffffffffffff16815260200190815260200160002060008373ffffffffffffffffffffffffffffffffffffffff1673ffffffffffffffffffffffffffffffffffffffff16815260200190815260200160002054905092915050565b61164f61173e565b73ffffffffffffffffffffffffffffffffffffffff1661166d610d77565b73ffffffffffffffffffffffffffffffffffffffff16146116c3576040517f08c379a00000000000000000000000000000000000000000000000000000000081526004016116ba906122ef565b60405180910390fd5b600073ffffffffffffffffffffffffffffffffffffffff168173ffffffffffffffffffffffffffffffffffffffff1603611732576040517f08c379a000000000000000000000000000000000000000000000000000000000815260040161172990612710565b60405180910390fd5b61173b81611b4d565b50565b600033905090565b600073ffffffffffffffffffffffffffffffffffffffff168373ffffffffffffffffffffffffffffffffffffffff16036117b5576040517f08c379a00000000000000000000000000000000000000000000000000000000081526004016117ac906127a2565b60405180910390fd5b600073ffffffffffffffffffffffffffffffffffffffff168273ffffffffffffffffffffffffffffffffffffffff1603611824576040517f08c379a000000000000000000000000000000000000000000000000000000000815260040161181b90612834565b60405180910390fd5b80600160008573ffffffffffffffffffffffffffffffffffffffff1673ffffffffffffffffffffffffffffffffffffffff16815260200190815260200160002060008473ffffffffffffffffffffffffffffffffffffffff1673ffffffffffffffffffffffffffffffffffffffff168152602001908152602001600020819055508173ffffffffffffffffffffffffffffffffffffffff168373ffffffffffffffffffffffffffffffffffffffff167f8c5be1e5ebec7d5bd14f71427d1e84f3dd0314c0f7b2291e5b200ac8c7c3b92583604051611902919061206e565b60405180910390a3505050565b6000600760008373ffffffffffffffffffffffffffffffffffffffff1673ffffffffffffffffffffffffffffffffffffffff16815260200190815260200160002060009054906101000a900460ff1660ff160315611b4a57600660008273ffffffffffffffffffffffffffffffffffffffff1673ffffffffffffffffffffffffffffffffffffffff168152602001908152602001600020546000808373ffffffffffffffffffffffffffffffffffffffff1673ffffffffffffffffffffffffffffffffffffffff168152602001908152602001600020546009600760008573ffffffffffffffffffffffffffffffffffffffff1673ffffffffffffffffffffffffffffffffffffffff16815260200190815260200160002060009054906101000a900460ff1660ff1660038110611a4957611a48612486565b5b0154611a5591906124b5565b611a5f9190612455565b6000808373ffffffffffffffffffffffffffffffffffffffff1673ffffffffffffffffffffffffffffffffffffffff168152602001908152602001600020819055506009600760008373ffffffffffffffffffffffffffffffffffffffff1673ffffffffffffffffffffffffffffffffffffffff16815260200190815260200160002060009054906101000a900460ff1660ff1660038110611b0457611b03612486565b5b0154600660008373ffffffffffffffffffffffffffffffffffffffff1673ffffffffffffffffffffffffffffffffffffffff168152602001908152602001600020819055505b50565b6000600560009054906101000a900473ffffffffffffffffffffffffffffffffffffffff16905081600560006101000a81548173ffffffffffffffffffffffffffffffffffffffff021916908373ffffffffffffffffffffffffffffffffffffffff1602179055508173ffffffffffffffffffffffffffffffffffffffff168173ffffffffffffffffffffffffffffffffffffffff167f8be0079c531659141344cd1fd0a4f28419497f9722a3daafe3b4186f6b6457e060405160405180910390a35050565b600073ffffffffffffffffffffffffffffffffffffffff168373ffffffffffffffffffffffffffffffffffffffff1603611c82576040517f08c379a0000000000000000000000000000000000000000000000000000000008152600401611c79906128c6565b60405180910390fd5b600073ffffffffffffffffffffffffffffffffffffffff168273ffffffffffffffffffffffffffffffffffffffff1603611cf1576040517f08c379a0000000000000000000000000000000000000000000000000000000008152600401611ce890612958565b60405180910390fd5b611cfc838383611e90565b60008060008573ffffffffffffffffffffffffffffffffffffffff1673ffffffffffffffffffffffffffffffffffffffff16815260200190815260200160002054905081811015611d82576040517f08c379a0000000000000000000000000000000000000000000000000000000008152600401611d79906129ea565b60405180910390fd5b8181611d8e91906125d8565b6000808673ffffffffffffffffffffffffffffffffffffffff1673ffffffffffffffffffffffffffffffffffffffff16815260200190815260200160002081905550816000808573ffffffffffffffffffffffffffffffffffffffff1673ffffffffffffffffffffffffffffffffffffffff1681526020019081526020016000206000828254611e1e91906123d0565b925050819055508273ffffffffffffffffffffffffffffffffffffffff168473ffffffffffffffffffffffffffffffffffffffff167fddf252ad1be2c89b69c2b068fc378daa952ba7f163c4a11628f55a4df523b3ef84604051611e82919061206e565b60405180910390a350505050565b505050565b600081519050919050565b600082825260208201905092915050565b60005b83811015611ecf578082015181840152602081019050611eb4565b83811115611ede576000848401525b50505050565b6000601f19601f8301169050919050565b6000611f0082611e95565b611f0a8185611ea0565b9350611f1a818560208601611eb1565b611f2381611ee4565b840191505092915050565b60006020820190508181036000830152611f488184611ef5565b905092915050565b600080fd5b600073ffffffffffffffffffffffffffffffffffffffff82169050919050565b6000611f8082611f55565b9050919050565b611f9081611f75565b8114611f9b57600080fd5b50565b600081359050611fad81611f87565b92915050565b6000819050919050565b611fc681611fb3565b8114611fd157600080fd5b50565b600081359050611fe381611fbd565b92915050565b6000806040838503121561200057611fff611f50565b5b600061200e85828601611f9e565b925050602061201f85828601611fd4565b9150509250929050565b60008115159050919050565b61203e81612029565b82525050565b60006020820190506120596000830184612035565b92915050565b61206881611fb3565b82525050565b6000602082019050612083600083018461205f565b92915050565b6000806000606084860312156120a2576120a1611f50565b5b60006120b086828701611f9e565b93505060206120c186828701611f9e565b92505060406120d286828701611fd4565b9150509250925092565b600060ff82169050919050565b6120f2816120dc565b82525050565b600060208201905061210d60008301846120e9565b92915050565b60006020828403121561212957612128611f50565b5b600061213784828501611f9e565b91505092915050565b61214981611f75565b82525050565b60006020820190506121646000830184612140565b92915050565b6000602082840312156121805761217f611f50565b5b600061218e84828501611fd4565b91505092915050565b6121a0816120dc565b81146121ab57600080fd5b50565b6000813590506121bd81612197565b92915050565b600080604083850312156121da576121d9611f50565b5b60006121e885828601611f9e565b92505060206121f9858286016121ae565b9150509250929050565b6000806040838503121561221a57612219611f50565b5b600061222885828601611f9e565b925050602061223985828601611f9e565b9150509250929050565b7f4e487b7100000000000000000000000000000000000000000000000000000000600052602260045260246000fd5b6000600282049050600182168061228a57607f821691505b60208210810361229d5761229c612243565b5b50919050565b7f4f776e61626c653a2063616c6c6572206973206e6f7420746865206f776e6572600082015250565b60006122d9602083611ea0565b91506122e4826122a3565b602082019050919050565b60006020820190508181036000830152612308816122cc565b9050919050565b7f6163636f756e74206973206e6f74206120726567756c6172207368617265686f60008201527f6c64657200000000000000000000000000000000000000000000000000000000602082015250565b600061236b602483611ea0565b91506123768261230f565b604082019050919050565b6000602082019050818103600083015261239a8161235e565b9050919050565b7f4e487b7100000000000000000000000000000000000000000000000000000000600052601160045260246000fd5b60006123db82611fb3565b91506123e683611fb3565b9250827fffffffffffffffffffffffffffffffffffffffffffffffffffffffffffffffff0382111561241b5761241a6123a1565b5b828201905092915050565b7f4e487b7100000000000000000000000000000000000000000000000000000000600052601260045260246000fd5b600061246082611fb3565b915061246b83611fb3565b92508261247b5761247a612426565b5b828204905092915050565b7f4e487b7100000000000000000000000000000000000000000000000000000000600052603260045260246000fd5b60006124c082611fb3565b91506124cb83611fb3565b9250817fffffffffffffffffffffffffffffffffffffffffffffffffffffffffffffffff0483118215151615612504576125036123a1565b5b828202905092915050565b600061251a826120dc565b915060ff820361252d5761252c6123a1565b5b600182019050919050565b7f6163636f756e74206973206120726567756c6172207368617265686f6c646572600082015250565b600061256e602083611ea0565b915061257982612538565b602082019050919050565b6000602082019050818103600083015261259d81612561565b9050919050565b60006125af826120dc565b91506125ba836120dc565b9250828210156125cd576125cc6123a1565b5b828203905092915050565b60006125e382611fb3565b91506125ee83611fb3565b925082821015612601576126006123a1565b5b828203905092915050565b7f45524332303a2064656372656173656420616c6c6f77616e63652062656c6f7760008201527f207a65726f000000000000000000000000000000000000000000000000000000602082015250565b6000612668602583611ea0565b91506126738261260c565b604082019050919050565b600060208201905081810360008301526126978161265b565b9050919050565b7f4f776e61626c653a206e6577206f776e657220697320746865207a65726f206160008201527f6464726573730000000000000000000000000000000000000000000000000000602082015250565b60006126fa602683611ea0565b91506127058261269e565b604082019050919050565b60006020820190508181036000830152612729816126ed565b9050919050565b7f45524332303a20617070726f76652066726f6d20746865207a65726f2061646460008201527f7265737300000000000000000000000000000000000000000000000000000000602082015250565b600061278c602483611ea0565b915061279782612730565b604082019050919050565b600060208201905081810360008301526127bb8161277f565b9050919050565b7f45524332303a20617070726f766520746f20746865207a65726f20616464726560008201527f7373000000000000000000000000000000000000000000000000000000000000602082015250565b600061281e602283611ea0565b9150612829826127c2565b604082019050919050565b6000602082019050818103600083015261284d81612811565b9050919050565b7f45524332303a207472616e736665722066726f6d20746865207a65726f20616460008201527f6472657373000000000000000000000000000000000000000000000000000000602082015250565b60006128b0602583611ea0565b91506128bb82612854565b604082019050919050565b600060208201905081810360008301526128df816128a3565b9050919050565b7f45524332303a207472616e7366657220746f20746865207a65726f206164647260008201527f6573730000000000000000000000000000000000000000000000000000000000602082015250565b6000612942602383611ea0565b915061294d826128e6565b604082019050919050565b6000602082019050818103600083015261297181612935565b9050919050565b7f45524332303a207472616e7366657220616d6f756e742065786365656473206260008201527f616c616e63650000000000000000000000000000000000000000000000000000602082015250565b60006129d4602683611ea0565b91506129df82612978565b604082019050919050565b60006020820190508181036000830152612a03816129c7565b905091905056fea2646970667358221220ed1756936c7828c8c9947c7f44054c3e3156655ea5946cb912690692a0ec261864736f6c634300080d0033",
					"opcodes": "PUSH1 0x80 PUSH1 0x40 MSTORE PUSH1 0x3 PUSH1 0x8 SSTORE CALLVALUE DUP1 ISZERO PUSH3 0x16 JUMPI PUSH1 0x0 DUP1 REVERT JUMPDEST POP PUSH1 0x40 MLOAD PUSH3 0x3622 CODESIZE SUB DUP1 PUSH3 0x3622 DUP4 CODECOPY DUP2 DUP2 ADD PUSH1 0x40 MSTORE DUP2 ADD SWAP1 PUSH3 0x3C SWAP2 SWAP1 PUSH3 0x758 JUMP JUMPDEST DUP3 DUP3 DUP2 PUSH1 0x3 SWAP1 DUP1 MLOAD SWAP1 PUSH1 0x20 ADD SWAP1 PUSH3 0x56 SWAP3 SWAP2 SWAP1 PUSH3 0x4A6 JUMP JUMPDEST POP DUP1 PUSH1 0x4 SWAP1 DUP1 MLOAD SWAP1 PUSH1 0x20 ADD SWAP1 PUSH3 0x6F SWAP3 SWAP2 SWAP1 PUSH3 0x4A6 JUMP JUMPDEST POP POP POP PUSH3 0x92 PUSH3 0x86 PUSH3 0x266 PUSH1 0x20 SHL PUSH1 0x20 SHR JUMP JUMPDEST PUSH3 0x26E PUSH1 0x20 SHL PUSH1 0x20 SHR JUMP JUMPDEST PUSH3 0xD5 CALLER PUSH3 0xA7 PUSH3 0x334 PUSH1 0x20 SHL PUSH1 0x20 SHR JUMP JUMPDEST PUSH1 0xFF AND PUSH1 0xA PUSH3 0xB8 SWAP2 SWAP1 PUSH3 0x97F JUMP JUMPDEST PUSH4 0x11E1A300 PUSH3 0xC9 SWAP2 SWAP1 PUSH3 0x9D0 JUMP JUMPDEST PUSH3 0x33D PUSH1 0x20 SHL PUSH1 0x20 SHR JUMP JUMPDEST PUSH3 0xE5 PUSH3 0x334 PUSH1 0x20 SHL PUSH1 0x20 SHR JUMP JUMPDEST PUSH1 0xFF AND PUSH1 0xA PUSH3 0xF6 SWAP2 SWAP1 PUSH3 0x97F JUMP JUMPDEST PUSH1 0x9 PUSH1 0x0 PUSH1 0x3 DUP2 LT PUSH3 0x10E JUMPI PUSH3 0x10D PUSH3 0xA31 JUMP JUMPDEST JUMPDEST ADD DUP2 SWAP1 SSTORE POP PUSH3 0x123 PUSH3 0x334 PUSH1 0x20 SHL PUSH1 0x20 SHR JUMP JUMPDEST PUSH1 0xFF AND PUSH1 0xA PUSH3 0x134 SWAP2 SWAP1 PUSH3 0x97F JUMP JUMPDEST PUSH1 0x9 PUSH1 0x1 PUSH1 0x3 DUP2 LT PUSH3 0x14C JUMPI PUSH3 0x14B PUSH3 0xA31 JUMP JUMPDEST JUMPDEST ADD DUP2 SWAP1 SSTORE POP PUSH3 0x161 PUSH3 0x334 PUSH1 0x20 SHL PUSH1 0x20 SHR JUMP JUMPDEST PUSH1 0xFF AND PUSH1 0xA PUSH3 0x172 SWAP2 SWAP1 PUSH3 0x97F JUMP JUMPDEST PUSH1 0x9 PUSH1 0x2 PUSH1 0x3 DUP2 LT PUSH3 0x18A JUMPI PUSH3 0x189 PUSH3 0xA31 JUMP JUMPDEST JUMPDEST ADD DUP2 SWAP1 SSTORE POP PUSH3 0x19F PUSH3 0x334 PUSH1 0x20 SHL PUSH1 0x20 SHR JUMP JUMPDEST PUSH1 0xFF AND PUSH1 0xA PUSH3 0x1B0 SWAP2 SWAP1 PUSH3 0x97F JUMP JUMPDEST PUSH4 0x11E1A300 PUSH3 0x1C1 SWAP2 SWAP1 PUSH3 0x9D0 JUMP JUMPDEST PUSH1 0xC PUSH1 0x0 PUSH1 0x3 DUP2 LT PUSH3 0x1D9 JUMPI PUSH3 0x1D8 PUSH3 0xA31 JUMP JUMPDEST JUMPDEST ADD DUP2 SWAP1 SSTORE POP PUSH1 0x0 PUSH1 0xC PUSH1 0x1 PUSH1 0x3 DUP2 LT PUSH3 0x1F8 JUMPI PUSH3 0x1F7 PUSH3 0xA31 JUMP JUMPDEST JUMPDEST ADD DUP2 SWAP1 SSTORE POP PUSH1 0x0 PUSH1 0xC PUSH1 0x2 PUSH1 0x3 DUP2 LT PUSH3 0x217 JUMPI PUSH3 0x216 PUSH3 0xA31 JUMP JUMPDEST JUMPDEST ADD DUP2 SWAP1 SSTORE POP DUP1 PUSH1 0xF PUSH1 0x0 PUSH2 0x100 EXP DUP2 SLOAD DUP2 PUSH20 0xFFFFFFFFFFFFFFFFFFFFFFFFFFFFFFFFFFFFFFFF MUL NOT AND SWAP1 DUP4 PUSH20 0xFFFFFFFFFFFFFFFFFFFFFFFFFFFFFFFFFFFFFFFF AND MUL OR SWAP1 SSTORE POP POP POP POP PUSH3 0xBD2 JUMP JUMPDEST PUSH1 0x0 CALLER SWAP1 POP SWAP1 JUMP JUMPDEST PUSH1 0x0 PUSH1 0x5 PUSH1 0x0 SWAP1 SLOAD SWAP1 PUSH2 0x100 EXP SWAP1 DIV PUSH20 0xFFFFFFFFFFFFFFFFFFFFFFFFFFFFFFFFFFFFFFFF AND SWAP1 POP DUP2 PUSH1 0x5 PUSH1 0x0 PUSH2 0x100 EXP DUP2 SLOAD DUP2 PUSH20 0xFFFFFFFFFFFFFFFFFFFFFFFFFFFFFFFFFFFFFFFF MUL NOT AND SWAP1 DUP4 PUSH20 0xFFFFFFFFFFFFFFFFFFFFFFFFFFFFFFFFFFFFFFFF AND MUL OR SWAP1 SSTORE POP DUP2 PUSH20 0xFFFFFFFFFFFFFFFFFFFFFFFFFFFFFFFFFFFFFFFF AND DUP2 PUSH20 0xFFFFFFFFFFFFFFFFFFFFFFFFFFFFFFFFFFFFFFFF AND PUSH32 0x8BE0079C531659141344CD1FD0A4F28419497F9722A3DAAFE3B4186F6B6457E0 PUSH1 0x40 MLOAD PUSH1 0x40 MLOAD DUP1 SWAP2 SUB SWAP1 LOG3 POP POP JUMP JUMPDEST PUSH1 0x0 PUSH1 0x12 SWAP1 POP SWAP1 JUMP JUMPDEST PUSH1 0x0 PUSH20 0xFFFFFFFFFFFFFFFFFFFFFFFFFFFFFFFFFFFFFFFF AND DUP3 PUSH20 0xFFFFFFFFFFFFFFFFFFFFFFFFFFFFFFFFFFFFFFFF AND SUB PUSH3 0x3AF JUMPI PUSH1 0x40 MLOAD PUSH32 0x8C379A000000000000000000000000000000000000000000000000000000000 DUP2 MSTORE PUSH1 0x4 ADD PUSH3 0x3A6 SWAP1 PUSH3 0xAC1 JUMP JUMPDEST PUSH1 0x40 MLOAD DUP1 SWAP2 SUB SWAP1 REVERT JUMPDEST PUSH3 0x3C3 PUSH1 0x0 DUP4 DUP4 PUSH3 0x4A1 PUSH1 0x20 SHL PUSH1 0x20 SHR JUMP JUMPDEST DUP1 PUSH1 0x2 PUSH1 0x0 DUP3 DUP3 SLOAD PUSH3 0x3D7 SWAP2 SWAP1 PUSH3 0xAE3 JUMP JUMPDEST SWAP3 POP POP DUP2 SWAP1 SSTORE POP DUP1 PUSH1 0x0 DUP1 DUP5 PUSH20 0xFFFFFFFFFFFFFFFFFFFFFFFFFFFFFFFFFFFFFFFF AND PUSH20 0xFFFFFFFFFFFFFFFFFFFFFFFFFFFFFFFFFFFFFFFF AND DUP2 MSTORE PUSH1 0x20 ADD SWAP1 DUP2 MSTORE PUSH1 0x20 ADD PUSH1 0x0 KECCAK256 PUSH1 0x0 DUP3 DUP3 SLOAD PUSH3 0x42E SWAP2 SWAP1 PUSH3 0xAE3 JUMP JUMPDEST SWAP3 POP POP DUP2 SWAP1 SSTORE POP DUP2 PUSH20 0xFFFFFFFFFFFFFFFFFFFFFFFFFFFFFFFFFFFFFFFF AND PUSH1 0x0 PUSH20 0xFFFFFFFFFFFFFFFFFFFFFFFFFFFFFFFFFFFFFFFF AND PUSH32 0xDDF252AD1BE2C89B69C2B068FC378DAA952BA7F163C4A11628F55A4DF523B3EF DUP4 PUSH1 0x40 MLOAD PUSH3 0x495 SWAP2 SWAP1 PUSH3 0xB51 JUMP JUMPDEST PUSH1 0x40 MLOAD DUP1 SWAP2 SUB SWAP1 LOG3 POP POP JUMP JUMPDEST POP POP POP JUMP JUMPDEST DUP3 DUP1 SLOAD PUSH3 0x4B4 SWAP1 PUSH3 0xB9D JUMP JUMPDEST SWAP1 PUSH1 0x0 MSTORE PUSH1 0x20 PUSH1 0x0 KECCAK256 SWAP1 PUSH1 0x1F ADD PUSH1 0x20 SWAP1 DIV DUP2 ADD SWAP3 DUP3 PUSH3 0x4D8 JUMPI PUSH1 0x0 DUP6 SSTORE PUSH3 0x524 JUMP JUMPDEST DUP3 PUSH1 0x1F LT PUSH3 0x4F3 JUMPI DUP1 MLOAD PUSH1 0xFF NOT AND DUP4 DUP1 ADD OR DUP6 SSTORE PUSH3 0x524 JUMP JUMPDEST DUP3 DUP1 ADD PUSH1 0x1 ADD DUP6 SSTORE DUP3 ISZERO PUSH3 0x524 JUMPI SWAP2 DUP3 ADD JUMPDEST DUP3 DUP2 GT ISZERO PUSH3 0x523 JUMPI DUP3 MLOAD DUP3 SSTORE SWAP2 PUSH1 0x20 ADD SWAP2 SWAP1 PUSH1 0x1 ADD SWAP1 PUSH3 0x506 JUMP JUMPDEST JUMPDEST POP SWAP1 POP PUSH3 0x533 SWAP2 SWAP1 PUSH3 0x537 JUMP JUMPDEST POP SWAP1 JUMP JUMPDEST JUMPDEST DUP1 DUP3 GT ISZERO PUSH3 0x552 JUMPI PUSH1 0x0 DUP2 PUSH1 0x0 SWAP1 SSTORE POP PUSH1 0x1 ADD PUSH3 0x538 JUMP JUMPDEST POP SWAP1 JUMP JUMPDEST PUSH1 0x0 PUSH1 0x40 MLOAD SWAP1 POP SWAP1 JUMP JUMPDEST PUSH1 0x0 DUP1 REVERT JUMPDEST PUSH1 0x0 DUP1 REVERT JUMPDEST PUSH1 0x0 DUP1 REVERT JUMPDEST PUSH1 0x0 DUP1 REVERT JUMPDEST PUSH1 0x0 PUSH1 0x1F NOT PUSH1 0x1F DUP4 ADD AND SWAP1 POP SWAP2 SWAP1 POP JUMP JUMPDEST PUSH32 0x4E487B7100000000000000000000000000000000000000000000000000000000 PUSH1 0x0 MSTORE PUSH1 0x41 PUSH1 0x4 MSTORE PUSH1 0x24 PUSH1 0x0 REVERT JUMPDEST PUSH3 0x5BF DUP3 PUSH3 0x574 JUMP JUMPDEST DUP2 ADD DUP2 DUP2 LT PUSH8 0xFFFFFFFFFFFFFFFF DUP3 GT OR ISZERO PUSH3 0x5E1 JUMPI PUSH3 0x5E0 PUSH3 0x585 JUMP JUMPDEST JUMPDEST DUP1 PUSH1 0x40 MSTORE POP POP POP JUMP JUMPDEST PUSH1 0x0 PUSH3 0x5F6 PUSH3 0x556 JUMP JUMPDEST SWAP1 POP PUSH3 0x604 DUP3 DUP3 PUSH3 0x5B4 JUMP JUMPDEST SWAP2 SWAP1 POP JUMP JUMPDEST PUSH1 0x0 PUSH8 0xFFFFFFFFFFFFFFFF DUP3 GT ISZERO PUSH3 0x627 JUMPI PUSH3 0x626 PUSH3 0x585 JUMP JUMPDEST JUMPDEST PUSH3 0x632 DUP3 PUSH3 0x574 JUMP JUMPDEST SWAP1 POP PUSH1 0x20 DUP2 ADD SWAP1 POP SWAP2 SWAP1 POP JUMP JUMPDEST PUSH1 0x0 JUMPDEST DUP4 DUP2 LT ISZERO PUSH3 0x65F JUMPI DUP1 DUP3 ADD MLOAD DUP2 DUP5 ADD MSTORE PUSH1 0x20 DUP2 ADD SWAP1 POP PUSH3 0x642 JUMP JUMPDEST DUP4 DUP2 GT ISZERO PUSH3 0x66F JUMPI PUSH1 0x0 DUP5 DUP5 ADD MSTORE JUMPDEST POP POP POP POP JUMP JUMPDEST PUSH1 0x0 PUSH3 0x68C PUSH3 0x686 DUP5 PUSH3 0x609 JUMP JUMPDEST PUSH3 0x5EA JUMP JUMPDEST SWAP1 POP DUP3 DUP2 MSTORE PUSH1 0x20 DUP2 ADD DUP5 DUP5 DUP5 ADD GT ISZERO PUSH3 0x6AB JUMPI PUSH3 0x6AA PUSH3 0x56F JUMP JUMPDEST JUMPDEST PUSH3 0x6B8 DUP5 DUP3 DUP6 PUSH3 0x63F JUMP JUMPDEST POP SWAP4 SWAP3 POP POP POP JUMP JUMPDEST PUSH1 0x0 DUP3 PUSH1 0x1F DUP4 ADD SLT PUSH3 0x6D8 JUMPI PUSH3 0x6D7 PUSH3 0x56A JUMP JUMPDEST JUMPDEST DUP2 MLOAD PUSH3 0x6EA DUP5 DUP3 PUSH1 0x20 DUP7 ADD PUSH3 0x675 JUMP JUMPDEST SWAP2 POP POP SWAP3 SWAP2 POP POP JUMP JUMPDEST PUSH1 0x0 PUSH20 0xFFFFFFFFFFFFFFFFFFFFFFFFFFFFFFFFFFFFFFFF DUP3 AND SWAP1 POP SWAP2 SWAP1 POP JUMP JUMPDEST PUSH1 0x0 PUSH3 0x720 DUP3 PUSH3 0x6F3 JUMP JUMPDEST SWAP1 POP SWAP2 SWAP1 POP JUMP JUMPDEST PUSH3 0x732 DUP2 PUSH3 0x713 JUMP JUMPDEST DUP2 EQ PUSH3 0x73E JUMPI PUSH1 0x0 DUP1 REVERT JUMPDEST POP JUMP JUMPDEST PUSH1 0x0 DUP2 MLOAD SWAP1 POP PUSH3 0x752 DUP2 PUSH3 0x727 JUMP JUMPDEST SWAP3 SWAP2 POP POP JUMP JUMPDEST PUSH1 0x0 DUP1 PUSH1 0x0 PUSH1 0x60 DUP5 DUP7 SUB SLT ISZERO PUSH3 0x774 JUMPI PUSH3 0x773 PUSH3 0x560 JUMP JUMPDEST JUMPDEST PUSH1 0x0 DUP5 ADD MLOAD PUSH8 0xFFFFFFFFFFFFFFFF DUP2 GT ISZERO PUSH3 0x795 JUMPI PUSH3 0x794 PUSH3 0x565 JUMP JUMPDEST JUMPDEST PUSH3 0x7A3 DUP7 DUP3 DUP8 ADD PUSH3 0x6C0 JUMP JUMPDEST SWAP4 POP POP PUSH1 0x20 DUP5 ADD MLOAD PUSH8 0xFFFFFFFFFFFFFFFF DUP2 GT ISZERO PUSH3 0x7C7 JUMPI PUSH3 0x7C6 PUSH3 0x565 JUMP JUMPDEST JUMPDEST PUSH3 0x7D5 DUP7 DUP3 DUP8 ADD PUSH3 0x6C0 JUMP JUMPDEST SWAP3 POP POP PUSH1 0x40 PUSH3 0x7E8 DUP7 DUP3 DUP8 ADD PUSH3 0x741 JUMP JUMPDEST SWAP2 POP POP SWAP3 POP SWAP3 POP SWAP3 JUMP JUMPDEST PUSH32 0x4E487B7100000000000000000000000000000000000000000000000000000000 PUSH1 0x0 MSTORE PUSH1 0x11 PUSH1 0x4 MSTORE PUSH1 0x24 PUSH1 0x0 REVERT JUMPDEST PUSH1 0x0 DUP2 PUSH1 0x1 SHR SWAP1 POP SWAP2 SWAP1 POP JUMP JUMPDEST PUSH1 0x0 DUP1 DUP3 SWAP2 POP DUP4 SWAP1 POP JUMPDEST PUSH1 0x1 DUP6 GT ISZERO PUSH3 0x880 JUMPI DUP1 DUP7 DIV DUP2 GT ISZERO PUSH3 0x858 JUMPI PUSH3 0x857 PUSH3 0x7F2 JUMP JUMPDEST JUMPDEST PUSH1 0x1 DUP6 AND ISZERO PUSH3 0x868 JUMPI DUP1 DUP3 MUL SWAP2 POP JUMPDEST DUP1 DUP2 MUL SWAP1 POP PUSH3 0x878 DUP6 PUSH3 0x821 JUMP JUMPDEST SWAP5 POP PUSH3 0x838 JUMP JUMPDEST SWAP5 POP SWAP5 SWAP3 POP POP POP JUMP JUMPDEST PUSH1 0x0 DUP3 PUSH3 0x89B JUMPI PUSH1 0x1 SWAP1 POP PUSH3 0x96E JUMP JUMPDEST DUP2 PUSH3 0x8AB JUMPI PUSH1 0x0 SWAP1 POP PUSH3 0x96E JUMP JUMPDEST DUP2 PUSH1 0x1 DUP2 EQ PUSH3 0x8C4 JUMPI PUSH1 0x2 DUP2 EQ PUSH3 0x8CF JUMPI PUSH3 0x905 JUMP JUMPDEST PUSH1 0x1 SWAP2 POP POP PUSH3 0x96E JUMP JUMPDEST PUSH1 0xFF DUP5 GT ISZERO PUSH3 0x8E4 JUMPI PUSH3 0x8E3 PUSH3 0x7F2 JUMP JUMPDEST JUMPDEST DUP4 PUSH1 0x2 EXP SWAP2 POP DUP5 DUP3 GT ISZERO PUSH3 0x8FE JUMPI PUSH3 0x8FD PUSH3 0x7F2 JUMP JUMPDEST JUMPDEST POP PUSH3 0x96E JUMP JUMPDEST POP PUSH1 0x20 DUP4 LT PUSH2 0x133 DUP4 LT AND PUSH1 0x4E DUP5 LT PUSH1 0xB DUP5 LT AND OR ISZERO PUSH3 0x93F JUMPI DUP3 DUP3 EXP SWAP1 POP DUP4 DUP2 GT ISZERO PUSH3 0x939 JUMPI PUSH3 0x938 PUSH3 0x7F2 JUMP JUMPDEST JUMPDEST PUSH3 0x96E JUMP JUMPDEST PUSH3 0x94E DUP5 DUP5 DUP5 PUSH1 0x1 PUSH3 0x82E JUMP JUMPDEST SWAP3 POP SWAP1 POP DUP2 DUP5 DIV DUP2 GT ISZERO PUSH3 0x968 JUMPI PUSH3 0x967 PUSH3 0x7F2 JUMP JUMPDEST JUMPDEST DUP2 DUP2 MUL SWAP1 POP JUMPDEST SWAP4 SWAP3 POP POP POP JUMP JUMPDEST PUSH1 0x0 DUP2 SWAP1 POP SWAP2 SWAP1 POP JUMP JUMPDEST PUSH1 0x0 PUSH3 0x98C DUP3 PUSH3 0x975 JUMP JUMPDEST SWAP2 POP PUSH3 0x999 DUP4 PUSH3 0x975 JUMP JUMPDEST SWAP3 POP PUSH3 0x9C8 PUSH32 0xFFFFFFFFFFFFFFFFFFFFFFFFFFFFFFFFFFFFFFFFFFFFFFFFFFFFFFFFFFFFFFFF DUP5 DUP5 PUSH3 0x889 JUMP JUMPDEST SWAP1 POP SWAP3 SWAP2 POP POP JUMP JUMPDEST PUSH1 0x0 PUSH3 0x9DD DUP3 PUSH3 0x975 JUMP JUMPDEST SWAP2 POP PUSH3 0x9EA DUP4 PUSH3 0x975 JUMP JUMPDEST SWAP3 POP DUP2 PUSH32 0xFFFFFFFFFFFFFFFFFFFFFFFFFFFFFFFFFFFFFFFFFFFFFFFFFFFFFFFFFFFFFFFF DIV DUP4 GT DUP3 ISZERO ISZERO AND ISZERO PUSH3 0xA26 JUMPI PUSH3 0xA25 PUSH3 0x7F2 JUMP JUMPDEST JUMPDEST DUP3 DUP3 MUL SWAP1 POP SWAP3 SWAP2 POP POP JUMP JUMPDEST PUSH32 0x4E487B7100000000000000000000000000000000000000000000000000000000 PUSH1 0x0 MSTORE PUSH1 0x32 PUSH1 0x4 MSTORE PUSH1 0x24 PUSH1 0x0 REVERT JUMPDEST PUSH1 0x0 DUP3 DUP3 MSTORE PUSH1 0x20 DUP3 ADD SWAP1 POP SWAP3 SWAP2 POP POP JUMP JUMPDEST PUSH32 0x45524332303A206D696E7420746F20746865207A65726F206164647265737300 PUSH1 0x0 DUP3 ADD MSTORE POP JUMP JUMPDEST PUSH1 0x0 PUSH3 0xAA9 PUSH1 0x1F DUP4 PUSH3 0xA60 JUMP JUMPDEST SWAP2 POP PUSH3 0xAB6 DUP3 PUSH3 0xA71 JUMP JUMPDEST PUSH1 0x20 DUP3 ADD SWAP1 POP SWAP2 SWAP1 POP JUMP JUMPDEST PUSH1 0x0 PUSH1 0x20 DUP3 ADD SWAP1 POP DUP2 DUP2 SUB PUSH1 0x0 DUP4 ADD MSTORE PUSH3 0xADC DUP2 PUSH3 0xA9A JUMP JUMPDEST SWAP1 POP SWAP2 SWAP1 POP JUMP JUMPDEST PUSH1 0x0 PUSH3 0xAF0 DUP3 PUSH3 0x975 JUMP JUMPDEST SWAP2 POP PUSH3 0xAFD DUP4 PUSH3 0x975 JUMP JUMPDEST SWAP3 POP DUP3 PUSH32 0xFFFFFFFFFFFFFFFFFFFFFFFFFFFFFFFFFFFFFFFFFFFFFFFFFFFFFFFFFFFFFFFF SUB DUP3 GT ISZERO PUSH3 0xB35 JUMPI PUSH3 0xB34 PUSH3 0x7F2 JUMP JUMPDEST JUMPDEST DUP3 DUP3 ADD SWAP1 POP SWAP3 SWAP2 POP POP JUMP JUMPDEST PUSH3 0xB4B DUP2 PUSH3 0x975 JUMP JUMPDEST DUP3 MSTORE POP POP JUMP JUMPDEST PUSH1 0x0 PUSH1 0x20 DUP3 ADD SWAP1 POP PUSH3 0xB68 PUSH1 0x0 DUP4 ADD DUP5 PUSH3 0xB40 JUMP JUMPDEST SWAP3 SWAP2 POP POP JUMP JUMPDEST PUSH32 0x4E487B7100000000000000000000000000000000000000000000000000000000 PUSH1 0x0 MSTORE PUSH1 0x22 PUSH1 0x4 MSTORE PUSH1 0x24 PUSH1 0x0 REVERT JUMPDEST PUSH1 0x0 PUSH1 0x2 DUP3 DIV SWAP1 POP PUSH1 0x1 DUP3 AND DUP1 PUSH3 0xBB6 JUMPI PUSH1 0x7F DUP3 AND SWAP2 POP JUMPDEST PUSH1 0x20 DUP3 LT DUP2 SUB PUSH3 0xBCC JUMPI PUSH3 0xBCB PUSH3 0xB6E JUMP JUMPDEST JUMPDEST POP SWAP2 SWAP1 POP JUMP JUMPDEST PUSH2 0x2A40 DUP1 PUSH3 0xBE2 PUSH1 0x0 CODECOPY PUSH1 0x0 RETURN INVALID PUSH1 0x80 PUSH1 0x40 MSTORE CALLVALUE DUP1 ISZERO PUSH2 0x10 JUMPI PUSH1 0x0 DUP1 REVERT JUMPDEST POP PUSH1 0x4 CALLDATASIZE LT PUSH2 0x121 JUMPI PUSH1 0x0 CALLDATALOAD PUSH1 0xE0 SHR DUP1 PUSH4 0x715018A6 GT PUSH2 0xAD JUMPI DUP1 PUSH4 0xA33E7D7E GT PUSH2 0x71 JUMPI DUP1 PUSH4 0xA33E7D7E EQ PUSH2 0x30A JUMPI DUP1 PUSH4 0xA457C2D7 EQ PUSH2 0x326 JUMPI DUP1 PUSH4 0xA9059CBB EQ PUSH2 0x356 JUMPI DUP1 PUSH4 0xDD62ED3E EQ PUSH2 0x386 JUMPI DUP1 PUSH4 0xF2FDE38B EQ PUSH2 0x3B6 JUMPI PUSH2 0x121 JUMP JUMPDEST DUP1 PUSH4 0x715018A6 EQ PUSH2 0x278 JUMPI DUP1 PUSH4 0x7A0D944C EQ PUSH2 0x282 JUMPI DUP1 PUSH4 0x8DA5CB5B EQ PUSH2 0x2B2 JUMPI DUP1 PUSH4 0x95D89B41 EQ PUSH2 0x2D0 JUMPI DUP1 PUSH4 0xA0712D68 EQ PUSH2 0x2EE JUMPI PUSH2 0x121 JUMP JUMPDEST DUP1 PUSH4 0x18160DDD GT PUSH2 0xF4 JUMPI DUP1 PUSH4 0x18160DDD EQ PUSH2 0x1AC JUMPI DUP1 PUSH4 0x23B872DD EQ PUSH2 0x1CA JUMPI DUP1 PUSH4 0x313CE567 EQ PUSH2 0x1FA JUMPI DUP1 PUSH4 0x39509351 EQ PUSH2 0x218 JUMPI DUP1 PUSH4 0x70A08231 EQ PUSH2 0x248 JUMPI PUSH2 0x121 JUMP JUMPDEST DUP1 PUSH4 0x6FDDE03 EQ PUSH2 0x126 JUMPI DUP1 PUSH4 0x95EA7B3 EQ PUSH2 0x144 JUMPI DUP1 PUSH4 0x13B954A3 EQ PUSH2 0x174 JUMPI DUP1 PUSH4 0x1506F480 EQ PUSH2 0x190 JUMPI JUMPDEST PUSH1 0x0 DUP1 REVERT JUMPDEST PUSH2 0x12E PUSH2 0x3D2 JUMP JUMPDEST PUSH1 0x40 MLOAD PUSH2 0x13B SWAP2 SWAP1 PUSH2 0x1F2E JUMP JUMPDEST PUSH1 0x40 MLOAD DUP1 SWAP2 SUB SWAP1 RETURN JUMPDEST PUSH2 0x15E PUSH1 0x4 DUP1 CALLDATASIZE SUB DUP2 ADD SWAP1 PUSH2 0x159 SWAP2 SWAP1 PUSH2 0x1FE9 JUMP JUMPDEST PUSH2 0x464 JUMP JUMPDEST PUSH1 0x40 MLOAD PUSH2 0x16B SWAP2 SWAP1 PUSH2 0x2044 JUMP JUMPDEST PUSH1 0x40 MLOAD DUP1 SWAP2 SUB SWAP1 RETURN JUMPDEST PUSH2 0x18E PUSH1 0x4 DUP1 CALLDATASIZE SUB DUP2 ADD SWAP1 PUSH2 0x189 SWAP2 SWAP1 PUSH2 0x1FE9 JUMP JUMPDEST PUSH2 0x482 JUMP JUMPDEST STOP JUMPDEST PUSH2 0x1AA PUSH1 0x4 DUP1 CALLDATASIZE SUB DUP2 ADD SWAP1 PUSH2 0x1A5 SWAP2 SWAP1 PUSH2 0x1FE9 JUMP JUMPDEST PUSH2 0x708 JUMP JUMPDEST STOP JUMPDEST PUSH2 0x1B4 PUSH2 0xA65 JUMP JUMPDEST PUSH1 0x40 MLOAD PUSH2 0x1C1 SWAP2 SWAP1 PUSH2 0x206E JUMP JUMPDEST PUSH1 0x40 MLOAD DUP1 SWAP2 SUB SWAP1 RETURN JUMPDEST PUSH2 0x1E4 PUSH1 0x4 DUP1 CALLDATASIZE SUB DUP2 ADD SWAP1 PUSH2 0x1DF SWAP2 SWAP1 PUSH2 0x2089 JUMP JUMPDEST PUSH2 0xA6F JUMP JUMPDEST PUSH1 0x40 MLOAD PUSH2 0x1F1 SWAP2 SWAP1 PUSH2 0x2044 JUMP JUMPDEST PUSH1 0x40 MLOAD DUP1 SWAP2 SUB SWAP1 RETURN JUMPDEST PUSH2 0x202 PUSH2 0xA7C JUMP JUMPDEST PUSH1 0x40 MLOAD PUSH2 0x20F SWAP2 SWAP1 PUSH2 0x20F8 JUMP JUMPDEST PUSH1 0x40 MLOAD DUP1 SWAP2 SUB SWAP1 RETURN JUMPDEST PUSH2 0x232 PUSH1 0x4 DUP1 CALLDATASIZE SUB DUP2 ADD SWAP1 PUSH2 0x22D SWAP2 SWAP1 PUSH2 0x1FE9 JUMP JUMPDEST PUSH2 0xA85 JUMP JUMPDEST PUSH1 0x40 MLOAD PUSH2 0x23F SWAP2 SWAP1 PUSH2 0x2044 JUMP JUMPDEST PUSH1 0x40 MLOAD DUP1 SWAP2 SUB SWAP1 RETURN JUMPDEST PUSH2 0x262 PUSH1 0x4 DUP1 CALLDATASIZE SUB DUP2 ADD SWAP1 PUSH2 0x25D SWAP2 SWAP1 PUSH2 0x2113 JUMP JUMPDEST PUSH2 0xB31 JUMP JUMPDEST PUSH1 0x40 MLOAD PUSH2 0x26F SWAP2 SWAP1 PUSH2 0x206E JUMP JUMPDEST PUSH1 0x40 MLOAD DUP1 SWAP2 SUB SWAP1 RETURN JUMPDEST PUSH2 0x280 PUSH2 0xCCF JUMP JUMPDEST STOP JUMPDEST PUSH2 0x29C PUSH1 0x4 DUP1 CALLDATASIZE SUB DUP2 ADD SWAP1 PUSH2 0x297 SWAP2 SWAP1 PUSH2 0x2113 JUMP JUMPDEST PUSH2 0xD57 JUMP JUMPDEST PUSH1 0x40 MLOAD PUSH2 0x2A9 SWAP2 SWAP1 PUSH2 0x20F8 JUMP JUMPDEST PUSH1 0x40 MLOAD DUP1 SWAP2 SUB SWAP1 RETURN JUMPDEST PUSH2 0x2BA PUSH2 0xD77 JUMP JUMPDEST PUSH1 0x40 MLOAD PUSH2 0x2C7 SWAP2 SWAP1 PUSH2 0x214F JUMP JUMPDEST PUSH1 0x40 MLOAD DUP1 SWAP2 SUB SWAP1 RETURN JUMPDEST PUSH2 0x2D8 PUSH2 0xDA1 JUMP JUMPDEST PUSH1 0x40 MLOAD PUSH2 0x2E5 SWAP2 SWAP1 PUSH2 0x1F2E JUMP JUMPDEST PUSH1 0x40 MLOAD DUP1 SWAP2 SUB SWAP1 RETURN JUMPDEST PUSH2 0x308 PUSH1 0x4 DUP1 CALLDATASIZE SUB DUP2 ADD SWAP1 PUSH2 0x303 SWAP2 SWAP1 PUSH2 0x216A JUMP JUMPDEST PUSH2 0xE33 JUMP JUMPDEST STOP JUMPDEST PUSH2 0x324 PUSH1 0x4 DUP1 CALLDATASIZE SUB DUP2 ADD SWAP1 PUSH2 0x31F SWAP2 SWAP1 PUSH2 0x21C3 JUMP JUMPDEST PUSH2 0x1138 JUMP JUMPDEST STOP JUMPDEST PUSH2 0x340 PUSH1 0x4 DUP1 CALLDATASIZE SUB DUP2 ADD SWAP1 PUSH2 0x33B SWAP2 SWAP1 PUSH2 0x1FE9 JUMP JUMPDEST PUSH2 0x13A1 JUMP JUMPDEST PUSH1 0x40 MLOAD PUSH2 0x34D SWAP2 SWAP1 PUSH2 0x2044 JUMP JUMPDEST PUSH1 0x40 MLOAD DUP1 SWAP2 SUB SWAP1 RETURN JUMPDEST PUSH2 0x370 PUSH1 0x4 DUP1 CALLDATASIZE SUB DUP2 ADD SWAP1 PUSH2 0x36B SWAP2 SWAP1 PUSH2 0x1FE9 JUMP JUMPDEST PUSH2 0x1495 JUMP JUMPDEST PUSH1 0x40 MLOAD PUSH2 0x37D SWAP2 SWAP1 PUSH2 0x2044 JUMP JUMPDEST PUSH1 0x40 MLOAD DUP1 SWAP2 SUB SWAP1 RETURN JUMPDEST PUSH2 0x3A0 PUSH1 0x4 DUP1 CALLDATASIZE SUB DUP2 ADD SWAP1 PUSH2 0x39B SWAP2 SWAP1 PUSH2 0x2203 JUMP JUMPDEST PUSH2 0x15C0 JUMP JUMPDEST PUSH1 0x40 MLOAD PUSH2 0x3AD SWAP2 SWAP1 PUSH2 0x206E JUMP JUMPDEST PUSH1 0x40 MLOAD DUP1 SWAP2 SUB SWAP1 RETURN JUMPDEST PUSH2 0x3D0 PUSH1 0x4 DUP1 CALLDATASIZE SUB DUP2 ADD SWAP1 PUSH2 0x3CB SWAP2 SWAP1 PUSH2 0x2113 JUMP JUMPDEST PUSH2 0x1647 JUMP JUMPDEST STOP JUMPDEST PUSH1 0x60 PUSH1 0x3 DUP1 SLOAD PUSH2 0x3E1 SWAP1 PUSH2 0x2272 JUMP JUMPDEST DUP1 PUSH1 0x1F ADD PUSH1 0x20 DUP1 SWAP2 DIV MUL PUSH1 0x20 ADD PUSH1 0x40 MLOAD SWAP1 DUP2 ADD PUSH1 0x40 MSTORE DUP1 SWAP3 SWAP2 SWAP1 DUP2 DUP2 MSTORE PUSH1 0x20 ADD DUP3 DUP1 SLOAD PUSH2 0x40D SWAP1 PUSH2 0x2272 JUMP JUMPDEST DUP1 ISZERO PUSH2 0x45A JUMPI DUP1 PUSH1 0x1F LT PUSH2 0x42F JUMPI PUSH2 0x100 DUP1 DUP4 SLOAD DIV MUL DUP4 MSTORE SWAP2 PUSH1 0x20 ADD SWAP2 PUSH2 0x45A JUMP JUMPDEST DUP3 ADD SWAP2 SWAP1 PUSH1 0x0 MSTORE PUSH1 0x20 PUSH1 0x0 KECCAK256 SWAP1 JUMPDEST DUP2 SLOAD DUP2 MSTORE SWAP1 PUSH1 0x1 ADD SWAP1 PUSH1 0x20 ADD DUP1 DUP4 GT PUSH2 0x43D JUMPI DUP3 SWAP1 SUB PUSH1 0x1F AND DUP3 ADD SWAP2 JUMPDEST POP POP POP POP POP SWAP1 POP SWAP1 JUMP JUMPDEST PUSH1 0x0 PUSH2 0x478 PUSH2 0x471 PUSH2 0x173E JUMP JUMPDEST DUP5 DUP5 PUSH2 0x1746 JUMP JUMPDEST PUSH1 0x1 SWAP1 POP SWAP3 SWAP2 POP POP JUMP JUMPDEST PUSH2 0x48A PUSH2 0x173E JUMP JUMPDEST PUSH20 0xFFFFFFFFFFFFFFFFFFFFFFFFFFFFFFFFFFFFFFFF AND PUSH2 0x4A8 PUSH2 0xD77 JUMP JUMPDEST PUSH20 0xFFFFFFFFFFFFFFFFFFFFFFFFFFFFFFFFFFFFFFFF AND EQ PUSH2 0x4FE JUMPI PUSH1 0x40 MLOAD PUSH32 0x8C379A000000000000000000000000000000000000000000000000000000000 DUP2 MSTORE PUSH1 0x4 ADD PUSH2 0x4F5 SWAP1 PUSH2 0x22EF JUMP JUMPDEST PUSH1 0x40 MLOAD DUP1 SWAP2 SUB SWAP1 REVERT JUMPDEST PUSH1 0x0 PUSH1 0x7 PUSH1 0x0 DUP5 PUSH20 0xFFFFFFFFFFFFFFFFFFFFFFFFFFFFFFFFFFFFFFFF AND PUSH20 0xFFFFFFFFFFFFFFFFFFFFFFFFFFFFFFFFFFFFFFFF AND DUP2 MSTORE PUSH1 0x20 ADD SWAP1 DUP2 MSTORE PUSH1 0x20 ADD PUSH1 0x0 KECCAK256 PUSH1 0x0 SWAP1 SLOAD SWAP1 PUSH2 0x100 EXP SWAP1 DIV PUSH1 0xFF AND PUSH1 0xFF AND EQ PUSH2 0x590 JUMPI PUSH1 0x40 MLOAD PUSH32 0x8C379A000000000000000000000000000000000000000000000000000000000 DUP2 MSTORE PUSH1 0x4 ADD PUSH2 0x587 SWAP1 PUSH2 0x2381 JUMP JUMPDEST PUSH1 0x40 MLOAD DUP1 SWAP2 SUB SWAP1 REVERT JUMPDEST DUP1 PUSH1 0x0 DUP1 DUP5 PUSH20 0xFFFFFFFFFFFFFFFFFFFFFFFFFFFFFFFFFFFFFFFF AND PUSH20 0xFFFFFFFFFFFFFFFFFFFFFFFFFFFFFFFFFFFFFFFF AND DUP2 MSTORE PUSH1 0x20 ADD SWAP1 DUP2 MSTORE PUSH1 0x20 ADD PUSH1 0x0 KECCAK256 PUSH1 0x0 DUP3 DUP3 SLOAD PUSH2 0x5DE SWAP2 SWAP1 PUSH2 0x23D0 JUMP JUMPDEST SWAP3 POP POP DUP2 SWAP1 SSTORE POP PUSH1 0x0 PUSH1 0x1 SWAP1 POP JUMPDEST PUSH1 0x2 DUP2 PUSH1 0xFF AND GT PUSH2 0x6EA JUMPI PUSH1 0x2 DUP3 PUSH2 0x604 SWAP2 SWAP1 PUSH2 0x2455 JUMP JUMPDEST PUSH1 0xC DUP3 PUSH1 0xFF AND PUSH1 0x3 DUP2 LT PUSH2 0x61B JUMPI PUSH2 0x61A PUSH2 0x2486 JUMP JUMPDEST JUMPDEST ADD SLOAD PUSH2 0x627 SWAP2 SWAP1 PUSH2 0x23D0 JUMP JUMPDEST PUSH1 0x9 DUP3 PUSH1 0xFF AND PUSH1 0x3 DUP2 LT PUSH2 0x63E JUMPI PUSH2 0x63D PUSH2 0x2486 JUMP JUMPDEST JUMPDEST ADD PUSH1 0x0 DUP3 DUP3 SLOAD PUSH2 0x64E SWAP2 SWAP1 PUSH2 0x24B5 JUMP JUMPDEST SWAP3 POP POP DUP2 SWAP1 SSTORE POP PUSH1 0xC DUP2 PUSH1 0xFF AND PUSH1 0x3 DUP2 LT PUSH2 0x66C JUMPI PUSH2 0x66B PUSH2 0x2486 JUMP JUMPDEST JUMPDEST ADD SLOAD PUSH1 0x9 DUP3 PUSH1 0xFF AND PUSH1 0x3 DUP2 LT PUSH2 0x685 JUMPI PUSH2 0x684 PUSH2 0x2486 JUMP JUMPDEST JUMPDEST ADD PUSH1 0x0 DUP3 DUP3 SLOAD PUSH2 0x695 SWAP2 SWAP1 PUSH2 0x2455 JUMP JUMPDEST SWAP3 POP POP DUP2 SWAP1 SSTORE POP PUSH1 0x2 DUP3 PUSH2 0x6A9 SWAP2 SWAP1 PUSH2 0x2455 JUMP JUMPDEST PUSH1 0xC DUP3 PUSH1 0xFF AND PUSH1 0x3 DUP2 LT PUSH2 0x6C0 JUMPI PUSH2 0x6BF PUSH2 0x2486 JUMP JUMPDEST JUMPDEST ADD PUSH1 0x0 DUP3 DUP3 SLOAD PUSH2 0x6D0 SWAP2 SWAP1 PUSH2 0x23D0 JUMP JUMPDEST SWAP3 POP POP DUP2 SWAP1 SSTORE POP DUP1 DUP1 PUSH2 0x6E2 SWAP1 PUSH2 0x250F JUMP JUMPDEST SWAP2 POP POP PUSH2 0x5EC JUMP JUMPDEST POP DUP1 PUSH1 0x2 PUSH1 0x0 DUP3 DUP3 SLOAD PUSH2 0x6FD SWAP2 SWAP1 PUSH2 0x23D0 JUMP JUMPDEST SWAP3 POP POP DUP2 SWAP1 SSTORE POP POP POP JUMP JUMPDEST PUSH2 0x710 PUSH2 0x173E JUMP JUMPDEST PUSH20 0xFFFFFFFFFFFFFFFFFFFFFFFFFFFFFFFFFFFFFFFF AND PUSH2 0x72E PUSH2 0xD77 JUMP JUMPDEST PUSH20 0xFFFFFFFFFFFFFFFFFFFFFFFFFFFFFFFFFFFFFFFF AND EQ PUSH2 0x784 JUMPI PUSH1 0x40 MLOAD PUSH32 0x8C379A000000000000000000000000000000000000000000000000000000000 DUP2 MSTORE PUSH1 0x4 ADD PUSH2 0x77B SWAP1 PUSH2 0x22EF JUMP JUMPDEST PUSH1 0x40 MLOAD DUP1 SWAP2 SUB SWAP1 REVERT JUMPDEST PUSH1 0x0 PUSH1 0x7 PUSH1 0x0 DUP5 PUSH20 0xFFFFFFFFFFFFFFFFFFFFFFFFFFFFFFFFFFFFFFFF AND PUSH20 0xFFFFFFFFFFFFFFFFFFFFFFFFFFFFFFFFFFFFFFFF AND DUP2 MSTORE PUSH1 0x20 ADD SWAP1 DUP2 MSTORE PUSH1 0x20 ADD PUSH1 0x0 KECCAK256 PUSH1 0x0 SWAP1 SLOAD SWAP1 PUSH2 0x100 EXP SWAP1 DIV PUSH1 0xFF AND PUSH1 0xFF AND SUB PUSH2 0x816 JUMPI PUSH1 0x40 MLOAD PUSH32 0x8C379A000000000000000000000000000000000000000000000000000000000 DUP2 MSTORE PUSH1 0x4 ADD PUSH2 0x80D SWAP1 PUSH2 0x2584 JUMP JUMPDEST PUSH1 0x40 MLOAD DUP1 SWAP2 SUB SWAP1 REVERT JUMPDEST PUSH2 0x81F DUP3 PUSH2 0x190F JUMP JUMPDEST DUP1 PUSH1 0x0 DUP1 DUP5 PUSH20 0xFFFFFFFFFFFFFFFFFFFFFFFFFFFFFFFFFFFFFFFF AND PUSH20 0xFFFFFFFFFFFFFFFFFFFFFFFFFFFFFFFFFFFFFFFF AND DUP2 MSTORE PUSH1 0x20 ADD SWAP1 DUP2 MSTORE PUSH1 0x20 ADD PUSH1 0x0 KECCAK256 PUSH1 0x0 DUP3 DUP3 SLOAD PUSH2 0x86D SWAP2 SWAP1 PUSH2 0x23D0 JUMP JUMPDEST SWAP3 POP POP DUP2 SWAP1 SSTORE POP DUP1 PUSH1 0x2 PUSH2 0x881 SWAP2 SWAP1 PUSH2 0x24B5 JUMP JUMPDEST PUSH1 0x0 DUP1 PUSH1 0xF PUSH1 0x0 SWAP1 SLOAD SWAP1 PUSH2 0x100 EXP SWAP1 DIV PUSH20 0xFFFFFFFFFFFFFFFFFFFFFFFFFFFFFFFFFFFFFFFF AND PUSH20 0xFFFFFFFFFFFFFFFFFFFFFFFFFFFFFFFFFFFFFFFF AND PUSH20 0xFFFFFFFFFFFFFFFFFFFFFFFFFFFFFFFFFFFFFFFF AND DUP2 MSTORE PUSH1 0x20 ADD SWAP1 DUP2 MSTORE PUSH1 0x20 ADD PUSH1 0x0 KECCAK256 PUSH1 0x0 DUP3 DUP3 SLOAD PUSH2 0x8F0 SWAP2 SWAP1 PUSH2 0x23D0 JUMP JUMPDEST SWAP3 POP POP DUP2 SWAP1 SSTORE POP PUSH1 0x0 PUSH1 0x7 PUSH1 0x0 DUP5 PUSH20 0xFFFFFFFFFFFFFFFFFFFFFFFFFFFFFFFFFFFFFFFF AND PUSH20 0xFFFFFFFFFFFFFFFFFFFFFFFFFFFFFFFFFFFFFFFF AND DUP2 MSTORE PUSH1 0x20 ADD SWAP1 DUP2 MSTORE PUSH1 0x20 ADD PUSH1 0x0 KECCAK256 PUSH1 0x0 SWAP1 SLOAD SWAP1 PUSH2 0x100 EXP SWAP1 DIV PUSH1 0xFF AND PUSH1 0x1 PUSH2 0x952 SWAP2 SWAP1 PUSH2 0x25A4 JUMP JUMPDEST SWAP1 POP DUP2 PUSH1 0xC DUP3 PUSH1 0xFF AND PUSH1 0x3 DUP2 LT PUSH2 0x96C JUMPI PUSH2 0x96B PUSH2 0x2486 JUMP JUMPDEST JUMPDEST ADD SLOAD PUSH2 0x978 SWAP2 SWAP1 PUSH2 0x23D0 JUMP JUMPDEST PUSH1 0x9 DUP3 PUSH1 0xFF AND PUSH1 0x3 DUP2 LT PUSH2 0x98F JUMPI PUSH2 0x98E PUSH2 0x2486 JUMP JUMPDEST JUMPDEST ADD PUSH1 0x0 DUP3 DUP3 SLOAD PUSH2 0x99F SWAP2 SWAP1 PUSH2 0x24B5 JUMP JUMPDEST SWAP3 POP POP DUP2 SWAP1 SSTORE POP PUSH1 0xC DUP2 PUSH1 0xFF AND PUSH1 0x3 DUP2 LT PUSH2 0x9BD JUMPI PUSH2 0x9BC PUSH2 0x2486 JUMP JUMPDEST JUMPDEST ADD SLOAD PUSH1 0x9 DUP3 PUSH1 0xFF AND PUSH1 0x3 DUP2 LT PUSH2 0x9D6 JUMPI PUSH2 0x9D5 PUSH2 0x2486 JUMP JUMPDEST JUMPDEST ADD PUSH1 0x0 DUP3 DUP3 SLOAD PUSH2 0x9E6 SWAP2 SWAP1 PUSH2 0x2455 JUMP JUMPDEST SWAP3 POP POP DUP2 SWAP1 SSTORE POP DUP2 PUSH1 0xC PUSH1 0x1 PUSH1 0x3 DUP2 LT PUSH2 0xA03 JUMPI PUSH2 0xA02 PUSH2 0x2486 JUMP JUMPDEST JUMPDEST ADD PUSH1 0x0 DUP3 DUP3 SLOAD PUSH2 0xA13 SWAP2 SWAP1 PUSH2 0x23D0 JUMP JUMPDEST SWAP3 POP POP DUP2 SWAP1 SSTORE POP DUP2 PUSH1 0xC PUSH1 0x2 PUSH1 0x3 DUP2 LT PUSH2 0xA30 JUMPI PUSH2 0xA2F PUSH2 0x2486 JUMP JUMPDEST JUMPDEST ADD PUSH1 0x0 DUP3 DUP3 SLOAD PUSH2 0xA40 SWAP2 SWAP1 PUSH2 0x23D0 JUMP JUMPDEST SWAP3 POP POP DUP2 SWAP1 SSTORE POP DUP2 PUSH1 0x2 PUSH1 0x0 DUP3 DUP3 SLOAD PUSH2 0xA59 SWAP2 SWAP1 PUSH2 0x23D0 JUMP JUMPDEST SWAP3 POP POP DUP2 SWAP1 SSTORE POP POP POP POP JUMP JUMPDEST PUSH1 0x0 PUSH1 0x2 SLOAD SWAP1 POP SWAP1 JUMP JUMPDEST PUSH1 0x0 PUSH1 0x1 SWAP1 POP SWAP4 SWAP3 POP POP POP JUMP JUMPDEST PUSH1 0x0 PUSH1 0x12 SWAP1 POP SWAP1 JUMP JUMPDEST PUSH1 0x0 PUSH2 0xB27 PUSH2 0xA92 PUSH2 0x173E JUMP JUMPDEST DUP5 DUP5 PUSH1 0x1 PUSH1 0x0 PUSH2 0xAA0 PUSH2 0x173E JUMP JUMPDEST PUSH20 0xFFFFFFFFFFFFFFFFFFFFFFFFFFFFFFFFFFFFFFFF AND PUSH20 0xFFFFFFFFFFFFFFFFFFFFFFFFFFFFFFFFFFFFFFFF AND DUP2 MSTORE PUSH1 0x20 ADD SWAP1 DUP2 MSTORE PUSH1 0x20 ADD PUSH1 0x0 KECCAK256 PUSH1 0x0 DUP9 PUSH20 0xFFFFFFFFFFFFFFFFFFFFFFFFFFFFFFFFFFFFFFFF AND PUSH20 0xFFFFFFFFFFFFFFFFFFFFFFFFFFFFFFFFFFFFFFFF AND DUP2 MSTORE PUSH1 0x20 ADD SWAP1 DUP2 MSTORE PUSH1 0x20 ADD PUSH1 0x0 KECCAK256 SLOAD PUSH2 0xB22 SWAP2 SWAP1 PUSH2 0x23D0 JUMP JUMPDEST PUSH2 0x1746 JUMP JUMPDEST PUSH1 0x1 SWAP1 POP SWAP3 SWAP2 POP POP JUMP JUMPDEST PUSH1 0x0 DUP1 PUSH1 0x7 PUSH1 0x0 DUP5 PUSH20 0xFFFFFFFFFFFFFFFFFFFFFFFFFFFFFFFFFFFFFFFF AND PUSH20 0xFFFFFFFFFFFFFFFFFFFFFFFFFFFFFFFFFFFFFFFF AND DUP2 MSTORE PUSH1 0x20 ADD SWAP1 DUP2 MSTORE PUSH1 0x20 ADD PUSH1 0x0 KECCAK256 PUSH1 0x0 SWAP1 SLOAD SWAP1 PUSH2 0x100 EXP SWAP1 DIV PUSH1 0xFF AND PUSH1 0xFF AND SUB PUSH2 0xBCF JUMPI PUSH1 0x0 DUP1 DUP4 PUSH20 0xFFFFFFFFFFFFFFFFFFFFFFFFFFFFFFFFFFFFFFFF AND PUSH20 0xFFFFFFFFFFFFFFFFFFFFFFFFFFFFFFFFFFFFFFFF AND DUP2 MSTORE PUSH1 0x20 ADD SWAP1 DUP2 MSTORE PUSH1 0x20 ADD PUSH1 0x0 KECCAK256 SLOAD SWAP1 POP PUSH2 0xCCA JUMP JUMPDEST PUSH1 0x6 PUSH1 0x0 DUP4 PUSH20 0xFFFFFFFFFFFFFFFFFFFFFFFFFFFFFFFFFFFFFFFF AND PUSH20 0xFFFFFFFFFFFFFFFFFFFFFFFFFFFFFFFFFFFFFFFF AND DUP2 MSTORE PUSH1 0x20 ADD SWAP1 DUP2 MSTORE PUSH1 0x20 ADD PUSH1 0x0 KECCAK256 SLOAD PUSH1 0x0 DUP1 DUP5 PUSH20 0xFFFFFFFFFFFFFFFFFFFFFFFFFFFFFFFFFFFFFFFF AND PUSH20 0xFFFFFFFFFFFFFFFFFFFFFFFFFFFFFFFFFFFFFFFF AND DUP2 MSTORE PUSH1 0x20 ADD SWAP1 DUP2 MSTORE PUSH1 0x20 ADD PUSH1 0x0 KECCAK256 SLOAD PUSH1 0x9 PUSH1 0x7 PUSH1 0x0 DUP7 PUSH20 0xFFFFFFFFFFFFFFFFFFFFFFFFFFFFFFFFFFFFFFFF AND PUSH20 0xFFFFFFFFFFFFFFFFFFFFFFFFFFFFFFFFFFFFFFFF AND DUP2 MSTORE PUSH1 0x20 ADD SWAP1 DUP2 MSTORE PUSH1 0x20 ADD PUSH1 0x0 KECCAK256 PUSH1 0x0 SWAP1 SLOAD SWAP1 PUSH2 0x100 EXP SWAP1 DIV PUSH1 0xFF AND PUSH1 0xFF AND PUSH1 0x3 DUP2 LT PUSH2 0xCB1 JUMPI PUSH2 0xCB0 PUSH2 0x2486 JUMP JUMPDEST JUMPDEST ADD SLOAD PUSH2 0xCBD SWAP2 SWAP1 PUSH2 0x24B5 JUMP JUMPDEST PUSH2 0xCC7 SWAP2 SWAP1 PUSH2 0x2455 JUMP JUMPDEST SWAP1 POP JUMPDEST SWAP2 SWAP1 POP JUMP JUMPDEST PUSH2 0xCD7 PUSH2 0x173E JUMP JUMPDEST PUSH20 0xFFFFFFFFFFFFFFFFFFFFFFFFFFFFFFFFFFFFFFFF AND PUSH2 0xCF5 PUSH2 0xD77 JUMP JUMPDEST PUSH20 0xFFFFFFFFFFFFFFFFFFFFFFFFFFFFFFFFFFFFFFFF AND EQ PUSH2 0xD4B JUMPI PUSH1 0x40 MLOAD PUSH32 0x8C379A000000000000000000000000000000000000000000000000000000000 DUP2 MSTORE PUSH1 0x4 ADD PUSH2 0xD42 SWAP1 PUSH2 0x22EF JUMP JUMPDEST PUSH1 0x40 MLOAD DUP1 SWAP2 SUB SWAP1 REVERT JUMPDEST PUSH2 0xD55 PUSH1 0x0 PUSH2 0x1B4D JUMP JUMPDEST JUMP JUMPDEST PUSH1 0x7 PUSH1 0x20 MSTORE DUP1 PUSH1 0x0 MSTORE PUSH1 0x40 PUSH1 0x0 KECCAK256 PUSH1 0x0 SWAP2 POP SLOAD SWAP1 PUSH2 0x100 EXP SWAP1 DIV PUSH1 0xFF AND DUP2 JUMP JUMPDEST PUSH1 0x0 PUSH1 0x5 PUSH1 0x0 SWAP1 SLOAD SWAP1 PUSH2 0x100 EXP SWAP1 DIV PUSH20 0xFFFFFFFFFFFFFFFFFFFFFFFFFFFFFFFFFFFFFFFF AND SWAP1 POP SWAP1 JUMP JUMPDEST PUSH1 0x60 PUSH1 0x4 DUP1 SLOAD PUSH2 0xDB0 SWAP1 PUSH2 0x2272 JUMP JUMPDEST DUP1 PUSH1 0x1F ADD PUSH1 0x20 DUP1 SWAP2 DIV MUL PUSH1 0x20 ADD PUSH1 0x40 MLOAD SWAP1 DUP2 ADD PUSH1 0x40 MSTORE DUP1 SWAP3 SWAP2 SWAP1 DUP2 DUP2 MSTORE PUSH1 0x20 ADD DUP3 DUP1 SLOAD PUSH2 0xDDC SWAP1 PUSH2 0x2272 JUMP JUMPDEST DUP1 ISZERO PUSH2 0xE29 JUMPI DUP1 PUSH1 0x1F LT PUSH2 0xDFE JUMPI PUSH2 0x100 DUP1 DUP4 SLOAD DIV MUL DUP4 MSTORE SWAP2 PUSH1 0x20 ADD SWAP2 PUSH2 0xE29 JUMP JUMPDEST DUP3 ADD SWAP2 SWAP1 PUSH1 0x0 MSTORE PUSH1 0x20 PUSH1 0x0 KECCAK256 SWAP1 JUMPDEST DUP2 SLOAD DUP2 MSTORE SWAP1 PUSH1 0x1 ADD SWAP1 PUSH1 0x20 ADD DUP1 DUP4 GT PUSH2 0xE0C JUMPI DUP3 SWAP1 SUB PUSH1 0x1F AND DUP3 ADD SWAP2 JUMPDEST POP POP POP POP POP SWAP1 POP SWAP1 JUMP JUMPDEST PUSH2 0xE3B PUSH2 0x173E JUMP JUMPDEST PUSH20 0xFFFFFFFFFFFFFFFFFFFFFFFFFFFFFFFFFFFFFFFF AND PUSH2 0xE59 PUSH2 0xD77 JUMP JUMPDEST PUSH20 0xFFFFFFFFFFFFFFFFFFFFFFFFFFFFFFFFFFFFFFFF AND EQ PUSH2 0xEAF JUMPI PUSH1 0x40 MLOAD PUSH32 0x8C379A000000000000000000000000000000000000000000000000000000000 DUP2 MSTORE PUSH1 0x4 ADD PUSH2 0xEA6 SWAP1 PUSH2 0x22EF JUMP JUMPDEST PUSH1 0x40 MLOAD DUP1 SWAP2 SUB SWAP1 REVERT JUMPDEST PUSH1 0x0 PUSH1 0xC PUSH1 0x2 PUSH1 0x3 DUP2 LT PUSH2 0xEC6 JUMPI PUSH2 0xEC5 PUSH2 0x2486 JUMP JUMPDEST JUMPDEST ADD SLOAD EQ PUSH2 0xF6B JUMPI PUSH1 0x4 DUP2 PUSH2 0xEDA SWAP2 SWAP1 PUSH2 0x2455 JUMP JUMPDEST PUSH1 0xC PUSH1 0x2 PUSH1 0x3 DUP2 LT PUSH2 0xEEF JUMPI PUSH2 0xEEE PUSH2 0x2486 JUMP JUMPDEST JUMPDEST ADD SLOAD PUSH2 0xEFB SWAP2 SWAP1 PUSH2 0x23D0 JUMP JUMPDEST PUSH1 0x9 PUSH1 0x2 PUSH1 0x3 DUP2 LT PUSH2 0xF10 JUMPI PUSH2 0xF0F PUSH2 0x2486 JUMP JUMPDEST JUMPDEST ADD PUSH1 0x0 DUP3 DUP3 SLOAD PUSH2 0xF20 SWAP2 SWAP1 PUSH2 0x24B5 JUMP JUMPDEST SWAP3 POP POP DUP2 SWAP1 SSTORE POP PUSH1 0xC PUSH1 0x2 PUSH1 0x3 DUP2 LT PUSH2 0xF3C JUMPI PUSH2 0xF3B PUSH2 0x2486 JUMP JUMPDEST JUMPDEST ADD SLOAD PUSH1 0x9 PUSH1 0x2 PUSH1 0x3 DUP2 LT PUSH2 0xF53 JUMPI PUSH2 0xF52 PUSH2 0x2486 JUMP JUMPDEST JUMPDEST ADD PUSH1 0x0 DUP3 DUP3 SLOAD PUSH2 0xF63 SWAP2 SWAP1 PUSH2 0x2455 JUMP JUMPDEST SWAP3 POP POP DUP2 SWAP1 SSTORE POP JUMPDEST PUSH1 0x0 PUSH1 0xC PUSH1 0x1 PUSH1 0x3 DUP2 LT PUSH2 0xF82 JUMPI PUSH2 0xF81 PUSH2 0x2486 JUMP JUMPDEST JUMPDEST ADD SLOAD EQ PUSH2 0x1027 JUMPI PUSH1 0x4 DUP2 PUSH2 0xF96 SWAP2 SWAP1 PUSH2 0x2455 JUMP JUMPDEST PUSH1 0xC PUSH1 0x1 PUSH1 0x3 DUP2 LT PUSH2 0xFAB JUMPI PUSH2 0xFAA PUSH2 0x2486 JUMP JUMPDEST JUMPDEST ADD SLOAD PUSH2 0xFB7 SWAP2 SWAP1 PUSH2 0x23D0 JUMP JUMPDEST PUSH1 0x9 PUSH1 0x1 PUSH1 0x3 DUP2 LT PUSH2 0xFCC JUMPI PUSH2 0xFCB PUSH2 0x2486 JUMP JUMPDEST JUMPDEST ADD PUSH1 0x0 DUP3 DUP3 SLOAD PUSH2 0xFDC SWAP2 SWAP1 PUSH2 0x24B5 JUMP JUMPDEST SWAP3 POP POP DUP2 SWAP1 SSTORE POP PUSH1 0xC PUSH1 0x1 PUSH1 0x3 DUP2 LT PUSH2 0xFF8 JUMPI PUSH2 0xFF7 PUSH2 0x2486 JUMP JUMPDEST JUMPDEST ADD SLOAD PUSH1 0x9 PUSH1 0x1 PUSH1 0x3 DUP2 LT PUSH2 0x100F JUMPI PUSH2 0x100E PUSH2 0x2486 JUMP JUMPDEST JUMPDEST ADD PUSH1 0x0 DUP3 DUP3 SLOAD PUSH2 0x101F SWAP2 SWAP1 PUSH2 0x2455 JUMP JUMPDEST SWAP3 POP POP DUP2 SWAP1 SSTORE POP JUMPDEST PUSH1 0x2 DUP2 PUSH2 0x1034 SWAP2 SWAP1 PUSH2 0x2455 JUMP JUMPDEST PUSH1 0x0 DUP1 PUSH1 0xF PUSH1 0x0 SWAP1 SLOAD SWAP1 PUSH2 0x100 EXP SWAP1 DIV PUSH20 0xFFFFFFFFFFFFFFFFFFFFFFFFFFFFFFFFFFFFFFFF AND PUSH20 0xFFFFFFFFFFFFFFFFFFFFFFFFFFFFFFFFFFFFFFFF AND PUSH20 0xFFFFFFFFFFFFFFFFFFFFFFFFFFFFFFFFFFFFFFFF AND DUP2 MSTORE PUSH1 0x20 ADD SWAP1 DUP2 MSTORE PUSH1 0x20 ADD PUSH1 0x0 KECCAK256 PUSH1 0x0 DUP3 DUP3 SLOAD PUSH2 0x10A3 SWAP2 SWAP1 PUSH2 0x23D0 JUMP JUMPDEST SWAP3 POP POP DUP2 SWAP1 SSTORE POP PUSH1 0x4 DUP2 PUSH2 0x10B7 SWAP2 SWAP1 PUSH2 0x2455 JUMP JUMPDEST PUSH1 0xC PUSH1 0x1 PUSH1 0x3 DUP2 LT PUSH2 0x10CC JUMPI PUSH2 0x10CB PUSH2 0x2486 JUMP JUMPDEST JUMPDEST ADD PUSH1 0x0 DUP3 DUP3 SLOAD PUSH2 0x10DC SWAP2 SWAP1 PUSH2 0x23D0 JUMP JUMPDEST SWAP3 POP POP DUP2 SWAP1 SSTORE POP PUSH1 0x4 DUP2 PUSH2 0x10F0 SWAP2 SWAP1 PUSH2 0x2455 JUMP JUMPDEST PUSH1 0xC PUSH1 0x2 PUSH1 0x3 DUP2 LT PUSH2 0x1105 JUMPI PUSH2 0x1104 PUSH2 0x2486 JUMP JUMPDEST JUMPDEST ADD PUSH1 0x0 DUP3 DUP3 SLOAD PUSH2 0x1115 SWAP2 SWAP1 PUSH2 0x23D0 JUMP JUMPDEST SWAP3 POP POP DUP2 SWAP1 SSTORE POP DUP1 PUSH1 0x2 PUSH1 0x0 DUP3 DUP3 SLOAD PUSH2 0x112E SWAP2 SWAP1 PUSH2 0x23D0 JUMP JUMPDEST SWAP3 POP POP DUP2 SWAP1 SSTORE POP POP JUMP JUMPDEST PUSH2 0x1140 PUSH2 0x173E JUMP JUMPDEST PUSH20 0xFFFFFFFFFFFFFFFFFFFFFFFFFFFFFFFFFFFFFFFF AND PUSH2 0x115E PUSH2 0xD77 JUMP JUMPDEST PUSH20 0xFFFFFFFFFFFFFFFFFFFFFFFFFFFFFFFFFFFFFFFF AND EQ PUSH2 0x11B4 JUMPI PUSH1 0x40 MLOAD PUSH32 0x8C379A000000000000000000000000000000000000000000000000000000000 DUP2 MSTORE PUSH1 0x4 ADD PUSH2 0x11AB SWAP1 PUSH2 0x22EF JUMP JUMPDEST PUSH1 0x40 MLOAD DUP1 SWAP2 SUB SWAP1 REVERT JUMPDEST PUSH2 0x11BD DUP3 PUSH2 0x190F JUMP JUMPDEST PUSH1 0x0 PUSH1 0x7 PUSH1 0x0 DUP5 PUSH20 0xFFFFFFFFFFFFFFFFFFFFFFFFFFFFFFFFFFFFFFFF AND PUSH20 0xFFFFFFFFFFFFFFFFFFFFFFFFFFFFFFFFFFFFFFFF AND DUP2 MSTORE PUSH1 0x20 ADD SWAP1 DUP2 MSTORE PUSH1 0x20 ADD PUSH1 0x0 KECCAK256 PUSH1 0x0 SWAP1 SLOAD SWAP1 PUSH2 0x100 EXP SWAP1 DIV PUSH1 0xFF AND SWAP1 POP DUP2 PUSH1 0x7 PUSH1 0x0 DUP6 PUSH20 0xFFFFFFFFFFFFFFFFFFFFFFFFFFFFFFFFFFFFFFFF AND PUSH20 0xFFFFFFFFFFFFFFFFFFFFFFFFFFFFFFFFFFFFFFFF AND DUP2 MSTORE PUSH1 0x20 ADD SWAP1 DUP2 MSTORE PUSH1 0x20 ADD PUSH1 0x0 KECCAK256 PUSH1 0x0 PUSH2 0x100 EXP DUP2 SLOAD DUP2 PUSH1 0xFF MUL NOT AND SWAP1 DUP4 PUSH1 0xFF AND MUL OR SWAP1 SSTORE POP PUSH1 0x0 DUP1 DUP5 PUSH20 0xFFFFFFFFFFFFFFFFFFFFFFFFFFFFFFFFFFFFFFFF AND PUSH20 0xFFFFFFFFFFFFFFFFFFFFFFFFFFFFFFFFFFFFFFFF AND DUP2 MSTORE PUSH1 0x20 ADD SWAP1 DUP2 MSTORE PUSH1 0x20 ADD PUSH1 0x0 KECCAK256 SLOAD PUSH1 0xC DUP3 PUSH1 0xFF AND PUSH1 0x3 DUP2 LT PUSH2 0x12BC JUMPI PUSH2 0x12BB PUSH2 0x2486 JUMP JUMPDEST JUMPDEST ADD PUSH1 0x0 DUP3 DUP3 SLOAD PUSH2 0x12CC SWAP2 SWAP1 PUSH2 0x25D8 JUMP JUMPDEST SWAP3 POP POP DUP2 SWAP1 SSTORE POP PUSH1 0x0 DUP1 DUP5 PUSH20 0xFFFFFFFFFFFFFFFFFFFFFFFFFFFFFFFFFFFFFFFF AND PUSH20 0xFFFFFFFFFFFFFFFFFFFFFFFFFFFFFFFFFFFFFFFF AND DUP2 MSTORE PUSH1 0x20 ADD SWAP1 DUP2 MSTORE PUSH1 0x20 ADD PUSH1 0x0 KECCAK256 SLOAD PUSH1 0xC DUP4 PUSH1 0xFF AND PUSH1 0x3 DUP2 LT PUSH2 0x1329 JUMPI PUSH2 0x1328 PUSH2 0x2486 JUMP JUMPDEST JUMPDEST ADD PUSH1 0x0 DUP3 DUP3 SLOAD PUSH2 0x1339 SWAP2 SWAP1 PUSH2 0x23D0 JUMP JUMPDEST SWAP3 POP POP DUP2 SWAP1 SSTORE POP PUSH1 0x9 DUP3 PUSH1 0xFF AND PUSH1 0x3 DUP2 LT PUSH2 0x1357 JUMPI PUSH2 0x1356 PUSH2 0x2486 JUMP JUMPDEST JUMPDEST ADD SLOAD PUSH1 0x6 PUSH1 0x0 DUP6 PUSH20 0xFFFFFFFFFFFFFFFFFFFFFFFFFFFFFFFFFFFFFFFF AND PUSH20 0xFFFFFFFFFFFFFFFFFFFFFFFFFFFFFFFFFFFFFFFF AND DUP2 MSTORE PUSH1 0x20 ADD SWAP1 DUP2 MSTORE PUSH1 0x20 ADD PUSH1 0x0 KECCAK256 DUP2 SWAP1 SSTORE POP POP POP POP JUMP JUMPDEST PUSH1 0x0 DUP1 PUSH1 0x1 PUSH1 0x0 PUSH2 0x13B0 PUSH2 0x173E JUMP JUMPDEST PUSH20 0xFFFFFFFFFFFFFFFFFFFFFFFFFFFFFFFFFFFFFFFF AND PUSH20 0xFFFFFFFFFFFFFFFFFFFFFFFFFFFFFFFFFFFFFFFF AND DUP2 MSTORE PUSH1 0x20 ADD SWAP1 DUP2 MSTORE PUSH1 0x20 ADD PUSH1 0x0 KECCAK256 PUSH1 0x0 DUP6 PUSH20 0xFFFFFFFFFFFFFFFFFFFFFFFFFFFFFFFFFFFFFFFF AND PUSH20 0xFFFFFFFFFFFFFFFFFFFFFFFFFFFFFFFFFFFFFFFF AND DUP2 MSTORE PUSH1 0x20 ADD SWAP1 DUP2 MSTORE PUSH1 0x20 ADD PUSH1 0x0 KECCAK256 SLOAD SWAP1 POP DUP3 DUP2 LT ISZERO PUSH2 0x146D JUMPI PUSH1 0x40 MLOAD PUSH32 0x8C379A000000000000000000000000000000000000000000000000000000000 DUP2 MSTORE PUSH1 0x4 ADD PUSH2 0x1464 SWAP1 PUSH2 0x267E JUMP JUMPDEST PUSH1 0x40 MLOAD DUP1 SWAP2 SUB SWAP1 REVERT JUMPDEST PUSH2 0x148A PUSH2 0x1478 PUSH2 0x173E JUMP JUMPDEST DUP6 DUP6 DUP5 PUSH2 0x1485 SWAP2 SWAP1 PUSH2 0x25D8 JUMP JUMPDEST PUSH2 0x1746 JUMP JUMPDEST PUSH1 0x1 SWAP2 POP POP SWAP3 SWAP2 POP POP JUMP JUMPDEST PUSH1 0x0 DUP1 PUSH2 0x14A0 PUSH2 0x173E JUMP JUMPDEST SWAP1 POP PUSH2 0x14AB DUP2 PUSH2 0x190F JUMP JUMPDEST PUSH2 0x14B4 DUP5 PUSH2 0x190F JUMP JUMPDEST DUP3 PUSH1 0xC PUSH1 0x7 PUSH1 0x0 DUP5 PUSH20 0xFFFFFFFFFFFFFFFFFFFFFFFFFFFFFFFFFFFFFFFF AND PUSH20 0xFFFFFFFFFFFFFFFFFFFFFFFFFFFFFFFFFFFFFFFF AND DUP2 MSTORE PUSH1 0x20 ADD SWAP1 DUP2 MSTORE PUSH1 0x20 ADD PUSH1 0x0 KECCAK256 PUSH1 0x0 SWAP1 SLOAD SWAP1 PUSH2 0x100 EXP SWAP1 DIV PUSH1 0xFF AND PUSH1 0xFF AND PUSH1 0x3 DUP2 LT PUSH2 0x1518 JUMPI PUSH2 0x1517 PUSH2 0x2486 JUMP JUMPDEST JUMPDEST ADD PUSH1 0x0 DUP3 DUP3 SLOAD PUSH2 0x1528 SWAP2 SWAP1 PUSH2 0x25D8 JUMP JUMPDEST SWAP3 POP POP DUP2 SWAP1 SSTORE POP DUP3 PUSH1 0xC PUSH1 0x7 PUSH1 0x0 DUP8 PUSH20 0xFFFFFFFFFFFFFFFFFFFFFFFFFFFFFFFFFFFFFFFF AND PUSH20 0xFFFFFFFFFFFFFFFFFFFFFFFFFFFFFFFFFFFFFFFF AND DUP2 MSTORE PUSH1 0x20 ADD SWAP1 DUP2 MSTORE PUSH1 0x20 ADD PUSH1 0x0 KECCAK256 PUSH1 0x0 SWAP1 SLOAD SWAP1 PUSH2 0x100 EXP SWAP1 DIV PUSH1 0xFF AND PUSH1 0xFF AND PUSH1 0x3 DUP2 LT PUSH2 0x1593 JUMPI PUSH2 0x1592 PUSH2 0x2486 JUMP JUMPDEST JUMPDEST ADD PUSH1 0x0 DUP3 DUP3 SLOAD PUSH2 0x15A3 SWAP2 SWAP1 PUSH2 0x23D0 JUMP JUMPDEST SWAP3 POP POP DUP2 SWAP1 SSTORE POP PUSH2 0x15B5 DUP2 DUP6 DUP6 PUSH2 0x1C13 JUMP JUMPDEST PUSH1 0x1 SWAP2 POP POP SWAP3 SWAP2 POP POP JUMP JUMPDEST PUSH1 0x0 PUSH1 0x1 PUSH1 0x0 DUP5 PUSH20 0xFFFFFFFFFFFFFFFFFFFFFFFFFFFFFFFFFFFFFFFF AND PUSH20 0xFFFFFFFFFFFFFFFFFFFFFFFFFFFFFFFFFFFFFFFF AND DUP2 MSTORE PUSH1 0x20 ADD SWAP1 DUP2 MSTORE PUSH1 0x20 ADD PUSH1 0x0 KECCAK256 PUSH1 0x0 DUP4 PUSH20 0xFFFFFFFFFFFFFFFFFFFFFFFFFFFFFFFFFFFFFFFF AND PUSH20 0xFFFFFFFFFFFFFFFFFFFFFFFFFFFFFFFFFFFFFFFF AND DUP2 MSTORE PUSH1 0x20 ADD SWAP1 DUP2 MSTORE PUSH1 0x20 ADD PUSH1 0x0 KECCAK256 SLOAD SWAP1 POP SWAP3 SWAP2 POP POP JUMP JUMPDEST PUSH2 0x164F PUSH2 0x173E JUMP JUMPDEST PUSH20 0xFFFFFFFFFFFFFFFFFFFFFFFFFFFFFFFFFFFFFFFF AND PUSH2 0x166D PUSH2 0xD77 JUMP JUMPDEST PUSH20 0xFFFFFFFFFFFFFFFFFFFFFFFFFFFFFFFFFFFFFFFF AND EQ PUSH2 0x16C3 JUMPI PUSH1 0x40 MLOAD PUSH32 0x8C379A000000000000000000000000000000000000000000000000000000000 DUP2 MSTORE PUSH1 0x4 ADD PUSH2 0x16BA SWAP1 PUSH2 0x22EF JUMP JUMPDEST PUSH1 0x40 MLOAD DUP1 SWAP2 SUB SWAP1 REVERT JUMPDEST PUSH1 0x0 PUSH20 0xFFFFFFFFFFFFFFFFFFFFFFFFFFFFFFFFFFFFFFFF AND DUP2 PUSH20 0xFFFFFFFFFFFFFFFFFFFFFFFFFFFFFFFFFFFFFFFF AND SUB PUSH2 0x1732 JUMPI PUSH1 0x40 MLOAD PUSH32 0x8C379A000000000000000000000000000000000000000000000000000000000 DUP2 MSTORE PUSH1 0x4 ADD PUSH2 0x1729 SWAP1 PUSH2 0x2710 JUMP JUMPDEST PUSH1 0x40 MLOAD DUP1 SWAP2 SUB SWAP1 REVERT JUMPDEST PUSH2 0x173B DUP2 PUSH2 0x1B4D JUMP JUMPDEST POP JUMP JUMPDEST PUSH1 0x0 CALLER SWAP1 POP SWAP1 JUMP JUMPDEST PUSH1 0x0 PUSH20 0xFFFFFFFFFFFFFFFFFFFFFFFFFFFFFFFFFFFFFFFF AND DUP4 PUSH20 0xFFFFFFFFFFFFFFFFFFFFFFFFFFFFFFFFFFFFFFFF AND SUB PUSH2 0x17B5 JUMPI PUSH1 0x40 MLOAD PUSH32 0x8C379A000000000000000000000000000000000000000000000000000000000 DUP2 MSTORE PUSH1 0x4 ADD PUSH2 0x17AC SWAP1 PUSH2 0x27A2 JUMP JUMPDEST PUSH1 0x40 MLOAD DUP1 SWAP2 SUB SWAP1 REVERT JUMPDEST PUSH1 0x0 PUSH20 0xFFFFFFFFFFFFFFFFFFFFFFFFFFFFFFFFFFFFFFFF AND DUP3 PUSH20 0xFFFFFFFFFFFFFFFFFFFFFFFFFFFFFFFFFFFFFFFF AND SUB PUSH2 0x1824 JUMPI PUSH1 0x40 MLOAD PUSH32 0x8C379A000000000000000000000000000000000000000000000000000000000 DUP2 MSTORE PUSH1 0x4 ADD PUSH2 0x181B SWAP1 PUSH2 0x2834 JUMP JUMPDEST PUSH1 0x40 MLOAD DUP1 SWAP2 SUB SWAP1 REVERT JUMPDEST DUP1 PUSH1 0x1 PUSH1 0x0 DUP6 PUSH20 0xFFFFFFFFFFFFFFFFFFFFFFFFFFFFFFFFFFFFFFFF AND PUSH20 0xFFFFFFFFFFFFFFFFFFFFFFFFFFFFFFFFFFFFFFFF AND DUP2 MSTORE PUSH1 0x20 ADD SWAP1 DUP2 MSTORE PUSH1 0x20 ADD PUSH1 0x0 KECCAK256 PUSH1 0x0 DUP5 PUSH20 0xFFFFFFFFFFFFFFFFFFFFFFFFFFFFFFFFFFFFFFFF AND PUSH20 0xFFFFFFFFFFFFFFFFFFFFFFFFFFFFFFFFFFFFFFFF AND DUP2 MSTORE PUSH1 0x20 ADD SWAP1 DUP2 MSTORE PUSH1 0x20 ADD PUSH1 0x0 KECCAK256 DUP2 SWAP1 SSTORE POP DUP2 PUSH20 0xFFFFFFFFFFFFFFFFFFFFFFFFFFFFFFFFFFFFFFFF AND DUP4 PUSH20 0xFFFFFFFFFFFFFFFFFFFFFFFFFFFFFFFFFFFFFFFF AND PUSH32 0x8C5BE1E5EBEC7D5BD14F71427D1E84F3DD0314C0F7B2291E5B200AC8C7C3B925 DUP4 PUSH1 0x40 MLOAD PUSH2 0x1902 SWAP2 SWAP1 PUSH2 0x206E JUMP JUMPDEST PUSH1 0x40 MLOAD DUP1 SWAP2 SUB SWAP1 LOG3 POP POP POP JUMP JUMPDEST PUSH1 0x0 PUSH1 0x7 PUSH1 0x0 DUP4 PUSH20 0xFFFFFFFFFFFFFFFFFFFFFFFFFFFFFFFFFFFFFFFF AND PUSH20 0xFFFFFFFFFFFFFFFFFFFFFFFFFFFFFFFFFFFFFFFF AND DUP2 MSTORE PUSH1 0x20 ADD SWAP1 DUP2 MSTORE PUSH1 0x20 ADD PUSH1 0x0 KECCAK256 PUSH1 0x0 SWAP1 SLOAD SWAP1 PUSH2 0x100 EXP SWAP1 DIV PUSH1 0xFF AND PUSH1 0xFF AND SUB ISZERO PUSH2 0x1B4A JUMPI PUSH1 0x6 PUSH1 0x0 DUP3 PUSH20 0xFFFFFFFFFFFFFFFFFFFFFFFFFFFFFFFFFFFFFFFF AND PUSH20 0xFFFFFFFFFFFFFFFFFFFFFFFFFFFFFFFFFFFFFFFF AND DUP2 MSTORE PUSH1 0x20 ADD SWAP1 DUP2 MSTORE PUSH1 0x20 ADD PUSH1 0x0 KECCAK256 SLOAD PUSH1 0x0 DUP1 DUP4 PUSH20 0xFFFFFFFFFFFFFFFFFFFFFFFFFFFFFFFFFFFFFFFF AND PUSH20 0xFFFFFFFFFFFFFFFFFFFFFFFFFFFFFFFFFFFFFFFF AND DUP2 MSTORE PUSH1 0x20 ADD SWAP1 DUP2 MSTORE PUSH1 0x20 ADD PUSH1 0x0 KECCAK256 SLOAD PUSH1 0x9 PUSH1 0x7 PUSH1 0x0 DUP6 PUSH20 0xFFFFFFFFFFFFFFFFFFFFFFFFFFFFFFFFFFFFFFFF AND PUSH20 0xFFFFFFFFFFFFFFFFFFFFFFFFFFFFFFFFFFFFFFFF AND DUP2 MSTORE PUSH1 0x20 ADD SWAP1 DUP2 MSTORE PUSH1 0x20 ADD PUSH1 0x0 KECCAK256 PUSH1 0x0 SWAP1 SLOAD SWAP1 PUSH2 0x100 EXP SWAP1 DIV PUSH1 0xFF AND PUSH1 0xFF AND PUSH1 0x3 DUP2 LT PUSH2 0x1A49 JUMPI PUSH2 0x1A48 PUSH2 0x2486 JUMP JUMPDEST JUMPDEST ADD SLOAD PUSH2 0x1A55 SWAP2 SWAP1 PUSH2 0x24B5 JUMP JUMPDEST PUSH2 0x1A5F SWAP2 SWAP1 PUSH2 0x2455 JUMP JUMPDEST PUSH1 0x0 DUP1 DUP4 PUSH20 0xFFFFFFFFFFFFFFFFFFFFFFFFFFFFFFFFFFFFFFFF AND PUSH20 0xFFFFFFFFFFFFFFFFFFFFFFFFFFFFFFFFFFFFFFFF AND DUP2 MSTORE PUSH1 0x20 ADD SWAP1 DUP2 MSTORE PUSH1 0x20 ADD PUSH1 0x0 KECCAK256 DUP2 SWAP1 SSTORE POP PUSH1 0x9 PUSH1 0x7 PUSH1 0x0 DUP4 PUSH20 0xFFFFFFFFFFFFFFFFFFFFFFFFFFFFFFFFFFFFFFFF AND PUSH20 0xFFFFFFFFFFFFFFFFFFFFFFFFFFFFFFFFFFFFFFFF AND DUP2 MSTORE PUSH1 0x20 ADD SWAP1 DUP2 MSTORE PUSH1 0x20 ADD PUSH1 0x0 KECCAK256 PUSH1 0x0 SWAP1 SLOAD SWAP1 PUSH2 0x100 EXP SWAP1 DIV PUSH1 0xFF AND PUSH1 0xFF AND PUSH1 0x3 DUP2 LT PUSH2 0x1B04 JUMPI PUSH2 0x1B03 PUSH2 0x2486 JUMP JUMPDEST JUMPDEST ADD SLOAD PUSH1 0x6 PUSH1 0x0 DUP4 PUSH20 0xFFFFFFFFFFFFFFFFFFFFFFFFFFFFFFFFFFFFFFFF AND PUSH20 0xFFFFFFFFFFFFFFFFFFFFFFFFFFFFFFFFFFFFFFFF AND DUP2 MSTORE PUSH1 0x20 ADD SWAP1 DUP2 MSTORE PUSH1 0x20 ADD PUSH1 0x0 KECCAK256 DUP2 SWAP1 SSTORE POP JUMPDEST POP JUMP JUMPDEST PUSH1 0x0 PUSH1 0x5 PUSH1 0x0 SWAP1 SLOAD SWAP1 PUSH2 0x100 EXP SWAP1 DIV PUSH20 0xFFFFFFFFFFFFFFFFFFFFFFFFFFFFFFFFFFFFFFFF AND SWAP1 POP DUP2 PUSH1 0x5 PUSH1 0x0 PUSH2 0x100 EXP DUP2 SLOAD DUP2 PUSH20 0xFFFFFFFFFFFFFFFFFFFFFFFFFFFFFFFFFFFFFFFF MUL NOT AND SWAP1 DUP4 PUSH20 0xFFFFFFFFFFFFFFFFFFFFFFFFFFFFFFFFFFFFFFFF AND MUL OR SWAP1 SSTORE POP DUP2 PUSH20 0xFFFFFFFFFFFFFFFFFFFFFFFFFFFFFFFFFFFFFFFF AND DUP2 PUSH20 0xFFFFFFFFFFFFFFFFFFFFFFFFFFFFFFFFFFFFFFFF AND PUSH32 0x8BE0079C531659141344CD1FD0A4F28419497F9722A3DAAFE3B4186F6B6457E0 PUSH1 0x40 MLOAD PUSH1 0x40 MLOAD DUP1 SWAP2 SUB SWAP1 LOG3 POP POP JUMP JUMPDEST PUSH1 0x0 PUSH20 0xFFFFFFFFFFFFFFFFFFFFFFFFFFFFFFFFFFFFFFFF AND DUP4 PUSH20 0xFFFFFFFFFFFFFFFFFFFFFFFFFFFFFFFFFFFFFFFF AND SUB PUSH2 0x1C82 JUMPI PUSH1 0x40 MLOAD PUSH32 0x8C379A000000000000000000000000000000000000000000000000000000000 DUP2 MSTORE PUSH1 0x4 ADD PUSH2 0x1C79 SWAP1 PUSH2 0x28C6 JUMP JUMPDEST PUSH1 0x40 MLOAD DUP1 SWAP2 SUB SWAP1 REVERT JUMPDEST PUSH1 0x0 PUSH20 0xFFFFFFFFFFFFFFFFFFFFFFFFFFFFFFFFFFFFFFFF AND DUP3 PUSH20 0xFFFFFFFFFFFFFFFFFFFFFFFFFFFFFFFFFFFFFFFF AND SUB PUSH2 0x1CF1 JUMPI PUSH1 0x40 MLOAD PUSH32 0x8C379A000000000000000000000000000000000000000000000000000000000 DUP2 MSTORE PUSH1 0x4 ADD PUSH2 0x1CE8 SWAP1 PUSH2 0x2958 JUMP JUMPDEST PUSH1 0x40 MLOAD DUP1 SWAP2 SUB SWAP1 REVERT JUMPDEST PUSH2 0x1CFC DUP4 DUP4 DUP4 PUSH2 0x1E90 JUMP JUMPDEST PUSH1 0x0 DUP1 PUSH1 0x0 DUP6 PUSH20 0xFFFFFFFFFFFFFFFFFFFFFFFFFFFFFFFFFFFFFFFF AND PUSH20 0xFFFFFFFFFFFFFFFFFFFFFFFFFFFFFFFFFFFFFFFF AND DUP2 MSTORE PUSH1 0x20 ADD SWAP1 DUP2 MSTORE PUSH1 0x20 ADD PUSH1 0x0 KECCAK256 SLOAD SWAP1 POP DUP2 DUP2 LT ISZERO PUSH2 0x1D82 JUMPI PUSH1 0x40 MLOAD PUSH32 0x8C379A000000000000000000000000000000000000000000000000000000000 DUP2 MSTORE PUSH1 0x4 ADD PUSH2 0x1D79 SWAP1 PUSH2 0x29EA JUMP JUMPDEST PUSH1 0x40 MLOAD DUP1 SWAP2 SUB SWAP1 REVERT JUMPDEST DUP2 DUP2 PUSH2 0x1D8E SWAP2 SWAP1 PUSH2 0x25D8 JUMP JUMPDEST PUSH1 0x0 DUP1 DUP7 PUSH20 0xFFFFFFFFFFFFFFFFFFFFFFFFFFFFFFFFFFFFFFFF AND PUSH20 0xFFFFFFFFFFFFFFFFFFFFFFFFFFFFFFFFFFFFFFFF AND DUP2 MSTORE PUSH1 0x20 ADD SWAP1 DUP2 MSTORE PUSH1 0x20 ADD PUSH1 0x0 KECCAK256 DUP2 SWAP1 SSTORE POP DUP2 PUSH1 0x0 DUP1 DUP6 PUSH20 0xFFFFFFFFFFFFFFFFFFFFFFFFFFFFFFFFFFFFFFFF AND PUSH20 0xFFFFFFFFFFFFFFFFFFFFFFFFFFFFFFFFFFFFFFFF AND DUP2 MSTORE PUSH1 0x20 ADD SWAP1 DUP2 MSTORE PUSH1 0x20 ADD PUSH1 0x0 KECCAK256 PUSH1 0x0 DUP3 DUP3 SLOAD PUSH2 0x1E1E SWAP2 SWAP1 PUSH2 0x23D0 JUMP JUMPDEST SWAP3 POP POP DUP2 SWAP1 SSTORE POP DUP3 PUSH20 0xFFFFFFFFFFFFFFFFFFFFFFFFFFFFFFFFFFFFFFFF AND DUP5 PUSH20 0xFFFFFFFFFFFFFFFFFFFFFFFFFFFFFFFFFFFFFFFF AND PUSH32 0xDDF252AD1BE2C89B69C2B068FC378DAA952BA7F163C4A11628F55A4DF523B3EF DUP5 PUSH1 0x40 MLOAD PUSH2 0x1E82 SWAP2 SWAP1 PUSH2 0x206E JUMP JUMPDEST PUSH1 0x40 MLOAD DUP1 SWAP2 SUB SWAP1 LOG3 POP POP POP POP JUMP JUMPDEST POP POP POP JUMP JUMPDEST PUSH1 0x0 DUP2 MLOAD SWAP1 POP SWAP2 SWAP1 POP JUMP JUMPDEST PUSH1 0x0 DUP3 DUP3 MSTORE PUSH1 0x20 DUP3 ADD SWAP1 POP SWAP3 SWAP2 POP POP JUMP JUMPDEST PUSH1 0x0 JUMPDEST DUP4 DUP2 LT ISZERO PUSH2 0x1ECF JUMPI DUP1 DUP3 ADD MLOAD DUP2 DUP5 ADD MSTORE PUSH1 0x20 DUP2 ADD SWAP1 POP PUSH2 0x1EB4 JUMP JUMPDEST DUP4 DUP2 GT ISZERO PUSH2 0x1EDE JUMPI PUSH1 0x0 DUP5 DUP5 ADD MSTORE JUMPDEST POP POP POP POP JUMP JUMPDEST PUSH1 0x0 PUSH1 0x1F NOT PUSH1 0x1F DUP4 ADD AND SWAP1 POP SWAP2 SWAP1 POP JUMP JUMPDEST PUSH1 0x0 PUSH2 0x1F00 DUP3 PUSH2 0x1E95 JUMP JUMPDEST PUSH2 0x1F0A DUP2 DUP6 PUSH2 0x1EA0 JUMP JUMPDEST SWAP4 POP PUSH2 0x1F1A DUP2 DUP6 PUSH1 0x20 DUP7 ADD PUSH2 0x1EB1 JUMP JUMPDEST PUSH2 0x1F23 DUP2 PUSH2 0x1EE4 JUMP JUMPDEST DUP5 ADD SWAP2 POP POP SWAP3 SWAP2 POP POP JUMP JUMPDEST PUSH1 0x0 PUSH1 0x20 DUP3 ADD SWAP1 POP DUP2 DUP2 SUB PUSH1 0x0 DUP4 ADD MSTORE PUSH2 0x1F48 DUP2 DUP5 PUSH2 0x1EF5 JUMP JUMPDEST SWAP1 POP SWAP3 SWAP2 POP POP JUMP JUMPDEST PUSH1 0x0 DUP1 REVERT JUMPDEST PUSH1 0x0 PUSH20 0xFFFFFFFFFFFFFFFFFFFFFFFFFFFFFFFFFFFFFFFF DUP3 AND SWAP1 POP SWAP2 SWAP1 POP JUMP JUMPDEST PUSH1 0x0 PUSH2 0x1F80 DUP3 PUSH2 0x1F55 JUMP JUMPDEST SWAP1 POP SWAP2 SWAP1 POP JUMP JUMPDEST PUSH2 0x1F90 DUP2 PUSH2 0x1F75 JUMP JUMPDEST DUP2 EQ PUSH2 0x1F9B JUMPI PUSH1 0x0 DUP1 REVERT JUMPDEST POP JUMP JUMPDEST PUSH1 0x0 DUP2 CALLDATALOAD SWAP1 POP PUSH2 0x1FAD DUP2 PUSH2 0x1F87 JUMP JUMPDEST SWAP3 SWAP2 POP POP JUMP JUMPDEST PUSH1 0x0 DUP2 SWAP1 POP SWAP2 SWAP1 POP JUMP JUMPDEST PUSH2 0x1FC6 DUP2 PUSH2 0x1FB3 JUMP JUMPDEST DUP2 EQ PUSH2 0x1FD1 JUMPI PUSH1 0x0 DUP1 REVERT JUMPDEST POP JUMP JUMPDEST PUSH1 0x0 DUP2 CALLDATALOAD SWAP1 POP PUSH2 0x1FE3 DUP2 PUSH2 0x1FBD JUMP JUMPDEST SWAP3 SWAP2 POP POP JUMP JUMPDEST PUSH1 0x0 DUP1 PUSH1 0x40 DUP4 DUP6 SUB SLT ISZERO PUSH2 0x2000 JUMPI PUSH2 0x1FFF PUSH2 0x1F50 JUMP JUMPDEST JUMPDEST PUSH1 0x0 PUSH2 0x200E DUP6 DUP3 DUP7 ADD PUSH2 0x1F9E JUMP JUMPDEST SWAP3 POP POP PUSH1 0x20 PUSH2 0x201F DUP6 DUP3 DUP7 ADD PUSH2 0x1FD4 JUMP JUMPDEST SWAP2 POP POP SWAP3 POP SWAP3 SWAP1 POP JUMP JUMPDEST PUSH1 0x0 DUP2 ISZERO ISZERO SWAP1 POP SWAP2 SWAP1 POP JUMP JUMPDEST PUSH2 0x203E DUP2 PUSH2 0x2029 JUMP JUMPDEST DUP3 MSTORE POP POP JUMP JUMPDEST PUSH1 0x0 PUSH1 0x20 DUP3 ADD SWAP1 POP PUSH2 0x2059 PUSH1 0x0 DUP4 ADD DUP5 PUSH2 0x2035 JUMP JUMPDEST SWAP3 SWAP2 POP POP JUMP JUMPDEST PUSH2 0x2068 DUP2 PUSH2 0x1FB3 JUMP JUMPDEST DUP3 MSTORE POP POP JUMP JUMPDEST PUSH1 0x0 PUSH1 0x20 DUP3 ADD SWAP1 POP PUSH2 0x2083 PUSH1 0x0 DUP4 ADD DUP5 PUSH2 0x205F JUMP JUMPDEST SWAP3 SWAP2 POP POP JUMP JUMPDEST PUSH1 0x0 DUP1 PUSH1 0x0 PUSH1 0x60 DUP5 DUP7 SUB SLT ISZERO PUSH2 0x20A2 JUMPI PUSH2 0x20A1 PUSH2 0x1F50 JUMP JUMPDEST JUMPDEST PUSH1 0x0 PUSH2 0x20B0 DUP7 DUP3 DUP8 ADD PUSH2 0x1F9E JUMP JUMPDEST SWAP4 POP POP PUSH1 0x20 PUSH2 0x20C1 DUP7 DUP3 DUP8 ADD PUSH2 0x1F9E JUMP JUMPDEST SWAP3 POP POP PUSH1 0x40 PUSH2 0x20D2 DUP7 DUP3 DUP8 ADD PUSH2 0x1FD4 JUMP JUMPDEST SWAP2 POP POP SWAP3 POP SWAP3 POP SWAP3 JUMP JUMPDEST PUSH1 0x0 PUSH1 0xFF DUP3 AND SWAP1 POP SWAP2 SWAP1 POP JUMP JUMPDEST PUSH2 0x20F2 DUP2 PUSH2 0x20DC JUMP JUMPDEST DUP3 MSTORE POP POP JUMP JUMPDEST PUSH1 0x0 PUSH1 0x20 DUP3 ADD SWAP1 POP PUSH2 0x210D PUSH1 0x0 DUP4 ADD DUP5 PUSH2 0x20E9 JUMP JUMPDEST SWAP3 SWAP2 POP POP JUMP JUMPDEST PUSH1 0x0 PUSH1 0x20 DUP3 DUP5 SUB SLT ISZERO PUSH2 0x2129 JUMPI PUSH2 0x2128 PUSH2 0x1F50 JUMP JUMPDEST JUMPDEST PUSH1 0x0 PUSH2 0x2137 DUP5 DUP3 DUP6 ADD PUSH2 0x1F9E JUMP JUMPDEST SWAP2 POP POP SWAP3 SWAP2 POP POP JUMP JUMPDEST PUSH2 0x2149 DUP2 PUSH2 0x1F75 JUMP JUMPDEST DUP3 MSTORE POP POP JUMP JUMPDEST PUSH1 0x0 PUSH1 0x20 DUP3 ADD SWAP1 POP PUSH2 0x2164 PUSH1 0x0 DUP4 ADD DUP5 PUSH2 0x2140 JUMP JUMPDEST SWAP3 SWAP2 POP POP JUMP JUMPDEST PUSH1 0x0 PUSH1 0x20 DUP3 DUP5 SUB SLT ISZERO PUSH2 0x2180 JUMPI PUSH2 0x217F PUSH2 0x1F50 JUMP JUMPDEST JUMPDEST PUSH1 0x0 PUSH2 0x218E DUP5 DUP3 DUP6 ADD PUSH2 0x1FD4 JUMP JUMPDEST SWAP2 POP POP SWAP3 SWAP2 POP POP JUMP JUMPDEST PUSH2 0x21A0 DUP2 PUSH2 0x20DC JUMP JUMPDEST DUP2 EQ PUSH2 0x21AB JUMPI PUSH1 0x0 DUP1 REVERT JUMPDEST POP JUMP JUMPDEST PUSH1 0x0 DUP2 CALLDATALOAD SWAP1 POP PUSH2 0x21BD DUP2 PUSH2 0x2197 JUMP JUMPDEST SWAP3 SWAP2 POP POP JUMP JUMPDEST PUSH1 0x0 DUP1 PUSH1 0x40 DUP4 DUP6 SUB SLT ISZERO PUSH2 0x21DA JUMPI PUSH2 0x21D9 PUSH2 0x1F50 JUMP JUMPDEST JUMPDEST PUSH1 0x0 PUSH2 0x21E8 DUP6 DUP3 DUP7 ADD PUSH2 0x1F9E JUMP JUMPDEST SWAP3 POP POP PUSH1 0x20 PUSH2 0x21F9 DUP6 DUP3 DUP7 ADD PUSH2 0x21AE JUMP JUMPDEST SWAP2 POP POP SWAP3 POP SWAP3 SWAP1 POP JUMP JUMPDEST PUSH1 0x0 DUP1 PUSH1 0x40 DUP4 DUP6 SUB SLT ISZERO PUSH2 0x221A JUMPI PUSH2 0x2219 PUSH2 0x1F50 JUMP JUMPDEST JUMPDEST PUSH1 0x0 PUSH2 0x2228 DUP6 DUP3 DUP7 ADD PUSH2 0x1F9E JUMP JUMPDEST SWAP3 POP POP PUSH1 0x20 PUSH2 0x2239 DUP6 DUP3 DUP7 ADD PUSH2 0x1F9E JUMP JUMPDEST SWAP2 POP POP SWAP3 POP SWAP3 SWAP1 POP JUMP JUMPDEST PUSH32 0x4E487B7100000000000000000000000000000000000000000000000000000000 PUSH1 0x0 MSTORE PUSH1 0x22 PUSH1 0x4 MSTORE PUSH1 0x24 PUSH1 0x0 REVERT JUMPDEST PUSH1 0x0 PUSH1 0x2 DUP3 DIV SWAP1 POP PUSH1 0x1 DUP3 AND DUP1 PUSH2 0x228A JUMPI PUSH1 0x7F DUP3 AND SWAP2 POP JUMPDEST PUSH1 0x20 DUP3 LT DUP2 SUB PUSH2 0x229D JUMPI PUSH2 0x229C PUSH2 0x2243 JUMP JUMPDEST JUMPDEST POP SWAP2 SWAP1 POP JUMP JUMPDEST PUSH32 0x4F776E61626C653A2063616C6C6572206973206E6F7420746865206F776E6572 PUSH1 0x0 DUP3 ADD MSTORE POP JUMP JUMPDEST PUSH1 0x0 PUSH2 0x22D9 PUSH1 0x20 DUP4 PUSH2 0x1EA0 JUMP JUMPDEST SWAP2 POP PUSH2 0x22E4 DUP3 PUSH2 0x22A3 JUMP JUMPDEST PUSH1 0x20 DUP3 ADD SWAP1 POP SWAP2 SWAP1 POP JUMP JUMPDEST PUSH1 0x0 PUSH1 0x20 DUP3 ADD SWAP1 POP DUP2 DUP2 SUB PUSH1 0x0 DUP4 ADD MSTORE PUSH2 0x2308 DUP2 PUSH2 0x22CC JUMP JUMPDEST SWAP1 POP SWAP2 SWAP1 POP JUMP JUMPDEST PUSH32 0x6163636F756E74206973206E6F74206120726567756C6172207368617265686F PUSH1 0x0 DUP3 ADD MSTORE PUSH32 0x6C64657200000000000000000000000000000000000000000000000000000000 PUSH1 0x20 DUP3 ADD MSTORE POP JUMP JUMPDEST PUSH1 0x0 PUSH2 0x236B PUSH1 0x24 DUP4 PUSH2 0x1EA0 JUMP JUMPDEST SWAP2 POP PUSH2 0x2376 DUP3 PUSH2 0x230F JUMP JUMPDEST PUSH1 0x40 DUP3 ADD SWAP1 POP SWAP2 SWAP1 POP JUMP JUMPDEST PUSH1 0x0 PUSH1 0x20 DUP3 ADD SWAP1 POP DUP2 DUP2 SUB PUSH1 0x0 DUP4 ADD MSTORE PUSH2 0x239A DUP2 PUSH2 0x235E JUMP JUMPDEST SWAP1 POP SWAP2 SWAP1 POP JUMP JUMPDEST PUSH32 0x4E487B7100000000000000000000000000000000000000000000000000000000 PUSH1 0x0 MSTORE PUSH1 0x11 PUSH1 0x4 MSTORE PUSH1 0x24 PUSH1 0x0 REVERT JUMPDEST PUSH1 0x0 PUSH2 0x23DB DUP3 PUSH2 0x1FB3 JUMP JUMPDEST SWAP2 POP PUSH2 0x23E6 DUP4 PUSH2 0x1FB3 JUMP JUMPDEST SWAP3 POP DUP3 PUSH32 0xFFFFFFFFFFFFFFFFFFFFFFFFFFFFFFFFFFFFFFFFFFFFFFFFFFFFFFFFFFFFFFFF SUB DUP3 GT ISZERO PUSH2 0x241B JUMPI PUSH2 0x241A PUSH2 0x23A1 JUMP JUMPDEST JUMPDEST DUP3 DUP3 ADD SWAP1 POP SWAP3 SWAP2 POP POP JUMP JUMPDEST PUSH32 0x4E487B7100000000000000000000000000000000000000000000000000000000 PUSH1 0x0 MSTORE PUSH1 0x12 PUSH1 0x4 MSTORE PUSH1 0x24 PUSH1 0x0 REVERT JUMPDEST PUSH1 0x0 PUSH2 0x2460 DUP3 PUSH2 0x1FB3 JUMP JUMPDEST SWAP2 POP PUSH2 0x246B DUP4 PUSH2 0x1FB3 JUMP JUMPDEST SWAP3 POP DUP3 PUSH2 0x247B JUMPI PUSH2 0x247A PUSH2 0x2426 JUMP JUMPDEST JUMPDEST DUP3 DUP3 DIV SWAP1 POP SWAP3 SWAP2 POP POP JUMP JUMPDEST PUSH32 0x4E487B7100000000000000000000000000000000000000000000000000000000 PUSH1 0x0 MSTORE PUSH1 0x32 PUSH1 0x4 MSTORE PUSH1 0x24 PUSH1 0x0 REVERT JUMPDEST PUSH1 0x0 PUSH2 0x24C0 DUP3 PUSH2 0x1FB3 JUMP JUMPDEST SWAP2 POP PUSH2 0x24CB DUP4 PUSH2 0x1FB3 JUMP JUMPDEST SWAP3 POP DUP2 PUSH32 0xFFFFFFFFFFFFFFFFFFFFFFFFFFFFFFFFFFFFFFFFFFFFFFFFFFFFFFFFFFFFFFFF DIV DUP4 GT DUP3 ISZERO ISZERO AND ISZERO PUSH2 0x2504 JUMPI PUSH2 0x2503 PUSH2 0x23A1 JUMP JUMPDEST JUMPDEST DUP3 DUP3 MUL SWAP1 POP SWAP3 SWAP2 POP POP JUMP JUMPDEST PUSH1 0x0 PUSH2 0x251A DUP3 PUSH2 0x20DC JUMP JUMPDEST SWAP2 POP PUSH1 0xFF DUP3 SUB PUSH2 0x252D JUMPI PUSH2 0x252C PUSH2 0x23A1 JUMP JUMPDEST JUMPDEST PUSH1 0x1 DUP3 ADD SWAP1 POP SWAP2 SWAP1 POP JUMP JUMPDEST PUSH32 0x6163636F756E74206973206120726567756C6172207368617265686F6C646572 PUSH1 0x0 DUP3 ADD MSTORE POP JUMP JUMPDEST PUSH1 0x0 PUSH2 0x256E PUSH1 0x20 DUP4 PUSH2 0x1EA0 JUMP JUMPDEST SWAP2 POP PUSH2 0x2579 DUP3 PUSH2 0x2538 JUMP JUMPDEST PUSH1 0x20 DUP3 ADD SWAP1 POP SWAP2 SWAP1 POP JUMP JUMPDEST PUSH1 0x0 PUSH1 0x20 DUP3 ADD SWAP1 POP DUP2 DUP2 SUB PUSH1 0x0 DUP4 ADD MSTORE PUSH2 0x259D DUP2 PUSH2 0x2561 JUMP JUMPDEST SWAP1 POP SWAP2 SWAP1 POP JUMP JUMPDEST PUSH1 0x0 PUSH2 0x25AF DUP3 PUSH2 0x20DC JUMP JUMPDEST SWAP2 POP PUSH2 0x25BA DUP4 PUSH2 0x20DC JUMP JUMPDEST SWAP3 POP DUP3 DUP3 LT ISZERO PUSH2 0x25CD JUMPI PUSH2 0x25CC PUSH2 0x23A1 JUMP JUMPDEST JUMPDEST DUP3 DUP3 SUB SWAP1 POP SWAP3 SWAP2 POP POP JUMP JUMPDEST PUSH1 0x0 PUSH2 0x25E3 DUP3 PUSH2 0x1FB3 JUMP JUMPDEST SWAP2 POP PUSH2 0x25EE DUP4 PUSH2 0x1FB3 JUMP JUMPDEST SWAP3 POP DUP3 DUP3 LT ISZERO PUSH2 0x2601 JUMPI PUSH2 0x2600 PUSH2 0x23A1 JUMP JUMPDEST JUMPDEST DUP3 DUP3 SUB SWAP1 POP SWAP3 SWAP2 POP POP JUMP JUMPDEST PUSH32 0x45524332303A2064656372656173656420616C6C6F77616E63652062656C6F77 PUSH1 0x0 DUP3 ADD MSTORE PUSH32 0x207A65726F000000000000000000000000000000000000000000000000000000 PUSH1 0x20 DUP3 ADD MSTORE POP JUMP JUMPDEST PUSH1 0x0 PUSH2 0x2668 PUSH1 0x25 DUP4 PUSH2 0x1EA0 JUMP JUMPDEST SWAP2 POP PUSH2 0x2673 DUP3 PUSH2 0x260C JUMP JUMPDEST PUSH1 0x40 DUP3 ADD SWAP1 POP SWAP2 SWAP1 POP JUMP JUMPDEST PUSH1 0x0 PUSH1 0x20 DUP3 ADD SWAP1 POP DUP2 DUP2 SUB PUSH1 0x0 DUP4 ADD MSTORE PUSH2 0x2697 DUP2 PUSH2 0x265B JUMP JUMPDEST SWAP1 POP SWAP2 SWAP1 POP JUMP JUMPDEST PUSH32 0x4F776E61626C653A206E6577206F776E657220697320746865207A65726F2061 PUSH1 0x0 DUP3 ADD MSTORE PUSH32 0x6464726573730000000000000000000000000000000000000000000000000000 PUSH1 0x20 DUP3 ADD MSTORE POP JUMP JUMPDEST PUSH1 0x0 PUSH2 0x26FA PUSH1 0x26 DUP4 PUSH2 0x1EA0 JUMP JUMPDEST SWAP2 POP PUSH2 0x2705 DUP3 PUSH2 0x269E JUMP JUMPDEST PUSH1 0x40 DUP3 ADD SWAP1 POP SWAP2 SWAP1 POP JUMP JUMPDEST PUSH1 0x0 PUSH1 0x20 DUP3 ADD SWAP1 POP DUP2 DUP2 SUB PUSH1 0x0 DUP4 ADD MSTORE PUSH2 0x2729 DUP2 PUSH2 0x26ED JUMP JUMPDEST SWAP1 POP SWAP2 SWAP1 POP JUMP JUMPDEST PUSH32 0x45524332303A20617070726F76652066726F6D20746865207A65726F20616464 PUSH1 0x0 DUP3 ADD MSTORE PUSH32 0x7265737300000000000000000000000000000000000000000000000000000000 PUSH1 0x20 DUP3 ADD MSTORE POP JUMP JUMPDEST PUSH1 0x0 PUSH2 0x278C PUSH1 0x24 DUP4 PUSH2 0x1EA0 JUMP JUMPDEST SWAP2 POP PUSH2 0x2797 DUP3 PUSH2 0x2730 JUMP JUMPDEST PUSH1 0x40 DUP3 ADD SWAP1 POP SWAP2 SWAP1 POP JUMP JUMPDEST PUSH1 0x0 PUSH1 0x20 DUP3 ADD SWAP1 POP DUP2 DUP2 SUB PUSH1 0x0 DUP4 ADD MSTORE PUSH2 0x27BB DUP2 PUSH2 0x277F JUMP JUMPDEST SWAP1 POP SWAP2 SWAP1 POP JUMP JUMPDEST PUSH32 0x45524332303A20617070726F766520746F20746865207A65726F206164647265 PUSH1 0x0 DUP3 ADD MSTORE PUSH32 0x7373000000000000000000000000000000000000000000000000000000000000 PUSH1 0x20 DUP3 ADD MSTORE POP JUMP JUMPDEST PUSH1 0x0 PUSH2 0x281E PUSH1 0x22 DUP4 PUSH2 0x1EA0 JUMP JUMPDEST SWAP2 POP PUSH2 0x2829 DUP3 PUSH2 0x27C2 JUMP JUMPDEST PUSH1 0x40 DUP3 ADD SWAP1 POP SWAP2 SWAP1 POP JUMP JUMPDEST PUSH1 0x0 PUSH1 0x20 DUP3 ADD SWAP1 POP DUP2 DUP2 SUB PUSH1 0x0 DUP4 ADD MSTORE PUSH2 0x284D DUP2 PUSH2 0x2811 JUMP JUMPDEST SWAP1 POP SWAP2 SWAP1 POP JUMP JUMPDEST PUSH32 0x45524332303A207472616E736665722066726F6D20746865207A65726F206164 PUSH1 0x0 DUP3 ADD MSTORE PUSH32 0x6472657373000000000000000000000000000000000000000000000000000000 PUSH1 0x20 DUP3 ADD MSTORE POP JUMP JUMPDEST PUSH1 0x0 PUSH2 0x28B0 PUSH1 0x25 DUP4 PUSH2 0x1EA0 JUMP JUMPDEST SWAP2 POP PUSH2 0x28BB DUP3 PUSH2 0x2854 JUMP JUMPDEST PUSH1 0x40 DUP3 ADD SWAP1 POP SWAP2 SWAP1 POP JUMP JUMPDEST PUSH1 0x0 PUSH1 0x20 DUP3 ADD SWAP1 POP DUP2 DUP2 SUB PUSH1 0x0 DUP4 ADD MSTORE PUSH2 0x28DF DUP2 PUSH2 0x28A3 JUMP JUMPDEST SWAP1 POP SWAP2 SWAP1 POP JUMP JUMPDEST PUSH32 0x45524332303A207472616E7366657220746F20746865207A65726F2061646472 PUSH1 0x0 DUP3 ADD MSTORE PUSH32 0x6573730000000000000000000000000000000000000000000000000000000000 PUSH1 0x20 DUP3 ADD MSTORE POP JUMP JUMPDEST PUSH1 0x0 PUSH2 0x2942 PUSH1 0x23 DUP4 PUSH2 0x1EA0 JUMP JUMPDEST SWAP2 POP PUSH2 0x294D DUP3 PUSH2 0x28E6 JUMP JUMPDEST PUSH1 0x40 DUP3 ADD SWAP1 POP SWAP2 SWAP1 POP JUMP JUMPDEST PUSH1 0x0 PUSH1 0x20 DUP3 ADD SWAP1 POP DUP2 DUP2 SUB PUSH1 0x0 DUP4 ADD MSTORE PUSH2 0x2971 DUP2 PUSH2 0x2935 JUMP JUMPDEST SWAP1 POP SWAP2 SWAP1 POP JUMP JUMPDEST PUSH32 0x45524332303A207472616E7366657220616D6F756E7420657863656564732062 PUSH1 0x0 DUP3 ADD MSTORE PUSH32 0x616C616E63650000000000000000000000000000000000000000000000000000 PUSH1 0x20 DUP3 ADD MSTORE POP JUMP JUMPDEST PUSH1 0x0 PUSH2 0x29D4 PUSH1 0x26 DUP4 PUSH2 0x1EA0 JUMP JUMPDEST SWAP2 POP PUSH2 0x29DF DUP3 PUSH2 0x2978 JUMP JUMPDEST PUSH1 0x40 DUP3 ADD SWAP1 POP SWAP2 SWAP1 POP JUMP JUMPDEST PUSH1 0x0 PUSH1 0x20 DUP3 ADD SWAP1 POP DUP2 DUP2 SUB PUSH1 0x0 DUP4 ADD MSTORE PUSH2 0x2A03 DUP2 PUSH2 0x29C7 JUMP JUMPDEST SWAP1 POP SWAP2 SWAP1 POP JUMP INVALID LOG2 PUSH5 0x6970667358 0x22 SLT KECCAK256 0xED OR JUMP SWAP4 PUSH13 0x7828C8C9947C7F44054C3E3156 PUSH6 0x5EA5946CB912 PUSH10 0x692A0EC261864736F6C PUSH4 0x4300080D STOP CALLER "
				},
				"gasEstimates": {
					"creation": {
						"codeDepositCost": "2163200",
						"executionCost": "infinite",
						"totalCost": "infinite"
					},
					"external": {
						"allowance(address,address)": "infinite",
						"approve(address,uint256)": "infinite",
						"balanceOf(address)": "infinite",
						"changeLvl(address,uint8)": "infinite",
						"decimals()": "410",
						"decreaseAllowance(address,uint256)": "infinite",
						"increaseAllowance(address,uint256)": "infinite",
						"lvl(address)": "2890",
						"mint(uint256)": "infinite",
						"mintToNRS(address,uint256)": "infinite",
						"mintToRS(address,uint256)": "infinite",
						"name()": "infinite",
						"owner()": "2589",
						"renounceOwnership()": "30397",
						"symbol()": "infinite",
						"totalSupply()": "2460",
						"transfer(address,uint256)": "infinite",
						"transferFrom(address,address,uint256)": "infinite",
						"transferOwnership(address)": "30830"
					},
					"internal": {
						"relaxBalance(address)": "infinite"
					}
				},
				"methodIdentifiers": {
					"allowance(address,address)": "dd62ed3e",
					"approve(address,uint256)": "095ea7b3",
					"balanceOf(address)": "70a08231",
					"changeLvl(address,uint8)": "a33e7d7e",
					"decimals()": "313ce567",
					"decreaseAllowance(address,uint256)": "a457c2d7",
					"increaseAllowance(address,uint256)": "39509351",
					"lvl(address)": "7a0d944c",
					"mint(uint256)": "a0712d68",
					"mintToNRS(address,uint256)": "1506f480",
					"mintToRS(address,uint256)": "13b954a3",
					"name()": "06fdde03",
					"owner()": "8da5cb5b",
					"renounceOwnership()": "715018a6",
					"symbol()": "95d89b41",
					"totalSupply()": "18160ddd",
					"transfer(address,uint256)": "a9059cbb",
					"transferFrom(address,address,uint256)": "23b872dd",
					"transferOwnership(address)": "f2fde38b"
				}
			},
			"userdoc": {
				"kind": "user",
				"methods": {},
				"version": 1
			}
		}
	}
}