{
	"contracts/Distribution/AtlantisDistribution.sol": {
		"AtlantisDistribution": {
			"abi": [
				{
					"inputs": [
						{
							"internalType": "string",
							"name": "name",
							"type": "string"
						},
						{
							"internalType": "string",
							"name": "symbol",
							"type": "string"
						},
						{
							"internalType": "address payable",
							"name": "_fund_wallet",
							"type": "address"
						}
					],
					"stateMutability": "nonpayable",
					"type": "constructor"
				},
				{
					"anonymous": false,
					"inputs": [
						{
							"indexed": true,
							"internalType": "address",
							"name": "owner",
							"type": "address"
						},
						{
							"indexed": true,
							"internalType": "address",
							"name": "spender",
							"type": "address"
						},
						{
							"indexed": false,
							"internalType": "uint256",
							"name": "value",
							"type": "uint256"
						}
					],
					"name": "Approval",
					"type": "event"
				},
				{
					"anonymous": false,
					"inputs": [
						{
							"indexed": true,
							"internalType": "address",
							"name": "previousOwner",
							"type": "address"
						},
						{
							"indexed": true,
							"internalType": "address",
							"name": "newOwner",
							"type": "address"
						}
					],
					"name": "OwnershipTransferred",
					"type": "event"
				},
				{
					"anonymous": false,
					"inputs": [
						{
							"indexed": true,
							"internalType": "address",
							"name": "from",
							"type": "address"
						},
						{
							"indexed": true,
							"internalType": "address",
							"name": "to",
							"type": "address"
						},
						{
							"indexed": false,
							"internalType": "uint256",
							"name": "value",
							"type": "uint256"
						}
					],
					"name": "Transfer",
					"type": "event"
				},
				{
					"inputs": [
						{
							"internalType": "address",
							"name": "owner",
							"type": "address"
						},
						{
							"internalType": "address",
							"name": "spender",
							"type": "address"
						}
					],
					"name": "allowance",
					"outputs": [
						{
							"internalType": "uint256",
							"name": "",
							"type": "uint256"
						}
					],
					"stateMutability": "view",
					"type": "function"
				},
				{
					"inputs": [
						{
							"internalType": "address",
							"name": "spender",
							"type": "address"
						},
						{
							"internalType": "uint256",
							"name": "amount",
							"type": "uint256"
						}
					],
					"name": "approve",
					"outputs": [
						{
							"internalType": "bool",
							"name": "",
							"type": "bool"
						}
					],
					"stateMutability": "nonpayable",
					"type": "function"
				},
				{
					"inputs": [
						{
							"internalType": "address",
							"name": "account",
							"type": "address"
						}
					],
					"name": "balanceOf",
					"outputs": [
						{
							"internalType": "uint256",
							"name": "",
							"type": "uint256"
						}
					],
					"stateMutability": "view",
					"type": "function"
				},
				{
					"inputs": [
						{
							"internalType": "address",
							"name": "account",
							"type": "address"
						},
						{
							"internalType": "uint8",
							"name": "newLvl",
							"type": "uint8"
						}
					],
					"name": "changeLvl",
					"outputs": [],
					"stateMutability": "nonpayable",
					"type": "function"
				},
				{
					"inputs": [
						{
							"internalType": "uint256",
							"name": "",
							"type": "uint256"
						}
					],
					"name": "cury",
					"outputs": [
						{
							"internalType": "uint256",
							"name": "",
							"type": "uint256"
						}
					],
					"stateMutability": "view",
					"type": "function"
				},
				{
					"inputs": [],
					"name": "decimals",
					"outputs": [
						{
							"internalType": "uint8",
							"name": "",
							"type": "uint8"
						}
					],
					"stateMutability": "view",
					"type": "function"
				},
				{
					"inputs": [
						{
							"internalType": "address",
							"name": "spender",
							"type": "address"
						},
						{
							"internalType": "uint256",
							"name": "subtractedValue",
							"type": "uint256"
						}
					],
					"name": "decreaseAllowance",
					"outputs": [
						{
							"internalType": "bool",
							"name": "",
							"type": "bool"
						}
					],
					"stateMutability": "nonpayable",
					"type": "function"
				},
				{
					"inputs": [
						{
							"internalType": "address",
							"name": "spender",
							"type": "address"
						},
						{
							"internalType": "uint256",
							"name": "addedValue",
							"type": "uint256"
						}
					],
					"name": "increaseAllowance",
					"outputs": [
						{
							"internalType": "bool",
							"name": "",
							"type": "bool"
						}
					],
					"stateMutability": "nonpayable",
					"type": "function"
				},
				{
					"inputs": [
						{
							"internalType": "address",
							"name": "",
							"type": "address"
						}
					],
					"name": "lvl",
					"outputs": [
						{
							"internalType": "uint8",
							"name": "",
							"type": "uint8"
						}
					],
					"stateMutability": "view",
					"type": "function"
				},
				{
					"inputs": [
						{
							"internalType": "uint256",
							"name": "amount",
							"type": "uint256"
						}
					],
					"name": "mint",
					"outputs": [],
					"stateMutability": "nonpayable",
					"type": "function"
				},
				{
					"inputs": [
						{
							"internalType": "address",
							"name": "account",
							"type": "address"
						},
						{
							"internalType": "uint256",
							"name": "amount",
							"type": "uint256"
						}
					],
					"name": "mintToNRS",
					"outputs": [],
					"stateMutability": "nonpayable",
					"type": "function"
				},
				{
					"inputs": [
						{
							"internalType": "address",
							"name": "account",
							"type": "address"
						},
						{
							"internalType": "uint256",
							"name": "amount",
							"type": "uint256"
						}
					],
					"name": "mintToRS",
					"outputs": [],
					"stateMutability": "nonpayable",
					"type": "function"
				},
				{
					"inputs": [],
					"name": "name",
					"outputs": [
						{
							"internalType": "string",
							"name": "",
							"type": "string"
						}
					],
					"stateMutability": "view",
					"type": "function"
				},
				{
					"inputs": [],
					"name": "owner",
					"outputs": [
						{
							"internalType": "address",
							"name": "",
							"type": "address"
						}
					],
					"stateMutability": "view",
					"type": "function"
				},
				{
					"inputs": [],
					"name": "renounceOwnership",
					"outputs": [],
					"stateMutability": "nonpayable",
					"type": "function"
				},
				{
					"inputs": [],
					"name": "symbol",
					"outputs": [
						{
							"internalType": "string",
							"name": "",
							"type": "string"
						}
					],
					"stateMutability": "view",
					"type": "function"
				},
				{
					"inputs": [],
					"name": "totalSupply",
					"outputs": [
						{
							"internalType": "uint256",
							"name": "",
							"type": "uint256"
						}
					],
					"stateMutability": "view",
					"type": "function"
				},
				{
					"inputs": [
						{
							"internalType": "address",
							"name": "recipient",
							"type": "address"
						},
						{
							"internalType": "uint256",
							"name": "amount",
							"type": "uint256"
						}
					],
					"name": "transfer",
					"outputs": [
						{
							"internalType": "bool",
							"name": "",
							"type": "bool"
						}
					],
					"stateMutability": "nonpayable",
					"type": "function"
				},
				{
					"inputs": [
						{
							"internalType": "address",
							"name": "sender",
							"type": "address"
						},
						{
							"internalType": "address",
							"name": "recipient",
							"type": "address"
						},
						{
							"internalType": "uint256",
							"name": "amount",
							"type": "uint256"
						}
					],
					"name": "transferFrom",
					"outputs": [
						{
							"internalType": "bool",
							"name": "",
							"type": "bool"
						}
					],
					"stateMutability": "nonpayable",
					"type": "function"
				},
				{
					"inputs": [
						{
							"internalType": "address",
							"name": "newOwner",
							"type": "address"
						}
					],
					"name": "transferOwnership",
					"outputs": [],
					"stateMutability": "nonpayable",
					"type": "function"
				}
			],
			"devdoc": {
				"kind": "dev",
				"methods": {
					"allowance(address,address)": {
						"details": "See {IERC20-allowance}."
					},
					"approve(address,uint256)": {
						"details": "See {IERC20-approve}. Requirements: - `spender` cannot be the zero address."
					},
					"balanceOf(address)": {
						"details": "See {IERC20-balanceOf}."
					},
					"decimals()": {
						"details": "Returns the number of decimals used to get its user representation. For example, if `decimals` equals `2`, a balance of `505` tokens should be displayed to a user as `5,05` (`505 / 10 ** 2`). Tokens usually opt for a value of 18, imitating the relationship between Ether and Wei. This is the value {ERC20} uses, unless this function is overloaded; NOTE: This information is only used for _display_ purposes: it in no way affects any of the arithmetic of the contract, including {IERC20-balanceOf} and {IERC20-transfer}."
					},
					"decreaseAllowance(address,uint256)": {
						"details": "Atomically decreases the allowance granted to `spender` by the caller. This is an alternative to {approve} that can be used as a mitigation for problems described in {IERC20-approve}. Emits an {Approval} event indicating the updated allowance. Requirements: - `spender` cannot be the zero address. - `spender` must have allowance for the caller of at least `subtractedValue`."
					},
					"increaseAllowance(address,uint256)": {
						"details": "Atomically increases the allowance granted to `spender` by the caller. This is an alternative to {approve} that can be used as a mitigation for problems described in {IERC20-approve}. Emits an {Approval} event indicating the updated allowance. Requirements: - `spender` cannot be the zero address."
					},
					"name()": {
						"details": "Returns the name of the token."
					},
					"owner()": {
						"details": "Returns the address of the current owner."
					},
					"renounceOwnership()": {
						"details": "Leaves the contract without owner. It will not be possible to call `onlyOwner` functions anymore. Can only be called by the current owner. NOTE: Renouncing ownership will leave the contract without an owner, thereby removing any functionality that is only available to the owner."
					},
					"symbol()": {
						"details": "Returns the symbol of the token, usually a shorter version of the name."
					},
					"totalSupply()": {
						"details": "See {IERC20-totalSupply}."
					},
					"transfer(address,uint256)": {
						"details": "See {IERC20-transfer}. Requirements: - `recipient` cannot be the zero address. - the caller must have a balance of at least `amount`."
					},
					"transferFrom(address,address,uint256)": {
						"details": "See {IERC20-transferFrom}. Emits an {Approval} event indicating the updated allowance. This is not required by the EIP. See the note at the beginning of {ERC20}. Requirements: - `sender` and `recipient` cannot be the zero address. - `sender` must have a balance of at least `amount`. - the caller must have allowance for ``sender``'s tokens of at least `amount`."
					},
					"transferOwnership(address)": {
						"details": "Transfers ownership of the contract to a new account (`newOwner`). Can only be called by the current owner."
					}
				},
				"version": 1
			},
			"evm": {
				"assembly": "    /* \"contracts/Distribution/AtlantisDistribution.sol\":206:3511  contract AtlantisDistribution is ERC20, Ownable {... */\n  mstore(0x40, 0x80)\n    /* \"contracts/Distribution/AtlantisDistribution.sol\":399:400  3 */\n  0x03\n    /* \"contracts/Distribution/AtlantisDistribution.sol\":387:400  uint size = 3 */\n  0x08\n  sstore\n    /* \"contracts/Distribution/AtlantisDistribution.sol\":444:448  size */\n  sload(0x08)\n    /* \"contracts/Distribution/AtlantisDistribution.sol\":430:449  new uint256[](size) */\n  0xffffffffffffffff\n  dup2\n  gt\n  iszero\n  tag_1\n  jumpi\n  tag_2\n  tag_3\n  jump\t// in\ntag_2:\ntag_1:\n  mload(0x40)\n  swap1\n  dup1\n  dup3\n  mstore\n  dup1\n  0x20\n  mul\n  0x20\n  add\n  dup3\n  add\n  0x40\n  mstore\n  dup1\n  iszero\n  tag_4\n  jumpi\n  dup2\n  0x20\n  add\n  0x20\n  dup3\n  mul\n  dup1\n  calldatasize\n  dup4\n  calldatacopy\n  dup1\n  dup3\n  add\n  swap2\n  pop\n  pop\n  swap1\n  pop\ntag_4:\n  pop\n    /* \"contracts/Distribution/AtlantisDistribution.sol\":406:449  uint256[] public cury = new uint256[](size) */\n  0x09\n  swap1\n  dup1\n  mload\n  swap1\n  0x20\n  add\n  swap1\n  tag_5\n  swap3\n  swap2\n  swap1\n  tag_6\n  jump\t// in\ntag_5:\n  pop\n    /* \"contracts/Distribution/AtlantisDistribution.sol\":487:491  size */\n  sload(0x08)\n    /* \"contracts/Distribution/AtlantisDistribution.sol\":473:492  new uint256[](size) */\n  0xffffffffffffffff\n  dup2\n  gt\n  iszero\n  tag_7\n  jumpi\n  tag_8\n  tag_3\n  jump\t// in\ntag_8:\ntag_7:\n  mload(0x40)\n  swap1\n  dup1\n  dup3\n  mstore\n  dup1\n  0x20\n  mul\n  0x20\n  add\n  dup3\n  add\n  0x40\n  mstore\n  dup1\n  iszero\n  tag_9\n  jumpi\n  dup2\n  0x20\n  add\n  0x20\n  dup3\n  mul\n  dup1\n  calldatasize\n  dup4\n  calldatacopy\n  dup1\n  dup3\n  add\n  swap2\n  pop\n  pop\n  swap1\n  pop\ntag_9:\n  pop\n    /* \"contracts/Distribution/AtlantisDistribution.sol\":455:492  uint256[] total = new uint256[](size) */\n  0x0a\n  swap1\n  dup1\n  mload\n  swap1\n  0x20\n  add\n  swap1\n  tag_10\n  swap3\n  swap2\n  swap1\n  tag_6\n  jump\t// in\ntag_10:\n  pop\n    /* \"contracts/Distribution/AtlantisDistribution.sol\":532:913  constructor(string memory name, string memory symbol, address payable _fund_wallet) ERC20(name, symbol) {... */\n  callvalue\n  dup1\n  iszero\n  tag_11\n  jumpi\n  0x00\n  dup1\n  revert\ntag_11:\n  pop\n  mload(0x40)\n  sub(codesize, bytecodeSize)\n  dup1\n  bytecodeSize\n  dup4\n  codecopy\n  dup2\n  dup2\n  add\n  0x40\n  mstore\n  dup2\n  add\n  swap1\n  tag_12\n  swap2\n  swap1\n  tag_13\n  jump\t// in\ntag_12:\n    /* \"contracts/Distribution/AtlantisDistribution.sol\":622:626  name */\n  dup3\n    /* \"contracts/Distribution/AtlantisDistribution.sol\":628:634  symbol */\n  dup3\n    /* \"contracts/Distribution/WrappedERC20Token.sol\":1953:1958  name_ */\n  dup2\n    /* \"contracts/Distribution/WrappedERC20Token.sol\":1945:1950  _name */\n  0x03\n    /* \"contracts/Distribution/WrappedERC20Token.sol\":1945:1958  _name = name_ */\n  swap1\n  dup1\n  mload\n  swap1\n  0x20\n  add\n  swap1\n  tag_18\n  swap3\n  swap2\n  swap1\n  tag_19\n  jump\t// in\ntag_18:\n  pop\n    /* \"contracts/Distribution/WrappedERC20Token.sol\":1978:1985  symbol_ */\n  dup1\n    /* \"contracts/Distribution/WrappedERC20Token.sol\":1968:1975  _symbol */\n  0x04\n    /* \"contracts/Distribution/WrappedERC20Token.sol\":1968:1985  _symbol = symbol_ */\n  swap1\n  dup1\n  mload\n  swap1\n  0x20\n  add\n  swap1\n  tag_20\n  swap3\n  swap2\n  swap1\n  tag_19\n  jump\t// in\ntag_20:\n  pop\n    /* \"contracts/Distribution/WrappedERC20Token.sol\":1878:1992  constructor (string memory name_, string memory symbol_) {... */\n  pop\n  pop\n    /* \"@openzeppelin/contracts/access/Ownable.sol\":867:890  _setOwner(_msgSender()) */\n  tag_22\n    /* \"@openzeppelin/contracts/access/Ownable.sol\":877:889  _msgSender() */\n  tag_23\n    /* \"@openzeppelin/contracts/access/Ownable.sol\":877:887  _msgSender */\n  shl(0x20, tag_24)\n    /* \"@openzeppelin/contracts/access/Ownable.sol\":877:889  _msgSender() */\n  0x20\n  shr\n  jump\t// in\ntag_23:\n    /* \"@openzeppelin/contracts/access/Ownable.sol\":867:876  _setOwner */\n  shl(0x20, tag_25)\n    /* \"@openzeppelin/contracts/access/Ownable.sol\":867:890  _setOwner(_msgSender()) */\n  0x20\n  shr\n  jump\t// in\ntag_22:\n    /* \"contracts/Distribution/AtlantisDistribution.sol\":646:697  _mint(msg.sender, 300000000 * 10**uint(decimals())) */\n  tag_27\n    /* \"contracts/Distribution/AtlantisDistribution.sol\":652:662  msg.sender */\n  caller\n    /* \"contracts/Distribution/AtlantisDistribution.sol\":685:695  decimals() */\n  tag_28\n    /* \"contracts/Distribution/AtlantisDistribution.sol\":685:693  decimals */\n  shl(0x20, tag_29)\n    /* \"contracts/Distribution/AtlantisDistribution.sol\":685:695  decimals() */\n  0x20\n  shr\n  jump\t// in\ntag_28:\n    /* \"contracts/Distribution/AtlantisDistribution.sol\":680:696  uint(decimals()) */\n  0xff\n  and\n    /* \"contracts/Distribution/AtlantisDistribution.sol\":676:678  10 */\n  0x0a\n    /* \"contracts/Distribution/AtlantisDistribution.sol\":676:696  10**uint(decimals()) */\n  tag_30\n  swap2\n  swap1\n  tag_31\n  jump\t// in\ntag_30:\n    /* \"contracts/Distribution/AtlantisDistribution.sol\":664:673  300000000 */\n  0x11e1a300\n    /* \"contracts/Distribution/AtlantisDistribution.sol\":664:696  300000000 * 10**uint(decimals()) */\n  tag_32\n  swap2\n  swap1\n  tag_33\n  jump\t// in\ntag_32:\n    /* \"contracts/Distribution/AtlantisDistribution.sol\":646:651  _mint */\n  shl(0x20, tag_34)\n    /* \"contracts/Distribution/AtlantisDistribution.sol\":646:697  _mint(msg.sender, 300000000 * 10**uint(decimals())) */\n  0x20\n  shr\n  jump\t// in\ntag_27:\n    /* \"contracts/Distribution/AtlantisDistribution.sol\":726:736  decimals() */\n  tag_35\n    /* \"contracts/Distribution/AtlantisDistribution.sol\":726:734  decimals */\n  shl(0x20, tag_29)\n    /* \"contracts/Distribution/AtlantisDistribution.sol\":726:736  decimals() */\n  0x20\n  shr\n  jump\t// in\ntag_35:\n    /* \"contracts/Distribution/AtlantisDistribution.sol\":721:737  uint(decimals()) */\n  0xff\n  and\n    /* \"contracts/Distribution/AtlantisDistribution.sol\":717:719  10 */\n  0x0a\n    /* \"contracts/Distribution/AtlantisDistribution.sol\":717:737  10**uint(decimals()) */\n  tag_36\n  swap2\n  swap1\n  tag_31\n  jump\t// in\ntag_36:\n    /* \"contracts/Distribution/AtlantisDistribution.sol\":707:711  cury */\n  0x09\n    /* \"contracts/Distribution/AtlantisDistribution.sol\":712:713  0 */\n  0x00\n    /* \"contracts/Distribution/AtlantisDistribution.sol\":707:714  cury[0] */\n  dup2\n  sload\n  dup2\n  lt\n  tag_37\n  jumpi\n  tag_38\n  tag_39\n  jump\t// in\ntag_38:\ntag_37:\n  swap1\n  0x00\n  mstore\n  keccak256(0x00, 0x20)\n  add\n    /* \"contracts/Distribution/AtlantisDistribution.sol\":707:737  cury[0] = 10**uint(decimals()) */\n  dup2\n  swap1\n  sstore\n  pop\n    /* \"contracts/Distribution/AtlantisDistribution.sol\":766:776  decimals() */\n  tag_41\n    /* \"contracts/Distribution/AtlantisDistribution.sol\":766:774  decimals */\n  shl(0x20, tag_29)\n    /* \"contracts/Distribution/AtlantisDistribution.sol\":766:776  decimals() */\n  0x20\n  shr\n  jump\t// in\ntag_41:\n    /* \"contracts/Distribution/AtlantisDistribution.sol\":761:777  uint(decimals()) */\n  0xff\n  and\n    /* \"contracts/Distribution/AtlantisDistribution.sol\":757:759  10 */\n  0x0a\n    /* \"contracts/Distribution/AtlantisDistribution.sol\":757:777  10**uint(decimals()) */\n  tag_42\n  swap2\n  swap1\n  tag_31\n  jump\t// in\ntag_42:\n    /* \"contracts/Distribution/AtlantisDistribution.sol\":747:751  cury */\n  0x09\n    /* \"contracts/Distribution/AtlantisDistribution.sol\":752:753  1 */\n  0x01\n    /* \"contracts/Distribution/AtlantisDistribution.sol\":747:754  cury[1] */\n  dup2\n  sload\n  dup2\n  lt\n  tag_43\n  jumpi\n  tag_44\n  tag_39\n  jump\t// in\ntag_44:\ntag_43:\n  swap1\n  0x00\n  mstore\n  keccak256(0x00, 0x20)\n  add\n    /* \"contracts/Distribution/AtlantisDistribution.sol\":747:777  cury[1] = 10**uint(decimals()) */\n  dup2\n  swap1\n  sstore\n  pop\n    /* \"contracts/Distribution/AtlantisDistribution.sol\":806:816  decimals() */\n  tag_46\n    /* \"contracts/Distribution/AtlantisDistribution.sol\":806:814  decimals */\n  shl(0x20, tag_29)\n    /* \"contracts/Distribution/AtlantisDistribution.sol\":806:816  decimals() */\n  0x20\n  shr\n  jump\t// in\ntag_46:\n    /* \"contracts/Distribution/AtlantisDistribution.sol\":801:817  uint(decimals()) */\n  0xff\n  and\n    /* \"contracts/Distribution/AtlantisDistribution.sol\":797:799  10 */\n  0x0a\n    /* \"contracts/Distribution/AtlantisDistribution.sol\":797:817  10**uint(decimals()) */\n  tag_47\n  swap2\n  swap1\n  tag_31\n  jump\t// in\ntag_47:\n    /* \"contracts/Distribution/AtlantisDistribution.sol\":787:791  cury */\n  0x09\n    /* \"contracts/Distribution/AtlantisDistribution.sol\":792:793  2 */\n  0x02\n    /* \"contracts/Distribution/AtlantisDistribution.sol\":787:794  cury[2] */\n  dup2\n  sload\n  dup2\n  lt\n  tag_48\n  jumpi\n  tag_49\n  tag_39\n  jump\t// in\ntag_49:\ntag_48:\n  swap1\n  0x00\n  mstore\n  keccak256(0x00, 0x20)\n  add\n    /* \"contracts/Distribution/AtlantisDistribution.sol\":787:817  cury[2] = 10**uint(decimals()) */\n  dup2\n  swap1\n  sstore\n  pop\n    /* \"contracts/Distribution/AtlantisDistribution.sol\":859:869  decimals() */\n  tag_51\n    /* \"contracts/Distribution/AtlantisDistribution.sol\":859:867  decimals */\n  shl(0x20, tag_29)\n    /* \"contracts/Distribution/AtlantisDistribution.sol\":859:869  decimals() */\n  0x20\n  shr\n  jump\t// in\ntag_51:\n    /* \"contracts/Distribution/AtlantisDistribution.sol\":854:870  uint(decimals()) */\n  0xff\n  and\n    /* \"contracts/Distribution/AtlantisDistribution.sol\":850:852  10 */\n  0x0a\n    /* \"contracts/Distribution/AtlantisDistribution.sol\":850:870  10**uint(decimals()) */\n  tag_52\n  swap2\n  swap1\n  tag_31\n  jump\t// in\ntag_52:\n    /* \"contracts/Distribution/AtlantisDistribution.sol\":838:847  300000000 */\n  0x11e1a300\n    /* \"contracts/Distribution/AtlantisDistribution.sol\":838:870  300000000 * 10**uint(decimals()) */\n  tag_53\n  swap2\n  swap1\n  tag_33\n  jump\t// in\ntag_53:\n    /* \"contracts/Distribution/AtlantisDistribution.sol\":827:832  total */\n  0x0a\n    /* \"contracts/Distribution/AtlantisDistribution.sol\":833:834  0 */\n  0x00\n    /* \"contracts/Distribution/AtlantisDistribution.sol\":827:835  total[0] */\n  dup2\n  sload\n  dup2\n  lt\n  tag_54\n  jumpi\n  tag_55\n  tag_39\n  jump\t// in\ntag_55:\ntag_54:\n  swap1\n  0x00\n  mstore\n  keccak256(0x00, 0x20)\n  add\n    /* \"contracts/Distribution/AtlantisDistribution.sol\":827:870  total[0] = 300000000 * 10**uint(decimals()) */\n  dup2\n  swap1\n  sstore\n  pop\n    /* \"contracts/Distribution/AtlantisDistribution.sol\":894:906  _fund_wallet */\n  dup1\n    /* \"contracts/Distribution/AtlantisDistribution.sol\":880:891  fund_wallet */\n  0x0b\n  0x00\n    /* \"contracts/Distribution/AtlantisDistribution.sol\":880:906  fund_wallet = _fund_wallet */\n  0x0100\n  exp\n  dup2\n  sload\n  dup2\n  0xffffffffffffffffffffffffffffffffffffffff\n  mul\n  not\n  and\n  swap1\n  dup4\n  0xffffffffffffffffffffffffffffffffffffffff\n  and\n  mul\n  or\n  swap1\n  sstore\n  pop\n    /* \"contracts/Distribution/AtlantisDistribution.sol\":532:913  constructor(string memory name, string memory symbol, address payable _fund_wallet) ERC20(name, symbol) {... */\n  pop\n  pop\n  pop\n    /* \"contracts/Distribution/AtlantisDistribution.sol\":206:3511  contract AtlantisDistribution is ERC20, Ownable {... */\n  jump(tag_57)\n    /* \"@openzeppelin/contracts/utils/Context.sol\":587:683  function _msgSender() internal view virtual returns (address) {... */\ntag_24:\n    /* \"@openzeppelin/contracts/utils/Context.sol\":640:647  address */\n  0x00\n    /* \"@openzeppelin/contracts/utils/Context.sol\":666:676  msg.sender */\n  caller\n    /* \"@openzeppelin/contracts/utils/Context.sol\":659:676  return msg.sender */\n  swap1\n  pop\n    /* \"@openzeppelin/contracts/utils/Context.sol\":587:683  function _msgSender() internal view virtual returns (address) {... */\n  swap1\n  jump\t// out\n    /* \"@openzeppelin/contracts/access/Ownable.sol\":2041:2210  function _setOwner(address newOwner) private {... */\ntag_25:\n    /* \"@openzeppelin/contracts/access/Ownable.sol\":2096:2112  address oldOwner */\n  0x00\n    /* \"@openzeppelin/contracts/access/Ownable.sol\":2115:2121  _owner */\n  0x05\n  0x00\n  swap1\n  sload\n  swap1\n  0x0100\n  exp\n  swap1\n  div\n  0xffffffffffffffffffffffffffffffffffffffff\n  and\n    /* \"@openzeppelin/contracts/access/Ownable.sol\":2096:2121  address oldOwner = _owner */\n  swap1\n  pop\n    /* \"@openzeppelin/contracts/access/Ownable.sol\":2140:2148  newOwner */\n  dup2\n    /* \"@openzeppelin/contracts/access/Ownable.sol\":2131:2137  _owner */\n  0x05\n  0x00\n    /* \"@openzeppelin/contracts/access/Ownable.sol\":2131:2148  _owner = newOwner */\n  0x0100\n  exp\n  dup2\n  sload\n  dup2\n  0xffffffffffffffffffffffffffffffffffffffff\n  mul\n  not\n  and\n  swap1\n  dup4\n  0xffffffffffffffffffffffffffffffffffffffff\n  and\n  mul\n  or\n  swap1\n  sstore\n  pop\n    /* \"@openzeppelin/contracts/access/Ownable.sol\":2194:2202  newOwner */\n  dup2\n    /* \"@openzeppelin/contracts/access/Ownable.sol\":2163:2203  OwnershipTransferred(oldOwner, newOwner) */\n  0xffffffffffffffffffffffffffffffffffffffff\n  and\n    /* \"@openzeppelin/contracts/access/Ownable.sol\":2184:2192  oldOwner */\n  dup2\n    /* \"@openzeppelin/contracts/access/Ownable.sol\":2163:2203  OwnershipTransferred(oldOwner, newOwner) */\n  0xffffffffffffffffffffffffffffffffffffffff\n  and\n  0x8be0079c531659141344cd1fd0a4f28419497f9722a3daafe3b4186f6b6457e0\n  mload(0x40)\n  mload(0x40)\n  dup1\n  swap2\n  sub\n  swap1\n  log3\n    /* \"@openzeppelin/contracts/access/Ownable.sol\":2086:2210  {... */\n  pop\n    /* \"@openzeppelin/contracts/access/Ownable.sol\":2041:2210  function _setOwner(address newOwner) private {... */\n  pop\n  jump\t// out\n    /* \"contracts/Distribution/WrappedERC20Token.sol\":2976:3058  function decimals() public view virtual returns (uint8) {... */\ntag_29:\n    /* \"contracts/Distribution/WrappedERC20Token.sol\":3025:3030  uint8 */\n  0x00\n    /* \"contracts/Distribution/WrappedERC20Token.sol\":3049:3051  18 */\n  0x12\n    /* \"contracts/Distribution/WrappedERC20Token.sol\":3042:3051  return 18 */\n  swap1\n  pop\n    /* \"contracts/Distribution/WrappedERC20Token.sol\":2976:3058  function decimals() public view virtual returns (uint8) {... */\n  swap1\n  jump\t// out\n    /* \"contracts/Distribution/WrappedERC20Token.sol\":7976:8306  function _mint(address account, uint256 amount) internal virtual {... */\ntag_34:\n    /* \"contracts/Distribution/WrappedERC20Token.sol\":8078:8079  0 */\n  0x00\n    /* \"contracts/Distribution/WrappedERC20Token.sol\":8059:8080  account != address(0) */\n  0xffffffffffffffffffffffffffffffffffffffff\n  and\n    /* \"contracts/Distribution/WrappedERC20Token.sol\":8059:8066  account */\n  dup3\n    /* \"contracts/Distribution/WrappedERC20Token.sol\":8059:8080  account != address(0) */\n  0xffffffffffffffffffffffffffffffffffffffff\n  and\n  sub\n    /* \"contracts/Distribution/WrappedERC20Token.sol\":8051:8116  require(account != address(0), \"ERC20: mint to the zero address\") */\n  tag_62\n  jumpi\n  mload(0x40)\n  0x08c379a000000000000000000000000000000000000000000000000000000000\n  dup2\n  mstore\n  0x04\n  add\n  tag_63\n  swap1\n  tag_64\n  jump\t// in\ntag_63:\n  mload(0x40)\n  dup1\n  swap2\n  sub\n  swap1\n  revert\ntag_62:\n    /* \"contracts/Distribution/WrappedERC20Token.sol\":8127:8176  _beforeTokenTransfer(address(0), account, amount) */\n  tag_65\n    /* \"contracts/Distribution/WrappedERC20Token.sol\":8156:8157  0 */\n  0x00\n    /* \"contracts/Distribution/WrappedERC20Token.sol\":8160:8167  account */\n  dup4\n    /* \"contracts/Distribution/WrappedERC20Token.sol\":8169:8175  amount */\n  dup4\n    /* \"contracts/Distribution/WrappedERC20Token.sol\":8127:8147  _beforeTokenTransfer */\n  shl(0x20, tag_66)\n    /* \"contracts/Distribution/WrappedERC20Token.sol\":8127:8176  _beforeTokenTransfer(address(0), account, amount) */\n  0x20\n  shr\n  jump\t// in\ntag_65:\n    /* \"contracts/Distribution/WrappedERC20Token.sol\":8203:8209  amount */\n  dup1\n    /* \"contracts/Distribution/WrappedERC20Token.sol\":8187:8199  _totalSupply */\n  0x02\n  0x00\n    /* \"contracts/Distribution/WrappedERC20Token.sol\":8187:8209  _totalSupply += amount */\n  dup3\n  dup3\n  sload\n  tag_67\n  swap2\n  swap1\n  tag_68\n  jump\t// in\ntag_67:\n  swap3\n  pop\n  pop\n  dup2\n  swap1\n  sstore\n  pop\n    /* \"contracts/Distribution/WrappedERC20Token.sol\":8241:8247  amount */\n  dup1\n    /* \"contracts/Distribution/WrappedERC20Token.sol\":8219:8228  _balances */\n  0x00\n    /* \"contracts/Distribution/WrappedERC20Token.sol\":8219:8237  _balances[account] */\n  dup1\n    /* \"contracts/Distribution/WrappedERC20Token.sol\":8229:8236  account */\n  dup5\n    /* \"contracts/Distribution/WrappedERC20Token.sol\":8219:8237  _balances[account] */\n  0xffffffffffffffffffffffffffffffffffffffff\n  and\n  0xffffffffffffffffffffffffffffffffffffffff\n  and\n  dup2\n  mstore\n  0x20\n  add\n  swap1\n  dup2\n  mstore\n  0x20\n  add\n  0x00\n  keccak256\n  0x00\n    /* \"contracts/Distribution/WrappedERC20Token.sol\":8219:8247  _balances[account] += amount */\n  dup3\n  dup3\n  sload\n  tag_69\n  swap2\n  swap1\n  tag_68\n  jump\t// in\ntag_69:\n  swap3\n  pop\n  pop\n  dup2\n  swap1\n  sstore\n  pop\n    /* \"contracts/Distribution/WrappedERC20Token.sol\":8283:8290  account */\n  dup2\n    /* \"contracts/Distribution/WrappedERC20Token.sol\":8262:8299  Transfer(address(0), account, amount) */\n  0xffffffffffffffffffffffffffffffffffffffff\n  and\n    /* \"contracts/Distribution/WrappedERC20Token.sol\":8279:8280  0 */\n  0x00\n    /* \"contracts/Distribution/WrappedERC20Token.sol\":8262:8299  Transfer(address(0), account, amount) */\n  0xffffffffffffffffffffffffffffffffffffffff\n  and\n  0xddf252ad1be2c89b69c2b068fc378daa952ba7f163c4a11628f55a4df523b3ef\n    /* \"contracts/Distribution/WrappedERC20Token.sol\":8292:8298  amount */\n  dup4\n    /* \"contracts/Distribution/WrappedERC20Token.sol\":8262:8299  Transfer(address(0), account, amount) */\n  mload(0x40)\n  tag_70\n  swap2\n  swap1\n  tag_71\n  jump\t// in\ntag_70:\n  mload(0x40)\n  dup1\n  swap2\n  sub\n  swap1\n  log3\n    /* \"contracts/Distribution/WrappedERC20Token.sol\":7976:8306  function _mint(address account, uint256 amount) internal virtual {... */\n  pop\n  pop\n  jump\t// out\n    /* \"contracts/Distribution/WrappedERC20Token.sol\":10459:10551  function _beforeTokenTransfer(address from, address to, uint256 amount) internal virtual { } */\ntag_66:\n  pop\n  pop\n  pop\n  jump\t// out\n    /* \"contracts/Distribution/AtlantisDistribution.sol\":206:3511  contract AtlantisDistribution is ERC20, Ownable {... */\ntag_6:\n  dup3\n  dup1\n  sload\n  dup3\n  dup3\n  sstore\n  swap1\n  0x00\n  mstore\n  keccak256(0x00, 0x20)\n  swap1\n  dup2\n  add\n  swap3\n  dup3\n  iszero\n  tag_73\n  jumpi\n  swap2\n  0x20\n  mul\n  dup3\n  add\ntag_74:\n  dup3\n  dup2\n  gt\n  iszero\n  tag_75\n  jumpi\n  dup3\n  mload\n  dup3\n  sstore\n  swap2\n  0x20\n  add\n  swap2\n  swap1\n  0x01\n  add\n  swap1\n  jump(tag_74)\ntag_75:\ntag_73:\n  pop\n  swap1\n  pop\n  tag_76\n  swap2\n  swap1\n  tag_77\n  jump\t// in\ntag_76:\n  pop\n  swap1\n  jump\t// out\ntag_19:\n  dup3\n  dup1\n  sload\n  tag_78\n  swap1\n  tag_79\n  jump\t// in\ntag_78:\n  swap1\n  0x00\n  mstore\n  keccak256(0x00, 0x20)\n  swap1\n  0x1f\n  add\n  0x20\n  swap1\n  div\n  dup2\n  add\n  swap3\n  dup3\n  tag_81\n  jumpi\n  0x00\n  dup6\n  sstore\n  jump(tag_80)\ntag_81:\n  dup3\n  0x1f\n  lt\n  tag_82\n  jumpi\n  dup1\n  mload\n  not(0xff)\n  and\n  dup4\n  dup1\n  add\n  or\n  dup6\n  sstore\n  jump(tag_80)\ntag_82:\n  dup3\n  dup1\n  add\n  0x01\n  add\n  dup6\n  sstore\n  dup3\n  iszero\n  tag_80\n  jumpi\n  swap2\n  dup3\n  add\ntag_83:\n  dup3\n  dup2\n  gt\n  iszero\n  tag_84\n  jumpi\n  dup3\n  mload\n  dup3\n  sstore\n  swap2\n  0x20\n  add\n  swap2\n  swap1\n  0x01\n  add\n  swap1\n  jump(tag_83)\ntag_84:\ntag_80:\n  pop\n  swap1\n  pop\n  tag_85\n  swap2\n  swap1\n  tag_77\n  jump\t// in\ntag_85:\n  pop\n  swap1\n  jump\t// out\ntag_77:\ntag_86:\n  dup1\n  dup3\n  gt\n  iszero\n  tag_87\n  jumpi\n  0x00\n  dup2\n  0x00\n  swap1\n  sstore\n  pop\n  0x01\n  add\n  jump(tag_86)\ntag_87:\n  pop\n  swap1\n  jump\t// out\n    /* \"#utility.yul\":7:187   */\ntag_3:\n    /* \"#utility.yul\":55:132   */\n  0x4e487b7100000000000000000000000000000000000000000000000000000000\n    /* \"#utility.yul\":52:53   */\n  0x00\n    /* \"#utility.yul\":45:133   */\n  mstore\n    /* \"#utility.yul\":152:156   */\n  0x41\n    /* \"#utility.yul\":149:150   */\n  0x04\n    /* \"#utility.yul\":142:157   */\n  mstore\n    /* \"#utility.yul\":176:180   */\n  0x24\n    /* \"#utility.yul\":173:174   */\n  0x00\n    /* \"#utility.yul\":166:181   */\n  revert\n    /* \"#utility.yul\":193:268   */\ntag_88:\n    /* \"#utility.yul\":226:232   */\n  0x00\n    /* \"#utility.yul\":259:261   */\n  0x40\n    /* \"#utility.yul\":253:262   */\n  mload\n    /* \"#utility.yul\":243:262   */\n  swap1\n  pop\n    /* \"#utility.yul\":193:268   */\n  swap1\n  jump\t// out\n    /* \"#utility.yul\":274:391   */\ntag_89:\n    /* \"#utility.yul\":383:384   */\n  0x00\n    /* \"#utility.yul\":380:381   */\n  dup1\n    /* \"#utility.yul\":373:385   */\n  revert\n    /* \"#utility.yul\":397:514   */\ntag_90:\n    /* \"#utility.yul\":506:507   */\n  0x00\n    /* \"#utility.yul\":503:504   */\n  dup1\n    /* \"#utility.yul\":496:508   */\n  revert\n    /* \"#utility.yul\":520:637   */\ntag_91:\n    /* \"#utility.yul\":629:630   */\n  0x00\n    /* \"#utility.yul\":626:627   */\n  dup1\n    /* \"#utility.yul\":619:631   */\n  revert\n    /* \"#utility.yul\":643:760   */\ntag_92:\n    /* \"#utility.yul\":752:753   */\n  0x00\n    /* \"#utility.yul\":749:750   */\n  dup1\n    /* \"#utility.yul\":742:754   */\n  revert\n    /* \"#utility.yul\":766:868   */\ntag_93:\n    /* \"#utility.yul\":807:813   */\n  0x00\n    /* \"#utility.yul\":858:860   */\n  0x1f\n    /* \"#utility.yul\":854:861   */\n  not\n    /* \"#utility.yul\":849:851   */\n  0x1f\n    /* \"#utility.yul\":842:847   */\n  dup4\n    /* \"#utility.yul\":838:852   */\n  add\n    /* \"#utility.yul\":834:862   */\n  and\n    /* \"#utility.yul\":824:862   */\n  swap1\n  pop\n    /* \"#utility.yul\":766:868   */\n  swap2\n  swap1\n  pop\n  jump\t// out\n    /* \"#utility.yul\":874:1155   */\ntag_94:\n    /* \"#utility.yul\":957:984   */\n  tag_123\n    /* \"#utility.yul\":979:983   */\n  dup3\n    /* \"#utility.yul\":957:984   */\n  tag_93\n  jump\t// in\ntag_123:\n    /* \"#utility.yul\":949:955   */\n  dup2\n    /* \"#utility.yul\":945:985   */\n  add\n    /* \"#utility.yul\":1087:1093   */\n  dup2\n    /* \"#utility.yul\":1075:1085   */\n  dup2\n    /* \"#utility.yul\":1072:1094   */\n  lt\n    /* \"#utility.yul\":1051:1069   */\n  0xffffffffffffffff\n    /* \"#utility.yul\":1039:1049   */\n  dup3\n    /* \"#utility.yul\":1036:1070   */\n  gt\n    /* \"#utility.yul\":1033:1095   */\n  or\n    /* \"#utility.yul\":1030:1118   */\n  iszero\n  tag_124\n  jumpi\n    /* \"#utility.yul\":1098:1116   */\n  tag_125\n  tag_3\n  jump\t// in\ntag_125:\n    /* \"#utility.yul\":1030:1118   */\ntag_124:\n    /* \"#utility.yul\":1138:1148   */\n  dup1\n    /* \"#utility.yul\":1134:1136   */\n  0x40\n    /* \"#utility.yul\":1127:1149   */\n  mstore\n    /* \"#utility.yul\":917:1155   */\n  pop\n    /* \"#utility.yul\":874:1155   */\n  pop\n  pop\n  jump\t// out\n    /* \"#utility.yul\":1161:1290   */\ntag_95:\n    /* \"#utility.yul\":1195:1201   */\n  0x00\n    /* \"#utility.yul\":1222:1242   */\n  tag_127\n  tag_88\n  jump\t// in\ntag_127:\n    /* \"#utility.yul\":1212:1242   */\n  swap1\n  pop\n    /* \"#utility.yul\":1251:1284   */\n  tag_128\n    /* \"#utility.yul\":1279:1283   */\n  dup3\n    /* \"#utility.yul\":1271:1277   */\n  dup3\n    /* \"#utility.yul\":1251:1284   */\n  tag_94\n  jump\t// in\ntag_128:\n    /* \"#utility.yul\":1161:1290   */\n  swap2\n  swap1\n  pop\n  jump\t// out\n    /* \"#utility.yul\":1296:1604   */\ntag_96:\n    /* \"#utility.yul\":1358:1362   */\n  0x00\n    /* \"#utility.yul\":1448:1466   */\n  0xffffffffffffffff\n    /* \"#utility.yul\":1440:1446   */\n  dup3\n    /* \"#utility.yul\":1437:1467   */\n  gt\n    /* \"#utility.yul\":1434:1490   */\n  iszero\n  tag_130\n  jumpi\n    /* \"#utility.yul\":1470:1488   */\n  tag_131\n  tag_3\n  jump\t// in\ntag_131:\n    /* \"#utility.yul\":1434:1490   */\ntag_130:\n    /* \"#utility.yul\":1508:1537   */\n  tag_132\n    /* \"#utility.yul\":1530:1536   */\n  dup3\n    /* \"#utility.yul\":1508:1537   */\n  tag_93\n  jump\t// in\ntag_132:\n    /* \"#utility.yul\":1500:1537   */\n  swap1\n  pop\n    /* \"#utility.yul\":1592:1596   */\n  0x20\n    /* \"#utility.yul\":1586:1590   */\n  dup2\n    /* \"#utility.yul\":1582:1597   */\n  add\n    /* \"#utility.yul\":1574:1597   */\n  swap1\n  pop\n    /* \"#utility.yul\":1296:1604   */\n  swap2\n  swap1\n  pop\n  jump\t// out\n    /* \"#utility.yul\":1610:1917   */\ntag_97:\n    /* \"#utility.yul\":1678:1679   */\n  0x00\n    /* \"#utility.yul\":1688:1801   */\ntag_134:\n    /* \"#utility.yul\":1702:1708   */\n  dup4\n    /* \"#utility.yul\":1699:1700   */\n  dup2\n    /* \"#utility.yul\":1696:1709   */\n  lt\n    /* \"#utility.yul\":1688:1801   */\n  iszero\n  tag_136\n  jumpi\n    /* \"#utility.yul\":1787:1788   */\n  dup1\n    /* \"#utility.yul\":1782:1785   */\n  dup3\n    /* \"#utility.yul\":1778:1789   */\n  add\n    /* \"#utility.yul\":1772:1790   */\n  mload\n    /* \"#utility.yul\":1768:1769   */\n  dup2\n    /* \"#utility.yul\":1763:1766   */\n  dup5\n    /* \"#utility.yul\":1759:1770   */\n  add\n    /* \"#utility.yul\":1752:1791   */\n  mstore\n    /* \"#utility.yul\":1724:1726   */\n  0x20\n    /* \"#utility.yul\":1721:1722   */\n  dup2\n    /* \"#utility.yul\":1717:1727   */\n  add\n    /* \"#utility.yul\":1712:1727   */\n  swap1\n  pop\n    /* \"#utility.yul\":1688:1801   */\n  jump(tag_134)\ntag_136:\n    /* \"#utility.yul\":1819:1825   */\n  dup4\n    /* \"#utility.yul\":1816:1817   */\n  dup2\n    /* \"#utility.yul\":1813:1826   */\n  gt\n    /* \"#utility.yul\":1810:1911   */\n  iszero\n  tag_137\n  jumpi\n    /* \"#utility.yul\":1899:1900   */\n  0x00\n    /* \"#utility.yul\":1890:1896   */\n  dup5\n    /* \"#utility.yul\":1885:1888   */\n  dup5\n    /* \"#utility.yul\":1881:1897   */\n  add\n    /* \"#utility.yul\":1874:1901   */\n  mstore\n    /* \"#utility.yul\":1810:1911   */\ntag_137:\n    /* \"#utility.yul\":1659:1917   */\n  pop\n    /* \"#utility.yul\":1610:1917   */\n  pop\n  pop\n  pop\n  jump\t// out\n    /* \"#utility.yul\":1923:2344   */\ntag_98:\n    /* \"#utility.yul\":2012:2017   */\n  0x00\n    /* \"#utility.yul\":2037:2103   */\n  tag_139\n    /* \"#utility.yul\":2053:2102   */\n  tag_140\n    /* \"#utility.yul\":2095:2101   */\n  dup5\n    /* \"#utility.yul\":2053:2102   */\n  tag_96\n  jump\t// in\ntag_140:\n    /* \"#utility.yul\":2037:2103   */\n  tag_95\n  jump\t// in\ntag_139:\n    /* \"#utility.yul\":2028:2103   */\n  swap1\n  pop\n    /* \"#utility.yul\":2126:2132   */\n  dup3\n    /* \"#utility.yul\":2119:2124   */\n  dup2\n    /* \"#utility.yul\":2112:2133   */\n  mstore\n    /* \"#utility.yul\":2164:2168   */\n  0x20\n    /* \"#utility.yul\":2157:2162   */\n  dup2\n    /* \"#utility.yul\":2153:2169   */\n  add\n    /* \"#utility.yul\":2202:2205   */\n  dup5\n    /* \"#utility.yul\":2193:2199   */\n  dup5\n    /* \"#utility.yul\":2188:2191   */\n  dup5\n    /* \"#utility.yul\":2184:2200   */\n  add\n    /* \"#utility.yul\":2181:2206   */\n  gt\n    /* \"#utility.yul\":2178:2290   */\n  iszero\n  tag_141\n  jumpi\n    /* \"#utility.yul\":2209:2288   */\n  tag_142\n  tag_92\n  jump\t// in\ntag_142:\n    /* \"#utility.yul\":2178:2290   */\ntag_141:\n    /* \"#utility.yul\":2299:2338   */\n  tag_143\n    /* \"#utility.yul\":2331:2337   */\n  dup5\n    /* \"#utility.yul\":2326:2329   */\n  dup3\n    /* \"#utility.yul\":2321:2324   */\n  dup6\n    /* \"#utility.yul\":2299:2338   */\n  tag_97\n  jump\t// in\ntag_143:\n    /* \"#utility.yul\":2018:2344   */\n  pop\n    /* \"#utility.yul\":1923:2344   */\n  swap4\n  swap3\n  pop\n  pop\n  pop\n  jump\t// out\n    /* \"#utility.yul\":2364:2719   */\ntag_99:\n    /* \"#utility.yul\":2431:2436   */\n  0x00\n    /* \"#utility.yul\":2480:2483   */\n  dup3\n    /* \"#utility.yul\":2473:2477   */\n  0x1f\n    /* \"#utility.yul\":2465:2471   */\n  dup4\n    /* \"#utility.yul\":2461:2478   */\n  add\n    /* \"#utility.yul\":2457:2484   */\n  slt\n    /* \"#utility.yul\":2447:2569   */\n  tag_145\n  jumpi\n    /* \"#utility.yul\":2488:2567   */\n  tag_146\n  tag_91\n  jump\t// in\ntag_146:\n    /* \"#utility.yul\":2447:2569   */\ntag_145:\n    /* \"#utility.yul\":2598:2604   */\n  dup2\n    /* \"#utility.yul\":2592:2605   */\n  mload\n    /* \"#utility.yul\":2623:2713   */\n  tag_147\n    /* \"#utility.yul\":2709:2712   */\n  dup5\n    /* \"#utility.yul\":2701:2707   */\n  dup3\n    /* \"#utility.yul\":2694:2698   */\n  0x20\n    /* \"#utility.yul\":2686:2692   */\n  dup7\n    /* \"#utility.yul\":2682:2699   */\n  add\n    /* \"#utility.yul\":2623:2713   */\n  tag_98\n  jump\t// in\ntag_147:\n    /* \"#utility.yul\":2614:2713   */\n  swap2\n  pop\n    /* \"#utility.yul\":2437:2719   */\n  pop\n    /* \"#utility.yul\":2364:2719   */\n  swap3\n  swap2\n  pop\n  pop\n  jump\t// out\n    /* \"#utility.yul\":2725:2851   */\ntag_100:\n    /* \"#utility.yul\":2762:2769   */\n  0x00\n    /* \"#utility.yul\":2802:2844   */\n  0xffffffffffffffffffffffffffffffffffffffff\n    /* \"#utility.yul\":2795:2800   */\n  dup3\n    /* \"#utility.yul\":2791:2845   */\n  and\n    /* \"#utility.yul\":2780:2845   */\n  swap1\n  pop\n    /* \"#utility.yul\":2725:2851   */\n  swap2\n  swap1\n  pop\n  jump\t// out\n    /* \"#utility.yul\":2857:2961   */\ntag_101:\n    /* \"#utility.yul\":2902:2909   */\n  0x00\n    /* \"#utility.yul\":2931:2955   */\n  tag_150\n    /* \"#utility.yul\":2949:2954   */\n  dup3\n    /* \"#utility.yul\":2931:2955   */\n  tag_100\n  jump\t// in\ntag_150:\n    /* \"#utility.yul\":2920:2955   */\n  swap1\n  pop\n    /* \"#utility.yul\":2857:2961   */\n  swap2\n  swap1\n  pop\n  jump\t// out\n    /* \"#utility.yul\":2967:3105   */\ntag_102:\n    /* \"#utility.yul\":3048:3080   */\n  tag_152\n    /* \"#utility.yul\":3074:3079   */\n  dup2\n    /* \"#utility.yul\":3048:3080   */\n  tag_101\n  jump\t// in\ntag_152:\n    /* \"#utility.yul\":3041:3046   */\n  dup2\n    /* \"#utility.yul\":3038:3081   */\n  eq\n    /* \"#utility.yul\":3028:3099   */\n  tag_153\n  jumpi\n    /* \"#utility.yul\":3095:3096   */\n  0x00\n    /* \"#utility.yul\":3092:3093   */\n  dup1\n    /* \"#utility.yul\":3085:3097   */\n  revert\n    /* \"#utility.yul\":3028:3099   */\ntag_153:\n    /* \"#utility.yul\":2967:3105   */\n  pop\n  jump\t// out\n    /* \"#utility.yul\":3111:3270   */\ntag_103:\n    /* \"#utility.yul\":3176:3181   */\n  0x00\n    /* \"#utility.yul\":3207:3213   */\n  dup2\n    /* \"#utility.yul\":3201:3214   */\n  mload\n    /* \"#utility.yul\":3192:3214   */\n  swap1\n  pop\n    /* \"#utility.yul\":3223:3264   */\n  tag_155\n    /* \"#utility.yul\":3258:3263   */\n  dup2\n    /* \"#utility.yul\":3223:3264   */\n  tag_102\n  jump\t// in\ntag_155:\n    /* \"#utility.yul\":3111:3270   */\n  swap3\n  swap2\n  pop\n  pop\n  jump\t// out\n    /* \"#utility.yul\":3276:4301   */\ntag_13:\n    /* \"#utility.yul\":3392:3398   */\n  0x00\n    /* \"#utility.yul\":3400:3406   */\n  dup1\n    /* \"#utility.yul\":3408:3414   */\n  0x00\n    /* \"#utility.yul\":3457:3459   */\n  0x60\n    /* \"#utility.yul\":3445:3454   */\n  dup5\n    /* \"#utility.yul\":3436:3443   */\n  dup7\n    /* \"#utility.yul\":3432:3455   */\n  sub\n    /* \"#utility.yul\":3428:3460   */\n  slt\n    /* \"#utility.yul\":3425:3544   */\n  iszero\n  tag_157\n  jumpi\n    /* \"#utility.yul\":3463:3542   */\n  tag_158\n  tag_89\n  jump\t// in\ntag_158:\n    /* \"#utility.yul\":3425:3544   */\ntag_157:\n    /* \"#utility.yul\":3604:3605   */\n  0x00\n    /* \"#utility.yul\":3593:3602   */\n  dup5\n    /* \"#utility.yul\":3589:3606   */\n  add\n    /* \"#utility.yul\":3583:3607   */\n  mload\n    /* \"#utility.yul\":3634:3652   */\n  0xffffffffffffffff\n    /* \"#utility.yul\":3626:3632   */\n  dup2\n    /* \"#utility.yul\":3623:3653   */\n  gt\n    /* \"#utility.yul\":3620:3737   */\n  iszero\n  tag_159\n  jumpi\n    /* \"#utility.yul\":3656:3735   */\n  tag_160\n  tag_90\n  jump\t// in\ntag_160:\n    /* \"#utility.yul\":3620:3737   */\ntag_159:\n    /* \"#utility.yul\":3761:3835   */\n  tag_161\n    /* \"#utility.yul\":3827:3834   */\n  dup7\n    /* \"#utility.yul\":3818:3824   */\n  dup3\n    /* \"#utility.yul\":3807:3816   */\n  dup8\n    /* \"#utility.yul\":3803:3825   */\n  add\n    /* \"#utility.yul\":3761:3835   */\n  tag_99\n  jump\t// in\ntag_161:\n    /* \"#utility.yul\":3751:3835   */\n  swap4\n  pop\n    /* \"#utility.yul\":3554:3845   */\n  pop\n    /* \"#utility.yul\":3905:3907   */\n  0x20\n    /* \"#utility.yul\":3894:3903   */\n  dup5\n    /* \"#utility.yul\":3890:3908   */\n  add\n    /* \"#utility.yul\":3884:3909   */\n  mload\n    /* \"#utility.yul\":3936:3954   */\n  0xffffffffffffffff\n    /* \"#utility.yul\":3928:3934   */\n  dup2\n    /* \"#utility.yul\":3925:3955   */\n  gt\n    /* \"#utility.yul\":3922:4039   */\n  iszero\n  tag_162\n  jumpi\n    /* \"#utility.yul\":3958:4037   */\n  tag_163\n  tag_90\n  jump\t// in\ntag_163:\n    /* \"#utility.yul\":3922:4039   */\ntag_162:\n    /* \"#utility.yul\":4063:4137   */\n  tag_164\n    /* \"#utility.yul\":4129:4136   */\n  dup7\n    /* \"#utility.yul\":4120:4126   */\n  dup3\n    /* \"#utility.yul\":4109:4118   */\n  dup8\n    /* \"#utility.yul\":4105:4127   */\n  add\n    /* \"#utility.yul\":4063:4137   */\n  tag_99\n  jump\t// in\ntag_164:\n    /* \"#utility.yul\":4053:4137   */\n  swap3\n  pop\n    /* \"#utility.yul\":3855:4147   */\n  pop\n    /* \"#utility.yul\":4186:4188   */\n  0x40\n    /* \"#utility.yul\":4212:4284   */\n  tag_165\n    /* \"#utility.yul\":4276:4283   */\n  dup7\n    /* \"#utility.yul\":4267:4273   */\n  dup3\n    /* \"#utility.yul\":4256:4265   */\n  dup8\n    /* \"#utility.yul\":4252:4274   */\n  add\n    /* \"#utility.yul\":4212:4284   */\n  tag_103\n  jump\t// in\ntag_165:\n    /* \"#utility.yul\":4202:4284   */\n  swap2\n  pop\n    /* \"#utility.yul\":4157:4294   */\n  pop\n    /* \"#utility.yul\":3276:4301   */\n  swap3\n  pop\n  swap3\n  pop\n  swap3\n  jump\t// out\n    /* \"#utility.yul\":4307:4487   */\ntag_104:\n    /* \"#utility.yul\":4355:4432   */\n  0x4e487b7100000000000000000000000000000000000000000000000000000000\n    /* \"#utility.yul\":4352:4353   */\n  0x00\n    /* \"#utility.yul\":4345:4433   */\n  mstore\n    /* \"#utility.yul\":4452:4456   */\n  0x11\n    /* \"#utility.yul\":4449:4450   */\n  0x04\n    /* \"#utility.yul\":4442:4457   */\n  mstore\n    /* \"#utility.yul\":4476:4480   */\n  0x24\n    /* \"#utility.yul\":4473:4474   */\n  0x00\n    /* \"#utility.yul\":4466:4481   */\n  revert\n    /* \"#utility.yul\":4493:4595   */\ntag_105:\n    /* \"#utility.yul\":4535:4543   */\n  0x00\n    /* \"#utility.yul\":4582:4587   */\n  dup2\n    /* \"#utility.yul\":4579:4580   */\n  0x01\n    /* \"#utility.yul\":4575:4588   */\n  shr\n    /* \"#utility.yul\":4554:4588   */\n  swap1\n  pop\n    /* \"#utility.yul\":4493:4595   */\n  swap2\n  swap1\n  pop\n  jump\t// out\n    /* \"#utility.yul\":4601:5449   */\ntag_106:\n    /* \"#utility.yul\":4662:4667   */\n  0x00\n    /* \"#utility.yul\":4669:4673   */\n  dup1\n    /* \"#utility.yul\":4693:4699   */\n  dup3\n    /* \"#utility.yul\":4684:4699   */\n  swap2\n  pop\n    /* \"#utility.yul\":4717:4722   */\n  dup4\n    /* \"#utility.yul\":4708:4722   */\n  swap1\n  pop\n    /* \"#utility.yul\":4731:5443   */\ntag_169:\n    /* \"#utility.yul\":4752:4753   */\n  0x01\n    /* \"#utility.yul\":4742:4750   */\n  dup6\n    /* \"#utility.yul\":4739:4754   */\n  gt\n    /* \"#utility.yul\":4731:5443   */\n  iszero\n  tag_171\n  jumpi\n    /* \"#utility.yul\":4847:4851   */\n  dup1\n    /* \"#utility.yul\":4842:4845   */\n  dup7\n    /* \"#utility.yul\":4838:4852   */\n  div\n    /* \"#utility.yul\":4832:4836   */\n  dup2\n    /* \"#utility.yul\":4829:4853   */\n  gt\n    /* \"#utility.yul\":4826:4876   */\n  iszero\n  tag_172\n  jumpi\n    /* \"#utility.yul\":4856:4874   */\n  tag_173\n  tag_104\n  jump\t// in\ntag_173:\n    /* \"#utility.yul\":4826:4876   */\ntag_172:\n    /* \"#utility.yul\":4906:4907   */\n  0x01\n    /* \"#utility.yul\":4896:4904   */\n  dup6\n    /* \"#utility.yul\":4892:4908   */\n  and\n    /* \"#utility.yul\":4889:5340   */\n  iszero\n  tag_174\n  jumpi\n    /* \"#utility.yul\":5321:5325   */\n  dup1\n    /* \"#utility.yul\":5314:5319   */\n  dup3\n    /* \"#utility.yul\":5310:5326   */\n  mul\n    /* \"#utility.yul\":5301:5326   */\n  swap2\n  pop\n    /* \"#utility.yul\":4889:5340   */\ntag_174:\n    /* \"#utility.yul\":5371:5375   */\n  dup1\n    /* \"#utility.yul\":5365:5369   */\n  dup2\n    /* \"#utility.yul\":5361:5376   */\n  mul\n    /* \"#utility.yul\":5353:5376   */\n  swap1\n  pop\n    /* \"#utility.yul\":5401:5433   */\n  tag_175\n    /* \"#utility.yul\":5424:5432   */\n  dup6\n    /* \"#utility.yul\":5401:5433   */\n  tag_105\n  jump\t// in\ntag_175:\n    /* \"#utility.yul\":5389:5433   */\n  swap5\n  pop\n    /* \"#utility.yul\":4731:5443   */\n  jump(tag_169)\ntag_171:\n    /* \"#utility.yul\":4601:5449   */\n  swap5\n  pop\n  swap5\n  swap3\n  pop\n  pop\n  pop\n  jump\t// out\n    /* \"#utility.yul\":5455:6528   */\ntag_107:\n    /* \"#utility.yul\":5509:5514   */\n  0x00\n    /* \"#utility.yul\":5700:5708   */\n  dup3\n    /* \"#utility.yul\":5690:5730   */\n  tag_177\n  jumpi\n    /* \"#utility.yul\":5721:5722   */\n  0x01\n    /* \"#utility.yul\":5712:5722   */\n  swap1\n  pop\n    /* \"#utility.yul\":5723:5728   */\n  jump(tag_176)\n    /* \"#utility.yul\":5690:5730   */\ntag_177:\n    /* \"#utility.yul\":5749:5753   */\n  dup2\n    /* \"#utility.yul\":5739:5775   */\n  tag_178\n  jumpi\n    /* \"#utility.yul\":5766:5767   */\n  0x00\n    /* \"#utility.yul\":5757:5767   */\n  swap1\n  pop\n    /* \"#utility.yul\":5768:5773   */\n  jump(tag_176)\n    /* \"#utility.yul\":5739:5775   */\ntag_178:\n    /* \"#utility.yul\":5835:5839   */\n  dup2\n    /* \"#utility.yul\":5883:5884   */\n  0x01\n    /* \"#utility.yul\":5878:5905   */\n  dup2\n  eq\n  tag_180\n  jumpi\n    /* \"#utility.yul\":5919:5920   */\n  0x02\n    /* \"#utility.yul\":5914:6105   */\n  dup2\n  eq\n  tag_181\n  jumpi\n    /* \"#utility.yul\":5828:6105   */\n  jump(tag_179)\n    /* \"#utility.yul\":5878:5905   */\ntag_180:\n    /* \"#utility.yul\":5896:5897   */\n  0x01\n    /* \"#utility.yul\":5887:5897   */\n  swap2\n  pop\n    /* \"#utility.yul\":5898:5903   */\n  pop\n  jump(tag_176)\n    /* \"#utility.yul\":5914:6105   */\ntag_181:\n    /* \"#utility.yul\":5959:5962   */\n  0xff\n    /* \"#utility.yul\":5949:5957   */\n  dup5\n    /* \"#utility.yul\":5946:5963   */\n  gt\n    /* \"#utility.yul\":5943:5986   */\n  iszero\n  tag_182\n  jumpi\n    /* \"#utility.yul\":5966:5984   */\n  tag_183\n  tag_104\n  jump\t// in\ntag_183:\n    /* \"#utility.yul\":5943:5986   */\ntag_182:\n    /* \"#utility.yul\":6015:6023   */\n  dup4\n    /* \"#utility.yul\":6012:6013   */\n  0x02\n    /* \"#utility.yul\":6008:6024   */\n  exp\n    /* \"#utility.yul\":5999:6024   */\n  swap2\n  pop\n    /* \"#utility.yul\":6050:6053   */\n  dup5\n    /* \"#utility.yul\":6043:6048   */\n  dup3\n    /* \"#utility.yul\":6040:6054   */\n  gt\n    /* \"#utility.yul\":6037:6077   */\n  iszero\n  tag_184\n  jumpi\n    /* \"#utility.yul\":6057:6075   */\n  tag_185\n  tag_104\n  jump\t// in\ntag_185:\n    /* \"#utility.yul\":6037:6077   */\ntag_184:\n    /* \"#utility.yul\":6090:6095   */\n  pop\n  jump(tag_176)\n    /* \"#utility.yul\":5828:6105   */\ntag_179:\n  pop\n    /* \"#utility.yul\":6214:6216   */\n  0x20\n    /* \"#utility.yul\":6204:6212   */\n  dup4\n    /* \"#utility.yul\":6201:6217   */\n  lt\n    /* \"#utility.yul\":6195:6198   */\n  0x0133\n    /* \"#utility.yul\":6189:6193   */\n  dup4\n    /* \"#utility.yul\":6186:6199   */\n  lt\n    /* \"#utility.yul\":6182:6218   */\n  and\n    /* \"#utility.yul\":6164:6166   */\n  0x4e\n    /* \"#utility.yul\":6154:6162   */\n  dup5\n    /* \"#utility.yul\":6151:6167   */\n  lt\n    /* \"#utility.yul\":6146:6148   */\n  0x0b\n    /* \"#utility.yul\":6140:6144   */\n  dup5\n    /* \"#utility.yul\":6137:6149   */\n  lt\n    /* \"#utility.yul\":6133:6168   */\n  and\n    /* \"#utility.yul\":6117:6228   */\n  or\n    /* \"#utility.yul\":6114:6360   */\n  iszero\n  tag_186\n  jumpi\n    /* \"#utility.yul\":6270:6278   */\n  dup3\n    /* \"#utility.yul\":6264:6268   */\n  dup3\n    /* \"#utility.yul\":6260:6279   */\n  exp\n    /* \"#utility.yul\":6251:6279   */\n  swap1\n  pop\n    /* \"#utility.yul\":6305:6308   */\n  dup4\n    /* \"#utility.yul\":6298:6303   */\n  dup2\n    /* \"#utility.yul\":6295:6309   */\n  gt\n    /* \"#utility.yul\":6292:6332   */\n  iszero\n  tag_187\n  jumpi\n    /* \"#utility.yul\":6312:6330   */\n  tag_188\n  tag_104\n  jump\t// in\ntag_188:\n    /* \"#utility.yul\":6292:6332   */\ntag_187:\n    /* \"#utility.yul\":6345:6350   */\n  jump(tag_176)\n    /* \"#utility.yul\":6114:6360   */\ntag_186:\n    /* \"#utility.yul\":6385:6427   */\n  tag_189\n    /* \"#utility.yul\":6423:6426   */\n  dup5\n    /* \"#utility.yul\":6413:6421   */\n  dup5\n    /* \"#utility.yul\":6407:6411   */\n  dup5\n    /* \"#utility.yul\":6404:6405   */\n  0x01\n    /* \"#utility.yul\":6385:6427   */\n  tag_106\n  jump\t// in\ntag_189:\n    /* \"#utility.yul\":6370:6427   */\n  swap3\n  pop\n  swap1\n  pop\n    /* \"#utility.yul\":6459:6463   */\n  dup2\n    /* \"#utility.yul\":6454:6457   */\n  dup5\n    /* \"#utility.yul\":6450:6464   */\n  div\n    /* \"#utility.yul\":6443:6448   */\n  dup2\n    /* \"#utility.yul\":6440:6465   */\n  gt\n    /* \"#utility.yul\":6437:6488   */\n  iszero\n  tag_190\n  jumpi\n    /* \"#utility.yul\":6468:6486   */\n  tag_191\n  tag_104\n  jump\t// in\ntag_191:\n    /* \"#utility.yul\":6437:6488   */\ntag_190:\n    /* \"#utility.yul\":6517:6521   */\n  dup2\n    /* \"#utility.yul\":6510:6515   */\n  dup2\n    /* \"#utility.yul\":6506:6522   */\n  mul\n    /* \"#utility.yul\":6497:6522   */\n  swap1\n  pop\n    /* \"#utility.yul\":5455:6528   */\ntag_176:\n  swap4\n  swap3\n  pop\n  pop\n  pop\n  jump\t// out\n    /* \"#utility.yul\":6534:6611   */\ntag_108:\n    /* \"#utility.yul\":6571:6578   */\n  0x00\n    /* \"#utility.yul\":6600:6605   */\n  dup2\n    /* \"#utility.yul\":6589:6605   */\n  swap1\n  pop\n    /* \"#utility.yul\":6534:6611   */\n  swap2\n  swap1\n  pop\n  jump\t// out\n    /* \"#utility.yul\":6617:6902   */\ntag_31:\n    /* \"#utility.yul\":6677:6682   */\n  0x00\n    /* \"#utility.yul\":6701:6724   */\n  tag_194\n    /* \"#utility.yul\":6719:6723   */\n  dup3\n    /* \"#utility.yul\":6701:6724   */\n  tag_108\n  jump\t// in\ntag_194:\n    /* \"#utility.yul\":6693:6724   */\n  swap2\n  pop\n    /* \"#utility.yul\":6745:6772   */\n  tag_195\n    /* \"#utility.yul\":6763:6771   */\n  dup4\n    /* \"#utility.yul\":6745:6772   */\n  tag_108\n  jump\t// in\ntag_195:\n    /* \"#utility.yul\":6733:6772   */\n  swap3\n  pop\n    /* \"#utility.yul\":6791:6895   */\n  tag_196\n    /* \"#utility.yul\":6828:6894   */\n  0xffffffffffffffffffffffffffffffffffffffffffffffffffffffffffffffff\n    /* \"#utility.yul\":6818:6826   */\n  dup5\n    /* \"#utility.yul\":6812:6816   */\n  dup5\n    /* \"#utility.yul\":6791:6895   */\n  tag_107\n  jump\t// in\ntag_196:\n    /* \"#utility.yul\":6782:6895   */\n  swap1\n  pop\n    /* \"#utility.yul\":6617:6902   */\n  swap3\n  swap2\n  pop\n  pop\n  jump\t// out\n    /* \"#utility.yul\":6908:7256   */\ntag_33:\n    /* \"#utility.yul\":6948:6955   */\n  0x00\n    /* \"#utility.yul\":6971:6991   */\n  tag_198\n    /* \"#utility.yul\":6989:6990   */\n  dup3\n    /* \"#utility.yul\":6971:6991   */\n  tag_108\n  jump\t// in\ntag_198:\n    /* \"#utility.yul\":6966:6991   */\n  swap2\n  pop\n    /* \"#utility.yul\":7005:7025   */\n  tag_199\n    /* \"#utility.yul\":7023:7024   */\n  dup4\n    /* \"#utility.yul\":7005:7025   */\n  tag_108\n  jump\t// in\ntag_199:\n    /* \"#utility.yul\":7000:7025   */\n  swap3\n  pop\n    /* \"#utility.yul\":7193:7194   */\n  dup2\n    /* \"#utility.yul\":7125:7191   */\n  0xffffffffffffffffffffffffffffffffffffffffffffffffffffffffffffffff\n    /* \"#utility.yul\":7121:7195   */\n  div\n    /* \"#utility.yul\":7118:7119   */\n  dup4\n    /* \"#utility.yul\":7115:7196   */\n  gt\n    /* \"#utility.yul\":7110:7111   */\n  dup3\n    /* \"#utility.yul\":7103:7112   */\n  iszero\n    /* \"#utility.yul\":7096:7113   */\n  iszero\n    /* \"#utility.yul\":7092:7197   */\n  and\n    /* \"#utility.yul\":7089:7220   */\n  iszero\n  tag_200\n  jumpi\n    /* \"#utility.yul\":7200:7218   */\n  tag_201\n  tag_104\n  jump\t// in\ntag_201:\n    /* \"#utility.yul\":7089:7220   */\ntag_200:\n    /* \"#utility.yul\":7248:7249   */\n  dup3\n    /* \"#utility.yul\":7245:7246   */\n  dup3\n    /* \"#utility.yul\":7241:7250   */\n  mul\n    /* \"#utility.yul\":7230:7250   */\n  swap1\n  pop\n    /* \"#utility.yul\":6908:7256   */\n  swap3\n  swap2\n  pop\n  pop\n  jump\t// out\n    /* \"#utility.yul\":7262:7442   */\ntag_39:\n    /* \"#utility.yul\":7310:7387   */\n  0x4e487b7100000000000000000000000000000000000000000000000000000000\n    /* \"#utility.yul\":7307:7308   */\n  0x00\n    /* \"#utility.yul\":7300:7388   */\n  mstore\n    /* \"#utility.yul\":7407:7411   */\n  0x32\n    /* \"#utility.yul\":7404:7405   */\n  0x04\n    /* \"#utility.yul\":7397:7412   */\n  mstore\n    /* \"#utility.yul\":7431:7435   */\n  0x24\n    /* \"#utility.yul\":7428:7429   */\n  0x00\n    /* \"#utility.yul\":7421:7436   */\n  revert\n    /* \"#utility.yul\":7448:7617   */\ntag_109:\n    /* \"#utility.yul\":7532:7543   */\n  0x00\n    /* \"#utility.yul\":7566:7572   */\n  dup3\n    /* \"#utility.yul\":7561:7564   */\n  dup3\n    /* \"#utility.yul\":7554:7573   */\n  mstore\n    /* \"#utility.yul\":7606:7610   */\n  0x20\n    /* \"#utility.yul\":7601:7604   */\n  dup3\n    /* \"#utility.yul\":7597:7611   */\n  add\n    /* \"#utility.yul\":7582:7611   */\n  swap1\n  pop\n    /* \"#utility.yul\":7448:7617   */\n  swap3\n  swap2\n  pop\n  pop\n  jump\t// out\n    /* \"#utility.yul\":7623:7804   */\ntag_110:\n    /* \"#utility.yul\":7763:7796   */\n  0x45524332303a206d696e7420746f20746865207a65726f206164647265737300\n    /* \"#utility.yul\":7759:7760   */\n  0x00\n    /* \"#utility.yul\":7751:7757   */\n  dup3\n    /* \"#utility.yul\":7747:7761   */\n  add\n    /* \"#utility.yul\":7740:7797   */\n  mstore\n    /* \"#utility.yul\":7623:7804   */\n  pop\n  jump\t// out\n    /* \"#utility.yul\":7810:8176   */\ntag_111:\n    /* \"#utility.yul\":7952:7955   */\n  0x00\n    /* \"#utility.yul\":7973:8040   */\n  tag_206\n    /* \"#utility.yul\":8037:8039   */\n  0x1f\n    /* \"#utility.yul\":8032:8035   */\n  dup4\n    /* \"#utility.yul\":7973:8040   */\n  tag_109\n  jump\t// in\ntag_206:\n    /* \"#utility.yul\":7966:8040   */\n  swap2\n  pop\n    /* \"#utility.yul\":8049:8142   */\n  tag_207\n    /* \"#utility.yul\":8138:8141   */\n  dup3\n    /* \"#utility.yul\":8049:8142   */\n  tag_110\n  jump\t// in\ntag_207:\n    /* \"#utility.yul\":8167:8169   */\n  0x20\n    /* \"#utility.yul\":8162:8165   */\n  dup3\n    /* \"#utility.yul\":8158:8170   */\n  add\n    /* \"#utility.yul\":8151:8170   */\n  swap1\n  pop\n    /* \"#utility.yul\":7810:8176   */\n  swap2\n  swap1\n  pop\n  jump\t// out\n    /* \"#utility.yul\":8182:8601   */\ntag_64:\n    /* \"#utility.yul\":8348:8352   */\n  0x00\n    /* \"#utility.yul\":8386:8388   */\n  0x20\n    /* \"#utility.yul\":8375:8384   */\n  dup3\n    /* \"#utility.yul\":8371:8389   */\n  add\n    /* \"#utility.yul\":8363:8389   */\n  swap1\n  pop\n    /* \"#utility.yul\":8435:8444   */\n  dup2\n    /* \"#utility.yul\":8429:8433   */\n  dup2\n    /* \"#utility.yul\":8425:8445   */\n  sub\n    /* \"#utility.yul\":8421:8422   */\n  0x00\n    /* \"#utility.yul\":8410:8419   */\n  dup4\n    /* \"#utility.yul\":8406:8423   */\n  add\n    /* \"#utility.yul\":8399:8446   */\n  mstore\n    /* \"#utility.yul\":8463:8594   */\n  tag_209\n    /* \"#utility.yul\":8589:8593   */\n  dup2\n    /* \"#utility.yul\":8463:8594   */\n  tag_111\n  jump\t// in\ntag_209:\n    /* \"#utility.yul\":8455:8594   */\n  swap1\n  pop\n    /* \"#utility.yul\":8182:8601   */\n  swap2\n  swap1\n  pop\n  jump\t// out\n    /* \"#utility.yul\":8607:8912   */\ntag_68:\n    /* \"#utility.yul\":8647:8650   */\n  0x00\n    /* \"#utility.yul\":8666:8686   */\n  tag_211\n    /* \"#utility.yul\":8684:8685   */\n  dup3\n    /* \"#utility.yul\":8666:8686   */\n  tag_108\n  jump\t// in\ntag_211:\n    /* \"#utility.yul\":8661:8686   */\n  swap2\n  pop\n    /* \"#utility.yul\":8700:8720   */\n  tag_212\n    /* \"#utility.yul\":8718:8719   */\n  dup4\n    /* \"#utility.yul\":8700:8720   */\n  tag_108\n  jump\t// in\ntag_212:\n    /* \"#utility.yul\":8695:8720   */\n  swap3\n  pop\n    /* \"#utility.yul\":8854:8855   */\n  dup3\n    /* \"#utility.yul\":8786:8852   */\n  0xffffffffffffffffffffffffffffffffffffffffffffffffffffffffffffffff\n    /* \"#utility.yul\":8782:8856   */\n  sub\n    /* \"#utility.yul\":8779:8780   */\n  dup3\n    /* \"#utility.yul\":8776:8857   */\n  gt\n    /* \"#utility.yul\":8773:8880   */\n  iszero\n  tag_213\n  jumpi\n    /* \"#utility.yul\":8860:8878   */\n  tag_214\n  tag_104\n  jump\t// in\ntag_214:\n    /* \"#utility.yul\":8773:8880   */\ntag_213:\n    /* \"#utility.yul\":8904:8905   */\n  dup3\n    /* \"#utility.yul\":8901:8902   */\n  dup3\n    /* \"#utility.yul\":8897:8906   */\n  add\n    /* \"#utility.yul\":8890:8906   */\n  swap1\n  pop\n    /* \"#utility.yul\":8607:8912   */\n  swap3\n  swap2\n  pop\n  pop\n  jump\t// out\n    /* \"#utility.yul\":8918:9036   */\ntag_112:\n    /* \"#utility.yul\":9005:9029   */\n  tag_216\n    /* \"#utility.yul\":9023:9028   */\n  dup2\n    /* \"#utility.yul\":9005:9029   */\n  tag_108\n  jump\t// in\ntag_216:\n    /* \"#utility.yul\":9000:9003   */\n  dup3\n    /* \"#utility.yul\":8993:9030   */\n  mstore\n    /* \"#utility.yul\":8918:9036   */\n  pop\n  pop\n  jump\t// out\n    /* \"#utility.yul\":9042:9264   */\ntag_71:\n    /* \"#utility.yul\":9135:9139   */\n  0x00\n    /* \"#utility.yul\":9173:9175   */\n  0x20\n    /* \"#utility.yul\":9162:9171   */\n  dup3\n    /* \"#utility.yul\":9158:9176   */\n  add\n    /* \"#utility.yul\":9150:9176   */\n  swap1\n  pop\n    /* \"#utility.yul\":9186:9257   */\n  tag_218\n    /* \"#utility.yul\":9254:9255   */\n  0x00\n    /* \"#utility.yul\":9243:9252   */\n  dup4\n    /* \"#utility.yul\":9239:9256   */\n  add\n    /* \"#utility.yul\":9230:9236   */\n  dup5\n    /* \"#utility.yul\":9186:9257   */\n  tag_112\n  jump\t// in\ntag_218:\n    /* \"#utility.yul\":9042:9264   */\n  swap3\n  swap2\n  pop\n  pop\n  jump\t// out\n    /* \"#utility.yul\":9270:9450   */\ntag_113:\n    /* \"#utility.yul\":9318:9395   */\n  0x4e487b7100000000000000000000000000000000000000000000000000000000\n    /* \"#utility.yul\":9315:9316   */\n  0x00\n    /* \"#utility.yul\":9308:9396   */\n  mstore\n    /* \"#utility.yul\":9415:9419   */\n  0x22\n    /* \"#utility.yul\":9412:9413   */\n  0x04\n    /* \"#utility.yul\":9405:9420   */\n  mstore\n    /* \"#utility.yul\":9439:9443   */\n  0x24\n    /* \"#utility.yul\":9436:9437   */\n  0x00\n    /* \"#utility.yul\":9429:9444   */\n  revert\n    /* \"#utility.yul\":9456:9776   */\ntag_79:\n    /* \"#utility.yul\":9500:9506   */\n  0x00\n    /* \"#utility.yul\":9537:9538   */\n  0x02\n    /* \"#utility.yul\":9531:9535   */\n  dup3\n    /* \"#utility.yul\":9527:9539   */\n  div\n    /* \"#utility.yul\":9517:9539   */\n  swap1\n  pop\n    /* \"#utility.yul\":9584:9585   */\n  0x01\n    /* \"#utility.yul\":9578:9582   */\n  dup3\n    /* \"#utility.yul\":9574:9586   */\n  and\n    /* \"#utility.yul\":9605:9623   */\n  dup1\n    /* \"#utility.yul\":9595:9676   */\n  tag_221\n  jumpi\n    /* \"#utility.yul\":9661:9665   */\n  0x7f\n    /* \"#utility.yul\":9653:9659   */\n  dup3\n    /* \"#utility.yul\":9649:9666   */\n  and\n    /* \"#utility.yul\":9639:9666   */\n  swap2\n  pop\n    /* \"#utility.yul\":9595:9676   */\ntag_221:\n    /* \"#utility.yul\":9723:9725   */\n  0x20\n    /* \"#utility.yul\":9715:9721   */\n  dup3\n    /* \"#utility.yul\":9712:9726   */\n  lt\n    /* \"#utility.yul\":9692:9710   */\n  dup2\n    /* \"#utility.yul\":9689:9727   */\n  sub\n    /* \"#utility.yul\":9686:9770   */\n  tag_222\n  jumpi\n    /* \"#utility.yul\":9742:9760   */\n  tag_223\n  tag_113\n  jump\t// in\ntag_223:\n    /* \"#utility.yul\":9686:9770   */\ntag_222:\n    /* \"#utility.yul\":9507:9776   */\n  pop\n    /* \"#utility.yul\":9456:9776   */\n  swap2\n  swap1\n  pop\n  jump\t// out\n    /* \"contracts/Distribution/AtlantisDistribution.sol\":206:3511  contract AtlantisDistribution is ERC20, Ownable {... */\ntag_57:\n  dataSize(sub_0)\n  dup1\n  dataOffset(sub_0)\n  0x00\n  codecopy\n  0x00\n  return\nstop\n\nsub_0: assembly {\n        /* \"contracts/Distribution/AtlantisDistribution.sol\":206:3511  contract AtlantisDistribution is ERC20, Ownable {... */\n      mstore(0x40, 0x80)\n      callvalue\n      dup1\n      iszero\n      tag_1\n      jumpi\n      0x00\n      dup1\n      revert\n    tag_1:\n      pop\n      jumpi(tag_2, lt(calldatasize, 0x04))\n      shr(0xe0, calldataload(0x00))\n      dup1\n      0x715018a6\n      gt\n      tag_23\n      jumpi\n      dup1\n      0xa33e7d7e\n      gt\n      tag_24\n      jumpi\n      dup1\n      0xa33e7d7e\n      eq\n      tag_18\n      jumpi\n      dup1\n      0xa457c2d7\n      eq\n      tag_19\n      jumpi\n      dup1\n      0xa9059cbb\n      eq\n      tag_20\n      jumpi\n      dup1\n      0xdd62ed3e\n      eq\n      tag_21\n      jumpi\n      dup1\n      0xf2fde38b\n      eq\n      tag_22\n      jumpi\n      jump(tag_2)\n    tag_24:\n      dup1\n      0x715018a6\n      eq\n      tag_13\n      jumpi\n      dup1\n      0x7a0d944c\n      eq\n      tag_14\n      jumpi\n      dup1\n      0x8da5cb5b\n      eq\n      tag_15\n      jumpi\n      dup1\n      0x95d89b41\n      eq\n      tag_16\n      jumpi\n      dup1\n      0xa0712d68\n      eq\n      tag_17\n      jumpi\n      jump(tag_2)\n    tag_23:\n      dup1\n      0x23b872dd\n      gt\n      tag_25\n      jumpi\n      dup1\n      0x23b872dd\n      eq\n      tag_8\n      jumpi\n      dup1\n      0x313ce567\n      eq\n      tag_9\n      jumpi\n      dup1\n      0x39509351\n      eq\n      tag_10\n      jumpi\n      dup1\n      0x69313678\n      eq\n      tag_11\n      jumpi\n      dup1\n      0x70a08231\n      eq\n      tag_12\n      jumpi\n      jump(tag_2)\n    tag_25:\n      dup1\n      0x06fdde03\n      eq\n      tag_3\n      jumpi\n      dup1\n      0x095ea7b3\n      eq\n      tag_4\n      jumpi\n      dup1\n      0x13b954a3\n      eq\n      tag_5\n      jumpi\n      dup1\n      0x1506f480\n      eq\n      tag_6\n      jumpi\n      dup1\n      0x18160ddd\n      eq\n      tag_7\n      jumpi\n    tag_2:\n      0x00\n      dup1\n      revert\n        /* \"contracts/Distribution/WrappedERC20Token.sol\":2057:2146  function name() public view virtual returns (string memory) {... */\n    tag_3:\n      tag_26\n      tag_27\n      jump\t// in\n    tag_26:\n      mload(0x40)\n      tag_28\n      swap2\n      swap1\n      tag_29\n      jump\t// in\n    tag_28:\n      mload(0x40)\n      dup1\n      swap2\n      sub\n      swap1\n      return\n        /* \"contracts/Distribution/WrappedERC20Token.sol\":4127:4293  function approve(address spender, uint256 amount) public virtual override returns (bool) {... */\n    tag_4:\n      tag_30\n      0x04\n      dup1\n      calldatasize\n      sub\n      dup2\n      add\n      swap1\n      tag_31\n      swap2\n      swap1\n      tag_32\n      jump\t// in\n    tag_31:\n      tag_33\n      jump\t// in\n    tag_30:\n      mload(0x40)\n      tag_34\n      swap2\n      swap1\n      tag_35\n      jump\t// in\n    tag_34:\n      mload(0x40)\n      dup1\n      swap2\n      sub\n      swap1\n      return\n        /* \"contracts/Distribution/AtlantisDistribution.sol\":2965:3356  function mintToRS(address account, uint256 amount) external onlyOwner {... */\n    tag_5:\n      tag_36\n      0x04\n      dup1\n      calldatasize\n      sub\n      dup2\n      add\n      swap1\n      tag_37\n      swap2\n      swap1\n      tag_32\n      jump\t// in\n    tag_37:\n      tag_38\n      jump\t// in\n    tag_36:\n      stop\n        /* \"contracts/Distribution/AtlantisDistribution.sol\":2479:2959  function mintToNRS(address account, uint256 amount) external onlyOwner {... */\n    tag_6:\n      tag_39\n      0x04\n      dup1\n      calldatasize\n      sub\n      dup2\n      add\n      swap1\n      tag_40\n      swap2\n      swap1\n      tag_32\n      jump\t// in\n    tag_40:\n      tag_41\n      jump\t// in\n    tag_39:\n      stop\n        /* \"contracts/Distribution/WrappedERC20Token.sol\":3118:3224  function totalSupply() public view virtual override returns (uint256) {... */\n    tag_7:\n      tag_42\n      tag_43\n      jump\t// in\n    tag_42:\n      mload(0x40)\n      tag_44\n      swap2\n      swap1\n      tag_45\n      jump\t// in\n    tag_44:\n      mload(0x40)\n      dup1\n      swap2\n      sub\n      swap1\n      return\n        /* \"contracts/Distribution/AtlantisDistribution.sol\":3362:3509  function transferFrom(address sender, address recipient, uint256 amount) public override returns (bool) {... */\n    tag_8:\n      tag_46\n      0x04\n      dup1\n      calldatasize\n      sub\n      dup2\n      add\n      swap1\n      tag_47\n      swap2\n      swap1\n      tag_48\n      jump\t// in\n    tag_47:\n      tag_49\n      jump\t// in\n    tag_46:\n      mload(0x40)\n      tag_50\n      swap2\n      swap1\n      tag_35\n      jump\t// in\n    tag_50:\n      mload(0x40)\n      dup1\n      swap2\n      sub\n      swap1\n      return\n        /* \"contracts/Distribution/WrappedERC20Token.sol\":2976:3058  function decimals() public view virtual returns (uint8) {... */\n    tag_9:\n      tag_51\n      tag_52\n      jump\t// in\n    tag_51:\n      mload(0x40)\n      tag_53\n      swap2\n      swap1\n      tag_54\n      jump\t// in\n    tag_53:\n      mload(0x40)\n      dup1\n      swap2\n      sub\n      swap1\n      return\n        /* \"contracts/Distribution/WrappedERC20Token.sol\":5569:5781  function increaseAllowance(address spender, uint256 addedValue) public virtual returns (bool) {... */\n    tag_10:\n      tag_55\n      0x04\n      dup1\n      calldatasize\n      sub\n      dup2\n      add\n      swap1\n      tag_56\n      swap2\n      swap1\n      tag_32\n      jump\t// in\n    tag_56:\n      tag_57\n      jump\t// in\n    tag_55:\n      mload(0x40)\n      tag_58\n      swap2\n      swap1\n      tag_35\n      jump\t// in\n    tag_58:\n      mload(0x40)\n      dup1\n      swap2\n      sub\n      swap1\n      return\n        /* \"contracts/Distribution/AtlantisDistribution.sol\":406:449  uint256[] public cury = new uint256[](size) */\n    tag_11:\n      tag_59\n      0x04\n      dup1\n      calldatasize\n      sub\n      dup2\n      add\n      swap1\n      tag_60\n      swap2\n      swap1\n      tag_61\n      jump\t// in\n    tag_60:\n      tag_62\n      jump\t// in\n    tag_59:\n      mload(0x40)\n      tag_63\n      swap2\n      swap1\n      tag_45\n      jump\t// in\n    tag_63:\n      mload(0x40)\n      dup1\n      swap2\n      sub\n      swap1\n      return\n        /* \"contracts/Distribution/AtlantisDistribution.sol\":919:1140  function balanceOf(address account) public view override returns (uint256) {... */\n    tag_12:\n      tag_64\n      0x04\n      dup1\n      calldatasize\n      sub\n      dup2\n      add\n      swap1\n      tag_65\n      swap2\n      swap1\n      tag_66\n      jump\t// in\n    tag_65:\n      tag_67\n      jump\t// in\n    tag_64:\n      mload(0x40)\n      tag_68\n      swap2\n      swap1\n      tag_45\n      jump\t// in\n    tag_68:\n      mload(0x40)\n      dup1\n      swap2\n      sub\n      swap1\n      return\n        /* \"@openzeppelin/contracts/access/Ownable.sol\":1605:1697  function renounceOwnership() public virtual onlyOwner {... */\n    tag_13:\n      tag_69\n      tag_70\n      jump\t// in\n    tag_69:\n      stop\n        /* \"contracts/Distribution/AtlantisDistribution.sol\":344:381  mapping (address => uint8) public lvl */\n    tag_14:\n      tag_71\n      0x04\n      dup1\n      calldatasize\n      sub\n      dup2\n      add\n      swap1\n      tag_72\n      swap2\n      swap1\n      tag_66\n      jump\t// in\n    tag_72:\n      tag_73\n      jump\t// in\n    tag_71:\n      mload(0x40)\n      tag_74\n      swap2\n      swap1\n      tag_54\n      jump\t// in\n    tag_74:\n      mload(0x40)\n      dup1\n      swap2\n      sub\n      swap1\n      return\n        /* \"@openzeppelin/contracts/access/Ownable.sol\":973:1058  function owner() public view virtual returns (address) {... */\n    tag_15:\n      tag_75\n      tag_76\n      jump\t// in\n    tag_75:\n      mload(0x40)\n      tag_77\n      swap2\n      swap1\n      tag_78\n      jump\t// in\n    tag_77:\n      mload(0x40)\n      dup1\n      swap2\n      sub\n      swap1\n      return\n        /* \"contracts/Distribution/WrappedERC20Token.sol\":2259:2352  function symbol() public view virtual returns (string memory) {... */\n    tag_16:\n      tag_79\n      tag_80\n      jump\t// in\n    tag_79:\n      mload(0x40)\n      tag_81\n      swap2\n      swap1\n      tag_29\n      jump\t// in\n    tag_81:\n      mload(0x40)\n      dup1\n      swap2\n      sub\n      swap1\n      return\n        /* \"contracts/Distribution/AtlantisDistribution.sol\":1382:1822  function mint(uint256 amount) external onlyOwner {... */\n    tag_17:\n      tag_82\n      0x04\n      dup1\n      calldatasize\n      sub\n      dup2\n      add\n      swap1\n      tag_83\n      swap2\n      swap1\n      tag_61\n      jump\t// in\n    tag_83:\n      tag_84\n      jump\t// in\n    tag_82:\n      stop\n        /* \"contracts/Distribution/AtlantisDistribution.sol\":2173:2473  function changeLvl(address account, uint8 newLvl) external onlyOwner {... */\n    tag_18:\n      tag_85\n      0x04\n      dup1\n      calldatasize\n      sub\n      dup2\n      add\n      swap1\n      tag_86\n      swap2\n      swap1\n      tag_87\n      jump\t// in\n    tag_86:\n      tag_88\n      jump\t// in\n    tag_85:\n      stop\n        /* \"contracts/Distribution/WrappedERC20Token.sol\":6268:6639  function decreaseAllowance(address spender, uint256 subtractedValue) public virtual returns (bool) {... */\n    tag_19:\n      tag_89\n      0x04\n      dup1\n      calldatasize\n      sub\n      dup2\n      add\n      swap1\n      tag_90\n      swap2\n      swap1\n      tag_32\n      jump\t// in\n    tag_90:\n      tag_91\n      jump\t// in\n    tag_89:\n      mload(0x40)\n      tag_92\n      swap2\n      swap1\n      tag_35\n      jump\t// in\n    tag_92:\n      mload(0x40)\n      dup1\n      swap2\n      sub\n      swap1\n      return\n        /* \"contracts/Distribution/AtlantisDistribution.sol\":1828:2167  function transfer(address recipient, uint256 amount) public override returns (bool) {... */\n    tag_20:\n      tag_93\n      0x04\n      dup1\n      calldatasize\n      sub\n      dup2\n      add\n      swap1\n      tag_94\n      swap2\n      swap1\n      tag_32\n      jump\t// in\n    tag_94:\n      tag_95\n      jump\t// in\n    tag_93:\n      mload(0x40)\n      tag_96\n      swap2\n      swap1\n      tag_35\n      jump\t// in\n    tag_96:\n      mload(0x40)\n      dup1\n      swap2\n      sub\n      swap1\n      return\n        /* \"contracts/Distribution/WrappedERC20Token.sol\":3840:3989  function allowance(address owner, address spender) public view virtual override returns (uint256) {... */\n    tag_21:\n      tag_97\n      0x04\n      dup1\n      calldatasize\n      sub\n      dup2\n      add\n      swap1\n      tag_98\n      swap2\n      swap1\n      tag_99\n      jump\t// in\n    tag_98:\n      tag_100\n      jump\t// in\n    tag_97:\n      mload(0x40)\n      tag_101\n      swap2\n      swap1\n      tag_45\n      jump\t// in\n    tag_101:\n      mload(0x40)\n      dup1\n      swap2\n      sub\n      swap1\n      return\n        /* \"@openzeppelin/contracts/access/Ownable.sol\":1846:2035  function transferOwnership(address newOwner) public virtual onlyOwner {... */\n    tag_22:\n      tag_102\n      0x04\n      dup1\n      calldatasize\n      sub\n      dup2\n      add\n      swap1\n      tag_103\n      swap2\n      swap1\n      tag_66\n      jump\t// in\n    tag_103:\n      tag_104\n      jump\t// in\n    tag_102:\n      stop\n        /* \"contracts/Distribution/WrappedERC20Token.sol\":2057:2146  function name() public view virtual returns (string memory) {... */\n    tag_27:\n        /* \"contracts/Distribution/WrappedERC20Token.sol\":2102:2115  string memory */\n      0x60\n        /* \"contracts/Distribution/WrappedERC20Token.sol\":2134:2139  _name */\n      0x03\n        /* \"contracts/Distribution/WrappedERC20Token.sol\":2127:2139  return _name */\n      dup1\n      sload\n      tag_106\n      swap1\n      tag_107\n      jump\t// in\n    tag_106:\n      dup1\n      0x1f\n      add\n      0x20\n      dup1\n      swap2\n      div\n      mul\n      0x20\n      add\n      mload(0x40)\n      swap1\n      dup2\n      add\n      0x40\n      mstore\n      dup1\n      swap3\n      swap2\n      swap1\n      dup2\n      dup2\n      mstore\n      0x20\n      add\n      dup3\n      dup1\n      sload\n      tag_108\n      swap1\n      tag_107\n      jump\t// in\n    tag_108:\n      dup1\n      iszero\n      tag_109\n      jumpi\n      dup1\n      0x1f\n      lt\n      tag_110\n      jumpi\n      0x0100\n      dup1\n      dup4\n      sload\n      div\n      mul\n      dup4\n      mstore\n      swap2\n      0x20\n      add\n      swap2\n      jump(tag_109)\n    tag_110:\n      dup3\n      add\n      swap2\n      swap1\n      0x00\n      mstore\n      keccak256(0x00, 0x20)\n      swap1\n    tag_111:\n      dup2\n      sload\n      dup2\n      mstore\n      swap1\n      0x01\n      add\n      swap1\n      0x20\n      add\n      dup1\n      dup4\n      gt\n      tag_111\n      jumpi\n      dup3\n      swap1\n      sub\n      0x1f\n      and\n      dup3\n      add\n      swap2\n    tag_109:\n      pop\n      pop\n      pop\n      pop\n      pop\n      swap1\n      pop\n        /* \"contracts/Distribution/WrappedERC20Token.sol\":2057:2146  function name() public view virtual returns (string memory) {... */\n      swap1\n      jump\t// out\n        /* \"contracts/Distribution/WrappedERC20Token.sol\":4127:4293  function approve(address spender, uint256 amount) public virtual override returns (bool) {... */\n    tag_33:\n        /* \"contracts/Distribution/WrappedERC20Token.sol\":4210:4214  bool */\n      0x00\n        /* \"contracts/Distribution/WrappedERC20Token.sol\":4226:4265  _approve(_msgSender(), spender, amount) */\n      tag_113\n        /* \"contracts/Distribution/WrappedERC20Token.sol\":4235:4247  _msgSender() */\n      tag_114\n        /* \"contracts/Distribution/WrappedERC20Token.sol\":4235:4245  _msgSender */\n      tag_115\n        /* \"contracts/Distribution/WrappedERC20Token.sol\":4235:4247  _msgSender() */\n      jump\t// in\n    tag_114:\n        /* \"contracts/Distribution/WrappedERC20Token.sol\":4249:4256  spender */\n      dup5\n        /* \"contracts/Distribution/WrappedERC20Token.sol\":4258:4264  amount */\n      dup5\n        /* \"contracts/Distribution/WrappedERC20Token.sol\":4226:4234  _approve */\n      tag_116\n        /* \"contracts/Distribution/WrappedERC20Token.sol\":4226:4265  _approve(_msgSender(), spender, amount) */\n      jump\t// in\n    tag_113:\n        /* \"contracts/Distribution/WrappedERC20Token.sol\":4282:4286  true */\n      0x01\n        /* \"contracts/Distribution/WrappedERC20Token.sol\":4275:4286  return true */\n      swap1\n      pop\n        /* \"contracts/Distribution/WrappedERC20Token.sol\":4127:4293  function approve(address spender, uint256 amount) public virtual override returns (bool) {... */\n      swap3\n      swap2\n      pop\n      pop\n      jump\t// out\n        /* \"contracts/Distribution/AtlantisDistribution.sol\":2965:3356  function mintToRS(address account, uint256 amount) external onlyOwner {... */\n    tag_38:\n        /* \"@openzeppelin/contracts/access/Ownable.sol\":1196:1208  _msgSender() */\n      tag_118\n        /* \"@openzeppelin/contracts/access/Ownable.sol\":1196:1206  _msgSender */\n      tag_115\n        /* \"@openzeppelin/contracts/access/Ownable.sol\":1196:1208  _msgSender() */\n      jump\t// in\n    tag_118:\n        /* \"@openzeppelin/contracts/access/Ownable.sol\":1185:1208  owner() == _msgSender() */\n      0xffffffffffffffffffffffffffffffffffffffff\n      and\n        /* \"@openzeppelin/contracts/access/Ownable.sol\":1185:1192  owner() */\n      tag_119\n        /* \"@openzeppelin/contracts/access/Ownable.sol\":1185:1190  owner */\n      tag_76\n        /* \"@openzeppelin/contracts/access/Ownable.sol\":1185:1192  owner() */\n      jump\t// in\n    tag_119:\n        /* \"@openzeppelin/contracts/access/Ownable.sol\":1185:1208  owner() == _msgSender() */\n      0xffffffffffffffffffffffffffffffffffffffff\n      and\n      eq\n        /* \"@openzeppelin/contracts/access/Ownable.sol\":1177:1245  require(owner() == _msgSender(), \"Ownable: caller is not the owner\") */\n      tag_120\n      jumpi\n      mload(0x40)\n      0x08c379a000000000000000000000000000000000000000000000000000000000\n      dup2\n      mstore\n      0x04\n      add\n      tag_121\n      swap1\n      tag_122\n      jump\t// in\n    tag_121:\n      mload(0x40)\n      dup1\n      swap2\n      sub\n      swap1\n      revert\n    tag_120:\n        /* \"contracts/Distribution/AtlantisDistribution.sol\":3069:3070  0 */\n      0x00\n        /* \"contracts/Distribution/AtlantisDistribution.sol\":3053:3056  lvl */\n      0x07\n        /* \"contracts/Distribution/AtlantisDistribution.sol\":3053:3065  lvl[account] */\n      0x00\n        /* \"contracts/Distribution/AtlantisDistribution.sol\":3057:3064  account */\n      dup5\n        /* \"contracts/Distribution/AtlantisDistribution.sol\":3053:3065  lvl[account] */\n      0xffffffffffffffffffffffffffffffffffffffff\n      and\n      0xffffffffffffffffffffffffffffffffffffffff\n      and\n      dup2\n      mstore\n      0x20\n      add\n      swap1\n      dup2\n      mstore\n      0x20\n      add\n      0x00\n      keccak256\n      0x00\n      swap1\n      sload\n      swap1\n      0x0100\n      exp\n      swap1\n      div\n      0xff\n      and\n        /* \"contracts/Distribution/AtlantisDistribution.sol\":3053:3070  lvl[account] == 0 */\n      0xff\n      and\n      eq\n        /* \"contracts/Distribution/AtlantisDistribution.sol\":3045:3111  require(lvl[account] == 0, \"account is not a regular shareholder\") */\n      tag_124\n      jumpi\n      mload(0x40)\n      0x08c379a000000000000000000000000000000000000000000000000000000000\n      dup2\n      mstore\n      0x04\n      add\n      tag_125\n      swap1\n      tag_126\n      jump\t// in\n    tag_125:\n      mload(0x40)\n      dup1\n      swap2\n      sub\n      swap1\n      revert\n    tag_124:\n        /* \"contracts/Distribution/AtlantisDistribution.sol\":3143:3149  amount */\n      dup1\n        /* \"contracts/Distribution/AtlantisDistribution.sol\":3121:3130  _balances */\n      0x00\n        /* \"contracts/Distribution/AtlantisDistribution.sol\":3121:3139  _balances[account] */\n      dup1\n        /* \"contracts/Distribution/AtlantisDistribution.sol\":3131:3138  account */\n      dup5\n        /* \"contracts/Distribution/AtlantisDistribution.sol\":3121:3139  _balances[account] */\n      0xffffffffffffffffffffffffffffffffffffffff\n      and\n      0xffffffffffffffffffffffffffffffffffffffff\n      and\n      dup2\n      mstore\n      0x20\n      add\n      swap1\n      dup2\n      mstore\n      0x20\n      add\n      0x00\n      keccak256\n      0x00\n        /* \"contracts/Distribution/AtlantisDistribution.sol\":3121:3149  _balances[account] += amount */\n      dup3\n      dup3\n      sload\n      tag_127\n      swap2\n      swap1\n      tag_128\n      jump\t// in\n    tag_127:\n      swap3\n      pop\n      pop\n      dup2\n      swap1\n      sstore\n      pop\n        /* \"contracts/Distribution/AtlantisDistribution.sol\":3164:3171  uint8 i */\n      0x00\n        /* \"contracts/Distribution/AtlantisDistribution.sol\":3174:3175  1 */\n      0x01\n        /* \"contracts/Distribution/AtlantisDistribution.sol\":3164:3175  uint8 i = 1 */\n      swap1\n      pop\n        /* \"contracts/Distribution/AtlantisDistribution.sol\":3159:3318  for (uint8 i = 1; i <= 2; i++) {... */\n    tag_129:\n        /* \"contracts/Distribution/AtlantisDistribution.sol\":3182:3183  2 */\n      0x02\n        /* \"contracts/Distribution/AtlantisDistribution.sol\":3177:3178  i */\n      dup2\n        /* \"contracts/Distribution/AtlantisDistribution.sol\":3177:3183  i <= 2 */\n      0xff\n      and\n      gt\n        /* \"contracts/Distribution/AtlantisDistribution.sol\":3159:3318  for (uint8 i = 1; i <= 2; i++) {... */\n      tag_130\n      jumpi\n        /* \"contracts/Distribution/AtlantisDistribution.sol\":3236:3237  2 */\n      0x02\n        /* \"contracts/Distribution/AtlantisDistribution.sol\":3227:3233  amount */\n      dup3\n        /* \"contracts/Distribution/AtlantisDistribution.sol\":3227:3237  amount / 2 */\n      tag_132\n      swap2\n      swap1\n      tag_133\n      jump\t// in\n    tag_132:\n        /* \"contracts/Distribution/AtlantisDistribution.sol\":3216:3221  total */\n      0x0a\n        /* \"contracts/Distribution/AtlantisDistribution.sol\":3222:3223  i */\n      dup3\n        /* \"contracts/Distribution/AtlantisDistribution.sol\":3216:3224  total[i] */\n      0xff\n      and\n      dup2\n      sload\n      dup2\n      lt\n      tag_134\n      jumpi\n      tag_135\n      tag_136\n      jump\t// in\n    tag_135:\n    tag_134:\n      swap1\n      0x00\n      mstore\n      keccak256(0x00, 0x20)\n      add\n      sload\n        /* \"contracts/Distribution/AtlantisDistribution.sol\":3216:3237  total[i] + amount / 2 */\n      tag_138\n      swap2\n      swap1\n      tag_128\n      jump\t// in\n    tag_138:\n        /* \"contracts/Distribution/AtlantisDistribution.sol\":3204:3208  cury */\n      0x09\n        /* \"contracts/Distribution/AtlantisDistribution.sol\":3209:3210  i */\n      dup3\n        /* \"contracts/Distribution/AtlantisDistribution.sol\":3204:3211  cury[i] */\n      0xff\n      and\n      dup2\n      sload\n      dup2\n      lt\n      tag_139\n      jumpi\n      tag_140\n      tag_136\n      jump\t// in\n    tag_140:\n    tag_139:\n      swap1\n      0x00\n      mstore\n      keccak256(0x00, 0x20)\n      add\n      0x00\n        /* \"contracts/Distribution/AtlantisDistribution.sol\":3204:3238  cury[i] *= (total[i] + amount / 2) */\n      dup3\n      dup3\n      sload\n      tag_142\n      swap2\n      swap1\n      tag_143\n      jump\t// in\n    tag_142:\n      swap3\n      pop\n      pop\n      dup2\n      swap1\n      sstore\n      pop\n        /* \"contracts/Distribution/AtlantisDistribution.sol\":3263:3268  total */\n      0x0a\n        /* \"contracts/Distribution/AtlantisDistribution.sol\":3269:3270  i */\n      dup2\n        /* \"contracts/Distribution/AtlantisDistribution.sol\":3263:3271  total[i] */\n      0xff\n      and\n      dup2\n      sload\n      dup2\n      lt\n      tag_144\n      jumpi\n      tag_145\n      tag_136\n      jump\t// in\n    tag_145:\n    tag_144:\n      swap1\n      0x00\n      mstore\n      keccak256(0x00, 0x20)\n      add\n      sload\n        /* \"contracts/Distribution/AtlantisDistribution.sol\":3252:3256  cury */\n      0x09\n        /* \"contracts/Distribution/AtlantisDistribution.sol\":3257:3258  i */\n      dup3\n        /* \"contracts/Distribution/AtlantisDistribution.sol\":3252:3259  cury[i] */\n      0xff\n      and\n      dup2\n      sload\n      dup2\n      lt\n      tag_147\n      jumpi\n      tag_148\n      tag_136\n      jump\t// in\n    tag_148:\n    tag_147:\n      swap1\n      0x00\n      mstore\n      keccak256(0x00, 0x20)\n      add\n      0x00\n        /* \"contracts/Distribution/AtlantisDistribution.sol\":3252:3271  cury[i] /= total[i] */\n      dup3\n      dup3\n      sload\n      tag_150\n      swap2\n      swap1\n      tag_133\n      jump\t// in\n    tag_150:\n      swap3\n      pop\n      pop\n      dup2\n      swap1\n      sstore\n      pop\n        /* \"contracts/Distribution/AtlantisDistribution.sol\":3306:3307  2 */\n      0x02\n        /* \"contracts/Distribution/AtlantisDistribution.sol\":3297:3303  amount */\n      dup3\n        /* \"contracts/Distribution/AtlantisDistribution.sol\":3297:3307  amount / 2 */\n      tag_151\n      swap2\n      swap1\n      tag_133\n      jump\t// in\n    tag_151:\n        /* \"contracts/Distribution/AtlantisDistribution.sol\":3285:3290  total */\n      0x0a\n        /* \"contracts/Distribution/AtlantisDistribution.sol\":3291:3292  i */\n      dup3\n        /* \"contracts/Distribution/AtlantisDistribution.sol\":3285:3293  total[i] */\n      0xff\n      and\n      dup2\n      sload\n      dup2\n      lt\n      tag_152\n      jumpi\n      tag_153\n      tag_136\n      jump\t// in\n    tag_153:\n    tag_152:\n      swap1\n      0x00\n      mstore\n      keccak256(0x00, 0x20)\n      add\n      0x00\n        /* \"contracts/Distribution/AtlantisDistribution.sol\":3285:3307  total[i] += amount / 2 */\n      dup3\n      dup3\n      sload\n      tag_155\n      swap2\n      swap1\n      tag_128\n      jump\t// in\n    tag_155:\n      swap3\n      pop\n      pop\n      dup2\n      swap1\n      sstore\n      pop\n        /* \"contracts/Distribution/AtlantisDistribution.sol\":3185:3188  i++ */\n      dup1\n      dup1\n      tag_156\n      swap1\n      tag_157\n      jump\t// in\n    tag_156:\n      swap2\n      pop\n      pop\n        /* \"contracts/Distribution/AtlantisDistribution.sol\":3159:3318  for (uint8 i = 1; i <= 2; i++) {... */\n      jump(tag_129)\n    tag_130:\n      pop\n        /* \"contracts/Distribution/AtlantisDistribution.sol\":3343:3349  amount */\n      dup1\n        /* \"contracts/Distribution/AtlantisDistribution.sol\":3327:3339  _totalSupply */\n      0x02\n      0x00\n        /* \"contracts/Distribution/AtlantisDistribution.sol\":3327:3349  _totalSupply += amount */\n      dup3\n      dup3\n      sload\n      tag_158\n      swap2\n      swap1\n      tag_128\n      jump\t// in\n    tag_158:\n      swap3\n      pop\n      pop\n      dup2\n      swap1\n      sstore\n      pop\n        /* \"contracts/Distribution/AtlantisDistribution.sol\":2965:3356  function mintToRS(address account, uint256 amount) external onlyOwner {... */\n      pop\n      pop\n      jump\t// out\n        /* \"contracts/Distribution/AtlantisDistribution.sol\":2479:2959  function mintToNRS(address account, uint256 amount) external onlyOwner {... */\n    tag_41:\n        /* \"@openzeppelin/contracts/access/Ownable.sol\":1196:1208  _msgSender() */\n      tag_160\n        /* \"@openzeppelin/contracts/access/Ownable.sol\":1196:1206  _msgSender */\n      tag_115\n        /* \"@openzeppelin/contracts/access/Ownable.sol\":1196:1208  _msgSender() */\n      jump\t// in\n    tag_160:\n        /* \"@openzeppelin/contracts/access/Ownable.sol\":1185:1208  owner() == _msgSender() */\n      0xffffffffffffffffffffffffffffffffffffffff\n      and\n        /* \"@openzeppelin/contracts/access/Ownable.sol\":1185:1192  owner() */\n      tag_161\n        /* \"@openzeppelin/contracts/access/Ownable.sol\":1185:1190  owner */\n      tag_76\n        /* \"@openzeppelin/contracts/access/Ownable.sol\":1185:1192  owner() */\n      jump\t// in\n    tag_161:\n        /* \"@openzeppelin/contracts/access/Ownable.sol\":1185:1208  owner() == _msgSender() */\n      0xffffffffffffffffffffffffffffffffffffffff\n      and\n      eq\n        /* \"@openzeppelin/contracts/access/Ownable.sol\":1177:1245  require(owner() == _msgSender(), \"Ownable: caller is not the owner\") */\n      tag_162\n      jumpi\n      mload(0x40)\n      0x08c379a000000000000000000000000000000000000000000000000000000000\n      dup2\n      mstore\n      0x04\n      add\n      tag_163\n      swap1\n      tag_122\n      jump\t// in\n    tag_163:\n      mload(0x40)\n      dup1\n      swap2\n      sub\n      swap1\n      revert\n    tag_162:\n        /* \"contracts/Distribution/AtlantisDistribution.sol\":2584:2585  0 */\n      0x00\n        /* \"contracts/Distribution/AtlantisDistribution.sol\":2568:2571  lvl */\n      0x07\n        /* \"contracts/Distribution/AtlantisDistribution.sol\":2568:2580  lvl[account] */\n      0x00\n        /* \"contracts/Distribution/AtlantisDistribution.sol\":2572:2579  account */\n      dup5\n        /* \"contracts/Distribution/AtlantisDistribution.sol\":2568:2580  lvl[account] */\n      0xffffffffffffffffffffffffffffffffffffffff\n      and\n      0xffffffffffffffffffffffffffffffffffffffff\n      and\n      dup2\n      mstore\n      0x20\n      add\n      swap1\n      dup2\n      mstore\n      0x20\n      add\n      0x00\n      keccak256\n      0x00\n      swap1\n      sload\n      swap1\n      0x0100\n      exp\n      swap1\n      div\n      0xff\n      and\n        /* \"contracts/Distribution/AtlantisDistribution.sol\":2568:2585  lvl[account] != 0 */\n      0xff\n      and\n      sub\n        /* \"contracts/Distribution/AtlantisDistribution.sol\":2560:2622  require(lvl[account] != 0, \"account is a regular shareholder\") */\n      tag_165\n      jumpi\n      mload(0x40)\n      0x08c379a000000000000000000000000000000000000000000000000000000000\n      dup2\n      mstore\n      0x04\n      add\n      tag_166\n      swap1\n      tag_167\n      jump\t// in\n    tag_166:\n      mload(0x40)\n      dup1\n      swap2\n      sub\n      swap1\n      revert\n    tag_165:\n        /* \"contracts/Distribution/AtlantisDistribution.sol\":2632:2653  relaxBalance(account) */\n      tag_168\n        /* \"contracts/Distribution/AtlantisDistribution.sol\":2645:2652  account */\n      dup3\n        /* \"contracts/Distribution/AtlantisDistribution.sol\":2632:2644  relaxBalance */\n      tag_169\n        /* \"contracts/Distribution/AtlantisDistribution.sol\":2632:2653  relaxBalance(account) */\n      jump\t// in\n    tag_168:\n        /* \"contracts/Distribution/AtlantisDistribution.sol\":2685:2691  amount */\n      dup1\n        /* \"contracts/Distribution/AtlantisDistribution.sol\":2663:2672  _balances */\n      0x00\n        /* \"contracts/Distribution/AtlantisDistribution.sol\":2663:2681  _balances[account] */\n      dup1\n        /* \"contracts/Distribution/AtlantisDistribution.sol\":2673:2680  account */\n      dup5\n        /* \"contracts/Distribution/AtlantisDistribution.sol\":2663:2681  _balances[account] */\n      0xffffffffffffffffffffffffffffffffffffffff\n      and\n      0xffffffffffffffffffffffffffffffffffffffff\n      and\n      dup2\n      mstore\n      0x20\n      add\n      swap1\n      dup2\n      mstore\n      0x20\n      add\n      0x00\n      keccak256\n      0x00\n        /* \"contracts/Distribution/AtlantisDistribution.sol\":2663:2691  _balances[account] += amount */\n      dup3\n      dup3\n      sload\n      tag_170\n      swap2\n      swap1\n      tag_128\n      jump\t// in\n    tag_170:\n      swap3\n      pop\n      pop\n      dup2\n      swap1\n      sstore\n      pop\n        /* \"contracts/Distribution/AtlantisDistribution.sol\":2731:2737  amount */\n      dup1\n        /* \"contracts/Distribution/AtlantisDistribution.sol\":2727:2728  2 */\n      0x02\n        /* \"contracts/Distribution/AtlantisDistribution.sol\":2727:2737  2 * amount */\n      tag_171\n      swap2\n      swap1\n      tag_143\n      jump\t// in\n    tag_171:\n        /* \"contracts/Distribution/AtlantisDistribution.sol\":2701:2710  _balances */\n      0x00\n        /* \"contracts/Distribution/AtlantisDistribution.sol\":2701:2723  _balances[fund_wallet] */\n      dup1\n        /* \"contracts/Distribution/AtlantisDistribution.sol\":2711:2722  fund_wallet */\n      0x0b\n      0x00\n      swap1\n      sload\n      swap1\n      0x0100\n      exp\n      swap1\n      div\n      0xffffffffffffffffffffffffffffffffffffffff\n      and\n        /* \"contracts/Distribution/AtlantisDistribution.sol\":2701:2723  _balances[fund_wallet] */\n      0xffffffffffffffffffffffffffffffffffffffff\n      and\n      0xffffffffffffffffffffffffffffffffffffffff\n      and\n      dup2\n      mstore\n      0x20\n      add\n      swap1\n      dup2\n      mstore\n      0x20\n      add\n      0x00\n      keccak256\n      0x00\n        /* \"contracts/Distribution/AtlantisDistribution.sol\":2701:2737  _balances[fund_wallet] += 2 * amount */\n      dup3\n      dup3\n      sload\n      tag_172\n      swap2\n      swap1\n      tag_128\n      jump\t// in\n    tag_172:\n      swap3\n      pop\n      pop\n      dup2\n      swap1\n      sstore\n      pop\n        /* \"contracts/Distribution/AtlantisDistribution.sol\":2748:2759  uint8 other */\n      0x00\n        /* \"contracts/Distribution/AtlantisDistribution.sol\":2766:2769  lvl */\n      0x07\n        /* \"contracts/Distribution/AtlantisDistribution.sol\":2766:2778  lvl[account] */\n      0x00\n        /* \"contracts/Distribution/AtlantisDistribution.sol\":2770:2777  account */\n      dup5\n        /* \"contracts/Distribution/AtlantisDistribution.sol\":2766:2778  lvl[account] */\n      0xffffffffffffffffffffffffffffffffffffffff\n      and\n      0xffffffffffffffffffffffffffffffffffffffff\n      and\n      dup2\n      mstore\n      0x20\n      add\n      swap1\n      dup2\n      mstore\n      0x20\n      add\n      0x00\n      keccak256\n      0x00\n      swap1\n      sload\n      swap1\n      0x0100\n      exp\n      swap1\n      div\n      0xff\n      and\n        /* \"contracts/Distribution/AtlantisDistribution.sol\":2762:2763  1 */\n      0x01\n        /* \"contracts/Distribution/AtlantisDistribution.sol\":2762:2778  1 - lvl[account] */\n      tag_173\n      swap2\n      swap1\n      tag_174\n      jump\t// in\n    tag_173:\n        /* \"contracts/Distribution/AtlantisDistribution.sol\":2748:2778  uint8 other = 1 - lvl[account] */\n      swap1\n      pop\n        /* \"contracts/Distribution/AtlantisDistribution.sol\":2819:2825  amount */\n      dup2\n        /* \"contracts/Distribution/AtlantisDistribution.sol\":2804:2809  total */\n      0x0a\n        /* \"contracts/Distribution/AtlantisDistribution.sol\":2810:2815  other */\n      dup3\n        /* \"contracts/Distribution/AtlantisDistribution.sol\":2804:2816  total[other] */\n      0xff\n      and\n      dup2\n      sload\n      dup2\n      lt\n      tag_175\n      jumpi\n      tag_176\n      tag_136\n      jump\t// in\n    tag_176:\n    tag_175:\n      swap1\n      0x00\n      mstore\n      keccak256(0x00, 0x20)\n      add\n      sload\n        /* \"contracts/Distribution/AtlantisDistribution.sol\":2804:2825  total[other] + amount */\n      tag_178\n      swap2\n      swap1\n      tag_128\n      jump\t// in\n    tag_178:\n        /* \"contracts/Distribution/AtlantisDistribution.sol\":2788:2792  cury */\n      0x09\n        /* \"contracts/Distribution/AtlantisDistribution.sol\":2793:2798  other */\n      dup3\n        /* \"contracts/Distribution/AtlantisDistribution.sol\":2788:2799  cury[other] */\n      0xff\n      and\n      dup2\n      sload\n      dup2\n      lt\n      tag_179\n      jumpi\n      tag_180\n      tag_136\n      jump\t// in\n    tag_180:\n    tag_179:\n      swap1\n      0x00\n      mstore\n      keccak256(0x00, 0x20)\n      add\n      0x00\n        /* \"contracts/Distribution/AtlantisDistribution.sol\":2788:2826  cury[other] *= (total[other] + amount) */\n      dup3\n      dup3\n      sload\n      tag_182\n      swap2\n      swap1\n      tag_143\n      jump\t// in\n    tag_182:\n      swap3\n      pop\n      pop\n      dup2\n      swap1\n      sstore\n      pop\n        /* \"contracts/Distribution/AtlantisDistribution.sol\":2851:2856  total */\n      0x0a\n        /* \"contracts/Distribution/AtlantisDistribution.sol\":2857:2862  other */\n      dup2\n        /* \"contracts/Distribution/AtlantisDistribution.sol\":2851:2863  total[other] */\n      0xff\n      and\n      dup2\n      sload\n      dup2\n      lt\n      tag_183\n      jumpi\n      tag_184\n      tag_136\n      jump\t// in\n    tag_184:\n    tag_183:\n      swap1\n      0x00\n      mstore\n      keccak256(0x00, 0x20)\n      add\n      sload\n        /* \"contracts/Distribution/AtlantisDistribution.sol\":2836:2840  cury */\n      0x09\n        /* \"contracts/Distribution/AtlantisDistribution.sol\":2841:2846  other */\n      dup3\n        /* \"contracts/Distribution/AtlantisDistribution.sol\":2836:2847  cury[other] */\n      0xff\n      and\n      dup2\n      sload\n      dup2\n      lt\n      tag_186\n      jumpi\n      tag_187\n      tag_136\n      jump\t// in\n    tag_187:\n    tag_186:\n      swap1\n      0x00\n      mstore\n      keccak256(0x00, 0x20)\n      add\n      0x00\n        /* \"contracts/Distribution/AtlantisDistribution.sol\":2836:2863  cury[other] /= total[other] */\n      dup3\n      dup3\n      sload\n      tag_189\n      swap2\n      swap1\n      tag_133\n      jump\t// in\n    tag_189:\n      swap3\n      pop\n      pop\n      dup2\n      swap1\n      sstore\n      pop\n        /* \"contracts/Distribution/AtlantisDistribution.sol\":2885:2891  amount */\n      dup2\n        /* \"contracts/Distribution/AtlantisDistribution.sol\":2873:2878  total */\n      0x0a\n        /* \"contracts/Distribution/AtlantisDistribution.sol\":2879:2880  1 */\n      0x01\n        /* \"contracts/Distribution/AtlantisDistribution.sol\":2873:2881  total[1] */\n      dup2\n      sload\n      dup2\n      lt\n      tag_190\n      jumpi\n      tag_191\n      tag_136\n      jump\t// in\n    tag_191:\n    tag_190:\n      swap1\n      0x00\n      mstore\n      keccak256(0x00, 0x20)\n      add\n      0x00\n        /* \"contracts/Distribution/AtlantisDistribution.sol\":2873:2891  total[1] += amount */\n      dup3\n      dup3\n      sload\n      tag_193\n      swap2\n      swap1\n      tag_128\n      jump\t// in\n    tag_193:\n      swap3\n      pop\n      pop\n      dup2\n      swap1\n      sstore\n      pop\n        /* \"contracts/Distribution/AtlantisDistribution.sol\":2913:2919  amount */\n      dup2\n        /* \"contracts/Distribution/AtlantisDistribution.sol\":2901:2906  total */\n      0x0a\n        /* \"contracts/Distribution/AtlantisDistribution.sol\":2907:2908  2 */\n      0x02\n        /* \"contracts/Distribution/AtlantisDistribution.sol\":2901:2909  total[2] */\n      dup2\n      sload\n      dup2\n      lt\n      tag_194\n      jumpi\n      tag_195\n      tag_136\n      jump\t// in\n    tag_195:\n    tag_194:\n      swap1\n      0x00\n      mstore\n      keccak256(0x00, 0x20)\n      add\n      0x00\n        /* \"contracts/Distribution/AtlantisDistribution.sol\":2901:2919  total[2] += amount */\n      dup3\n      dup3\n      sload\n      tag_197\n      swap2\n      swap1\n      tag_128\n      jump\t// in\n    tag_197:\n      swap3\n      pop\n      pop\n      dup2\n      swap1\n      sstore\n      pop\n        /* \"contracts/Distribution/AtlantisDistribution.sol\":2946:2952  amount */\n      dup2\n        /* \"contracts/Distribution/AtlantisDistribution.sol\":2930:2942  _totalSupply */\n      0x02\n      0x00\n        /* \"contracts/Distribution/AtlantisDistribution.sol\":2930:2952  _totalSupply += amount */\n      dup3\n      dup3\n      sload\n      tag_198\n      swap2\n      swap1\n      tag_128\n      jump\t// in\n    tag_198:\n      swap3\n      pop\n      pop\n      dup2\n      swap1\n      sstore\n      pop\n        /* \"contracts/Distribution/AtlantisDistribution.sol\":2550:2959  {... */\n      pop\n        /* \"contracts/Distribution/AtlantisDistribution.sol\":2479:2959  function mintToNRS(address account, uint256 amount) external onlyOwner {... */\n      pop\n      pop\n      jump\t// out\n        /* \"contracts/Distribution/WrappedERC20Token.sol\":3118:3224  function totalSupply() public view virtual override returns (uint256) {... */\n    tag_43:\n        /* \"contracts/Distribution/WrappedERC20Token.sol\":3179:3186  uint256 */\n      0x00\n        /* \"contracts/Distribution/WrappedERC20Token.sol\":3205:3217  _totalSupply */\n      sload(0x02)\n        /* \"contracts/Distribution/WrappedERC20Token.sol\":3198:3217  return _totalSupply */\n      swap1\n      pop\n        /* \"contracts/Distribution/WrappedERC20Token.sol\":3118:3224  function totalSupply() public view virtual override returns (uint256) {... */\n      swap1\n      jump\t// out\n        /* \"contracts/Distribution/AtlantisDistribution.sol\":3362:3509  function transferFrom(address sender, address recipient, uint256 amount) public override returns (bool) {... */\n    tag_49:\n        /* \"contracts/Distribution/AtlantisDistribution.sol\":3460:3464  bool */\n      0x00\n        /* \"contracts/Distribution/AtlantisDistribution.sol\":3498:3502  true */\n      0x01\n        /* \"contracts/Distribution/AtlantisDistribution.sol\":3491:3502  return true */\n      swap1\n      pop\n        /* \"contracts/Distribution/AtlantisDistribution.sol\":3362:3509  function transferFrom(address sender, address recipient, uint256 amount) public override returns (bool) {... */\n      swap4\n      swap3\n      pop\n      pop\n      pop\n      jump\t// out\n        /* \"contracts/Distribution/WrappedERC20Token.sol\":2976:3058  function decimals() public view virtual returns (uint8) {... */\n    tag_52:\n        /* \"contracts/Distribution/WrappedERC20Token.sol\":3025:3030  uint8 */\n      0x00\n        /* \"contracts/Distribution/WrappedERC20Token.sol\":3049:3051  18 */\n      0x12\n        /* \"contracts/Distribution/WrappedERC20Token.sol\":3042:3051  return 18 */\n      swap1\n      pop\n        /* \"contracts/Distribution/WrappedERC20Token.sol\":2976:3058  function decimals() public view virtual returns (uint8) {... */\n      swap1\n      jump\t// out\n        /* \"contracts/Distribution/WrappedERC20Token.sol\":5569:5781  function increaseAllowance(address spender, uint256 addedValue) public virtual returns (bool) {... */\n    tag_57:\n        /* \"contracts/Distribution/WrappedERC20Token.sol\":5657:5661  bool */\n      0x00\n        /* \"contracts/Distribution/WrappedERC20Token.sol\":5673:5753  _approve(_msgSender(), spender, _allowances[_msgSender()][spender] + addedValue) */\n      tag_203\n        /* \"contracts/Distribution/WrappedERC20Token.sol\":5682:5694  _msgSender() */\n      tag_204\n        /* \"contracts/Distribution/WrappedERC20Token.sol\":5682:5692  _msgSender */\n      tag_115\n        /* \"contracts/Distribution/WrappedERC20Token.sol\":5682:5694  _msgSender() */\n      jump\t// in\n    tag_204:\n        /* \"contracts/Distribution/WrappedERC20Token.sol\":5696:5703  spender */\n      dup5\n        /* \"contracts/Distribution/WrappedERC20Token.sol\":5742:5752  addedValue */\n      dup5\n        /* \"contracts/Distribution/WrappedERC20Token.sol\":5705:5716  _allowances */\n      0x01\n        /* \"contracts/Distribution/WrappedERC20Token.sol\":5705:5730  _allowances[_msgSender()] */\n      0x00\n        /* \"contracts/Distribution/WrappedERC20Token.sol\":5717:5729  _msgSender() */\n      tag_205\n        /* \"contracts/Distribution/WrappedERC20Token.sol\":5717:5727  _msgSender */\n      tag_115\n        /* \"contracts/Distribution/WrappedERC20Token.sol\":5717:5729  _msgSender() */\n      jump\t// in\n    tag_205:\n        /* \"contracts/Distribution/WrappedERC20Token.sol\":5705:5730  _allowances[_msgSender()] */\n      0xffffffffffffffffffffffffffffffffffffffff\n      and\n      0xffffffffffffffffffffffffffffffffffffffff\n      and\n      dup2\n      mstore\n      0x20\n      add\n      swap1\n      dup2\n      mstore\n      0x20\n      add\n      0x00\n      keccak256\n        /* \"contracts/Distribution/WrappedERC20Token.sol\":5705:5739  _allowances[_msgSender()][spender] */\n      0x00\n        /* \"contracts/Distribution/WrappedERC20Token.sol\":5731:5738  spender */\n      dup9\n        /* \"contracts/Distribution/WrappedERC20Token.sol\":5705:5739  _allowances[_msgSender()][spender] */\n      0xffffffffffffffffffffffffffffffffffffffff\n      and\n      0xffffffffffffffffffffffffffffffffffffffff\n      and\n      dup2\n      mstore\n      0x20\n      add\n      swap1\n      dup2\n      mstore\n      0x20\n      add\n      0x00\n      keccak256\n      sload\n        /* \"contracts/Distribution/WrappedERC20Token.sol\":5705:5752  _allowances[_msgSender()][spender] + addedValue */\n      tag_206\n      swap2\n      swap1\n      tag_128\n      jump\t// in\n    tag_206:\n        /* \"contracts/Distribution/WrappedERC20Token.sol\":5673:5681  _approve */\n      tag_116\n        /* \"contracts/Distribution/WrappedERC20Token.sol\":5673:5753  _approve(_msgSender(), spender, _allowances[_msgSender()][spender] + addedValue) */\n      jump\t// in\n    tag_203:\n        /* \"contracts/Distribution/WrappedERC20Token.sol\":5770:5774  true */\n      0x01\n        /* \"contracts/Distribution/WrappedERC20Token.sol\":5763:5774  return true */\n      swap1\n      pop\n        /* \"contracts/Distribution/WrappedERC20Token.sol\":5569:5781  function increaseAllowance(address spender, uint256 addedValue) public virtual returns (bool) {... */\n      swap3\n      swap2\n      pop\n      pop\n      jump\t// out\n        /* \"contracts/Distribution/AtlantisDistribution.sol\":406:449  uint256[] public cury = new uint256[](size) */\n    tag_62:\n      0x09\n      dup2\n      dup2\n      sload\n      dup2\n      lt\n      tag_207\n      jumpi\n      0x00\n      dup1\n      revert\n    tag_207:\n      swap1\n      0x00\n      mstore\n      keccak256(0x00, 0x20)\n      add\n      0x00\n      swap2\n      pop\n      swap1\n      pop\n      sload\n      dup2\n      jump\t// out\n        /* \"contracts/Distribution/AtlantisDistribution.sol\":919:1140  function balanceOf(address account) public view override returns (uint256) {... */\n    tag_67:\n        /* \"contracts/Distribution/AtlantisDistribution.sol\":985:992  uint256 */\n      0x00\n        /* \"contracts/Distribution/AtlantisDistribution.sol\":1024:1025  0 */\n      dup1\n        /* \"contracts/Distribution/AtlantisDistribution.sol\":1008:1011  lvl */\n      0x07\n        /* \"contracts/Distribution/AtlantisDistribution.sol\":1008:1020  lvl[account] */\n      0x00\n        /* \"contracts/Distribution/AtlantisDistribution.sol\":1012:1019  account */\n      dup5\n        /* \"contracts/Distribution/AtlantisDistribution.sol\":1008:1020  lvl[account] */\n      0xffffffffffffffffffffffffffffffffffffffff\n      and\n      0xffffffffffffffffffffffffffffffffffffffff\n      and\n      dup2\n      mstore\n      0x20\n      add\n      swap1\n      dup2\n      mstore\n      0x20\n      add\n      0x00\n      keccak256\n      0x00\n      swap1\n      sload\n      swap1\n      0x0100\n      exp\n      swap1\n      div\n      0xff\n      and\n        /* \"contracts/Distribution/AtlantisDistribution.sol\":1008:1025  lvl[account] == 0 */\n      0xff\n      and\n      sub\n        /* \"contracts/Distribution/AtlantisDistribution.sol\":1004:1064  if (lvl[account] == 0)... */\n      tag_210\n      jumpi\n        /* \"contracts/Distribution/AtlantisDistribution.sol\":1046:1055  _balances */\n      0x00\n        /* \"contracts/Distribution/AtlantisDistribution.sol\":1046:1064  _balances[account] */\n      dup1\n        /* \"contracts/Distribution/AtlantisDistribution.sol\":1056:1063  account */\n      dup4\n        /* \"contracts/Distribution/AtlantisDistribution.sol\":1046:1064  _balances[account] */\n      0xffffffffffffffffffffffffffffffffffffffff\n      and\n      0xffffffffffffffffffffffffffffffffffffffff\n      and\n      dup2\n      mstore\n      0x20\n      add\n      swap1\n      dup2\n      mstore\n      0x20\n      add\n      0x00\n      keccak256\n      sload\n        /* \"contracts/Distribution/AtlantisDistribution.sol\":1039:1064  return _balances[account] */\n      swap1\n      pop\n      jump(tag_209)\n        /* \"contracts/Distribution/AtlantisDistribution.sol\":1004:1064  if (lvl[account] == 0)... */\n    tag_210:\n        /* \"contracts/Distribution/AtlantisDistribution.sol\":1123:1124  y */\n      0x06\n        /* \"contracts/Distribution/AtlantisDistribution.sol\":1123:1133  y[account] */\n      0x00\n        /* \"contracts/Distribution/AtlantisDistribution.sol\":1125:1132  account */\n      dup4\n        /* \"contracts/Distribution/AtlantisDistribution.sol\":1123:1133  y[account] */\n      0xffffffffffffffffffffffffffffffffffffffff\n      and\n      0xffffffffffffffffffffffffffffffffffffffff\n      and\n      dup2\n      mstore\n      0x20\n      add\n      swap1\n      dup2\n      mstore\n      0x20\n      add\n      0x00\n      keccak256\n      sload\n        /* \"contracts/Distribution/AtlantisDistribution.sol\":1102:1111  _balances */\n      0x00\n        /* \"contracts/Distribution/AtlantisDistribution.sol\":1102:1120  _balances[account] */\n      dup1\n        /* \"contracts/Distribution/AtlantisDistribution.sol\":1112:1119  account */\n      dup5\n        /* \"contracts/Distribution/AtlantisDistribution.sol\":1102:1120  _balances[account] */\n      0xffffffffffffffffffffffffffffffffffffffff\n      and\n      0xffffffffffffffffffffffffffffffffffffffff\n      and\n      dup2\n      mstore\n      0x20\n      add\n      swap1\n      dup2\n      mstore\n      0x20\n      add\n      0x00\n      keccak256\n      sload\n        /* \"contracts/Distribution/AtlantisDistribution.sol\":1081:1085  cury */\n      0x09\n        /* \"contracts/Distribution/AtlantisDistribution.sol\":1086:1089  lvl */\n      0x07\n        /* \"contracts/Distribution/AtlantisDistribution.sol\":1086:1098  lvl[account] */\n      0x00\n        /* \"contracts/Distribution/AtlantisDistribution.sol\":1090:1097  account */\n      dup7\n        /* \"contracts/Distribution/AtlantisDistribution.sol\":1086:1098  lvl[account] */\n      0xffffffffffffffffffffffffffffffffffffffff\n      and\n      0xffffffffffffffffffffffffffffffffffffffff\n      and\n      dup2\n      mstore\n      0x20\n      add\n      swap1\n      dup2\n      mstore\n      0x20\n      add\n      0x00\n      keccak256\n      0x00\n      swap1\n      sload\n      swap1\n      0x0100\n      exp\n      swap1\n      div\n      0xff\n      and\n        /* \"contracts/Distribution/AtlantisDistribution.sol\":1081:1099  cury[lvl[account]] */\n      0xff\n      and\n      dup2\n      sload\n      dup2\n      lt\n      tag_211\n      jumpi\n      tag_212\n      tag_136\n      jump\t// in\n    tag_212:\n    tag_211:\n      swap1\n      0x00\n      mstore\n      keccak256(0x00, 0x20)\n      add\n      sload\n        /* \"contracts/Distribution/AtlantisDistribution.sol\":1081:1120  cury[lvl[account]] * _balances[account] */\n      tag_214\n      swap2\n      swap1\n      tag_143\n      jump\t// in\n    tag_214:\n        /* \"contracts/Distribution/AtlantisDistribution.sol\":1081:1133  cury[lvl[account]] * _balances[account] / y[account] */\n      tag_215\n      swap2\n      swap1\n      tag_133\n      jump\t// in\n    tag_215:\n        /* \"contracts/Distribution/AtlantisDistribution.sol\":1074:1133  return cury[lvl[account]] * _balances[account] / y[account] */\n      swap1\n      pop\n        /* \"contracts/Distribution/AtlantisDistribution.sol\":919:1140  function balanceOf(address account) public view override returns (uint256) {... */\n    tag_209:\n      swap2\n      swap1\n      pop\n      jump\t// out\n        /* \"@openzeppelin/contracts/access/Ownable.sol\":1605:1697  function renounceOwnership() public virtual onlyOwner {... */\n    tag_70:\n        /* \"@openzeppelin/contracts/access/Ownable.sol\":1196:1208  _msgSender() */\n      tag_217\n        /* \"@openzeppelin/contracts/access/Ownable.sol\":1196:1206  _msgSender */\n      tag_115\n        /* \"@openzeppelin/contracts/access/Ownable.sol\":1196:1208  _msgSender() */\n      jump\t// in\n    tag_217:\n        /* \"@openzeppelin/contracts/access/Ownable.sol\":1185:1208  owner() == _msgSender() */\n      0xffffffffffffffffffffffffffffffffffffffff\n      and\n        /* \"@openzeppelin/contracts/access/Ownable.sol\":1185:1192  owner() */\n      tag_218\n        /* \"@openzeppelin/contracts/access/Ownable.sol\":1185:1190  owner */\n      tag_76\n        /* \"@openzeppelin/contracts/access/Ownable.sol\":1185:1192  owner() */\n      jump\t// in\n    tag_218:\n        /* \"@openzeppelin/contracts/access/Ownable.sol\":1185:1208  owner() == _msgSender() */\n      0xffffffffffffffffffffffffffffffffffffffff\n      and\n      eq\n        /* \"@openzeppelin/contracts/access/Ownable.sol\":1177:1245  require(owner() == _msgSender(), \"Ownable: caller is not the owner\") */\n      tag_219\n      jumpi\n      mload(0x40)\n      0x08c379a000000000000000000000000000000000000000000000000000000000\n      dup2\n      mstore\n      0x04\n      add\n      tag_220\n      swap1\n      tag_122\n      jump\t// in\n    tag_220:\n      mload(0x40)\n      dup1\n      swap2\n      sub\n      swap1\n      revert\n    tag_219:\n        /* \"@openzeppelin/contracts/access/Ownable.sol\":1669:1690  _setOwner(address(0)) */\n      tag_222\n        /* \"@openzeppelin/contracts/access/Ownable.sol\":1687:1688  0 */\n      0x00\n        /* \"@openzeppelin/contracts/access/Ownable.sol\":1669:1678  _setOwner */\n      tag_223\n        /* \"@openzeppelin/contracts/access/Ownable.sol\":1669:1690  _setOwner(address(0)) */\n      jump\t// in\n    tag_222:\n        /* \"@openzeppelin/contracts/access/Ownable.sol\":1605:1697  function renounceOwnership() public virtual onlyOwner {... */\n      jump\t// out\n        /* \"contracts/Distribution/AtlantisDistribution.sol\":344:381  mapping (address => uint8) public lvl */\n    tag_73:\n      mstore(0x20, 0x07)\n      dup1\n      0x00\n      mstore\n      keccak256(0x00, 0x40)\n      0x00\n      swap2\n      pop\n      sload\n      swap1\n      0x0100\n      exp\n      swap1\n      div\n      0xff\n      and\n      dup2\n      jump\t// out\n        /* \"@openzeppelin/contracts/access/Ownable.sol\":973:1058  function owner() public view virtual returns (address) {... */\n    tag_76:\n        /* \"@openzeppelin/contracts/access/Ownable.sol\":1019:1026  address */\n      0x00\n        /* \"@openzeppelin/contracts/access/Ownable.sol\":1045:1051  _owner */\n      0x05\n      0x00\n      swap1\n      sload\n      swap1\n      0x0100\n      exp\n      swap1\n      div\n      0xffffffffffffffffffffffffffffffffffffffff\n      and\n        /* \"@openzeppelin/contracts/access/Ownable.sol\":1038:1051  return _owner */\n      swap1\n      pop\n        /* \"@openzeppelin/contracts/access/Ownable.sol\":973:1058  function owner() public view virtual returns (address) {... */\n      swap1\n      jump\t// out\n        /* \"contracts/Distribution/WrappedERC20Token.sol\":2259:2352  function symbol() public view virtual returns (string memory) {... */\n    tag_80:\n        /* \"contracts/Distribution/WrappedERC20Token.sol\":2306:2319  string memory */\n      0x60\n        /* \"contracts/Distribution/WrappedERC20Token.sol\":2338:2345  _symbol */\n      0x04\n        /* \"contracts/Distribution/WrappedERC20Token.sol\":2331:2345  return _symbol */\n      dup1\n      sload\n      tag_226\n      swap1\n      tag_107\n      jump\t// in\n    tag_226:\n      dup1\n      0x1f\n      add\n      0x20\n      dup1\n      swap2\n      div\n      mul\n      0x20\n      add\n      mload(0x40)\n      swap1\n      dup2\n      add\n      0x40\n      mstore\n      dup1\n      swap3\n      swap2\n      swap1\n      dup2\n      dup2\n      mstore\n      0x20\n      add\n      dup3\n      dup1\n      sload\n      tag_227\n      swap1\n      tag_107\n      jump\t// in\n    tag_227:\n      dup1\n      iszero\n      tag_228\n      jumpi\n      dup1\n      0x1f\n      lt\n      tag_229\n      jumpi\n      0x0100\n      dup1\n      dup4\n      sload\n      div\n      mul\n      dup4\n      mstore\n      swap2\n      0x20\n      add\n      swap2\n      jump(tag_228)\n    tag_229:\n      dup3\n      add\n      swap2\n      swap1\n      0x00\n      mstore\n      keccak256(0x00, 0x20)\n      swap1\n    tag_230:\n      dup2\n      sload\n      dup2\n      mstore\n      swap1\n      0x01\n      add\n      swap1\n      0x20\n      add\n      dup1\n      dup4\n      gt\n      tag_230\n      jumpi\n      dup3\n      swap1\n      sub\n      0x1f\n      and\n      dup3\n      add\n      swap2\n    tag_228:\n      pop\n      pop\n      pop\n      pop\n      pop\n      swap1\n      pop\n        /* \"contracts/Distribution/WrappedERC20Token.sol\":2259:2352  function symbol() public view virtual returns (string memory) {... */\n      swap1\n      jump\t// out\n        /* \"contracts/Distribution/AtlantisDistribution.sol\":1382:1822  function mint(uint256 amount) external onlyOwner {... */\n    tag_84:\n        /* \"@openzeppelin/contracts/access/Ownable.sol\":1196:1208  _msgSender() */\n      tag_232\n        /* \"@openzeppelin/contracts/access/Ownable.sol\":1196:1206  _msgSender */\n      tag_115\n        /* \"@openzeppelin/contracts/access/Ownable.sol\":1196:1208  _msgSender() */\n      jump\t// in\n    tag_232:\n        /* \"@openzeppelin/contracts/access/Ownable.sol\":1185:1208  owner() == _msgSender() */\n      0xffffffffffffffffffffffffffffffffffffffff\n      and\n        /* \"@openzeppelin/contracts/access/Ownable.sol\":1185:1192  owner() */\n      tag_233\n        /* \"@openzeppelin/contracts/access/Ownable.sol\":1185:1190  owner */\n      tag_76\n        /* \"@openzeppelin/contracts/access/Ownable.sol\":1185:1192  owner() */\n      jump\t// in\n    tag_233:\n        /* \"@openzeppelin/contracts/access/Ownable.sol\":1185:1208  owner() == _msgSender() */\n      0xffffffffffffffffffffffffffffffffffffffff\n      and\n      eq\n        /* \"@openzeppelin/contracts/access/Ownable.sol\":1177:1245  require(owner() == _msgSender(), \"Ownable: caller is not the owner\") */\n      tag_234\n      jumpi\n      mload(0x40)\n      0x08c379a000000000000000000000000000000000000000000000000000000000\n      dup2\n      mstore\n      0x04\n      add\n      tag_235\n      swap1\n      tag_122\n      jump\t// in\n    tag_235:\n      mload(0x40)\n      dup1\n      swap2\n      sub\n      swap1\n      revert\n    tag_234:\n        /* \"contracts/Distribution/AtlantisDistribution.sol\":1457:1458  0 */\n      0x00\n        /* \"contracts/Distribution/AtlantisDistribution.sol\":1445:1450  total */\n      0x0a\n        /* \"contracts/Distribution/AtlantisDistribution.sol\":1451:1452  2 */\n      0x02\n        /* \"contracts/Distribution/AtlantisDistribution.sol\":1445:1453  total[2] */\n      dup2\n      sload\n      dup2\n      lt\n      tag_237\n      jumpi\n      tag_238\n      tag_136\n      jump\t// in\n    tag_238:\n    tag_237:\n      swap1\n      0x00\n      mstore\n      keccak256(0x00, 0x20)\n      add\n      sload\n        /* \"contracts/Distribution/AtlantisDistribution.sol\":1445:1458  total[2] != 0 */\n      eq\n        /* \"contracts/Distribution/AtlantisDistribution.sol\":1441:1553  if (total[2] != 0) {... */\n      tag_240\n      jumpi\n        /* \"contracts/Distribution/AtlantisDistribution.sol\":1506:1507  4 */\n      0x04\n        /* \"contracts/Distribution/AtlantisDistribution.sol\":1497:1503  amount */\n      dup2\n        /* \"contracts/Distribution/AtlantisDistribution.sol\":1497:1507  amount / 4 */\n      tag_241\n      swap2\n      swap1\n      tag_133\n      jump\t// in\n    tag_241:\n        /* \"contracts/Distribution/AtlantisDistribution.sol\":1486:1491  total */\n      0x0a\n        /* \"contracts/Distribution/AtlantisDistribution.sol\":1492:1493  2 */\n      0x02\n        /* \"contracts/Distribution/AtlantisDistribution.sol\":1486:1494  total[2] */\n      dup2\n      sload\n      dup2\n      lt\n      tag_242\n      jumpi\n      tag_243\n      tag_136\n      jump\t// in\n    tag_243:\n    tag_242:\n      swap1\n      0x00\n      mstore\n      keccak256(0x00, 0x20)\n      add\n      sload\n        /* \"contracts/Distribution/AtlantisDistribution.sol\":1486:1507  total[2] + amount / 4 */\n      tag_245\n      swap2\n      swap1\n      tag_128\n      jump\t// in\n    tag_245:\n        /* \"contracts/Distribution/AtlantisDistribution.sol\":1474:1478  cury */\n      0x09\n        /* \"contracts/Distribution/AtlantisDistribution.sol\":1479:1480  2 */\n      0x02\n        /* \"contracts/Distribution/AtlantisDistribution.sol\":1474:1481  cury[2] */\n      dup2\n      sload\n      dup2\n      lt\n      tag_246\n      jumpi\n      tag_247\n      tag_136\n      jump\t// in\n    tag_247:\n    tag_246:\n      swap1\n      0x00\n      mstore\n      keccak256(0x00, 0x20)\n      add\n      0x00\n        /* \"contracts/Distribution/AtlantisDistribution.sol\":1474:1508  cury[2] *= (total[2] + amount / 4) */\n      dup3\n      dup3\n      sload\n      tag_249\n      swap2\n      swap1\n      tag_143\n      jump\t// in\n    tag_249:\n      swap3\n      pop\n      pop\n      dup2\n      swap1\n      sstore\n      pop\n        /* \"contracts/Distribution/AtlantisDistribution.sol\":1534:1539  total */\n      0x0a\n        /* \"contracts/Distribution/AtlantisDistribution.sol\":1540:1541  2 */\n      0x02\n        /* \"contracts/Distribution/AtlantisDistribution.sol\":1534:1542  total[2] */\n      dup2\n      sload\n      dup2\n      lt\n      tag_250\n      jumpi\n      tag_251\n      tag_136\n      jump\t// in\n    tag_251:\n    tag_250:\n      swap1\n      0x00\n      mstore\n      keccak256(0x00, 0x20)\n      add\n      sload\n        /* \"contracts/Distribution/AtlantisDistribution.sol\":1522:1526  cury */\n      0x09\n        /* \"contracts/Distribution/AtlantisDistribution.sol\":1527:1528  2 */\n      0x02\n        /* \"contracts/Distribution/AtlantisDistribution.sol\":1522:1529  cury[2] */\n      dup2\n      sload\n      dup2\n      lt\n      tag_253\n      jumpi\n      tag_254\n      tag_136\n      jump\t// in\n    tag_254:\n    tag_253:\n      swap1\n      0x00\n      mstore\n      keccak256(0x00, 0x20)\n      add\n      0x00\n        /* \"contracts/Distribution/AtlantisDistribution.sol\":1522:1542  cury[2] /=  total[2] */\n      dup3\n      dup3\n      sload\n      tag_256\n      swap2\n      swap1\n      tag_133\n      jump\t// in\n    tag_256:\n      swap3\n      pop\n      pop\n      dup2\n      swap1\n      sstore\n      pop\n        /* \"contracts/Distribution/AtlantisDistribution.sol\":1441:1553  if (total[2] != 0) {... */\n    tag_240:\n        /* \"contracts/Distribution/AtlantisDistribution.sol\":1578:1579  0 */\n      0x00\n        /* \"contracts/Distribution/AtlantisDistribution.sol\":1566:1571  total */\n      0x0a\n        /* \"contracts/Distribution/AtlantisDistribution.sol\":1572:1573  1 */\n      0x01\n        /* \"contracts/Distribution/AtlantisDistribution.sol\":1566:1574  total[1] */\n      dup2\n      sload\n      dup2\n      lt\n      tag_257\n      jumpi\n      tag_258\n      tag_136\n      jump\t// in\n    tag_258:\n    tag_257:\n      swap1\n      0x00\n      mstore\n      keccak256(0x00, 0x20)\n      add\n      sload\n        /* \"contracts/Distribution/AtlantisDistribution.sol\":1566:1579  total[1] != 0 */\n      eq\n        /* \"contracts/Distribution/AtlantisDistribution.sol\":1562:1673  if (total[1] != 0) {... */\n      tag_260\n      jumpi\n        /* \"contracts/Distribution/AtlantisDistribution.sol\":1627:1628  4 */\n      0x04\n        /* \"contracts/Distribution/AtlantisDistribution.sol\":1618:1624  amount */\n      dup2\n        /* \"contracts/Distribution/AtlantisDistribution.sol\":1618:1628  amount / 4 */\n      tag_261\n      swap2\n      swap1\n      tag_133\n      jump\t// in\n    tag_261:\n        /* \"contracts/Distribution/AtlantisDistribution.sol\":1607:1612  total */\n      0x0a\n        /* \"contracts/Distribution/AtlantisDistribution.sol\":1613:1614  1 */\n      0x01\n        /* \"contracts/Distribution/AtlantisDistribution.sol\":1607:1615  total[1] */\n      dup2\n      sload\n      dup2\n      lt\n      tag_262\n      jumpi\n      tag_263\n      tag_136\n      jump\t// in\n    tag_263:\n    tag_262:\n      swap1\n      0x00\n      mstore\n      keccak256(0x00, 0x20)\n      add\n      sload\n        /* \"contracts/Distribution/AtlantisDistribution.sol\":1607:1628  total[1] + amount / 4 */\n      tag_265\n      swap2\n      swap1\n      tag_128\n      jump\t// in\n    tag_265:\n        /* \"contracts/Distribution/AtlantisDistribution.sol\":1595:1599  cury */\n      0x09\n        /* \"contracts/Distribution/AtlantisDistribution.sol\":1600:1601  1 */\n      0x01\n        /* \"contracts/Distribution/AtlantisDistribution.sol\":1595:1602  cury[1] */\n      dup2\n      sload\n      dup2\n      lt\n      tag_266\n      jumpi\n      tag_267\n      tag_136\n      jump\t// in\n    tag_267:\n    tag_266:\n      swap1\n      0x00\n      mstore\n      keccak256(0x00, 0x20)\n      add\n      0x00\n        /* \"contracts/Distribution/AtlantisDistribution.sol\":1595:1629  cury[1] *= (total[1] + amount / 4) */\n      dup3\n      dup3\n      sload\n      tag_269\n      swap2\n      swap1\n      tag_143\n      jump\t// in\n    tag_269:\n      swap3\n      pop\n      pop\n      dup2\n      swap1\n      sstore\n      pop\n        /* \"contracts/Distribution/AtlantisDistribution.sol\":1654:1659  total */\n      0x0a\n        /* \"contracts/Distribution/AtlantisDistribution.sol\":1660:1661  1 */\n      0x01\n        /* \"contracts/Distribution/AtlantisDistribution.sol\":1654:1662  total[1] */\n      dup2\n      sload\n      dup2\n      lt\n      tag_270\n      jumpi\n      tag_271\n      tag_136\n      jump\t// in\n    tag_271:\n    tag_270:\n      swap1\n      0x00\n      mstore\n      keccak256(0x00, 0x20)\n      add\n      sload\n        /* \"contracts/Distribution/AtlantisDistribution.sol\":1643:1647  cury */\n      0x09\n        /* \"contracts/Distribution/AtlantisDistribution.sol\":1648:1649  1 */\n      0x01\n        /* \"contracts/Distribution/AtlantisDistribution.sol\":1643:1650  cury[1] */\n      dup2\n      sload\n      dup2\n      lt\n      tag_273\n      jumpi\n      tag_274\n      tag_136\n      jump\t// in\n    tag_274:\n    tag_273:\n      swap1\n      0x00\n      mstore\n      keccak256(0x00, 0x20)\n      add\n      0x00\n        /* \"contracts/Distribution/AtlantisDistribution.sol\":1643:1662  cury[1] /= total[1] */\n      dup3\n      dup3\n      sload\n      tag_276\n      swap2\n      swap1\n      tag_133\n      jump\t// in\n    tag_276:\n      swap3\n      pop\n      pop\n      dup2\n      swap1\n      sstore\n      pop\n        /* \"contracts/Distribution/AtlantisDistribution.sol\":1562:1673  if (total[1] != 0) {... */\n    tag_260:\n        /* \"contracts/Distribution/AtlantisDistribution.sol\":1717:1718  2 */\n      0x02\n        /* \"contracts/Distribution/AtlantisDistribution.sol\":1708:1714  amount */\n      dup2\n        /* \"contracts/Distribution/AtlantisDistribution.sol\":1708:1718  amount / 2 */\n      tag_277\n      swap2\n      swap1\n      tag_133\n      jump\t// in\n    tag_277:\n        /* \"contracts/Distribution/AtlantisDistribution.sol\":1682:1691  _balances */\n      0x00\n        /* \"contracts/Distribution/AtlantisDistribution.sol\":1682:1704  _balances[fund_wallet] */\n      dup1\n        /* \"contracts/Distribution/AtlantisDistribution.sol\":1692:1703  fund_wallet */\n      0x0b\n      0x00\n      swap1\n      sload\n      swap1\n      0x0100\n      exp\n      swap1\n      div\n      0xffffffffffffffffffffffffffffffffffffffff\n      and\n        /* \"contracts/Distribution/AtlantisDistribution.sol\":1682:1704  _balances[fund_wallet] */\n      0xffffffffffffffffffffffffffffffffffffffff\n      and\n      0xffffffffffffffffffffffffffffffffffffffff\n      and\n      dup2\n      mstore\n      0x20\n      add\n      swap1\n      dup2\n      mstore\n      0x20\n      add\n      0x00\n      keccak256\n      0x00\n        /* \"contracts/Distribution/AtlantisDistribution.sol\":1682:1718  _balances[fund_wallet] += amount / 2 */\n      dup3\n      dup3\n      sload\n      tag_278\n      swap2\n      swap1\n      tag_128\n      jump\t// in\n    tag_278:\n      swap3\n      pop\n      pop\n      dup2\n      swap1\n      sstore\n      pop\n        /* \"contracts/Distribution/AtlantisDistribution.sol\":1749:1750  4 */\n      0x04\n        /* \"contracts/Distribution/AtlantisDistribution.sol\":1740:1746  amount */\n      dup2\n        /* \"contracts/Distribution/AtlantisDistribution.sol\":1740:1750  amount / 4 */\n      tag_279\n      swap2\n      swap1\n      tag_133\n      jump\t// in\n    tag_279:\n        /* \"contracts/Distribution/AtlantisDistribution.sol\":1728:1733  total */\n      0x0a\n        /* \"contracts/Distribution/AtlantisDistribution.sol\":1734:1735  1 */\n      0x01\n        /* \"contracts/Distribution/AtlantisDistribution.sol\":1728:1736  total[1] */\n      dup2\n      sload\n      dup2\n      lt\n      tag_280\n      jumpi\n      tag_281\n      tag_136\n      jump\t// in\n    tag_281:\n    tag_280:\n      swap1\n      0x00\n      mstore\n      keccak256(0x00, 0x20)\n      add\n      0x00\n        /* \"contracts/Distribution/AtlantisDistribution.sol\":1728:1750  total[1] += amount / 4 */\n      dup3\n      dup3\n      sload\n      tag_283\n      swap2\n      swap1\n      tag_128\n      jump\t// in\n    tag_283:\n      swap3\n      pop\n      pop\n      dup2\n      swap1\n      sstore\n      pop\n        /* \"contracts/Distribution/AtlantisDistribution.sol\":1781:1782  4 */\n      0x04\n        /* \"contracts/Distribution/AtlantisDistribution.sol\":1772:1778  amount */\n      dup2\n        /* \"contracts/Distribution/AtlantisDistribution.sol\":1772:1782  amount / 4 */\n      tag_284\n      swap2\n      swap1\n      tag_133\n      jump\t// in\n    tag_284:\n        /* \"contracts/Distribution/AtlantisDistribution.sol\":1760:1765  total */\n      0x0a\n        /* \"contracts/Distribution/AtlantisDistribution.sol\":1766:1767  2 */\n      0x02\n        /* \"contracts/Distribution/AtlantisDistribution.sol\":1760:1768  total[2] */\n      dup2\n      sload\n      dup2\n      lt\n      tag_285\n      jumpi\n      tag_286\n      tag_136\n      jump\t// in\n    tag_286:\n    tag_285:\n      swap1\n      0x00\n      mstore\n      keccak256(0x00, 0x20)\n      add\n      0x00\n        /* \"contracts/Distribution/AtlantisDistribution.sol\":1760:1782  total[2] += amount / 4 */\n      dup3\n      dup3\n      sload\n      tag_288\n      swap2\n      swap1\n      tag_128\n      jump\t// in\n    tag_288:\n      swap3\n      pop\n      pop\n      dup2\n      swap1\n      sstore\n      pop\n        /* \"contracts/Distribution/AtlantisDistribution.sol\":1809:1815  amount */\n      dup1\n        /* \"contracts/Distribution/AtlantisDistribution.sol\":1793:1805  _totalSupply */\n      0x02\n      0x00\n        /* \"contracts/Distribution/AtlantisDistribution.sol\":1793:1815  _totalSupply += amount */\n      dup3\n      dup3\n      sload\n      tag_289\n      swap2\n      swap1\n      tag_128\n      jump\t// in\n    tag_289:\n      swap3\n      pop\n      pop\n      dup2\n      swap1\n      sstore\n      pop\n        /* \"contracts/Distribution/AtlantisDistribution.sol\":1382:1822  function mint(uint256 amount) external onlyOwner {... */\n      pop\n      jump\t// out\n        /* \"contracts/Distribution/AtlantisDistribution.sol\":2173:2473  function changeLvl(address account, uint8 newLvl) external onlyOwner {... */\n    tag_88:\n        /* \"@openzeppelin/contracts/access/Ownable.sol\":1196:1208  _msgSender() */\n      tag_291\n        /* \"@openzeppelin/contracts/access/Ownable.sol\":1196:1206  _msgSender */\n      tag_115\n        /* \"@openzeppelin/contracts/access/Ownable.sol\":1196:1208  _msgSender() */\n      jump\t// in\n    tag_291:\n        /* \"@openzeppelin/contracts/access/Ownable.sol\":1185:1208  owner() == _msgSender() */\n      0xffffffffffffffffffffffffffffffffffffffff\n      and\n        /* \"@openzeppelin/contracts/access/Ownable.sol\":1185:1192  owner() */\n      tag_292\n        /* \"@openzeppelin/contracts/access/Ownable.sol\":1185:1190  owner */\n      tag_76\n        /* \"@openzeppelin/contracts/access/Ownable.sol\":1185:1192  owner() */\n      jump\t// in\n    tag_292:\n        /* \"@openzeppelin/contracts/access/Ownable.sol\":1185:1208  owner() == _msgSender() */\n      0xffffffffffffffffffffffffffffffffffffffff\n      and\n      eq\n        /* \"@openzeppelin/contracts/access/Ownable.sol\":1177:1245  require(owner() == _msgSender(), \"Ownable: caller is not the owner\") */\n      tag_293\n      jumpi\n      mload(0x40)\n      0x08c379a000000000000000000000000000000000000000000000000000000000\n      dup2\n      mstore\n      0x04\n      add\n      tag_294\n      swap1\n      tag_122\n      jump\t// in\n    tag_294:\n      mload(0x40)\n      dup1\n      swap2\n      sub\n      swap1\n      revert\n    tag_293:\n        /* \"contracts/Distribution/AtlantisDistribution.sol\":2252:2273  relaxBalance(account) */\n      tag_296\n        /* \"contracts/Distribution/AtlantisDistribution.sol\":2265:2272  account */\n      dup3\n        /* \"contracts/Distribution/AtlantisDistribution.sol\":2252:2264  relaxBalance */\n      tag_169\n        /* \"contracts/Distribution/AtlantisDistribution.sol\":2252:2273  relaxBalance(account) */\n      jump\t// in\n    tag_296:\n        /* \"contracts/Distribution/AtlantisDistribution.sol\":2283:2295  uint8 oldLvl */\n      0x00\n        /* \"contracts/Distribution/AtlantisDistribution.sol\":2298:2301  lvl */\n      0x07\n        /* \"contracts/Distribution/AtlantisDistribution.sol\":2298:2310  lvl[account] */\n      0x00\n        /* \"contracts/Distribution/AtlantisDistribution.sol\":2302:2309  account */\n      dup5\n        /* \"contracts/Distribution/AtlantisDistribution.sol\":2298:2310  lvl[account] */\n      0xffffffffffffffffffffffffffffffffffffffff\n      and\n      0xffffffffffffffffffffffffffffffffffffffff\n      and\n      dup2\n      mstore\n      0x20\n      add\n      swap1\n      dup2\n      mstore\n      0x20\n      add\n      0x00\n      keccak256\n      0x00\n      swap1\n      sload\n      swap1\n      0x0100\n      exp\n      swap1\n      div\n      0xff\n      and\n        /* \"contracts/Distribution/AtlantisDistribution.sol\":2283:2310  uint8 oldLvl = lvl[account] */\n      swap1\n      pop\n        /* \"contracts/Distribution/AtlantisDistribution.sol\":2335:2341  newLvl */\n      dup2\n        /* \"contracts/Distribution/AtlantisDistribution.sol\":2320:2323  lvl */\n      0x07\n        /* \"contracts/Distribution/AtlantisDistribution.sol\":2320:2332  lvl[account] */\n      0x00\n        /* \"contracts/Distribution/AtlantisDistribution.sol\":2324:2331  account */\n      dup6\n        /* \"contracts/Distribution/AtlantisDistribution.sol\":2320:2332  lvl[account] */\n      0xffffffffffffffffffffffffffffffffffffffff\n      and\n      0xffffffffffffffffffffffffffffffffffffffff\n      and\n      dup2\n      mstore\n      0x20\n      add\n      swap1\n      dup2\n      mstore\n      0x20\n      add\n      0x00\n      keccak256\n      0x00\n        /* \"contracts/Distribution/AtlantisDistribution.sol\":2320:2341  lvl[account] = newLvl */\n      0x0100\n      exp\n      dup2\n      sload\n      dup2\n      0xff\n      mul\n      not\n      and\n      swap1\n      dup4\n      0xff\n      and\n      mul\n      or\n      swap1\n      sstore\n      pop\n        /* \"contracts/Distribution/AtlantisDistribution.sol\":2368:2377  _balances */\n      0x00\n        /* \"contracts/Distribution/AtlantisDistribution.sol\":2368:2386  _balances[account] */\n      dup1\n        /* \"contracts/Distribution/AtlantisDistribution.sol\":2378:2385  account */\n      dup5\n        /* \"contracts/Distribution/AtlantisDistribution.sol\":2368:2386  _balances[account] */\n      0xffffffffffffffffffffffffffffffffffffffff\n      and\n      0xffffffffffffffffffffffffffffffffffffffff\n      and\n      dup2\n      mstore\n      0x20\n      add\n      swap1\n      dup2\n      mstore\n      0x20\n      add\n      0x00\n      keccak256\n      sload\n        /* \"contracts/Distribution/AtlantisDistribution.sol\":2351:2356  total */\n      0x0a\n        /* \"contracts/Distribution/AtlantisDistribution.sol\":2357:2363  oldLvl */\n      dup3\n        /* \"contracts/Distribution/AtlantisDistribution.sol\":2351:2364  total[oldLvl] */\n      0xff\n      and\n      dup2\n      sload\n      dup2\n      lt\n      tag_297\n      jumpi\n      tag_298\n      tag_136\n      jump\t// in\n    tag_298:\n    tag_297:\n      swap1\n      0x00\n      mstore\n      keccak256(0x00, 0x20)\n      add\n      0x00\n        /* \"contracts/Distribution/AtlantisDistribution.sol\":2351:2386  total[oldLvl] -= _balances[account] */\n      dup3\n      dup3\n      sload\n      tag_300\n      swap2\n      swap1\n      tag_301\n      jump\t// in\n    tag_300:\n      swap3\n      pop\n      pop\n      dup2\n      swap1\n      sstore\n      pop\n        /* \"contracts/Distribution/AtlantisDistribution.sol\":2413:2422  _balances */\n      0x00\n        /* \"contracts/Distribution/AtlantisDistribution.sol\":2413:2431  _balances[account] */\n      dup1\n        /* \"contracts/Distribution/AtlantisDistribution.sol\":2423:2430  account */\n      dup5\n        /* \"contracts/Distribution/AtlantisDistribution.sol\":2413:2431  _balances[account] */\n      0xffffffffffffffffffffffffffffffffffffffff\n      and\n      0xffffffffffffffffffffffffffffffffffffffff\n      and\n      dup2\n      mstore\n      0x20\n      add\n      swap1\n      dup2\n      mstore\n      0x20\n      add\n      0x00\n      keccak256\n      sload\n        /* \"contracts/Distribution/AtlantisDistribution.sol\":2396:2401  total */\n      0x0a\n        /* \"contracts/Distribution/AtlantisDistribution.sol\":2402:2408  newLvl */\n      dup4\n        /* \"contracts/Distribution/AtlantisDistribution.sol\":2396:2409  total[newLvl] */\n      0xff\n      and\n      dup2\n      sload\n      dup2\n      lt\n      tag_302\n      jumpi\n      tag_303\n      tag_136\n      jump\t// in\n    tag_303:\n    tag_302:\n      swap1\n      0x00\n      mstore\n      keccak256(0x00, 0x20)\n      add\n      0x00\n        /* \"contracts/Distribution/AtlantisDistribution.sol\":2396:2431  total[newLvl] += _balances[account] */\n      dup3\n      dup3\n      sload\n      tag_305\n      swap2\n      swap1\n      tag_128\n      jump\t// in\n    tag_305:\n      swap3\n      pop\n      pop\n      dup2\n      swap1\n      sstore\n      pop\n        /* \"contracts/Distribution/AtlantisDistribution.sol\":2454:2458  cury */\n      0x09\n        /* \"contracts/Distribution/AtlantisDistribution.sol\":2459:2465  newLvl */\n      dup3\n        /* \"contracts/Distribution/AtlantisDistribution.sol\":2454:2466  cury[newLvl] */\n      0xff\n      and\n      dup2\n      sload\n      dup2\n      lt\n      tag_306\n      jumpi\n      tag_307\n      tag_136\n      jump\t// in\n    tag_307:\n    tag_306:\n      swap1\n      0x00\n      mstore\n      keccak256(0x00, 0x20)\n      add\n      sload\n        /* \"contracts/Distribution/AtlantisDistribution.sol\":2441:2442  y */\n      0x06\n        /* \"contracts/Distribution/AtlantisDistribution.sol\":2441:2451  y[account] */\n      0x00\n        /* \"contracts/Distribution/AtlantisDistribution.sol\":2443:2450  account */\n      dup6\n        /* \"contracts/Distribution/AtlantisDistribution.sol\":2441:2451  y[account] */\n      0xffffffffffffffffffffffffffffffffffffffff\n      and\n      0xffffffffffffffffffffffffffffffffffffffff\n      and\n      dup2\n      mstore\n      0x20\n      add\n      swap1\n      dup2\n      mstore\n      0x20\n      add\n      0x00\n      keccak256\n        /* \"contracts/Distribution/AtlantisDistribution.sol\":2441:2466  y[account] = cury[newLvl] */\n      dup2\n      swap1\n      sstore\n      pop\n        /* \"contracts/Distribution/AtlantisDistribution.sol\":2242:2473  {... */\n      pop\n        /* \"contracts/Distribution/AtlantisDistribution.sol\":2173:2473  function changeLvl(address account, uint8 newLvl) external onlyOwner {... */\n      pop\n      pop\n      jump\t// out\n        /* \"contracts/Distribution/WrappedERC20Token.sol\":6268:6639  function decreaseAllowance(address spender, uint256 subtractedValue) public virtual returns (bool) {... */\n    tag_91:\n        /* \"contracts/Distribution/WrappedERC20Token.sol\":6361:6365  bool */\n      0x00\n        /* \"contracts/Distribution/WrappedERC20Token.sol\":6377:6401  uint256 currentAllowance */\n      dup1\n        /* \"contracts/Distribution/WrappedERC20Token.sol\":6404:6415  _allowances */\n      0x01\n        /* \"contracts/Distribution/WrappedERC20Token.sol\":6404:6429  _allowances[_msgSender()] */\n      0x00\n        /* \"contracts/Distribution/WrappedERC20Token.sol\":6416:6428  _msgSender() */\n      tag_310\n        /* \"contracts/Distribution/WrappedERC20Token.sol\":6416:6426  _msgSender */\n      tag_115\n        /* \"contracts/Distribution/WrappedERC20Token.sol\":6416:6428  _msgSender() */\n      jump\t// in\n    tag_310:\n        /* \"contracts/Distribution/WrappedERC20Token.sol\":6404:6429  _allowances[_msgSender()] */\n      0xffffffffffffffffffffffffffffffffffffffff\n      and\n      0xffffffffffffffffffffffffffffffffffffffff\n      and\n      dup2\n      mstore\n      0x20\n      add\n      swap1\n      dup2\n      mstore\n      0x20\n      add\n      0x00\n      keccak256\n        /* \"contracts/Distribution/WrappedERC20Token.sol\":6404:6438  _allowances[_msgSender()][spender] */\n      0x00\n        /* \"contracts/Distribution/WrappedERC20Token.sol\":6430:6437  spender */\n      dup6\n        /* \"contracts/Distribution/WrappedERC20Token.sol\":6404:6438  _allowances[_msgSender()][spender] */\n      0xffffffffffffffffffffffffffffffffffffffff\n      and\n      0xffffffffffffffffffffffffffffffffffffffff\n      and\n      dup2\n      mstore\n      0x20\n      add\n      swap1\n      dup2\n      mstore\n      0x20\n      add\n      0x00\n      keccak256\n      sload\n        /* \"contracts/Distribution/WrappedERC20Token.sol\":6377:6438  uint256 currentAllowance = _allowances[_msgSender()][spender] */\n      swap1\n      pop\n        /* \"contracts/Distribution/WrappedERC20Token.sol\":6476:6491  subtractedValue */\n      dup3\n        /* \"contracts/Distribution/WrappedERC20Token.sol\":6456:6472  currentAllowance */\n      dup2\n        /* \"contracts/Distribution/WrappedERC20Token.sol\":6456:6491  currentAllowance >= subtractedValue */\n      lt\n      iszero\n        /* \"contracts/Distribution/WrappedERC20Token.sol\":6448:6533  require(currentAllowance >= subtractedValue, \"ERC20: decreased allowance below zero\") */\n      tag_311\n      jumpi\n      mload(0x40)\n      0x08c379a000000000000000000000000000000000000000000000000000000000\n      dup2\n      mstore\n      0x04\n      add\n      tag_312\n      swap1\n      tag_313\n      jump\t// in\n    tag_312:\n      mload(0x40)\n      dup1\n      swap2\n      sub\n      swap1\n      revert\n    tag_311:\n        /* \"contracts/Distribution/WrappedERC20Token.sol\":6543:6610  _approve(_msgSender(), spender, currentAllowance - subtractedValue) */\n      tag_314\n        /* \"contracts/Distribution/WrappedERC20Token.sol\":6552:6564  _msgSender() */\n      tag_315\n        /* \"contracts/Distribution/WrappedERC20Token.sol\":6552:6562  _msgSender */\n      tag_115\n        /* \"contracts/Distribution/WrappedERC20Token.sol\":6552:6564  _msgSender() */\n      jump\t// in\n    tag_315:\n        /* \"contracts/Distribution/WrappedERC20Token.sol\":6566:6573  spender */\n      dup6\n        /* \"contracts/Distribution/WrappedERC20Token.sol\":6594:6609  subtractedValue */\n      dup6\n        /* \"contracts/Distribution/WrappedERC20Token.sol\":6575:6591  currentAllowance */\n      dup5\n        /* \"contracts/Distribution/WrappedERC20Token.sol\":6575:6609  currentAllowance - subtractedValue */\n      tag_316\n      swap2\n      swap1\n      tag_301\n      jump\t// in\n    tag_316:\n        /* \"contracts/Distribution/WrappedERC20Token.sol\":6543:6551  _approve */\n      tag_116\n        /* \"contracts/Distribution/WrappedERC20Token.sol\":6543:6610  _approve(_msgSender(), spender, currentAllowance - subtractedValue) */\n      jump\t// in\n    tag_314:\n        /* \"contracts/Distribution/WrappedERC20Token.sol\":6628:6632  true */\n      0x01\n        /* \"contracts/Distribution/WrappedERC20Token.sol\":6621:6632  return true */\n      swap2\n      pop\n      pop\n        /* \"contracts/Distribution/WrappedERC20Token.sol\":6268:6639  function decreaseAllowance(address spender, uint256 subtractedValue) public virtual returns (bool) {... */\n      swap3\n      swap2\n      pop\n      pop\n      jump\t// out\n        /* \"contracts/Distribution/AtlantisDistribution.sol\":1828:2167  function transfer(address recipient, uint256 amount) public override returns (bool) {... */\n    tag_95:\n        /* \"contracts/Distribution/AtlantisDistribution.sol\":1906:1910  bool */\n      0x00\n        /* \"contracts/Distribution/AtlantisDistribution.sol\":1922:1936  address sender */\n      dup1\n        /* \"contracts/Distribution/AtlantisDistribution.sol\":1939:1951  _msgSender() */\n      tag_318\n        /* \"contracts/Distribution/AtlantisDistribution.sol\":1939:1949  _msgSender */\n      tag_115\n        /* \"contracts/Distribution/AtlantisDistribution.sol\":1939:1951  _msgSender() */\n      jump\t// in\n    tag_318:\n        /* \"contracts/Distribution/AtlantisDistribution.sol\":1922:1951  address sender = _msgSender() */\n      swap1\n      pop\n        /* \"contracts/Distribution/AtlantisDistribution.sol\":1961:1981  relaxBalance(sender) */\n      tag_319\n        /* \"contracts/Distribution/AtlantisDistribution.sol\":1974:1980  sender */\n      dup2\n        /* \"contracts/Distribution/AtlantisDistribution.sol\":1961:1973  relaxBalance */\n      tag_169\n        /* \"contracts/Distribution/AtlantisDistribution.sol\":1961:1981  relaxBalance(sender) */\n      jump\t// in\n    tag_319:\n        /* \"contracts/Distribution/AtlantisDistribution.sol\":1991:2014  relaxBalance(recipient) */\n      tag_320\n        /* \"contracts/Distribution/AtlantisDistribution.sol\":2004:2013  recipient */\n      dup5\n        /* \"contracts/Distribution/AtlantisDistribution.sol\":1991:2003  relaxBalance */\n      tag_169\n        /* \"contracts/Distribution/AtlantisDistribution.sol\":1991:2014  relaxBalance(recipient) */\n      jump\t// in\n    tag_320:\n        /* \"contracts/Distribution/AtlantisDistribution.sol\":2046:2052  amount */\n      dup3\n        /* \"contracts/Distribution/AtlantisDistribution.sol\":2024:2029  total */\n      0x0a\n        /* \"contracts/Distribution/AtlantisDistribution.sol\":2030:2033  lvl */\n      0x07\n        /* \"contracts/Distribution/AtlantisDistribution.sol\":2030:2041  lvl[sender] */\n      0x00\n        /* \"contracts/Distribution/AtlantisDistribution.sol\":2034:2040  sender */\n      dup5\n        /* \"contracts/Distribution/AtlantisDistribution.sol\":2030:2041  lvl[sender] */\n      0xffffffffffffffffffffffffffffffffffffffff\n      and\n      0xffffffffffffffffffffffffffffffffffffffff\n      and\n      dup2\n      mstore\n      0x20\n      add\n      swap1\n      dup2\n      mstore\n      0x20\n      add\n      0x00\n      keccak256\n      0x00\n      swap1\n      sload\n      swap1\n      0x0100\n      exp\n      swap1\n      div\n      0xff\n      and\n        /* \"contracts/Distribution/AtlantisDistribution.sol\":2024:2042  total[lvl[sender]] */\n      0xff\n      and\n      dup2\n      sload\n      dup2\n      lt\n      tag_321\n      jumpi\n      tag_322\n      tag_136\n      jump\t// in\n    tag_322:\n    tag_321:\n      swap1\n      0x00\n      mstore\n      keccak256(0x00, 0x20)\n      add\n      0x00\n        /* \"contracts/Distribution/AtlantisDistribution.sol\":2024:2052  total[lvl[sender]] -= amount */\n      dup3\n      dup3\n      sload\n      tag_324\n      swap2\n      swap1\n      tag_301\n      jump\t// in\n    tag_324:\n      swap3\n      pop\n      pop\n      dup2\n      swap1\n      sstore\n      pop\n        /* \"contracts/Distribution/AtlantisDistribution.sol\":2087:2093  amount */\n      dup3\n        /* \"contracts/Distribution/AtlantisDistribution.sol\":2062:2067  total */\n      0x0a\n        /* \"contracts/Distribution/AtlantisDistribution.sol\":2068:2071  lvl */\n      0x07\n        /* \"contracts/Distribution/AtlantisDistribution.sol\":2068:2082  lvl[recipient] */\n      0x00\n        /* \"contracts/Distribution/AtlantisDistribution.sol\":2072:2081  recipient */\n      dup8\n        /* \"contracts/Distribution/AtlantisDistribution.sol\":2068:2082  lvl[recipient] */\n      0xffffffffffffffffffffffffffffffffffffffff\n      and\n      0xffffffffffffffffffffffffffffffffffffffff\n      and\n      dup2\n      mstore\n      0x20\n      add\n      swap1\n      dup2\n      mstore\n      0x20\n      add\n      0x00\n      keccak256\n      0x00\n      swap1\n      sload\n      swap1\n      0x0100\n      exp\n      swap1\n      div\n      0xff\n      and\n        /* \"contracts/Distribution/AtlantisDistribution.sol\":2062:2083  total[lvl[recipient]] */\n      0xff\n      and\n      dup2\n      sload\n      dup2\n      lt\n      tag_325\n      jumpi\n      tag_326\n      tag_136\n      jump\t// in\n    tag_326:\n    tag_325:\n      swap1\n      0x00\n      mstore\n      keccak256(0x00, 0x20)\n      add\n      0x00\n        /* \"contracts/Distribution/AtlantisDistribution.sol\":2062:2093  total[lvl[recipient]] += amount */\n      dup3\n      dup3\n      sload\n      tag_328\n      swap2\n      swap1\n      tag_128\n      jump\t// in\n    tag_328:\n      swap3\n      pop\n      pop\n      dup2\n      swap1\n      sstore\n      pop\n        /* \"contracts/Distribution/AtlantisDistribution.sol\":2103:2139  _transfer(sender, recipient, amount) */\n      tag_329\n        /* \"contracts/Distribution/AtlantisDistribution.sol\":2113:2119  sender */\n      dup2\n        /* \"contracts/Distribution/AtlantisDistribution.sol\":2121:2130  recipient */\n      dup6\n        /* \"contracts/Distribution/AtlantisDistribution.sol\":2132:2138  amount */\n      dup6\n        /* \"contracts/Distribution/AtlantisDistribution.sol\":2103:2112  _transfer */\n      tag_330\n        /* \"contracts/Distribution/AtlantisDistribution.sol\":2103:2139  _transfer(sender, recipient, amount) */\n      jump\t// in\n    tag_329:\n        /* \"contracts/Distribution/AtlantisDistribution.sol\":2156:2160  true */\n      0x01\n        /* \"contracts/Distribution/AtlantisDistribution.sol\":2149:2160  return true */\n      swap2\n      pop\n      pop\n        /* \"contracts/Distribution/AtlantisDistribution.sol\":1828:2167  function transfer(address recipient, uint256 amount) public override returns (bool) {... */\n      swap3\n      swap2\n      pop\n      pop\n      jump\t// out\n        /* \"contracts/Distribution/WrappedERC20Token.sol\":3840:3989  function allowance(address owner, address spender) public view virtual override returns (uint256) {... */\n    tag_100:\n        /* \"contracts/Distribution/WrappedERC20Token.sol\":3929:3936  uint256 */\n      0x00\n        /* \"contracts/Distribution/WrappedERC20Token.sol\":3955:3966  _allowances */\n      0x01\n        /* \"contracts/Distribution/WrappedERC20Token.sol\":3955:3973  _allowances[owner] */\n      0x00\n        /* \"contracts/Distribution/WrappedERC20Token.sol\":3967:3972  owner */\n      dup5\n        /* \"contracts/Distribution/WrappedERC20Token.sol\":3955:3973  _allowances[owner] */\n      0xffffffffffffffffffffffffffffffffffffffff\n      and\n      0xffffffffffffffffffffffffffffffffffffffff\n      and\n      dup2\n      mstore\n      0x20\n      add\n      swap1\n      dup2\n      mstore\n      0x20\n      add\n      0x00\n      keccak256\n        /* \"contracts/Distribution/WrappedERC20Token.sol\":3955:3982  _allowances[owner][spender] */\n      0x00\n        /* \"contracts/Distribution/WrappedERC20Token.sol\":3974:3981  spender */\n      dup4\n        /* \"contracts/Distribution/WrappedERC20Token.sol\":3955:3982  _allowances[owner][spender] */\n      0xffffffffffffffffffffffffffffffffffffffff\n      and\n      0xffffffffffffffffffffffffffffffffffffffff\n      and\n      dup2\n      mstore\n      0x20\n      add\n      swap1\n      dup2\n      mstore\n      0x20\n      add\n      0x00\n      keccak256\n      sload\n        /* \"contracts/Distribution/WrappedERC20Token.sol\":3948:3982  return _allowances[owner][spender] */\n      swap1\n      pop\n        /* \"contracts/Distribution/WrappedERC20Token.sol\":3840:3989  function allowance(address owner, address spender) public view virtual override returns (uint256) {... */\n      swap3\n      swap2\n      pop\n      pop\n      jump\t// out\n        /* \"@openzeppelin/contracts/access/Ownable.sol\":1846:2035  function transferOwnership(address newOwner) public virtual onlyOwner {... */\n    tag_104:\n        /* \"@openzeppelin/contracts/access/Ownable.sol\":1196:1208  _msgSender() */\n      tag_333\n        /* \"@openzeppelin/contracts/access/Ownable.sol\":1196:1206  _msgSender */\n      tag_115\n        /* \"@openzeppelin/contracts/access/Ownable.sol\":1196:1208  _msgSender() */\n      jump\t// in\n    tag_333:\n        /* \"@openzeppelin/contracts/access/Ownable.sol\":1185:1208  owner() == _msgSender() */\n      0xffffffffffffffffffffffffffffffffffffffff\n      and\n        /* \"@openzeppelin/contracts/access/Ownable.sol\":1185:1192  owner() */\n      tag_334\n        /* \"@openzeppelin/contracts/access/Ownable.sol\":1185:1190  owner */\n      tag_76\n        /* \"@openzeppelin/contracts/access/Ownable.sol\":1185:1192  owner() */\n      jump\t// in\n    tag_334:\n        /* \"@openzeppelin/contracts/access/Ownable.sol\":1185:1208  owner() == _msgSender() */\n      0xffffffffffffffffffffffffffffffffffffffff\n      and\n      eq\n        /* \"@openzeppelin/contracts/access/Ownable.sol\":1177:1245  require(owner() == _msgSender(), \"Ownable: caller is not the owner\") */\n      tag_335\n      jumpi\n      mload(0x40)\n      0x08c379a000000000000000000000000000000000000000000000000000000000\n      dup2\n      mstore\n      0x04\n      add\n      tag_336\n      swap1\n      tag_122\n      jump\t// in\n    tag_336:\n      mload(0x40)\n      dup1\n      swap2\n      sub\n      swap1\n      revert\n    tag_335:\n        /* \"@openzeppelin/contracts/access/Ownable.sol\":1954:1955  0 */\n      0x00\n        /* \"@openzeppelin/contracts/access/Ownable.sol\":1934:1956  newOwner != address(0) */\n      0xffffffffffffffffffffffffffffffffffffffff\n      and\n        /* \"@openzeppelin/contracts/access/Ownable.sol\":1934:1942  newOwner */\n      dup2\n        /* \"@openzeppelin/contracts/access/Ownable.sol\":1934:1956  newOwner != address(0) */\n      0xffffffffffffffffffffffffffffffffffffffff\n      and\n      sub\n        /* \"@openzeppelin/contracts/access/Ownable.sol\":1926:1999  require(newOwner != address(0), \"Ownable: new owner is the zero address\") */\n      tag_338\n      jumpi\n      mload(0x40)\n      0x08c379a000000000000000000000000000000000000000000000000000000000\n      dup2\n      mstore\n      0x04\n      add\n      tag_339\n      swap1\n      tag_340\n      jump\t// in\n    tag_339:\n      mload(0x40)\n      dup1\n      swap2\n      sub\n      swap1\n      revert\n    tag_338:\n        /* \"@openzeppelin/contracts/access/Ownable.sol\":2009:2028  _setOwner(newOwner) */\n      tag_341\n        /* \"@openzeppelin/contracts/access/Ownable.sol\":2019:2027  newOwner */\n      dup2\n        /* \"@openzeppelin/contracts/access/Ownable.sol\":2009:2018  _setOwner */\n      tag_223\n        /* \"@openzeppelin/contracts/access/Ownable.sol\":2009:2028  _setOwner(newOwner) */\n      jump\t// in\n    tag_341:\n        /* \"@openzeppelin/contracts/access/Ownable.sol\":1846:2035  function transferOwnership(address newOwner) public virtual onlyOwner {... */\n      pop\n      jump\t// out\n        /* \"@openzeppelin/contracts/utils/Context.sol\":587:683  function _msgSender() internal view virtual returns (address) {... */\n    tag_115:\n        /* \"@openzeppelin/contracts/utils/Context.sol\":640:647  address */\n      0x00\n        /* \"@openzeppelin/contracts/utils/Context.sol\":666:676  msg.sender */\n      caller\n        /* \"@openzeppelin/contracts/utils/Context.sol\":659:676  return msg.sender */\n      swap1\n      pop\n        /* \"@openzeppelin/contracts/utils/Context.sol\":587:683  function _msgSender() internal view virtual returns (address) {... */\n      swap1\n      jump\t// out\n        /* \"contracts/Distribution/WrappedERC20Token.sol\":9532:9872  function _approve(address owner, address spender, uint256 amount) internal virtual {... */\n    tag_116:\n        /* \"contracts/Distribution/WrappedERC20Token.sol\":9650:9651  0 */\n      0x00\n        /* \"contracts/Distribution/WrappedERC20Token.sol\":9633:9652  owner != address(0) */\n      0xffffffffffffffffffffffffffffffffffffffff\n      and\n        /* \"contracts/Distribution/WrappedERC20Token.sol\":9633:9638  owner */\n      dup4\n        /* \"contracts/Distribution/WrappedERC20Token.sol\":9633:9652  owner != address(0) */\n      0xffffffffffffffffffffffffffffffffffffffff\n      and\n      sub\n        /* \"contracts/Distribution/WrappedERC20Token.sol\":9625:9693  require(owner != address(0), \"ERC20: approve from the zero address\") */\n      tag_344\n      jumpi\n      mload(0x40)\n      0x08c379a000000000000000000000000000000000000000000000000000000000\n      dup2\n      mstore\n      0x04\n      add\n      tag_345\n      swap1\n      tag_346\n      jump\t// in\n    tag_345:\n      mload(0x40)\n      dup1\n      swap2\n      sub\n      swap1\n      revert\n    tag_344:\n        /* \"contracts/Distribution/WrappedERC20Token.sol\":9730:9731  0 */\n      0x00\n        /* \"contracts/Distribution/WrappedERC20Token.sol\":9711:9732  spender != address(0) */\n      0xffffffffffffffffffffffffffffffffffffffff\n      and\n        /* \"contracts/Distribution/WrappedERC20Token.sol\":9711:9718  spender */\n      dup3\n        /* \"contracts/Distribution/WrappedERC20Token.sol\":9711:9732  spender != address(0) */\n      0xffffffffffffffffffffffffffffffffffffffff\n      and\n      sub\n        /* \"contracts/Distribution/WrappedERC20Token.sol\":9703:9771  require(spender != address(0), \"ERC20: approve to the zero address\") */\n      tag_347\n      jumpi\n      mload(0x40)\n      0x08c379a000000000000000000000000000000000000000000000000000000000\n      dup2\n      mstore\n      0x04\n      add\n      tag_348\n      swap1\n      tag_349\n      jump\t// in\n    tag_348:\n      mload(0x40)\n      dup1\n      swap2\n      sub\n      swap1\n      revert\n    tag_347:\n        /* \"contracts/Distribution/WrappedERC20Token.sol\":9812:9818  amount */\n      dup1\n        /* \"contracts/Distribution/WrappedERC20Token.sol\":9782:9793  _allowances */\n      0x01\n        /* \"contracts/Distribution/WrappedERC20Token.sol\":9782:9800  _allowances[owner] */\n      0x00\n        /* \"contracts/Distribution/WrappedERC20Token.sol\":9794:9799  owner */\n      dup6\n        /* \"contracts/Distribution/WrappedERC20Token.sol\":9782:9800  _allowances[owner] */\n      0xffffffffffffffffffffffffffffffffffffffff\n      and\n      0xffffffffffffffffffffffffffffffffffffffff\n      and\n      dup2\n      mstore\n      0x20\n      add\n      swap1\n      dup2\n      mstore\n      0x20\n      add\n      0x00\n      keccak256\n        /* \"contracts/Distribution/WrappedERC20Token.sol\":9782:9809  _allowances[owner][spender] */\n      0x00\n        /* \"contracts/Distribution/WrappedERC20Token.sol\":9801:9808  spender */\n      dup5\n        /* \"contracts/Distribution/WrappedERC20Token.sol\":9782:9809  _allowances[owner][spender] */\n      0xffffffffffffffffffffffffffffffffffffffff\n      and\n      0xffffffffffffffffffffffffffffffffffffffff\n      and\n      dup2\n      mstore\n      0x20\n      add\n      swap1\n      dup2\n      mstore\n      0x20\n      add\n      0x00\n      keccak256\n        /* \"contracts/Distribution/WrappedERC20Token.sol\":9782:9818  _allowances[owner][spender] = amount */\n      dup2\n      swap1\n      sstore\n      pop\n        /* \"contracts/Distribution/WrappedERC20Token.sol\":9849:9856  spender */\n      dup2\n        /* \"contracts/Distribution/WrappedERC20Token.sol\":9833:9865  Approval(owner, spender, amount) */\n      0xffffffffffffffffffffffffffffffffffffffff\n      and\n        /* \"contracts/Distribution/WrappedERC20Token.sol\":9842:9847  owner */\n      dup4\n        /* \"contracts/Distribution/WrappedERC20Token.sol\":9833:9865  Approval(owner, spender, amount) */\n      0xffffffffffffffffffffffffffffffffffffffff\n      and\n      0x8c5be1e5ebec7d5bd14f71427d1e84f3dd0314c0f7b2291e5b200ac8c7c3b925\n        /* \"contracts/Distribution/WrappedERC20Token.sol\":9858:9864  amount */\n      dup4\n        /* \"contracts/Distribution/WrappedERC20Token.sol\":9833:9865  Approval(owner, spender, amount) */\n      mload(0x40)\n      tag_350\n      swap2\n      swap1\n      tag_45\n      jump\t// in\n    tag_350:\n      mload(0x40)\n      dup1\n      swap2\n      sub\n      swap1\n      log3\n        /* \"contracts/Distribution/WrappedERC20Token.sol\":9532:9872  function _approve(address owner, address spender, uint256 amount) internal virtual {... */\n      pop\n      pop\n      pop\n      jump\t// out\n        /* \"contracts/Distribution/AtlantisDistribution.sol\":1146:1376  function relaxBalance(address account) internal {... */\n    tag_169:\n        /* \"contracts/Distribution/AtlantisDistribution.sol\":1224:1225  0 */\n      0x00\n        /* \"contracts/Distribution/AtlantisDistribution.sol\":1208:1211  lvl */\n      0x07\n        /* \"contracts/Distribution/AtlantisDistribution.sol\":1208:1220  lvl[account] */\n      0x00\n        /* \"contracts/Distribution/AtlantisDistribution.sol\":1212:1219  account */\n      dup4\n        /* \"contracts/Distribution/AtlantisDistribution.sol\":1208:1220  lvl[account] */\n      0xffffffffffffffffffffffffffffffffffffffff\n      and\n      0xffffffffffffffffffffffffffffffffffffffff\n      and\n      dup2\n      mstore\n      0x20\n      add\n      swap1\n      dup2\n      mstore\n      0x20\n      add\n      0x00\n      keccak256\n      0x00\n      swap1\n      sload\n      swap1\n      0x0100\n      exp\n      swap1\n      div\n      0xff\n      and\n        /* \"contracts/Distribution/AtlantisDistribution.sol\":1208:1225  lvl[account] == 0 */\n      0xff\n      and\n      sub\n        /* \"contracts/Distribution/AtlantisDistribution.sol\":1204:1246  if (lvl[account] == 0)... */\n      iszero\n        /* \"contracts/Distribution/AtlantisDistribution.sol\":1239:1246  return; */\n      tag_351\n        /* \"contracts/Distribution/AtlantisDistribution.sol\":1204:1246  if (lvl[account] == 0)... */\n      jumpi\n        /* \"contracts/Distribution/AtlantisDistribution.sol\":1318:1319  y */\n      0x06\n        /* \"contracts/Distribution/AtlantisDistribution.sol\":1318:1328  y[account] */\n      0x00\n        /* \"contracts/Distribution/AtlantisDistribution.sol\":1320:1327  account */\n      dup3\n        /* \"contracts/Distribution/AtlantisDistribution.sol\":1318:1328  y[account] */\n      0xffffffffffffffffffffffffffffffffffffffff\n      and\n      0xffffffffffffffffffffffffffffffffffffffff\n      and\n      dup2\n      mstore\n      0x20\n      add\n      swap1\n      dup2\n      mstore\n      0x20\n      add\n      0x00\n      keccak256\n      sload\n        /* \"contracts/Distribution/AtlantisDistribution.sol\":1297:1306  _balances */\n      0x00\n        /* \"contracts/Distribution/AtlantisDistribution.sol\":1297:1315  _balances[account] */\n      dup1\n        /* \"contracts/Distribution/AtlantisDistribution.sol\":1307:1314  account */\n      dup4\n        /* \"contracts/Distribution/AtlantisDistribution.sol\":1297:1315  _balances[account] */\n      0xffffffffffffffffffffffffffffffffffffffff\n      and\n      0xffffffffffffffffffffffffffffffffffffffff\n      and\n      dup2\n      mstore\n      0x20\n      add\n      swap1\n      dup2\n      mstore\n      0x20\n      add\n      0x00\n      keccak256\n      sload\n        /* \"contracts/Distribution/AtlantisDistribution.sol\":1276:1280  cury */\n      0x09\n        /* \"contracts/Distribution/AtlantisDistribution.sol\":1281:1284  lvl */\n      0x07\n        /* \"contracts/Distribution/AtlantisDistribution.sol\":1281:1293  lvl[account] */\n      0x00\n        /* \"contracts/Distribution/AtlantisDistribution.sol\":1285:1292  account */\n      dup6\n        /* \"contracts/Distribution/AtlantisDistribution.sol\":1281:1293  lvl[account] */\n      0xffffffffffffffffffffffffffffffffffffffff\n      and\n      0xffffffffffffffffffffffffffffffffffffffff\n      and\n      dup2\n      mstore\n      0x20\n      add\n      swap1\n      dup2\n      mstore\n      0x20\n      add\n      0x00\n      keccak256\n      0x00\n      swap1\n      sload\n      swap1\n      0x0100\n      exp\n      swap1\n      div\n      0xff\n      and\n        /* \"contracts/Distribution/AtlantisDistribution.sol\":1276:1294  cury[lvl[account]] */\n      0xff\n      and\n      dup2\n      sload\n      dup2\n      lt\n      tag_353\n      jumpi\n      tag_354\n      tag_136\n      jump\t// in\n    tag_354:\n    tag_353:\n      swap1\n      0x00\n      mstore\n      keccak256(0x00, 0x20)\n      add\n      sload\n        /* \"contracts/Distribution/AtlantisDistribution.sol\":1276:1315  cury[lvl[account]] * _balances[account] */\n      tag_356\n      swap2\n      swap1\n      tag_143\n      jump\t// in\n    tag_356:\n        /* \"contracts/Distribution/AtlantisDistribution.sol\":1276:1328  cury[lvl[account]] * _balances[account] / y[account] */\n      tag_357\n      swap2\n      swap1\n      tag_133\n      jump\t// in\n    tag_357:\n        /* \"contracts/Distribution/AtlantisDistribution.sol\":1255:1264  _balances */\n      0x00\n        /* \"contracts/Distribution/AtlantisDistribution.sol\":1255:1273  _balances[account] */\n      dup1\n        /* \"contracts/Distribution/AtlantisDistribution.sol\":1265:1272  account */\n      dup4\n        /* \"contracts/Distribution/AtlantisDistribution.sol\":1255:1273  _balances[account] */\n      0xffffffffffffffffffffffffffffffffffffffff\n      and\n      0xffffffffffffffffffffffffffffffffffffffff\n      and\n      dup2\n      mstore\n      0x20\n      add\n      swap1\n      dup2\n      mstore\n      0x20\n      add\n      0x00\n      keccak256\n        /* \"contracts/Distribution/AtlantisDistribution.sol\":1255:1328  _balances[account] = cury[lvl[account]] * _balances[account] / y[account] */\n      dup2\n      swap1\n      sstore\n      pop\n        /* \"contracts/Distribution/AtlantisDistribution.sol\":1351:1355  cury */\n      0x09\n        /* \"contracts/Distribution/AtlantisDistribution.sol\":1356:1359  lvl */\n      0x07\n        /* \"contracts/Distribution/AtlantisDistribution.sol\":1356:1368  lvl[account] */\n      0x00\n        /* \"contracts/Distribution/AtlantisDistribution.sol\":1360:1367  account */\n      dup4\n        /* \"contracts/Distribution/AtlantisDistribution.sol\":1356:1368  lvl[account] */\n      0xffffffffffffffffffffffffffffffffffffffff\n      and\n      0xffffffffffffffffffffffffffffffffffffffff\n      and\n      dup2\n      mstore\n      0x20\n      add\n      swap1\n      dup2\n      mstore\n      0x20\n      add\n      0x00\n      keccak256\n      0x00\n      swap1\n      sload\n      swap1\n      0x0100\n      exp\n      swap1\n      div\n      0xff\n      and\n        /* \"contracts/Distribution/AtlantisDistribution.sol\":1351:1369  cury[lvl[account]] */\n      0xff\n      and\n      dup2\n      sload\n      dup2\n      lt\n      tag_358\n      jumpi\n      tag_359\n      tag_136\n      jump\t// in\n    tag_359:\n    tag_358:\n      swap1\n      0x00\n      mstore\n      keccak256(0x00, 0x20)\n      add\n      sload\n        /* \"contracts/Distribution/AtlantisDistribution.sol\":1338:1339  y */\n      0x06\n        /* \"contracts/Distribution/AtlantisDistribution.sol\":1338:1348  y[account] */\n      0x00\n        /* \"contracts/Distribution/AtlantisDistribution.sol\":1340:1347  account */\n      dup4\n        /* \"contracts/Distribution/AtlantisDistribution.sol\":1338:1348  y[account] */\n      0xffffffffffffffffffffffffffffffffffffffff\n      and\n      0xffffffffffffffffffffffffffffffffffffffff\n      and\n      dup2\n      mstore\n      0x20\n      add\n      swap1\n      dup2\n      mstore\n      0x20\n      add\n      0x00\n      keccak256\n        /* \"contracts/Distribution/AtlantisDistribution.sol\":1338:1369  y[account] = cury[lvl[account]] */\n      dup2\n      swap1\n      sstore\n      pop\n        /* \"contracts/Distribution/AtlantisDistribution.sol\":1146:1376  function relaxBalance(address account) internal {... */\n    tag_351:\n      pop\n      jump\t// out\n        /* \"@openzeppelin/contracts/access/Ownable.sol\":2041:2210  function _setOwner(address newOwner) private {... */\n    tag_223:\n        /* \"@openzeppelin/contracts/access/Ownable.sol\":2096:2112  address oldOwner */\n      0x00\n        /* \"@openzeppelin/contracts/access/Ownable.sol\":2115:2121  _owner */\n      0x05\n      0x00\n      swap1\n      sload\n      swap1\n      0x0100\n      exp\n      swap1\n      div\n      0xffffffffffffffffffffffffffffffffffffffff\n      and\n        /* \"@openzeppelin/contracts/access/Ownable.sol\":2096:2121  address oldOwner = _owner */\n      swap1\n      pop\n        /* \"@openzeppelin/contracts/access/Ownable.sol\":2140:2148  newOwner */\n      dup2\n        /* \"@openzeppelin/contracts/access/Ownable.sol\":2131:2137  _owner */\n      0x05\n      0x00\n        /* \"@openzeppelin/contracts/access/Ownable.sol\":2131:2148  _owner = newOwner */\n      0x0100\n      exp\n      dup2\n      sload\n      dup2\n      0xffffffffffffffffffffffffffffffffffffffff\n      mul\n      not\n      and\n      swap1\n      dup4\n      0xffffffffffffffffffffffffffffffffffffffff\n      and\n      mul\n      or\n      swap1\n      sstore\n      pop\n        /* \"@openzeppelin/contracts/access/Ownable.sol\":2194:2202  newOwner */\n      dup2\n        /* \"@openzeppelin/contracts/access/Ownable.sol\":2163:2203  OwnershipTransferred(oldOwner, newOwner) */\n      0xffffffffffffffffffffffffffffffffffffffff\n      and\n        /* \"@openzeppelin/contracts/access/Ownable.sol\":2184:2192  oldOwner */\n      dup2\n        /* \"@openzeppelin/contracts/access/Ownable.sol\":2163:2203  OwnershipTransferred(oldOwner, newOwner) */\n      0xffffffffffffffffffffffffffffffffffffffff\n      and\n      0x8be0079c531659141344cd1fd0a4f28419497f9722a3daafe3b4186f6b6457e0\n      mload(0x40)\n      mload(0x40)\n      dup1\n      swap2\n      sub\n      swap1\n      log3\n        /* \"@openzeppelin/contracts/access/Ownable.sol\":2086:2210  {... */\n      pop\n        /* \"@openzeppelin/contracts/access/Ownable.sol\":2041:2210  function _setOwner(address newOwner) private {... */\n      pop\n      jump\t// out\n        /* \"contracts/Distribution/WrappedERC20Token.sol\":7113:7705  function _transfer(address sender, address recipient, uint256 amount) internal virtual {... */\n    tag_330:\n        /* \"contracts/Distribution/WrappedERC20Token.sol\":7236:7237  0 */\n      0x00\n        /* \"contracts/Distribution/WrappedERC20Token.sol\":7218:7238  sender != address(0) */\n      0xffffffffffffffffffffffffffffffffffffffff\n      and\n        /* \"contracts/Distribution/WrappedERC20Token.sol\":7218:7224  sender */\n      dup4\n        /* \"contracts/Distribution/WrappedERC20Token.sol\":7218:7238  sender != address(0) */\n      0xffffffffffffffffffffffffffffffffffffffff\n      and\n      sub\n        /* \"contracts/Distribution/WrappedERC20Token.sol\":7210:7280  require(sender != address(0), \"ERC20: transfer from the zero address\") */\n      tag_363\n      jumpi\n      mload(0x40)\n      0x08c379a000000000000000000000000000000000000000000000000000000000\n      dup2\n      mstore\n      0x04\n      add\n      tag_364\n      swap1\n      tag_365\n      jump\t// in\n    tag_364:\n      mload(0x40)\n      dup1\n      swap2\n      sub\n      swap1\n      revert\n    tag_363:\n        /* \"contracts/Distribution/WrappedERC20Token.sol\":7319:7320  0 */\n      0x00\n        /* \"contracts/Distribution/WrappedERC20Token.sol\":7298:7321  recipient != address(0) */\n      0xffffffffffffffffffffffffffffffffffffffff\n      and\n        /* \"contracts/Distribution/WrappedERC20Token.sol\":7298:7307  recipient */\n      dup3\n        /* \"contracts/Distribution/WrappedERC20Token.sol\":7298:7321  recipient != address(0) */\n      0xffffffffffffffffffffffffffffffffffffffff\n      and\n      sub\n        /* \"contracts/Distribution/WrappedERC20Token.sol\":7290:7361  require(recipient != address(0), \"ERC20: transfer to the zero address\") */\n      tag_366\n      jumpi\n      mload(0x40)\n      0x08c379a000000000000000000000000000000000000000000000000000000000\n      dup2\n      mstore\n      0x04\n      add\n      tag_367\n      swap1\n      tag_368\n      jump\t// in\n    tag_367:\n      mload(0x40)\n      dup1\n      swap2\n      sub\n      swap1\n      revert\n    tag_366:\n        /* \"contracts/Distribution/WrappedERC20Token.sol\":7372:7419  _beforeTokenTransfer(sender, recipient, amount) */\n      tag_369\n        /* \"contracts/Distribution/WrappedERC20Token.sol\":7393:7399  sender */\n      dup4\n        /* \"contracts/Distribution/WrappedERC20Token.sol\":7401:7410  recipient */\n      dup4\n        /* \"contracts/Distribution/WrappedERC20Token.sol\":7412:7418  amount */\n      dup4\n        /* \"contracts/Distribution/WrappedERC20Token.sol\":7372:7392  _beforeTokenTransfer */\n      tag_370\n        /* \"contracts/Distribution/WrappedERC20Token.sol\":7372:7419  _beforeTokenTransfer(sender, recipient, amount) */\n      jump\t// in\n    tag_369:\n        /* \"contracts/Distribution/WrappedERC20Token.sol\":7430:7451  uint256 senderBalance */\n      0x00\n        /* \"contracts/Distribution/WrappedERC20Token.sol\":7454:7463  _balances */\n      dup1\n        /* \"contracts/Distribution/WrappedERC20Token.sol\":7454:7471  _balances[sender] */\n      0x00\n        /* \"contracts/Distribution/WrappedERC20Token.sol\":7464:7470  sender */\n      dup6\n        /* \"contracts/Distribution/WrappedERC20Token.sol\":7454:7471  _balances[sender] */\n      0xffffffffffffffffffffffffffffffffffffffff\n      and\n      0xffffffffffffffffffffffffffffffffffffffff\n      and\n      dup2\n      mstore\n      0x20\n      add\n      swap1\n      dup2\n      mstore\n      0x20\n      add\n      0x00\n      keccak256\n      sload\n        /* \"contracts/Distribution/WrappedERC20Token.sol\":7430:7471  uint256 senderBalance = _balances[sender] */\n      swap1\n      pop\n        /* \"contracts/Distribution/WrappedERC20Token.sol\":7506:7512  amount */\n      dup2\n        /* \"contracts/Distribution/WrappedERC20Token.sol\":7489:7502  senderBalance */\n      dup2\n        /* \"contracts/Distribution/WrappedERC20Token.sol\":7489:7512  senderBalance >= amount */\n      lt\n      iszero\n        /* \"contracts/Distribution/WrappedERC20Token.sol\":7481:7555  require(senderBalance >= amount, \"ERC20: transfer amount exceeds balance\") */\n      tag_371\n      jumpi\n      mload(0x40)\n      0x08c379a000000000000000000000000000000000000000000000000000000000\n      dup2\n      mstore\n      0x04\n      add\n      tag_372\n      swap1\n      tag_373\n      jump\t// in\n    tag_372:\n      mload(0x40)\n      dup1\n      swap2\n      sub\n      swap1\n      revert\n    tag_371:\n        /* \"contracts/Distribution/WrappedERC20Token.sol\":7601:7607  amount */\n      dup2\n        /* \"contracts/Distribution/WrappedERC20Token.sol\":7585:7598  senderBalance */\n      dup2\n        /* \"contracts/Distribution/WrappedERC20Token.sol\":7585:7607  senderBalance - amount */\n      tag_374\n      swap2\n      swap1\n      tag_301\n      jump\t// in\n    tag_374:\n        /* \"contracts/Distribution/WrappedERC20Token.sol\":7565:7574  _balances */\n      0x00\n        /* \"contracts/Distribution/WrappedERC20Token.sol\":7565:7582  _balances[sender] */\n      dup1\n        /* \"contracts/Distribution/WrappedERC20Token.sol\":7575:7581  sender */\n      dup7\n        /* \"contracts/Distribution/WrappedERC20Token.sol\":7565:7582  _balances[sender] */\n      0xffffffffffffffffffffffffffffffffffffffff\n      and\n      0xffffffffffffffffffffffffffffffffffffffff\n      and\n      dup2\n      mstore\n      0x20\n      add\n      swap1\n      dup2\n      mstore\n      0x20\n      add\n      0x00\n      keccak256\n        /* \"contracts/Distribution/WrappedERC20Token.sol\":7565:7607  _balances[sender] = senderBalance - amount */\n      dup2\n      swap1\n      sstore\n      pop\n        /* \"contracts/Distribution/WrappedERC20Token.sol\":7641:7647  amount */\n      dup2\n        /* \"contracts/Distribution/WrappedERC20Token.sol\":7617:7626  _balances */\n      0x00\n        /* \"contracts/Distribution/WrappedERC20Token.sol\":7617:7637  _balances[recipient] */\n      dup1\n        /* \"contracts/Distribution/WrappedERC20Token.sol\":7627:7636  recipient */\n      dup6\n        /* \"contracts/Distribution/WrappedERC20Token.sol\":7617:7637  _balances[recipient] */\n      0xffffffffffffffffffffffffffffffffffffffff\n      and\n      0xffffffffffffffffffffffffffffffffffffffff\n      and\n      dup2\n      mstore\n      0x20\n      add\n      swap1\n      dup2\n      mstore\n      0x20\n      add\n      0x00\n      keccak256\n      0x00\n        /* \"contracts/Distribution/WrappedERC20Token.sol\":7617:7647  _balances[recipient] += amount */\n      dup3\n      dup3\n      sload\n      tag_375\n      swap2\n      swap1\n      tag_128\n      jump\t// in\n    tag_375:\n      swap3\n      pop\n      pop\n      dup2\n      swap1\n      sstore\n      pop\n        /* \"contracts/Distribution/WrappedERC20Token.sol\":7680:7689  recipient */\n      dup3\n        /* \"contracts/Distribution/WrappedERC20Token.sol\":7663:7698  Transfer(sender, recipient, amount) */\n      0xffffffffffffffffffffffffffffffffffffffff\n      and\n        /* \"contracts/Distribution/WrappedERC20Token.sol\":7672:7678  sender */\n      dup5\n        /* \"contracts/Distribution/WrappedERC20Token.sol\":7663:7698  Transfer(sender, recipient, amount) */\n      0xffffffffffffffffffffffffffffffffffffffff\n      and\n      0xddf252ad1be2c89b69c2b068fc378daa952ba7f163c4a11628f55a4df523b3ef\n        /* \"contracts/Distribution/WrappedERC20Token.sol\":7691:7697  amount */\n      dup5\n        /* \"contracts/Distribution/WrappedERC20Token.sol\":7663:7698  Transfer(sender, recipient, amount) */\n      mload(0x40)\n      tag_376\n      swap2\n      swap1\n      tag_45\n      jump\t// in\n    tag_376:\n      mload(0x40)\n      dup1\n      swap2\n      sub\n      swap1\n      log3\n        /* \"contracts/Distribution/WrappedERC20Token.sol\":7200:7705  {... */\n      pop\n        /* \"contracts/Distribution/WrappedERC20Token.sol\":7113:7705  function _transfer(address sender, address recipient, uint256 amount) internal virtual {... */\n      pop\n      pop\n      pop\n      jump\t// out\n        /* \"contracts/Distribution/WrappedERC20Token.sol\":10459:10551  function _beforeTokenTransfer(address from, address to, uint256 amount) internal virtual { } */\n    tag_370:\n      pop\n      pop\n      pop\n      jump\t// out\n        /* \"#utility.yul\":7:106   */\n    tag_378:\n        /* \"#utility.yul\":59:65   */\n      0x00\n        /* \"#utility.yul\":93:98   */\n      dup2\n        /* \"#utility.yul\":87:99   */\n      mload\n        /* \"#utility.yul\":77:99   */\n      swap1\n      pop\n        /* \"#utility.yul\":7:106   */\n      swap2\n      swap1\n      pop\n      jump\t// out\n        /* \"#utility.yul\":112:281   */\n    tag_379:\n        /* \"#utility.yul\":196:207   */\n      0x00\n        /* \"#utility.yul\":230:236   */\n      dup3\n        /* \"#utility.yul\":225:228   */\n      dup3\n        /* \"#utility.yul\":218:237   */\n      mstore\n        /* \"#utility.yul\":270:274   */\n      0x20\n        /* \"#utility.yul\":265:268   */\n      dup3\n        /* \"#utility.yul\":261:275   */\n      add\n        /* \"#utility.yul\":246:275   */\n      swap1\n      pop\n        /* \"#utility.yul\":112:281   */\n      swap3\n      swap2\n      pop\n      pop\n      jump\t// out\n        /* \"#utility.yul\":287:594   */\n    tag_380:\n        /* \"#utility.yul\":355:356   */\n      0x00\n        /* \"#utility.yul\":365:478   */\n    tag_428:\n        /* \"#utility.yul\":379:385   */\n      dup4\n        /* \"#utility.yul\":376:377   */\n      dup2\n        /* \"#utility.yul\":373:386   */\n      lt\n        /* \"#utility.yul\":365:478   */\n      iszero\n      tag_430\n      jumpi\n        /* \"#utility.yul\":464:465   */\n      dup1\n        /* \"#utility.yul\":459:462   */\n      dup3\n        /* \"#utility.yul\":455:466   */\n      add\n        /* \"#utility.yul\":449:467   */\n      mload\n        /* \"#utility.yul\":445:446   */\n      dup2\n        /* \"#utility.yul\":440:443   */\n      dup5\n        /* \"#utility.yul\":436:447   */\n      add\n        /* \"#utility.yul\":429:468   */\n      mstore\n        /* \"#utility.yul\":401:403   */\n      0x20\n        /* \"#utility.yul\":398:399   */\n      dup2\n        /* \"#utility.yul\":394:404   */\n      add\n        /* \"#utility.yul\":389:404   */\n      swap1\n      pop\n        /* \"#utility.yul\":365:478   */\n      jump(tag_428)\n    tag_430:\n        /* \"#utility.yul\":496:502   */\n      dup4\n        /* \"#utility.yul\":493:494   */\n      dup2\n        /* \"#utility.yul\":490:503   */\n      gt\n        /* \"#utility.yul\":487:588   */\n      iszero\n      tag_431\n      jumpi\n        /* \"#utility.yul\":576:577   */\n      0x00\n        /* \"#utility.yul\":567:573   */\n      dup5\n        /* \"#utility.yul\":562:565   */\n      dup5\n        /* \"#utility.yul\":558:574   */\n      add\n        /* \"#utility.yul\":551:578   */\n      mstore\n        /* \"#utility.yul\":487:588   */\n    tag_431:\n        /* \"#utility.yul\":336:594   */\n      pop\n        /* \"#utility.yul\":287:594   */\n      pop\n      pop\n      pop\n      jump\t// out\n        /* \"#utility.yul\":600:702   */\n    tag_381:\n        /* \"#utility.yul\":641:647   */\n      0x00\n        /* \"#utility.yul\":692:694   */\n      0x1f\n        /* \"#utility.yul\":688:695   */\n      not\n        /* \"#utility.yul\":683:685   */\n      0x1f\n        /* \"#utility.yul\":676:681   */\n      dup4\n        /* \"#utility.yul\":672:686   */\n      add\n        /* \"#utility.yul\":668:696   */\n      and\n        /* \"#utility.yul\":658:696   */\n      swap1\n      pop\n        /* \"#utility.yul\":600:702   */\n      swap2\n      swap1\n      pop\n      jump\t// out\n        /* \"#utility.yul\":708:1072   */\n    tag_382:\n        /* \"#utility.yul\":796:799   */\n      0x00\n        /* \"#utility.yul\":824:863   */\n      tag_434\n        /* \"#utility.yul\":857:862   */\n      dup3\n        /* \"#utility.yul\":824:863   */\n      tag_378\n      jump\t// in\n    tag_434:\n        /* \"#utility.yul\":879:950   */\n      tag_435\n        /* \"#utility.yul\":943:949   */\n      dup2\n        /* \"#utility.yul\":938:941   */\n      dup6\n        /* \"#utility.yul\":879:950   */\n      tag_379\n      jump\t// in\n    tag_435:\n        /* \"#utility.yul\":872:950   */\n      swap4\n      pop\n        /* \"#utility.yul\":959:1011   */\n      tag_436\n        /* \"#utility.yul\":1004:1010   */\n      dup2\n        /* \"#utility.yul\":999:1002   */\n      dup6\n        /* \"#utility.yul\":992:996   */\n      0x20\n        /* \"#utility.yul\":985:990   */\n      dup7\n        /* \"#utility.yul\":981:997   */\n      add\n        /* \"#utility.yul\":959:1011   */\n      tag_380\n      jump\t// in\n    tag_436:\n        /* \"#utility.yul\":1036:1065   */\n      tag_437\n        /* \"#utility.yul\":1058:1064   */\n      dup2\n        /* \"#utility.yul\":1036:1065   */\n      tag_381\n      jump\t// in\n    tag_437:\n        /* \"#utility.yul\":1031:1034   */\n      dup5\n        /* \"#utility.yul\":1027:1066   */\n      add\n        /* \"#utility.yul\":1020:1066   */\n      swap2\n      pop\n        /* \"#utility.yul\":800:1072   */\n      pop\n        /* \"#utility.yul\":708:1072   */\n      swap3\n      swap2\n      pop\n      pop\n      jump\t// out\n        /* \"#utility.yul\":1078:1391   */\n    tag_29:\n        /* \"#utility.yul\":1191:1195   */\n      0x00\n        /* \"#utility.yul\":1229:1231   */\n      0x20\n        /* \"#utility.yul\":1218:1227   */\n      dup3\n        /* \"#utility.yul\":1214:1232   */\n      add\n        /* \"#utility.yul\":1206:1232   */\n      swap1\n      pop\n        /* \"#utility.yul\":1278:1287   */\n      dup2\n        /* \"#utility.yul\":1272:1276   */\n      dup2\n        /* \"#utility.yul\":1268:1288   */\n      sub\n        /* \"#utility.yul\":1264:1265   */\n      0x00\n        /* \"#utility.yul\":1253:1262   */\n      dup4\n        /* \"#utility.yul\":1249:1266   */\n      add\n        /* \"#utility.yul\":1242:1289   */\n      mstore\n        /* \"#utility.yul\":1306:1384   */\n      tag_439\n        /* \"#utility.yul\":1379:1383   */\n      dup2\n        /* \"#utility.yul\":1370:1376   */\n      dup5\n        /* \"#utility.yul\":1306:1384   */\n      tag_382\n      jump\t// in\n    tag_439:\n        /* \"#utility.yul\":1298:1384   */\n      swap1\n      pop\n        /* \"#utility.yul\":1078:1391   */\n      swap3\n      swap2\n      pop\n      pop\n      jump\t// out\n        /* \"#utility.yul\":1478:1595   */\n    tag_384:\n        /* \"#utility.yul\":1587:1588   */\n      0x00\n        /* \"#utility.yul\":1584:1585   */\n      dup1\n        /* \"#utility.yul\":1577:1589   */\n      revert\n        /* \"#utility.yul\":1724:1850   */\n    tag_386:\n        /* \"#utility.yul\":1761:1768   */\n      0x00\n        /* \"#utility.yul\":1801:1843   */\n      0xffffffffffffffffffffffffffffffffffffffff\n        /* \"#utility.yul\":1794:1799   */\n      dup3\n        /* \"#utility.yul\":1790:1844   */\n      and\n        /* \"#utility.yul\":1779:1844   */\n      swap1\n      pop\n        /* \"#utility.yul\":1724:1850   */\n      swap2\n      swap1\n      pop\n      jump\t// out\n        /* \"#utility.yul\":1856:1952   */\n    tag_387:\n        /* \"#utility.yul\":1893:1900   */\n      0x00\n        /* \"#utility.yul\":1922:1946   */\n      tag_445\n        /* \"#utility.yul\":1940:1945   */\n      dup3\n        /* \"#utility.yul\":1922:1946   */\n      tag_386\n      jump\t// in\n    tag_445:\n        /* \"#utility.yul\":1911:1946   */\n      swap1\n      pop\n        /* \"#utility.yul\":1856:1952   */\n      swap2\n      swap1\n      pop\n      jump\t// out\n        /* \"#utility.yul\":1958:2080   */\n    tag_388:\n        /* \"#utility.yul\":2031:2055   */\n      tag_447\n        /* \"#utility.yul\":2049:2054   */\n      dup2\n        /* \"#utility.yul\":2031:2055   */\n      tag_387\n      jump\t// in\n    tag_447:\n        /* \"#utility.yul\":2024:2029   */\n      dup2\n        /* \"#utility.yul\":2021:2056   */\n      eq\n        /* \"#utility.yul\":2011:2074   */\n      tag_448\n      jumpi\n        /* \"#utility.yul\":2070:2071   */\n      0x00\n        /* \"#utility.yul\":2067:2068   */\n      dup1\n        /* \"#utility.yul\":2060:2072   */\n      revert\n        /* \"#utility.yul\":2011:2074   */\n    tag_448:\n        /* \"#utility.yul\":1958:2080   */\n      pop\n      jump\t// out\n        /* \"#utility.yul\":2086:2225   */\n    tag_389:\n        /* \"#utility.yul\":2132:2137   */\n      0x00\n        /* \"#utility.yul\":2170:2176   */\n      dup2\n        /* \"#utility.yul\":2157:2177   */\n      calldataload\n        /* \"#utility.yul\":2148:2177   */\n      swap1\n      pop\n        /* \"#utility.yul\":2186:2219   */\n      tag_450\n        /* \"#utility.yul\":2213:2218   */\n      dup2\n        /* \"#utility.yul\":2186:2219   */\n      tag_388\n      jump\t// in\n    tag_450:\n        /* \"#utility.yul\":2086:2225   */\n      swap3\n      swap2\n      pop\n      pop\n      jump\t// out\n        /* \"#utility.yul\":2231:2308   */\n    tag_390:\n        /* \"#utility.yul\":2268:2275   */\n      0x00\n        /* \"#utility.yul\":2297:2302   */\n      dup2\n        /* \"#utility.yul\":2286:2302   */\n      swap1\n      pop\n        /* \"#utility.yul\":2231:2308   */\n      swap2\n      swap1\n      pop\n      jump\t// out\n        /* \"#utility.yul\":2314:2436   */\n    tag_391:\n        /* \"#utility.yul\":2387:2411   */\n      tag_453\n        /* \"#utility.yul\":2405:2410   */\n      dup2\n        /* \"#utility.yul\":2387:2411   */\n      tag_390\n      jump\t// in\n    tag_453:\n        /* \"#utility.yul\":2380:2385   */\n      dup2\n        /* \"#utility.yul\":2377:2412   */\n      eq\n        /* \"#utility.yul\":2367:2430   */\n      tag_454\n      jumpi\n        /* \"#utility.yul\":2426:2427   */\n      0x00\n        /* \"#utility.yul\":2423:2424   */\n      dup1\n        /* \"#utility.yul\":2416:2428   */\n      revert\n        /* \"#utility.yul\":2367:2430   */\n    tag_454:\n        /* \"#utility.yul\":2314:2436   */\n      pop\n      jump\t// out\n        /* \"#utility.yul\":2442:2581   */\n    tag_392:\n        /* \"#utility.yul\":2488:2493   */\n      0x00\n        /* \"#utility.yul\":2526:2532   */\n      dup2\n        /* \"#utility.yul\":2513:2533   */\n      calldataload\n        /* \"#utility.yul\":2504:2533   */\n      swap1\n      pop\n        /* \"#utility.yul\":2542:2575   */\n      tag_456\n        /* \"#utility.yul\":2569:2574   */\n      dup2\n        /* \"#utility.yul\":2542:2575   */\n      tag_391\n      jump\t// in\n    tag_456:\n        /* \"#utility.yul\":2442:2581   */\n      swap3\n      swap2\n      pop\n      pop\n      jump\t// out\n        /* \"#utility.yul\":2587:3061   */\n    tag_32:\n        /* \"#utility.yul\":2655:2661   */\n      0x00\n        /* \"#utility.yul\":2663:2669   */\n      dup1\n        /* \"#utility.yul\":2712:2714   */\n      0x40\n        /* \"#utility.yul\":2700:2709   */\n      dup4\n        /* \"#utility.yul\":2691:2698   */\n      dup6\n        /* \"#utility.yul\":2687:2710   */\n      sub\n        /* \"#utility.yul\":2683:2715   */\n      slt\n        /* \"#utility.yul\":2680:2799   */\n      iszero\n      tag_458\n      jumpi\n        /* \"#utility.yul\":2718:2797   */\n      tag_459\n      tag_384\n      jump\t// in\n    tag_459:\n        /* \"#utility.yul\":2680:2799   */\n    tag_458:\n        /* \"#utility.yul\":2838:2839   */\n      0x00\n        /* \"#utility.yul\":2863:2916   */\n      tag_460\n        /* \"#utility.yul\":2908:2915   */\n      dup6\n        /* \"#utility.yul\":2899:2905   */\n      dup3\n        /* \"#utility.yul\":2888:2897   */\n      dup7\n        /* \"#utility.yul\":2884:2906   */\n      add\n        /* \"#utility.yul\":2863:2916   */\n      tag_389\n      jump\t// in\n    tag_460:\n        /* \"#utility.yul\":2853:2916   */\n      swap3\n      pop\n        /* \"#utility.yul\":2809:2926   */\n      pop\n        /* \"#utility.yul\":2965:2967   */\n      0x20\n        /* \"#utility.yul\":2991:3044   */\n      tag_461\n        /* \"#utility.yul\":3036:3043   */\n      dup6\n        /* \"#utility.yul\":3027:3033   */\n      dup3\n        /* \"#utility.yul\":3016:3025   */\n      dup7\n        /* \"#utility.yul\":3012:3034   */\n      add\n        /* \"#utility.yul\":2991:3044   */\n      tag_392\n      jump\t// in\n    tag_461:\n        /* \"#utility.yul\":2981:3044   */\n      swap2\n      pop\n        /* \"#utility.yul\":2936:3054   */\n      pop\n        /* \"#utility.yul\":2587:3061   */\n      swap3\n      pop\n      swap3\n      swap1\n      pop\n      jump\t// out\n        /* \"#utility.yul\":3067:3157   */\n    tag_393:\n        /* \"#utility.yul\":3101:3108   */\n      0x00\n        /* \"#utility.yul\":3144:3149   */\n      dup2\n        /* \"#utility.yul\":3137:3150   */\n      iszero\n        /* \"#utility.yul\":3130:3151   */\n      iszero\n        /* \"#utility.yul\":3119:3151   */\n      swap1\n      pop\n        /* \"#utility.yul\":3067:3157   */\n      swap2\n      swap1\n      pop\n      jump\t// out\n        /* \"#utility.yul\":3163:3272   */\n    tag_394:\n        /* \"#utility.yul\":3244:3265   */\n      tag_464\n        /* \"#utility.yul\":3259:3264   */\n      dup2\n        /* \"#utility.yul\":3244:3265   */\n      tag_393\n      jump\t// in\n    tag_464:\n        /* \"#utility.yul\":3239:3242   */\n      dup3\n        /* \"#utility.yul\":3232:3266   */\n      mstore\n        /* \"#utility.yul\":3163:3272   */\n      pop\n      pop\n      jump\t// out\n        /* \"#utility.yul\":3278:3488   */\n    tag_35:\n        /* \"#utility.yul\":3365:3369   */\n      0x00\n        /* \"#utility.yul\":3403:3405   */\n      0x20\n        /* \"#utility.yul\":3392:3401   */\n      dup3\n        /* \"#utility.yul\":3388:3406   */\n      add\n        /* \"#utility.yul\":3380:3406   */\n      swap1\n      pop\n        /* \"#utility.yul\":3416:3481   */\n      tag_466\n        /* \"#utility.yul\":3478:3479   */\n      0x00\n        /* \"#utility.yul\":3467:3476   */\n      dup4\n        /* \"#utility.yul\":3463:3480   */\n      add\n        /* \"#utility.yul\":3454:3460   */\n      dup5\n        /* \"#utility.yul\":3416:3481   */\n      tag_394\n      jump\t// in\n    tag_466:\n        /* \"#utility.yul\":3278:3488   */\n      swap3\n      swap2\n      pop\n      pop\n      jump\t// out\n        /* \"#utility.yul\":3494:3612   */\n    tag_395:\n        /* \"#utility.yul\":3581:3605   */\n      tag_468\n        /* \"#utility.yul\":3599:3604   */\n      dup2\n        /* \"#utility.yul\":3581:3605   */\n      tag_390\n      jump\t// in\n    tag_468:\n        /* \"#utility.yul\":3576:3579   */\n      dup3\n        /* \"#utility.yul\":3569:3606   */\n      mstore\n        /* \"#utility.yul\":3494:3612   */\n      pop\n      pop\n      jump\t// out\n        /* \"#utility.yul\":3618:3840   */\n    tag_45:\n        /* \"#utility.yul\":3711:3715   */\n      0x00\n        /* \"#utility.yul\":3749:3751   */\n      0x20\n        /* \"#utility.yul\":3738:3747   */\n      dup3\n        /* \"#utility.yul\":3734:3752   */\n      add\n        /* \"#utility.yul\":3726:3752   */\n      swap1\n      pop\n        /* \"#utility.yul\":3762:3833   */\n      tag_470\n        /* \"#utility.yul\":3830:3831   */\n      0x00\n        /* \"#utility.yul\":3819:3828   */\n      dup4\n        /* \"#utility.yul\":3815:3832   */\n      add\n        /* \"#utility.yul\":3806:3812   */\n      dup5\n        /* \"#utility.yul\":3762:3833   */\n      tag_395\n      jump\t// in\n    tag_470:\n        /* \"#utility.yul\":3618:3840   */\n      swap3\n      swap2\n      pop\n      pop\n      jump\t// out\n        /* \"#utility.yul\":3846:4465   */\n    tag_48:\n        /* \"#utility.yul\":3923:3929   */\n      0x00\n        /* \"#utility.yul\":3931:3937   */\n      dup1\n        /* \"#utility.yul\":3939:3945   */\n      0x00\n        /* \"#utility.yul\":3988:3990   */\n      0x60\n        /* \"#utility.yul\":3976:3985   */\n      dup5\n        /* \"#utility.yul\":3967:3974   */\n      dup7\n        /* \"#utility.yul\":3963:3986   */\n      sub\n        /* \"#utility.yul\":3959:3991   */\n      slt\n        /* \"#utility.yul\":3956:4075   */\n      iszero\n      tag_472\n      jumpi\n        /* \"#utility.yul\":3994:4073   */\n      tag_473\n      tag_384\n      jump\t// in\n    tag_473:\n        /* \"#utility.yul\":3956:4075   */\n    tag_472:\n        /* \"#utility.yul\":4114:4115   */\n      0x00\n        /* \"#utility.yul\":4139:4192   */\n      tag_474\n        /* \"#utility.yul\":4184:4191   */\n      dup7\n        /* \"#utility.yul\":4175:4181   */\n      dup3\n        /* \"#utility.yul\":4164:4173   */\n      dup8\n        /* \"#utility.yul\":4160:4182   */\n      add\n        /* \"#utility.yul\":4139:4192   */\n      tag_389\n      jump\t// in\n    tag_474:\n        /* \"#utility.yul\":4129:4192   */\n      swap4\n      pop\n        /* \"#utility.yul\":4085:4202   */\n      pop\n        /* \"#utility.yul\":4241:4243   */\n      0x20\n        /* \"#utility.yul\":4267:4320   */\n      tag_475\n        /* \"#utility.yul\":4312:4319   */\n      dup7\n        /* \"#utility.yul\":4303:4309   */\n      dup3\n        /* \"#utility.yul\":4292:4301   */\n      dup8\n        /* \"#utility.yul\":4288:4310   */\n      add\n        /* \"#utility.yul\":4267:4320   */\n      tag_389\n      jump\t// in\n    tag_475:\n        /* \"#utility.yul\":4257:4320   */\n      swap3\n      pop\n        /* \"#utility.yul\":4212:4330   */\n      pop\n        /* \"#utility.yul\":4369:4371   */\n      0x40\n        /* \"#utility.yul\":4395:4448   */\n      tag_476\n        /* \"#utility.yul\":4440:4447   */\n      dup7\n        /* \"#utility.yul\":4431:4437   */\n      dup3\n        /* \"#utility.yul\":4420:4429   */\n      dup8\n        /* \"#utility.yul\":4416:4438   */\n      add\n        /* \"#utility.yul\":4395:4448   */\n      tag_392\n      jump\t// in\n    tag_476:\n        /* \"#utility.yul\":4385:4448   */\n      swap2\n      pop\n        /* \"#utility.yul\":4340:4458   */\n      pop\n        /* \"#utility.yul\":3846:4465   */\n      swap3\n      pop\n      swap3\n      pop\n      swap3\n      jump\t// out\n        /* \"#utility.yul\":4471:4557   */\n    tag_396:\n        /* \"#utility.yul\":4506:4513   */\n      0x00\n        /* \"#utility.yul\":4546:4550   */\n      0xff\n        /* \"#utility.yul\":4539:4544   */\n      dup3\n        /* \"#utility.yul\":4535:4551   */\n      and\n        /* \"#utility.yul\":4524:4551   */\n      swap1\n      pop\n        /* \"#utility.yul\":4471:4557   */\n      swap2\n      swap1\n      pop\n      jump\t// out\n        /* \"#utility.yul\":4563:4675   */\n    tag_397:\n        /* \"#utility.yul\":4646:4668   */\n      tag_479\n        /* \"#utility.yul\":4662:4667   */\n      dup2\n        /* \"#utility.yul\":4646:4668   */\n      tag_396\n      jump\t// in\n    tag_479:\n        /* \"#utility.yul\":4641:4644   */\n      dup3\n        /* \"#utility.yul\":4634:4669   */\n      mstore\n        /* \"#utility.yul\":4563:4675   */\n      pop\n      pop\n      jump\t// out\n        /* \"#utility.yul\":4681:4895   */\n    tag_54:\n        /* \"#utility.yul\":4770:4774   */\n      0x00\n        /* \"#utility.yul\":4808:4810   */\n      0x20\n        /* \"#utility.yul\":4797:4806   */\n      dup3\n        /* \"#utility.yul\":4793:4811   */\n      add\n        /* \"#utility.yul\":4785:4811   */\n      swap1\n      pop\n        /* \"#utility.yul\":4821:4888   */\n      tag_481\n        /* \"#utility.yul\":4885:4886   */\n      0x00\n        /* \"#utility.yul\":4874:4883   */\n      dup4\n        /* \"#utility.yul\":4870:4887   */\n      add\n        /* \"#utility.yul\":4861:4867   */\n      dup5\n        /* \"#utility.yul\":4821:4888   */\n      tag_397\n      jump\t// in\n    tag_481:\n        /* \"#utility.yul\":4681:4895   */\n      swap3\n      swap2\n      pop\n      pop\n      jump\t// out\n        /* \"#utility.yul\":4901:5230   */\n    tag_61:\n        /* \"#utility.yul\":4960:4966   */\n      0x00\n        /* \"#utility.yul\":5009:5011   */\n      0x20\n        /* \"#utility.yul\":4997:5006   */\n      dup3\n        /* \"#utility.yul\":4988:4995   */\n      dup5\n        /* \"#utility.yul\":4984:5007   */\n      sub\n        /* \"#utility.yul\":4980:5012   */\n      slt\n        /* \"#utility.yul\":4977:5096   */\n      iszero\n      tag_483\n      jumpi\n        /* \"#utility.yul\":5015:5094   */\n      tag_484\n      tag_384\n      jump\t// in\n    tag_484:\n        /* \"#utility.yul\":4977:5096   */\n    tag_483:\n        /* \"#utility.yul\":5135:5136   */\n      0x00\n        /* \"#utility.yul\":5160:5213   */\n      tag_485\n        /* \"#utility.yul\":5205:5212   */\n      dup5\n        /* \"#utility.yul\":5196:5202   */\n      dup3\n        /* \"#utility.yul\":5185:5194   */\n      dup6\n        /* \"#utility.yul\":5181:5203   */\n      add\n        /* \"#utility.yul\":5160:5213   */\n      tag_392\n      jump\t// in\n    tag_485:\n        /* \"#utility.yul\":5150:5213   */\n      swap2\n      pop\n        /* \"#utility.yul\":5106:5223   */\n      pop\n        /* \"#utility.yul\":4901:5230   */\n      swap3\n      swap2\n      pop\n      pop\n      jump\t// out\n        /* \"#utility.yul\":5236:5565   */\n    tag_66:\n        /* \"#utility.yul\":5295:5301   */\n      0x00\n        /* \"#utility.yul\":5344:5346   */\n      0x20\n        /* \"#utility.yul\":5332:5341   */\n      dup3\n        /* \"#utility.yul\":5323:5330   */\n      dup5\n        /* \"#utility.yul\":5319:5342   */\n      sub\n        /* \"#utility.yul\":5315:5347   */\n      slt\n        /* \"#utility.yul\":5312:5431   */\n      iszero\n      tag_487\n      jumpi\n        /* \"#utility.yul\":5350:5429   */\n      tag_488\n      tag_384\n      jump\t// in\n    tag_488:\n        /* \"#utility.yul\":5312:5431   */\n    tag_487:\n        /* \"#utility.yul\":5470:5471   */\n      0x00\n        /* \"#utility.yul\":5495:5548   */\n      tag_489\n        /* \"#utility.yul\":5540:5547   */\n      dup5\n        /* \"#utility.yul\":5531:5537   */\n      dup3\n        /* \"#utility.yul\":5520:5529   */\n      dup6\n        /* \"#utility.yul\":5516:5538   */\n      add\n        /* \"#utility.yul\":5495:5548   */\n      tag_389\n      jump\t// in\n    tag_489:\n        /* \"#utility.yul\":5485:5548   */\n      swap2\n      pop\n        /* \"#utility.yul\":5441:5558   */\n      pop\n        /* \"#utility.yul\":5236:5565   */\n      swap3\n      swap2\n      pop\n      pop\n      jump\t// out\n        /* \"#utility.yul\":5571:5689   */\n    tag_398:\n        /* \"#utility.yul\":5658:5682   */\n      tag_491\n        /* \"#utility.yul\":5676:5681   */\n      dup2\n        /* \"#utility.yul\":5658:5682   */\n      tag_387\n      jump\t// in\n    tag_491:\n        /* \"#utility.yul\":5653:5656   */\n      dup3\n        /* \"#utility.yul\":5646:5683   */\n      mstore\n        /* \"#utility.yul\":5571:5689   */\n      pop\n      pop\n      jump\t// out\n        /* \"#utility.yul\":5695:5917   */\n    tag_78:\n        /* \"#utility.yul\":5788:5792   */\n      0x00\n        /* \"#utility.yul\":5826:5828   */\n      0x20\n        /* \"#utility.yul\":5815:5824   */\n      dup3\n        /* \"#utility.yul\":5811:5829   */\n      add\n        /* \"#utility.yul\":5803:5829   */\n      swap1\n      pop\n        /* \"#utility.yul\":5839:5910   */\n      tag_493\n        /* \"#utility.yul\":5907:5908   */\n      0x00\n        /* \"#utility.yul\":5896:5905   */\n      dup4\n        /* \"#utility.yul\":5892:5909   */\n      add\n        /* \"#utility.yul\":5883:5889   */\n      dup5\n        /* \"#utility.yul\":5839:5910   */\n      tag_398\n      jump\t// in\n    tag_493:\n        /* \"#utility.yul\":5695:5917   */\n      swap3\n      swap2\n      pop\n      pop\n      jump\t// out\n        /* \"#utility.yul\":5923:6041   */\n    tag_399:\n        /* \"#utility.yul\":5994:6016   */\n      tag_495\n        /* \"#utility.yul\":6010:6015   */\n      dup2\n        /* \"#utility.yul\":5994:6016   */\n      tag_396\n      jump\t// in\n    tag_495:\n        /* \"#utility.yul\":5987:5992   */\n      dup2\n        /* \"#utility.yul\":5984:6017   */\n      eq\n        /* \"#utility.yul\":5974:6035   */\n      tag_496\n      jumpi\n        /* \"#utility.yul\":6031:6032   */\n      0x00\n        /* \"#utility.yul\":6028:6029   */\n      dup1\n        /* \"#utility.yul\":6021:6033   */\n      revert\n        /* \"#utility.yul\":5974:6035   */\n    tag_496:\n        /* \"#utility.yul\":5923:6041   */\n      pop\n      jump\t// out\n        /* \"#utility.yul\":6047:6182   */\n    tag_400:\n        /* \"#utility.yul\":6091:6096   */\n      0x00\n        /* \"#utility.yul\":6129:6135   */\n      dup2\n        /* \"#utility.yul\":6116:6136   */\n      calldataload\n        /* \"#utility.yul\":6107:6136   */\n      swap1\n      pop\n        /* \"#utility.yul\":6145:6176   */\n      tag_498\n        /* \"#utility.yul\":6170:6175   */\n      dup2\n        /* \"#utility.yul\":6145:6176   */\n      tag_399\n      jump\t// in\n    tag_498:\n        /* \"#utility.yul\":6047:6182   */\n      swap3\n      swap2\n      pop\n      pop\n      jump\t// out\n        /* \"#utility.yul\":6188:6658   */\n    tag_87:\n        /* \"#utility.yul\":6254:6260   */\n      0x00\n        /* \"#utility.yul\":6262:6268   */\n      dup1\n        /* \"#utility.yul\":6311:6313   */\n      0x40\n        /* \"#utility.yul\":6299:6308   */\n      dup4\n        /* \"#utility.yul\":6290:6297   */\n      dup6\n        /* \"#utility.yul\":6286:6309   */\n      sub\n        /* \"#utility.yul\":6282:6314   */\n      slt\n        /* \"#utility.yul\":6279:6398   */\n      iszero\n      tag_500\n      jumpi\n        /* \"#utility.yul\":6317:6396   */\n      tag_501\n      tag_384\n      jump\t// in\n    tag_501:\n        /* \"#utility.yul\":6279:6398   */\n    tag_500:\n        /* \"#utility.yul\":6437:6438   */\n      0x00\n        /* \"#utility.yul\":6462:6515   */\n      tag_502\n        /* \"#utility.yul\":6507:6514   */\n      dup6\n        /* \"#utility.yul\":6498:6504   */\n      dup3\n        /* \"#utility.yul\":6487:6496   */\n      dup7\n        /* \"#utility.yul\":6483:6505   */\n      add\n        /* \"#utility.yul\":6462:6515   */\n      tag_389\n      jump\t// in\n    tag_502:\n        /* \"#utility.yul\":6452:6515   */\n      swap3\n      pop\n        /* \"#utility.yul\":6408:6525   */\n      pop\n        /* \"#utility.yul\":6564:6566   */\n      0x20\n        /* \"#utility.yul\":6590:6641   */\n      tag_503\n        /* \"#utility.yul\":6633:6640   */\n      dup6\n        /* \"#utility.yul\":6624:6630   */\n      dup3\n        /* \"#utility.yul\":6613:6622   */\n      dup7\n        /* \"#utility.yul\":6609:6631   */\n      add\n        /* \"#utility.yul\":6590:6641   */\n      tag_400\n      jump\t// in\n    tag_503:\n        /* \"#utility.yul\":6580:6641   */\n      swap2\n      pop\n        /* \"#utility.yul\":6535:6651   */\n      pop\n        /* \"#utility.yul\":6188:6658   */\n      swap3\n      pop\n      swap3\n      swap1\n      pop\n      jump\t// out\n        /* \"#utility.yul\":6664:7138   */\n    tag_99:\n        /* \"#utility.yul\":6732:6738   */\n      0x00\n        /* \"#utility.yul\":6740:6746   */\n      dup1\n        /* \"#utility.yul\":6789:6791   */\n      0x40\n        /* \"#utility.yul\":6777:6786   */\n      dup4\n        /* \"#utility.yul\":6768:6775   */\n      dup6\n        /* \"#utility.yul\":6764:6787   */\n      sub\n        /* \"#utility.yul\":6760:6792   */\n      slt\n        /* \"#utility.yul\":6757:6876   */\n      iszero\n      tag_505\n      jumpi\n        /* \"#utility.yul\":6795:6874   */\n      tag_506\n      tag_384\n      jump\t// in\n    tag_506:\n        /* \"#utility.yul\":6757:6876   */\n    tag_505:\n        /* \"#utility.yul\":6915:6916   */\n      0x00\n        /* \"#utility.yul\":6940:6993   */\n      tag_507\n        /* \"#utility.yul\":6985:6992   */\n      dup6\n        /* \"#utility.yul\":6976:6982   */\n      dup3\n        /* \"#utility.yul\":6965:6974   */\n      dup7\n        /* \"#utility.yul\":6961:6983   */\n      add\n        /* \"#utility.yul\":6940:6993   */\n      tag_389\n      jump\t// in\n    tag_507:\n        /* \"#utility.yul\":6930:6993   */\n      swap3\n      pop\n        /* \"#utility.yul\":6886:7003   */\n      pop\n        /* \"#utility.yul\":7042:7044   */\n      0x20\n        /* \"#utility.yul\":7068:7121   */\n      tag_508\n        /* \"#utility.yul\":7113:7120   */\n      dup6\n        /* \"#utility.yul\":7104:7110   */\n      dup3\n        /* \"#utility.yul\":7093:7102   */\n      dup7\n        /* \"#utility.yul\":7089:7111   */\n      add\n        /* \"#utility.yul\":7068:7121   */\n      tag_389\n      jump\t// in\n    tag_508:\n        /* \"#utility.yul\":7058:7121   */\n      swap2\n      pop\n        /* \"#utility.yul\":7013:7131   */\n      pop\n        /* \"#utility.yul\":6664:7138   */\n      swap3\n      pop\n      swap3\n      swap1\n      pop\n      jump\t// out\n        /* \"#utility.yul\":7144:7324   */\n    tag_401:\n        /* \"#utility.yul\":7192:7269   */\n      0x4e487b7100000000000000000000000000000000000000000000000000000000\n        /* \"#utility.yul\":7189:7190   */\n      0x00\n        /* \"#utility.yul\":7182:7270   */\n      mstore\n        /* \"#utility.yul\":7289:7293   */\n      0x22\n        /* \"#utility.yul\":7286:7287   */\n      0x04\n        /* \"#utility.yul\":7279:7294   */\n      mstore\n        /* \"#utility.yul\":7313:7317   */\n      0x24\n        /* \"#utility.yul\":7310:7311   */\n      0x00\n        /* \"#utility.yul\":7303:7318   */\n      revert\n        /* \"#utility.yul\":7330:7650   */\n    tag_107:\n        /* \"#utility.yul\":7374:7380   */\n      0x00\n        /* \"#utility.yul\":7411:7412   */\n      0x02\n        /* \"#utility.yul\":7405:7409   */\n      dup3\n        /* \"#utility.yul\":7401:7413   */\n      div\n        /* \"#utility.yul\":7391:7413   */\n      swap1\n      pop\n        /* \"#utility.yul\":7458:7459   */\n      0x01\n        /* \"#utility.yul\":7452:7456   */\n      dup3\n        /* \"#utility.yul\":7448:7460   */\n      and\n        /* \"#utility.yul\":7479:7497   */\n      dup1\n        /* \"#utility.yul\":7469:7550   */\n      tag_511\n      jumpi\n        /* \"#utility.yul\":7535:7539   */\n      0x7f\n        /* \"#utility.yul\":7527:7533   */\n      dup3\n        /* \"#utility.yul\":7523:7540   */\n      and\n        /* \"#utility.yul\":7513:7540   */\n      swap2\n      pop\n        /* \"#utility.yul\":7469:7550   */\n    tag_511:\n        /* \"#utility.yul\":7597:7599   */\n      0x20\n        /* \"#utility.yul\":7589:7595   */\n      dup3\n        /* \"#utility.yul\":7586:7600   */\n      lt\n        /* \"#utility.yul\":7566:7584   */\n      dup2\n        /* \"#utility.yul\":7563:7601   */\n      sub\n        /* \"#utility.yul\":7560:7644   */\n      tag_512\n      jumpi\n        /* \"#utility.yul\":7616:7634   */\n      tag_513\n      tag_401\n      jump\t// in\n    tag_513:\n        /* \"#utility.yul\":7560:7644   */\n    tag_512:\n        /* \"#utility.yul\":7381:7650   */\n      pop\n        /* \"#utility.yul\":7330:7650   */\n      swap2\n      swap1\n      pop\n      jump\t// out\n        /* \"#utility.yul\":7656:7838   */\n    tag_402:\n        /* \"#utility.yul\":7796:7830   */\n      0x4f776e61626c653a2063616c6c6572206973206e6f7420746865206f776e6572\n        /* \"#utility.yul\":7792:7793   */\n      0x00\n        /* \"#utility.yul\":7784:7790   */\n      dup3\n        /* \"#utility.yul\":7780:7794   */\n      add\n        /* \"#utility.yul\":7773:7831   */\n      mstore\n        /* \"#utility.yul\":7656:7838   */\n      pop\n      jump\t// out\n        /* \"#utility.yul\":7844:8210   */\n    tag_403:\n        /* \"#utility.yul\":7986:7989   */\n      0x00\n        /* \"#utility.yul\":8007:8074   */\n      tag_516\n        /* \"#utility.yul\":8071:8073   */\n      0x20\n        /* \"#utility.yul\":8066:8069   */\n      dup4\n        /* \"#utility.yul\":8007:8074   */\n      tag_379\n      jump\t// in\n    tag_516:\n        /* \"#utility.yul\":8000:8074   */\n      swap2\n      pop\n        /* \"#utility.yul\":8083:8176   */\n      tag_517\n        /* \"#utility.yul\":8172:8175   */\n      dup3\n        /* \"#utility.yul\":8083:8176   */\n      tag_402\n      jump\t// in\n    tag_517:\n        /* \"#utility.yul\":8201:8203   */\n      0x20\n        /* \"#utility.yul\":8196:8199   */\n      dup3\n        /* \"#utility.yul\":8192:8204   */\n      add\n        /* \"#utility.yul\":8185:8204   */\n      swap1\n      pop\n        /* \"#utility.yul\":7844:8210   */\n      swap2\n      swap1\n      pop\n      jump\t// out\n        /* \"#utility.yul\":8216:8635   */\n    tag_122:\n        /* \"#utility.yul\":8382:8386   */\n      0x00\n        /* \"#utility.yul\":8420:8422   */\n      0x20\n        /* \"#utility.yul\":8409:8418   */\n      dup3\n        /* \"#utility.yul\":8405:8423   */\n      add\n        /* \"#utility.yul\":8397:8423   */\n      swap1\n      pop\n        /* \"#utility.yul\":8469:8478   */\n      dup2\n        /* \"#utility.yul\":8463:8467   */\n      dup2\n        /* \"#utility.yul\":8459:8479   */\n      sub\n        /* \"#utility.yul\":8455:8456   */\n      0x00\n        /* \"#utility.yul\":8444:8453   */\n      dup4\n        /* \"#utility.yul\":8440:8457   */\n      add\n        /* \"#utility.yul\":8433:8480   */\n      mstore\n        /* \"#utility.yul\":8497:8628   */\n      tag_519\n        /* \"#utility.yul\":8623:8627   */\n      dup2\n        /* \"#utility.yul\":8497:8628   */\n      tag_403\n      jump\t// in\n    tag_519:\n        /* \"#utility.yul\":8489:8628   */\n      swap1\n      pop\n        /* \"#utility.yul\":8216:8635   */\n      swap2\n      swap1\n      pop\n      jump\t// out\n        /* \"#utility.yul\":8641:8864   */\n    tag_404:\n        /* \"#utility.yul\":8781:8815   */\n      0x6163636f756e74206973206e6f74206120726567756c6172207368617265686f\n        /* \"#utility.yul\":8777:8778   */\n      0x00\n        /* \"#utility.yul\":8769:8775   */\n      dup3\n        /* \"#utility.yul\":8765:8779   */\n      add\n        /* \"#utility.yul\":8758:8816   */\n      mstore\n        /* \"#utility.yul\":8850:8856   */\n      0x6c64657200000000000000000000000000000000000000000000000000000000\n        /* \"#utility.yul\":8845:8847   */\n      0x20\n        /* \"#utility.yul\":8837:8843   */\n      dup3\n        /* \"#utility.yul\":8833:8848   */\n      add\n        /* \"#utility.yul\":8826:8857   */\n      mstore\n        /* \"#utility.yul\":8641:8864   */\n      pop\n      jump\t// out\n        /* \"#utility.yul\":8870:9236   */\n    tag_405:\n        /* \"#utility.yul\":9012:9015   */\n      0x00\n        /* \"#utility.yul\":9033:9100   */\n      tag_522\n        /* \"#utility.yul\":9097:9099   */\n      0x24\n        /* \"#utility.yul\":9092:9095   */\n      dup4\n        /* \"#utility.yul\":9033:9100   */\n      tag_379\n      jump\t// in\n    tag_522:\n        /* \"#utility.yul\":9026:9100   */\n      swap2\n      pop\n        /* \"#utility.yul\":9109:9202   */\n      tag_523\n        /* \"#utility.yul\":9198:9201   */\n      dup3\n        /* \"#utility.yul\":9109:9202   */\n      tag_404\n      jump\t// in\n    tag_523:\n        /* \"#utility.yul\":9227:9229   */\n      0x40\n        /* \"#utility.yul\":9222:9225   */\n      dup3\n        /* \"#utility.yul\":9218:9230   */\n      add\n        /* \"#utility.yul\":9211:9230   */\n      swap1\n      pop\n        /* \"#utility.yul\":8870:9236   */\n      swap2\n      swap1\n      pop\n      jump\t// out\n        /* \"#utility.yul\":9242:9661   */\n    tag_126:\n        /* \"#utility.yul\":9408:9412   */\n      0x00\n        /* \"#utility.yul\":9446:9448   */\n      0x20\n        /* \"#utility.yul\":9435:9444   */\n      dup3\n        /* \"#utility.yul\":9431:9449   */\n      add\n        /* \"#utility.yul\":9423:9449   */\n      swap1\n      pop\n        /* \"#utility.yul\":9495:9504   */\n      dup2\n        /* \"#utility.yul\":9489:9493   */\n      dup2\n        /* \"#utility.yul\":9485:9505   */\n      sub\n        /* \"#utility.yul\":9481:9482   */\n      0x00\n        /* \"#utility.yul\":9470:9479   */\n      dup4\n        /* \"#utility.yul\":9466:9483   */\n      add\n        /* \"#utility.yul\":9459:9506   */\n      mstore\n        /* \"#utility.yul\":9523:9654   */\n      tag_525\n        /* \"#utility.yul\":9649:9653   */\n      dup2\n        /* \"#utility.yul\":9523:9654   */\n      tag_405\n      jump\t// in\n    tag_525:\n        /* \"#utility.yul\":9515:9654   */\n      swap1\n      pop\n        /* \"#utility.yul\":9242:9661   */\n      swap2\n      swap1\n      pop\n      jump\t// out\n        /* \"#utility.yul\":9667:9847   */\n    tag_406:\n        /* \"#utility.yul\":9715:9792   */\n      0x4e487b7100000000000000000000000000000000000000000000000000000000\n        /* \"#utility.yul\":9712:9713   */\n      0x00\n        /* \"#utility.yul\":9705:9793   */\n      mstore\n        /* \"#utility.yul\":9812:9816   */\n      0x11\n        /* \"#utility.yul\":9809:9810   */\n      0x04\n        /* \"#utility.yul\":9802:9817   */\n      mstore\n        /* \"#utility.yul\":9836:9840   */\n      0x24\n        /* \"#utility.yul\":9833:9834   */\n      0x00\n        /* \"#utility.yul\":9826:9841   */\n      revert\n        /* \"#utility.yul\":9853:10158   */\n    tag_128:\n        /* \"#utility.yul\":9893:9896   */\n      0x00\n        /* \"#utility.yul\":9912:9932   */\n      tag_528\n        /* \"#utility.yul\":9930:9931   */\n      dup3\n        /* \"#utility.yul\":9912:9932   */\n      tag_390\n      jump\t// in\n    tag_528:\n        /* \"#utility.yul\":9907:9932   */\n      swap2\n      pop\n        /* \"#utility.yul\":9946:9966   */\n      tag_529\n        /* \"#utility.yul\":9964:9965   */\n      dup4\n        /* \"#utility.yul\":9946:9966   */\n      tag_390\n      jump\t// in\n    tag_529:\n        /* \"#utility.yul\":9941:9966   */\n      swap3\n      pop\n        /* \"#utility.yul\":10100:10101   */\n      dup3\n        /* \"#utility.yul\":10032:10098   */\n      0xffffffffffffffffffffffffffffffffffffffffffffffffffffffffffffffff\n        /* \"#utility.yul\":10028:10102   */\n      sub\n        /* \"#utility.yul\":10025:10026   */\n      dup3\n        /* \"#utility.yul\":10022:10103   */\n      gt\n        /* \"#utility.yul\":10019:10126   */\n      iszero\n      tag_530\n      jumpi\n        /* \"#utility.yul\":10106:10124   */\n      tag_531\n      tag_406\n      jump\t// in\n    tag_531:\n        /* \"#utility.yul\":10019:10126   */\n    tag_530:\n        /* \"#utility.yul\":10150:10151   */\n      dup3\n        /* \"#utility.yul\":10147:10148   */\n      dup3\n        /* \"#utility.yul\":10143:10152   */\n      add\n        /* \"#utility.yul\":10136:10152   */\n      swap1\n      pop\n        /* \"#utility.yul\":9853:10158   */\n      swap3\n      swap2\n      pop\n      pop\n      jump\t// out\n        /* \"#utility.yul\":10164:10344   */\n    tag_407:\n        /* \"#utility.yul\":10212:10289   */\n      0x4e487b7100000000000000000000000000000000000000000000000000000000\n        /* \"#utility.yul\":10209:10210   */\n      0x00\n        /* \"#utility.yul\":10202:10290   */\n      mstore\n        /* \"#utility.yul\":10309:10313   */\n      0x12\n        /* \"#utility.yul\":10306:10307   */\n      0x04\n        /* \"#utility.yul\":10299:10314   */\n      mstore\n        /* \"#utility.yul\":10333:10337   */\n      0x24\n        /* \"#utility.yul\":10330:10331   */\n      0x00\n        /* \"#utility.yul\":10323:10338   */\n      revert\n        /* \"#utility.yul\":10350:10535   */\n    tag_133:\n        /* \"#utility.yul\":10390:10391   */\n      0x00\n        /* \"#utility.yul\":10407:10427   */\n      tag_534\n        /* \"#utility.yul\":10425:10426   */\n      dup3\n        /* \"#utility.yul\":10407:10427   */\n      tag_390\n      jump\t// in\n    tag_534:\n        /* \"#utility.yul\":10402:10427   */\n      swap2\n      pop\n        /* \"#utility.yul\":10441:10461   */\n      tag_535\n        /* \"#utility.yul\":10459:10460   */\n      dup4\n        /* \"#utility.yul\":10441:10461   */\n      tag_390\n      jump\t// in\n    tag_535:\n        /* \"#utility.yul\":10436:10461   */\n      swap3\n      pop\n        /* \"#utility.yul\":10480:10481   */\n      dup3\n        /* \"#utility.yul\":10470:10505   */\n      tag_536\n      jumpi\n        /* \"#utility.yul\":10485:10503   */\n      tag_537\n      tag_407\n      jump\t// in\n    tag_537:\n        /* \"#utility.yul\":10470:10505   */\n    tag_536:\n        /* \"#utility.yul\":10527:10528   */\n      dup3\n        /* \"#utility.yul\":10524:10525   */\n      dup3\n        /* \"#utility.yul\":10520:10529   */\n      div\n        /* \"#utility.yul\":10515:10529   */\n      swap1\n      pop\n        /* \"#utility.yul\":10350:10535   */\n      swap3\n      swap2\n      pop\n      pop\n      jump\t// out\n        /* \"#utility.yul\":10541:10721   */\n    tag_136:\n        /* \"#utility.yul\":10589:10666   */\n      0x4e487b7100000000000000000000000000000000000000000000000000000000\n        /* \"#utility.yul\":10586:10587   */\n      0x00\n        /* \"#utility.yul\":10579:10667   */\n      mstore\n        /* \"#utility.yul\":10686:10690   */\n      0x32\n        /* \"#utility.yul\":10683:10684   */\n      0x04\n        /* \"#utility.yul\":10676:10691   */\n      mstore\n        /* \"#utility.yul\":10710:10714   */\n      0x24\n        /* \"#utility.yul\":10707:10708   */\n      0x00\n        /* \"#utility.yul\":10700:10715   */\n      revert\n        /* \"#utility.yul\":10727:11075   */\n    tag_143:\n        /* \"#utility.yul\":10767:10774   */\n      0x00\n        /* \"#utility.yul\":10790:10810   */\n      tag_540\n        /* \"#utility.yul\":10808:10809   */\n      dup3\n        /* \"#utility.yul\":10790:10810   */\n      tag_390\n      jump\t// in\n    tag_540:\n        /* \"#utility.yul\":10785:10810   */\n      swap2\n      pop\n        /* \"#utility.yul\":10824:10844   */\n      tag_541\n        /* \"#utility.yul\":10842:10843   */\n      dup4\n        /* \"#utility.yul\":10824:10844   */\n      tag_390\n      jump\t// in\n    tag_541:\n        /* \"#utility.yul\":10819:10844   */\n      swap3\n      pop\n        /* \"#utility.yul\":11012:11013   */\n      dup2\n        /* \"#utility.yul\":10944:11010   */\n      0xffffffffffffffffffffffffffffffffffffffffffffffffffffffffffffffff\n        /* \"#utility.yul\":10940:11014   */\n      div\n        /* \"#utility.yul\":10937:10938   */\n      dup4\n        /* \"#utility.yul\":10934:11015   */\n      gt\n        /* \"#utility.yul\":10929:10930   */\n      dup3\n        /* \"#utility.yul\":10922:10931   */\n      iszero\n        /* \"#utility.yul\":10915:10932   */\n      iszero\n        /* \"#utility.yul\":10911:11016   */\n      and\n        /* \"#utility.yul\":10908:11039   */\n      iszero\n      tag_542\n      jumpi\n        /* \"#utility.yul\":11019:11037   */\n      tag_543\n      tag_406\n      jump\t// in\n    tag_543:\n        /* \"#utility.yul\":10908:11039   */\n    tag_542:\n        /* \"#utility.yul\":11067:11068   */\n      dup3\n        /* \"#utility.yul\":11064:11065   */\n      dup3\n        /* \"#utility.yul\":11060:11069   */\n      mul\n        /* \"#utility.yul\":11049:11069   */\n      swap1\n      pop\n        /* \"#utility.yul\":10727:11075   */\n      swap3\n      swap2\n      pop\n      pop\n      jump\t// out\n        /* \"#utility.yul\":11081:11248   */\n    tag_157:\n        /* \"#utility.yul\":11118:11121   */\n      0x00\n        /* \"#utility.yul\":11141:11163   */\n      tag_545\n        /* \"#utility.yul\":11157:11162   */\n      dup3\n        /* \"#utility.yul\":11141:11163   */\n      tag_396\n      jump\t// in\n    tag_545:\n        /* \"#utility.yul\":11132:11163   */\n      swap2\n      pop\n        /* \"#utility.yul\":11185:11189   */\n      0xff\n        /* \"#utility.yul\":11178:11183   */\n      dup3\n        /* \"#utility.yul\":11175:11190   */\n      sub\n        /* \"#utility.yul\":11172:11213   */\n      tag_546\n      jumpi\n        /* \"#utility.yul\":11193:11211   */\n      tag_547\n      tag_406\n      jump\t// in\n    tag_547:\n        /* \"#utility.yul\":11172:11213   */\n    tag_546:\n        /* \"#utility.yul\":11240:11241   */\n      0x01\n        /* \"#utility.yul\":11233:11238   */\n      dup3\n        /* \"#utility.yul\":11229:11242   */\n      add\n        /* \"#utility.yul\":11222:11242   */\n      swap1\n      pop\n        /* \"#utility.yul\":11081:11248   */\n      swap2\n      swap1\n      pop\n      jump\t// out\n        /* \"#utility.yul\":11254:11436   */\n    tag_408:\n        /* \"#utility.yul\":11394:11428   */\n      0x6163636f756e74206973206120726567756c6172207368617265686f6c646572\n        /* \"#utility.yul\":11390:11391   */\n      0x00\n        /* \"#utility.yul\":11382:11388   */\n      dup3\n        /* \"#utility.yul\":11378:11392   */\n      add\n        /* \"#utility.yul\":11371:11429   */\n      mstore\n        /* \"#utility.yul\":11254:11436   */\n      pop\n      jump\t// out\n        /* \"#utility.yul\":11442:11808   */\n    tag_409:\n        /* \"#utility.yul\":11584:11587   */\n      0x00\n        /* \"#utility.yul\":11605:11672   */\n      tag_550\n        /* \"#utility.yul\":11669:11671   */\n      0x20\n        /* \"#utility.yul\":11664:11667   */\n      dup4\n        /* \"#utility.yul\":11605:11672   */\n      tag_379\n      jump\t// in\n    tag_550:\n        /* \"#utility.yul\":11598:11672   */\n      swap2\n      pop\n        /* \"#utility.yul\":11681:11774   */\n      tag_551\n        /* \"#utility.yul\":11770:11773   */\n      dup3\n        /* \"#utility.yul\":11681:11774   */\n      tag_408\n      jump\t// in\n    tag_551:\n        /* \"#utility.yul\":11799:11801   */\n      0x20\n        /* \"#utility.yul\":11794:11797   */\n      dup3\n        /* \"#utility.yul\":11790:11802   */\n      add\n        /* \"#utility.yul\":11783:11802   */\n      swap1\n      pop\n        /* \"#utility.yul\":11442:11808   */\n      swap2\n      swap1\n      pop\n      jump\t// out\n        /* \"#utility.yul\":11814:12233   */\n    tag_167:\n        /* \"#utility.yul\":11980:11984   */\n      0x00\n        /* \"#utility.yul\":12018:12020   */\n      0x20\n        /* \"#utility.yul\":12007:12016   */\n      dup3\n        /* \"#utility.yul\":12003:12021   */\n      add\n        /* \"#utility.yul\":11995:12021   */\n      swap1\n      pop\n        /* \"#utility.yul\":12067:12076   */\n      dup2\n        /* \"#utility.yul\":12061:12065   */\n      dup2\n        /* \"#utility.yul\":12057:12077   */\n      sub\n        /* \"#utility.yul\":12053:12054   */\n      0x00\n        /* \"#utility.yul\":12042:12051   */\n      dup4\n        /* \"#utility.yul\":12038:12055   */\n      add\n        /* \"#utility.yul\":12031:12078   */\n      mstore\n        /* \"#utility.yul\":12095:12226   */\n      tag_553\n        /* \"#utility.yul\":12221:12225   */\n      dup2\n        /* \"#utility.yul\":12095:12226   */\n      tag_409\n      jump\t// in\n    tag_553:\n        /* \"#utility.yul\":12087:12226   */\n      swap1\n      pop\n        /* \"#utility.yul\":11814:12233   */\n      swap2\n      swap1\n      pop\n      jump\t// out\n        /* \"#utility.yul\":12239:12424   */\n    tag_174:\n        /* \"#utility.yul\":12277:12281   */\n      0x00\n        /* \"#utility.yul\":12297:12315   */\n      tag_555\n        /* \"#utility.yul\":12313:12314   */\n      dup3\n        /* \"#utility.yul\":12297:12315   */\n      tag_396\n      jump\t// in\n    tag_555:\n        /* \"#utility.yul\":12292:12315   */\n      swap2\n      pop\n        /* \"#utility.yul\":12329:12347   */\n      tag_556\n        /* \"#utility.yul\":12345:12346   */\n      dup4\n        /* \"#utility.yul\":12329:12347   */\n      tag_396\n      jump\t// in\n    tag_556:\n        /* \"#utility.yul\":12324:12347   */\n      swap3\n      pop\n        /* \"#utility.yul\":12366:12367   */\n      dup3\n        /* \"#utility.yul\":12363:12364   */\n      dup3\n        /* \"#utility.yul\":12360:12368   */\n      lt\n        /* \"#utility.yul\":12357:12391   */\n      iszero\n      tag_557\n      jumpi\n        /* \"#utility.yul\":12371:12389   */\n      tag_558\n      tag_406\n      jump\t// in\n    tag_558:\n        /* \"#utility.yul\":12357:12391   */\n    tag_557:\n        /* \"#utility.yul\":12416:12417   */\n      dup3\n        /* \"#utility.yul\":12413:12414   */\n      dup3\n        /* \"#utility.yul\":12409:12418   */\n      sub\n        /* \"#utility.yul\":12401:12418   */\n      swap1\n      pop\n        /* \"#utility.yul\":12239:12424   */\n      swap3\n      swap2\n      pop\n      pop\n      jump\t// out\n        /* \"#utility.yul\":12430:12621   */\n    tag_301:\n        /* \"#utility.yul\":12470:12474   */\n      0x00\n        /* \"#utility.yul\":12490:12510   */\n      tag_560\n        /* \"#utility.yul\":12508:12509   */\n      dup3\n        /* \"#utility.yul\":12490:12510   */\n      tag_390\n      jump\t// in\n    tag_560:\n        /* \"#utility.yul\":12485:12510   */\n      swap2\n      pop\n        /* \"#utility.yul\":12524:12544   */\n      tag_561\n        /* \"#utility.yul\":12542:12543   */\n      dup4\n        /* \"#utility.yul\":12524:12544   */\n      tag_390\n      jump\t// in\n    tag_561:\n        /* \"#utility.yul\":12519:12544   */\n      swap3\n      pop\n        /* \"#utility.yul\":12563:12564   */\n      dup3\n        /* \"#utility.yul\":12560:12561   */\n      dup3\n        /* \"#utility.yul\":12557:12565   */\n      lt\n        /* \"#utility.yul\":12554:12588   */\n      iszero\n      tag_562\n      jumpi\n        /* \"#utility.yul\":12568:12586   */\n      tag_563\n      tag_406\n      jump\t// in\n    tag_563:\n        /* \"#utility.yul\":12554:12588   */\n    tag_562:\n        /* \"#utility.yul\":12613:12614   */\n      dup3\n        /* \"#utility.yul\":12610:12611   */\n      dup3\n        /* \"#utility.yul\":12606:12615   */\n      sub\n        /* \"#utility.yul\":12598:12615   */\n      swap1\n      pop\n        /* \"#utility.yul\":12430:12621   */\n      swap3\n      swap2\n      pop\n      pop\n      jump\t// out\n        /* \"#utility.yul\":12627:12851   */\n    tag_410:\n        /* \"#utility.yul\":12767:12801   */\n      0x45524332303a2064656372656173656420616c6c6f77616e63652062656c6f77\n        /* \"#utility.yul\":12763:12764   */\n      0x00\n        /* \"#utility.yul\":12755:12761   */\n      dup3\n        /* \"#utility.yul\":12751:12765   */\n      add\n        /* \"#utility.yul\":12744:12802   */\n      mstore\n        /* \"#utility.yul\":12836:12843   */\n      0x207a65726f000000000000000000000000000000000000000000000000000000\n        /* \"#utility.yul\":12831:12833   */\n      0x20\n        /* \"#utility.yul\":12823:12829   */\n      dup3\n        /* \"#utility.yul\":12819:12834   */\n      add\n        /* \"#utility.yul\":12812:12844   */\n      mstore\n        /* \"#utility.yul\":12627:12851   */\n      pop\n      jump\t// out\n        /* \"#utility.yul\":12857:13223   */\n    tag_411:\n        /* \"#utility.yul\":12999:13002   */\n      0x00\n        /* \"#utility.yul\":13020:13087   */\n      tag_566\n        /* \"#utility.yul\":13084:13086   */\n      0x25\n        /* \"#utility.yul\":13079:13082   */\n      dup4\n        /* \"#utility.yul\":13020:13087   */\n      tag_379\n      jump\t// in\n    tag_566:\n        /* \"#utility.yul\":13013:13087   */\n      swap2\n      pop\n        /* \"#utility.yul\":13096:13189   */\n      tag_567\n        /* \"#utility.yul\":13185:13188   */\n      dup3\n        /* \"#utility.yul\":13096:13189   */\n      tag_410\n      jump\t// in\n    tag_567:\n        /* \"#utility.yul\":13214:13216   */\n      0x40\n        /* \"#utility.yul\":13209:13212   */\n      dup3\n        /* \"#utility.yul\":13205:13217   */\n      add\n        /* \"#utility.yul\":13198:13217   */\n      swap1\n      pop\n        /* \"#utility.yul\":12857:13223   */\n      swap2\n      swap1\n      pop\n      jump\t// out\n        /* \"#utility.yul\":13229:13648   */\n    tag_313:\n        /* \"#utility.yul\":13395:13399   */\n      0x00\n        /* \"#utility.yul\":13433:13435   */\n      0x20\n        /* \"#utility.yul\":13422:13431   */\n      dup3\n        /* \"#utility.yul\":13418:13436   */\n      add\n        /* \"#utility.yul\":13410:13436   */\n      swap1\n      pop\n        /* \"#utility.yul\":13482:13491   */\n      dup2\n        /* \"#utility.yul\":13476:13480   */\n      dup2\n        /* \"#utility.yul\":13472:13492   */\n      sub\n        /* \"#utility.yul\":13468:13469   */\n      0x00\n        /* \"#utility.yul\":13457:13466   */\n      dup4\n        /* \"#utility.yul\":13453:13470   */\n      add\n        /* \"#utility.yul\":13446:13493   */\n      mstore\n        /* \"#utility.yul\":13510:13641   */\n      tag_569\n        /* \"#utility.yul\":13636:13640   */\n      dup2\n        /* \"#utility.yul\":13510:13641   */\n      tag_411\n      jump\t// in\n    tag_569:\n        /* \"#utility.yul\":13502:13641   */\n      swap1\n      pop\n        /* \"#utility.yul\":13229:13648   */\n      swap2\n      swap1\n      pop\n      jump\t// out\n        /* \"#utility.yul\":13654:13879   */\n    tag_412:\n        /* \"#utility.yul\":13794:13828   */\n      0x4f776e61626c653a206e6577206f776e657220697320746865207a65726f2061\n        /* \"#utility.yul\":13790:13791   */\n      0x00\n        /* \"#utility.yul\":13782:13788   */\n      dup3\n        /* \"#utility.yul\":13778:13792   */\n      add\n        /* \"#utility.yul\":13771:13829   */\n      mstore\n        /* \"#utility.yul\":13863:13871   */\n      0x6464726573730000000000000000000000000000000000000000000000000000\n        /* \"#utility.yul\":13858:13860   */\n      0x20\n        /* \"#utility.yul\":13850:13856   */\n      dup3\n        /* \"#utility.yul\":13846:13861   */\n      add\n        /* \"#utility.yul\":13839:13872   */\n      mstore\n        /* \"#utility.yul\":13654:13879   */\n      pop\n      jump\t// out\n        /* \"#utility.yul\":13885:14251   */\n    tag_413:\n        /* \"#utility.yul\":14027:14030   */\n      0x00\n        /* \"#utility.yul\":14048:14115   */\n      tag_572\n        /* \"#utility.yul\":14112:14114   */\n      0x26\n        /* \"#utility.yul\":14107:14110   */\n      dup4\n        /* \"#utility.yul\":14048:14115   */\n      tag_379\n      jump\t// in\n    tag_572:\n        /* \"#utility.yul\":14041:14115   */\n      swap2\n      pop\n        /* \"#utility.yul\":14124:14217   */\n      tag_573\n        /* \"#utility.yul\":14213:14216   */\n      dup3\n        /* \"#utility.yul\":14124:14217   */\n      tag_412\n      jump\t// in\n    tag_573:\n        /* \"#utility.yul\":14242:14244   */\n      0x40\n        /* \"#utility.yul\":14237:14240   */\n      dup3\n        /* \"#utility.yul\":14233:14245   */\n      add\n        /* \"#utility.yul\":14226:14245   */\n      swap1\n      pop\n        /* \"#utility.yul\":13885:14251   */\n      swap2\n      swap1\n      pop\n      jump\t// out\n        /* \"#utility.yul\":14257:14676   */\n    tag_340:\n        /* \"#utility.yul\":14423:14427   */\n      0x00\n        /* \"#utility.yul\":14461:14463   */\n      0x20\n        /* \"#utility.yul\":14450:14459   */\n      dup3\n        /* \"#utility.yul\":14446:14464   */\n      add\n        /* \"#utility.yul\":14438:14464   */\n      swap1\n      pop\n        /* \"#utility.yul\":14510:14519   */\n      dup2\n        /* \"#utility.yul\":14504:14508   */\n      dup2\n        /* \"#utility.yul\":14500:14520   */\n      sub\n        /* \"#utility.yul\":14496:14497   */\n      0x00\n        /* \"#utility.yul\":14485:14494   */\n      dup4\n        /* \"#utility.yul\":14481:14498   */\n      add\n        /* \"#utility.yul\":14474:14521   */\n      mstore\n        /* \"#utility.yul\":14538:14669   */\n      tag_575\n        /* \"#utility.yul\":14664:14668   */\n      dup2\n        /* \"#utility.yul\":14538:14669   */\n      tag_413\n      jump\t// in\n    tag_575:\n        /* \"#utility.yul\":14530:14669   */\n      swap1\n      pop\n        /* \"#utility.yul\":14257:14676   */\n      swap2\n      swap1\n      pop\n      jump\t// out\n        /* \"#utility.yul\":14682:14905   */\n    tag_414:\n        /* \"#utility.yul\":14822:14856   */\n      0x45524332303a20617070726f76652066726f6d20746865207a65726f20616464\n        /* \"#utility.yul\":14818:14819   */\n      0x00\n        /* \"#utility.yul\":14810:14816   */\n      dup3\n        /* \"#utility.yul\":14806:14820   */\n      add\n        /* \"#utility.yul\":14799:14857   */\n      mstore\n        /* \"#utility.yul\":14891:14897   */\n      0x7265737300000000000000000000000000000000000000000000000000000000\n        /* \"#utility.yul\":14886:14888   */\n      0x20\n        /* \"#utility.yul\":14878:14884   */\n      dup3\n        /* \"#utility.yul\":14874:14889   */\n      add\n        /* \"#utility.yul\":14867:14898   */\n      mstore\n        /* \"#utility.yul\":14682:14905   */\n      pop\n      jump\t// out\n        /* \"#utility.yul\":14911:15277   */\n    tag_415:\n        /* \"#utility.yul\":15053:15056   */\n      0x00\n        /* \"#utility.yul\":15074:15141   */\n      tag_578\n        /* \"#utility.yul\":15138:15140   */\n      0x24\n        /* \"#utility.yul\":15133:15136   */\n      dup4\n        /* \"#utility.yul\":15074:15141   */\n      tag_379\n      jump\t// in\n    tag_578:\n        /* \"#utility.yul\":15067:15141   */\n      swap2\n      pop\n        /* \"#utility.yul\":15150:15243   */\n      tag_579\n        /* \"#utility.yul\":15239:15242   */\n      dup3\n        /* \"#utility.yul\":15150:15243   */\n      tag_414\n      jump\t// in\n    tag_579:\n        /* \"#utility.yul\":15268:15270   */\n      0x40\n        /* \"#utility.yul\":15263:15266   */\n      dup3\n        /* \"#utility.yul\":15259:15271   */\n      add\n        /* \"#utility.yul\":15252:15271   */\n      swap1\n      pop\n        /* \"#utility.yul\":14911:15277   */\n      swap2\n      swap1\n      pop\n      jump\t// out\n        /* \"#utility.yul\":15283:15702   */\n    tag_346:\n        /* \"#utility.yul\":15449:15453   */\n      0x00\n        /* \"#utility.yul\":15487:15489   */\n      0x20\n        /* \"#utility.yul\":15476:15485   */\n      dup3\n        /* \"#utility.yul\":15472:15490   */\n      add\n        /* \"#utility.yul\":15464:15490   */\n      swap1\n      pop\n        /* \"#utility.yul\":15536:15545   */\n      dup2\n        /* \"#utility.yul\":15530:15534   */\n      dup2\n        /* \"#utility.yul\":15526:15546   */\n      sub\n        /* \"#utility.yul\":15522:15523   */\n      0x00\n        /* \"#utility.yul\":15511:15520   */\n      dup4\n        /* \"#utility.yul\":15507:15524   */\n      add\n        /* \"#utility.yul\":15500:15547   */\n      mstore\n        /* \"#utility.yul\":15564:15695   */\n      tag_581\n        /* \"#utility.yul\":15690:15694   */\n      dup2\n        /* \"#utility.yul\":15564:15695   */\n      tag_415\n      jump\t// in\n    tag_581:\n        /* \"#utility.yul\":15556:15695   */\n      swap1\n      pop\n        /* \"#utility.yul\":15283:15702   */\n      swap2\n      swap1\n      pop\n      jump\t// out\n        /* \"#utility.yul\":15708:15929   */\n    tag_416:\n        /* \"#utility.yul\":15848:15882   */\n      0x45524332303a20617070726f766520746f20746865207a65726f206164647265\n        /* \"#utility.yul\":15844:15845   */\n      0x00\n        /* \"#utility.yul\":15836:15842   */\n      dup3\n        /* \"#utility.yul\":15832:15846   */\n      add\n        /* \"#utility.yul\":15825:15883   */\n      mstore\n        /* \"#utility.yul\":15917:15921   */\n      0x7373000000000000000000000000000000000000000000000000000000000000\n        /* \"#utility.yul\":15912:15914   */\n      0x20\n        /* \"#utility.yul\":15904:15910   */\n      dup3\n        /* \"#utility.yul\":15900:15915   */\n      add\n        /* \"#utility.yul\":15893:15922   */\n      mstore\n        /* \"#utility.yul\":15708:15929   */\n      pop\n      jump\t// out\n        /* \"#utility.yul\":15935:16301   */\n    tag_417:\n        /* \"#utility.yul\":16077:16080   */\n      0x00\n        /* \"#utility.yul\":16098:16165   */\n      tag_584\n        /* \"#utility.yul\":16162:16164   */\n      0x22\n        /* \"#utility.yul\":16157:16160   */\n      dup4\n        /* \"#utility.yul\":16098:16165   */\n      tag_379\n      jump\t// in\n    tag_584:\n        /* \"#utility.yul\":16091:16165   */\n      swap2\n      pop\n        /* \"#utility.yul\":16174:16267   */\n      tag_585\n        /* \"#utility.yul\":16263:16266   */\n      dup3\n        /* \"#utility.yul\":16174:16267   */\n      tag_416\n      jump\t// in\n    tag_585:\n        /* \"#utility.yul\":16292:16294   */\n      0x40\n        /* \"#utility.yul\":16287:16290   */\n      dup3\n        /* \"#utility.yul\":16283:16295   */\n      add\n        /* \"#utility.yul\":16276:16295   */\n      swap1\n      pop\n        /* \"#utility.yul\":15935:16301   */\n      swap2\n      swap1\n      pop\n      jump\t// out\n        /* \"#utility.yul\":16307:16726   */\n    tag_349:\n        /* \"#utility.yul\":16473:16477   */\n      0x00\n        /* \"#utility.yul\":16511:16513   */\n      0x20\n        /* \"#utility.yul\":16500:16509   */\n      dup3\n        /* \"#utility.yul\":16496:16514   */\n      add\n        /* \"#utility.yul\":16488:16514   */\n      swap1\n      pop\n        /* \"#utility.yul\":16560:16569   */\n      dup2\n        /* \"#utility.yul\":16554:16558   */\n      dup2\n        /* \"#utility.yul\":16550:16570   */\n      sub\n        /* \"#utility.yul\":16546:16547   */\n      0x00\n        /* \"#utility.yul\":16535:16544   */\n      dup4\n        /* \"#utility.yul\":16531:16548   */\n      add\n        /* \"#utility.yul\":16524:16571   */\n      mstore\n        /* \"#utility.yul\":16588:16719   */\n      tag_587\n        /* \"#utility.yul\":16714:16718   */\n      dup2\n        /* \"#utility.yul\":16588:16719   */\n      tag_417\n      jump\t// in\n    tag_587:\n        /* \"#utility.yul\":16580:16719   */\n      swap1\n      pop\n        /* \"#utility.yul\":16307:16726   */\n      swap2\n      swap1\n      pop\n      jump\t// out\n        /* \"#utility.yul\":16732:16956   */\n    tag_418:\n        /* \"#utility.yul\":16872:16906   */\n      0x45524332303a207472616e736665722066726f6d20746865207a65726f206164\n        /* \"#utility.yul\":16868:16869   */\n      0x00\n        /* \"#utility.yul\":16860:16866   */\n      dup3\n        /* \"#utility.yul\":16856:16870   */\n      add\n        /* \"#utility.yul\":16849:16907   */\n      mstore\n        /* \"#utility.yul\":16941:16948   */\n      0x6472657373000000000000000000000000000000000000000000000000000000\n        /* \"#utility.yul\":16936:16938   */\n      0x20\n        /* \"#utility.yul\":16928:16934   */\n      dup3\n        /* \"#utility.yul\":16924:16939   */\n      add\n        /* \"#utility.yul\":16917:16949   */\n      mstore\n        /* \"#utility.yul\":16732:16956   */\n      pop\n      jump\t// out\n        /* \"#utility.yul\":16962:17328   */\n    tag_419:\n        /* \"#utility.yul\":17104:17107   */\n      0x00\n        /* \"#utility.yul\":17125:17192   */\n      tag_590\n        /* \"#utility.yul\":17189:17191   */\n      0x25\n        /* \"#utility.yul\":17184:17187   */\n      dup4\n        /* \"#utility.yul\":17125:17192   */\n      tag_379\n      jump\t// in\n    tag_590:\n        /* \"#utility.yul\":17118:17192   */\n      swap2\n      pop\n        /* \"#utility.yul\":17201:17294   */\n      tag_591\n        /* \"#utility.yul\":17290:17293   */\n      dup3\n        /* \"#utility.yul\":17201:17294   */\n      tag_418\n      jump\t// in\n    tag_591:\n        /* \"#utility.yul\":17319:17321   */\n      0x40\n        /* \"#utility.yul\":17314:17317   */\n      dup3\n        /* \"#utility.yul\":17310:17322   */\n      add\n        /* \"#utility.yul\":17303:17322   */\n      swap1\n      pop\n        /* \"#utility.yul\":16962:17328   */\n      swap2\n      swap1\n      pop\n      jump\t// out\n        /* \"#utility.yul\":17334:17753   */\n    tag_365:\n        /* \"#utility.yul\":17500:17504   */\n      0x00\n        /* \"#utility.yul\":17538:17540   */\n      0x20\n        /* \"#utility.yul\":17527:17536   */\n      dup3\n        /* \"#utility.yul\":17523:17541   */\n      add\n        /* \"#utility.yul\":17515:17541   */\n      swap1\n      pop\n        /* \"#utility.yul\":17587:17596   */\n      dup2\n        /* \"#utility.yul\":17581:17585   */\n      dup2\n        /* \"#utility.yul\":17577:17597   */\n      sub\n        /* \"#utility.yul\":17573:17574   */\n      0x00\n        /* \"#utility.yul\":17562:17571   */\n      dup4\n        /* \"#utility.yul\":17558:17575   */\n      add\n        /* \"#utility.yul\":17551:17598   */\n      mstore\n        /* \"#utility.yul\":17615:17746   */\n      tag_593\n        /* \"#utility.yul\":17741:17745   */\n      dup2\n        /* \"#utility.yul\":17615:17746   */\n      tag_419\n      jump\t// in\n    tag_593:\n        /* \"#utility.yul\":17607:17746   */\n      swap1\n      pop\n        /* \"#utility.yul\":17334:17753   */\n      swap2\n      swap1\n      pop\n      jump\t// out\n        /* \"#utility.yul\":17759:17981   */\n    tag_420:\n        /* \"#utility.yul\":17899:17933   */\n      0x45524332303a207472616e7366657220746f20746865207a65726f2061646472\n        /* \"#utility.yul\":17895:17896   */\n      0x00\n        /* \"#utility.yul\":17887:17893   */\n      dup3\n        /* \"#utility.yul\":17883:17897   */\n      add\n        /* \"#utility.yul\":17876:17934   */\n      mstore\n        /* \"#utility.yul\":17968:17973   */\n      0x6573730000000000000000000000000000000000000000000000000000000000\n        /* \"#utility.yul\":17963:17965   */\n      0x20\n        /* \"#utility.yul\":17955:17961   */\n      dup3\n        /* \"#utility.yul\":17951:17966   */\n      add\n        /* \"#utility.yul\":17944:17974   */\n      mstore\n        /* \"#utility.yul\":17759:17981   */\n      pop\n      jump\t// out\n        /* \"#utility.yul\":17987:18353   */\n    tag_421:\n        /* \"#utility.yul\":18129:18132   */\n      0x00\n        /* \"#utility.yul\":18150:18217   */\n      tag_596\n        /* \"#utility.yul\":18214:18216   */\n      0x23\n        /* \"#utility.yul\":18209:18212   */\n      dup4\n        /* \"#utility.yul\":18150:18217   */\n      tag_379\n      jump\t// in\n    tag_596:\n        /* \"#utility.yul\":18143:18217   */\n      swap2\n      pop\n        /* \"#utility.yul\":18226:18319   */\n      tag_597\n        /* \"#utility.yul\":18315:18318   */\n      dup3\n        /* \"#utility.yul\":18226:18319   */\n      tag_420\n      jump\t// in\n    tag_597:\n        /* \"#utility.yul\":18344:18346   */\n      0x40\n        /* \"#utility.yul\":18339:18342   */\n      dup3\n        /* \"#utility.yul\":18335:18347   */\n      add\n        /* \"#utility.yul\":18328:18347   */\n      swap1\n      pop\n        /* \"#utility.yul\":17987:18353   */\n      swap2\n      swap1\n      pop\n      jump\t// out\n        /* \"#utility.yul\":18359:18778   */\n    tag_368:\n        /* \"#utility.yul\":18525:18529   */\n      0x00\n        /* \"#utility.yul\":18563:18565   */\n      0x20\n        /* \"#utility.yul\":18552:18561   */\n      dup3\n        /* \"#utility.yul\":18548:18566   */\n      add\n        /* \"#utility.yul\":18540:18566   */\n      swap1\n      pop\n        /* \"#utility.yul\":18612:18621   */\n      dup2\n        /* \"#utility.yul\":18606:18610   */\n      dup2\n        /* \"#utility.yul\":18602:18622   */\n      sub\n        /* \"#utility.yul\":18598:18599   */\n      0x00\n        /* \"#utility.yul\":18587:18596   */\n      dup4\n        /* \"#utility.yul\":18583:18600   */\n      add\n        /* \"#utility.yul\":18576:18623   */\n      mstore\n        /* \"#utility.yul\":18640:18771   */\n      tag_599\n        /* \"#utility.yul\":18766:18770   */\n      dup2\n        /* \"#utility.yul\":18640:18771   */\n      tag_421\n      jump\t// in\n    tag_599:\n        /* \"#utility.yul\":18632:18771   */\n      swap1\n      pop\n        /* \"#utility.yul\":18359:18778   */\n      swap2\n      swap1\n      pop\n      jump\t// out\n        /* \"#utility.yul\":18784:19009   */\n    tag_422:\n        /* \"#utility.yul\":18924:18958   */\n      0x45524332303a207472616e7366657220616d6f756e7420657863656564732062\n        /* \"#utility.yul\":18920:18921   */\n      0x00\n        /* \"#utility.yul\":18912:18918   */\n      dup3\n        /* \"#utility.yul\":18908:18922   */\n      add\n        /* \"#utility.yul\":18901:18959   */\n      mstore\n        /* \"#utility.yul\":18993:19001   */\n      0x616c616e63650000000000000000000000000000000000000000000000000000\n        /* \"#utility.yul\":18988:18990   */\n      0x20\n        /* \"#utility.yul\":18980:18986   */\n      dup3\n        /* \"#utility.yul\":18976:18991   */\n      add\n        /* \"#utility.yul\":18969:19002   */\n      mstore\n        /* \"#utility.yul\":18784:19009   */\n      pop\n      jump\t// out\n        /* \"#utility.yul\":19015:19381   */\n    tag_423:\n        /* \"#utility.yul\":19157:19160   */\n      0x00\n        /* \"#utility.yul\":19178:19245   */\n      tag_602\n        /* \"#utility.yul\":19242:19244   */\n      0x26\n        /* \"#utility.yul\":19237:19240   */\n      dup4\n        /* \"#utility.yul\":19178:19245   */\n      tag_379\n      jump\t// in\n    tag_602:\n        /* \"#utility.yul\":19171:19245   */\n      swap2\n      pop\n        /* \"#utility.yul\":19254:19347   */\n      tag_603\n        /* \"#utility.yul\":19343:19346   */\n      dup3\n        /* \"#utility.yul\":19254:19347   */\n      tag_422\n      jump\t// in\n    tag_603:\n        /* \"#utility.yul\":19372:19374   */\n      0x40\n        /* \"#utility.yul\":19367:19370   */\n      dup3\n        /* \"#utility.yul\":19363:19375   */\n      add\n        /* \"#utility.yul\":19356:19375   */\n      swap1\n      pop\n        /* \"#utility.yul\":19015:19381   */\n      swap2\n      swap1\n      pop\n      jump\t// out\n        /* \"#utility.yul\":19387:19806   */\n    tag_373:\n        /* \"#utility.yul\":19553:19557   */\n      0x00\n        /* \"#utility.yul\":19591:19593   */\n      0x20\n        /* \"#utility.yul\":19580:19589   */\n      dup3\n        /* \"#utility.yul\":19576:19594   */\n      add\n        /* \"#utility.yul\":19568:19594   */\n      swap1\n      pop\n        /* \"#utility.yul\":19640:19649   */\n      dup2\n        /* \"#utility.yul\":19634:19638   */\n      dup2\n        /* \"#utility.yul\":19630:19650   */\n      sub\n        /* \"#utility.yul\":19626:19627   */\n      0x00\n        /* \"#utility.yul\":19615:19624   */\n      dup4\n        /* \"#utility.yul\":19611:19628   */\n      add\n        /* \"#utility.yul\":19604:19651   */\n      mstore\n        /* \"#utility.yul\":19668:19799   */\n      tag_605\n        /* \"#utility.yul\":19794:19798   */\n      dup2\n        /* \"#utility.yul\":19668:19799   */\n      tag_423\n      jump\t// in\n    tag_605:\n        /* \"#utility.yul\":19660:19799   */\n      swap1\n      pop\n        /* \"#utility.yul\":19387:19806   */\n      swap2\n      swap1\n      pop\n      jump\t// out\n\n    auxdata: 0xa264697066735822122034084d8e9a10db5c2d43741960ca5275e98980de58d9166922c44bffd536398764736f6c634300080d0033\n}\n",
				"bytecode": {
					"linkReferences": {},
					"object": "6080604052600360085560085467ffffffffffffffff8111156200002857620000276200065c565b5b604051908082528060200260200182016040528015620000575781602001602082028036833780820191505090505b50600990805190602001906200006f9291906200055a565b5060085467ffffffffffffffff8111156200008f576200008e6200065c565b5b604051908082528060200260200182016040528015620000be5781602001602082028036833780820191505090505b50600a9080519060200190620000d69291906200055a565b50348015620000e457600080fd5b506040516200389e3803806200389e83398181016040528101906200010a91906200085e565b8282816003908051906020019062000124929190620005ac565b5080600490805190602001906200013d929190620005ac565b50505062000160620001546200031a60201b60201c565b6200032260201b60201c565b620001a33362000175620003e860201b60201c565b60ff16600a62000186919062000a85565b6311e1a30062000197919062000ad6565b620003f160201b60201c565b620001b3620003e860201b60201c565b60ff16600a620001c4919062000a85565b6009600081548110620001dc57620001db62000b37565b5b9060005260206000200181905550620001fa620003e860201b60201c565b60ff16600a6200020b919062000a85565b600960018154811062000223576200022262000b37565b5b906000526020600020018190555062000241620003e860201b60201c565b60ff16600a62000252919062000a85565b60096002815481106200026a576200026962000b37565b5b906000526020600020018190555062000288620003e860201b60201c565b60ff16600a62000299919062000a85565b6311e1a300620002aa919062000ad6565b600a600081548110620002c257620002c162000b37565b5b906000526020600020018190555080600b60006101000a81548173ffffffffffffffffffffffffffffffffffffffff021916908373ffffffffffffffffffffffffffffffffffffffff16021790555050505062000cd8565b600033905090565b6000600560009054906101000a900473ffffffffffffffffffffffffffffffffffffffff16905081600560006101000a81548173ffffffffffffffffffffffffffffffffffffffff021916908373ffffffffffffffffffffffffffffffffffffffff1602179055508173ffffffffffffffffffffffffffffffffffffffff168173ffffffffffffffffffffffffffffffffffffffff167f8be0079c531659141344cd1fd0a4f28419497f9722a3daafe3b4186f6b6457e060405160405180910390a35050565b60006012905090565b600073ffffffffffffffffffffffffffffffffffffffff168273ffffffffffffffffffffffffffffffffffffffff160362000463576040517f08c379a00000000000000000000000000000000000000000000000000000000081526004016200045a9062000bc7565b60405180910390fd5b62000477600083836200055560201b60201c565b80600260008282546200048b919062000be9565b92505081905550806000808473ffffffffffffffffffffffffffffffffffffffff1673ffffffffffffffffffffffffffffffffffffffff1681526020019081526020016000206000828254620004e2919062000be9565b925050819055508173ffffffffffffffffffffffffffffffffffffffff16600073ffffffffffffffffffffffffffffffffffffffff167fddf252ad1be2c89b69c2b068fc378daa952ba7f163c4a11628f55a4df523b3ef8360405162000549919062000c57565b60405180910390a35050565b505050565b82805482825590600052602060002090810192821562000599579160200282015b82811115620005985782518255916020019190600101906200057b565b5b509050620005a891906200063d565b5090565b828054620005ba9062000ca3565b90600052602060002090601f016020900481019282620005de57600085556200062a565b82601f10620005f957805160ff19168380011785556200062a565b828001600101855582156200062a579182015b82811115620006295782518255916020019190600101906200060c565b5b5090506200063991906200063d565b5090565b5b80821115620006585760008160009055506001016200063e565b5090565b7f4e487b7100000000000000000000000000000000000000000000000000000000600052604160045260246000fd5b6000604051905090565b600080fd5b600080fd5b600080fd5b600080fd5b6000601f19601f8301169050919050565b620006c582620006a9565b810181811067ffffffffffffffff82111715620006e757620006e66200065c565b5b80604052505050565b6000620006fc6200068b565b90506200070a8282620006ba565b919050565b600067ffffffffffffffff8211156200072d576200072c6200065c565b5b6200073882620006a9565b9050602081019050919050565b60005b838110156200076557808201518184015260208101905062000748565b8381111562000775576000848401525b50505050565b6000620007926200078c846200070f565b620006f0565b905082815260208101848484011115620007b157620007b0620006a4565b5b620007be84828562000745565b509392505050565b600082601f830112620007de57620007dd6200069f565b5b8151620007f08482602086016200077b565b91505092915050565b600073ffffffffffffffffffffffffffffffffffffffff82169050919050565b60006200082682620007f9565b9050919050565b620008388162000819565b81146200084457600080fd5b50565b60008151905062000858816200082d565b92915050565b6000806000606084860312156200087a576200087962000695565b5b600084015167ffffffffffffffff8111156200089b576200089a6200069a565b5b620008a986828701620007c6565b935050602084015167ffffffffffffffff811115620008cd57620008cc6200069a565b5b620008db86828701620007c6565b9250506040620008ee8682870162000847565b9150509250925092565b7f4e487b7100000000000000000000000000000000000000000000000000000000600052601160045260246000fd5b60008160011c9050919050565b6000808291508390505b600185111562000986578086048111156200095e576200095d620008f8565b5b60018516156200096e5780820291505b80810290506200097e8562000927565b94506200093e565b94509492505050565b600082620009a1576001905062000a74565b81620009b1576000905062000a74565b8160018114620009ca5760028114620009d55762000a0b565b600191505062000a74565b60ff841115620009ea57620009e9620008f8565b5b8360020a91508482111562000a045762000a03620008f8565b5b5062000a74565b5060208310610133831016604e8410600b841016171562000a455782820a90508381111562000a3f5762000a3e620008f8565b5b62000a74565b62000a54848484600162000934565b9250905081840481111562000a6e5762000a6d620008f8565b5b81810290505b9392505050565b6000819050919050565b600062000a928262000a7b565b915062000a9f8362000a7b565b925062000ace7fffffffffffffffffffffffffffffffffffffffffffffffffffffffffffffffff84846200098f565b905092915050565b600062000ae38262000a7b565b915062000af08362000a7b565b9250817fffffffffffffffffffffffffffffffffffffffffffffffffffffffffffffffff048311821515161562000b2c5762000b2b620008f8565b5b828202905092915050565b7f4e487b7100000000000000000000000000000000000000000000000000000000600052603260045260246000fd5b600082825260208201905092915050565b7f45524332303a206d696e7420746f20746865207a65726f206164647265737300600082015250565b600062000baf601f8362000b66565b915062000bbc8262000b77565b602082019050919050565b6000602082019050818103600083015262000be28162000ba0565b9050919050565b600062000bf68262000a7b565b915062000c038362000a7b565b9250827fffffffffffffffffffffffffffffffffffffffffffffffffffffffffffffffff0382111562000c3b5762000c3a620008f8565b5b828201905092915050565b62000c518162000a7b565b82525050565b600060208201905062000c6e600083018462000c46565b92915050565b7f4e487b7100000000000000000000000000000000000000000000000000000000600052602260045260246000fd5b6000600282049050600182168062000cbc57607f821691505b60208210810362000cd25762000cd162000c74565b5b50919050565b612bb68062000ce86000396000f3fe608060405234801561001057600080fd5b506004361061012c5760003560e01c8063715018a6116100ad578063a33e7d7e11610071578063a33e7d7e14610345578063a457c2d714610361578063a9059cbb14610391578063dd62ed3e146103c1578063f2fde38b146103f15761012c565b8063715018a6146102b35780637a0d944c146102bd5780638da5cb5b146102ed57806395d89b411461030b578063a0712d68146103295761012c565b806323b872dd116100f457806323b872dd146101d5578063313ce567146102055780633950935114610223578063693136781461025357806370a08231146102835761012c565b806306fdde0314610131578063095ea7b31461014f57806313b954a31461017f5780631506f4801461019b57806318160ddd146101b7575b600080fd5b61013961040d565b60405161014691906120a4565b60405180910390f35b6101696004803603810190610164919061215f565b61049f565b60405161017691906121ba565b60405180910390f35b6101996004803603810190610194919061215f565b6104bd565b005b6101b560048036038101906101b0919061215f565b610770565b005b6101bf610b03565b6040516101cc91906121e4565b60405180910390f35b6101ef60048036038101906101ea91906121ff565b610b0d565b6040516101fc91906121ba565b60405180910390f35b61020d610b1a565b60405161021a919061226e565b60405180910390f35b61023d6004803603810190610238919061215f565b610b23565b60405161024a91906121ba565b60405180910390f35b61026d60048036038101906102689190612289565b610bcf565b60405161027a91906121e4565b60405180910390f35b61029d600480360381019061029891906122b6565b610bf3565b6040516102aa91906121e4565b60405180910390f35b6102bb610d9a565b005b6102d760048036038101906102d291906122b6565b610e22565b6040516102e4919061226e565b60405180910390f35b6102f5610e42565b60405161030291906122f2565b60405180910390f35b610313610e6c565b60405161032091906120a4565b60405180910390f35b610343600480360381019061033e9190612289565b610efe565b005b61035f600480360381019061035a9190612339565b61126f565b005b61037b6004803603810190610376919061215f565b6114f3565b60405161038891906121ba565b60405180910390f35b6103ab60048036038101906103a6919061215f565b6115e7565b6040516103b891906121ba565b60405180910390f35b6103db60048036038101906103d69190612379565b611724565b6040516103e891906121e4565b60405180910390f35b61040b600480360381019061040691906122b6565b6117ab565b005b60606003805461041c906123e8565b80601f0160208091040260200160405190810160405280929190818152602001828054610448906123e8565b80156104955780601f1061046a57610100808354040283529160200191610495565b820191906000526020600020905b81548152906001019060200180831161047857829003601f168201915b5050505050905090565b60006104b36104ac6118a2565b84846118aa565b6001905092915050565b6104c56118a2565b73ffffffffffffffffffffffffffffffffffffffff166104e3610e42565b73ffffffffffffffffffffffffffffffffffffffff1614610539576040517f08c379a000000000000000000000000000000000000000000000000000000000815260040161053090612465565b60405180910390fd5b6000600760008473ffffffffffffffffffffffffffffffffffffffff1673ffffffffffffffffffffffffffffffffffffffff16815260200190815260200160002060009054906101000a900460ff1660ff16146105cb576040517f08c379a00000000000000000000000000000000000000000000000000000000081526004016105c2906124f7565b60405180910390fd5b806000808473ffffffffffffffffffffffffffffffffffffffff1673ffffffffffffffffffffffffffffffffffffffff16815260200190815260200160002060008282546106199190612546565b925050819055506000600190505b60028160ff16116107525760028261063f91906125cb565b600a8260ff1681548110610656576106556125fc565b5b906000526020600020015461066b9190612546565b60098260ff1681548110610682576106816125fc565b5b90600052602060002001600082825461069b919061262b565b92505081905550600a8160ff16815481106106b9576106b86125fc565b5b906000526020600020015460098260ff16815481106106db576106da6125fc565b5b9060005260206000200160008282546106f491906125cb565b9250508190555060028261070891906125cb565b600a8260ff168154811061071f5761071e6125fc565b5b9060005260206000200160008282546107389190612546565b92505081905550808061074a90612685565b915050610627565b5080600260008282546107659190612546565b925050819055505050565b6107786118a2565b73ffffffffffffffffffffffffffffffffffffffff16610796610e42565b73ffffffffffffffffffffffffffffffffffffffff16146107ec576040517f08c379a00000000000000000000000000000000000000000000000000000000081526004016107e390612465565b60405180910390fd5b6000600760008473ffffffffffffffffffffffffffffffffffffffff1673ffffffffffffffffffffffffffffffffffffffff16815260200190815260200160002060009054906101000a900460ff1660ff160361087e576040517f08c379a0000000000000000000000000000000000000000000000000000000008152600401610875906126fa565b60405180910390fd5b61088782611a73565b806000808473ffffffffffffffffffffffffffffffffffffffff1673ffffffffffffffffffffffffffffffffffffffff16815260200190815260200160002060008282546108d59190612546565b925050819055508060026108e9919061262b565b600080600b60009054906101000a900473ffffffffffffffffffffffffffffffffffffffff1673ffffffffffffffffffffffffffffffffffffffff1673ffffffffffffffffffffffffffffffffffffffff16815260200190815260200160002060008282546109589190612546565b925050819055506000600760008473ffffffffffffffffffffffffffffffffffffffff1673ffffffffffffffffffffffffffffffffffffffff16815260200190815260200160002060009054906101000a900460ff1660016109ba919061271a565b905081600a8260ff16815481106109d4576109d36125fc565b5b90600052602060002001546109e99190612546565b60098260ff1681548110610a00576109ff6125fc565b5b906000526020600020016000828254610a19919061262b565b92505081905550600a8160ff1681548110610a3757610a366125fc565b5b906000526020600020015460098260ff1681548110610a5957610a586125fc565b5b906000526020600020016000828254610a7291906125cb565b9250508190555081600a600181548110610a8f57610a8e6125fc565b5b906000526020600020016000828254610aa89190612546565b9250508190555081600a600281548110610ac557610ac46125fc565b5b906000526020600020016000828254610ade9190612546565b925050819055508160026000828254610af79190612546565b92505081905550505050565b6000600254905090565b6000600190509392505050565b60006012905090565b6000610bc5610b306118a2565b848460016000610b3e6118a2565b73ffffffffffffffffffffffffffffffffffffffff1673ffffffffffffffffffffffffffffffffffffffff16815260200190815260200160002060008873ffffffffffffffffffffffffffffffffffffffff1673ffffffffffffffffffffffffffffffffffffffff16815260200190815260200160002054610bc09190612546565b6118aa565b6001905092915050565b60098181548110610bdf57600080fd5b906000526020600020016000915090505481565b600080600760008473ffffffffffffffffffffffffffffffffffffffff1673ffffffffffffffffffffffffffffffffffffffff16815260200190815260200160002060009054906101000a900460ff1660ff1603610c91576000808373ffffffffffffffffffffffffffffffffffffffff1673ffffffffffffffffffffffffffffffffffffffff168152602001908152602001600020549050610d95565b600660008373ffffffffffffffffffffffffffffffffffffffff1673ffffffffffffffffffffffffffffffffffffffff168152602001908152602001600020546000808473ffffffffffffffffffffffffffffffffffffffff1673ffffffffffffffffffffffffffffffffffffffff168152602001908152602001600020546009600760008673ffffffffffffffffffffffffffffffffffffffff1673ffffffffffffffffffffffffffffffffffffffff16815260200190815260200160002060009054906101000a900460ff1660ff1681548110610d7357610d726125fc565b5b9060005260206000200154610d88919061262b565b610d9291906125cb565b90505b919050565b610da26118a2565b73ffffffffffffffffffffffffffffffffffffffff16610dc0610e42565b73ffffffffffffffffffffffffffffffffffffffff1614610e16576040517f08c379a0000000000000000000000000000000000000000000000000000000008152600401610e0d90612465565b60405180910390fd5b610e206000611cc3565b565b60076020528060005260406000206000915054906101000a900460ff1681565b6000600560009054906101000a900473ffffffffffffffffffffffffffffffffffffffff16905090565b606060048054610e7b906123e8565b80601f0160208091040260200160405190810160405280929190818152602001828054610ea7906123e8565b8015610ef45780601f10610ec957610100808354040283529160200191610ef4565b820191906000526020600020905b815481529060010190602001808311610ed757829003601f168201915b5050505050905090565b610f066118a2565b73ffffffffffffffffffffffffffffffffffffffff16610f24610e42565b73ffffffffffffffffffffffffffffffffffffffff1614610f7a576040517f08c379a0000000000000000000000000000000000000000000000000000000008152600401610f7190612465565b60405180910390fd5b6000600a600281548110610f9157610f906125fc565b5b90600052602060002001541461106357600481610fae91906125cb565b600a600281548110610fc357610fc26125fc565b5b9060005260206000200154610fd89190612546565b6009600281548110610fed57610fec6125fc565b5b906000526020600020016000828254611006919061262b565b92505081905550600a600281548110611022576110216125fc565b5b90600052602060002001546009600281548110611042576110416125fc565b5b90600052602060002001600082825461105b91906125cb565b925050819055505b6000600a60018154811061107a576110796125fc565b5b90600052602060002001541461114c5760048161109791906125cb565b600a6001815481106110ac576110ab6125fc565b5b90600052602060002001546110c19190612546565b60096001815481106110d6576110d56125fc565b5b9060005260206000200160008282546110ef919061262b565b92505081905550600a60018154811061110b5761110a6125fc565b5b9060005260206000200154600960018154811061112b5761112a6125fc565b5b90600052602060002001600082825461114491906125cb565b925050819055505b60028161115991906125cb565b600080600b60009054906101000a900473ffffffffffffffffffffffffffffffffffffffff1673ffffffffffffffffffffffffffffffffffffffff1673ffffffffffffffffffffffffffffffffffffffff16815260200190815260200160002060008282546111c89190612546565b925050819055506004816111dc91906125cb565b600a6001815481106111f1576111f06125fc565b5b90600052602060002001600082825461120a9190612546565b9250508190555060048161121e91906125cb565b600a600281548110611233576112326125fc565b5b90600052602060002001600082825461124c9190612546565b9250508190555080600260008282546112659190612546565b9250508190555050565b6112776118a2565b73ffffffffffffffffffffffffffffffffffffffff16611295610e42565b73ffffffffffffffffffffffffffffffffffffffff16146112eb576040517f08c379a00000000000000000000000000000000000000000000000000000000081526004016112e290612465565b60405180910390fd5b6112f482611a73565b6000600760008473ffffffffffffffffffffffffffffffffffffffff1673ffffffffffffffffffffffffffffffffffffffff16815260200190815260200160002060009054906101000a900460ff16905081600760008573ffffffffffffffffffffffffffffffffffffffff1673ffffffffffffffffffffffffffffffffffffffff16815260200190815260200160002060006101000a81548160ff021916908360ff1602179055506000808473ffffffffffffffffffffffffffffffffffffffff1673ffffffffffffffffffffffffffffffffffffffff16815260200190815260200160002054600a8260ff16815481106113f3576113f26125fc565b5b90600052602060002001600082825461140c919061274e565b925050819055506000808473ffffffffffffffffffffffffffffffffffffffff1673ffffffffffffffffffffffffffffffffffffffff16815260200190815260200160002054600a8360ff1681548110611469576114686125fc565b5b9060005260206000200160008282546114829190612546565b9250508190555060098260ff16815481106114a05761149f6125fc565b5b9060005260206000200154600660008573ffffffffffffffffffffffffffffffffffffffff1673ffffffffffffffffffffffffffffffffffffffff16815260200190815260200160002081905550505050565b600080600160006115026118a2565b73ffffffffffffffffffffffffffffffffffffffff1673ffffffffffffffffffffffffffffffffffffffff16815260200190815260200160002060008573ffffffffffffffffffffffffffffffffffffffff1673ffffffffffffffffffffffffffffffffffffffff168152602001908152602001600020549050828110156115bf576040517f08c379a00000000000000000000000000000000000000000000000000000000081526004016115b6906127f4565b60405180910390fd5b6115dc6115ca6118a2565b8585846115d7919061274e565b6118aa565b600191505092915050565b6000806115f26118a2565b90506115fd81611a73565b61160684611a73565b82600a600760008473ffffffffffffffffffffffffffffffffffffffff1673ffffffffffffffffffffffffffffffffffffffff16815260200190815260200160002060009054906101000a900460ff1660ff168154811061166a576116696125fc565b5b906000526020600020016000828254611683919061274e565b9250508190555082600a600760008773ffffffffffffffffffffffffffffffffffffffff1673ffffffffffffffffffffffffffffffffffffffff16815260200190815260200160002060009054906101000a900460ff1660ff16815481106116ee576116ed6125fc565b5b9060005260206000200160008282546117079190612546565b92505081905550611719818585611d89565b600191505092915050565b6000600160008473ffffffffffffffffffffffffffffffffffffffff1673ffffffffffffffffffffffffffffffffffffffff16815260200190815260200160002060008373ffffffffffffffffffffffffffffffffffffffff1673ffffffffffffffffffffffffffffffffffffffff16815260200190815260200160002054905092915050565b6117b36118a2565b73ffffffffffffffffffffffffffffffffffffffff166117d1610e42565b73ffffffffffffffffffffffffffffffffffffffff1614611827576040517f08c379a000000000000000000000000000000000000000000000000000000000815260040161181e90612465565b60405180910390fd5b600073ffffffffffffffffffffffffffffffffffffffff168173ffffffffffffffffffffffffffffffffffffffff1603611896576040517f08c379a000000000000000000000000000000000000000000000000000000000815260040161188d90612886565b60405180910390fd5b61189f81611cc3565b50565b600033905090565b600073ffffffffffffffffffffffffffffffffffffffff168373ffffffffffffffffffffffffffffffffffffffff1603611919576040517f08c379a000000000000000000000000000000000000000000000000000000000815260040161191090612918565b60405180910390fd5b600073ffffffffffffffffffffffffffffffffffffffff168273ffffffffffffffffffffffffffffffffffffffff1603611988576040517f08c379a000000000000000000000000000000000000000000000000000000000815260040161197f906129aa565b60405180910390fd5b80600160008573ffffffffffffffffffffffffffffffffffffffff1673ffffffffffffffffffffffffffffffffffffffff16815260200190815260200160002060008473ffffffffffffffffffffffffffffffffffffffff1673ffffffffffffffffffffffffffffffffffffffff168152602001908152602001600020819055508173ffffffffffffffffffffffffffffffffffffffff168373ffffffffffffffffffffffffffffffffffffffff167f8c5be1e5ebec7d5bd14f71427d1e84f3dd0314c0f7b2291e5b200ac8c7c3b92583604051611a6691906121e4565b60405180910390a3505050565b6000600760008373ffffffffffffffffffffffffffffffffffffffff1673ffffffffffffffffffffffffffffffffffffffff16815260200190815260200160002060009054906101000a900460ff1660ff160315611cc057600660008273ffffffffffffffffffffffffffffffffffffffff1673ffffffffffffffffffffffffffffffffffffffff168152602001908152602001600020546000808373ffffffffffffffffffffffffffffffffffffffff1673ffffffffffffffffffffffffffffffffffffffff168152602001908152602001600020546009600760008573ffffffffffffffffffffffffffffffffffffffff1673ffffffffffffffffffffffffffffffffffffffff16815260200190815260200160002060009054906101000a900460ff1660ff1681548110611bad57611bac6125fc565b5b9060005260206000200154611bc2919061262b565b611bcc91906125cb565b6000808373ffffffffffffffffffffffffffffffffffffffff1673ffffffffffffffffffffffffffffffffffffffff168152602001908152602001600020819055506009600760008373ffffffffffffffffffffffffffffffffffffffff1673ffffffffffffffffffffffffffffffffffffffff16815260200190815260200160002060009054906101000a900460ff1660ff1681548110611c7157611c706125fc565b5b9060005260206000200154600660008373ffffffffffffffffffffffffffffffffffffffff1673ffffffffffffffffffffffffffffffffffffffff168152602001908152602001600020819055505b50565b6000600560009054906101000a900473ffffffffffffffffffffffffffffffffffffffff16905081600560006101000a81548173ffffffffffffffffffffffffffffffffffffffff021916908373ffffffffffffffffffffffffffffffffffffffff1602179055508173ffffffffffffffffffffffffffffffffffffffff168173ffffffffffffffffffffffffffffffffffffffff167f8be0079c531659141344cd1fd0a4f28419497f9722a3daafe3b4186f6b6457e060405160405180910390a35050565b600073ffffffffffffffffffffffffffffffffffffffff168373ffffffffffffffffffffffffffffffffffffffff1603611df8576040517f08c379a0000000000000000000000000000000000000000000000000000000008152600401611def90612a3c565b60405180910390fd5b600073ffffffffffffffffffffffffffffffffffffffff168273ffffffffffffffffffffffffffffffffffffffff1603611e67576040517f08c379a0000000000000000000000000000000000000000000000000000000008152600401611e5e90612ace565b60405180910390fd5b611e72838383612006565b60008060008573ffffffffffffffffffffffffffffffffffffffff1673ffffffffffffffffffffffffffffffffffffffff16815260200190815260200160002054905081811015611ef8576040517f08c379a0000000000000000000000000000000000000000000000000000000008152600401611eef90612b60565b60405180910390fd5b8181611f04919061274e565b6000808673ffffffffffffffffffffffffffffffffffffffff1673ffffffffffffffffffffffffffffffffffffffff16815260200190815260200160002081905550816000808573ffffffffffffffffffffffffffffffffffffffff1673ffffffffffffffffffffffffffffffffffffffff1681526020019081526020016000206000828254611f949190612546565b925050819055508273ffffffffffffffffffffffffffffffffffffffff168473ffffffffffffffffffffffffffffffffffffffff167fddf252ad1be2c89b69c2b068fc378daa952ba7f163c4a11628f55a4df523b3ef84604051611ff891906121e4565b60405180910390a350505050565b505050565b600081519050919050565b600082825260208201905092915050565b60005b8381101561204557808201518184015260208101905061202a565b83811115612054576000848401525b50505050565b6000601f19601f8301169050919050565b60006120768261200b565b6120808185612016565b9350612090818560208601612027565b6120998161205a565b840191505092915050565b600060208201905081810360008301526120be818461206b565b905092915050565b600080fd5b600073ffffffffffffffffffffffffffffffffffffffff82169050919050565b60006120f6826120cb565b9050919050565b612106816120eb565b811461211157600080fd5b50565b600081359050612123816120fd565b92915050565b6000819050919050565b61213c81612129565b811461214757600080fd5b50565b60008135905061215981612133565b92915050565b60008060408385031215612176576121756120c6565b5b600061218485828601612114565b92505060206121958582860161214a565b9150509250929050565b60008115159050919050565b6121b48161219f565b82525050565b60006020820190506121cf60008301846121ab565b92915050565b6121de81612129565b82525050565b60006020820190506121f960008301846121d5565b92915050565b600080600060608486031215612218576122176120c6565b5b600061222686828701612114565b935050602061223786828701612114565b92505060406122488682870161214a565b9150509250925092565b600060ff82169050919050565b61226881612252565b82525050565b6000602082019050612283600083018461225f565b92915050565b60006020828403121561229f5761229e6120c6565b5b60006122ad8482850161214a565b91505092915050565b6000602082840312156122cc576122cb6120c6565b5b60006122da84828501612114565b91505092915050565b6122ec816120eb565b82525050565b600060208201905061230760008301846122e3565b92915050565b61231681612252565b811461232157600080fd5b50565b6000813590506123338161230d565b92915050565b600080604083850312156123505761234f6120c6565b5b600061235e85828601612114565b925050602061236f85828601612324565b9150509250929050565b600080604083850312156123905761238f6120c6565b5b600061239e85828601612114565b92505060206123af85828601612114565b9150509250929050565b7f4e487b7100000000000000000000000000000000000000000000000000000000600052602260045260246000fd5b6000600282049050600182168061240057607f821691505b602082108103612413576124126123b9565b5b50919050565b7f4f776e61626c653a2063616c6c6572206973206e6f7420746865206f776e6572600082015250565b600061244f602083612016565b915061245a82612419565b602082019050919050565b6000602082019050818103600083015261247e81612442565b9050919050565b7f6163636f756e74206973206e6f74206120726567756c6172207368617265686f60008201527f6c64657200000000000000000000000000000000000000000000000000000000602082015250565b60006124e1602483612016565b91506124ec82612485565b604082019050919050565b60006020820190508181036000830152612510816124d4565b9050919050565b7f4e487b7100000000000000000000000000000000000000000000000000000000600052601160045260246000fd5b600061255182612129565b915061255c83612129565b9250827fffffffffffffffffffffffffffffffffffffffffffffffffffffffffffffffff0382111561259157612590612517565b5b828201905092915050565b7f4e487b7100000000000000000000000000000000000000000000000000000000600052601260045260246000fd5b60006125d682612129565b91506125e183612129565b9250826125f1576125f061259c565b5b828204905092915050565b7f4e487b7100000000000000000000000000000000000000000000000000000000600052603260045260246000fd5b600061263682612129565b915061264183612129565b9250817fffffffffffffffffffffffffffffffffffffffffffffffffffffffffffffffff048311821515161561267a57612679612517565b5b828202905092915050565b600061269082612252565b915060ff82036126a3576126a2612517565b5b600182019050919050565b7f6163636f756e74206973206120726567756c6172207368617265686f6c646572600082015250565b60006126e4602083612016565b91506126ef826126ae565b602082019050919050565b60006020820190508181036000830152612713816126d7565b9050919050565b600061272582612252565b915061273083612252565b92508282101561274357612742612517565b5b828203905092915050565b600061275982612129565b915061276483612129565b92508282101561277757612776612517565b5b828203905092915050565b7f45524332303a2064656372656173656420616c6c6f77616e63652062656c6f7760008201527f207a65726f000000000000000000000000000000000000000000000000000000602082015250565b60006127de602583612016565b91506127e982612782565b604082019050919050565b6000602082019050818103600083015261280d816127d1565b9050919050565b7f4f776e61626c653a206e6577206f776e657220697320746865207a65726f206160008201527f6464726573730000000000000000000000000000000000000000000000000000602082015250565b6000612870602683612016565b915061287b82612814565b604082019050919050565b6000602082019050818103600083015261289f81612863565b9050919050565b7f45524332303a20617070726f76652066726f6d20746865207a65726f2061646460008201527f7265737300000000000000000000000000000000000000000000000000000000602082015250565b6000612902602483612016565b915061290d826128a6565b604082019050919050565b60006020820190508181036000830152612931816128f5565b9050919050565b7f45524332303a20617070726f766520746f20746865207a65726f20616464726560008201527f7373000000000000000000000000000000000000000000000000000000000000602082015250565b6000612994602283612016565b915061299f82612938565b604082019050919050565b600060208201905081810360008301526129c381612987565b9050919050565b7f45524332303a207472616e736665722066726f6d20746865207a65726f20616460008201527f6472657373000000000000000000000000000000000000000000000000000000602082015250565b6000612a26602583612016565b9150612a31826129ca565b604082019050919050565b60006020820190508181036000830152612a5581612a19565b9050919050565b7f45524332303a207472616e7366657220746f20746865207a65726f206164647260008201527f6573730000000000000000000000000000000000000000000000000000000000602082015250565b6000612ab8602383612016565b9150612ac382612a5c565b604082019050919050565b60006020820190508181036000830152612ae781612aab565b9050919050565b7f45524332303a207472616e7366657220616d6f756e742065786365656473206260008201527f616c616e63650000000000000000000000000000000000000000000000000000602082015250565b6000612b4a602683612016565b9150612b5582612aee565b604082019050919050565b60006020820190508181036000830152612b7981612b3d565b905091905056fea264697066735822122034084d8e9a10db5c2d43741960ca5275e98980de58d9166922c44bffd536398764736f6c634300080d0033",
					"opcodes": "PUSH1 0x80 PUSH1 0x40 MSTORE PUSH1 0x3 PUSH1 0x8 SSTORE PUSH1 0x8 SLOAD PUSH8 0xFFFFFFFFFFFFFFFF DUP2 GT ISZERO PUSH3 0x28 JUMPI PUSH3 0x27 PUSH3 0x65C JUMP JUMPDEST JUMPDEST PUSH1 0x40 MLOAD SWAP1 DUP1 DUP3 MSTORE DUP1 PUSH1 0x20 MUL PUSH1 0x20 ADD DUP3 ADD PUSH1 0x40 MSTORE DUP1 ISZERO PUSH3 0x57 JUMPI DUP2 PUSH1 0x20 ADD PUSH1 0x20 DUP3 MUL DUP1 CALLDATASIZE DUP4 CALLDATACOPY DUP1 DUP3 ADD SWAP2 POP POP SWAP1 POP JUMPDEST POP PUSH1 0x9 SWAP1 DUP1 MLOAD SWAP1 PUSH1 0x20 ADD SWAP1 PUSH3 0x6F SWAP3 SWAP2 SWAP1 PUSH3 0x55A JUMP JUMPDEST POP PUSH1 0x8 SLOAD PUSH8 0xFFFFFFFFFFFFFFFF DUP2 GT ISZERO PUSH3 0x8F JUMPI PUSH3 0x8E PUSH3 0x65C JUMP JUMPDEST JUMPDEST PUSH1 0x40 MLOAD SWAP1 DUP1 DUP3 MSTORE DUP1 PUSH1 0x20 MUL PUSH1 0x20 ADD DUP3 ADD PUSH1 0x40 MSTORE DUP1 ISZERO PUSH3 0xBE JUMPI DUP2 PUSH1 0x20 ADD PUSH1 0x20 DUP3 MUL DUP1 CALLDATASIZE DUP4 CALLDATACOPY DUP1 DUP3 ADD SWAP2 POP POP SWAP1 POP JUMPDEST POP PUSH1 0xA SWAP1 DUP1 MLOAD SWAP1 PUSH1 0x20 ADD SWAP1 PUSH3 0xD6 SWAP3 SWAP2 SWAP1 PUSH3 0x55A JUMP JUMPDEST POP CALLVALUE DUP1 ISZERO PUSH3 0xE4 JUMPI PUSH1 0x0 DUP1 REVERT JUMPDEST POP PUSH1 0x40 MLOAD PUSH3 0x389E CODESIZE SUB DUP1 PUSH3 0x389E DUP4 CODECOPY DUP2 DUP2 ADD PUSH1 0x40 MSTORE DUP2 ADD SWAP1 PUSH3 0x10A SWAP2 SWAP1 PUSH3 0x85E JUMP JUMPDEST DUP3 DUP3 DUP2 PUSH1 0x3 SWAP1 DUP1 MLOAD SWAP1 PUSH1 0x20 ADD SWAP1 PUSH3 0x124 SWAP3 SWAP2 SWAP1 PUSH3 0x5AC JUMP JUMPDEST POP DUP1 PUSH1 0x4 SWAP1 DUP1 MLOAD SWAP1 PUSH1 0x20 ADD SWAP1 PUSH3 0x13D SWAP3 SWAP2 SWAP1 PUSH3 0x5AC JUMP JUMPDEST POP POP POP PUSH3 0x160 PUSH3 0x154 PUSH3 0x31A PUSH1 0x20 SHL PUSH1 0x20 SHR JUMP JUMPDEST PUSH3 0x322 PUSH1 0x20 SHL PUSH1 0x20 SHR JUMP JUMPDEST PUSH3 0x1A3 CALLER PUSH3 0x175 PUSH3 0x3E8 PUSH1 0x20 SHL PUSH1 0x20 SHR JUMP JUMPDEST PUSH1 0xFF AND PUSH1 0xA PUSH3 0x186 SWAP2 SWAP1 PUSH3 0xA85 JUMP JUMPDEST PUSH4 0x11E1A300 PUSH3 0x197 SWAP2 SWAP1 PUSH3 0xAD6 JUMP JUMPDEST PUSH3 0x3F1 PUSH1 0x20 SHL PUSH1 0x20 SHR JUMP JUMPDEST PUSH3 0x1B3 PUSH3 0x3E8 PUSH1 0x20 SHL PUSH1 0x20 SHR JUMP JUMPDEST PUSH1 0xFF AND PUSH1 0xA PUSH3 0x1C4 SWAP2 SWAP1 PUSH3 0xA85 JUMP JUMPDEST PUSH1 0x9 PUSH1 0x0 DUP2 SLOAD DUP2 LT PUSH3 0x1DC JUMPI PUSH3 0x1DB PUSH3 0xB37 JUMP JUMPDEST JUMPDEST SWAP1 PUSH1 0x0 MSTORE PUSH1 0x20 PUSH1 0x0 KECCAK256 ADD DUP2 SWAP1 SSTORE POP PUSH3 0x1FA PUSH3 0x3E8 PUSH1 0x20 SHL PUSH1 0x20 SHR JUMP JUMPDEST PUSH1 0xFF AND PUSH1 0xA PUSH3 0x20B SWAP2 SWAP1 PUSH3 0xA85 JUMP JUMPDEST PUSH1 0x9 PUSH1 0x1 DUP2 SLOAD DUP2 LT PUSH3 0x223 JUMPI PUSH3 0x222 PUSH3 0xB37 JUMP JUMPDEST JUMPDEST SWAP1 PUSH1 0x0 MSTORE PUSH1 0x20 PUSH1 0x0 KECCAK256 ADD DUP2 SWAP1 SSTORE POP PUSH3 0x241 PUSH3 0x3E8 PUSH1 0x20 SHL PUSH1 0x20 SHR JUMP JUMPDEST PUSH1 0xFF AND PUSH1 0xA PUSH3 0x252 SWAP2 SWAP1 PUSH3 0xA85 JUMP JUMPDEST PUSH1 0x9 PUSH1 0x2 DUP2 SLOAD DUP2 LT PUSH3 0x26A JUMPI PUSH3 0x269 PUSH3 0xB37 JUMP JUMPDEST JUMPDEST SWAP1 PUSH1 0x0 MSTORE PUSH1 0x20 PUSH1 0x0 KECCAK256 ADD DUP2 SWAP1 SSTORE POP PUSH3 0x288 PUSH3 0x3E8 PUSH1 0x20 SHL PUSH1 0x20 SHR JUMP JUMPDEST PUSH1 0xFF AND PUSH1 0xA PUSH3 0x299 SWAP2 SWAP1 PUSH3 0xA85 JUMP JUMPDEST PUSH4 0x11E1A300 PUSH3 0x2AA SWAP2 SWAP1 PUSH3 0xAD6 JUMP JUMPDEST PUSH1 0xA PUSH1 0x0 DUP2 SLOAD DUP2 LT PUSH3 0x2C2 JUMPI PUSH3 0x2C1 PUSH3 0xB37 JUMP JUMPDEST JUMPDEST SWAP1 PUSH1 0x0 MSTORE PUSH1 0x20 PUSH1 0x0 KECCAK256 ADD DUP2 SWAP1 SSTORE POP DUP1 PUSH1 0xB PUSH1 0x0 PUSH2 0x100 EXP DUP2 SLOAD DUP2 PUSH20 0xFFFFFFFFFFFFFFFFFFFFFFFFFFFFFFFFFFFFFFFF MUL NOT AND SWAP1 DUP4 PUSH20 0xFFFFFFFFFFFFFFFFFFFFFFFFFFFFFFFFFFFFFFFF AND MUL OR SWAP1 SSTORE POP POP POP POP PUSH3 0xCD8 JUMP JUMPDEST PUSH1 0x0 CALLER SWAP1 POP SWAP1 JUMP JUMPDEST PUSH1 0x0 PUSH1 0x5 PUSH1 0x0 SWAP1 SLOAD SWAP1 PUSH2 0x100 EXP SWAP1 DIV PUSH20 0xFFFFFFFFFFFFFFFFFFFFFFFFFFFFFFFFFFFFFFFF AND SWAP1 POP DUP2 PUSH1 0x5 PUSH1 0x0 PUSH2 0x100 EXP DUP2 SLOAD DUP2 PUSH20 0xFFFFFFFFFFFFFFFFFFFFFFFFFFFFFFFFFFFFFFFF MUL NOT AND SWAP1 DUP4 PUSH20 0xFFFFFFFFFFFFFFFFFFFFFFFFFFFFFFFFFFFFFFFF AND MUL OR SWAP1 SSTORE POP DUP2 PUSH20 0xFFFFFFFFFFFFFFFFFFFFFFFFFFFFFFFFFFFFFFFF AND DUP2 PUSH20 0xFFFFFFFFFFFFFFFFFFFFFFFFFFFFFFFFFFFFFFFF AND PUSH32 0x8BE0079C531659141344CD1FD0A4F28419497F9722A3DAAFE3B4186F6B6457E0 PUSH1 0x40 MLOAD PUSH1 0x40 MLOAD DUP1 SWAP2 SUB SWAP1 LOG3 POP POP JUMP JUMPDEST PUSH1 0x0 PUSH1 0x12 SWAP1 POP SWAP1 JUMP JUMPDEST PUSH1 0x0 PUSH20 0xFFFFFFFFFFFFFFFFFFFFFFFFFFFFFFFFFFFFFFFF AND DUP3 PUSH20 0xFFFFFFFFFFFFFFFFFFFFFFFFFFFFFFFFFFFFFFFF AND SUB PUSH3 0x463 JUMPI PUSH1 0x40 MLOAD PUSH32 0x8C379A000000000000000000000000000000000000000000000000000000000 DUP2 MSTORE PUSH1 0x4 ADD PUSH3 0x45A SWAP1 PUSH3 0xBC7 JUMP JUMPDEST PUSH1 0x40 MLOAD DUP1 SWAP2 SUB SWAP1 REVERT JUMPDEST PUSH3 0x477 PUSH1 0x0 DUP4 DUP4 PUSH3 0x555 PUSH1 0x20 SHL PUSH1 0x20 SHR JUMP JUMPDEST DUP1 PUSH1 0x2 PUSH1 0x0 DUP3 DUP3 SLOAD PUSH3 0x48B SWAP2 SWAP1 PUSH3 0xBE9 JUMP JUMPDEST SWAP3 POP POP DUP2 SWAP1 SSTORE POP DUP1 PUSH1 0x0 DUP1 DUP5 PUSH20 0xFFFFFFFFFFFFFFFFFFFFFFFFFFFFFFFFFFFFFFFF AND PUSH20 0xFFFFFFFFFFFFFFFFFFFFFFFFFFFFFFFFFFFFFFFF AND DUP2 MSTORE PUSH1 0x20 ADD SWAP1 DUP2 MSTORE PUSH1 0x20 ADD PUSH1 0x0 KECCAK256 PUSH1 0x0 DUP3 DUP3 SLOAD PUSH3 0x4E2 SWAP2 SWAP1 PUSH3 0xBE9 JUMP JUMPDEST SWAP3 POP POP DUP2 SWAP1 SSTORE POP DUP2 PUSH20 0xFFFFFFFFFFFFFFFFFFFFFFFFFFFFFFFFFFFFFFFF AND PUSH1 0x0 PUSH20 0xFFFFFFFFFFFFFFFFFFFFFFFFFFFFFFFFFFFFFFFF AND PUSH32 0xDDF252AD1BE2C89B69C2B068FC378DAA952BA7F163C4A11628F55A4DF523B3EF DUP4 PUSH1 0x40 MLOAD PUSH3 0x549 SWAP2 SWAP1 PUSH3 0xC57 JUMP JUMPDEST PUSH1 0x40 MLOAD DUP1 SWAP2 SUB SWAP1 LOG3 POP POP JUMP JUMPDEST POP POP POP JUMP JUMPDEST DUP3 DUP1 SLOAD DUP3 DUP3 SSTORE SWAP1 PUSH1 0x0 MSTORE PUSH1 0x20 PUSH1 0x0 KECCAK256 SWAP1 DUP2 ADD SWAP3 DUP3 ISZERO PUSH3 0x599 JUMPI SWAP2 PUSH1 0x20 MUL DUP3 ADD JUMPDEST DUP3 DUP2 GT ISZERO PUSH3 0x598 JUMPI DUP3 MLOAD DUP3 SSTORE SWAP2 PUSH1 0x20 ADD SWAP2 SWAP1 PUSH1 0x1 ADD SWAP1 PUSH3 0x57B JUMP JUMPDEST JUMPDEST POP SWAP1 POP PUSH3 0x5A8 SWAP2 SWAP1 PUSH3 0x63D JUMP JUMPDEST POP SWAP1 JUMP JUMPDEST DUP3 DUP1 SLOAD PUSH3 0x5BA SWAP1 PUSH3 0xCA3 JUMP JUMPDEST SWAP1 PUSH1 0x0 MSTORE PUSH1 0x20 PUSH1 0x0 KECCAK256 SWAP1 PUSH1 0x1F ADD PUSH1 0x20 SWAP1 DIV DUP2 ADD SWAP3 DUP3 PUSH3 0x5DE JUMPI PUSH1 0x0 DUP6 SSTORE PUSH3 0x62A JUMP JUMPDEST DUP3 PUSH1 0x1F LT PUSH3 0x5F9 JUMPI DUP1 MLOAD PUSH1 0xFF NOT AND DUP4 DUP1 ADD OR DUP6 SSTORE PUSH3 0x62A JUMP JUMPDEST DUP3 DUP1 ADD PUSH1 0x1 ADD DUP6 SSTORE DUP3 ISZERO PUSH3 0x62A JUMPI SWAP2 DUP3 ADD JUMPDEST DUP3 DUP2 GT ISZERO PUSH3 0x629 JUMPI DUP3 MLOAD DUP3 SSTORE SWAP2 PUSH1 0x20 ADD SWAP2 SWAP1 PUSH1 0x1 ADD SWAP1 PUSH3 0x60C JUMP JUMPDEST JUMPDEST POP SWAP1 POP PUSH3 0x639 SWAP2 SWAP1 PUSH3 0x63D JUMP JUMPDEST POP SWAP1 JUMP JUMPDEST JUMPDEST DUP1 DUP3 GT ISZERO PUSH3 0x658 JUMPI PUSH1 0x0 DUP2 PUSH1 0x0 SWAP1 SSTORE POP PUSH1 0x1 ADD PUSH3 0x63E JUMP JUMPDEST POP SWAP1 JUMP JUMPDEST PUSH32 0x4E487B7100000000000000000000000000000000000000000000000000000000 PUSH1 0x0 MSTORE PUSH1 0x41 PUSH1 0x4 MSTORE PUSH1 0x24 PUSH1 0x0 REVERT JUMPDEST PUSH1 0x0 PUSH1 0x40 MLOAD SWAP1 POP SWAP1 JUMP JUMPDEST PUSH1 0x0 DUP1 REVERT JUMPDEST PUSH1 0x0 DUP1 REVERT JUMPDEST PUSH1 0x0 DUP1 REVERT JUMPDEST PUSH1 0x0 DUP1 REVERT JUMPDEST PUSH1 0x0 PUSH1 0x1F NOT PUSH1 0x1F DUP4 ADD AND SWAP1 POP SWAP2 SWAP1 POP JUMP JUMPDEST PUSH3 0x6C5 DUP3 PUSH3 0x6A9 JUMP JUMPDEST DUP2 ADD DUP2 DUP2 LT PUSH8 0xFFFFFFFFFFFFFFFF DUP3 GT OR ISZERO PUSH3 0x6E7 JUMPI PUSH3 0x6E6 PUSH3 0x65C JUMP JUMPDEST JUMPDEST DUP1 PUSH1 0x40 MSTORE POP POP POP JUMP JUMPDEST PUSH1 0x0 PUSH3 0x6FC PUSH3 0x68B JUMP JUMPDEST SWAP1 POP PUSH3 0x70A DUP3 DUP3 PUSH3 0x6BA JUMP JUMPDEST SWAP2 SWAP1 POP JUMP JUMPDEST PUSH1 0x0 PUSH8 0xFFFFFFFFFFFFFFFF DUP3 GT ISZERO PUSH3 0x72D JUMPI PUSH3 0x72C PUSH3 0x65C JUMP JUMPDEST JUMPDEST PUSH3 0x738 DUP3 PUSH3 0x6A9 JUMP JUMPDEST SWAP1 POP PUSH1 0x20 DUP2 ADD SWAP1 POP SWAP2 SWAP1 POP JUMP JUMPDEST PUSH1 0x0 JUMPDEST DUP4 DUP2 LT ISZERO PUSH3 0x765 JUMPI DUP1 DUP3 ADD MLOAD DUP2 DUP5 ADD MSTORE PUSH1 0x20 DUP2 ADD SWAP1 POP PUSH3 0x748 JUMP JUMPDEST DUP4 DUP2 GT ISZERO PUSH3 0x775 JUMPI PUSH1 0x0 DUP5 DUP5 ADD MSTORE JUMPDEST POP POP POP POP JUMP JUMPDEST PUSH1 0x0 PUSH3 0x792 PUSH3 0x78C DUP5 PUSH3 0x70F JUMP JUMPDEST PUSH3 0x6F0 JUMP JUMPDEST SWAP1 POP DUP3 DUP2 MSTORE PUSH1 0x20 DUP2 ADD DUP5 DUP5 DUP5 ADD GT ISZERO PUSH3 0x7B1 JUMPI PUSH3 0x7B0 PUSH3 0x6A4 JUMP JUMPDEST JUMPDEST PUSH3 0x7BE DUP5 DUP3 DUP6 PUSH3 0x745 JUMP JUMPDEST POP SWAP4 SWAP3 POP POP POP JUMP JUMPDEST PUSH1 0x0 DUP3 PUSH1 0x1F DUP4 ADD SLT PUSH3 0x7DE JUMPI PUSH3 0x7DD PUSH3 0x69F JUMP JUMPDEST JUMPDEST DUP2 MLOAD PUSH3 0x7F0 DUP5 DUP3 PUSH1 0x20 DUP7 ADD PUSH3 0x77B JUMP JUMPDEST SWAP2 POP POP SWAP3 SWAP2 POP POP JUMP JUMPDEST PUSH1 0x0 PUSH20 0xFFFFFFFFFFFFFFFFFFFFFFFFFFFFFFFFFFFFFFFF DUP3 AND SWAP1 POP SWAP2 SWAP1 POP JUMP JUMPDEST PUSH1 0x0 PUSH3 0x826 DUP3 PUSH3 0x7F9 JUMP JUMPDEST SWAP1 POP SWAP2 SWAP1 POP JUMP JUMPDEST PUSH3 0x838 DUP2 PUSH3 0x819 JUMP JUMPDEST DUP2 EQ PUSH3 0x844 JUMPI PUSH1 0x0 DUP1 REVERT JUMPDEST POP JUMP JUMPDEST PUSH1 0x0 DUP2 MLOAD SWAP1 POP PUSH3 0x858 DUP2 PUSH3 0x82D JUMP JUMPDEST SWAP3 SWAP2 POP POP JUMP JUMPDEST PUSH1 0x0 DUP1 PUSH1 0x0 PUSH1 0x60 DUP5 DUP7 SUB SLT ISZERO PUSH3 0x87A JUMPI PUSH3 0x879 PUSH3 0x695 JUMP JUMPDEST JUMPDEST PUSH1 0x0 DUP5 ADD MLOAD PUSH8 0xFFFFFFFFFFFFFFFF DUP2 GT ISZERO PUSH3 0x89B JUMPI PUSH3 0x89A PUSH3 0x69A JUMP JUMPDEST JUMPDEST PUSH3 0x8A9 DUP7 DUP3 DUP8 ADD PUSH3 0x7C6 JUMP JUMPDEST SWAP4 POP POP PUSH1 0x20 DUP5 ADD MLOAD PUSH8 0xFFFFFFFFFFFFFFFF DUP2 GT ISZERO PUSH3 0x8CD JUMPI PUSH3 0x8CC PUSH3 0x69A JUMP JUMPDEST JUMPDEST PUSH3 0x8DB DUP7 DUP3 DUP8 ADD PUSH3 0x7C6 JUMP JUMPDEST SWAP3 POP POP PUSH1 0x40 PUSH3 0x8EE DUP7 DUP3 DUP8 ADD PUSH3 0x847 JUMP JUMPDEST SWAP2 POP POP SWAP3 POP SWAP3 POP SWAP3 JUMP JUMPDEST PUSH32 0x4E487B7100000000000000000000000000000000000000000000000000000000 PUSH1 0x0 MSTORE PUSH1 0x11 PUSH1 0x4 MSTORE PUSH1 0x24 PUSH1 0x0 REVERT JUMPDEST PUSH1 0x0 DUP2 PUSH1 0x1 SHR SWAP1 POP SWAP2 SWAP1 POP JUMP JUMPDEST PUSH1 0x0 DUP1 DUP3 SWAP2 POP DUP4 SWAP1 POP JUMPDEST PUSH1 0x1 DUP6 GT ISZERO PUSH3 0x986 JUMPI DUP1 DUP7 DIV DUP2 GT ISZERO PUSH3 0x95E JUMPI PUSH3 0x95D PUSH3 0x8F8 JUMP JUMPDEST JUMPDEST PUSH1 0x1 DUP6 AND ISZERO PUSH3 0x96E JUMPI DUP1 DUP3 MUL SWAP2 POP JUMPDEST DUP1 DUP2 MUL SWAP1 POP PUSH3 0x97E DUP6 PUSH3 0x927 JUMP JUMPDEST SWAP5 POP PUSH3 0x93E JUMP JUMPDEST SWAP5 POP SWAP5 SWAP3 POP POP POP JUMP JUMPDEST PUSH1 0x0 DUP3 PUSH3 0x9A1 JUMPI PUSH1 0x1 SWAP1 POP PUSH3 0xA74 JUMP JUMPDEST DUP2 PUSH3 0x9B1 JUMPI PUSH1 0x0 SWAP1 POP PUSH3 0xA74 JUMP JUMPDEST DUP2 PUSH1 0x1 DUP2 EQ PUSH3 0x9CA JUMPI PUSH1 0x2 DUP2 EQ PUSH3 0x9D5 JUMPI PUSH3 0xA0B JUMP JUMPDEST PUSH1 0x1 SWAP2 POP POP PUSH3 0xA74 JUMP JUMPDEST PUSH1 0xFF DUP5 GT ISZERO PUSH3 0x9EA JUMPI PUSH3 0x9E9 PUSH3 0x8F8 JUMP JUMPDEST JUMPDEST DUP4 PUSH1 0x2 EXP SWAP2 POP DUP5 DUP3 GT ISZERO PUSH3 0xA04 JUMPI PUSH3 0xA03 PUSH3 0x8F8 JUMP JUMPDEST JUMPDEST POP PUSH3 0xA74 JUMP JUMPDEST POP PUSH1 0x20 DUP4 LT PUSH2 0x133 DUP4 LT AND PUSH1 0x4E DUP5 LT PUSH1 0xB DUP5 LT AND OR ISZERO PUSH3 0xA45 JUMPI DUP3 DUP3 EXP SWAP1 POP DUP4 DUP2 GT ISZERO PUSH3 0xA3F JUMPI PUSH3 0xA3E PUSH3 0x8F8 JUMP JUMPDEST JUMPDEST PUSH3 0xA74 JUMP JUMPDEST PUSH3 0xA54 DUP5 DUP5 DUP5 PUSH1 0x1 PUSH3 0x934 JUMP JUMPDEST SWAP3 POP SWAP1 POP DUP2 DUP5 DIV DUP2 GT ISZERO PUSH3 0xA6E JUMPI PUSH3 0xA6D PUSH3 0x8F8 JUMP JUMPDEST JUMPDEST DUP2 DUP2 MUL SWAP1 POP JUMPDEST SWAP4 SWAP3 POP POP POP JUMP JUMPDEST PUSH1 0x0 DUP2 SWAP1 POP SWAP2 SWAP1 POP JUMP JUMPDEST PUSH1 0x0 PUSH3 0xA92 DUP3 PUSH3 0xA7B JUMP JUMPDEST SWAP2 POP PUSH3 0xA9F DUP4 PUSH3 0xA7B JUMP JUMPDEST SWAP3 POP PUSH3 0xACE PUSH32 0xFFFFFFFFFFFFFFFFFFFFFFFFFFFFFFFFFFFFFFFFFFFFFFFFFFFFFFFFFFFFFFFF DUP5 DUP5 PUSH3 0x98F JUMP JUMPDEST SWAP1 POP SWAP3 SWAP2 POP POP JUMP JUMPDEST PUSH1 0x0 PUSH3 0xAE3 DUP3 PUSH3 0xA7B JUMP JUMPDEST SWAP2 POP PUSH3 0xAF0 DUP4 PUSH3 0xA7B JUMP JUMPDEST SWAP3 POP DUP2 PUSH32 0xFFFFFFFFFFFFFFFFFFFFFFFFFFFFFFFFFFFFFFFFFFFFFFFFFFFFFFFFFFFFFFFF DIV DUP4 GT DUP3 ISZERO ISZERO AND ISZERO PUSH3 0xB2C JUMPI PUSH3 0xB2B PUSH3 0x8F8 JUMP JUMPDEST JUMPDEST DUP3 DUP3 MUL SWAP1 POP SWAP3 SWAP2 POP POP JUMP JUMPDEST PUSH32 0x4E487B7100000000000000000000000000000000000000000000000000000000 PUSH1 0x0 MSTORE PUSH1 0x32 PUSH1 0x4 MSTORE PUSH1 0x24 PUSH1 0x0 REVERT JUMPDEST PUSH1 0x0 DUP3 DUP3 MSTORE PUSH1 0x20 DUP3 ADD SWAP1 POP SWAP3 SWAP2 POP POP JUMP JUMPDEST PUSH32 0x45524332303A206D696E7420746F20746865207A65726F206164647265737300 PUSH1 0x0 DUP3 ADD MSTORE POP JUMP JUMPDEST PUSH1 0x0 PUSH3 0xBAF PUSH1 0x1F DUP4 PUSH3 0xB66 JUMP JUMPDEST SWAP2 POP PUSH3 0xBBC DUP3 PUSH3 0xB77 JUMP JUMPDEST PUSH1 0x20 DUP3 ADD SWAP1 POP SWAP2 SWAP1 POP JUMP JUMPDEST PUSH1 0x0 PUSH1 0x20 DUP3 ADD SWAP1 POP DUP2 DUP2 SUB PUSH1 0x0 DUP4 ADD MSTORE PUSH3 0xBE2 DUP2 PUSH3 0xBA0 JUMP JUMPDEST SWAP1 POP SWAP2 SWAP1 POP JUMP JUMPDEST PUSH1 0x0 PUSH3 0xBF6 DUP3 PUSH3 0xA7B JUMP JUMPDEST SWAP2 POP PUSH3 0xC03 DUP4 PUSH3 0xA7B JUMP JUMPDEST SWAP3 POP DUP3 PUSH32 0xFFFFFFFFFFFFFFFFFFFFFFFFFFFFFFFFFFFFFFFFFFFFFFFFFFFFFFFFFFFFFFFF SUB DUP3 GT ISZERO PUSH3 0xC3B JUMPI PUSH3 0xC3A PUSH3 0x8F8 JUMP JUMPDEST JUMPDEST DUP3 DUP3 ADD SWAP1 POP SWAP3 SWAP2 POP POP JUMP JUMPDEST PUSH3 0xC51 DUP2 PUSH3 0xA7B JUMP JUMPDEST DUP3 MSTORE POP POP JUMP JUMPDEST PUSH1 0x0 PUSH1 0x20 DUP3 ADD SWAP1 POP PUSH3 0xC6E PUSH1 0x0 DUP4 ADD DUP5 PUSH3 0xC46 JUMP JUMPDEST SWAP3 SWAP2 POP POP JUMP JUMPDEST PUSH32 0x4E487B7100000000000000000000000000000000000000000000000000000000 PUSH1 0x0 MSTORE PUSH1 0x22 PUSH1 0x4 MSTORE PUSH1 0x24 PUSH1 0x0 REVERT JUMPDEST PUSH1 0x0 PUSH1 0x2 DUP3 DIV SWAP1 POP PUSH1 0x1 DUP3 AND DUP1 PUSH3 0xCBC JUMPI PUSH1 0x7F DUP3 AND SWAP2 POP JUMPDEST PUSH1 0x20 DUP3 LT DUP2 SUB PUSH3 0xCD2 JUMPI PUSH3 0xCD1 PUSH3 0xC74 JUMP JUMPDEST JUMPDEST POP SWAP2 SWAP1 POP JUMP JUMPDEST PUSH2 0x2BB6 DUP1 PUSH3 0xCE8 PUSH1 0x0 CODECOPY PUSH1 0x0 RETURN INVALID PUSH1 0x80 PUSH1 0x40 MSTORE CALLVALUE DUP1 ISZERO PUSH2 0x10 JUMPI PUSH1 0x0 DUP1 REVERT JUMPDEST POP PUSH1 0x4 CALLDATASIZE LT PUSH2 0x12C JUMPI PUSH1 0x0 CALLDATALOAD PUSH1 0xE0 SHR DUP1 PUSH4 0x715018A6 GT PUSH2 0xAD JUMPI DUP1 PUSH4 0xA33E7D7E GT PUSH2 0x71 JUMPI DUP1 PUSH4 0xA33E7D7E EQ PUSH2 0x345 JUMPI DUP1 PUSH4 0xA457C2D7 EQ PUSH2 0x361 JUMPI DUP1 PUSH4 0xA9059CBB EQ PUSH2 0x391 JUMPI DUP1 PUSH4 0xDD62ED3E EQ PUSH2 0x3C1 JUMPI DUP1 PUSH4 0xF2FDE38B EQ PUSH2 0x3F1 JUMPI PUSH2 0x12C JUMP JUMPDEST DUP1 PUSH4 0x715018A6 EQ PUSH2 0x2B3 JUMPI DUP1 PUSH4 0x7A0D944C EQ PUSH2 0x2BD JUMPI DUP1 PUSH4 0x8DA5CB5B EQ PUSH2 0x2ED JUMPI DUP1 PUSH4 0x95D89B41 EQ PUSH2 0x30B JUMPI DUP1 PUSH4 0xA0712D68 EQ PUSH2 0x329 JUMPI PUSH2 0x12C JUMP JUMPDEST DUP1 PUSH4 0x23B872DD GT PUSH2 0xF4 JUMPI DUP1 PUSH4 0x23B872DD EQ PUSH2 0x1D5 JUMPI DUP1 PUSH4 0x313CE567 EQ PUSH2 0x205 JUMPI DUP1 PUSH4 0x39509351 EQ PUSH2 0x223 JUMPI DUP1 PUSH4 0x69313678 EQ PUSH2 0x253 JUMPI DUP1 PUSH4 0x70A08231 EQ PUSH2 0x283 JUMPI PUSH2 0x12C JUMP JUMPDEST DUP1 PUSH4 0x6FDDE03 EQ PUSH2 0x131 JUMPI DUP1 PUSH4 0x95EA7B3 EQ PUSH2 0x14F JUMPI DUP1 PUSH4 0x13B954A3 EQ PUSH2 0x17F JUMPI DUP1 PUSH4 0x1506F480 EQ PUSH2 0x19B JUMPI DUP1 PUSH4 0x18160DDD EQ PUSH2 0x1B7 JUMPI JUMPDEST PUSH1 0x0 DUP1 REVERT JUMPDEST PUSH2 0x139 PUSH2 0x40D JUMP JUMPDEST PUSH1 0x40 MLOAD PUSH2 0x146 SWAP2 SWAP1 PUSH2 0x20A4 JUMP JUMPDEST PUSH1 0x40 MLOAD DUP1 SWAP2 SUB SWAP1 RETURN JUMPDEST PUSH2 0x169 PUSH1 0x4 DUP1 CALLDATASIZE SUB DUP2 ADD SWAP1 PUSH2 0x164 SWAP2 SWAP1 PUSH2 0x215F JUMP JUMPDEST PUSH2 0x49F JUMP JUMPDEST PUSH1 0x40 MLOAD PUSH2 0x176 SWAP2 SWAP1 PUSH2 0x21BA JUMP JUMPDEST PUSH1 0x40 MLOAD DUP1 SWAP2 SUB SWAP1 RETURN JUMPDEST PUSH2 0x199 PUSH1 0x4 DUP1 CALLDATASIZE SUB DUP2 ADD SWAP1 PUSH2 0x194 SWAP2 SWAP1 PUSH2 0x215F JUMP JUMPDEST PUSH2 0x4BD JUMP JUMPDEST STOP JUMPDEST PUSH2 0x1B5 PUSH1 0x4 DUP1 CALLDATASIZE SUB DUP2 ADD SWAP1 PUSH2 0x1B0 SWAP2 SWAP1 PUSH2 0x215F JUMP JUMPDEST PUSH2 0x770 JUMP JUMPDEST STOP JUMPDEST PUSH2 0x1BF PUSH2 0xB03 JUMP JUMPDEST PUSH1 0x40 MLOAD PUSH2 0x1CC SWAP2 SWAP1 PUSH2 0x21E4 JUMP JUMPDEST PUSH1 0x40 MLOAD DUP1 SWAP2 SUB SWAP1 RETURN JUMPDEST PUSH2 0x1EF PUSH1 0x4 DUP1 CALLDATASIZE SUB DUP2 ADD SWAP1 PUSH2 0x1EA SWAP2 SWAP1 PUSH2 0x21FF JUMP JUMPDEST PUSH2 0xB0D JUMP JUMPDEST PUSH1 0x40 MLOAD PUSH2 0x1FC SWAP2 SWAP1 PUSH2 0x21BA JUMP JUMPDEST PUSH1 0x40 MLOAD DUP1 SWAP2 SUB SWAP1 RETURN JUMPDEST PUSH2 0x20D PUSH2 0xB1A JUMP JUMPDEST PUSH1 0x40 MLOAD PUSH2 0x21A SWAP2 SWAP1 PUSH2 0x226E JUMP JUMPDEST PUSH1 0x40 MLOAD DUP1 SWAP2 SUB SWAP1 RETURN JUMPDEST PUSH2 0x23D PUSH1 0x4 DUP1 CALLDATASIZE SUB DUP2 ADD SWAP1 PUSH2 0x238 SWAP2 SWAP1 PUSH2 0x215F JUMP JUMPDEST PUSH2 0xB23 JUMP JUMPDEST PUSH1 0x40 MLOAD PUSH2 0x24A SWAP2 SWAP1 PUSH2 0x21BA JUMP JUMPDEST PUSH1 0x40 MLOAD DUP1 SWAP2 SUB SWAP1 RETURN JUMPDEST PUSH2 0x26D PUSH1 0x4 DUP1 CALLDATASIZE SUB DUP2 ADD SWAP1 PUSH2 0x268 SWAP2 SWAP1 PUSH2 0x2289 JUMP JUMPDEST PUSH2 0xBCF JUMP JUMPDEST PUSH1 0x40 MLOAD PUSH2 0x27A SWAP2 SWAP1 PUSH2 0x21E4 JUMP JUMPDEST PUSH1 0x40 MLOAD DUP1 SWAP2 SUB SWAP1 RETURN JUMPDEST PUSH2 0x29D PUSH1 0x4 DUP1 CALLDATASIZE SUB DUP2 ADD SWAP1 PUSH2 0x298 SWAP2 SWAP1 PUSH2 0x22B6 JUMP JUMPDEST PUSH2 0xBF3 JUMP JUMPDEST PUSH1 0x40 MLOAD PUSH2 0x2AA SWAP2 SWAP1 PUSH2 0x21E4 JUMP JUMPDEST PUSH1 0x40 MLOAD DUP1 SWAP2 SUB SWAP1 RETURN JUMPDEST PUSH2 0x2BB PUSH2 0xD9A JUMP JUMPDEST STOP JUMPDEST PUSH2 0x2D7 PUSH1 0x4 DUP1 CALLDATASIZE SUB DUP2 ADD SWAP1 PUSH2 0x2D2 SWAP2 SWAP1 PUSH2 0x22B6 JUMP JUMPDEST PUSH2 0xE22 JUMP JUMPDEST PUSH1 0x40 MLOAD PUSH2 0x2E4 SWAP2 SWAP1 PUSH2 0x226E JUMP JUMPDEST PUSH1 0x40 MLOAD DUP1 SWAP2 SUB SWAP1 RETURN JUMPDEST PUSH2 0x2F5 PUSH2 0xE42 JUMP JUMPDEST PUSH1 0x40 MLOAD PUSH2 0x302 SWAP2 SWAP1 PUSH2 0x22F2 JUMP JUMPDEST PUSH1 0x40 MLOAD DUP1 SWAP2 SUB SWAP1 RETURN JUMPDEST PUSH2 0x313 PUSH2 0xE6C JUMP JUMPDEST PUSH1 0x40 MLOAD PUSH2 0x320 SWAP2 SWAP1 PUSH2 0x20A4 JUMP JUMPDEST PUSH1 0x40 MLOAD DUP1 SWAP2 SUB SWAP1 RETURN JUMPDEST PUSH2 0x343 PUSH1 0x4 DUP1 CALLDATASIZE SUB DUP2 ADD SWAP1 PUSH2 0x33E SWAP2 SWAP1 PUSH2 0x2289 JUMP JUMPDEST PUSH2 0xEFE JUMP JUMPDEST STOP JUMPDEST PUSH2 0x35F PUSH1 0x4 DUP1 CALLDATASIZE SUB DUP2 ADD SWAP1 PUSH2 0x35A SWAP2 SWAP1 PUSH2 0x2339 JUMP JUMPDEST PUSH2 0x126F JUMP JUMPDEST STOP JUMPDEST PUSH2 0x37B PUSH1 0x4 DUP1 CALLDATASIZE SUB DUP2 ADD SWAP1 PUSH2 0x376 SWAP2 SWAP1 PUSH2 0x215F JUMP JUMPDEST PUSH2 0x14F3 JUMP JUMPDEST PUSH1 0x40 MLOAD PUSH2 0x388 SWAP2 SWAP1 PUSH2 0x21BA JUMP JUMPDEST PUSH1 0x40 MLOAD DUP1 SWAP2 SUB SWAP1 RETURN JUMPDEST PUSH2 0x3AB PUSH1 0x4 DUP1 CALLDATASIZE SUB DUP2 ADD SWAP1 PUSH2 0x3A6 SWAP2 SWAP1 PUSH2 0x215F JUMP JUMPDEST PUSH2 0x15E7 JUMP JUMPDEST PUSH1 0x40 MLOAD PUSH2 0x3B8 SWAP2 SWAP1 PUSH2 0x21BA JUMP JUMPDEST PUSH1 0x40 MLOAD DUP1 SWAP2 SUB SWAP1 RETURN JUMPDEST PUSH2 0x3DB PUSH1 0x4 DUP1 CALLDATASIZE SUB DUP2 ADD SWAP1 PUSH2 0x3D6 SWAP2 SWAP1 PUSH2 0x2379 JUMP JUMPDEST PUSH2 0x1724 JUMP JUMPDEST PUSH1 0x40 MLOAD PUSH2 0x3E8 SWAP2 SWAP1 PUSH2 0x21E4 JUMP JUMPDEST PUSH1 0x40 MLOAD DUP1 SWAP2 SUB SWAP1 RETURN JUMPDEST PUSH2 0x40B PUSH1 0x4 DUP1 CALLDATASIZE SUB DUP2 ADD SWAP1 PUSH2 0x406 SWAP2 SWAP1 PUSH2 0x22B6 JUMP JUMPDEST PUSH2 0x17AB JUMP JUMPDEST STOP JUMPDEST PUSH1 0x60 PUSH1 0x3 DUP1 SLOAD PUSH2 0x41C SWAP1 PUSH2 0x23E8 JUMP JUMPDEST DUP1 PUSH1 0x1F ADD PUSH1 0x20 DUP1 SWAP2 DIV MUL PUSH1 0x20 ADD PUSH1 0x40 MLOAD SWAP1 DUP2 ADD PUSH1 0x40 MSTORE DUP1 SWAP3 SWAP2 SWAP1 DUP2 DUP2 MSTORE PUSH1 0x20 ADD DUP3 DUP1 SLOAD PUSH2 0x448 SWAP1 PUSH2 0x23E8 JUMP JUMPDEST DUP1 ISZERO PUSH2 0x495 JUMPI DUP1 PUSH1 0x1F LT PUSH2 0x46A JUMPI PUSH2 0x100 DUP1 DUP4 SLOAD DIV MUL DUP4 MSTORE SWAP2 PUSH1 0x20 ADD SWAP2 PUSH2 0x495 JUMP JUMPDEST DUP3 ADD SWAP2 SWAP1 PUSH1 0x0 MSTORE PUSH1 0x20 PUSH1 0x0 KECCAK256 SWAP1 JUMPDEST DUP2 SLOAD DUP2 MSTORE SWAP1 PUSH1 0x1 ADD SWAP1 PUSH1 0x20 ADD DUP1 DUP4 GT PUSH2 0x478 JUMPI DUP3 SWAP1 SUB PUSH1 0x1F AND DUP3 ADD SWAP2 JUMPDEST POP POP POP POP POP SWAP1 POP SWAP1 JUMP JUMPDEST PUSH1 0x0 PUSH2 0x4B3 PUSH2 0x4AC PUSH2 0x18A2 JUMP JUMPDEST DUP5 DUP5 PUSH2 0x18AA JUMP JUMPDEST PUSH1 0x1 SWAP1 POP SWAP3 SWAP2 POP POP JUMP JUMPDEST PUSH2 0x4C5 PUSH2 0x18A2 JUMP JUMPDEST PUSH20 0xFFFFFFFFFFFFFFFFFFFFFFFFFFFFFFFFFFFFFFFF AND PUSH2 0x4E3 PUSH2 0xE42 JUMP JUMPDEST PUSH20 0xFFFFFFFFFFFFFFFFFFFFFFFFFFFFFFFFFFFFFFFF AND EQ PUSH2 0x539 JUMPI PUSH1 0x40 MLOAD PUSH32 0x8C379A000000000000000000000000000000000000000000000000000000000 DUP2 MSTORE PUSH1 0x4 ADD PUSH2 0x530 SWAP1 PUSH2 0x2465 JUMP JUMPDEST PUSH1 0x40 MLOAD DUP1 SWAP2 SUB SWAP1 REVERT JUMPDEST PUSH1 0x0 PUSH1 0x7 PUSH1 0x0 DUP5 PUSH20 0xFFFFFFFFFFFFFFFFFFFFFFFFFFFFFFFFFFFFFFFF AND PUSH20 0xFFFFFFFFFFFFFFFFFFFFFFFFFFFFFFFFFFFFFFFF AND DUP2 MSTORE PUSH1 0x20 ADD SWAP1 DUP2 MSTORE PUSH1 0x20 ADD PUSH1 0x0 KECCAK256 PUSH1 0x0 SWAP1 SLOAD SWAP1 PUSH2 0x100 EXP SWAP1 DIV PUSH1 0xFF AND PUSH1 0xFF AND EQ PUSH2 0x5CB JUMPI PUSH1 0x40 MLOAD PUSH32 0x8C379A000000000000000000000000000000000000000000000000000000000 DUP2 MSTORE PUSH1 0x4 ADD PUSH2 0x5C2 SWAP1 PUSH2 0x24F7 JUMP JUMPDEST PUSH1 0x40 MLOAD DUP1 SWAP2 SUB SWAP1 REVERT JUMPDEST DUP1 PUSH1 0x0 DUP1 DUP5 PUSH20 0xFFFFFFFFFFFFFFFFFFFFFFFFFFFFFFFFFFFFFFFF AND PUSH20 0xFFFFFFFFFFFFFFFFFFFFFFFFFFFFFFFFFFFFFFFF AND DUP2 MSTORE PUSH1 0x20 ADD SWAP1 DUP2 MSTORE PUSH1 0x20 ADD PUSH1 0x0 KECCAK256 PUSH1 0x0 DUP3 DUP3 SLOAD PUSH2 0x619 SWAP2 SWAP1 PUSH2 0x2546 JUMP JUMPDEST SWAP3 POP POP DUP2 SWAP1 SSTORE POP PUSH1 0x0 PUSH1 0x1 SWAP1 POP JUMPDEST PUSH1 0x2 DUP2 PUSH1 0xFF AND GT PUSH2 0x752 JUMPI PUSH1 0x2 DUP3 PUSH2 0x63F SWAP2 SWAP1 PUSH2 0x25CB JUMP JUMPDEST PUSH1 0xA DUP3 PUSH1 0xFF AND DUP2 SLOAD DUP2 LT PUSH2 0x656 JUMPI PUSH2 0x655 PUSH2 0x25FC JUMP JUMPDEST JUMPDEST SWAP1 PUSH1 0x0 MSTORE PUSH1 0x20 PUSH1 0x0 KECCAK256 ADD SLOAD PUSH2 0x66B SWAP2 SWAP1 PUSH2 0x2546 JUMP JUMPDEST PUSH1 0x9 DUP3 PUSH1 0xFF AND DUP2 SLOAD DUP2 LT PUSH2 0x682 JUMPI PUSH2 0x681 PUSH2 0x25FC JUMP JUMPDEST JUMPDEST SWAP1 PUSH1 0x0 MSTORE PUSH1 0x20 PUSH1 0x0 KECCAK256 ADD PUSH1 0x0 DUP3 DUP3 SLOAD PUSH2 0x69B SWAP2 SWAP1 PUSH2 0x262B JUMP JUMPDEST SWAP3 POP POP DUP2 SWAP1 SSTORE POP PUSH1 0xA DUP2 PUSH1 0xFF AND DUP2 SLOAD DUP2 LT PUSH2 0x6B9 JUMPI PUSH2 0x6B8 PUSH2 0x25FC JUMP JUMPDEST JUMPDEST SWAP1 PUSH1 0x0 MSTORE PUSH1 0x20 PUSH1 0x0 KECCAK256 ADD SLOAD PUSH1 0x9 DUP3 PUSH1 0xFF AND DUP2 SLOAD DUP2 LT PUSH2 0x6DB JUMPI PUSH2 0x6DA PUSH2 0x25FC JUMP JUMPDEST JUMPDEST SWAP1 PUSH1 0x0 MSTORE PUSH1 0x20 PUSH1 0x0 KECCAK256 ADD PUSH1 0x0 DUP3 DUP3 SLOAD PUSH2 0x6F4 SWAP2 SWAP1 PUSH2 0x25CB JUMP JUMPDEST SWAP3 POP POP DUP2 SWAP1 SSTORE POP PUSH1 0x2 DUP3 PUSH2 0x708 SWAP2 SWAP1 PUSH2 0x25CB JUMP JUMPDEST PUSH1 0xA DUP3 PUSH1 0xFF AND DUP2 SLOAD DUP2 LT PUSH2 0x71F JUMPI PUSH2 0x71E PUSH2 0x25FC JUMP JUMPDEST JUMPDEST SWAP1 PUSH1 0x0 MSTORE PUSH1 0x20 PUSH1 0x0 KECCAK256 ADD PUSH1 0x0 DUP3 DUP3 SLOAD PUSH2 0x738 SWAP2 SWAP1 PUSH2 0x2546 JUMP JUMPDEST SWAP3 POP POP DUP2 SWAP1 SSTORE POP DUP1 DUP1 PUSH2 0x74A SWAP1 PUSH2 0x2685 JUMP JUMPDEST SWAP2 POP POP PUSH2 0x627 JUMP JUMPDEST POP DUP1 PUSH1 0x2 PUSH1 0x0 DUP3 DUP3 SLOAD PUSH2 0x765 SWAP2 SWAP1 PUSH2 0x2546 JUMP JUMPDEST SWAP3 POP POP DUP2 SWAP1 SSTORE POP POP POP JUMP JUMPDEST PUSH2 0x778 PUSH2 0x18A2 JUMP JUMPDEST PUSH20 0xFFFFFFFFFFFFFFFFFFFFFFFFFFFFFFFFFFFFFFFF AND PUSH2 0x796 PUSH2 0xE42 JUMP JUMPDEST PUSH20 0xFFFFFFFFFFFFFFFFFFFFFFFFFFFFFFFFFFFFFFFF AND EQ PUSH2 0x7EC JUMPI PUSH1 0x40 MLOAD PUSH32 0x8C379A000000000000000000000000000000000000000000000000000000000 DUP2 MSTORE PUSH1 0x4 ADD PUSH2 0x7E3 SWAP1 PUSH2 0x2465 JUMP JUMPDEST PUSH1 0x40 MLOAD DUP1 SWAP2 SUB SWAP1 REVERT JUMPDEST PUSH1 0x0 PUSH1 0x7 PUSH1 0x0 DUP5 PUSH20 0xFFFFFFFFFFFFFFFFFFFFFFFFFFFFFFFFFFFFFFFF AND PUSH20 0xFFFFFFFFFFFFFFFFFFFFFFFFFFFFFFFFFFFFFFFF AND DUP2 MSTORE PUSH1 0x20 ADD SWAP1 DUP2 MSTORE PUSH1 0x20 ADD PUSH1 0x0 KECCAK256 PUSH1 0x0 SWAP1 SLOAD SWAP1 PUSH2 0x100 EXP SWAP1 DIV PUSH1 0xFF AND PUSH1 0xFF AND SUB PUSH2 0x87E JUMPI PUSH1 0x40 MLOAD PUSH32 0x8C379A000000000000000000000000000000000000000000000000000000000 DUP2 MSTORE PUSH1 0x4 ADD PUSH2 0x875 SWAP1 PUSH2 0x26FA JUMP JUMPDEST PUSH1 0x40 MLOAD DUP1 SWAP2 SUB SWAP1 REVERT JUMPDEST PUSH2 0x887 DUP3 PUSH2 0x1A73 JUMP JUMPDEST DUP1 PUSH1 0x0 DUP1 DUP5 PUSH20 0xFFFFFFFFFFFFFFFFFFFFFFFFFFFFFFFFFFFFFFFF AND PUSH20 0xFFFFFFFFFFFFFFFFFFFFFFFFFFFFFFFFFFFFFFFF AND DUP2 MSTORE PUSH1 0x20 ADD SWAP1 DUP2 MSTORE PUSH1 0x20 ADD PUSH1 0x0 KECCAK256 PUSH1 0x0 DUP3 DUP3 SLOAD PUSH2 0x8D5 SWAP2 SWAP1 PUSH2 0x2546 JUMP JUMPDEST SWAP3 POP POP DUP2 SWAP1 SSTORE POP DUP1 PUSH1 0x2 PUSH2 0x8E9 SWAP2 SWAP1 PUSH2 0x262B JUMP JUMPDEST PUSH1 0x0 DUP1 PUSH1 0xB PUSH1 0x0 SWAP1 SLOAD SWAP1 PUSH2 0x100 EXP SWAP1 DIV PUSH20 0xFFFFFFFFFFFFFFFFFFFFFFFFFFFFFFFFFFFFFFFF AND PUSH20 0xFFFFFFFFFFFFFFFFFFFFFFFFFFFFFFFFFFFFFFFF AND PUSH20 0xFFFFFFFFFFFFFFFFFFFFFFFFFFFFFFFFFFFFFFFF AND DUP2 MSTORE PUSH1 0x20 ADD SWAP1 DUP2 MSTORE PUSH1 0x20 ADD PUSH1 0x0 KECCAK256 PUSH1 0x0 DUP3 DUP3 SLOAD PUSH2 0x958 SWAP2 SWAP1 PUSH2 0x2546 JUMP JUMPDEST SWAP3 POP POP DUP2 SWAP1 SSTORE POP PUSH1 0x0 PUSH1 0x7 PUSH1 0x0 DUP5 PUSH20 0xFFFFFFFFFFFFFFFFFFFFFFFFFFFFFFFFFFFFFFFF AND PUSH20 0xFFFFFFFFFFFFFFFFFFFFFFFFFFFFFFFFFFFFFFFF AND DUP2 MSTORE PUSH1 0x20 ADD SWAP1 DUP2 MSTORE PUSH1 0x20 ADD PUSH1 0x0 KECCAK256 PUSH1 0x0 SWAP1 SLOAD SWAP1 PUSH2 0x100 EXP SWAP1 DIV PUSH1 0xFF AND PUSH1 0x1 PUSH2 0x9BA SWAP2 SWAP1 PUSH2 0x271A JUMP JUMPDEST SWAP1 POP DUP2 PUSH1 0xA DUP3 PUSH1 0xFF AND DUP2 SLOAD DUP2 LT PUSH2 0x9D4 JUMPI PUSH2 0x9D3 PUSH2 0x25FC JUMP JUMPDEST JUMPDEST SWAP1 PUSH1 0x0 MSTORE PUSH1 0x20 PUSH1 0x0 KECCAK256 ADD SLOAD PUSH2 0x9E9 SWAP2 SWAP1 PUSH2 0x2546 JUMP JUMPDEST PUSH1 0x9 DUP3 PUSH1 0xFF AND DUP2 SLOAD DUP2 LT PUSH2 0xA00 JUMPI PUSH2 0x9FF PUSH2 0x25FC JUMP JUMPDEST JUMPDEST SWAP1 PUSH1 0x0 MSTORE PUSH1 0x20 PUSH1 0x0 KECCAK256 ADD PUSH1 0x0 DUP3 DUP3 SLOAD PUSH2 0xA19 SWAP2 SWAP1 PUSH2 0x262B JUMP JUMPDEST SWAP3 POP POP DUP2 SWAP1 SSTORE POP PUSH1 0xA DUP2 PUSH1 0xFF AND DUP2 SLOAD DUP2 LT PUSH2 0xA37 JUMPI PUSH2 0xA36 PUSH2 0x25FC JUMP JUMPDEST JUMPDEST SWAP1 PUSH1 0x0 MSTORE PUSH1 0x20 PUSH1 0x0 KECCAK256 ADD SLOAD PUSH1 0x9 DUP3 PUSH1 0xFF AND DUP2 SLOAD DUP2 LT PUSH2 0xA59 JUMPI PUSH2 0xA58 PUSH2 0x25FC JUMP JUMPDEST JUMPDEST SWAP1 PUSH1 0x0 MSTORE PUSH1 0x20 PUSH1 0x0 KECCAK256 ADD PUSH1 0x0 DUP3 DUP3 SLOAD PUSH2 0xA72 SWAP2 SWAP1 PUSH2 0x25CB JUMP JUMPDEST SWAP3 POP POP DUP2 SWAP1 SSTORE POP DUP2 PUSH1 0xA PUSH1 0x1 DUP2 SLOAD DUP2 LT PUSH2 0xA8F JUMPI PUSH2 0xA8E PUSH2 0x25FC JUMP JUMPDEST JUMPDEST SWAP1 PUSH1 0x0 MSTORE PUSH1 0x20 PUSH1 0x0 KECCAK256 ADD PUSH1 0x0 DUP3 DUP3 SLOAD PUSH2 0xAA8 SWAP2 SWAP1 PUSH2 0x2546 JUMP JUMPDEST SWAP3 POP POP DUP2 SWAP1 SSTORE POP DUP2 PUSH1 0xA PUSH1 0x2 DUP2 SLOAD DUP2 LT PUSH2 0xAC5 JUMPI PUSH2 0xAC4 PUSH2 0x25FC JUMP JUMPDEST JUMPDEST SWAP1 PUSH1 0x0 MSTORE PUSH1 0x20 PUSH1 0x0 KECCAK256 ADD PUSH1 0x0 DUP3 DUP3 SLOAD PUSH2 0xADE SWAP2 SWAP1 PUSH2 0x2546 JUMP JUMPDEST SWAP3 POP POP DUP2 SWAP1 SSTORE POP DUP2 PUSH1 0x2 PUSH1 0x0 DUP3 DUP3 SLOAD PUSH2 0xAF7 SWAP2 SWAP1 PUSH2 0x2546 JUMP JUMPDEST SWAP3 POP POP DUP2 SWAP1 SSTORE POP POP POP POP JUMP JUMPDEST PUSH1 0x0 PUSH1 0x2 SLOAD SWAP1 POP SWAP1 JUMP JUMPDEST PUSH1 0x0 PUSH1 0x1 SWAP1 POP SWAP4 SWAP3 POP POP POP JUMP JUMPDEST PUSH1 0x0 PUSH1 0x12 SWAP1 POP SWAP1 JUMP JUMPDEST PUSH1 0x0 PUSH2 0xBC5 PUSH2 0xB30 PUSH2 0x18A2 JUMP JUMPDEST DUP5 DUP5 PUSH1 0x1 PUSH1 0x0 PUSH2 0xB3E PUSH2 0x18A2 JUMP JUMPDEST PUSH20 0xFFFFFFFFFFFFFFFFFFFFFFFFFFFFFFFFFFFFFFFF AND PUSH20 0xFFFFFFFFFFFFFFFFFFFFFFFFFFFFFFFFFFFFFFFF AND DUP2 MSTORE PUSH1 0x20 ADD SWAP1 DUP2 MSTORE PUSH1 0x20 ADD PUSH1 0x0 KECCAK256 PUSH1 0x0 DUP9 PUSH20 0xFFFFFFFFFFFFFFFFFFFFFFFFFFFFFFFFFFFFFFFF AND PUSH20 0xFFFFFFFFFFFFFFFFFFFFFFFFFFFFFFFFFFFFFFFF AND DUP2 MSTORE PUSH1 0x20 ADD SWAP1 DUP2 MSTORE PUSH1 0x20 ADD PUSH1 0x0 KECCAK256 SLOAD PUSH2 0xBC0 SWAP2 SWAP1 PUSH2 0x2546 JUMP JUMPDEST PUSH2 0x18AA JUMP JUMPDEST PUSH1 0x1 SWAP1 POP SWAP3 SWAP2 POP POP JUMP JUMPDEST PUSH1 0x9 DUP2 DUP2 SLOAD DUP2 LT PUSH2 0xBDF JUMPI PUSH1 0x0 DUP1 REVERT JUMPDEST SWAP1 PUSH1 0x0 MSTORE PUSH1 0x20 PUSH1 0x0 KECCAK256 ADD PUSH1 0x0 SWAP2 POP SWAP1 POP SLOAD DUP2 JUMP JUMPDEST PUSH1 0x0 DUP1 PUSH1 0x7 PUSH1 0x0 DUP5 PUSH20 0xFFFFFFFFFFFFFFFFFFFFFFFFFFFFFFFFFFFFFFFF AND PUSH20 0xFFFFFFFFFFFFFFFFFFFFFFFFFFFFFFFFFFFFFFFF AND DUP2 MSTORE PUSH1 0x20 ADD SWAP1 DUP2 MSTORE PUSH1 0x20 ADD PUSH1 0x0 KECCAK256 PUSH1 0x0 SWAP1 SLOAD SWAP1 PUSH2 0x100 EXP SWAP1 DIV PUSH1 0xFF AND PUSH1 0xFF AND SUB PUSH2 0xC91 JUMPI PUSH1 0x0 DUP1 DUP4 PUSH20 0xFFFFFFFFFFFFFFFFFFFFFFFFFFFFFFFFFFFFFFFF AND PUSH20 0xFFFFFFFFFFFFFFFFFFFFFFFFFFFFFFFFFFFFFFFF AND DUP2 MSTORE PUSH1 0x20 ADD SWAP1 DUP2 MSTORE PUSH1 0x20 ADD PUSH1 0x0 KECCAK256 SLOAD SWAP1 POP PUSH2 0xD95 JUMP JUMPDEST PUSH1 0x6 PUSH1 0x0 DUP4 PUSH20 0xFFFFFFFFFFFFFFFFFFFFFFFFFFFFFFFFFFFFFFFF AND PUSH20 0xFFFFFFFFFFFFFFFFFFFFFFFFFFFFFFFFFFFFFFFF AND DUP2 MSTORE PUSH1 0x20 ADD SWAP1 DUP2 MSTORE PUSH1 0x20 ADD PUSH1 0x0 KECCAK256 SLOAD PUSH1 0x0 DUP1 DUP5 PUSH20 0xFFFFFFFFFFFFFFFFFFFFFFFFFFFFFFFFFFFFFFFF AND PUSH20 0xFFFFFFFFFFFFFFFFFFFFFFFFFFFFFFFFFFFFFFFF AND DUP2 MSTORE PUSH1 0x20 ADD SWAP1 DUP2 MSTORE PUSH1 0x20 ADD PUSH1 0x0 KECCAK256 SLOAD PUSH1 0x9 PUSH1 0x7 PUSH1 0x0 DUP7 PUSH20 0xFFFFFFFFFFFFFFFFFFFFFFFFFFFFFFFFFFFFFFFF AND PUSH20 0xFFFFFFFFFFFFFFFFFFFFFFFFFFFFFFFFFFFFFFFF AND DUP2 MSTORE PUSH1 0x20 ADD SWAP1 DUP2 MSTORE PUSH1 0x20 ADD PUSH1 0x0 KECCAK256 PUSH1 0x0 SWAP1 SLOAD SWAP1 PUSH2 0x100 EXP SWAP1 DIV PUSH1 0xFF AND PUSH1 0xFF AND DUP2 SLOAD DUP2 LT PUSH2 0xD73 JUMPI PUSH2 0xD72 PUSH2 0x25FC JUMP JUMPDEST JUMPDEST SWAP1 PUSH1 0x0 MSTORE PUSH1 0x20 PUSH1 0x0 KECCAK256 ADD SLOAD PUSH2 0xD88 SWAP2 SWAP1 PUSH2 0x262B JUMP JUMPDEST PUSH2 0xD92 SWAP2 SWAP1 PUSH2 0x25CB JUMP JUMPDEST SWAP1 POP JUMPDEST SWAP2 SWAP1 POP JUMP JUMPDEST PUSH2 0xDA2 PUSH2 0x18A2 JUMP JUMPDEST PUSH20 0xFFFFFFFFFFFFFFFFFFFFFFFFFFFFFFFFFFFFFFFF AND PUSH2 0xDC0 PUSH2 0xE42 JUMP JUMPDEST PUSH20 0xFFFFFFFFFFFFFFFFFFFFFFFFFFFFFFFFFFFFFFFF AND EQ PUSH2 0xE16 JUMPI PUSH1 0x40 MLOAD PUSH32 0x8C379A000000000000000000000000000000000000000000000000000000000 DUP2 MSTORE PUSH1 0x4 ADD PUSH2 0xE0D SWAP1 PUSH2 0x2465 JUMP JUMPDEST PUSH1 0x40 MLOAD DUP1 SWAP2 SUB SWAP1 REVERT JUMPDEST PUSH2 0xE20 PUSH1 0x0 PUSH2 0x1CC3 JUMP JUMPDEST JUMP JUMPDEST PUSH1 0x7 PUSH1 0x20 MSTORE DUP1 PUSH1 0x0 MSTORE PUSH1 0x40 PUSH1 0x0 KECCAK256 PUSH1 0x0 SWAP2 POP SLOAD SWAP1 PUSH2 0x100 EXP SWAP1 DIV PUSH1 0xFF AND DUP2 JUMP JUMPDEST PUSH1 0x0 PUSH1 0x5 PUSH1 0x0 SWAP1 SLOAD SWAP1 PUSH2 0x100 EXP SWAP1 DIV PUSH20 0xFFFFFFFFFFFFFFFFFFFFFFFFFFFFFFFFFFFFFFFF AND SWAP1 POP SWAP1 JUMP JUMPDEST PUSH1 0x60 PUSH1 0x4 DUP1 SLOAD PUSH2 0xE7B SWAP1 PUSH2 0x23E8 JUMP JUMPDEST DUP1 PUSH1 0x1F ADD PUSH1 0x20 DUP1 SWAP2 DIV MUL PUSH1 0x20 ADD PUSH1 0x40 MLOAD SWAP1 DUP2 ADD PUSH1 0x40 MSTORE DUP1 SWAP3 SWAP2 SWAP1 DUP2 DUP2 MSTORE PUSH1 0x20 ADD DUP3 DUP1 SLOAD PUSH2 0xEA7 SWAP1 PUSH2 0x23E8 JUMP JUMPDEST DUP1 ISZERO PUSH2 0xEF4 JUMPI DUP1 PUSH1 0x1F LT PUSH2 0xEC9 JUMPI PUSH2 0x100 DUP1 DUP4 SLOAD DIV MUL DUP4 MSTORE SWAP2 PUSH1 0x20 ADD SWAP2 PUSH2 0xEF4 JUMP JUMPDEST DUP3 ADD SWAP2 SWAP1 PUSH1 0x0 MSTORE PUSH1 0x20 PUSH1 0x0 KECCAK256 SWAP1 JUMPDEST DUP2 SLOAD DUP2 MSTORE SWAP1 PUSH1 0x1 ADD SWAP1 PUSH1 0x20 ADD DUP1 DUP4 GT PUSH2 0xED7 JUMPI DUP3 SWAP1 SUB PUSH1 0x1F AND DUP3 ADD SWAP2 JUMPDEST POP POP POP POP POP SWAP1 POP SWAP1 JUMP JUMPDEST PUSH2 0xF06 PUSH2 0x18A2 JUMP JUMPDEST PUSH20 0xFFFFFFFFFFFFFFFFFFFFFFFFFFFFFFFFFFFFFFFF AND PUSH2 0xF24 PUSH2 0xE42 JUMP JUMPDEST PUSH20 0xFFFFFFFFFFFFFFFFFFFFFFFFFFFFFFFFFFFFFFFF AND EQ PUSH2 0xF7A JUMPI PUSH1 0x40 MLOAD PUSH32 0x8C379A000000000000000000000000000000000000000000000000000000000 DUP2 MSTORE PUSH1 0x4 ADD PUSH2 0xF71 SWAP1 PUSH2 0x2465 JUMP JUMPDEST PUSH1 0x40 MLOAD DUP1 SWAP2 SUB SWAP1 REVERT JUMPDEST PUSH1 0x0 PUSH1 0xA PUSH1 0x2 DUP2 SLOAD DUP2 LT PUSH2 0xF91 JUMPI PUSH2 0xF90 PUSH2 0x25FC JUMP JUMPDEST JUMPDEST SWAP1 PUSH1 0x0 MSTORE PUSH1 0x20 PUSH1 0x0 KECCAK256 ADD SLOAD EQ PUSH2 0x1063 JUMPI PUSH1 0x4 DUP2 PUSH2 0xFAE SWAP2 SWAP1 PUSH2 0x25CB JUMP JUMPDEST PUSH1 0xA PUSH1 0x2 DUP2 SLOAD DUP2 LT PUSH2 0xFC3 JUMPI PUSH2 0xFC2 PUSH2 0x25FC JUMP JUMPDEST JUMPDEST SWAP1 PUSH1 0x0 MSTORE PUSH1 0x20 PUSH1 0x0 KECCAK256 ADD SLOAD PUSH2 0xFD8 SWAP2 SWAP1 PUSH2 0x2546 JUMP JUMPDEST PUSH1 0x9 PUSH1 0x2 DUP2 SLOAD DUP2 LT PUSH2 0xFED JUMPI PUSH2 0xFEC PUSH2 0x25FC JUMP JUMPDEST JUMPDEST SWAP1 PUSH1 0x0 MSTORE PUSH1 0x20 PUSH1 0x0 KECCAK256 ADD PUSH1 0x0 DUP3 DUP3 SLOAD PUSH2 0x1006 SWAP2 SWAP1 PUSH2 0x262B JUMP JUMPDEST SWAP3 POP POP DUP2 SWAP1 SSTORE POP PUSH1 0xA PUSH1 0x2 DUP2 SLOAD DUP2 LT PUSH2 0x1022 JUMPI PUSH2 0x1021 PUSH2 0x25FC JUMP JUMPDEST JUMPDEST SWAP1 PUSH1 0x0 MSTORE PUSH1 0x20 PUSH1 0x0 KECCAK256 ADD SLOAD PUSH1 0x9 PUSH1 0x2 DUP2 SLOAD DUP2 LT PUSH2 0x1042 JUMPI PUSH2 0x1041 PUSH2 0x25FC JUMP JUMPDEST JUMPDEST SWAP1 PUSH1 0x0 MSTORE PUSH1 0x20 PUSH1 0x0 KECCAK256 ADD PUSH1 0x0 DUP3 DUP3 SLOAD PUSH2 0x105B SWAP2 SWAP1 PUSH2 0x25CB JUMP JUMPDEST SWAP3 POP POP DUP2 SWAP1 SSTORE POP JUMPDEST PUSH1 0x0 PUSH1 0xA PUSH1 0x1 DUP2 SLOAD DUP2 LT PUSH2 0x107A JUMPI PUSH2 0x1079 PUSH2 0x25FC JUMP JUMPDEST JUMPDEST SWAP1 PUSH1 0x0 MSTORE PUSH1 0x20 PUSH1 0x0 KECCAK256 ADD SLOAD EQ PUSH2 0x114C JUMPI PUSH1 0x4 DUP2 PUSH2 0x1097 SWAP2 SWAP1 PUSH2 0x25CB JUMP JUMPDEST PUSH1 0xA PUSH1 0x1 DUP2 SLOAD DUP2 LT PUSH2 0x10AC JUMPI PUSH2 0x10AB PUSH2 0x25FC JUMP JUMPDEST JUMPDEST SWAP1 PUSH1 0x0 MSTORE PUSH1 0x20 PUSH1 0x0 KECCAK256 ADD SLOAD PUSH2 0x10C1 SWAP2 SWAP1 PUSH2 0x2546 JUMP JUMPDEST PUSH1 0x9 PUSH1 0x1 DUP2 SLOAD DUP2 LT PUSH2 0x10D6 JUMPI PUSH2 0x10D5 PUSH2 0x25FC JUMP JUMPDEST JUMPDEST SWAP1 PUSH1 0x0 MSTORE PUSH1 0x20 PUSH1 0x0 KECCAK256 ADD PUSH1 0x0 DUP3 DUP3 SLOAD PUSH2 0x10EF SWAP2 SWAP1 PUSH2 0x262B JUMP JUMPDEST SWAP3 POP POP DUP2 SWAP1 SSTORE POP PUSH1 0xA PUSH1 0x1 DUP2 SLOAD DUP2 LT PUSH2 0x110B JUMPI PUSH2 0x110A PUSH2 0x25FC JUMP JUMPDEST JUMPDEST SWAP1 PUSH1 0x0 MSTORE PUSH1 0x20 PUSH1 0x0 KECCAK256 ADD SLOAD PUSH1 0x9 PUSH1 0x1 DUP2 SLOAD DUP2 LT PUSH2 0x112B JUMPI PUSH2 0x112A PUSH2 0x25FC JUMP JUMPDEST JUMPDEST SWAP1 PUSH1 0x0 MSTORE PUSH1 0x20 PUSH1 0x0 KECCAK256 ADD PUSH1 0x0 DUP3 DUP3 SLOAD PUSH2 0x1144 SWAP2 SWAP1 PUSH2 0x25CB JUMP JUMPDEST SWAP3 POP POP DUP2 SWAP1 SSTORE POP JUMPDEST PUSH1 0x2 DUP2 PUSH2 0x1159 SWAP2 SWAP1 PUSH2 0x25CB JUMP JUMPDEST PUSH1 0x0 DUP1 PUSH1 0xB PUSH1 0x0 SWAP1 SLOAD SWAP1 PUSH2 0x100 EXP SWAP1 DIV PUSH20 0xFFFFFFFFFFFFFFFFFFFFFFFFFFFFFFFFFFFFFFFF AND PUSH20 0xFFFFFFFFFFFFFFFFFFFFFFFFFFFFFFFFFFFFFFFF AND PUSH20 0xFFFFFFFFFFFFFFFFFFFFFFFFFFFFFFFFFFFFFFFF AND DUP2 MSTORE PUSH1 0x20 ADD SWAP1 DUP2 MSTORE PUSH1 0x20 ADD PUSH1 0x0 KECCAK256 PUSH1 0x0 DUP3 DUP3 SLOAD PUSH2 0x11C8 SWAP2 SWAP1 PUSH2 0x2546 JUMP JUMPDEST SWAP3 POP POP DUP2 SWAP1 SSTORE POP PUSH1 0x4 DUP2 PUSH2 0x11DC SWAP2 SWAP1 PUSH2 0x25CB JUMP JUMPDEST PUSH1 0xA PUSH1 0x1 DUP2 SLOAD DUP2 LT PUSH2 0x11F1 JUMPI PUSH2 0x11F0 PUSH2 0x25FC JUMP JUMPDEST JUMPDEST SWAP1 PUSH1 0x0 MSTORE PUSH1 0x20 PUSH1 0x0 KECCAK256 ADD PUSH1 0x0 DUP3 DUP3 SLOAD PUSH2 0x120A SWAP2 SWAP1 PUSH2 0x2546 JUMP JUMPDEST SWAP3 POP POP DUP2 SWAP1 SSTORE POP PUSH1 0x4 DUP2 PUSH2 0x121E SWAP2 SWAP1 PUSH2 0x25CB JUMP JUMPDEST PUSH1 0xA PUSH1 0x2 DUP2 SLOAD DUP2 LT PUSH2 0x1233 JUMPI PUSH2 0x1232 PUSH2 0x25FC JUMP JUMPDEST JUMPDEST SWAP1 PUSH1 0x0 MSTORE PUSH1 0x20 PUSH1 0x0 KECCAK256 ADD PUSH1 0x0 DUP3 DUP3 SLOAD PUSH2 0x124C SWAP2 SWAP1 PUSH2 0x2546 JUMP JUMPDEST SWAP3 POP POP DUP2 SWAP1 SSTORE POP DUP1 PUSH1 0x2 PUSH1 0x0 DUP3 DUP3 SLOAD PUSH2 0x1265 SWAP2 SWAP1 PUSH2 0x2546 JUMP JUMPDEST SWAP3 POP POP DUP2 SWAP1 SSTORE POP POP JUMP JUMPDEST PUSH2 0x1277 PUSH2 0x18A2 JUMP JUMPDEST PUSH20 0xFFFFFFFFFFFFFFFFFFFFFFFFFFFFFFFFFFFFFFFF AND PUSH2 0x1295 PUSH2 0xE42 JUMP JUMPDEST PUSH20 0xFFFFFFFFFFFFFFFFFFFFFFFFFFFFFFFFFFFFFFFF AND EQ PUSH2 0x12EB JUMPI PUSH1 0x40 MLOAD PUSH32 0x8C379A000000000000000000000000000000000000000000000000000000000 DUP2 MSTORE PUSH1 0x4 ADD PUSH2 0x12E2 SWAP1 PUSH2 0x2465 JUMP JUMPDEST PUSH1 0x40 MLOAD DUP1 SWAP2 SUB SWAP1 REVERT JUMPDEST PUSH2 0x12F4 DUP3 PUSH2 0x1A73 JUMP JUMPDEST PUSH1 0x0 PUSH1 0x7 PUSH1 0x0 DUP5 PUSH20 0xFFFFFFFFFFFFFFFFFFFFFFFFFFFFFFFFFFFFFFFF AND PUSH20 0xFFFFFFFFFFFFFFFFFFFFFFFFFFFFFFFFFFFFFFFF AND DUP2 MSTORE PUSH1 0x20 ADD SWAP1 DUP2 MSTORE PUSH1 0x20 ADD PUSH1 0x0 KECCAK256 PUSH1 0x0 SWAP1 SLOAD SWAP1 PUSH2 0x100 EXP SWAP1 DIV PUSH1 0xFF AND SWAP1 POP DUP2 PUSH1 0x7 PUSH1 0x0 DUP6 PUSH20 0xFFFFFFFFFFFFFFFFFFFFFFFFFFFFFFFFFFFFFFFF AND PUSH20 0xFFFFFFFFFFFFFFFFFFFFFFFFFFFFFFFFFFFFFFFF AND DUP2 MSTORE PUSH1 0x20 ADD SWAP1 DUP2 MSTORE PUSH1 0x20 ADD PUSH1 0x0 KECCAK256 PUSH1 0x0 PUSH2 0x100 EXP DUP2 SLOAD DUP2 PUSH1 0xFF MUL NOT AND SWAP1 DUP4 PUSH1 0xFF AND MUL OR SWAP1 SSTORE POP PUSH1 0x0 DUP1 DUP5 PUSH20 0xFFFFFFFFFFFFFFFFFFFFFFFFFFFFFFFFFFFFFFFF AND PUSH20 0xFFFFFFFFFFFFFFFFFFFFFFFFFFFFFFFFFFFFFFFF AND DUP2 MSTORE PUSH1 0x20 ADD SWAP1 DUP2 MSTORE PUSH1 0x20 ADD PUSH1 0x0 KECCAK256 SLOAD PUSH1 0xA DUP3 PUSH1 0xFF AND DUP2 SLOAD DUP2 LT PUSH2 0x13F3 JUMPI PUSH2 0x13F2 PUSH2 0x25FC JUMP JUMPDEST JUMPDEST SWAP1 PUSH1 0x0 MSTORE PUSH1 0x20 PUSH1 0x0 KECCAK256 ADD PUSH1 0x0 DUP3 DUP3 SLOAD PUSH2 0x140C SWAP2 SWAP1 PUSH2 0x274E JUMP JUMPDEST SWAP3 POP POP DUP2 SWAP1 SSTORE POP PUSH1 0x0 DUP1 DUP5 PUSH20 0xFFFFFFFFFFFFFFFFFFFFFFFFFFFFFFFFFFFFFFFF AND PUSH20 0xFFFFFFFFFFFFFFFFFFFFFFFFFFFFFFFFFFFFFFFF AND DUP2 MSTORE PUSH1 0x20 ADD SWAP1 DUP2 MSTORE PUSH1 0x20 ADD PUSH1 0x0 KECCAK256 SLOAD PUSH1 0xA DUP4 PUSH1 0xFF AND DUP2 SLOAD DUP2 LT PUSH2 0x1469 JUMPI PUSH2 0x1468 PUSH2 0x25FC JUMP JUMPDEST JUMPDEST SWAP1 PUSH1 0x0 MSTORE PUSH1 0x20 PUSH1 0x0 KECCAK256 ADD PUSH1 0x0 DUP3 DUP3 SLOAD PUSH2 0x1482 SWAP2 SWAP1 PUSH2 0x2546 JUMP JUMPDEST SWAP3 POP POP DUP2 SWAP1 SSTORE POP PUSH1 0x9 DUP3 PUSH1 0xFF AND DUP2 SLOAD DUP2 LT PUSH2 0x14A0 JUMPI PUSH2 0x149F PUSH2 0x25FC JUMP JUMPDEST JUMPDEST SWAP1 PUSH1 0x0 MSTORE PUSH1 0x20 PUSH1 0x0 KECCAK256 ADD SLOAD PUSH1 0x6 PUSH1 0x0 DUP6 PUSH20 0xFFFFFFFFFFFFFFFFFFFFFFFFFFFFFFFFFFFFFFFF AND PUSH20 0xFFFFFFFFFFFFFFFFFFFFFFFFFFFFFFFFFFFFFFFF AND DUP2 MSTORE PUSH1 0x20 ADD SWAP1 DUP2 MSTORE PUSH1 0x20 ADD PUSH1 0x0 KECCAK256 DUP2 SWAP1 SSTORE POP POP POP POP JUMP JUMPDEST PUSH1 0x0 DUP1 PUSH1 0x1 PUSH1 0x0 PUSH2 0x1502 PUSH2 0x18A2 JUMP JUMPDEST PUSH20 0xFFFFFFFFFFFFFFFFFFFFFFFFFFFFFFFFFFFFFFFF AND PUSH20 0xFFFFFFFFFFFFFFFFFFFFFFFFFFFFFFFFFFFFFFFF AND DUP2 MSTORE PUSH1 0x20 ADD SWAP1 DUP2 MSTORE PUSH1 0x20 ADD PUSH1 0x0 KECCAK256 PUSH1 0x0 DUP6 PUSH20 0xFFFFFFFFFFFFFFFFFFFFFFFFFFFFFFFFFFFFFFFF AND PUSH20 0xFFFFFFFFFFFFFFFFFFFFFFFFFFFFFFFFFFFFFFFF AND DUP2 MSTORE PUSH1 0x20 ADD SWAP1 DUP2 MSTORE PUSH1 0x20 ADD PUSH1 0x0 KECCAK256 SLOAD SWAP1 POP DUP3 DUP2 LT ISZERO PUSH2 0x15BF JUMPI PUSH1 0x40 MLOAD PUSH32 0x8C379A000000000000000000000000000000000000000000000000000000000 DUP2 MSTORE PUSH1 0x4 ADD PUSH2 0x15B6 SWAP1 PUSH2 0x27F4 JUMP JUMPDEST PUSH1 0x40 MLOAD DUP1 SWAP2 SUB SWAP1 REVERT JUMPDEST PUSH2 0x15DC PUSH2 0x15CA PUSH2 0x18A2 JUMP JUMPDEST DUP6 DUP6 DUP5 PUSH2 0x15D7 SWAP2 SWAP1 PUSH2 0x274E JUMP JUMPDEST PUSH2 0x18AA JUMP JUMPDEST PUSH1 0x1 SWAP2 POP POP SWAP3 SWAP2 POP POP JUMP JUMPDEST PUSH1 0x0 DUP1 PUSH2 0x15F2 PUSH2 0x18A2 JUMP JUMPDEST SWAP1 POP PUSH2 0x15FD DUP2 PUSH2 0x1A73 JUMP JUMPDEST PUSH2 0x1606 DUP5 PUSH2 0x1A73 JUMP JUMPDEST DUP3 PUSH1 0xA PUSH1 0x7 PUSH1 0x0 DUP5 PUSH20 0xFFFFFFFFFFFFFFFFFFFFFFFFFFFFFFFFFFFFFFFF AND PUSH20 0xFFFFFFFFFFFFFFFFFFFFFFFFFFFFFFFFFFFFFFFF AND DUP2 MSTORE PUSH1 0x20 ADD SWAP1 DUP2 MSTORE PUSH1 0x20 ADD PUSH1 0x0 KECCAK256 PUSH1 0x0 SWAP1 SLOAD SWAP1 PUSH2 0x100 EXP SWAP1 DIV PUSH1 0xFF AND PUSH1 0xFF AND DUP2 SLOAD DUP2 LT PUSH2 0x166A JUMPI PUSH2 0x1669 PUSH2 0x25FC JUMP JUMPDEST JUMPDEST SWAP1 PUSH1 0x0 MSTORE PUSH1 0x20 PUSH1 0x0 KECCAK256 ADD PUSH1 0x0 DUP3 DUP3 SLOAD PUSH2 0x1683 SWAP2 SWAP1 PUSH2 0x274E JUMP JUMPDEST SWAP3 POP POP DUP2 SWAP1 SSTORE POP DUP3 PUSH1 0xA PUSH1 0x7 PUSH1 0x0 DUP8 PUSH20 0xFFFFFFFFFFFFFFFFFFFFFFFFFFFFFFFFFFFFFFFF AND PUSH20 0xFFFFFFFFFFFFFFFFFFFFFFFFFFFFFFFFFFFFFFFF AND DUP2 MSTORE PUSH1 0x20 ADD SWAP1 DUP2 MSTORE PUSH1 0x20 ADD PUSH1 0x0 KECCAK256 PUSH1 0x0 SWAP1 SLOAD SWAP1 PUSH2 0x100 EXP SWAP1 DIV PUSH1 0xFF AND PUSH1 0xFF AND DUP2 SLOAD DUP2 LT PUSH2 0x16EE JUMPI PUSH2 0x16ED PUSH2 0x25FC JUMP JUMPDEST JUMPDEST SWAP1 PUSH1 0x0 MSTORE PUSH1 0x20 PUSH1 0x0 KECCAK256 ADD PUSH1 0x0 DUP3 DUP3 SLOAD PUSH2 0x1707 SWAP2 SWAP1 PUSH2 0x2546 JUMP JUMPDEST SWAP3 POP POP DUP2 SWAP1 SSTORE POP PUSH2 0x1719 DUP2 DUP6 DUP6 PUSH2 0x1D89 JUMP JUMPDEST PUSH1 0x1 SWAP2 POP POP SWAP3 SWAP2 POP POP JUMP JUMPDEST PUSH1 0x0 PUSH1 0x1 PUSH1 0x0 DUP5 PUSH20 0xFFFFFFFFFFFFFFFFFFFFFFFFFFFFFFFFFFFFFFFF AND PUSH20 0xFFFFFFFFFFFFFFFFFFFFFFFFFFFFFFFFFFFFFFFF AND DUP2 MSTORE PUSH1 0x20 ADD SWAP1 DUP2 MSTORE PUSH1 0x20 ADD PUSH1 0x0 KECCAK256 PUSH1 0x0 DUP4 PUSH20 0xFFFFFFFFFFFFFFFFFFFFFFFFFFFFFFFFFFFFFFFF AND PUSH20 0xFFFFFFFFFFFFFFFFFFFFFFFFFFFFFFFFFFFFFFFF AND DUP2 MSTORE PUSH1 0x20 ADD SWAP1 DUP2 MSTORE PUSH1 0x20 ADD PUSH1 0x0 KECCAK256 SLOAD SWAP1 POP SWAP3 SWAP2 POP POP JUMP JUMPDEST PUSH2 0x17B3 PUSH2 0x18A2 JUMP JUMPDEST PUSH20 0xFFFFFFFFFFFFFFFFFFFFFFFFFFFFFFFFFFFFFFFF AND PUSH2 0x17D1 PUSH2 0xE42 JUMP JUMPDEST PUSH20 0xFFFFFFFFFFFFFFFFFFFFFFFFFFFFFFFFFFFFFFFF AND EQ PUSH2 0x1827 JUMPI PUSH1 0x40 MLOAD PUSH32 0x8C379A000000000000000000000000000000000000000000000000000000000 DUP2 MSTORE PUSH1 0x4 ADD PUSH2 0x181E SWAP1 PUSH2 0x2465 JUMP JUMPDEST PUSH1 0x40 MLOAD DUP1 SWAP2 SUB SWAP1 REVERT JUMPDEST PUSH1 0x0 PUSH20 0xFFFFFFFFFFFFFFFFFFFFFFFFFFFFFFFFFFFFFFFF AND DUP2 PUSH20 0xFFFFFFFFFFFFFFFFFFFFFFFFFFFFFFFFFFFFFFFF AND SUB PUSH2 0x1896 JUMPI PUSH1 0x40 MLOAD PUSH32 0x8C379A000000000000000000000000000000000000000000000000000000000 DUP2 MSTORE PUSH1 0x4 ADD PUSH2 0x188D SWAP1 PUSH2 0x2886 JUMP JUMPDEST PUSH1 0x40 MLOAD DUP1 SWAP2 SUB SWAP1 REVERT JUMPDEST PUSH2 0x189F DUP2 PUSH2 0x1CC3 JUMP JUMPDEST POP JUMP JUMPDEST PUSH1 0x0 CALLER SWAP1 POP SWAP1 JUMP JUMPDEST PUSH1 0x0 PUSH20 0xFFFFFFFFFFFFFFFFFFFFFFFFFFFFFFFFFFFFFFFF AND DUP4 PUSH20 0xFFFFFFFFFFFFFFFFFFFFFFFFFFFFFFFFFFFFFFFF AND SUB PUSH2 0x1919 JUMPI PUSH1 0x40 MLOAD PUSH32 0x8C379A000000000000000000000000000000000000000000000000000000000 DUP2 MSTORE PUSH1 0x4 ADD PUSH2 0x1910 SWAP1 PUSH2 0x2918 JUMP JUMPDEST PUSH1 0x40 MLOAD DUP1 SWAP2 SUB SWAP1 REVERT JUMPDEST PUSH1 0x0 PUSH20 0xFFFFFFFFFFFFFFFFFFFFFFFFFFFFFFFFFFFFFFFF AND DUP3 PUSH20 0xFFFFFFFFFFFFFFFFFFFFFFFFFFFFFFFFFFFFFFFF AND SUB PUSH2 0x1988 JUMPI PUSH1 0x40 MLOAD PUSH32 0x8C379A000000000000000000000000000000000000000000000000000000000 DUP2 MSTORE PUSH1 0x4 ADD PUSH2 0x197F SWAP1 PUSH2 0x29AA JUMP JUMPDEST PUSH1 0x40 MLOAD DUP1 SWAP2 SUB SWAP1 REVERT JUMPDEST DUP1 PUSH1 0x1 PUSH1 0x0 DUP6 PUSH20 0xFFFFFFFFFFFFFFFFFFFFFFFFFFFFFFFFFFFFFFFF AND PUSH20 0xFFFFFFFFFFFFFFFFFFFFFFFFFFFFFFFFFFFFFFFF AND DUP2 MSTORE PUSH1 0x20 ADD SWAP1 DUP2 MSTORE PUSH1 0x20 ADD PUSH1 0x0 KECCAK256 PUSH1 0x0 DUP5 PUSH20 0xFFFFFFFFFFFFFFFFFFFFFFFFFFFFFFFFFFFFFFFF AND PUSH20 0xFFFFFFFFFFFFFFFFFFFFFFFFFFFFFFFFFFFFFFFF AND DUP2 MSTORE PUSH1 0x20 ADD SWAP1 DUP2 MSTORE PUSH1 0x20 ADD PUSH1 0x0 KECCAK256 DUP2 SWAP1 SSTORE POP DUP2 PUSH20 0xFFFFFFFFFFFFFFFFFFFFFFFFFFFFFFFFFFFFFFFF AND DUP4 PUSH20 0xFFFFFFFFFFFFFFFFFFFFFFFFFFFFFFFFFFFFFFFF AND PUSH32 0x8C5BE1E5EBEC7D5BD14F71427D1E84F3DD0314C0F7B2291E5B200AC8C7C3B925 DUP4 PUSH1 0x40 MLOAD PUSH2 0x1A66 SWAP2 SWAP1 PUSH2 0x21E4 JUMP JUMPDEST PUSH1 0x40 MLOAD DUP1 SWAP2 SUB SWAP1 LOG3 POP POP POP JUMP JUMPDEST PUSH1 0x0 PUSH1 0x7 PUSH1 0x0 DUP4 PUSH20 0xFFFFFFFFFFFFFFFFFFFFFFFFFFFFFFFFFFFFFFFF AND PUSH20 0xFFFFFFFFFFFFFFFFFFFFFFFFFFFFFFFFFFFFFFFF AND DUP2 MSTORE PUSH1 0x20 ADD SWAP1 DUP2 MSTORE PUSH1 0x20 ADD PUSH1 0x0 KECCAK256 PUSH1 0x0 SWAP1 SLOAD SWAP1 PUSH2 0x100 EXP SWAP1 DIV PUSH1 0xFF AND PUSH1 0xFF AND SUB ISZERO PUSH2 0x1CC0 JUMPI PUSH1 0x6 PUSH1 0x0 DUP3 PUSH20 0xFFFFFFFFFFFFFFFFFFFFFFFFFFFFFFFFFFFFFFFF AND PUSH20 0xFFFFFFFFFFFFFFFFFFFFFFFFFFFFFFFFFFFFFFFF AND DUP2 MSTORE PUSH1 0x20 ADD SWAP1 DUP2 MSTORE PUSH1 0x20 ADD PUSH1 0x0 KECCAK256 SLOAD PUSH1 0x0 DUP1 DUP4 PUSH20 0xFFFFFFFFFFFFFFFFFFFFFFFFFFFFFFFFFFFFFFFF AND PUSH20 0xFFFFFFFFFFFFFFFFFFFFFFFFFFFFFFFFFFFFFFFF AND DUP2 MSTORE PUSH1 0x20 ADD SWAP1 DUP2 MSTORE PUSH1 0x20 ADD PUSH1 0x0 KECCAK256 SLOAD PUSH1 0x9 PUSH1 0x7 PUSH1 0x0 DUP6 PUSH20 0xFFFFFFFFFFFFFFFFFFFFFFFFFFFFFFFFFFFFFFFF AND PUSH20 0xFFFFFFFFFFFFFFFFFFFFFFFFFFFFFFFFFFFFFFFF AND DUP2 MSTORE PUSH1 0x20 ADD SWAP1 DUP2 MSTORE PUSH1 0x20 ADD PUSH1 0x0 KECCAK256 PUSH1 0x0 SWAP1 SLOAD SWAP1 PUSH2 0x100 EXP SWAP1 DIV PUSH1 0xFF AND PUSH1 0xFF AND DUP2 SLOAD DUP2 LT PUSH2 0x1BAD JUMPI PUSH2 0x1BAC PUSH2 0x25FC JUMP JUMPDEST JUMPDEST SWAP1 PUSH1 0x0 MSTORE PUSH1 0x20 PUSH1 0x0 KECCAK256 ADD SLOAD PUSH2 0x1BC2 SWAP2 SWAP1 PUSH2 0x262B JUMP JUMPDEST PUSH2 0x1BCC SWAP2 SWAP1 PUSH2 0x25CB JUMP JUMPDEST PUSH1 0x0 DUP1 DUP4 PUSH20 0xFFFFFFFFFFFFFFFFFFFFFFFFFFFFFFFFFFFFFFFF AND PUSH20 0xFFFFFFFFFFFFFFFFFFFFFFFFFFFFFFFFFFFFFFFF AND DUP2 MSTORE PUSH1 0x20 ADD SWAP1 DUP2 MSTORE PUSH1 0x20 ADD PUSH1 0x0 KECCAK256 DUP2 SWAP1 SSTORE POP PUSH1 0x9 PUSH1 0x7 PUSH1 0x0 DUP4 PUSH20 0xFFFFFFFFFFFFFFFFFFFFFFFFFFFFFFFFFFFFFFFF AND PUSH20 0xFFFFFFFFFFFFFFFFFFFFFFFFFFFFFFFFFFFFFFFF AND DUP2 MSTORE PUSH1 0x20 ADD SWAP1 DUP2 MSTORE PUSH1 0x20 ADD PUSH1 0x0 KECCAK256 PUSH1 0x0 SWAP1 SLOAD SWAP1 PUSH2 0x100 EXP SWAP1 DIV PUSH1 0xFF AND PUSH1 0xFF AND DUP2 SLOAD DUP2 LT PUSH2 0x1C71 JUMPI PUSH2 0x1C70 PUSH2 0x25FC JUMP JUMPDEST JUMPDEST SWAP1 PUSH1 0x0 MSTORE PUSH1 0x20 PUSH1 0x0 KECCAK256 ADD SLOAD PUSH1 0x6 PUSH1 0x0 DUP4 PUSH20 0xFFFFFFFFFFFFFFFFFFFFFFFFFFFFFFFFFFFFFFFF AND PUSH20 0xFFFFFFFFFFFFFFFFFFFFFFFFFFFFFFFFFFFFFFFF AND DUP2 MSTORE PUSH1 0x20 ADD SWAP1 DUP2 MSTORE PUSH1 0x20 ADD PUSH1 0x0 KECCAK256 DUP2 SWAP1 SSTORE POP JUMPDEST POP JUMP JUMPDEST PUSH1 0x0 PUSH1 0x5 PUSH1 0x0 SWAP1 SLOAD SWAP1 PUSH2 0x100 EXP SWAP1 DIV PUSH20 0xFFFFFFFFFFFFFFFFFFFFFFFFFFFFFFFFFFFFFFFF AND SWAP1 POP DUP2 PUSH1 0x5 PUSH1 0x0 PUSH2 0x100 EXP DUP2 SLOAD DUP2 PUSH20 0xFFFFFFFFFFFFFFFFFFFFFFFFFFFFFFFFFFFFFFFF MUL NOT AND SWAP1 DUP4 PUSH20 0xFFFFFFFFFFFFFFFFFFFFFFFFFFFFFFFFFFFFFFFF AND MUL OR SWAP1 SSTORE POP DUP2 PUSH20 0xFFFFFFFFFFFFFFFFFFFFFFFFFFFFFFFFFFFFFFFF AND DUP2 PUSH20 0xFFFFFFFFFFFFFFFFFFFFFFFFFFFFFFFFFFFFFFFF AND PUSH32 0x8BE0079C531659141344CD1FD0A4F28419497F9722A3DAAFE3B4186F6B6457E0 PUSH1 0x40 MLOAD PUSH1 0x40 MLOAD DUP1 SWAP2 SUB SWAP1 LOG3 POP POP JUMP JUMPDEST PUSH1 0x0 PUSH20 0xFFFFFFFFFFFFFFFFFFFFFFFFFFFFFFFFFFFFFFFF AND DUP4 PUSH20 0xFFFFFFFFFFFFFFFFFFFFFFFFFFFFFFFFFFFFFFFF AND SUB PUSH2 0x1DF8 JUMPI PUSH1 0x40 MLOAD PUSH32 0x8C379A000000000000000000000000000000000000000000000000000000000 DUP2 MSTORE PUSH1 0x4 ADD PUSH2 0x1DEF SWAP1 PUSH2 0x2A3C JUMP JUMPDEST PUSH1 0x40 MLOAD DUP1 SWAP2 SUB SWAP1 REVERT JUMPDEST PUSH1 0x0 PUSH20 0xFFFFFFFFFFFFFFFFFFFFFFFFFFFFFFFFFFFFFFFF AND DUP3 PUSH20 0xFFFFFFFFFFFFFFFFFFFFFFFFFFFFFFFFFFFFFFFF AND SUB PUSH2 0x1E67 JUMPI PUSH1 0x40 MLOAD PUSH32 0x8C379A000000000000000000000000000000000000000000000000000000000 DUP2 MSTORE PUSH1 0x4 ADD PUSH2 0x1E5E SWAP1 PUSH2 0x2ACE JUMP JUMPDEST PUSH1 0x40 MLOAD DUP1 SWAP2 SUB SWAP1 REVERT JUMPDEST PUSH2 0x1E72 DUP4 DUP4 DUP4 PUSH2 0x2006 JUMP JUMPDEST PUSH1 0x0 DUP1 PUSH1 0x0 DUP6 PUSH20 0xFFFFFFFFFFFFFFFFFFFFFFFFFFFFFFFFFFFFFFFF AND PUSH20 0xFFFFFFFFFFFFFFFFFFFFFFFFFFFFFFFFFFFFFFFF AND DUP2 MSTORE PUSH1 0x20 ADD SWAP1 DUP2 MSTORE PUSH1 0x20 ADD PUSH1 0x0 KECCAK256 SLOAD SWAP1 POP DUP2 DUP2 LT ISZERO PUSH2 0x1EF8 JUMPI PUSH1 0x40 MLOAD PUSH32 0x8C379A000000000000000000000000000000000000000000000000000000000 DUP2 MSTORE PUSH1 0x4 ADD PUSH2 0x1EEF SWAP1 PUSH2 0x2B60 JUMP JUMPDEST PUSH1 0x40 MLOAD DUP1 SWAP2 SUB SWAP1 REVERT JUMPDEST DUP2 DUP2 PUSH2 0x1F04 SWAP2 SWAP1 PUSH2 0x274E JUMP JUMPDEST PUSH1 0x0 DUP1 DUP7 PUSH20 0xFFFFFFFFFFFFFFFFFFFFFFFFFFFFFFFFFFFFFFFF AND PUSH20 0xFFFFFFFFFFFFFFFFFFFFFFFFFFFFFFFFFFFFFFFF AND DUP2 MSTORE PUSH1 0x20 ADD SWAP1 DUP2 MSTORE PUSH1 0x20 ADD PUSH1 0x0 KECCAK256 DUP2 SWAP1 SSTORE POP DUP2 PUSH1 0x0 DUP1 DUP6 PUSH20 0xFFFFFFFFFFFFFFFFFFFFFFFFFFFFFFFFFFFFFFFF AND PUSH20 0xFFFFFFFFFFFFFFFFFFFFFFFFFFFFFFFFFFFFFFFF AND DUP2 MSTORE PUSH1 0x20 ADD SWAP1 DUP2 MSTORE PUSH1 0x20 ADD PUSH1 0x0 KECCAK256 PUSH1 0x0 DUP3 DUP3 SLOAD PUSH2 0x1F94 SWAP2 SWAP1 PUSH2 0x2546 JUMP JUMPDEST SWAP3 POP POP DUP2 SWAP1 SSTORE POP DUP3 PUSH20 0xFFFFFFFFFFFFFFFFFFFFFFFFFFFFFFFFFFFFFFFF AND DUP5 PUSH20 0xFFFFFFFFFFFFFFFFFFFFFFFFFFFFFFFFFFFFFFFF AND PUSH32 0xDDF252AD1BE2C89B69C2B068FC378DAA952BA7F163C4A11628F55A4DF523B3EF DUP5 PUSH1 0x40 MLOAD PUSH2 0x1FF8 SWAP2 SWAP1 PUSH2 0x21E4 JUMP JUMPDEST PUSH1 0x40 MLOAD DUP1 SWAP2 SUB SWAP1 LOG3 POP POP POP POP JUMP JUMPDEST POP POP POP JUMP JUMPDEST PUSH1 0x0 DUP2 MLOAD SWAP1 POP SWAP2 SWAP1 POP JUMP JUMPDEST PUSH1 0x0 DUP3 DUP3 MSTORE PUSH1 0x20 DUP3 ADD SWAP1 POP SWAP3 SWAP2 POP POP JUMP JUMPDEST PUSH1 0x0 JUMPDEST DUP4 DUP2 LT ISZERO PUSH2 0x2045 JUMPI DUP1 DUP3 ADD MLOAD DUP2 DUP5 ADD MSTORE PUSH1 0x20 DUP2 ADD SWAP1 POP PUSH2 0x202A JUMP JUMPDEST DUP4 DUP2 GT ISZERO PUSH2 0x2054 JUMPI PUSH1 0x0 DUP5 DUP5 ADD MSTORE JUMPDEST POP POP POP POP JUMP JUMPDEST PUSH1 0x0 PUSH1 0x1F NOT PUSH1 0x1F DUP4 ADD AND SWAP1 POP SWAP2 SWAP1 POP JUMP JUMPDEST PUSH1 0x0 PUSH2 0x2076 DUP3 PUSH2 0x200B JUMP JUMPDEST PUSH2 0x2080 DUP2 DUP6 PUSH2 0x2016 JUMP JUMPDEST SWAP4 POP PUSH2 0x2090 DUP2 DUP6 PUSH1 0x20 DUP7 ADD PUSH2 0x2027 JUMP JUMPDEST PUSH2 0x2099 DUP2 PUSH2 0x205A JUMP JUMPDEST DUP5 ADD SWAP2 POP POP SWAP3 SWAP2 POP POP JUMP JUMPDEST PUSH1 0x0 PUSH1 0x20 DUP3 ADD SWAP1 POP DUP2 DUP2 SUB PUSH1 0x0 DUP4 ADD MSTORE PUSH2 0x20BE DUP2 DUP5 PUSH2 0x206B JUMP JUMPDEST SWAP1 POP SWAP3 SWAP2 POP POP JUMP JUMPDEST PUSH1 0x0 DUP1 REVERT JUMPDEST PUSH1 0x0 PUSH20 0xFFFFFFFFFFFFFFFFFFFFFFFFFFFFFFFFFFFFFFFF DUP3 AND SWAP1 POP SWAP2 SWAP1 POP JUMP JUMPDEST PUSH1 0x0 PUSH2 0x20F6 DUP3 PUSH2 0x20CB JUMP JUMPDEST SWAP1 POP SWAP2 SWAP1 POP JUMP JUMPDEST PUSH2 0x2106 DUP2 PUSH2 0x20EB JUMP JUMPDEST DUP2 EQ PUSH2 0x2111 JUMPI PUSH1 0x0 DUP1 REVERT JUMPDEST POP JUMP JUMPDEST PUSH1 0x0 DUP2 CALLDATALOAD SWAP1 POP PUSH2 0x2123 DUP2 PUSH2 0x20FD JUMP JUMPDEST SWAP3 SWAP2 POP POP JUMP JUMPDEST PUSH1 0x0 DUP2 SWAP1 POP SWAP2 SWAP1 POP JUMP JUMPDEST PUSH2 0x213C DUP2 PUSH2 0x2129 JUMP JUMPDEST DUP2 EQ PUSH2 0x2147 JUMPI PUSH1 0x0 DUP1 REVERT JUMPDEST POP JUMP JUMPDEST PUSH1 0x0 DUP2 CALLDATALOAD SWAP1 POP PUSH2 0x2159 DUP2 PUSH2 0x2133 JUMP JUMPDEST SWAP3 SWAP2 POP POP JUMP JUMPDEST PUSH1 0x0 DUP1 PUSH1 0x40 DUP4 DUP6 SUB SLT ISZERO PUSH2 0x2176 JUMPI PUSH2 0x2175 PUSH2 0x20C6 JUMP JUMPDEST JUMPDEST PUSH1 0x0 PUSH2 0x2184 DUP6 DUP3 DUP7 ADD PUSH2 0x2114 JUMP JUMPDEST SWAP3 POP POP PUSH1 0x20 PUSH2 0x2195 DUP6 DUP3 DUP7 ADD PUSH2 0x214A JUMP JUMPDEST SWAP2 POP POP SWAP3 POP SWAP3 SWAP1 POP JUMP JUMPDEST PUSH1 0x0 DUP2 ISZERO ISZERO SWAP1 POP SWAP2 SWAP1 POP JUMP JUMPDEST PUSH2 0x21B4 DUP2 PUSH2 0x219F JUMP JUMPDEST DUP3 MSTORE POP POP JUMP JUMPDEST PUSH1 0x0 PUSH1 0x20 DUP3 ADD SWAP1 POP PUSH2 0x21CF PUSH1 0x0 DUP4 ADD DUP5 PUSH2 0x21AB JUMP JUMPDEST SWAP3 SWAP2 POP POP JUMP JUMPDEST PUSH2 0x21DE DUP2 PUSH2 0x2129 JUMP JUMPDEST DUP3 MSTORE POP POP JUMP JUMPDEST PUSH1 0x0 PUSH1 0x20 DUP3 ADD SWAP1 POP PUSH2 0x21F9 PUSH1 0x0 DUP4 ADD DUP5 PUSH2 0x21D5 JUMP JUMPDEST SWAP3 SWAP2 POP POP JUMP JUMPDEST PUSH1 0x0 DUP1 PUSH1 0x0 PUSH1 0x60 DUP5 DUP7 SUB SLT ISZERO PUSH2 0x2218 JUMPI PUSH2 0x2217 PUSH2 0x20C6 JUMP JUMPDEST JUMPDEST PUSH1 0x0 PUSH2 0x2226 DUP7 DUP3 DUP8 ADD PUSH2 0x2114 JUMP JUMPDEST SWAP4 POP POP PUSH1 0x20 PUSH2 0x2237 DUP7 DUP3 DUP8 ADD PUSH2 0x2114 JUMP JUMPDEST SWAP3 POP POP PUSH1 0x40 PUSH2 0x2248 DUP7 DUP3 DUP8 ADD PUSH2 0x214A JUMP JUMPDEST SWAP2 POP POP SWAP3 POP SWAP3 POP SWAP3 JUMP JUMPDEST PUSH1 0x0 PUSH1 0xFF DUP3 AND SWAP1 POP SWAP2 SWAP1 POP JUMP JUMPDEST PUSH2 0x2268 DUP2 PUSH2 0x2252 JUMP JUMPDEST DUP3 MSTORE POP POP JUMP JUMPDEST PUSH1 0x0 PUSH1 0x20 DUP3 ADD SWAP1 POP PUSH2 0x2283 PUSH1 0x0 DUP4 ADD DUP5 PUSH2 0x225F JUMP JUMPDEST SWAP3 SWAP2 POP POP JUMP JUMPDEST PUSH1 0x0 PUSH1 0x20 DUP3 DUP5 SUB SLT ISZERO PUSH2 0x229F JUMPI PUSH2 0x229E PUSH2 0x20C6 JUMP JUMPDEST JUMPDEST PUSH1 0x0 PUSH2 0x22AD DUP5 DUP3 DUP6 ADD PUSH2 0x214A JUMP JUMPDEST SWAP2 POP POP SWAP3 SWAP2 POP POP JUMP JUMPDEST PUSH1 0x0 PUSH1 0x20 DUP3 DUP5 SUB SLT ISZERO PUSH2 0x22CC JUMPI PUSH2 0x22CB PUSH2 0x20C6 JUMP JUMPDEST JUMPDEST PUSH1 0x0 PUSH2 0x22DA DUP5 DUP3 DUP6 ADD PUSH2 0x2114 JUMP JUMPDEST SWAP2 POP POP SWAP3 SWAP2 POP POP JUMP JUMPDEST PUSH2 0x22EC DUP2 PUSH2 0x20EB JUMP JUMPDEST DUP3 MSTORE POP POP JUMP JUMPDEST PUSH1 0x0 PUSH1 0x20 DUP3 ADD SWAP1 POP PUSH2 0x2307 PUSH1 0x0 DUP4 ADD DUP5 PUSH2 0x22E3 JUMP JUMPDEST SWAP3 SWAP2 POP POP JUMP JUMPDEST PUSH2 0x2316 DUP2 PUSH2 0x2252 JUMP JUMPDEST DUP2 EQ PUSH2 0x2321 JUMPI PUSH1 0x0 DUP1 REVERT JUMPDEST POP JUMP JUMPDEST PUSH1 0x0 DUP2 CALLDATALOAD SWAP1 POP PUSH2 0x2333 DUP2 PUSH2 0x230D JUMP JUMPDEST SWAP3 SWAP2 POP POP JUMP JUMPDEST PUSH1 0x0 DUP1 PUSH1 0x40 DUP4 DUP6 SUB SLT ISZERO PUSH2 0x2350 JUMPI PUSH2 0x234F PUSH2 0x20C6 JUMP JUMPDEST JUMPDEST PUSH1 0x0 PUSH2 0x235E DUP6 DUP3 DUP7 ADD PUSH2 0x2114 JUMP JUMPDEST SWAP3 POP POP PUSH1 0x20 PUSH2 0x236F DUP6 DUP3 DUP7 ADD PUSH2 0x2324 JUMP JUMPDEST SWAP2 POP POP SWAP3 POP SWAP3 SWAP1 POP JUMP JUMPDEST PUSH1 0x0 DUP1 PUSH1 0x40 DUP4 DUP6 SUB SLT ISZERO PUSH2 0x2390 JUMPI PUSH2 0x238F PUSH2 0x20C6 JUMP JUMPDEST JUMPDEST PUSH1 0x0 PUSH2 0x239E DUP6 DUP3 DUP7 ADD PUSH2 0x2114 JUMP JUMPDEST SWAP3 POP POP PUSH1 0x20 PUSH2 0x23AF DUP6 DUP3 DUP7 ADD PUSH2 0x2114 JUMP JUMPDEST SWAP2 POP POP SWAP3 POP SWAP3 SWAP1 POP JUMP JUMPDEST PUSH32 0x4E487B7100000000000000000000000000000000000000000000000000000000 PUSH1 0x0 MSTORE PUSH1 0x22 PUSH1 0x4 MSTORE PUSH1 0x24 PUSH1 0x0 REVERT JUMPDEST PUSH1 0x0 PUSH1 0x2 DUP3 DIV SWAP1 POP PUSH1 0x1 DUP3 AND DUP1 PUSH2 0x2400 JUMPI PUSH1 0x7F DUP3 AND SWAP2 POP JUMPDEST PUSH1 0x20 DUP3 LT DUP2 SUB PUSH2 0x2413 JUMPI PUSH2 0x2412 PUSH2 0x23B9 JUMP JUMPDEST JUMPDEST POP SWAP2 SWAP1 POP JUMP JUMPDEST PUSH32 0x4F776E61626C653A2063616C6C6572206973206E6F7420746865206F776E6572 PUSH1 0x0 DUP3 ADD MSTORE POP JUMP JUMPDEST PUSH1 0x0 PUSH2 0x244F PUSH1 0x20 DUP4 PUSH2 0x2016 JUMP JUMPDEST SWAP2 POP PUSH2 0x245A DUP3 PUSH2 0x2419 JUMP JUMPDEST PUSH1 0x20 DUP3 ADD SWAP1 POP SWAP2 SWAP1 POP JUMP JUMPDEST PUSH1 0x0 PUSH1 0x20 DUP3 ADD SWAP1 POP DUP2 DUP2 SUB PUSH1 0x0 DUP4 ADD MSTORE PUSH2 0x247E DUP2 PUSH2 0x2442 JUMP JUMPDEST SWAP1 POP SWAP2 SWAP1 POP JUMP JUMPDEST PUSH32 0x6163636F756E74206973206E6F74206120726567756C6172207368617265686F PUSH1 0x0 DUP3 ADD MSTORE PUSH32 0x6C64657200000000000000000000000000000000000000000000000000000000 PUSH1 0x20 DUP3 ADD MSTORE POP JUMP JUMPDEST PUSH1 0x0 PUSH2 0x24E1 PUSH1 0x24 DUP4 PUSH2 0x2016 JUMP JUMPDEST SWAP2 POP PUSH2 0x24EC DUP3 PUSH2 0x2485 JUMP JUMPDEST PUSH1 0x40 DUP3 ADD SWAP1 POP SWAP2 SWAP1 POP JUMP JUMPDEST PUSH1 0x0 PUSH1 0x20 DUP3 ADD SWAP1 POP DUP2 DUP2 SUB PUSH1 0x0 DUP4 ADD MSTORE PUSH2 0x2510 DUP2 PUSH2 0x24D4 JUMP JUMPDEST SWAP1 POP SWAP2 SWAP1 POP JUMP JUMPDEST PUSH32 0x4E487B7100000000000000000000000000000000000000000000000000000000 PUSH1 0x0 MSTORE PUSH1 0x11 PUSH1 0x4 MSTORE PUSH1 0x24 PUSH1 0x0 REVERT JUMPDEST PUSH1 0x0 PUSH2 0x2551 DUP3 PUSH2 0x2129 JUMP JUMPDEST SWAP2 POP PUSH2 0x255C DUP4 PUSH2 0x2129 JUMP JUMPDEST SWAP3 POP DUP3 PUSH32 0xFFFFFFFFFFFFFFFFFFFFFFFFFFFFFFFFFFFFFFFFFFFFFFFFFFFFFFFFFFFFFFFF SUB DUP3 GT ISZERO PUSH2 0x2591 JUMPI PUSH2 0x2590 PUSH2 0x2517 JUMP JUMPDEST JUMPDEST DUP3 DUP3 ADD SWAP1 POP SWAP3 SWAP2 POP POP JUMP JUMPDEST PUSH32 0x4E487B7100000000000000000000000000000000000000000000000000000000 PUSH1 0x0 MSTORE PUSH1 0x12 PUSH1 0x4 MSTORE PUSH1 0x24 PUSH1 0x0 REVERT JUMPDEST PUSH1 0x0 PUSH2 0x25D6 DUP3 PUSH2 0x2129 JUMP JUMPDEST SWAP2 POP PUSH2 0x25E1 DUP4 PUSH2 0x2129 JUMP JUMPDEST SWAP3 POP DUP3 PUSH2 0x25F1 JUMPI PUSH2 0x25F0 PUSH2 0x259C JUMP JUMPDEST JUMPDEST DUP3 DUP3 DIV SWAP1 POP SWAP3 SWAP2 POP POP JUMP JUMPDEST PUSH32 0x4E487B7100000000000000000000000000000000000000000000000000000000 PUSH1 0x0 MSTORE PUSH1 0x32 PUSH1 0x4 MSTORE PUSH1 0x24 PUSH1 0x0 REVERT JUMPDEST PUSH1 0x0 PUSH2 0x2636 DUP3 PUSH2 0x2129 JUMP JUMPDEST SWAP2 POP PUSH2 0x2641 DUP4 PUSH2 0x2129 JUMP JUMPDEST SWAP3 POP DUP2 PUSH32 0xFFFFFFFFFFFFFFFFFFFFFFFFFFFFFFFFFFFFFFFFFFFFFFFFFFFFFFFFFFFFFFFF DIV DUP4 GT DUP3 ISZERO ISZERO AND ISZERO PUSH2 0x267A JUMPI PUSH2 0x2679 PUSH2 0x2517 JUMP JUMPDEST JUMPDEST DUP3 DUP3 MUL SWAP1 POP SWAP3 SWAP2 POP POP JUMP JUMPDEST PUSH1 0x0 PUSH2 0x2690 DUP3 PUSH2 0x2252 JUMP JUMPDEST SWAP2 POP PUSH1 0xFF DUP3 SUB PUSH2 0x26A3 JUMPI PUSH2 0x26A2 PUSH2 0x2517 JUMP JUMPDEST JUMPDEST PUSH1 0x1 DUP3 ADD SWAP1 POP SWAP2 SWAP1 POP JUMP JUMPDEST PUSH32 0x6163636F756E74206973206120726567756C6172207368617265686F6C646572 PUSH1 0x0 DUP3 ADD MSTORE POP JUMP JUMPDEST PUSH1 0x0 PUSH2 0x26E4 PUSH1 0x20 DUP4 PUSH2 0x2016 JUMP JUMPDEST SWAP2 POP PUSH2 0x26EF DUP3 PUSH2 0x26AE JUMP JUMPDEST PUSH1 0x20 DUP3 ADD SWAP1 POP SWAP2 SWAP1 POP JUMP JUMPDEST PUSH1 0x0 PUSH1 0x20 DUP3 ADD SWAP1 POP DUP2 DUP2 SUB PUSH1 0x0 DUP4 ADD MSTORE PUSH2 0x2713 DUP2 PUSH2 0x26D7 JUMP JUMPDEST SWAP1 POP SWAP2 SWAP1 POP JUMP JUMPDEST PUSH1 0x0 PUSH2 0x2725 DUP3 PUSH2 0x2252 JUMP JUMPDEST SWAP2 POP PUSH2 0x2730 DUP4 PUSH2 0x2252 JUMP JUMPDEST SWAP3 POP DUP3 DUP3 LT ISZERO PUSH2 0x2743 JUMPI PUSH2 0x2742 PUSH2 0x2517 JUMP JUMPDEST JUMPDEST DUP3 DUP3 SUB SWAP1 POP SWAP3 SWAP2 POP POP JUMP JUMPDEST PUSH1 0x0 PUSH2 0x2759 DUP3 PUSH2 0x2129 JUMP JUMPDEST SWAP2 POP PUSH2 0x2764 DUP4 PUSH2 0x2129 JUMP JUMPDEST SWAP3 POP DUP3 DUP3 LT ISZERO PUSH2 0x2777 JUMPI PUSH2 0x2776 PUSH2 0x2517 JUMP JUMPDEST JUMPDEST DUP3 DUP3 SUB SWAP1 POP SWAP3 SWAP2 POP POP JUMP JUMPDEST PUSH32 0x45524332303A2064656372656173656420616C6C6F77616E63652062656C6F77 PUSH1 0x0 DUP3 ADD MSTORE PUSH32 0x207A65726F000000000000000000000000000000000000000000000000000000 PUSH1 0x20 DUP3 ADD MSTORE POP JUMP JUMPDEST PUSH1 0x0 PUSH2 0x27DE PUSH1 0x25 DUP4 PUSH2 0x2016 JUMP JUMPDEST SWAP2 POP PUSH2 0x27E9 DUP3 PUSH2 0x2782 JUMP JUMPDEST PUSH1 0x40 DUP3 ADD SWAP1 POP SWAP2 SWAP1 POP JUMP JUMPDEST PUSH1 0x0 PUSH1 0x20 DUP3 ADD SWAP1 POP DUP2 DUP2 SUB PUSH1 0x0 DUP4 ADD MSTORE PUSH2 0x280D DUP2 PUSH2 0x27D1 JUMP JUMPDEST SWAP1 POP SWAP2 SWAP1 POP JUMP JUMPDEST PUSH32 0x4F776E61626C653A206E6577206F776E657220697320746865207A65726F2061 PUSH1 0x0 DUP3 ADD MSTORE PUSH32 0x6464726573730000000000000000000000000000000000000000000000000000 PUSH1 0x20 DUP3 ADD MSTORE POP JUMP JUMPDEST PUSH1 0x0 PUSH2 0x2870 PUSH1 0x26 DUP4 PUSH2 0x2016 JUMP JUMPDEST SWAP2 POP PUSH2 0x287B DUP3 PUSH2 0x2814 JUMP JUMPDEST PUSH1 0x40 DUP3 ADD SWAP1 POP SWAP2 SWAP1 POP JUMP JUMPDEST PUSH1 0x0 PUSH1 0x20 DUP3 ADD SWAP1 POP DUP2 DUP2 SUB PUSH1 0x0 DUP4 ADD MSTORE PUSH2 0x289F DUP2 PUSH2 0x2863 JUMP JUMPDEST SWAP1 POP SWAP2 SWAP1 POP JUMP JUMPDEST PUSH32 0x45524332303A20617070726F76652066726F6D20746865207A65726F20616464 PUSH1 0x0 DUP3 ADD MSTORE PUSH32 0x7265737300000000000000000000000000000000000000000000000000000000 PUSH1 0x20 DUP3 ADD MSTORE POP JUMP JUMPDEST PUSH1 0x0 PUSH2 0x2902 PUSH1 0x24 DUP4 PUSH2 0x2016 JUMP JUMPDEST SWAP2 POP PUSH2 0x290D DUP3 PUSH2 0x28A6 JUMP JUMPDEST PUSH1 0x40 DUP3 ADD SWAP1 POP SWAP2 SWAP1 POP JUMP JUMPDEST PUSH1 0x0 PUSH1 0x20 DUP3 ADD SWAP1 POP DUP2 DUP2 SUB PUSH1 0x0 DUP4 ADD MSTORE PUSH2 0x2931 DUP2 PUSH2 0x28F5 JUMP JUMPDEST SWAP1 POP SWAP2 SWAP1 POP JUMP JUMPDEST PUSH32 0x45524332303A20617070726F766520746F20746865207A65726F206164647265 PUSH1 0x0 DUP3 ADD MSTORE PUSH32 0x7373000000000000000000000000000000000000000000000000000000000000 PUSH1 0x20 DUP3 ADD MSTORE POP JUMP JUMPDEST PUSH1 0x0 PUSH2 0x2994 PUSH1 0x22 DUP4 PUSH2 0x2016 JUMP JUMPDEST SWAP2 POP PUSH2 0x299F DUP3 PUSH2 0x2938 JUMP JUMPDEST PUSH1 0x40 DUP3 ADD SWAP1 POP SWAP2 SWAP1 POP JUMP JUMPDEST PUSH1 0x0 PUSH1 0x20 DUP3 ADD SWAP1 POP DUP2 DUP2 SUB PUSH1 0x0 DUP4 ADD MSTORE PUSH2 0x29C3 DUP2 PUSH2 0x2987 JUMP JUMPDEST SWAP1 POP SWAP2 SWAP1 POP JUMP JUMPDEST PUSH32 0x45524332303A207472616E736665722066726F6D20746865207A65726F206164 PUSH1 0x0 DUP3 ADD MSTORE PUSH32 0x6472657373000000000000000000000000000000000000000000000000000000 PUSH1 0x20 DUP3 ADD MSTORE POP JUMP JUMPDEST PUSH1 0x0 PUSH2 0x2A26 PUSH1 0x25 DUP4 PUSH2 0x2016 JUMP JUMPDEST SWAP2 POP PUSH2 0x2A31 DUP3 PUSH2 0x29CA JUMP JUMPDEST PUSH1 0x40 DUP3 ADD SWAP1 POP SWAP2 SWAP1 POP JUMP JUMPDEST PUSH1 0x0 PUSH1 0x20 DUP3 ADD SWAP1 POP DUP2 DUP2 SUB PUSH1 0x0 DUP4 ADD MSTORE PUSH2 0x2A55 DUP2 PUSH2 0x2A19 JUMP JUMPDEST SWAP1 POP SWAP2 SWAP1 POP JUMP JUMPDEST PUSH32 0x45524332303A207472616E7366657220746F20746865207A65726F2061646472 PUSH1 0x0 DUP3 ADD MSTORE PUSH32 0x6573730000000000000000000000000000000000000000000000000000000000 PUSH1 0x20 DUP3 ADD MSTORE POP JUMP JUMPDEST PUSH1 0x0 PUSH2 0x2AB8 PUSH1 0x23 DUP4 PUSH2 0x2016 JUMP JUMPDEST SWAP2 POP PUSH2 0x2AC3 DUP3 PUSH2 0x2A5C JUMP JUMPDEST PUSH1 0x40 DUP3 ADD SWAP1 POP SWAP2 SWAP1 POP JUMP JUMPDEST PUSH1 0x0 PUSH1 0x20 DUP3 ADD SWAP1 POP DUP2 DUP2 SUB PUSH1 0x0 DUP4 ADD MSTORE PUSH2 0x2AE7 DUP2 PUSH2 0x2AAB JUMP JUMPDEST SWAP1 POP SWAP2 SWAP1 POP JUMP JUMPDEST PUSH32 0x45524332303A207472616E7366657220616D6F756E7420657863656564732062 PUSH1 0x0 DUP3 ADD MSTORE PUSH32 0x616C616E63650000000000000000000000000000000000000000000000000000 PUSH1 0x20 DUP3 ADD MSTORE POP JUMP JUMPDEST PUSH1 0x0 PUSH2 0x2B4A PUSH1 0x26 DUP4 PUSH2 0x2016 JUMP JUMPDEST SWAP2 POP PUSH2 0x2B55 DUP3 PUSH2 0x2AEE JUMP JUMPDEST PUSH1 0x40 DUP3 ADD SWAP1 POP SWAP2 SWAP1 POP JUMP JUMPDEST PUSH1 0x0 PUSH1 0x20 DUP3 ADD SWAP1 POP DUP2 DUP2 SUB PUSH1 0x0 DUP4 ADD MSTORE PUSH2 0x2B79 DUP2 PUSH2 0x2B3D JUMP JUMPDEST SWAP1 POP SWAP2 SWAP1 POP JUMP INVALID LOG2 PUSH5 0x6970667358 0x22 SLT KECCAK256 CALLVALUE ADDMOD 0x4D DUP15 SWAP11 LT 0xDB 0x5C 0x2D NUMBER PUSH21 0x1960CA5275E98980DE58D9166922C44BFFD5363987 PUSH5 0x736F6C6343 STOP ADDMOD 0xD STOP CALLER "
				},
				"gasEstimates": {
					"creation": {
						"codeDepositCost": "2238000",
						"executionCost": "infinite",
						"totalCost": "infinite"
					},
					"external": {
						"allowance(address,address)": "infinite",
						"approve(address,uint256)": "infinite",
						"balanceOf(address)": "infinite",
						"changeLvl(address,uint8)": "infinite",
						"cury(uint256)": "infinite",
						"decimals()": "388",
						"decreaseAllowance(address,uint256)": "infinite",
						"increaseAllowance(address,uint256)": "infinite",
						"lvl(address)": "2890",
						"mint(uint256)": "infinite",
						"mintToNRS(address,uint256)": "infinite",
						"mintToRS(address,uint256)": "infinite",
						"name()": "infinite",
						"owner()": "2589",
						"renounceOwnership()": "30397",
						"symbol()": "infinite",
						"totalSupply()": "2549",
						"transfer(address,uint256)": "infinite",
						"transferFrom(address,address,uint256)": "infinite",
						"transferOwnership(address)": "30830"
					},
					"internal": {
						"relaxBalance(address)": "infinite"
					}
				},
				"methodIdentifiers": {
					"allowance(address,address)": "dd62ed3e",
					"approve(address,uint256)": "095ea7b3",
					"balanceOf(address)": "70a08231",
					"changeLvl(address,uint8)": "a33e7d7e",
					"cury(uint256)": "69313678",
					"decimals()": "313ce567",
					"decreaseAllowance(address,uint256)": "a457c2d7",
					"increaseAllowance(address,uint256)": "39509351",
					"lvl(address)": "7a0d944c",
					"mint(uint256)": "a0712d68",
					"mintToNRS(address,uint256)": "1506f480",
					"mintToRS(address,uint256)": "13b954a3",
					"name()": "06fdde03",
					"owner()": "8da5cb5b",
					"renounceOwnership()": "715018a6",
					"symbol()": "95d89b41",
					"totalSupply()": "18160ddd",
					"transfer(address,uint256)": "a9059cbb",
					"transferFrom(address,address,uint256)": "23b872dd",
					"transferOwnership(address)": "f2fde38b"
				}
			},
			"userdoc": {
				"kind": "user",
				"methods": {},
				"version": 1
			}
		}
	}
}