{
  "address": "0x371b1b5A8547D6ea720c233caB55A66683391C65",
  "abi": [
    {
      "inputs": [
        {
          "internalType": "string",
          "name": "name",
          "type": "string"
        },
        {
          "internalType": "string",
          "name": "symbol",
          "type": "string"
        },
        {
          "internalType": "address payable",
          "name": "_fund_wallet",
          "type": "address"
        }
      ],
      "stateMutability": "nonpayable",
      "type": "constructor"
    },
    {
      "anonymous": false,
      "inputs": [
        {
          "indexed": true,
          "internalType": "address",
          "name": "owner",
          "type": "address"
        },
        {
          "indexed": true,
          "internalType": "address",
          "name": "spender",
          "type": "address"
        },
        {
          "indexed": false,
          "internalType": "uint256",
          "name": "value",
          "type": "uint256"
        }
      ],
      "name": "Approval",
      "type": "event"
    },
    {
      "anonymous": false,
      "inputs": [
        {
          "indexed": true,
          "internalType": "address",
          "name": "previousOwner",
          "type": "address"
        },
        {
          "indexed": true,
          "internalType": "address",
          "name": "newOwner",
          "type": "address"
        }
      ],
      "name": "OwnershipTransferred",
      "type": "event"
    },
    {
      "anonymous": false,
      "inputs": [
        {
          "indexed": true,
          "internalType": "address",
          "name": "from",
          "type": "address"
        },
        {
          "indexed": true,
          "internalType": "address",
          "name": "to",
          "type": "address"
        },
        {
          "indexed": false,
          "internalType": "uint256",
          "name": "value",
          "type": "uint256"
        }
      ],
      "name": "Transfer",
      "type": "event"
    },
    {
      "inputs": [
        {
          "internalType": "address",
          "name": "owner",
          "type": "address"
        },
        {
          "internalType": "address",
          "name": "spender",
          "type": "address"
        }
      ],
      "name": "allowance",
      "outputs": [
        {
          "internalType": "uint256",
          "name": "",
          "type": "uint256"
        }
      ],
      "stateMutability": "view",
      "type": "function"
    },
    {
      "inputs": [
        {
          "internalType": "address",
          "name": "spender",
          "type": "address"
        },
        {
          "internalType": "uint256",
          "name": "amount",
          "type": "uint256"
        }
      ],
      "name": "approve",
      "outputs": [
        {
          "internalType": "bool",
          "name": "",
          "type": "bool"
        }
      ],
      "stateMutability": "nonpayable",
      "type": "function"
    },
    {
      "inputs": [
        {
          "internalType": "address",
          "name": "account",
          "type": "address"
        }
      ],
      "name": "balanceOf",
      "outputs": [
        {
          "internalType": "uint256",
          "name": "",
          "type": "uint256"
        }
      ],
      "stateMutability": "view",
      "type": "function"
    },
    {
      "inputs": [
        {
          "internalType": "address",
          "name": "account",
          "type": "address"
        },
        {
          "internalType": "uint8",
          "name": "newLvl",
          "type": "uint8"
        }
      ],
      "name": "changeLvl",
      "outputs": [],
      "stateMutability": "nonpayable",
      "type": "function"
    },
    {
      "inputs": [],
      "name": "decimals",
      "outputs": [
        {
          "internalType": "uint8",
          "name": "",
          "type": "uint8"
        }
      ],
      "stateMutability": "view",
      "type": "function"
    },
    {
      "inputs": [
        {
          "internalType": "address",
          "name": "spender",
          "type": "address"
        },
        {
          "internalType": "uint256",
          "name": "subtractedValue",
          "type": "uint256"
        }
      ],
      "name": "decreaseAllowance",
      "outputs": [
        {
          "internalType": "bool",
          "name": "",
          "type": "bool"
        }
      ],
      "stateMutability": "nonpayable",
      "type": "function"
    },
    {
      "inputs": [],
      "name": "fund_wallet",
      "outputs": [
        {
          "internalType": "address payable",
          "name": "",
          "type": "address"
        }
      ],
      "stateMutability": "view",
      "type": "function"
    },
    {
      "inputs": [
        {
          "internalType": "address",
          "name": "spender",
          "type": "address"
        },
        {
          "internalType": "uint256",
          "name": "addedValue",
          "type": "uint256"
        }
      ],
      "name": "increaseAllowance",
      "outputs": [
        {
          "internalType": "bool",
          "name": "",
          "type": "bool"
        }
      ],
      "stateMutability": "nonpayable",
      "type": "function"
    },
    {
      "inputs": [
        {
          "internalType": "uint256",
          "name": "amount",
          "type": "uint256"
        }
      ],
      "name": "mint",
      "outputs": [],
      "stateMutability": "nonpayable",
      "type": "function"
    },
    {
      "inputs": [
        {
          "internalType": "address",
          "name": "account",
          "type": "address"
        },
        {
          "internalType": "uint256",
          "name": "amount",
          "type": "uint256"
        }
      ],
      "name": "mintToNRS",
      "outputs": [],
      "stateMutability": "nonpayable",
      "type": "function"
    },
    {
      "inputs": [
        {
          "internalType": "address",
          "name": "account",
          "type": "address"
        },
        {
          "internalType": "uint256",
          "name": "amount",
          "type": "uint256"
        }
      ],
      "name": "mintToRS",
      "outputs": [],
      "stateMutability": "nonpayable",
      "type": "function"
    },
    {
      "inputs": [],
      "name": "name",
      "outputs": [
        {
          "internalType": "string",
          "name": "",
          "type": "string"
        }
      ],
      "stateMutability": "view",
      "type": "function"
    },
    {
      "inputs": [],
      "name": "owner",
      "outputs": [
        {
          "internalType": "address",
          "name": "",
          "type": "address"
        }
      ],
      "stateMutability": "view",
      "type": "function"
    },
    {
      "inputs": [],
      "name": "renounceOwnership",
      "outputs": [],
      "stateMutability": "nonpayable",
      "type": "function"
    },
    {
      "inputs": [],
      "name": "symbol",
      "outputs": [
        {
          "internalType": "string",
          "name": "",
          "type": "string"
        }
      ],
      "stateMutability": "view",
      "type": "function"
    },
    {
      "inputs": [],
      "name": "totalSupply",
      "outputs": [
        {
          "internalType": "uint256",
          "name": "",
          "type": "uint256"
        }
      ],
      "stateMutability": "view",
      "type": "function"
    },
    {
      "inputs": [
        {
          "internalType": "address",
          "name": "recipient",
          "type": "address"
        },
        {
          "internalType": "uint256",
          "name": "amount",
          "type": "uint256"
        }
      ],
      "name": "transfer",
      "outputs": [
        {
          "internalType": "bool",
          "name": "",
          "type": "bool"
        }
      ],
      "stateMutability": "nonpayable",
      "type": "function"
    },
    {
      "inputs": [
        {
          "internalType": "address",
          "name": "sender",
          "type": "address"
        },
        {
          "internalType": "address",
          "name": "recipient",
          "type": "address"
        },
        {
          "internalType": "uint256",
          "name": "amount",
          "type": "uint256"
        }
      ],
      "name": "transferFrom",
      "outputs": [
        {
          "internalType": "bool",
          "name": "",
          "type": "bool"
        }
      ],
      "stateMutability": "nonpayable",
      "type": "function"
    },
    {
      "inputs": [
        {
          "internalType": "address",
          "name": "newOwner",
          "type": "address"
        }
      ],
      "name": "transferOwnership",
      "outputs": [],
      "stateMutability": "nonpayable",
      "type": "function"
    }
  ],
  "transactionHash": "0x98d7f7612328b7f47bbebbadd152fbd1913205858a6e3885b7da46433b37028d",
  "args": [
    "AtlantisPayToken",
    "ATPT",
    "0xf92abF80266fD710Ec7a8A644915B458abe34160"
  ],
  "solcInputHash": "84918406e24296a59936172a01faa32d",
  "bytecode": "0x60806040523480156200001157600080fd5b5060405162001e3d38038062001e3d8339810160408190526200003491620003f1565b8251839083906200004d906003906020850190620002a0565b50805162000063906004906020840190620002a0565b505050620000806200007a6200016c60201b60201c565b62000170565b620000b5336200008f620001c2565b6200009f9060ff16600a62000522565b620000af906311e1a30062000617565b620001c7565b620000bf620001c2565b620000cf9060ff16600a62000522565b600855620000dc620001c2565b620000ec9060ff16600a62000522565b600955620000f9620001c2565b620001099060ff16600a62000522565b600a5562000116620001c2565b620001269060ff16600a62000522565b62000136906311e1a30062000617565b600b556000600c819055600d55600e80546001600160a01b0319166001600160a01b039290921691909117905550620006a29050565b3390565b600580546001600160a01b038381166001600160a01b0319831681179093556040519116919082907f8be0079c531659141344cd1fd0a4f28419497f9722a3daafe3b4186f6b6457e090600090a35050565b601290565b6001600160a01b038216620001f95760405162461bcd60e51b8152600401620001f0906200047a565b60405180910390fd5b62000207600083836200029b565b80600260008282546200021b9190620004ba565b90915550506001600160a01b038216600090815260208190526040812080548392906200024a908490620004ba565b90915550506040516001600160a01b038316906000907fddf252ad1be2c89b69c2b068fc378daa952ba7f163c4a11628f55a4df523b3ef906200028f908590620004b1565b60405180910390a35050565b505050565b828054620002ae9062000639565b90600052602060002090601f016020900481019282620002d257600085556200031d565b82601f10620002ed57805160ff19168380011785556200031d565b828001600101855582156200031d579182015b828111156200031d57825182559160200191906001019062000300565b506200032b9291506200032f565b5090565b5b808211156200032b576000815560010162000330565b600082601f83011262000357578081fd5b81516001600160401b03808211156200037457620003746200068c565b6040516020601f8401601f19168201810183811183821017156200039c576200039c6200068c565b6040528382528584018101871015620003b3578485fd5b8492505b83831015620003d65785830181015182840182015291820191620003b7565b83831115620003e757848185840101525b5095945050505050565b60008060006060848603121562000406578283fd5b83516001600160401b03808211156200041d578485fd5b6200042b8783880162000346565b9450602086015191508082111562000441578384fd5b50620004508682870162000346565b604086015190935090506001600160a01b03811681146200046f578182fd5b809150509250925092565b6020808252601f908201527f45524332303a206d696e7420746f20746865207a65726f206164647265737300604082015260600190565b90815260200190565b60008219821115620004d057620004d062000676565b500190565b80825b6001808611620004e9575062000519565b818704821115620004fe57620004fe62000676565b808616156200050c57918102915b9490941c938002620004d8565b94509492505050565b60006200053360001984846200053a565b9392505050565b6000826200054b5750600162000533565b816200055a5750600062000533565b81600181146200057357600281146200057e57620005b2565b600191505062000533565b60ff84111562000592576200059262000676565b6001841b915084821115620005ab57620005ab62000676565b5062000533565b5060208310610133831016604e8410600b8410161715620005ea575081810a83811115620005e457620005e462000676565b62000533565b620005f98484846001620004d5565b8086048211156200060e576200060e62000676565b02949350505050565b600081600019048311821515161562000634576200063462000676565b500290565b6002810460018216806200064e57607f821691505b602082108114156200067057634e487b7160e01b600052602260045260246000fd5b50919050565b634e487b7160e01b600052601160045260246000fd5b634e487b7160e01b600052604160045260246000fd5b61178b80620006b26000396000f3fe608060405234801561001057600080fd5b50600436106101215760003560e01c8063715018a6116100ad578063a457c2d711610071578063a457c2d71461023a578063a9059cbb1461024d578063dd62ed3e14610260578063f2fde38b14610273578063f8e233b11461028657610121565b8063715018a6146101ef5780638da5cb5b146101f757806395d89b411461020c578063a0712d6814610214578063a33e7d7e1461022757610121565b806318160ddd116100f457806318160ddd1461018c57806323b872dd146101a1578063313ce567146101b457806339509351146101c957806370a08231146101dc57610121565b806306fdde0314610126578063095ea7b31461014457806313b954a3146101645780631506f48014610179575b600080fd5b61012e61028e565b60405161013b9190611314565b60405180910390f35b610157610152366004611279565b610320565b60405161013b9190611309565b610177610172366004611279565b61033d565b005b610177610187366004611279565b610578565b610194610777565b60405161013b919061163c565b6101576101af36600461123e565b61077d565b6101bc61089a565b60405161013b9190611645565b6101576101d7366004611279565b61089f565b6101946101ea3660046111f2565b6108ee565b610177610993565b6101ff6109de565b60405161013b91906112f5565b61012e6109ed565b6101776102223660046112dd565b6109fc565b6101776102353660046112a2565b610b5d565b610157610248366004611279565b610caa565b61015761025b366004611279565b610d25565b61019461026e36600461120c565b610df8565b6101776102813660046111f2565b610e23565b6101ff610e94565b60606003805461029d906116e4565b80601f01602080910402602001604051908101604052809291908181526020018280546102c9906116e4565b80156103165780601f106102eb57610100808354040283529160200191610316565b820191906000526020600020905b8154815290600101906020018083116102f957829003601f168201915b5050505050905090565b600061033461032d610ea3565b8484610ea7565b50600192915050565b610345610ea3565b6001600160a01b03166103566109de565b6001600160a01b0316146103855760405162461bcd60e51b815260040161037c906114c0565b60405180910390fd5b6001600160a01b03821660009081526007602052604090205460ff16156103be5760405162461bcd60e51b815260040161037c906115b3565b6001600160a01b038216600090815260208190526040812080548392906103e6908490611653565b90915550600190505b60028160ff161161055c57610464610408836002610f5b565b600b8360ff166003811061042c57634e487b7160e01b600052603260045260246000fd5b01546104389190611653565b60088360ff166003811061045c57634e487b7160e01b600052603260045260246000fd5b015490610f6e565b60088260ff166003811061048857634e487b7160e01b600052603260045260246000fd5b01556104df600b60ff8316600381106104b157634e487b7160e01b600052603260045260246000fd5b015460088360ff16600381106104d757634e487b7160e01b600052603260045260246000fd5b015490610f5b565b60088260ff166003811061050357634e487b7160e01b600052603260045260246000fd5b0155610510826002610f5b565b600b8260ff166003811061053457634e487b7160e01b600052603260045260246000fd5b0160008282546105449190611653565b909155508190506105548161171f565b9150506103ef565b50806002600082825461056f9190611653565b90915550505050565b610580610ea3565b6001600160a01b03166105916109de565b6001600160a01b0316146105b75760405162461bcd60e51b815260040161037c906114c0565b6001600160a01b03821660009081526007602052604090205460ff166105ef5760405162461bcd60e51b815260040161037c906114f5565b6105f882610f7a565b6001600160a01b03821660009081526020819052604081208054839290610620908490611653565b909155506106319050816002610f6e565b600e546001600160a01b03166000908152602081905260408120805490919061065b908490611653565b90915550506001600160a01b0382166000908152600760205260408120546106879060ff1660016116c1565b90506106b182600b8360ff166003811061042c57634e487b7160e01b600052603260045260246000fd5b60088260ff16600381106106d557634e487b7160e01b600052603260045260246000fd5b01556106fe600b60ff8316600381106104b157634e487b7160e01b600052603260045260246000fd5b60088260ff166003811061072257634e487b7160e01b600052603260045260246000fd5b015581600b60010160008282546107399190611653565b90915550829050600b60020160008282546107549190611653565b92505081905550816002600082825461076d9190611653565b9091555050505050565b60025490565b60008061078c8561026e610ea3565b9050828110156107ae5760405162461bcd60e51b815260040161037c90611478565b6107b785610f7a565b6107c084610f7a565b6001600160a01b0385166000908152600760205260409020548390600b9060ff16600381106107ff57634e487b7160e01b600052603260045260246000fd5b01600082825461080f91906116aa565b90915550506001600160a01b0384166000908152600760205260409020548390600b9060ff166003811061085357634e487b7160e01b600052603260045260246000fd5b0160008282546108639190611653565b90915550610874905085858561105c565b61088f85610880610ea3565b61088a86856116aa565b610ea7565b506001949350505050565b601290565b60006103346108ac610ea3565b8484600160006108ba610ea3565b6001600160a01b03908116825260208083019390935260409182016000908120918b168152925290205461088a9190611653565b6001600160a01b03811660009081526007602052604081205460ff1661092d57506001600160a01b03811660009081526020819052604090205461098e565b6001600160a01b03821660009081526006602090815260408083205483835281842054600790935292205461098b92916109859160089060ff166003811061045c57634e487b7160e01b600052603260045260246000fd5b90610f5b565b90505b919050565b61099b610ea3565b6001600160a01b03166109ac6109de565b6001600160a01b0316146109d25760405162461bcd60e51b815260040161037c906114c0565b6109dc6000611184565b565b6005546001600160a01b031690565b60606004805461029d906116e4565b610a04610ea3565b6001600160a01b0316610a156109de565b6001600160a01b031614610a3b5760405162461bcd60e51b815260040161037c906114c0565b600d5415610a7e57610a67610a51826004610f5b565b600d54610a5e9190611653565b6008600261045c565b600a55600d54610a7a90600860026104d7565b600a555b600c5415610ac157610aaa610a94826004610f5b565b600c54610aa19190611653565b6008600161045c565b600955600c54610abd90600860016104d7565b6009555b610acc816002610f5b565b600e546001600160a01b031660009081526020819052604081208054909190610af6908490611653565b90915550610b079050816004610f5b565b600c8054600090610b19908490611653565b90915550610b2a9050816004610f5b565b600d8054600090610b3c908490611653565b925050819055508060026000828254610b559190611653565b909155505050565b610b65610ea3565b6001600160a01b0316610b766109de565b6001600160a01b031614610b9c5760405162461bcd60e51b815260040161037c906114c0565b610ba582610f7a565b6001600160a01b0382166000908152600760209081526040808320805460ff86811660ff1983161790925592849052922054911690600b8260038110610bfb57634e487b7160e01b600052603260045260246000fd5b016000828254610c0b91906116aa565b90915550506001600160a01b038316600090815260208190526040902054600b60ff841660038110610c4d57634e487b7160e01b600052603260045260246000fd5b016000828254610c5d9190611653565b909155506008905060ff831660038110610c8757634e487b7160e01b600052603260045260246000fd5b01546001600160a01b039093166000908152600660205260409020929092555050565b60008060016000610cb9610ea3565b6001600160a01b0390811682526020808301939093526040918201600090812091881681529252902054905082811015610d055760405162461bcd60e51b815260040161037c906115f7565b610d1b610d10610ea3565b8561088a86856116aa565b5060019392505050565b600080610d30610ea3565b9050610d3b81610f7a565b610d4484610f7a565b6001600160a01b0381166000908152600760205260409020548390600b9060ff1660038110610d8357634e487b7160e01b600052603260045260246000fd5b016000828254610d9391906116aa565b90915550506001600160a01b0384166000908152600760205260409020548390600b9060ff1660038110610dd757634e487b7160e01b600052603260045260246000fd5b016000828254610de79190611653565b90915550610d1b905081858561105c565b6001600160a01b03918216600090815260016020908152604080832093909416825291909152205490565b610e2b610ea3565b6001600160a01b0316610e3c6109de565b6001600160a01b031614610e625760405162461bcd60e51b815260040161037c906114c0565b6001600160a01b038116610e885760405162461bcd60e51b815260040161037c906113aa565b610e9181611184565b50565b600e546001600160a01b031681565b3390565b6001600160a01b038316610ecd5760405162461bcd60e51b815260040161037c9061156f565b6001600160a01b038216610ef35760405162461bcd60e51b815260040161037c906113f0565b6001600160a01b0380841660008181526001602090815260408083209487168084529490915290819020849055517f8c5be1e5ebec7d5bd14f71427d1e84f3dd0314c0f7b2291e5b200ac8c7c3b92590610f4e90859061163c565b60405180910390a3505050565b6000610f67828461166b565b9392505050565b6000610f67828461168b565b6001600160a01b03811660009081526007602052604090205460ff16610f9f57610e91565b6001600160a01b038116600090815260066020908152604080832054838352818420546007909352922054610ff792916109859160089060ff166003811061045c57634e487b7160e01b600052603260045260246000fd5b6001600160a01b0382166000908152602081815260408083209390935560079052205460089060ff166003811061103e57634e487b7160e01b600052603260045260246000fd5b01546001600160a01b03821660009081526006602052604090205550565b6001600160a01b0383166110825760405162461bcd60e51b815260040161037c9061152a565b6001600160a01b0382166110a85760405162461bcd60e51b815260040161037c90611367565b6110b38383836111d6565b6001600160a01b038316600090815260208190526040902054818110156110ec5760405162461bcd60e51b815260040161037c90611432565b6110f682826116aa565b6001600160a01b03808616600090815260208190526040808220939093559085168152908120805484929061112c908490611653565b92505081905550826001600160a01b0316846001600160a01b03167fddf252ad1be2c89b69c2b068fc378daa952ba7f163c4a11628f55a4df523b3ef84604051611176919061163c565b60405180910390a350505050565b600580546001600160a01b038381166001600160a01b0319831681179093556040519116919082907f8be0079c531659141344cd1fd0a4f28419497f9722a3daafe3b4186f6b6457e090600090a35050565b505050565b80356001600160a01b038116811461098e57600080fd5b600060208284031215611203578081fd5b610f67826111db565b6000806040838503121561121e578081fd5b611227836111db565b9150611235602084016111db565b90509250929050565b600080600060608486031215611252578081fd5b61125b846111db565b9250611269602085016111db565b9150604084013590509250925092565b6000806040838503121561128b578182fd5b611294836111db565b946020939093013593505050565b600080604083850312156112b4578182fd5b6112bd836111db565b9150602083013560ff811681146112d2578182fd5b809150509250929050565b6000602082840312156112ee578081fd5b5035919050565b6001600160a01b0391909116815260200190565b901515815260200190565b6000602080835283518082850152825b8181101561134057858101830151858201604001528201611324565b818111156113515783604083870101525b50601f01601f1916929092016040019392505050565b60208082526023908201527f45524332303a207472616e7366657220746f20746865207a65726f206164647260408201526265737360e81b606082015260800190565b60208082526026908201527f4f776e61626c653a206e6577206f776e657220697320746865207a65726f206160408201526564647265737360d01b606082015260800190565b60208082526022908201527f45524332303a20617070726f766520746f20746865207a65726f206164647265604082015261737360f01b606082015260800190565b60208082526026908201527f45524332303a207472616e7366657220616d6f756e7420657863656564732062604082015265616c616e636560d01b606082015260800190565b60208082526028908201527f45524332303a207472616e7366657220616d6f756e74206578636565647320616040820152676c6c6f77616e636560c01b606082015260800190565b6020808252818101527f4f776e61626c653a2063616c6c6572206973206e6f7420746865206f776e6572604082015260600190565b6020808252818101527f6163636f756e74206973206120726567756c6172207368617265686f6c646572604082015260600190565b60208082526025908201527f45524332303a207472616e736665722066726f6d20746865207a65726f206164604082015264647265737360d81b606082015260800190565b60208082526024908201527f45524332303a20617070726f76652066726f6d20746865207a65726f206164646040820152637265737360e01b606082015260800190565b60208082526024908201527f6163636f756e74206973206e6f74206120726567756c6172207368617265686f604082015263363232b960e11b606082015260800190565b60208082526025908201527f45524332303a2064656372656173656420616c6c6f77616e63652062656c6f77604082015264207a65726f60d81b606082015260800190565b90815260200190565b60ff91909116815260200190565b600082198211156116665761166661173f565b500190565b60008261168657634e487b7160e01b81526012600452602481fd5b500490565b60008160001904831182151516156116a5576116a561173f565b500290565b6000828210156116bc576116bc61173f565b500390565b600060ff821660ff8416808210156116db576116db61173f565b90039392505050565b6002810460018216806116f857607f821691505b6020821081141561171957634e487b7160e01b600052602260045260246000fd5b50919050565b600060ff821660ff8114156117365761173661173f565b60010192915050565b634e487b7160e01b600052601160045260246000fdfea26469706673582212204635a4406de61bf3e1e9732b772e358db88684a229cb166b5ec9597e7a79db5f64736f6c63430008000033",
  "devdoc": {
    "kind": "dev",
    "methods": {
      "allowance(address,address)": {
        "details": "See {IERC20-allowance}."
      },
      "approve(address,uint256)": {
        "details": "See {IERC20-approve}. Requirements: - `spender` cannot be the zero address."
      },
      "balanceOf(address)": {
        "details": "See {IERC20-balanceOf}."
      },
      "decimals()": {
        "details": "Returns the number of decimals used to get its user representation. For example, if `decimals` equals `2`, a balance of `505` tokens should be displayed to a user as `5,05` (`505 / 10 ** 2`). Tokens usually opt for a value of 18, imitating the relationship between Ether and Wei. This is the value {ERC20} uses, unless this function is overloaded; NOTE: This information is only used for _display_ purposes: it in no way affects any of the arithmetic of the contract, including {IERC20-balanceOf} and {IERC20-transfer}."
      },
      "decreaseAllowance(address,uint256)": {
        "details": "Atomically decreases the allowance granted to `spender` by the caller. This is an alternative to {approve} that can be used as a mitigation for problems described in {IERC20-approve}. Emits an {Approval} event indicating the updated allowance. Requirements: - `spender` cannot be the zero address. - `spender` must have allowance for the caller of at least `subtractedValue`."
      },
      "increaseAllowance(address,uint256)": {
        "details": "Atomically increases the allowance granted to `spender` by the caller. This is an alternative to {approve} that can be used as a mitigation for problems described in {IERC20-approve}. Emits an {Approval} event indicating the updated allowance. Requirements: - `spender` cannot be the zero address."
      },
      "name()": {
        "details": "Returns the name of the token."
      },
      "owner()": {
        "details": "Returns the address of the current owner."
      },
      "renounceOwnership()": {
        "details": "Leaves the contract without owner. It will not be possible to call `onlyOwner` functions anymore. Can only be called by the current owner. NOTE: Renouncing ownership will leave the contract without an owner, thereby removing any functionality that is only available to the owner."
      },
      "symbol()": {
        "details": "Returns the symbol of the token, usually a shorter version of the name."
      },
      "totalSupply()": {
        "details": "See {IERC20-totalSupply}."
      },
      "transfer(address,uint256)": {
        "details": "See {IERC20-transfer}. Requirements: - `recipient` cannot be the zero address. - the caller must have a balance of at least `amount`."
      },
      "transferFrom(address,address,uint256)": {
        "details": "See {IERC20-transferFrom}. Emits an {Approval} event indicating the updated allowance. This is not required by the EIP. See the note at the beginning of {ERC20}. Requirements: - `sender` and `recipient` cannot be the zero address. - `sender` must have a balance of at least `amount`. - the caller must have allowance for ``sender``'s tokens of at least `amount`."
      },
      "transferOwnership(address)": {
        "details": "Transfers ownership of the contract to a new account (`newOwner`). Can only be called by the current owner."
      }
    },
    "version": 1
  },
  "userdoc": {
    "kind": "user",
    "methods": {},
    "version": 1
  },
  "storageLayout": {
    "storage": [
      {
        "astId": 1764,
        "contract": "contracts/Distribution/AtlantisDistribution.sol:AtlantisDistribution",
        "label": "_balances",
        "offset": 0,
        "slot": "0",
        "type": "t_mapping(t_address,t_uint256)"
      },
      {
        "astId": 1770,
        "contract": "contracts/Distribution/AtlantisDistribution.sol:AtlantisDistribution",
        "label": "_allowances",
        "offset": 0,
        "slot": "1",
        "type": "t_mapping(t_address,t_mapping(t_address,t_uint256))"
      },
      {
        "astId": 1772,
        "contract": "contracts/Distribution/AtlantisDistribution.sol:AtlantisDistribution",
        "label": "_totalSupply",
        "offset": 0,
        "slot": "2",
        "type": "t_uint256"
      },
      {
        "astId": 1774,
        "contract": "contracts/Distribution/AtlantisDistribution.sol:AtlantisDistribution",
        "label": "_name",
        "offset": 0,
        "slot": "3",
        "type": "t_string_storage"
      },
      {
        "astId": 1776,
        "contract": "contracts/Distribution/AtlantisDistribution.sol:AtlantisDistribution",
        "label": "_symbol",
        "offset": 0,
        "slot": "4",
        "type": "t_string_storage"
      },
      {
        "astId": 7,
        "contract": "contracts/Distribution/AtlantisDistribution.sol:AtlantisDistribution",
        "label": "_owner",
        "offset": 0,
        "slot": "5",
        "type": "t_address"
      },
      {
        "astId": 1102,
        "contract": "contracts/Distribution/AtlantisDistribution.sol:AtlantisDistribution",
        "label": "balanceCoefficient",
        "offset": 0,
        "slot": "6",
        "type": "t_mapping(t_address,t_uint256)"
      },
      {
        "astId": 1106,
        "contract": "contracts/Distribution/AtlantisDistribution.sol:AtlantisDistribution",
        "label": "level",
        "offset": 0,
        "slot": "7",
        "type": "t_mapping(t_address,t_uint8)"
      },
      {
        "astId": 1113,
        "contract": "contracts/Distribution/AtlantisDistribution.sol:AtlantisDistribution",
        "label": "currentBC",
        "offset": 0,
        "slot": "8",
        "type": "t_array(t_uint256)3_storage"
      },
      {
        "astId": 1117,
        "contract": "contracts/Distribution/AtlantisDistribution.sol:AtlantisDistribution",
        "label": "totalLevelSupply",
        "offset": 0,
        "slot": "11",
        "type": "t_array(t_uint256)3_storage"
      },
      {
        "astId": 1119,
        "contract": "contracts/Distribution/AtlantisDistribution.sol:AtlantisDistribution",
        "label": "fund_wallet",
        "offset": 0,
        "slot": "14",
        "type": "t_address_payable"
      }
    ],
    "types": {
      "t_address": {
        "encoding": "inplace",
        "label": "address",
        "numberOfBytes": "20"
      },
      "t_address_payable": {
        "encoding": "inplace",
        "label": "address payable",
        "numberOfBytes": "20"
      },
      "t_array(t_uint256)3_storage": {
        "base": "t_uint256",
        "encoding": "inplace",
        "label": "uint256[3]",
        "numberOfBytes": "96"
      },
      "t_mapping(t_address,t_mapping(t_address,t_uint256))": {
        "encoding": "mapping",
        "key": "t_address",
        "label": "mapping(address => mapping(address => uint256))",
        "numberOfBytes": "32",
        "value": "t_mapping(t_address,t_uint256)"
      },
      "t_mapping(t_address,t_uint256)": {
        "encoding": "mapping",
        "key": "t_address",
        "label": "mapping(address => uint256)",
        "numberOfBytes": "32",
        "value": "t_uint256"
      },
      "t_mapping(t_address,t_uint8)": {
        "encoding": "mapping",
        "key": "t_address",
        "label": "mapping(address => uint8)",
        "numberOfBytes": "32",
        "value": "t_uint8"
      },
      "t_string_storage": {
        "encoding": "bytes",
        "label": "string",
        "numberOfBytes": "32"
      },
      "t_uint256": {
        "encoding": "inplace",
        "label": "uint256",
        "numberOfBytes": "32"
      },
      "t_uint8": {
        "encoding": "inplace",
        "label": "uint8",
        "numberOfBytes": "1"
      }
    }
  }
}