{
  "address": "0xdc148114C42C33D2513651441D5CF268B14d9e27",
  "abi": [
    {
      "inputs": [
        {
          "internalType": "string",
          "name": "name",
          "type": "string"
        },
        {
          "internalType": "string",
          "name": "symbol",
          "type": "string"
        },
        {
          "internalType": "address payable",
          "name": "_fund_wallet",
          "type": "address"
        }
      ],
      "stateMutability": "nonpayable",
      "type": "constructor"
    },
    {
      "anonymous": false,
      "inputs": [
        {
          "indexed": true,
          "internalType": "address",
          "name": "owner",
          "type": "address"
        },
        {
          "indexed": true,
          "internalType": "address",
          "name": "spender",
          "type": "address"
        },
        {
          "indexed": false,
          "internalType": "uint256",
          "name": "value",
          "type": "uint256"
        }
      ],
      "name": "Approval",
      "type": "event"
    },
    {
      "anonymous": false,
      "inputs": [
        {
          "indexed": true,
          "internalType": "address",
          "name": "previousOwner",
          "type": "address"
        },
        {
          "indexed": true,
          "internalType": "address",
          "name": "newOwner",
          "type": "address"
        }
      ],
      "name": "OwnershipTransferred",
      "type": "event"
    },
    {
      "anonymous": false,
      "inputs": [
        {
          "indexed": true,
          "internalType": "address",
          "name": "from",
          "type": "address"
        },
        {
          "indexed": true,
          "internalType": "address",
          "name": "to",
          "type": "address"
        },
        {
          "indexed": false,
          "internalType": "uint256",
          "name": "value",
          "type": "uint256"
        }
      ],
      "name": "Transfer",
      "type": "event"
    },
    {
      "inputs": [
        {
          "internalType": "address",
          "name": "owner",
          "type": "address"
        },
        {
          "internalType": "address",
          "name": "spender",
          "type": "address"
        }
      ],
      "name": "allowance",
      "outputs": [
        {
          "internalType": "uint256",
          "name": "",
          "type": "uint256"
        }
      ],
      "stateMutability": "view",
      "type": "function"
    },
    {
      "inputs": [
        {
          "internalType": "address",
          "name": "spender",
          "type": "address"
        },
        {
          "internalType": "uint256",
          "name": "amount",
          "type": "uint256"
        }
      ],
      "name": "approve",
      "outputs": [
        {
          "internalType": "bool",
          "name": "",
          "type": "bool"
        }
      ],
      "stateMutability": "nonpayable",
      "type": "function"
    },
    {
      "inputs": [
        {
          "internalType": "address",
          "name": "account",
          "type": "address"
        }
      ],
      "name": "balanceOf",
      "outputs": [
        {
          "internalType": "uint256",
          "name": "",
          "type": "uint256"
        }
      ],
      "stateMutability": "view",
      "type": "function"
    },
    {
      "inputs": [
        {
          "internalType": "address",
          "name": "account",
          "type": "address"
        },
        {
          "internalType": "uint8",
          "name": "newLvl",
          "type": "uint8"
        }
      ],
      "name": "changeLvl",
      "outputs": [],
      "stateMutability": "nonpayable",
      "type": "function"
    },
    {
      "inputs": [],
      "name": "decimals",
      "outputs": [
        {
          "internalType": "uint8",
          "name": "",
          "type": "uint8"
        }
      ],
      "stateMutability": "view",
      "type": "function"
    },
    {
      "inputs": [
        {
          "internalType": "address",
          "name": "spender",
          "type": "address"
        },
        {
          "internalType": "uint256",
          "name": "subtractedValue",
          "type": "uint256"
        }
      ],
      "name": "decreaseAllowance",
      "outputs": [
        {
          "internalType": "bool",
          "name": "",
          "type": "bool"
        }
      ],
      "stateMutability": "nonpayable",
      "type": "function"
    },
    {
      "inputs": [],
      "name": "fund_wallet",
      "outputs": [
        {
          "internalType": "address payable",
          "name": "",
          "type": "address"
        }
      ],
      "stateMutability": "view",
      "type": "function"
    },
    {
      "inputs": [
        {
          "internalType": "address",
          "name": "spender",
          "type": "address"
        },
        {
          "internalType": "uint256",
          "name": "addedValue",
          "type": "uint256"
        }
      ],
      "name": "increaseAllowance",
      "outputs": [
        {
          "internalType": "bool",
          "name": "",
          "type": "bool"
        }
      ],
      "stateMutability": "nonpayable",
      "type": "function"
    },
    {
      "inputs": [
        {
          "internalType": "address",
          "name": "",
          "type": "address"
        }
      ],
      "name": "level",
      "outputs": [
        {
          "internalType": "uint8",
          "name": "",
          "type": "uint8"
        }
      ],
      "stateMutability": "view",
      "type": "function"
    },
    {
      "inputs": [
        {
          "internalType": "uint256",
          "name": "amount",
          "type": "uint256"
        }
      ],
      "name": "mint",
      "outputs": [],
      "stateMutability": "nonpayable",
      "type": "function"
    },
    {
      "inputs": [
        {
          "internalType": "address",
          "name": "account",
          "type": "address"
        },
        {
          "internalType": "uint256",
          "name": "amount",
          "type": "uint256"
        }
      ],
      "name": "mintToNRS",
      "outputs": [],
      "stateMutability": "nonpayable",
      "type": "function"
    },
    {
      "inputs": [
        {
          "internalType": "address",
          "name": "account",
          "type": "address"
        },
        {
          "internalType": "uint256",
          "name": "amount",
          "type": "uint256"
        }
      ],
      "name": "mintToRS",
      "outputs": [],
      "stateMutability": "nonpayable",
      "type": "function"
    },
    {
      "inputs": [],
      "name": "name",
      "outputs": [
        {
          "internalType": "string",
          "name": "",
          "type": "string"
        }
      ],
      "stateMutability": "view",
      "type": "function"
    },
    {
      "inputs": [],
      "name": "owner",
      "outputs": [
        {
          "internalType": "address",
          "name": "",
          "type": "address"
        }
      ],
      "stateMutability": "view",
      "type": "function"
    },
    {
      "inputs": [],
      "name": "renounceOwnership",
      "outputs": [],
      "stateMutability": "nonpayable",
      "type": "function"
    },
    {
      "inputs": [],
      "name": "symbol",
      "outputs": [
        {
          "internalType": "string",
          "name": "",
          "type": "string"
        }
      ],
      "stateMutability": "view",
      "type": "function"
    },
    {
      "inputs": [],
      "name": "totalSupply",
      "outputs": [
        {
          "internalType": "uint256",
          "name": "",
          "type": "uint256"
        }
      ],
      "stateMutability": "view",
      "type": "function"
    },
    {
      "inputs": [
        {
          "internalType": "address",
          "name": "recipient",
          "type": "address"
        },
        {
          "internalType": "uint256",
          "name": "amount",
          "type": "uint256"
        }
      ],
      "name": "transfer",
      "outputs": [
        {
          "internalType": "bool",
          "name": "",
          "type": "bool"
        }
      ],
      "stateMutability": "nonpayable",
      "type": "function"
    },
    {
      "inputs": [
        {
          "internalType": "address",
          "name": "sender",
          "type": "address"
        },
        {
          "internalType": "address",
          "name": "recipient",
          "type": "address"
        },
        {
          "internalType": "uint256",
          "name": "amount",
          "type": "uint256"
        }
      ],
      "name": "transferFrom",
      "outputs": [
        {
          "internalType": "bool",
          "name": "",
          "type": "bool"
        }
      ],
      "stateMutability": "nonpayable",
      "type": "function"
    },
    {
      "inputs": [
        {
          "internalType": "address",
          "name": "newOwner",
          "type": "address"
        }
      ],
      "name": "transferOwnership",
      "outputs": [],
      "stateMutability": "nonpayable",
      "type": "function"
    }
  ],
  "transactionHash": "0x2cc2be8502b268ec88b7d4c773f3afe9fb6537167e27a8a49d0a95e7e464845d",
  "args": [
    "AtlantisPayToken",
    "ATPT",
    "0xf92abF80266fD710Ec7a8A644915B458abe34160"
  ],
  "solcInputHash": "10c63cac9fa5409285a28df055cbb7ef",
  "bytecode": "0x60806040523480156200001157600080fd5b5060405162001ec338038062001ec3833981016040819052620000349162000418565b8251839083906200004d906003906020850190620002c7565b50805162000063906004906020840190620002c7565b505050620000806200007a6200019360201b60201c565b62000197565b620000b5336200008f620001e9565b6200009f9060ff16600a62000549565b620000af906311e1a3006200063e565b620001ee565b620000bf620001e9565b620000cc90600262000660565b620000dc9060ff16600a62000549565b600855620000e9620001e9565b620000f690600262000660565b620001069060ff16600a62000549565b60095562000113620001e9565b6200012090600262000660565b620001309060ff16600a62000549565b600a556200013d620001e9565b6200014d9060ff16600a62000549565b6200015d906311e1a3006200063e565b600b556000600c819055600d55600e80546001600160a01b0319166001600160a01b039290921691909117905550620006f59050565b3390565b600580546001600160a01b038381166001600160a01b0319831681179093556040519116919082907f8be0079c531659141344cd1fd0a4f28419497f9722a3daafe3b4186f6b6457e090600090a35050565b601290565b6001600160a01b038216620002205760405162461bcd60e51b81526004016200021790620004a1565b60405180910390fd5b6200022e60008383620002c2565b8060026000828254620002429190620004e1565b90915550506001600160a01b0382166000908152602081905260408120805483929062000271908490620004e1565b90915550506040516001600160a01b038316906000907fddf252ad1be2c89b69c2b068fc378daa952ba7f163c4a11628f55a4df523b3ef90620002b6908590620004d8565b60405180910390a35050565b505050565b828054620002d5906200068c565b90600052602060002090601f016020900481019282620002f9576000855562000344565b82601f106200031457805160ff191683800117855562000344565b8280016001018555821562000344579182015b828111156200034457825182559160200191906001019062000327565b506200035292915062000356565b5090565b5b8082111562000352576000815560010162000357565b600082601f8301126200037e578081fd5b81516001600160401b03808211156200039b576200039b620006df565b6040516020601f8401601f1916820181018381118382101715620003c357620003c3620006df565b6040528382528584018101871015620003da578485fd5b8492505b83831015620003fd5785830181015182840182015291820191620003de565b838311156200040e57848185840101525b5095945050505050565b6000806000606084860312156200042d578283fd5b83516001600160401b038082111562000444578485fd5b62000452878388016200036d565b9450602086015191508082111562000468578384fd5b5062000477868287016200036d565b604086015190935090506001600160a01b038116811462000496578182fd5b809150509250925092565b6020808252601f908201527f45524332303a206d696e7420746f20746865207a65726f206164647265737300604082015260600190565b90815260200190565b60008219821115620004f757620004f7620006c9565b500190565b80825b600180861162000510575062000540565b818704821115620005255762000525620006c9565b808616156200053357918102915b9490941c938002620004ff565b94509492505050565b60006200055a600019848462000561565b9392505050565b60008262000572575060016200055a565b8162000581575060006200055a565b81600181146200059a5760028114620005a557620005d9565b60019150506200055a565b60ff841115620005b957620005b9620006c9565b6001841b915084821115620005d257620005d2620006c9565b506200055a565b5060208310610133831016604e8410600b841016171562000611575081810a838111156200060b576200060b620006c9565b6200055a565b620006208484846001620004fc565b808604821115620006355762000635620006c9565b02949350505050565b60008160001904831182151516156200065b576200065b620006c9565b500290565b600060ff821660ff84168160ff0481118215151615620006845762000684620006c9565b029392505050565b600281046001821680620006a157607f821691505b60208210811415620006c357634e487b7160e01b600052602260045260246000fd5b50919050565b634e487b7160e01b600052601160045260246000fd5b634e487b7160e01b600052604160045260246000fd5b6117be80620007056000396000f3fe608060405234801561001057600080fd5b506004361061012c5760003560e01c80638da5cb5b116100ad578063a9059cbb11610071578063a9059cbb14610258578063d41b6db61461026b578063dd62ed3e1461027e578063f2fde38b14610291578063f8e233b1146102a45761012c565b80638da5cb5b1461020257806395d89b4114610217578063a0712d681461021f578063a33e7d7e14610232578063a457c2d7146102455761012c565b806323b872dd116100f457806323b872dd146101ac578063313ce567146101bf57806339509351146101d457806370a08231146101e7578063715018a6146101fa5761012c565b806306fdde0314610131578063095ea7b31461014f57806313b954a31461016f5780631506f4801461018457806318160ddd14610197575b600080fd5b6101396102ac565b6040516101469190611347565b60405180910390f35b61016261015d3660046112ac565b61033e565b604051610146919061133c565b61018261017d3660046112ac565b61035b565b005b6101826101923660046112ac565b610596565b61019f610795565b604051610146919061166f565b6101626101ba366004611271565b61079b565b6101c76108b8565b6040516101469190611678565b6101626101e23660046112ac565b6108bd565b61019f6101f5366004611225565b61090c565b6101826109b1565b61020a6109fc565b6040516101469190611328565b610139610a0b565b61018261022d366004611310565b610a1a565b6101826102403660046112d5565b610b7b565b6101626102533660046112ac565b610cc8565b6101626102663660046112ac565b610d43565b6101c7610279366004611225565b610e16565b61019f61028c36600461123f565b610e2b565b61018261029f366004611225565b610e56565b61020a610ec7565b6060600380546102bb90611717565b80601f01602080910402602001604051908101604052809291908181526020018280546102e790611717565b80156103345780601f1061030957610100808354040283529160200191610334565b820191906000526020600020905b81548152906001019060200180831161031757829003601f168201915b5050505050905090565b600061035261034b610ed6565b8484610eda565b50600192915050565b610363610ed6565b6001600160a01b03166103746109fc565b6001600160a01b0316146103a35760405162461bcd60e51b815260040161039a906114f3565b60405180910390fd5b6001600160a01b03821660009081526007602052604090205460ff16156103dc5760405162461bcd60e51b815260040161039a906115e6565b6001600160a01b03821660009081526020819052604081208054839290610404908490611686565b90915550600190505b60028160ff161161057a57610482610426836002610f8e565b600b8360ff166003811061044a57634e487b7160e01b600052603260045260246000fd5b01546104569190611686565b60088360ff166003811061047a57634e487b7160e01b600052603260045260246000fd5b015490610fa1565b60088260ff16600381106104a657634e487b7160e01b600052603260045260246000fd5b01556104fd600b60ff8316600381106104cf57634e487b7160e01b600052603260045260246000fd5b015460088360ff16600381106104f557634e487b7160e01b600052603260045260246000fd5b015490610f8e565b60088260ff166003811061052157634e487b7160e01b600052603260045260246000fd5b015561052e826002610f8e565b600b8260ff166003811061055257634e487b7160e01b600052603260045260246000fd5b0160008282546105629190611686565b9091555081905061057281611752565b91505061040d565b50806002600082825461058d9190611686565b90915550505050565b61059e610ed6565b6001600160a01b03166105af6109fc565b6001600160a01b0316146105d55760405162461bcd60e51b815260040161039a906114f3565b6001600160a01b03821660009081526007602052604090205460ff1661060d5760405162461bcd60e51b815260040161039a90611528565b61061682610fad565b6001600160a01b0382166000908152602081905260408120805483929061063e908490611686565b9091555061064f9050816002610fa1565b600e546001600160a01b031660009081526020819052604081208054909190610679908490611686565b90915550506001600160a01b0382166000908152600760205260408120546106a59060ff1660036116f4565b90506106cf82600b8360ff166003811061044a57634e487b7160e01b600052603260045260246000fd5b60088260ff16600381106106f357634e487b7160e01b600052603260045260246000fd5b015561071c600b60ff8316600381106104cf57634e487b7160e01b600052603260045260246000fd5b60088260ff166003811061074057634e487b7160e01b600052603260045260246000fd5b015581600b60010160008282546107579190611686565b90915550829050600b60020160008282546107729190611686565b92505081905550816002600082825461078b9190611686565b9091555050505050565b60025490565b6000806107aa8561028c610ed6565b9050828110156107cc5760405162461bcd60e51b815260040161039a906114ab565b6107d585610fad565b6107de84610fad565b6001600160a01b0385166000908152600760205260409020548390600b9060ff166003811061081d57634e487b7160e01b600052603260045260246000fd5b01600082825461082d91906116dd565b90915550506001600160a01b0384166000908152600760205260409020548390600b9060ff166003811061087157634e487b7160e01b600052603260045260246000fd5b0160008282546108819190611686565b90915550610892905085858561108f565b6108ad8561089e610ed6565b6108a886856116dd565b610eda565b506001949350505050565b601290565b60006103526108ca610ed6565b8484600160006108d8610ed6565b6001600160a01b03908116825260208083019390935260409182016000908120918b16815292529020546108a89190611686565b6001600160a01b03811660009081526007602052604081205460ff1661094b57506001600160a01b0381166000908152602081905260409020546109ac565b6001600160a01b0382166000908152600660209081526040808320548383528184205460079093529220546109a992916109a39160089060ff166003811061047a57634e487b7160e01b600052603260045260246000fd5b90610f8e565b90505b919050565b6109b9610ed6565b6001600160a01b03166109ca6109fc565b6001600160a01b0316146109f05760405162461bcd60e51b815260040161039a906114f3565b6109fa60006111b7565b565b6005546001600160a01b031690565b6060600480546102bb90611717565b610a22610ed6565b6001600160a01b0316610a336109fc565b6001600160a01b031614610a595760405162461bcd60e51b815260040161039a906114f3565b600d5415610a9c57610a85610a6f826004610f8e565b600d54610a7c9190611686565b6008600261047a565b600a55600d54610a9890600860026104f5565b600a555b600c5415610adf57610ac8610ab2826004610f8e565b600c54610abf9190611686565b6008600161047a565b600955600c54610adb90600860016104f5565b6009555b610aea816002610f8e565b600e546001600160a01b031660009081526020819052604081208054909190610b14908490611686565b90915550610b259050816004610f8e565b600c8054600090610b37908490611686565b90915550610b489050816004610f8e565b600d8054600090610b5a908490611686565b925050819055508060026000828254610b739190611686565b909155505050565b610b83610ed6565b6001600160a01b0316610b946109fc565b6001600160a01b031614610bba5760405162461bcd60e51b815260040161039a906114f3565b610bc382610fad565b6001600160a01b0382166000908152600760209081526040808320805460ff86811660ff1983161790925592849052922054911690600b8260038110610c1957634e487b7160e01b600052603260045260246000fd5b016000828254610c2991906116dd565b90915550506001600160a01b038316600090815260208190526040902054600b60ff841660038110610c6b57634e487b7160e01b600052603260045260246000fd5b016000828254610c7b9190611686565b909155506008905060ff831660038110610ca557634e487b7160e01b600052603260045260246000fd5b01546001600160a01b039093166000908152600660205260409020929092555050565b60008060016000610cd7610ed6565b6001600160a01b0390811682526020808301939093526040918201600090812091881681529252902054905082811015610d235760405162461bcd60e51b815260040161039a9061162a565b610d39610d2e610ed6565b856108a886856116dd565b5060019392505050565b600080610d4e610ed6565b9050610d5981610fad565b610d6284610fad565b6001600160a01b0381166000908152600760205260409020548390600b9060ff1660038110610da157634e487b7160e01b600052603260045260246000fd5b016000828254610db191906116dd565b90915550506001600160a01b0384166000908152600760205260409020548390600b9060ff1660038110610df557634e487b7160e01b600052603260045260246000fd5b016000828254610e059190611686565b90915550610d39905081858561108f565b60076020526000908152604090205460ff1681565b6001600160a01b03918216600090815260016020908152604080832093909416825291909152205490565b610e5e610ed6565b6001600160a01b0316610e6f6109fc565b6001600160a01b031614610e955760405162461bcd60e51b815260040161039a906114f3565b6001600160a01b038116610ebb5760405162461bcd60e51b815260040161039a906113dd565b610ec4816111b7565b50565b600e546001600160a01b031681565b3390565b6001600160a01b038316610f005760405162461bcd60e51b815260040161039a906115a2565b6001600160a01b038216610f265760405162461bcd60e51b815260040161039a90611423565b6001600160a01b0380841660008181526001602090815260408083209487168084529490915290819020849055517f8c5be1e5ebec7d5bd14f71427d1e84f3dd0314c0f7b2291e5b200ac8c7c3b92590610f8190859061166f565b60405180910390a3505050565b6000610f9a828461169e565b9392505050565b6000610f9a82846116be565b6001600160a01b03811660009081526007602052604090205460ff16610fd257610ec4565b6001600160a01b03811660009081526006602090815260408083205483835281842054600790935292205461102a92916109a39160089060ff166003811061047a57634e487b7160e01b600052603260045260246000fd5b6001600160a01b0382166000908152602081815260408083209390935560079052205460089060ff166003811061107157634e487b7160e01b600052603260045260246000fd5b01546001600160a01b03821660009081526006602052604090205550565b6001600160a01b0383166110b55760405162461bcd60e51b815260040161039a9061155d565b6001600160a01b0382166110db5760405162461bcd60e51b815260040161039a9061139a565b6110e6838383611209565b6001600160a01b0383166000908152602081905260409020548181101561111f5760405162461bcd60e51b815260040161039a90611465565b61112982826116dd565b6001600160a01b03808616600090815260208190526040808220939093559085168152908120805484929061115f908490611686565b92505081905550826001600160a01b0316846001600160a01b03167fddf252ad1be2c89b69c2b068fc378daa952ba7f163c4a11628f55a4df523b3ef846040516111a9919061166f565b60405180910390a350505050565b600580546001600160a01b038381166001600160a01b0319831681179093556040519116919082907f8be0079c531659141344cd1fd0a4f28419497f9722a3daafe3b4186f6b6457e090600090a35050565b505050565b80356001600160a01b03811681146109ac57600080fd5b600060208284031215611236578081fd5b610f9a8261120e565b60008060408385031215611251578081fd5b61125a8361120e565b91506112686020840161120e565b90509250929050565b600080600060608486031215611285578081fd5b61128e8461120e565b925061129c6020850161120e565b9150604084013590509250925092565b600080604083850312156112be578182fd5b6112c78361120e565b946020939093013593505050565b600080604083850312156112e7578182fd5b6112f08361120e565b9150602083013560ff81168114611305578182fd5b809150509250929050565b600060208284031215611321578081fd5b5035919050565b6001600160a01b0391909116815260200190565b901515815260200190565b6000602080835283518082850152825b8181101561137357858101830151858201604001528201611357565b818111156113845783604083870101525b50601f01601f1916929092016040019392505050565b60208082526023908201527f45524332303a207472616e7366657220746f20746865207a65726f206164647260408201526265737360e81b606082015260800190565b60208082526026908201527f4f776e61626c653a206e6577206f776e657220697320746865207a65726f206160408201526564647265737360d01b606082015260800190565b60208082526022908201527f45524332303a20617070726f766520746f20746865207a65726f206164647265604082015261737360f01b606082015260800190565b60208082526026908201527f45524332303a207472616e7366657220616d6f756e7420657863656564732062604082015265616c616e636560d01b606082015260800190565b60208082526028908201527f45524332303a207472616e7366657220616d6f756e74206578636565647320616040820152676c6c6f77616e636560c01b606082015260800190565b6020808252818101527f4f776e61626c653a2063616c6c6572206973206e6f7420746865206f776e6572604082015260600190565b6020808252818101527f6163636f756e74206973206120726567756c6172207368617265686f6c646572604082015260600190565b60208082526025908201527f45524332303a207472616e736665722066726f6d20746865207a65726f206164604082015264647265737360d81b606082015260800190565b60208082526024908201527f45524332303a20617070726f76652066726f6d20746865207a65726f206164646040820152637265737360e01b606082015260800190565b60208082526024908201527f6163636f756e74206973206e6f74206120726567756c6172207368617265686f604082015263363232b960e11b606082015260800190565b60208082526025908201527f45524332303a2064656372656173656420616c6c6f77616e63652062656c6f77604082015264207a65726f60d81b606082015260800190565b90815260200190565b60ff91909116815260200190565b6000821982111561169957611699611772565b500190565b6000826116b957634e487b7160e01b81526012600452602481fd5b500490565b60008160001904831182151516156116d8576116d8611772565b500290565b6000828210156116ef576116ef611772565b500390565b600060ff821660ff84168082101561170e5761170e611772565b90039392505050565b60028104600182168061172b57607f821691505b6020821081141561174c57634e487b7160e01b600052602260045260246000fd5b50919050565b600060ff821660ff81141561176957611769611772565b60010192915050565b634e487b7160e01b600052601160045260246000fdfea26469706673582212200319326391d2ed5d53f8b051b925b4b8bdc8e69e498cf7cd2eb8e760dcef268c64736f6c63430008000033",
  "devdoc": {
    "kind": "dev",
    "methods": {
      "allowance(address,address)": {
        "details": "See {IERC20-allowance}."
      },
      "approve(address,uint256)": {
        "details": "See {IERC20-approve}. Requirements: - `spender` cannot be the zero address."
      },
      "balanceOf(address)": {
        "details": "See {IERC20-balanceOf}."
      },
      "decimals()": {
        "details": "Returns the number of decimals used to get its user representation. For example, if `decimals` equals `2`, a balance of `505` tokens should be displayed to a user as `5,05` (`505 / 10 ** 2`). Tokens usually opt for a value of 18, imitating the relationship between Ether and Wei. This is the value {ERC20} uses, unless this function is overloaded; NOTE: This information is only used for _display_ purposes: it in no way affects any of the arithmetic of the contract, including {IERC20-balanceOf} and {IERC20-transfer}."
      },
      "decreaseAllowance(address,uint256)": {
        "details": "Atomically decreases the allowance granted to `spender` by the caller. This is an alternative to {approve} that can be used as a mitigation for problems described in {IERC20-approve}. Emits an {Approval} event indicating the updated allowance. Requirements: - `spender` cannot be the zero address. - `spender` must have allowance for the caller of at least `subtractedValue`."
      },
      "increaseAllowance(address,uint256)": {
        "details": "Atomically increases the allowance granted to `spender` by the caller. This is an alternative to {approve} that can be used as a mitigation for problems described in {IERC20-approve}. Emits an {Approval} event indicating the updated allowance. Requirements: - `spender` cannot be the zero address."
      },
      "name()": {
        "details": "Returns the name of the token."
      },
      "owner()": {
        "details": "Returns the address of the current owner."
      },
      "renounceOwnership()": {
        "details": "Leaves the contract without owner. It will not be possible to call `onlyOwner` functions anymore. Can only be called by the current owner. NOTE: Renouncing ownership will leave the contract without an owner, thereby removing any functionality that is only available to the owner."
      },
      "symbol()": {
        "details": "Returns the symbol of the token, usually a shorter version of the name."
      },
      "totalSupply()": {
        "details": "See {IERC20-totalSupply}."
      },
      "transfer(address,uint256)": {
        "details": "See {IERC20-transfer}. Requirements: - `recipient` cannot be the zero address. - the caller must have a balance of at least `amount`."
      },
      "transferFrom(address,address,uint256)": {
        "details": "See {IERC20-transferFrom}. Emits an {Approval} event indicating the updated allowance. This is not required by the EIP. See the note at the beginning of {ERC20}. Requirements: - `sender` and `recipient` cannot be the zero address. - `sender` must have a balance of at least `amount`. - the caller must have allowance for ``sender``'s tokens of at least `amount`."
      },
      "transferOwnership(address)": {
        "details": "Transfers ownership of the contract to a new account (`newOwner`). Can only be called by the current owner."
      }
    },
    "version": 1
  },
  "userdoc": {
    "kind": "user",
    "methods": {},
    "version": 1
  },
  "storageLayout": {
    "storage": [
      {
        "astId": 1199,
        "contract": "contracts/Distribution/AtlantisDistribution.sol:AtlantisDistribution",
        "label": "_balances",
        "offset": 0,
        "slot": "0",
        "type": "t_mapping(t_address,t_uint256)"
      },
      {
        "astId": 1205,
        "contract": "contracts/Distribution/AtlantisDistribution.sol:AtlantisDistribution",
        "label": "_allowances",
        "offset": 0,
        "slot": "1",
        "type": "t_mapping(t_address,t_mapping(t_address,t_uint256))"
      },
      {
        "astId": 1207,
        "contract": "contracts/Distribution/AtlantisDistribution.sol:AtlantisDistribution",
        "label": "_totalSupply",
        "offset": 0,
        "slot": "2",
        "type": "t_uint256"
      },
      {
        "astId": 1209,
        "contract": "contracts/Distribution/AtlantisDistribution.sol:AtlantisDistribution",
        "label": "_name",
        "offset": 0,
        "slot": "3",
        "type": "t_string_storage"
      },
      {
        "astId": 1211,
        "contract": "contracts/Distribution/AtlantisDistribution.sol:AtlantisDistribution",
        "label": "_symbol",
        "offset": 0,
        "slot": "4",
        "type": "t_string_storage"
      },
      {
        "astId": 7,
        "contract": "contracts/Distribution/AtlantisDistribution.sol:AtlantisDistribution",
        "label": "_owner",
        "offset": 0,
        "slot": "5",
        "type": "t_address"
      },
      {
        "astId": 531,
        "contract": "contracts/Distribution/AtlantisDistribution.sol:AtlantisDistribution",
        "label": "balanceCoefficient",
        "offset": 0,
        "slot": "6",
        "type": "t_mapping(t_address,t_uint256)"
      },
      {
        "astId": 535,
        "contract": "contracts/Distribution/AtlantisDistribution.sol:AtlantisDistribution",
        "label": "level",
        "offset": 0,
        "slot": "7",
        "type": "t_mapping(t_address,t_uint8)"
      },
      {
        "astId": 542,
        "contract": "contracts/Distribution/AtlantisDistribution.sol:AtlantisDistribution",
        "label": "currentBC",
        "offset": 0,
        "slot": "8",
        "type": "t_array(t_uint256)3_storage"
      },
      {
        "astId": 546,
        "contract": "contracts/Distribution/AtlantisDistribution.sol:AtlantisDistribution",
        "label": "totalLevelSupply",
        "offset": 0,
        "slot": "11",
        "type": "t_array(t_uint256)3_storage"
      },
      {
        "astId": 548,
        "contract": "contracts/Distribution/AtlantisDistribution.sol:AtlantisDistribution",
        "label": "fund_wallet",
        "offset": 0,
        "slot": "14",
        "type": "t_address_payable"
      }
    ],
    "types": {
      "t_address": {
        "encoding": "inplace",
        "label": "address",
        "numberOfBytes": "20"
      },
      "t_address_payable": {
        "encoding": "inplace",
        "label": "address payable",
        "numberOfBytes": "20"
      },
      "t_array(t_uint256)3_storage": {
        "base": "t_uint256",
        "encoding": "inplace",
        "label": "uint256[3]",
        "numberOfBytes": "96"
      },
      "t_mapping(t_address,t_mapping(t_address,t_uint256))": {
        "encoding": "mapping",
        "key": "t_address",
        "label": "mapping(address => mapping(address => uint256))",
        "numberOfBytes": "32",
        "value": "t_mapping(t_address,t_uint256)"
      },
      "t_mapping(t_address,t_uint256)": {
        "encoding": "mapping",
        "key": "t_address",
        "label": "mapping(address => uint256)",
        "numberOfBytes": "32",
        "value": "t_uint256"
      },
      "t_mapping(t_address,t_uint8)": {
        "encoding": "mapping",
        "key": "t_address",
        "label": "mapping(address => uint8)",
        "numberOfBytes": "32",
        "value": "t_uint8"
      },
      "t_string_storage": {
        "encoding": "bytes",
        "label": "string",
        "numberOfBytes": "32"
      },
      "t_uint256": {
        "encoding": "inplace",
        "label": "uint256",
        "numberOfBytes": "32"
      },
      "t_uint8": {
        "encoding": "inplace",
        "label": "uint8",
        "numberOfBytes": "1"
      }
    }
  }
}